{
	"VersionManager.sol": {
		"VersionManager": {
			"abi": [
				{
					"inputs": [],
					"stateMutability": "nonpayable",
					"type": "constructor"
				},
				{
					"anonymous": false,
					"inputs": [
						{
							"indexed": false,
							"internalType": "address",
							"name": "",
							"type": "address"
						}
					],
					"name": "Deployed",
					"type": "event"
				},
				{
					"anonymous": false,
					"inputs": [
						{
							"indexed": false,
							"internalType": "address",
							"name": "",
							"type": "address"
						}
					],
					"name": "Set",
					"type": "event"
				},
				{
					"inputs": [],
					"name": "getCurrentManager",
					"outputs": [
						{
							"internalType": "address",
							"name": "",
							"type": "address"
						}
					],
					"stateMutability": "view",
					"type": "function"
				},
				{
					"inputs": [],
					"name": "getStates",
					"outputs": [
						{
							"components": [
								{
									"internalType": "uint256",
									"name": "timestamp",
									"type": "uint256"
								},
								{
									"internalType": "address",
									"name": "addr",
									"type": "address"
								}
							],
							"internalType": "struct VersionManager.State[]",
							"name": "",
							"type": "tuple[]"
						}
					],
					"stateMutability": "view",
					"type": "function"
				},
				{
					"inputs": [
						{
							"internalType": "address",
							"name": "_manager",
							"type": "address"
						},
						{
							"internalType": "bool",
							"name": "setToCurrent",
							"type": "bool"
						}
					],
					"name": "postState",
					"outputs": [],
					"stateMutability": "nonpayable",
					"type": "function"
				},
				{
					"inputs": [
						{
							"internalType": "address",
							"name": "_addr",
							"type": "address"
						}
					],
					"name": "setBackTo",
					"outputs": [],
					"stateMutability": "nonpayable",
					"type": "function"
				}
			],
			"devdoc": {
				"kind": "dev",
				"methods": {},
				"version": 1
			},
			"evm": {
				"assembly": "    /* \"VersionManager.sol\":77:1438  contract VersionManager{... */\n  mstore(0x40, 0x80)\n    /* \"VersionManager.sol\":320:370  constructor(){... */\n  callvalue\n  dup1\n  iszero\n  tag_1\n  jumpi\n  0x00\n  dup1\n  revert\ntag_1:\n  pop\n    /* \"VersionManager.sol\":352:362  msg.sender */\n  caller\n    /* \"VersionManager.sol\":344:349  owner */\n  0x02\n  0x00\n    /* \"VersionManager.sol\":344:362  owner = msg.sender */\n  0x0100\n  exp\n  dup2\n  sload\n  dup2\n  0xffffffffffffffffffffffffffffffffffffffff\n  mul\n  not\n  and\n  swap1\n  dup4\n  0xffffffffffffffffffffffffffffffffffffffff\n  and\n  mul\n  or\n  swap1\n  sstore\n  pop\n    /* \"VersionManager.sol\":77:1438  contract VersionManager{... */\n  dataSize(sub_0)\n  dup1\n  dataOffset(sub_0)\n  0x00\n  codecopy\n  0x00\n  return\nstop\n\nsub_0: assembly {\n        /* \"VersionManager.sol\":77:1438  contract VersionManager{... */\n      mstore(0x40, 0x80)\n      callvalue\n      dup1\n      iszero\n      tag_1\n      jumpi\n      0x00\n      dup1\n      revert\n    tag_1:\n      pop\n      jumpi(tag_2, lt(calldatasize, 0x04))\n      shr(0xe0, calldataload(0x00))\n      dup1\n      0x51d8f3f6\n      eq\n      tag_3\n      jumpi\n      dup1\n      0xadcaab53\n      eq\n      tag_4\n      jumpi\n      dup1\n      0xc8ef8aea\n      eq\n      tag_5\n      jumpi\n      dup1\n      0xd8ab8274\n      eq\n      tag_6\n      jumpi\n    tag_2:\n      0x00\n      dup1\n      revert\n        /* \"VersionManager.sol\":477:578  function getCurrentManager() external view returns (address) {... */\n    tag_3:\n      tag_7\n      tag_8\n      jump\t// in\n    tag_7:\n      mload(0x40)\n      tag_9\n      swap2\n      swap1\n      tag_10\n      jump\t// in\n    tag_9:\n      mload(0x40)\n      dup1\n      swap2\n      sub\n      swap1\n      return\n        /* \"VersionManager.sol\":889:1188  function postState(address _manager, bool setToCurrent) external ownerOnly {... */\n    tag_4:\n      tag_11\n      0x04\n      dup1\n      calldatasize\n      sub\n      dup2\n      add\n      swap1\n      tag_12\n      swap2\n      swap1\n      tag_13\n      jump\t// in\n    tag_12:\n      tag_14\n      jump\t// in\n    tag_11:\n      stop\n        /* \"VersionManager.sol\":686:880  function setBackTo(address _addr) external ownerOnly {    ... */\n    tag_5:\n      tag_15\n      0x04\n      dup1\n      calldatasize\n      sub\n      dup2\n      add\n      swap1\n      tag_16\n      swap2\n      swap1\n      tag_17\n      jump\t// in\n    tag_16:\n      tag_18\n      jump\t// in\n    tag_15:\n      stop\n        /* \"VersionManager.sol\":586:678  function getStates() external view returns (State[] memory) {... */\n    tag_6:\n      tag_19\n      tag_20\n      jump\t// in\n    tag_19:\n      mload(0x40)\n      tag_21\n      swap2\n      swap1\n      tag_22\n      jump\t// in\n    tag_21:\n      mload(0x40)\n      dup1\n      swap2\n      sub\n      swap1\n      return\n        /* \"VersionManager.sol\":477:578  function getCurrentManager() external view returns (address) {... */\n    tag_8:\n        /* \"VersionManager.sol\":529:536  address */\n      0x00\n        /* \"VersionManager.sol\":556:570  currentManager */\n      0x01\n      0x00\n      swap1\n      sload\n      swap1\n      0x0100\n      exp\n      swap1\n      div\n      0xffffffffffffffffffffffffffffffffffffffff\n      and\n        /* \"VersionManager.sol\":549:570  return currentManager */\n      swap1\n      pop\n        /* \"VersionManager.sol\":477:578  function getCurrentManager() external view returns (address) {... */\n      swap1\n      jump\t// out\n        /* \"VersionManager.sol\":889:1188  function postState(address _manager, bool setToCurrent) external ownerOnly {... */\n    tag_14:\n        /* \"VersionManager.sol\":429:434  owner */\n      0x02\n      0x00\n      swap1\n      sload\n      swap1\n      0x0100\n      exp\n      swap1\n      div\n      0xffffffffffffffffffffffffffffffffffffffff\n      and\n        /* \"VersionManager.sol\":415:434  msg.sender == owner */\n      0xffffffffffffffffffffffffffffffffffffffff\n      and\n        /* \"VersionManager.sol\":415:425  msg.sender */\n      caller\n        /* \"VersionManager.sol\":415:434  msg.sender == owner */\n      0xffffffffffffffffffffffffffffffffffffffff\n      and\n      eq\n        /* \"VersionManager.sol\":407:449  require(msg.sender == owner, \"Only owner\") */\n      tag_25\n      jumpi\n      mload(0x40)\n      0x08c379a000000000000000000000000000000000000000000000000000000000\n      dup2\n      mstore\n      0x04\n      add\n      tag_26\n      swap1\n      tag_27\n      jump\t// in\n    tag_26:\n      mload(0x40)\n      dup1\n      swap2\n      sub\n      swap1\n      revert\n    tag_25:\n        /* \"VersionManager.sol\":1012:1014  -1 */\n      0xffffffffffffffffffffffffffffffffffffffffffffffffffffffffffffffff\n        /* \"VersionManager.sol\":981:1008  findState(_manager, states) */\n      tag_29\n        /* \"VersionManager.sol\":991:999  _manager */\n      dup4\n        /* \"VersionManager.sol\":1001:1007  states */\n      0x00\n        /* \"VersionManager.sol\":981:1008  findState(_manager, states) */\n      dup1\n      sload\n      dup1\n      0x20\n      mul\n      0x20\n      add\n      mload(0x40)\n      swap1\n      dup2\n      add\n      0x40\n      mstore\n      dup1\n      swap3\n      swap2\n      swap1\n      dup2\n      dup2\n      mstore\n      0x20\n      add\n      0x00\n      swap1\n    tag_30:\n      dup3\n      dup3\n      lt\n      iszero\n      tag_31\n      jumpi\n      dup4\n      dup3\n      swap1\n      0x00\n      mstore\n      keccak256(0x00, 0x20)\n      swap1\n      0x02\n      mul\n      add\n      mload(0x40)\n      dup1\n      0x40\n      add\n      0x40\n      mstore\n      swap1\n      dup2\n      0x00\n      dup3\n      add\n      sload\n      dup2\n      mstore\n      0x20\n      add\n      0x01\n      dup3\n      add\n      0x00\n      swap1\n      sload\n      swap1\n      0x0100\n      exp\n      swap1\n      div\n      0xffffffffffffffffffffffffffffffffffffffff\n      and\n      0xffffffffffffffffffffffffffffffffffffffff\n      and\n      0xffffffffffffffffffffffffffffffffffffffff\n      and\n      dup2\n      mstore\n      pop\n      pop\n      dup2\n      mstore\n      0x20\n      add\n      swap1\n      0x01\n      add\n      swap1\n      jump(tag_30)\n    tag_31:\n      pop\n      pop\n      pop\n      pop\n        /* \"VersionManager.sol\":981:990  findState */\n      tag_33\n        /* \"VersionManager.sol\":981:1008  findState(_manager, states) */\n      jump\t// in\n    tag_29:\n        /* \"VersionManager.sol\":981:1014  findState(_manager, states) != -1 */\n      eq\n        /* \"VersionManager.sol\":977:1032  if( findState(_manager, states) != -1) revert(\"Exists\") */\n      tag_34\n      jumpi\n        /* \"VersionManager.sol\":1016:1032  revert(\"Exists\") */\n      mload(0x40)\n      0x08c379a000000000000000000000000000000000000000000000000000000000\n      dup2\n      mstore\n      0x04\n      add\n      tag_35\n      swap1\n      tag_36\n      jump\t// in\n    tag_35:\n      mload(0x40)\n      dup1\n      swap2\n      sub\n      swap1\n      revert\n        /* \"VersionManager.sol\":977:1032  if( findState(_manager, states) != -1) revert(\"Exists\") */\n    tag_34:\n        /* \"VersionManager.sol\":1043:1049  states */\n      0x00\n        /* \"VersionManager.sol\":1055:1087  State(block.timestamp, _manager) */\n      mload(0x40)\n      dup1\n      0x40\n      add\n      0x40\n      mstore\n      dup1\n        /* \"VersionManager.sol\":1061:1076  block.timestamp */\n      timestamp\n        /* \"VersionManager.sol\":1055:1087  State(block.timestamp, _manager) */\n      dup2\n      mstore\n      0x20\n      add\n        /* \"VersionManager.sol\":1078:1086  _manager */\n      dup5\n        /* \"VersionManager.sol\":1055:1087  State(block.timestamp, _manager) */\n      0xffffffffffffffffffffffffffffffffffffffff\n      and\n      dup2\n      mstore\n      pop\n        /* \"VersionManager.sol\":1043:1088  states.push(State(block.timestamp, _manager)) */\n      swap1\n      dup1\n      0x01\n      dup2\n      sload\n      add\n      dup1\n      dup3\n      sstore\n      dup1\n      swap2\n      pop\n      pop\n      0x01\n      swap1\n      sub\n      swap1\n      0x00\n      mstore\n      keccak256(0x00, 0x20)\n      swap1\n      0x02\n      mul\n      add\n      0x00\n      swap1\n      swap2\n      swap1\n      swap2\n      swap1\n      swap2\n      pop\n      0x00\n      dup3\n      add\n      mload\n      dup2\n      0x00\n      add\n      sstore\n      0x20\n      dup3\n      add\n      mload\n      dup2\n      0x01\n      add\n      exp(0x0100, 0x00)\n      dup2\n      sload\n      dup2\n      0xffffffffffffffffffffffffffffffffffffffff\n      mul\n      not\n      and\n      swap1\n      dup4\n      0xffffffffffffffffffffffffffffffffffffffff\n      and\n      mul\n      or\n      swap1\n      sstore\n      pop\n      pop\n      pop\n        /* \"VersionManager.sol\":1104:1116  setToCurrent */\n      dup1\n        /* \"VersionManager.sol\":1101:1143  if(setToCurrent) currentManager = _manager */\n      iszero\n      tag_38\n      jumpi\n        /* \"VersionManager.sol\":1135:1143  _manager */\n      dup2\n        /* \"VersionManager.sol\":1118:1132  currentManager */\n      0x01\n      0x00\n        /* \"VersionManager.sol\":1118:1143  currentManager = _manager */\n      0x0100\n      exp\n      dup2\n      sload\n      dup2\n      0xffffffffffffffffffffffffffffffffffffffff\n      mul\n      not\n      and\n      swap1\n      dup4\n      0xffffffffffffffffffffffffffffffffffffffff\n      and\n      mul\n      or\n      swap1\n      sstore\n      pop\n        /* \"VersionManager.sol\":1101:1143  if(setToCurrent) currentManager = _manager */\n    tag_38:\n        /* \"VersionManager.sol\":1161:1179  Deployed(_manager) */\n      0xf40fcec21964ffb566044d083b4073f29f7f7929110ea19e1b3ebe375d89055e\n        /* \"VersionManager.sol\":1170:1178  _manager */\n      dup3\n        /* \"VersionManager.sol\":1161:1179  Deployed(_manager) */\n      mload(0x40)\n      tag_39\n      swap2\n      swap1\n      tag_10\n      jump\t// in\n    tag_39:\n      mload(0x40)\n      dup1\n      swap2\n      sub\n      swap1\n      log1\n        /* \"VersionManager.sol\":889:1188  function postState(address _manager, bool setToCurrent) external ownerOnly {... */\n      pop\n      pop\n      jump\t// out\n        /* \"VersionManager.sol\":686:880  function setBackTo(address _addr) external ownerOnly {    ... */\n    tag_18:\n        /* \"VersionManager.sol\":429:434  owner */\n      0x02\n      0x00\n      swap1\n      sload\n      swap1\n      0x0100\n      exp\n      swap1\n      div\n      0xffffffffffffffffffffffffffffffffffffffff\n      and\n        /* \"VersionManager.sol\":415:434  msg.sender == owner */\n      0xffffffffffffffffffffffffffffffffffffffff\n      and\n        /* \"VersionManager.sol\":415:425  msg.sender */\n      caller\n        /* \"VersionManager.sol\":415:434  msg.sender == owner */\n      0xffffffffffffffffffffffffffffffffffffffff\n      and\n      eq\n        /* \"VersionManager.sol\":407:449  require(msg.sender == owner, \"Only owner\") */\n      tag_41\n      jumpi\n      mload(0x40)\n      0x08c379a000000000000000000000000000000000000000000000000000000000\n      dup2\n      mstore\n      0x04\n      add\n      tag_42\n      swap1\n      tag_27\n      jump\t// in\n    tag_42:\n      mload(0x40)\n      dup1\n      swap2\n      sub\n      swap1\n      revert\n    tag_41:\n        /* \"VersionManager.sol\":788:790  -1 */\n      0xffffffffffffffffffffffffffffffffffffffffffffffffffffffffffffffff\n        /* \"VersionManager.sol\":760:784  findState(_addr, states) */\n      tag_44\n        /* \"VersionManager.sol\":770:775  _addr */\n      dup3\n        /* \"VersionManager.sol\":777:783  states */\n      0x00\n        /* \"VersionManager.sol\":760:784  findState(_addr, states) */\n      dup1\n      sload\n      dup1\n      0x20\n      mul\n      0x20\n      add\n      mload(0x40)\n      swap1\n      dup2\n      add\n      0x40\n      mstore\n      dup1\n      swap3\n      swap2\n      swap1\n      dup2\n      dup2\n      mstore\n      0x20\n      add\n      0x00\n      swap1\n    tag_45:\n      dup3\n      dup3\n      lt\n      iszero\n      tag_46\n      jumpi\n      dup4\n      dup3\n      swap1\n      0x00\n      mstore\n      keccak256(0x00, 0x20)\n      swap1\n      0x02\n      mul\n      add\n      mload(0x40)\n      dup1\n      0x40\n      add\n      0x40\n      mstore\n      swap1\n      dup2\n      0x00\n      dup3\n      add\n      sload\n      dup2\n      mstore\n      0x20\n      add\n      0x01\n      dup3\n      add\n      0x00\n      swap1\n      sload\n      swap1\n      0x0100\n      exp\n      swap1\n      div\n      0xffffffffffffffffffffffffffffffffffffffff\n      and\n      0xffffffffffffffffffffffffffffffffffffffff\n      and\n      0xffffffffffffffffffffffffffffffffffffffff\n      and\n      dup2\n      mstore\n      pop\n      pop\n      dup2\n      mstore\n      0x20\n      add\n      swap1\n      0x01\n      add\n      swap1\n      jump(tag_45)\n    tag_46:\n      pop\n      pop\n      pop\n      pop\n        /* \"VersionManager.sol\":760:769  findState */\n      tag_33\n        /* \"VersionManager.sol\":760:784  findState(_addr, states) */\n      jump\t// in\n    tag_44:\n        /* \"VersionManager.sol\":760:790  findState(_addr, states) == -1 */\n      sub\n        /* \"VersionManager.sol\":756:810  if( findState(_addr, states) == -1) revert(\"No index\") */\n      tag_48\n      jumpi\n        /* \"VersionManager.sol\":792:810  revert(\"No index\") */\n      mload(0x40)\n      0x08c379a000000000000000000000000000000000000000000000000000000000\n      dup2\n      mstore\n      0x04\n      add\n      tag_49\n      swap1\n      tag_50\n      jump\t// in\n    tag_49:\n      mload(0x40)\n      dup1\n      swap2\n      sub\n      swap1\n      revert\n        /* \"VersionManager.sol\":756:810  if( findState(_addr, states) == -1) revert(\"No index\") */\n    tag_48:\n        /* \"VersionManager.sol\":838:843  _addr */\n      dup1\n        /* \"VersionManager.sol\":821:835  currentManager */\n      0x01\n      0x00\n        /* \"VersionManager.sol\":821:843  currentManager = _addr */\n      0x0100\n      exp\n      dup2\n      sload\n      dup2\n      0xffffffffffffffffffffffffffffffffffffffff\n      mul\n      not\n      and\n      swap1\n      dup4\n      0xffffffffffffffffffffffffffffffffffffffff\n      and\n      mul\n      or\n      swap1\n      sstore\n      pop\n        /* \"VersionManager.sol\":861:871  Set(_addr) */\n      0x3c4dbb057f7df48b080ac34e14a9186ad0847e234436b06de4078464d5936c62\n        /* \"VersionManager.sol\":865:870  _addr */\n      dup2\n        /* \"VersionManager.sol\":861:871  Set(_addr) */\n      mload(0x40)\n      tag_51\n      swap2\n      swap1\n      tag_10\n      jump\t// in\n    tag_51:\n      mload(0x40)\n      dup1\n      swap2\n      sub\n      swap1\n      log1\n        /* \"VersionManager.sol\":686:880  function setBackTo(address _addr) external ownerOnly {    ... */\n      pop\n      jump\t// out\n        /* \"VersionManager.sol\":586:678  function getStates() external view returns (State[] memory) {... */\n    tag_20:\n        /* \"VersionManager.sol\":630:644  State[] memory */\n      0x60\n        /* \"VersionManager.sol\":664:670  states */\n      0x00\n        /* \"VersionManager.sol\":657:670  return states */\n      dup1\n      sload\n      dup1\n      0x20\n      mul\n      0x20\n      add\n      mload(0x40)\n      swap1\n      dup2\n      add\n      0x40\n      mstore\n      dup1\n      swap3\n      swap2\n      swap1\n      dup2\n      dup2\n      mstore\n      0x20\n      add\n      0x00\n      swap1\n    tag_53:\n      dup3\n      dup3\n      lt\n      iszero\n      tag_54\n      jumpi\n      dup4\n      dup3\n      swap1\n      0x00\n      mstore\n      keccak256(0x00, 0x20)\n      swap1\n      0x02\n      mul\n      add\n      mload(0x40)\n      dup1\n      0x40\n      add\n      0x40\n      mstore\n      swap1\n      dup2\n      0x00\n      dup3\n      add\n      sload\n      dup2\n      mstore\n      0x20\n      add\n      0x01\n      dup3\n      add\n      0x00\n      swap1\n      sload\n      swap1\n      0x0100\n      exp\n      swap1\n      div\n      0xffffffffffffffffffffffffffffffffffffffff\n      and\n      0xffffffffffffffffffffffffffffffffffffffff\n      and\n      0xffffffffffffffffffffffffffffffffffffffff\n      and\n      dup2\n      mstore\n      pop\n      pop\n      dup2\n      mstore\n      0x20\n      add\n      swap1\n      0x01\n      add\n      swap1\n      jump(tag_53)\n    tag_54:\n      pop\n      pop\n      pop\n      pop\n      swap1\n      pop\n        /* \"VersionManager.sol\":586:678  function getStates() external view returns (State[] memory) {... */\n      swap1\n      jump\t// out\n        /* \"VersionManager.sol\":1196:1431  function findState(address _value, State[] memory _array) internal pure returns (int) {... */\n    tag_33:\n        /* \"VersionManager.sol\":1277:1280  int */\n      0x00\n        /* \"VersionManager.sol\":1298:1304  uint i */\n      dup1\n        /* \"VersionManager.sol\":1307:1308  0 */\n      0x00\n        /* \"VersionManager.sol\":1298:1308  uint i = 0 */\n      swap1\n      pop\n        /* \"VersionManager.sol\":1293:1404  for (uint i = 0; i < _array.length; i++) {... */\n    tag_57:\n        /* \"VersionManager.sol\":1314:1320  _array */\n      dup3\n        /* \"VersionManager.sol\":1314:1327  _array.length */\n      mload\n        /* \"VersionManager.sol\":1310:1311  i */\n      dup2\n        /* \"VersionManager.sol\":1310:1327  i < _array.length */\n      lt\n        /* \"VersionManager.sol\":1293:1404  for (uint i = 0; i < _array.length; i++) {... */\n      iszero\n      tag_58\n      jumpi\n        /* \"VersionManager.sol\":1371:1377  _value */\n      dup4\n        /* \"VersionManager.sol\":1353:1377  _array[i].addr == _value */\n      0xffffffffffffffffffffffffffffffffffffffff\n      and\n        /* \"VersionManager.sol\":1353:1359  _array */\n      dup4\n        /* \"VersionManager.sol\":1360:1361  i */\n      dup3\n        /* \"VersionManager.sol\":1353:1362  _array[i] */\n      dup2\n      mload\n      dup2\n      lt\n      tag_60\n      jumpi\n      tag_61\n      tag_62\n      jump\t// in\n    tag_61:\n    tag_60:\n      0x20\n      mul\n      0x20\n      add\n      add\n      mload\n        /* \"VersionManager.sol\":1353:1367  _array[i].addr */\n      0x20\n      add\n      mload\n        /* \"VersionManager.sol\":1353:1377  _array[i].addr == _value */\n      0xffffffffffffffffffffffffffffffffffffffff\n      and\n      sub\n        /* \"VersionManager.sol\":1349:1392  if (_array[i].addr == _value) return int(i) */\n      tag_63\n      jumpi\n        /* \"VersionManager.sol\":1390:1391  i */\n      dup1\n        /* \"VersionManager.sol\":1379:1392  return int(i) */\n      swap2\n      pop\n      pop\n      jump(tag_56)\n        /* \"VersionManager.sol\":1349:1392  if (_array[i].addr == _value) return int(i) */\n    tag_63:\n        /* \"VersionManager.sol\":1329:1332  i++ */\n      dup1\n      dup1\n      0x01\n      add\n      swap2\n      pop\n      pop\n        /* \"VersionManager.sol\":1293:1404  for (uint i = 0; i < _array.length; i++) {... */\n      jump(tag_57)\n    tag_58:\n      pop\n        /* \"VersionManager.sol\":1421:1423  -1 */\n      0xffffffffffffffffffffffffffffffffffffffffffffffffffffffffffffffff\n        /* \"VersionManager.sol\":1414:1423  return -1 */\n      swap1\n      pop\n        /* \"VersionManager.sol\":1196:1431  function findState(address _value, State[] memory _array) internal pure returns (int) {... */\n    tag_56:\n      swap3\n      swap2\n      pop\n      pop\n      jump\t// out\n        /* \"#utility.yul\":7:133   */\n    tag_64:\n        /* \"#utility.yul\":44:51   */\n      0x00\n        /* \"#utility.yul\":84:126   */\n      0xffffffffffffffffffffffffffffffffffffffff\n        /* \"#utility.yul\":77:82   */\n      dup3\n        /* \"#utility.yul\":73:127   */\n      and\n        /* \"#utility.yul\":62:127   */\n      swap1\n      pop\n        /* \"#utility.yul\":7:133   */\n      swap2\n      swap1\n      pop\n      jump\t// out\n        /* \"#utility.yul\":139:235   */\n    tag_65:\n        /* \"#utility.yul\":176:183   */\n      0x00\n        /* \"#utility.yul\":205:229   */\n      tag_95\n        /* \"#utility.yul\":223:228   */\n      dup3\n        /* \"#utility.yul\":205:229   */\n      tag_64\n      jump\t// in\n    tag_95:\n        /* \"#utility.yul\":194:229   */\n      swap1\n      pop\n        /* \"#utility.yul\":139:235   */\n      swap2\n      swap1\n      pop\n      jump\t// out\n        /* \"#utility.yul\":241:359   */\n    tag_66:\n        /* \"#utility.yul\":328:352   */\n      tag_97\n        /* \"#utility.yul\":346:351   */\n      dup2\n        /* \"#utility.yul\":328:352   */\n      tag_65\n      jump\t// in\n    tag_97:\n        /* \"#utility.yul\":323:326   */\n      dup3\n        /* \"#utility.yul\":316:353   */\n      mstore\n        /* \"#utility.yul\":241:359   */\n      pop\n      pop\n      jump\t// out\n        /* \"#utility.yul\":365:587   */\n    tag_10:\n        /* \"#utility.yul\":458:462   */\n      0x00\n        /* \"#utility.yul\":496:498   */\n      0x20\n        /* \"#utility.yul\":485:494   */\n      dup3\n        /* \"#utility.yul\":481:499   */\n      add\n        /* \"#utility.yul\":473:499   */\n      swap1\n      pop\n        /* \"#utility.yul\":509:580   */\n      tag_99\n        /* \"#utility.yul\":577:578   */\n      0x00\n        /* \"#utility.yul\":566:575   */\n      dup4\n        /* \"#utility.yul\":562:579   */\n      add\n        /* \"#utility.yul\":553:559   */\n      dup5\n        /* \"#utility.yul\":509:580   */\n      tag_66\n      jump\t// in\n    tag_99:\n        /* \"#utility.yul\":365:587   */\n      swap3\n      swap2\n      pop\n      pop\n      jump\t// out\n        /* \"#utility.yul\":674:791   */\n    tag_68:\n        /* \"#utility.yul\":783:784   */\n      0x00\n        /* \"#utility.yul\":780:781   */\n      dup1\n        /* \"#utility.yul\":773:785   */\n      revert\n        /* \"#utility.yul\":920:1042   */\n    tag_70:\n        /* \"#utility.yul\":993:1017   */\n      tag_104\n        /* \"#utility.yul\":1011:1016   */\n      dup2\n        /* \"#utility.yul\":993:1017   */\n      tag_65\n      jump\t// in\n    tag_104:\n        /* \"#utility.yul\":986:991   */\n      dup2\n        /* \"#utility.yul\":983:1018   */\n      eq\n        /* \"#utility.yul\":973:1036   */\n      tag_105\n      jumpi\n        /* \"#utility.yul\":1032:1033   */\n      0x00\n        /* \"#utility.yul\":1029:1030   */\n      dup1\n        /* \"#utility.yul\":1022:1034   */\n      revert\n        /* \"#utility.yul\":973:1036   */\n    tag_105:\n        /* \"#utility.yul\":920:1042   */\n      pop\n      jump\t// out\n        /* \"#utility.yul\":1048:1187   */\n    tag_71:\n        /* \"#utility.yul\":1094:1099   */\n      0x00\n        /* \"#utility.yul\":1132:1138   */\n      dup2\n        /* \"#utility.yul\":1119:1139   */\n      calldataload\n        /* \"#utility.yul\":1110:1139   */\n      swap1\n      pop\n        /* \"#utility.yul\":1148:1181   */\n      tag_107\n        /* \"#utility.yul\":1175:1180   */\n      dup2\n        /* \"#utility.yul\":1148:1181   */\n      tag_70\n      jump\t// in\n    tag_107:\n        /* \"#utility.yul\":1048:1187   */\n      swap3\n      swap2\n      pop\n      pop\n      jump\t// out\n        /* \"#utility.yul\":1193:1283   */\n    tag_72:\n        /* \"#utility.yul\":1227:1234   */\n      0x00\n        /* \"#utility.yul\":1270:1275   */\n      dup2\n        /* \"#utility.yul\":1263:1276   */\n      iszero\n        /* \"#utility.yul\":1256:1277   */\n      iszero\n        /* \"#utility.yul\":1245:1277   */\n      swap1\n      pop\n        /* \"#utility.yul\":1193:1283   */\n      swap2\n      swap1\n      pop\n      jump\t// out\n        /* \"#utility.yul\":1289:1405   */\n    tag_73:\n        /* \"#utility.yul\":1359:1380   */\n      tag_110\n        /* \"#utility.yul\":1374:1379   */\n      dup2\n        /* \"#utility.yul\":1359:1380   */\n      tag_72\n      jump\t// in\n    tag_110:\n        /* \"#utility.yul\":1352:1357   */\n      dup2\n        /* \"#utility.yul\":1349:1381   */\n      eq\n        /* \"#utility.yul\":1339:1399   */\n      tag_111\n      jumpi\n        /* \"#utility.yul\":1395:1396   */\n      0x00\n        /* \"#utility.yul\":1392:1393   */\n      dup1\n        /* \"#utility.yul\":1385:1397   */\n      revert\n        /* \"#utility.yul\":1339:1399   */\n    tag_111:\n        /* \"#utility.yul\":1289:1405   */\n      pop\n      jump\t// out\n        /* \"#utility.yul\":1411:1544   */\n    tag_74:\n        /* \"#utility.yul\":1454:1459   */\n      0x00\n        /* \"#utility.yul\":1492:1498   */\n      dup2\n        /* \"#utility.yul\":1479:1499   */\n      calldataload\n        /* \"#utility.yul\":1470:1499   */\n      swap1\n      pop\n        /* \"#utility.yul\":1508:1538   */\n      tag_113\n        /* \"#utility.yul\":1532:1537   */\n      dup2\n        /* \"#utility.yul\":1508:1538   */\n      tag_73\n      jump\t// in\n    tag_113:\n        /* \"#utility.yul\":1411:1544   */\n      swap3\n      swap2\n      pop\n      pop\n      jump\t// out\n        /* \"#utility.yul\":1550:2018   */\n    tag_13:\n        /* \"#utility.yul\":1615:1621   */\n      0x00\n        /* \"#utility.yul\":1623:1629   */\n      dup1\n        /* \"#utility.yul\":1672:1674   */\n      0x40\n        /* \"#utility.yul\":1660:1669   */\n      dup4\n        /* \"#utility.yul\":1651:1658   */\n      dup6\n        /* \"#utility.yul\":1647:1670   */\n      sub\n        /* \"#utility.yul\":1643:1675   */\n      slt\n        /* \"#utility.yul\":1640:1759   */\n      iszero\n      tag_115\n      jumpi\n        /* \"#utility.yul\":1678:1757   */\n      tag_116\n      tag_68\n      jump\t// in\n    tag_116:\n        /* \"#utility.yul\":1640:1759   */\n    tag_115:\n        /* \"#utility.yul\":1798:1799   */\n      0x00\n        /* \"#utility.yul\":1823:1876   */\n      tag_117\n        /* \"#utility.yul\":1868:1875   */\n      dup6\n        /* \"#utility.yul\":1859:1865   */\n      dup3\n        /* \"#utility.yul\":1848:1857   */\n      dup7\n        /* \"#utility.yul\":1844:1866   */\n      add\n        /* \"#utility.yul\":1823:1876   */\n      tag_71\n      jump\t// in\n    tag_117:\n        /* \"#utility.yul\":1813:1876   */\n      swap3\n      pop\n        /* \"#utility.yul\":1769:1886   */\n      pop\n        /* \"#utility.yul\":1925:1927   */\n      0x20\n        /* \"#utility.yul\":1951:2001   */\n      tag_118\n        /* \"#utility.yul\":1993:2000   */\n      dup6\n        /* \"#utility.yul\":1984:1990   */\n      dup3\n        /* \"#utility.yul\":1973:1982   */\n      dup7\n        /* \"#utility.yul\":1969:1991   */\n      add\n        /* \"#utility.yul\":1951:2001   */\n      tag_74\n      jump\t// in\n    tag_118:\n        /* \"#utility.yul\":1941:2001   */\n      swap2\n      pop\n        /* \"#utility.yul\":1896:2011   */\n      pop\n        /* \"#utility.yul\":1550:2018   */\n      swap3\n      pop\n      swap3\n      swap1\n      pop\n      jump\t// out\n        /* \"#utility.yul\":2024:2353   */\n    tag_17:\n        /* \"#utility.yul\":2083:2089   */\n      0x00\n        /* \"#utility.yul\":2132:2134   */\n      0x20\n        /* \"#utility.yul\":2120:2129   */\n      dup3\n        /* \"#utility.yul\":2111:2118   */\n      dup5\n        /* \"#utility.yul\":2107:2130   */\n      sub\n        /* \"#utility.yul\":2103:2135   */\n      slt\n        /* \"#utility.yul\":2100:2219   */\n      iszero\n      tag_120\n      jumpi\n        /* \"#utility.yul\":2138:2217   */\n      tag_121\n      tag_68\n      jump\t// in\n    tag_121:\n        /* \"#utility.yul\":2100:2219   */\n    tag_120:\n        /* \"#utility.yul\":2258:2259   */\n      0x00\n        /* \"#utility.yul\":2283:2336   */\n      tag_122\n        /* \"#utility.yul\":2328:2335   */\n      dup5\n        /* \"#utility.yul\":2319:2325   */\n      dup3\n        /* \"#utility.yul\":2308:2317   */\n      dup6\n        /* \"#utility.yul\":2304:2326   */\n      add\n        /* \"#utility.yul\":2283:2336   */\n      tag_71\n      jump\t// in\n    tag_122:\n        /* \"#utility.yul\":2273:2336   */\n      swap2\n      pop\n        /* \"#utility.yul\":2229:2346   */\n      pop\n        /* \"#utility.yul\":2024:2353   */\n      swap3\n      swap2\n      pop\n      pop\n      jump\t// out\n        /* \"#utility.yul\":2359:2493   */\n    tag_75:\n        /* \"#utility.yul\":2446:2452   */\n      0x00\n        /* \"#utility.yul\":2480:2485   */\n      dup2\n        /* \"#utility.yul\":2474:2486   */\n      mload\n        /* \"#utility.yul\":2464:2486   */\n      swap1\n      pop\n        /* \"#utility.yul\":2359:2493   */\n      swap2\n      swap1\n      pop\n      jump\t// out\n        /* \"#utility.yul\":2499:2703   */\n    tag_76:\n        /* \"#utility.yul\":2618:2629   */\n      0x00\n        /* \"#utility.yul\":2652:2658   */\n      dup3\n        /* \"#utility.yul\":2647:2650   */\n      dup3\n        /* \"#utility.yul\":2640:2659   */\n      mstore\n        /* \"#utility.yul\":2692:2696   */\n      0x20\n        /* \"#utility.yul\":2687:2690   */\n      dup3\n        /* \"#utility.yul\":2683:2697   */\n      add\n        /* \"#utility.yul\":2668:2697   */\n      swap1\n      pop\n        /* \"#utility.yul\":2499:2703   */\n      swap3\n      swap2\n      pop\n      pop\n      jump\t// out\n        /* \"#utility.yul\":2709:2861   */\n    tag_77:\n        /* \"#utility.yul\":2796:2800   */\n      0x00\n        /* \"#utility.yul\":2819:2822   */\n      dup2\n        /* \"#utility.yul\":2811:2822   */\n      swap1\n      pop\n        /* \"#utility.yul\":2849:2853   */\n      0x20\n        /* \"#utility.yul\":2844:2847   */\n      dup3\n        /* \"#utility.yul\":2840:2854   */\n      add\n        /* \"#utility.yul\":2832:2854   */\n      swap1\n      pop\n        /* \"#utility.yul\":2709:2861   */\n      swap2\n      swap1\n      pop\n      jump\t// out\n        /* \"#utility.yul\":2867:2944   */\n    tag_78:\n        /* \"#utility.yul\":2904:2911   */\n      0x00\n        /* \"#utility.yul\":2933:2938   */\n      dup2\n        /* \"#utility.yul\":2922:2938   */\n      swap1\n      pop\n        /* \"#utility.yul\":2867:2944   */\n      swap2\n      swap1\n      pop\n      jump\t// out\n        /* \"#utility.yul\":2950:3058   */\n    tag_79:\n        /* \"#utility.yul\":3027:3051   */\n      tag_128\n        /* \"#utility.yul\":3045:3050   */\n      dup2\n        /* \"#utility.yul\":3027:3051   */\n      tag_78\n      jump\t// in\n    tag_128:\n        /* \"#utility.yul\":3022:3025   */\n      dup3\n        /* \"#utility.yul\":3015:3052   */\n      mstore\n        /* \"#utility.yul\":2950:3058   */\n      pop\n      pop\n      jump\t// out\n        /* \"#utility.yul\":3064:3172   */\n    tag_80:\n        /* \"#utility.yul\":3141:3165   */\n      tag_130\n        /* \"#utility.yul\":3159:3164   */\n      dup2\n        /* \"#utility.yul\":3141:3165   */\n      tag_65\n      jump\t// in\n    tag_130:\n        /* \"#utility.yul\":3136:3139   */\n      dup3\n        /* \"#utility.yul\":3129:3166   */\n      mstore\n        /* \"#utility.yul\":3064:3172   */\n      pop\n      pop\n      jump\t// out\n        /* \"#utility.yul\":3244:3736   */\n    tag_81:\n        /* \"#utility.yul\":3371:3375   */\n      0x40\n        /* \"#utility.yul\":3366:3369   */\n      dup3\n        /* \"#utility.yul\":3362:3376   */\n      add\n        /* \"#utility.yul\":3463:3467   */\n      0x00\n        /* \"#utility.yul\":3456:3461   */\n      dup3\n        /* \"#utility.yul\":3452:3468   */\n      add\n        /* \"#utility.yul\":3446:3469   */\n      mload\n        /* \"#utility.yul\":3482:3545   */\n      tag_132\n        /* \"#utility.yul\":3539:3543   */\n      0x00\n        /* \"#utility.yul\":3534:3537   */\n      dup6\n        /* \"#utility.yul\":3530:3544   */\n      add\n        /* \"#utility.yul\":3516:3528   */\n      dup3\n        /* \"#utility.yul\":3482:3545   */\n      tag_79\n      jump\t// in\n    tag_132:\n        /* \"#utility.yul\":3386:3555   */\n      pop\n        /* \"#utility.yul\":3637:3641   */\n      0x20\n        /* \"#utility.yul\":3630:3635   */\n      dup3\n        /* \"#utility.yul\":3626:3642   */\n      add\n        /* \"#utility.yul\":3620:3643   */\n      mload\n        /* \"#utility.yul\":3656:3719   */\n      tag_133\n        /* \"#utility.yul\":3713:3717   */\n      0x20\n        /* \"#utility.yul\":3708:3711   */\n      dup6\n        /* \"#utility.yul\":3704:3718   */\n      add\n        /* \"#utility.yul\":3690:3702   */\n      dup3\n        /* \"#utility.yul\":3656:3719   */\n      tag_80\n      jump\t// in\n    tag_133:\n        /* \"#utility.yul\":3565:3729   */\n      pop\n        /* \"#utility.yul\":3340:3736   */\n      pop\n        /* \"#utility.yul\":3244:3736   */\n      pop\n      pop\n      jump\t// out\n        /* \"#utility.yul\":3742:4001   */\n    tag_82:\n        /* \"#utility.yul\":3851:3861   */\n      0x00\n        /* \"#utility.yul\":3872:3958   */\n      tag_135\n        /* \"#utility.yul\":3954:3957   */\n      dup4\n        /* \"#utility.yul\":3946:3952   */\n      dup4\n        /* \"#utility.yul\":3872:3958   */\n      tag_81\n      jump\t// in\n    tag_135:\n        /* \"#utility.yul\":3990:3994   */\n      0x40\n        /* \"#utility.yul\":3985:3988   */\n      dup4\n        /* \"#utility.yul\":3981:3995   */\n      add\n        /* \"#utility.yul\":3967:3995   */\n      swap1\n      pop\n        /* \"#utility.yul\":3742:4001   */\n      swap3\n      swap2\n      pop\n      pop\n      jump\t// out\n        /* \"#utility.yul\":4007:4140   */\n    tag_83:\n        /* \"#utility.yul\":4097:4101   */\n      0x00\n        /* \"#utility.yul\":4129:4133   */\n      0x20\n        /* \"#utility.yul\":4124:4127   */\n      dup3\n        /* \"#utility.yul\":4120:4134   */\n      add\n        /* \"#utility.yul\":4112:4134   */\n      swap1\n      pop\n        /* \"#utility.yul\":4007:4140   */\n      swap2\n      swap1\n      pop\n      jump\t// out\n        /* \"#utility.yul\":4216:5108   */\n    tag_84:\n        /* \"#utility.yul\":4375:4378   */\n      0x00\n        /* \"#utility.yul\":4404:4478   */\n      tag_138\n        /* \"#utility.yul\":4472:4477   */\n      dup3\n        /* \"#utility.yul\":4404:4478   */\n      tag_75\n      jump\t// in\n    tag_138:\n        /* \"#utility.yul\":4494:4600   */\n      tag_139\n        /* \"#utility.yul\":4593:4599   */\n      dup2\n        /* \"#utility.yul\":4588:4591   */\n      dup6\n        /* \"#utility.yul\":4494:4600   */\n      tag_76\n      jump\t// in\n    tag_139:\n        /* \"#utility.yul\":4487:4600   */\n      swap4\n      pop\n        /* \"#utility.yul\":4624:4700   */\n      tag_140\n        /* \"#utility.yul\":4694:4699   */\n      dup4\n        /* \"#utility.yul\":4624:4700   */\n      tag_77\n      jump\t// in\n    tag_140:\n        /* \"#utility.yul\":4723:4730   */\n      dup1\n        /* \"#utility.yul\":4754:4755   */\n      0x00\n        /* \"#utility.yul\":4739:5083   */\n    tag_141:\n        /* \"#utility.yul\":4764:4770   */\n      dup4\n        /* \"#utility.yul\":4761:4762   */\n      dup2\n        /* \"#utility.yul\":4758:4771   */\n      lt\n        /* \"#utility.yul\":4739:5083   */\n      iszero\n      tag_143\n      jumpi\n        /* \"#utility.yul\":4840:4846   */\n      dup2\n        /* \"#utility.yul\":4834:4847   */\n      mload\n        /* \"#utility.yul\":4867:4970   */\n      tag_144\n        /* \"#utility.yul\":4966:4969   */\n      dup9\n        /* \"#utility.yul\":4951:4964   */\n      dup3\n        /* \"#utility.yul\":4867:4970   */\n      tag_82\n      jump\t// in\n    tag_144:\n        /* \"#utility.yul\":4860:4970   */\n      swap8\n      pop\n        /* \"#utility.yul\":4993:5073   */\n      tag_145\n        /* \"#utility.yul\":5066:5072   */\n      dup4\n        /* \"#utility.yul\":4993:5073   */\n      tag_83\n      jump\t// in\n    tag_145:\n        /* \"#utility.yul\":4983:5073   */\n      swap3\n      pop\n        /* \"#utility.yul\":4799:5083   */\n      pop\n        /* \"#utility.yul\":4786:4787   */\n      0x01\n        /* \"#utility.yul\":4783:4784   */\n      dup2\n        /* \"#utility.yul\":4779:4788   */\n      add\n        /* \"#utility.yul\":4774:4788   */\n      swap1\n      pop\n        /* \"#utility.yul\":4739:5083   */\n      jump(tag_141)\n    tag_143:\n        /* \"#utility.yul\":4743:4757   */\n      pop\n        /* \"#utility.yul\":5099:5102   */\n      dup6\n        /* \"#utility.yul\":5092:5102   */\n      swap4\n      pop\n        /* \"#utility.yul\":4380:5108   */\n      pop\n      pop\n      pop\n        /* \"#utility.yul\":4216:5108   */\n      swap3\n      swap2\n      pop\n      pop\n      jump\t// out\n        /* \"#utility.yul\":5114:5567   */\n    tag_22:\n        /* \"#utility.yul\":5297:5301   */\n      0x00\n        /* \"#utility.yul\":5335:5337   */\n      0x20\n        /* \"#utility.yul\":5324:5333   */\n      dup3\n        /* \"#utility.yul\":5320:5338   */\n      add\n        /* \"#utility.yul\":5312:5338   */\n      swap1\n      pop\n        /* \"#utility.yul\":5384:5393   */\n      dup2\n        /* \"#utility.yul\":5378:5382   */\n      dup2\n        /* \"#utility.yul\":5374:5394   */\n      sub\n        /* \"#utility.yul\":5370:5371   */\n      0x00\n        /* \"#utility.yul\":5359:5368   */\n      dup4\n        /* \"#utility.yul\":5355:5372   */\n      add\n        /* \"#utility.yul\":5348:5395   */\n      mstore\n        /* \"#utility.yul\":5412:5560   */\n      tag_147\n        /* \"#utility.yul\":5555:5559   */\n      dup2\n        /* \"#utility.yul\":5546:5552   */\n      dup5\n        /* \"#utility.yul\":5412:5560   */\n      tag_84\n      jump\t// in\n    tag_147:\n        /* \"#utility.yul\":5404:5560   */\n      swap1\n      pop\n        /* \"#utility.yul\":5114:5567   */\n      swap3\n      swap2\n      pop\n      pop\n      jump\t// out\n        /* \"#utility.yul\":5573:5742   */\n    tag_85:\n        /* \"#utility.yul\":5657:5668   */\n      0x00\n        /* \"#utility.yul\":5691:5697   */\n      dup3\n        /* \"#utility.yul\":5686:5689   */\n      dup3\n        /* \"#utility.yul\":5679:5698   */\n      mstore\n        /* \"#utility.yul\":5731:5735   */\n      0x20\n        /* \"#utility.yul\":5726:5729   */\n      dup3\n        /* \"#utility.yul\":5722:5736   */\n      add\n        /* \"#utility.yul\":5707:5736   */\n      swap1\n      pop\n        /* \"#utility.yul\":5573:5742   */\n      swap3\n      swap2\n      pop\n      pop\n      jump\t// out\n        /* \"#utility.yul\":5748:5908   */\n    tag_86:\n        /* \"#utility.yul\":5888:5900   */\n      0x4f6e6c79206f776e657200000000000000000000000000000000000000000000\n        /* \"#utility.yul\":5884:5885   */\n      0x00\n        /* \"#utility.yul\":5876:5882   */\n      dup3\n        /* \"#utility.yul\":5872:5886   */\n      add\n        /* \"#utility.yul\":5865:5901   */\n      mstore\n        /* \"#utility.yul\":5748:5908   */\n      pop\n      jump\t// out\n        /* \"#utility.yul\":5914:6280   */\n    tag_87:\n        /* \"#utility.yul\":6056:6059   */\n      0x00\n        /* \"#utility.yul\":6077:6144   */\n      tag_151\n        /* \"#utility.yul\":6141:6143   */\n      0x0a\n        /* \"#utility.yul\":6136:6139   */\n      dup4\n        /* \"#utility.yul\":6077:6144   */\n      tag_85\n      jump\t// in\n    tag_151:\n        /* \"#utility.yul\":6070:6144   */\n      swap2\n      pop\n        /* \"#utility.yul\":6153:6246   */\n      tag_152\n        /* \"#utility.yul\":6242:6245   */\n      dup3\n        /* \"#utility.yul\":6153:6246   */\n      tag_86\n      jump\t// in\n    tag_152:\n        /* \"#utility.yul\":6271:6273   */\n      0x20\n        /* \"#utility.yul\":6266:6269   */\n      dup3\n        /* \"#utility.yul\":6262:6274   */\n      add\n        /* \"#utility.yul\":6255:6274   */\n      swap1\n      pop\n        /* \"#utility.yul\":5914:6280   */\n      swap2\n      swap1\n      pop\n      jump\t// out\n        /* \"#utility.yul\":6286:6705   */\n    tag_27:\n        /* \"#utility.yul\":6452:6456   */\n      0x00\n        /* \"#utility.yul\":6490:6492   */\n      0x20\n        /* \"#utility.yul\":6479:6488   */\n      dup3\n        /* \"#utility.yul\":6475:6493   */\n      add\n        /* \"#utility.yul\":6467:6493   */\n      swap1\n      pop\n        /* \"#utility.yul\":6539:6548   */\n      dup2\n        /* \"#utility.yul\":6533:6537   */\n      dup2\n        /* \"#utility.yul\":6529:6549   */\n      sub\n        /* \"#utility.yul\":6525:6526   */\n      0x00\n        /* \"#utility.yul\":6514:6523   */\n      dup4\n        /* \"#utility.yul\":6510:6527   */\n      add\n        /* \"#utility.yul\":6503:6550   */\n      mstore\n        /* \"#utility.yul\":6567:6698   */\n      tag_154\n        /* \"#utility.yul\":6693:6697   */\n      dup2\n        /* \"#utility.yul\":6567:6698   */\n      tag_87\n      jump\t// in\n    tag_154:\n        /* \"#utility.yul\":6559:6698   */\n      swap1\n      pop\n        /* \"#utility.yul\":6286:6705   */\n      swap2\n      swap1\n      pop\n      jump\t// out\n        /* \"#utility.yul\":6711:6867   */\n    tag_88:\n        /* \"#utility.yul\":6851:6859   */\n      0x4578697374730000000000000000000000000000000000000000000000000000\n        /* \"#utility.yul\":6847:6848   */\n      0x00\n        /* \"#utility.yul\":6839:6845   */\n      dup3\n        /* \"#utility.yul\":6835:6849   */\n      add\n        /* \"#utility.yul\":6828:6860   */\n      mstore\n        /* \"#utility.yul\":6711:6867   */\n      pop\n      jump\t// out\n        /* \"#utility.yul\":6873:7238   */\n    tag_89:\n        /* \"#utility.yul\":7015:7018   */\n      0x00\n        /* \"#utility.yul\":7036:7102   */\n      tag_157\n        /* \"#utility.yul\":7100:7101   */\n      0x06\n        /* \"#utility.yul\":7095:7098   */\n      dup4\n        /* \"#utility.yul\":7036:7102   */\n      tag_85\n      jump\t// in\n    tag_157:\n        /* \"#utility.yul\":7029:7102   */\n      swap2\n      pop\n        /* \"#utility.yul\":7111:7204   */\n      tag_158\n        /* \"#utility.yul\":7200:7203   */\n      dup3\n        /* \"#utility.yul\":7111:7204   */\n      tag_88\n      jump\t// in\n    tag_158:\n        /* \"#utility.yul\":7229:7231   */\n      0x20\n        /* \"#utility.yul\":7224:7227   */\n      dup3\n        /* \"#utility.yul\":7220:7232   */\n      add\n        /* \"#utility.yul\":7213:7232   */\n      swap1\n      pop\n        /* \"#utility.yul\":6873:7238   */\n      swap2\n      swap1\n      pop\n      jump\t// out\n        /* \"#utility.yul\":7244:7663   */\n    tag_36:\n        /* \"#utility.yul\":7410:7414   */\n      0x00\n        /* \"#utility.yul\":7448:7450   */\n      0x20\n        /* \"#utility.yul\":7437:7446   */\n      dup3\n        /* \"#utility.yul\":7433:7451   */\n      add\n        /* \"#utility.yul\":7425:7451   */\n      swap1\n      pop\n        /* \"#utility.yul\":7497:7506   */\n      dup2\n        /* \"#utility.yul\":7491:7495   */\n      dup2\n        /* \"#utility.yul\":7487:7507   */\n      sub\n        /* \"#utility.yul\":7483:7484   */\n      0x00\n        /* \"#utility.yul\":7472:7481   */\n      dup4\n        /* \"#utility.yul\":7468:7485   */\n      add\n        /* \"#utility.yul\":7461:7508   */\n      mstore\n        /* \"#utility.yul\":7525:7656   */\n      tag_160\n        /* \"#utility.yul\":7651:7655   */\n      dup2\n        /* \"#utility.yul\":7525:7656   */\n      tag_89\n      jump\t// in\n    tag_160:\n        /* \"#utility.yul\":7517:7656   */\n      swap1\n      pop\n        /* \"#utility.yul\":7244:7663   */\n      swap2\n      swap1\n      pop\n      jump\t// out\n        /* \"#utility.yul\":7669:7827   */\n    tag_90:\n        /* \"#utility.yul\":7809:7819   */\n      0x4e6f20696e646578000000000000000000000000000000000000000000000000\n        /* \"#utility.yul\":7805:7806   */\n      0x00\n        /* \"#utility.yul\":7797:7803   */\n      dup3\n        /* \"#utility.yul\":7793:7807   */\n      add\n        /* \"#utility.yul\":7786:7820   */\n      mstore\n        /* \"#utility.yul\":7669:7827   */\n      pop\n      jump\t// out\n        /* \"#utility.yul\":7833:8198   */\n    tag_91:\n        /* \"#utility.yul\":7975:7978   */\n      0x00\n        /* \"#utility.yul\":7996:8062   */\n      tag_163\n        /* \"#utility.yul\":8060:8061   */\n      0x08\n        /* \"#utility.yul\":8055:8058   */\n      dup4\n        /* \"#utility.yul\":7996:8062   */\n      tag_85\n      jump\t// in\n    tag_163:\n        /* \"#utility.yul\":7989:8062   */\n      swap2\n      pop\n        /* \"#utility.yul\":8071:8164   */\n      tag_164\n        /* \"#utility.yul\":8160:8163   */\n      dup3\n        /* \"#utility.yul\":8071:8164   */\n      tag_90\n      jump\t// in\n    tag_164:\n        /* \"#utility.yul\":8189:8191   */\n      0x20\n        /* \"#utility.yul\":8184:8187   */\n      dup3\n        /* \"#utility.yul\":8180:8192   */\n      add\n        /* \"#utility.yul\":8173:8192   */\n      swap1\n      pop\n        /* \"#utility.yul\":7833:8198   */\n      swap2\n      swap1\n      pop\n      jump\t// out\n        /* \"#utility.yul\":8204:8623   */\n    tag_50:\n        /* \"#utility.yul\":8370:8374   */\n      0x00\n        /* \"#utility.yul\":8408:8410   */\n      0x20\n        /* \"#utility.yul\":8397:8406   */\n      dup3\n        /* \"#utility.yul\":8393:8411   */\n      add\n        /* \"#utility.yul\":8385:8411   */\n      swap1\n      pop\n        /* \"#utility.yul\":8457:8466   */\n      dup2\n        /* \"#utility.yul\":8451:8455   */\n      dup2\n        /* \"#utility.yul\":8447:8467   */\n      sub\n        /* \"#utility.yul\":8443:8444   */\n      0x00\n        /* \"#utility.yul\":8432:8441   */\n      dup4\n        /* \"#utility.yul\":8428:8445   */\n      add\n        /* \"#utility.yul\":8421:8468   */\n      mstore\n        /* \"#utility.yul\":8485:8616   */\n      tag_166\n        /* \"#utility.yul\":8611:8615   */\n      dup2\n        /* \"#utility.yul\":8485:8616   */\n      tag_91\n      jump\t// in\n    tag_166:\n        /* \"#utility.yul\":8477:8616   */\n      swap1\n      pop\n        /* \"#utility.yul\":8204:8623   */\n      swap2\n      swap1\n      pop\n      jump\t// out\n        /* \"#utility.yul\":8629:8809   */\n    tag_62:\n        /* \"#utility.yul\":8677:8754   */\n      0x4e487b7100000000000000000000000000000000000000000000000000000000\n        /* \"#utility.yul\":8674:8675   */\n      0x00\n        /* \"#utility.yul\":8667:8755   */\n      mstore\n        /* \"#utility.yul\":8774:8778   */\n      0x32\n        /* \"#utility.yul\":8771:8772   */\n      0x04\n        /* \"#utility.yul\":8764:8779   */\n      mstore\n        /* \"#utility.yul\":8798:8802   */\n      0x24\n        /* \"#utility.yul\":8795:8796   */\n      0x00\n        /* \"#utility.yul\":8788:8803   */\n      revert\n\n    auxdata: 0xa2646970667358221220ab7501da6caf02d739670119a3fde7a665aabf8509895f64abbb25577168bc7264736f6c634300081a0033\n}\n",
				"bytecode": {
					"linkReferences": {},
					"object": "6080604052348015600e575f80fd5b503360025f6101000a81548173ffffffffffffffffffffffffffffffffffffffff021916908373ffffffffffffffffffffffffffffffffffffffff160217905550610b238061005c5f395ff3fe608060405234801561000f575f80fd5b506004361061004a575f3560e01c806351d8f3f61461004e578063adcaab531461006c578063c8ef8aea14610088578063d8ab8274146100a4575b5f80fd5b6100566100c2565b6040516100639190610777565b60405180910390f35b610086600480360381019061008191906107f3565b6100ea565b005b6100a2600480360381019061009d9190610831565b6103b9565b005b6100ac6105de565b6040516100b99190610958565b60405180910390f35b5f60015f9054906101000a900473ffffffffffffffffffffffffffffffffffffffff16905090565b60025f9054906101000a900473ffffffffffffffffffffffffffffffffffffffff1673ffffffffffffffffffffffffffffffffffffffff163373ffffffffffffffffffffffffffffffffffffffff1614610179576040517f08c379a0000000000000000000000000000000000000000000000000000000008152600401610170906109d2565b60405180910390fd5b7fffffffffffffffffffffffffffffffffffffffffffffffffffffffffffffffff610255835f805480602002602001604051908101604052809291908181526020015f905b8282101561024c578382905f5260205f2090600202016040518060400160405290815f8201548152602001600182015f9054906101000a900473ffffffffffffffffffffffffffffffffffffffff1673ffffffffffffffffffffffffffffffffffffffff1673ffffffffffffffffffffffffffffffffffffffff1681525050815260200190600101906101be565b50505050610697565b14610295576040517f08c379a000000000000000000000000000000000000000000000000000000000815260040161028c90610a3a565b60405180910390fd5b5f60405180604001604052804281526020018473ffffffffffffffffffffffffffffffffffffffff16815250908060018154018082558091505060019003905f5260205f2090600202015f909190919091505f820151815f01556020820151816001015f6101000a81548173ffffffffffffffffffffffffffffffffffffffff021916908373ffffffffffffffffffffffffffffffffffffffff1602179055505050801561037e578160015f6101000a81548173ffffffffffffffffffffffffffffffffffffffff021916908373ffffffffffffffffffffffffffffffffffffffff1602179055505b7ff40fcec21964ffb566044d083b4073f29f7f7929110ea19e1b3ebe375d89055e826040516103ad9190610777565b60405180910390a15050565b60025f9054906101000a900473ffffffffffffffffffffffffffffffffffffffff1673ffffffffffffffffffffffffffffffffffffffff163373ffffffffffffffffffffffffffffffffffffffff1614610448576040517f08c379a000000000000000000000000000000000000000000000000000000000815260040161043f906109d2565b60405180910390fd5b7fffffffffffffffffffffffffffffffffffffffffffffffffffffffffffffffff610524825f805480602002602001604051908101604052809291908181526020015f905b8282101561051b578382905f5260205f2090600202016040518060400160405290815f8201548152602001600182015f9054906101000a900473ffffffffffffffffffffffffffffffffffffffff1673ffffffffffffffffffffffffffffffffffffffff1673ffffffffffffffffffffffffffffffffffffffff16815250508152602001906001019061048d565b50505050610697565b03610564576040517f08c379a000000000000000000000000000000000000000000000000000000000815260040161055b90610aa2565b60405180910390fd5b8060015f6101000a81548173ffffffffffffffffffffffffffffffffffffffff021916908373ffffffffffffffffffffffffffffffffffffffff1602179055507f3c4dbb057f7df48b080ac34e14a9186ad0847e234436b06de4078464d5936c62816040516105d39190610777565b60405180910390a150565b60605f805480602002602001604051908101604052809291908181526020015f905b8282101561068e578382905f5260205f2090600202016040518060400160405290815f8201548152602001600182015f9054906101000a900473ffffffffffffffffffffffffffffffffffffffff1673ffffffffffffffffffffffffffffffffffffffff1673ffffffffffffffffffffffffffffffffffffffff168152505081526020019060010190610600565b50505050905090565b5f805f90505b825181101561070d578373ffffffffffffffffffffffffffffffffffffffff168382815181106106d0576106cf610ac0565b5b60200260200101516020015173ffffffffffffffffffffffffffffffffffffffff16036107005780915050610732565b808060010191505061069d565b507fffffffffffffffffffffffffffffffffffffffffffffffffffffffffffffffff90505b92915050565b5f73ffffffffffffffffffffffffffffffffffffffff82169050919050565b5f61076182610738565b9050919050565b61077181610757565b82525050565b5f60208201905061078a5f830184610768565b92915050565b5f80fd5b61079d81610757565b81146107a7575f80fd5b50565b5f813590506107b881610794565b92915050565b5f8115159050919050565b6107d2816107be565b81146107dc575f80fd5b50565b5f813590506107ed816107c9565b92915050565b5f806040838503121561080957610808610790565b5b5f610816858286016107aa565b9250506020610827858286016107df565b9150509250929050565b5f6020828403121561084657610845610790565b5b5f610853848285016107aa565b91505092915050565b5f81519050919050565b5f82825260208201905092915050565b5f819050602082019050919050565b5f819050919050565b61089781610885565b82525050565b6108a681610757565b82525050565b604082015f8201516108c05f85018261088e565b5060208201516108d3602085018261089d565b50505050565b5f6108e483836108ac565b60408301905092915050565b5f602082019050919050565b5f6109068261085c565b6109108185610866565b935061091b83610876565b805f5b8381101561094b57815161093288826108d9565b975061093d836108f0565b92505060018101905061091e565b5085935050505092915050565b5f6020820190508181035f83015261097081846108fc565b905092915050565b5f82825260208201905092915050565b7f4f6e6c79206f776e6572000000000000000000000000000000000000000000005f82015250565b5f6109bc600a83610978565b91506109c782610988565b602082019050919050565b5f6020820190508181035f8301526109e9816109b0565b9050919050565b7f45786973747300000000000000000000000000000000000000000000000000005f82015250565b5f610a24600683610978565b9150610a2f826109f0565b602082019050919050565b5f6020820190508181035f830152610a5181610a18565b9050919050565b7f4e6f20696e6465780000000000000000000000000000000000000000000000005f82015250565b5f610a8c600883610978565b9150610a9782610a58565b602082019050919050565b5f6020820190508181035f830152610ab981610a80565b9050919050565b7f4e487b71000000000000000000000000000000000000000000000000000000005f52603260045260245ffdfea2646970667358221220ab7501da6caf02d739670119a3fde7a665aabf8509895f64abbb25577168bc7264736f6c634300081a0033",
					"opcodes": "PUSH1 0x80 PUSH1 0x40 MSTORE CALLVALUE DUP1 ISZERO PUSH1 0xE JUMPI PUSH0 DUP1 REVERT JUMPDEST POP CALLER PUSH1 0x2 PUSH0 PUSH2 0x100 EXP DUP2 SLOAD DUP2 PUSH20 0xFFFFFFFFFFFFFFFFFFFFFFFFFFFFFFFFFFFFFFFF MUL NOT AND SWAP1 DUP4 PUSH20 0xFFFFFFFFFFFFFFFFFFFFFFFFFFFFFFFFFFFFFFFF AND MUL OR SWAP1 SSTORE POP PUSH2 0xB23 DUP1 PUSH2 0x5C PUSH0 CODECOPY PUSH0 RETURN INVALID PUSH1 0x80 PUSH1 0x40 MSTORE CALLVALUE DUP1 ISZERO PUSH2 0xF JUMPI PUSH0 DUP1 REVERT JUMPDEST POP PUSH1 0x4 CALLDATASIZE LT PUSH2 0x4A JUMPI PUSH0 CALLDATALOAD PUSH1 0xE0 SHR DUP1 PUSH4 0x51D8F3F6 EQ PUSH2 0x4E JUMPI DUP1 PUSH4 0xADCAAB53 EQ PUSH2 0x6C JUMPI DUP1 PUSH4 0xC8EF8AEA EQ PUSH2 0x88 JUMPI DUP1 PUSH4 0xD8AB8274 EQ PUSH2 0xA4 JUMPI JUMPDEST PUSH0 DUP1 REVERT JUMPDEST PUSH2 0x56 PUSH2 0xC2 JUMP JUMPDEST PUSH1 0x40 MLOAD PUSH2 0x63 SWAP2 SWAP1 PUSH2 0x777 JUMP JUMPDEST PUSH1 0x40 MLOAD DUP1 SWAP2 SUB SWAP1 RETURN JUMPDEST PUSH2 0x86 PUSH1 0x4 DUP1 CALLDATASIZE SUB DUP2 ADD SWAP1 PUSH2 0x81 SWAP2 SWAP1 PUSH2 0x7F3 JUMP JUMPDEST PUSH2 0xEA JUMP JUMPDEST STOP JUMPDEST PUSH2 0xA2 PUSH1 0x4 DUP1 CALLDATASIZE SUB DUP2 ADD SWAP1 PUSH2 0x9D SWAP2 SWAP1 PUSH2 0x831 JUMP JUMPDEST PUSH2 0x3B9 JUMP JUMPDEST STOP JUMPDEST PUSH2 0xAC PUSH2 0x5DE JUMP JUMPDEST PUSH1 0x40 MLOAD PUSH2 0xB9 SWAP2 SWAP1 PUSH2 0x958 JUMP JUMPDEST PUSH1 0x40 MLOAD DUP1 SWAP2 SUB SWAP1 RETURN JUMPDEST PUSH0 PUSH1 0x1 PUSH0 SWAP1 SLOAD SWAP1 PUSH2 0x100 EXP SWAP1 DIV PUSH20 0xFFFFFFFFFFFFFFFFFFFFFFFFFFFFFFFFFFFFFFFF AND SWAP1 POP SWAP1 JUMP JUMPDEST PUSH1 0x2 PUSH0 SWAP1 SLOAD SWAP1 PUSH2 0x100 EXP SWAP1 DIV PUSH20 0xFFFFFFFFFFFFFFFFFFFFFFFFFFFFFFFFFFFFFFFF AND PUSH20 0xFFFFFFFFFFFFFFFFFFFFFFFFFFFFFFFFFFFFFFFF AND CALLER PUSH20 0xFFFFFFFFFFFFFFFFFFFFFFFFFFFFFFFFFFFFFFFF AND EQ PUSH2 0x179 JUMPI PUSH1 0x40 MLOAD PUSH32 0x8C379A000000000000000000000000000000000000000000000000000000000 DUP2 MSTORE PUSH1 0x4 ADD PUSH2 0x170 SWAP1 PUSH2 0x9D2 JUMP JUMPDEST PUSH1 0x40 MLOAD DUP1 SWAP2 SUB SWAP1 REVERT JUMPDEST PUSH32 0xFFFFFFFFFFFFFFFFFFFFFFFFFFFFFFFFFFFFFFFFFFFFFFFFFFFFFFFFFFFFFFFF PUSH2 0x255 DUP4 PUSH0 DUP1 SLOAD DUP1 PUSH1 0x20 MUL PUSH1 0x20 ADD PUSH1 0x40 MLOAD SWAP1 DUP2 ADD PUSH1 0x40 MSTORE DUP1 SWAP3 SWAP2 SWAP1 DUP2 DUP2 MSTORE PUSH1 0x20 ADD PUSH0 SWAP1 JUMPDEST DUP3 DUP3 LT ISZERO PUSH2 0x24C JUMPI DUP4 DUP3 SWAP1 PUSH0 MSTORE PUSH1 0x20 PUSH0 KECCAK256 SWAP1 PUSH1 0x2 MUL ADD PUSH1 0x40 MLOAD DUP1 PUSH1 0x40 ADD PUSH1 0x40 MSTORE SWAP1 DUP2 PUSH0 DUP3 ADD SLOAD DUP2 MSTORE PUSH1 0x20 ADD PUSH1 0x1 DUP3 ADD PUSH0 SWAP1 SLOAD SWAP1 PUSH2 0x100 EXP SWAP1 DIV PUSH20 0xFFFFFFFFFFFFFFFFFFFFFFFFFFFFFFFFFFFFFFFF AND PUSH20 0xFFFFFFFFFFFFFFFFFFFFFFFFFFFFFFFFFFFFFFFF AND PUSH20 0xFFFFFFFFFFFFFFFFFFFFFFFFFFFFFFFFFFFFFFFF AND DUP2 MSTORE POP POP DUP2 MSTORE PUSH1 0x20 ADD SWAP1 PUSH1 0x1 ADD SWAP1 PUSH2 0x1BE JUMP JUMPDEST POP POP POP POP PUSH2 0x697 JUMP JUMPDEST EQ PUSH2 0x295 JUMPI PUSH1 0x40 MLOAD PUSH32 0x8C379A000000000000000000000000000000000000000000000000000000000 DUP2 MSTORE PUSH1 0x4 ADD PUSH2 0x28C SWAP1 PUSH2 0xA3A JUMP JUMPDEST PUSH1 0x40 MLOAD DUP1 SWAP2 SUB SWAP1 REVERT JUMPDEST PUSH0 PUSH1 0x40 MLOAD DUP1 PUSH1 0x40 ADD PUSH1 0x40 MSTORE DUP1 TIMESTAMP DUP2 MSTORE PUSH1 0x20 ADD DUP5 PUSH20 0xFFFFFFFFFFFFFFFFFFFFFFFFFFFFFFFFFFFFFFFF AND DUP2 MSTORE POP SWAP1 DUP1 PUSH1 0x1 DUP2 SLOAD ADD DUP1 DUP3 SSTORE DUP1 SWAP2 POP POP PUSH1 0x1 SWAP1 SUB SWAP1 PUSH0 MSTORE PUSH1 0x20 PUSH0 KECCAK256 SWAP1 PUSH1 0x2 MUL ADD PUSH0 SWAP1 SWAP2 SWAP1 SWAP2 SWAP1 SWAP2 POP PUSH0 DUP3 ADD MLOAD DUP2 PUSH0 ADD SSTORE PUSH1 0x20 DUP3 ADD MLOAD DUP2 PUSH1 0x1 ADD PUSH0 PUSH2 0x100 EXP DUP2 SLOAD DUP2 PUSH20 0xFFFFFFFFFFFFFFFFFFFFFFFFFFFFFFFFFFFFFFFF MUL NOT AND SWAP1 DUP4 PUSH20 0xFFFFFFFFFFFFFFFFFFFFFFFFFFFFFFFFFFFFFFFF AND MUL OR SWAP1 SSTORE POP POP POP DUP1 ISZERO PUSH2 0x37E JUMPI DUP2 PUSH1 0x1 PUSH0 PUSH2 0x100 EXP DUP2 SLOAD DUP2 PUSH20 0xFFFFFFFFFFFFFFFFFFFFFFFFFFFFFFFFFFFFFFFF MUL NOT AND SWAP1 DUP4 PUSH20 0xFFFFFFFFFFFFFFFFFFFFFFFFFFFFFFFFFFFFFFFF AND MUL OR SWAP1 SSTORE POP JUMPDEST PUSH32 0xF40FCEC21964FFB566044D083B4073F29F7F7929110EA19E1B3EBE375D89055E DUP3 PUSH1 0x40 MLOAD PUSH2 0x3AD SWAP2 SWAP1 PUSH2 0x777 JUMP JUMPDEST PUSH1 0x40 MLOAD DUP1 SWAP2 SUB SWAP1 LOG1 POP POP JUMP JUMPDEST PUSH1 0x2 PUSH0 SWAP1 SLOAD SWAP1 PUSH2 0x100 EXP SWAP1 DIV PUSH20 0xFFFFFFFFFFFFFFFFFFFFFFFFFFFFFFFFFFFFFFFF AND PUSH20 0xFFFFFFFFFFFFFFFFFFFFFFFFFFFFFFFFFFFFFFFF AND CALLER PUSH20 0xFFFFFFFFFFFFFFFFFFFFFFFFFFFFFFFFFFFFFFFF AND EQ PUSH2 0x448 JUMPI PUSH1 0x40 MLOAD PUSH32 0x8C379A000000000000000000000000000000000000000000000000000000000 DUP2 MSTORE PUSH1 0x4 ADD PUSH2 0x43F SWAP1 PUSH2 0x9D2 JUMP JUMPDEST PUSH1 0x40 MLOAD DUP1 SWAP2 SUB SWAP1 REVERT JUMPDEST PUSH32 0xFFFFFFFFFFFFFFFFFFFFFFFFFFFFFFFFFFFFFFFFFFFFFFFFFFFFFFFFFFFFFFFF PUSH2 0x524 DUP3 PUSH0 DUP1 SLOAD DUP1 PUSH1 0x20 MUL PUSH1 0x20 ADD PUSH1 0x40 MLOAD SWAP1 DUP2 ADD PUSH1 0x40 MSTORE DUP1 SWAP3 SWAP2 SWAP1 DUP2 DUP2 MSTORE PUSH1 0x20 ADD PUSH0 SWAP1 JUMPDEST DUP3 DUP3 LT ISZERO PUSH2 0x51B JUMPI DUP4 DUP3 SWAP1 PUSH0 MSTORE PUSH1 0x20 PUSH0 KECCAK256 SWAP1 PUSH1 0x2 MUL ADD PUSH1 0x40 MLOAD DUP1 PUSH1 0x40 ADD PUSH1 0x40 MSTORE SWAP1 DUP2 PUSH0 DUP3 ADD SLOAD DUP2 MSTORE PUSH1 0x20 ADD PUSH1 0x1 DUP3 ADD PUSH0 SWAP1 SLOAD SWAP1 PUSH2 0x100 EXP SWAP1 DIV PUSH20 0xFFFFFFFFFFFFFFFFFFFFFFFFFFFFFFFFFFFFFFFF AND PUSH20 0xFFFFFFFFFFFFFFFFFFFFFFFFFFFFFFFFFFFFFFFF AND PUSH20 0xFFFFFFFFFFFFFFFFFFFFFFFFFFFFFFFFFFFFFFFF AND DUP2 MSTORE POP POP DUP2 MSTORE PUSH1 0x20 ADD SWAP1 PUSH1 0x1 ADD SWAP1 PUSH2 0x48D JUMP JUMPDEST POP POP POP POP PUSH2 0x697 JUMP JUMPDEST SUB PUSH2 0x564 JUMPI PUSH1 0x40 MLOAD PUSH32 0x8C379A000000000000000000000000000000000000000000000000000000000 DUP2 MSTORE PUSH1 0x4 ADD PUSH2 0x55B SWAP1 PUSH2 0xAA2 JUMP JUMPDEST PUSH1 0x40 MLOAD DUP1 SWAP2 SUB SWAP1 REVERT JUMPDEST DUP1 PUSH1 0x1 PUSH0 PUSH2 0x100 EXP DUP2 SLOAD DUP2 PUSH20 0xFFFFFFFFFFFFFFFFFFFFFFFFFFFFFFFFFFFFFFFF MUL NOT AND SWAP1 DUP4 PUSH20 0xFFFFFFFFFFFFFFFFFFFFFFFFFFFFFFFFFFFFFFFF AND MUL OR SWAP1 SSTORE POP PUSH32 0x3C4DBB057F7DF48B080AC34E14A9186AD0847E234436B06DE4078464D5936C62 DUP2 PUSH1 0x40 MLOAD PUSH2 0x5D3 SWAP2 SWAP1 PUSH2 0x777 JUMP JUMPDEST PUSH1 0x40 MLOAD DUP1 SWAP2 SUB SWAP1 LOG1 POP JUMP JUMPDEST PUSH1 0x60 PUSH0 DUP1 SLOAD DUP1 PUSH1 0x20 MUL PUSH1 0x20 ADD PUSH1 0x40 MLOAD SWAP1 DUP2 ADD PUSH1 0x40 MSTORE DUP1 SWAP3 SWAP2 SWAP1 DUP2 DUP2 MSTORE PUSH1 0x20 ADD PUSH0 SWAP1 JUMPDEST DUP3 DUP3 LT ISZERO PUSH2 0x68E JUMPI DUP4 DUP3 SWAP1 PUSH0 MSTORE PUSH1 0x20 PUSH0 KECCAK256 SWAP1 PUSH1 0x2 MUL ADD PUSH1 0x40 MLOAD DUP1 PUSH1 0x40 ADD PUSH1 0x40 MSTORE SWAP1 DUP2 PUSH0 DUP3 ADD SLOAD DUP2 MSTORE PUSH1 0x20 ADD PUSH1 0x1 DUP3 ADD PUSH0 SWAP1 SLOAD SWAP1 PUSH2 0x100 EXP SWAP1 DIV PUSH20 0xFFFFFFFFFFFFFFFFFFFFFFFFFFFFFFFFFFFFFFFF AND PUSH20 0xFFFFFFFFFFFFFFFFFFFFFFFFFFFFFFFFFFFFFFFF AND PUSH20 0xFFFFFFFFFFFFFFFFFFFFFFFFFFFFFFFFFFFFFFFF AND DUP2 MSTORE POP POP DUP2 MSTORE PUSH1 0x20 ADD SWAP1 PUSH1 0x1 ADD SWAP1 PUSH2 0x600 JUMP JUMPDEST POP POP POP POP SWAP1 POP SWAP1 JUMP JUMPDEST PUSH0 DUP1 PUSH0 SWAP1 POP JUMPDEST DUP3 MLOAD DUP2 LT ISZERO PUSH2 0x70D JUMPI DUP4 PUSH20 0xFFFFFFFFFFFFFFFFFFFFFFFFFFFFFFFFFFFFFFFF AND DUP4 DUP3 DUP2 MLOAD DUP2 LT PUSH2 0x6D0 JUMPI PUSH2 0x6CF PUSH2 0xAC0 JUMP JUMPDEST JUMPDEST PUSH1 0x20 MUL PUSH1 0x20 ADD ADD MLOAD PUSH1 0x20 ADD MLOAD PUSH20 0xFFFFFFFFFFFFFFFFFFFFFFFFFFFFFFFFFFFFFFFF AND SUB PUSH2 0x700 JUMPI DUP1 SWAP2 POP POP PUSH2 0x732 JUMP JUMPDEST DUP1 DUP1 PUSH1 0x1 ADD SWAP2 POP POP PUSH2 0x69D JUMP JUMPDEST POP PUSH32 0xFFFFFFFFFFFFFFFFFFFFFFFFFFFFFFFFFFFFFFFFFFFFFFFFFFFFFFFFFFFFFFFF SWAP1 POP JUMPDEST SWAP3 SWAP2 POP POP JUMP JUMPDEST PUSH0 PUSH20 0xFFFFFFFFFFFFFFFFFFFFFFFFFFFFFFFFFFFFFFFF DUP3 AND SWAP1 POP SWAP2 SWAP1 POP JUMP JUMPDEST PUSH0 PUSH2 0x761 DUP3 PUSH2 0x738 JUMP JUMPDEST SWAP1 POP SWAP2 SWAP1 POP JUMP JUMPDEST PUSH2 0x771 DUP2 PUSH2 0x757 JUMP JUMPDEST DUP3 MSTORE POP POP JUMP JUMPDEST PUSH0 PUSH1 0x20 DUP3 ADD SWAP1 POP PUSH2 0x78A PUSH0 DUP4 ADD DUP5 PUSH2 0x768 JUMP JUMPDEST SWAP3 SWAP2 POP POP JUMP JUMPDEST PUSH0 DUP1 REVERT JUMPDEST PUSH2 0x79D DUP2 PUSH2 0x757 JUMP JUMPDEST DUP2 EQ PUSH2 0x7A7 JUMPI PUSH0 DUP1 REVERT JUMPDEST POP JUMP JUMPDEST PUSH0 DUP2 CALLDATALOAD SWAP1 POP PUSH2 0x7B8 DUP2 PUSH2 0x794 JUMP JUMPDEST SWAP3 SWAP2 POP POP JUMP JUMPDEST PUSH0 DUP2 ISZERO ISZERO SWAP1 POP SWAP2 SWAP1 POP JUMP JUMPDEST PUSH2 0x7D2 DUP2 PUSH2 0x7BE JUMP JUMPDEST DUP2 EQ PUSH2 0x7DC JUMPI PUSH0 DUP1 REVERT JUMPDEST POP JUMP JUMPDEST PUSH0 DUP2 CALLDATALOAD SWAP1 POP PUSH2 0x7ED DUP2 PUSH2 0x7C9 JUMP JUMPDEST SWAP3 SWAP2 POP POP JUMP JUMPDEST PUSH0 DUP1 PUSH1 0x40 DUP4 DUP6 SUB SLT ISZERO PUSH2 0x809 JUMPI PUSH2 0x808 PUSH2 0x790 JUMP JUMPDEST JUMPDEST PUSH0 PUSH2 0x816 DUP6 DUP3 DUP7 ADD PUSH2 0x7AA JUMP JUMPDEST SWAP3 POP POP PUSH1 0x20 PUSH2 0x827 DUP6 DUP3 DUP7 ADD PUSH2 0x7DF JUMP JUMPDEST SWAP2 POP POP SWAP3 POP SWAP3 SWAP1 POP JUMP JUMPDEST PUSH0 PUSH1 0x20 DUP3 DUP5 SUB SLT ISZERO PUSH2 0x846 JUMPI PUSH2 0x845 PUSH2 0x790 JUMP JUMPDEST JUMPDEST PUSH0 PUSH2 0x853 DUP5 DUP3 DUP6 ADD PUSH2 0x7AA JUMP JUMPDEST SWAP2 POP POP SWAP3 SWAP2 POP POP JUMP JUMPDEST PUSH0 DUP2 MLOAD SWAP1 POP SWAP2 SWAP1 POP JUMP JUMPDEST PUSH0 DUP3 DUP3 MSTORE PUSH1 0x20 DUP3 ADD SWAP1 POP SWAP3 SWAP2 POP POP JUMP JUMPDEST PUSH0 DUP2 SWAP1 POP PUSH1 0x20 DUP3 ADD SWAP1 POP SWAP2 SWAP1 POP JUMP JUMPDEST PUSH0 DUP2 SWAP1 POP SWAP2 SWAP1 POP JUMP JUMPDEST PUSH2 0x897 DUP2 PUSH2 0x885 JUMP JUMPDEST DUP3 MSTORE POP POP JUMP JUMPDEST PUSH2 0x8A6 DUP2 PUSH2 0x757 JUMP JUMPDEST DUP3 MSTORE POP POP JUMP JUMPDEST PUSH1 0x40 DUP3 ADD PUSH0 DUP3 ADD MLOAD PUSH2 0x8C0 PUSH0 DUP6 ADD DUP3 PUSH2 0x88E JUMP JUMPDEST POP PUSH1 0x20 DUP3 ADD MLOAD PUSH2 0x8D3 PUSH1 0x20 DUP6 ADD DUP3 PUSH2 0x89D JUMP JUMPDEST POP POP POP POP JUMP JUMPDEST PUSH0 PUSH2 0x8E4 DUP4 DUP4 PUSH2 0x8AC JUMP JUMPDEST PUSH1 0x40 DUP4 ADD SWAP1 POP SWAP3 SWAP2 POP POP JUMP JUMPDEST PUSH0 PUSH1 0x20 DUP3 ADD SWAP1 POP SWAP2 SWAP1 POP JUMP JUMPDEST PUSH0 PUSH2 0x906 DUP3 PUSH2 0x85C JUMP JUMPDEST PUSH2 0x910 DUP2 DUP6 PUSH2 0x866 JUMP JUMPDEST SWAP4 POP PUSH2 0x91B DUP4 PUSH2 0x876 JUMP JUMPDEST DUP1 PUSH0 JUMPDEST DUP4 DUP2 LT ISZERO PUSH2 0x94B JUMPI DUP2 MLOAD PUSH2 0x932 DUP9 DUP3 PUSH2 0x8D9 JUMP JUMPDEST SWAP8 POP PUSH2 0x93D DUP4 PUSH2 0x8F0 JUMP JUMPDEST SWAP3 POP POP PUSH1 0x1 DUP2 ADD SWAP1 POP PUSH2 0x91E JUMP JUMPDEST POP DUP6 SWAP4 POP POP POP POP SWAP3 SWAP2 POP POP JUMP JUMPDEST PUSH0 PUSH1 0x20 DUP3 ADD SWAP1 POP DUP2 DUP2 SUB PUSH0 DUP4 ADD MSTORE PUSH2 0x970 DUP2 DUP5 PUSH2 0x8FC JUMP JUMPDEST SWAP1 POP SWAP3 SWAP2 POP POP JUMP JUMPDEST PUSH0 DUP3 DUP3 MSTORE PUSH1 0x20 DUP3 ADD SWAP1 POP SWAP3 SWAP2 POP POP JUMP JUMPDEST PUSH32 0x4F6E6C79206F776E657200000000000000000000000000000000000000000000 PUSH0 DUP3 ADD MSTORE POP JUMP JUMPDEST PUSH0 PUSH2 0x9BC PUSH1 0xA DUP4 PUSH2 0x978 JUMP JUMPDEST SWAP2 POP PUSH2 0x9C7 DUP3 PUSH2 0x988 JUMP JUMPDEST PUSH1 0x20 DUP3 ADD SWAP1 POP SWAP2 SWAP1 POP JUMP JUMPDEST PUSH0 PUSH1 0x20 DUP3 ADD SWAP1 POP DUP2 DUP2 SUB PUSH0 DUP4 ADD MSTORE PUSH2 0x9E9 DUP2 PUSH2 0x9B0 JUMP JUMPDEST SWAP1 POP SWAP2 SWAP1 POP JUMP JUMPDEST PUSH32 0x4578697374730000000000000000000000000000000000000000000000000000 PUSH0 DUP3 ADD MSTORE POP JUMP JUMPDEST PUSH0 PUSH2 0xA24 PUSH1 0x6 DUP4 PUSH2 0x978 JUMP JUMPDEST SWAP2 POP PUSH2 0xA2F DUP3 PUSH2 0x9F0 JUMP JUMPDEST PUSH1 0x20 DUP3 ADD SWAP1 POP SWAP2 SWAP1 POP JUMP JUMPDEST PUSH0 PUSH1 0x20 DUP3 ADD SWAP1 POP DUP2 DUP2 SUB PUSH0 DUP4 ADD MSTORE PUSH2 0xA51 DUP2 PUSH2 0xA18 JUMP JUMPDEST SWAP1 POP SWAP2 SWAP1 POP JUMP JUMPDEST PUSH32 0x4E6F20696E646578000000000000000000000000000000000000000000000000 PUSH0 DUP3 ADD MSTORE POP JUMP JUMPDEST PUSH0 PUSH2 0xA8C PUSH1 0x8 DUP4 PUSH2 0x978 JUMP JUMPDEST SWAP2 POP PUSH2 0xA97 DUP3 PUSH2 0xA58 JUMP JUMPDEST PUSH1 0x20 DUP3 ADD SWAP1 POP SWAP2 SWAP1 POP JUMP JUMPDEST PUSH0 PUSH1 0x20 DUP3 ADD SWAP1 POP DUP2 DUP2 SUB PUSH0 DUP4 ADD MSTORE PUSH2 0xAB9 DUP2 PUSH2 0xA80 JUMP JUMPDEST SWAP1 POP SWAP2 SWAP1 POP JUMP JUMPDEST PUSH32 0x4E487B7100000000000000000000000000000000000000000000000000000000 PUSH0 MSTORE PUSH1 0x32 PUSH1 0x4 MSTORE PUSH1 0x24 PUSH0 REVERT INVALID LOG2 PUSH5 0x6970667358 0x22 SLT KECCAK256 0xAB PUSH22 0x1DA6CAF02D739670119A3FDE7A665AABF8509895F64 0xAB 0xBB 0x25 JUMPI PUSH18 0x68BC7264736F6C634300081A003300000000 "
				},
				"gasEstimates": {
					"creation": {
						"codeDepositCost": "570200",
						"executionCost": "24869",
						"totalCost": "595069"
					},
					"external": {
						"getCurrentManager()": "2493",
						"getStates()": "infinite",
						"postState(address,bool)": "infinite",
						"setBackTo(address)": "infinite"
					},
					"internal": {
						"findState(address,struct VersionManager.State memory[] memory)": "infinite"
					}
				},
				"methodIdentifiers": {
					"getCurrentManager()": "51d8f3f6",
					"getStates()": "d8ab8274",
					"postState(address,bool)": "adcaab53",
					"setBackTo(address)": "c8ef8aea"
				}
			},
			"storageLayout": {
				"storage": [
					{
						"astId": 10,
						"contract": "VersionManager.sol:VersionManager",
						"label": "states",
						"offset": 0,
						"slot": "0",
						"type": "t_array(t_struct(State)6_storage)dyn_storage"
					},
					{
						"astId": 12,
						"contract": "VersionManager.sol:VersionManager",
						"label": "currentManager",
						"offset": 0,
						"slot": "1",
						"type": "t_address"
					},
					{
						"astId": 14,
						"contract": "VersionManager.sol:VersionManager",
						"label": "owner",
						"offset": 0,
						"slot": "2",
						"type": "t_address"
					}
				],
				"types": {
					"t_address": {
						"encoding": "inplace",
						"label": "address",
						"numberOfBytes": "20"
					},
					"t_array(t_struct(State)6_storage)dyn_storage": {
						"base": "t_struct(State)6_storage",
						"encoding": "dynamic_array",
						"label": "struct VersionManager.State[]",
						"numberOfBytes": "32"
					},
					"t_struct(State)6_storage": {
						"encoding": "inplace",
						"label": "struct VersionManager.State",
						"members": [
							{
								"astId": 3,
								"contract": "VersionManager.sol:VersionManager",
								"label": "timestamp",
								"offset": 0,
								"slot": "0",
								"type": "t_uint256"
							},
							{
								"astId": 5,
								"contract": "VersionManager.sol:VersionManager",
								"label": "addr",
								"offset": 0,
								"slot": "1",
								"type": "t_address"
							}
						],
						"numberOfBytes": "64"
					},
					"t_uint256": {
						"encoding": "inplace",
						"label": "uint256",
						"numberOfBytes": "32"
					}
				}
			},
			"userdoc": {
				"kind": "user",
				"methods": {},
				"version": 1
			}
		}
	}
}