{
	"VersionManager.sol": {
		"VersionManager": {
			"abi": [
				{
					"inputs": [],
					"stateMutability": "nonpayable",
					"type": "constructor"
				},
				{
					"anonymous": false,
					"inputs": [
						{
							"indexed": false,
							"internalType": "address",
							"name": "",
							"type": "address"
						}
					],
					"name": "Deployed",
					"type": "event"
				},
				{
					"anonymous": false,
					"inputs": [
						{
							"indexed": false,
							"internalType": "address",
							"name": "",
							"type": "address"
						}
					],
					"name": "Set",
					"type": "event"
				},
				{
					"inputs": [],
					"name": "getCurrentManager",
					"outputs": [
						{
							"internalType": "address",
							"name": "",
							"type": "address"
						}
					],
					"stateMutability": "view",
					"type": "function"
				},
				{
					"inputs": [],
					"name": "getStates",
					"outputs": [
						{
							"components": [
								{
									"internalType": "uint256",
									"name": "timestamp",
									"type": "uint256"
								},
								{
									"internalType": "address",
									"name": "addr",
									"type": "address"
								}
							],
							"internalType": "struct VersionManager.State[]",
							"name": "",
							"type": "tuple[]"
						}
					],
					"stateMutability": "view",
					"type": "function"
				},
				{
					"inputs": [
						{
							"internalType": "address",
							"name": "_manager",
							"type": "address"
						},
						{
							"internalType": "bool",
							"name": "setToCurrent",
							"type": "bool"
						}
					],
					"name": "postState",
					"outputs": [],
					"stateMutability": "nonpayable",
					"type": "function"
				},
				{
					"inputs": [
						{
							"internalType": "address",
							"name": "_addr",
							"type": "address"
						}
					],
					"name": "setBackTo",
					"outputs": [],
					"stateMutability": "nonpayable",
					"type": "function"
				}
			],
			"devdoc": {
				"kind": "dev",
				"methods": {},
				"version": 1
			},
			"evm": {
				"assembly": "    /* \"VersionManager.sol\":77:1438  contract VersionManager{... */\n  mstore(0x40, 0x80)\n    /* \"VersionManager.sol\":320:370  constructor(){... */\n  callvalue\n  dup1\n  iszero\n  tag_1\n  jumpi\n  0x00\n  dup1\n  revert\ntag_1:\n  pop\n    /* \"VersionManager.sol\":344:349  owner */\n  0x02\n    /* \"VersionManager.sol\":344:362  owner = msg.sender */\n  dup1\n  sload\n  not(sub(shl(0xa0, 0x01), 0x01))\n  and\n    /* \"VersionManager.sol\":352:362  msg.sender */\n  caller\n    /* \"VersionManager.sol\":344:362  owner = msg.sender */\n  or\n  swap1\n  sstore\n    /* \"VersionManager.sol\":77:1438  contract VersionManager{... */\n  dataSize(sub_0)\n  dup1\n  dataOffset(sub_0)\n  0x00\n  codecopy\n  0x00\n  return\nstop\n\nsub_0: assembly {\n        /* \"VersionManager.sol\":77:1438  contract VersionManager{... */\n      mstore(0x40, 0x80)\n      callvalue\n      dup1\n      iszero\n      tag_1\n      jumpi\n      0x00\n      dup1\n      revert\n    tag_1:\n      pop\n      jumpi(tag_2, lt(calldatasize, 0x04))\n      shr(0xe0, calldataload(0x00))\n      dup1\n      0x51d8f3f6\n      eq\n      tag_3\n      jumpi\n      dup1\n      0xadcaab53\n      eq\n      tag_4\n      jumpi\n      dup1\n      0xc8ef8aea\n      eq\n      tag_5\n      jumpi\n      dup1\n      0xd8ab8274\n      eq\n      tag_6\n      jumpi\n    tag_2:\n      0x00\n      dup1\n      revert\n        /* \"VersionManager.sol\":477:578  function getCurrentManager() external view returns (address) {... */\n    tag_3:\n        /* \"VersionManager.sol\":556:570  currentManager */\n      and(sub(shl(0xa0, 0x01), 0x01), sload(0x01))\n        /* \"VersionManager.sol\":477:578  function getCurrentManager() external view returns (address) {... */\n      mload(0x40)\n      tag_9\n      swap2\n      swap1\n      tag_10\n      jump\t// in\n    tag_9:\n      mload(0x40)\n      dup1\n      swap2\n      sub\n      swap1\n      return\n        /* \"VersionManager.sol\":889:1188  function postState(address _manager, bool setToCurrent) external ownerOnly {... */\n    tag_4:\n      tag_11\n      tag_12\n      calldatasize\n      0x04\n      tag_13\n      jump\t// in\n    tag_12:\n      tag_14\n      jump\t// in\n    tag_11:\n      stop\n        /* \"VersionManager.sol\":686:880  function setBackTo(address _addr) external ownerOnly {    ... */\n    tag_5:\n      tag_11\n      tag_16\n      calldatasize\n      0x04\n      tag_17\n      jump\t// in\n    tag_16:\n      tag_18\n      jump\t// in\n        /* \"VersionManager.sol\":586:678  function getStates() external view returns (State[] memory) {... */\n    tag_6:\n      tag_19\n      tag_20\n      jump\t// in\n    tag_19:\n      mload(0x40)\n      tag_9\n      swap2\n      swap1\n      tag_22\n      jump\t// in\n        /* \"VersionManager.sol\":889:1188  function postState(address _manager, bool setToCurrent) external ownerOnly {... */\n    tag_14:\n        /* \"VersionManager.sol\":429:434  owner */\n      and(sub(shl(0xa0, 0x01), 0x01), sload(0x02))\n        /* \"VersionManager.sol\":415:425  msg.sender */\n      caller\n        /* \"VersionManager.sol\":415:434  msg.sender == owner */\n      eq\n        /* \"VersionManager.sol\":407:449  require(msg.sender == owner, \"Only owner\") */\n      tag_25\n      jumpi\n      mload(0x40)\n      shl(0xe5, 0x461bcd)\n      dup2\n      mstore\n      0x04\n      add\n      tag_26\n      swap1\n      tag_27\n      jump\t// in\n    tag_26:\n      mload(0x40)\n      dup1\n      swap2\n      sub\n      swap1\n      revert\n    tag_25:\n        /* \"VersionManager.sol\":981:1008  findState(_manager, states) */\n      tag_29\n        /* \"VersionManager.sol\":991:999  _manager */\n      dup3\n        /* \"VersionManager.sol\":1001:1007  states */\n      0x00\n        /* \"VersionManager.sol\":981:1008  findState(_manager, states) */\n      dup1\n      sload\n      dup1\n      0x20\n      mul\n      0x20\n      add\n      mload(0x40)\n      swap1\n      dup2\n      add\n      0x40\n      mstore\n      dup1\n      swap3\n      swap2\n      swap1\n      dup2\n      dup2\n      mstore\n      0x20\n      add\n      0x00\n      swap1\n    tag_30:\n      dup3\n      dup3\n      lt\n      iszero\n      tag_31\n      jumpi\n      0x00\n      dup5\n      dup2\n      mstore\n      0x20\n      swap1\n      dup2\n      swap1\n      keccak256\n      0x40\n      dup1\n      mload\n      dup1\n      dup3\n      add\n      swap1\n      swap2\n      mstore\n      0x02\n      dup6\n      mul\n      swap1\n      swap2\n      add\n      dup1\n      sload\n      dup3\n      mstore\n      0x01\n      swap1\n      dup2\n      add\n      sload\n      sub(shl(0xa0, 0x01), 0x01)\n      and\n      dup3\n      dup5\n      add\n      mstore\n      swap1\n      dup4\n      mstore\n      swap1\n      swap3\n      add\n      swap2\n      add\n      jump(tag_30)\n    tag_31:\n      pop\n      pop\n      pop\n      pop\n        /* \"VersionManager.sol\":981:990  findState */\n      tag_33\n        /* \"VersionManager.sol\":981:1008  findState(_manager, states) */\n      jump\t// in\n    tag_29:\n      not(0x00)\n        /* \"VersionManager.sol\":981:1014  findState(_manager, states) != -1 */\n      eq\n        /* \"VersionManager.sol\":977:1032  if( findState(_manager, states) != -1) revert(\"Exists\") */\n      tag_34\n      jumpi\n        /* \"VersionManager.sol\":1016:1032  revert(\"Exists\") */\n      mload(0x40)\n      shl(0xe5, 0x461bcd)\n      dup2\n      mstore\n        /* \"#utility.yul\":2251:2253   */\n      0x20\n        /* \"VersionManager.sol\":1016:1032  revert(\"Exists\") */\n      0x04\n      dup3\n      add\n        /* \"#utility.yul\":2233:2254   */\n      mstore\n        /* \"#utility.yul\":2290:2291   */\n      0x06\n        /* \"#utility.yul\":2270:2288   */\n      0x24\n      dup3\n      add\n        /* \"#utility.yul\":2263:2292   */\n      mstore\n      shl(0xd0, 0x457869737473)\n        /* \"#utility.yul\":2308:2326   */\n      0x44\n      dup3\n      add\n        /* \"#utility.yul\":2301:2337   */\n      mstore\n        /* \"#utility.yul\":2354:2372   */\n      0x64\n      add\n        /* \"VersionManager.sol\":1016:1032  revert(\"Exists\") */\n      tag_26\n        /* \"#utility.yul\":2049:2378   */\n      jump\n        /* \"VersionManager.sol\":977:1032  if( findState(_manager, states) != -1) revert(\"Exists\") */\n    tag_34:\n        /* \"VersionManager.sol\":1055:1087  State(block.timestamp, _manager) */\n      0x40\n      dup1\n      mload\n      dup1\n      dup3\n      add\n      swap1\n      swap2\n      mstore\n        /* \"VersionManager.sol\":1061:1076  block.timestamp */\n      timestamp\n        /* \"VersionManager.sol\":1055:1087  State(block.timestamp, _manager) */\n      dup2\n      mstore\n      sub(shl(0xa0, 0x01), 0x01)\n      dup4\n      dup2\n      and\n      0x20\n      dup4\n      add\n      swap1\n      dup2\n      mstore\n      0x00\n        /* \"VersionManager.sol\":1043:1088  states.push(State(block.timestamp, _manager)) */\n      dup1\n      sload\n      0x01\n      dup2\n      add\n      dup3\n      sstore\n      swap1\n      dup1\n      mstore\n      swap3\n      mload\n      0x290decd9548b62a8d60345a988386fc84ba6bc95484008f6362f93160ef3e563\n      0x02\n      swap1\n      swap5\n      mul\n      swap4\n      dup5\n      add\n      sstore\n      mload\n      0x290decd9548b62a8d60345a988386fc84ba6bc95484008f6362f93160ef3e564\n      swap1\n      swap3\n      add\n      dup1\n      sload\n      not(sub(shl(0xa0, 0x01), 0x01))\n      and\n      swap3\n      swap1\n      swap2\n      and\n      swap2\n      swap1\n      swap2\n      or\n      swap1\n      sstore\n        /* \"VersionManager.sol\":1101:1143  if(setToCurrent) currentManager = _manager */\n      dup1\n      iszero\n      tag_38\n      jumpi\n        /* \"VersionManager.sol\":1118:1132  currentManager */\n      0x01\n        /* \"VersionManager.sol\":1118:1143  currentManager = _manager */\n      dup1\n      sload\n      not(sub(shl(0xa0, 0x01), 0x01))\n      and\n      sub(shl(0xa0, 0x01), 0x01)\n      dup5\n      and\n      or\n      swap1\n      sstore\n        /* \"VersionManager.sol\":1101:1143  if(setToCurrent) currentManager = _manager */\n    tag_38:\n        /* \"VersionManager.sol\":1161:1179  Deployed(_manager) */\n      0xf40fcec21964ffb566044d083b4073f29f7f7929110ea19e1b3ebe375d89055e\n        /* \"VersionManager.sol\":1170:1178  _manager */\n      dup3\n        /* \"VersionManager.sol\":1161:1179  Deployed(_manager) */\n      mload(0x40)\n      tag_39\n      swap2\n      swap1\n      tag_10\n      jump\t// in\n    tag_39:\n      mload(0x40)\n      dup1\n      swap2\n      sub\n      swap1\n      log1\n        /* \"VersionManager.sol\":889:1188  function postState(address _manager, bool setToCurrent) external ownerOnly {... */\n      pop\n      pop\n      jump\t// out\n        /* \"VersionManager.sol\":686:880  function setBackTo(address _addr) external ownerOnly {    ... */\n    tag_18:\n        /* \"VersionManager.sol\":429:434  owner */\n      and(sub(shl(0xa0, 0x01), 0x01), sload(0x02))\n        /* \"VersionManager.sol\":415:425  msg.sender */\n      caller\n        /* \"VersionManager.sol\":415:434  msg.sender == owner */\n      eq\n        /* \"VersionManager.sol\":407:449  require(msg.sender == owner, \"Only owner\") */\n      tag_41\n      jumpi\n      mload(0x40)\n      shl(0xe5, 0x461bcd)\n      dup2\n      mstore\n      0x04\n      add\n      tag_26\n      swap1\n      tag_27\n      jump\t// in\n    tag_41:\n        /* \"VersionManager.sol\":760:784  findState(_addr, states) */\n      tag_44\n        /* \"VersionManager.sol\":770:775  _addr */\n      dup2\n        /* \"VersionManager.sol\":777:783  states */\n      0x00\n        /* \"VersionManager.sol\":760:784  findState(_addr, states) */\n      dup1\n      sload\n      dup1\n      0x20\n      mul\n      0x20\n      add\n      mload(0x40)\n      swap1\n      dup2\n      add\n      0x40\n      mstore\n      dup1\n      swap3\n      swap2\n      swap1\n      dup2\n      dup2\n      mstore\n      0x20\n      add\n      0x00\n      swap1\n      dup3\n      dup3\n      lt\n      iszero\n      tag_31\n      jumpi\n      0x00\n      dup5\n      dup2\n      mstore\n      0x20\n      swap1\n      dup2\n      swap1\n      keccak256\n      0x40\n      dup1\n      mload\n      dup1\n      dup3\n      add\n      swap1\n      swap2\n      mstore\n      0x02\n      dup6\n      mul\n      swap1\n      swap2\n      add\n      dup1\n      sload\n      dup3\n      mstore\n      0x01\n      swap1\n      dup2\n      add\n      sload\n      sub(shl(0xa0, 0x01), 0x01)\n      and\n      dup3\n      dup5\n      add\n      mstore\n      swap1\n      dup4\n      mstore\n      swap1\n      swap3\n      add\n      swap2\n      add\n      jump(tag_30)\n    tag_44:\n        /* \"VersionManager.sol\":760:790  findState(_addr, states) == -1 */\n      not\n        /* \"VersionManager.sol\":756:810  if( findState(_addr, states) == -1) revert(\"No index\") */\n      tag_48\n      jumpi\n        /* \"VersionManager.sol\":792:810  revert(\"No index\") */\n      mload(0x40)\n      shl(0xe5, 0x461bcd)\n      dup2\n      mstore\n        /* \"#utility.yul\":2585:2587   */\n      0x20\n        /* \"VersionManager.sol\":792:810  revert(\"No index\") */\n      0x04\n      dup3\n      add\n        /* \"#utility.yul\":2567:2588   */\n      mstore\n        /* \"#utility.yul\":2624:2625   */\n      0x08\n        /* \"#utility.yul\":2604:2622   */\n      0x24\n      dup3\n      add\n        /* \"#utility.yul\":2597:2626   */\n      mstore\n      shl(0xc3, 0x09cde40d2dcc8caf)\n        /* \"#utility.yul\":2642:2660   */\n      0x44\n      dup3\n      add\n        /* \"#utility.yul\":2635:2673   */\n      mstore\n        /* \"#utility.yul\":2690:2708   */\n      0x64\n      add\n        /* \"VersionManager.sol\":792:810  revert(\"No index\") */\n      tag_26\n        /* \"#utility.yul\":2383:2714   */\n      jump\n        /* \"VersionManager.sol\":756:810  if( findState(_addr, states) == -1) revert(\"No index\") */\n    tag_48:\n        /* \"VersionManager.sol\":821:835  currentManager */\n      0x01\n        /* \"VersionManager.sol\":821:843  currentManager = _addr */\n      dup1\n      sload\n      not(sub(shl(0xa0, 0x01), 0x01))\n      and\n      sub(shl(0xa0, 0x01), 0x01)\n      dup4\n      and\n      or\n      swap1\n      sstore\n        /* \"VersionManager.sol\":861:871  Set(_addr) */\n      mload(0x40)\n      0x3c4dbb057f7df48b080ac34e14a9186ad0847e234436b06de4078464d5936c62\n      swap1\n      tag_51\n      swap1\n        /* \"VersionManager.sol\":821:843  currentManager = _addr */\n      dup4\n      swap1\n        /* \"VersionManager.sol\":861:871  Set(_addr) */\n      tag_10\n      jump\t// in\n    tag_51:\n      mload(0x40)\n      dup1\n      swap2\n      sub\n      swap1\n      log1\n        /* \"VersionManager.sol\":686:880  function setBackTo(address _addr) external ownerOnly {    ... */\n      pop\n      jump\t// out\n        /* \"VersionManager.sol\":586:678  function getStates() external view returns (State[] memory) {... */\n    tag_20:\n        /* \"VersionManager.sol\":630:644  State[] memory */\n      0x60\n        /* \"VersionManager.sol\":664:670  states */\n      0x00\n        /* \"VersionManager.sol\":657:670  return states */\n      dup1\n      sload\n      dup1\n      0x20\n      mul\n      0x20\n      add\n      mload(0x40)\n      swap1\n      dup2\n      add\n      0x40\n      mstore\n      dup1\n      swap3\n      swap2\n      swap1\n      dup2\n      dup2\n      mstore\n      0x20\n      add\n      0x00\n      swap1\n    tag_53:\n      dup3\n      dup3\n      lt\n      iszero\n      tag_54\n      jumpi\n      0x00\n      dup5\n      dup2\n      mstore\n      0x20\n      swap1\n      dup2\n      swap1\n      keccak256\n      0x40\n      dup1\n      mload\n      dup1\n      dup3\n      add\n      swap1\n      swap2\n      mstore\n      0x02\n      dup6\n      mul\n      swap1\n      swap2\n      add\n      dup1\n      sload\n      dup3\n      mstore\n      0x01\n      swap1\n      dup2\n      add\n      sload\n      sub(shl(0xa0, 0x01), 0x01)\n      and\n      dup3\n      dup5\n      add\n      mstore\n      swap1\n      dup4\n      mstore\n      swap1\n      swap3\n      add\n      swap2\n      add\n      jump(tag_53)\n    tag_54:\n      pop\n      pop\n      pop\n      pop\n      swap1\n      pop\n        /* \"VersionManager.sol\":586:678  function getStates() external view returns (State[] memory) {... */\n      swap1\n      jump\t// out\n        /* \"VersionManager.sol\":1196:1431  function findState(address _value, State[] memory _array) internal pure returns (int) {... */\n    tag_33:\n        /* \"VersionManager.sol\":1277:1280  int */\n      0x00\n      dup1\n        /* \"VersionManager.sol\":1293:1404  for (uint i = 0; i < _array.length; i++) {... */\n    tag_57:\n        /* \"VersionManager.sol\":1314:1320  _array */\n      dup3\n        /* \"VersionManager.sol\":1314:1327  _array.length */\n      mload\n        /* \"VersionManager.sol\":1310:1311  i */\n      dup2\n        /* \"VersionManager.sol\":1310:1327  i < _array.length */\n      lt\n        /* \"VersionManager.sol\":1293:1404  for (uint i = 0; i < _array.length; i++) {... */\n      iszero\n      tag_58\n      jumpi\n        /* \"VersionManager.sol\":1371:1377  _value */\n      dup4\n      sub(shl(0xa0, 0x01), 0x01)\n        /* \"VersionManager.sol\":1353:1377  _array[i].addr == _value */\n      and\n        /* \"VersionManager.sol\":1353:1359  _array */\n      dup4\n        /* \"VersionManager.sol\":1360:1361  i */\n      dup3\n        /* \"VersionManager.sol\":1353:1362  _array[i] */\n      dup2\n      mload\n      dup2\n      lt\n      tag_61\n      jumpi\n      tag_61\n      tag_62\n      jump\t// in\n    tag_61:\n      0x20\n      mul\n      0x20\n      add\n      add\n      mload\n        /* \"VersionManager.sol\":1353:1367  _array[i].addr */\n      0x20\n      add\n      mload\n      sub(shl(0xa0, 0x01), 0x01)\n        /* \"VersionManager.sol\":1353:1377  _array[i].addr == _value */\n      and\n      sub\n        /* \"VersionManager.sol\":1349:1392  if (_array[i].addr == _value) return int(i) */\n      tag_63\n      jumpi\n        /* \"VersionManager.sol\":1390:1391  i */\n      swap1\n      pop\n        /* \"VersionManager.sol\":1379:1392  return int(i) */\n      jump(tag_56)\n        /* \"VersionManager.sol\":1349:1392  if (_array[i].addr == _value) return int(i) */\n    tag_63:\n        /* \"VersionManager.sol\":1329:1332  i++ */\n      0x01\n      add\n        /* \"VersionManager.sol\":1293:1404  for (uint i = 0; i < _array.length; i++) {... */\n      jump(tag_57)\n    tag_58:\n      pop\n      not(0x00)\n        /* \"VersionManager.sol\":1414:1423  return -1 */\n      swap1\n      pop\n        /* \"VersionManager.sol\":1196:1431  function findState(address _value, State[] memory _array) internal pure returns (int) {... */\n    tag_56:\n      swap3\n      swap2\n      pop\n      pop\n      jump\t// out\n        /* \"#utility.yul\":14:217   */\n    tag_10:\n      sub(shl(0xa0, 0x01), 0x01)\n        /* \"#utility.yul\":178:210   */\n      swap2\n      swap1\n      swap2\n      and\n        /* \"#utility.yul\":160:211   */\n      dup2\n      mstore\n        /* \"#utility.yul\":148:150   */\n      0x20\n        /* \"#utility.yul\":133:151   */\n      add\n      swap1\n        /* \"#utility.yul\":14:217   */\n      jump\t// out\n        /* \"#utility.yul\":222:395   */\n    tag_64:\n        /* \"#utility.yul\":290:310   */\n      dup1\n      calldataload\n      sub(shl(0xa0, 0x01), 0x01)\n        /* \"#utility.yul\":339:370   */\n      dup2\n      and\n        /* \"#utility.yul\":329:371   */\n      dup2\n      eq\n        /* \"#utility.yul\":319:389   */\n      tag_68\n      jumpi\n        /* \"#utility.yul\":385:386   */\n      0x00\n        /* \"#utility.yul\":382:383   */\n      dup1\n        /* \"#utility.yul\":375:387   */\n      revert\n        /* \"#utility.yul\":319:389   */\n    tag_68:\n        /* \"#utility.yul\":222:395   */\n      swap2\n      swap1\n      pop\n      jump\t// out\n        /* \"#utility.yul\":400:747   */\n    tag_13:\n        /* \"#utility.yul\":465:471   */\n      0x00\n        /* \"#utility.yul\":473:479   */\n      dup1\n        /* \"#utility.yul\":526:528   */\n      0x40\n        /* \"#utility.yul\":514:523   */\n      dup4\n        /* \"#utility.yul\":505:512   */\n      dup6\n        /* \"#utility.yul\":501:524   */\n      sub\n        /* \"#utility.yul\":497:529   */\n      slt\n        /* \"#utility.yul\":494:546   */\n      iszero\n      tag_70\n      jumpi\n        /* \"#utility.yul\":542:543   */\n      0x00\n        /* \"#utility.yul\":539:540   */\n      dup1\n        /* \"#utility.yul\":532:544   */\n      revert\n        /* \"#utility.yul\":494:546   */\n    tag_70:\n        /* \"#utility.yul\":565:594   */\n      tag_71\n        /* \"#utility.yul\":584:593   */\n      dup4\n        /* \"#utility.yul\":565:594   */\n      tag_64\n      jump\t// in\n    tag_71:\n        /* \"#utility.yul\":555:594   */\n      swap2\n      pop\n        /* \"#utility.yul\":644:646   */\n      0x20\n        /* \"#utility.yul\":633:642   */\n      dup4\n        /* \"#utility.yul\":629:647   */\n      add\n        /* \"#utility.yul\":616:648   */\n      calldataload\n        /* \"#utility.yul\":691:696   */\n      dup1\n        /* \"#utility.yul\":684:697   */\n      iszero\n        /* \"#utility.yul\":677:698   */\n      iszero\n        /* \"#utility.yul\":670:675   */\n      dup2\n        /* \"#utility.yul\":667:699   */\n      eq\n        /* \"#utility.yul\":657:717   */\n      tag_72\n      jumpi\n        /* \"#utility.yul\":713:714   */\n      0x00\n        /* \"#utility.yul\":710:711   */\n      dup1\n        /* \"#utility.yul\":703:715   */\n      revert\n        /* \"#utility.yul\":657:717   */\n    tag_72:\n        /* \"#utility.yul\":736:741   */\n      dup1\n        /* \"#utility.yul\":726:741   */\n      swap2\n      pop\n      pop\n        /* \"#utility.yul\":400:747   */\n      swap3\n      pop\n      swap3\n      swap1\n      pop\n      jump\t// out\n        /* \"#utility.yul\":752:938   */\n    tag_17:\n        /* \"#utility.yul\":811:817   */\n      0x00\n        /* \"#utility.yul\":864:866   */\n      0x20\n        /* \"#utility.yul\":852:861   */\n      dup3\n        /* \"#utility.yul\":843:850   */\n      dup5\n        /* \"#utility.yul\":839:862   */\n      sub\n        /* \"#utility.yul\":835:867   */\n      slt\n        /* \"#utility.yul\":832:884   */\n      iszero\n      tag_74\n      jumpi\n        /* \"#utility.yul\":880:881   */\n      0x00\n        /* \"#utility.yul\":877:878   */\n      dup1\n        /* \"#utility.yul\":870:882   */\n      revert\n        /* \"#utility.yul\":832:884   */\n    tag_74:\n        /* \"#utility.yul\":903:932   */\n      tag_75\n        /* \"#utility.yul\":922:931   */\n      dup3\n        /* \"#utility.yul\":903:932   */\n      tag_64\n      jump\t// in\n    tag_75:\n        /* \"#utility.yul\":893:932   */\n      swap4\n        /* \"#utility.yul\":752:938   */\n      swap3\n      pop\n      pop\n      pop\n      jump\t// out\n        /* \"#utility.yul\":943:1705   */\n    tag_22:\n        /* \"#utility.yul\":1173:1175   */\n      0x20\n        /* \"#utility.yul\":1185:1206   */\n      dup1\n      dup3\n      mstore\n        /* \"#utility.yul\":1255:1268   */\n      dup3\n      mload\n        /* \"#utility.yul\":1158:1176   */\n      dup3\n      dup3\n      add\n        /* \"#utility.yul\":1277:1299   */\n      dup2\n      swap1\n      mstore\n        /* \"#utility.yul\":1125:1129   */\n      0x00\n      swap2\n        /* \"#utility.yul\":1356:1371   */\n      dup5\n      add\n      swap1\n        /* \"#utility.yul\":1330:1332   */\n      0x40\n        /* \"#utility.yul\":1315:1333   */\n      dup5\n      add\n      swap1\n        /* \"#utility.yul\":1125:1129   */\n      dup4\n        /* \"#utility.yul\":1399:1679   */\n    tag_77:\n        /* \"#utility.yul\":1413:1419   */\n      dup2\n        /* \"#utility.yul\":1410:1411   */\n      dup2\n        /* \"#utility.yul\":1407:1420   */\n      lt\n        /* \"#utility.yul\":1399:1679   */\n      iszero\n      tag_79\n      jumpi\n        /* \"#utility.yul\":1472:1485   */\n      dup4\n      mload\n        /* \"#utility.yul\":1510:1519   */\n      dup1\n      mload\n        /* \"#utility.yul\":1498:1520   */\n      dup5\n      mstore\n        /* \"#utility.yul\":1572:1574   */\n      0x20\n        /* \"#utility.yul\":1564:1575   */\n      swap1\n      dup2\n      add\n        /* \"#utility.yul\":1558:1576   */\n      mload\n      sub(shl(0xa0, 0x01), 0x01)\n        /* \"#utility.yul\":1554:1598   */\n      and\n        /* \"#utility.yul\":1540:1552   */\n      dup2\n      dup6\n      add\n        /* \"#utility.yul\":1533:1599   */\n      mstore\n        /* \"#utility.yul\":1654:1669   */\n      swap1\n      swap4\n      add\n      swap3\n        /* \"#utility.yul\":1628:1630   */\n      0x40\n        /* \"#utility.yul\":1619:1631   */\n      swap1\n      swap3\n      add\n      swap2\n        /* \"#utility.yul\":1595:1596   */\n      0x01\n        /* \"#utility.yul\":1428:1437   */\n      add\n        /* \"#utility.yul\":1399:1679   */\n      jump(tag_77)\n    tag_79:\n      pop\n        /* \"#utility.yul\":1696:1699   */\n      swap1\n      swap6\n        /* \"#utility.yul\":943:1705   */\n      swap5\n      pop\n      pop\n      pop\n      pop\n      pop\n      jump\t// out\n        /* \"#utility.yul\":1710:2044   */\n    tag_27:\n        /* \"#utility.yul\":1912:1914   */\n      0x20\n        /* \"#utility.yul\":1894:1915   */\n      dup1\n      dup3\n      mstore\n        /* \"#utility.yul\":1951:1953   */\n      0x0a\n        /* \"#utility.yul\":1931:1949   */\n      swap1\n      dup3\n      add\n        /* \"#utility.yul\":1924:1954   */\n      mstore\n      shl(0xb1, 0x27b7363c9037bbb732b9)\n        /* \"#utility.yul\":1985:1987   */\n      0x40\n        /* \"#utility.yul\":1970:1988   */\n      dup3\n      add\n        /* \"#utility.yul\":1963:2003   */\n      mstore\n        /* \"#utility.yul\":2035:2037   */\n      0x60\n        /* \"#utility.yul\":2020:2038   */\n      add\n      swap1\n        /* \"#utility.yul\":1710:2044   */\n      jump\t// out\n        /* \"#utility.yul\":2719:2846   */\n    tag_62:\n        /* \"#utility.yul\":2780:2790   */\n      0x4e487b71\n        /* \"#utility.yul\":2775:2778   */\n      0xe0\n        /* \"#utility.yul\":2771:2791   */\n      shl\n        /* \"#utility.yul\":2768:2769   */\n      0x00\n        /* \"#utility.yul\":2761:2792   */\n      mstore\n        /* \"#utility.yul\":2811:2815   */\n      0x32\n        /* \"#utility.yul\":2808:2809   */\n      0x04\n        /* \"#utility.yul\":2801:2816   */\n      mstore\n        /* \"#utility.yul\":2835:2839   */\n      0x24\n        /* \"#utility.yul\":2832:2833   */\n      0x00\n        /* \"#utility.yul\":2825:2840   */\n      revert\n\n    auxdata: 0xa26469706673582212208137c3aeeb1c28bab6ef6389b3f76dd5a619e4d02bf802a481bb8880782af9ca64736f6c634300081a0033\n}\n",
				"bytecode": {
					"linkReferences": {},
					"object": "6080604052348015600e575f80fd5b50600280546001600160a01b031916331790556105b98061002e5f395ff3fe608060405234801561000f575f80fd5b506004361061004a575f3560e01c806351d8f3f61461004e578063adcaab5314610070578063c8ef8aea14610085578063d8ab827414610098575b5f80fd5b6001546001600160a01b0316604051610067919061046c565b60405180910390f35b61008361007e36600461049b565b6100ad565b005b6100836100933660046104d4565b61027b565b6100a061039d565b60405161006791906104f4565b6002546001600160a01b031633146100e05760405162461bcd60e51b81526004016100d79061054b565b60405180910390fd5b610154825f805480602002602001604051908101604052809291908181526020015f905b8282101561014b575f8481526020908190206040805180820190915260028502909101805482526001908101546001600160a01b0316828401529083529092019101610104565b5050505061040f565b5f191461018c5760405162461bcd60e51b815260206004820152600660248201526545786973747360d01b60448201526064016100d7565b604080518082019091524281526001600160a01b03838116602083019081525f805460018101825590805292517f290decd9548b62a8d60345a988386fc84ba6bc95484008f6362f93160ef3e563600290940293840155517f290decd9548b62a8d60345a988386fc84ba6bc95484008f6362f93160ef3e56490920180546001600160a01b03191692909116919091179055801561024057600180546001600160a01b0319166001600160a01b0384161790555b7ff40fcec21964ffb566044d083b4073f29f7f7929110ea19e1b3ebe375d89055e8260405161026f919061046c565b60405180910390a15050565b6002546001600160a01b031633146102a55760405162461bcd60e51b81526004016100d79061054b565b61030f815f805480602002602001604051908101604052809291908181526020015f908282101561014b575f8481526020908190206040805180820190915260028502909101805482526001908101546001600160a01b0316828401529083529092019101610104565b196103475760405162461bcd60e51b815260206004820152600860248201526709cde40d2dcc8caf60c31b60448201526064016100d7565b600180546001600160a01b0319166001600160a01b0383161790556040517f3c4dbb057f7df48b080ac34e14a9186ad0847e234436b06de4078464d5936c629061039290839061046c565b60405180910390a150565b60605f805480602002602001604051908101604052809291908181526020015f905b82821015610406575f8481526020908190206040805180820190915260028502909101805482526001908101546001600160a01b03168284015290835290920191016103bf565b50505050905090565b5f805b825181101561046057836001600160a01b03168382815181106104375761043761056f565b6020026020010151602001516001600160a01b031603610458579050610466565b600101610412565b505f1990505b92915050565b6001600160a01b0391909116815260200190565b80356001600160a01b0381168114610496575f80fd5b919050565b5f80604083850312156104ac575f80fd5b6104b583610480565b9150602083013580151581146104c9575f80fd5b809150509250929050565b5f602082840312156104e4575f80fd5b6104ed82610480565b9392505050565b602080825282518282018190525f918401906040840190835b81811015610540578351805184526020908101516001600160a01b0316818501529093019260409092019160010161050d565b509095945050505050565b6020808252600a908201526927b7363c9037bbb732b960b11b604082015260600190565b634e487b7160e01b5f52603260045260245ffdfea26469706673582212208137c3aeeb1c28bab6ef6389b3f76dd5a619e4d02bf802a481bb8880782af9ca64736f6c634300081a0033",
					"opcodes": "PUSH1 0x80 PUSH1 0x40 MSTORE CALLVALUE DUP1 ISZERO PUSH1 0xE JUMPI PUSH0 DUP1 REVERT JUMPDEST POP PUSH1 0x2 DUP1 SLOAD PUSH1 0x1 PUSH1 0x1 PUSH1 0xA0 SHL SUB NOT AND CALLER OR SWAP1 SSTORE PUSH2 0x5B9 DUP1 PUSH2 0x2E PUSH0 CODECOPY PUSH0 RETURN INVALID PUSH1 0x80 PUSH1 0x40 MSTORE CALLVALUE DUP1 ISZERO PUSH2 0xF JUMPI PUSH0 DUP1 REVERT JUMPDEST POP PUSH1 0x4 CALLDATASIZE LT PUSH2 0x4A JUMPI PUSH0 CALLDATALOAD PUSH1 0xE0 SHR DUP1 PUSH4 0x51D8F3F6 EQ PUSH2 0x4E JUMPI DUP1 PUSH4 0xADCAAB53 EQ PUSH2 0x70 JUMPI DUP1 PUSH4 0xC8EF8AEA EQ PUSH2 0x85 JUMPI DUP1 PUSH4 0xD8AB8274 EQ PUSH2 0x98 JUMPI JUMPDEST PUSH0 DUP1 REVERT JUMPDEST PUSH1 0x1 SLOAD PUSH1 0x1 PUSH1 0x1 PUSH1 0xA0 SHL SUB AND PUSH1 0x40 MLOAD PUSH2 0x67 SWAP2 SWAP1 PUSH2 0x46C JUMP JUMPDEST PUSH1 0x40 MLOAD DUP1 SWAP2 SUB SWAP1 RETURN JUMPDEST PUSH2 0x83 PUSH2 0x7E CALLDATASIZE PUSH1 0x4 PUSH2 0x49B JUMP JUMPDEST PUSH2 0xAD JUMP JUMPDEST STOP JUMPDEST PUSH2 0x83 PUSH2 0x93 CALLDATASIZE PUSH1 0x4 PUSH2 0x4D4 JUMP JUMPDEST PUSH2 0x27B JUMP JUMPDEST PUSH2 0xA0 PUSH2 0x39D JUMP JUMPDEST PUSH1 0x40 MLOAD PUSH2 0x67 SWAP2 SWAP1 PUSH2 0x4F4 JUMP JUMPDEST PUSH1 0x2 SLOAD PUSH1 0x1 PUSH1 0x1 PUSH1 0xA0 SHL SUB AND CALLER EQ PUSH2 0xE0 JUMPI PUSH1 0x40 MLOAD PUSH3 0x461BCD PUSH1 0xE5 SHL DUP2 MSTORE PUSH1 0x4 ADD PUSH2 0xD7 SWAP1 PUSH2 0x54B JUMP JUMPDEST PUSH1 0x40 MLOAD DUP1 SWAP2 SUB SWAP1 REVERT JUMPDEST PUSH2 0x154 DUP3 PUSH0 DUP1 SLOAD DUP1 PUSH1 0x20 MUL PUSH1 0x20 ADD PUSH1 0x40 MLOAD SWAP1 DUP2 ADD PUSH1 0x40 MSTORE DUP1 SWAP3 SWAP2 SWAP1 DUP2 DUP2 MSTORE PUSH1 0x20 ADD PUSH0 SWAP1 JUMPDEST DUP3 DUP3 LT ISZERO PUSH2 0x14B JUMPI PUSH0 DUP5 DUP2 MSTORE PUSH1 0x20 SWAP1 DUP2 SWAP1 KECCAK256 PUSH1 0x40 DUP1 MLOAD DUP1 DUP3 ADD SWAP1 SWAP2 MSTORE PUSH1 0x2 DUP6 MUL SWAP1 SWAP2 ADD DUP1 SLOAD DUP3 MSTORE PUSH1 0x1 SWAP1 DUP2 ADD SLOAD PUSH1 0x1 PUSH1 0x1 PUSH1 0xA0 SHL SUB AND DUP3 DUP5 ADD MSTORE SWAP1 DUP4 MSTORE SWAP1 SWAP3 ADD SWAP2 ADD PUSH2 0x104 JUMP JUMPDEST POP POP POP POP PUSH2 0x40F JUMP JUMPDEST PUSH0 NOT EQ PUSH2 0x18C JUMPI PUSH1 0x40 MLOAD PUSH3 0x461BCD PUSH1 0xE5 SHL DUP2 MSTORE PUSH1 0x20 PUSH1 0x4 DUP3 ADD MSTORE PUSH1 0x6 PUSH1 0x24 DUP3 ADD MSTORE PUSH6 0x457869737473 PUSH1 0xD0 SHL PUSH1 0x44 DUP3 ADD MSTORE PUSH1 0x64 ADD PUSH2 0xD7 JUMP JUMPDEST PUSH1 0x40 DUP1 MLOAD DUP1 DUP3 ADD SWAP1 SWAP2 MSTORE TIMESTAMP DUP2 MSTORE PUSH1 0x1 PUSH1 0x1 PUSH1 0xA0 SHL SUB DUP4 DUP2 AND PUSH1 0x20 DUP4 ADD SWAP1 DUP2 MSTORE PUSH0 DUP1 SLOAD PUSH1 0x1 DUP2 ADD DUP3 SSTORE SWAP1 DUP1 MSTORE SWAP3 MLOAD PUSH32 0x290DECD9548B62A8D60345A988386FC84BA6BC95484008F6362F93160EF3E563 PUSH1 0x2 SWAP1 SWAP5 MUL SWAP4 DUP5 ADD SSTORE MLOAD PUSH32 0x290DECD9548B62A8D60345A988386FC84BA6BC95484008F6362F93160EF3E564 SWAP1 SWAP3 ADD DUP1 SLOAD PUSH1 0x1 PUSH1 0x1 PUSH1 0xA0 SHL SUB NOT AND SWAP3 SWAP1 SWAP2 AND SWAP2 SWAP1 SWAP2 OR SWAP1 SSTORE DUP1 ISZERO PUSH2 0x240 JUMPI PUSH1 0x1 DUP1 SLOAD PUSH1 0x1 PUSH1 0x1 PUSH1 0xA0 SHL SUB NOT AND PUSH1 0x1 PUSH1 0x1 PUSH1 0xA0 SHL SUB DUP5 AND OR SWAP1 SSTORE JUMPDEST PUSH32 0xF40FCEC21964FFB566044D083B4073F29F7F7929110EA19E1B3EBE375D89055E DUP3 PUSH1 0x40 MLOAD PUSH2 0x26F SWAP2 SWAP1 PUSH2 0x46C JUMP JUMPDEST PUSH1 0x40 MLOAD DUP1 SWAP2 SUB SWAP1 LOG1 POP POP JUMP JUMPDEST PUSH1 0x2 SLOAD PUSH1 0x1 PUSH1 0x1 PUSH1 0xA0 SHL SUB AND CALLER EQ PUSH2 0x2A5 JUMPI PUSH1 0x40 MLOAD PUSH3 0x461BCD PUSH1 0xE5 SHL DUP2 MSTORE PUSH1 0x4 ADD PUSH2 0xD7 SWAP1 PUSH2 0x54B JUMP JUMPDEST PUSH2 0x30F DUP2 PUSH0 DUP1 SLOAD DUP1 PUSH1 0x20 MUL PUSH1 0x20 ADD PUSH1 0x40 MLOAD SWAP1 DUP2 ADD PUSH1 0x40 MSTORE DUP1 SWAP3 SWAP2 SWAP1 DUP2 DUP2 MSTORE PUSH1 0x20 ADD PUSH0 SWAP1 DUP3 DUP3 LT ISZERO PUSH2 0x14B JUMPI PUSH0 DUP5 DUP2 MSTORE PUSH1 0x20 SWAP1 DUP2 SWAP1 KECCAK256 PUSH1 0x40 DUP1 MLOAD DUP1 DUP3 ADD SWAP1 SWAP2 MSTORE PUSH1 0x2 DUP6 MUL SWAP1 SWAP2 ADD DUP1 SLOAD DUP3 MSTORE PUSH1 0x1 SWAP1 DUP2 ADD SLOAD PUSH1 0x1 PUSH1 0x1 PUSH1 0xA0 SHL SUB AND DUP3 DUP5 ADD MSTORE SWAP1 DUP4 MSTORE SWAP1 SWAP3 ADD SWAP2 ADD PUSH2 0x104 JUMP JUMPDEST NOT PUSH2 0x347 JUMPI PUSH1 0x40 MLOAD PUSH3 0x461BCD PUSH1 0xE5 SHL DUP2 MSTORE PUSH1 0x20 PUSH1 0x4 DUP3 ADD MSTORE PUSH1 0x8 PUSH1 0x24 DUP3 ADD MSTORE PUSH8 0x9CDE40D2DCC8CAF PUSH1 0xC3 SHL PUSH1 0x44 DUP3 ADD MSTORE PUSH1 0x64 ADD PUSH2 0xD7 JUMP JUMPDEST PUSH1 0x1 DUP1 SLOAD PUSH1 0x1 PUSH1 0x1 PUSH1 0xA0 SHL SUB NOT AND PUSH1 0x1 PUSH1 0x1 PUSH1 0xA0 SHL SUB DUP4 AND OR SWAP1 SSTORE PUSH1 0x40 MLOAD PUSH32 0x3C4DBB057F7DF48B080AC34E14A9186AD0847E234436B06DE4078464D5936C62 SWAP1 PUSH2 0x392 SWAP1 DUP4 SWAP1 PUSH2 0x46C JUMP JUMPDEST PUSH1 0x40 MLOAD DUP1 SWAP2 SUB SWAP1 LOG1 POP JUMP JUMPDEST PUSH1 0x60 PUSH0 DUP1 SLOAD DUP1 PUSH1 0x20 MUL PUSH1 0x20 ADD PUSH1 0x40 MLOAD SWAP1 DUP2 ADD PUSH1 0x40 MSTORE DUP1 SWAP3 SWAP2 SWAP1 DUP2 DUP2 MSTORE PUSH1 0x20 ADD PUSH0 SWAP1 JUMPDEST DUP3 DUP3 LT ISZERO PUSH2 0x406 JUMPI PUSH0 DUP5 DUP2 MSTORE PUSH1 0x20 SWAP1 DUP2 SWAP1 KECCAK256 PUSH1 0x40 DUP1 MLOAD DUP1 DUP3 ADD SWAP1 SWAP2 MSTORE PUSH1 0x2 DUP6 MUL SWAP1 SWAP2 ADD DUP1 SLOAD DUP3 MSTORE PUSH1 0x1 SWAP1 DUP2 ADD SLOAD PUSH1 0x1 PUSH1 0x1 PUSH1 0xA0 SHL SUB AND DUP3 DUP5 ADD MSTORE SWAP1 DUP4 MSTORE SWAP1 SWAP3 ADD SWAP2 ADD PUSH2 0x3BF JUMP JUMPDEST POP POP POP POP SWAP1 POP SWAP1 JUMP JUMPDEST PUSH0 DUP1 JUMPDEST DUP3 MLOAD DUP2 LT ISZERO PUSH2 0x460 JUMPI DUP4 PUSH1 0x1 PUSH1 0x1 PUSH1 0xA0 SHL SUB AND DUP4 DUP3 DUP2 MLOAD DUP2 LT PUSH2 0x437 JUMPI PUSH2 0x437 PUSH2 0x56F JUMP JUMPDEST PUSH1 0x20 MUL PUSH1 0x20 ADD ADD MLOAD PUSH1 0x20 ADD MLOAD PUSH1 0x1 PUSH1 0x1 PUSH1 0xA0 SHL SUB AND SUB PUSH2 0x458 JUMPI SWAP1 POP PUSH2 0x466 JUMP JUMPDEST PUSH1 0x1 ADD PUSH2 0x412 JUMP JUMPDEST POP PUSH0 NOT SWAP1 POP JUMPDEST SWAP3 SWAP2 POP POP JUMP JUMPDEST PUSH1 0x1 PUSH1 0x1 PUSH1 0xA0 SHL SUB SWAP2 SWAP1 SWAP2 AND DUP2 MSTORE PUSH1 0x20 ADD SWAP1 JUMP JUMPDEST DUP1 CALLDATALOAD PUSH1 0x1 PUSH1 0x1 PUSH1 0xA0 SHL SUB DUP2 AND DUP2 EQ PUSH2 0x496 JUMPI PUSH0 DUP1 REVERT JUMPDEST SWAP2 SWAP1 POP JUMP JUMPDEST PUSH0 DUP1 PUSH1 0x40 DUP4 DUP6 SUB SLT ISZERO PUSH2 0x4AC JUMPI PUSH0 DUP1 REVERT JUMPDEST PUSH2 0x4B5 DUP4 PUSH2 0x480 JUMP JUMPDEST SWAP2 POP PUSH1 0x20 DUP4 ADD CALLDATALOAD DUP1 ISZERO ISZERO DUP2 EQ PUSH2 0x4C9 JUMPI PUSH0 DUP1 REVERT JUMPDEST DUP1 SWAP2 POP POP SWAP3 POP SWAP3 SWAP1 POP JUMP JUMPDEST PUSH0 PUSH1 0x20 DUP3 DUP5 SUB SLT ISZERO PUSH2 0x4E4 JUMPI PUSH0 DUP1 REVERT JUMPDEST PUSH2 0x4ED DUP3 PUSH2 0x480 JUMP JUMPDEST SWAP4 SWAP3 POP POP POP JUMP JUMPDEST PUSH1 0x20 DUP1 DUP3 MSTORE DUP3 MLOAD DUP3 DUP3 ADD DUP2 SWAP1 MSTORE PUSH0 SWAP2 DUP5 ADD SWAP1 PUSH1 0x40 DUP5 ADD SWAP1 DUP4 JUMPDEST DUP2 DUP2 LT ISZERO PUSH2 0x540 JUMPI DUP4 MLOAD DUP1 MLOAD DUP5 MSTORE PUSH1 0x20 SWAP1 DUP2 ADD MLOAD PUSH1 0x1 PUSH1 0x1 PUSH1 0xA0 SHL SUB AND DUP2 DUP6 ADD MSTORE SWAP1 SWAP4 ADD SWAP3 PUSH1 0x40 SWAP1 SWAP3 ADD SWAP2 PUSH1 0x1 ADD PUSH2 0x50D JUMP JUMPDEST POP SWAP1 SWAP6 SWAP5 POP POP POP POP POP JUMP JUMPDEST PUSH1 0x20 DUP1 DUP3 MSTORE PUSH1 0xA SWAP1 DUP3 ADD MSTORE PUSH10 0x27B7363C9037BBB732B9 PUSH1 0xB1 SHL PUSH1 0x40 DUP3 ADD MSTORE PUSH1 0x60 ADD SWAP1 JUMP JUMPDEST PUSH4 0x4E487B71 PUSH1 0xE0 SHL PUSH0 MSTORE PUSH1 0x32 PUSH1 0x4 MSTORE PUSH1 0x24 PUSH0 REVERT INVALID LOG2 PUSH5 0x6970667358 0x22 SLT KECCAK256 DUP2 CALLDATACOPY 0xC3 0xAE 0xEB SHR 0x28 0xBA 0xB6 0xEF PUSH4 0x89B3F76D 0xD5 0xA6 NOT 0xE4 0xD0 0x2B 0xF8 MUL LOG4 DUP2 0xBB DUP9 DUP1 PUSH25 0x2AF9CA64736F6C634300081A00330000000000000000000000 "
				},
				"gasEstimates": {
					"creation": {
						"codeDepositCost": "293000",
						"executionCost": "24564",
						"totalCost": "317564"
					},
					"external": {
						"getCurrentManager()": "2320",
						"getStates()": "infinite",
						"postState(address,bool)": "infinite",
						"setBackTo(address)": "infinite"
					},
					"internal": {
						"findState(address,struct VersionManager.State memory[] memory)": "infinite"
					}
				},
				"methodIdentifiers": {
					"getCurrentManager()": "51d8f3f6",
					"getStates()": "d8ab8274",
					"postState(address,bool)": "adcaab53",
					"setBackTo(address)": "c8ef8aea"
				}
			},
			"storageLayout": {
				"storage": [
					{
						"astId": 10,
						"contract": "VersionManager.sol:VersionManager",
						"label": "states",
						"offset": 0,
						"slot": "0",
						"type": "t_array(t_struct(State)6_storage)dyn_storage"
					},
					{
						"astId": 12,
						"contract": "VersionManager.sol:VersionManager",
						"label": "currentManager",
						"offset": 0,
						"slot": "1",
						"type": "t_address"
					},
					{
						"astId": 14,
						"contract": "VersionManager.sol:VersionManager",
						"label": "owner",
						"offset": 0,
						"slot": "2",
						"type": "t_address"
					}
				],
				"types": {
					"t_address": {
						"encoding": "inplace",
						"label": "address",
						"numberOfBytes": "20"
					},
					"t_array(t_struct(State)6_storage)dyn_storage": {
						"base": "t_struct(State)6_storage",
						"encoding": "dynamic_array",
						"label": "struct VersionManager.State[]",
						"numberOfBytes": "32"
					},
					"t_struct(State)6_storage": {
						"encoding": "inplace",
						"label": "struct VersionManager.State",
						"members": [
							{
								"astId": 3,
								"contract": "VersionManager.sol:VersionManager",
								"label": "timestamp",
								"offset": 0,
								"slot": "0",
								"type": "t_uint256"
							},
							{
								"astId": 5,
								"contract": "VersionManager.sol:VersionManager",
								"label": "addr",
								"offset": 0,
								"slot": "1",
								"type": "t_address"
							}
						],
						"numberOfBytes": "64"
					},
					"t_uint256": {
						"encoding": "inplace",
						"label": "uint256",
						"numberOfBytes": "32"
					}
				}
			},
			"userdoc": {
				"kind": "user",
				"methods": {},
				"version": 1
			}
		}
	}
}