{
	"DebitCard.sol": {
		"DebitCard": {
			"abi": [
				{
					"inputs": [
						{
							"internalType": "string",
							"name": "_name",
							"type": "string"
						},
						{
							"internalType": "string",
							"name": "_card_id",
							"type": "string"
						},
						{
							"internalType": "string",
							"name": "_name_on_card",
							"type": "string"
						},
						{
							"internalType": "string",
							"name": "_expire_at",
							"type": "string"
						},
						{
							"internalType": "uint256",
							"name": "_cvv",
							"type": "uint256"
						},
						{
							"internalType": "address",
							"name": "_owner",
							"type": "address"
						},
						{
							"internalType": "address",
							"name": "_parent",
							"type": "address"
						}
					],
					"stateMutability": "nonpayable",
					"type": "constructor"
				},
				{
					"inputs": [],
					"name": "getAddress",
					"outputs": [
						{
							"internalType": "address",
							"name": "",
							"type": "address"
						}
					],
					"stateMutability": "view",
					"type": "function"
				},
				{
					"inputs": [],
					"name": "getCard",
					"outputs": [
						{
							"internalType": "string",
							"name": "",
							"type": "string"
						},
						{
							"internalType": "string",
							"name": "",
							"type": "string"
						},
						{
							"internalType": "string",
							"name": "",
							"type": "string"
						},
						{
							"internalType": "string",
							"name": "",
							"type": "string"
						},
						{
							"internalType": "uint256",
							"name": "",
							"type": "uint256"
						}
					],
					"stateMutability": "view",
					"type": "function"
				},
				{
					"inputs": [],
					"name": "getParent",
					"outputs": [
						{
							"internalType": "address",
							"name": "",
							"type": "address"
						}
					],
					"stateMutability": "view",
					"type": "function"
				},
				{
					"inputs": [
						{
							"internalType": "string",
							"name": "_card_id",
							"type": "string"
						}
					],
					"name": "setCardId",
					"outputs": [],
					"stateMutability": "nonpayable",
					"type": "function"
				},
				{
					"inputs": [
						{
							"internalType": "string",
							"name": "_name",
							"type": "string"
						}
					],
					"name": "setName",
					"outputs": [],
					"stateMutability": "nonpayable",
					"type": "function"
				},
				{
					"inputs": [
						{
							"internalType": "address",
							"name": "_parent",
							"type": "address"
						}
					],
					"name": "setParent",
					"outputs": [],
					"stateMutability": "nonpayable",
					"type": "function"
				}
			],
			"devdoc": {
				"kind": "dev",
				"methods": {},
				"version": 1
			},
			"evm": {
				"assembly": "    /* \"DebitCard.sol\":104:1616  contract DebitCard is VaultItem{... */\n  mstore(0x40, 0x80)\n    /* \"DebitCard.sol\":292:736  constructor(... */\n  callvalue\n  dup1\n  iszero\n  tag_1\n  jumpi\n  0x00\n  dup1\n  revert\ntag_1:\n  pop\n  mload(0x40)\n  sub(codesize, bytecodeSize)\n  dup1\n  bytecodeSize\n  dup4\n  codecopy\n  dup2\n  dup2\n  add\n  0x40\n  mstore\n  dup2\n  add\n  swap1\n  tag_2\n  swap2\n  swap1\n  tag_3\n  jump\t// in\ntag_2:\n    /* \"DebitCard.sol\":547:552  _name */\n  dup7\n    /* \"DebitCard.sol\":540:544  name */\n  0x00\n    /* \"DebitCard.sol\":540:552  name = _name */\n  swap1\n  dup2\n  tag_6\n  swap2\n  swap1\n  tag_7\n  jump\t// in\ntag_6:\n  pop\n    /* \"DebitCard.sol\":573:581  _card_id */\n  dup6\n    /* \"DebitCard.sol\":563:570  card_id */\n  0x01\n    /* \"DebitCard.sol\":563:581  card_id = _card_id */\n  swap1\n  dup2\n  tag_8\n  swap2\n  swap1\n  tag_7\n  jump\t// in\ntag_8:\n  pop\n    /* \"DebitCard.sol\":607:620  _name_on_card */\n  dup5\n    /* \"DebitCard.sol\":592:604  name_on_card */\n  0x02\n    /* \"DebitCard.sol\":592:620  name_on_card = _name_on_card */\n  swap1\n  dup2\n  tag_9\n  swap2\n  swap1\n  tag_7\n  jump\t// in\ntag_9:\n  pop\n    /* \"DebitCard.sol\":643:653  _expire_at */\n  dup4\n    /* \"DebitCard.sol\":631:640  expire_at */\n  0x03\n    /* \"DebitCard.sol\":631:653  expire_at = _expire_at */\n  swap1\n  dup2\n  tag_10\n  swap2\n  swap1\n  tag_7\n  jump\t// in\ntag_10:\n  pop\n    /* \"DebitCard.sol\":670:674  _cvv */\n  dup3\n    /* \"DebitCard.sol\":664:667  cvv */\n  0x04\n    /* \"DebitCard.sol\":664:674  cvv = _cvv */\n  dup2\n  swap1\n  sstore\n  pop\n    /* \"DebitCard.sol\":695:701  _owner */\n  dup2\n    /* \"DebitCard.sol\":687:692  owner */\n  0x05\n  0x00\n    /* \"DebitCard.sol\":687:701  owner = _owner */\n  0x0100\n  exp\n  dup2\n  sload\n  dup2\n  0xffffffffffffffffffffffffffffffffffffffff\n  mul\n  not\n  and\n  swap1\n  dup4\n  0xffffffffffffffffffffffffffffffffffffffff\n  and\n  mul\n  or\n  swap1\n  sstore\n  pop\n    /* \"DebitCard.sol\":721:728  _parent */\n  dup1\n    /* \"DebitCard.sol\":712:718  parent */\n  0x06\n  0x00\n    /* \"DebitCard.sol\":712:728  parent = _parent */\n  0x0100\n  exp\n  dup2\n  sload\n  dup2\n  0xffffffffffffffffffffffffffffffffffffffff\n  mul\n  not\n  and\n  swap1\n  dup4\n  0xffffffffffffffffffffffffffffffffffffffff\n  and\n  mul\n  or\n  swap1\n  sstore\n  pop\n    /* \"DebitCard.sol\":292:736  constructor(... */\n  pop\n  pop\n  pop\n  pop\n  pop\n  pop\n  pop\n    /* \"DebitCard.sol\":104:1616  contract DebitCard is VaultItem{... */\n  jump(tag_11)\n    /* \"#utility.yul\":7:82   */\ntag_12:\n    /* \"#utility.yul\":40:46   */\n  0x00\n    /* \"#utility.yul\":73:75   */\n  0x40\n    /* \"#utility.yul\":67:76   */\n  mload\n    /* \"#utility.yul\":57:76   */\n  swap1\n  pop\n    /* \"#utility.yul\":7:82   */\n  swap1\n  jump\t// out\n    /* \"#utility.yul\":88:205   */\ntag_13:\n    /* \"#utility.yul\":197:198   */\n  0x00\n    /* \"#utility.yul\":194:195   */\n  dup1\n    /* \"#utility.yul\":187:199   */\n  revert\n    /* \"#utility.yul\":211:328   */\ntag_14:\n    /* \"#utility.yul\":320:321   */\n  0x00\n    /* \"#utility.yul\":317:318   */\n  dup1\n    /* \"#utility.yul\":310:322   */\n  revert\n    /* \"#utility.yul\":334:451   */\ntag_15:\n    /* \"#utility.yul\":443:444   */\n  0x00\n    /* \"#utility.yul\":440:441   */\n  dup1\n    /* \"#utility.yul\":433:445   */\n  revert\n    /* \"#utility.yul\":457:574   */\ntag_16:\n    /* \"#utility.yul\":566:567   */\n  0x00\n    /* \"#utility.yul\":563:564   */\n  dup1\n    /* \"#utility.yul\":556:568   */\n  revert\n    /* \"#utility.yul\":580:682   */\ntag_17:\n    /* \"#utility.yul\":621:627   */\n  0x00\n    /* \"#utility.yul\":672:674   */\n  0x1f\n    /* \"#utility.yul\":668:675   */\n  not\n    /* \"#utility.yul\":663:665   */\n  0x1f\n    /* \"#utility.yul\":656:661   */\n  dup4\n    /* \"#utility.yul\":652:666   */\n  add\n    /* \"#utility.yul\":648:676   */\n  and\n    /* \"#utility.yul\":638:676   */\n  swap1\n  pop\n    /* \"#utility.yul\":580:682   */\n  swap2\n  swap1\n  pop\n  jump\t// out\n    /* \"#utility.yul\":688:868   */\ntag_18:\n    /* \"#utility.yul\":736:813   */\n  0x4e487b7100000000000000000000000000000000000000000000000000000000\n    /* \"#utility.yul\":733:734   */\n  0x00\n    /* \"#utility.yul\":726:814   */\n  mstore\n    /* \"#utility.yul\":833:837   */\n  0x41\n    /* \"#utility.yul\":830:831   */\n  0x04\n    /* \"#utility.yul\":823:838   */\n  mstore\n    /* \"#utility.yul\":857:861   */\n  0x24\n    /* \"#utility.yul\":854:855   */\n  0x00\n    /* \"#utility.yul\":847:862   */\n  revert\n    /* \"#utility.yul\":874:1155   */\ntag_19:\n    /* \"#utility.yul\":957:984   */\n  tag_59\n    /* \"#utility.yul\":979:983   */\n  dup3\n    /* \"#utility.yul\":957:984   */\n  tag_17\n  jump\t// in\ntag_59:\n    /* \"#utility.yul\":949:955   */\n  dup2\n    /* \"#utility.yul\":945:985   */\n  add\n    /* \"#utility.yul\":1087:1093   */\n  dup2\n    /* \"#utility.yul\":1075:1085   */\n  dup2\n    /* \"#utility.yul\":1072:1094   */\n  lt\n    /* \"#utility.yul\":1051:1069   */\n  0xffffffffffffffff\n    /* \"#utility.yul\":1039:1049   */\n  dup3\n    /* \"#utility.yul\":1036:1070   */\n  gt\n    /* \"#utility.yul\":1033:1095   */\n  or\n    /* \"#utility.yul\":1030:1118   */\n  iszero\n  tag_60\n  jumpi\n    /* \"#utility.yul\":1098:1116   */\n  tag_61\n  tag_18\n  jump\t// in\ntag_61:\n    /* \"#utility.yul\":1030:1118   */\ntag_60:\n    /* \"#utility.yul\":1138:1148   */\n  dup1\n    /* \"#utility.yul\":1134:1136   */\n  0x40\n    /* \"#utility.yul\":1127:1149   */\n  mstore\n    /* \"#utility.yul\":917:1155   */\n  pop\n    /* \"#utility.yul\":874:1155   */\n  pop\n  pop\n  jump\t// out\n    /* \"#utility.yul\":1161:1290   */\ntag_20:\n    /* \"#utility.yul\":1195:1201   */\n  0x00\n    /* \"#utility.yul\":1222:1242   */\n  tag_63\n  tag_12\n  jump\t// in\ntag_63:\n    /* \"#utility.yul\":1212:1242   */\n  swap1\n  pop\n    /* \"#utility.yul\":1251:1284   */\n  tag_64\n    /* \"#utility.yul\":1279:1283   */\n  dup3\n    /* \"#utility.yul\":1271:1277   */\n  dup3\n    /* \"#utility.yul\":1251:1284   */\n  tag_19\n  jump\t// in\ntag_64:\n    /* \"#utility.yul\":1161:1290   */\n  swap2\n  swap1\n  pop\n  jump\t// out\n    /* \"#utility.yul\":1296:1604   */\ntag_21:\n    /* \"#utility.yul\":1358:1362   */\n  0x00\n    /* \"#utility.yul\":1448:1466   */\n  0xffffffffffffffff\n    /* \"#utility.yul\":1440:1446   */\n  dup3\n    /* \"#utility.yul\":1437:1467   */\n  gt\n    /* \"#utility.yul\":1434:1490   */\n  iszero\n  tag_66\n  jumpi\n    /* \"#utility.yul\":1470:1488   */\n  tag_67\n  tag_18\n  jump\t// in\ntag_67:\n    /* \"#utility.yul\":1434:1490   */\ntag_66:\n    /* \"#utility.yul\":1508:1537   */\n  tag_68\n    /* \"#utility.yul\":1530:1536   */\n  dup3\n    /* \"#utility.yul\":1508:1537   */\n  tag_17\n  jump\t// in\ntag_68:\n    /* \"#utility.yul\":1500:1537   */\n  swap1\n  pop\n    /* \"#utility.yul\":1592:1596   */\n  0x20\n    /* \"#utility.yul\":1586:1590   */\n  dup2\n    /* \"#utility.yul\":1582:1597   */\n  add\n    /* \"#utility.yul\":1574:1597   */\n  swap1\n  pop\n    /* \"#utility.yul\":1296:1604   */\n  swap2\n  swap1\n  pop\n  jump\t// out\n    /* \"#utility.yul\":1610:1749   */\ntag_22:\n    /* \"#utility.yul\":1699:1705   */\n  dup3\n    /* \"#utility.yul\":1694:1697   */\n  dup2\n    /* \"#utility.yul\":1689:1692   */\n  dup4\n    /* \"#utility.yul\":1683:1706   */\n  mcopy\n    /* \"#utility.yul\":1740:1741   */\n  0x00\n    /* \"#utility.yul\":1731:1737   */\n  dup4\n    /* \"#utility.yul\":1726:1729   */\n  dup4\n    /* \"#utility.yul\":1722:1738   */\n  add\n    /* \"#utility.yul\":1715:1742   */\n  mstore\n    /* \"#utility.yul\":1610:1749   */\n  pop\n  pop\n  pop\n  jump\t// out\n    /* \"#utility.yul\":1755:2189   */\ntag_23:\n    /* \"#utility.yul\":1844:1849   */\n  0x00\n    /* \"#utility.yul\":1869:1935   */\n  tag_71\n    /* \"#utility.yul\":1885:1934   */\n  tag_72\n    /* \"#utility.yul\":1927:1933   */\n  dup5\n    /* \"#utility.yul\":1885:1934   */\n  tag_21\n  jump\t// in\ntag_72:\n    /* \"#utility.yul\":1869:1935   */\n  tag_20\n  jump\t// in\ntag_71:\n    /* \"#utility.yul\":1860:1935   */\n  swap1\n  pop\n    /* \"#utility.yul\":1958:1964   */\n  dup3\n    /* \"#utility.yul\":1951:1956   */\n  dup2\n    /* \"#utility.yul\":1944:1965   */\n  mstore\n    /* \"#utility.yul\":1996:2000   */\n  0x20\n    /* \"#utility.yul\":1989:1994   */\n  dup2\n    /* \"#utility.yul\":1985:2001   */\n  add\n    /* \"#utility.yul\":2034:2037   */\n  dup5\n    /* \"#utility.yul\":2025:2031   */\n  dup5\n    /* \"#utility.yul\":2020:2023   */\n  dup5\n    /* \"#utility.yul\":2016:2032   */\n  add\n    /* \"#utility.yul\":2013:2038   */\n  gt\n    /* \"#utility.yul\":2010:2122   */\n  iszero\n  tag_73\n  jumpi\n    /* \"#utility.yul\":2041:2120   */\n  tag_74\n  tag_16\n  jump\t// in\ntag_74:\n    /* \"#utility.yul\":2010:2122   */\ntag_73:\n    /* \"#utility.yul\":2131:2183   */\n  tag_75\n    /* \"#utility.yul\":2176:2182   */\n  dup5\n    /* \"#utility.yul\":2171:2174   */\n  dup3\n    /* \"#utility.yul\":2166:2169   */\n  dup6\n    /* \"#utility.yul\":2131:2183   */\n  tag_22\n  jump\t// in\ntag_75:\n    /* \"#utility.yul\":1850:2189   */\n  pop\n    /* \"#utility.yul\":1755:2189   */\n  swap4\n  swap3\n  pop\n  pop\n  pop\n  jump\t// out\n    /* \"#utility.yul\":2209:2564   */\ntag_24:\n    /* \"#utility.yul\":2276:2281   */\n  0x00\n    /* \"#utility.yul\":2325:2328   */\n  dup3\n    /* \"#utility.yul\":2318:2322   */\n  0x1f\n    /* \"#utility.yul\":2310:2316   */\n  dup4\n    /* \"#utility.yul\":2306:2323   */\n  add\n    /* \"#utility.yul\":2302:2329   */\n  slt\n    /* \"#utility.yul\":2292:2414   */\n  tag_77\n  jumpi\n    /* \"#utility.yul\":2333:2412   */\n  tag_78\n  tag_15\n  jump\t// in\ntag_78:\n    /* \"#utility.yul\":2292:2414   */\ntag_77:\n    /* \"#utility.yul\":2443:2449   */\n  dup2\n    /* \"#utility.yul\":2437:2450   */\n  mload\n    /* \"#utility.yul\":2468:2558   */\n  tag_79\n    /* \"#utility.yul\":2554:2557   */\n  dup5\n    /* \"#utility.yul\":2546:2552   */\n  dup3\n    /* \"#utility.yul\":2539:2543   */\n  0x20\n    /* \"#utility.yul\":2531:2537   */\n  dup7\n    /* \"#utility.yul\":2527:2544   */\n  add\n    /* \"#utility.yul\":2468:2558   */\n  tag_23\n  jump\t// in\ntag_79:\n    /* \"#utility.yul\":2459:2558   */\n  swap2\n  pop\n    /* \"#utility.yul\":2282:2564   */\n  pop\n    /* \"#utility.yul\":2209:2564   */\n  swap3\n  swap2\n  pop\n  pop\n  jump\t// out\n    /* \"#utility.yul\":2570:2647   */\ntag_25:\n    /* \"#utility.yul\":2607:2614   */\n  0x00\n    /* \"#utility.yul\":2636:2641   */\n  dup2\n    /* \"#utility.yul\":2625:2641   */\n  swap1\n  pop\n    /* \"#utility.yul\":2570:2647   */\n  swap2\n  swap1\n  pop\n  jump\t// out\n    /* \"#utility.yul\":2653:2775   */\ntag_26:\n    /* \"#utility.yul\":2726:2750   */\n  tag_82\n    /* \"#utility.yul\":2744:2749   */\n  dup2\n    /* \"#utility.yul\":2726:2750   */\n  tag_25\n  jump\t// in\ntag_82:\n    /* \"#utility.yul\":2719:2724   */\n  dup2\n    /* \"#utility.yul\":2716:2751   */\n  eq\n    /* \"#utility.yul\":2706:2769   */\n  tag_83\n  jumpi\n    /* \"#utility.yul\":2765:2766   */\n  0x00\n    /* \"#utility.yul\":2762:2763   */\n  dup1\n    /* \"#utility.yul\":2755:2767   */\n  revert\n    /* \"#utility.yul\":2706:2769   */\ntag_83:\n    /* \"#utility.yul\":2653:2775   */\n  pop\n  jump\t// out\n    /* \"#utility.yul\":2781:2924   */\ntag_27:\n    /* \"#utility.yul\":2838:2843   */\n  0x00\n    /* \"#utility.yul\":2869:2875   */\n  dup2\n    /* \"#utility.yul\":2863:2876   */\n  mload\n    /* \"#utility.yul\":2854:2876   */\n  swap1\n  pop\n    /* \"#utility.yul\":2885:2918   */\n  tag_85\n    /* \"#utility.yul\":2912:2917   */\n  dup2\n    /* \"#utility.yul\":2885:2918   */\n  tag_26\n  jump\t// in\ntag_85:\n    /* \"#utility.yul\":2781:2924   */\n  swap3\n  swap2\n  pop\n  pop\n  jump\t// out\n    /* \"#utility.yul\":2930:3056   */\ntag_28:\n    /* \"#utility.yul\":2967:2974   */\n  0x00\n    /* \"#utility.yul\":3007:3049   */\n  0xffffffffffffffffffffffffffffffffffffffff\n    /* \"#utility.yul\":3000:3005   */\n  dup3\n    /* \"#utility.yul\":2996:3050   */\n  and\n    /* \"#utility.yul\":2985:3050   */\n  swap1\n  pop\n    /* \"#utility.yul\":2930:3056   */\n  swap2\n  swap1\n  pop\n  jump\t// out\n    /* \"#utility.yul\":3062:3158   */\ntag_29:\n    /* \"#utility.yul\":3099:3106   */\n  0x00\n    /* \"#utility.yul\":3128:3152   */\n  tag_88\n    /* \"#utility.yul\":3146:3151   */\n  dup3\n    /* \"#utility.yul\":3128:3152   */\n  tag_28\n  jump\t// in\ntag_88:\n    /* \"#utility.yul\":3117:3152   */\n  swap1\n  pop\n    /* \"#utility.yul\":3062:3158   */\n  swap2\n  swap1\n  pop\n  jump\t// out\n    /* \"#utility.yul\":3164:3286   */\ntag_30:\n    /* \"#utility.yul\":3237:3261   */\n  tag_90\n    /* \"#utility.yul\":3255:3260   */\n  dup2\n    /* \"#utility.yul\":3237:3261   */\n  tag_29\n  jump\t// in\ntag_90:\n    /* \"#utility.yul\":3230:3235   */\n  dup2\n    /* \"#utility.yul\":3227:3262   */\n  eq\n    /* \"#utility.yul\":3217:3280   */\n  tag_91\n  jumpi\n    /* \"#utility.yul\":3276:3277   */\n  0x00\n    /* \"#utility.yul\":3273:3274   */\n  dup1\n    /* \"#utility.yul\":3266:3278   */\n  revert\n    /* \"#utility.yul\":3217:3280   */\ntag_91:\n    /* \"#utility.yul\":3164:3286   */\n  pop\n  jump\t// out\n    /* \"#utility.yul\":3292:3435   */\ntag_31:\n    /* \"#utility.yul\":3349:3354   */\n  0x00\n    /* \"#utility.yul\":3380:3386   */\n  dup2\n    /* \"#utility.yul\":3374:3387   */\n  mload\n    /* \"#utility.yul\":3365:3387   */\n  swap1\n  pop\n    /* \"#utility.yul\":3396:3429   */\n  tag_93\n    /* \"#utility.yul\":3423:3428   */\n  dup2\n    /* \"#utility.yul\":3396:3429   */\n  tag_30\n  jump\t// in\ntag_93:\n    /* \"#utility.yul\":3292:3435   */\n  swap3\n  swap2\n  pop\n  pop\n  jump\t// out\n    /* \"#utility.yul\":3441:5424   */\ntag_3:\n    /* \"#utility.yul\":3605:3611   */\n  0x00\n    /* \"#utility.yul\":3613:3619   */\n  dup1\n    /* \"#utility.yul\":3621:3627   */\n  0x00\n    /* \"#utility.yul\":3629:3635   */\n  dup1\n    /* \"#utility.yul\":3637:3643   */\n  0x00\n    /* \"#utility.yul\":3645:3651   */\n  dup1\n    /* \"#utility.yul\":3653:3659   */\n  0x00\n    /* \"#utility.yul\":3702:3705   */\n  0xe0\n    /* \"#utility.yul\":3690:3699   */\n  dup9\n    /* \"#utility.yul\":3681:3688   */\n  dup11\n    /* \"#utility.yul\":3677:3700   */\n  sub\n    /* \"#utility.yul\":3673:3706   */\n  slt\n    /* \"#utility.yul\":3670:3790   */\n  iszero\n  tag_95\n  jumpi\n    /* \"#utility.yul\":3709:3788   */\n  tag_96\n  tag_13\n  jump\t// in\ntag_96:\n    /* \"#utility.yul\":3670:3790   */\ntag_95:\n    /* \"#utility.yul\":3850:3851   */\n  0x00\n    /* \"#utility.yul\":3839:3848   */\n  dup9\n    /* \"#utility.yul\":3835:3852   */\n  add\n    /* \"#utility.yul\":3829:3853   */\n  mload\n    /* \"#utility.yul\":3880:3898   */\n  0xffffffffffffffff\n    /* \"#utility.yul\":3872:3878   */\n  dup2\n    /* \"#utility.yul\":3869:3899   */\n  gt\n    /* \"#utility.yul\":3866:3983   */\n  iszero\n  tag_97\n  jumpi\n    /* \"#utility.yul\":3902:3981   */\n  tag_98\n  tag_14\n  jump\t// in\ntag_98:\n    /* \"#utility.yul\":3866:3983   */\ntag_97:\n    /* \"#utility.yul\":4007:4081   */\n  tag_99\n    /* \"#utility.yul\":4073:4080   */\n  dup11\n    /* \"#utility.yul\":4064:4070   */\n  dup3\n    /* \"#utility.yul\":4053:4062   */\n  dup12\n    /* \"#utility.yul\":4049:4071   */\n  add\n    /* \"#utility.yul\":4007:4081   */\n  tag_24\n  jump\t// in\ntag_99:\n    /* \"#utility.yul\":3997:4081   */\n  swap8\n  pop\n    /* \"#utility.yul\":3800:4091   */\n  pop\n    /* \"#utility.yul\":4151:4153   */\n  0x20\n    /* \"#utility.yul\":4140:4149   */\n  dup9\n    /* \"#utility.yul\":4136:4154   */\n  add\n    /* \"#utility.yul\":4130:4155   */\n  mload\n    /* \"#utility.yul\":4182:4200   */\n  0xffffffffffffffff\n    /* \"#utility.yul\":4174:4180   */\n  dup2\n    /* \"#utility.yul\":4171:4201   */\n  gt\n    /* \"#utility.yul\":4168:4285   */\n  iszero\n  tag_100\n  jumpi\n    /* \"#utility.yul\":4204:4283   */\n  tag_101\n  tag_14\n  jump\t// in\ntag_101:\n    /* \"#utility.yul\":4168:4285   */\ntag_100:\n    /* \"#utility.yul\":4309:4383   */\n  tag_102\n    /* \"#utility.yul\":4375:4382   */\n  dup11\n    /* \"#utility.yul\":4366:4372   */\n  dup3\n    /* \"#utility.yul\":4355:4364   */\n  dup12\n    /* \"#utility.yul\":4351:4373   */\n  add\n    /* \"#utility.yul\":4309:4383   */\n  tag_24\n  jump\t// in\ntag_102:\n    /* \"#utility.yul\":4299:4383   */\n  swap7\n  pop\n    /* \"#utility.yul\":4101:4393   */\n  pop\n    /* \"#utility.yul\":4453:4455   */\n  0x40\n    /* \"#utility.yul\":4442:4451   */\n  dup9\n    /* \"#utility.yul\":4438:4456   */\n  add\n    /* \"#utility.yul\":4432:4457   */\n  mload\n    /* \"#utility.yul\":4484:4502   */\n  0xffffffffffffffff\n    /* \"#utility.yul\":4476:4482   */\n  dup2\n    /* \"#utility.yul\":4473:4503   */\n  gt\n    /* \"#utility.yul\":4470:4587   */\n  iszero\n  tag_103\n  jumpi\n    /* \"#utility.yul\":4506:4585   */\n  tag_104\n  tag_14\n  jump\t// in\ntag_104:\n    /* \"#utility.yul\":4470:4587   */\ntag_103:\n    /* \"#utility.yul\":4611:4685   */\n  tag_105\n    /* \"#utility.yul\":4677:4684   */\n  dup11\n    /* \"#utility.yul\":4668:4674   */\n  dup3\n    /* \"#utility.yul\":4657:4666   */\n  dup12\n    /* \"#utility.yul\":4653:4675   */\n  add\n    /* \"#utility.yul\":4611:4685   */\n  tag_24\n  jump\t// in\ntag_105:\n    /* \"#utility.yul\":4601:4685   */\n  swap6\n  pop\n    /* \"#utility.yul\":4403:4695   */\n  pop\n    /* \"#utility.yul\":4755:4757   */\n  0x60\n    /* \"#utility.yul\":4744:4753   */\n  dup9\n    /* \"#utility.yul\":4740:4758   */\n  add\n    /* \"#utility.yul\":4734:4759   */\n  mload\n    /* \"#utility.yul\":4786:4804   */\n  0xffffffffffffffff\n    /* \"#utility.yul\":4778:4784   */\n  dup2\n    /* \"#utility.yul\":4775:4805   */\n  gt\n    /* \"#utility.yul\":4772:4889   */\n  iszero\n  tag_106\n  jumpi\n    /* \"#utility.yul\":4808:4887   */\n  tag_107\n  tag_14\n  jump\t// in\ntag_107:\n    /* \"#utility.yul\":4772:4889   */\ntag_106:\n    /* \"#utility.yul\":4913:4987   */\n  tag_108\n    /* \"#utility.yul\":4979:4986   */\n  dup11\n    /* \"#utility.yul\":4970:4976   */\n  dup3\n    /* \"#utility.yul\":4959:4968   */\n  dup12\n    /* \"#utility.yul\":4955:4977   */\n  add\n    /* \"#utility.yul\":4913:4987   */\n  tag_24\n  jump\t// in\ntag_108:\n    /* \"#utility.yul\":4903:4987   */\n  swap5\n  pop\n    /* \"#utility.yul\":4705:4997   */\n  pop\n    /* \"#utility.yul\":5036:5039   */\n  0x80\n    /* \"#utility.yul\":5063:5127   */\n  tag_109\n    /* \"#utility.yul\":5119:5126   */\n  dup11\n    /* \"#utility.yul\":5110:5116   */\n  dup3\n    /* \"#utility.yul\":5099:5108   */\n  dup12\n    /* \"#utility.yul\":5095:5117   */\n  add\n    /* \"#utility.yul\":5063:5127   */\n  tag_27\n  jump\t// in\ntag_109:\n    /* \"#utility.yul\":5053:5127   */\n  swap4\n  pop\n    /* \"#utility.yul\":5007:5137   */\n  pop\n    /* \"#utility.yul\":5176:5179   */\n  0xa0\n    /* \"#utility.yul\":5203:5267   */\n  tag_110\n    /* \"#utility.yul\":5259:5266   */\n  dup11\n    /* \"#utility.yul\":5250:5256   */\n  dup3\n    /* \"#utility.yul\":5239:5248   */\n  dup12\n    /* \"#utility.yul\":5235:5257   */\n  add\n    /* \"#utility.yul\":5203:5267   */\n  tag_31\n  jump\t// in\ntag_110:\n    /* \"#utility.yul\":5193:5267   */\n  swap3\n  pop\n    /* \"#utility.yul\":5147:5277   */\n  pop\n    /* \"#utility.yul\":5316:5319   */\n  0xc0\n    /* \"#utility.yul\":5343:5407   */\n  tag_111\n    /* \"#utility.yul\":5399:5406   */\n  dup11\n    /* \"#utility.yul\":5390:5396   */\n  dup3\n    /* \"#utility.yul\":5379:5388   */\n  dup12\n    /* \"#utility.yul\":5375:5397   */\n  add\n    /* \"#utility.yul\":5343:5407   */\n  tag_31\n  jump\t// in\ntag_111:\n    /* \"#utility.yul\":5333:5407   */\n  swap2\n  pop\n    /* \"#utility.yul\":5287:5417   */\n  pop\n    /* \"#utility.yul\":3441:5424   */\n  swap3\n  swap6\n  swap9\n  swap2\n  swap5\n  swap8\n  pop\n  swap3\n  swap6\n  pop\n  jump\t// out\n    /* \"#utility.yul\":5430:5529   */\ntag_32:\n    /* \"#utility.yul\":5482:5488   */\n  0x00\n    /* \"#utility.yul\":5516:5521   */\n  dup2\n    /* \"#utility.yul\":5510:5522   */\n  mload\n    /* \"#utility.yul\":5500:5522   */\n  swap1\n  pop\n    /* \"#utility.yul\":5430:5529   */\n  swap2\n  swap1\n  pop\n  jump\t// out\n    /* \"#utility.yul\":5535:5715   */\ntag_33:\n    /* \"#utility.yul\":5583:5660   */\n  0x4e487b7100000000000000000000000000000000000000000000000000000000\n    /* \"#utility.yul\":5580:5581   */\n  0x00\n    /* \"#utility.yul\":5573:5661   */\n  mstore\n    /* \"#utility.yul\":5680:5684   */\n  0x22\n    /* \"#utility.yul\":5677:5678   */\n  0x04\n    /* \"#utility.yul\":5670:5685   */\n  mstore\n    /* \"#utility.yul\":5704:5708   */\n  0x24\n    /* \"#utility.yul\":5701:5702   */\n  0x00\n    /* \"#utility.yul\":5694:5709   */\n  revert\n    /* \"#utility.yul\":5721:6041   */\ntag_34:\n    /* \"#utility.yul\":5765:5771   */\n  0x00\n    /* \"#utility.yul\":5802:5803   */\n  0x02\n    /* \"#utility.yul\":5796:5800   */\n  dup3\n    /* \"#utility.yul\":5792:5804   */\n  div\n    /* \"#utility.yul\":5782:5804   */\n  swap1\n  pop\n    /* \"#utility.yul\":5849:5850   */\n  0x01\n    /* \"#utility.yul\":5843:5847   */\n  dup3\n    /* \"#utility.yul\":5839:5851   */\n  and\n    /* \"#utility.yul\":5870:5888   */\n  dup1\n    /* \"#utility.yul\":5860:5941   */\n  tag_115\n  jumpi\n    /* \"#utility.yul\":5926:5930   */\n  0x7f\n    /* \"#utility.yul\":5918:5924   */\n  dup3\n    /* \"#utility.yul\":5914:5931   */\n  and\n    /* \"#utility.yul\":5904:5931   */\n  swap2\n  pop\n    /* \"#utility.yul\":5860:5941   */\ntag_115:\n    /* \"#utility.yul\":5988:5990   */\n  0x20\n    /* \"#utility.yul\":5980:5986   */\n  dup3\n    /* \"#utility.yul\":5977:5991   */\n  lt\n    /* \"#utility.yul\":5957:5975   */\n  dup2\n    /* \"#utility.yul\":5954:5992   */\n  sub\n    /* \"#utility.yul\":5951:6035   */\n  tag_116\n  jumpi\n    /* \"#utility.yul\":6007:6025   */\n  tag_117\n  tag_33\n  jump\t// in\ntag_117:\n    /* \"#utility.yul\":5951:6035   */\ntag_116:\n    /* \"#utility.yul\":5772:6041   */\n  pop\n    /* \"#utility.yul\":5721:6041   */\n  swap2\n  swap1\n  pop\n  jump\t// out\n    /* \"#utility.yul\":6047:6188   */\ntag_35:\n    /* \"#utility.yul\":6096:6100   */\n  0x00\n    /* \"#utility.yul\":6119:6122   */\n  dup2\n    /* \"#utility.yul\":6111:6122   */\n  swap1\n  pop\n    /* \"#utility.yul\":6142:6145   */\n  dup2\n    /* \"#utility.yul\":6139:6140   */\n  0x00\n    /* \"#utility.yul\":6132:6146   */\n  mstore\n    /* \"#utility.yul\":6176:6180   */\n  0x20\n    /* \"#utility.yul\":6173:6174   */\n  0x00\n    /* \"#utility.yul\":6163:6181   */\n  keccak256\n    /* \"#utility.yul\":6155:6181   */\n  swap1\n  pop\n    /* \"#utility.yul\":6047:6188   */\n  swap2\n  swap1\n  pop\n  jump\t// out\n    /* \"#utility.yul\":6194:6287   */\ntag_36:\n    /* \"#utility.yul\":6231:6237   */\n  0x00\n    /* \"#utility.yul\":6278:6280   */\n  0x20\n    /* \"#utility.yul\":6273:6275   */\n  0x1f\n    /* \"#utility.yul\":6266:6271   */\n  dup4\n    /* \"#utility.yul\":6262:6276   */\n  add\n    /* \"#utility.yul\":6258:6281   */\n  div\n    /* \"#utility.yul\":6248:6281   */\n  swap1\n  pop\n    /* \"#utility.yul\":6194:6287   */\n  swap2\n  swap1\n  pop\n  jump\t// out\n    /* \"#utility.yul\":6293:6400   */\ntag_37:\n    /* \"#utility.yul\":6337:6345   */\n  0x00\n    /* \"#utility.yul\":6387:6392   */\n  dup3\n    /* \"#utility.yul\":6381:6385   */\n  dup3\n    /* \"#utility.yul\":6377:6393   */\n  shl\n    /* \"#utility.yul\":6356:6393   */\n  swap1\n  pop\n    /* \"#utility.yul\":6293:6400   */\n  swap3\n  swap2\n  pop\n  pop\n  jump\t// out\n    /* \"#utility.yul\":6406:6799   */\ntag_38:\n    /* \"#utility.yul\":6475:6481   */\n  0x00\n    /* \"#utility.yul\":6525:6526   */\n  0x08\n    /* \"#utility.yul\":6513:6523   */\n  dup4\n    /* \"#utility.yul\":6509:6527   */\n  mul\n    /* \"#utility.yul\":6548:6645   */\n  tag_122\n    /* \"#utility.yul\":6578:6644   */\n  0xffffffffffffffffffffffffffffffffffffffffffffffffffffffffffffffff\n    /* \"#utility.yul\":6567:6576   */\n  dup3\n    /* \"#utility.yul\":6548:6645   */\n  tag_37\n  jump\t// in\ntag_122:\n    /* \"#utility.yul\":6666:6705   */\n  tag_123\n    /* \"#utility.yul\":6696:6704   */\n  dup7\n    /* \"#utility.yul\":6685:6694   */\n  dup4\n    /* \"#utility.yul\":6666:6705   */\n  tag_37\n  jump\t// in\ntag_123:\n    /* \"#utility.yul\":6654:6705   */\n  swap6\n  pop\n    /* \"#utility.yul\":6738:6742   */\n  dup1\n    /* \"#utility.yul\":6734:6743   */\n  not\n    /* \"#utility.yul\":6727:6732   */\n  dup5\n    /* \"#utility.yul\":6723:6744   */\n  and\n    /* \"#utility.yul\":6714:6744   */\n  swap4\n  pop\n    /* \"#utility.yul\":6787:6791   */\n  dup1\n    /* \"#utility.yul\":6777:6785   */\n  dup7\n    /* \"#utility.yul\":6773:6792   */\n  and\n    /* \"#utility.yul\":6766:6771   */\n  dup5\n    /* \"#utility.yul\":6763:6793   */\n  or\n    /* \"#utility.yul\":6753:6793   */\n  swap3\n  pop\n    /* \"#utility.yul\":6482:6799   */\n  pop\n  pop\n    /* \"#utility.yul\":6406:6799   */\n  swap4\n  swap3\n  pop\n  pop\n  pop\n  jump\t// out\n    /* \"#utility.yul\":6805:6865   */\ntag_39:\n    /* \"#utility.yul\":6833:6836   */\n  0x00\n    /* \"#utility.yul\":6854:6859   */\n  dup2\n    /* \"#utility.yul\":6847:6859   */\n  swap1\n  pop\n    /* \"#utility.yul\":6805:6865   */\n  swap2\n  swap1\n  pop\n  jump\t// out\n    /* \"#utility.yul\":6871:7013   */\ntag_40:\n    /* \"#utility.yul\":6921:6930   */\n  0x00\n    /* \"#utility.yul\":6954:7007   */\n  tag_126\n    /* \"#utility.yul\":6972:7006   */\n  tag_127\n    /* \"#utility.yul\":6981:7005   */\n  tag_128\n    /* \"#utility.yul\":6999:7004   */\n  dup5\n    /* \"#utility.yul\":6981:7005   */\n  tag_25\n  jump\t// in\ntag_128:\n    /* \"#utility.yul\":6972:7006   */\n  tag_39\n  jump\t// in\ntag_127:\n    /* \"#utility.yul\":6954:7007   */\n  tag_25\n  jump\t// in\ntag_126:\n    /* \"#utility.yul\":6941:7007   */\n  swap1\n  pop\n    /* \"#utility.yul\":6871:7013   */\n  swap2\n  swap1\n  pop\n  jump\t// out\n    /* \"#utility.yul\":7019:7094   */\ntag_41:\n    /* \"#utility.yul\":7062:7065   */\n  0x00\n    /* \"#utility.yul\":7083:7088   */\n  dup2\n    /* \"#utility.yul\":7076:7088   */\n  swap1\n  pop\n    /* \"#utility.yul\":7019:7094   */\n  swap2\n  swap1\n  pop\n  jump\t// out\n    /* \"#utility.yul\":7100:7369   */\ntag_42:\n    /* \"#utility.yul\":7210:7249   */\n  tag_131\n    /* \"#utility.yul\":7241:7248   */\n  dup4\n    /* \"#utility.yul\":7210:7249   */\n  tag_40\n  jump\t// in\ntag_131:\n    /* \"#utility.yul\":7271:7362   */\n  tag_132\n    /* \"#utility.yul\":7320:7361   */\n  tag_133\n    /* \"#utility.yul\":7344:7360   */\n  dup3\n    /* \"#utility.yul\":7320:7361   */\n  tag_41\n  jump\t// in\ntag_133:\n    /* \"#utility.yul\":7312:7318   */\n  dup5\n    /* \"#utility.yul\":7305:7309   */\n  dup5\n    /* \"#utility.yul\":7299:7310   */\n  sload\n    /* \"#utility.yul\":7271:7362   */\n  tag_38\n  jump\t// in\ntag_132:\n    /* \"#utility.yul\":7265:7269   */\n  dup3\n    /* \"#utility.yul\":7258:7363   */\n  sstore\n    /* \"#utility.yul\":7176:7369   */\n  pop\n    /* \"#utility.yul\":7100:7369   */\n  pop\n  pop\n  pop\n  jump\t// out\n    /* \"#utility.yul\":7375:7448   */\ntag_43:\n    /* \"#utility.yul\":7420:7423   */\n  0x00\n    /* \"#utility.yul\":7375:7448   */\n  swap1\n  jump\t// out\n    /* \"#utility.yul\":7454:7643   */\ntag_44:\n    /* \"#utility.yul\":7531:7563   */\n  tag_136\n  tag_43\n  jump\t// in\ntag_136:\n    /* \"#utility.yul\":7572:7637   */\n  tag_137\n    /* \"#utility.yul\":7630:7636   */\n  dup2\n    /* \"#utility.yul\":7622:7628   */\n  dup5\n    /* \"#utility.yul\":7616:7620   */\n  dup5\n    /* \"#utility.yul\":7572:7637   */\n  tag_42\n  jump\t// in\ntag_137:\n    /* \"#utility.yul\":7507:7643   */\n  pop\n    /* \"#utility.yul\":7454:7643   */\n  pop\n  pop\n  jump\t// out\n    /* \"#utility.yul\":7649:7835   */\ntag_45:\n    /* \"#utility.yul\":7709:7829   */\ntag_139:\n    /* \"#utility.yul\":7726:7729   */\n  dup2\n    /* \"#utility.yul\":7719:7724   */\n  dup2\n    /* \"#utility.yul\":7716:7730   */\n  lt\n    /* \"#utility.yul\":7709:7829   */\n  iszero\n  tag_141\n  jumpi\n    /* \"#utility.yul\":7780:7819   */\n  tag_142\n    /* \"#utility.yul\":7817:7818   */\n  0x00\n    /* \"#utility.yul\":7810:7815   */\n  dup3\n    /* \"#utility.yul\":7780:7819   */\n  tag_44\n  jump\t// in\ntag_142:\n    /* \"#utility.yul\":7753:7754   */\n  0x01\n    /* \"#utility.yul\":7746:7751   */\n  dup2\n    /* \"#utility.yul\":7742:7755   */\n  add\n    /* \"#utility.yul\":7733:7755   */\n  swap1\n  pop\n    /* \"#utility.yul\":7709:7829   */\n  jump(tag_139)\ntag_141:\n    /* \"#utility.yul\":7649:7835   */\n  pop\n  pop\n  jump\t// out\n    /* \"#utility.yul\":7841:8384   */\ntag_46:\n    /* \"#utility.yul\":7942:7944   */\n  0x1f\n    /* \"#utility.yul\":7937:7940   */\n  dup3\n    /* \"#utility.yul\":7934:7945   */\n  gt\n    /* \"#utility.yul\":7931:8377   */\n  iszero\n  tag_144\n  jumpi\n    /* \"#utility.yul\":7976:8014   */\n  tag_145\n    /* \"#utility.yul\":8008:8013   */\n  dup2\n    /* \"#utility.yul\":7976:8014   */\n  tag_35\n  jump\t// in\ntag_145:\n    /* \"#utility.yul\":8060:8089   */\n  tag_146\n    /* \"#utility.yul\":8078:8088   */\n  dup5\n    /* \"#utility.yul\":8060:8089   */\n  tag_36\n  jump\t// in\ntag_146:\n    /* \"#utility.yul\":8050:8058   */\n  dup2\n    /* \"#utility.yul\":8046:8090   */\n  add\n    /* \"#utility.yul\":8243:8245   */\n  0x20\n    /* \"#utility.yul\":8231:8241   */\n  dup6\n    /* \"#utility.yul\":8228:8246   */\n  lt\n    /* \"#utility.yul\":8225:8274   */\n  iszero\n  tag_147\n  jumpi\n    /* \"#utility.yul\":8264:8272   */\n  dup2\n    /* \"#utility.yul\":8249:8272   */\n  swap1\n  pop\n    /* \"#utility.yul\":8225:8274   */\ntag_147:\n    /* \"#utility.yul\":8287:8367   */\n  tag_148\n    /* \"#utility.yul\":8343:8365   */\n  tag_149\n    /* \"#utility.yul\":8361:8364   */\n  dup6\n    /* \"#utility.yul\":8343:8365   */\n  tag_36\n  jump\t// in\ntag_149:\n    /* \"#utility.yul\":8333:8341   */\n  dup4\n    /* \"#utility.yul\":8329:8366   */\n  add\n    /* \"#utility.yul\":8316:8327   */\n  dup3\n    /* \"#utility.yul\":8287:8367   */\n  tag_45\n  jump\t// in\ntag_148:\n    /* \"#utility.yul\":7946:8377   */\n  pop\n  pop\n    /* \"#utility.yul\":7931:8377   */\ntag_144:\n    /* \"#utility.yul\":7841:8384   */\n  pop\n  pop\n  pop\n  jump\t// out\n    /* \"#utility.yul\":8390:8507   */\ntag_47:\n    /* \"#utility.yul\":8444:8452   */\n  0x00\n    /* \"#utility.yul\":8494:8499   */\n  dup3\n    /* \"#utility.yul\":8488:8492   */\n  dup3\n    /* \"#utility.yul\":8484:8500   */\n  shr\n    /* \"#utility.yul\":8463:8500   */\n  swap1\n  pop\n    /* \"#utility.yul\":8390:8507   */\n  swap3\n  swap2\n  pop\n  pop\n  jump\t// out\n    /* \"#utility.yul\":8513:8682   */\ntag_48:\n    /* \"#utility.yul\":8557:8563   */\n  0x00\n    /* \"#utility.yul\":8590:8641   */\n  tag_152\n    /* \"#utility.yul\":8638:8639   */\n  0x00\n    /* \"#utility.yul\":8634:8640   */\n  not\n    /* \"#utility.yul\":8626:8631   */\n  dup5\n    /* \"#utility.yul\":8623:8624   */\n  0x08\n    /* \"#utility.yul\":8619:8632   */\n  mul\n    /* \"#utility.yul\":8590:8641   */\n  tag_47\n  jump\t// in\ntag_152:\n    /* \"#utility.yul\":8586:8642   */\n  not\n    /* \"#utility.yul\":8671:8675   */\n  dup1\n    /* \"#utility.yul\":8665:8669   */\n  dup4\n    /* \"#utility.yul\":8661:8676   */\n  and\n    /* \"#utility.yul\":8651:8676   */\n  swap2\n  pop\n    /* \"#utility.yul\":8564:8682   */\n  pop\n    /* \"#utility.yul\":8513:8682   */\n  swap3\n  swap2\n  pop\n  pop\n  jump\t// out\n    /* \"#utility.yul\":8687:8982   */\ntag_49:\n    /* \"#utility.yul\":8763:8767   */\n  0x00\n    /* \"#utility.yul\":8909:8938   */\n  tag_154\n    /* \"#utility.yul\":8934:8937   */\n  dup4\n    /* \"#utility.yul\":8928:8932   */\n  dup4\n    /* \"#utility.yul\":8909:8938   */\n  tag_48\n  jump\t// in\ntag_154:\n    /* \"#utility.yul\":8901:8938   */\n  swap2\n  pop\n    /* \"#utility.yul\":8971:8974   */\n  dup3\n    /* \"#utility.yul\":8968:8969   */\n  0x02\n    /* \"#utility.yul\":8964:8975   */\n  mul\n    /* \"#utility.yul\":8958:8962   */\n  dup3\n    /* \"#utility.yul\":8955:8976   */\n  or\n    /* \"#utility.yul\":8947:8976   */\n  swap1\n  pop\n    /* \"#utility.yul\":8687:8982   */\n  swap3\n  swap2\n  pop\n  pop\n  jump\t// out\n    /* \"#utility.yul\":8987:10382   */\ntag_7:\n    /* \"#utility.yul\":9104:9141   */\n  tag_156\n    /* \"#utility.yul\":9137:9140   */\n  dup3\n    /* \"#utility.yul\":9104:9141   */\n  tag_32\n  jump\t// in\ntag_156:\n    /* \"#utility.yul\":9206:9224   */\n  0xffffffffffffffff\n    /* \"#utility.yul\":9198:9204   */\n  dup2\n    /* \"#utility.yul\":9195:9225   */\n  gt\n    /* \"#utility.yul\":9192:9248   */\n  iszero\n  tag_157\n  jumpi\n    /* \"#utility.yul\":9228:9246   */\n  tag_158\n  tag_18\n  jump\t// in\ntag_158:\n    /* \"#utility.yul\":9192:9248   */\ntag_157:\n    /* \"#utility.yul\":9272:9310   */\n  tag_159\n    /* \"#utility.yul\":9304:9308   */\n  dup3\n    /* \"#utility.yul\":9298:9309   */\n  sload\n    /* \"#utility.yul\":9272:9310   */\n  tag_34\n  jump\t// in\ntag_159:\n    /* \"#utility.yul\":9357:9424   */\n  tag_160\n    /* \"#utility.yul\":9417:9423   */\n  dup3\n    /* \"#utility.yul\":9409:9415   */\n  dup3\n    /* \"#utility.yul\":9403:9407   */\n  dup6\n    /* \"#utility.yul\":9357:9424   */\n  tag_46\n  jump\t// in\ntag_160:\n    /* \"#utility.yul\":9451:9452   */\n  0x00\n    /* \"#utility.yul\":9475:9479   */\n  0x20\n    /* \"#utility.yul\":9462:9479   */\n  swap1\n  pop\n    /* \"#utility.yul\":9507:9509   */\n  0x1f\n    /* \"#utility.yul\":9499:9505   */\n  dup4\n    /* \"#utility.yul\":9496:9510   */\n  gt\n    /* \"#utility.yul\":9524:9525   */\n  0x01\n    /* \"#utility.yul\":9519:10137   */\n  dup2\n  eq\n  tag_162\n  jumpi\n    /* \"#utility.yul\":10181:10182   */\n  0x00\n    /* \"#utility.yul\":10198:10204   */\n  dup5\n    /* \"#utility.yul\":10195:10272   */\n  iszero\n  tag_163\n  jumpi\n    /* \"#utility.yul\":10247:10256   */\n  dup3\n    /* \"#utility.yul\":10242:10245   */\n  dup8\n    /* \"#utility.yul\":10238:10257   */\n  add\n    /* \"#utility.yul\":10232:10258   */\n  mload\n    /* \"#utility.yul\":10223:10258   */\n  swap1\n  pop\n    /* \"#utility.yul\":10195:10272   */\ntag_163:\n    /* \"#utility.yul\":10298:10365   */\n  tag_164\n    /* \"#utility.yul\":10358:10364   */\n  dup6\n    /* \"#utility.yul\":10351:10356   */\n  dup3\n    /* \"#utility.yul\":10298:10365   */\n  tag_49\n  jump\t// in\ntag_164:\n    /* \"#utility.yul\":10292:10296   */\n  dup7\n    /* \"#utility.yul\":10285:10366   */\n  sstore\n    /* \"#utility.yul\":10154:10376   */\n  pop\n    /* \"#utility.yul\":9489:10376   */\n  jump(tag_161)\n    /* \"#utility.yul\":9519:10137   */\ntag_162:\n    /* \"#utility.yul\":9571:9575   */\n  0x1f\n    /* \"#utility.yul\":9567:9576   */\n  not\n    /* \"#utility.yul\":9559:9565   */\n  dup5\n    /* \"#utility.yul\":9555:9577   */\n  and\n    /* \"#utility.yul\":9605:9642   */\n  tag_165\n    /* \"#utility.yul\":9637:9641   */\n  dup7\n    /* \"#utility.yul\":9605:9642   */\n  tag_35\n  jump\t// in\ntag_165:\n    /* \"#utility.yul\":9664:9665   */\n  0x00\n    /* \"#utility.yul\":9678:9886   */\ntag_166:\n    /* \"#utility.yul\":9692:9699   */\n  dup3\n    /* \"#utility.yul\":9689:9690   */\n  dup2\n    /* \"#utility.yul\":9686:9700   */\n  lt\n    /* \"#utility.yul\":9678:9886   */\n  iszero\n  tag_168\n  jumpi\n    /* \"#utility.yul\":9771:9780   */\n  dup5\n    /* \"#utility.yul\":9766:9769   */\n  dup10\n    /* \"#utility.yul\":9762:9781   */\n  add\n    /* \"#utility.yul\":9756:9782   */\n  mload\n    /* \"#utility.yul\":9748:9754   */\n  dup3\n    /* \"#utility.yul\":9741:9783   */\n  sstore\n    /* \"#utility.yul\":9822:9823   */\n  0x01\n    /* \"#utility.yul\":9814:9820   */\n  dup3\n    /* \"#utility.yul\":9810:9824   */\n  add\n    /* \"#utility.yul\":9800:9824   */\n  swap2\n  pop\n    /* \"#utility.yul\":9869:9871   */\n  0x20\n    /* \"#utility.yul\":9858:9867   */\n  dup6\n    /* \"#utility.yul\":9854:9872   */\n  add\n    /* \"#utility.yul\":9841:9872   */\n  swap5\n  pop\n    /* \"#utility.yul\":9715:9719   */\n  0x20\n    /* \"#utility.yul\":9712:9713   */\n  dup2\n    /* \"#utility.yul\":9708:9720   */\n  add\n    /* \"#utility.yul\":9703:9720   */\n  swap1\n  pop\n    /* \"#utility.yul\":9678:9886   */\n  jump(tag_166)\ntag_168:\n    /* \"#utility.yul\":9914:9920   */\n  dup7\n    /* \"#utility.yul\":9905:9912   */\n  dup4\n    /* \"#utility.yul\":9902:9921   */\n  lt\n    /* \"#utility.yul\":9899:10078   */\n  iszero\n  tag_169\n  jumpi\n    /* \"#utility.yul\":9972:9981   */\n  dup5\n    /* \"#utility.yul\":9967:9970   */\n  dup10\n    /* \"#utility.yul\":9963:9982   */\n  add\n    /* \"#utility.yul\":9957:9983   */\n  mload\n    /* \"#utility.yul\":10015:10063   */\n  tag_170\n    /* \"#utility.yul\":10057:10061   */\n  0x1f\n    /* \"#utility.yul\":10049:10055   */\n  dup10\n    /* \"#utility.yul\":10045:10062   */\n  and\n    /* \"#utility.yul\":10034:10043   */\n  dup3\n    /* \"#utility.yul\":10015:10063   */\n  tag_48\n  jump\t// in\ntag_170:\n    /* \"#utility.yul\":10007:10013   */\n  dup4\n    /* \"#utility.yul\":10000:10064   */\n  sstore\n    /* \"#utility.yul\":9922:10078   */\n  pop\n    /* \"#utility.yul\":9899:10078   */\ntag_169:\n    /* \"#utility.yul\":10124:10125   */\n  0x01\n    /* \"#utility.yul\":10120:10121   */\n  0x02\n    /* \"#utility.yul\":10112:10118   */\n  dup9\n    /* \"#utility.yul\":10108:10122   */\n  mul\n    /* \"#utility.yul\":10104:10126   */\n  add\n    /* \"#utility.yul\":10098:10102   */\n  dup9\n    /* \"#utility.yul\":10091:10127   */\n  sstore\n    /* \"#utility.yul\":9526:10137   */\n  pop\n  pop\n  pop\n    /* \"#utility.yul\":9489:10376   */\ntag_161:\n  pop\n    /* \"#utility.yul\":9079:10382   */\n  pop\n  pop\n  pop\n    /* \"#utility.yul\":8987:10382   */\n  pop\n  pop\n  jump\t// out\n    /* \"DebitCard.sol\":104:1616  contract DebitCard is VaultItem{... */\ntag_11:\n  dataSize(sub_0)\n  dup1\n  dataOffset(sub_0)\n  0x00\n  codecopy\n  0x00\n  return\nstop\n\nsub_0: assembly {\n        /* \"DebitCard.sol\":104:1616  contract DebitCard is VaultItem{... */\n      mstore(0x40, 0x80)\n      callvalue\n      dup1\n      iszero\n      tag_1\n      jumpi\n      0x00\n      dup1\n      revert\n    tag_1:\n      pop\n      jumpi(tag_2, lt(calldatasize, 0x04))\n      shr(0xe0, calldataload(0x00))\n      dup1\n      0x1499c592\n      eq\n      tag_3\n      jumpi\n      dup1\n      0x38cc4831\n      eq\n      tag_4\n      jumpi\n      dup1\n      0x5112f02c\n      eq\n      tag_5\n      jumpi\n      dup1\n      0x80f76021\n      eq\n      tag_6\n      jumpi\n      dup1\n      0xc47f0027\n      eq\n      tag_7\n      jumpi\n      dup1\n      0xefd8af9f\n      eq\n      tag_8\n      jumpi\n    tag_2:\n      0x00\n      dup1\n      revert\n        /* \"DebitCard.sol\":1319:1411  function setParent( address _parent) external  ownerOnly {... */\n    tag_3:\n      tag_9\n      0x04\n      dup1\n      calldatasize\n      sub\n      dup2\n      add\n      swap1\n      tag_10\n      swap2\n      swap1\n      tag_11\n      jump\t// in\n    tag_10:\n      tag_12\n      jump\t// in\n    tag_9:\n      stop\n        /* \"DebitCard.sol\":894:999  function getAddress() external view ownerOnly returns (address) {... */\n    tag_4:\n      tag_13\n      tag_14\n      jump\t// in\n    tag_13:\n      mload(0x40)\n      tag_15\n      swap2\n      swap1\n      tag_16\n      jump\t// in\n    tag_15:\n      mload(0x40)\n      dup1\n      swap2\n      sub\n      swap1\n      return\n        /* \"DebitCard.sol\":1419:1609  function getCard() external view ownerOnly returns (string memory, string memory, string memory, string memory, uint) {... */\n    tag_5:\n      tag_17\n      tag_18\n      jump\t// in\n    tag_17:\n      mload(0x40)\n      tag_19\n      swap6\n      swap5\n      swap4\n      swap3\n      swap2\n      swap1\n      tag_20\n      jump\t// in\n    tag_19:\n      mload(0x40)\n      dup1\n      swap2\n      sub\n      swap1\n      return\n        /* \"DebitCard.sol\":1007:1104  function getParent() external view ownerOnly returns (address) {... */\n    tag_6:\n      tag_21\n      tag_22\n      jump\t// in\n    tag_21:\n      mload(0x40)\n      tag_23\n      swap2\n      swap1\n      tag_16\n      jump\t// in\n    tag_23:\n      mload(0x40)\n      dup1\n      swap2\n      sub\n      swap1\n      return\n        /* \"DebitCard.sol\":1112:1200  function setName(string memory _name) external ownerOnly {... */\n    tag_7:\n      tag_24\n      0x04\n      dup1\n      calldatasize\n      sub\n      dup2\n      add\n      swap1\n      tag_25\n      swap2\n      swap1\n      tag_26\n      jump\t// in\n    tag_25:\n      tag_27\n      jump\t// in\n    tag_24:\n      stop\n        /* \"DebitCard.sol\":1208:1307  function setCardId(string memory _card_id) external ownerOnly {... */\n    tag_8:\n      tag_28\n      0x04\n      dup1\n      calldatasize\n      sub\n      dup2\n      add\n      swap1\n      tag_29\n      swap2\n      swap1\n      tag_26\n      jump\t// in\n    tag_29:\n      tag_30\n      jump\t// in\n    tag_28:\n      stop\n        /* \"DebitCard.sol\":1319:1411  function setParent( address _parent) external  ownerOnly {... */\n    tag_12:\n        /* \"DebitCard.sol\":795:800  owner */\n      0x05\n      0x00\n      swap1\n      sload\n      swap1\n      0x0100\n      exp\n      swap1\n      div\n      0xffffffffffffffffffffffffffffffffffffffff\n      and\n        /* \"DebitCard.sol\":781:800  msg.sender == owner */\n      0xffffffffffffffffffffffffffffffffffffffff\n      and\n        /* \"DebitCard.sol\":781:791  msg.sender */\n      caller\n        /* \"DebitCard.sol\":781:800  msg.sender == owner */\n      0xffffffffffffffffffffffffffffffffffffffff\n      and\n      eq\n        /* \"DebitCard.sol\":781:824  msg.sender == owner || msg.sender == parent */\n      dup1\n      tag_32\n      jumpi\n      pop\n        /* \"DebitCard.sol\":818:824  parent */\n      0x06\n      0x00\n      swap1\n      sload\n      swap1\n      0x0100\n      exp\n      swap1\n      div\n      0xffffffffffffffffffffffffffffffffffffffff\n      and\n        /* \"DebitCard.sol\":804:824  msg.sender == parent */\n      0xffffffffffffffffffffffffffffffffffffffff\n      and\n        /* \"DebitCard.sol\":804:814  msg.sender */\n      caller\n        /* \"DebitCard.sol\":804:824  msg.sender == parent */\n      0xffffffffffffffffffffffffffffffffffffffff\n      and\n      eq\n        /* \"DebitCard.sol\":781:824  msg.sender == owner || msg.sender == parent */\n    tag_32:\n        /* \"DebitCard.sol\":773:866  require(msg.sender == owner || msg.sender == parent, \"Only the owner can call this function\") */\n      tag_33\n      jumpi\n      mload(0x40)\n      0x08c379a000000000000000000000000000000000000000000000000000000000\n      dup2\n      mstore\n      0x04\n      add\n      tag_34\n      swap1\n      tag_35\n      jump\t// in\n    tag_34:\n      mload(0x40)\n      dup1\n      swap2\n      sub\n      swap1\n      revert\n    tag_33:\n        /* \"DebitCard.sol\":1396:1403  _parent */\n      dup1\n        /* \"DebitCard.sol\":1387:1393  parent */\n      0x06\n      0x00\n        /* \"DebitCard.sol\":1387:1403  parent = _parent */\n      0x0100\n      exp\n      dup2\n      sload\n      dup2\n      0xffffffffffffffffffffffffffffffffffffffff\n      mul\n      not\n      and\n      swap1\n      dup4\n      0xffffffffffffffffffffffffffffffffffffffff\n      and\n      mul\n      or\n      swap1\n      sstore\n      pop\n        /* \"DebitCard.sol\":1319:1411  function setParent( address _parent) external  ownerOnly {... */\n      pop\n      jump\t// out\n        /* \"DebitCard.sol\":894:999  function getAddress() external view ownerOnly returns (address) {... */\n    tag_14:\n        /* \"DebitCard.sol\":949:956  address */\n      0x00\n        /* \"DebitCard.sol\":795:800  owner */\n      0x05\n      0x00\n      swap1\n      sload\n      swap1\n      0x0100\n      exp\n      swap1\n      div\n      0xffffffffffffffffffffffffffffffffffffffff\n      and\n        /* \"DebitCard.sol\":781:800  msg.sender == owner */\n      0xffffffffffffffffffffffffffffffffffffffff\n      and\n        /* \"DebitCard.sol\":781:791  msg.sender */\n      caller\n        /* \"DebitCard.sol\":781:800  msg.sender == owner */\n      0xffffffffffffffffffffffffffffffffffffffff\n      and\n      eq\n        /* \"DebitCard.sol\":781:824  msg.sender == owner || msg.sender == parent */\n      dup1\n      tag_38\n      jumpi\n      pop\n        /* \"DebitCard.sol\":818:824  parent */\n      0x06\n      0x00\n      swap1\n      sload\n      swap1\n      0x0100\n      exp\n      swap1\n      div\n      0xffffffffffffffffffffffffffffffffffffffff\n      and\n        /* \"DebitCard.sol\":804:824  msg.sender == parent */\n      0xffffffffffffffffffffffffffffffffffffffff\n      and\n        /* \"DebitCard.sol\":804:814  msg.sender */\n      caller\n        /* \"DebitCard.sol\":804:824  msg.sender == parent */\n      0xffffffffffffffffffffffffffffffffffffffff\n      and\n      eq\n        /* \"DebitCard.sol\":781:824  msg.sender == owner || msg.sender == parent */\n    tag_38:\n        /* \"DebitCard.sol\":773:866  require(msg.sender == owner || msg.sender == parent, \"Only the owner can call this function\") */\n      tag_39\n      jumpi\n      mload(0x40)\n      0x08c379a000000000000000000000000000000000000000000000000000000000\n      dup2\n      mstore\n      0x04\n      add\n      tag_40\n      swap1\n      tag_35\n      jump\t// in\n    tag_40:\n      mload(0x40)\n      dup1\n      swap2\n      sub\n      swap1\n      revert\n    tag_39:\n        /* \"DebitCard.sol\":986:990  this */\n      address\n        /* \"DebitCard.sol\":971:991  return address(this) */\n      swap1\n      pop\n        /* \"DebitCard.sol\":894:999  function getAddress() external view ownerOnly returns (address) {... */\n      swap1\n      jump\t// out\n        /* \"DebitCard.sol\":1419:1609  function getCard() external view ownerOnly returns (string memory, string memory, string memory, string memory, uint) {... */\n    tag_18:\n        /* \"DebitCard.sol\":1471:1484  string memory */\n      0x60\n        /* \"DebitCard.sol\":1486:1499  string memory */\n      dup1\n        /* \"DebitCard.sol\":1501:1514  string memory */\n      0x60\n        /* \"DebitCard.sol\":1516:1529  string memory */\n      dup1\n        /* \"DebitCard.sol\":1531:1535  uint */\n      0x00\n        /* \"DebitCard.sol\":795:800  owner */\n      0x05\n      0x00\n      swap1\n      sload\n      swap1\n      0x0100\n      exp\n      swap1\n      div\n      0xffffffffffffffffffffffffffffffffffffffff\n      and\n        /* \"DebitCard.sol\":781:800  msg.sender == owner */\n      0xffffffffffffffffffffffffffffffffffffffff\n      and\n        /* \"DebitCard.sol\":781:791  msg.sender */\n      caller\n        /* \"DebitCard.sol\":781:800  msg.sender == owner */\n      0xffffffffffffffffffffffffffffffffffffffff\n      and\n      eq\n        /* \"DebitCard.sol\":781:824  msg.sender == owner || msg.sender == parent */\n      dup1\n      tag_43\n      jumpi\n      pop\n        /* \"DebitCard.sol\":818:824  parent */\n      0x06\n      0x00\n      swap1\n      sload\n      swap1\n      0x0100\n      exp\n      swap1\n      div\n      0xffffffffffffffffffffffffffffffffffffffff\n      and\n        /* \"DebitCard.sol\":804:824  msg.sender == parent */\n      0xffffffffffffffffffffffffffffffffffffffff\n      and\n        /* \"DebitCard.sol\":804:814  msg.sender */\n      caller\n        /* \"DebitCard.sol\":804:824  msg.sender == parent */\n      0xffffffffffffffffffffffffffffffffffffffff\n      and\n      eq\n        /* \"DebitCard.sol\":781:824  msg.sender == owner || msg.sender == parent */\n    tag_43:\n        /* \"DebitCard.sol\":773:866  require(msg.sender == owner || msg.sender == parent, \"Only the owner can call this function\") */\n      tag_44\n      jumpi\n      mload(0x40)\n      0x08c379a000000000000000000000000000000000000000000000000000000000\n      dup2\n      mstore\n      0x04\n      add\n      tag_45\n      swap1\n      tag_35\n      jump\t// in\n    tag_45:\n      mload(0x40)\n      dup1\n      swap2\n      sub\n      swap1\n      revert\n    tag_44:\n        /* \"DebitCard.sol\":1557:1561  name */\n      0x00\n        /* \"DebitCard.sol\":1563:1570  card_id */\n      0x01\n        /* \"DebitCard.sol\":1572:1584  name_on_card */\n      0x02\n        /* \"DebitCard.sol\":1586:1595  expire_at */\n      0x03\n        /* \"DebitCard.sol\":1597:1600  cvv */\n      sload(0x04)\n        /* \"DebitCard.sol\":1548:1601  return ( name, card_id, name_on_card, expire_at, cvv) */\n      dup5\n      dup1\n      sload\n      tag_47\n      swap1\n      tag_48\n      jump\t// in\n    tag_47:\n      dup1\n      0x1f\n      add\n      0x20\n      dup1\n      swap2\n      div\n      mul\n      0x20\n      add\n      mload(0x40)\n      swap1\n      dup2\n      add\n      0x40\n      mstore\n      dup1\n      swap3\n      swap2\n      swap1\n      dup2\n      dup2\n      mstore\n      0x20\n      add\n      dup3\n      dup1\n      sload\n      tag_49\n      swap1\n      tag_48\n      jump\t// in\n    tag_49:\n      dup1\n      iszero\n      tag_50\n      jumpi\n      dup1\n      0x1f\n      lt\n      tag_51\n      jumpi\n      0x0100\n      dup1\n      dup4\n      sload\n      div\n      mul\n      dup4\n      mstore\n      swap2\n      0x20\n      add\n      swap2\n      jump(tag_50)\n    tag_51:\n      dup3\n      add\n      swap2\n      swap1\n      0x00\n      mstore\n      keccak256(0x00, 0x20)\n      swap1\n    tag_52:\n      dup2\n      sload\n      dup2\n      mstore\n      swap1\n      0x01\n      add\n      swap1\n      0x20\n      add\n      dup1\n      dup4\n      gt\n      tag_52\n      jumpi\n      dup3\n      swap1\n      sub\n      0x1f\n      and\n      dup3\n      add\n      swap2\n    tag_50:\n      pop\n      pop\n      pop\n      pop\n      pop\n      swap5\n      pop\n      dup4\n      dup1\n      sload\n      tag_53\n      swap1\n      tag_48\n      jump\t// in\n    tag_53:\n      dup1\n      0x1f\n      add\n      0x20\n      dup1\n      swap2\n      div\n      mul\n      0x20\n      add\n      mload(0x40)\n      swap1\n      dup2\n      add\n      0x40\n      mstore\n      dup1\n      swap3\n      swap2\n      swap1\n      dup2\n      dup2\n      mstore\n      0x20\n      add\n      dup3\n      dup1\n      sload\n      tag_54\n      swap1\n      tag_48\n      jump\t// in\n    tag_54:\n      dup1\n      iszero\n      tag_55\n      jumpi\n      dup1\n      0x1f\n      lt\n      tag_56\n      jumpi\n      0x0100\n      dup1\n      dup4\n      sload\n      div\n      mul\n      dup4\n      mstore\n      swap2\n      0x20\n      add\n      swap2\n      jump(tag_55)\n    tag_56:\n      dup3\n      add\n      swap2\n      swap1\n      0x00\n      mstore\n      keccak256(0x00, 0x20)\n      swap1\n    tag_57:\n      dup2\n      sload\n      dup2\n      mstore\n      swap1\n      0x01\n      add\n      swap1\n      0x20\n      add\n      dup1\n      dup4\n      gt\n      tag_57\n      jumpi\n      dup3\n      swap1\n      sub\n      0x1f\n      and\n      dup3\n      add\n      swap2\n    tag_55:\n      pop\n      pop\n      pop\n      pop\n      pop\n      swap4\n      pop\n      dup3\n      dup1\n      sload\n      tag_58\n      swap1\n      tag_48\n      jump\t// in\n    tag_58:\n      dup1\n      0x1f\n      add\n      0x20\n      dup1\n      swap2\n      div\n      mul\n      0x20\n      add\n      mload(0x40)\n      swap1\n      dup2\n      add\n      0x40\n      mstore\n      dup1\n      swap3\n      swap2\n      swap1\n      dup2\n      dup2\n      mstore\n      0x20\n      add\n      dup3\n      dup1\n      sload\n      tag_59\n      swap1\n      tag_48\n      jump\t// in\n    tag_59:\n      dup1\n      iszero\n      tag_60\n      jumpi\n      dup1\n      0x1f\n      lt\n      tag_61\n      jumpi\n      0x0100\n      dup1\n      dup4\n      sload\n      div\n      mul\n      dup4\n      mstore\n      swap2\n      0x20\n      add\n      swap2\n      jump(tag_60)\n    tag_61:\n      dup3\n      add\n      swap2\n      swap1\n      0x00\n      mstore\n      keccak256(0x00, 0x20)\n      swap1\n    tag_62:\n      dup2\n      sload\n      dup2\n      mstore\n      swap1\n      0x01\n      add\n      swap1\n      0x20\n      add\n      dup1\n      dup4\n      gt\n      tag_62\n      jumpi\n      dup3\n      swap1\n      sub\n      0x1f\n      and\n      dup3\n      add\n      swap2\n    tag_60:\n      pop\n      pop\n      pop\n      pop\n      pop\n      swap3\n      pop\n      dup2\n      dup1\n      sload\n      tag_63\n      swap1\n      tag_48\n      jump\t// in\n    tag_63:\n      dup1\n      0x1f\n      add\n      0x20\n      dup1\n      swap2\n      div\n      mul\n      0x20\n      add\n      mload(0x40)\n      swap1\n      dup2\n      add\n      0x40\n      mstore\n      dup1\n      swap3\n      swap2\n      swap1\n      dup2\n      dup2\n      mstore\n      0x20\n      add\n      dup3\n      dup1\n      sload\n      tag_64\n      swap1\n      tag_48\n      jump\t// in\n    tag_64:\n      dup1\n      iszero\n      tag_65\n      jumpi\n      dup1\n      0x1f\n      lt\n      tag_66\n      jumpi\n      0x0100\n      dup1\n      dup4\n      sload\n      div\n      mul\n      dup4\n      mstore\n      swap2\n      0x20\n      add\n      swap2\n      jump(tag_65)\n    tag_66:\n      dup3\n      add\n      swap2\n      swap1\n      0x00\n      mstore\n      keccak256(0x00, 0x20)\n      swap1\n    tag_67:\n      dup2\n      sload\n      dup2\n      mstore\n      swap1\n      0x01\n      add\n      swap1\n      0x20\n      add\n      dup1\n      dup4\n      gt\n      tag_67\n      jumpi\n      dup3\n      swap1\n      sub\n      0x1f\n      and\n      dup3\n      add\n      swap2\n    tag_65:\n      pop\n      pop\n      pop\n      pop\n      pop\n      swap2\n      pop\n      swap5\n      pop\n      swap5\n      pop\n      swap5\n      pop\n      swap5\n      pop\n      swap5\n      pop\n        /* \"DebitCard.sol\":1419:1609  function getCard() external view ownerOnly returns (string memory, string memory, string memory, string memory, uint) {... */\n      swap1\n      swap2\n      swap3\n      swap4\n      swap5\n      jump\t// out\n        /* \"DebitCard.sol\":1007:1104  function getParent() external view ownerOnly returns (address) {... */\n    tag_22:\n        /* \"DebitCard.sol\":1061:1068  address */\n      0x00\n        /* \"DebitCard.sol\":795:800  owner */\n      0x05\n      0x00\n      swap1\n      sload\n      swap1\n      0x0100\n      exp\n      swap1\n      div\n      0xffffffffffffffffffffffffffffffffffffffff\n      and\n        /* \"DebitCard.sol\":781:800  msg.sender == owner */\n      0xffffffffffffffffffffffffffffffffffffffff\n      and\n        /* \"DebitCard.sol\":781:791  msg.sender */\n      caller\n        /* \"DebitCard.sol\":781:800  msg.sender == owner */\n      0xffffffffffffffffffffffffffffffffffffffff\n      and\n      eq\n        /* \"DebitCard.sol\":781:824  msg.sender == owner || msg.sender == parent */\n      dup1\n      tag_69\n      jumpi\n      pop\n        /* \"DebitCard.sol\":818:824  parent */\n      0x06\n      0x00\n      swap1\n      sload\n      swap1\n      0x0100\n      exp\n      swap1\n      div\n      0xffffffffffffffffffffffffffffffffffffffff\n      and\n        /* \"DebitCard.sol\":804:824  msg.sender == parent */\n      0xffffffffffffffffffffffffffffffffffffffff\n      and\n        /* \"DebitCard.sol\":804:814  msg.sender */\n      caller\n        /* \"DebitCard.sol\":804:824  msg.sender == parent */\n      0xffffffffffffffffffffffffffffffffffffffff\n      and\n      eq\n        /* \"DebitCard.sol\":781:824  msg.sender == owner || msg.sender == parent */\n    tag_69:\n        /* \"DebitCard.sol\":773:866  require(msg.sender == owner || msg.sender == parent, \"Only the owner can call this function\") */\n      tag_70\n      jumpi\n      mload(0x40)\n      0x08c379a000000000000000000000000000000000000000000000000000000000\n      dup2\n      mstore\n      0x04\n      add\n      tag_71\n      swap1\n      tag_35\n      jump\t// in\n    tag_71:\n      mload(0x40)\n      dup1\n      swap2\n      sub\n      swap1\n      revert\n    tag_70:\n        /* \"DebitCard.sol\":1090:1096  parent */\n      0x06\n      0x00\n      swap1\n      sload\n      swap1\n      0x0100\n      exp\n      swap1\n      div\n      0xffffffffffffffffffffffffffffffffffffffff\n      and\n        /* \"DebitCard.sol\":1083:1096  return parent */\n      swap1\n      pop\n        /* \"DebitCard.sol\":1007:1104  function getParent() external view ownerOnly returns (address) {... */\n      swap1\n      jump\t// out\n        /* \"DebitCard.sol\":1112:1200  function setName(string memory _name) external ownerOnly {... */\n    tag_27:\n        /* \"DebitCard.sol\":795:800  owner */\n      0x05\n      0x00\n      swap1\n      sload\n      swap1\n      0x0100\n      exp\n      swap1\n      div\n      0xffffffffffffffffffffffffffffffffffffffff\n      and\n        /* \"DebitCard.sol\":781:800  msg.sender == owner */\n      0xffffffffffffffffffffffffffffffffffffffff\n      and\n        /* \"DebitCard.sol\":781:791  msg.sender */\n      caller\n        /* \"DebitCard.sol\":781:800  msg.sender == owner */\n      0xffffffffffffffffffffffffffffffffffffffff\n      and\n      eq\n        /* \"DebitCard.sol\":781:824  msg.sender == owner || msg.sender == parent */\n      dup1\n      tag_74\n      jumpi\n      pop\n        /* \"DebitCard.sol\":818:824  parent */\n      0x06\n      0x00\n      swap1\n      sload\n      swap1\n      0x0100\n      exp\n      swap1\n      div\n      0xffffffffffffffffffffffffffffffffffffffff\n      and\n        /* \"DebitCard.sol\":804:824  msg.sender == parent */\n      0xffffffffffffffffffffffffffffffffffffffff\n      and\n        /* \"DebitCard.sol\":804:814  msg.sender */\n      caller\n        /* \"DebitCard.sol\":804:824  msg.sender == parent */\n      0xffffffffffffffffffffffffffffffffffffffff\n      and\n      eq\n        /* \"DebitCard.sol\":781:824  msg.sender == owner || msg.sender == parent */\n    tag_74:\n        /* \"DebitCard.sol\":773:866  require(msg.sender == owner || msg.sender == parent, \"Only the owner can call this function\") */\n      tag_75\n      jumpi\n      mload(0x40)\n      0x08c379a000000000000000000000000000000000000000000000000000000000\n      dup2\n      mstore\n      0x04\n      add\n      tag_76\n      swap1\n      tag_35\n      jump\t// in\n    tag_76:\n      mload(0x40)\n      dup1\n      swap2\n      sub\n      swap1\n      revert\n    tag_75:\n        /* \"DebitCard.sol\":1187:1192  _name */\n      dup1\n        /* \"DebitCard.sol\":1180:1184  name */\n      0x00\n        /* \"DebitCard.sol\":1180:1192  name = _name */\n      swap1\n      dup2\n      tag_78\n      swap2\n      swap1\n      tag_79\n      jump\t// in\n    tag_78:\n      pop\n        /* \"DebitCard.sol\":1112:1200  function setName(string memory _name) external ownerOnly {... */\n      pop\n      jump\t// out\n        /* \"DebitCard.sol\":1208:1307  function setCardId(string memory _card_id) external ownerOnly {... */\n    tag_30:\n        /* \"DebitCard.sol\":795:800  owner */\n      0x05\n      0x00\n      swap1\n      sload\n      swap1\n      0x0100\n      exp\n      swap1\n      div\n      0xffffffffffffffffffffffffffffffffffffffff\n      and\n        /* \"DebitCard.sol\":781:800  msg.sender == owner */\n      0xffffffffffffffffffffffffffffffffffffffff\n      and\n        /* \"DebitCard.sol\":781:791  msg.sender */\n      caller\n        /* \"DebitCard.sol\":781:800  msg.sender == owner */\n      0xffffffffffffffffffffffffffffffffffffffff\n      and\n      eq\n        /* \"DebitCard.sol\":781:824  msg.sender == owner || msg.sender == parent */\n      dup1\n      tag_81\n      jumpi\n      pop\n        /* \"DebitCard.sol\":818:824  parent */\n      0x06\n      0x00\n      swap1\n      sload\n      swap1\n      0x0100\n      exp\n      swap1\n      div\n      0xffffffffffffffffffffffffffffffffffffffff\n      and\n        /* \"DebitCard.sol\":804:824  msg.sender == parent */\n      0xffffffffffffffffffffffffffffffffffffffff\n      and\n        /* \"DebitCard.sol\":804:814  msg.sender */\n      caller\n        /* \"DebitCard.sol\":804:824  msg.sender == parent */\n      0xffffffffffffffffffffffffffffffffffffffff\n      and\n      eq\n        /* \"DebitCard.sol\":781:824  msg.sender == owner || msg.sender == parent */\n    tag_81:\n        /* \"DebitCard.sol\":773:866  require(msg.sender == owner || msg.sender == parent, \"Only the owner can call this function\") */\n      tag_82\n      jumpi\n      mload(0x40)\n      0x08c379a000000000000000000000000000000000000000000000000000000000\n      dup2\n      mstore\n      0x04\n      add\n      tag_83\n      swap1\n      tag_35\n      jump\t// in\n    tag_83:\n      mload(0x40)\n      dup1\n      swap2\n      sub\n      swap1\n      revert\n    tag_82:\n        /* \"DebitCard.sol\":1291:1299  _card_id */\n      dup1\n        /* \"DebitCard.sol\":1281:1288  card_id */\n      0x01\n        /* \"DebitCard.sol\":1281:1299  card_id = _card_id */\n      swap1\n      dup2\n      tag_85\n      swap2\n      swap1\n      tag_79\n      jump\t// in\n    tag_85:\n      pop\n        /* \"DebitCard.sol\":1208:1307  function setCardId(string memory _card_id) external ownerOnly {... */\n      pop\n      jump\t// out\n        /* \"#utility.yul\":7:82   */\n    tag_86:\n        /* \"#utility.yul\":40:46   */\n      0x00\n        /* \"#utility.yul\":73:75   */\n      0x40\n        /* \"#utility.yul\":67:76   */\n      mload\n        /* \"#utility.yul\":57:76   */\n      swap1\n      pop\n        /* \"#utility.yul\":7:82   */\n      swap1\n      jump\t// out\n        /* \"#utility.yul\":88:205   */\n    tag_87:\n        /* \"#utility.yul\":197:198   */\n      0x00\n        /* \"#utility.yul\":194:195   */\n      dup1\n        /* \"#utility.yul\":187:199   */\n      revert\n        /* \"#utility.yul\":211:328   */\n    tag_88:\n        /* \"#utility.yul\":320:321   */\n      0x00\n        /* \"#utility.yul\":317:318   */\n      dup1\n        /* \"#utility.yul\":310:322   */\n      revert\n        /* \"#utility.yul\":334:460   */\n    tag_89:\n        /* \"#utility.yul\":371:378   */\n      0x00\n        /* \"#utility.yul\":411:453   */\n      0xffffffffffffffffffffffffffffffffffffffff\n        /* \"#utility.yul\":404:409   */\n      dup3\n        /* \"#utility.yul\":400:454   */\n      and\n        /* \"#utility.yul\":389:454   */\n      swap1\n      pop\n        /* \"#utility.yul\":334:460   */\n      swap2\n      swap1\n      pop\n      jump\t// out\n        /* \"#utility.yul\":466:562   */\n    tag_90:\n        /* \"#utility.yul\":503:510   */\n      0x00\n        /* \"#utility.yul\":532:556   */\n      tag_134\n        /* \"#utility.yul\":550:555   */\n      dup3\n        /* \"#utility.yul\":532:556   */\n      tag_89\n      jump\t// in\n    tag_134:\n        /* \"#utility.yul\":521:556   */\n      swap1\n      pop\n        /* \"#utility.yul\":466:562   */\n      swap2\n      swap1\n      pop\n      jump\t// out\n        /* \"#utility.yul\":568:690   */\n    tag_91:\n        /* \"#utility.yul\":641:665   */\n      tag_136\n        /* \"#utility.yul\":659:664   */\n      dup2\n        /* \"#utility.yul\":641:665   */\n      tag_90\n      jump\t// in\n    tag_136:\n        /* \"#utility.yul\":634:639   */\n      dup2\n        /* \"#utility.yul\":631:666   */\n      eq\n        /* \"#utility.yul\":621:684   */\n      tag_137\n      jumpi\n        /* \"#utility.yul\":680:681   */\n      0x00\n        /* \"#utility.yul\":677:678   */\n      dup1\n        /* \"#utility.yul\":670:682   */\n      revert\n        /* \"#utility.yul\":621:684   */\n    tag_137:\n        /* \"#utility.yul\":568:690   */\n      pop\n      jump\t// out\n        /* \"#utility.yul\":696:835   */\n    tag_92:\n        /* \"#utility.yul\":742:747   */\n      0x00\n        /* \"#utility.yul\":780:786   */\n      dup2\n        /* \"#utility.yul\":767:787   */\n      calldataload\n        /* \"#utility.yul\":758:787   */\n      swap1\n      pop\n        /* \"#utility.yul\":796:829   */\n      tag_139\n        /* \"#utility.yul\":823:828   */\n      dup2\n        /* \"#utility.yul\":796:829   */\n      tag_91\n      jump\t// in\n    tag_139:\n        /* \"#utility.yul\":696:835   */\n      swap3\n      swap2\n      pop\n      pop\n      jump\t// out\n        /* \"#utility.yul\":841:1170   */\n    tag_11:\n        /* \"#utility.yul\":900:906   */\n      0x00\n        /* \"#utility.yul\":949:951   */\n      0x20\n        /* \"#utility.yul\":937:946   */\n      dup3\n        /* \"#utility.yul\":928:935   */\n      dup5\n        /* \"#utility.yul\":924:947   */\n      sub\n        /* \"#utility.yul\":920:952   */\n      slt\n        /* \"#utility.yul\":917:1036   */\n      iszero\n      tag_141\n      jumpi\n        /* \"#utility.yul\":955:1034   */\n      tag_142\n      tag_87\n      jump\t// in\n    tag_142:\n        /* \"#utility.yul\":917:1036   */\n    tag_141:\n        /* \"#utility.yul\":1075:1076   */\n      0x00\n        /* \"#utility.yul\":1100:1153   */\n      tag_143\n        /* \"#utility.yul\":1145:1152   */\n      dup5\n        /* \"#utility.yul\":1136:1142   */\n      dup3\n        /* \"#utility.yul\":1125:1134   */\n      dup6\n        /* \"#utility.yul\":1121:1143   */\n      add\n        /* \"#utility.yul\":1100:1153   */\n      tag_92\n      jump\t// in\n    tag_143:\n        /* \"#utility.yul\":1090:1153   */\n      swap2\n      pop\n        /* \"#utility.yul\":1046:1163   */\n      pop\n        /* \"#utility.yul\":841:1170   */\n      swap3\n      swap2\n      pop\n      pop\n      jump\t// out\n        /* \"#utility.yul\":1176:1294   */\n    tag_93:\n        /* \"#utility.yul\":1263:1287   */\n      tag_145\n        /* \"#utility.yul\":1281:1286   */\n      dup2\n        /* \"#utility.yul\":1263:1287   */\n      tag_90\n      jump\t// in\n    tag_145:\n        /* \"#utility.yul\":1258:1261   */\n      dup3\n        /* \"#utility.yul\":1251:1288   */\n      mstore\n        /* \"#utility.yul\":1176:1294   */\n      pop\n      pop\n      jump\t// out\n        /* \"#utility.yul\":1300:1522   */\n    tag_16:\n        /* \"#utility.yul\":1393:1397   */\n      0x00\n        /* \"#utility.yul\":1431:1433   */\n      0x20\n        /* \"#utility.yul\":1420:1429   */\n      dup3\n        /* \"#utility.yul\":1416:1434   */\n      add\n        /* \"#utility.yul\":1408:1434   */\n      swap1\n      pop\n        /* \"#utility.yul\":1444:1515   */\n      tag_147\n        /* \"#utility.yul\":1512:1513   */\n      0x00\n        /* \"#utility.yul\":1501:1510   */\n      dup4\n        /* \"#utility.yul\":1497:1514   */\n      add\n        /* \"#utility.yul\":1488:1494   */\n      dup5\n        /* \"#utility.yul\":1444:1515   */\n      tag_93\n      jump\t// in\n    tag_147:\n        /* \"#utility.yul\":1300:1522   */\n      swap3\n      swap2\n      pop\n      pop\n      jump\t// out\n        /* \"#utility.yul\":1528:1627   */\n    tag_94:\n        /* \"#utility.yul\":1580:1586   */\n      0x00\n        /* \"#utility.yul\":1614:1619   */\n      dup2\n        /* \"#utility.yul\":1608:1620   */\n      mload\n        /* \"#utility.yul\":1598:1620   */\n      swap1\n      pop\n        /* \"#utility.yul\":1528:1627   */\n      swap2\n      swap1\n      pop\n      jump\t// out\n        /* \"#utility.yul\":1633:1802   */\n    tag_95:\n        /* \"#utility.yul\":1717:1728   */\n      0x00\n        /* \"#utility.yul\":1751:1757   */\n      dup3\n        /* \"#utility.yul\":1746:1749   */\n      dup3\n        /* \"#utility.yul\":1739:1758   */\n      mstore\n        /* \"#utility.yul\":1791:1795   */\n      0x20\n        /* \"#utility.yul\":1786:1789   */\n      dup3\n        /* \"#utility.yul\":1782:1796   */\n      add\n        /* \"#utility.yul\":1767:1796   */\n      swap1\n      pop\n        /* \"#utility.yul\":1633:1802   */\n      swap3\n      swap2\n      pop\n      pop\n      jump\t// out\n        /* \"#utility.yul\":1808:1947   */\n    tag_96:\n        /* \"#utility.yul\":1897:1903   */\n      dup3\n        /* \"#utility.yul\":1892:1895   */\n      dup2\n        /* \"#utility.yul\":1887:1890   */\n      dup4\n        /* \"#utility.yul\":1881:1904   */\n      mcopy\n        /* \"#utility.yul\":1938:1939   */\n      0x00\n        /* \"#utility.yul\":1929:1935   */\n      dup4\n        /* \"#utility.yul\":1924:1927   */\n      dup4\n        /* \"#utility.yul\":1920:1936   */\n      add\n        /* \"#utility.yul\":1913:1940   */\n      mstore\n        /* \"#utility.yul\":1808:1947   */\n      pop\n      pop\n      pop\n      jump\t// out\n        /* \"#utility.yul\":1953:2055   */\n    tag_97:\n        /* \"#utility.yul\":1994:2000   */\n      0x00\n        /* \"#utility.yul\":2045:2047   */\n      0x1f\n        /* \"#utility.yul\":2041:2048   */\n      not\n        /* \"#utility.yul\":2036:2038   */\n      0x1f\n        /* \"#utility.yul\":2029:2034   */\n      dup4\n        /* \"#utility.yul\":2025:2039   */\n      add\n        /* \"#utility.yul\":2021:2049   */\n      and\n        /* \"#utility.yul\":2011:2049   */\n      swap1\n      pop\n        /* \"#utility.yul\":1953:2055   */\n      swap2\n      swap1\n      pop\n      jump\t// out\n        /* \"#utility.yul\":2061:2438   */\n    tag_98:\n        /* \"#utility.yul\":2149:2152   */\n      0x00\n        /* \"#utility.yul\":2177:2216   */\n      tag_153\n        /* \"#utility.yul\":2210:2215   */\n      dup3\n        /* \"#utility.yul\":2177:2216   */\n      tag_94\n      jump\t// in\n    tag_153:\n        /* \"#utility.yul\":2232:2303   */\n      tag_154\n        /* \"#utility.yul\":2296:2302   */\n      dup2\n        /* \"#utility.yul\":2291:2294   */\n      dup6\n        /* \"#utility.yul\":2232:2303   */\n      tag_95\n      jump\t// in\n    tag_154:\n        /* \"#utility.yul\":2225:2303   */\n      swap4\n      pop\n        /* \"#utility.yul\":2312:2377   */\n      tag_155\n        /* \"#utility.yul\":2370:2376   */\n      dup2\n        /* \"#utility.yul\":2365:2368   */\n      dup6\n        /* \"#utility.yul\":2358:2362   */\n      0x20\n        /* \"#utility.yul\":2351:2356   */\n      dup7\n        /* \"#utility.yul\":2347:2363   */\n      add\n        /* \"#utility.yul\":2312:2377   */\n      tag_96\n      jump\t// in\n    tag_155:\n        /* \"#utility.yul\":2402:2431   */\n      tag_156\n        /* \"#utility.yul\":2424:2430   */\n      dup2\n        /* \"#utility.yul\":2402:2431   */\n      tag_97\n      jump\t// in\n    tag_156:\n        /* \"#utility.yul\":2397:2400   */\n      dup5\n        /* \"#utility.yul\":2393:2432   */\n      add\n        /* \"#utility.yul\":2386:2432   */\n      swap2\n      pop\n        /* \"#utility.yul\":2153:2438   */\n      pop\n        /* \"#utility.yul\":2061:2438   */\n      swap3\n      swap2\n      pop\n      pop\n      jump\t// out\n        /* \"#utility.yul\":2444:2521   */\n    tag_99:\n        /* \"#utility.yul\":2481:2488   */\n      0x00\n        /* \"#utility.yul\":2510:2515   */\n      dup2\n        /* \"#utility.yul\":2499:2515   */\n      swap1\n      pop\n        /* \"#utility.yul\":2444:2521   */\n      swap2\n      swap1\n      pop\n      jump\t// out\n        /* \"#utility.yul\":2527:2645   */\n    tag_100:\n        /* \"#utility.yul\":2614:2638   */\n      tag_159\n        /* \"#utility.yul\":2632:2637   */\n      dup2\n        /* \"#utility.yul\":2614:2638   */\n      tag_99\n      jump\t// in\n    tag_159:\n        /* \"#utility.yul\":2609:2612   */\n      dup3\n        /* \"#utility.yul\":2602:2639   */\n      mstore\n        /* \"#utility.yul\":2527:2645   */\n      pop\n      pop\n      jump\t// out\n        /* \"#utility.yul\":2651:3679   */\n    tag_20:\n        /* \"#utility.yul\":2936:2940   */\n      0x00\n        /* \"#utility.yul\":2974:2977   */\n      0xa0\n        /* \"#utility.yul\":2963:2972   */\n      dup3\n        /* \"#utility.yul\":2959:2978   */\n      add\n        /* \"#utility.yul\":2951:2978   */\n      swap1\n      pop\n        /* \"#utility.yul\":3024:3033   */\n      dup2\n        /* \"#utility.yul\":3018:3022   */\n      dup2\n        /* \"#utility.yul\":3014:3034   */\n      sub\n        /* \"#utility.yul\":3010:3011   */\n      0x00\n        /* \"#utility.yul\":2999:3008   */\n      dup4\n        /* \"#utility.yul\":2995:3012   */\n      add\n        /* \"#utility.yul\":2988:3035   */\n      mstore\n        /* \"#utility.yul\":3052:3130   */\n      tag_161\n        /* \"#utility.yul\":3125:3129   */\n      dup2\n        /* \"#utility.yul\":3116:3122   */\n      dup9\n        /* \"#utility.yul\":3052:3130   */\n      tag_98\n      jump\t// in\n    tag_161:\n        /* \"#utility.yul\":3044:3130   */\n      swap1\n      pop\n        /* \"#utility.yul\":3177:3186   */\n      dup2\n        /* \"#utility.yul\":3171:3175   */\n      dup2\n        /* \"#utility.yul\":3167:3187   */\n      sub\n        /* \"#utility.yul\":3162:3164   */\n      0x20\n        /* \"#utility.yul\":3151:3160   */\n      dup4\n        /* \"#utility.yul\":3147:3165   */\n      add\n        /* \"#utility.yul\":3140:3188   */\n      mstore\n        /* \"#utility.yul\":3205:3283   */\n      tag_162\n        /* \"#utility.yul\":3278:3282   */\n      dup2\n        /* \"#utility.yul\":3269:3275   */\n      dup8\n        /* \"#utility.yul\":3205:3283   */\n      tag_98\n      jump\t// in\n    tag_162:\n        /* \"#utility.yul\":3197:3283   */\n      swap1\n      pop\n        /* \"#utility.yul\":3330:3339   */\n      dup2\n        /* \"#utility.yul\":3324:3328   */\n      dup2\n        /* \"#utility.yul\":3320:3340   */\n      sub\n        /* \"#utility.yul\":3315:3317   */\n      0x40\n        /* \"#utility.yul\":3304:3313   */\n      dup4\n        /* \"#utility.yul\":3300:3318   */\n      add\n        /* \"#utility.yul\":3293:3341   */\n      mstore\n        /* \"#utility.yul\":3358:3436   */\n      tag_163\n        /* \"#utility.yul\":3431:3435   */\n      dup2\n        /* \"#utility.yul\":3422:3428   */\n      dup7\n        /* \"#utility.yul\":3358:3436   */\n      tag_98\n      jump\t// in\n    tag_163:\n        /* \"#utility.yul\":3350:3436   */\n      swap1\n      pop\n        /* \"#utility.yul\":3483:3492   */\n      dup2\n        /* \"#utility.yul\":3477:3481   */\n      dup2\n        /* \"#utility.yul\":3473:3493   */\n      sub\n        /* \"#utility.yul\":3468:3470   */\n      0x60\n        /* \"#utility.yul\":3457:3466   */\n      dup4\n        /* \"#utility.yul\":3453:3471   */\n      add\n        /* \"#utility.yul\":3446:3494   */\n      mstore\n        /* \"#utility.yul\":3511:3589   */\n      tag_164\n        /* \"#utility.yul\":3584:3588   */\n      dup2\n        /* \"#utility.yul\":3575:3581   */\n      dup6\n        /* \"#utility.yul\":3511:3589   */\n      tag_98\n      jump\t// in\n    tag_164:\n        /* \"#utility.yul\":3503:3589   */\n      swap1\n      pop\n        /* \"#utility.yul\":3599:3672   */\n      tag_165\n        /* \"#utility.yul\":3667:3670   */\n      0x80\n        /* \"#utility.yul\":3656:3665   */\n      dup4\n        /* \"#utility.yul\":3652:3671   */\n      add\n        /* \"#utility.yul\":3643:3649   */\n      dup5\n        /* \"#utility.yul\":3599:3672   */\n      tag_100\n      jump\t// in\n    tag_165:\n        /* \"#utility.yul\":2651:3679   */\n      swap7\n      swap6\n      pop\n      pop\n      pop\n      pop\n      pop\n      pop\n      jump\t// out\n        /* \"#utility.yul\":3685:3802   */\n    tag_101:\n        /* \"#utility.yul\":3794:3795   */\n      0x00\n        /* \"#utility.yul\":3791:3792   */\n      dup1\n        /* \"#utility.yul\":3784:3796   */\n      revert\n        /* \"#utility.yul\":3808:3925   */\n    tag_102:\n        /* \"#utility.yul\":3917:3918   */\n      0x00\n        /* \"#utility.yul\":3914:3915   */\n      dup1\n        /* \"#utility.yul\":3907:3919   */\n      revert\n        /* \"#utility.yul\":3931:4111   */\n    tag_103:\n        /* \"#utility.yul\":3979:4056   */\n      0x4e487b7100000000000000000000000000000000000000000000000000000000\n        /* \"#utility.yul\":3976:3977   */\n      0x00\n        /* \"#utility.yul\":3969:4057   */\n      mstore\n        /* \"#utility.yul\":4076:4080   */\n      0x41\n        /* \"#utility.yul\":4073:4074   */\n      0x04\n        /* \"#utility.yul\":4066:4081   */\n      mstore\n        /* \"#utility.yul\":4100:4104   */\n      0x24\n        /* \"#utility.yul\":4097:4098   */\n      0x00\n        /* \"#utility.yul\":4090:4105   */\n      revert\n        /* \"#utility.yul\":4117:4398   */\n    tag_104:\n        /* \"#utility.yul\":4200:4227   */\n      tag_170\n        /* \"#utility.yul\":4222:4226   */\n      dup3\n        /* \"#utility.yul\":4200:4227   */\n      tag_97\n      jump\t// in\n    tag_170:\n        /* \"#utility.yul\":4192:4198   */\n      dup2\n        /* \"#utility.yul\":4188:4228   */\n      add\n        /* \"#utility.yul\":4330:4336   */\n      dup2\n        /* \"#utility.yul\":4318:4328   */\n      dup2\n        /* \"#utility.yul\":4315:4337   */\n      lt\n        /* \"#utility.yul\":4294:4312   */\n      0xffffffffffffffff\n        /* \"#utility.yul\":4282:4292   */\n      dup3\n        /* \"#utility.yul\":4279:4313   */\n      gt\n        /* \"#utility.yul\":4276:4338   */\n      or\n        /* \"#utility.yul\":4273:4361   */\n      iszero\n      tag_171\n      jumpi\n        /* \"#utility.yul\":4341:4359   */\n      tag_172\n      tag_103\n      jump\t// in\n    tag_172:\n        /* \"#utility.yul\":4273:4361   */\n    tag_171:\n        /* \"#utility.yul\":4381:4391   */\n      dup1\n        /* \"#utility.yul\":4377:4379   */\n      0x40\n        /* \"#utility.yul\":4370:4392   */\n      mstore\n        /* \"#utility.yul\":4160:4398   */\n      pop\n        /* \"#utility.yul\":4117:4398   */\n      pop\n      pop\n      jump\t// out\n        /* \"#utility.yul\":4404:4533   */\n    tag_105:\n        /* \"#utility.yul\":4438:4444   */\n      0x00\n        /* \"#utility.yul\":4465:4485   */\n      tag_174\n      tag_86\n      jump\t// in\n    tag_174:\n        /* \"#utility.yul\":4455:4485   */\n      swap1\n      pop\n        /* \"#utility.yul\":4494:4527   */\n      tag_175\n        /* \"#utility.yul\":4522:4526   */\n      dup3\n        /* \"#utility.yul\":4514:4520   */\n      dup3\n        /* \"#utility.yul\":4494:4527   */\n      tag_104\n      jump\t// in\n    tag_175:\n        /* \"#utility.yul\":4404:4533   */\n      swap2\n      swap1\n      pop\n      jump\t// out\n        /* \"#utility.yul\":4539:4847   */\n    tag_106:\n        /* \"#utility.yul\":4601:4605   */\n      0x00\n        /* \"#utility.yul\":4691:4709   */\n      0xffffffffffffffff\n        /* \"#utility.yul\":4683:4689   */\n      dup3\n        /* \"#utility.yul\":4680:4710   */\n      gt\n        /* \"#utility.yul\":4677:4733   */\n      iszero\n      tag_177\n      jumpi\n        /* \"#utility.yul\":4713:4731   */\n      tag_178\n      tag_103\n      jump\t// in\n    tag_178:\n        /* \"#utility.yul\":4677:4733   */\n    tag_177:\n        /* \"#utility.yul\":4751:4780   */\n      tag_179\n        /* \"#utility.yul\":4773:4779   */\n      dup3\n        /* \"#utility.yul\":4751:4780   */\n      tag_97\n      jump\t// in\n    tag_179:\n        /* \"#utility.yul\":4743:4780   */\n      swap1\n      pop\n        /* \"#utility.yul\":4835:4839   */\n      0x20\n        /* \"#utility.yul\":4829:4833   */\n      dup2\n        /* \"#utility.yul\":4825:4840   */\n      add\n        /* \"#utility.yul\":4817:4840   */\n      swap1\n      pop\n        /* \"#utility.yul\":4539:4847   */\n      swap2\n      swap1\n      pop\n      jump\t// out\n        /* \"#utility.yul\":4853:5001   */\n    tag_107:\n        /* \"#utility.yul\":4951:4957   */\n      dup3\n        /* \"#utility.yul\":4946:4949   */\n      dup2\n        /* \"#utility.yul\":4941:4944   */\n      dup4\n        /* \"#utility.yul\":4928:4958   */\n      calldatacopy\n        /* \"#utility.yul\":4992:4993   */\n      0x00\n        /* \"#utility.yul\":4983:4989   */\n      dup4\n        /* \"#utility.yul\":4978:4981   */\n      dup4\n        /* \"#utility.yul\":4974:4990   */\n      add\n        /* \"#utility.yul\":4967:4994   */\n      mstore\n        /* \"#utility.yul\":4853:5001   */\n      pop\n      pop\n      pop\n      jump\t// out\n        /* \"#utility.yul\":5007:5432   */\n    tag_108:\n        /* \"#utility.yul\":5085:5090   */\n      0x00\n        /* \"#utility.yul\":5110:5176   */\n      tag_182\n        /* \"#utility.yul\":5126:5175   */\n      tag_183\n        /* \"#utility.yul\":5168:5174   */\n      dup5\n        /* \"#utility.yul\":5126:5175   */\n      tag_106\n      jump\t// in\n    tag_183:\n        /* \"#utility.yul\":5110:5176   */\n      tag_105\n      jump\t// in\n    tag_182:\n        /* \"#utility.yul\":5101:5176   */\n      swap1\n      pop\n        /* \"#utility.yul\":5199:5205   */\n      dup3\n        /* \"#utility.yul\":5192:5197   */\n      dup2\n        /* \"#utility.yul\":5185:5206   */\n      mstore\n        /* \"#utility.yul\":5237:5241   */\n      0x20\n        /* \"#utility.yul\":5230:5235   */\n      dup2\n        /* \"#utility.yul\":5226:5242   */\n      add\n        /* \"#utility.yul\":5275:5278   */\n      dup5\n        /* \"#utility.yul\":5266:5272   */\n      dup5\n        /* \"#utility.yul\":5261:5264   */\n      dup5\n        /* \"#utility.yul\":5257:5273   */\n      add\n        /* \"#utility.yul\":5254:5279   */\n      gt\n        /* \"#utility.yul\":5251:5363   */\n      iszero\n      tag_184\n      jumpi\n        /* \"#utility.yul\":5282:5361   */\n      tag_185\n      tag_102\n      jump\t// in\n    tag_185:\n        /* \"#utility.yul\":5251:5363   */\n    tag_184:\n        /* \"#utility.yul\":5372:5426   */\n      tag_186\n        /* \"#utility.yul\":5419:5425   */\n      dup5\n        /* \"#utility.yul\":5414:5417   */\n      dup3\n        /* \"#utility.yul\":5409:5412   */\n      dup6\n        /* \"#utility.yul\":5372:5426   */\n      tag_107\n      jump\t// in\n    tag_186:\n        /* \"#utility.yul\":5091:5432   */\n      pop\n        /* \"#utility.yul\":5007:5432   */\n      swap4\n      swap3\n      pop\n      pop\n      pop\n      jump\t// out\n        /* \"#utility.yul\":5452:5792   */\n    tag_109:\n        /* \"#utility.yul\":5508:5513   */\n      0x00\n        /* \"#utility.yul\":5557:5560   */\n      dup3\n        /* \"#utility.yul\":5550:5554   */\n      0x1f\n        /* \"#utility.yul\":5542:5548   */\n      dup4\n        /* \"#utility.yul\":5538:5555   */\n      add\n        /* \"#utility.yul\":5534:5561   */\n      slt\n        /* \"#utility.yul\":5524:5646   */\n      tag_188\n      jumpi\n        /* \"#utility.yul\":5565:5644   */\n      tag_189\n      tag_101\n      jump\t// in\n    tag_189:\n        /* \"#utility.yul\":5524:5646   */\n    tag_188:\n        /* \"#utility.yul\":5682:5688   */\n      dup2\n        /* \"#utility.yul\":5669:5689   */\n      calldataload\n        /* \"#utility.yul\":5707:5786   */\n      tag_190\n        /* \"#utility.yul\":5782:5785   */\n      dup5\n        /* \"#utility.yul\":5774:5780   */\n      dup3\n        /* \"#utility.yul\":5767:5771   */\n      0x20\n        /* \"#utility.yul\":5759:5765   */\n      dup7\n        /* \"#utility.yul\":5755:5772   */\n      add\n        /* \"#utility.yul\":5707:5786   */\n      tag_108\n      jump\t// in\n    tag_190:\n        /* \"#utility.yul\":5698:5786   */\n      swap2\n      pop\n        /* \"#utility.yul\":5514:5792   */\n      pop\n        /* \"#utility.yul\":5452:5792   */\n      swap3\n      swap2\n      pop\n      pop\n      jump\t// out\n        /* \"#utility.yul\":5798:6307   */\n    tag_26:\n        /* \"#utility.yul\":5867:5873   */\n      0x00\n        /* \"#utility.yul\":5916:5918   */\n      0x20\n        /* \"#utility.yul\":5904:5913   */\n      dup3\n        /* \"#utility.yul\":5895:5902   */\n      dup5\n        /* \"#utility.yul\":5891:5914   */\n      sub\n        /* \"#utility.yul\":5887:5919   */\n      slt\n        /* \"#utility.yul\":5884:6003   */\n      iszero\n      tag_192\n      jumpi\n        /* \"#utility.yul\":5922:6001   */\n      tag_193\n      tag_87\n      jump\t// in\n    tag_193:\n        /* \"#utility.yul\":5884:6003   */\n    tag_192:\n        /* \"#utility.yul\":6070:6071   */\n      0x00\n        /* \"#utility.yul\":6059:6068   */\n      dup3\n        /* \"#utility.yul\":6055:6072   */\n      add\n        /* \"#utility.yul\":6042:6073   */\n      calldataload\n        /* \"#utility.yul\":6100:6118   */\n      0xffffffffffffffff\n        /* \"#utility.yul\":6092:6098   */\n      dup2\n        /* \"#utility.yul\":6089:6119   */\n      gt\n        /* \"#utility.yul\":6086:6203   */\n      iszero\n      tag_194\n      jumpi\n        /* \"#utility.yul\":6122:6201   */\n      tag_195\n      tag_88\n      jump\t// in\n    tag_195:\n        /* \"#utility.yul\":6086:6203   */\n    tag_194:\n        /* \"#utility.yul\":6227:6290   */\n      tag_196\n        /* \"#utility.yul\":6282:6289   */\n      dup5\n        /* \"#utility.yul\":6273:6279   */\n      dup3\n        /* \"#utility.yul\":6262:6271   */\n      dup6\n        /* \"#utility.yul\":6258:6280   */\n      add\n        /* \"#utility.yul\":6227:6290   */\n      tag_109\n      jump\t// in\n    tag_196:\n        /* \"#utility.yul\":6217:6290   */\n      swap2\n      pop\n        /* \"#utility.yul\":6013:6300   */\n      pop\n        /* \"#utility.yul\":5798:6307   */\n      swap3\n      swap2\n      pop\n      pop\n      jump\t// out\n        /* \"#utility.yul\":6313:6537   */\n    tag_110:\n        /* \"#utility.yul\":6453:6487   */\n      0x4f6e6c7920746865206f776e65722063616e2063616c6c20746869732066756e\n        /* \"#utility.yul\":6449:6450   */\n      0x00\n        /* \"#utility.yul\":6441:6447   */\n      dup3\n        /* \"#utility.yul\":6437:6451   */\n      add\n        /* \"#utility.yul\":6430:6488   */\n      mstore\n        /* \"#utility.yul\":6522:6529   */\n      0x6374696f6e000000000000000000000000000000000000000000000000000000\n        /* \"#utility.yul\":6517:6519   */\n      0x20\n        /* \"#utility.yul\":6509:6515   */\n      dup3\n        /* \"#utility.yul\":6505:6520   */\n      add\n        /* \"#utility.yul\":6498:6530   */\n      mstore\n        /* \"#utility.yul\":6313:6537   */\n      pop\n      jump\t// out\n        /* \"#utility.yul\":6543:6909   */\n    tag_111:\n        /* \"#utility.yul\":6685:6688   */\n      0x00\n        /* \"#utility.yul\":6706:6773   */\n      tag_199\n        /* \"#utility.yul\":6770:6772   */\n      0x25\n        /* \"#utility.yul\":6765:6768   */\n      dup4\n        /* \"#utility.yul\":6706:6773   */\n      tag_95\n      jump\t// in\n    tag_199:\n        /* \"#utility.yul\":6699:6773   */\n      swap2\n      pop\n        /* \"#utility.yul\":6782:6875   */\n      tag_200\n        /* \"#utility.yul\":6871:6874   */\n      dup3\n        /* \"#utility.yul\":6782:6875   */\n      tag_110\n      jump\t// in\n    tag_200:\n        /* \"#utility.yul\":6900:6902   */\n      0x40\n        /* \"#utility.yul\":6895:6898   */\n      dup3\n        /* \"#utility.yul\":6891:6903   */\n      add\n        /* \"#utility.yul\":6884:6903   */\n      swap1\n      pop\n        /* \"#utility.yul\":6543:6909   */\n      swap2\n      swap1\n      pop\n      jump\t// out\n        /* \"#utility.yul\":6915:7334   */\n    tag_35:\n        /* \"#utility.yul\":7081:7085   */\n      0x00\n        /* \"#utility.yul\":7119:7121   */\n      0x20\n        /* \"#utility.yul\":7108:7117   */\n      dup3\n        /* \"#utility.yul\":7104:7122   */\n      add\n        /* \"#utility.yul\":7096:7122   */\n      swap1\n      pop\n        /* \"#utility.yul\":7168:7177   */\n      dup2\n        /* \"#utility.yul\":7162:7166   */\n      dup2\n        /* \"#utility.yul\":7158:7178   */\n      sub\n        /* \"#utility.yul\":7154:7155   */\n      0x00\n        /* \"#utility.yul\":7143:7152   */\n      dup4\n        /* \"#utility.yul\":7139:7156   */\n      add\n        /* \"#utility.yul\":7132:7179   */\n      mstore\n        /* \"#utility.yul\":7196:7327   */\n      tag_202\n        /* \"#utility.yul\":7322:7326   */\n      dup2\n        /* \"#utility.yul\":7196:7327   */\n      tag_111\n      jump\t// in\n    tag_202:\n        /* \"#utility.yul\":7188:7327   */\n      swap1\n      pop\n        /* \"#utility.yul\":6915:7334   */\n      swap2\n      swap1\n      pop\n      jump\t// out\n        /* \"#utility.yul\":7340:7520   */\n    tag_112:\n        /* \"#utility.yul\":7388:7465   */\n      0x4e487b7100000000000000000000000000000000000000000000000000000000\n        /* \"#utility.yul\":7385:7386   */\n      0x00\n        /* \"#utility.yul\":7378:7466   */\n      mstore\n        /* \"#utility.yul\":7485:7489   */\n      0x22\n        /* \"#utility.yul\":7482:7483   */\n      0x04\n        /* \"#utility.yul\":7475:7490   */\n      mstore\n        /* \"#utility.yul\":7509:7513   */\n      0x24\n        /* \"#utility.yul\":7506:7507   */\n      0x00\n        /* \"#utility.yul\":7499:7514   */\n      revert\n        /* \"#utility.yul\":7526:7846   */\n    tag_48:\n        /* \"#utility.yul\":7570:7576   */\n      0x00\n        /* \"#utility.yul\":7607:7608   */\n      0x02\n        /* \"#utility.yul\":7601:7605   */\n      dup3\n        /* \"#utility.yul\":7597:7609   */\n      div\n        /* \"#utility.yul\":7587:7609   */\n      swap1\n      pop\n        /* \"#utility.yul\":7654:7655   */\n      0x01\n        /* \"#utility.yul\":7648:7652   */\n      dup3\n        /* \"#utility.yul\":7644:7656   */\n      and\n        /* \"#utility.yul\":7675:7693   */\n      dup1\n        /* \"#utility.yul\":7665:7746   */\n      tag_205\n      jumpi\n        /* \"#utility.yul\":7731:7735   */\n      0x7f\n        /* \"#utility.yul\":7723:7729   */\n      dup3\n        /* \"#utility.yul\":7719:7736   */\n      and\n        /* \"#utility.yul\":7709:7736   */\n      swap2\n      pop\n        /* \"#utility.yul\":7665:7746   */\n    tag_205:\n        /* \"#utility.yul\":7793:7795   */\n      0x20\n        /* \"#utility.yul\":7785:7791   */\n      dup3\n        /* \"#utility.yul\":7782:7796   */\n      lt\n        /* \"#utility.yul\":7762:7780   */\n      dup2\n        /* \"#utility.yul\":7759:7797   */\n      sub\n        /* \"#utility.yul\":7756:7840   */\n      tag_206\n      jumpi\n        /* \"#utility.yul\":7812:7830   */\n      tag_207\n      tag_112\n      jump\t// in\n    tag_207:\n        /* \"#utility.yul\":7756:7840   */\n    tag_206:\n        /* \"#utility.yul\":7577:7846   */\n      pop\n        /* \"#utility.yul\":7526:7846   */\n      swap2\n      swap1\n      pop\n      jump\t// out\n        /* \"#utility.yul\":7852:7993   */\n    tag_113:\n        /* \"#utility.yul\":7901:7905   */\n      0x00\n        /* \"#utility.yul\":7924:7927   */\n      dup2\n        /* \"#utility.yul\":7916:7927   */\n      swap1\n      pop\n        /* \"#utility.yul\":7947:7950   */\n      dup2\n        /* \"#utility.yul\":7944:7945   */\n      0x00\n        /* \"#utility.yul\":7937:7951   */\n      mstore\n        /* \"#utility.yul\":7981:7985   */\n      0x20\n        /* \"#utility.yul\":7978:7979   */\n      0x00\n        /* \"#utility.yul\":7968:7986   */\n      keccak256\n        /* \"#utility.yul\":7960:7986   */\n      swap1\n      pop\n        /* \"#utility.yul\":7852:7993   */\n      swap2\n      swap1\n      pop\n      jump\t// out\n        /* \"#utility.yul\":7999:8092   */\n    tag_114:\n        /* \"#utility.yul\":8036:8042   */\n      0x00\n        /* \"#utility.yul\":8083:8085   */\n      0x20\n        /* \"#utility.yul\":8078:8080   */\n      0x1f\n        /* \"#utility.yul\":8071:8076   */\n      dup4\n        /* \"#utility.yul\":8067:8081   */\n      add\n        /* \"#utility.yul\":8063:8086   */\n      div\n        /* \"#utility.yul\":8053:8086   */\n      swap1\n      pop\n        /* \"#utility.yul\":7999:8092   */\n      swap2\n      swap1\n      pop\n      jump\t// out\n        /* \"#utility.yul\":8098:8205   */\n    tag_115:\n        /* \"#utility.yul\":8142:8150   */\n      0x00\n        /* \"#utility.yul\":8192:8197   */\n      dup3\n        /* \"#utility.yul\":8186:8190   */\n      dup3\n        /* \"#utility.yul\":8182:8198   */\n      shl\n        /* \"#utility.yul\":8161:8198   */\n      swap1\n      pop\n        /* \"#utility.yul\":8098:8205   */\n      swap3\n      swap2\n      pop\n      pop\n      jump\t// out\n        /* \"#utility.yul\":8211:8604   */\n    tag_116:\n        /* \"#utility.yul\":8280:8286   */\n      0x00\n        /* \"#utility.yul\":8330:8331   */\n      0x08\n        /* \"#utility.yul\":8318:8328   */\n      dup4\n        /* \"#utility.yul\":8314:8332   */\n      mul\n        /* \"#utility.yul\":8353:8450   */\n      tag_212\n        /* \"#utility.yul\":8383:8449   */\n      0xffffffffffffffffffffffffffffffffffffffffffffffffffffffffffffffff\n        /* \"#utility.yul\":8372:8381   */\n      dup3\n        /* \"#utility.yul\":8353:8450   */\n      tag_115\n      jump\t// in\n    tag_212:\n        /* \"#utility.yul\":8471:8510   */\n      tag_213\n        /* \"#utility.yul\":8501:8509   */\n      dup7\n        /* \"#utility.yul\":8490:8499   */\n      dup4\n        /* \"#utility.yul\":8471:8510   */\n      tag_115\n      jump\t// in\n    tag_213:\n        /* \"#utility.yul\":8459:8510   */\n      swap6\n      pop\n        /* \"#utility.yul\":8543:8547   */\n      dup1\n        /* \"#utility.yul\":8539:8548   */\n      not\n        /* \"#utility.yul\":8532:8537   */\n      dup5\n        /* \"#utility.yul\":8528:8549   */\n      and\n        /* \"#utility.yul\":8519:8549   */\n      swap4\n      pop\n        /* \"#utility.yul\":8592:8596   */\n      dup1\n        /* \"#utility.yul\":8582:8590   */\n      dup7\n        /* \"#utility.yul\":8578:8597   */\n      and\n        /* \"#utility.yul\":8571:8576   */\n      dup5\n        /* \"#utility.yul\":8568:8598   */\n      or\n        /* \"#utility.yul\":8558:8598   */\n      swap3\n      pop\n        /* \"#utility.yul\":8287:8604   */\n      pop\n      pop\n        /* \"#utility.yul\":8211:8604   */\n      swap4\n      swap3\n      pop\n      pop\n      pop\n      jump\t// out\n        /* \"#utility.yul\":8610:8670   */\n    tag_117:\n        /* \"#utility.yul\":8638:8641   */\n      0x00\n        /* \"#utility.yul\":8659:8664   */\n      dup2\n        /* \"#utility.yul\":8652:8664   */\n      swap1\n      pop\n        /* \"#utility.yul\":8610:8670   */\n      swap2\n      swap1\n      pop\n      jump\t// out\n        /* \"#utility.yul\":8676:8818   */\n    tag_118:\n        /* \"#utility.yul\":8726:8735   */\n      0x00\n        /* \"#utility.yul\":8759:8812   */\n      tag_216\n        /* \"#utility.yul\":8777:8811   */\n      tag_217\n        /* \"#utility.yul\":8786:8810   */\n      tag_218\n        /* \"#utility.yul\":8804:8809   */\n      dup5\n        /* \"#utility.yul\":8786:8810   */\n      tag_99\n      jump\t// in\n    tag_218:\n        /* \"#utility.yul\":8777:8811   */\n      tag_117\n      jump\t// in\n    tag_217:\n        /* \"#utility.yul\":8759:8812   */\n      tag_99\n      jump\t// in\n    tag_216:\n        /* \"#utility.yul\":8746:8812   */\n      swap1\n      pop\n        /* \"#utility.yul\":8676:8818   */\n      swap2\n      swap1\n      pop\n      jump\t// out\n        /* \"#utility.yul\":8824:8899   */\n    tag_119:\n        /* \"#utility.yul\":8867:8870   */\n      0x00\n        /* \"#utility.yul\":8888:8893   */\n      dup2\n        /* \"#utility.yul\":8881:8893   */\n      swap1\n      pop\n        /* \"#utility.yul\":8824:8899   */\n      swap2\n      swap1\n      pop\n      jump\t// out\n        /* \"#utility.yul\":8905:9174   */\n    tag_120:\n        /* \"#utility.yul\":9015:9054   */\n      tag_221\n        /* \"#utility.yul\":9046:9053   */\n      dup4\n        /* \"#utility.yul\":9015:9054   */\n      tag_118\n      jump\t// in\n    tag_221:\n        /* \"#utility.yul\":9076:9167   */\n      tag_222\n        /* \"#utility.yul\":9125:9166   */\n      tag_223\n        /* \"#utility.yul\":9149:9165   */\n      dup3\n        /* \"#utility.yul\":9125:9166   */\n      tag_119\n      jump\t// in\n    tag_223:\n        /* \"#utility.yul\":9117:9123   */\n      dup5\n        /* \"#utility.yul\":9110:9114   */\n      dup5\n        /* \"#utility.yul\":9104:9115   */\n      sload\n        /* \"#utility.yul\":9076:9167   */\n      tag_116\n      jump\t// in\n    tag_222:\n        /* \"#utility.yul\":9070:9074   */\n      dup3\n        /* \"#utility.yul\":9063:9168   */\n      sstore\n        /* \"#utility.yul\":8981:9174   */\n      pop\n        /* \"#utility.yul\":8905:9174   */\n      pop\n      pop\n      pop\n      jump\t// out\n        /* \"#utility.yul\":9180:9253   */\n    tag_121:\n        /* \"#utility.yul\":9225:9228   */\n      0x00\n        /* \"#utility.yul\":9180:9253   */\n      swap1\n      jump\t// out\n        /* \"#utility.yul\":9259:9448   */\n    tag_122:\n        /* \"#utility.yul\":9336:9368   */\n      tag_226\n      tag_121\n      jump\t// in\n    tag_226:\n        /* \"#utility.yul\":9377:9442   */\n      tag_227\n        /* \"#utility.yul\":9435:9441   */\n      dup2\n        /* \"#utility.yul\":9427:9433   */\n      dup5\n        /* \"#utility.yul\":9421:9425   */\n      dup5\n        /* \"#utility.yul\":9377:9442   */\n      tag_120\n      jump\t// in\n    tag_227:\n        /* \"#utility.yul\":9312:9448   */\n      pop\n        /* \"#utility.yul\":9259:9448   */\n      pop\n      pop\n      jump\t// out\n        /* \"#utility.yul\":9454:9640   */\n    tag_123:\n        /* \"#utility.yul\":9514:9634   */\n    tag_229:\n        /* \"#utility.yul\":9531:9534   */\n      dup2\n        /* \"#utility.yul\":9524:9529   */\n      dup2\n        /* \"#utility.yul\":9521:9535   */\n      lt\n        /* \"#utility.yul\":9514:9634   */\n      iszero\n      tag_231\n      jumpi\n        /* \"#utility.yul\":9585:9624   */\n      tag_232\n        /* \"#utility.yul\":9622:9623   */\n      0x00\n        /* \"#utility.yul\":9615:9620   */\n      dup3\n        /* \"#utility.yul\":9585:9624   */\n      tag_122\n      jump\t// in\n    tag_232:\n        /* \"#utility.yul\":9558:9559   */\n      0x01\n        /* \"#utility.yul\":9551:9556   */\n      dup2\n        /* \"#utility.yul\":9547:9560   */\n      add\n        /* \"#utility.yul\":9538:9560   */\n      swap1\n      pop\n        /* \"#utility.yul\":9514:9634   */\n      jump(tag_229)\n    tag_231:\n        /* \"#utility.yul\":9454:9640   */\n      pop\n      pop\n      jump\t// out\n        /* \"#utility.yul\":9646:10189   */\n    tag_124:\n        /* \"#utility.yul\":9747:9749   */\n      0x1f\n        /* \"#utility.yul\":9742:9745   */\n      dup3\n        /* \"#utility.yul\":9739:9750   */\n      gt\n        /* \"#utility.yul\":9736:10182   */\n      iszero\n      tag_234\n      jumpi\n        /* \"#utility.yul\":9781:9819   */\n      tag_235\n        /* \"#utility.yul\":9813:9818   */\n      dup2\n        /* \"#utility.yul\":9781:9819   */\n      tag_113\n      jump\t// in\n    tag_235:\n        /* \"#utility.yul\":9865:9894   */\n      tag_236\n        /* \"#utility.yul\":9883:9893   */\n      dup5\n        /* \"#utility.yul\":9865:9894   */\n      tag_114\n      jump\t// in\n    tag_236:\n        /* \"#utility.yul\":9855:9863   */\n      dup2\n        /* \"#utility.yul\":9851:9895   */\n      add\n        /* \"#utility.yul\":10048:10050   */\n      0x20\n        /* \"#utility.yul\":10036:10046   */\n      dup6\n        /* \"#utility.yul\":10033:10051   */\n      lt\n        /* \"#utility.yul\":10030:10079   */\n      iszero\n      tag_237\n      jumpi\n        /* \"#utility.yul\":10069:10077   */\n      dup2\n        /* \"#utility.yul\":10054:10077   */\n      swap1\n      pop\n        /* \"#utility.yul\":10030:10079   */\n    tag_237:\n        /* \"#utility.yul\":10092:10172   */\n      tag_238\n        /* \"#utility.yul\":10148:10170   */\n      tag_239\n        /* \"#utility.yul\":10166:10169   */\n      dup6\n        /* \"#utility.yul\":10148:10170   */\n      tag_114\n      jump\t// in\n    tag_239:\n        /* \"#utility.yul\":10138:10146   */\n      dup4\n        /* \"#utility.yul\":10134:10171   */\n      add\n        /* \"#utility.yul\":10121:10132   */\n      dup3\n        /* \"#utility.yul\":10092:10172   */\n      tag_123\n      jump\t// in\n    tag_238:\n        /* \"#utility.yul\":9751:10182   */\n      pop\n      pop\n        /* \"#utility.yul\":9736:10182   */\n    tag_234:\n        /* \"#utility.yul\":9646:10189   */\n      pop\n      pop\n      pop\n      jump\t// out\n        /* \"#utility.yul\":10195:10312   */\n    tag_125:\n        /* \"#utility.yul\":10249:10257   */\n      0x00\n        /* \"#utility.yul\":10299:10304   */\n      dup3\n        /* \"#utility.yul\":10293:10297   */\n      dup3\n        /* \"#utility.yul\":10289:10305   */\n      shr\n        /* \"#utility.yul\":10268:10305   */\n      swap1\n      pop\n        /* \"#utility.yul\":10195:10312   */\n      swap3\n      swap2\n      pop\n      pop\n      jump\t// out\n        /* \"#utility.yul\":10318:10487   */\n    tag_126:\n        /* \"#utility.yul\":10362:10368   */\n      0x00\n        /* \"#utility.yul\":10395:10446   */\n      tag_242\n        /* \"#utility.yul\":10443:10444   */\n      0x00\n        /* \"#utility.yul\":10439:10445   */\n      not\n        /* \"#utility.yul\":10431:10436   */\n      dup5\n        /* \"#utility.yul\":10428:10429   */\n      0x08\n        /* \"#utility.yul\":10424:10437   */\n      mul\n        /* \"#utility.yul\":10395:10446   */\n      tag_125\n      jump\t// in\n    tag_242:\n        /* \"#utility.yul\":10391:10447   */\n      not\n        /* \"#utility.yul\":10476:10480   */\n      dup1\n        /* \"#utility.yul\":10470:10474   */\n      dup4\n        /* \"#utility.yul\":10466:10481   */\n      and\n        /* \"#utility.yul\":10456:10481   */\n      swap2\n      pop\n        /* \"#utility.yul\":10369:10487   */\n      pop\n        /* \"#utility.yul\":10318:10487   */\n      swap3\n      swap2\n      pop\n      pop\n      jump\t// out\n        /* \"#utility.yul\":10492:10787   */\n    tag_127:\n        /* \"#utility.yul\":10568:10572   */\n      0x00\n        /* \"#utility.yul\":10714:10743   */\n      tag_244\n        /* \"#utility.yul\":10739:10742   */\n      dup4\n        /* \"#utility.yul\":10733:10737   */\n      dup4\n        /* \"#utility.yul\":10714:10743   */\n      tag_126\n      jump\t// in\n    tag_244:\n        /* \"#utility.yul\":10706:10743   */\n      swap2\n      pop\n        /* \"#utility.yul\":10776:10779   */\n      dup3\n        /* \"#utility.yul\":10773:10774   */\n      0x02\n        /* \"#utility.yul\":10769:10780   */\n      mul\n        /* \"#utility.yul\":10763:10767   */\n      dup3\n        /* \"#utility.yul\":10760:10781   */\n      or\n        /* \"#utility.yul\":10752:10781   */\n      swap1\n      pop\n        /* \"#utility.yul\":10492:10787   */\n      swap3\n      swap2\n      pop\n      pop\n      jump\t// out\n        /* \"#utility.yul\":10792:12187   */\n    tag_79:\n        /* \"#utility.yul\":10909:10946   */\n      tag_246\n        /* \"#utility.yul\":10942:10945   */\n      dup3\n        /* \"#utility.yul\":10909:10946   */\n      tag_94\n      jump\t// in\n    tag_246:\n        /* \"#utility.yul\":11011:11029   */\n      0xffffffffffffffff\n        /* \"#utility.yul\":11003:11009   */\n      dup2\n        /* \"#utility.yul\":11000:11030   */\n      gt\n        /* \"#utility.yul\":10997:11053   */\n      iszero\n      tag_247\n      jumpi\n        /* \"#utility.yul\":11033:11051   */\n      tag_248\n      tag_103\n      jump\t// in\n    tag_248:\n        /* \"#utility.yul\":10997:11053   */\n    tag_247:\n        /* \"#utility.yul\":11077:11115   */\n      tag_249\n        /* \"#utility.yul\":11109:11113   */\n      dup3\n        /* \"#utility.yul\":11103:11114   */\n      sload\n        /* \"#utility.yul\":11077:11115   */\n      tag_48\n      jump\t// in\n    tag_249:\n        /* \"#utility.yul\":11162:11229   */\n      tag_250\n        /* \"#utility.yul\":11222:11228   */\n      dup3\n        /* \"#utility.yul\":11214:11220   */\n      dup3\n        /* \"#utility.yul\":11208:11212   */\n      dup6\n        /* \"#utility.yul\":11162:11229   */\n      tag_124\n      jump\t// in\n    tag_250:\n        /* \"#utility.yul\":11256:11257   */\n      0x00\n        /* \"#utility.yul\":11280:11284   */\n      0x20\n        /* \"#utility.yul\":11267:11284   */\n      swap1\n      pop\n        /* \"#utility.yul\":11312:11314   */\n      0x1f\n        /* \"#utility.yul\":11304:11310   */\n      dup4\n        /* \"#utility.yul\":11301:11315   */\n      gt\n        /* \"#utility.yul\":11329:11330   */\n      0x01\n        /* \"#utility.yul\":11324:11942   */\n      dup2\n      eq\n      tag_252\n      jumpi\n        /* \"#utility.yul\":11986:11987   */\n      0x00\n        /* \"#utility.yul\":12003:12009   */\n      dup5\n        /* \"#utility.yul\":12000:12077   */\n      iszero\n      tag_253\n      jumpi\n        /* \"#utility.yul\":12052:12061   */\n      dup3\n        /* \"#utility.yul\":12047:12050   */\n      dup8\n        /* \"#utility.yul\":12043:12062   */\n      add\n        /* \"#utility.yul\":12037:12063   */\n      mload\n        /* \"#utility.yul\":12028:12063   */\n      swap1\n      pop\n        /* \"#utility.yul\":12000:12077   */\n    tag_253:\n        /* \"#utility.yul\":12103:12170   */\n      tag_254\n        /* \"#utility.yul\":12163:12169   */\n      dup6\n        /* \"#utility.yul\":12156:12161   */\n      dup3\n        /* \"#utility.yul\":12103:12170   */\n      tag_127\n      jump\t// in\n    tag_254:\n        /* \"#utility.yul\":12097:12101   */\n      dup7\n        /* \"#utility.yul\":12090:12171   */\n      sstore\n        /* \"#utility.yul\":11959:12181   */\n      pop\n        /* \"#utility.yul\":11294:12181   */\n      jump(tag_251)\n        /* \"#utility.yul\":11324:11942   */\n    tag_252:\n        /* \"#utility.yul\":11376:11380   */\n      0x1f\n        /* \"#utility.yul\":11372:11381   */\n      not\n        /* \"#utility.yul\":11364:11370   */\n      dup5\n        /* \"#utility.yul\":11360:11382   */\n      and\n        /* \"#utility.yul\":11410:11447   */\n      tag_255\n        /* \"#utility.yul\":11442:11446   */\n      dup7\n        /* \"#utility.yul\":11410:11447   */\n      tag_113\n      jump\t// in\n    tag_255:\n        /* \"#utility.yul\":11469:11470   */\n      0x00\n        /* \"#utility.yul\":11483:11691   */\n    tag_256:\n        /* \"#utility.yul\":11497:11504   */\n      dup3\n        /* \"#utility.yul\":11494:11495   */\n      dup2\n        /* \"#utility.yul\":11491:11505   */\n      lt\n        /* \"#utility.yul\":11483:11691   */\n      iszero\n      tag_258\n      jumpi\n        /* \"#utility.yul\":11576:11585   */\n      dup5\n        /* \"#utility.yul\":11571:11574   */\n      dup10\n        /* \"#utility.yul\":11567:11586   */\n      add\n        /* \"#utility.yul\":11561:11587   */\n      mload\n        /* \"#utility.yul\":11553:11559   */\n      dup3\n        /* \"#utility.yul\":11546:11588   */\n      sstore\n        /* \"#utility.yul\":11627:11628   */\n      0x01\n        /* \"#utility.yul\":11619:11625   */\n      dup3\n        /* \"#utility.yul\":11615:11629   */\n      add\n        /* \"#utility.yul\":11605:11629   */\n      swap2\n      pop\n        /* \"#utility.yul\":11674:11676   */\n      0x20\n        /* \"#utility.yul\":11663:11672   */\n      dup6\n        /* \"#utility.yul\":11659:11677   */\n      add\n        /* \"#utility.yul\":11646:11677   */\n      swap5\n      pop\n        /* \"#utility.yul\":11520:11524   */\n      0x20\n        /* \"#utility.yul\":11517:11518   */\n      dup2\n        /* \"#utility.yul\":11513:11525   */\n      add\n        /* \"#utility.yul\":11508:11525   */\n      swap1\n      pop\n        /* \"#utility.yul\":11483:11691   */\n      jump(tag_256)\n    tag_258:\n        /* \"#utility.yul\":11719:11725   */\n      dup7\n        /* \"#utility.yul\":11710:11717   */\n      dup4\n        /* \"#utility.yul\":11707:11726   */\n      lt\n        /* \"#utility.yul\":11704:11883   */\n      iszero\n      tag_259\n      jumpi\n        /* \"#utility.yul\":11777:11786   */\n      dup5\n        /* \"#utility.yul\":11772:11775   */\n      dup10\n        /* \"#utility.yul\":11768:11787   */\n      add\n        /* \"#utility.yul\":11762:11788   */\n      mload\n        /* \"#utility.yul\":11820:11868   */\n      tag_260\n        /* \"#utility.yul\":11862:11866   */\n      0x1f\n        /* \"#utility.yul\":11854:11860   */\n      dup10\n        /* \"#utility.yul\":11850:11867   */\n      and\n        /* \"#utility.yul\":11839:11848   */\n      dup3\n        /* \"#utility.yul\":11820:11868   */\n      tag_126\n      jump\t// in\n    tag_260:\n        /* \"#utility.yul\":11812:11818   */\n      dup4\n        /* \"#utility.yul\":11805:11869   */\n      sstore\n        /* \"#utility.yul\":11727:11883   */\n      pop\n        /* \"#utility.yul\":11704:11883   */\n    tag_259:\n        /* \"#utility.yul\":11929:11930   */\n      0x01\n        /* \"#utility.yul\":11925:11926   */\n      0x02\n        /* \"#utility.yul\":11917:11923   */\n      dup9\n        /* \"#utility.yul\":11913:11927   */\n      mul\n        /* \"#utility.yul\":11909:11931   */\n      add\n        /* \"#utility.yul\":11903:11907   */\n      dup9\n        /* \"#utility.yul\":11896:11932   */\n      sstore\n        /* \"#utility.yul\":11331:11942   */\n      pop\n      pop\n      pop\n        /* \"#utility.yul\":11294:12181   */\n    tag_251:\n      pop\n        /* \"#utility.yul\":10884:12187   */\n      pop\n      pop\n      pop\n        /* \"#utility.yul\":10792:12187   */\n      pop\n      pop\n      jump\t// out\n\n    auxdata: 0xa26469706673582212205d40096e61330da2fa743dab4415b6330990bbdc6d663506d814d9735ff24db064736f6c634300081a0033\n}\n",
				"bytecode": {
					"linkReferences": {},
					"object": "608060405234801561000f575f80fd5b506040516116d83803806116d8833981810160405281019061003191906102dd565b865f908161003f91906105ee565b50856001908161004f91906105ee565b50846002908161005f91906105ee565b50836003908161006f91906105ee565b50826004819055508160055f6101000a81548173ffffffffffffffffffffffffffffffffffffffff021916908373ffffffffffffffffffffffffffffffffffffffff1602179055508060065f6101000a81548173ffffffffffffffffffffffffffffffffffffffff021916908373ffffffffffffffffffffffffffffffffffffffff160217905550505050505050506106bd565b5f604051905090565b5f80fd5b5f80fd5b5f80fd5b5f80fd5b5f601f19601f8301169050919050565b7f4e487b71000000000000000000000000000000000000000000000000000000005f52604160045260245ffd5b6101628261011c565b810181811067ffffffffffffffff821117156101815761018061012c565b5b80604052505050565b5f610193610103565b905061019f8282610159565b919050565b5f67ffffffffffffffff8211156101be576101bd61012c565b5b6101c78261011c565b9050602081019050919050565b8281835e5f83830152505050565b5f6101f46101ef846101a4565b61018a565b9050828152602081018484840111156102105761020f610118565b5b61021b8482856101d4565b509392505050565b5f82601f83011261023757610236610114565b5b81516102478482602086016101e2565b91505092915050565b5f819050919050565b61026281610250565b811461026c575f80fd5b50565b5f8151905061027d81610259565b92915050565b5f73ffffffffffffffffffffffffffffffffffffffff82169050919050565b5f6102ac82610283565b9050919050565b6102bc816102a2565b81146102c6575f80fd5b50565b5f815190506102d7816102b3565b92915050565b5f805f805f805f60e0888a0312156102f8576102f761010c565b5b5f88015167ffffffffffffffff81111561031557610314610110565b5b6103218a828b01610223565b975050602088015167ffffffffffffffff81111561034257610341610110565b5b61034e8a828b01610223565b965050604088015167ffffffffffffffff81111561036f5761036e610110565b5b61037b8a828b01610223565b955050606088015167ffffffffffffffff81111561039c5761039b610110565b5b6103a88a828b01610223565b94505060806103b98a828b0161026f565b93505060a06103ca8a828b016102c9565b92505060c06103db8a828b016102c9565b91505092959891949750929550565b5f81519050919050565b7f4e487b71000000000000000000000000000000000000000000000000000000005f52602260045260245ffd5b5f600282049050600182168061043857607f821691505b60208210810361044b5761044a6103f4565b5b50919050565b5f819050815f5260205f209050919050565b5f6020601f8301049050919050565b5f82821b905092915050565b5f600883026104ad7fffffffffffffffffffffffffffffffffffffffffffffffffffffffffffffffff82610472565b6104b78683610472565b95508019841693508086168417925050509392505050565b5f819050919050565b5f6104f26104ed6104e884610250565b6104cf565b610250565b9050919050565b5f819050919050565b61050b836104d8565b61051f610517826104f9565b84845461047e565b825550505050565b5f90565b610533610527565b61053e818484610502565b505050565b5b81811015610561576105565f8261052b565b600181019050610544565b5050565b601f8211156105a65761057781610451565b61058084610463565b8101602085101561058f578190505b6105a361059b85610463565b830182610543565b50505b505050565b5f82821c905092915050565b5f6105c65f19846008026105ab565b1980831691505092915050565b5f6105de83836105b7565b9150826002028217905092915050565b6105f7826103ea565b67ffffffffffffffff8111156106105761060f61012c565b5b61061a8254610421565b610625828285610565565b5f60209050601f831160018114610656575f8415610644578287015190505b61064e85826105d3565b8655506106b5565b601f19841661066486610451565b5f5b8281101561068b57848901518255600182019150602085019450602081019050610666565b868310156106a857848901516106a4601f8916826105b7565b8355505b6001600288020188555050505b505050505050565b61100e806106ca5f395ff3fe608060405234801561000f575f80fd5b5060043610610060575f3560e01c80631499c5921461006457806338cc4831146100805780635112f02c1461009e57806380f76021146100c0578063c47f0027146100de578063efd8af9f146100fa575b5f80fd5b61007e600480360381019061007991906109c6565b610116565b005b61008861023f565b6040516100959190610a00565b60405180910390f35b6100a661032c565b6040516100b7959493929190610aa1565b60405180910390f35b6100c861065c565b6040516100d59190610a00565b60405180910390f35b6100f860048036038101906100f39190610c3a565b61076a565b005b610114600480360381019061010f9190610c3a565b610862565b005b60055f9054906101000a900473ffffffffffffffffffffffffffffffffffffffff1673ffffffffffffffffffffffffffffffffffffffff163373ffffffffffffffffffffffffffffffffffffffff1614806101bd575060065f9054906101000a900473ffffffffffffffffffffffffffffffffffffffff1673ffffffffffffffffffffffffffffffffffffffff163373ffffffffffffffffffffffffffffffffffffffff16145b6101fc576040517f08c379a00000000000000000000000000000000000000000000000000000000081526004016101f390610cf1565b60405180910390fd5b8060065f6101000a81548173ffffffffffffffffffffffffffffffffffffffff021916908373ffffffffffffffffffffffffffffffffffffffff16021790555050565b5f60055f9054906101000a900473ffffffffffffffffffffffffffffffffffffffff1673ffffffffffffffffffffffffffffffffffffffff163373ffffffffffffffffffffffffffffffffffffffff1614806102e7575060065f9054906101000a900473ffffffffffffffffffffffffffffffffffffffff1673ffffffffffffffffffffffffffffffffffffffff163373ffffffffffffffffffffffffffffffffffffffff16145b610326576040517f08c379a000000000000000000000000000000000000000000000000000000000815260040161031d90610cf1565b60405180910390fd5b30905090565b6060806060805f60055f9054906101000a900473ffffffffffffffffffffffffffffffffffffffff1673ffffffffffffffffffffffffffffffffffffffff163373ffffffffffffffffffffffffffffffffffffffff1614806103da575060065f9054906101000a900473ffffffffffffffffffffffffffffffffffffffff1673ffffffffffffffffffffffffffffffffffffffff163373ffffffffffffffffffffffffffffffffffffffff16145b610419576040517f08c379a000000000000000000000000000000000000000000000000000000000815260040161041090610cf1565b60405180910390fd5b5f60016002600360045484805461042f90610d3c565b80601f016020809104026020016040519081016040528092919081815260200182805461045b90610d3c565b80156104a65780601f1061047d576101008083540402835291602001916104a6565b820191905f5260205f20905b81548152906001019060200180831161048957829003601f168201915b505050505094508380546104b990610d3c565b80601f01602080910402602001604051908101604052809291908181526020018280546104e590610d3c565b80156105305780601f1061050757610100808354040283529160200191610530565b820191905f5260205f20905b81548152906001019060200180831161051357829003601f168201915b5050505050935082805461054390610d3c565b80601f016020809104026020016040519081016040528092919081815260200182805461056f90610d3c565b80156105ba5780601f10610591576101008083540402835291602001916105ba565b820191905f5260205f20905b81548152906001019060200180831161059d57829003601f168201915b505050505092508180546105cd90610d3c565b80601f01602080910402602001604051908101604052809291908181526020018280546105f990610d3c565b80156106445780601f1061061b57610100808354040283529160200191610644565b820191905f5260205f20905b81548152906001019060200180831161062757829003601f168201915b50505050509150945094509450945094509091929394565b5f60055f9054906101000a900473ffffffffffffffffffffffffffffffffffffffff1673ffffffffffffffffffffffffffffffffffffffff163373ffffffffffffffffffffffffffffffffffffffff161480610704575060065f9054906101000a900473ffffffffffffffffffffffffffffffffffffffff1673ffffffffffffffffffffffffffffffffffffffff163373ffffffffffffffffffffffffffffffffffffffff16145b610743576040517f08c379a000000000000000000000000000000000000000000000000000000000815260040161073a90610cf1565b60405180910390fd5b60065f9054906101000a900473ffffffffffffffffffffffffffffffffffffffff16905090565b60055f9054906101000a900473ffffffffffffffffffffffffffffffffffffffff1673ffffffffffffffffffffffffffffffffffffffff163373ffffffffffffffffffffffffffffffffffffffff161480610811575060065f9054906101000a900473ffffffffffffffffffffffffffffffffffffffff1673ffffffffffffffffffffffffffffffffffffffff163373ffffffffffffffffffffffffffffffffffffffff16145b610850576040517f08c379a000000000000000000000000000000000000000000000000000000000815260040161084790610cf1565b60405180910390fd5b805f908161085e9190610f09565b5050565b60055f9054906101000a900473ffffffffffffffffffffffffffffffffffffffff1673ffffffffffffffffffffffffffffffffffffffff163373ffffffffffffffffffffffffffffffffffffffff161480610909575060065f9054906101000a900473ffffffffffffffffffffffffffffffffffffffff1673ffffffffffffffffffffffffffffffffffffffff163373ffffffffffffffffffffffffffffffffffffffff16145b610948576040517f08c379a000000000000000000000000000000000000000000000000000000000815260040161093f90610cf1565b60405180910390fd5b80600190816109579190610f09565b5050565b5f604051905090565b5f80fd5b5f80fd5b5f73ffffffffffffffffffffffffffffffffffffffff82169050919050565b5f6109958261096c565b9050919050565b6109a58161098b565b81146109af575f80fd5b50565b5f813590506109c08161099c565b92915050565b5f602082840312156109db576109da610964565b5b5f6109e8848285016109b2565b91505092915050565b6109fa8161098b565b82525050565b5f602082019050610a135f8301846109f1565b92915050565b5f81519050919050565b5f82825260208201905092915050565b8281835e5f83830152505050565b5f601f19601f8301169050919050565b5f610a5b82610a19565b610a658185610a23565b9350610a75818560208601610a33565b610a7e81610a41565b840191505092915050565b5f819050919050565b610a9b81610a89565b82525050565b5f60a0820190508181035f830152610ab98188610a51565b90508181036020830152610acd8187610a51565b90508181036040830152610ae18186610a51565b90508181036060830152610af58185610a51565b9050610b046080830184610a92565b9695505050505050565b5f80fd5b5f80fd5b7f4e487b71000000000000000000000000000000000000000000000000000000005f52604160045260245ffd5b610b4c82610a41565b810181811067ffffffffffffffff82111715610b6b57610b6a610b16565b5b80604052505050565b5f610b7d61095b565b9050610b898282610b43565b919050565b5f67ffffffffffffffff821115610ba857610ba7610b16565b5b610bb182610a41565b9050602081019050919050565b828183375f83830152505050565b5f610bde610bd984610b8e565b610b74565b905082815260208101848484011115610bfa57610bf9610b12565b5b610c05848285610bbe565b509392505050565b5f82601f830112610c2157610c20610b0e565b5b8135610c31848260208601610bcc565b91505092915050565b5f60208284031215610c4f57610c4e610964565b5b5f82013567ffffffffffffffff811115610c6c57610c6b610968565b5b610c7884828501610c0d565b91505092915050565b7f4f6e6c7920746865206f776e65722063616e2063616c6c20746869732066756e5f8201527f6374696f6e000000000000000000000000000000000000000000000000000000602082015250565b5f610cdb602583610a23565b9150610ce682610c81565b604082019050919050565b5f6020820190508181035f830152610d0881610ccf565b9050919050565b7f4e487b71000000000000000000000000000000000000000000000000000000005f52602260045260245ffd5b5f6002820490506001821680610d5357607f821691505b602082108103610d6657610d65610d0f565b5b50919050565b5f819050815f5260205f209050919050565b5f6020601f8301049050919050565b5f82821b905092915050565b5f60088302610dc87fffffffffffffffffffffffffffffffffffffffffffffffffffffffffffffffff82610d8d565b610dd28683610d8d565b95508019841693508086168417925050509392505050565b5f819050919050565b5f610e0d610e08610e0384610a89565b610dea565b610a89565b9050919050565b5f819050919050565b610e2683610df3565b610e3a610e3282610e14565b848454610d99565b825550505050565b5f90565b610e4e610e42565b610e59818484610e1d565b505050565b5b81811015610e7c57610e715f82610e46565b600181019050610e5f565b5050565b601f821115610ec157610e9281610d6c565b610e9b84610d7e565b81016020851015610eaa578190505b610ebe610eb685610d7e565b830182610e5e565b50505b505050565b5f82821c905092915050565b5f610ee15f1984600802610ec6565b1980831691505092915050565b5f610ef98383610ed2565b9150826002028217905092915050565b610f1282610a19565b67ffffffffffffffff811115610f2b57610f2a610b16565b5b610f358254610d3c565b610f40828285610e80565b5f60209050601f831160018114610f71575f8415610f5f578287015190505b610f698582610eee565b865550610fd0565b601f198416610f7f86610d6c565b5f5b82811015610fa657848901518255600182019150602085019450602081019050610f81565b86831015610fc35784890151610fbf601f891682610ed2565b8355505b6001600288020188555050505b50505050505056fea26469706673582212205d40096e61330da2fa743dab4415b6330990bbdc6d663506d814d9735ff24db064736f6c634300081a0033",
					"opcodes": "PUSH1 0x80 PUSH1 0x40 MSTORE CALLVALUE DUP1 ISZERO PUSH2 0xF JUMPI PUSH0 DUP1 REVERT JUMPDEST POP PUSH1 0x40 MLOAD PUSH2 0x16D8 CODESIZE SUB DUP1 PUSH2 0x16D8 DUP4 CODECOPY DUP2 DUP2 ADD PUSH1 0x40 MSTORE DUP2 ADD SWAP1 PUSH2 0x31 SWAP2 SWAP1 PUSH2 0x2DD JUMP JUMPDEST DUP7 PUSH0 SWAP1 DUP2 PUSH2 0x3F SWAP2 SWAP1 PUSH2 0x5EE JUMP JUMPDEST POP DUP6 PUSH1 0x1 SWAP1 DUP2 PUSH2 0x4F SWAP2 SWAP1 PUSH2 0x5EE JUMP JUMPDEST POP DUP5 PUSH1 0x2 SWAP1 DUP2 PUSH2 0x5F SWAP2 SWAP1 PUSH2 0x5EE JUMP JUMPDEST POP DUP4 PUSH1 0x3 SWAP1 DUP2 PUSH2 0x6F SWAP2 SWAP1 PUSH2 0x5EE JUMP JUMPDEST POP DUP3 PUSH1 0x4 DUP2 SWAP1 SSTORE POP DUP2 PUSH1 0x5 PUSH0 PUSH2 0x100 EXP DUP2 SLOAD DUP2 PUSH20 0xFFFFFFFFFFFFFFFFFFFFFFFFFFFFFFFFFFFFFFFF MUL NOT AND SWAP1 DUP4 PUSH20 0xFFFFFFFFFFFFFFFFFFFFFFFFFFFFFFFFFFFFFFFF AND MUL OR SWAP1 SSTORE POP DUP1 PUSH1 0x6 PUSH0 PUSH2 0x100 EXP DUP2 SLOAD DUP2 PUSH20 0xFFFFFFFFFFFFFFFFFFFFFFFFFFFFFFFFFFFFFFFF MUL NOT AND SWAP1 DUP4 PUSH20 0xFFFFFFFFFFFFFFFFFFFFFFFFFFFFFFFFFFFFFFFF AND MUL OR SWAP1 SSTORE POP POP POP POP POP POP POP POP PUSH2 0x6BD JUMP JUMPDEST PUSH0 PUSH1 0x40 MLOAD SWAP1 POP SWAP1 JUMP JUMPDEST PUSH0 DUP1 REVERT JUMPDEST PUSH0 DUP1 REVERT JUMPDEST PUSH0 DUP1 REVERT JUMPDEST PUSH0 DUP1 REVERT JUMPDEST PUSH0 PUSH1 0x1F NOT PUSH1 0x1F DUP4 ADD AND SWAP1 POP SWAP2 SWAP1 POP JUMP JUMPDEST PUSH32 0x4E487B7100000000000000000000000000000000000000000000000000000000 PUSH0 MSTORE PUSH1 0x41 PUSH1 0x4 MSTORE PUSH1 0x24 PUSH0 REVERT JUMPDEST PUSH2 0x162 DUP3 PUSH2 0x11C JUMP JUMPDEST DUP2 ADD DUP2 DUP2 LT PUSH8 0xFFFFFFFFFFFFFFFF DUP3 GT OR ISZERO PUSH2 0x181 JUMPI PUSH2 0x180 PUSH2 0x12C JUMP JUMPDEST JUMPDEST DUP1 PUSH1 0x40 MSTORE POP POP POP JUMP JUMPDEST PUSH0 PUSH2 0x193 PUSH2 0x103 JUMP JUMPDEST SWAP1 POP PUSH2 0x19F DUP3 DUP3 PUSH2 0x159 JUMP JUMPDEST SWAP2 SWAP1 POP JUMP JUMPDEST PUSH0 PUSH8 0xFFFFFFFFFFFFFFFF DUP3 GT ISZERO PUSH2 0x1BE JUMPI PUSH2 0x1BD PUSH2 0x12C JUMP JUMPDEST JUMPDEST PUSH2 0x1C7 DUP3 PUSH2 0x11C JUMP JUMPDEST SWAP1 POP PUSH1 0x20 DUP2 ADD SWAP1 POP SWAP2 SWAP1 POP JUMP JUMPDEST DUP3 DUP2 DUP4 MCOPY PUSH0 DUP4 DUP4 ADD MSTORE POP POP POP JUMP JUMPDEST PUSH0 PUSH2 0x1F4 PUSH2 0x1EF DUP5 PUSH2 0x1A4 JUMP JUMPDEST PUSH2 0x18A JUMP JUMPDEST SWAP1 POP DUP3 DUP2 MSTORE PUSH1 0x20 DUP2 ADD DUP5 DUP5 DUP5 ADD GT ISZERO PUSH2 0x210 JUMPI PUSH2 0x20F PUSH2 0x118 JUMP JUMPDEST JUMPDEST PUSH2 0x21B DUP5 DUP3 DUP6 PUSH2 0x1D4 JUMP JUMPDEST POP SWAP4 SWAP3 POP POP POP JUMP JUMPDEST PUSH0 DUP3 PUSH1 0x1F DUP4 ADD SLT PUSH2 0x237 JUMPI PUSH2 0x236 PUSH2 0x114 JUMP JUMPDEST JUMPDEST DUP2 MLOAD PUSH2 0x247 DUP5 DUP3 PUSH1 0x20 DUP7 ADD PUSH2 0x1E2 JUMP JUMPDEST SWAP2 POP POP SWAP3 SWAP2 POP POP JUMP JUMPDEST PUSH0 DUP2 SWAP1 POP SWAP2 SWAP1 POP JUMP JUMPDEST PUSH2 0x262 DUP2 PUSH2 0x250 JUMP JUMPDEST DUP2 EQ PUSH2 0x26C JUMPI PUSH0 DUP1 REVERT JUMPDEST POP JUMP JUMPDEST PUSH0 DUP2 MLOAD SWAP1 POP PUSH2 0x27D DUP2 PUSH2 0x259 JUMP JUMPDEST SWAP3 SWAP2 POP POP JUMP JUMPDEST PUSH0 PUSH20 0xFFFFFFFFFFFFFFFFFFFFFFFFFFFFFFFFFFFFFFFF DUP3 AND SWAP1 POP SWAP2 SWAP1 POP JUMP JUMPDEST PUSH0 PUSH2 0x2AC DUP3 PUSH2 0x283 JUMP JUMPDEST SWAP1 POP SWAP2 SWAP1 POP JUMP JUMPDEST PUSH2 0x2BC DUP2 PUSH2 0x2A2 JUMP JUMPDEST DUP2 EQ PUSH2 0x2C6 JUMPI PUSH0 DUP1 REVERT JUMPDEST POP JUMP JUMPDEST PUSH0 DUP2 MLOAD SWAP1 POP PUSH2 0x2D7 DUP2 PUSH2 0x2B3 JUMP JUMPDEST SWAP3 SWAP2 POP POP JUMP JUMPDEST PUSH0 DUP1 PUSH0 DUP1 PUSH0 DUP1 PUSH0 PUSH1 0xE0 DUP9 DUP11 SUB SLT ISZERO PUSH2 0x2F8 JUMPI PUSH2 0x2F7 PUSH2 0x10C JUMP JUMPDEST JUMPDEST PUSH0 DUP9 ADD MLOAD PUSH8 0xFFFFFFFFFFFFFFFF DUP2 GT ISZERO PUSH2 0x315 JUMPI PUSH2 0x314 PUSH2 0x110 JUMP JUMPDEST JUMPDEST PUSH2 0x321 DUP11 DUP3 DUP12 ADD PUSH2 0x223 JUMP JUMPDEST SWAP8 POP POP PUSH1 0x20 DUP9 ADD MLOAD PUSH8 0xFFFFFFFFFFFFFFFF DUP2 GT ISZERO PUSH2 0x342 JUMPI PUSH2 0x341 PUSH2 0x110 JUMP JUMPDEST JUMPDEST PUSH2 0x34E DUP11 DUP3 DUP12 ADD PUSH2 0x223 JUMP JUMPDEST SWAP7 POP POP PUSH1 0x40 DUP9 ADD MLOAD PUSH8 0xFFFFFFFFFFFFFFFF DUP2 GT ISZERO PUSH2 0x36F JUMPI PUSH2 0x36E PUSH2 0x110 JUMP JUMPDEST JUMPDEST PUSH2 0x37B DUP11 DUP3 DUP12 ADD PUSH2 0x223 JUMP JUMPDEST SWAP6 POP POP PUSH1 0x60 DUP9 ADD MLOAD PUSH8 0xFFFFFFFFFFFFFFFF DUP2 GT ISZERO PUSH2 0x39C JUMPI PUSH2 0x39B PUSH2 0x110 JUMP JUMPDEST JUMPDEST PUSH2 0x3A8 DUP11 DUP3 DUP12 ADD PUSH2 0x223 JUMP JUMPDEST SWAP5 POP POP PUSH1 0x80 PUSH2 0x3B9 DUP11 DUP3 DUP12 ADD PUSH2 0x26F JUMP JUMPDEST SWAP4 POP POP PUSH1 0xA0 PUSH2 0x3CA DUP11 DUP3 DUP12 ADD PUSH2 0x2C9 JUMP JUMPDEST SWAP3 POP POP PUSH1 0xC0 PUSH2 0x3DB DUP11 DUP3 DUP12 ADD PUSH2 0x2C9 JUMP JUMPDEST SWAP2 POP POP SWAP3 SWAP6 SWAP9 SWAP2 SWAP5 SWAP8 POP SWAP3 SWAP6 POP JUMP JUMPDEST PUSH0 DUP2 MLOAD SWAP1 POP SWAP2 SWAP1 POP JUMP JUMPDEST PUSH32 0x4E487B7100000000000000000000000000000000000000000000000000000000 PUSH0 MSTORE PUSH1 0x22 PUSH1 0x4 MSTORE PUSH1 0x24 PUSH0 REVERT JUMPDEST PUSH0 PUSH1 0x2 DUP3 DIV SWAP1 POP PUSH1 0x1 DUP3 AND DUP1 PUSH2 0x438 JUMPI PUSH1 0x7F DUP3 AND SWAP2 POP JUMPDEST PUSH1 0x20 DUP3 LT DUP2 SUB PUSH2 0x44B JUMPI PUSH2 0x44A PUSH2 0x3F4 JUMP JUMPDEST JUMPDEST POP SWAP2 SWAP1 POP JUMP JUMPDEST PUSH0 DUP2 SWAP1 POP DUP2 PUSH0 MSTORE PUSH1 0x20 PUSH0 KECCAK256 SWAP1 POP SWAP2 SWAP1 POP JUMP JUMPDEST PUSH0 PUSH1 0x20 PUSH1 0x1F DUP4 ADD DIV SWAP1 POP SWAP2 SWAP1 POP JUMP JUMPDEST PUSH0 DUP3 DUP3 SHL SWAP1 POP SWAP3 SWAP2 POP POP JUMP JUMPDEST PUSH0 PUSH1 0x8 DUP4 MUL PUSH2 0x4AD PUSH32 0xFFFFFFFFFFFFFFFFFFFFFFFFFFFFFFFFFFFFFFFFFFFFFFFFFFFFFFFFFFFFFFFF DUP3 PUSH2 0x472 JUMP JUMPDEST PUSH2 0x4B7 DUP7 DUP4 PUSH2 0x472 JUMP JUMPDEST SWAP6 POP DUP1 NOT DUP5 AND SWAP4 POP DUP1 DUP7 AND DUP5 OR SWAP3 POP POP POP SWAP4 SWAP3 POP POP POP JUMP JUMPDEST PUSH0 DUP2 SWAP1 POP SWAP2 SWAP1 POP JUMP JUMPDEST PUSH0 PUSH2 0x4F2 PUSH2 0x4ED PUSH2 0x4E8 DUP5 PUSH2 0x250 JUMP JUMPDEST PUSH2 0x4CF JUMP JUMPDEST PUSH2 0x250 JUMP JUMPDEST SWAP1 POP SWAP2 SWAP1 POP JUMP JUMPDEST PUSH0 DUP2 SWAP1 POP SWAP2 SWAP1 POP JUMP JUMPDEST PUSH2 0x50B DUP4 PUSH2 0x4D8 JUMP JUMPDEST PUSH2 0x51F PUSH2 0x517 DUP3 PUSH2 0x4F9 JUMP JUMPDEST DUP5 DUP5 SLOAD PUSH2 0x47E JUMP JUMPDEST DUP3 SSTORE POP POP POP POP JUMP JUMPDEST PUSH0 SWAP1 JUMP JUMPDEST PUSH2 0x533 PUSH2 0x527 JUMP JUMPDEST PUSH2 0x53E DUP2 DUP5 DUP5 PUSH2 0x502 JUMP JUMPDEST POP POP POP JUMP JUMPDEST JUMPDEST DUP2 DUP2 LT ISZERO PUSH2 0x561 JUMPI PUSH2 0x556 PUSH0 DUP3 PUSH2 0x52B JUMP JUMPDEST PUSH1 0x1 DUP2 ADD SWAP1 POP PUSH2 0x544 JUMP JUMPDEST POP POP JUMP JUMPDEST PUSH1 0x1F DUP3 GT ISZERO PUSH2 0x5A6 JUMPI PUSH2 0x577 DUP2 PUSH2 0x451 JUMP JUMPDEST PUSH2 0x580 DUP5 PUSH2 0x463 JUMP JUMPDEST DUP2 ADD PUSH1 0x20 DUP6 LT ISZERO PUSH2 0x58F JUMPI DUP2 SWAP1 POP JUMPDEST PUSH2 0x5A3 PUSH2 0x59B DUP6 PUSH2 0x463 JUMP JUMPDEST DUP4 ADD DUP3 PUSH2 0x543 JUMP JUMPDEST POP POP JUMPDEST POP POP POP JUMP JUMPDEST PUSH0 DUP3 DUP3 SHR SWAP1 POP SWAP3 SWAP2 POP POP JUMP JUMPDEST PUSH0 PUSH2 0x5C6 PUSH0 NOT DUP5 PUSH1 0x8 MUL PUSH2 0x5AB JUMP JUMPDEST NOT DUP1 DUP4 AND SWAP2 POP POP SWAP3 SWAP2 POP POP JUMP JUMPDEST PUSH0 PUSH2 0x5DE DUP4 DUP4 PUSH2 0x5B7 JUMP JUMPDEST SWAP2 POP DUP3 PUSH1 0x2 MUL DUP3 OR SWAP1 POP SWAP3 SWAP2 POP POP JUMP JUMPDEST PUSH2 0x5F7 DUP3 PUSH2 0x3EA JUMP JUMPDEST PUSH8 0xFFFFFFFFFFFFFFFF DUP2 GT ISZERO PUSH2 0x610 JUMPI PUSH2 0x60F PUSH2 0x12C JUMP JUMPDEST JUMPDEST PUSH2 0x61A DUP3 SLOAD PUSH2 0x421 JUMP JUMPDEST PUSH2 0x625 DUP3 DUP3 DUP6 PUSH2 0x565 JUMP JUMPDEST PUSH0 PUSH1 0x20 SWAP1 POP PUSH1 0x1F DUP4 GT PUSH1 0x1 DUP2 EQ PUSH2 0x656 JUMPI PUSH0 DUP5 ISZERO PUSH2 0x644 JUMPI DUP3 DUP8 ADD MLOAD SWAP1 POP JUMPDEST PUSH2 0x64E DUP6 DUP3 PUSH2 0x5D3 JUMP JUMPDEST DUP7 SSTORE POP PUSH2 0x6B5 JUMP JUMPDEST PUSH1 0x1F NOT DUP5 AND PUSH2 0x664 DUP7 PUSH2 0x451 JUMP JUMPDEST PUSH0 JUMPDEST DUP3 DUP2 LT ISZERO PUSH2 0x68B JUMPI DUP5 DUP10 ADD MLOAD DUP3 SSTORE PUSH1 0x1 DUP3 ADD SWAP2 POP PUSH1 0x20 DUP6 ADD SWAP5 POP PUSH1 0x20 DUP2 ADD SWAP1 POP PUSH2 0x666 JUMP JUMPDEST DUP7 DUP4 LT ISZERO PUSH2 0x6A8 JUMPI DUP5 DUP10 ADD MLOAD PUSH2 0x6A4 PUSH1 0x1F DUP10 AND DUP3 PUSH2 0x5B7 JUMP JUMPDEST DUP4 SSTORE POP JUMPDEST PUSH1 0x1 PUSH1 0x2 DUP9 MUL ADD DUP9 SSTORE POP POP POP JUMPDEST POP POP POP POP POP POP JUMP JUMPDEST PUSH2 0x100E DUP1 PUSH2 0x6CA PUSH0 CODECOPY PUSH0 RETURN INVALID PUSH1 0x80 PUSH1 0x40 MSTORE CALLVALUE DUP1 ISZERO PUSH2 0xF JUMPI PUSH0 DUP1 REVERT JUMPDEST POP PUSH1 0x4 CALLDATASIZE LT PUSH2 0x60 JUMPI PUSH0 CALLDATALOAD PUSH1 0xE0 SHR DUP1 PUSH4 0x1499C592 EQ PUSH2 0x64 JUMPI DUP1 PUSH4 0x38CC4831 EQ PUSH2 0x80 JUMPI DUP1 PUSH4 0x5112F02C EQ PUSH2 0x9E JUMPI DUP1 PUSH4 0x80F76021 EQ PUSH2 0xC0 JUMPI DUP1 PUSH4 0xC47F0027 EQ PUSH2 0xDE JUMPI DUP1 PUSH4 0xEFD8AF9F EQ PUSH2 0xFA JUMPI JUMPDEST PUSH0 DUP1 REVERT JUMPDEST PUSH2 0x7E PUSH1 0x4 DUP1 CALLDATASIZE SUB DUP2 ADD SWAP1 PUSH2 0x79 SWAP2 SWAP1 PUSH2 0x9C6 JUMP JUMPDEST PUSH2 0x116 JUMP JUMPDEST STOP JUMPDEST PUSH2 0x88 PUSH2 0x23F JUMP JUMPDEST PUSH1 0x40 MLOAD PUSH2 0x95 SWAP2 SWAP1 PUSH2 0xA00 JUMP JUMPDEST PUSH1 0x40 MLOAD DUP1 SWAP2 SUB SWAP1 RETURN JUMPDEST PUSH2 0xA6 PUSH2 0x32C JUMP JUMPDEST PUSH1 0x40 MLOAD PUSH2 0xB7 SWAP6 SWAP5 SWAP4 SWAP3 SWAP2 SWAP1 PUSH2 0xAA1 JUMP JUMPDEST PUSH1 0x40 MLOAD DUP1 SWAP2 SUB SWAP1 RETURN JUMPDEST PUSH2 0xC8 PUSH2 0x65C JUMP JUMPDEST PUSH1 0x40 MLOAD PUSH2 0xD5 SWAP2 SWAP1 PUSH2 0xA00 JUMP JUMPDEST PUSH1 0x40 MLOAD DUP1 SWAP2 SUB SWAP1 RETURN JUMPDEST PUSH2 0xF8 PUSH1 0x4 DUP1 CALLDATASIZE SUB DUP2 ADD SWAP1 PUSH2 0xF3 SWAP2 SWAP1 PUSH2 0xC3A JUMP JUMPDEST PUSH2 0x76A JUMP JUMPDEST STOP JUMPDEST PUSH2 0x114 PUSH1 0x4 DUP1 CALLDATASIZE SUB DUP2 ADD SWAP1 PUSH2 0x10F SWAP2 SWAP1 PUSH2 0xC3A JUMP JUMPDEST PUSH2 0x862 JUMP JUMPDEST STOP JUMPDEST PUSH1 0x5 PUSH0 SWAP1 SLOAD SWAP1 PUSH2 0x100 EXP SWAP1 DIV PUSH20 0xFFFFFFFFFFFFFFFFFFFFFFFFFFFFFFFFFFFFFFFF AND PUSH20 0xFFFFFFFFFFFFFFFFFFFFFFFFFFFFFFFFFFFFFFFF AND CALLER PUSH20 0xFFFFFFFFFFFFFFFFFFFFFFFFFFFFFFFFFFFFFFFF AND EQ DUP1 PUSH2 0x1BD JUMPI POP PUSH1 0x6 PUSH0 SWAP1 SLOAD SWAP1 PUSH2 0x100 EXP SWAP1 DIV PUSH20 0xFFFFFFFFFFFFFFFFFFFFFFFFFFFFFFFFFFFFFFFF AND PUSH20 0xFFFFFFFFFFFFFFFFFFFFFFFFFFFFFFFFFFFFFFFF AND CALLER PUSH20 0xFFFFFFFFFFFFFFFFFFFFFFFFFFFFFFFFFFFFFFFF AND EQ JUMPDEST PUSH2 0x1FC JUMPI PUSH1 0x40 MLOAD PUSH32 0x8C379A000000000000000000000000000000000000000000000000000000000 DUP2 MSTORE PUSH1 0x4 ADD PUSH2 0x1F3 SWAP1 PUSH2 0xCF1 JUMP JUMPDEST PUSH1 0x40 MLOAD DUP1 SWAP2 SUB SWAP1 REVERT JUMPDEST DUP1 PUSH1 0x6 PUSH0 PUSH2 0x100 EXP DUP2 SLOAD DUP2 PUSH20 0xFFFFFFFFFFFFFFFFFFFFFFFFFFFFFFFFFFFFFFFF MUL NOT AND SWAP1 DUP4 PUSH20 0xFFFFFFFFFFFFFFFFFFFFFFFFFFFFFFFFFFFFFFFF AND MUL OR SWAP1 SSTORE POP POP JUMP JUMPDEST PUSH0 PUSH1 0x5 PUSH0 SWAP1 SLOAD SWAP1 PUSH2 0x100 EXP SWAP1 DIV PUSH20 0xFFFFFFFFFFFFFFFFFFFFFFFFFFFFFFFFFFFFFFFF AND PUSH20 0xFFFFFFFFFFFFFFFFFFFFFFFFFFFFFFFFFFFFFFFF AND CALLER PUSH20 0xFFFFFFFFFFFFFFFFFFFFFFFFFFFFFFFFFFFFFFFF AND EQ DUP1 PUSH2 0x2E7 JUMPI POP PUSH1 0x6 PUSH0 SWAP1 SLOAD SWAP1 PUSH2 0x100 EXP SWAP1 DIV PUSH20 0xFFFFFFFFFFFFFFFFFFFFFFFFFFFFFFFFFFFFFFFF AND PUSH20 0xFFFFFFFFFFFFFFFFFFFFFFFFFFFFFFFFFFFFFFFF AND CALLER PUSH20 0xFFFFFFFFFFFFFFFFFFFFFFFFFFFFFFFFFFFFFFFF AND EQ JUMPDEST PUSH2 0x326 JUMPI PUSH1 0x40 MLOAD PUSH32 0x8C379A000000000000000000000000000000000000000000000000000000000 DUP2 MSTORE PUSH1 0x4 ADD PUSH2 0x31D SWAP1 PUSH2 0xCF1 JUMP JUMPDEST PUSH1 0x40 MLOAD DUP1 SWAP2 SUB SWAP1 REVERT JUMPDEST ADDRESS SWAP1 POP SWAP1 JUMP JUMPDEST PUSH1 0x60 DUP1 PUSH1 0x60 DUP1 PUSH0 PUSH1 0x5 PUSH0 SWAP1 SLOAD SWAP1 PUSH2 0x100 EXP SWAP1 DIV PUSH20 0xFFFFFFFFFFFFFFFFFFFFFFFFFFFFFFFFFFFFFFFF AND PUSH20 0xFFFFFFFFFFFFFFFFFFFFFFFFFFFFFFFFFFFFFFFF AND CALLER PUSH20 0xFFFFFFFFFFFFFFFFFFFFFFFFFFFFFFFFFFFFFFFF AND EQ DUP1 PUSH2 0x3DA JUMPI POP PUSH1 0x6 PUSH0 SWAP1 SLOAD SWAP1 PUSH2 0x100 EXP SWAP1 DIV PUSH20 0xFFFFFFFFFFFFFFFFFFFFFFFFFFFFFFFFFFFFFFFF AND PUSH20 0xFFFFFFFFFFFFFFFFFFFFFFFFFFFFFFFFFFFFFFFF AND CALLER PUSH20 0xFFFFFFFFFFFFFFFFFFFFFFFFFFFFFFFFFFFFFFFF AND EQ JUMPDEST PUSH2 0x419 JUMPI PUSH1 0x40 MLOAD PUSH32 0x8C379A000000000000000000000000000000000000000000000000000000000 DUP2 MSTORE PUSH1 0x4 ADD PUSH2 0x410 SWAP1 PUSH2 0xCF1 JUMP JUMPDEST PUSH1 0x40 MLOAD DUP1 SWAP2 SUB SWAP1 REVERT JUMPDEST PUSH0 PUSH1 0x1 PUSH1 0x2 PUSH1 0x3 PUSH1 0x4 SLOAD DUP5 DUP1 SLOAD PUSH2 0x42F SWAP1 PUSH2 0xD3C JUMP JUMPDEST DUP1 PUSH1 0x1F ADD PUSH1 0x20 DUP1 SWAP2 DIV MUL PUSH1 0x20 ADD PUSH1 0x40 MLOAD SWAP1 DUP2 ADD PUSH1 0x40 MSTORE DUP1 SWAP3 SWAP2 SWAP1 DUP2 DUP2 MSTORE PUSH1 0x20 ADD DUP3 DUP1 SLOAD PUSH2 0x45B SWAP1 PUSH2 0xD3C JUMP JUMPDEST DUP1 ISZERO PUSH2 0x4A6 JUMPI DUP1 PUSH1 0x1F LT PUSH2 0x47D JUMPI PUSH2 0x100 DUP1 DUP4 SLOAD DIV MUL DUP4 MSTORE SWAP2 PUSH1 0x20 ADD SWAP2 PUSH2 0x4A6 JUMP JUMPDEST DUP3 ADD SWAP2 SWAP1 PUSH0 MSTORE PUSH1 0x20 PUSH0 KECCAK256 SWAP1 JUMPDEST DUP2 SLOAD DUP2 MSTORE SWAP1 PUSH1 0x1 ADD SWAP1 PUSH1 0x20 ADD DUP1 DUP4 GT PUSH2 0x489 JUMPI DUP3 SWAP1 SUB PUSH1 0x1F AND DUP3 ADD SWAP2 JUMPDEST POP POP POP POP POP SWAP5 POP DUP4 DUP1 SLOAD PUSH2 0x4B9 SWAP1 PUSH2 0xD3C JUMP JUMPDEST DUP1 PUSH1 0x1F ADD PUSH1 0x20 DUP1 SWAP2 DIV MUL PUSH1 0x20 ADD PUSH1 0x40 MLOAD SWAP1 DUP2 ADD PUSH1 0x40 MSTORE DUP1 SWAP3 SWAP2 SWAP1 DUP2 DUP2 MSTORE PUSH1 0x20 ADD DUP3 DUP1 SLOAD PUSH2 0x4E5 SWAP1 PUSH2 0xD3C JUMP JUMPDEST DUP1 ISZERO PUSH2 0x530 JUMPI DUP1 PUSH1 0x1F LT PUSH2 0x507 JUMPI PUSH2 0x100 DUP1 DUP4 SLOAD DIV MUL DUP4 MSTORE SWAP2 PUSH1 0x20 ADD SWAP2 PUSH2 0x530 JUMP JUMPDEST DUP3 ADD SWAP2 SWAP1 PUSH0 MSTORE PUSH1 0x20 PUSH0 KECCAK256 SWAP1 JUMPDEST DUP2 SLOAD DUP2 MSTORE SWAP1 PUSH1 0x1 ADD SWAP1 PUSH1 0x20 ADD DUP1 DUP4 GT PUSH2 0x513 JUMPI DUP3 SWAP1 SUB PUSH1 0x1F AND DUP3 ADD SWAP2 JUMPDEST POP POP POP POP POP SWAP4 POP DUP3 DUP1 SLOAD PUSH2 0x543 SWAP1 PUSH2 0xD3C JUMP JUMPDEST DUP1 PUSH1 0x1F ADD PUSH1 0x20 DUP1 SWAP2 DIV MUL PUSH1 0x20 ADD PUSH1 0x40 MLOAD SWAP1 DUP2 ADD PUSH1 0x40 MSTORE DUP1 SWAP3 SWAP2 SWAP1 DUP2 DUP2 MSTORE PUSH1 0x20 ADD DUP3 DUP1 SLOAD PUSH2 0x56F SWAP1 PUSH2 0xD3C JUMP JUMPDEST DUP1 ISZERO PUSH2 0x5BA JUMPI DUP1 PUSH1 0x1F LT PUSH2 0x591 JUMPI PUSH2 0x100 DUP1 DUP4 SLOAD DIV MUL DUP4 MSTORE SWAP2 PUSH1 0x20 ADD SWAP2 PUSH2 0x5BA JUMP JUMPDEST DUP3 ADD SWAP2 SWAP1 PUSH0 MSTORE PUSH1 0x20 PUSH0 KECCAK256 SWAP1 JUMPDEST DUP2 SLOAD DUP2 MSTORE SWAP1 PUSH1 0x1 ADD SWAP1 PUSH1 0x20 ADD DUP1 DUP4 GT PUSH2 0x59D JUMPI DUP3 SWAP1 SUB PUSH1 0x1F AND DUP3 ADD SWAP2 JUMPDEST POP POP POP POP POP SWAP3 POP DUP2 DUP1 SLOAD PUSH2 0x5CD SWAP1 PUSH2 0xD3C JUMP JUMPDEST DUP1 PUSH1 0x1F ADD PUSH1 0x20 DUP1 SWAP2 DIV MUL PUSH1 0x20 ADD PUSH1 0x40 MLOAD SWAP1 DUP2 ADD PUSH1 0x40 MSTORE DUP1 SWAP3 SWAP2 SWAP1 DUP2 DUP2 MSTORE PUSH1 0x20 ADD DUP3 DUP1 SLOAD PUSH2 0x5F9 SWAP1 PUSH2 0xD3C JUMP JUMPDEST DUP1 ISZERO PUSH2 0x644 JUMPI DUP1 PUSH1 0x1F LT PUSH2 0x61B JUMPI PUSH2 0x100 DUP1 DUP4 SLOAD DIV MUL DUP4 MSTORE SWAP2 PUSH1 0x20 ADD SWAP2 PUSH2 0x644 JUMP JUMPDEST DUP3 ADD SWAP2 SWAP1 PUSH0 MSTORE PUSH1 0x20 PUSH0 KECCAK256 SWAP1 JUMPDEST DUP2 SLOAD DUP2 MSTORE SWAP1 PUSH1 0x1 ADD SWAP1 PUSH1 0x20 ADD DUP1 DUP4 GT PUSH2 0x627 JUMPI DUP3 SWAP1 SUB PUSH1 0x1F AND DUP3 ADD SWAP2 JUMPDEST POP POP POP POP POP SWAP2 POP SWAP5 POP SWAP5 POP SWAP5 POP SWAP5 POP SWAP5 POP SWAP1 SWAP2 SWAP3 SWAP4 SWAP5 JUMP JUMPDEST PUSH0 PUSH1 0x5 PUSH0 SWAP1 SLOAD SWAP1 PUSH2 0x100 EXP SWAP1 DIV PUSH20 0xFFFFFFFFFFFFFFFFFFFFFFFFFFFFFFFFFFFFFFFF AND PUSH20 0xFFFFFFFFFFFFFFFFFFFFFFFFFFFFFFFFFFFFFFFF AND CALLER PUSH20 0xFFFFFFFFFFFFFFFFFFFFFFFFFFFFFFFFFFFFFFFF AND EQ DUP1 PUSH2 0x704 JUMPI POP PUSH1 0x6 PUSH0 SWAP1 SLOAD SWAP1 PUSH2 0x100 EXP SWAP1 DIV PUSH20 0xFFFFFFFFFFFFFFFFFFFFFFFFFFFFFFFFFFFFFFFF AND PUSH20 0xFFFFFFFFFFFFFFFFFFFFFFFFFFFFFFFFFFFFFFFF AND CALLER PUSH20 0xFFFFFFFFFFFFFFFFFFFFFFFFFFFFFFFFFFFFFFFF AND EQ JUMPDEST PUSH2 0x743 JUMPI PUSH1 0x40 MLOAD PUSH32 0x8C379A000000000000000000000000000000000000000000000000000000000 DUP2 MSTORE PUSH1 0x4 ADD PUSH2 0x73A SWAP1 PUSH2 0xCF1 JUMP JUMPDEST PUSH1 0x40 MLOAD DUP1 SWAP2 SUB SWAP1 REVERT JUMPDEST PUSH1 0x6 PUSH0 SWAP1 SLOAD SWAP1 PUSH2 0x100 EXP SWAP1 DIV PUSH20 0xFFFFFFFFFFFFFFFFFFFFFFFFFFFFFFFFFFFFFFFF AND SWAP1 POP SWAP1 JUMP JUMPDEST PUSH1 0x5 PUSH0 SWAP1 SLOAD SWAP1 PUSH2 0x100 EXP SWAP1 DIV PUSH20 0xFFFFFFFFFFFFFFFFFFFFFFFFFFFFFFFFFFFFFFFF AND PUSH20 0xFFFFFFFFFFFFFFFFFFFFFFFFFFFFFFFFFFFFFFFF AND CALLER PUSH20 0xFFFFFFFFFFFFFFFFFFFFFFFFFFFFFFFFFFFFFFFF AND EQ DUP1 PUSH2 0x811 JUMPI POP PUSH1 0x6 PUSH0 SWAP1 SLOAD SWAP1 PUSH2 0x100 EXP SWAP1 DIV PUSH20 0xFFFFFFFFFFFFFFFFFFFFFFFFFFFFFFFFFFFFFFFF AND PUSH20 0xFFFFFFFFFFFFFFFFFFFFFFFFFFFFFFFFFFFFFFFF AND CALLER PUSH20 0xFFFFFFFFFFFFFFFFFFFFFFFFFFFFFFFFFFFFFFFF AND EQ JUMPDEST PUSH2 0x850 JUMPI PUSH1 0x40 MLOAD PUSH32 0x8C379A000000000000000000000000000000000000000000000000000000000 DUP2 MSTORE PUSH1 0x4 ADD PUSH2 0x847 SWAP1 PUSH2 0xCF1 JUMP JUMPDEST PUSH1 0x40 MLOAD DUP1 SWAP2 SUB SWAP1 REVERT JUMPDEST DUP1 PUSH0 SWAP1 DUP2 PUSH2 0x85E SWAP2 SWAP1 PUSH2 0xF09 JUMP JUMPDEST POP POP JUMP JUMPDEST PUSH1 0x5 PUSH0 SWAP1 SLOAD SWAP1 PUSH2 0x100 EXP SWAP1 DIV PUSH20 0xFFFFFFFFFFFFFFFFFFFFFFFFFFFFFFFFFFFFFFFF AND PUSH20 0xFFFFFFFFFFFFFFFFFFFFFFFFFFFFFFFFFFFFFFFF AND CALLER PUSH20 0xFFFFFFFFFFFFFFFFFFFFFFFFFFFFFFFFFFFFFFFF AND EQ DUP1 PUSH2 0x909 JUMPI POP PUSH1 0x6 PUSH0 SWAP1 SLOAD SWAP1 PUSH2 0x100 EXP SWAP1 DIV PUSH20 0xFFFFFFFFFFFFFFFFFFFFFFFFFFFFFFFFFFFFFFFF AND PUSH20 0xFFFFFFFFFFFFFFFFFFFFFFFFFFFFFFFFFFFFFFFF AND CALLER PUSH20 0xFFFFFFFFFFFFFFFFFFFFFFFFFFFFFFFFFFFFFFFF AND EQ JUMPDEST PUSH2 0x948 JUMPI PUSH1 0x40 MLOAD PUSH32 0x8C379A000000000000000000000000000000000000000000000000000000000 DUP2 MSTORE PUSH1 0x4 ADD PUSH2 0x93F SWAP1 PUSH2 0xCF1 JUMP JUMPDEST PUSH1 0x40 MLOAD DUP1 SWAP2 SUB SWAP1 REVERT JUMPDEST DUP1 PUSH1 0x1 SWAP1 DUP2 PUSH2 0x957 SWAP2 SWAP1 PUSH2 0xF09 JUMP JUMPDEST POP POP JUMP JUMPDEST PUSH0 PUSH1 0x40 MLOAD SWAP1 POP SWAP1 JUMP JUMPDEST PUSH0 DUP1 REVERT JUMPDEST PUSH0 DUP1 REVERT JUMPDEST PUSH0 PUSH20 0xFFFFFFFFFFFFFFFFFFFFFFFFFFFFFFFFFFFFFFFF DUP3 AND SWAP1 POP SWAP2 SWAP1 POP JUMP JUMPDEST PUSH0 PUSH2 0x995 DUP3 PUSH2 0x96C JUMP JUMPDEST SWAP1 POP SWAP2 SWAP1 POP JUMP JUMPDEST PUSH2 0x9A5 DUP2 PUSH2 0x98B JUMP JUMPDEST DUP2 EQ PUSH2 0x9AF JUMPI PUSH0 DUP1 REVERT JUMPDEST POP JUMP JUMPDEST PUSH0 DUP2 CALLDATALOAD SWAP1 POP PUSH2 0x9C0 DUP2 PUSH2 0x99C JUMP JUMPDEST SWAP3 SWAP2 POP POP JUMP JUMPDEST PUSH0 PUSH1 0x20 DUP3 DUP5 SUB SLT ISZERO PUSH2 0x9DB JUMPI PUSH2 0x9DA PUSH2 0x964 JUMP JUMPDEST JUMPDEST PUSH0 PUSH2 0x9E8 DUP5 DUP3 DUP6 ADD PUSH2 0x9B2 JUMP JUMPDEST SWAP2 POP POP SWAP3 SWAP2 POP POP JUMP JUMPDEST PUSH2 0x9FA DUP2 PUSH2 0x98B JUMP JUMPDEST DUP3 MSTORE POP POP JUMP JUMPDEST PUSH0 PUSH1 0x20 DUP3 ADD SWAP1 POP PUSH2 0xA13 PUSH0 DUP4 ADD DUP5 PUSH2 0x9F1 JUMP JUMPDEST SWAP3 SWAP2 POP POP JUMP JUMPDEST PUSH0 DUP2 MLOAD SWAP1 POP SWAP2 SWAP1 POP JUMP JUMPDEST PUSH0 DUP3 DUP3 MSTORE PUSH1 0x20 DUP3 ADD SWAP1 POP SWAP3 SWAP2 POP POP JUMP JUMPDEST DUP3 DUP2 DUP4 MCOPY PUSH0 DUP4 DUP4 ADD MSTORE POP POP POP JUMP JUMPDEST PUSH0 PUSH1 0x1F NOT PUSH1 0x1F DUP4 ADD AND SWAP1 POP SWAP2 SWAP1 POP JUMP JUMPDEST PUSH0 PUSH2 0xA5B DUP3 PUSH2 0xA19 JUMP JUMPDEST PUSH2 0xA65 DUP2 DUP6 PUSH2 0xA23 JUMP JUMPDEST SWAP4 POP PUSH2 0xA75 DUP2 DUP6 PUSH1 0x20 DUP7 ADD PUSH2 0xA33 JUMP JUMPDEST PUSH2 0xA7E DUP2 PUSH2 0xA41 JUMP JUMPDEST DUP5 ADD SWAP2 POP POP SWAP3 SWAP2 POP POP JUMP JUMPDEST PUSH0 DUP2 SWAP1 POP SWAP2 SWAP1 POP JUMP JUMPDEST PUSH2 0xA9B DUP2 PUSH2 0xA89 JUMP JUMPDEST DUP3 MSTORE POP POP JUMP JUMPDEST PUSH0 PUSH1 0xA0 DUP3 ADD SWAP1 POP DUP2 DUP2 SUB PUSH0 DUP4 ADD MSTORE PUSH2 0xAB9 DUP2 DUP9 PUSH2 0xA51 JUMP JUMPDEST SWAP1 POP DUP2 DUP2 SUB PUSH1 0x20 DUP4 ADD MSTORE PUSH2 0xACD DUP2 DUP8 PUSH2 0xA51 JUMP JUMPDEST SWAP1 POP DUP2 DUP2 SUB PUSH1 0x40 DUP4 ADD MSTORE PUSH2 0xAE1 DUP2 DUP7 PUSH2 0xA51 JUMP JUMPDEST SWAP1 POP DUP2 DUP2 SUB PUSH1 0x60 DUP4 ADD MSTORE PUSH2 0xAF5 DUP2 DUP6 PUSH2 0xA51 JUMP JUMPDEST SWAP1 POP PUSH2 0xB04 PUSH1 0x80 DUP4 ADD DUP5 PUSH2 0xA92 JUMP JUMPDEST SWAP7 SWAP6 POP POP POP POP POP POP JUMP JUMPDEST PUSH0 DUP1 REVERT JUMPDEST PUSH0 DUP1 REVERT JUMPDEST PUSH32 0x4E487B7100000000000000000000000000000000000000000000000000000000 PUSH0 MSTORE PUSH1 0x41 PUSH1 0x4 MSTORE PUSH1 0x24 PUSH0 REVERT JUMPDEST PUSH2 0xB4C DUP3 PUSH2 0xA41 JUMP JUMPDEST DUP2 ADD DUP2 DUP2 LT PUSH8 0xFFFFFFFFFFFFFFFF DUP3 GT OR ISZERO PUSH2 0xB6B JUMPI PUSH2 0xB6A PUSH2 0xB16 JUMP JUMPDEST JUMPDEST DUP1 PUSH1 0x40 MSTORE POP POP POP JUMP JUMPDEST PUSH0 PUSH2 0xB7D PUSH2 0x95B JUMP JUMPDEST SWAP1 POP PUSH2 0xB89 DUP3 DUP3 PUSH2 0xB43 JUMP JUMPDEST SWAP2 SWAP1 POP JUMP JUMPDEST PUSH0 PUSH8 0xFFFFFFFFFFFFFFFF DUP3 GT ISZERO PUSH2 0xBA8 JUMPI PUSH2 0xBA7 PUSH2 0xB16 JUMP JUMPDEST JUMPDEST PUSH2 0xBB1 DUP3 PUSH2 0xA41 JUMP JUMPDEST SWAP1 POP PUSH1 0x20 DUP2 ADD SWAP1 POP SWAP2 SWAP1 POP JUMP JUMPDEST DUP3 DUP2 DUP4 CALLDATACOPY PUSH0 DUP4 DUP4 ADD MSTORE POP POP POP JUMP JUMPDEST PUSH0 PUSH2 0xBDE PUSH2 0xBD9 DUP5 PUSH2 0xB8E JUMP JUMPDEST PUSH2 0xB74 JUMP JUMPDEST SWAP1 POP DUP3 DUP2 MSTORE PUSH1 0x20 DUP2 ADD DUP5 DUP5 DUP5 ADD GT ISZERO PUSH2 0xBFA JUMPI PUSH2 0xBF9 PUSH2 0xB12 JUMP JUMPDEST JUMPDEST PUSH2 0xC05 DUP5 DUP3 DUP6 PUSH2 0xBBE JUMP JUMPDEST POP SWAP4 SWAP3 POP POP POP JUMP JUMPDEST PUSH0 DUP3 PUSH1 0x1F DUP4 ADD SLT PUSH2 0xC21 JUMPI PUSH2 0xC20 PUSH2 0xB0E JUMP JUMPDEST JUMPDEST DUP2 CALLDATALOAD PUSH2 0xC31 DUP5 DUP3 PUSH1 0x20 DUP7 ADD PUSH2 0xBCC JUMP JUMPDEST SWAP2 POP POP SWAP3 SWAP2 POP POP JUMP JUMPDEST PUSH0 PUSH1 0x20 DUP3 DUP5 SUB SLT ISZERO PUSH2 0xC4F JUMPI PUSH2 0xC4E PUSH2 0x964 JUMP JUMPDEST JUMPDEST PUSH0 DUP3 ADD CALLDATALOAD PUSH8 0xFFFFFFFFFFFFFFFF DUP2 GT ISZERO PUSH2 0xC6C JUMPI PUSH2 0xC6B PUSH2 0x968 JUMP JUMPDEST JUMPDEST PUSH2 0xC78 DUP5 DUP3 DUP6 ADD PUSH2 0xC0D JUMP JUMPDEST SWAP2 POP POP SWAP3 SWAP2 POP POP JUMP JUMPDEST PUSH32 0x4F6E6C7920746865206F776E65722063616E2063616C6C20746869732066756E PUSH0 DUP3 ADD MSTORE PUSH32 0x6374696F6E000000000000000000000000000000000000000000000000000000 PUSH1 0x20 DUP3 ADD MSTORE POP JUMP JUMPDEST PUSH0 PUSH2 0xCDB PUSH1 0x25 DUP4 PUSH2 0xA23 JUMP JUMPDEST SWAP2 POP PUSH2 0xCE6 DUP3 PUSH2 0xC81 JUMP JUMPDEST PUSH1 0x40 DUP3 ADD SWAP1 POP SWAP2 SWAP1 POP JUMP JUMPDEST PUSH0 PUSH1 0x20 DUP3 ADD SWAP1 POP DUP2 DUP2 SUB PUSH0 DUP4 ADD MSTORE PUSH2 0xD08 DUP2 PUSH2 0xCCF JUMP JUMPDEST SWAP1 POP SWAP2 SWAP1 POP JUMP JUMPDEST PUSH32 0x4E487B7100000000000000000000000000000000000000000000000000000000 PUSH0 MSTORE PUSH1 0x22 PUSH1 0x4 MSTORE PUSH1 0x24 PUSH0 REVERT JUMPDEST PUSH0 PUSH1 0x2 DUP3 DIV SWAP1 POP PUSH1 0x1 DUP3 AND DUP1 PUSH2 0xD53 JUMPI PUSH1 0x7F DUP3 AND SWAP2 POP JUMPDEST PUSH1 0x20 DUP3 LT DUP2 SUB PUSH2 0xD66 JUMPI PUSH2 0xD65 PUSH2 0xD0F JUMP JUMPDEST JUMPDEST POP SWAP2 SWAP1 POP JUMP JUMPDEST PUSH0 DUP2 SWAP1 POP DUP2 PUSH0 MSTORE PUSH1 0x20 PUSH0 KECCAK256 SWAP1 POP SWAP2 SWAP1 POP JUMP JUMPDEST PUSH0 PUSH1 0x20 PUSH1 0x1F DUP4 ADD DIV SWAP1 POP SWAP2 SWAP1 POP JUMP JUMPDEST PUSH0 DUP3 DUP3 SHL SWAP1 POP SWAP3 SWAP2 POP POP JUMP JUMPDEST PUSH0 PUSH1 0x8 DUP4 MUL PUSH2 0xDC8 PUSH32 0xFFFFFFFFFFFFFFFFFFFFFFFFFFFFFFFFFFFFFFFFFFFFFFFFFFFFFFFFFFFFFFFF DUP3 PUSH2 0xD8D JUMP JUMPDEST PUSH2 0xDD2 DUP7 DUP4 PUSH2 0xD8D JUMP JUMPDEST SWAP6 POP DUP1 NOT DUP5 AND SWAP4 POP DUP1 DUP7 AND DUP5 OR SWAP3 POP POP POP SWAP4 SWAP3 POP POP POP JUMP JUMPDEST PUSH0 DUP2 SWAP1 POP SWAP2 SWAP1 POP JUMP JUMPDEST PUSH0 PUSH2 0xE0D PUSH2 0xE08 PUSH2 0xE03 DUP5 PUSH2 0xA89 JUMP JUMPDEST PUSH2 0xDEA JUMP JUMPDEST PUSH2 0xA89 JUMP JUMPDEST SWAP1 POP SWAP2 SWAP1 POP JUMP JUMPDEST PUSH0 DUP2 SWAP1 POP SWAP2 SWAP1 POP JUMP JUMPDEST PUSH2 0xE26 DUP4 PUSH2 0xDF3 JUMP JUMPDEST PUSH2 0xE3A PUSH2 0xE32 DUP3 PUSH2 0xE14 JUMP JUMPDEST DUP5 DUP5 SLOAD PUSH2 0xD99 JUMP JUMPDEST DUP3 SSTORE POP POP POP POP JUMP JUMPDEST PUSH0 SWAP1 JUMP JUMPDEST PUSH2 0xE4E PUSH2 0xE42 JUMP JUMPDEST PUSH2 0xE59 DUP2 DUP5 DUP5 PUSH2 0xE1D JUMP JUMPDEST POP POP POP JUMP JUMPDEST JUMPDEST DUP2 DUP2 LT ISZERO PUSH2 0xE7C JUMPI PUSH2 0xE71 PUSH0 DUP3 PUSH2 0xE46 JUMP JUMPDEST PUSH1 0x1 DUP2 ADD SWAP1 POP PUSH2 0xE5F JUMP JUMPDEST POP POP JUMP JUMPDEST PUSH1 0x1F DUP3 GT ISZERO PUSH2 0xEC1 JUMPI PUSH2 0xE92 DUP2 PUSH2 0xD6C JUMP JUMPDEST PUSH2 0xE9B DUP5 PUSH2 0xD7E JUMP JUMPDEST DUP2 ADD PUSH1 0x20 DUP6 LT ISZERO PUSH2 0xEAA JUMPI DUP2 SWAP1 POP JUMPDEST PUSH2 0xEBE PUSH2 0xEB6 DUP6 PUSH2 0xD7E JUMP JUMPDEST DUP4 ADD DUP3 PUSH2 0xE5E JUMP JUMPDEST POP POP JUMPDEST POP POP POP JUMP JUMPDEST PUSH0 DUP3 DUP3 SHR SWAP1 POP SWAP3 SWAP2 POP POP JUMP JUMPDEST PUSH0 PUSH2 0xEE1 PUSH0 NOT DUP5 PUSH1 0x8 MUL PUSH2 0xEC6 JUMP JUMPDEST NOT DUP1 DUP4 AND SWAP2 POP POP SWAP3 SWAP2 POP POP JUMP JUMPDEST PUSH0 PUSH2 0xEF9 DUP4 DUP4 PUSH2 0xED2 JUMP JUMPDEST SWAP2 POP DUP3 PUSH1 0x2 MUL DUP3 OR SWAP1 POP SWAP3 SWAP2 POP POP JUMP JUMPDEST PUSH2 0xF12 DUP3 PUSH2 0xA19 JUMP JUMPDEST PUSH8 0xFFFFFFFFFFFFFFFF DUP2 GT ISZERO PUSH2 0xF2B JUMPI PUSH2 0xF2A PUSH2 0xB16 JUMP JUMPDEST JUMPDEST PUSH2 0xF35 DUP3 SLOAD PUSH2 0xD3C JUMP JUMPDEST PUSH2 0xF40 DUP3 DUP3 DUP6 PUSH2 0xE80 JUMP JUMPDEST PUSH0 PUSH1 0x20 SWAP1 POP PUSH1 0x1F DUP4 GT PUSH1 0x1 DUP2 EQ PUSH2 0xF71 JUMPI PUSH0 DUP5 ISZERO PUSH2 0xF5F JUMPI DUP3 DUP8 ADD MLOAD SWAP1 POP JUMPDEST PUSH2 0xF69 DUP6 DUP3 PUSH2 0xEEE JUMP JUMPDEST DUP7 SSTORE POP PUSH2 0xFD0 JUMP JUMPDEST PUSH1 0x1F NOT DUP5 AND PUSH2 0xF7F DUP7 PUSH2 0xD6C JUMP JUMPDEST PUSH0 JUMPDEST DUP3 DUP2 LT ISZERO PUSH2 0xFA6 JUMPI DUP5 DUP10 ADD MLOAD DUP3 SSTORE PUSH1 0x1 DUP3 ADD SWAP2 POP PUSH1 0x20 DUP6 ADD SWAP5 POP PUSH1 0x20 DUP2 ADD SWAP1 POP PUSH2 0xF81 JUMP JUMPDEST DUP7 DUP4 LT ISZERO PUSH2 0xFC3 JUMPI DUP5 DUP10 ADD MLOAD PUSH2 0xFBF PUSH1 0x1F DUP10 AND DUP3 PUSH2 0xED2 JUMP JUMPDEST DUP4 SSTORE POP JUMPDEST PUSH1 0x1 PUSH1 0x2 DUP9 MUL ADD DUP9 SSTORE POP POP POP JUMPDEST POP POP POP POP POP POP JUMP INVALID LOG2 PUSH5 0x6970667358 0x22 SLT KECCAK256 TSTORE BLOCKHASH MULMOD PUSH15 0x61330DA2FA743DAB4415B6330990BB 0xDC PUSH14 0x663506D814D9735FF24DB064736F PUSH13 0x634300081A0033000000000000 "
				},
				"gasEstimates": {
					"creation": {
						"codeDepositCost": "822000",
						"executionCost": "infinite",
						"totalCost": "infinite"
					},
					"external": {
						"getAddress()": "4790",
						"getCard()": "infinite",
						"getParent()": "6902",
						"setCardId(string)": "infinite",
						"setName(string)": "infinite",
						"setParent(address)": "29036"
					}
				},
				"methodIdentifiers": {
					"getAddress()": "38cc4831",
					"getCard()": "5112f02c",
					"getParent()": "80f76021",
					"setCardId(string)": "efd8af9f",
					"setName(string)": "c47f0027",
					"setParent(address)": "1499c592"
				}
			},
			"storageLayout": {
				"storage": [
					{
						"astId": 6,
						"contract": "DebitCard.sol:DebitCard",
						"label": "name",
						"offset": 0,
						"slot": "0",
						"type": "t_string_storage"
					},
					{
						"astId": 8,
						"contract": "DebitCard.sol:DebitCard",
						"label": "card_id",
						"offset": 0,
						"slot": "1",
						"type": "t_string_storage"
					},
					{
						"astId": 10,
						"contract": "DebitCard.sol:DebitCard",
						"label": "name_on_card",
						"offset": 0,
						"slot": "2",
						"type": "t_string_storage"
					},
					{
						"astId": 12,
						"contract": "DebitCard.sol:DebitCard",
						"label": "expire_at",
						"offset": 0,
						"slot": "3",
						"type": "t_string_storage"
					},
					{
						"astId": 14,
						"contract": "DebitCard.sol:DebitCard",
						"label": "cvv",
						"offset": 0,
						"slot": "4",
						"type": "t_uint256"
					},
					{
						"astId": 16,
						"contract": "DebitCard.sol:DebitCard",
						"label": "owner",
						"offset": 0,
						"slot": "5",
						"type": "t_address"
					},
					{
						"astId": 18,
						"contract": "DebitCard.sol:DebitCard",
						"label": "parent",
						"offset": 0,
						"slot": "6",
						"type": "t_address"
					}
				],
				"types": {
					"t_address": {
						"encoding": "inplace",
						"label": "address",
						"numberOfBytes": "20"
					},
					"t_string_storage": {
						"encoding": "bytes",
						"label": "string",
						"numberOfBytes": "32"
					},
					"t_uint256": {
						"encoding": "inplace",
						"label": "uint256",
						"numberOfBytes": "32"
					}
				}
			},
			"userdoc": {
				"kind": "user",
				"methods": {},
				"version": 1
			}
		}
	}
}