{
	"Organisation.sol": {
		"Organisation": {
			"abi": [
				{
					"inputs": [
						{
							"internalType": "string",
							"name": "_name",
							"type": "string"
						},
						{
							"internalType": "address",
							"name": "_owner",
							"type": "address"
						},
						{
							"internalType": "address",
							"name": "_parent",
							"type": "address"
						}
					],
					"stateMutability": "nonpayable",
					"type": "constructor"
				},
				{
					"anonymous": false,
					"inputs": [
						{
							"indexed": false,
							"internalType": "address",
							"name": "",
							"type": "address"
						},
						{
							"indexed": false,
							"internalType": "address",
							"name": "",
							"type": "address"
						}
					],
					"name": "Created",
					"type": "event"
				},
				{
					"inputs": [
						{
							"internalType": "enum Constants.ItemType",
							"name": "_type",
							"type": "uint8"
						},
						{
							"internalType": "address",
							"name": "_addr",
							"type": "address"
						}
					],
					"name": "addItem",
					"outputs": [],
					"stateMutability": "nonpayable",
					"type": "function"
				},
				{
					"inputs": [
						{
							"internalType": "string",
							"name": "_name",
							"type": "string"
						},
						{
							"internalType": "address",
							"name": "_addr",
							"type": "address"
						}
					],
					"name": "addMember",
					"outputs": [],
					"stateMutability": "nonpayable",
					"type": "function"
				},
				{
					"inputs": [
						{
							"internalType": "enum Constants.ItemType",
							"name": "_type",
							"type": "uint8"
						},
						{
							"internalType": "address",
							"name": "_addr",
							"type": "address"
						}
					],
					"name": "deleteItem",
					"outputs": [],
					"stateMutability": "nonpayable",
					"type": "function"
				},
				{
					"inputs": [
						{
							"internalType": "enum Constants.ItemType",
							"name": "_type",
							"type": "uint8"
						}
					],
					"name": "getItems",
					"outputs": [
						{
							"internalType": "address[]",
							"name": "",
							"type": "address[]"
						}
					],
					"stateMutability": "view",
					"type": "function"
				},
				{
					"inputs": [],
					"name": "getMembers",
					"outputs": [
						{
							"components": [
								{
									"internalType": "string",
									"name": "name",
									"type": "string"
								},
								{
									"internalType": "address",
									"name": "addr",
									"type": "address"
								}
							],
							"internalType": "struct OrgUtils.Member[]",
							"name": "",
							"type": "tuple[]"
						}
					],
					"stateMutability": "view",
					"type": "function"
				},
				{
					"inputs": [],
					"name": "getName",
					"outputs": [
						{
							"internalType": "string",
							"name": "",
							"type": "string"
						}
					],
					"stateMutability": "view",
					"type": "function"
				},
				{
					"inputs": [],
					"name": "isOwn",
					"outputs": [
						{
							"internalType": "bool",
							"name": "",
							"type": "bool"
						}
					],
					"stateMutability": "view",
					"type": "function"
				},
				{
					"inputs": [
						{
							"internalType": "address",
							"name": "_addr",
							"type": "address"
						}
					],
					"name": "removeMember",
					"outputs": [],
					"stateMutability": "nonpayable",
					"type": "function"
				}
			],
			"devdoc": {
				"kind": "dev",
				"methods": {},
				"version": 1
			},
			"evm": {
				"assembly": "    /* \"Organisation.sol\":140:3005  contract Organisation{... */\n  mstore(0x40, 0x80)\n    /* \"Organisation.sol\":367:629  constructor(string memory _name, address _owner, address _parent){... */\n  callvalue\n  dup1\n  iszero\n  tag_1\n  jumpi\n  0x00\n  dup1\n  revert\ntag_1:\n  pop\n  mload(0x40)\n  sub(codesize, bytecodeSize)\n  dup1\n  bytecodeSize\n  dup4\n  codecopy\n  dup2\n  add\n  0x40\n  dup2\n  swap1\n  mstore\n  tag_2\n  swap2\n  tag_3\n  jump\t// in\ntag_2:\n    /* \"Organisation.sol\":445:449  name */\n  0x00\n    /* \"Organisation.sol\":445:457  name = _name */\n  tag_6\n    /* \"Organisation.sol\":452:457  _name */\n  dup5\n    /* \"Organisation.sol\":445:449  name */\n  dup3\n    /* \"Organisation.sol\":445:457  name = _name */\n  tag_7\n  jump\t// in\ntag_6:\n  pop\n    /* \"Organisation.sol\":474:479  owner */\n  0x03\n    /* \"Organisation.sol\":474:488  owner = _owner */\n  dup1\n  sload\n  sub(shl(0xa0, 0x01), 0x01)\n  dup1\n  dup6\n  and\n  not(sub(shl(0xa0, 0x01), 0x01))\n  swap3\n  dup4\n  and\n  dup2\n  or\n  swap1\n  swap4\n  sstore\n    /* \"Organisation.sol\":499:505  parent */\n  0x04\n    /* \"Organisation.sol\":499:515  parent = _parent */\n  dup1\n  sload\n  swap2\n  dup6\n  and\n  swap2\n  swap1\n  swap3\n  and\n  or\n  swap1\n  sstore\n    /* \"Organisation.sol\":540:567  OrgUtils.Member(\"*\", owner) */\n  0x40\n  dup1\n  mload\n  0x80\n  dup2\n  add\n  dup3\n  mstore\n    /* \"Organisation.sol\":474:488  owner = _owner */\n  0x01\n    /* \"Organisation.sol\":540:567  OrgUtils.Member(\"*\", owner) */\n  swap2\n  dup2\n  add\n  dup3\n  dup2\n  mstore\n  shl(0xf9, 0x15)\n  0x60\n  dup4\n  add\n  mstore\n  dup2\n  mstore\n  0x20\n  dup2\n  add\n  swap3\n  swap1\n  swap3\n  mstore\n    /* \"Organisation.sol\":526:569  members.push( OrgUtils.Member(\"*\", owner) ) */\n  dup1\n  sload\n  dup1\n  dup3\n  add\n  dup3\n  sstore\n    /* \"Organisation.sol\":474:479  owner */\n  0x00\n    /* \"Organisation.sol\":526:569  members.push( OrgUtils.Member(\"*\", owner) ) */\n  swap2\n  swap1\n  swap2\n  mstore\n  dup2\n  mload\n  0x02\n  swap1\n  swap2\n  mul\n  0xb10e2d527612073b26eecdfd717e6a320cf44b4afac2b0732d9fcbe2b7fa0cf6\n  add\n  swap1\n  dup2\n  swap1\n  tag_9\n  swap1\n  dup3\n  tag_7\n  jump\t// in\ntag_9:\n  pop\n  0x20\n  swap2\n  dup3\n  add\n  mload\n  0x01\n  swap1\n  swap2\n  add\n  dup1\n  sload\n  not(sub(shl(0xa0, 0x01), 0x01))\n  and\n  sub(shl(0xa0, 0x01), 0x01)\n  swap1\n  swap3\n  and\n  swap2\n  swap1\n  swap2\n  or\n  swap1\n  sstore\n    /* \"Organisation.sol\":587:621  Created(msg.sender, address(this)) */\n  0x40\n  dup1\n  mload\n    /* \"Organisation.sol\":595:605  msg.sender */\n  caller\n    /* \"#utility.yul\":4131:4182   */\n  dup2\n  mstore\n    /* \"Organisation.sol\":615:619  this */\n  address\n    /* \"#utility.yul\":4198:4216   */\n  swap3\n  dup2\n  add\n    /* \"#utility.yul\":4191:4251   */\n  swap3\n  swap1\n  swap3\n  mstore\n    /* \"Organisation.sol\":587:621  Created(msg.sender, address(this)) */\n  0x587ece4cd19692c5be1a4184503d607d45542d2aca0698c0068f52e09ccb541c\n  swap2\n    /* \"#utility.yul\":4104:4122   */\n  add\n    /* \"Organisation.sol\":587:621  Created(msg.sender, address(this)) */\n  mload(0x40)\n  dup1\n  swap2\n  sub\n  swap1\n  log1\n    /* \"Organisation.sol\":367:629  constructor(string memory _name, address _owner, address _parent){... */\n  pop\n  pop\n  pop\n    /* \"Organisation.sol\":140:3005  contract Organisation{... */\n  jump(tag_19)\n    /* \"#utility.yul\":14:141   */\ntag_13:\n    /* \"#utility.yul\":75:85   */\n  0x4e487b71\n    /* \"#utility.yul\":70:73   */\n  0xe0\n    /* \"#utility.yul\":66:86   */\n  shl\n    /* \"#utility.yul\":63:64   */\n  0x00\n    /* \"#utility.yul\":56:87   */\n  mstore\n    /* \"#utility.yul\":106:110   */\n  0x41\n    /* \"#utility.yul\":103:104   */\n  0x04\n    /* \"#utility.yul\":96:111   */\n  mstore\n    /* \"#utility.yul\":130:134   */\n  0x24\n    /* \"#utility.yul\":127:128   */\n  0x00\n    /* \"#utility.yul\":120:135   */\n  revert\n    /* \"#utility.yul\":146:323   */\ntag_14:\n    /* \"#utility.yul\":225:238   */\n  dup1\n  mload\n  sub(shl(0xa0, 0x01), 0x01)\n    /* \"#utility.yul\":267:298   */\n  dup2\n  and\n    /* \"#utility.yul\":257:299   */\n  dup2\n  eq\n    /* \"#utility.yul\":247:317   */\n  tag_22\n  jumpi\n    /* \"#utility.yul\":313:314   */\n  0x00\n    /* \"#utility.yul\":310:311   */\n  dup1\n    /* \"#utility.yul\":303:315   */\n  revert\n    /* \"#utility.yul\":247:317   */\ntag_22:\n    /* \"#utility.yul\":146:323   */\n  swap2\n  swap1\n  pop\n  jump\t// out\n    /* \"#utility.yul\":328:1443   */\ntag_3:\n    /* \"#utility.yul\":426:432   */\n  0x00\n    /* \"#utility.yul\":434:440   */\n  dup1\n    /* \"#utility.yul\":442:448   */\n  0x00\n    /* \"#utility.yul\":495:497   */\n  0x60\n    /* \"#utility.yul\":483:492   */\n  dup5\n    /* \"#utility.yul\":474:481   */\n  dup7\n    /* \"#utility.yul\":470:493   */\n  sub\n    /* \"#utility.yul\":466:498   */\n  slt\n    /* \"#utility.yul\":463:515   */\n  iszero\n  tag_24\n  jumpi\n    /* \"#utility.yul\":511:512   */\n  0x00\n    /* \"#utility.yul\":508:509   */\n  dup1\n    /* \"#utility.yul\":501:513   */\n  revert\n    /* \"#utility.yul\":463:515   */\ntag_24:\n    /* \"#utility.yul\":538:554   */\n  dup4\n  mload\n  sub(shl(0x40, 0x01), 0x01)\n    /* \"#utility.yul\":566:596   */\n  dup2\n  gt\n    /* \"#utility.yul\":563:613   */\n  iszero\n  tag_25\n  jumpi\n    /* \"#utility.yul\":609:610   */\n  0x00\n    /* \"#utility.yul\":606:607   */\n  dup1\n    /* \"#utility.yul\":599:611   */\n  revert\n    /* \"#utility.yul\":563:613   */\ntag_25:\n    /* \"#utility.yul\":632:654   */\n  dup5\n  add\n    /* \"#utility.yul\":685:689   */\n  0x1f\n    /* \"#utility.yul\":677:690   */\n  dup2\n  add\n    /* \"#utility.yul\":673:700   */\n  dup7\n  sgt\n    /* \"#utility.yul\":663:718   */\n  tag_26\n  jumpi\n    /* \"#utility.yul\":714:715   */\n  0x00\n    /* \"#utility.yul\":711:712   */\n  dup1\n    /* \"#utility.yul\":704:716   */\n  revert\n    /* \"#utility.yul\":663:718   */\ntag_26:\n    /* \"#utility.yul\":741:750   */\n  dup1\n  mload\n  sub(shl(0x40, 0x01), 0x01)\n    /* \"#utility.yul\":762:792   */\n  dup2\n  gt\n    /* \"#utility.yul\":759:815   */\n  iszero\n  tag_28\n  jumpi\n    /* \"#utility.yul\":795:813   */\n  tag_28\n  tag_13\n  jump\t// in\ntag_28:\n    /* \"#utility.yul\":844:846   */\n  0x40\n    /* \"#utility.yul\":838:847   */\n  mload\n    /* \"#utility.yul\":936:938   */\n  0x1f\n    /* \"#utility.yul\":898:915   */\n  dup3\n  add\n  not(0x1f)\n    /* \"#utility.yul\":894:925   */\n  swap1\n  dup2\n  and\n    /* \"#utility.yul\":927:929   */\n  0x3f\n    /* \"#utility.yul\":890:930   */\n  add\n    /* \"#utility.yul\":886:940   */\n  and\n    /* \"#utility.yul\":874:941   */\n  dup2\n  add\n  sub(shl(0x40, 0x01), 0x01)\n    /* \"#utility.yul\":956:990   */\n  dup2\n  gt\n    /* \"#utility.yul\":992:1014   */\n  dup3\n  dup3\n  lt\n    /* \"#utility.yul\":953:1015   */\n  or\n    /* \"#utility.yul\":950:1038   */\n  iszero\n  tag_30\n  jumpi\n    /* \"#utility.yul\":1018:1036   */\n  tag_30\n  tag_13\n  jump\t// in\ntag_30:\n    /* \"#utility.yul\":1054:1056   */\n  0x40\n    /* \"#utility.yul\":1047:1069   */\n  mstore\n    /* \"#utility.yul\":1078:1100   */\n  dup2\n  dup2\n  mstore\n    /* \"#utility.yul\":1119:1134   */\n  dup3\n  dup3\n  add\n    /* \"#utility.yul\":1136:1140   */\n  0x20\n    /* \"#utility.yul\":1115:1141   */\n  add\n    /* \"#utility.yul\":1112:1151   */\n  dup9\n  lt\n    /* \"#utility.yul\":1109:1168   */\n  iszero\n  tag_31\n  jumpi\n    /* \"#utility.yul\":1164:1165   */\n  0x00\n    /* \"#utility.yul\":1161:1162   */\n  dup1\n    /* \"#utility.yul\":1154:1166   */\n  revert\n    /* \"#utility.yul\":1109:1168   */\ntag_31:\n    /* \"#utility.yul\":1217:1223   */\n  dup2\n    /* \"#utility.yul\":1210:1214   */\n  0x20\n    /* \"#utility.yul\":1206:1208   */\n  dup5\n    /* \"#utility.yul\":1202:1215   */\n  add\n    /* \"#utility.yul\":1195:1199   */\n  0x20\n    /* \"#utility.yul\":1187:1193   */\n  dup4\n    /* \"#utility.yul\":1183:1200   */\n  add\n    /* \"#utility.yul\":1177:1224   */\n  mcopy\n    /* \"#utility.yul\":1272:1273   */\n  0x00\n    /* \"#utility.yul\":1265:1269   */\n  0x20\n    /* \"#utility.yul\":1256:1262   */\n  dup4\n    /* \"#utility.yul\":1248:1254   */\n  dup4\n    /* \"#utility.yul\":1244:1263   */\n  add\n    /* \"#utility.yul\":1240:1270   */\n  add\n    /* \"#utility.yul\":1233:1274   */\n  mstore\n    /* \"#utility.yul\":1293:1299   */\n  dup1\n    /* \"#utility.yul\":1283:1299   */\n  swap6\n  pop\n  pop\n  pop\n  pop\n    /* \"#utility.yul\":1318:1369   */\n  tag_32\n    /* \"#utility.yul\":1363:1367   */\n  0x20\n    /* \"#utility.yul\":1352:1361   */\n  dup6\n    /* \"#utility.yul\":1348:1368   */\n  add\n    /* \"#utility.yul\":1318:1369   */\n  tag_14\n  jump\t// in\ntag_32:\n    /* \"#utility.yul\":1308:1369   */\n  swap2\n  pop\n    /* \"#utility.yul\":1388:1437   */\n  tag_33\n    /* \"#utility.yul\":1433:1435   */\n  0x40\n    /* \"#utility.yul\":1422:1431   */\n  dup6\n    /* \"#utility.yul\":1418:1436   */\n  add\n    /* \"#utility.yul\":1388:1437   */\n  tag_14\n  jump\t// in\ntag_33:\n    /* \"#utility.yul\":1378:1437   */\n  swap1\n  pop\n    /* \"#utility.yul\":328:1443   */\n  swap3\n  pop\n  swap3\n  pop\n  swap3\n  jump\t// out\n    /* \"#utility.yul\":1448:1828   */\ntag_15:\n    /* \"#utility.yul\":1527:1528   */\n  0x01\n    /* \"#utility.yul\":1523:1535   */\n  dup2\n  dup2\n  shr\n  swap1\n    /* \"#utility.yul\":1570:1582   */\n  dup3\n  and\n  dup1\n    /* \"#utility.yul\":1591:1652   */\n  tag_35\n  jumpi\n    /* \"#utility.yul\":1645:1649   */\n  0x7f\n    /* \"#utility.yul\":1637:1643   */\n  dup3\n    /* \"#utility.yul\":1633:1650   */\n  and\n    /* \"#utility.yul\":1623:1650   */\n  swap2\n  pop\n    /* \"#utility.yul\":1591:1652   */\ntag_35:\n    /* \"#utility.yul\":1698:1700   */\n  0x20\n    /* \"#utility.yul\":1690:1696   */\n  dup3\n    /* \"#utility.yul\":1687:1701   */\n  lt\n    /* \"#utility.yul\":1667:1685   */\n  dup2\n    /* \"#utility.yul\":1664:1702   */\n  sub\n    /* \"#utility.yul\":1661:1822   */\n  tag_36\n  jumpi\n    /* \"#utility.yul\":1744:1754   */\n  0x4e487b71\n    /* \"#utility.yul\":1739:1742   */\n  0xe0\n    /* \"#utility.yul\":1735:1755   */\n  shl\n    /* \"#utility.yul\":1732:1733   */\n  0x00\n    /* \"#utility.yul\":1725:1756   */\n  mstore\n    /* \"#utility.yul\":1779:1783   */\n  0x22\n    /* \"#utility.yul\":1776:1777   */\n  0x04\n    /* \"#utility.yul\":1769:1784   */\n  mstore\n    /* \"#utility.yul\":1807:1811   */\n  0x24\n    /* \"#utility.yul\":1804:1805   */\n  0x00\n    /* \"#utility.yul\":1797:1812   */\n  revert\n    /* \"#utility.yul\":1661:1822   */\ntag_36:\n  pop\n    /* \"#utility.yul\":1448:1828   */\n  swap2\n  swap1\n  pop\n  jump\t// out\n    /* \"#utility.yul\":1959:2477   */\ntag_17:\n    /* \"#utility.yul\":2061:2063   */\n  0x1f\n    /* \"#utility.yul\":2056:2059   */\n  dup3\n    /* \"#utility.yul\":2053:2064   */\n  gt\n    /* \"#utility.yul\":2050:2471   */\n  iszero\n  tag_39\n  jumpi\n    /* \"#utility.yul\":2097:2102   */\n  dup1\n    /* \"#utility.yul\":2094:2095   */\n  0x00\n    /* \"#utility.yul\":2087:2103   */\n  mstore\n    /* \"#utility.yul\":2141:2145   */\n  0x20\n    /* \"#utility.yul\":2138:2139   */\n  0x00\n    /* \"#utility.yul\":2128:2146   */\n  keccak256\n    /* \"#utility.yul\":2211:2213   */\n  0x1f\n    /* \"#utility.yul\":2199:2209   */\n  dup5\n    /* \"#utility.yul\":2195:2214   */\n  add\n    /* \"#utility.yul\":2192:2193   */\n  0x05\n    /* \"#utility.yul\":2188:2215   */\n  shr\n    /* \"#utility.yul\":2182:2186   */\n  dup2\n    /* \"#utility.yul\":2178:2216   */\n  add\n    /* \"#utility.yul\":2247:2251   */\n  0x20\n    /* \"#utility.yul\":2235:2245   */\n  dup6\n    /* \"#utility.yul\":2232:2252   */\n  lt\n    /* \"#utility.yul\":2229:2276   */\n  iszero\n  tag_40\n  jumpi\n  pop\n    /* \"#utility.yul\":2270:2274   */\n  dup1\n    /* \"#utility.yul\":2229:2276   */\ntag_40:\n    /* \"#utility.yul\":2325:2327   */\n  0x1f\n    /* \"#utility.yul\":2320:2323   */\n  dup5\n    /* \"#utility.yul\":2316:2328   */\n  add\n    /* \"#utility.yul\":2313:2314   */\n  0x05\n    /* \"#utility.yul\":2309:2329   */\n  shr\n    /* \"#utility.yul\":2303:2307   */\n  dup3\n    /* \"#utility.yul\":2299:2330   */\n  add\n    /* \"#utility.yul\":2289:2330   */\n  swap2\n  pop\n    /* \"#utility.yul\":2380:2461   */\ntag_41:\n    /* \"#utility.yul\":2398:2400   */\n  dup2\n    /* \"#utility.yul\":2391:2396   */\n  dup2\n    /* \"#utility.yul\":2388:2401   */\n  lt\n    /* \"#utility.yul\":2380:2461   */\n  iszero\n  tag_43\n  jumpi\n    /* \"#utility.yul\":2457:2458   */\n  0x00\n    /* \"#utility.yul\":2443:2459   */\n  dup2\n  sstore\n    /* \"#utility.yul\":2424:2425   */\n  0x01\n    /* \"#utility.yul\":2413:2426   */\n  add\n    /* \"#utility.yul\":2380:2461   */\n  jump(tag_41)\ntag_43:\n    /* \"#utility.yul\":2384:2387   */\n  pop\n  pop\n    /* \"#utility.yul\":2050:2471   */\ntag_39:\n    /* \"#utility.yul\":1959:2477   */\n  pop\n  pop\n  pop\n  jump\t// out\n    /* \"#utility.yul\":2653:3952   */\ntag_7:\n    /* \"#utility.yul\":2773:2783   */\n  dup2\n  mload\n  sub(shl(0x40, 0x01), 0x01)\n    /* \"#utility.yul\":2795:2825   */\n  dup2\n  gt\n    /* \"#utility.yul\":2792:2848   */\n  iszero\n  tag_47\n  jumpi\n    /* \"#utility.yul\":2828:2846   */\n  tag_47\n  tag_13\n  jump\t// in\ntag_47:\n    /* \"#utility.yul\":2857:2954   */\n  tag_48\n    /* \"#utility.yul\":2947:2953   */\n  dup2\n    /* \"#utility.yul\":2907:2945   */\n  tag_49\n    /* \"#utility.yul\":2939:2943   */\n  dup5\n    /* \"#utility.yul\":2933:2944   */\n  sload\n    /* \"#utility.yul\":2907:2945   */\n  tag_15\n  jump\t// in\ntag_49:\n    /* \"#utility.yul\":2901:2905   */\n  dup5\n    /* \"#utility.yul\":2857:2954   */\n  tag_17\n  jump\t// in\ntag_48:\n    /* \"#utility.yul\":3003:3007   */\n  0x20\n    /* \"#utility.yul\":3034:3036   */\n  0x1f\n    /* \"#utility.yul\":3023:3037   */\n  dup3\n  gt\n    /* \"#utility.yul\":3051:3052   */\n  0x01\n    /* \"#utility.yul\":3046:3695   */\n  dup2\n  eq\n  tag_51\n  jumpi\n    /* \"#utility.yul\":3739:3740   */\n  0x00\n    /* \"#utility.yul\":3756:3762   */\n  dup4\n    /* \"#utility.yul\":3753:3842   */\n  iszero\n  tag_52\n  jumpi\n  pop\n    /* \"#utility.yul\":3808:3827   */\n  dup5\n  dup3\n  add\n    /* \"#utility.yul\":3802:3828   */\n  mload\n    /* \"#utility.yul\":3753:3842   */\ntag_52:\n  not(0x00)\n    /* \"#utility.yul\":2610:2611   */\n  0x03\n    /* \"#utility.yul\":2606:2617   */\n  dup6\n  swap1\n  shl\n    /* \"#utility.yul\":2602:2626   */\n  shr\n    /* \"#utility.yul\":2598:2627   */\n  not\n    /* \"#utility.yul\":2588:2628   */\n  and\n    /* \"#utility.yul\":2634:2635   */\n  0x01\n    /* \"#utility.yul\":2630:2641   */\n  dup5\n  swap1\n  shl\n    /* \"#utility.yul\":2585:2642   */\n  or\n    /* \"#utility.yul\":3855:3936   */\n  dup5\n  sstore\n    /* \"#utility.yul\":3016:3946   */\n  jump(tag_43)\n    /* \"#utility.yul\":3046:3695   */\ntag_51:\n    /* \"#utility.yul\":1906:1907   */\n  0x00\n    /* \"#utility.yul\":1899:1913   */\n  dup5\n  dup2\n  mstore\n    /* \"#utility.yul\":1943:1947   */\n  0x20\n    /* \"#utility.yul\":1930:1948   */\n  dup2\n  keccak256\n  not(0x1f)\n    /* \"#utility.yul\":3082:3102   */\n  dup6\n  and\n  swap2\n    /* \"#utility.yul\":3200:3422   */\ntag_55:\n    /* \"#utility.yul\":3214:3221   */\n  dup3\n    /* \"#utility.yul\":3211:3212   */\n  dup2\n    /* \"#utility.yul\":3208:3222   */\n  lt\n    /* \"#utility.yul\":3200:3422   */\n  iszero\n  tag_57\n  jumpi\n    /* \"#utility.yul\":3296:3315   */\n  dup8\n  dup6\n  add\n    /* \"#utility.yul\":3290:3316   */\n  mload\n    /* \"#utility.yul\":3275:3317   */\n  dup3\n  sstore\n    /* \"#utility.yul\":3403:3407   */\n  0x20\n    /* \"#utility.yul\":3388:3408   */\n  swap5\n  dup6\n  add\n  swap5\n    /* \"#utility.yul\":3356:3357   */\n  0x01\n    /* \"#utility.yul\":3344:3358   */\n  swap1\n  swap3\n  add\n  swap2\n    /* \"#utility.yul\":3230:3242   */\n  add\n    /* \"#utility.yul\":3200:3422   */\n  jump(tag_55)\ntag_57:\n    /* \"#utility.yul\":3204:3207   */\n  pop\n    /* \"#utility.yul\":3450:3456   */\n  dup5\n    /* \"#utility.yul\":3441:3448   */\n  dup3\n    /* \"#utility.yul\":3438:3457   */\n  lt\n    /* \"#utility.yul\":3435:3636   */\n  iszero\n  tag_58\n  jumpi\n    /* \"#utility.yul\":3511:3530   */\n  dup7\n  dup5\n  add\n    /* \"#utility.yul\":3505:3531   */\n  mload\n  not(0x00)\n    /* \"#utility.yul\":3594:3595   */\n  0x03\n    /* \"#utility.yul\":3590:3604   */\n  dup8\n  swap1\n  shl\n    /* \"#utility.yul\":3606:3609   */\n  0xf8\n    /* \"#utility.yul\":3586:3610   */\n  and\n    /* \"#utility.yul\":3582:3619   */\n  shr\n    /* \"#utility.yul\":3578:3620   */\n  not\n    /* \"#utility.yul\":3563:3621   */\n  and\n    /* \"#utility.yul\":3548:3622   */\n  dup2\n  sstore\n    /* \"#utility.yul\":3435:3636   */\ntag_58:\n  pop\n  pop\n  pop\n  pop\n    /* \"#utility.yul\":3682:3683   */\n  0x01\n    /* \"#utility.yul\":3666:3680   */\n  swap1\n  dup2\n  shl\n    /* \"#utility.yul\":3662:3684   */\n  add\n    /* \"#utility.yul\":3649:3685   */\n  swap1\n  sstore\n  pop\n    /* \"#utility.yul\":2653:3952   */\n  jump\t// out\n    /* \"#utility.yul\":3957:4257   */\ntag_19:\n    /* \"Organisation.sol\":140:3005  contract Organisation{... */\n  dataSize(sub_0)\n  dup1\n  dataOffset(sub_0)\n  0x00\n  codecopy\n  0x00\n  return\nstop\n\nsub_0: assembly {\n        /* \"Organisation.sol\":140:3005  contract Organisation{... */\n      mstore(0x40, 0x80)\n      callvalue\n      dup1\n      iszero\n      tag_1\n      jumpi\n      0x00\n      dup1\n      revert\n    tag_1:\n      pop\n      jumpi(tag_2, lt(calldatasize, 0x04))\n      shr(0xe0, calldataload(0x00))\n      dup1\n      0x45e39705\n      gt\n      tag_11\n      jumpi\n      dup1\n      0x45e39705\n      eq\n      tag_7\n      jumpi\n      dup1\n      0x9eab5253\n      eq\n      tag_8\n      jumpi\n      dup1\n      0xb9daf3e2\n      eq\n      tag_9\n      jumpi\n      dup1\n      0xd7c4310f\n      eq\n      tag_10\n      jumpi\n      0x00\n      dup1\n      revert\n    tag_11:\n      dup1\n      0x0b1ca49a\n      eq\n      tag_3\n      jumpi\n      dup1\n      0x17d7de7c\n      eq\n      tag_4\n      jumpi\n      dup1\n      0x26e3bc4e\n      eq\n      tag_5\n      jumpi\n      dup1\n      0x369080e7\n      eq\n      tag_6\n      jumpi\n    tag_2:\n      0x00\n      dup1\n      revert\n        /* \"Organisation.sol\":1705:1981  function removeMember(address _addr) external ownerOrSelfOnly(_addr) {... */\n    tag_3:\n      tag_12\n      tag_13\n      calldatasize\n      0x04\n      tag_14\n      jump\t// in\n    tag_13:\n      tag_15\n      jump\t// in\n    tag_12:\n      stop\n        /* \"Organisation.sol\":1205:1305  function getName() external view memberOnly returns (string memory) {... */\n    tag_4:\n      tag_16\n      tag_17\n      jump\t// in\n    tag_16:\n      mload(0x40)\n      tag_18\n      swap2\n      swap1\n      tag_19\n      jump\t// in\n    tag_18:\n      mload(0x40)\n      dup1\n      swap2\n      sub\n      swap1\n      return\n        /* \"Organisation.sol\":2596:3000  function deleteItem(Constants.ItemType _type, address _addr) external memberOnly {... */\n    tag_5:\n      tag_12\n      tag_21\n      calldatasize\n      0x04\n      tag_22\n      jump\t// in\n    tag_21:\n      tag_23\n      jump\t// in\n        /* \"Organisation.sol\":2316:2588  function addItem(Constants.ItemType _type, address _addr) external memberOnly {... */\n    tag_6:\n      tag_12\n      tag_25\n      calldatasize\n      0x04\n      tag_22\n      jump\t// in\n    tag_25:\n      tag_26\n      jump\t// in\n        /* \"Organisation.sol\":1437:1693  function addMember(string memory _name, address _addr) external ownerOnly {... */\n    tag_7:\n      tag_12\n      tag_28\n      calldatasize\n      0x04\n      tag_29\n      jump\t// in\n    tag_28:\n      tag_30\n      jump\t// in\n        /* \"Organisation.sol\":1313:1429  function getMembers() external view ownerOnly returns (OrgUtils.Member[] memory) {... */\n    tag_8:\n      tag_31\n      tag_32\n      jump\t// in\n    tag_31:\n      mload(0x40)\n      tag_18\n      swap2\n      swap1\n      tag_34\n      jump\t// in\n        /* \"Organisation.sol\":1093:1197  function isOwn() external view memberOnly returns (bool) {... */\n    tag_9:\n      tag_35\n      tag_36\n      jump\t// in\n    tag_35:\n      mload(0x40)\n        /* \"#utility.yul\":3713:3727   */\n      swap1\n      iszero\n        /* \"#utility.yul\":3706:3728   */\n      iszero\n        /* \"#utility.yul\":3688:3729   */\n      dup2\n      mstore\n        /* \"#utility.yul\":3676:3678   */\n      0x20\n        /* \"#utility.yul\":3661:3679   */\n      add\n        /* \"Organisation.sol\":1093:1197  function isOwn() external view memberOnly returns (bool) {... */\n      tag_18\n        /* \"#utility.yul\":3548:3735   */\n      jump\n        /* \"Organisation.sol\":1989:2308  function getItems(Constants.ItemType _type) external view memberOnly returns (address[] memory) {... */\n    tag_10:\n      tag_39\n      tag_40\n      calldatasize\n      0x04\n      tag_41\n      jump\t// in\n    tag_40:\n      tag_42\n      jump\t// in\n    tag_39:\n      mload(0x40)\n      tag_18\n      swap2\n      swap1\n      tag_44\n      jump\t// in\n        /* \"Organisation.sol\":1705:1981  function removeMember(address _addr) external ownerOrSelfOnly(_addr) {... */\n    tag_15:\n        /* \"Organisation.sol\":963:968  owner */\n      sload(0x03)\n        /* \"Organisation.sol\":1767:1772  _addr */\n      dup2\n      swap1\n      sub(shl(0xa0, 0x01), 0x01)\n        /* \"Organisation.sol\":963:968  owner */\n      and\n        /* \"Organisation.sol\":949:959  msg.sender */\n      caller\n        /* \"Organisation.sol\":949:968  msg.sender == owner */\n      eq\n      dup1\n        /* \"Organisation.sol\":949:1045  msg.sender == owner || (OrgUtils.findOrgMember(msg.sender, members) > -1 && msg.sender == self ) */\n      tag_58\n      jumpi\n      pop\n      not(0x00)\n        /* \"Organisation.sol\":973:1016  OrgUtils.findOrgMember(msg.sender, members) */\n      tag_47\n        /* \"Organisation.sol\":996:1006  msg.sender */\n      caller\n        /* \"Organisation.sol\":1008:1015  members */\n      0x01\n        /* \"Organisation.sol\":973:1016  OrgUtils.findOrgMember(msg.sender, members) */\n      dup1\n      sload\n      dup1\n      0x20\n      mul\n      0x20\n      add\n      mload(0x40)\n      swap1\n      dup2\n      add\n      0x40\n      mstore\n      dup1\n      swap3\n      swap2\n      swap1\n      dup2\n      dup2\n      mstore\n      0x20\n      add\n      0x00\n      swap1\n    tag_48:\n      dup3\n      dup3\n      lt\n      iszero\n      tag_49\n      jumpi\n      dup4\n      dup3\n      swap1\n      0x00\n      mstore\n      keccak256(0x00, 0x20)\n      swap1\n      0x02\n      mul\n      add\n      mload(0x40)\n      dup1\n      0x40\n      add\n      0x40\n      mstore\n      swap1\n      dup2\n      0x00\n      dup3\n      add\n      dup1\n      sload\n      tag_51\n      swap1\n      tag_52\n      jump\t// in\n    tag_51:\n      dup1\n      0x1f\n      add\n      0x20\n      dup1\n      swap2\n      div\n      mul\n      0x20\n      add\n      mload(0x40)\n      swap1\n      dup2\n      add\n      0x40\n      mstore\n      dup1\n      swap3\n      swap2\n      swap1\n      dup2\n      dup2\n      mstore\n      0x20\n      add\n      dup3\n      dup1\n      sload\n      tag_53\n      swap1\n      tag_52\n      jump\t// in\n    tag_53:\n      dup1\n      iszero\n      tag_54\n      jumpi\n      dup1\n      0x1f\n      lt\n      tag_55\n      jumpi\n      0x0100\n      dup1\n      dup4\n      sload\n      div\n      mul\n      dup4\n      mstore\n      swap2\n      0x20\n      add\n      swap2\n      jump(tag_54)\n    tag_55:\n      dup3\n      add\n      swap2\n      swap1\n      0x00\n      mstore\n      keccak256(0x00, 0x20)\n      swap1\n    tag_56:\n      dup2\n      sload\n      dup2\n      mstore\n      swap1\n      0x01\n      add\n      swap1\n      0x20\n      add\n      dup1\n      dup4\n      gt\n      tag_56\n      jumpi\n      dup3\n      swap1\n      sub\n      0x1f\n      and\n      dup3\n      add\n      swap2\n    tag_54:\n      pop\n      pop\n      pop\n      swap2\n      dup4\n      mstore\n      pop\n      pop\n      0x01\n      swap2\n      dup3\n      add\n      sload\n      sub(shl(0xa0, 0x01), 0x01)\n      and\n      0x20\n      swap2\n      dup3\n      add\n      mstore\n      swap2\n      dup4\n      mstore\n      swap3\n      swap1\n      swap3\n      add\n      swap2\n      add\n      jump(tag_48)\n    tag_49:\n      pop\n      pop\n      pop\n      pop\n        /* \"Organisation.sol\":973:995  OrgUtils.findOrgMember */\n      tag_57\n        /* \"Organisation.sol\":973:1016  OrgUtils.findOrgMember(msg.sender, members) */\n      jump\t// in\n    tag_47:\n        /* \"Organisation.sol\":973:1021  OrgUtils.findOrgMember(msg.sender, members) > -1 */\n      sgt\n        /* \"Organisation.sol\":973:1043  OrgUtils.findOrgMember(msg.sender, members) > -1 && msg.sender == self */\n      dup1\n      iszero\n      tag_58\n      jumpi\n      pop\n        /* \"Organisation.sol\":1025:1035  msg.sender */\n      caller\n      sub(shl(0xa0, 0x01), 0x01)\n        /* \"Organisation.sol\":1025:1043  msg.sender == self */\n      dup3\n      and\n      eq\n        /* \"Organisation.sol\":973:1043  OrgUtils.findOrgMember(msg.sender, members) > -1 && msg.sender == self */\n    tag_58:\n        /* \"Organisation.sol\":940:1065  require( msg.sender == owner || (OrgUtils.findOrgMember(msg.sender, members) > -1 && msg.sender == self ), \"Only owner|self\") */\n      tag_59\n      jumpi\n      mload(0x40)\n      shl(0xe5, 0x461bcd)\n      dup2\n      mstore\n        /* \"#utility.yul\":5176:5178   */\n      0x20\n        /* \"Organisation.sol\":940:1065  require( msg.sender == owner || (OrgUtils.findOrgMember(msg.sender, members) > -1 && msg.sender == self ), \"Only owner|self\") */\n      0x04\n      dup3\n      add\n        /* \"#utility.yul\":5158:5179   */\n      mstore\n        /* \"#utility.yul\":5215:5217   */\n      0x0f\n        /* \"#utility.yul\":5195:5213   */\n      0x24\n      dup3\n      add\n        /* \"#utility.yul\":5188:5218   */\n      mstore\n      shl(0x89, 0x27b7363c9037bbb732b93e39b2b633)\n        /* \"#utility.yul\":5234:5252   */\n      0x44\n      dup3\n      add\n        /* \"#utility.yul\":5227:5272   */\n      mstore\n        /* \"#utility.yul\":5289:5307   */\n      0x64\n      add\n        /* \"Organisation.sol\":940:1065  require( msg.sender == owner || (OrgUtils.findOrgMember(msg.sender, members) > -1 && msg.sender == self ), \"Only owner|self\") */\n    tag_60:\n      mload(0x40)\n      dup1\n      swap2\n      sub\n      swap1\n      revert\n    tag_59:\n        /* \"Organisation.sol\":1785:1794  int index */\n      0x00\n        /* \"Organisation.sol\":1797:1837  OrgUtils.findOrgMember( _addr, members ) */\n      tag_63\n        /* \"Organisation.sol\":1821:1826  _addr */\n      dup4\n        /* \"Organisation.sol\":1828:1835  members */\n      0x01\n        /* \"Organisation.sol\":1797:1837  OrgUtils.findOrgMember( _addr, members ) */\n      dup1\n      sload\n      dup1\n      0x20\n      mul\n      0x20\n      add\n      mload(0x40)\n      swap1\n      dup2\n      add\n      0x40\n      mstore\n      dup1\n      swap3\n      swap2\n      swap1\n      dup2\n      dup2\n      mstore\n      0x20\n      add\n      0x00\n      swap1\n    tag_64:\n      dup3\n      dup3\n      lt\n      iszero\n      tag_49\n      jumpi\n      dup4\n      dup3\n      swap1\n      0x00\n      mstore\n      keccak256(0x00, 0x20)\n      swap1\n      0x02\n      mul\n      add\n      mload(0x40)\n      dup1\n      0x40\n      add\n      0x40\n      mstore\n      swap1\n      dup2\n      0x00\n      dup3\n      add\n      dup1\n      sload\n      tag_67\n      swap1\n      tag_52\n      jump\t// in\n    tag_67:\n      dup1\n      0x1f\n      add\n      0x20\n      dup1\n      swap2\n      div\n      mul\n      0x20\n      add\n      mload(0x40)\n      swap1\n      dup2\n      add\n      0x40\n      mstore\n      dup1\n      swap3\n      swap2\n      swap1\n      dup2\n      dup2\n      mstore\n      0x20\n      add\n      dup3\n      dup1\n      sload\n      tag_68\n      swap1\n      tag_52\n      jump\t// in\n    tag_68:\n      dup1\n      iszero\n      tag_69\n      jumpi\n      dup1\n      0x1f\n      lt\n      tag_70\n      jumpi\n      0x0100\n      dup1\n      dup4\n      sload\n      div\n      mul\n      dup4\n      mstore\n      swap2\n      0x20\n      add\n      swap2\n      jump(tag_69)\n    tag_70:\n      dup3\n      add\n      swap2\n      swap1\n      0x00\n      mstore\n      keccak256(0x00, 0x20)\n      swap1\n    tag_71:\n      dup2\n      sload\n      dup2\n      mstore\n      swap1\n      0x01\n      add\n      swap1\n      0x20\n      add\n      dup1\n      dup4\n      gt\n      tag_71\n      jumpi\n      dup3\n      swap1\n      sub\n      0x1f\n      and\n      dup3\n      add\n      swap2\n    tag_69:\n      pop\n      pop\n      pop\n      swap2\n      dup4\n      mstore\n      pop\n      pop\n      0x01\n      swap2\n      dup3\n      add\n      sload\n      sub(shl(0xa0, 0x01), 0x01)\n      and\n      0x20\n      swap2\n      dup3\n      add\n      mstore\n      swap2\n      dup4\n      mstore\n      swap3\n      swap1\n      swap3\n      add\n      swap2\n      add\n      jump(tag_64)\n    tag_63:\n        /* \"Organisation.sol\":1785:1837  int index = OrgUtils.findOrgMember( _addr, members ) */\n      swap1\n      pop\n        /* \"Organisation.sol\":1854:1859  index */\n      dup1\n      not(0x00)\n        /* \"Organisation.sol\":1854:1865  index != -1 */\n      eq\n        /* \"Organisation.sol\":1850:1886  if( index != -1 ) revert(\"No index\") */\n      tag_72\n      jumpi\n        /* \"Organisation.sol\":1868:1886  revert(\"No index\") */\n      mload(0x40)\n      shl(0xe5, 0x461bcd)\n      dup2\n      mstore\n        /* \"#utility.yul\":5520:5522   */\n      0x20\n        /* \"Organisation.sol\":1868:1886  revert(\"No index\") */\n      0x04\n      dup3\n      add\n        /* \"#utility.yul\":5502:5523   */\n      mstore\n        /* \"#utility.yul\":5559:5560   */\n      0x08\n        /* \"#utility.yul\":5539:5557   */\n      0x24\n      dup3\n      add\n        /* \"#utility.yul\":5532:5561   */\n      mstore\n      shl(0xc3, 0x09cde40d2dcc8caf)\n        /* \"#utility.yul\":5577:5595   */\n      0x44\n      dup3\n      add\n        /* \"#utility.yul\":5570:5608   */\n      mstore\n        /* \"#utility.yul\":5625:5643   */\n      0x64\n      add\n        /* \"Organisation.sol\":1868:1886  revert(\"No index\") */\n      tag_60\n        /* \"#utility.yul\":5318:5649   */\n      jump\n        /* \"Organisation.sol\":1850:1886  if( index != -1 ) revert(\"No index\") */\n    tag_72:\n        /* \"Organisation.sol\":1922:1929  members */\n      0x01\n        /* \"Organisation.sol\":1930:1944  members.length */\n      dup1\n      sload\n        /* \"Organisation.sol\":1930:1948  members.length - 1 */\n      tag_75\n      swap1\n        /* \"Organisation.sol\":1922:1929  members */\n      dup3\n      swap1\n        /* \"Organisation.sol\":1930:1948  members.length - 1 */\n      tag_76\n      jump\t// in\n    tag_75:\n        /* \"Organisation.sol\":1922:1949  members[members.length - 1] */\n      dup2\n      sload\n      dup2\n      lt\n      tag_78\n      jumpi\n      tag_78\n      tag_79\n      jump\t// in\n    tag_78:\n      swap1\n      0x00\n      mstore\n      keccak256(0x00, 0x20)\n      swap1\n      0x02\n      mul\n      add\n        /* \"Organisation.sol\":1899:1906  members */\n      0x01\n        /* \"Organisation.sol\":1912:1917  index */\n      dup3\n        /* \"Organisation.sol\":1899:1919  members[uint(index)] */\n      dup2\n      sload\n      dup2\n      lt\n      tag_82\n      jumpi\n      tag_82\n      tag_79\n      jump\t// in\n    tag_82:\n      0x00\n      swap2\n      dup3\n      mstore\n      0x20\n      swap1\n      swap2\n      keccak256\n      0x02\n      swap1\n      swap2\n      mul\n      add\n      dup1\n        /* \"Organisation.sol\":1899:1949  members[uint(index)] = members[members.length - 1] */\n      tag_84\n      dup4\n        /* \"Organisation.sol\":1899:1919  members[uint(index)] */\n      dup3\n        /* \"Organisation.sol\":1899:1949  members[uint(index)] = members[members.length - 1] */\n      tag_85\n      jump\t// in\n    tag_84:\n      pop\n      0x01\n      swap2\n      dup3\n      add\n      sload\n      swap1\n      dup3\n      add\n      dup1\n      sload\n      not(sub(shl(0xa0, 0x01), 0x01))\n      and\n      sub(shl(0xa0, 0x01), 0x01)\n      swap1\n      swap3\n      and\n      swap2\n      swap1\n      swap2\n      or\n      swap1\n      sstore\n        /* \"Organisation.sol\":1960:1973  members.pop() */\n      dup1\n      sload\n      dup1\n      tag_87\n      jumpi\n      tag_87\n      tag_88\n      jump\t// in\n    tag_87:\n      0x00\n      dup3\n      dup2\n      mstore\n      0x20\n      dup2\n      keccak256\n      not(0x00)\n      swap1\n      swap3\n      add\n      swap2\n      0x02\n      dup4\n      mul\n      add\n      swap1\n      tag_90\n      dup3\n      dup3\n      tag_91\n      jump\t// in\n    tag_90:\n      pop\n      0x01\n      add\n      dup1\n      sload\n      not(sub(shl(0xa0, 0x01), 0x01))\n      and\n      swap1\n      sstore\n      swap1\n      sstore\n      pop\n      pop\n      pop\n        /* \"Organisation.sol\":1705:1981  function removeMember(address _addr) external ownerOrSelfOnly(_addr) {... */\n      jump\t// out\n        /* \"Organisation.sol\":1205:1305  function getName() external view memberOnly returns (string memory) {... */\n    tag_17:\n        /* \"Organisation.sol\":1258:1271  string memory */\n      0x60\n      not(0x00)\n        /* \"Organisation.sol\":799:842  OrgUtils.findOrgMember(msg.sender, members) */\n      tag_93\n        /* \"Organisation.sol\":822:832  msg.sender */\n      caller\n        /* \"Organisation.sol\":834:841  members */\n      0x01\n        /* \"Organisation.sol\":799:842  OrgUtils.findOrgMember(msg.sender, members) */\n      dup1\n      sload\n      dup1\n      0x20\n      mul\n      0x20\n      add\n      mload(0x40)\n      swap1\n      dup2\n      add\n      0x40\n      mstore\n      dup1\n      swap3\n      swap2\n      swap1\n      dup2\n      dup2\n      mstore\n      0x20\n      add\n      0x00\n      swap1\n    tag_94:\n      dup3\n      dup3\n      lt\n      iszero\n      tag_49\n      jumpi\n      dup4\n      dup3\n      swap1\n      0x00\n      mstore\n      keccak256(0x00, 0x20)\n      swap1\n      0x02\n      mul\n      add\n      mload(0x40)\n      dup1\n      0x40\n      add\n      0x40\n      mstore\n      swap1\n      dup2\n      0x00\n      dup3\n      add\n      dup1\n      sload\n      tag_97\n      swap1\n      tag_52\n      jump\t// in\n    tag_97:\n      dup1\n      0x1f\n      add\n      0x20\n      dup1\n      swap2\n      div\n      mul\n      0x20\n      add\n      mload(0x40)\n      swap1\n      dup2\n      add\n      0x40\n      mstore\n      dup1\n      swap3\n      swap2\n      swap1\n      dup2\n      dup2\n      mstore\n      0x20\n      add\n      dup3\n      dup1\n      sload\n      tag_98\n      swap1\n      tag_52\n      jump\t// in\n    tag_98:\n      dup1\n      iszero\n      tag_99\n      jumpi\n      dup1\n      0x1f\n      lt\n      tag_100\n      jumpi\n      0x0100\n      dup1\n      dup4\n      sload\n      div\n      mul\n      dup4\n      mstore\n      swap2\n      0x20\n      add\n      swap2\n      jump(tag_99)\n    tag_100:\n      dup3\n      add\n      swap2\n      swap1\n      0x00\n      mstore\n      keccak256(0x00, 0x20)\n      swap1\n    tag_101:\n      dup2\n      sload\n      dup2\n      mstore\n      swap1\n      0x01\n      add\n      swap1\n      0x20\n      add\n      dup1\n      dup4\n      gt\n      tag_101\n      jumpi\n      dup3\n      swap1\n      sub\n      0x1f\n      and\n      dup3\n      add\n      swap2\n    tag_99:\n      pop\n      pop\n      pop\n      swap2\n      dup4\n      mstore\n      pop\n      pop\n      0x01\n      swap2\n      dup3\n      add\n      sload\n      sub(shl(0xa0, 0x01), 0x01)\n      and\n      0x20\n      swap2\n      dup3\n      add\n      mstore\n      swap2\n      dup4\n      mstore\n      swap3\n      swap1\n      swap3\n      add\n      swap2\n      add\n      jump(tag_94)\n    tag_93:\n        /* \"Organisation.sol\":799:847  OrgUtils.findOrgMember(msg.sender, members) > -1 */\n      sgt\n        /* \"Organisation.sol\":790:863  require( OrgUtils.findOrgMember(msg.sender, members) > -1, \"Only member\") */\n      tag_102\n      jumpi\n      mload(0x40)\n      shl(0xe5, 0x461bcd)\n      dup2\n      mstore\n      0x04\n      add\n      tag_60\n      swap1\n      tag_104\n      jump\t// in\n    tag_102:\n        /* \"Organisation.sol\":1293:1297  name */\n      0x00\n        /* \"Organisation.sol\":1286:1297  return name */\n      dup1\n      sload\n      tag_106\n      swap1\n      tag_52\n      jump\t// in\n    tag_106:\n      dup1\n      0x1f\n      add\n      0x20\n      dup1\n      swap2\n      div\n      mul\n      0x20\n      add\n      mload(0x40)\n      swap1\n      dup2\n      add\n      0x40\n      mstore\n      dup1\n      swap3\n      swap2\n      swap1\n      dup2\n      dup2\n      mstore\n      0x20\n      add\n      dup3\n      dup1\n      sload\n      tag_107\n      swap1\n      tag_52\n      jump\t// in\n    tag_107:\n      dup1\n      iszero\n      tag_108\n      jumpi\n      dup1\n      0x1f\n      lt\n      tag_109\n      jumpi\n      0x0100\n      dup1\n      dup4\n      sload\n      div\n      mul\n      dup4\n      mstore\n      swap2\n      0x20\n      add\n      swap2\n      jump(tag_108)\n    tag_109:\n      dup3\n      add\n      swap2\n      swap1\n      0x00\n      mstore\n      keccak256(0x00, 0x20)\n      swap1\n    tag_110:\n      dup2\n      sload\n      dup2\n      mstore\n      swap1\n      0x01\n      add\n      swap1\n      0x20\n      add\n      dup1\n      dup4\n      gt\n      tag_110\n      jumpi\n      dup3\n      swap1\n      sub\n      0x1f\n      and\n      dup3\n      add\n      swap2\n    tag_108:\n      pop\n      pop\n      pop\n      pop\n      pop\n      swap1\n      pop\n        /* \"Organisation.sol\":1205:1305  function getName() external view memberOnly returns (string memory) {... */\n      swap1\n      jump\t// out\n        /* \"Organisation.sol\":2596:3000  function deleteItem(Constants.ItemType _type, address _addr) external memberOnly {... */\n    tag_23:\n      not(0x00)\n        /* \"Organisation.sol\":799:842  OrgUtils.findOrgMember(msg.sender, members) */\n      tag_112\n        /* \"Organisation.sol\":822:832  msg.sender */\n      caller\n        /* \"Organisation.sol\":834:841  members */\n      0x01\n        /* \"Organisation.sol\":799:842  OrgUtils.findOrgMember(msg.sender, members) */\n      dup1\n      sload\n      dup1\n      0x20\n      mul\n      0x20\n      add\n      mload(0x40)\n      swap1\n      dup2\n      add\n      0x40\n      mstore\n      dup1\n      swap3\n      swap2\n      swap1\n      dup2\n      dup2\n      mstore\n      0x20\n      add\n      0x00\n      swap1\n    tag_113:\n      dup3\n      dup3\n      lt\n      iszero\n      tag_49\n      jumpi\n      dup4\n      dup3\n      swap1\n      0x00\n      mstore\n      keccak256(0x00, 0x20)\n      swap1\n      0x02\n      mul\n      add\n      mload(0x40)\n      dup1\n      0x40\n      add\n      0x40\n      mstore\n      swap1\n      dup2\n      0x00\n      dup3\n      add\n      dup1\n      sload\n      tag_116\n      swap1\n      tag_52\n      jump\t// in\n    tag_116:\n      dup1\n      0x1f\n      add\n      0x20\n      dup1\n      swap2\n      div\n      mul\n      0x20\n      add\n      mload(0x40)\n      swap1\n      dup2\n      add\n      0x40\n      mstore\n      dup1\n      swap3\n      swap2\n      swap1\n      dup2\n      dup2\n      mstore\n      0x20\n      add\n      dup3\n      dup1\n      sload\n      tag_117\n      swap1\n      tag_52\n      jump\t// in\n    tag_117:\n      dup1\n      iszero\n      tag_118\n      jumpi\n      dup1\n      0x1f\n      lt\n      tag_119\n      jumpi\n      0x0100\n      dup1\n      dup4\n      sload\n      div\n      mul\n      dup4\n      mstore\n      swap2\n      0x20\n      add\n      swap2\n      jump(tag_118)\n    tag_119:\n      dup3\n      add\n      swap2\n      swap1\n      0x00\n      mstore\n      keccak256(0x00, 0x20)\n      swap1\n    tag_120:\n      dup2\n      sload\n      dup2\n      mstore\n      swap1\n      0x01\n      add\n      swap1\n      0x20\n      add\n      dup1\n      dup4\n      gt\n      tag_120\n      jumpi\n      dup3\n      swap1\n      sub\n      0x1f\n      and\n      dup3\n      add\n      swap2\n    tag_118:\n      pop\n      pop\n      pop\n      swap2\n      dup4\n      mstore\n      pop\n      pop\n      0x01\n      swap2\n      dup3\n      add\n      sload\n      sub(shl(0xa0, 0x01), 0x01)\n      and\n      0x20\n      swap2\n      dup3\n      add\n      mstore\n      swap2\n      dup4\n      mstore\n      swap3\n      swap1\n      swap3\n      add\n      swap2\n      add\n      jump(tag_113)\n    tag_112:\n        /* \"Organisation.sol\":799:847  OrgUtils.findOrgMember(msg.sender, members) > -1 */\n      sgt\n        /* \"Organisation.sol\":790:863  require( OrgUtils.findOrgMember(msg.sender, members) > -1, \"Only member\") */\n      tag_121\n      jumpi\n      mload(0x40)\n      shl(0xe5, 0x461bcd)\n      dup2\n      mstore\n      0x04\n      add\n      tag_60\n      swap1\n      tag_104\n      jump\t// in\n    tag_121:\n        /* \"Organisation.sol\":2690:2700  int _index */\n      0x00\n        /* \"Organisation.sol\":2703:2746  OrgUtils.findOrgItem( _addr, Items[_type] ) */\n      tag_124\n        /* \"Organisation.sol\":2725:2730  _addr */\n      dup3\n        /* \"Organisation.sol\":2732:2737  Items */\n      0x02\n        /* \"Organisation.sol\":2732:2744  Items[_type] */\n      0x00\n        /* \"Organisation.sol\":2738:2743  _type */\n      dup7\n        /* \"Organisation.sol\":2732:2744  Items[_type] */\n      0x02\n      dup2\n      gt\n      iszero\n      tag_126\n      jumpi\n      tag_126\n      tag_127\n      jump\t// in\n    tag_126:\n      0x02\n      dup2\n      gt\n      iszero\n      tag_129\n      jumpi\n      tag_129\n      tag_127\n      jump\t// in\n    tag_129:\n      dup2\n      mstore\n      0x20\n      add\n      swap1\n      dup2\n      mstore\n      0x20\n      add\n      0x00\n      keccak256\n        /* \"Organisation.sol\":2703:2746  OrgUtils.findOrgItem( _addr, Items[_type] ) */\n      dup1\n      sload\n      dup1\n      0x20\n      mul\n      0x20\n      add\n      mload(0x40)\n      swap1\n      dup2\n      add\n      0x40\n      mstore\n      dup1\n      swap3\n      swap2\n      swap1\n      dup2\n      dup2\n      mstore\n      0x20\n      add\n      0x00\n      swap1\n    tag_130:\n      dup3\n      dup3\n      lt\n      iszero\n      tag_131\n      jumpi\n      0x00\n      dup5\n      dup2\n      mstore\n      0x20\n      swap1\n      dup2\n      swap1\n      keccak256\n      0x40\n      dup1\n      mload\n      dup1\n      dup3\n      add\n      swap1\n      swap2\n      mstore\n      0x02\n      dup6\n      mul\n      swap1\n      swap2\n      add\n      dup1\n      sload\n      sub(shl(0xa0, 0x01), 0x01)\n      swap1\n      dup2\n      and\n      dup4\n      mstore\n      0x01\n      swap2\n      dup3\n      add\n      sload\n      and\n      dup3\n      dup5\n      add\n      mstore\n      swap1\n      dup4\n      mstore\n      swap1\n      swap3\n      add\n      swap2\n      add\n      jump(tag_130)\n    tag_131:\n      pop\n      pop\n      pop\n      pop\n        /* \"Organisation.sol\":2703:2723  OrgUtils.findOrgItem */\n      tag_133\n        /* \"Organisation.sol\":2703:2746  OrgUtils.findOrgItem( _addr, Items[_type] ) */\n      jump\t// in\n    tag_124:\n        /* \"Organisation.sol\":2690:2746  int _index = OrgUtils.findOrgItem( _addr, Items[_type] ) */\n      swap1\n      pop\n        /* \"Organisation.sol\":2772:2773  0 */\n      0x00\n        /* \"Organisation.sol\":2763:2769  _index */\n      dup2\n        /* \"Organisation.sol\":2763:2773  _index < 0 */\n      slt\n        /* \"Organisation.sol\":2759:2794  if( _index < 0 ) revert(\"No index\") */\n      iszero\n      tag_134\n      jumpi\n        /* \"Organisation.sol\":2776:2794  revert(\"No index\") */\n      mload(0x40)\n      shl(0xe5, 0x461bcd)\n      dup2\n      mstore\n        /* \"#utility.yul\":5520:5522   */\n      0x20\n        /* \"Organisation.sol\":2776:2794  revert(\"No index\") */\n      0x04\n      dup3\n      add\n        /* \"#utility.yul\":5502:5523   */\n      mstore\n        /* \"#utility.yul\":5559:5560   */\n      0x08\n        /* \"#utility.yul\":5539:5557   */\n      0x24\n      dup3\n      add\n        /* \"#utility.yul\":5532:5561   */\n      mstore\n      shl(0xc3, 0x09cde40d2dcc8caf)\n        /* \"#utility.yul\":5577:5595   */\n      0x44\n      dup3\n      add\n        /* \"#utility.yul\":5570:5608   */\n      mstore\n        /* \"#utility.yul\":5625:5643   */\n      0x64\n      add\n        /* \"Organisation.sol\":2776:2794  revert(\"No index\") */\n      tag_60\n        /* \"#utility.yul\":5318:5649   */\n      jump\n        /* \"Organisation.sol\":2759:2794  if( _index < 0 ) revert(\"No index\") */\n    tag_134:\n        /* \"Organisation.sol\":2847:2857  msg.sender */\n      caller\n        /* \"Organisation.sol\":2809:2814  Items */\n      0x02\n        /* \"Organisation.sol\":2809:2821  Items[_type] */\n      0x00\n        /* \"Organisation.sol\":2815:2820  _type */\n      dup6\n        /* \"Organisation.sol\":2809:2821  Items[_type] */\n      dup3\n      dup2\n      gt\n      iszero\n      tag_137\n      jumpi\n      tag_137\n      tag_127\n      jump\t// in\n    tag_137:\n      0x02\n      dup2\n      gt\n      iszero\n      tag_139\n      jumpi\n      tag_139\n      tag_127\n      jump\t// in\n    tag_139:\n      dup2\n      mstore\n      0x20\n      add\n      swap1\n      dup2\n      mstore\n      0x20\n      add\n      0x00\n      keccak256\n        /* \"Organisation.sol\":2827:2833  _index */\n      dup3\n        /* \"Organisation.sol\":2809:2835  Items[_type][uint(_index)] */\n      dup2\n      sload\n      dup2\n      lt\n      tag_141\n      jumpi\n      tag_141\n      tag_79\n      jump\t// in\n    tag_141:\n      0x00\n      swap2\n      dup3\n      mstore\n      0x20\n      swap1\n      swap2\n      keccak256\n        /* \"Organisation.sol\":2809:2843  Items[_type][uint(_index)].creator */\n      0x01\n        /* \"Organisation.sol\":2809:2835  Items[_type][uint(_index)] */\n      0x02\n      swap1\n      swap3\n      mul\n      add\n        /* \"Organisation.sol\":2809:2843  Items[_type][uint(_index)].creator */\n      add\n      sload\n      sub(shl(0xa0, 0x01), 0x01)\n      and\n        /* \"Organisation.sol\":2809:2857  Items[_type][uint(_index)].creator != msg.sender */\n      eq\n        /* \"Organisation.sol\":2805:2882  if( Items[_type][uint(_index)].creator != msg.sender ) revert(\"Only creator\") */\n      tag_143\n      jumpi\n        /* \"Organisation.sol\":2860:2882  revert(\"Only creator\") */\n      mload(0x40)\n      shl(0xe5, 0x461bcd)\n      dup2\n      mstore\n        /* \"#utility.yul\":9040:9042   */\n      0x20\n        /* \"Organisation.sol\":2860:2882  revert(\"Only creator\") */\n      0x04\n      dup3\n      add\n        /* \"#utility.yul\":9022:9043   */\n      mstore\n        /* \"#utility.yul\":9079:9081   */\n      0x0c\n        /* \"#utility.yul\":9059:9077   */\n      0x24\n      dup3\n      add\n        /* \"#utility.yul\":9052:9082   */\n      mstore\n      shl(0xa1, 0x27b7363c9031b932b0ba37b9)\n        /* \"#utility.yul\":9098:9116   */\n      0x44\n      dup3\n      add\n        /* \"#utility.yul\":9091:9133   */\n      mstore\n        /* \"#utility.yul\":9150:9168   */\n      0x64\n      add\n        /* \"Organisation.sol\":2860:2882  revert(\"Only creator\") */\n      tag_60\n        /* \"#utility.yul\":8838:9174   */\n      jump\n        /* \"Organisation.sol\":2805:2882  if( Items[_type][uint(_index)].creator != msg.sender ) revert(\"Only creator\") */\n    tag_143:\n        /* \"Organisation.sol\":2924:2929  Items */\n      0x02\n        /* \"Organisation.sol\":2924:2936  Items[_type] */\n      0x00\n        /* \"Organisation.sol\":2930:2935  _type */\n      dup5\n        /* \"Organisation.sol\":2924:2936  Items[_type] */\n      0x02\n      dup2\n      gt\n      iszero\n      tag_147\n      jumpi\n      tag_147\n      tag_127\n      jump\t// in\n    tag_147:\n      0x02\n      dup2\n      gt\n      iszero\n      tag_149\n      jumpi\n      tag_149\n      tag_127\n      jump\t// in\n    tag_149:\n      dup2\n      mstore\n      0x20\n      add\n      swap1\n      dup2\n      mstore\n      0x20\n      add\n      0x00\n      keccak256\n        /* \"Organisation.sol\":2959:2960  1 */\n      0x01\n        /* \"Organisation.sol\":2937:2942  Items */\n      0x02\n        /* \"Organisation.sol\":2937:2949  Items[_type] */\n      0x00\n        /* \"Organisation.sol\":2943:2948  _type */\n      dup7\n        /* \"Organisation.sol\":2937:2949  Items[_type] */\n      0x02\n      dup2\n      gt\n      iszero\n      tag_151\n      jumpi\n      tag_151\n      tag_127\n      jump\t// in\n    tag_151:\n      0x02\n      dup2\n      gt\n      iszero\n      tag_153\n      jumpi\n      tag_153\n      tag_127\n      jump\t// in\n    tag_153:\n      dup2\n      mstore\n      0x20\n      dup2\n      add\n      swap2\n      swap1\n      swap2\n      mstore\n      0x40\n      add\n      0x00\n      keccak256\n        /* \"Organisation.sol\":2937:2956  Items[_type].length */\n      sload\n        /* \"Organisation.sol\":2937:2960  Items[_type].length - 1 */\n      tag_154\n      swap2\n      swap1\n      tag_76\n      jump\t// in\n    tag_154:\n        /* \"Organisation.sol\":2924:2961  Items[_type][Items[_type].length - 1] */\n      dup2\n      sload\n      dup2\n      lt\n      tag_156\n      jumpi\n      tag_156\n      tag_79\n      jump\t// in\n    tag_156:\n      swap1\n      0x00\n      mstore\n      keccak256(0x00, 0x20)\n      swap1\n      0x02\n      mul\n      add\n        /* \"Organisation.sol\":2895:2900  Items */\n      0x02\n        /* \"Organisation.sol\":2895:2907  Items[_type] */\n      0x00\n        /* \"Organisation.sol\":2901:2906  _type */\n      dup6\n        /* \"Organisation.sol\":2895:2907  Items[_type] */\n      0x02\n      dup2\n      gt\n      iszero\n      tag_159\n      jumpi\n      tag_159\n      tag_127\n      jump\t// in\n    tag_159:\n      0x02\n      dup2\n      gt\n      iszero\n      tag_161\n      jumpi\n      tag_161\n      tag_127\n      jump\t// in\n    tag_161:\n      dup2\n      mstore\n      0x20\n      add\n      swap1\n      dup2\n      mstore\n      0x20\n      add\n      0x00\n      keccak256\n        /* \"Organisation.sol\":2913:2919  _index */\n      dup3\n        /* \"Organisation.sol\":2895:2921  Items[_type][uint(_index)] */\n      dup2\n      sload\n      dup2\n      lt\n      tag_163\n      jumpi\n      tag_163\n      tag_79\n      jump\t// in\n    tag_163:\n      0x00\n      swap2\n      dup3\n      mstore\n      0x20\n      dup3\n      keccak256\n        /* \"Organisation.sol\":2895:2961  Items[_type][uint(_index)] = Items[_type][Items[_type].length - 1] */\n      dup4\n      sload\n        /* \"Organisation.sol\":2895:2921  Items[_type][uint(_index)] */\n      0x02\n      swap3\n      dup4\n      mul\n      swap1\n      swap2\n      add\n        /* \"Organisation.sol\":2895:2961  Items[_type][uint(_index)] = Items[_type][Items[_type].length - 1] */\n      dup1\n      sload\n      sub(shl(0xa0, 0x01), 0x01)\n      swap3\n      dup4\n      and\n      not(sub(shl(0xa0, 0x01), 0x01))\n      swap2\n      dup3\n      and\n      or\n      dup3\n      sstore\n      0x01\n      swap6\n      dup7\n      add\n      sload\n      swap6\n      swap1\n      swap2\n      add\n      dup1\n      sload\n      swap6\n      swap1\n      swap3\n      and\n      swap5\n      and\n      swap4\n      swap1\n      swap4\n      or\n      swap1\n      swap3\n      sstore\n        /* \"Organisation.sol\":2978:2983  _type */\n      dup5\n        /* \"Organisation.sol\":2972:2984  Items[_type] */\n      dup3\n      dup2\n      gt\n      iszero\n      tag_166\n      jumpi\n      tag_166\n      tag_127\n      jump\t// in\n    tag_166:\n      0x02\n      dup2\n      gt\n      iszero\n      tag_168\n      jumpi\n      tag_168\n      tag_127\n      jump\t// in\n    tag_168:\n      dup2\n      mstore\n      0x20\n      add\n      swap1\n      dup2\n      mstore\n      0x20\n      add\n      0x00\n      keccak256\n        /* \"Organisation.sol\":2972:2990  Items[_type].pop() */\n      dup1\n      sload\n      dup1\n      tag_170\n      jumpi\n      tag_170\n      tag_88\n      jump\t// in\n    tag_170:\n      0x00\n      dup3\n      dup2\n      mstore\n      0x20\n      swap1\n      keccak256\n      0x02\n      not(0x00)\n      swap1\n      swap3\n      add\n      swap2\n      dup3\n      mul\n      add\n      dup1\n      sload\n      not(sub(shl(0xa0, 0x01), 0x01))\n      swap1\n      dup2\n      and\n      dup3\n      sstore\n      0x01\n      swap2\n      swap1\n      swap2\n      add\n      dup1\n      sload\n      swap1\n      swap2\n      and\n      swap1\n      sstore\n      swap1\n      sstore\n      pop\n      pop\n      pop\n        /* \"Organisation.sol\":2596:3000  function deleteItem(Constants.ItemType _type, address _addr) external memberOnly {... */\n      jump\t// out\n        /* \"Organisation.sol\":2316:2588  function addItem(Constants.ItemType _type, address _addr) external memberOnly {... */\n    tag_26:\n      not(0x00)\n        /* \"Organisation.sol\":799:842  OrgUtils.findOrgMember(msg.sender, members) */\n      tag_173\n        /* \"Organisation.sol\":822:832  msg.sender */\n      caller\n        /* \"Organisation.sol\":834:841  members */\n      0x01\n        /* \"Organisation.sol\":799:842  OrgUtils.findOrgMember(msg.sender, members) */\n      dup1\n      sload\n      dup1\n      0x20\n      mul\n      0x20\n      add\n      mload(0x40)\n      swap1\n      dup2\n      add\n      0x40\n      mstore\n      dup1\n      swap3\n      swap2\n      swap1\n      dup2\n      dup2\n      mstore\n      0x20\n      add\n      0x00\n      swap1\n    tag_174:\n      dup3\n      dup3\n      lt\n      iszero\n      tag_49\n      jumpi\n      dup4\n      dup3\n      swap1\n      0x00\n      mstore\n      keccak256(0x00, 0x20)\n      swap1\n      0x02\n      mul\n      add\n      mload(0x40)\n      dup1\n      0x40\n      add\n      0x40\n      mstore\n      swap1\n      dup2\n      0x00\n      dup3\n      add\n      dup1\n      sload\n      tag_177\n      swap1\n      tag_52\n      jump\t// in\n    tag_177:\n      dup1\n      0x1f\n      add\n      0x20\n      dup1\n      swap2\n      div\n      mul\n      0x20\n      add\n      mload(0x40)\n      swap1\n      dup2\n      add\n      0x40\n      mstore\n      dup1\n      swap3\n      swap2\n      swap1\n      dup2\n      dup2\n      mstore\n      0x20\n      add\n      dup3\n      dup1\n      sload\n      tag_178\n      swap1\n      tag_52\n      jump\t// in\n    tag_178:\n      dup1\n      iszero\n      tag_179\n      jumpi\n      dup1\n      0x1f\n      lt\n      tag_180\n      jumpi\n      0x0100\n      dup1\n      dup4\n      sload\n      div\n      mul\n      dup4\n      mstore\n      swap2\n      0x20\n      add\n      swap2\n      jump(tag_179)\n    tag_180:\n      dup3\n      add\n      swap2\n      swap1\n      0x00\n      mstore\n      keccak256(0x00, 0x20)\n      swap1\n    tag_181:\n      dup2\n      sload\n      dup2\n      mstore\n      swap1\n      0x01\n      add\n      swap1\n      0x20\n      add\n      dup1\n      dup4\n      gt\n      tag_181\n      jumpi\n      dup3\n      swap1\n      sub\n      0x1f\n      and\n      dup3\n      add\n      swap2\n    tag_179:\n      pop\n      pop\n      pop\n      swap2\n      dup4\n      mstore\n      pop\n      pop\n      0x01\n      swap2\n      dup3\n      add\n      sload\n      sub(shl(0xa0, 0x01), 0x01)\n      and\n      0x20\n      swap2\n      dup3\n      add\n      mstore\n      swap2\n      dup4\n      mstore\n      swap3\n      swap1\n      swap3\n      add\n      swap2\n      add\n      jump(tag_174)\n    tag_173:\n        /* \"Organisation.sol\":799:847  OrgUtils.findOrgMember(msg.sender, members) > -1 */\n      sgt\n        /* \"Organisation.sol\":790:863  require( OrgUtils.findOrgMember(msg.sender, members) > -1, \"Only member\") */\n      tag_182\n      jumpi\n      mload(0x40)\n      shl(0xe5, 0x461bcd)\n      dup2\n      mstore\n      0x04\n      add\n      tag_60\n      swap1\n      tag_104\n      jump\t// in\n    tag_182:\n        /* \"Organisation.sol\":2407:2417  int _index */\n      0x00\n        /* \"Organisation.sol\":2420:2463  OrgUtils.findOrgItem( _addr, Items[_type] ) */\n      tag_185\n        /* \"Organisation.sol\":2442:2447  _addr */\n      dup3\n        /* \"Organisation.sol\":2449:2454  Items */\n      0x02\n        /* \"Organisation.sol\":2449:2461  Items[_type] */\n      0x00\n        /* \"Organisation.sol\":2455:2460  _type */\n      dup7\n        /* \"Organisation.sol\":2449:2461  Items[_type] */\n      0x02\n      dup2\n      gt\n      iszero\n      tag_126\n      jumpi\n      tag_126\n      tag_127\n      jump\t// in\n        /* \"Organisation.sol\":2420:2463  OrgUtils.findOrgItem( _addr, Items[_type] ) */\n    tag_185:\n        /* \"Organisation.sol\":2407:2463  int _index = OrgUtils.findOrgItem( _addr, Items[_type] ) */\n      swap1\n      pop\n      not(0x00)\n        /* \"Organisation.sol\":2480:2486  _index */\n      dup2\n        /* \"Organisation.sol\":2480:2491  _index > -1 */\n      sgt\n        /* \"Organisation.sol\":2476:2510  if( _index > -1 ) revert(\"Exists\") */\n      iszero\n      tag_193\n      jumpi\n        /* \"Organisation.sol\":2494:2510  revert(\"Exists\") */\n      mload(0x40)\n      shl(0xe5, 0x461bcd)\n      dup2\n      mstore\n        /* \"#utility.yul\":9381:9383   */\n      0x20\n        /* \"Organisation.sol\":2494:2510  revert(\"Exists\") */\n      0x04\n      dup3\n      add\n        /* \"#utility.yul\":9363:9384   */\n      mstore\n        /* \"#utility.yul\":9420:9421   */\n      0x06\n        /* \"#utility.yul\":9400:9418   */\n      0x24\n      dup3\n      add\n        /* \"#utility.yul\":9393:9422   */\n      mstore\n      shl(0xd0, 0x457869737473)\n        /* \"#utility.yul\":9438:9456   */\n      0x44\n      dup3\n      add\n        /* \"#utility.yul\":9431:9467   */\n      mstore\n        /* \"#utility.yul\":9484:9502   */\n      0x64\n      add\n        /* \"Organisation.sol\":2494:2510  revert(\"Exists\") */\n      tag_60\n        /* \"#utility.yul\":9179:9508   */\n      jump\n        /* \"Organisation.sol\":2476:2510  if( _index > -1 ) revert(\"Exists\") */\n    tag_193:\n        /* \"Organisation.sol\":2523:2528  Items */\n      0x02\n        /* \"Organisation.sol\":2523:2535  Items[_type] */\n      0x00\n        /* \"Organisation.sol\":2529:2534  _type */\n      dup5\n        /* \"Organisation.sol\":2523:2535  Items[_type] */\n      0x02\n      dup2\n      gt\n      iszero\n      tag_197\n      jumpi\n      tag_197\n      tag_127\n      jump\t// in\n    tag_197:\n      0x02\n      dup2\n      gt\n      iszero\n      tag_199\n      jumpi\n      tag_199\n      tag_127\n      jump\t// in\n    tag_199:\n      dup2\n      mstore\n      0x20\n      dup1\n      dup3\n      add\n      swap3\n      swap1\n      swap3\n      mstore\n      0x40\n      swap1\n      dup2\n      add\n      0x00\n      swap1\n      dup2\n      keccak256\n        /* \"Organisation.sol\":2542:2576  OrgUtils.Item( _addr, msg.sender ) */\n      dup3\n      mload\n      dup1\n      dup5\n      add\n      swap1\n      swap4\n      mstore\n      sub(shl(0xa0, 0x01), 0x01)\n      swap6\n      dup7\n      and\n      dup4\n      mstore\n        /* \"Organisation.sol\":2564:2574  msg.sender */\n      caller\n        /* \"Organisation.sol\":2542:2576  OrgUtils.Item( _addr, msg.sender ) */\n      dup4\n      dup6\n      add\n      swap1\n      dup2\n      mstore\n        /* \"Organisation.sol\":2523:2578  Items[_type].push( OrgUtils.Item( _addr, msg.sender ) ) */\n      dup2\n      sload\n      0x01\n      dup2\n      dup2\n      add\n      dup5\n      sstore\n      swap3\n      dup5\n      mstore\n      swap5\n      swap1\n      swap3\n      keccak256\n      swap3\n      mload\n      0x02\n      swap1\n      swap5\n      mul\n      swap1\n      swap3\n      add\n      dup1\n      sload\n      swap4\n      dup7\n      and\n      not(sub(shl(0xa0, 0x01), 0x01))\n      swap5\n      dup6\n      and\n      or\n      dup2\n      sstore\n      swap1\n      mload\n      swap2\n      add\n      dup1\n      sload\n      swap2\n      swap1\n      swap5\n      and\n      swap2\n      and\n      or\n      swap1\n      swap2\n      sstore\n      pop\n      pop\n        /* \"Organisation.sol\":2316:2588  function addItem(Constants.ItemType _type, address _addr) external memberOnly {... */\n      jump\t// out\n        /* \"Organisation.sol\":1437:1693  function addMember(string memory _name, address _addr) external ownerOnly {... */\n    tag_30:\n        /* \"Organisation.sol\":688:693  owner */\n      and(sub(shl(0xa0, 0x01), 0x01), sload(0x03))\n        /* \"Organisation.sol\":674:684  msg.sender */\n      caller\n        /* \"Organisation.sol\":674:693  msg.sender == owner */\n      eq\n      dup1\n        /* \"Organisation.sol\":674:717  msg.sender == owner || msg.sender == parent */\n      tag_202\n      jumpi\n      pop\n        /* \"Organisation.sol\":711:717  parent */\n      and(sub(shl(0xa0, 0x01), 0x01), sload(0x04))\n        /* \"Organisation.sol\":697:707  msg.sender */\n      caller\n        /* \"Organisation.sol\":697:717  msg.sender == parent */\n      eq\n        /* \"Organisation.sol\":674:717  msg.sender == owner || msg.sender == parent */\n    tag_202:\n        /* \"Organisation.sol\":666:732  require(msg.sender == owner || msg.sender == parent, \"Only owner\") */\n      tag_203\n      jumpi\n      mload(0x40)\n      shl(0xe5, 0x461bcd)\n      dup2\n      mstore\n        /* \"#utility.yul\":9715:9717   */\n      0x20\n        /* \"Organisation.sol\":666:732  require(msg.sender == owner || msg.sender == parent, \"Only owner\") */\n      0x04\n      dup3\n      add\n        /* \"#utility.yul\":9697:9718   */\n      mstore\n        /* \"#utility.yul\":9754:9756   */\n      0x0a\n        /* \"#utility.yul\":9734:9752   */\n      0x24\n      dup3\n      add\n        /* \"#utility.yul\":9727:9757   */\n      mstore\n      shl(0xb1, 0x27b7363c9037bbb732b9)\n        /* \"#utility.yul\":9773:9791   */\n      0x44\n      dup3\n      add\n        /* \"#utility.yul\":9766:9806   */\n      mstore\n        /* \"#utility.yul\":9823:9841   */\n      0x64\n      add\n        /* \"Organisation.sol\":666:732  require(msg.sender == owner || msg.sender == parent, \"Only owner\") */\n      tag_60\n        /* \"#utility.yul\":9513:9847   */\n      jump\n        /* \"Organisation.sol\":666:732  require(msg.sender == owner || msg.sender == parent, \"Only owner\") */\n    tag_203:\n        /* \"Organisation.sol\":1522:1531  int index */\n      0x00\n        /* \"Organisation.sol\":1534:1574  OrgUtils.findOrgMember( _addr, members ) */\n      tag_207\n        /* \"Organisation.sol\":1558:1563  _addr */\n      dup3\n        /* \"Organisation.sol\":1565:1572  members */\n      0x01\n        /* \"Organisation.sol\":1534:1574  OrgUtils.findOrgMember( _addr, members ) */\n      dup1\n      sload\n      dup1\n      0x20\n      mul\n      0x20\n      add\n      mload(0x40)\n      swap1\n      dup2\n      add\n      0x40\n      mstore\n      dup1\n      swap3\n      swap2\n      swap1\n      dup2\n      dup2\n      mstore\n      0x20\n      add\n      0x00\n      swap1\n    tag_208:\n      dup3\n      dup3\n      lt\n      iszero\n      tag_49\n      jumpi\n      dup4\n      dup3\n      swap1\n      0x00\n      mstore\n      keccak256(0x00, 0x20)\n      swap1\n      0x02\n      mul\n      add\n      mload(0x40)\n      dup1\n      0x40\n      add\n      0x40\n      mstore\n      swap1\n      dup2\n      0x00\n      dup3\n      add\n      dup1\n      sload\n      tag_211\n      swap1\n      tag_52\n      jump\t// in\n    tag_211:\n      dup1\n      0x1f\n      add\n      0x20\n      dup1\n      swap2\n      div\n      mul\n      0x20\n      add\n      mload(0x40)\n      swap1\n      dup2\n      add\n      0x40\n      mstore\n      dup1\n      swap3\n      swap2\n      swap1\n      dup2\n      dup2\n      mstore\n      0x20\n      add\n      dup3\n      dup1\n      sload\n      tag_212\n      swap1\n      tag_52\n      jump\t// in\n    tag_212:\n      dup1\n      iszero\n      tag_213\n      jumpi\n      dup1\n      0x1f\n      lt\n      tag_214\n      jumpi\n      0x0100\n      dup1\n      dup4\n      sload\n      div\n      mul\n      dup4\n      mstore\n      swap2\n      0x20\n      add\n      swap2\n      jump(tag_213)\n    tag_214:\n      dup3\n      add\n      swap2\n      swap1\n      0x00\n      mstore\n      keccak256(0x00, 0x20)\n      swap1\n    tag_215:\n      dup2\n      sload\n      dup2\n      mstore\n      swap1\n      0x01\n      add\n      swap1\n      0x20\n      add\n      dup1\n      dup4\n      gt\n      tag_215\n      jumpi\n      dup3\n      swap1\n      sub\n      0x1f\n      and\n      dup3\n      add\n      swap2\n    tag_213:\n      pop\n      pop\n      pop\n      swap2\n      dup4\n      mstore\n      pop\n      pop\n      0x01\n      swap2\n      dup3\n      add\n      sload\n      sub(shl(0xa0, 0x01), 0x01)\n      and\n      0x20\n      swap2\n      dup3\n      add\n      mstore\n      swap2\n      dup4\n      mstore\n      swap3\n      swap1\n      swap3\n      add\n      swap2\n      add\n      jump(tag_208)\n    tag_207:\n        /* \"Organisation.sol\":1522:1574  int index = OrgUtils.findOrgMember( _addr, members ) */\n      swap1\n      pop\n        /* \"Organisation.sol\":1591:1596  index */\n      dup1\n      not(0x00)\n        /* \"Organisation.sol\":1591:1602  index != -1 */\n      eq\n        /* \"Organisation.sol\":1587:1621  if( index != -1 ) revert(\"Exists\") */\n      tag_216\n      jumpi\n        /* \"Organisation.sol\":1605:1621  revert(\"Exists\") */\n      mload(0x40)\n      shl(0xe5, 0x461bcd)\n      dup2\n      mstore\n        /* \"#utility.yul\":9381:9383   */\n      0x20\n        /* \"Organisation.sol\":1605:1621  revert(\"Exists\") */\n      0x04\n      dup3\n      add\n        /* \"#utility.yul\":9363:9384   */\n      mstore\n        /* \"#utility.yul\":9420:9421   */\n      0x06\n        /* \"#utility.yul\":9400:9418   */\n      0x24\n      dup3\n      add\n        /* \"#utility.yul\":9393:9422   */\n      mstore\n      shl(0xd0, 0x457869737473)\n        /* \"#utility.yul\":9438:9456   */\n      0x44\n      dup3\n      add\n        /* \"#utility.yul\":9431:9467   */\n      mstore\n        /* \"#utility.yul\":9484:9502   */\n      0x64\n      add\n        /* \"Organisation.sol\":1605:1621  revert(\"Exists\") */\n      tag_60\n        /* \"#utility.yul\":9179:9508   */\n      jump\n        /* \"Organisation.sol\":1587:1621  if( index != -1 ) revert(\"Exists\") */\n    tag_216:\n        /* \"Organisation.sol\":1648:1677  OrgUtils.Member(_name, _addr) */\n      0x40\n      dup1\n      mload\n      dup1\n      dup3\n      add\n      swap1\n      swap2\n      mstore\n      dup4\n      dup2\n      mstore\n      sub(shl(0xa0, 0x01), 0x01)\n      dup4\n      and\n      0x20\n      dup3\n      add\n      mstore\n        /* \"Organisation.sol\":1634:1641  members */\n      0x01\n        /* \"Organisation.sol\":1634:1679  members.push( OrgUtils.Member(_name, _addr) ) */\n      dup1\n      sload\n      dup1\n      dup3\n      add\n      dup3\n      sstore\n      0x00\n      swap2\n      swap1\n      swap2\n      mstore\n      dup2\n      mload\n      0x02\n      swap1\n      swap2\n      mul\n      0xb10e2d527612073b26eecdfd717e6a320cf44b4afac2b0732d9fcbe2b7fa0cf6\n      add\n      swap1\n      dup2\n      swap1\n      tag_219\n      swap1\n      dup3\n      tag_220\n      jump\t// in\n    tag_219:\n      pop\n      0x20\n      swap2\n      swap1\n      swap2\n      add\n      mload\n      0x01\n      swap1\n      swap2\n      add\n      dup1\n      sload\n      not(sub(shl(0xa0, 0x01), 0x01))\n      and\n      sub(shl(0xa0, 0x01), 0x01)\n      swap1\n      swap3\n      and\n      swap2\n      swap1\n      swap2\n      or\n      swap1\n      sstore\n      pop\n      pop\n      pop\n        /* \"Organisation.sol\":1437:1693  function addMember(string memory _name, address _addr) external ownerOnly {... */\n      jump\t// out\n        /* \"Organisation.sol\":1313:1429  function getMembers() external view ownerOnly returns (OrgUtils.Member[] memory) {... */\n    tag_32:\n        /* \"Organisation.sol\":688:693  owner */\n      sload(0x03)\n        /* \"Organisation.sol\":1368:1392  OrgUtils.Member[] memory */\n      0x60\n      swap1\n      sub(shl(0xa0, 0x01), 0x01)\n        /* \"Organisation.sol\":688:693  owner */\n      and\n        /* \"Organisation.sol\":674:684  msg.sender */\n      caller\n        /* \"Organisation.sol\":674:693  msg.sender == owner */\n      eq\n      dup1\n        /* \"Organisation.sol\":674:717  msg.sender == owner || msg.sender == parent */\n      tag_222\n      jumpi\n      pop\n        /* \"Organisation.sol\":711:717  parent */\n      and(sub(shl(0xa0, 0x01), 0x01), sload(0x04))\n        /* \"Organisation.sol\":697:707  msg.sender */\n      caller\n        /* \"Organisation.sol\":697:717  msg.sender == parent */\n      eq\n        /* \"Organisation.sol\":674:717  msg.sender == owner || msg.sender == parent */\n    tag_222:\n        /* \"Organisation.sol\":666:732  require(msg.sender == owner || msg.sender == parent, \"Only owner\") */\n      tag_223\n      jumpi\n      mload(0x40)\n      shl(0xe5, 0x461bcd)\n      dup2\n      mstore\n        /* \"#utility.yul\":9715:9717   */\n      0x20\n        /* \"Organisation.sol\":666:732  require(msg.sender == owner || msg.sender == parent, \"Only owner\") */\n      0x04\n      dup3\n      add\n        /* \"#utility.yul\":9697:9718   */\n      mstore\n        /* \"#utility.yul\":9754:9756   */\n      0x0a\n        /* \"#utility.yul\":9734:9752   */\n      0x24\n      dup3\n      add\n        /* \"#utility.yul\":9727:9757   */\n      mstore\n      shl(0xb1, 0x27b7363c9037bbb732b9)\n        /* \"#utility.yul\":9773:9791   */\n      0x44\n      dup3\n      add\n        /* \"#utility.yul\":9766:9806   */\n      mstore\n        /* \"#utility.yul\":9823:9841   */\n      0x64\n      add\n        /* \"Organisation.sol\":666:732  require(msg.sender == owner || msg.sender == parent, \"Only owner\") */\n      tag_60\n        /* \"#utility.yul\":9513:9847   */\n      jump\n        /* \"Organisation.sol\":666:732  require(msg.sender == owner || msg.sender == parent, \"Only owner\") */\n    tag_223:\n        /* \"Organisation.sol\":1414:1421  members */\n      0x01\n        /* \"Organisation.sol\":1407:1421  return members */\n      dup1\n      sload\n      dup1\n      0x20\n      mul\n      0x20\n      add\n      mload(0x40)\n      swap1\n      dup2\n      add\n      0x40\n      mstore\n      dup1\n      swap3\n      swap2\n      swap1\n      dup2\n      dup2\n      mstore\n      0x20\n      add\n      0x00\n      swap1\n    tag_226:\n      dup3\n      dup3\n      lt\n      iszero\n      tag_227\n      jumpi\n      dup4\n      dup3\n      swap1\n      0x00\n      mstore\n      keccak256(0x00, 0x20)\n      swap1\n      0x02\n      mul\n      add\n      mload(0x40)\n      dup1\n      0x40\n      add\n      0x40\n      mstore\n      swap1\n      dup2\n      0x00\n      dup3\n      add\n      dup1\n      sload\n      tag_229\n      swap1\n      tag_52\n      jump\t// in\n    tag_229:\n      dup1\n      0x1f\n      add\n      0x20\n      dup1\n      swap2\n      div\n      mul\n      0x20\n      add\n      mload(0x40)\n      swap1\n      dup2\n      add\n      0x40\n      mstore\n      dup1\n      swap3\n      swap2\n      swap1\n      dup2\n      dup2\n      mstore\n      0x20\n      add\n      dup3\n      dup1\n      sload\n      tag_230\n      swap1\n      tag_52\n      jump\t// in\n    tag_230:\n      dup1\n      iszero\n      tag_231\n      jumpi\n      dup1\n      0x1f\n      lt\n      tag_232\n      jumpi\n      0x0100\n      dup1\n      dup4\n      sload\n      div\n      mul\n      dup4\n      mstore\n      swap2\n      0x20\n      add\n      swap2\n      jump(tag_231)\n    tag_232:\n      dup3\n      add\n      swap2\n      swap1\n      0x00\n      mstore\n      keccak256(0x00, 0x20)\n      swap1\n    tag_233:\n      dup2\n      sload\n      dup2\n      mstore\n      swap1\n      0x01\n      add\n      swap1\n      0x20\n      add\n      dup1\n      dup4\n      gt\n      tag_233\n      jumpi\n      dup3\n      swap1\n      sub\n      0x1f\n      and\n      dup3\n      add\n      swap2\n    tag_231:\n      pop\n      pop\n      pop\n      swap2\n      dup4\n      mstore\n      pop\n      pop\n      0x01\n      swap2\n      dup3\n      add\n      sload\n      sub(shl(0xa0, 0x01), 0x01)\n      and\n      0x20\n      swap2\n      dup3\n      add\n      mstore\n      swap2\n      dup4\n      mstore\n      swap3\n      swap1\n      swap3\n      add\n      swap2\n      add\n      jump(tag_226)\n    tag_227:\n      pop\n      pop\n      pop\n      pop\n      swap1\n      pop\n        /* \"Organisation.sol\":1313:1429  function getMembers() external view ownerOnly returns (OrgUtils.Member[] memory) {... */\n      swap1\n      jump\t// out\n        /* \"Organisation.sol\":1093:1197  function isOwn() external view memberOnly returns (bool) {... */\n    tag_36:\n        /* \"Organisation.sol\":1144:1148  bool */\n      0x00\n      not(0x00)\n        /* \"Organisation.sol\":799:842  OrgUtils.findOrgMember(msg.sender, members) */\n      tag_235\n        /* \"Organisation.sol\":822:832  msg.sender */\n      caller\n        /* \"Organisation.sol\":834:841  members */\n      0x01\n        /* \"Organisation.sol\":799:842  OrgUtils.findOrgMember(msg.sender, members) */\n      dup1\n      sload\n      dup1\n      0x20\n      mul\n      0x20\n      add\n      mload(0x40)\n      swap1\n      dup2\n      add\n      0x40\n      mstore\n      dup1\n      swap3\n      swap2\n      swap1\n      dup2\n      dup2\n      mstore\n      0x20\n      add\n      0x00\n      swap1\n    tag_236:\n      dup3\n      dup3\n      lt\n      iszero\n      tag_49\n      jumpi\n      dup4\n      dup3\n      swap1\n      0x00\n      mstore\n      keccak256(0x00, 0x20)\n      swap1\n      0x02\n      mul\n      add\n      mload(0x40)\n      dup1\n      0x40\n      add\n      0x40\n      mstore\n      swap1\n      dup2\n      0x00\n      dup3\n      add\n      dup1\n      sload\n      tag_239\n      swap1\n      tag_52\n      jump\t// in\n    tag_239:\n      dup1\n      0x1f\n      add\n      0x20\n      dup1\n      swap2\n      div\n      mul\n      0x20\n      add\n      mload(0x40)\n      swap1\n      dup2\n      add\n      0x40\n      mstore\n      dup1\n      swap3\n      swap2\n      swap1\n      dup2\n      dup2\n      mstore\n      0x20\n      add\n      dup3\n      dup1\n      sload\n      tag_240\n      swap1\n      tag_52\n      jump\t// in\n    tag_240:\n      dup1\n      iszero\n      tag_241\n      jumpi\n      dup1\n      0x1f\n      lt\n      tag_242\n      jumpi\n      0x0100\n      dup1\n      dup4\n      sload\n      div\n      mul\n      dup4\n      mstore\n      swap2\n      0x20\n      add\n      swap2\n      jump(tag_241)\n    tag_242:\n      dup3\n      add\n      swap2\n      swap1\n      0x00\n      mstore\n      keccak256(0x00, 0x20)\n      swap1\n    tag_243:\n      dup2\n      sload\n      dup2\n      mstore\n      swap1\n      0x01\n      add\n      swap1\n      0x20\n      add\n      dup1\n      dup4\n      gt\n      tag_243\n      jumpi\n      dup3\n      swap1\n      sub\n      0x1f\n      and\n      dup3\n      add\n      swap2\n    tag_241:\n      pop\n      pop\n      pop\n      swap2\n      dup4\n      mstore\n      pop\n      pop\n      0x01\n      swap2\n      dup3\n      add\n      sload\n      sub(shl(0xa0, 0x01), 0x01)\n      and\n      0x20\n      swap2\n      dup3\n      add\n      mstore\n      swap2\n      dup4\n      mstore\n      swap3\n      swap1\n      swap3\n      add\n      swap2\n      add\n      jump(tag_236)\n    tag_235:\n        /* \"Organisation.sol\":799:847  OrgUtils.findOrgMember(msg.sender, members) > -1 */\n      sgt\n        /* \"Organisation.sol\":790:863  require( OrgUtils.findOrgMember(msg.sender, members) > -1, \"Only member\") */\n      tag_244\n      jumpi\n      mload(0x40)\n      shl(0xe5, 0x461bcd)\n      dup2\n      mstore\n      0x04\n      add\n      tag_60\n      swap1\n      tag_104\n      jump\t// in\n    tag_244:\n      pop\n        /* \"Organisation.sol\":1170:1175  owner */\n      and(sub(shl(0xa0, 0x01), 0x01), sload(0x03))\n        /* \"Organisation.sol\":1179:1189  msg.sender */\n      caller\n        /* \"Organisation.sol\":1170:1189  owner == msg.sender */\n      eq\n        /* \"Organisation.sol\":1093:1197  function isOwn() external view memberOnly returns (bool) {... */\n      swap1\n      jump\t// out\n        /* \"Organisation.sol\":1989:2308  function getItems(Constants.ItemType _type) external view memberOnly returns (address[] memory) {... */\n    tag_42:\n        /* \"Organisation.sol\":2067:2083  address[] memory */\n      0x60\n      not(0x00)\n        /* \"Organisation.sol\":799:842  OrgUtils.findOrgMember(msg.sender, members) */\n      tag_248\n        /* \"Organisation.sol\":822:832  msg.sender */\n      caller\n        /* \"Organisation.sol\":834:841  members */\n      0x01\n        /* \"Organisation.sol\":799:842  OrgUtils.findOrgMember(msg.sender, members) */\n      dup1\n      sload\n      dup1\n      0x20\n      mul\n      0x20\n      add\n      mload(0x40)\n      swap1\n      dup2\n      add\n      0x40\n      mstore\n      dup1\n      swap3\n      swap2\n      swap1\n      dup2\n      dup2\n      mstore\n      0x20\n      add\n      0x00\n      swap1\n    tag_249:\n      dup3\n      dup3\n      lt\n      iszero\n      tag_49\n      jumpi\n      dup4\n      dup3\n      swap1\n      0x00\n      mstore\n      keccak256(0x00, 0x20)\n      swap1\n      0x02\n      mul\n      add\n      mload(0x40)\n      dup1\n      0x40\n      add\n      0x40\n      mstore\n      swap1\n      dup2\n      0x00\n      dup3\n      add\n      dup1\n      sload\n      tag_252\n      swap1\n      tag_52\n      jump\t// in\n    tag_252:\n      dup1\n      0x1f\n      add\n      0x20\n      dup1\n      swap2\n      div\n      mul\n      0x20\n      add\n      mload(0x40)\n      swap1\n      dup2\n      add\n      0x40\n      mstore\n      dup1\n      swap3\n      swap2\n      swap1\n      dup2\n      dup2\n      mstore\n      0x20\n      add\n      dup3\n      dup1\n      sload\n      tag_253\n      swap1\n      tag_52\n      jump\t// in\n    tag_253:\n      dup1\n      iszero\n      tag_254\n      jumpi\n      dup1\n      0x1f\n      lt\n      tag_255\n      jumpi\n      0x0100\n      dup1\n      dup4\n      sload\n      div\n      mul\n      dup4\n      mstore\n      swap2\n      0x20\n      add\n      swap2\n      jump(tag_254)\n    tag_255:\n      dup3\n      add\n      swap2\n      swap1\n      0x00\n      mstore\n      keccak256(0x00, 0x20)\n      swap1\n    tag_256:\n      dup2\n      sload\n      dup2\n      mstore\n      swap1\n      0x01\n      add\n      swap1\n      0x20\n      add\n      dup1\n      dup4\n      gt\n      tag_256\n      jumpi\n      dup3\n      swap1\n      sub\n      0x1f\n      and\n      dup3\n      add\n      swap2\n    tag_254:\n      pop\n      pop\n      pop\n      swap2\n      dup4\n      mstore\n      pop\n      pop\n      0x01\n      swap2\n      dup3\n      add\n      sload\n      sub(shl(0xa0, 0x01), 0x01)\n      and\n      0x20\n      swap2\n      dup3\n      add\n      mstore\n      swap2\n      dup4\n      mstore\n      swap3\n      swap1\n      swap3\n      add\n      swap2\n      add\n      jump(tag_249)\n    tag_248:\n        /* \"Organisation.sol\":799:847  OrgUtils.findOrgMember(msg.sender, members) > -1 */\n      sgt\n        /* \"Organisation.sol\":790:863  require( OrgUtils.findOrgMember(msg.sender, members) > -1, \"Only member\") */\n      tag_257\n      jumpi\n      mload(0x40)\n      shl(0xe5, 0x461bcd)\n      dup2\n      mstore\n      0x04\n      add\n      tag_60\n      swap1\n      tag_104\n      jump\t// in\n    tag_257:\n        /* \"Organisation.sol\":2132:2155  address[] memory _items */\n      0x60\n        /* \"Organisation.sol\":2173:2179  uint i */\n      0x00\n        /* \"Organisation.sol\":2168:2273  for (uint i = 0; i < Items[_type].length; i++){... */\n    tag_260:\n        /* \"Organisation.sol\":2189:2194  Items */\n      0x02\n        /* \"Organisation.sol\":2189:2201  Items[_type] */\n      0x00\n        /* \"Organisation.sol\":2195:2200  _type */\n      dup6\n        /* \"Organisation.sol\":2189:2201  Items[_type] */\n      0x02\n      dup2\n      gt\n      iszero\n      tag_264\n      jumpi\n      tag_264\n      tag_127\n      jump\t// in\n    tag_264:\n      0x02\n      dup2\n      gt\n      iszero\n      tag_266\n      jumpi\n      tag_266\n      tag_127\n      jump\t// in\n    tag_266:\n      dup2\n      mstore\n      0x20\n      dup2\n      add\n      swap2\n      swap1\n      swap2\n      mstore\n      0x40\n      add\n      0x00\n      keccak256\n        /* \"Organisation.sol\":2189:2208  Items[_type].length */\n      sload\n        /* \"Organisation.sol\":2185:2208  i < Items[_type].length */\n      dup2\n      lt\n        /* \"Organisation.sol\":2168:2273  for (uint i = 0; i < Items[_type].length; i++){... */\n      iszero\n      tag_261\n      jumpi\n        /* \"Organisation.sol\":2241:2246  Items */\n      0x02\n        /* \"Organisation.sol\":2241:2253  Items[_type] */\n      0x00\n        /* \"Organisation.sol\":2247:2252  _type */\n      dup6\n        /* \"Organisation.sol\":2241:2253  Items[_type] */\n      0x02\n      dup2\n      gt\n      iszero\n      tag_268\n      jumpi\n      tag_268\n      tag_127\n      jump\t// in\n    tag_268:\n      0x02\n      dup2\n      gt\n      iszero\n      tag_270\n      jumpi\n      tag_270\n      tag_127\n      jump\t// in\n    tag_270:\n      dup2\n      mstore\n      0x20\n      add\n      swap1\n      dup2\n      mstore\n      0x20\n      add\n      0x00\n      keccak256\n        /* \"Organisation.sol\":2254:2255  i */\n      dup2\n        /* \"Organisation.sol\":2241:2256  Items[_type][i] */\n      dup2\n      sload\n      dup2\n      lt\n      tag_272\n      jumpi\n      tag_272\n      tag_79\n      jump\t// in\n    tag_272:\n      0x00\n      swap2\n      dup3\n      mstore\n      0x20\n      swap1\n      swap2\n      keccak256\n      0x02\n      swap1\n      swap2\n      mul\n      add\n        /* \"Organisation.sol\":2241:2261  Items[_type][i].addr */\n      sload\n        /* \"Organisation.sol\":2229:2238  _items[i] */\n      dup3\n      mload\n      sub(shl(0xa0, 0x01), 0x01)\n        /* \"Organisation.sol\":2241:2261  Items[_type][i].addr */\n      swap1\n      swap2\n      and\n      swap1\n        /* \"Organisation.sol\":2229:2235  _items */\n      dup4\n      swap1\n        /* \"Organisation.sol\":2236:2237  i */\n      dup4\n      swap1\n        /* \"Organisation.sol\":2229:2238  _items[i] */\n      dup2\n      lt\n      tag_275\n      jumpi\n      tag_275\n      tag_79\n      jump\t// in\n    tag_275:\n      sub(shl(0xa0, 0x01), 0x01)\n        /* \"Organisation.sol\":2229:2261  _items[i] = Items[_type][i].addr */\n      swap1\n      swap3\n      and\n        /* \"Organisation.sol\":2229:2238  _items[i] */\n      0x20\n      swap3\n      dup4\n      mul\n      swap2\n      swap1\n      swap2\n      add\n      swap1\n      swap2\n      add\n        /* \"Organisation.sol\":2229:2261  _items[i] = Items[_type][i].addr */\n      mstore\n        /* \"Organisation.sol\":2210:2213  i++ */\n      0x01\n      add\n        /* \"Organisation.sol\":2168:2273  for (uint i = 0; i < Items[_type].length; i++){... */\n      jump(tag_260)\n    tag_261:\n      pop\n        /* \"Organisation.sol\":2292:2298  _items */\n      swap1\n      pop\n        /* \"Organisation.sol\":874:875  _ */\n    tag_259:\n        /* \"Organisation.sol\":1989:2308  function getItems(Constants.ItemType _type) external view memberOnly returns (address[] memory) {... */\n      swap2\n      swap1\n      pop\n      jump\t// out\n        /* \"Libs/OrgUtils.sol\":673:914  function findOrgMember(address _value, Member[] memory _array) internal pure returns (int) {... */\n    tag_57:\n        /* \"Libs/OrgUtils.sol\":759:762  int */\n      0x00\n      dup1\n        /* \"Libs/OrgUtils.sol\":775:886  for (uint i = 0; i < _array.length; i++) {... */\n    tag_277:\n        /* \"Libs/OrgUtils.sol\":796:802  _array */\n      dup3\n        /* \"Libs/OrgUtils.sol\":796:809  _array.length */\n      mload\n        /* \"Libs/OrgUtils.sol\":792:793  i */\n      dup2\n        /* \"Libs/OrgUtils.sol\":792:809  i < _array.length */\n      lt\n        /* \"Libs/OrgUtils.sol\":775:886  for (uint i = 0; i < _array.length; i++) {... */\n      iszero\n      tag_278\n      jumpi\n        /* \"Libs/OrgUtils.sol\":853:859  _value */\n      dup4\n      sub(shl(0xa0, 0x01), 0x01)\n        /* \"Libs/OrgUtils.sol\":835:859  _array[i].addr == _value */\n      and\n        /* \"Libs/OrgUtils.sol\":835:841  _array */\n      dup4\n        /* \"Libs/OrgUtils.sol\":842:843  i */\n      dup3\n        /* \"Libs/OrgUtils.sol\":835:844  _array[i] */\n      dup2\n      mload\n      dup2\n      lt\n      tag_281\n      jumpi\n      tag_281\n      tag_79\n      jump\t// in\n    tag_281:\n      0x20\n      mul\n      0x20\n      add\n      add\n      mload\n        /* \"Libs/OrgUtils.sol\":835:849  _array[i].addr */\n      0x20\n      add\n      mload\n      sub(shl(0xa0, 0x01), 0x01)\n        /* \"Libs/OrgUtils.sol\":835:859  _array[i].addr == _value */\n      and\n      sub\n        /* \"Libs/OrgUtils.sol\":831:874  if (_array[i].addr == _value) return int(i) */\n      tag_282\n      jumpi\n        /* \"Libs/OrgUtils.sol\":872:873  i */\n      swap1\n      pop\n        /* \"Libs/OrgUtils.sol\":861:874  return int(i) */\n      jump(tag_276)\n        /* \"Libs/OrgUtils.sol\":831:874  if (_array[i].addr == _value) return int(i) */\n    tag_282:\n        /* \"Libs/OrgUtils.sol\":811:814  i++ */\n      0x01\n      add\n        /* \"Libs/OrgUtils.sol\":775:886  for (uint i = 0; i < _array.length; i++) {... */\n      jump(tag_277)\n    tag_278:\n      pop\n      not(0x00)\n        /* \"Libs/OrgUtils.sol\":896:905  return -1 */\n      swap1\n      pop\n        /* \"Libs/OrgUtils.sol\":673:914  function findOrgMember(address _value, Member[] memory _array) internal pure returns (int) {... */\n    tag_276:\n      swap3\n      swap2\n      pop\n      pop\n      jump\t// out\n        /* \"Libs/OrgUtils.sol\":922:1159  function findOrgItem(address _value, Item[] memory _array) internal pure returns (int) {... */\n    tag_133:\n        /* \"Libs/OrgUtils.sol\":1004:1007  int */\n      0x00\n      dup1\n        /* \"Libs/OrgUtils.sol\":1020:1131  for (uint i = 0; i < _array.length; i++) {... */\n    tag_284:\n        /* \"Libs/OrgUtils.sol\":1041:1047  _array */\n      dup3\n        /* \"Libs/OrgUtils.sol\":1041:1054  _array.length */\n      mload\n        /* \"Libs/OrgUtils.sol\":1037:1038  i */\n      dup2\n        /* \"Libs/OrgUtils.sol\":1037:1054  i < _array.length */\n      lt\n        /* \"Libs/OrgUtils.sol\":1020:1131  for (uint i = 0; i < _array.length; i++) {... */\n      iszero\n      tag_278\n      jumpi\n        /* \"Libs/OrgUtils.sol\":1098:1104  _value */\n      dup4\n      sub(shl(0xa0, 0x01), 0x01)\n        /* \"Libs/OrgUtils.sol\":1080:1104  _array[i].addr == _value */\n      and\n        /* \"Libs/OrgUtils.sol\":1080:1086  _array */\n      dup4\n        /* \"Libs/OrgUtils.sol\":1087:1088  i */\n      dup3\n        /* \"Libs/OrgUtils.sol\":1080:1089  _array[i] */\n      dup2\n      mload\n      dup2\n      lt\n      tag_288\n      jumpi\n      tag_288\n      tag_79\n      jump\t// in\n    tag_288:\n      0x20\n      mul\n      0x20\n      add\n      add\n      mload\n        /* \"Libs/OrgUtils.sol\":1080:1094  _array[i].addr */\n      0x00\n      add\n      mload\n      sub(shl(0xa0, 0x01), 0x01)\n        /* \"Libs/OrgUtils.sol\":1080:1104  _array[i].addr == _value */\n      and\n      sub\n        /* \"Libs/OrgUtils.sol\":1076:1119  if (_array[i].addr == _value) return int(i) */\n      tag_289\n      jumpi\n        /* \"Libs/OrgUtils.sol\":1117:1118  i */\n      swap1\n      pop\n        /* \"Libs/OrgUtils.sol\":1106:1119  return int(i) */\n      jump(tag_276)\n        /* \"Libs/OrgUtils.sol\":1076:1119  if (_array[i].addr == _value) return int(i) */\n    tag_289:\n        /* \"Libs/OrgUtils.sol\":1056:1059  i++ */\n      0x01\n      add\n        /* \"Libs/OrgUtils.sol\":1020:1131  for (uint i = 0; i < _array.length; i++) {... */\n      jump(tag_284)\n    tag_91:\n      pop\n      dup1\n      sload\n      tag_290\n      swap1\n      tag_52\n      jump\t// in\n    tag_290:\n      0x00\n      dup3\n      sstore\n      dup1\n      0x1f\n      lt\n      tag_292\n      jumpi\n      pop\n      pop\n      jump\t// out\n    tag_292:\n      0x1f\n      add\n      0x20\n      swap1\n      div\n      swap1\n      0x00\n      mstore\n      keccak256(0x00, 0x20)\n      swap1\n      dup2\n      add\n      swap1\n      tag_293\n      swap2\n      swap1\n      tag_294\n      jump\t// in\n    tag_293:\n      pop\n      jump\t// out\n    tag_294:\n    tag_295:\n      dup1\n      dup3\n      gt\n      iszero\n      tag_296\n      jumpi\n      0x00\n      dup2\n      sstore\n      0x01\n      add\n      jump(tag_295)\n    tag_296:\n      pop\n      swap1\n      jump\t// out\n        /* \"#utility.yul\":14:187   */\n    tag_297:\n        /* \"#utility.yul\":82:102   */\n      dup1\n      calldataload\n      sub(shl(0xa0, 0x01), 0x01)\n        /* \"#utility.yul\":131:162   */\n      dup2\n      and\n        /* \"#utility.yul\":121:163   */\n      dup2\n      eq\n        /* \"#utility.yul\":111:181   */\n      tag_259\n      jumpi\n        /* \"#utility.yul\":177:178   */\n      0x00\n        /* \"#utility.yul\":174:175   */\n      dup1\n        /* \"#utility.yul\":167:179   */\n      revert\n        /* \"#utility.yul\":192:378   */\n    tag_14:\n        /* \"#utility.yul\":251:257   */\n      0x00\n        /* \"#utility.yul\":304:306   */\n      0x20\n        /* \"#utility.yul\":292:301   */\n      dup3\n        /* \"#utility.yul\":283:290   */\n      dup5\n        /* \"#utility.yul\":279:302   */\n      sub\n        /* \"#utility.yul\":275:307   */\n      slt\n        /* \"#utility.yul\":272:324   */\n      iszero\n      tag_308\n      jumpi\n        /* \"#utility.yul\":320:321   */\n      0x00\n        /* \"#utility.yul\":317:318   */\n      dup1\n        /* \"#utility.yul\":310:322   */\n      revert\n        /* \"#utility.yul\":272:324   */\n    tag_308:\n        /* \"#utility.yul\":343:372   */\n      tag_309\n        /* \"#utility.yul\":362:371   */\n      dup3\n        /* \"#utility.yul\":343:372   */\n      tag_297\n      jump\t// in\n    tag_309:\n        /* \"#utility.yul\":333:372   */\n      swap4\n        /* \"#utility.yul\":192:378   */\n      swap3\n      pop\n      pop\n      pop\n      jump\t// out\n        /* \"#utility.yul\":383:672   */\n    tag_298:\n        /* \"#utility.yul\":425:428   */\n      0x00\n        /* \"#utility.yul\":463:468   */\n      dup2\n        /* \"#utility.yul\":457:469   */\n      mload\n        /* \"#utility.yul\":490:496   */\n      dup1\n        /* \"#utility.yul\":485:488   */\n      dup5\n        /* \"#utility.yul\":478:497   */\n      mstore\n        /* \"#utility.yul\":546:552   */\n      dup1\n        /* \"#utility.yul\":539:543   */\n      0x20\n        /* \"#utility.yul\":532:537   */\n      dup5\n        /* \"#utility.yul\":528:544   */\n      add\n        /* \"#utility.yul\":521:525   */\n      0x20\n        /* \"#utility.yul\":516:519   */\n      dup7\n        /* \"#utility.yul\":512:526   */\n      add\n        /* \"#utility.yul\":506:553   */\n      mcopy\n        /* \"#utility.yul\":598:599   */\n      0x00\n        /* \"#utility.yul\":591:595   */\n      0x20\n        /* \"#utility.yul\":582:588   */\n      dup3\n        /* \"#utility.yul\":577:580   */\n      dup7\n        /* \"#utility.yul\":573:589   */\n      add\n        /* \"#utility.yul\":569:596   */\n      add\n        /* \"#utility.yul\":562:600   */\n      mstore\n        /* \"#utility.yul\":661:665   */\n      0x20\n        /* \"#utility.yul\":654:656   */\n      0x1f\n        /* \"#utility.yul\":650:657   */\n      not\n        /* \"#utility.yul\":645:647   */\n      0x1f\n        /* \"#utility.yul\":637:643   */\n      dup4\n        /* \"#utility.yul\":633:648   */\n      add\n        /* \"#utility.yul\":629:658   */\n      and\n        /* \"#utility.yul\":624:627   */\n      dup6\n        /* \"#utility.yul\":620:659   */\n      add\n        /* \"#utility.yul\":616:666   */\n      add\n        /* \"#utility.yul\":609:666   */\n      swap2\n      pop\n      pop\n        /* \"#utility.yul\":383:672   */\n      swap3\n      swap2\n      pop\n      pop\n      jump\t// out\n        /* \"#utility.yul\":677:897   */\n    tag_19:\n        /* \"#utility.yul\":826:828   */\n      0x20\n        /* \"#utility.yul\":815:824   */\n      dup2\n        /* \"#utility.yul\":808:829   */\n      mstore\n        /* \"#utility.yul\":789:793   */\n      0x00\n        /* \"#utility.yul\":846:891   */\n      tag_309\n        /* \"#utility.yul\":887:889   */\n      0x20\n        /* \"#utility.yul\":876:885   */\n      dup4\n        /* \"#utility.yul\":872:890   */\n      add\n        /* \"#utility.yul\":864:870   */\n      dup5\n        /* \"#utility.yul\":846:891   */\n      tag_298\n      jump\t// in\n        /* \"#utility.yul\":902:1051   */\n    tag_299:\n        /* \"#utility.yul\":976:996   */\n      dup1\n      calldataload\n        /* \"#utility.yul\":1025:1026   */\n      0x03\n        /* \"#utility.yul\":1015:1027   */\n      dup2\n      lt\n        /* \"#utility.yul\":1005:1045   */\n      tag_259\n      jumpi\n        /* \"#utility.yul\":1041:1042   */\n      0x00\n        /* \"#utility.yul\":1038:1039   */\n      dup1\n        /* \"#utility.yul\":1031:1043   */\n      revert\n        /* \"#utility.yul\":1056:1332   */\n    tag_22:\n        /* \"#utility.yul\":1134:1140   */\n      0x00\n        /* \"#utility.yul\":1142:1148   */\n      dup1\n        /* \"#utility.yul\":1195:1197   */\n      0x40\n        /* \"#utility.yul\":1183:1192   */\n      dup4\n        /* \"#utility.yul\":1174:1181   */\n      dup6\n        /* \"#utility.yul\":1170:1193   */\n      sub\n        /* \"#utility.yul\":1166:1198   */\n      slt\n        /* \"#utility.yul\":1163:1215   */\n      iszero\n      tag_316\n      jumpi\n        /* \"#utility.yul\":1211:1212   */\n      0x00\n        /* \"#utility.yul\":1208:1209   */\n      dup1\n        /* \"#utility.yul\":1201:1213   */\n      revert\n        /* \"#utility.yul\":1163:1215   */\n    tag_316:\n        /* \"#utility.yul\":1234:1269   */\n      tag_317\n        /* \"#utility.yul\":1259:1268   */\n      dup4\n        /* \"#utility.yul\":1234:1269   */\n      tag_299\n      jump\t// in\n    tag_317:\n        /* \"#utility.yul\":1224:1269   */\n      swap2\n      pop\n        /* \"#utility.yul\":1288:1326   */\n      tag_318\n        /* \"#utility.yul\":1322:1324   */\n      0x20\n        /* \"#utility.yul\":1311:1320   */\n      dup5\n        /* \"#utility.yul\":1307:1325   */\n      add\n        /* \"#utility.yul\":1288:1326   */\n      tag_297\n      jump\t// in\n    tag_318:\n        /* \"#utility.yul\":1278:1326   */\n      swap1\n      pop\n        /* \"#utility.yul\":1056:1332   */\n      swap3\n      pop\n      swap3\n      swap1\n      pop\n      jump\t// out\n        /* \"#utility.yul\":1337:1464   */\n    tag_300:\n        /* \"#utility.yul\":1398:1408   */\n      0x4e487b71\n        /* \"#utility.yul\":1393:1396   */\n      0xe0\n        /* \"#utility.yul\":1389:1409   */\n      shl\n        /* \"#utility.yul\":1386:1387   */\n      0x00\n        /* \"#utility.yul\":1379:1410   */\n      mstore\n        /* \"#utility.yul\":1429:1433   */\n      0x41\n        /* \"#utility.yul\":1426:1427   */\n      0x04\n        /* \"#utility.yul\":1419:1434   */\n      mstore\n        /* \"#utility.yul\":1453:1457   */\n      0x24\n        /* \"#utility.yul\":1450:1451   */\n      0x00\n        /* \"#utility.yul\":1443:1458   */\n      revert\n        /* \"#utility.yul\":1469:2498   */\n    tag_29:\n        /* \"#utility.yul\":1547:1553   */\n      0x00\n        /* \"#utility.yul\":1555:1561   */\n      dup1\n        /* \"#utility.yul\":1608:1610   */\n      0x40\n        /* \"#utility.yul\":1596:1605   */\n      dup4\n        /* \"#utility.yul\":1587:1594   */\n      dup6\n        /* \"#utility.yul\":1583:1606   */\n      sub\n        /* \"#utility.yul\":1579:1611   */\n      slt\n        /* \"#utility.yul\":1576:1628   */\n      iszero\n      tag_321\n      jumpi\n        /* \"#utility.yul\":1624:1625   */\n      0x00\n        /* \"#utility.yul\":1621:1622   */\n      dup1\n        /* \"#utility.yul\":1614:1626   */\n      revert\n        /* \"#utility.yul\":1576:1628   */\n    tag_321:\n        /* \"#utility.yul\":1664:1673   */\n      dup3\n        /* \"#utility.yul\":1651:1674   */\n      calldataload\n        /* \"#utility.yul\":1697:1715   */\n      0xffffffffffffffff\n        /* \"#utility.yul\":1689:1695   */\n      dup2\n        /* \"#utility.yul\":1686:1716   */\n      gt\n        /* \"#utility.yul\":1683:1733   */\n      iszero\n      tag_322\n      jumpi\n        /* \"#utility.yul\":1729:1730   */\n      0x00\n        /* \"#utility.yul\":1726:1727   */\n      dup1\n        /* \"#utility.yul\":1719:1731   */\n      revert\n        /* \"#utility.yul\":1683:1733   */\n    tag_322:\n        /* \"#utility.yul\":1752:1774   */\n      dup4\n      add\n        /* \"#utility.yul\":1805:1809   */\n      0x1f\n        /* \"#utility.yul\":1797:1810   */\n      dup2\n      add\n        /* \"#utility.yul\":1793:1820   */\n      dup6\n      sgt\n        /* \"#utility.yul\":1783:1838   */\n      tag_323\n      jumpi\n        /* \"#utility.yul\":1834:1835   */\n      0x00\n        /* \"#utility.yul\":1831:1832   */\n      dup1\n        /* \"#utility.yul\":1824:1836   */\n      revert\n        /* \"#utility.yul\":1783:1838   */\n    tag_323:\n        /* \"#utility.yul\":1874:1876   */\n      dup1\n        /* \"#utility.yul\":1861:1877   */\n      calldataload\n        /* \"#utility.yul\":1900:1918   */\n      0xffffffffffffffff\n        /* \"#utility.yul\":1892:1898   */\n      dup2\n        /* \"#utility.yul\":1889:1919   */\n      gt\n        /* \"#utility.yul\":1886:1942   */\n      iszero\n      tag_325\n      jumpi\n        /* \"#utility.yul\":1922:1940   */\n      tag_325\n      tag_300\n      jump\t// in\n    tag_325:\n        /* \"#utility.yul\":1971:1973   */\n      0x40\n        /* \"#utility.yul\":1965:1974   */\n      mload\n        /* \"#utility.yul\":2063:2065   */\n      0x1f\n        /* \"#utility.yul\":2025:2042   */\n      dup3\n      add\n      not(0x1f)\n        /* \"#utility.yul\":2021:2052   */\n      swap1\n      dup2\n      and\n        /* \"#utility.yul\":2054:2056   */\n      0x3f\n        /* \"#utility.yul\":2017:2057   */\n      add\n        /* \"#utility.yul\":2013:2067   */\n      and\n        /* \"#utility.yul\":2001:2068   */\n      dup2\n      add\n        /* \"#utility.yul\":2098:2116   */\n      0xffffffffffffffff\n        /* \"#utility.yul\":2083:2117   */\n      dup2\n      gt\n        /* \"#utility.yul\":2119:2141   */\n      dup3\n      dup3\n      lt\n        /* \"#utility.yul\":2080:2142   */\n      or\n        /* \"#utility.yul\":2077:2165   */\n      iszero\n      tag_327\n      jumpi\n        /* \"#utility.yul\":2145:2163   */\n      tag_327\n      tag_300\n      jump\t// in\n    tag_327:\n        /* \"#utility.yul\":2181:2183   */\n      0x40\n        /* \"#utility.yul\":2174:2196   */\n      mstore\n        /* \"#utility.yul\":2205:2227   */\n      dup2\n      dup2\n      mstore\n        /* \"#utility.yul\":2246:2261   */\n      dup3\n      dup3\n      add\n        /* \"#utility.yul\":2263:2267   */\n      0x20\n        /* \"#utility.yul\":2242:2268   */\n      add\n        /* \"#utility.yul\":2239:2278   */\n      dup8\n      lt\n        /* \"#utility.yul\":2236:2295   */\n      iszero\n      tag_328\n      jumpi\n        /* \"#utility.yul\":2291:2292   */\n      0x00\n        /* \"#utility.yul\":2288:2289   */\n      dup1\n        /* \"#utility.yul\":2281:2293   */\n      revert\n        /* \"#utility.yul\":2236:2295   */\n    tag_328:\n        /* \"#utility.yul\":2351:2357   */\n      dup2\n        /* \"#utility.yul\":2344:2348   */\n      0x20\n        /* \"#utility.yul\":2340:2342   */\n      dup5\n        /* \"#utility.yul\":2336:2349   */\n      add\n        /* \"#utility.yul\":2329:2333   */\n      0x20\n        /* \"#utility.yul\":2321:2327   */\n      dup4\n        /* \"#utility.yul\":2317:2334   */\n      add\n        /* \"#utility.yul\":2304:2358   */\n      calldatacopy\n        /* \"#utility.yul\":2406:2407   */\n      0x00\n        /* \"#utility.yul\":2399:2403   */\n      0x20\n        /* \"#utility.yul\":2390:2396   */\n      dup4\n        /* \"#utility.yul\":2382:2388   */\n      dup4\n        /* \"#utility.yul\":2378:2397   */\n      add\n        /* \"#utility.yul\":2374:2404   */\n      add\n        /* \"#utility.yul\":2367:2408   */\n      mstore\n        /* \"#utility.yul\":2427:2433   */\n      dup1\n        /* \"#utility.yul\":2417:2433   */\n      swap5\n      pop\n      pop\n      pop\n      pop\n        /* \"#utility.yul\":2452:2492   */\n      tag_318\n        /* \"#utility.yul\":2486:2490   */\n      0x20\n        /* \"#utility.yul\":2475:2484   */\n      dup5\n        /* \"#utility.yul\":2471:2491   */\n      add\n        /* \"#utility.yul\":2452:2492   */\n      tag_297\n      jump\t// in\n        /* \"#utility.yul\":2503:3543   */\n    tag_34:\n        /* \"#utility.yul\":2691:2695   */\n      0x00\n        /* \"#utility.yul\":2739:2741   */\n      0x20\n        /* \"#utility.yul\":2728:2737   */\n      dup3\n        /* \"#utility.yul\":2724:2742   */\n      add\n        /* \"#utility.yul\":2769:2771   */\n      0x20\n        /* \"#utility.yul\":2758:2767   */\n      dup4\n        /* \"#utility.yul\":2751:2772   */\n      mstore\n        /* \"#utility.yul\":2792:2798   */\n      dup1\n        /* \"#utility.yul\":2827:2833   */\n      dup5\n        /* \"#utility.yul\":2821:2834   */\n      mload\n        /* \"#utility.yul\":2858:2864   */\n      dup1\n        /* \"#utility.yul\":2850:2856   */\n      dup4\n        /* \"#utility.yul\":2843:2865   */\n      mstore\n        /* \"#utility.yul\":2896:2898   */\n      0x40\n        /* \"#utility.yul\":2885:2894   */\n      dup6\n        /* \"#utility.yul\":2881:2899   */\n      add\n        /* \"#utility.yul\":2874:2899   */\n      swap2\n      pop\n        /* \"#utility.yul\":2958:2960   */\n      0x40\n        /* \"#utility.yul\":2948:2954   */\n      dup2\n        /* \"#utility.yul\":2945:2946   */\n      0x05\n        /* \"#utility.yul\":2941:2955   */\n      shl\n        /* \"#utility.yul\":2930:2939   */\n      dup7\n        /* \"#utility.yul\":2926:2956   */\n      add\n        /* \"#utility.yul\":2922:2961   */\n      add\n        /* \"#utility.yul\":2908:2961   */\n      swap3\n      pop\n        /* \"#utility.yul\":2996:2998   */\n      0x20\n        /* \"#utility.yul\":2988:2994   */\n      dup7\n        /* \"#utility.yul\":2984:2999   */\n      add\n        /* \"#utility.yul\":3017:3018   */\n      0x00\n        /* \"#utility.yul\":3027:3514   */\n    tag_331:\n        /* \"#utility.yul\":3041:3047   */\n      dup3\n        /* \"#utility.yul\":3038:3039   */\n      dup2\n        /* \"#utility.yul\":3035:3048   */\n      lt\n        /* \"#utility.yul\":3027:3514   */\n      iszero\n      tag_333\n      jumpi\n        /* \"#utility.yul\":3134:3136   */\n      0x3f\n        /* \"#utility.yul\":3130:3137   */\n      not\n        /* \"#utility.yul\":3118:3127   */\n      dup8\n        /* \"#utility.yul\":3110:3116   */\n      dup7\n        /* \"#utility.yul\":3106:3128   */\n      sub\n        /* \"#utility.yul\":3102:3138   */\n      add\n        /* \"#utility.yul\":3097:3100   */\n      dup5\n        /* \"#utility.yul\":3090:3139   */\n      mstore\n        /* \"#utility.yul\":3168:3174   */\n      dup2\n        /* \"#utility.yul\":3162:3175   */\n      mload\n        /* \"#utility.yul\":3214:3216   */\n      dup1\n        /* \"#utility.yul\":3208:3217   */\n      mload\n        /* \"#utility.yul\":3245:3247   */\n      0x40\n        /* \"#utility.yul\":3237:3243   */\n      dup8\n        /* \"#utility.yul\":3230:3248   */\n      mstore\n        /* \"#utility.yul\":3275:3323   */\n      tag_334\n        /* \"#utility.yul\":3319:3321   */\n      0x40\n        /* \"#utility.yul\":3311:3317   */\n      dup9\n        /* \"#utility.yul\":3307:3322   */\n      add\n        /* \"#utility.yul\":3293:3305   */\n      dup3\n        /* \"#utility.yul\":3275:3323   */\n      tag_298\n      jump\t// in\n    tag_334:\n        /* \"#utility.yul\":3378:3380   */\n      0x20\n        /* \"#utility.yul\":3370:3381   */\n      swap3\n      dup4\n      add\n        /* \"#utility.yul\":3364:3382   */\n      mload\n      sub(shl(0xa0, 0x01), 0x01)\n        /* \"#utility.yul\":3360:3404   */\n      and\n        /* \"#utility.yul\":3343:3358   */\n      swap8\n      dup4\n      add\n        /* \"#utility.yul\":3336:3405   */\n      swap8\n      swap1\n      swap8\n      mstore\n      pop\n        /* \"#utility.yul\":3492:3504   */\n      swap4\n      dup5\n      add\n      swap4\n        /* \"#utility.yul\":3457:3472   */\n      swap2\n      swap1\n      swap2\n      add\n      swap1\n        /* \"#utility.yul\":3401:3402   */\n      0x01\n        /* \"#utility.yul\":3056:3065   */\n      add\n        /* \"#utility.yul\":3027:3514   */\n      jump(tag_331)\n    tag_333:\n      pop\n        /* \"#utility.yul\":3531:3537   */\n      swap3\n      swap7\n        /* \"#utility.yul\":2503:3543   */\n      swap6\n      pop\n      pop\n      pop\n      pop\n      pop\n      pop\n      jump\t// out\n        /* \"#utility.yul\":3740:3942   */\n    tag_41:\n        /* \"#utility.yul\":3809:3815   */\n      0x00\n        /* \"#utility.yul\":3862:3864   */\n      0x20\n        /* \"#utility.yul\":3850:3859   */\n      dup3\n        /* \"#utility.yul\":3841:3848   */\n      dup5\n        /* \"#utility.yul\":3837:3860   */\n      sub\n        /* \"#utility.yul\":3833:3865   */\n      slt\n        /* \"#utility.yul\":3830:3882   */\n      iszero\n      tag_337\n      jumpi\n        /* \"#utility.yul\":3878:3879   */\n      0x00\n        /* \"#utility.yul\":3875:3876   */\n      dup1\n        /* \"#utility.yul\":3868:3880   */\n      revert\n        /* \"#utility.yul\":3830:3882   */\n    tag_337:\n        /* \"#utility.yul\":3901:3936   */\n      tag_309\n        /* \"#utility.yul\":3926:3935   */\n      dup3\n        /* \"#utility.yul\":3901:3936   */\n      tag_299\n      jump\t// in\n        /* \"#utility.yul\":3947:4584   */\n    tag_44:\n        /* \"#utility.yul\":4137:4139   */\n      0x20\n        /* \"#utility.yul\":4149:4170   */\n      dup1\n      dup3\n      mstore\n        /* \"#utility.yul\":4219:4232   */\n      dup3\n      mload\n        /* \"#utility.yul\":4122:4140   */\n      dup3\n      dup3\n      add\n        /* \"#utility.yul\":4241:4263   */\n      dup2\n      swap1\n      mstore\n        /* \"#utility.yul\":4089:4093   */\n      0x00\n      swap2\n        /* \"#utility.yul\":4320:4335   */\n      dup5\n      add\n      swap1\n        /* \"#utility.yul\":4294:4296   */\n      0x40\n        /* \"#utility.yul\":4279:4297   */\n      dup5\n      add\n      swap1\n        /* \"#utility.yul\":4089:4093   */\n      dup4\n        /* \"#utility.yul\":4363:4558   */\n    tag_340:\n        /* \"#utility.yul\":4377:4383   */\n      dup2\n        /* \"#utility.yul\":4374:4375   */\n      dup2\n        /* \"#utility.yul\":4371:4384   */\n      lt\n        /* \"#utility.yul\":4363:4558   */\n      iszero\n      tag_342\n      jumpi\n        /* \"#utility.yul\":4442:4455   */\n      dup4\n      mload\n      sub(shl(0xa0, 0x01), 0x01)\n        /* \"#utility.yul\":4438:4477   */\n      and\n        /* \"#utility.yul\":4426:4478   */\n      dup4\n      mstore\n        /* \"#utility.yul\":4507:4509   */\n      0x20\n        /* \"#utility.yul\":4533:4548   */\n      swap4\n      dup5\n      add\n      swap4\n        /* \"#utility.yul\":4498:4510   */\n      swap1\n      swap3\n      add\n      swap2\n        /* \"#utility.yul\":4474:4475   */\n      0x01\n        /* \"#utility.yul\":4392:4401   */\n      add\n        /* \"#utility.yul\":4363:4558   */\n      jump(tag_340)\n    tag_342:\n      pop\n        /* \"#utility.yul\":4575:4578   */\n      swap1\n      swap6\n        /* \"#utility.yul\":3947:4584   */\n      swap5\n      pop\n      pop\n      pop\n      pop\n      pop\n      jump\t// out\n        /* \"#utility.yul\":4589:4969   */\n    tag_52:\n        /* \"#utility.yul\":4668:4669   */\n      0x01\n        /* \"#utility.yul\":4664:4676   */\n      dup2\n      dup2\n      shr\n      swap1\n        /* \"#utility.yul\":4711:4723   */\n      dup3\n      and\n      dup1\n        /* \"#utility.yul\":4732:4793   */\n      tag_344\n      jumpi\n        /* \"#utility.yul\":4786:4790   */\n      0x7f\n        /* \"#utility.yul\":4778:4784   */\n      dup3\n        /* \"#utility.yul\":4774:4791   */\n      and\n        /* \"#utility.yul\":4764:4791   */\n      swap2\n      pop\n        /* \"#utility.yul\":4732:4793   */\n    tag_344:\n        /* \"#utility.yul\":4839:4841   */\n      0x20\n        /* \"#utility.yul\":4831:4837   */\n      dup3\n        /* \"#utility.yul\":4828:4842   */\n      lt\n        /* \"#utility.yul\":4808:4826   */\n      dup2\n        /* \"#utility.yul\":4805:4843   */\n      sub\n        /* \"#utility.yul\":4802:4963   */\n      tag_345\n      jumpi\n        /* \"#utility.yul\":4885:4895   */\n      0x4e487b71\n        /* \"#utility.yul\":4880:4883   */\n      0xe0\n        /* \"#utility.yul\":4876:4896   */\n      shl\n        /* \"#utility.yul\":4873:4874   */\n      0x00\n        /* \"#utility.yul\":4866:4897   */\n      mstore\n        /* \"#utility.yul\":4920:4924   */\n      0x22\n        /* \"#utility.yul\":4917:4918   */\n      0x04\n        /* \"#utility.yul\":4910:4925   */\n      mstore\n        /* \"#utility.yul\":4948:4952   */\n      0x24\n        /* \"#utility.yul\":4945:4946   */\n      0x00\n        /* \"#utility.yul\":4938:4953   */\n      revert\n        /* \"#utility.yul\":4802:4963   */\n    tag_345:\n      pop\n        /* \"#utility.yul\":4589:4969   */\n      swap2\n      swap1\n      pop\n      jump\t// out\n        /* \"#utility.yul\":5654:5879   */\n    tag_76:\n        /* \"#utility.yul\":5721:5730   */\n      dup2\n      dup2\n      sub\n        /* \"#utility.yul\":5742:5753   */\n      dup2\n      dup2\n      gt\n        /* \"#utility.yul\":5739:5873   */\n      iszero\n      tag_276\n      jumpi\n        /* \"#utility.yul\":5795:5805   */\n      0x4e487b71\n        /* \"#utility.yul\":5790:5793   */\n      0xe0\n        /* \"#utility.yul\":5786:5806   */\n      shl\n        /* \"#utility.yul\":5783:5784   */\n      0x00\n        /* \"#utility.yul\":5776:5807   */\n      mstore\n        /* \"#utility.yul\":5830:5834   */\n      0x11\n        /* \"#utility.yul\":5827:5828   */\n      0x04\n        /* \"#utility.yul\":5820:5835   */\n      mstore\n        /* \"#utility.yul\":5858:5862   */\n      0x24\n        /* \"#utility.yul\":5855:5856   */\n      0x00\n        /* \"#utility.yul\":5848:5863   */\n      revert\n        /* \"#utility.yul\":5884:6011   */\n    tag_79:\n        /* \"#utility.yul\":5945:5955   */\n      0x4e487b71\n        /* \"#utility.yul\":5940:5943   */\n      0xe0\n        /* \"#utility.yul\":5936:5956   */\n      shl\n        /* \"#utility.yul\":5933:5934   */\n      0x00\n        /* \"#utility.yul\":5926:5957   */\n      mstore\n        /* \"#utility.yul\":5976:5980   */\n      0x32\n        /* \"#utility.yul\":5973:5974   */\n      0x04\n        /* \"#utility.yul\":5966:5981   */\n      mstore\n        /* \"#utility.yul\":6000:6004   */\n      0x24\n        /* \"#utility.yul\":5997:5998   */\n      0x00\n        /* \"#utility.yul\":5990:6005   */\n      revert\n        /* \"#utility.yul\":6142:6660   */\n    tag_302:\n        /* \"#utility.yul\":6244:6246   */\n      0x1f\n        /* \"#utility.yul\":6239:6242   */\n      dup3\n        /* \"#utility.yul\":6236:6247   */\n      gt\n        /* \"#utility.yul\":6233:6654   */\n      iszero\n      tag_353\n      jumpi\n        /* \"#utility.yul\":6280:6285   */\n      dup1\n        /* \"#utility.yul\":6277:6278   */\n      0x00\n        /* \"#utility.yul\":6270:6286   */\n      mstore\n        /* \"#utility.yul\":6324:6328   */\n      0x20\n        /* \"#utility.yul\":6321:6322   */\n      0x00\n        /* \"#utility.yul\":6311:6329   */\n      keccak256\n        /* \"#utility.yul\":6394:6396   */\n      0x1f\n        /* \"#utility.yul\":6382:6392   */\n      dup5\n        /* \"#utility.yul\":6378:6397   */\n      add\n        /* \"#utility.yul\":6375:6376   */\n      0x05\n        /* \"#utility.yul\":6371:6398   */\n      shr\n        /* \"#utility.yul\":6365:6369   */\n      dup2\n        /* \"#utility.yul\":6361:6399   */\n      add\n        /* \"#utility.yul\":6430:6434   */\n      0x20\n        /* \"#utility.yul\":6418:6428   */\n      dup6\n        /* \"#utility.yul\":6415:6435   */\n      lt\n        /* \"#utility.yul\":6412:6459   */\n      iszero\n      tag_354\n      jumpi\n      pop\n        /* \"#utility.yul\":6453:6457   */\n      dup1\n        /* \"#utility.yul\":6412:6459   */\n    tag_354:\n        /* \"#utility.yul\":6508:6510   */\n      0x1f\n        /* \"#utility.yul\":6503:6506   */\n      dup5\n        /* \"#utility.yul\":6499:6511   */\n      add\n        /* \"#utility.yul\":6496:6497   */\n      0x05\n        /* \"#utility.yul\":6492:6512   */\n      shr\n        /* \"#utility.yul\":6486:6490   */\n      dup3\n        /* \"#utility.yul\":6482:6513   */\n      add\n        /* \"#utility.yul\":6472:6513   */\n      swap2\n      pop\n        /* \"#utility.yul\":6563:6644   */\n    tag_355:\n        /* \"#utility.yul\":6581:6583   */\n      dup2\n        /* \"#utility.yul\":6574:6579   */\n      dup2\n        /* \"#utility.yul\":6571:6584   */\n      lt\n        /* \"#utility.yul\":6563:6644   */\n      iszero\n      tag_357\n      jumpi\n        /* \"#utility.yul\":6640:6641   */\n      0x00\n        /* \"#utility.yul\":6626:6642   */\n      dup2\n      sstore\n        /* \"#utility.yul\":6607:6608   */\n      0x01\n        /* \"#utility.yul\":6596:6609   */\n      add\n        /* \"#utility.yul\":6563:6644   */\n      jump(tag_355)\n    tag_357:\n        /* \"#utility.yul\":6567:6570   */\n      pop\n      pop\n        /* \"#utility.yul\":6233:6654   */\n    tag_353:\n        /* \"#utility.yul\":6142:6660   */\n      pop\n      pop\n      pop\n      jump\t// out\n        /* \"#utility.yul\":6836:8229   */\n    tag_85:\n        /* \"#utility.yul\":6951:6954   */\n      dup2\n        /* \"#utility.yul\":6945:6949   */\n      dup2\n        /* \"#utility.yul\":6942:6955   */\n      sub\n        /* \"#utility.yul\":6939:6965   */\n      tag_360\n      jumpi\n        /* \"#utility.yul\":6958:6963   */\n      pop\n      pop\n        /* \"#utility.yul\":6836:8229   */\n      jump\t// out\n        /* \"#utility.yul\":6939:6965   */\n    tag_360:\n        /* \"#utility.yul\":6988:7025   */\n      tag_361\n        /* \"#utility.yul\":7020:7023   */\n      dup3\n        /* \"#utility.yul\":7014:7024   */\n      sload\n        /* \"#utility.yul\":6988:7025   */\n      tag_52\n      jump\t// in\n    tag_361:\n        /* \"#utility.yul\":7048:7066   */\n      0xffffffffffffffff\n        /* \"#utility.yul\":7040:7046   */\n      dup2\n        /* \"#utility.yul\":7037:7067   */\n      gt\n        /* \"#utility.yul\":7034:7090   */\n      iszero\n      tag_363\n      jumpi\n        /* \"#utility.yul\":7070:7088   */\n      tag_363\n      tag_300\n      jump\t// in\n    tag_363:\n        /* \"#utility.yul\":7099:7196   */\n      tag_364\n        /* \"#utility.yul\":7189:7195   */\n      dup2\n        /* \"#utility.yul\":7149:7187   */\n      tag_365\n        /* \"#utility.yul\":7181:7185   */\n      dup5\n        /* \"#utility.yul\":7175:7186   */\n      sload\n        /* \"#utility.yul\":7149:7187   */\n      tag_52\n      jump\t// in\n    tag_365:\n        /* \"#utility.yul\":7143:7147   */\n      dup5\n        /* \"#utility.yul\":7099:7196   */\n      tag_302\n      jump\t// in\n    tag_364:\n        /* \"#utility.yul\":7222:7223   */\n      0x00\n        /* \"#utility.yul\":7250:7252   */\n      0x1f\n        /* \"#utility.yul\":7242:7248   */\n      dup3\n        /* \"#utility.yul\":7239:7253   */\n      gt\n        /* \"#utility.yul\":7267:7268   */\n      0x01\n        /* \"#utility.yul\":7262:7972   */\n      dup2\n      eq\n      tag_367\n      jumpi\n        /* \"#utility.yul\":8016:8017   */\n      0x00\n        /* \"#utility.yul\":8033:8039   */\n      dup4\n        /* \"#utility.yul\":8030:8119   */\n      iszero\n      tag_368\n      jumpi\n      pop\n        /* \"#utility.yul\":8085:8104   */\n      dup5\n      dup3\n      add\n        /* \"#utility.yul\":8079:8105   */\n      sload\n        /* \"#utility.yul\":8030:8119   */\n    tag_368:\n        /* \"#utility.yul\":6817:6818   */\n      0x01\n        /* \"#utility.yul\":6813:6824   */\n      dup5\n      swap1\n      shl\n      not(0x00)\n        /* \"#utility.yul\":6793:6794   */\n      0x03\n        /* \"#utility.yul\":6789:6800   */\n      dup7\n      swap1\n      shl\n        /* \"#utility.yul\":6785:6809   */\n      shr\n        /* \"#utility.yul\":6781:6810   */\n      not\n        /* \"#utility.yul\":6771:6811   */\n      dup3\n      and\n        /* \"#utility.yul\":6768:6825   */\n      or\n        /* \"#utility.yul\":8145:8212   */\n    tag_369:\n        /* \"#utility.yul\":8139:8143   */\n      dup6\n        /* \"#utility.yul\":8132:8213   */\n      sstore\n      pop\n        /* \"#utility.yul\":7232:8223   */\n      jump(tag_357)\n        /* \"#utility.yul\":7262:7972   */\n    tag_367:\n        /* \"#utility.yul\":6089:6090   */\n      0x00\n        /* \"#utility.yul\":6082:6096   */\n      dup6\n      dup2\n      mstore\n        /* \"#utility.yul\":6126:6130   */\n      0x20\n        /* \"#utility.yul\":6113:6131   */\n      dup1\n      dup3\n      keccak256\n        /* \"#utility.yul\":6082:6096   */\n      dup7\n      dup4\n      mstore\n        /* \"#utility.yul\":6113:6131   */\n      swap1\n      dup3\n      keccak256\n      not(0x1f)\n        /* \"#utility.yul\":7298:7318   */\n      dup7\n      and\n      swap3\n        /* \"#utility.yul\":7476:7697   */\n    tag_372:\n        /* \"#utility.yul\":7490:7497   */\n      dup4\n        /* \"#utility.yul\":7487:7488   */\n      dup2\n        /* \"#utility.yul\":7484:7498   */\n      lt\n        /* \"#utility.yul\":7476:7697   */\n      iszero\n      tag_374\n      jumpi\n        /* \"#utility.yul\":7572:7593   */\n      dup3\n      dup7\n      add\n        /* \"#utility.yul\":7566:7594   */\n      sload\n        /* \"#utility.yul\":7551:7595   */\n      dup3\n      sstore\n        /* \"#utility.yul\":7634:7635   */\n      0x01\n        /* \"#utility.yul\":7666:7683   */\n      swap6\n      dup7\n      add\n      swap6\n        /* \"#utility.yul\":7622:7636   */\n      swap1\n      swap2\n      add\n      swap1\n        /* \"#utility.yul\":7513:7517   */\n      0x20\n        /* \"#utility.yul\":7506:7518   */\n      add\n        /* \"#utility.yul\":7476:7697   */\n      jump(tag_372)\n    tag_374:\n        /* \"#utility.yul\":7480:7483   */\n      pop\n        /* \"#utility.yul\":7725:7731   */\n      dup6\n        /* \"#utility.yul\":7716:7723   */\n      dup4\n        /* \"#utility.yul\":7713:7732   */\n      lt\n        /* \"#utility.yul\":7710:7913   */\n      iszero\n      tag_375\n      jumpi\n        /* \"#utility.yul\":7786:7807   */\n      dup2\n      dup6\n      add\n        /* \"#utility.yul\":7780:7808   */\n      sload\n      not(0x00)\n        /* \"#utility.yul\":7871:7872   */\n      0x03\n        /* \"#utility.yul\":7867:7881   */\n      dup9\n      swap1\n      shl\n        /* \"#utility.yul\":7883:7886   */\n      0xf8\n        /* \"#utility.yul\":7863:7887   */\n      and\n        /* \"#utility.yul\":7859:7896   */\n      shr\n        /* \"#utility.yul\":7855:7897   */\n      not\n        /* \"#utility.yul\":7840:7898   */\n      and\n        /* \"#utility.yul\":7825:7899   */\n      dup2\n      sstore\n        /* \"#utility.yul\":7710:7913   */\n    tag_375:\n      pop\n      pop\n      pop\n      pop\n      pop\n        /* \"#utility.yul\":7959:7960   */\n      0x01\n        /* \"#utility.yul\":7943:7957   */\n      swap1\n      dup2\n      shl\n        /* \"#utility.yul\":7939:7961   */\n      add\n        /* \"#utility.yul\":7926:7962   */\n      swap1\n      sstore\n      pop\n        /* \"#utility.yul\":6836:8229   */\n      jump\t// out\n        /* \"#utility.yul\":8234:8361   */\n    tag_88:\n        /* \"#utility.yul\":8295:8305   */\n      0x4e487b71\n        /* \"#utility.yul\":8290:8293   */\n      0xe0\n        /* \"#utility.yul\":8286:8306   */\n      shl\n        /* \"#utility.yul\":8283:8284   */\n      0x00\n        /* \"#utility.yul\":8276:8307   */\n      mstore\n        /* \"#utility.yul\":8326:8330   */\n      0x31\n        /* \"#utility.yul\":8323:8324   */\n      0x04\n        /* \"#utility.yul\":8316:8331   */\n      mstore\n        /* \"#utility.yul\":8350:8354   */\n      0x24\n        /* \"#utility.yul\":8347:8348   */\n      0x00\n        /* \"#utility.yul\":8340:8355   */\n      revert\n        /* \"#utility.yul\":8366:8701   */\n    tag_104:\n        /* \"#utility.yul\":8568:8570   */\n      0x20\n        /* \"#utility.yul\":8550:8571   */\n      dup1\n      dup3\n      mstore\n        /* \"#utility.yul\":8607:8609   */\n      0x0b\n        /* \"#utility.yul\":8587:8605   */\n      swap1\n      dup3\n      add\n        /* \"#utility.yul\":8580:8610   */\n      mstore\n      shl(0xa9, 0x27b7363c9036b2b6b132b9)\n        /* \"#utility.yul\":8641:8643   */\n      0x40\n        /* \"#utility.yul\":8626:8644   */\n      dup3\n      add\n        /* \"#utility.yul\":8619:8660   */\n      mstore\n        /* \"#utility.yul\":8692:8694   */\n      0x60\n        /* \"#utility.yul\":8677:8695   */\n      add\n      swap1\n        /* \"#utility.yul\":8366:8701   */\n      jump\t// out\n        /* \"#utility.yul\":8706:8833   */\n    tag_127:\n        /* \"#utility.yul\":8767:8777   */\n      0x4e487b71\n        /* \"#utility.yul\":8762:8765   */\n      0xe0\n        /* \"#utility.yul\":8758:8778   */\n      shl\n        /* \"#utility.yul\":8755:8756   */\n      0x00\n        /* \"#utility.yul\":8748:8779   */\n      mstore\n        /* \"#utility.yul\":8798:8802   */\n      0x21\n        /* \"#utility.yul\":8795:8796   */\n      0x04\n        /* \"#utility.yul\":8788:8803   */\n      mstore\n        /* \"#utility.yul\":8822:8826   */\n      0x24\n        /* \"#utility.yul\":8819:8820   */\n      0x00\n        /* \"#utility.yul\":8812:8827   */\n      revert\n        /* \"#utility.yul\":9852:11151   */\n    tag_220:\n        /* \"#utility.yul\":9978:9981   */\n      dup2\n        /* \"#utility.yul\":9972:9982   */\n      mload\n        /* \"#utility.yul\":10005:10023   */\n      0xffffffffffffffff\n        /* \"#utility.yul\":9997:10003   */\n      dup2\n        /* \"#utility.yul\":9994:10024   */\n      gt\n        /* \"#utility.yul\":9991:10047   */\n      iszero\n      tag_384\n      jumpi\n        /* \"#utility.yul\":10027:10045   */\n      tag_384\n      tag_300\n      jump\t// in\n    tag_384:\n        /* \"#utility.yul\":10056:10153   */\n      tag_385\n        /* \"#utility.yul\":10146:10152   */\n      dup2\n        /* \"#utility.yul\":10106:10144   */\n      tag_365\n        /* \"#utility.yul\":10138:10142   */\n      dup5\n        /* \"#utility.yul\":10132:10143   */\n      sload\n        /* \"#utility.yul\":10106:10144   */\n      tag_52\n      jump\t// in\n        /* \"#utility.yul\":10056:10153   */\n    tag_385:\n        /* \"#utility.yul\":10202:10206   */\n      0x20\n        /* \"#utility.yul\":10233:10235   */\n      0x1f\n        /* \"#utility.yul\":10222:10236   */\n      dup3\n      gt\n        /* \"#utility.yul\":10250:10251   */\n      0x01\n        /* \"#utility.yul\":10245:10894   */\n      dup2\n      eq\n      tag_388\n      jumpi\n        /* \"#utility.yul\":10938:10939   */\n      0x00\n        /* \"#utility.yul\":10955:10961   */\n      dup4\n        /* \"#utility.yul\":10952:11041   */\n      iszero\n      tag_368\n      jumpi\n      pop\n        /* \"#utility.yul\":11007:11026   */\n      dup2\n      dup6\n      add\n        /* \"#utility.yul\":11001:11027   */\n      mload\n        /* \"#utility.yul\":6817:6818   */\n      0x01\n        /* \"#utility.yul\":6813:6824   */\n      dup5\n      swap1\n      shl\n      not(0x00)\n        /* \"#utility.yul\":6793:6794   */\n      0x03\n        /* \"#utility.yul\":6789:6800   */\n      dup7\n      swap1\n      shl\n        /* \"#utility.yul\":6785:6809   */\n      shr\n        /* \"#utility.yul\":6781:6810   */\n      not\n        /* \"#utility.yul\":6771:6811   */\n      dup3\n      and\n        /* \"#utility.yul\":6768:6825   */\n      or\n        /* \"#utility.yul\":11067:11134   */\n      tag_369\n        /* \"#utility.yul\":6665:6831   */\n      jump\n        /* \"#utility.yul\":10245:10894   */\n    tag_388:\n        /* \"#utility.yul\":6089:6090   */\n      0x00\n        /* \"#utility.yul\":6082:6096   */\n      dup5\n      dup2\n      mstore\n        /* \"#utility.yul\":6126:6130   */\n      0x20\n        /* \"#utility.yul\":6113:6131   */\n      dup2\n      keccak256\n      not(0x1f)\n        /* \"#utility.yul\":10281:10301   */\n      dup6\n      and\n      swap2\n        /* \"#utility.yul\":10399:10621   */\n    tag_392:\n        /* \"#utility.yul\":10413:10420   */\n      dup3\n        /* \"#utility.yul\":10410:10411   */\n      dup2\n        /* \"#utility.yul\":10407:10421   */\n      lt\n        /* \"#utility.yul\":10399:10621   */\n      iszero\n      tag_394\n      jumpi\n        /* \"#utility.yul\":10495:10514   */\n      dup8\n      dup6\n      add\n        /* \"#utility.yul\":10489:10515   */\n      mload\n        /* \"#utility.yul\":10474:10516   */\n      dup3\n      sstore\n        /* \"#utility.yul\":10602:10606   */\n      0x20\n        /* \"#utility.yul\":10587:10607   */\n      swap5\n      dup6\n      add\n      swap5\n        /* \"#utility.yul\":10555:10556   */\n      0x01\n        /* \"#utility.yul\":10543:10557   */\n      swap1\n      swap3\n      add\n      swap2\n        /* \"#utility.yul\":10429:10441   */\n      add\n        /* \"#utility.yul\":10399:10621   */\n      jump(tag_392)\n    tag_394:\n        /* \"#utility.yul\":10403:10406   */\n      pop\n        /* \"#utility.yul\":10649:10655   */\n      dup5\n        /* \"#utility.yul\":10640:10647   */\n      dup3\n        /* \"#utility.yul\":10637:10656   */\n      lt\n        /* \"#utility.yul\":10634:10835   */\n      iszero\n      tag_395\n      jumpi\n        /* \"#utility.yul\":10710:10729   */\n      dup7\n      dup5\n      add\n        /* \"#utility.yul\":10704:10730   */\n      mload\n      not(0x00)\n        /* \"#utility.yul\":10793:10794   */\n      0x03\n        /* \"#utility.yul\":10789:10803   */\n      dup8\n      swap1\n      shl\n        /* \"#utility.yul\":10805:10808   */\n      0xf8\n        /* \"#utility.yul\":10785:10809   */\n      and\n        /* \"#utility.yul\":10781:10818   */\n      shr\n        /* \"#utility.yul\":10777:10819   */\n      not\n        /* \"#utility.yul\":10762:10820   */\n      and\n        /* \"#utility.yul\":10747:10821   */\n      dup2\n      sstore\n        /* \"#utility.yul\":10634:10835   */\n    tag_395:\n      pop\n      pop\n      pop\n      pop\n        /* \"#utility.yul\":10881:10882   */\n      0x01\n        /* \"#utility.yul\":10865:10879   */\n      swap1\n      dup2\n      shl\n        /* \"#utility.yul\":10861:10883   */\n      add\n        /* \"#utility.yul\":10848:10884   */\n      swap1\n      sstore\n      pop\n        /* \"#utility.yul\":9852:11151   */\n      jump\t// out\n\n    auxdata: 0xa26469706673582212201fa3a340b7df1092587697386f883531b102ec37d7a9c5d6ab162c0ceb5ee6e964736f6c634300081a0033\n}\n",
				"bytecode": {
					"linkReferences": {},
					"object": "608060405234801561000f575f80fd5b50604051611cc8380380611cc883398101604081905261002e9161016a565b5f61003984826102be565b50600380546001600160a01b038085166001600160a01b031992831681179093556004805491851691909216179055604080516080810182526001918101828152601560f91b606083015281526020810192909252805480820182555f91909152815160029091027fb10e2d527612073b26eecdfd717e6a320cf44b4afac2b0732d9fcbe2b7fa0cf6019081906100d090826102be565b50602091820151600190910180546001600160a01b0319166001600160a01b039092169190911790556040805133815230928101929092527f587ece4cd19692c5be1a4184503d607d45542d2aca0698c0068f52e09ccb541c910160405180910390a1505050610378565b634e487b7160e01b5f52604160045260245ffd5b80516001600160a01b0381168114610165575f80fd5b919050565b5f805f6060848603121561017c575f80fd5b83516001600160401b03811115610191575f80fd5b8401601f810186136101a1575f80fd5b80516001600160401b038111156101ba576101ba61013b565b604051601f8201601f19908116603f011681016001600160401b03811182821017156101e8576101e861013b565b6040528181528282016020018810156101ff575f80fd5b8160208401602083015e5f602083830101528095505050506102236020850161014f565b91506102316040850161014f565b90509250925092565b600181811c9082168061024e57607f821691505b60208210810361026c57634e487b7160e01b5f52602260045260245ffd5b50919050565b601f8211156102b957805f5260205f20601f840160051c810160208510156102975750805b601f840160051c820191505b818110156102b6575f81556001016102a3565b50505b505050565b81516001600160401b038111156102d7576102d761013b565b6102eb816102e5845461023a565b84610272565b6020601f82116001811461031d575f83156103065750848201515b5f19600385901b1c1916600184901b1784556102b6565b5f84815260208120601f198516915b8281101561034c578785015182556020948501946001909201910161032c565b508482101561036957868401515f19600387901b60f8161c191681555b50505050600190811b01905550565b611943806103855f395ff3fe608060405234801561000f575f80fd5b5060043610610085575f3560e01c806345e397051161005857806345e39705146100e25780639eab5253146100f5578063b9daf3e21461010a578063d7c4310f14610122575f80fd5b80630b1ca49a1461008957806317d7de7c1461009e57806326e3bc4e146100bc578063369080e7146100cf575b5f80fd5b61009c61009736600461142c565b610142565b005b6100a66104ac565b6040516100b3919061147a565b60405180910390f35b61009c6100ca36600461149a565b610651565b61009c6100dd36600461149a565b610a7b565b61009c6100f03660046114df565b610c7f565b6100fd610e9d565b6040516100b3919061159a565b610112610ff8565b60405190151581526020016100b3565b61013561013036600461161a565b611121565b6040516100b39190611633565b60035481906001600160a01b031633148061026f57505f1961025a336001805480602002602001604051908101604052809291908181526020015f905b82821015610251578382905f5260205f2090600202016040518060400160405290815f820180546101af9061167e565b80601f01602080910402602001604051908101604052809291908181526020018280546101db9061167e565b80156102265780601f106101fd57610100808354040283529160200191610226565b820191905f5260205f20905b81548152906001019060200180831161020957829003601f168201915b50505091835250506001918201546001600160a01b031660209182015291835292909201910161017f565b50505050611317565b13801561026f5750336001600160a01b038216145b6102b25760405162461bcd60e51b815260206004820152600f60248201526e27b7363c9037bbb732b93e39b2b63360891b60448201526064015b60405180910390fd5b5f6103aa836001805480602002602001604051908101604052809291908181526020015f905b82821015610251578382905f5260205f2090600202016040518060400160405290815f820180546103089061167e565b80601f01602080910402602001604051908101604052809291908181526020018280546103349061167e565b801561037f5780601f106103565761010080835404028352916020019161037f565b820191905f5260205f20905b81548152906001019060200180831161036257829003601f168201915b50505091835250506001918201546001600160a01b03166020918201529183529290920191016102d8565b9050805f19146103e75760405162461bcd60e51b815260206004820152600860248201526709cde40d2dcc8caf60c31b60448201526064016102a9565b600180546103f69082906116b6565b81548110610406576104066116d5565b905f5260205f20906002020160018281548110610425576104256116d5565b5f91825260209091206002909102018061043f8382611735565b5060019182015490820180546001600160a01b0319166001600160a01b039092169190911790558054806104755761047561180d565b5f828152602081205f199092019160028302019061049382826113c4565b5060010180546001600160a01b03191690559055505050565b60605f196105a7336001805480602002602001604051908101604052809291908181526020015f905b82821015610251578382905f5260205f2090600202016040518060400160405290815f820180546105059061167e565b80601f01602080910402602001604051908101604052809291908181526020018280546105319061167e565b801561057c5780601f106105535761010080835404028352916020019161057c565b820191905f5260205f20905b81548152906001019060200180831161055f57829003601f168201915b50505091835250506001918201546001600160a01b03166020918201529183529290920191016104d5565b136105c45760405162461bcd60e51b81526004016102a990611821565b5f80546105d09061167e565b80601f01602080910402602001604051908101604052809291908181526020018280546105fc9061167e565b80156106475780601f1061061e57610100808354040283529160200191610647565b820191905f5260205f20905b81548152906001019060200180831161062a57829003601f168201915b5050505050905090565b5f1961074a336001805480602002602001604051908101604052809291908181526020015f905b82821015610251578382905f5260205f2090600202016040518060400160405290815f820180546106a89061167e565b80601f01602080910402602001604051908101604052809291908181526020018280546106d49061167e565b801561071f5780601f106106f65761010080835404028352916020019161071f565b820191905f5260205f20905b81548152906001019060200180831161070257829003601f168201915b50505091835250506001918201546001600160a01b0316602091820152918352929092019101610678565b136107675760405162461bcd60e51b81526004016102a990611821565b5f6108118260025f86600281111561078157610781611846565b600281111561079257610792611846565b81526020019081526020015f20805480602002602001604051908101604052809291908181526020015f905b82821015610808575f848152602090819020604080518082019091526002850290910180546001600160a01b039081168352600191820154168284015290835290920191016107be565b50505050611374565b90505f81121561084e5760405162461bcd60e51b815260206004820152600860248201526709cde40d2dcc8caf60c31b60448201526064016102a9565b3360025f858281111561086357610863611846565b600281111561087457610874611846565b81526020019081526020015f208281548110610892576108926116d5565b5f9182526020909120600160029092020101546001600160a01b0316146108ea5760405162461bcd60e51b815260206004820152600c60248201526b27b7363c9031b932b0ba37b960a11b60448201526064016102a9565b60025f8460028111156108ff576108ff611846565b600281111561091057610910611846565b81526020019081526020015f20600160025f86600281111561093457610934611846565b600281111561094557610945611846565b815260208101919091526040015f205461095f91906116b6565b8154811061096f5761096f6116d5565b905f5260205f20906002020160025f85600281111561099057610990611846565b60028111156109a1576109a1611846565b81526020019081526020015f2082815481106109bf576109bf6116d5565b5f918252602082208354600292830290910180546001600160a01b039283166001600160a01b0319918216178255600195860154959091018054959092169416939093179092558482811115610a1757610a17611846565b6002811115610a2857610a28611846565b81526020019081526020015f20805480610a4457610a4461180d565b5f8281526020902060025f199092019182020180546001600160a01b03199081168255600191909101805490911690559055505050565b5f19610b74336001805480602002602001604051908101604052809291908181526020015f905b82821015610251578382905f5260205f2090600202016040518060400160405290815f82018054610ad29061167e565b80601f0160208091040260200160405190810160405280929190818152602001828054610afe9061167e565b8015610b495780601f10610b2057610100808354040283529160200191610b49565b820191905f5260205f20905b815481529060010190602001808311610b2c57829003601f168201915b50505091835250506001918201546001600160a01b0316602091820152918352929092019101610aa2565b13610b915760405162461bcd60e51b81526004016102a990611821565b5f610bab8260025f86600281111561078157610781611846565b90505f19811315610be75760405162461bcd60e51b815260206004820152600660248201526545786973747360d01b60448201526064016102a9565b60025f846002811115610bfc57610bfc611846565b6002811115610c0d57610c0d611846565b815260208082019290925260409081015f90812082518084019093526001600160a01b03958616835233838501908152815460018181018455928452949092209251600290940290920180549386166001600160a01b0319948516178155905191018054919094169116179091555050565b6003546001600160a01b0316331480610ca257506004546001600160a01b031633145b610cdb5760405162461bcd60e51b815260206004820152600a60248201526927b7363c9037bbb732b960b11b60448201526064016102a9565b5f610dd3826001805480602002602001604051908101604052809291908181526020015f905b82821015610251578382905f5260205f2090600202016040518060400160405290815f82018054610d319061167e565b80601f0160208091040260200160405190810160405280929190818152602001828054610d5d9061167e565b8015610da85780601f10610d7f57610100808354040283529160200191610da8565b820191905f5260205f20905b815481529060010190602001808311610d8b57829003601f168201915b50505091835250506001918201546001600160a01b0316602091820152918352929092019101610d01565b9050805f1914610e0e5760405162461bcd60e51b815260206004820152600660248201526545786973747360d01b60448201526064016102a9565b604080518082019091528381526001600160a01b03831660208201526001805480820182555f91909152815160029091027fb10e2d527612073b26eecdfd717e6a320cf44b4afac2b0732d9fcbe2b7fa0cf601908190610e6e908261185a565b5060209190910151600190910180546001600160a01b0319166001600160a01b03909216919091179055505050565b6003546060906001600160a01b0316331480610ec357506004546001600160a01b031633145b610efc5760405162461bcd60e51b815260206004820152600a60248201526927b7363c9037bbb732b960b11b60448201526064016102a9565b6001805480602002602001604051908101604052809291908181526020015f905b82821015610fef578382905f5260205f2090600202016040518060400160405290815f82018054610f4d9061167e565b80601f0160208091040260200160405190810160405280929190818152602001828054610f799061167e565b8015610fc45780601f10610f9b57610100808354040283529160200191610fc4565b820191905f5260205f20905b815481529060010190602001808311610fa757829003601f168201915b50505091835250506001918201546001600160a01b0316602091820152918352929092019101610f1d565b50505050905090565b5f5f196110f2336001805480602002602001604051908101604052809291908181526020015f905b82821015610251578382905f5260205f2090600202016040518060400160405290815f820180546110509061167e565b80601f016020809104026020016040519081016040528092919081815260200182805461107c9061167e565b80156110c75780601f1061109e576101008083540402835291602001916110c7565b820191905f5260205f20905b8154815290600101906020018083116110aa57829003601f168201915b50505091835250506001918201546001600160a01b0316602091820152918352929092019101611020565b1361110f5760405162461bcd60e51b81526004016102a990611821565b506003546001600160a01b0316331490565b60605f1961121c336001805480602002602001604051908101604052809291908181526020015f905b82821015610251578382905f5260205f2090600202016040518060400160405290815f8201805461117a9061167e565b80601f01602080910402602001604051908101604052809291908181526020018280546111a69061167e565b80156111f15780601f106111c8576101008083540402835291602001916111f1565b820191905f5260205f20905b8154815290600101906020018083116111d457829003601f168201915b50505091835250506001918201546001600160a01b031660209182015291835292909201910161114a565b136112395760405162461bcd60e51b81526004016102a990611821565b60605f5b60025f85600281111561125257611252611846565b600281111561126357611263611846565b815260208101919091526040015f205481101561130e5760025f85600281111561128f5761128f611846565b60028111156112a0576112a0611846565b81526020019081526020015f2081815481106112be576112be6116d5565b5f91825260209091206002909102015482516001600160a01b03909116908390839081106112ee576112ee6116d5565b6001600160a01b039092166020928302919091019091015260010161123d565b5090505b919050565b5f805b825181101561136857836001600160a01b031683828151811061133f5761133f6116d5565b6020026020010151602001516001600160a01b03160361136057905061136e565b60010161131a565b505f1990505b92915050565b5f805b825181101561136857836001600160a01b031683828151811061139c5761139c6116d5565b60200260200101515f01516001600160a01b0316036113bc57905061136e565b600101611377565b5080546113d09061167e565b5f825580601f106113df575050565b601f0160209004905f5260205f20908101906113fb91906113fe565b50565b5b80821115611412575f81556001016113ff565b5090565b80356001600160a01b0381168114611312575f80fd5b5f6020828403121561143c575f80fd5b61144582611416565b9392505050565b5f81518084528060208401602086015e5f602082860101526020601f19601f83011685010191505092915050565b602081525f611445602083018461144c565b803560038110611312575f80fd5b5f80604083850312156114ab575f80fd5b6114b48361148c565b91506114c260208401611416565b90509250929050565b634e487b7160e01b5f52604160045260245ffd5b5f80604083850312156114f0575f80fd5b823567ffffffffffffffff811115611506575f80fd5b8301601f81018513611516575f80fd5b803567ffffffffffffffff811115611530576115306114cb565b604051601f8201601f19908116603f0116810167ffffffffffffffff8111828210171561155f5761155f6114cb565b604052818152828201602001871015611576575f80fd5b816020840160208301375f602083830101528094505050506114c260208401611416565b5f602082016020835280845180835260408501915060408160051b8601019250602086015f5b8281101561160e57603f1987860301845281518051604087526115e6604088018261144c565b6020928301516001600160a01b031697830197909752509384019391909101906001016115c0565b50929695505050505050565b5f6020828403121561162a575f80fd5b6114458261148c565b602080825282518282018190525f918401906040840190835b818110156116735783516001600160a01b031683526020938401939092019160010161164c565b509095945050505050565b600181811c9082168061169257607f821691505b6020821081036116b057634e487b7160e01b5f52602260045260245ffd5b50919050565b8181038181111561136e57634e487b7160e01b5f52601160045260245ffd5b634e487b7160e01b5f52603260045260245ffd5b601f82111561173057805f5260205f20601f840160051c8101602085101561170e5750805b601f840160051c820191505b8181101561172d575f815560010161171a565b50505b505050565b818103611740575050565b61174a825461167e565b67ffffffffffffffff811115611762576117626114cb565b61177681611770845461167e565b846116e9565b5f601f8211600181146117aa575f83156117905750848201545b600184901b5f19600386901b1c198216175b85555061172d565b5f8581526020808220868352908220601f198616925b838110156117e057828601548255600195860195909101906020016117c0565b50858310156117fd57818501545f19600388901b60f8161c191681555b5050505050600190811b01905550565b634e487b7160e01b5f52603160045260245ffd5b6020808252600b908201526a27b7363c9036b2b6b132b960a91b604082015260600190565b634e487b7160e01b5f52602160045260245ffd5b815167ffffffffffffffff811115611874576118746114cb565b61188281611770845461167e565b6020601f8211600181146118b2575f8315611790575081850151600184901b5f19600386901b1c198216176117a2565b5f84815260208120601f198516915b828110156118e157878501518255602094850194600190920191016118c1565b50848210156118fe57868401515f19600387901b60f8161c191681555b50505050600190811b0190555056fea26469706673582212201fa3a340b7df1092587697386f883531b102ec37d7a9c5d6ab162c0ceb5ee6e964736f6c634300081a0033",
					"opcodes": "PUSH1 0x80 PUSH1 0x40 MSTORE CALLVALUE DUP1 ISZERO PUSH2 0xF JUMPI PUSH0 DUP1 REVERT JUMPDEST POP PUSH1 0x40 MLOAD PUSH2 0x1CC8 CODESIZE SUB DUP1 PUSH2 0x1CC8 DUP4 CODECOPY DUP2 ADD PUSH1 0x40 DUP2 SWAP1 MSTORE PUSH2 0x2E SWAP2 PUSH2 0x16A JUMP JUMPDEST PUSH0 PUSH2 0x39 DUP5 DUP3 PUSH2 0x2BE JUMP JUMPDEST POP PUSH1 0x3 DUP1 SLOAD PUSH1 0x1 PUSH1 0x1 PUSH1 0xA0 SHL SUB DUP1 DUP6 AND PUSH1 0x1 PUSH1 0x1 PUSH1 0xA0 SHL SUB NOT SWAP3 DUP4 AND DUP2 OR SWAP1 SWAP4 SSTORE PUSH1 0x4 DUP1 SLOAD SWAP2 DUP6 AND SWAP2 SWAP1 SWAP3 AND OR SWAP1 SSTORE PUSH1 0x40 DUP1 MLOAD PUSH1 0x80 DUP2 ADD DUP3 MSTORE PUSH1 0x1 SWAP2 DUP2 ADD DUP3 DUP2 MSTORE PUSH1 0x15 PUSH1 0xF9 SHL PUSH1 0x60 DUP4 ADD MSTORE DUP2 MSTORE PUSH1 0x20 DUP2 ADD SWAP3 SWAP1 SWAP3 MSTORE DUP1 SLOAD DUP1 DUP3 ADD DUP3 SSTORE PUSH0 SWAP2 SWAP1 SWAP2 MSTORE DUP2 MLOAD PUSH1 0x2 SWAP1 SWAP2 MUL PUSH32 0xB10E2D527612073B26EECDFD717E6A320CF44B4AFAC2B0732D9FCBE2B7FA0CF6 ADD SWAP1 DUP2 SWAP1 PUSH2 0xD0 SWAP1 DUP3 PUSH2 0x2BE JUMP JUMPDEST POP PUSH1 0x20 SWAP2 DUP3 ADD MLOAD PUSH1 0x1 SWAP1 SWAP2 ADD DUP1 SLOAD PUSH1 0x1 PUSH1 0x1 PUSH1 0xA0 SHL SUB NOT AND PUSH1 0x1 PUSH1 0x1 PUSH1 0xA0 SHL SUB SWAP1 SWAP3 AND SWAP2 SWAP1 SWAP2 OR SWAP1 SSTORE PUSH1 0x40 DUP1 MLOAD CALLER DUP2 MSTORE ADDRESS SWAP3 DUP2 ADD SWAP3 SWAP1 SWAP3 MSTORE PUSH32 0x587ECE4CD19692C5BE1A4184503D607D45542D2ACA0698C0068F52E09CCB541C SWAP2 ADD PUSH1 0x40 MLOAD DUP1 SWAP2 SUB SWAP1 LOG1 POP POP POP PUSH2 0x378 JUMP JUMPDEST PUSH4 0x4E487B71 PUSH1 0xE0 SHL PUSH0 MSTORE PUSH1 0x41 PUSH1 0x4 MSTORE PUSH1 0x24 PUSH0 REVERT JUMPDEST DUP1 MLOAD PUSH1 0x1 PUSH1 0x1 PUSH1 0xA0 SHL SUB DUP2 AND DUP2 EQ PUSH2 0x165 JUMPI PUSH0 DUP1 REVERT JUMPDEST SWAP2 SWAP1 POP JUMP JUMPDEST PUSH0 DUP1 PUSH0 PUSH1 0x60 DUP5 DUP7 SUB SLT ISZERO PUSH2 0x17C JUMPI PUSH0 DUP1 REVERT JUMPDEST DUP4 MLOAD PUSH1 0x1 PUSH1 0x1 PUSH1 0x40 SHL SUB DUP2 GT ISZERO PUSH2 0x191 JUMPI PUSH0 DUP1 REVERT JUMPDEST DUP5 ADD PUSH1 0x1F DUP2 ADD DUP7 SGT PUSH2 0x1A1 JUMPI PUSH0 DUP1 REVERT JUMPDEST DUP1 MLOAD PUSH1 0x1 PUSH1 0x1 PUSH1 0x40 SHL SUB DUP2 GT ISZERO PUSH2 0x1BA JUMPI PUSH2 0x1BA PUSH2 0x13B JUMP JUMPDEST PUSH1 0x40 MLOAD PUSH1 0x1F DUP3 ADD PUSH1 0x1F NOT SWAP1 DUP2 AND PUSH1 0x3F ADD AND DUP2 ADD PUSH1 0x1 PUSH1 0x1 PUSH1 0x40 SHL SUB DUP2 GT DUP3 DUP3 LT OR ISZERO PUSH2 0x1E8 JUMPI PUSH2 0x1E8 PUSH2 0x13B JUMP JUMPDEST PUSH1 0x40 MSTORE DUP2 DUP2 MSTORE DUP3 DUP3 ADD PUSH1 0x20 ADD DUP9 LT ISZERO PUSH2 0x1FF JUMPI PUSH0 DUP1 REVERT JUMPDEST DUP2 PUSH1 0x20 DUP5 ADD PUSH1 0x20 DUP4 ADD MCOPY PUSH0 PUSH1 0x20 DUP4 DUP4 ADD ADD MSTORE DUP1 SWAP6 POP POP POP POP PUSH2 0x223 PUSH1 0x20 DUP6 ADD PUSH2 0x14F JUMP JUMPDEST SWAP2 POP PUSH2 0x231 PUSH1 0x40 DUP6 ADD PUSH2 0x14F JUMP JUMPDEST SWAP1 POP SWAP3 POP SWAP3 POP SWAP3 JUMP JUMPDEST PUSH1 0x1 DUP2 DUP2 SHR SWAP1 DUP3 AND DUP1 PUSH2 0x24E JUMPI PUSH1 0x7F DUP3 AND SWAP2 POP JUMPDEST PUSH1 0x20 DUP3 LT DUP2 SUB PUSH2 0x26C JUMPI PUSH4 0x4E487B71 PUSH1 0xE0 SHL PUSH0 MSTORE PUSH1 0x22 PUSH1 0x4 MSTORE PUSH1 0x24 PUSH0 REVERT JUMPDEST POP SWAP2 SWAP1 POP JUMP JUMPDEST PUSH1 0x1F DUP3 GT ISZERO PUSH2 0x2B9 JUMPI DUP1 PUSH0 MSTORE PUSH1 0x20 PUSH0 KECCAK256 PUSH1 0x1F DUP5 ADD PUSH1 0x5 SHR DUP2 ADD PUSH1 0x20 DUP6 LT ISZERO PUSH2 0x297 JUMPI POP DUP1 JUMPDEST PUSH1 0x1F DUP5 ADD PUSH1 0x5 SHR DUP3 ADD SWAP2 POP JUMPDEST DUP2 DUP2 LT ISZERO PUSH2 0x2B6 JUMPI PUSH0 DUP2 SSTORE PUSH1 0x1 ADD PUSH2 0x2A3 JUMP JUMPDEST POP POP JUMPDEST POP POP POP JUMP JUMPDEST DUP2 MLOAD PUSH1 0x1 PUSH1 0x1 PUSH1 0x40 SHL SUB DUP2 GT ISZERO PUSH2 0x2D7 JUMPI PUSH2 0x2D7 PUSH2 0x13B JUMP JUMPDEST PUSH2 0x2EB DUP2 PUSH2 0x2E5 DUP5 SLOAD PUSH2 0x23A JUMP JUMPDEST DUP5 PUSH2 0x272 JUMP JUMPDEST PUSH1 0x20 PUSH1 0x1F DUP3 GT PUSH1 0x1 DUP2 EQ PUSH2 0x31D JUMPI PUSH0 DUP4 ISZERO PUSH2 0x306 JUMPI POP DUP5 DUP3 ADD MLOAD JUMPDEST PUSH0 NOT PUSH1 0x3 DUP6 SWAP1 SHL SHR NOT AND PUSH1 0x1 DUP5 SWAP1 SHL OR DUP5 SSTORE PUSH2 0x2B6 JUMP JUMPDEST PUSH0 DUP5 DUP2 MSTORE PUSH1 0x20 DUP2 KECCAK256 PUSH1 0x1F NOT DUP6 AND SWAP2 JUMPDEST DUP3 DUP2 LT ISZERO PUSH2 0x34C JUMPI DUP8 DUP6 ADD MLOAD DUP3 SSTORE PUSH1 0x20 SWAP5 DUP6 ADD SWAP5 PUSH1 0x1 SWAP1 SWAP3 ADD SWAP2 ADD PUSH2 0x32C JUMP JUMPDEST POP DUP5 DUP3 LT ISZERO PUSH2 0x369 JUMPI DUP7 DUP5 ADD MLOAD PUSH0 NOT PUSH1 0x3 DUP8 SWAP1 SHL PUSH1 0xF8 AND SHR NOT AND DUP2 SSTORE JUMPDEST POP POP POP POP PUSH1 0x1 SWAP1 DUP2 SHL ADD SWAP1 SSTORE POP JUMP JUMPDEST PUSH2 0x1943 DUP1 PUSH2 0x385 PUSH0 CODECOPY PUSH0 RETURN INVALID PUSH1 0x80 PUSH1 0x40 MSTORE CALLVALUE DUP1 ISZERO PUSH2 0xF JUMPI PUSH0 DUP1 REVERT JUMPDEST POP PUSH1 0x4 CALLDATASIZE LT PUSH2 0x85 JUMPI PUSH0 CALLDATALOAD PUSH1 0xE0 SHR DUP1 PUSH4 0x45E39705 GT PUSH2 0x58 JUMPI DUP1 PUSH4 0x45E39705 EQ PUSH2 0xE2 JUMPI DUP1 PUSH4 0x9EAB5253 EQ PUSH2 0xF5 JUMPI DUP1 PUSH4 0xB9DAF3E2 EQ PUSH2 0x10A JUMPI DUP1 PUSH4 0xD7C4310F EQ PUSH2 0x122 JUMPI PUSH0 DUP1 REVERT JUMPDEST DUP1 PUSH4 0xB1CA49A EQ PUSH2 0x89 JUMPI DUP1 PUSH4 0x17D7DE7C EQ PUSH2 0x9E JUMPI DUP1 PUSH4 0x26E3BC4E EQ PUSH2 0xBC JUMPI DUP1 PUSH4 0x369080E7 EQ PUSH2 0xCF JUMPI JUMPDEST PUSH0 DUP1 REVERT JUMPDEST PUSH2 0x9C PUSH2 0x97 CALLDATASIZE PUSH1 0x4 PUSH2 0x142C JUMP JUMPDEST PUSH2 0x142 JUMP JUMPDEST STOP JUMPDEST PUSH2 0xA6 PUSH2 0x4AC JUMP JUMPDEST PUSH1 0x40 MLOAD PUSH2 0xB3 SWAP2 SWAP1 PUSH2 0x147A JUMP JUMPDEST PUSH1 0x40 MLOAD DUP1 SWAP2 SUB SWAP1 RETURN JUMPDEST PUSH2 0x9C PUSH2 0xCA CALLDATASIZE PUSH1 0x4 PUSH2 0x149A JUMP JUMPDEST PUSH2 0x651 JUMP JUMPDEST PUSH2 0x9C PUSH2 0xDD CALLDATASIZE PUSH1 0x4 PUSH2 0x149A JUMP JUMPDEST PUSH2 0xA7B JUMP JUMPDEST PUSH2 0x9C PUSH2 0xF0 CALLDATASIZE PUSH1 0x4 PUSH2 0x14DF JUMP JUMPDEST PUSH2 0xC7F JUMP JUMPDEST PUSH2 0xFD PUSH2 0xE9D JUMP JUMPDEST PUSH1 0x40 MLOAD PUSH2 0xB3 SWAP2 SWAP1 PUSH2 0x159A JUMP JUMPDEST PUSH2 0x112 PUSH2 0xFF8 JUMP JUMPDEST PUSH1 0x40 MLOAD SWAP1 ISZERO ISZERO DUP2 MSTORE PUSH1 0x20 ADD PUSH2 0xB3 JUMP JUMPDEST PUSH2 0x135 PUSH2 0x130 CALLDATASIZE PUSH1 0x4 PUSH2 0x161A JUMP JUMPDEST PUSH2 0x1121 JUMP JUMPDEST PUSH1 0x40 MLOAD PUSH2 0xB3 SWAP2 SWAP1 PUSH2 0x1633 JUMP JUMPDEST PUSH1 0x3 SLOAD DUP2 SWAP1 PUSH1 0x1 PUSH1 0x1 PUSH1 0xA0 SHL SUB AND CALLER EQ DUP1 PUSH2 0x26F JUMPI POP PUSH0 NOT PUSH2 0x25A CALLER PUSH1 0x1 DUP1 SLOAD DUP1 PUSH1 0x20 MUL PUSH1 0x20 ADD PUSH1 0x40 MLOAD SWAP1 DUP2 ADD PUSH1 0x40 MSTORE DUP1 SWAP3 SWAP2 SWAP1 DUP2 DUP2 MSTORE PUSH1 0x20 ADD PUSH0 SWAP1 JUMPDEST DUP3 DUP3 LT ISZERO PUSH2 0x251 JUMPI DUP4 DUP3 SWAP1 PUSH0 MSTORE PUSH1 0x20 PUSH0 KECCAK256 SWAP1 PUSH1 0x2 MUL ADD PUSH1 0x40 MLOAD DUP1 PUSH1 0x40 ADD PUSH1 0x40 MSTORE SWAP1 DUP2 PUSH0 DUP3 ADD DUP1 SLOAD PUSH2 0x1AF SWAP1 PUSH2 0x167E JUMP JUMPDEST DUP1 PUSH1 0x1F ADD PUSH1 0x20 DUP1 SWAP2 DIV MUL PUSH1 0x20 ADD PUSH1 0x40 MLOAD SWAP1 DUP2 ADD PUSH1 0x40 MSTORE DUP1 SWAP3 SWAP2 SWAP1 DUP2 DUP2 MSTORE PUSH1 0x20 ADD DUP3 DUP1 SLOAD PUSH2 0x1DB SWAP1 PUSH2 0x167E JUMP JUMPDEST DUP1 ISZERO PUSH2 0x226 JUMPI DUP1 PUSH1 0x1F LT PUSH2 0x1FD JUMPI PUSH2 0x100 DUP1 DUP4 SLOAD DIV MUL DUP4 MSTORE SWAP2 PUSH1 0x20 ADD SWAP2 PUSH2 0x226 JUMP JUMPDEST DUP3 ADD SWAP2 SWAP1 PUSH0 MSTORE PUSH1 0x20 PUSH0 KECCAK256 SWAP1 JUMPDEST DUP2 SLOAD DUP2 MSTORE SWAP1 PUSH1 0x1 ADD SWAP1 PUSH1 0x20 ADD DUP1 DUP4 GT PUSH2 0x209 JUMPI DUP3 SWAP1 SUB PUSH1 0x1F AND DUP3 ADD SWAP2 JUMPDEST POP POP POP SWAP2 DUP4 MSTORE POP POP PUSH1 0x1 SWAP2 DUP3 ADD SLOAD PUSH1 0x1 PUSH1 0x1 PUSH1 0xA0 SHL SUB AND PUSH1 0x20 SWAP2 DUP3 ADD MSTORE SWAP2 DUP4 MSTORE SWAP3 SWAP1 SWAP3 ADD SWAP2 ADD PUSH2 0x17F JUMP JUMPDEST POP POP POP POP PUSH2 0x1317 JUMP JUMPDEST SGT DUP1 ISZERO PUSH2 0x26F JUMPI POP CALLER PUSH1 0x1 PUSH1 0x1 PUSH1 0xA0 SHL SUB DUP3 AND EQ JUMPDEST PUSH2 0x2B2 JUMPI PUSH1 0x40 MLOAD PUSH3 0x461BCD PUSH1 0xE5 SHL DUP2 MSTORE PUSH1 0x20 PUSH1 0x4 DUP3 ADD MSTORE PUSH1 0xF PUSH1 0x24 DUP3 ADD MSTORE PUSH15 0x27B7363C9037BBB732B93E39B2B633 PUSH1 0x89 SHL PUSH1 0x44 DUP3 ADD MSTORE PUSH1 0x64 ADD JUMPDEST PUSH1 0x40 MLOAD DUP1 SWAP2 SUB SWAP1 REVERT JUMPDEST PUSH0 PUSH2 0x3AA DUP4 PUSH1 0x1 DUP1 SLOAD DUP1 PUSH1 0x20 MUL PUSH1 0x20 ADD PUSH1 0x40 MLOAD SWAP1 DUP2 ADD PUSH1 0x40 MSTORE DUP1 SWAP3 SWAP2 SWAP1 DUP2 DUP2 MSTORE PUSH1 0x20 ADD PUSH0 SWAP1 JUMPDEST DUP3 DUP3 LT ISZERO PUSH2 0x251 JUMPI DUP4 DUP3 SWAP1 PUSH0 MSTORE PUSH1 0x20 PUSH0 KECCAK256 SWAP1 PUSH1 0x2 MUL ADD PUSH1 0x40 MLOAD DUP1 PUSH1 0x40 ADD PUSH1 0x40 MSTORE SWAP1 DUP2 PUSH0 DUP3 ADD DUP1 SLOAD PUSH2 0x308 SWAP1 PUSH2 0x167E JUMP JUMPDEST DUP1 PUSH1 0x1F ADD PUSH1 0x20 DUP1 SWAP2 DIV MUL PUSH1 0x20 ADD PUSH1 0x40 MLOAD SWAP1 DUP2 ADD PUSH1 0x40 MSTORE DUP1 SWAP3 SWAP2 SWAP1 DUP2 DUP2 MSTORE PUSH1 0x20 ADD DUP3 DUP1 SLOAD PUSH2 0x334 SWAP1 PUSH2 0x167E JUMP JUMPDEST DUP1 ISZERO PUSH2 0x37F JUMPI DUP1 PUSH1 0x1F LT PUSH2 0x356 JUMPI PUSH2 0x100 DUP1 DUP4 SLOAD DIV MUL DUP4 MSTORE SWAP2 PUSH1 0x20 ADD SWAP2 PUSH2 0x37F JUMP JUMPDEST DUP3 ADD SWAP2 SWAP1 PUSH0 MSTORE PUSH1 0x20 PUSH0 KECCAK256 SWAP1 JUMPDEST DUP2 SLOAD DUP2 MSTORE SWAP1 PUSH1 0x1 ADD SWAP1 PUSH1 0x20 ADD DUP1 DUP4 GT PUSH2 0x362 JUMPI DUP3 SWAP1 SUB PUSH1 0x1F AND DUP3 ADD SWAP2 JUMPDEST POP POP POP SWAP2 DUP4 MSTORE POP POP PUSH1 0x1 SWAP2 DUP3 ADD SLOAD PUSH1 0x1 PUSH1 0x1 PUSH1 0xA0 SHL SUB AND PUSH1 0x20 SWAP2 DUP3 ADD MSTORE SWAP2 DUP4 MSTORE SWAP3 SWAP1 SWAP3 ADD SWAP2 ADD PUSH2 0x2D8 JUMP JUMPDEST SWAP1 POP DUP1 PUSH0 NOT EQ PUSH2 0x3E7 JUMPI PUSH1 0x40 MLOAD PUSH3 0x461BCD PUSH1 0xE5 SHL DUP2 MSTORE PUSH1 0x20 PUSH1 0x4 DUP3 ADD MSTORE PUSH1 0x8 PUSH1 0x24 DUP3 ADD MSTORE PUSH8 0x9CDE40D2DCC8CAF PUSH1 0xC3 SHL PUSH1 0x44 DUP3 ADD MSTORE PUSH1 0x64 ADD PUSH2 0x2A9 JUMP JUMPDEST PUSH1 0x1 DUP1 SLOAD PUSH2 0x3F6 SWAP1 DUP3 SWAP1 PUSH2 0x16B6 JUMP JUMPDEST DUP2 SLOAD DUP2 LT PUSH2 0x406 JUMPI PUSH2 0x406 PUSH2 0x16D5 JUMP JUMPDEST SWAP1 PUSH0 MSTORE PUSH1 0x20 PUSH0 KECCAK256 SWAP1 PUSH1 0x2 MUL ADD PUSH1 0x1 DUP3 DUP2 SLOAD DUP2 LT PUSH2 0x425 JUMPI PUSH2 0x425 PUSH2 0x16D5 JUMP JUMPDEST PUSH0 SWAP2 DUP3 MSTORE PUSH1 0x20 SWAP1 SWAP2 KECCAK256 PUSH1 0x2 SWAP1 SWAP2 MUL ADD DUP1 PUSH2 0x43F DUP4 DUP3 PUSH2 0x1735 JUMP JUMPDEST POP PUSH1 0x1 SWAP2 DUP3 ADD SLOAD SWAP1 DUP3 ADD DUP1 SLOAD PUSH1 0x1 PUSH1 0x1 PUSH1 0xA0 SHL SUB NOT AND PUSH1 0x1 PUSH1 0x1 PUSH1 0xA0 SHL SUB SWAP1 SWAP3 AND SWAP2 SWAP1 SWAP2 OR SWAP1 SSTORE DUP1 SLOAD DUP1 PUSH2 0x475 JUMPI PUSH2 0x475 PUSH2 0x180D JUMP JUMPDEST PUSH0 DUP3 DUP2 MSTORE PUSH1 0x20 DUP2 KECCAK256 PUSH0 NOT SWAP1 SWAP3 ADD SWAP2 PUSH1 0x2 DUP4 MUL ADD SWAP1 PUSH2 0x493 DUP3 DUP3 PUSH2 0x13C4 JUMP JUMPDEST POP PUSH1 0x1 ADD DUP1 SLOAD PUSH1 0x1 PUSH1 0x1 PUSH1 0xA0 SHL SUB NOT AND SWAP1 SSTORE SWAP1 SSTORE POP POP POP JUMP JUMPDEST PUSH1 0x60 PUSH0 NOT PUSH2 0x5A7 CALLER PUSH1 0x1 DUP1 SLOAD DUP1 PUSH1 0x20 MUL PUSH1 0x20 ADD PUSH1 0x40 MLOAD SWAP1 DUP2 ADD PUSH1 0x40 MSTORE DUP1 SWAP3 SWAP2 SWAP1 DUP2 DUP2 MSTORE PUSH1 0x20 ADD PUSH0 SWAP1 JUMPDEST DUP3 DUP3 LT ISZERO PUSH2 0x251 JUMPI DUP4 DUP3 SWAP1 PUSH0 MSTORE PUSH1 0x20 PUSH0 KECCAK256 SWAP1 PUSH1 0x2 MUL ADD PUSH1 0x40 MLOAD DUP1 PUSH1 0x40 ADD PUSH1 0x40 MSTORE SWAP1 DUP2 PUSH0 DUP3 ADD DUP1 SLOAD PUSH2 0x505 SWAP1 PUSH2 0x167E JUMP JUMPDEST DUP1 PUSH1 0x1F ADD PUSH1 0x20 DUP1 SWAP2 DIV MUL PUSH1 0x20 ADD PUSH1 0x40 MLOAD SWAP1 DUP2 ADD PUSH1 0x40 MSTORE DUP1 SWAP3 SWAP2 SWAP1 DUP2 DUP2 MSTORE PUSH1 0x20 ADD DUP3 DUP1 SLOAD PUSH2 0x531 SWAP1 PUSH2 0x167E JUMP JUMPDEST DUP1 ISZERO PUSH2 0x57C JUMPI DUP1 PUSH1 0x1F LT PUSH2 0x553 JUMPI PUSH2 0x100 DUP1 DUP4 SLOAD DIV MUL DUP4 MSTORE SWAP2 PUSH1 0x20 ADD SWAP2 PUSH2 0x57C JUMP JUMPDEST DUP3 ADD SWAP2 SWAP1 PUSH0 MSTORE PUSH1 0x20 PUSH0 KECCAK256 SWAP1 JUMPDEST DUP2 SLOAD DUP2 MSTORE SWAP1 PUSH1 0x1 ADD SWAP1 PUSH1 0x20 ADD DUP1 DUP4 GT PUSH2 0x55F JUMPI DUP3 SWAP1 SUB PUSH1 0x1F AND DUP3 ADD SWAP2 JUMPDEST POP POP POP SWAP2 DUP4 MSTORE POP POP PUSH1 0x1 SWAP2 DUP3 ADD SLOAD PUSH1 0x1 PUSH1 0x1 PUSH1 0xA0 SHL SUB AND PUSH1 0x20 SWAP2 DUP3 ADD MSTORE SWAP2 DUP4 MSTORE SWAP3 SWAP1 SWAP3 ADD SWAP2 ADD PUSH2 0x4D5 JUMP JUMPDEST SGT PUSH2 0x5C4 JUMPI PUSH1 0x40 MLOAD PUSH3 0x461BCD PUSH1 0xE5 SHL DUP2 MSTORE PUSH1 0x4 ADD PUSH2 0x2A9 SWAP1 PUSH2 0x1821 JUMP JUMPDEST PUSH0 DUP1 SLOAD PUSH2 0x5D0 SWAP1 PUSH2 0x167E JUMP JUMPDEST DUP1 PUSH1 0x1F ADD PUSH1 0x20 DUP1 SWAP2 DIV MUL PUSH1 0x20 ADD PUSH1 0x40 MLOAD SWAP1 DUP2 ADD PUSH1 0x40 MSTORE DUP1 SWAP3 SWAP2 SWAP1 DUP2 DUP2 MSTORE PUSH1 0x20 ADD DUP3 DUP1 SLOAD PUSH2 0x5FC SWAP1 PUSH2 0x167E JUMP JUMPDEST DUP1 ISZERO PUSH2 0x647 JUMPI DUP1 PUSH1 0x1F LT PUSH2 0x61E JUMPI PUSH2 0x100 DUP1 DUP4 SLOAD DIV MUL DUP4 MSTORE SWAP2 PUSH1 0x20 ADD SWAP2 PUSH2 0x647 JUMP JUMPDEST DUP3 ADD SWAP2 SWAP1 PUSH0 MSTORE PUSH1 0x20 PUSH0 KECCAK256 SWAP1 JUMPDEST DUP2 SLOAD DUP2 MSTORE SWAP1 PUSH1 0x1 ADD SWAP1 PUSH1 0x20 ADD DUP1 DUP4 GT PUSH2 0x62A JUMPI DUP3 SWAP1 SUB PUSH1 0x1F AND DUP3 ADD SWAP2 JUMPDEST POP POP POP POP POP SWAP1 POP SWAP1 JUMP JUMPDEST PUSH0 NOT PUSH2 0x74A CALLER PUSH1 0x1 DUP1 SLOAD DUP1 PUSH1 0x20 MUL PUSH1 0x20 ADD PUSH1 0x40 MLOAD SWAP1 DUP2 ADD PUSH1 0x40 MSTORE DUP1 SWAP3 SWAP2 SWAP1 DUP2 DUP2 MSTORE PUSH1 0x20 ADD PUSH0 SWAP1 JUMPDEST DUP3 DUP3 LT ISZERO PUSH2 0x251 JUMPI DUP4 DUP3 SWAP1 PUSH0 MSTORE PUSH1 0x20 PUSH0 KECCAK256 SWAP1 PUSH1 0x2 MUL ADD PUSH1 0x40 MLOAD DUP1 PUSH1 0x40 ADD PUSH1 0x40 MSTORE SWAP1 DUP2 PUSH0 DUP3 ADD DUP1 SLOAD PUSH2 0x6A8 SWAP1 PUSH2 0x167E JUMP JUMPDEST DUP1 PUSH1 0x1F ADD PUSH1 0x20 DUP1 SWAP2 DIV MUL PUSH1 0x20 ADD PUSH1 0x40 MLOAD SWAP1 DUP2 ADD PUSH1 0x40 MSTORE DUP1 SWAP3 SWAP2 SWAP1 DUP2 DUP2 MSTORE PUSH1 0x20 ADD DUP3 DUP1 SLOAD PUSH2 0x6D4 SWAP1 PUSH2 0x167E JUMP JUMPDEST DUP1 ISZERO PUSH2 0x71F JUMPI DUP1 PUSH1 0x1F LT PUSH2 0x6F6 JUMPI PUSH2 0x100 DUP1 DUP4 SLOAD DIV MUL DUP4 MSTORE SWAP2 PUSH1 0x20 ADD SWAP2 PUSH2 0x71F JUMP JUMPDEST DUP3 ADD SWAP2 SWAP1 PUSH0 MSTORE PUSH1 0x20 PUSH0 KECCAK256 SWAP1 JUMPDEST DUP2 SLOAD DUP2 MSTORE SWAP1 PUSH1 0x1 ADD SWAP1 PUSH1 0x20 ADD DUP1 DUP4 GT PUSH2 0x702 JUMPI DUP3 SWAP1 SUB PUSH1 0x1F AND DUP3 ADD SWAP2 JUMPDEST POP POP POP SWAP2 DUP4 MSTORE POP POP PUSH1 0x1 SWAP2 DUP3 ADD SLOAD PUSH1 0x1 PUSH1 0x1 PUSH1 0xA0 SHL SUB AND PUSH1 0x20 SWAP2 DUP3 ADD MSTORE SWAP2 DUP4 MSTORE SWAP3 SWAP1 SWAP3 ADD SWAP2 ADD PUSH2 0x678 JUMP JUMPDEST SGT PUSH2 0x767 JUMPI PUSH1 0x40 MLOAD PUSH3 0x461BCD PUSH1 0xE5 SHL DUP2 MSTORE PUSH1 0x4 ADD PUSH2 0x2A9 SWAP1 PUSH2 0x1821 JUMP JUMPDEST PUSH0 PUSH2 0x811 DUP3 PUSH1 0x2 PUSH0 DUP7 PUSH1 0x2 DUP2 GT ISZERO PUSH2 0x781 JUMPI PUSH2 0x781 PUSH2 0x1846 JUMP JUMPDEST PUSH1 0x2 DUP2 GT ISZERO PUSH2 0x792 JUMPI PUSH2 0x792 PUSH2 0x1846 JUMP JUMPDEST DUP2 MSTORE PUSH1 0x20 ADD SWAP1 DUP2 MSTORE PUSH1 0x20 ADD PUSH0 KECCAK256 DUP1 SLOAD DUP1 PUSH1 0x20 MUL PUSH1 0x20 ADD PUSH1 0x40 MLOAD SWAP1 DUP2 ADD PUSH1 0x40 MSTORE DUP1 SWAP3 SWAP2 SWAP1 DUP2 DUP2 MSTORE PUSH1 0x20 ADD PUSH0 SWAP1 JUMPDEST DUP3 DUP3 LT ISZERO PUSH2 0x808 JUMPI PUSH0 DUP5 DUP2 MSTORE PUSH1 0x20 SWAP1 DUP2 SWAP1 KECCAK256 PUSH1 0x40 DUP1 MLOAD DUP1 DUP3 ADD SWAP1 SWAP2 MSTORE PUSH1 0x2 DUP6 MUL SWAP1 SWAP2 ADD DUP1 SLOAD PUSH1 0x1 PUSH1 0x1 PUSH1 0xA0 SHL SUB SWAP1 DUP2 AND DUP4 MSTORE PUSH1 0x1 SWAP2 DUP3 ADD SLOAD AND DUP3 DUP5 ADD MSTORE SWAP1 DUP4 MSTORE SWAP1 SWAP3 ADD SWAP2 ADD PUSH2 0x7BE JUMP JUMPDEST POP POP POP POP PUSH2 0x1374 JUMP JUMPDEST SWAP1 POP PUSH0 DUP2 SLT ISZERO PUSH2 0x84E JUMPI PUSH1 0x40 MLOAD PUSH3 0x461BCD PUSH1 0xE5 SHL DUP2 MSTORE PUSH1 0x20 PUSH1 0x4 DUP3 ADD MSTORE PUSH1 0x8 PUSH1 0x24 DUP3 ADD MSTORE PUSH8 0x9CDE40D2DCC8CAF PUSH1 0xC3 SHL PUSH1 0x44 DUP3 ADD MSTORE PUSH1 0x64 ADD PUSH2 0x2A9 JUMP JUMPDEST CALLER PUSH1 0x2 PUSH0 DUP6 DUP3 DUP2 GT ISZERO PUSH2 0x863 JUMPI PUSH2 0x863 PUSH2 0x1846 JUMP JUMPDEST PUSH1 0x2 DUP2 GT ISZERO PUSH2 0x874 JUMPI PUSH2 0x874 PUSH2 0x1846 JUMP JUMPDEST DUP2 MSTORE PUSH1 0x20 ADD SWAP1 DUP2 MSTORE PUSH1 0x20 ADD PUSH0 KECCAK256 DUP3 DUP2 SLOAD DUP2 LT PUSH2 0x892 JUMPI PUSH2 0x892 PUSH2 0x16D5 JUMP JUMPDEST PUSH0 SWAP2 DUP3 MSTORE PUSH1 0x20 SWAP1 SWAP2 KECCAK256 PUSH1 0x1 PUSH1 0x2 SWAP1 SWAP3 MUL ADD ADD SLOAD PUSH1 0x1 PUSH1 0x1 PUSH1 0xA0 SHL SUB AND EQ PUSH2 0x8EA JUMPI PUSH1 0x40 MLOAD PUSH3 0x461BCD PUSH1 0xE5 SHL DUP2 MSTORE PUSH1 0x20 PUSH1 0x4 DUP3 ADD MSTORE PUSH1 0xC PUSH1 0x24 DUP3 ADD MSTORE PUSH12 0x27B7363C9031B932B0BA37B9 PUSH1 0xA1 SHL PUSH1 0x44 DUP3 ADD MSTORE PUSH1 0x64 ADD PUSH2 0x2A9 JUMP JUMPDEST PUSH1 0x2 PUSH0 DUP5 PUSH1 0x2 DUP2 GT ISZERO PUSH2 0x8FF JUMPI PUSH2 0x8FF PUSH2 0x1846 JUMP JUMPDEST PUSH1 0x2 DUP2 GT ISZERO PUSH2 0x910 JUMPI PUSH2 0x910 PUSH2 0x1846 JUMP JUMPDEST DUP2 MSTORE PUSH1 0x20 ADD SWAP1 DUP2 MSTORE PUSH1 0x20 ADD PUSH0 KECCAK256 PUSH1 0x1 PUSH1 0x2 PUSH0 DUP7 PUSH1 0x2 DUP2 GT ISZERO PUSH2 0x934 JUMPI PUSH2 0x934 PUSH2 0x1846 JUMP JUMPDEST PUSH1 0x2 DUP2 GT ISZERO PUSH2 0x945 JUMPI PUSH2 0x945 PUSH2 0x1846 JUMP JUMPDEST DUP2 MSTORE PUSH1 0x20 DUP2 ADD SWAP2 SWAP1 SWAP2 MSTORE PUSH1 0x40 ADD PUSH0 KECCAK256 SLOAD PUSH2 0x95F SWAP2 SWAP1 PUSH2 0x16B6 JUMP JUMPDEST DUP2 SLOAD DUP2 LT PUSH2 0x96F JUMPI PUSH2 0x96F PUSH2 0x16D5 JUMP JUMPDEST SWAP1 PUSH0 MSTORE PUSH1 0x20 PUSH0 KECCAK256 SWAP1 PUSH1 0x2 MUL ADD PUSH1 0x2 PUSH0 DUP6 PUSH1 0x2 DUP2 GT ISZERO PUSH2 0x990 JUMPI PUSH2 0x990 PUSH2 0x1846 JUMP JUMPDEST PUSH1 0x2 DUP2 GT ISZERO PUSH2 0x9A1 JUMPI PUSH2 0x9A1 PUSH2 0x1846 JUMP JUMPDEST DUP2 MSTORE PUSH1 0x20 ADD SWAP1 DUP2 MSTORE PUSH1 0x20 ADD PUSH0 KECCAK256 DUP3 DUP2 SLOAD DUP2 LT PUSH2 0x9BF JUMPI PUSH2 0x9BF PUSH2 0x16D5 JUMP JUMPDEST PUSH0 SWAP2 DUP3 MSTORE PUSH1 0x20 DUP3 KECCAK256 DUP4 SLOAD PUSH1 0x2 SWAP3 DUP4 MUL SWAP1 SWAP2 ADD DUP1 SLOAD PUSH1 0x1 PUSH1 0x1 PUSH1 0xA0 SHL SUB SWAP3 DUP4 AND PUSH1 0x1 PUSH1 0x1 PUSH1 0xA0 SHL SUB NOT SWAP2 DUP3 AND OR DUP3 SSTORE PUSH1 0x1 SWAP6 DUP7 ADD SLOAD SWAP6 SWAP1 SWAP2 ADD DUP1 SLOAD SWAP6 SWAP1 SWAP3 AND SWAP5 AND SWAP4 SWAP1 SWAP4 OR SWAP1 SWAP3 SSTORE DUP5 DUP3 DUP2 GT ISZERO PUSH2 0xA17 JUMPI PUSH2 0xA17 PUSH2 0x1846 JUMP JUMPDEST PUSH1 0x2 DUP2 GT ISZERO PUSH2 0xA28 JUMPI PUSH2 0xA28 PUSH2 0x1846 JUMP JUMPDEST DUP2 MSTORE PUSH1 0x20 ADD SWAP1 DUP2 MSTORE PUSH1 0x20 ADD PUSH0 KECCAK256 DUP1 SLOAD DUP1 PUSH2 0xA44 JUMPI PUSH2 0xA44 PUSH2 0x180D JUMP JUMPDEST PUSH0 DUP3 DUP2 MSTORE PUSH1 0x20 SWAP1 KECCAK256 PUSH1 0x2 PUSH0 NOT SWAP1 SWAP3 ADD SWAP2 DUP3 MUL ADD DUP1 SLOAD PUSH1 0x1 PUSH1 0x1 PUSH1 0xA0 SHL SUB NOT SWAP1 DUP2 AND DUP3 SSTORE PUSH1 0x1 SWAP2 SWAP1 SWAP2 ADD DUP1 SLOAD SWAP1 SWAP2 AND SWAP1 SSTORE SWAP1 SSTORE POP POP POP JUMP JUMPDEST PUSH0 NOT PUSH2 0xB74 CALLER PUSH1 0x1 DUP1 SLOAD DUP1 PUSH1 0x20 MUL PUSH1 0x20 ADD PUSH1 0x40 MLOAD SWAP1 DUP2 ADD PUSH1 0x40 MSTORE DUP1 SWAP3 SWAP2 SWAP1 DUP2 DUP2 MSTORE PUSH1 0x20 ADD PUSH0 SWAP1 JUMPDEST DUP3 DUP3 LT ISZERO PUSH2 0x251 JUMPI DUP4 DUP3 SWAP1 PUSH0 MSTORE PUSH1 0x20 PUSH0 KECCAK256 SWAP1 PUSH1 0x2 MUL ADD PUSH1 0x40 MLOAD DUP1 PUSH1 0x40 ADD PUSH1 0x40 MSTORE SWAP1 DUP2 PUSH0 DUP3 ADD DUP1 SLOAD PUSH2 0xAD2 SWAP1 PUSH2 0x167E JUMP JUMPDEST DUP1 PUSH1 0x1F ADD PUSH1 0x20 DUP1 SWAP2 DIV MUL PUSH1 0x20 ADD PUSH1 0x40 MLOAD SWAP1 DUP2 ADD PUSH1 0x40 MSTORE DUP1 SWAP3 SWAP2 SWAP1 DUP2 DUP2 MSTORE PUSH1 0x20 ADD DUP3 DUP1 SLOAD PUSH2 0xAFE SWAP1 PUSH2 0x167E JUMP JUMPDEST DUP1 ISZERO PUSH2 0xB49 JUMPI DUP1 PUSH1 0x1F LT PUSH2 0xB20 JUMPI PUSH2 0x100 DUP1 DUP4 SLOAD DIV MUL DUP4 MSTORE SWAP2 PUSH1 0x20 ADD SWAP2 PUSH2 0xB49 JUMP JUMPDEST DUP3 ADD SWAP2 SWAP1 PUSH0 MSTORE PUSH1 0x20 PUSH0 KECCAK256 SWAP1 JUMPDEST DUP2 SLOAD DUP2 MSTORE SWAP1 PUSH1 0x1 ADD SWAP1 PUSH1 0x20 ADD DUP1 DUP4 GT PUSH2 0xB2C JUMPI DUP3 SWAP1 SUB PUSH1 0x1F AND DUP3 ADD SWAP2 JUMPDEST POP POP POP SWAP2 DUP4 MSTORE POP POP PUSH1 0x1 SWAP2 DUP3 ADD SLOAD PUSH1 0x1 PUSH1 0x1 PUSH1 0xA0 SHL SUB AND PUSH1 0x20 SWAP2 DUP3 ADD MSTORE SWAP2 DUP4 MSTORE SWAP3 SWAP1 SWAP3 ADD SWAP2 ADD PUSH2 0xAA2 JUMP JUMPDEST SGT PUSH2 0xB91 JUMPI PUSH1 0x40 MLOAD PUSH3 0x461BCD PUSH1 0xE5 SHL DUP2 MSTORE PUSH1 0x4 ADD PUSH2 0x2A9 SWAP1 PUSH2 0x1821 JUMP JUMPDEST PUSH0 PUSH2 0xBAB DUP3 PUSH1 0x2 PUSH0 DUP7 PUSH1 0x2 DUP2 GT ISZERO PUSH2 0x781 JUMPI PUSH2 0x781 PUSH2 0x1846 JUMP JUMPDEST SWAP1 POP PUSH0 NOT DUP2 SGT ISZERO PUSH2 0xBE7 JUMPI PUSH1 0x40 MLOAD PUSH3 0x461BCD PUSH1 0xE5 SHL DUP2 MSTORE PUSH1 0x20 PUSH1 0x4 DUP3 ADD MSTORE PUSH1 0x6 PUSH1 0x24 DUP3 ADD MSTORE PUSH6 0x457869737473 PUSH1 0xD0 SHL PUSH1 0x44 DUP3 ADD MSTORE PUSH1 0x64 ADD PUSH2 0x2A9 JUMP JUMPDEST PUSH1 0x2 PUSH0 DUP5 PUSH1 0x2 DUP2 GT ISZERO PUSH2 0xBFC JUMPI PUSH2 0xBFC PUSH2 0x1846 JUMP JUMPDEST PUSH1 0x2 DUP2 GT ISZERO PUSH2 0xC0D JUMPI PUSH2 0xC0D PUSH2 0x1846 JUMP JUMPDEST DUP2 MSTORE PUSH1 0x20 DUP1 DUP3 ADD SWAP3 SWAP1 SWAP3 MSTORE PUSH1 0x40 SWAP1 DUP2 ADD PUSH0 SWAP1 DUP2 KECCAK256 DUP3 MLOAD DUP1 DUP5 ADD SWAP1 SWAP4 MSTORE PUSH1 0x1 PUSH1 0x1 PUSH1 0xA0 SHL SUB SWAP6 DUP7 AND DUP4 MSTORE CALLER DUP4 DUP6 ADD SWAP1 DUP2 MSTORE DUP2 SLOAD PUSH1 0x1 DUP2 DUP2 ADD DUP5 SSTORE SWAP3 DUP5 MSTORE SWAP5 SWAP1 SWAP3 KECCAK256 SWAP3 MLOAD PUSH1 0x2 SWAP1 SWAP5 MUL SWAP1 SWAP3 ADD DUP1 SLOAD SWAP4 DUP7 AND PUSH1 0x1 PUSH1 0x1 PUSH1 0xA0 SHL SUB NOT SWAP5 DUP6 AND OR DUP2 SSTORE SWAP1 MLOAD SWAP2 ADD DUP1 SLOAD SWAP2 SWAP1 SWAP5 AND SWAP2 AND OR SWAP1 SWAP2 SSTORE POP POP JUMP JUMPDEST PUSH1 0x3 SLOAD PUSH1 0x1 PUSH1 0x1 PUSH1 0xA0 SHL SUB AND CALLER EQ DUP1 PUSH2 0xCA2 JUMPI POP PUSH1 0x4 SLOAD PUSH1 0x1 PUSH1 0x1 PUSH1 0xA0 SHL SUB AND CALLER EQ JUMPDEST PUSH2 0xCDB JUMPI PUSH1 0x40 MLOAD PUSH3 0x461BCD PUSH1 0xE5 SHL DUP2 MSTORE PUSH1 0x20 PUSH1 0x4 DUP3 ADD MSTORE PUSH1 0xA PUSH1 0x24 DUP3 ADD MSTORE PUSH10 0x27B7363C9037BBB732B9 PUSH1 0xB1 SHL PUSH1 0x44 DUP3 ADD MSTORE PUSH1 0x64 ADD PUSH2 0x2A9 JUMP JUMPDEST PUSH0 PUSH2 0xDD3 DUP3 PUSH1 0x1 DUP1 SLOAD DUP1 PUSH1 0x20 MUL PUSH1 0x20 ADD PUSH1 0x40 MLOAD SWAP1 DUP2 ADD PUSH1 0x40 MSTORE DUP1 SWAP3 SWAP2 SWAP1 DUP2 DUP2 MSTORE PUSH1 0x20 ADD PUSH0 SWAP1 JUMPDEST DUP3 DUP3 LT ISZERO PUSH2 0x251 JUMPI DUP4 DUP3 SWAP1 PUSH0 MSTORE PUSH1 0x20 PUSH0 KECCAK256 SWAP1 PUSH1 0x2 MUL ADD PUSH1 0x40 MLOAD DUP1 PUSH1 0x40 ADD PUSH1 0x40 MSTORE SWAP1 DUP2 PUSH0 DUP3 ADD DUP1 SLOAD PUSH2 0xD31 SWAP1 PUSH2 0x167E JUMP JUMPDEST DUP1 PUSH1 0x1F ADD PUSH1 0x20 DUP1 SWAP2 DIV MUL PUSH1 0x20 ADD PUSH1 0x40 MLOAD SWAP1 DUP2 ADD PUSH1 0x40 MSTORE DUP1 SWAP3 SWAP2 SWAP1 DUP2 DUP2 MSTORE PUSH1 0x20 ADD DUP3 DUP1 SLOAD PUSH2 0xD5D SWAP1 PUSH2 0x167E JUMP JUMPDEST DUP1 ISZERO PUSH2 0xDA8 JUMPI DUP1 PUSH1 0x1F LT PUSH2 0xD7F JUMPI PUSH2 0x100 DUP1 DUP4 SLOAD DIV MUL DUP4 MSTORE SWAP2 PUSH1 0x20 ADD SWAP2 PUSH2 0xDA8 JUMP JUMPDEST DUP3 ADD SWAP2 SWAP1 PUSH0 MSTORE PUSH1 0x20 PUSH0 KECCAK256 SWAP1 JUMPDEST DUP2 SLOAD DUP2 MSTORE SWAP1 PUSH1 0x1 ADD SWAP1 PUSH1 0x20 ADD DUP1 DUP4 GT PUSH2 0xD8B JUMPI DUP3 SWAP1 SUB PUSH1 0x1F AND DUP3 ADD SWAP2 JUMPDEST POP POP POP SWAP2 DUP4 MSTORE POP POP PUSH1 0x1 SWAP2 DUP3 ADD SLOAD PUSH1 0x1 PUSH1 0x1 PUSH1 0xA0 SHL SUB AND PUSH1 0x20 SWAP2 DUP3 ADD MSTORE SWAP2 DUP4 MSTORE SWAP3 SWAP1 SWAP3 ADD SWAP2 ADD PUSH2 0xD01 JUMP JUMPDEST SWAP1 POP DUP1 PUSH0 NOT EQ PUSH2 0xE0E JUMPI PUSH1 0x40 MLOAD PUSH3 0x461BCD PUSH1 0xE5 SHL DUP2 MSTORE PUSH1 0x20 PUSH1 0x4 DUP3 ADD MSTORE PUSH1 0x6 PUSH1 0x24 DUP3 ADD MSTORE PUSH6 0x457869737473 PUSH1 0xD0 SHL PUSH1 0x44 DUP3 ADD MSTORE PUSH1 0x64 ADD PUSH2 0x2A9 JUMP JUMPDEST PUSH1 0x40 DUP1 MLOAD DUP1 DUP3 ADD SWAP1 SWAP2 MSTORE DUP4 DUP2 MSTORE PUSH1 0x1 PUSH1 0x1 PUSH1 0xA0 SHL SUB DUP4 AND PUSH1 0x20 DUP3 ADD MSTORE PUSH1 0x1 DUP1 SLOAD DUP1 DUP3 ADD DUP3 SSTORE PUSH0 SWAP2 SWAP1 SWAP2 MSTORE DUP2 MLOAD PUSH1 0x2 SWAP1 SWAP2 MUL PUSH32 0xB10E2D527612073B26EECDFD717E6A320CF44B4AFAC2B0732D9FCBE2B7FA0CF6 ADD SWAP1 DUP2 SWAP1 PUSH2 0xE6E SWAP1 DUP3 PUSH2 0x185A JUMP JUMPDEST POP PUSH1 0x20 SWAP2 SWAP1 SWAP2 ADD MLOAD PUSH1 0x1 SWAP1 SWAP2 ADD DUP1 SLOAD PUSH1 0x1 PUSH1 0x1 PUSH1 0xA0 SHL SUB NOT AND PUSH1 0x1 PUSH1 0x1 PUSH1 0xA0 SHL SUB SWAP1 SWAP3 AND SWAP2 SWAP1 SWAP2 OR SWAP1 SSTORE POP POP POP JUMP JUMPDEST PUSH1 0x3 SLOAD PUSH1 0x60 SWAP1 PUSH1 0x1 PUSH1 0x1 PUSH1 0xA0 SHL SUB AND CALLER EQ DUP1 PUSH2 0xEC3 JUMPI POP PUSH1 0x4 SLOAD PUSH1 0x1 PUSH1 0x1 PUSH1 0xA0 SHL SUB AND CALLER EQ JUMPDEST PUSH2 0xEFC JUMPI PUSH1 0x40 MLOAD PUSH3 0x461BCD PUSH1 0xE5 SHL DUP2 MSTORE PUSH1 0x20 PUSH1 0x4 DUP3 ADD MSTORE PUSH1 0xA PUSH1 0x24 DUP3 ADD MSTORE PUSH10 0x27B7363C9037BBB732B9 PUSH1 0xB1 SHL PUSH1 0x44 DUP3 ADD MSTORE PUSH1 0x64 ADD PUSH2 0x2A9 JUMP JUMPDEST PUSH1 0x1 DUP1 SLOAD DUP1 PUSH1 0x20 MUL PUSH1 0x20 ADD PUSH1 0x40 MLOAD SWAP1 DUP2 ADD PUSH1 0x40 MSTORE DUP1 SWAP3 SWAP2 SWAP1 DUP2 DUP2 MSTORE PUSH1 0x20 ADD PUSH0 SWAP1 JUMPDEST DUP3 DUP3 LT ISZERO PUSH2 0xFEF JUMPI DUP4 DUP3 SWAP1 PUSH0 MSTORE PUSH1 0x20 PUSH0 KECCAK256 SWAP1 PUSH1 0x2 MUL ADD PUSH1 0x40 MLOAD DUP1 PUSH1 0x40 ADD PUSH1 0x40 MSTORE SWAP1 DUP2 PUSH0 DUP3 ADD DUP1 SLOAD PUSH2 0xF4D SWAP1 PUSH2 0x167E JUMP JUMPDEST DUP1 PUSH1 0x1F ADD PUSH1 0x20 DUP1 SWAP2 DIV MUL PUSH1 0x20 ADD PUSH1 0x40 MLOAD SWAP1 DUP2 ADD PUSH1 0x40 MSTORE DUP1 SWAP3 SWAP2 SWAP1 DUP2 DUP2 MSTORE PUSH1 0x20 ADD DUP3 DUP1 SLOAD PUSH2 0xF79 SWAP1 PUSH2 0x167E JUMP JUMPDEST DUP1 ISZERO PUSH2 0xFC4 JUMPI DUP1 PUSH1 0x1F LT PUSH2 0xF9B JUMPI PUSH2 0x100 DUP1 DUP4 SLOAD DIV MUL DUP4 MSTORE SWAP2 PUSH1 0x20 ADD SWAP2 PUSH2 0xFC4 JUMP JUMPDEST DUP3 ADD SWAP2 SWAP1 PUSH0 MSTORE PUSH1 0x20 PUSH0 KECCAK256 SWAP1 JUMPDEST DUP2 SLOAD DUP2 MSTORE SWAP1 PUSH1 0x1 ADD SWAP1 PUSH1 0x20 ADD DUP1 DUP4 GT PUSH2 0xFA7 JUMPI DUP3 SWAP1 SUB PUSH1 0x1F AND DUP3 ADD SWAP2 JUMPDEST POP POP POP SWAP2 DUP4 MSTORE POP POP PUSH1 0x1 SWAP2 DUP3 ADD SLOAD PUSH1 0x1 PUSH1 0x1 PUSH1 0xA0 SHL SUB AND PUSH1 0x20 SWAP2 DUP3 ADD MSTORE SWAP2 DUP4 MSTORE SWAP3 SWAP1 SWAP3 ADD SWAP2 ADD PUSH2 0xF1D JUMP JUMPDEST POP POP POP POP SWAP1 POP SWAP1 JUMP JUMPDEST PUSH0 PUSH0 NOT PUSH2 0x10F2 CALLER PUSH1 0x1 DUP1 SLOAD DUP1 PUSH1 0x20 MUL PUSH1 0x20 ADD PUSH1 0x40 MLOAD SWAP1 DUP2 ADD PUSH1 0x40 MSTORE DUP1 SWAP3 SWAP2 SWAP1 DUP2 DUP2 MSTORE PUSH1 0x20 ADD PUSH0 SWAP1 JUMPDEST DUP3 DUP3 LT ISZERO PUSH2 0x251 JUMPI DUP4 DUP3 SWAP1 PUSH0 MSTORE PUSH1 0x20 PUSH0 KECCAK256 SWAP1 PUSH1 0x2 MUL ADD PUSH1 0x40 MLOAD DUP1 PUSH1 0x40 ADD PUSH1 0x40 MSTORE SWAP1 DUP2 PUSH0 DUP3 ADD DUP1 SLOAD PUSH2 0x1050 SWAP1 PUSH2 0x167E JUMP JUMPDEST DUP1 PUSH1 0x1F ADD PUSH1 0x20 DUP1 SWAP2 DIV MUL PUSH1 0x20 ADD PUSH1 0x40 MLOAD SWAP1 DUP2 ADD PUSH1 0x40 MSTORE DUP1 SWAP3 SWAP2 SWAP1 DUP2 DUP2 MSTORE PUSH1 0x20 ADD DUP3 DUP1 SLOAD PUSH2 0x107C SWAP1 PUSH2 0x167E JUMP JUMPDEST DUP1 ISZERO PUSH2 0x10C7 JUMPI DUP1 PUSH1 0x1F LT PUSH2 0x109E JUMPI PUSH2 0x100 DUP1 DUP4 SLOAD DIV MUL DUP4 MSTORE SWAP2 PUSH1 0x20 ADD SWAP2 PUSH2 0x10C7 JUMP JUMPDEST DUP3 ADD SWAP2 SWAP1 PUSH0 MSTORE PUSH1 0x20 PUSH0 KECCAK256 SWAP1 JUMPDEST DUP2 SLOAD DUP2 MSTORE SWAP1 PUSH1 0x1 ADD SWAP1 PUSH1 0x20 ADD DUP1 DUP4 GT PUSH2 0x10AA JUMPI DUP3 SWAP1 SUB PUSH1 0x1F AND DUP3 ADD SWAP2 JUMPDEST POP POP POP SWAP2 DUP4 MSTORE POP POP PUSH1 0x1 SWAP2 DUP3 ADD SLOAD PUSH1 0x1 PUSH1 0x1 PUSH1 0xA0 SHL SUB AND PUSH1 0x20 SWAP2 DUP3 ADD MSTORE SWAP2 DUP4 MSTORE SWAP3 SWAP1 SWAP3 ADD SWAP2 ADD PUSH2 0x1020 JUMP JUMPDEST SGT PUSH2 0x110F JUMPI PUSH1 0x40 MLOAD PUSH3 0x461BCD PUSH1 0xE5 SHL DUP2 MSTORE PUSH1 0x4 ADD PUSH2 0x2A9 SWAP1 PUSH2 0x1821 JUMP JUMPDEST POP PUSH1 0x3 SLOAD PUSH1 0x1 PUSH1 0x1 PUSH1 0xA0 SHL SUB AND CALLER EQ SWAP1 JUMP JUMPDEST PUSH1 0x60 PUSH0 NOT PUSH2 0x121C CALLER PUSH1 0x1 DUP1 SLOAD DUP1 PUSH1 0x20 MUL PUSH1 0x20 ADD PUSH1 0x40 MLOAD SWAP1 DUP2 ADD PUSH1 0x40 MSTORE DUP1 SWAP3 SWAP2 SWAP1 DUP2 DUP2 MSTORE PUSH1 0x20 ADD PUSH0 SWAP1 JUMPDEST DUP3 DUP3 LT ISZERO PUSH2 0x251 JUMPI DUP4 DUP3 SWAP1 PUSH0 MSTORE PUSH1 0x20 PUSH0 KECCAK256 SWAP1 PUSH1 0x2 MUL ADD PUSH1 0x40 MLOAD DUP1 PUSH1 0x40 ADD PUSH1 0x40 MSTORE SWAP1 DUP2 PUSH0 DUP3 ADD DUP1 SLOAD PUSH2 0x117A SWAP1 PUSH2 0x167E JUMP JUMPDEST DUP1 PUSH1 0x1F ADD PUSH1 0x20 DUP1 SWAP2 DIV MUL PUSH1 0x20 ADD PUSH1 0x40 MLOAD SWAP1 DUP2 ADD PUSH1 0x40 MSTORE DUP1 SWAP3 SWAP2 SWAP1 DUP2 DUP2 MSTORE PUSH1 0x20 ADD DUP3 DUP1 SLOAD PUSH2 0x11A6 SWAP1 PUSH2 0x167E JUMP JUMPDEST DUP1 ISZERO PUSH2 0x11F1 JUMPI DUP1 PUSH1 0x1F LT PUSH2 0x11C8 JUMPI PUSH2 0x100 DUP1 DUP4 SLOAD DIV MUL DUP4 MSTORE SWAP2 PUSH1 0x20 ADD SWAP2 PUSH2 0x11F1 JUMP JUMPDEST DUP3 ADD SWAP2 SWAP1 PUSH0 MSTORE PUSH1 0x20 PUSH0 KECCAK256 SWAP1 JUMPDEST DUP2 SLOAD DUP2 MSTORE SWAP1 PUSH1 0x1 ADD SWAP1 PUSH1 0x20 ADD DUP1 DUP4 GT PUSH2 0x11D4 JUMPI DUP3 SWAP1 SUB PUSH1 0x1F AND DUP3 ADD SWAP2 JUMPDEST POP POP POP SWAP2 DUP4 MSTORE POP POP PUSH1 0x1 SWAP2 DUP3 ADD SLOAD PUSH1 0x1 PUSH1 0x1 PUSH1 0xA0 SHL SUB AND PUSH1 0x20 SWAP2 DUP3 ADD MSTORE SWAP2 DUP4 MSTORE SWAP3 SWAP1 SWAP3 ADD SWAP2 ADD PUSH2 0x114A JUMP JUMPDEST SGT PUSH2 0x1239 JUMPI PUSH1 0x40 MLOAD PUSH3 0x461BCD PUSH1 0xE5 SHL DUP2 MSTORE PUSH1 0x4 ADD PUSH2 0x2A9 SWAP1 PUSH2 0x1821 JUMP JUMPDEST PUSH1 0x60 PUSH0 JUMPDEST PUSH1 0x2 PUSH0 DUP6 PUSH1 0x2 DUP2 GT ISZERO PUSH2 0x1252 JUMPI PUSH2 0x1252 PUSH2 0x1846 JUMP JUMPDEST PUSH1 0x2 DUP2 GT ISZERO PUSH2 0x1263 JUMPI PUSH2 0x1263 PUSH2 0x1846 JUMP JUMPDEST DUP2 MSTORE PUSH1 0x20 DUP2 ADD SWAP2 SWAP1 SWAP2 MSTORE PUSH1 0x40 ADD PUSH0 KECCAK256 SLOAD DUP2 LT ISZERO PUSH2 0x130E JUMPI PUSH1 0x2 PUSH0 DUP6 PUSH1 0x2 DUP2 GT ISZERO PUSH2 0x128F JUMPI PUSH2 0x128F PUSH2 0x1846 JUMP JUMPDEST PUSH1 0x2 DUP2 GT ISZERO PUSH2 0x12A0 JUMPI PUSH2 0x12A0 PUSH2 0x1846 JUMP JUMPDEST DUP2 MSTORE PUSH1 0x20 ADD SWAP1 DUP2 MSTORE PUSH1 0x20 ADD PUSH0 KECCAK256 DUP2 DUP2 SLOAD DUP2 LT PUSH2 0x12BE JUMPI PUSH2 0x12BE PUSH2 0x16D5 JUMP JUMPDEST PUSH0 SWAP2 DUP3 MSTORE PUSH1 0x20 SWAP1 SWAP2 KECCAK256 PUSH1 0x2 SWAP1 SWAP2 MUL ADD SLOAD DUP3 MLOAD PUSH1 0x1 PUSH1 0x1 PUSH1 0xA0 SHL SUB SWAP1 SWAP2 AND SWAP1 DUP4 SWAP1 DUP4 SWAP1 DUP2 LT PUSH2 0x12EE JUMPI PUSH2 0x12EE PUSH2 0x16D5 JUMP JUMPDEST PUSH1 0x1 PUSH1 0x1 PUSH1 0xA0 SHL SUB SWAP1 SWAP3 AND PUSH1 0x20 SWAP3 DUP4 MUL SWAP2 SWAP1 SWAP2 ADD SWAP1 SWAP2 ADD MSTORE PUSH1 0x1 ADD PUSH2 0x123D JUMP JUMPDEST POP SWAP1 POP JUMPDEST SWAP2 SWAP1 POP JUMP JUMPDEST PUSH0 DUP1 JUMPDEST DUP3 MLOAD DUP2 LT ISZERO PUSH2 0x1368 JUMPI DUP4 PUSH1 0x1 PUSH1 0x1 PUSH1 0xA0 SHL SUB AND DUP4 DUP3 DUP2 MLOAD DUP2 LT PUSH2 0x133F JUMPI PUSH2 0x133F PUSH2 0x16D5 JUMP JUMPDEST PUSH1 0x20 MUL PUSH1 0x20 ADD ADD MLOAD PUSH1 0x20 ADD MLOAD PUSH1 0x1 PUSH1 0x1 PUSH1 0xA0 SHL SUB AND SUB PUSH2 0x1360 JUMPI SWAP1 POP PUSH2 0x136E JUMP JUMPDEST PUSH1 0x1 ADD PUSH2 0x131A JUMP JUMPDEST POP PUSH0 NOT SWAP1 POP JUMPDEST SWAP3 SWAP2 POP POP JUMP JUMPDEST PUSH0 DUP1 JUMPDEST DUP3 MLOAD DUP2 LT ISZERO PUSH2 0x1368 JUMPI DUP4 PUSH1 0x1 PUSH1 0x1 PUSH1 0xA0 SHL SUB AND DUP4 DUP3 DUP2 MLOAD DUP2 LT PUSH2 0x139C JUMPI PUSH2 0x139C PUSH2 0x16D5 JUMP JUMPDEST PUSH1 0x20 MUL PUSH1 0x20 ADD ADD MLOAD PUSH0 ADD MLOAD PUSH1 0x1 PUSH1 0x1 PUSH1 0xA0 SHL SUB AND SUB PUSH2 0x13BC JUMPI SWAP1 POP PUSH2 0x136E JUMP JUMPDEST PUSH1 0x1 ADD PUSH2 0x1377 JUMP JUMPDEST POP DUP1 SLOAD PUSH2 0x13D0 SWAP1 PUSH2 0x167E JUMP JUMPDEST PUSH0 DUP3 SSTORE DUP1 PUSH1 0x1F LT PUSH2 0x13DF JUMPI POP POP JUMP JUMPDEST PUSH1 0x1F ADD PUSH1 0x20 SWAP1 DIV SWAP1 PUSH0 MSTORE PUSH1 0x20 PUSH0 KECCAK256 SWAP1 DUP2 ADD SWAP1 PUSH2 0x13FB SWAP2 SWAP1 PUSH2 0x13FE JUMP JUMPDEST POP JUMP JUMPDEST JUMPDEST DUP1 DUP3 GT ISZERO PUSH2 0x1412 JUMPI PUSH0 DUP2 SSTORE PUSH1 0x1 ADD PUSH2 0x13FF JUMP JUMPDEST POP SWAP1 JUMP JUMPDEST DUP1 CALLDATALOAD PUSH1 0x1 PUSH1 0x1 PUSH1 0xA0 SHL SUB DUP2 AND DUP2 EQ PUSH2 0x1312 JUMPI PUSH0 DUP1 REVERT JUMPDEST PUSH0 PUSH1 0x20 DUP3 DUP5 SUB SLT ISZERO PUSH2 0x143C JUMPI PUSH0 DUP1 REVERT JUMPDEST PUSH2 0x1445 DUP3 PUSH2 0x1416 JUMP JUMPDEST SWAP4 SWAP3 POP POP POP JUMP JUMPDEST PUSH0 DUP2 MLOAD DUP1 DUP5 MSTORE DUP1 PUSH1 0x20 DUP5 ADD PUSH1 0x20 DUP7 ADD MCOPY PUSH0 PUSH1 0x20 DUP3 DUP7 ADD ADD MSTORE PUSH1 0x20 PUSH1 0x1F NOT PUSH1 0x1F DUP4 ADD AND DUP6 ADD ADD SWAP2 POP POP SWAP3 SWAP2 POP POP JUMP JUMPDEST PUSH1 0x20 DUP2 MSTORE PUSH0 PUSH2 0x1445 PUSH1 0x20 DUP4 ADD DUP5 PUSH2 0x144C JUMP JUMPDEST DUP1 CALLDATALOAD PUSH1 0x3 DUP2 LT PUSH2 0x1312 JUMPI PUSH0 DUP1 REVERT JUMPDEST PUSH0 DUP1 PUSH1 0x40 DUP4 DUP6 SUB SLT ISZERO PUSH2 0x14AB JUMPI PUSH0 DUP1 REVERT JUMPDEST PUSH2 0x14B4 DUP4 PUSH2 0x148C JUMP JUMPDEST SWAP2 POP PUSH2 0x14C2 PUSH1 0x20 DUP5 ADD PUSH2 0x1416 JUMP JUMPDEST SWAP1 POP SWAP3 POP SWAP3 SWAP1 POP JUMP JUMPDEST PUSH4 0x4E487B71 PUSH1 0xE0 SHL PUSH0 MSTORE PUSH1 0x41 PUSH1 0x4 MSTORE PUSH1 0x24 PUSH0 REVERT JUMPDEST PUSH0 DUP1 PUSH1 0x40 DUP4 DUP6 SUB SLT ISZERO PUSH2 0x14F0 JUMPI PUSH0 DUP1 REVERT JUMPDEST DUP3 CALLDATALOAD PUSH8 0xFFFFFFFFFFFFFFFF DUP2 GT ISZERO PUSH2 0x1506 JUMPI PUSH0 DUP1 REVERT JUMPDEST DUP4 ADD PUSH1 0x1F DUP2 ADD DUP6 SGT PUSH2 0x1516 JUMPI PUSH0 DUP1 REVERT JUMPDEST DUP1 CALLDATALOAD PUSH8 0xFFFFFFFFFFFFFFFF DUP2 GT ISZERO PUSH2 0x1530 JUMPI PUSH2 0x1530 PUSH2 0x14CB JUMP JUMPDEST PUSH1 0x40 MLOAD PUSH1 0x1F DUP3 ADD PUSH1 0x1F NOT SWAP1 DUP2 AND PUSH1 0x3F ADD AND DUP2 ADD PUSH8 0xFFFFFFFFFFFFFFFF DUP2 GT DUP3 DUP3 LT OR ISZERO PUSH2 0x155F JUMPI PUSH2 0x155F PUSH2 0x14CB JUMP JUMPDEST PUSH1 0x40 MSTORE DUP2 DUP2 MSTORE DUP3 DUP3 ADD PUSH1 0x20 ADD DUP8 LT ISZERO PUSH2 0x1576 JUMPI PUSH0 DUP1 REVERT JUMPDEST DUP2 PUSH1 0x20 DUP5 ADD PUSH1 0x20 DUP4 ADD CALLDATACOPY PUSH0 PUSH1 0x20 DUP4 DUP4 ADD ADD MSTORE DUP1 SWAP5 POP POP POP POP PUSH2 0x14C2 PUSH1 0x20 DUP5 ADD PUSH2 0x1416 JUMP JUMPDEST PUSH0 PUSH1 0x20 DUP3 ADD PUSH1 0x20 DUP4 MSTORE DUP1 DUP5 MLOAD DUP1 DUP4 MSTORE PUSH1 0x40 DUP6 ADD SWAP2 POP PUSH1 0x40 DUP2 PUSH1 0x5 SHL DUP7 ADD ADD SWAP3 POP PUSH1 0x20 DUP7 ADD PUSH0 JUMPDEST DUP3 DUP2 LT ISZERO PUSH2 0x160E JUMPI PUSH1 0x3F NOT DUP8 DUP7 SUB ADD DUP5 MSTORE DUP2 MLOAD DUP1 MLOAD PUSH1 0x40 DUP8 MSTORE PUSH2 0x15E6 PUSH1 0x40 DUP9 ADD DUP3 PUSH2 0x144C JUMP JUMPDEST PUSH1 0x20 SWAP3 DUP4 ADD MLOAD PUSH1 0x1 PUSH1 0x1 PUSH1 0xA0 SHL SUB AND SWAP8 DUP4 ADD SWAP8 SWAP1 SWAP8 MSTORE POP SWAP4 DUP5 ADD SWAP4 SWAP2 SWAP1 SWAP2 ADD SWAP1 PUSH1 0x1 ADD PUSH2 0x15C0 JUMP JUMPDEST POP SWAP3 SWAP7 SWAP6 POP POP POP POP POP POP JUMP JUMPDEST PUSH0 PUSH1 0x20 DUP3 DUP5 SUB SLT ISZERO PUSH2 0x162A JUMPI PUSH0 DUP1 REVERT JUMPDEST PUSH2 0x1445 DUP3 PUSH2 0x148C JUMP JUMPDEST PUSH1 0x20 DUP1 DUP3 MSTORE DUP3 MLOAD DUP3 DUP3 ADD DUP2 SWAP1 MSTORE PUSH0 SWAP2 DUP5 ADD SWAP1 PUSH1 0x40 DUP5 ADD SWAP1 DUP4 JUMPDEST DUP2 DUP2 LT ISZERO PUSH2 0x1673 JUMPI DUP4 MLOAD PUSH1 0x1 PUSH1 0x1 PUSH1 0xA0 SHL SUB AND DUP4 MSTORE PUSH1 0x20 SWAP4 DUP5 ADD SWAP4 SWAP1 SWAP3 ADD SWAP2 PUSH1 0x1 ADD PUSH2 0x164C JUMP JUMPDEST POP SWAP1 SWAP6 SWAP5 POP POP POP POP POP JUMP JUMPDEST PUSH1 0x1 DUP2 DUP2 SHR SWAP1 DUP3 AND DUP1 PUSH2 0x1692 JUMPI PUSH1 0x7F DUP3 AND SWAP2 POP JUMPDEST PUSH1 0x20 DUP3 LT DUP2 SUB PUSH2 0x16B0 JUMPI PUSH4 0x4E487B71 PUSH1 0xE0 SHL PUSH0 MSTORE PUSH1 0x22 PUSH1 0x4 MSTORE PUSH1 0x24 PUSH0 REVERT JUMPDEST POP SWAP2 SWAP1 POP JUMP JUMPDEST DUP2 DUP2 SUB DUP2 DUP2 GT ISZERO PUSH2 0x136E JUMPI PUSH4 0x4E487B71 PUSH1 0xE0 SHL PUSH0 MSTORE PUSH1 0x11 PUSH1 0x4 MSTORE PUSH1 0x24 PUSH0 REVERT JUMPDEST PUSH4 0x4E487B71 PUSH1 0xE0 SHL PUSH0 MSTORE PUSH1 0x32 PUSH1 0x4 MSTORE PUSH1 0x24 PUSH0 REVERT JUMPDEST PUSH1 0x1F DUP3 GT ISZERO PUSH2 0x1730 JUMPI DUP1 PUSH0 MSTORE PUSH1 0x20 PUSH0 KECCAK256 PUSH1 0x1F DUP5 ADD PUSH1 0x5 SHR DUP2 ADD PUSH1 0x20 DUP6 LT ISZERO PUSH2 0x170E JUMPI POP DUP1 JUMPDEST PUSH1 0x1F DUP5 ADD PUSH1 0x5 SHR DUP3 ADD SWAP2 POP JUMPDEST DUP2 DUP2 LT ISZERO PUSH2 0x172D JUMPI PUSH0 DUP2 SSTORE PUSH1 0x1 ADD PUSH2 0x171A JUMP JUMPDEST POP POP JUMPDEST POP POP POP JUMP JUMPDEST DUP2 DUP2 SUB PUSH2 0x1740 JUMPI POP POP JUMP JUMPDEST PUSH2 0x174A DUP3 SLOAD PUSH2 0x167E JUMP JUMPDEST PUSH8 0xFFFFFFFFFFFFFFFF DUP2 GT ISZERO PUSH2 0x1762 JUMPI PUSH2 0x1762 PUSH2 0x14CB JUMP JUMPDEST PUSH2 0x1776 DUP2 PUSH2 0x1770 DUP5 SLOAD PUSH2 0x167E JUMP JUMPDEST DUP5 PUSH2 0x16E9 JUMP JUMPDEST PUSH0 PUSH1 0x1F DUP3 GT PUSH1 0x1 DUP2 EQ PUSH2 0x17AA JUMPI PUSH0 DUP4 ISZERO PUSH2 0x1790 JUMPI POP DUP5 DUP3 ADD SLOAD JUMPDEST PUSH1 0x1 DUP5 SWAP1 SHL PUSH0 NOT PUSH1 0x3 DUP7 SWAP1 SHL SHR NOT DUP3 AND OR JUMPDEST DUP6 SSTORE POP PUSH2 0x172D JUMP JUMPDEST PUSH0 DUP6 DUP2 MSTORE PUSH1 0x20 DUP1 DUP3 KECCAK256 DUP7 DUP4 MSTORE SWAP1 DUP3 KECCAK256 PUSH1 0x1F NOT DUP7 AND SWAP3 JUMPDEST DUP4 DUP2 LT ISZERO PUSH2 0x17E0 JUMPI DUP3 DUP7 ADD SLOAD DUP3 SSTORE PUSH1 0x1 SWAP6 DUP7 ADD SWAP6 SWAP1 SWAP2 ADD SWAP1 PUSH1 0x20 ADD PUSH2 0x17C0 JUMP JUMPDEST POP DUP6 DUP4 LT ISZERO PUSH2 0x17FD JUMPI DUP2 DUP6 ADD SLOAD PUSH0 NOT PUSH1 0x3 DUP9 SWAP1 SHL PUSH1 0xF8 AND SHR NOT AND DUP2 SSTORE JUMPDEST POP POP POP POP POP PUSH1 0x1 SWAP1 DUP2 SHL ADD SWAP1 SSTORE POP JUMP JUMPDEST PUSH4 0x4E487B71 PUSH1 0xE0 SHL PUSH0 MSTORE PUSH1 0x31 PUSH1 0x4 MSTORE PUSH1 0x24 PUSH0 REVERT JUMPDEST PUSH1 0x20 DUP1 DUP3 MSTORE PUSH1 0xB SWAP1 DUP3 ADD MSTORE PUSH11 0x27B7363C9036B2B6B132B9 PUSH1 0xA9 SHL PUSH1 0x40 DUP3 ADD MSTORE PUSH1 0x60 ADD SWAP1 JUMP JUMPDEST PUSH4 0x4E487B71 PUSH1 0xE0 SHL PUSH0 MSTORE PUSH1 0x21 PUSH1 0x4 MSTORE PUSH1 0x24 PUSH0 REVERT JUMPDEST DUP2 MLOAD PUSH8 0xFFFFFFFFFFFFFFFF DUP2 GT ISZERO PUSH2 0x1874 JUMPI PUSH2 0x1874 PUSH2 0x14CB JUMP JUMPDEST PUSH2 0x1882 DUP2 PUSH2 0x1770 DUP5 SLOAD PUSH2 0x167E JUMP JUMPDEST PUSH1 0x20 PUSH1 0x1F DUP3 GT PUSH1 0x1 DUP2 EQ PUSH2 0x18B2 JUMPI PUSH0 DUP4 ISZERO PUSH2 0x1790 JUMPI POP DUP2 DUP6 ADD MLOAD PUSH1 0x1 DUP5 SWAP1 SHL PUSH0 NOT PUSH1 0x3 DUP7 SWAP1 SHL SHR NOT DUP3 AND OR PUSH2 0x17A2 JUMP JUMPDEST PUSH0 DUP5 DUP2 MSTORE PUSH1 0x20 DUP2 KECCAK256 PUSH1 0x1F NOT DUP6 AND SWAP2 JUMPDEST DUP3 DUP2 LT ISZERO PUSH2 0x18E1 JUMPI DUP8 DUP6 ADD MLOAD DUP3 SSTORE PUSH1 0x20 SWAP5 DUP6 ADD SWAP5 PUSH1 0x1 SWAP1 SWAP3 ADD SWAP2 ADD PUSH2 0x18C1 JUMP JUMPDEST POP DUP5 DUP3 LT ISZERO PUSH2 0x18FE JUMPI DUP7 DUP5 ADD MLOAD PUSH0 NOT PUSH1 0x3 DUP8 SWAP1 SHL PUSH1 0xF8 AND SHR NOT AND DUP2 SSTORE JUMPDEST POP POP POP POP PUSH1 0x1 SWAP1 DUP2 SHL ADD SWAP1 SSTORE POP JUMP INVALID LOG2 PUSH5 0x6970667358 0x22 SLT KECCAK256 0x1F LOG3 LOG3 BLOCKHASH 0xB7 0xDF LT SWAP3 PC PUSH23 0x97386F883531B102EC37D7A9C5D6AB162C0CEB5EE6E964 PUSH20 0x6F6C634300081A00330000000000000000000000 "
				},
				"gasEstimates": {
					"creation": {
						"codeDepositCost": "1293400",
						"executionCost": "infinite",
						"totalCost": "infinite"
					},
					"external": {
						"addItem(uint8,address)": "infinite",
						"addMember(string,address)": "infinite",
						"deleteItem(uint8,address)": "infinite",
						"getItems(uint8)": "infinite",
						"getMembers()": "infinite",
						"getName()": "infinite",
						"isOwn()": "infinite",
						"removeMember(address)": "infinite"
					}
				},
				"methodIdentifiers": {
					"addItem(uint8,address)": "369080e7",
					"addMember(string,address)": "45e39705",
					"deleteItem(uint8,address)": "26e3bc4e",
					"getItems(uint8)": "d7c4310f",
					"getMembers()": "9eab5253",
					"getName()": "17d7de7c",
					"isOwn()": "b9daf3e2",
					"removeMember(address)": "0b1ca49a"
				}
			},
			"storageLayout": {
				"storage": [
					{
						"astId": 276,
						"contract": "Organisation.sol:Organisation",
						"label": "name",
						"offset": 0,
						"slot": "0",
						"type": "t_string_storage"
					},
					{
						"astId": 280,
						"contract": "Organisation.sol:Organisation",
						"label": "members",
						"offset": 0,
						"slot": "1",
						"type": "t_array(t_struct(Member)127_storage)dyn_storage"
					},
					{
						"astId": 287,
						"contract": "Organisation.sol:Organisation",
						"label": "Items",
						"offset": 0,
						"slot": "2",
						"type": "t_mapping(t_enum(ItemType)5,t_array(t_struct(Item)132_storage)dyn_storage)"
					},
					{
						"astId": 289,
						"contract": "Organisation.sol:Organisation",
						"label": "owner",
						"offset": 0,
						"slot": "3",
						"type": "t_address"
					},
					{
						"astId": 291,
						"contract": "Organisation.sol:Organisation",
						"label": "parent",
						"offset": 0,
						"slot": "4",
						"type": "t_address"
					}
				],
				"types": {
					"t_address": {
						"encoding": "inplace",
						"label": "address",
						"numberOfBytes": "20"
					},
					"t_array(t_struct(Item)132_storage)dyn_storage": {
						"base": "t_struct(Item)132_storage",
						"encoding": "dynamic_array",
						"label": "struct OrgUtils.Item[]",
						"numberOfBytes": "32"
					},
					"t_array(t_struct(Member)127_storage)dyn_storage": {
						"base": "t_struct(Member)127_storage",
						"encoding": "dynamic_array",
						"label": "struct OrgUtils.Member[]",
						"numberOfBytes": "32"
					},
					"t_enum(ItemType)5": {
						"encoding": "inplace",
						"label": "enum Constants.ItemType",
						"numberOfBytes": "1"
					},
					"t_mapping(t_enum(ItemType)5,t_array(t_struct(Item)132_storage)dyn_storage)": {
						"encoding": "mapping",
						"key": "t_enum(ItemType)5",
						"label": "mapping(enum Constants.ItemType => struct OrgUtils.Item[])",
						"numberOfBytes": "32",
						"value": "t_array(t_struct(Item)132_storage)dyn_storage"
					},
					"t_string_storage": {
						"encoding": "bytes",
						"label": "string",
						"numberOfBytes": "32"
					},
					"t_struct(Item)132_storage": {
						"encoding": "inplace",
						"label": "struct OrgUtils.Item",
						"members": [
							{
								"astId": 129,
								"contract": "Organisation.sol:Organisation",
								"label": "addr",
								"offset": 0,
								"slot": "0",
								"type": "t_address"
							},
							{
								"astId": 131,
								"contract": "Organisation.sol:Organisation",
								"label": "creator",
								"offset": 0,
								"slot": "1",
								"type": "t_address"
							}
						],
						"numberOfBytes": "64"
					},
					"t_struct(Member)127_storage": {
						"encoding": "inplace",
						"label": "struct OrgUtils.Member",
						"members": [
							{
								"astId": 124,
								"contract": "Organisation.sol:Organisation",
								"label": "name",
								"offset": 0,
								"slot": "0",
								"type": "t_string_storage"
							},
							{
								"astId": 126,
								"contract": "Organisation.sol:Organisation",
								"label": "addr",
								"offset": 0,
								"slot": "1",
								"type": "t_address"
							}
						],
						"numberOfBytes": "64"
					}
				}
			},
			"userdoc": {
				"kind": "user",
				"methods": {},
				"version": 1
			}
		}
	}
}