{
	"Items/LoyalityCard.sol": {
		"LoyalityCard": {
			"abi": [
				{
					"inputs": [
						{
							"internalType": "string",
							"name": "_name",
							"type": "string"
						},
						{
							"internalType": "string",
							"name": "_card_id",
							"type": "string"
						},
						{
							"internalType": "address",
							"name": "_owner",
							"type": "address"
						},
						{
							"internalType": "address",
							"name": "_parent",
							"type": "address"
						}
					],
					"stateMutability": "nonpayable",
					"type": "constructor"
				},
				{
					"anonymous": false,
					"inputs": [
						{
							"indexed": false,
							"internalType": "address",
							"name": "",
							"type": "address"
						}
					],
					"name": "AddedToOrganisation",
					"type": "event"
				},
				{
					"anonymous": false,
					"inputs": [
						{
							"indexed": false,
							"internalType": "address",
							"name": "",
							"type": "address"
						}
					],
					"name": "Created",
					"type": "event"
				},
				{
					"anonymous": false,
					"inputs": [
						{
							"indexed": false,
							"internalType": "address",
							"name": "",
							"type": "address"
						}
					],
					"name": "RemovedFromOrganisation",
					"type": "event"
				},
				{
					"anonymous": false,
					"inputs": [
						{
							"indexed": false,
							"internalType": "address",
							"name": "",
							"type": "address"
						}
					],
					"name": "Updated",
					"type": "event"
				},
				{
					"inputs": [],
					"name": "expose",
					"outputs": [
						{
							"internalType": "string",
							"name": "",
							"type": "string"
						},
						{
							"internalType": "string",
							"name": "",
							"type": "string"
						}
					],
					"stateMutability": "view",
					"type": "function"
				},
				{
					"inputs": [],
					"name": "getItemType",
					"outputs": [
						{
							"internalType": "enum Constants.ItemType",
							"name": "",
							"type": "uint8"
						}
					],
					"stateMutability": "view",
					"type": "function"
				},
				{
					"inputs": [],
					"name": "getParent",
					"outputs": [
						{
							"internalType": "address",
							"name": "",
							"type": "address"
						}
					],
					"stateMutability": "view",
					"type": "function"
				},
				{
					"inputs": [],
					"name": "getSharedWith",
					"outputs": [
						{
							"internalType": "address[]",
							"name": "",
							"type": "address[]"
						}
					],
					"stateMutability": "view",
					"type": "function"
				},
				{
					"inputs": [],
					"name": "isOwn",
					"outputs": [
						{
							"internalType": "bool",
							"name": "",
							"type": "bool"
						}
					],
					"stateMutability": "view",
					"type": "function"
				},
				{
					"inputs": [],
					"name": "isSharedWith",
					"outputs": [
						{
							"internalType": "bool",
							"name": "",
							"type": "bool"
						}
					],
					"stateMutability": "view",
					"type": "function"
				},
				{
					"inputs": [
						{
							"internalType": "address",
							"name": "_f",
							"type": "address"
						}
					],
					"name": "restictFrom",
					"outputs": [],
					"stateMutability": "nonpayable",
					"type": "function"
				},
				{
					"inputs": [
						{
							"internalType": "string",
							"name": "_c_id",
							"type": "string"
						}
					],
					"name": "setCardId",
					"outputs": [],
					"stateMutability": "nonpayable",
					"type": "function"
				},
				{
					"inputs": [
						{
							"internalType": "string",
							"name": "_n",
							"type": "string"
						},
						{
							"internalType": "string",
							"name": "_c_id",
							"type": "string"
						}
					],
					"name": "setItem",
					"outputs": [],
					"stateMutability": "nonpayable",
					"type": "function"
				},
				{
					"inputs": [
						{
							"internalType": "string",
							"name": "_n",
							"type": "string"
						}
					],
					"name": "setName",
					"outputs": [],
					"stateMutability": "nonpayable",
					"type": "function"
				},
				{
					"inputs": [
						{
							"internalType": "address",
							"name": "_p",
							"type": "address"
						}
					],
					"name": "setParent",
					"outputs": [],
					"stateMutability": "nonpayable",
					"type": "function"
				},
				{
					"inputs": [
						{
							"internalType": "address",
							"name": "_w",
							"type": "address"
						}
					],
					"name": "shareWith",
					"outputs": [],
					"stateMutability": "nonpayable",
					"type": "function"
				}
			],
			"devdoc": {
				"kind": "dev",
				"methods": {},
				"version": 1
			},
			"evm": {
				"assembly": "    /* \"Items/LoyalityCard.sol\":137:1039  contract LoyalityCard is VaultItem{... */\n  mstore(0x40, 0x80)\n    /* \"Items/LoyalityCard.sol\":203:581  constructor(... */\n  callvalue\n  dup1\n  iszero\n  tag_1\n  jumpi\n  0x00\n  dup1\n  revert\ntag_1:\n  pop\n  mload(0x40)\n  sub(codesize, bytecodeSize)\n  dup1\n  bytecodeSize\n  dup4\n  codecopy\n  dup2\n  dup2\n  add\n  0x40\n  mstore\n  dup2\n  add\n  swap1\n  tag_2\n  swap2\n  swap1\n  tag_3\n  jump\t// in\ntag_2:\n    /* \"Items/LoyalityCard.sol\":357:362  _name */\n  dup4\n    /* \"Items/LoyalityCard.sol\":373:405  Constants.ItemType.LOYALITY_CARD */\n  0x00\n    /* \"Items/LoyalityCard.sol\":416:422  _owner */\n  dup4\n    /* \"Items/LoyalityCard.sol\":433:440  _parent */\n  dup4\n    /* \"Items/VaultItem.sol\":745:747  _n */\n  dup4\n    /* \"Items/VaultItem.sol\":738:742  name */\n  0x00\n    /* \"Items/VaultItem.sol\":738:747  name = _n */\n  swap1\n  dup2\n  tag_7\n  swap2\n  swap1\n  tag_8\n  jump\t// in\ntag_7:\n  pop\n    /* \"Items/VaultItem.sol\":770:780  _item_type */\n  dup3\n    /* \"Items/VaultItem.sol\":758:767  item_type */\n  0x01\n  0x00\n    /* \"Items/VaultItem.sol\":758:780  item_type = _item_type */\n  0x0100\n  exp\n  dup2\n  sload\n  dup2\n  0xff\n  mul\n  not\n  and\n  swap1\n  dup4\n  0x03\n  dup2\n  gt\n  iszero\n  tag_9\n  jumpi\n  tag_10\n  tag_11\n  jump\t// in\ntag_10:\ntag_9:\n  mul\n  or\n  swap1\n  sstore\n  pop\n    /* \"Items/VaultItem.sol\":801:803  _o */\n  dup2\n    /* \"Items/VaultItem.sol\":793:798  owner */\n  0x01\n  dup1\n    /* \"Items/VaultItem.sol\":793:803  owner = _o */\n  0x0100\n  exp\n  dup2\n  sload\n  dup2\n  0xffffffffffffffffffffffffffffffffffffffff\n  mul\n  not\n  and\n  swap1\n  dup4\n  0xffffffffffffffffffffffffffffffffffffffff\n  and\n  mul\n  or\n  swap1\n  sstore\n  pop\n    /* \"Items/VaultItem.sol\":823:825  _p */\n  dup1\n    /* \"Items/VaultItem.sol\":814:820  parent */\n  0x02\n  0x00\n    /* \"Items/VaultItem.sol\":814:825  parent = _p */\n  0x0100\n  exp\n  dup2\n  sload\n  dup2\n  0xffffffffffffffffffffffffffffffffffffffff\n  mul\n  not\n  and\n  swap1\n  dup4\n  0xffffffffffffffffffffffffffffffffffffffff\n  and\n  mul\n  or\n  swap1\n  sstore\n  pop\n    /* \"Items/VaultItem.sol\":600:833  constructor(... */\n  pop\n  pop\n  pop\n  pop\n    /* \"Items/LoyalityCard.sol\":470:478  _card_id */\n  dup3\n    /* \"Items/LoyalityCard.sol\":460:467  card_id */\n  0x04\n    /* \"Items/LoyalityCard.sol\":460:478  card_id = _card_id */\n  swap1\n  dup2\n  tag_13\n  swap2\n  swap1\n  tag_8\n  jump\t// in\ntag_13:\n  pop\n    /* \"Items/LoyalityCard.sol\":503:509  _owner */\n  dup2\n    /* \"Items/LoyalityCard.sol\":495:500  owner */\n  0x01\n  dup1\n    /* \"Items/LoyalityCard.sol\":495:509  owner = _owner */\n  0x0100\n  exp\n  dup2\n  sload\n  dup2\n  0xffffffffffffffffffffffffffffffffffffffff\n  mul\n  not\n  and\n  swap1\n  dup4\n  0xffffffffffffffffffffffffffffffffffffffff\n  and\n  mul\n  or\n  swap1\n  sstore\n  pop\n    /* \"Items/LoyalityCard.sol\":529:536  _parent */\n  dup1\n    /* \"Items/LoyalityCard.sol\":520:526  parent */\n  0x02\n  0x00\n    /* \"Items/LoyalityCard.sol\":520:536  parent = _parent */\n  0x0100\n  exp\n  dup2\n  sload\n  dup2\n  0xffffffffffffffffffffffffffffffffffffffff\n  mul\n  not\n  and\n  swap1\n  dup4\n  0xffffffffffffffffffffffffffffffffffffffff\n  and\n  mul\n  or\n  swap1\n  sstore\n  pop\n    /* \"Items/LoyalityCard.sol\":554:573  Created(msg.sender) */\n  0x1449abf21e49fd025f33495e77f7b1461caefdd3d4bb646424a3f445c4576a5b\n    /* \"Items/LoyalityCard.sol\":562:572  msg.sender */\n  caller\n    /* \"Items/LoyalityCard.sol\":554:573  Created(msg.sender) */\n  mload(0x40)\n  tag_14\n  swap2\n  swap1\n  tag_15\n  jump\t// in\ntag_14:\n  mload(0x40)\n  dup1\n  swap2\n  sub\n  swap1\n  log1\n    /* \"Items/LoyalityCard.sol\":203:581  constructor(... */\n  pop\n  pop\n  pop\n  pop\n    /* \"Items/LoyalityCard.sol\":137:1039  contract LoyalityCard is VaultItem{... */\n  jump(tag_16)\n    /* \"#utility.yul\":7:82   */\ntag_17:\n    /* \"#utility.yul\":40:46   */\n  0x00\n    /* \"#utility.yul\":73:75   */\n  0x40\n    /* \"#utility.yul\":67:76   */\n  mload\n    /* \"#utility.yul\":57:76   */\n  swap1\n  pop\n    /* \"#utility.yul\":7:82   */\n  swap1\n  jump\t// out\n    /* \"#utility.yul\":88:205   */\ntag_18:\n    /* \"#utility.yul\":197:198   */\n  0x00\n    /* \"#utility.yul\":194:195   */\n  dup1\n    /* \"#utility.yul\":187:199   */\n  revert\n    /* \"#utility.yul\":211:328   */\ntag_19:\n    /* \"#utility.yul\":320:321   */\n  0x00\n    /* \"#utility.yul\":317:318   */\n  dup1\n    /* \"#utility.yul\":310:322   */\n  revert\n    /* \"#utility.yul\":334:451   */\ntag_20:\n    /* \"#utility.yul\":443:444   */\n  0x00\n    /* \"#utility.yul\":440:441   */\n  dup1\n    /* \"#utility.yul\":433:445   */\n  revert\n    /* \"#utility.yul\":457:574   */\ntag_21:\n    /* \"#utility.yul\":566:567   */\n  0x00\n    /* \"#utility.yul\":563:564   */\n  dup1\n    /* \"#utility.yul\":556:568   */\n  revert\n    /* \"#utility.yul\":580:682   */\ntag_22:\n    /* \"#utility.yul\":621:627   */\n  0x00\n    /* \"#utility.yul\":672:674   */\n  0x1f\n    /* \"#utility.yul\":668:675   */\n  not\n    /* \"#utility.yul\":663:665   */\n  0x1f\n    /* \"#utility.yul\":656:661   */\n  dup4\n    /* \"#utility.yul\":652:666   */\n  add\n    /* \"#utility.yul\":648:676   */\n  and\n    /* \"#utility.yul\":638:676   */\n  swap1\n  pop\n    /* \"#utility.yul\":580:682   */\n  swap2\n  swap1\n  pop\n  jump\t// out\n    /* \"#utility.yul\":688:868   */\ntag_23:\n    /* \"#utility.yul\":736:813   */\n  0x4e487b7100000000000000000000000000000000000000000000000000000000\n    /* \"#utility.yul\":733:734   */\n  0x00\n    /* \"#utility.yul\":726:814   */\n  mstore\n    /* \"#utility.yul\":833:837   */\n  0x41\n    /* \"#utility.yul\":830:831   */\n  0x04\n    /* \"#utility.yul\":823:838   */\n  mstore\n    /* \"#utility.yul\":857:861   */\n  0x24\n    /* \"#utility.yul\":854:855   */\n  0x00\n    /* \"#utility.yul\":847:862   */\n  revert\n    /* \"#utility.yul\":874:1155   */\ntag_24:\n    /* \"#utility.yul\":957:984   */\n  tag_63\n    /* \"#utility.yul\":979:983   */\n  dup3\n    /* \"#utility.yul\":957:984   */\n  tag_22\n  jump\t// in\ntag_63:\n    /* \"#utility.yul\":949:955   */\n  dup2\n    /* \"#utility.yul\":945:985   */\n  add\n    /* \"#utility.yul\":1087:1093   */\n  dup2\n    /* \"#utility.yul\":1075:1085   */\n  dup2\n    /* \"#utility.yul\":1072:1094   */\n  lt\n    /* \"#utility.yul\":1051:1069   */\n  0xffffffffffffffff\n    /* \"#utility.yul\":1039:1049   */\n  dup3\n    /* \"#utility.yul\":1036:1070   */\n  gt\n    /* \"#utility.yul\":1033:1095   */\n  or\n    /* \"#utility.yul\":1030:1118   */\n  iszero\n  tag_64\n  jumpi\n    /* \"#utility.yul\":1098:1116   */\n  tag_65\n  tag_23\n  jump\t// in\ntag_65:\n    /* \"#utility.yul\":1030:1118   */\ntag_64:\n    /* \"#utility.yul\":1138:1148   */\n  dup1\n    /* \"#utility.yul\":1134:1136   */\n  0x40\n    /* \"#utility.yul\":1127:1149   */\n  mstore\n    /* \"#utility.yul\":917:1155   */\n  pop\n    /* \"#utility.yul\":874:1155   */\n  pop\n  pop\n  jump\t// out\n    /* \"#utility.yul\":1161:1290   */\ntag_25:\n    /* \"#utility.yul\":1195:1201   */\n  0x00\n    /* \"#utility.yul\":1222:1242   */\n  tag_67\n  tag_17\n  jump\t// in\ntag_67:\n    /* \"#utility.yul\":1212:1242   */\n  swap1\n  pop\n    /* \"#utility.yul\":1251:1284   */\n  tag_68\n    /* \"#utility.yul\":1279:1283   */\n  dup3\n    /* \"#utility.yul\":1271:1277   */\n  dup3\n    /* \"#utility.yul\":1251:1284   */\n  tag_24\n  jump\t// in\ntag_68:\n    /* \"#utility.yul\":1161:1290   */\n  swap2\n  swap1\n  pop\n  jump\t// out\n    /* \"#utility.yul\":1296:1604   */\ntag_26:\n    /* \"#utility.yul\":1358:1362   */\n  0x00\n    /* \"#utility.yul\":1448:1466   */\n  0xffffffffffffffff\n    /* \"#utility.yul\":1440:1446   */\n  dup3\n    /* \"#utility.yul\":1437:1467   */\n  gt\n    /* \"#utility.yul\":1434:1490   */\n  iszero\n  tag_70\n  jumpi\n    /* \"#utility.yul\":1470:1488   */\n  tag_71\n  tag_23\n  jump\t// in\ntag_71:\n    /* \"#utility.yul\":1434:1490   */\ntag_70:\n    /* \"#utility.yul\":1508:1537   */\n  tag_72\n    /* \"#utility.yul\":1530:1536   */\n  dup3\n    /* \"#utility.yul\":1508:1537   */\n  tag_22\n  jump\t// in\ntag_72:\n    /* \"#utility.yul\":1500:1537   */\n  swap1\n  pop\n    /* \"#utility.yul\":1592:1596   */\n  0x20\n    /* \"#utility.yul\":1586:1590   */\n  dup2\n    /* \"#utility.yul\":1582:1597   */\n  add\n    /* \"#utility.yul\":1574:1597   */\n  swap1\n  pop\n    /* \"#utility.yul\":1296:1604   */\n  swap2\n  swap1\n  pop\n  jump\t// out\n    /* \"#utility.yul\":1610:1749   */\ntag_27:\n    /* \"#utility.yul\":1699:1705   */\n  dup3\n    /* \"#utility.yul\":1694:1697   */\n  dup2\n    /* \"#utility.yul\":1689:1692   */\n  dup4\n    /* \"#utility.yul\":1683:1706   */\n  mcopy\n    /* \"#utility.yul\":1740:1741   */\n  0x00\n    /* \"#utility.yul\":1731:1737   */\n  dup4\n    /* \"#utility.yul\":1726:1729   */\n  dup4\n    /* \"#utility.yul\":1722:1738   */\n  add\n    /* \"#utility.yul\":1715:1742   */\n  mstore\n    /* \"#utility.yul\":1610:1749   */\n  pop\n  pop\n  pop\n  jump\t// out\n    /* \"#utility.yul\":1755:2189   */\ntag_28:\n    /* \"#utility.yul\":1844:1849   */\n  0x00\n    /* \"#utility.yul\":1869:1935   */\n  tag_75\n    /* \"#utility.yul\":1885:1934   */\n  tag_76\n    /* \"#utility.yul\":1927:1933   */\n  dup5\n    /* \"#utility.yul\":1885:1934   */\n  tag_26\n  jump\t// in\ntag_76:\n    /* \"#utility.yul\":1869:1935   */\n  tag_25\n  jump\t// in\ntag_75:\n    /* \"#utility.yul\":1860:1935   */\n  swap1\n  pop\n    /* \"#utility.yul\":1958:1964   */\n  dup3\n    /* \"#utility.yul\":1951:1956   */\n  dup2\n    /* \"#utility.yul\":1944:1965   */\n  mstore\n    /* \"#utility.yul\":1996:2000   */\n  0x20\n    /* \"#utility.yul\":1989:1994   */\n  dup2\n    /* \"#utility.yul\":1985:2001   */\n  add\n    /* \"#utility.yul\":2034:2037   */\n  dup5\n    /* \"#utility.yul\":2025:2031   */\n  dup5\n    /* \"#utility.yul\":2020:2023   */\n  dup5\n    /* \"#utility.yul\":2016:2032   */\n  add\n    /* \"#utility.yul\":2013:2038   */\n  gt\n    /* \"#utility.yul\":2010:2122   */\n  iszero\n  tag_77\n  jumpi\n    /* \"#utility.yul\":2041:2120   */\n  tag_78\n  tag_21\n  jump\t// in\ntag_78:\n    /* \"#utility.yul\":2010:2122   */\ntag_77:\n    /* \"#utility.yul\":2131:2183   */\n  tag_79\n    /* \"#utility.yul\":2176:2182   */\n  dup5\n    /* \"#utility.yul\":2171:2174   */\n  dup3\n    /* \"#utility.yul\":2166:2169   */\n  dup6\n    /* \"#utility.yul\":2131:2183   */\n  tag_27\n  jump\t// in\ntag_79:\n    /* \"#utility.yul\":1850:2189   */\n  pop\n    /* \"#utility.yul\":1755:2189   */\n  swap4\n  swap3\n  pop\n  pop\n  pop\n  jump\t// out\n    /* \"#utility.yul\":2209:2564   */\ntag_29:\n    /* \"#utility.yul\":2276:2281   */\n  0x00\n    /* \"#utility.yul\":2325:2328   */\n  dup3\n    /* \"#utility.yul\":2318:2322   */\n  0x1f\n    /* \"#utility.yul\":2310:2316   */\n  dup4\n    /* \"#utility.yul\":2306:2323   */\n  add\n    /* \"#utility.yul\":2302:2329   */\n  slt\n    /* \"#utility.yul\":2292:2414   */\n  tag_81\n  jumpi\n    /* \"#utility.yul\":2333:2412   */\n  tag_82\n  tag_20\n  jump\t// in\ntag_82:\n    /* \"#utility.yul\":2292:2414   */\ntag_81:\n    /* \"#utility.yul\":2443:2449   */\n  dup2\n    /* \"#utility.yul\":2437:2450   */\n  mload\n    /* \"#utility.yul\":2468:2558   */\n  tag_83\n    /* \"#utility.yul\":2554:2557   */\n  dup5\n    /* \"#utility.yul\":2546:2552   */\n  dup3\n    /* \"#utility.yul\":2539:2543   */\n  0x20\n    /* \"#utility.yul\":2531:2537   */\n  dup7\n    /* \"#utility.yul\":2527:2544   */\n  add\n    /* \"#utility.yul\":2468:2558   */\n  tag_28\n  jump\t// in\ntag_83:\n    /* \"#utility.yul\":2459:2558   */\n  swap2\n  pop\n    /* \"#utility.yul\":2282:2564   */\n  pop\n    /* \"#utility.yul\":2209:2564   */\n  swap3\n  swap2\n  pop\n  pop\n  jump\t// out\n    /* \"#utility.yul\":2570:2696   */\ntag_30:\n    /* \"#utility.yul\":2607:2614   */\n  0x00\n    /* \"#utility.yul\":2647:2689   */\n  0xffffffffffffffffffffffffffffffffffffffff\n    /* \"#utility.yul\":2640:2645   */\n  dup3\n    /* \"#utility.yul\":2636:2690   */\n  and\n    /* \"#utility.yul\":2625:2690   */\n  swap1\n  pop\n    /* \"#utility.yul\":2570:2696   */\n  swap2\n  swap1\n  pop\n  jump\t// out\n    /* \"#utility.yul\":2702:2798   */\ntag_31:\n    /* \"#utility.yul\":2739:2746   */\n  0x00\n    /* \"#utility.yul\":2768:2792   */\n  tag_86\n    /* \"#utility.yul\":2786:2791   */\n  dup3\n    /* \"#utility.yul\":2768:2792   */\n  tag_30\n  jump\t// in\ntag_86:\n    /* \"#utility.yul\":2757:2792   */\n  swap1\n  pop\n    /* \"#utility.yul\":2702:2798   */\n  swap2\n  swap1\n  pop\n  jump\t// out\n    /* \"#utility.yul\":2804:2926   */\ntag_32:\n    /* \"#utility.yul\":2877:2901   */\n  tag_88\n    /* \"#utility.yul\":2895:2900   */\n  dup2\n    /* \"#utility.yul\":2877:2901   */\n  tag_31\n  jump\t// in\ntag_88:\n    /* \"#utility.yul\":2870:2875   */\n  dup2\n    /* \"#utility.yul\":2867:2902   */\n  eq\n    /* \"#utility.yul\":2857:2920   */\n  tag_89\n  jumpi\n    /* \"#utility.yul\":2916:2917   */\n  0x00\n    /* \"#utility.yul\":2913:2914   */\n  dup1\n    /* \"#utility.yul\":2906:2918   */\n  revert\n    /* \"#utility.yul\":2857:2920   */\ntag_89:\n    /* \"#utility.yul\":2804:2926   */\n  pop\n  jump\t// out\n    /* \"#utility.yul\":2932:3075   */\ntag_33:\n    /* \"#utility.yul\":2989:2994   */\n  0x00\n    /* \"#utility.yul\":3020:3026   */\n  dup2\n    /* \"#utility.yul\":3014:3027   */\n  mload\n    /* \"#utility.yul\":3005:3027   */\n  swap1\n  pop\n    /* \"#utility.yul\":3036:3069   */\n  tag_91\n    /* \"#utility.yul\":3063:3068   */\n  dup2\n    /* \"#utility.yul\":3036:3069   */\n  tag_32\n  jump\t// in\ntag_91:\n    /* \"#utility.yul\":2932:3075   */\n  swap3\n  swap2\n  pop\n  pop\n  jump\t// out\n    /* \"#utility.yul\":3081:4247   */\ntag_3:\n    /* \"#utility.yul\":3198:3204   */\n  0x00\n    /* \"#utility.yul\":3206:3212   */\n  dup1\n    /* \"#utility.yul\":3214:3220   */\n  0x00\n    /* \"#utility.yul\":3222:3228   */\n  dup1\n    /* \"#utility.yul\":3271:3274   */\n  0x80\n    /* \"#utility.yul\":3259:3268   */\n  dup6\n    /* \"#utility.yul\":3250:3257   */\n  dup8\n    /* \"#utility.yul\":3246:3269   */\n  sub\n    /* \"#utility.yul\":3242:3275   */\n  slt\n    /* \"#utility.yul\":3239:3359   */\n  iszero\n  tag_93\n  jumpi\n    /* \"#utility.yul\":3278:3357   */\n  tag_94\n  tag_18\n  jump\t// in\ntag_94:\n    /* \"#utility.yul\":3239:3359   */\ntag_93:\n    /* \"#utility.yul\":3419:3420   */\n  0x00\n    /* \"#utility.yul\":3408:3417   */\n  dup6\n    /* \"#utility.yul\":3404:3421   */\n  add\n    /* \"#utility.yul\":3398:3422   */\n  mload\n    /* \"#utility.yul\":3449:3467   */\n  0xffffffffffffffff\n    /* \"#utility.yul\":3441:3447   */\n  dup2\n    /* \"#utility.yul\":3438:3468   */\n  gt\n    /* \"#utility.yul\":3435:3552   */\n  iszero\n  tag_95\n  jumpi\n    /* \"#utility.yul\":3471:3550   */\n  tag_96\n  tag_19\n  jump\t// in\ntag_96:\n    /* \"#utility.yul\":3435:3552   */\ntag_95:\n    /* \"#utility.yul\":3576:3650   */\n  tag_97\n    /* \"#utility.yul\":3642:3649   */\n  dup8\n    /* \"#utility.yul\":3633:3639   */\n  dup3\n    /* \"#utility.yul\":3622:3631   */\n  dup9\n    /* \"#utility.yul\":3618:3640   */\n  add\n    /* \"#utility.yul\":3576:3650   */\n  tag_29\n  jump\t// in\ntag_97:\n    /* \"#utility.yul\":3566:3650   */\n  swap5\n  pop\n    /* \"#utility.yul\":3369:3660   */\n  pop\n    /* \"#utility.yul\":3720:3722   */\n  0x20\n    /* \"#utility.yul\":3709:3718   */\n  dup6\n    /* \"#utility.yul\":3705:3723   */\n  add\n    /* \"#utility.yul\":3699:3724   */\n  mload\n    /* \"#utility.yul\":3751:3769   */\n  0xffffffffffffffff\n    /* \"#utility.yul\":3743:3749   */\n  dup2\n    /* \"#utility.yul\":3740:3770   */\n  gt\n    /* \"#utility.yul\":3737:3854   */\n  iszero\n  tag_98\n  jumpi\n    /* \"#utility.yul\":3773:3852   */\n  tag_99\n  tag_19\n  jump\t// in\ntag_99:\n    /* \"#utility.yul\":3737:3854   */\ntag_98:\n    /* \"#utility.yul\":3878:3952   */\n  tag_100\n    /* \"#utility.yul\":3944:3951   */\n  dup8\n    /* \"#utility.yul\":3935:3941   */\n  dup3\n    /* \"#utility.yul\":3924:3933   */\n  dup9\n    /* \"#utility.yul\":3920:3942   */\n  add\n    /* \"#utility.yul\":3878:3952   */\n  tag_29\n  jump\t// in\ntag_100:\n    /* \"#utility.yul\":3868:3952   */\n  swap4\n  pop\n    /* \"#utility.yul\":3670:3962   */\n  pop\n    /* \"#utility.yul\":4001:4003   */\n  0x40\n    /* \"#utility.yul\":4027:4091   */\n  tag_101\n    /* \"#utility.yul\":4083:4090   */\n  dup8\n    /* \"#utility.yul\":4074:4080   */\n  dup3\n    /* \"#utility.yul\":4063:4072   */\n  dup9\n    /* \"#utility.yul\":4059:4081   */\n  add\n    /* \"#utility.yul\":4027:4091   */\n  tag_33\n  jump\t// in\ntag_101:\n    /* \"#utility.yul\":4017:4091   */\n  swap3\n  pop\n    /* \"#utility.yul\":3972:4101   */\n  pop\n    /* \"#utility.yul\":4140:4142   */\n  0x60\n    /* \"#utility.yul\":4166:4230   */\n  tag_102\n    /* \"#utility.yul\":4222:4229   */\n  dup8\n    /* \"#utility.yul\":4213:4219   */\n  dup3\n    /* \"#utility.yul\":4202:4211   */\n  dup9\n    /* \"#utility.yul\":4198:4220   */\n  add\n    /* \"#utility.yul\":4166:4230   */\n  tag_33\n  jump\t// in\ntag_102:\n    /* \"#utility.yul\":4156:4230   */\n  swap2\n  pop\n    /* \"#utility.yul\":4111:4240   */\n  pop\n    /* \"#utility.yul\":3081:4247   */\n  swap3\n  swap6\n  swap2\n  swap5\n  pop\n  swap3\n  pop\n  jump\t// out\n    /* \"#utility.yul\":4253:4352   */\ntag_34:\n    /* \"#utility.yul\":4305:4311   */\n  0x00\n    /* \"#utility.yul\":4339:4344   */\n  dup2\n    /* \"#utility.yul\":4333:4345   */\n  mload\n    /* \"#utility.yul\":4323:4345   */\n  swap1\n  pop\n    /* \"#utility.yul\":4253:4352   */\n  swap2\n  swap1\n  pop\n  jump\t// out\n    /* \"#utility.yul\":4358:4538   */\ntag_35:\n    /* \"#utility.yul\":4406:4483   */\n  0x4e487b7100000000000000000000000000000000000000000000000000000000\n    /* \"#utility.yul\":4403:4404   */\n  0x00\n    /* \"#utility.yul\":4396:4484   */\n  mstore\n    /* \"#utility.yul\":4503:4507   */\n  0x22\n    /* \"#utility.yul\":4500:4501   */\n  0x04\n    /* \"#utility.yul\":4493:4508   */\n  mstore\n    /* \"#utility.yul\":4527:4531   */\n  0x24\n    /* \"#utility.yul\":4524:4525   */\n  0x00\n    /* \"#utility.yul\":4517:4532   */\n  revert\n    /* \"#utility.yul\":4544:4864   */\ntag_36:\n    /* \"#utility.yul\":4588:4594   */\n  0x00\n    /* \"#utility.yul\":4625:4626   */\n  0x02\n    /* \"#utility.yul\":4619:4623   */\n  dup3\n    /* \"#utility.yul\":4615:4627   */\n  div\n    /* \"#utility.yul\":4605:4627   */\n  swap1\n  pop\n    /* \"#utility.yul\":4672:4673   */\n  0x01\n    /* \"#utility.yul\":4666:4670   */\n  dup3\n    /* \"#utility.yul\":4662:4674   */\n  and\n    /* \"#utility.yul\":4693:4711   */\n  dup1\n    /* \"#utility.yul\":4683:4764   */\n  tag_106\n  jumpi\n    /* \"#utility.yul\":4749:4753   */\n  0x7f\n    /* \"#utility.yul\":4741:4747   */\n  dup3\n    /* \"#utility.yul\":4737:4754   */\n  and\n    /* \"#utility.yul\":4727:4754   */\n  swap2\n  pop\n    /* \"#utility.yul\":4683:4764   */\ntag_106:\n    /* \"#utility.yul\":4811:4813   */\n  0x20\n    /* \"#utility.yul\":4803:4809   */\n  dup3\n    /* \"#utility.yul\":4800:4814   */\n  lt\n    /* \"#utility.yul\":4780:4798   */\n  dup2\n    /* \"#utility.yul\":4777:4815   */\n  sub\n    /* \"#utility.yul\":4774:4858   */\n  tag_107\n  jumpi\n    /* \"#utility.yul\":4830:4848   */\n  tag_108\n  tag_35\n  jump\t// in\ntag_108:\n    /* \"#utility.yul\":4774:4858   */\ntag_107:\n    /* \"#utility.yul\":4595:4864   */\n  pop\n    /* \"#utility.yul\":4544:4864   */\n  swap2\n  swap1\n  pop\n  jump\t// out\n    /* \"#utility.yul\":4870:5011   */\ntag_37:\n    /* \"#utility.yul\":4919:4923   */\n  0x00\n    /* \"#utility.yul\":4942:4945   */\n  dup2\n    /* \"#utility.yul\":4934:4945   */\n  swap1\n  pop\n    /* \"#utility.yul\":4965:4968   */\n  dup2\n    /* \"#utility.yul\":4962:4963   */\n  0x00\n    /* \"#utility.yul\":4955:4969   */\n  mstore\n    /* \"#utility.yul\":4999:5003   */\n  0x20\n    /* \"#utility.yul\":4996:4997   */\n  0x00\n    /* \"#utility.yul\":4986:5004   */\n  keccak256\n    /* \"#utility.yul\":4978:5004   */\n  swap1\n  pop\n    /* \"#utility.yul\":4870:5011   */\n  swap2\n  swap1\n  pop\n  jump\t// out\n    /* \"#utility.yul\":5017:5110   */\ntag_38:\n    /* \"#utility.yul\":5054:5060   */\n  0x00\n    /* \"#utility.yul\":5101:5103   */\n  0x20\n    /* \"#utility.yul\":5096:5098   */\n  0x1f\n    /* \"#utility.yul\":5089:5094   */\n  dup4\n    /* \"#utility.yul\":5085:5099   */\n  add\n    /* \"#utility.yul\":5081:5104   */\n  div\n    /* \"#utility.yul\":5071:5104   */\n  swap1\n  pop\n    /* \"#utility.yul\":5017:5110   */\n  swap2\n  swap1\n  pop\n  jump\t// out\n    /* \"#utility.yul\":5116:5223   */\ntag_39:\n    /* \"#utility.yul\":5160:5168   */\n  0x00\n    /* \"#utility.yul\":5210:5215   */\n  dup3\n    /* \"#utility.yul\":5204:5208   */\n  dup3\n    /* \"#utility.yul\":5200:5216   */\n  shl\n    /* \"#utility.yul\":5179:5216   */\n  swap1\n  pop\n    /* \"#utility.yul\":5116:5223   */\n  swap3\n  swap2\n  pop\n  pop\n  jump\t// out\n    /* \"#utility.yul\":5229:5622   */\ntag_40:\n    /* \"#utility.yul\":5298:5304   */\n  0x00\n    /* \"#utility.yul\":5348:5349   */\n  0x08\n    /* \"#utility.yul\":5336:5346   */\n  dup4\n    /* \"#utility.yul\":5332:5350   */\n  mul\n    /* \"#utility.yul\":5371:5468   */\n  tag_113\n    /* \"#utility.yul\":5401:5467   */\n  0xffffffffffffffffffffffffffffffffffffffffffffffffffffffffffffffff\n    /* \"#utility.yul\":5390:5399   */\n  dup3\n    /* \"#utility.yul\":5371:5468   */\n  tag_39\n  jump\t// in\ntag_113:\n    /* \"#utility.yul\":5489:5528   */\n  tag_114\n    /* \"#utility.yul\":5519:5527   */\n  dup7\n    /* \"#utility.yul\":5508:5517   */\n  dup4\n    /* \"#utility.yul\":5489:5528   */\n  tag_39\n  jump\t// in\ntag_114:\n    /* \"#utility.yul\":5477:5528   */\n  swap6\n  pop\n    /* \"#utility.yul\":5561:5565   */\n  dup1\n    /* \"#utility.yul\":5557:5566   */\n  not\n    /* \"#utility.yul\":5550:5555   */\n  dup5\n    /* \"#utility.yul\":5546:5567   */\n  and\n    /* \"#utility.yul\":5537:5567   */\n  swap4\n  pop\n    /* \"#utility.yul\":5610:5614   */\n  dup1\n    /* \"#utility.yul\":5600:5608   */\n  dup7\n    /* \"#utility.yul\":5596:5615   */\n  and\n    /* \"#utility.yul\":5589:5594   */\n  dup5\n    /* \"#utility.yul\":5586:5616   */\n  or\n    /* \"#utility.yul\":5576:5616   */\n  swap3\n  pop\n    /* \"#utility.yul\":5305:5622   */\n  pop\n  pop\n    /* \"#utility.yul\":5229:5622   */\n  swap4\n  swap3\n  pop\n  pop\n  pop\n  jump\t// out\n    /* \"#utility.yul\":5628:5705   */\ntag_41:\n    /* \"#utility.yul\":5665:5672   */\n  0x00\n    /* \"#utility.yul\":5694:5699   */\n  dup2\n    /* \"#utility.yul\":5683:5699   */\n  swap1\n  pop\n    /* \"#utility.yul\":5628:5705   */\n  swap2\n  swap1\n  pop\n  jump\t// out\n    /* \"#utility.yul\":5711:5771   */\ntag_42:\n    /* \"#utility.yul\":5739:5742   */\n  0x00\n    /* \"#utility.yul\":5760:5765   */\n  dup2\n    /* \"#utility.yul\":5753:5765   */\n  swap1\n  pop\n    /* \"#utility.yul\":5711:5771   */\n  swap2\n  swap1\n  pop\n  jump\t// out\n    /* \"#utility.yul\":5777:5919   */\ntag_43:\n    /* \"#utility.yul\":5827:5836   */\n  0x00\n    /* \"#utility.yul\":5860:5913   */\n  tag_118\n    /* \"#utility.yul\":5878:5912   */\n  tag_119\n    /* \"#utility.yul\":5887:5911   */\n  tag_120\n    /* \"#utility.yul\":5905:5910   */\n  dup5\n    /* \"#utility.yul\":5887:5911   */\n  tag_41\n  jump\t// in\ntag_120:\n    /* \"#utility.yul\":5878:5912   */\n  tag_42\n  jump\t// in\ntag_119:\n    /* \"#utility.yul\":5860:5913   */\n  tag_41\n  jump\t// in\ntag_118:\n    /* \"#utility.yul\":5847:5913   */\n  swap1\n  pop\n    /* \"#utility.yul\":5777:5919   */\n  swap2\n  swap1\n  pop\n  jump\t// out\n    /* \"#utility.yul\":5925:6000   */\ntag_44:\n    /* \"#utility.yul\":5968:5971   */\n  0x00\n    /* \"#utility.yul\":5989:5994   */\n  dup2\n    /* \"#utility.yul\":5982:5994   */\n  swap1\n  pop\n    /* \"#utility.yul\":5925:6000   */\n  swap2\n  swap1\n  pop\n  jump\t// out\n    /* \"#utility.yul\":6006:6275   */\ntag_45:\n    /* \"#utility.yul\":6116:6155   */\n  tag_123\n    /* \"#utility.yul\":6147:6154   */\n  dup4\n    /* \"#utility.yul\":6116:6155   */\n  tag_43\n  jump\t// in\ntag_123:\n    /* \"#utility.yul\":6177:6268   */\n  tag_124\n    /* \"#utility.yul\":6226:6267   */\n  tag_125\n    /* \"#utility.yul\":6250:6266   */\n  dup3\n    /* \"#utility.yul\":6226:6267   */\n  tag_44\n  jump\t// in\ntag_125:\n    /* \"#utility.yul\":6218:6224   */\n  dup5\n    /* \"#utility.yul\":6211:6215   */\n  dup5\n    /* \"#utility.yul\":6205:6216   */\n  sload\n    /* \"#utility.yul\":6177:6268   */\n  tag_40\n  jump\t// in\ntag_124:\n    /* \"#utility.yul\":6171:6175   */\n  dup3\n    /* \"#utility.yul\":6164:6269   */\n  sstore\n    /* \"#utility.yul\":6082:6275   */\n  pop\n    /* \"#utility.yul\":6006:6275   */\n  pop\n  pop\n  pop\n  jump\t// out\n    /* \"#utility.yul\":6281:6354   */\ntag_46:\n    /* \"#utility.yul\":6326:6329   */\n  0x00\n    /* \"#utility.yul\":6281:6354   */\n  swap1\n  jump\t// out\n    /* \"#utility.yul\":6360:6549   */\ntag_47:\n    /* \"#utility.yul\":6437:6469   */\n  tag_128\n  tag_46\n  jump\t// in\ntag_128:\n    /* \"#utility.yul\":6478:6543   */\n  tag_129\n    /* \"#utility.yul\":6536:6542   */\n  dup2\n    /* \"#utility.yul\":6528:6534   */\n  dup5\n    /* \"#utility.yul\":6522:6526   */\n  dup5\n    /* \"#utility.yul\":6478:6543   */\n  tag_45\n  jump\t// in\ntag_129:\n    /* \"#utility.yul\":6413:6549   */\n  pop\n    /* \"#utility.yul\":6360:6549   */\n  pop\n  pop\n  jump\t// out\n    /* \"#utility.yul\":6555:6741   */\ntag_48:\n    /* \"#utility.yul\":6615:6735   */\ntag_131:\n    /* \"#utility.yul\":6632:6635   */\n  dup2\n    /* \"#utility.yul\":6625:6630   */\n  dup2\n    /* \"#utility.yul\":6622:6636   */\n  lt\n    /* \"#utility.yul\":6615:6735   */\n  iszero\n  tag_133\n  jumpi\n    /* \"#utility.yul\":6686:6725   */\n  tag_134\n    /* \"#utility.yul\":6723:6724   */\n  0x00\n    /* \"#utility.yul\":6716:6721   */\n  dup3\n    /* \"#utility.yul\":6686:6725   */\n  tag_47\n  jump\t// in\ntag_134:\n    /* \"#utility.yul\":6659:6660   */\n  0x01\n    /* \"#utility.yul\":6652:6657   */\n  dup2\n    /* \"#utility.yul\":6648:6661   */\n  add\n    /* \"#utility.yul\":6639:6661   */\n  swap1\n  pop\n    /* \"#utility.yul\":6615:6735   */\n  jump(tag_131)\ntag_133:\n    /* \"#utility.yul\":6555:6741   */\n  pop\n  pop\n  jump\t// out\n    /* \"#utility.yul\":6747:7290   */\ntag_49:\n    /* \"#utility.yul\":6848:6850   */\n  0x1f\n    /* \"#utility.yul\":6843:6846   */\n  dup3\n    /* \"#utility.yul\":6840:6851   */\n  gt\n    /* \"#utility.yul\":6837:7283   */\n  iszero\n  tag_136\n  jumpi\n    /* \"#utility.yul\":6882:6920   */\n  tag_137\n    /* \"#utility.yul\":6914:6919   */\n  dup2\n    /* \"#utility.yul\":6882:6920   */\n  tag_37\n  jump\t// in\ntag_137:\n    /* \"#utility.yul\":6966:6995   */\n  tag_138\n    /* \"#utility.yul\":6984:6994   */\n  dup5\n    /* \"#utility.yul\":6966:6995   */\n  tag_38\n  jump\t// in\ntag_138:\n    /* \"#utility.yul\":6956:6964   */\n  dup2\n    /* \"#utility.yul\":6952:6996   */\n  add\n    /* \"#utility.yul\":7149:7151   */\n  0x20\n    /* \"#utility.yul\":7137:7147   */\n  dup6\n    /* \"#utility.yul\":7134:7152   */\n  lt\n    /* \"#utility.yul\":7131:7180   */\n  iszero\n  tag_139\n  jumpi\n    /* \"#utility.yul\":7170:7178   */\n  dup2\n    /* \"#utility.yul\":7155:7178   */\n  swap1\n  pop\n    /* \"#utility.yul\":7131:7180   */\ntag_139:\n    /* \"#utility.yul\":7193:7273   */\n  tag_140\n    /* \"#utility.yul\":7249:7271   */\n  tag_141\n    /* \"#utility.yul\":7267:7270   */\n  dup6\n    /* \"#utility.yul\":7249:7271   */\n  tag_38\n  jump\t// in\ntag_141:\n    /* \"#utility.yul\":7239:7247   */\n  dup4\n    /* \"#utility.yul\":7235:7272   */\n  add\n    /* \"#utility.yul\":7222:7233   */\n  dup3\n    /* \"#utility.yul\":7193:7273   */\n  tag_48\n  jump\t// in\ntag_140:\n    /* \"#utility.yul\":6852:7283   */\n  pop\n  pop\n    /* \"#utility.yul\":6837:7283   */\ntag_136:\n    /* \"#utility.yul\":6747:7290   */\n  pop\n  pop\n  pop\n  jump\t// out\n    /* \"#utility.yul\":7296:7413   */\ntag_50:\n    /* \"#utility.yul\":7350:7358   */\n  0x00\n    /* \"#utility.yul\":7400:7405   */\n  dup3\n    /* \"#utility.yul\":7394:7398   */\n  dup3\n    /* \"#utility.yul\":7390:7406   */\n  shr\n    /* \"#utility.yul\":7369:7406   */\n  swap1\n  pop\n    /* \"#utility.yul\":7296:7413   */\n  swap3\n  swap2\n  pop\n  pop\n  jump\t// out\n    /* \"#utility.yul\":7419:7588   */\ntag_51:\n    /* \"#utility.yul\":7463:7469   */\n  0x00\n    /* \"#utility.yul\":7496:7547   */\n  tag_144\n    /* \"#utility.yul\":7544:7545   */\n  0x00\n    /* \"#utility.yul\":7540:7546   */\n  not\n    /* \"#utility.yul\":7532:7537   */\n  dup5\n    /* \"#utility.yul\":7529:7530   */\n  0x08\n    /* \"#utility.yul\":7525:7538   */\n  mul\n    /* \"#utility.yul\":7496:7547   */\n  tag_50\n  jump\t// in\ntag_144:\n    /* \"#utility.yul\":7492:7548   */\n  not\n    /* \"#utility.yul\":7577:7581   */\n  dup1\n    /* \"#utility.yul\":7571:7575   */\n  dup4\n    /* \"#utility.yul\":7567:7582   */\n  and\n    /* \"#utility.yul\":7557:7582   */\n  swap2\n  pop\n    /* \"#utility.yul\":7470:7588   */\n  pop\n    /* \"#utility.yul\":7419:7588   */\n  swap3\n  swap2\n  pop\n  pop\n  jump\t// out\n    /* \"#utility.yul\":7593:7888   */\ntag_52:\n    /* \"#utility.yul\":7669:7673   */\n  0x00\n    /* \"#utility.yul\":7815:7844   */\n  tag_146\n    /* \"#utility.yul\":7840:7843   */\n  dup4\n    /* \"#utility.yul\":7834:7838   */\n  dup4\n    /* \"#utility.yul\":7815:7844   */\n  tag_51\n  jump\t// in\ntag_146:\n    /* \"#utility.yul\":7807:7844   */\n  swap2\n  pop\n    /* \"#utility.yul\":7877:7880   */\n  dup3\n    /* \"#utility.yul\":7874:7875   */\n  0x02\n    /* \"#utility.yul\":7870:7881   */\n  mul\n    /* \"#utility.yul\":7864:7868   */\n  dup3\n    /* \"#utility.yul\":7861:7882   */\n  or\n    /* \"#utility.yul\":7853:7882   */\n  swap1\n  pop\n    /* \"#utility.yul\":7593:7888   */\n  swap3\n  swap2\n  pop\n  pop\n  jump\t// out\n    /* \"#utility.yul\":7893:9288   */\ntag_8:\n    /* \"#utility.yul\":8010:8047   */\n  tag_148\n    /* \"#utility.yul\":8043:8046   */\n  dup3\n    /* \"#utility.yul\":8010:8047   */\n  tag_34\n  jump\t// in\ntag_148:\n    /* \"#utility.yul\":8112:8130   */\n  0xffffffffffffffff\n    /* \"#utility.yul\":8104:8110   */\n  dup2\n    /* \"#utility.yul\":8101:8131   */\n  gt\n    /* \"#utility.yul\":8098:8154   */\n  iszero\n  tag_149\n  jumpi\n    /* \"#utility.yul\":8134:8152   */\n  tag_150\n  tag_23\n  jump\t// in\ntag_150:\n    /* \"#utility.yul\":8098:8154   */\ntag_149:\n    /* \"#utility.yul\":8178:8216   */\n  tag_151\n    /* \"#utility.yul\":8210:8214   */\n  dup3\n    /* \"#utility.yul\":8204:8215   */\n  sload\n    /* \"#utility.yul\":8178:8216   */\n  tag_36\n  jump\t// in\ntag_151:\n    /* \"#utility.yul\":8263:8330   */\n  tag_152\n    /* \"#utility.yul\":8323:8329   */\n  dup3\n    /* \"#utility.yul\":8315:8321   */\n  dup3\n    /* \"#utility.yul\":8309:8313   */\n  dup6\n    /* \"#utility.yul\":8263:8330   */\n  tag_49\n  jump\t// in\ntag_152:\n    /* \"#utility.yul\":8357:8358   */\n  0x00\n    /* \"#utility.yul\":8381:8385   */\n  0x20\n    /* \"#utility.yul\":8368:8385   */\n  swap1\n  pop\n    /* \"#utility.yul\":8413:8415   */\n  0x1f\n    /* \"#utility.yul\":8405:8411   */\n  dup4\n    /* \"#utility.yul\":8402:8416   */\n  gt\n    /* \"#utility.yul\":8430:8431   */\n  0x01\n    /* \"#utility.yul\":8425:9043   */\n  dup2\n  eq\n  tag_154\n  jumpi\n    /* \"#utility.yul\":9087:9088   */\n  0x00\n    /* \"#utility.yul\":9104:9110   */\n  dup5\n    /* \"#utility.yul\":9101:9178   */\n  iszero\n  tag_155\n  jumpi\n    /* \"#utility.yul\":9153:9162   */\n  dup3\n    /* \"#utility.yul\":9148:9151   */\n  dup8\n    /* \"#utility.yul\":9144:9163   */\n  add\n    /* \"#utility.yul\":9138:9164   */\n  mload\n    /* \"#utility.yul\":9129:9164   */\n  swap1\n  pop\n    /* \"#utility.yul\":9101:9178   */\ntag_155:\n    /* \"#utility.yul\":9204:9271   */\n  tag_156\n    /* \"#utility.yul\":9264:9270   */\n  dup6\n    /* \"#utility.yul\":9257:9262   */\n  dup3\n    /* \"#utility.yul\":9204:9271   */\n  tag_52\n  jump\t// in\ntag_156:\n    /* \"#utility.yul\":9198:9202   */\n  dup7\n    /* \"#utility.yul\":9191:9272   */\n  sstore\n    /* \"#utility.yul\":9060:9282   */\n  pop\n    /* \"#utility.yul\":8395:9282   */\n  jump(tag_153)\n    /* \"#utility.yul\":8425:9043   */\ntag_154:\n    /* \"#utility.yul\":8477:8481   */\n  0x1f\n    /* \"#utility.yul\":8473:8482   */\n  not\n    /* \"#utility.yul\":8465:8471   */\n  dup5\n    /* \"#utility.yul\":8461:8483   */\n  and\n    /* \"#utility.yul\":8511:8548   */\n  tag_157\n    /* \"#utility.yul\":8543:8547   */\n  dup7\n    /* \"#utility.yul\":8511:8548   */\n  tag_37\n  jump\t// in\ntag_157:\n    /* \"#utility.yul\":8570:8571   */\n  0x00\n    /* \"#utility.yul\":8584:8792   */\ntag_158:\n    /* \"#utility.yul\":8598:8605   */\n  dup3\n    /* \"#utility.yul\":8595:8596   */\n  dup2\n    /* \"#utility.yul\":8592:8606   */\n  lt\n    /* \"#utility.yul\":8584:8792   */\n  iszero\n  tag_160\n  jumpi\n    /* \"#utility.yul\":8677:8686   */\n  dup5\n    /* \"#utility.yul\":8672:8675   */\n  dup10\n    /* \"#utility.yul\":8668:8687   */\n  add\n    /* \"#utility.yul\":8662:8688   */\n  mload\n    /* \"#utility.yul\":8654:8660   */\n  dup3\n    /* \"#utility.yul\":8647:8689   */\n  sstore\n    /* \"#utility.yul\":8728:8729   */\n  0x01\n    /* \"#utility.yul\":8720:8726   */\n  dup3\n    /* \"#utility.yul\":8716:8730   */\n  add\n    /* \"#utility.yul\":8706:8730   */\n  swap2\n  pop\n    /* \"#utility.yul\":8775:8777   */\n  0x20\n    /* \"#utility.yul\":8764:8773   */\n  dup6\n    /* \"#utility.yul\":8760:8778   */\n  add\n    /* \"#utility.yul\":8747:8778   */\n  swap5\n  pop\n    /* \"#utility.yul\":8621:8625   */\n  0x20\n    /* \"#utility.yul\":8618:8619   */\n  dup2\n    /* \"#utility.yul\":8614:8626   */\n  add\n    /* \"#utility.yul\":8609:8626   */\n  swap1\n  pop\n    /* \"#utility.yul\":8584:8792   */\n  jump(tag_158)\ntag_160:\n    /* \"#utility.yul\":8820:8826   */\n  dup7\n    /* \"#utility.yul\":8811:8818   */\n  dup4\n    /* \"#utility.yul\":8808:8827   */\n  lt\n    /* \"#utility.yul\":8805:8984   */\n  iszero\n  tag_161\n  jumpi\n    /* \"#utility.yul\":8878:8887   */\n  dup5\n    /* \"#utility.yul\":8873:8876   */\n  dup10\n    /* \"#utility.yul\":8869:8888   */\n  add\n    /* \"#utility.yul\":8863:8889   */\n  mload\n    /* \"#utility.yul\":8921:8969   */\n  tag_162\n    /* \"#utility.yul\":8963:8967   */\n  0x1f\n    /* \"#utility.yul\":8955:8961   */\n  dup10\n    /* \"#utility.yul\":8951:8968   */\n  and\n    /* \"#utility.yul\":8940:8949   */\n  dup3\n    /* \"#utility.yul\":8921:8969   */\n  tag_51\n  jump\t// in\ntag_162:\n    /* \"#utility.yul\":8913:8919   */\n  dup4\n    /* \"#utility.yul\":8906:8970   */\n  sstore\n    /* \"#utility.yul\":8828:8984   */\n  pop\n    /* \"#utility.yul\":8805:8984   */\ntag_161:\n    /* \"#utility.yul\":9030:9031   */\n  0x01\n    /* \"#utility.yul\":9026:9027   */\n  0x02\n    /* \"#utility.yul\":9018:9024   */\n  dup9\n    /* \"#utility.yul\":9014:9028   */\n  mul\n    /* \"#utility.yul\":9010:9032   */\n  add\n    /* \"#utility.yul\":9004:9008   */\n  dup9\n    /* \"#utility.yul\":8997:9033   */\n  sstore\n    /* \"#utility.yul\":8432:9043   */\n  pop\n  pop\n  pop\n    /* \"#utility.yul\":8395:9282   */\ntag_153:\n  pop\n    /* \"#utility.yul\":7985:9288   */\n  pop\n  pop\n  pop\n    /* \"#utility.yul\":7893:9288   */\n  pop\n  pop\n  jump\t// out\n    /* \"#utility.yul\":9294:9474   */\ntag_11:\n    /* \"#utility.yul\":9342:9419   */\n  0x4e487b7100000000000000000000000000000000000000000000000000000000\n    /* \"#utility.yul\":9339:9340   */\n  0x00\n    /* \"#utility.yul\":9332:9420   */\n  mstore\n    /* \"#utility.yul\":9439:9443   */\n  0x21\n    /* \"#utility.yul\":9436:9437   */\n  0x04\n    /* \"#utility.yul\":9429:9444   */\n  mstore\n    /* \"#utility.yul\":9463:9467   */\n  0x24\n    /* \"#utility.yul\":9460:9461   */\n  0x00\n    /* \"#utility.yul\":9453:9468   */\n  revert\n    /* \"#utility.yul\":9480:9598   */\ntag_53:\n    /* \"#utility.yul\":9567:9591   */\n  tag_165\n    /* \"#utility.yul\":9585:9590   */\n  dup2\n    /* \"#utility.yul\":9567:9591   */\n  tag_31\n  jump\t// in\ntag_165:\n    /* \"#utility.yul\":9562:9565   */\n  dup3\n    /* \"#utility.yul\":9555:9592   */\n  mstore\n    /* \"#utility.yul\":9480:9598   */\n  pop\n  pop\n  jump\t// out\n    /* \"#utility.yul\":9604:9826   */\ntag_15:\n    /* \"#utility.yul\":9697:9701   */\n  0x00\n    /* \"#utility.yul\":9735:9737   */\n  0x20\n    /* \"#utility.yul\":9724:9733   */\n  dup3\n    /* \"#utility.yul\":9720:9738   */\n  add\n    /* \"#utility.yul\":9712:9738   */\n  swap1\n  pop\n    /* \"#utility.yul\":9748:9819   */\n  tag_167\n    /* \"#utility.yul\":9816:9817   */\n  0x00\n    /* \"#utility.yul\":9805:9814   */\n  dup4\n    /* \"#utility.yul\":9801:9818   */\n  add\n    /* \"#utility.yul\":9792:9798   */\n  dup5\n    /* \"#utility.yul\":9748:9819   */\n  tag_53\n  jump\t// in\ntag_167:\n    /* \"#utility.yul\":9604:9826   */\n  swap3\n  swap2\n  pop\n  pop\n  jump\t// out\n    /* \"Items/LoyalityCard.sol\":137:1039  contract LoyalityCard is VaultItem{... */\ntag_16:\n  dataSize(sub_0)\n  dup1\n  dataOffset(sub_0)\n  0x00\n  codecopy\n  0x00\n  return\nstop\n\nsub_0: assembly {\n        /* \"Items/LoyalityCard.sol\":137:1039  contract LoyalityCard is VaultItem{... */\n      mstore(0x40, 0x80)\n      callvalue\n      dup1\n      iszero\n      tag_1\n      jumpi\n      0x00\n      dup1\n      revert\n    tag_1:\n      pop\n      jumpi(tag_2, lt(calldatasize, 0x04))\n      shr(0xe0, calldataload(0x00))\n      dup1\n      0xa95264d0\n      gt\n      tag_15\n      jumpi\n      dup1\n      0xa95264d0\n      eq\n      tag_9\n      jumpi\n      dup1\n      0xb9daf3e2\n      eq\n      tag_10\n      jumpi\n      dup1\n      0xba379e86\n      eq\n      tag_11\n      jumpi\n      dup1\n      0xc47f0027\n      eq\n      tag_12\n      jumpi\n      dup1\n      0xded92dac\n      eq\n      tag_13\n      jumpi\n      dup1\n      0xefd8af9f\n      eq\n      tag_14\n      jumpi\n      jump(tag_2)\n    tag_15:\n      dup1\n      0x1499c592\n      eq\n      tag_3\n      jumpi\n      dup1\n      0x2858d3c8\n      eq\n      tag_4\n      jumpi\n      dup1\n      0x4ba83374\n      eq\n      tag_5\n      jumpi\n      dup1\n      0x5da6ef8d\n      eq\n      tag_6\n      jumpi\n      dup1\n      0x7a4c982e\n      eq\n      tag_7\n      jumpi\n      dup1\n      0x80f76021\n      eq\n      tag_8\n      jumpi\n    tag_2:\n      0x00\n      dup1\n      revert\n        /* \"Items/VaultItem.sol\":1316:1435  function setParent( address _p) external  ownerOnly {... */\n    tag_3:\n      tag_16\n      0x04\n      dup1\n      calldatasize\n      sub\n      dup2\n      add\n      swap1\n      tag_17\n      swap2\n      swap1\n      tag_18\n      jump\t// in\n    tag_17:\n      tag_19\n      jump\t// in\n    tag_16:\n      stop\n        /* \"Items/VaultItem.sol\":965:1076  function getItemType() external view ownerOnly returns (Constants.ItemType) {... */\n    tag_4:\n      tag_20\n      tag_21\n      jump\t// in\n    tag_20:\n      mload(0x40)\n      tag_22\n      swap2\n      swap1\n      tag_23\n      jump\t// in\n    tag_22:\n      mload(0x40)\n      dup1\n      swap2\n      sub\n      swap1\n      return\n        /* \"Items/VaultItem.sol\":1443:1580  function isSharedWith() external view returns (bool) {... */\n    tag_5:\n      tag_24\n      tag_25\n      jump\t// in\n    tag_24:\n      mload(0x40)\n      tag_26\n      swap2\n      swap1\n      tag_27\n      jump\t// in\n    tag_26:\n      mload(0x40)\n      dup1\n      swap2\n      sub\n      swap1\n      return\n        /* \"Items/VaultItem.sol\":1714:1927  function shareWith(address _w) external ownerOnly {... */\n    tag_6:\n      tag_28\n      0x04\n      dup1\n      calldatasize\n      sub\n      dup2\n      add\n      swap1\n      tag_29\n      swap2\n      swap1\n      tag_18\n      jump\t// in\n    tag_29:\n      tag_30\n      jump\t// in\n    tag_28:\n      stop\n        /* \"Items/LoyalityCard.sol\":729:895  function setItem(string memory _n, string memory _c_id) external ownerOnly {... */\n    tag_7:\n      tag_31\n      0x04\n      dup1\n      calldatasize\n      sub\n      dup2\n      add\n      swap1\n      tag_32\n      swap2\n      swap1\n      tag_33\n      jump\t// in\n    tag_32:\n      tag_34\n      jump\t// in\n    tag_31:\n      stop\n        /* \"Items/VaultItem.sol\":1211:1308  function getParent() external view ownerOnly returns (address) {... */\n    tag_8:\n      tag_35\n      tag_36\n      jump\t// in\n    tag_35:\n      mload(0x40)\n      tag_37\n      swap2\n      swap1\n      tag_38\n      jump\t// in\n    tag_37:\n      mload(0x40)\n      dup1\n      swap2\n      sub\n      swap1\n      return\n        /* \"Items/VaultItem.sol\":1588:1706  function getSharedWith() external view ownerOnly returns (address[] memory) {... */\n    tag_9:\n      tag_39\n      tag_40\n      jump\t// in\n    tag_39:\n      mload(0x40)\n      tag_41\n      swap2\n      swap1\n      tag_42\n      jump\t// in\n    tag_41:\n      mload(0x40)\n      dup1\n      swap2\n      sub\n      swap1\n      return\n        /* \"Items/VaultItem.sol\":841:957  function isOwn() external view  returns (bool) {... */\n    tag_10:\n      tag_43\n      tag_44\n      jump\t// in\n    tag_43:\n      mload(0x40)\n      tag_45\n      swap2\n      swap1\n      tag_27\n      jump\t// in\n    tag_45:\n      mload(0x40)\n      dup1\n      swap2\n      sub\n      swap1\n      return\n        /* \"Items/LoyalityCard.sol\":903:1032  function expose() external view ownerOrShared returns ( string memory, string memory) {... */\n    tag_11:\n      tag_46\n      tag_47\n      jump\t// in\n    tag_46:\n      mload(0x40)\n      tag_48\n      swap3\n      swap2\n      swap1\n      tag_49\n      jump\t// in\n    tag_48:\n      mload(0x40)\n      dup1\n      swap2\n      sub\n      swap1\n      return\n        /* \"Items/VaultItem.sol\":1084:1203  function setName(string memory _n) external ownerOnly {... */\n    tag_12:\n      tag_50\n      0x04\n      dup1\n      calldatasize\n      sub\n      dup2\n      add\n      swap1\n      tag_51\n      swap2\n      swap1\n      tag_52\n      jump\t// in\n    tag_51:\n      tag_53\n      jump\t// in\n    tag_50:\n      stop\n        /* \"Items/VaultItem.sol\":1935:2291  function restictFrom( address _f ) external {... */\n    tag_13:\n      tag_54\n      0x04\n      dup1\n      calldatasize\n      sub\n      dup2\n      add\n      swap1\n      tag_55\n      swap2\n      swap1\n      tag_18\n      jump\t// in\n    tag_55:\n      tag_56\n      jump\t// in\n    tag_54:\n      stop\n        /* \"Items/LoyalityCard.sol\":591:721  function setCardId(string memory _c_id) external ownerOnly {... */\n    tag_14:\n      tag_57\n      0x04\n      dup1\n      calldatasize\n      sub\n      dup2\n      add\n      swap1\n      tag_58\n      swap2\n      swap1\n      tag_52\n      jump\t// in\n    tag_58:\n      tag_59\n      jump\t// in\n    tag_57:\n      stop\n        /* \"Items/VaultItem.sol\":1316:1435  function setParent( address _p) external  ownerOnly {... */\n    tag_19:\n        /* \"Items/VaultItem.sol\":366:371  owner */\n      0x01\n      dup1\n      sload\n      swap1\n      0x0100\n      exp\n      swap1\n      div\n      0xffffffffffffffffffffffffffffffffffffffff\n      and\n        /* \"Items/VaultItem.sol\":352:371  msg.sender == owner */\n      0xffffffffffffffffffffffffffffffffffffffff\n      and\n        /* \"Items/VaultItem.sol\":352:362  msg.sender */\n      caller\n        /* \"Items/VaultItem.sol\":352:371  msg.sender == owner */\n      0xffffffffffffffffffffffffffffffffffffffff\n      and\n      eq\n        /* \"Items/VaultItem.sol\":352:395  msg.sender == owner || msg.sender == parent */\n      dup1\n      tag_61\n      jumpi\n      pop\n        /* \"Items/VaultItem.sol\":389:395  parent */\n      0x02\n      0x00\n      swap1\n      sload\n      swap1\n      0x0100\n      exp\n      swap1\n      div\n      0xffffffffffffffffffffffffffffffffffffffff\n      and\n        /* \"Items/VaultItem.sol\":375:395  msg.sender == parent */\n      0xffffffffffffffffffffffffffffffffffffffff\n      and\n        /* \"Items/VaultItem.sol\":375:385  msg.sender */\n      caller\n        /* \"Items/VaultItem.sol\":375:395  msg.sender == parent */\n      0xffffffffffffffffffffffffffffffffffffffff\n      and\n      eq\n        /* \"Items/VaultItem.sol\":352:395  msg.sender == owner || msg.sender == parent */\n    tag_61:\n        /* \"Items/VaultItem.sol\":344:410  require(msg.sender == owner || msg.sender == parent, \"Only owner\") */\n      tag_62\n      jumpi\n      mload(0x40)\n      0x08c379a000000000000000000000000000000000000000000000000000000000\n      dup2\n      mstore\n      0x04\n      add\n      tag_63\n      swap1\n      tag_64\n      jump\t// in\n    tag_63:\n      mload(0x40)\n      dup1\n      swap2\n      sub\n      swap1\n      revert\n    tag_62:\n        /* \"Items/VaultItem.sol\":1388:1390  _p */\n      dup1\n        /* \"Items/VaultItem.sol\":1379:1385  parent */\n      0x02\n      0x00\n        /* \"Items/VaultItem.sol\":1379:1390  parent = _p */\n      0x0100\n      exp\n      dup2\n      sload\n      dup2\n      0xffffffffffffffffffffffffffffffffffffffff\n      mul\n      not\n      and\n      swap1\n      dup4\n      0xffffffffffffffffffffffffffffffffffffffff\n      and\n      mul\n      or\n      swap1\n      sstore\n      pop\n        /* \"Items/VaultItem.sol\":1408:1427  Updated(msg.sender) */\n      0xe00da2178806f37f69815e9ed5ed3072ec1d55206d60916d99b469c7daa421e4\n        /* \"Items/VaultItem.sol\":1416:1426  msg.sender */\n      caller\n        /* \"Items/VaultItem.sol\":1408:1427  Updated(msg.sender) */\n      mload(0x40)\n      tag_66\n      swap2\n      swap1\n      tag_38\n      jump\t// in\n    tag_66:\n      mload(0x40)\n      dup1\n      swap2\n      sub\n      swap1\n      log1\n        /* \"Items/VaultItem.sol\":1316:1435  function setParent( address _p) external  ownerOnly {... */\n      pop\n      jump\t// out\n        /* \"Items/VaultItem.sol\":965:1076  function getItemType() external view ownerOnly returns (Constants.ItemType) {... */\n    tag_21:\n        /* \"Items/VaultItem.sol\":1021:1039  Constants.ItemType */\n      0x00\n        /* \"Items/VaultItem.sol\":366:371  owner */\n      0x01\n      dup1\n      sload\n      swap1\n      0x0100\n      exp\n      swap1\n      div\n      0xffffffffffffffffffffffffffffffffffffffff\n      and\n        /* \"Items/VaultItem.sol\":352:371  msg.sender == owner */\n      0xffffffffffffffffffffffffffffffffffffffff\n      and\n        /* \"Items/VaultItem.sol\":352:362  msg.sender */\n      caller\n        /* \"Items/VaultItem.sol\":352:371  msg.sender == owner */\n      0xffffffffffffffffffffffffffffffffffffffff\n      and\n      eq\n        /* \"Items/VaultItem.sol\":352:395  msg.sender == owner || msg.sender == parent */\n      dup1\n      tag_68\n      jumpi\n      pop\n        /* \"Items/VaultItem.sol\":389:395  parent */\n      0x02\n      0x00\n      swap1\n      sload\n      swap1\n      0x0100\n      exp\n      swap1\n      div\n      0xffffffffffffffffffffffffffffffffffffffff\n      and\n        /* \"Items/VaultItem.sol\":375:395  msg.sender == parent */\n      0xffffffffffffffffffffffffffffffffffffffff\n      and\n        /* \"Items/VaultItem.sol\":375:385  msg.sender */\n      caller\n        /* \"Items/VaultItem.sol\":375:395  msg.sender == parent */\n      0xffffffffffffffffffffffffffffffffffffffff\n      and\n      eq\n        /* \"Items/VaultItem.sol\":352:395  msg.sender == owner || msg.sender == parent */\n    tag_68:\n        /* \"Items/VaultItem.sol\":344:410  require(msg.sender == owner || msg.sender == parent, \"Only owner\") */\n      tag_69\n      jumpi\n      mload(0x40)\n      0x08c379a000000000000000000000000000000000000000000000000000000000\n      dup2\n      mstore\n      0x04\n      add\n      tag_70\n      swap1\n      tag_64\n      jump\t// in\n    tag_70:\n      mload(0x40)\n      dup1\n      swap2\n      sub\n      swap1\n      revert\n    tag_69:\n        /* \"Items/VaultItem.sol\":1059:1068  item_type */\n      0x01\n      0x00\n      swap1\n      sload\n      swap1\n      0x0100\n      exp\n      swap1\n      div\n      0xff\n      and\n        /* \"Items/VaultItem.sol\":1052:1068  return item_type */\n      swap1\n      pop\n        /* \"Items/VaultItem.sol\":965:1076  function getItemType() external view ownerOnly returns (Constants.ItemType) {... */\n      swap1\n      jump\t// out\n        /* \"Items/VaultItem.sol\":1443:1580  function isSharedWith() external view returns (bool) {... */\n    tag_25:\n        /* \"Items/VaultItem.sol\":1490:1494  bool */\n      0x00\n        /* \"Items/VaultItem.sol\":1570:1572  -1 */\n      0xffffffffffffffffffffffffffffffffffffffffffffffffffffffffffffffff\n        /* \"Items/VaultItem.sol\":1514:1566  Constants.findAddressIndex( msg.sender, sharedWith ) */\n      tag_73\n        /* \"Items/VaultItem.sol\":1542:1552  msg.sender */\n      caller\n        /* \"Items/VaultItem.sol\":1554:1564  sharedWith */\n      0x03\n        /* \"Items/VaultItem.sol\":1514:1566  Constants.findAddressIndex( msg.sender, sharedWith ) */\n      dup1\n      sload\n      dup1\n      0x20\n      mul\n      0x20\n      add\n      mload(0x40)\n      swap1\n      dup2\n      add\n      0x40\n      mstore\n      dup1\n      swap3\n      swap2\n      swap1\n      dup2\n      dup2\n      mstore\n      0x20\n      add\n      dup3\n      dup1\n      sload\n      dup1\n      iszero\n      tag_74\n      jumpi\n      0x20\n      mul\n      dup3\n      add\n      swap2\n      swap1\n      0x00\n      mstore\n      keccak256(0x00, 0x20)\n      swap1\n    tag_75:\n      dup2\n      0x00\n      swap1\n      sload\n      swap1\n      0x0100\n      exp\n      swap1\n      div\n      0xffffffffffffffffffffffffffffffffffffffff\n      and\n      0xffffffffffffffffffffffffffffffffffffffff\n      and\n      dup2\n      mstore\n      0x20\n      add\n      swap1\n      0x01\n      add\n      swap1\n      dup1\n      dup4\n      gt\n      tag_75\n      jumpi\n    tag_74:\n      pop\n      pop\n      pop\n      pop\n      pop\n        /* \"Items/VaultItem.sol\":1514:1540  Constants.findAddressIndex */\n      tag_76\n        /* \"Items/VaultItem.sol\":1514:1566  Constants.findAddressIndex( msg.sender, sharedWith ) */\n      jump\t// in\n    tag_73:\n        /* \"Items/VaultItem.sol\":1514:1572  Constants.findAddressIndex( msg.sender, sharedWith ) != -1 */\n      eq\n      iszero\n        /* \"Items/VaultItem.sol\":1507:1572  return Constants.findAddressIndex( msg.sender, sharedWith ) != -1 */\n      swap1\n      pop\n        /* \"Items/VaultItem.sol\":1443:1580  function isSharedWith() external view returns (bool) {... */\n      swap1\n      jump\t// out\n        /* \"Items/VaultItem.sol\":1714:1927  function shareWith(address _w) external ownerOnly {... */\n    tag_30:\n        /* \"Items/VaultItem.sol\":366:371  owner */\n      0x01\n      dup1\n      sload\n      swap1\n      0x0100\n      exp\n      swap1\n      div\n      0xffffffffffffffffffffffffffffffffffffffff\n      and\n        /* \"Items/VaultItem.sol\":352:371  msg.sender == owner */\n      0xffffffffffffffffffffffffffffffffffffffff\n      and\n        /* \"Items/VaultItem.sol\":352:362  msg.sender */\n      caller\n        /* \"Items/VaultItem.sol\":352:371  msg.sender == owner */\n      0xffffffffffffffffffffffffffffffffffffffff\n      and\n      eq\n        /* \"Items/VaultItem.sol\":352:395  msg.sender == owner || msg.sender == parent */\n      dup1\n      tag_78\n      jumpi\n      pop\n        /* \"Items/VaultItem.sol\":389:395  parent */\n      0x02\n      0x00\n      swap1\n      sload\n      swap1\n      0x0100\n      exp\n      swap1\n      div\n      0xffffffffffffffffffffffffffffffffffffffff\n      and\n        /* \"Items/VaultItem.sol\":375:395  msg.sender == parent */\n      0xffffffffffffffffffffffffffffffffffffffff\n      and\n        /* \"Items/VaultItem.sol\":375:385  msg.sender */\n      caller\n        /* \"Items/VaultItem.sol\":375:395  msg.sender == parent */\n      0xffffffffffffffffffffffffffffffffffffffff\n      and\n      eq\n        /* \"Items/VaultItem.sol\":352:395  msg.sender == owner || msg.sender == parent */\n    tag_78:\n        /* \"Items/VaultItem.sol\":344:410  require(msg.sender == owner || msg.sender == parent, \"Only owner\") */\n      tag_79\n      jumpi\n      mload(0x40)\n      0x08c379a000000000000000000000000000000000000000000000000000000000\n      dup2\n      mstore\n      0x04\n      add\n      tag_80\n      swap1\n      tag_64\n      jump\t// in\n    tag_80:\n      mload(0x40)\n      dup1\n      swap2\n      sub\n      swap1\n      revert\n    tag_79:\n        /* \"Items/VaultItem.sol\":1792:1797  owner */\n      0x01\n      dup1\n      sload\n      swap1\n      0x0100\n      exp\n      swap1\n      div\n      0xffffffffffffffffffffffffffffffffffffffff\n      and\n        /* \"Items/VaultItem.sol\":1786:1797  _w != owner */\n      0xffffffffffffffffffffffffffffffffffffffff\n      and\n        /* \"Items/VaultItem.sol\":1786:1788  _w */\n      dup2\n        /* \"Items/VaultItem.sol\":1786:1797  _w != owner */\n      0xffffffffffffffffffffffffffffffffffffffff\n      and\n      eq\n      iszero\n        /* \"Items/VaultItem.sol\":1786:1817  _w != owner && _w != address(0) */\n      dup1\n      iszero\n      tag_82\n      jumpi\n      pop\n        /* \"Items/VaultItem.sol\":1815:1816  0 */\n      0x00\n        /* \"Items/VaultItem.sol\":1801:1817  _w != address(0) */\n      0xffffffffffffffffffffffffffffffffffffffff\n      and\n        /* \"Items/VaultItem.sol\":1801:1803  _w */\n      dup2\n        /* \"Items/VaultItem.sol\":1801:1817  _w != address(0) */\n      0xffffffffffffffffffffffffffffffffffffffff\n      and\n      eq\n      iszero\n        /* \"Items/VaultItem.sol\":1786:1817  _w != owner && _w != address(0) */\n    tag_82:\n        /* \"Items/VaultItem.sol\":1786:1871  _w != owner && _w != address(0) && Constants.findAddressIndex( _w, sharedWith ) == -1 */\n      dup1\n      iszero\n      tag_83\n      jumpi\n      pop\n        /* \"Items/VaultItem.sol\":1869:1871  -1 */\n      0xffffffffffffffffffffffffffffffffffffffffffffffffffffffffffffffff\n        /* \"Items/VaultItem.sol\":1821:1865  Constants.findAddressIndex( _w, sharedWith ) */\n      tag_84\n        /* \"Items/VaultItem.sol\":1849:1851  _w */\n      dup3\n        /* \"Items/VaultItem.sol\":1853:1863  sharedWith */\n      0x03\n        /* \"Items/VaultItem.sol\":1821:1865  Constants.findAddressIndex( _w, sharedWith ) */\n      dup1\n      sload\n      dup1\n      0x20\n      mul\n      0x20\n      add\n      mload(0x40)\n      swap1\n      dup2\n      add\n      0x40\n      mstore\n      dup1\n      swap3\n      swap2\n      swap1\n      dup2\n      dup2\n      mstore\n      0x20\n      add\n      dup3\n      dup1\n      sload\n      dup1\n      iszero\n      tag_85\n      jumpi\n      0x20\n      mul\n      dup3\n      add\n      swap2\n      swap1\n      0x00\n      mstore\n      keccak256(0x00, 0x20)\n      swap1\n    tag_86:\n      dup2\n      0x00\n      swap1\n      sload\n      swap1\n      0x0100\n      exp\n      swap1\n      div\n      0xffffffffffffffffffffffffffffffffffffffff\n      and\n      0xffffffffffffffffffffffffffffffffffffffff\n      and\n      dup2\n      mstore\n      0x20\n      add\n      swap1\n      0x01\n      add\n      swap1\n      dup1\n      dup4\n      gt\n      tag_86\n      jumpi\n    tag_85:\n      pop\n      pop\n      pop\n      pop\n      pop\n        /* \"Items/VaultItem.sol\":1821:1847  Constants.findAddressIndex */\n      tag_76\n        /* \"Items/VaultItem.sol\":1821:1865  Constants.findAddressIndex( _w, sharedWith ) */\n      jump\t// in\n    tag_84:\n        /* \"Items/VaultItem.sol\":1821:1871  Constants.findAddressIndex( _w, sharedWith ) == -1 */\n      eq\n        /* \"Items/VaultItem.sol\":1786:1871  _w != owner && _w != address(0) && Constants.findAddressIndex( _w, sharedWith ) == -1 */\n    tag_83:\n        /* \"Items/VaultItem.sol\":1777:1885  require( _w != owner && _w != address(0) && Constants.findAddressIndex( _w, sharedWith ) == -1, \"Forbidden\") */\n      tag_87\n      jumpi\n      mload(0x40)\n      0x08c379a000000000000000000000000000000000000000000000000000000000\n      dup2\n      mstore\n      0x04\n      add\n      tag_88\n      swap1\n      tag_89\n      jump\t// in\n    tag_88:\n      mload(0x40)\n      dup1\n      swap2\n      sub\n      swap1\n      revert\n    tag_87:\n        /* \"Items/VaultItem.sol\":1898:1908  sharedWith */\n      0x03\n        /* \"Items/VaultItem.sol\":1914:1916  _w */\n      dup2\n        /* \"Items/VaultItem.sol\":1898:1917  sharedWith.push(_w) */\n      swap1\n      dup1\n      0x01\n      dup2\n      sload\n      add\n      dup1\n      dup3\n      sstore\n      dup1\n      swap2\n      pop\n      pop\n      0x01\n      swap1\n      sub\n      swap1\n      0x00\n      mstore\n      keccak256(0x00, 0x20)\n      add\n      0x00\n      swap1\n      swap2\n      swap1\n      swap2\n      swap1\n      swap2\n      0x0100\n      exp\n      dup2\n      sload\n      dup2\n      0xffffffffffffffffffffffffffffffffffffffff\n      mul\n      not\n      and\n      swap1\n      dup4\n      0xffffffffffffffffffffffffffffffffffffffff\n      and\n      mul\n      or\n      swap1\n      sstore\n      pop\n        /* \"Items/VaultItem.sol\":1714:1927  function shareWith(address _w) external ownerOnly {... */\n      pop\n      jump\t// out\n        /* \"Items/LoyalityCard.sol\":729:895  function setItem(string memory _n, string memory _c_id) external ownerOnly {... */\n    tag_34:\n        /* \"Items/VaultItem.sol\":366:371  owner */\n      0x01\n      dup1\n      sload\n      swap1\n      0x0100\n      exp\n      swap1\n      div\n      0xffffffffffffffffffffffffffffffffffffffff\n      and\n        /* \"Items/VaultItem.sol\":352:371  msg.sender == owner */\n      0xffffffffffffffffffffffffffffffffffffffff\n      and\n        /* \"Items/VaultItem.sol\":352:362  msg.sender */\n      caller\n        /* \"Items/VaultItem.sol\":352:371  msg.sender == owner */\n      0xffffffffffffffffffffffffffffffffffffffff\n      and\n      eq\n        /* \"Items/VaultItem.sol\":352:395  msg.sender == owner || msg.sender == parent */\n      dup1\n      tag_92\n      jumpi\n      pop\n        /* \"Items/VaultItem.sol\":389:395  parent */\n      0x02\n      0x00\n      swap1\n      sload\n      swap1\n      0x0100\n      exp\n      swap1\n      div\n      0xffffffffffffffffffffffffffffffffffffffff\n      and\n        /* \"Items/VaultItem.sol\":375:395  msg.sender == parent */\n      0xffffffffffffffffffffffffffffffffffffffff\n      and\n        /* \"Items/VaultItem.sol\":375:385  msg.sender */\n      caller\n        /* \"Items/VaultItem.sol\":375:395  msg.sender == parent */\n      0xffffffffffffffffffffffffffffffffffffffff\n      and\n      eq\n        /* \"Items/VaultItem.sol\":352:395  msg.sender == owner || msg.sender == parent */\n    tag_92:\n        /* \"Items/VaultItem.sol\":344:410  require(msg.sender == owner || msg.sender == parent, \"Only owner\") */\n      tag_93\n      jumpi\n      mload(0x40)\n      0x08c379a000000000000000000000000000000000000000000000000000000000\n      dup2\n      mstore\n      0x04\n      add\n      tag_94\n      swap1\n      tag_64\n      jump\t// in\n    tag_94:\n      mload(0x40)\n      dup1\n      swap2\n      sub\n      swap1\n      revert\n    tag_93:\n        /* \"Items/LoyalityCard.sol\":822:824  _n */\n      dup2\n        /* \"Items/LoyalityCard.sol\":815:819  name */\n      0x00\n        /* \"Items/LoyalityCard.sol\":815:824  name = _n */\n      swap1\n      dup2\n      tag_96\n      swap2\n      swap1\n      tag_97\n      jump\t// in\n    tag_96:\n      pop\n        /* \"Items/LoyalityCard.sol\":845:850  _c_id */\n      dup1\n        /* \"Items/LoyalityCard.sol\":835:842  card_id */\n      0x04\n        /* \"Items/LoyalityCard.sol\":835:850  card_id = _c_id */\n      swap1\n      dup2\n      tag_98\n      swap2\n      swap1\n      tag_97\n      jump\t// in\n    tag_98:\n      pop\n        /* \"Items/LoyalityCard.sol\":868:887  Updated(msg.sender) */\n      0xe00da2178806f37f69815e9ed5ed3072ec1d55206d60916d99b469c7daa421e4\n        /* \"Items/LoyalityCard.sol\":876:886  msg.sender */\n      caller\n        /* \"Items/LoyalityCard.sol\":868:887  Updated(msg.sender) */\n      mload(0x40)\n      tag_99\n      swap2\n      swap1\n      tag_38\n      jump\t// in\n    tag_99:\n      mload(0x40)\n      dup1\n      swap2\n      sub\n      swap1\n      log1\n        /* \"Items/LoyalityCard.sol\":729:895  function setItem(string memory _n, string memory _c_id) external ownerOnly {... */\n      pop\n      pop\n      jump\t// out\n        /* \"Items/VaultItem.sol\":1211:1308  function getParent() external view ownerOnly returns (address) {... */\n    tag_36:\n        /* \"Items/VaultItem.sol\":1265:1272  address */\n      0x00\n        /* \"Items/VaultItem.sol\":366:371  owner */\n      0x01\n      dup1\n      sload\n      swap1\n      0x0100\n      exp\n      swap1\n      div\n      0xffffffffffffffffffffffffffffffffffffffff\n      and\n        /* \"Items/VaultItem.sol\":352:371  msg.sender == owner */\n      0xffffffffffffffffffffffffffffffffffffffff\n      and\n        /* \"Items/VaultItem.sol\":352:362  msg.sender */\n      caller\n        /* \"Items/VaultItem.sol\":352:371  msg.sender == owner */\n      0xffffffffffffffffffffffffffffffffffffffff\n      and\n      eq\n        /* \"Items/VaultItem.sol\":352:395  msg.sender == owner || msg.sender == parent */\n      dup1\n      tag_101\n      jumpi\n      pop\n        /* \"Items/VaultItem.sol\":389:395  parent */\n      0x02\n      0x00\n      swap1\n      sload\n      swap1\n      0x0100\n      exp\n      swap1\n      div\n      0xffffffffffffffffffffffffffffffffffffffff\n      and\n        /* \"Items/VaultItem.sol\":375:395  msg.sender == parent */\n      0xffffffffffffffffffffffffffffffffffffffff\n      and\n        /* \"Items/VaultItem.sol\":375:385  msg.sender */\n      caller\n        /* \"Items/VaultItem.sol\":375:395  msg.sender == parent */\n      0xffffffffffffffffffffffffffffffffffffffff\n      and\n      eq\n        /* \"Items/VaultItem.sol\":352:395  msg.sender == owner || msg.sender == parent */\n    tag_101:\n        /* \"Items/VaultItem.sol\":344:410  require(msg.sender == owner || msg.sender == parent, \"Only owner\") */\n      tag_102\n      jumpi\n      mload(0x40)\n      0x08c379a000000000000000000000000000000000000000000000000000000000\n      dup2\n      mstore\n      0x04\n      add\n      tag_103\n      swap1\n      tag_64\n      jump\t// in\n    tag_103:\n      mload(0x40)\n      dup1\n      swap2\n      sub\n      swap1\n      revert\n    tag_102:\n        /* \"Items/VaultItem.sol\":1294:1300  parent */\n      0x02\n      0x00\n      swap1\n      sload\n      swap1\n      0x0100\n      exp\n      swap1\n      div\n      0xffffffffffffffffffffffffffffffffffffffff\n      and\n        /* \"Items/VaultItem.sol\":1287:1300  return parent */\n      swap1\n      pop\n        /* \"Items/VaultItem.sol\":1211:1308  function getParent() external view ownerOnly returns (address) {... */\n      swap1\n      jump\t// out\n        /* \"Items/VaultItem.sol\":1588:1706  function getSharedWith() external view ownerOnly returns (address[] memory) {... */\n    tag_40:\n        /* \"Items/VaultItem.sol\":1646:1662  address[] memory */\n      0x60\n        /* \"Items/VaultItem.sol\":366:371  owner */\n      0x01\n      dup1\n      sload\n      swap1\n      0x0100\n      exp\n      swap1\n      div\n      0xffffffffffffffffffffffffffffffffffffffff\n      and\n        /* \"Items/VaultItem.sol\":352:371  msg.sender == owner */\n      0xffffffffffffffffffffffffffffffffffffffff\n      and\n        /* \"Items/VaultItem.sol\":352:362  msg.sender */\n      caller\n        /* \"Items/VaultItem.sol\":352:371  msg.sender == owner */\n      0xffffffffffffffffffffffffffffffffffffffff\n      and\n      eq\n        /* \"Items/VaultItem.sol\":352:395  msg.sender == owner || msg.sender == parent */\n      dup1\n      tag_106\n      jumpi\n      pop\n        /* \"Items/VaultItem.sol\":389:395  parent */\n      0x02\n      0x00\n      swap1\n      sload\n      swap1\n      0x0100\n      exp\n      swap1\n      div\n      0xffffffffffffffffffffffffffffffffffffffff\n      and\n        /* \"Items/VaultItem.sol\":375:395  msg.sender == parent */\n      0xffffffffffffffffffffffffffffffffffffffff\n      and\n        /* \"Items/VaultItem.sol\":375:385  msg.sender */\n      caller\n        /* \"Items/VaultItem.sol\":375:395  msg.sender == parent */\n      0xffffffffffffffffffffffffffffffffffffffff\n      and\n      eq\n        /* \"Items/VaultItem.sol\":352:395  msg.sender == owner || msg.sender == parent */\n    tag_106:\n        /* \"Items/VaultItem.sol\":344:410  require(msg.sender == owner || msg.sender == parent, \"Only owner\") */\n      tag_107\n      jumpi\n      mload(0x40)\n      0x08c379a000000000000000000000000000000000000000000000000000000000\n      dup2\n      mstore\n      0x04\n      add\n      tag_108\n      swap1\n      tag_64\n      jump\t// in\n    tag_108:\n      mload(0x40)\n      dup1\n      swap2\n      sub\n      swap1\n      revert\n    tag_107:\n        /* \"Items/VaultItem.sol\":1688:1698  sharedWith */\n      0x03\n        /* \"Items/VaultItem.sol\":1681:1698  return sharedWith */\n      dup1\n      sload\n      dup1\n      0x20\n      mul\n      0x20\n      add\n      mload(0x40)\n      swap1\n      dup2\n      add\n      0x40\n      mstore\n      dup1\n      swap3\n      swap2\n      swap1\n      dup2\n      dup2\n      mstore\n      0x20\n      add\n      dup3\n      dup1\n      sload\n      dup1\n      iszero\n      tag_110\n      jumpi\n      0x20\n      mul\n      dup3\n      add\n      swap2\n      swap1\n      0x00\n      mstore\n      keccak256(0x00, 0x20)\n      swap1\n    tag_111:\n      dup2\n      0x00\n      swap1\n      sload\n      swap1\n      0x0100\n      exp\n      swap1\n      div\n      0xffffffffffffffffffffffffffffffffffffffff\n      and\n      0xffffffffffffffffffffffffffffffffffffffff\n      and\n      dup2\n      mstore\n      0x20\n      add\n      swap1\n      0x01\n      add\n      swap1\n      dup1\n      dup4\n      gt\n      tag_111\n      jumpi\n    tag_110:\n      pop\n      pop\n      pop\n      pop\n      pop\n      swap1\n      pop\n        /* \"Items/VaultItem.sol\":1588:1706  function getSharedWith() external view ownerOnly returns (address[] memory) {... */\n      swap1\n      jump\t// out\n        /* \"Items/VaultItem.sol\":841:957  function isOwn() external view  returns (bool) {... */\n    tag_44:\n        /* \"Items/VaultItem.sol\":882:886  bool */\n      0x00\n        /* \"Items/VaultItem.sol\":920:925  owner */\n      0x01\n      dup1\n      sload\n      swap1\n      0x0100\n      exp\n      swap1\n      div\n      0xffffffffffffffffffffffffffffffffffffffff\n      and\n        /* \"Items/VaultItem.sol\":906:925  msg.sender == owner */\n      0xffffffffffffffffffffffffffffffffffffffff\n      and\n        /* \"Items/VaultItem.sol\":906:916  msg.sender */\n      caller\n        /* \"Items/VaultItem.sol\":906:925  msg.sender == owner */\n      0xffffffffffffffffffffffffffffffffffffffff\n      and\n      eq\n        /* \"Items/VaultItem.sol\":906:949  msg.sender == owner || msg.sender == parent */\n      dup1\n      tag_113\n      jumpi\n      pop\n        /* \"Items/VaultItem.sol\":943:949  parent */\n      0x02\n      0x00\n      swap1\n      sload\n      swap1\n      0x0100\n      exp\n      swap1\n      div\n      0xffffffffffffffffffffffffffffffffffffffff\n      and\n        /* \"Items/VaultItem.sol\":929:949  msg.sender == parent */\n      0xffffffffffffffffffffffffffffffffffffffff\n      and\n        /* \"Items/VaultItem.sol\":929:939  msg.sender */\n      caller\n        /* \"Items/VaultItem.sol\":929:949  msg.sender == parent */\n      0xffffffffffffffffffffffffffffffffffffffff\n      and\n      eq\n        /* \"Items/VaultItem.sol\":906:949  msg.sender == owner || msg.sender == parent */\n    tag_113:\n        /* \"Items/VaultItem.sol\":899:949  return msg.sender == owner || msg.sender == parent */\n      swap1\n      pop\n        /* \"Items/VaultItem.sol\":841:957  function isOwn() external view  returns (bool) {... */\n      swap1\n      jump\t// out\n        /* \"Items/LoyalityCard.sol\":903:1032  function expose() external view ownerOrShared returns ( string memory, string memory) {... */\n    tag_47:\n        /* \"Items/LoyalityCard.sol\":959:972  string memory */\n      0x60\n        /* \"Items/LoyalityCard.sol\":974:987  string memory */\n      dup1\n        /* \"Items/VaultItem.sol\":492:497  owner */\n      0x01\n      dup1\n      sload\n      swap1\n      0x0100\n      exp\n      swap1\n      div\n      0xffffffffffffffffffffffffffffffffffffffff\n      and\n        /* \"Items/VaultItem.sol\":478:497  msg.sender == owner */\n      0xffffffffffffffffffffffffffffffffffffffff\n      and\n        /* \"Items/VaultItem.sol\":478:488  msg.sender */\n      caller\n        /* \"Items/VaultItem.sol\":478:497  msg.sender == owner */\n      0xffffffffffffffffffffffffffffffffffffffff\n      and\n      eq\n        /* \"Items/VaultItem.sol\":478:559  msg.sender == owner || Constants.findAddressIndex( msg.sender, sharedWith ) != -1 */\n      dup1\n      tag_115\n      jumpi\n      pop\n        /* \"Items/VaultItem.sol\":557:559  -1 */\n      0xffffffffffffffffffffffffffffffffffffffffffffffffffffffffffffffff\n        /* \"Items/VaultItem.sol\":501:553  Constants.findAddressIndex( msg.sender, sharedWith ) */\n      tag_116\n        /* \"Items/VaultItem.sol\":529:539  msg.sender */\n      caller\n        /* \"Items/VaultItem.sol\":541:551  sharedWith */\n      0x03\n        /* \"Items/VaultItem.sol\":501:553  Constants.findAddressIndex( msg.sender, sharedWith ) */\n      dup1\n      sload\n      dup1\n      0x20\n      mul\n      0x20\n      add\n      mload(0x40)\n      swap1\n      dup2\n      add\n      0x40\n      mstore\n      dup1\n      swap3\n      swap2\n      swap1\n      dup2\n      dup2\n      mstore\n      0x20\n      add\n      dup3\n      dup1\n      sload\n      dup1\n      iszero\n      tag_117\n      jumpi\n      0x20\n      mul\n      dup3\n      add\n      swap2\n      swap1\n      0x00\n      mstore\n      keccak256(0x00, 0x20)\n      swap1\n    tag_118:\n      dup2\n      0x00\n      swap1\n      sload\n      swap1\n      0x0100\n      exp\n      swap1\n      div\n      0xffffffffffffffffffffffffffffffffffffffff\n      and\n      0xffffffffffffffffffffffffffffffffffffffff\n      and\n      dup2\n      mstore\n      0x20\n      add\n      swap1\n      0x01\n      add\n      swap1\n      dup1\n      dup4\n      gt\n      tag_118\n      jumpi\n    tag_117:\n      pop\n      pop\n      pop\n      pop\n      pop\n        /* \"Items/VaultItem.sol\":501:527  Constants.findAddressIndex */\n      tag_76\n        /* \"Items/VaultItem.sol\":501:553  Constants.findAddressIndex( msg.sender, sharedWith ) */\n      jump\t// in\n    tag_116:\n        /* \"Items/VaultItem.sol\":501:559  Constants.findAddressIndex( msg.sender, sharedWith ) != -1 */\n      eq\n      iszero\n        /* \"Items/VaultItem.sol\":478:559  msg.sender == owner || Constants.findAddressIndex( msg.sender, sharedWith ) != -1 */\n    tag_115:\n        /* \"Items/VaultItem.sol\":469:572  require( msg.sender == owner || Constants.findAddressIndex( msg.sender, sharedWith ) != -1, \"Restrict\") */\n      tag_119\n      jumpi\n      mload(0x40)\n      0x08c379a000000000000000000000000000000000000000000000000000000000\n      dup2\n      mstore\n      0x04\n      add\n      tag_120\n      swap1\n      tag_121\n      jump\t// in\n    tag_120:\n      mload(0x40)\n      dup1\n      swap2\n      sub\n      swap1\n      revert\n    tag_119:\n        /* \"Items/LoyalityCard.sol\":1009:1013  name */\n      0x00\n        /* \"Items/LoyalityCard.sol\":1015:1022  card_id */\n      0x04\n        /* \"Items/LoyalityCard.sol\":1000:1024  return ( name, card_id ) */\n      dup2\n      dup1\n      sload\n      tag_123\n      swap1\n      tag_124\n      jump\t// in\n    tag_123:\n      dup1\n      0x1f\n      add\n      0x20\n      dup1\n      swap2\n      div\n      mul\n      0x20\n      add\n      mload(0x40)\n      swap1\n      dup2\n      add\n      0x40\n      mstore\n      dup1\n      swap3\n      swap2\n      swap1\n      dup2\n      dup2\n      mstore\n      0x20\n      add\n      dup3\n      dup1\n      sload\n      tag_125\n      swap1\n      tag_124\n      jump\t// in\n    tag_125:\n      dup1\n      iszero\n      tag_126\n      jumpi\n      dup1\n      0x1f\n      lt\n      tag_127\n      jumpi\n      0x0100\n      dup1\n      dup4\n      sload\n      div\n      mul\n      dup4\n      mstore\n      swap2\n      0x20\n      add\n      swap2\n      jump(tag_126)\n    tag_127:\n      dup3\n      add\n      swap2\n      swap1\n      0x00\n      mstore\n      keccak256(0x00, 0x20)\n      swap1\n    tag_128:\n      dup2\n      sload\n      dup2\n      mstore\n      swap1\n      0x01\n      add\n      swap1\n      0x20\n      add\n      dup1\n      dup4\n      gt\n      tag_128\n      jumpi\n      dup3\n      swap1\n      sub\n      0x1f\n      and\n      dup3\n      add\n      swap2\n    tag_126:\n      pop\n      pop\n      pop\n      pop\n      pop\n      swap2\n      pop\n      dup1\n      dup1\n      sload\n      tag_129\n      swap1\n      tag_124\n      jump\t// in\n    tag_129:\n      dup1\n      0x1f\n      add\n      0x20\n      dup1\n      swap2\n      div\n      mul\n      0x20\n      add\n      mload(0x40)\n      swap1\n      dup2\n      add\n      0x40\n      mstore\n      dup1\n      swap3\n      swap2\n      swap1\n      dup2\n      dup2\n      mstore\n      0x20\n      add\n      dup3\n      dup1\n      sload\n      tag_130\n      swap1\n      tag_124\n      jump\t// in\n    tag_130:\n      dup1\n      iszero\n      tag_131\n      jumpi\n      dup1\n      0x1f\n      lt\n      tag_132\n      jumpi\n      0x0100\n      dup1\n      dup4\n      sload\n      div\n      mul\n      dup4\n      mstore\n      swap2\n      0x20\n      add\n      swap2\n      jump(tag_131)\n    tag_132:\n      dup3\n      add\n      swap2\n      swap1\n      0x00\n      mstore\n      keccak256(0x00, 0x20)\n      swap1\n    tag_133:\n      dup2\n      sload\n      dup2\n      mstore\n      swap1\n      0x01\n      add\n      swap1\n      0x20\n      add\n      dup1\n      dup4\n      gt\n      tag_133\n      jumpi\n      dup3\n      swap1\n      sub\n      0x1f\n      and\n      dup3\n      add\n      swap2\n    tag_131:\n      pop\n      pop\n      pop\n      pop\n      pop\n      swap1\n      pop\n      swap2\n      pop\n      swap2\n      pop\n        /* \"Items/LoyalityCard.sol\":903:1032  function expose() external view ownerOrShared returns ( string memory, string memory) {... */\n      swap1\n      swap2\n      jump\t// out\n        /* \"Items/VaultItem.sol\":1084:1203  function setName(string memory _n) external ownerOnly {... */\n    tag_53:\n        /* \"Items/VaultItem.sol\":366:371  owner */\n      0x01\n      dup1\n      sload\n      swap1\n      0x0100\n      exp\n      swap1\n      div\n      0xffffffffffffffffffffffffffffffffffffffff\n      and\n        /* \"Items/VaultItem.sol\":352:371  msg.sender == owner */\n      0xffffffffffffffffffffffffffffffffffffffff\n      and\n        /* \"Items/VaultItem.sol\":352:362  msg.sender */\n      caller\n        /* \"Items/VaultItem.sol\":352:371  msg.sender == owner */\n      0xffffffffffffffffffffffffffffffffffffffff\n      and\n      eq\n        /* \"Items/VaultItem.sol\":352:395  msg.sender == owner || msg.sender == parent */\n      dup1\n      tag_135\n      jumpi\n      pop\n        /* \"Items/VaultItem.sol\":389:395  parent */\n      0x02\n      0x00\n      swap1\n      sload\n      swap1\n      0x0100\n      exp\n      swap1\n      div\n      0xffffffffffffffffffffffffffffffffffffffff\n      and\n        /* \"Items/VaultItem.sol\":375:395  msg.sender == parent */\n      0xffffffffffffffffffffffffffffffffffffffff\n      and\n        /* \"Items/VaultItem.sol\":375:385  msg.sender */\n      caller\n        /* \"Items/VaultItem.sol\":375:395  msg.sender == parent */\n      0xffffffffffffffffffffffffffffffffffffffff\n      and\n      eq\n        /* \"Items/VaultItem.sol\":352:395  msg.sender == owner || msg.sender == parent */\n    tag_135:\n        /* \"Items/VaultItem.sol\":344:410  require(msg.sender == owner || msg.sender == parent, \"Only owner\") */\n      tag_136\n      jumpi\n      mload(0x40)\n      0x08c379a000000000000000000000000000000000000000000000000000000000\n      dup2\n      mstore\n      0x04\n      add\n      tag_137\n      swap1\n      tag_64\n      jump\t// in\n    tag_137:\n      mload(0x40)\n      dup1\n      swap2\n      sub\n      swap1\n      revert\n    tag_136:\n        /* \"Items/VaultItem.sol\":1156:1158  _n */\n      dup1\n        /* \"Items/VaultItem.sol\":1149:1153  name */\n      0x00\n        /* \"Items/VaultItem.sol\":1149:1158  name = _n */\n      swap1\n      dup2\n      tag_139\n      swap2\n      swap1\n      tag_97\n      jump\t// in\n    tag_139:\n      pop\n        /* \"Items/VaultItem.sol\":1176:1195  Updated(msg.sender) */\n      0xe00da2178806f37f69815e9ed5ed3072ec1d55206d60916d99b469c7daa421e4\n        /* \"Items/VaultItem.sol\":1184:1194  msg.sender */\n      caller\n        /* \"Items/VaultItem.sol\":1176:1195  Updated(msg.sender) */\n      mload(0x40)\n      tag_140\n      swap2\n      swap1\n      tag_38\n      jump\t// in\n    tag_140:\n      mload(0x40)\n      dup1\n      swap2\n      sub\n      swap1\n      log1\n        /* \"Items/VaultItem.sol\":1084:1203  function setName(string memory _n) external ownerOnly {... */\n      pop\n      jump\t// out\n        /* \"Items/VaultItem.sol\":1935:2291  function restictFrom( address _f ) external {... */\n    tag_56:\n        /* \"Items/VaultItem.sol\":2022:2023  0 */\n      0x00\n        /* \"Items/VaultItem.sol\":2008:2024  _f != address(0) */\n      0xffffffffffffffffffffffffffffffffffffffff\n      and\n        /* \"Items/VaultItem.sol\":2008:2010  _f */\n      dup2\n        /* \"Items/VaultItem.sol\":2008:2024  _f != address(0) */\n      0xffffffffffffffffffffffffffffffffffffffff\n      and\n      eq\n      iszero\n        /* \"Items/VaultItem.sol\":2008:2095  _f != address(0) || ( msg.sender == parent || msg.sender == owner || msg.sender == _f ) */\n      dup1\n      tag_142\n      jumpi\n      pop\n        /* \"Items/VaultItem.sol\":2044:2050  parent */\n      0x02\n      0x00\n      swap1\n      sload\n      swap1\n      0x0100\n      exp\n      swap1\n      div\n      0xffffffffffffffffffffffffffffffffffffffff\n      and\n        /* \"Items/VaultItem.sol\":2030:2050  msg.sender == parent */\n      0xffffffffffffffffffffffffffffffffffffffff\n      and\n        /* \"Items/VaultItem.sol\":2030:2040  msg.sender */\n      caller\n        /* \"Items/VaultItem.sol\":2030:2050  msg.sender == parent */\n      0xffffffffffffffffffffffffffffffffffffffff\n      and\n      eq\n        /* \"Items/VaultItem.sol\":2030:2073  msg.sender == parent || msg.sender == owner */\n      dup1\n      tag_143\n      jumpi\n      pop\n        /* \"Items/VaultItem.sol\":2068:2073  owner */\n      0x01\n      dup1\n      sload\n      swap1\n      0x0100\n      exp\n      swap1\n      div\n      0xffffffffffffffffffffffffffffffffffffffff\n      and\n        /* \"Items/VaultItem.sol\":2054:2073  msg.sender == owner */\n      0xffffffffffffffffffffffffffffffffffffffff\n      and\n        /* \"Items/VaultItem.sol\":2054:2064  msg.sender */\n      caller\n        /* \"Items/VaultItem.sol\":2054:2073  msg.sender == owner */\n      0xffffffffffffffffffffffffffffffffffffffff\n      and\n      eq\n        /* \"Items/VaultItem.sol\":2030:2073  msg.sender == parent || msg.sender == owner */\n    tag_143:\n        /* \"Items/VaultItem.sol\":2030:2093  msg.sender == parent || msg.sender == owner || msg.sender == _f */\n      dup1\n      tag_144\n      jumpi\n      pop\n        /* \"Items/VaultItem.sol\":2091:2093  _f */\n      dup1\n        /* \"Items/VaultItem.sol\":2077:2093  msg.sender == _f */\n      0xffffffffffffffffffffffffffffffffffffffff\n      and\n        /* \"Items/VaultItem.sol\":2077:2087  msg.sender */\n      caller\n        /* \"Items/VaultItem.sol\":2077:2093  msg.sender == _f */\n      0xffffffffffffffffffffffffffffffffffffffff\n      and\n      eq\n        /* \"Items/VaultItem.sol\":2030:2093  msg.sender == parent || msg.sender == owner || msg.sender == _f */\n    tag_144:\n        /* \"Items/VaultItem.sol\":2008:2095  _f != address(0) || ( msg.sender == parent || msg.sender == owner || msg.sender == _f ) */\n    tag_142:\n        /* \"Items/VaultItem.sol\":2000:2109  require(_f != address(0) || ( msg.sender == parent || msg.sender == owner || msg.sender == _f ), \"Forbidden\") */\n      tag_145\n      jumpi\n      mload(0x40)\n      0x08c379a000000000000000000000000000000000000000000000000000000000\n      dup2\n      mstore\n      0x04\n      add\n      tag_146\n      swap1\n      tag_89\n      jump\t// in\n    tag_146:\n      mload(0x40)\n      dup1\n      swap2\n      sub\n      swap1\n      revert\n    tag_145:\n        /* \"Items/VaultItem.sol\":2122:2130  int _idx */\n      0x00\n        /* \"Items/VaultItem.sol\":2133:2177  Constants.findAddressIndex( _f, sharedWith ) */\n      tag_147\n        /* \"Items/VaultItem.sol\":2161:2163  _f */\n      dup3\n        /* \"Items/VaultItem.sol\":2165:2175  sharedWith */\n      0x03\n        /* \"Items/VaultItem.sol\":2133:2177  Constants.findAddressIndex( _f, sharedWith ) */\n      dup1\n      sload\n      dup1\n      0x20\n      mul\n      0x20\n      add\n      mload(0x40)\n      swap1\n      dup2\n      add\n      0x40\n      mstore\n      dup1\n      swap3\n      swap2\n      swap1\n      dup2\n      dup2\n      mstore\n      0x20\n      add\n      dup3\n      dup1\n      sload\n      dup1\n      iszero\n      tag_148\n      jumpi\n      0x20\n      mul\n      dup3\n      add\n      swap2\n      swap1\n      0x00\n      mstore\n      keccak256(0x00, 0x20)\n      swap1\n    tag_149:\n      dup2\n      0x00\n      swap1\n      sload\n      swap1\n      0x0100\n      exp\n      swap1\n      div\n      0xffffffffffffffffffffffffffffffffffffffff\n      and\n      0xffffffffffffffffffffffffffffffffffffffff\n      and\n      dup2\n      mstore\n      0x20\n      add\n      swap1\n      0x01\n      add\n      swap1\n      dup1\n      dup4\n      gt\n      tag_149\n      jumpi\n    tag_148:\n      pop\n      pop\n      pop\n      pop\n      pop\n        /* \"Items/VaultItem.sol\":2133:2159  Constants.findAddressIndex */\n      tag_76\n        /* \"Items/VaultItem.sol\":2133:2177  Constants.findAddressIndex( _f, sharedWith ) */\n      jump\t// in\n    tag_147:\n        /* \"Items/VaultItem.sol\":2122:2177  int _idx = Constants.findAddressIndex( _f, sharedWith ) */\n      swap1\n      pop\n        /* \"Items/VaultItem.sol\":2205:2207  -1 */\n      0xffffffffffffffffffffffffffffffffffffffffffffffffffffffffffffffff\n        /* \"Items/VaultItem.sol\":2198:2202  _idx */\n      dup2\n        /* \"Items/VaultItem.sol\":2198:2207  _idx > -1 */\n      sgt\n        /* \"Items/VaultItem.sol\":2190:2221  require(_idx > -1, \"Not found\") */\n      tag_150\n      jumpi\n      mload(0x40)\n      0x08c379a000000000000000000000000000000000000000000000000000000000\n      dup2\n      mstore\n      0x04\n      add\n      tag_151\n      swap1\n      tag_152\n      jump\t// in\n    tag_151:\n      mload(0x40)\n      dup1\n      swap2\n      sub\n      swap1\n      revert\n    tag_150:\n        /* \"Items/VaultItem.sol\":2234:2281  Constants.deleteAddressFrom( _idx, sharedWith ) */\n      tag_153\n        /* \"Items/VaultItem.sol\":2263:2267  _idx */\n      dup2\n        /* \"Items/VaultItem.sol\":2269:2279  sharedWith */\n      0x03\n        /* \"Items/VaultItem.sol\":2234:2261  Constants.deleteAddressFrom */\n      tag_154\n        /* \"Items/VaultItem.sol\":2234:2281  Constants.deleteAddressFrom( _idx, sharedWith ) */\n      jump\t// in\n    tag_153:\n        /* \"Items/VaultItem.sol\":1979:2291  {... */\n      pop\n        /* \"Items/VaultItem.sol\":1935:2291  function restictFrom( address _f ) external {... */\n      pop\n      jump\t// out\n        /* \"Items/LoyalityCard.sol\":591:721  function setCardId(string memory _c_id) external ownerOnly {... */\n    tag_59:\n        /* \"Items/VaultItem.sol\":366:371  owner */\n      0x01\n      dup1\n      sload\n      swap1\n      0x0100\n      exp\n      swap1\n      div\n      0xffffffffffffffffffffffffffffffffffffffff\n      and\n        /* \"Items/VaultItem.sol\":352:371  msg.sender == owner */\n      0xffffffffffffffffffffffffffffffffffffffff\n      and\n        /* \"Items/VaultItem.sol\":352:362  msg.sender */\n      caller\n        /* \"Items/VaultItem.sol\":352:371  msg.sender == owner */\n      0xffffffffffffffffffffffffffffffffffffffff\n      and\n      eq\n        /* \"Items/VaultItem.sol\":352:395  msg.sender == owner || msg.sender == parent */\n      dup1\n      tag_156\n      jumpi\n      pop\n        /* \"Items/VaultItem.sol\":389:395  parent */\n      0x02\n      0x00\n      swap1\n      sload\n      swap1\n      0x0100\n      exp\n      swap1\n      div\n      0xffffffffffffffffffffffffffffffffffffffff\n      and\n        /* \"Items/VaultItem.sol\":375:395  msg.sender == parent */\n      0xffffffffffffffffffffffffffffffffffffffff\n      and\n        /* \"Items/VaultItem.sol\":375:385  msg.sender */\n      caller\n        /* \"Items/VaultItem.sol\":375:395  msg.sender == parent */\n      0xffffffffffffffffffffffffffffffffffffffff\n      and\n      eq\n        /* \"Items/VaultItem.sol\":352:395  msg.sender == owner || msg.sender == parent */\n    tag_156:\n        /* \"Items/VaultItem.sol\":344:410  require(msg.sender == owner || msg.sender == parent, \"Only owner\") */\n      tag_157\n      jumpi\n      mload(0x40)\n      0x08c379a000000000000000000000000000000000000000000000000000000000\n      dup2\n      mstore\n      0x04\n      add\n      tag_158\n      swap1\n      tag_64\n      jump\t// in\n    tag_158:\n      mload(0x40)\n      dup1\n      swap2\n      sub\n      swap1\n      revert\n    tag_157:\n        /* \"Items/LoyalityCard.sol\":671:676  _c_id */\n      dup1\n        /* \"Items/LoyalityCard.sol\":661:668  card_id */\n      0x04\n        /* \"Items/LoyalityCard.sol\":661:676  card_id = _c_id */\n      swap1\n      dup2\n      tag_160\n      swap2\n      swap1\n      tag_97\n      jump\t// in\n    tag_160:\n      pop\n        /* \"Items/LoyalityCard.sol\":694:713  Updated(msg.sender) */\n      0xe00da2178806f37f69815e9ed5ed3072ec1d55206d60916d99b469c7daa421e4\n        /* \"Items/LoyalityCard.sol\":702:712  msg.sender */\n      caller\n        /* \"Items/LoyalityCard.sol\":694:713  Updated(msg.sender) */\n      mload(0x40)\n      tag_161\n      swap2\n      swap1\n      tag_38\n      jump\t// in\n    tag_161:\n      mload(0x40)\n      dup1\n      swap2\n      sub\n      swap1\n      log1\n        /* \"Items/LoyalityCard.sol\":591:721  function setCardId(string memory _c_id) external ownerOnly {... */\n      pop\n      jump\t// out\n        /* \"Libs/Constants.sol\":302:528  function findAddressIndex(address _addr, address[] memory _a) internal pure returns (int) {... */\n    tag_76:\n        /* \"Libs/Constants.sol\":387:390  int */\n      0x00\n        /* \"Libs/Constants.sol\":408:414  uint i */\n      dup1\n        /* \"Libs/Constants.sol\":417:418  0 */\n      0x00\n        /* \"Libs/Constants.sol\":408:418  uint i = 0 */\n      swap1\n      pop\n        /* \"Libs/Constants.sol\":403:500  for (uint i = 0; i < _a.length; i++) {... */\n    tag_163:\n        /* \"Libs/Constants.sol\":424:426  _a */\n      dup3\n        /* \"Libs/Constants.sol\":424:433  _a.length */\n      mload\n        /* \"Libs/Constants.sol\":420:421  i */\n      dup2\n        /* \"Libs/Constants.sol\":420:433  i < _a.length */\n      lt\n        /* \"Libs/Constants.sol\":403:500  for (uint i = 0; i < _a.length; i++) {... */\n      iszero\n      tag_164\n      jumpi\n        /* \"Libs/Constants.sol\":468:473  _addr */\n      dup4\n        /* \"Libs/Constants.sol\":459:473  _a[i] == _addr */\n      0xffffffffffffffffffffffffffffffffffffffff\n      and\n        /* \"Libs/Constants.sol\":459:461  _a */\n      dup4\n        /* \"Libs/Constants.sol\":462:463  i */\n      dup3\n        /* \"Libs/Constants.sol\":459:464  _a[i] */\n      dup2\n      mload\n      dup2\n      lt\n      tag_166\n      jumpi\n      tag_167\n      tag_168\n      jump\t// in\n    tag_167:\n    tag_166:\n      0x20\n      mul\n      0x20\n      add\n      add\n      mload\n        /* \"Libs/Constants.sol\":459:473  _a[i] == _addr */\n      0xffffffffffffffffffffffffffffffffffffffff\n      and\n      sub\n        /* \"Libs/Constants.sol\":455:488  if (_a[i] == _addr) return int(i) */\n      tag_169\n      jumpi\n        /* \"Libs/Constants.sol\":486:487  i */\n      dup1\n        /* \"Libs/Constants.sol\":475:488  return int(i) */\n      swap2\n      pop\n      pop\n      jump(tag_162)\n        /* \"Libs/Constants.sol\":455:488  if (_a[i] == _addr) return int(i) */\n    tag_169:\n        /* \"Libs/Constants.sol\":435:438  i++ */\n      dup1\n      dup1\n      0x01\n      add\n      swap2\n      pop\n      pop\n        /* \"Libs/Constants.sol\":403:500  for (uint i = 0; i < _a.length; i++) {... */\n      jump(tag_163)\n    tag_164:\n      pop\n        /* \"Libs/Constants.sol\":517:519  -1 */\n      0xffffffffffffffffffffffffffffffffffffffffffffffffffffffffffffffff\n        /* \"Libs/Constants.sol\":510:519  return -1 */\n      swap1\n      pop\n        /* \"Libs/Constants.sol\":302:528  function findAddressIndex(address _addr, address[] memory _a) internal pure returns (int) {... */\n    tag_162:\n      swap3\n      swap2\n      pop\n      pop\n      jump\t// out\n        /* \"Libs/Constants.sol\":537:799  function deleteAddressFrom(int idx, address[] storage _a) internal {... */\n    tag_154:\n        /* \"Libs/Constants.sol\":630:631  0 */\n      0x00\n        /* \"Libs/Constants.sol\":623:626  idx */\n      dup3\n        /* \"Libs/Constants.sol\":623:631  idx >= 0 */\n      slt\n      iszero\n        /* \"Libs/Constants.sol\":623:656  idx >= 0 && uint(idx) < _a.length */\n      dup1\n      iszero\n      tag_171\n      jumpi\n      pop\n        /* \"Libs/Constants.sol\":647:649  _a */\n      dup1\n        /* \"Libs/Constants.sol\":647:656  _a.length */\n      dup1\n      sload\n      swap1\n      pop\n        /* \"Libs/Constants.sol\":640:643  idx */\n      dup3\n        /* \"Libs/Constants.sol\":635:656  uint(idx) < _a.length */\n      lt\n        /* \"Libs/Constants.sol\":623:656  idx >= 0 && uint(idx) < _a.length */\n    tag_171:\n        /* \"Libs/Constants.sol\":615:667  require(idx >= 0 && uint(idx) < _a.length, \"No idx\") */\n      tag_172\n      jumpi\n      mload(0x40)\n      0x08c379a000000000000000000000000000000000000000000000000000000000\n      dup2\n      mstore\n      0x04\n      add\n      tag_173\n      swap1\n      tag_174\n      jump\t// in\n    tag_173:\n      mload(0x40)\n      dup1\n      swap2\n      sub\n      swap1\n      revert\n    tag_172:\n        /* \"Libs/Constants.sol\":683:689  uint i */\n      0x00\n        /* \"Libs/Constants.sol\":697:700  idx */\n      dup3\n        /* \"Libs/Constants.sol\":683:701  uint i = uint(idx) */\n      swap1\n      pop\n        /* \"Libs/Constants.sol\":678:771  for (uint i = uint(idx); i < _a.length - 1; i++) {... */\n    tag_175:\n        /* \"Libs/Constants.sol\":719:720  1 */\n      0x01\n        /* \"Libs/Constants.sol\":707:709  _a */\n      dup3\n        /* \"Libs/Constants.sol\":707:716  _a.length */\n      dup1\n      sload\n      swap1\n      pop\n        /* \"Libs/Constants.sol\":707:720  _a.length - 1 */\n      tag_178\n      swap2\n      swap1\n      tag_179\n      jump\t// in\n    tag_178:\n        /* \"Libs/Constants.sol\":703:704  i */\n      dup2\n        /* \"Libs/Constants.sol\":703:720  i < _a.length - 1 */\n      lt\n        /* \"Libs/Constants.sol\":678:771  for (uint i = uint(idx); i < _a.length - 1; i++) {... */\n      iszero\n      tag_176\n      jumpi\n        /* \"Libs/Constants.sol\":750:752  _a */\n      dup2\n        /* \"Libs/Constants.sol\":757:758  1 */\n      0x01\n        /* \"Libs/Constants.sol\":753:754  i */\n      dup3\n        /* \"Libs/Constants.sol\":753:758  i + 1 */\n      tag_180\n      swap2\n      swap1\n      tag_181\n      jump\t// in\n    tag_180:\n        /* \"Libs/Constants.sol\":750:759  _a[i + 1] */\n      dup2\n      sload\n      dup2\n      lt\n      tag_182\n      jumpi\n      tag_183\n      tag_168\n      jump\t// in\n    tag_183:\n    tag_182:\n      swap1\n      0x00\n      mstore\n      keccak256(0x00, 0x20)\n      add\n      0x00\n      swap1\n      sload\n      swap1\n      0x0100\n      exp\n      swap1\n      div\n      0xffffffffffffffffffffffffffffffffffffffff\n      and\n        /* \"Libs/Constants.sol\":742:744  _a */\n      dup3\n        /* \"Libs/Constants.sol\":745:746  i */\n      dup3\n        /* \"Libs/Constants.sol\":742:747  _a[i] */\n      dup2\n      sload\n      dup2\n      lt\n      tag_185\n      jumpi\n      tag_186\n      tag_168\n      jump\t// in\n    tag_186:\n    tag_185:\n      swap1\n      0x00\n      mstore\n      keccak256(0x00, 0x20)\n      add\n      0x00\n        /* \"Libs/Constants.sol\":742:759  _a[i] = _a[i + 1] */\n      0x0100\n      exp\n      dup2\n      sload\n      dup2\n      0xffffffffffffffffffffffffffffffffffffffff\n      mul\n      not\n      and\n      swap1\n      dup4\n      0xffffffffffffffffffffffffffffffffffffffff\n      and\n      mul\n      or\n      swap1\n      sstore\n      pop\n        /* \"Libs/Constants.sol\":722:725  i++ */\n      dup1\n      dup1\n      0x01\n      add\n      swap2\n      pop\n      pop\n        /* \"Libs/Constants.sol\":678:771  for (uint i = uint(idx); i < _a.length - 1; i++) {... */\n      jump(tag_175)\n    tag_176:\n      pop\n        /* \"Libs/Constants.sol\":783:785  _a */\n      dup1\n        /* \"Libs/Constants.sol\":783:791  _a.pop() */\n      dup1\n      sload\n      dup1\n      tag_188\n      jumpi\n      tag_189\n      tag_190\n      jump\t// in\n    tag_189:\n    tag_188:\n      0x01\n      swap1\n      sub\n      dup2\n      dup2\n      swap1\n      0x00\n      mstore\n      keccak256(0x00, 0x20)\n      add\n      exp(0x0100, 0x00)\n      dup2\n      sload\n      swap1\n      0xffffffffffffffffffffffffffffffffffffffff\n      mul\n      not\n      and\n      swap1\n      sstore\n      swap1\n      sstore\n        /* \"Libs/Constants.sol\":537:799  function deleteAddressFrom(int idx, address[] storage _a) internal {... */\n      pop\n      pop\n      jump\t// out\n        /* \"#utility.yul\":7:82   */\n    tag_192:\n        /* \"#utility.yul\":40:46   */\n      0x00\n        /* \"#utility.yul\":73:75   */\n      0x40\n        /* \"#utility.yul\":67:76   */\n      mload\n        /* \"#utility.yul\":57:76   */\n      swap1\n      pop\n        /* \"#utility.yul\":7:82   */\n      swap1\n      jump\t// out\n        /* \"#utility.yul\":88:205   */\n    tag_193:\n        /* \"#utility.yul\":197:198   */\n      0x00\n        /* \"#utility.yul\":194:195   */\n      dup1\n        /* \"#utility.yul\":187:199   */\n      revert\n        /* \"#utility.yul\":211:328   */\n    tag_194:\n        /* \"#utility.yul\":320:321   */\n      0x00\n        /* \"#utility.yul\":317:318   */\n      dup1\n        /* \"#utility.yul\":310:322   */\n      revert\n        /* \"#utility.yul\":334:460   */\n    tag_195:\n        /* \"#utility.yul\":371:378   */\n      0x00\n        /* \"#utility.yul\":411:453   */\n      0xffffffffffffffffffffffffffffffffffffffff\n        /* \"#utility.yul\":404:409   */\n      dup3\n        /* \"#utility.yul\":400:454   */\n      and\n        /* \"#utility.yul\":389:454   */\n      swap1\n      pop\n        /* \"#utility.yul\":334:460   */\n      swap2\n      swap1\n      pop\n      jump\t// out\n        /* \"#utility.yul\":466:562   */\n    tag_196:\n        /* \"#utility.yul\":503:510   */\n      0x00\n        /* \"#utility.yul\":532:556   */\n      tag_262\n        /* \"#utility.yul\":550:555   */\n      dup3\n        /* \"#utility.yul\":532:556   */\n      tag_195\n      jump\t// in\n    tag_262:\n        /* \"#utility.yul\":521:556   */\n      swap1\n      pop\n        /* \"#utility.yul\":466:562   */\n      swap2\n      swap1\n      pop\n      jump\t// out\n        /* \"#utility.yul\":568:690   */\n    tag_197:\n        /* \"#utility.yul\":641:665   */\n      tag_264\n        /* \"#utility.yul\":659:664   */\n      dup2\n        /* \"#utility.yul\":641:665   */\n      tag_196\n      jump\t// in\n    tag_264:\n        /* \"#utility.yul\":634:639   */\n      dup2\n        /* \"#utility.yul\":631:666   */\n      eq\n        /* \"#utility.yul\":621:684   */\n      tag_265\n      jumpi\n        /* \"#utility.yul\":680:681   */\n      0x00\n        /* \"#utility.yul\":677:678   */\n      dup1\n        /* \"#utility.yul\":670:682   */\n      revert\n        /* \"#utility.yul\":621:684   */\n    tag_265:\n        /* \"#utility.yul\":568:690   */\n      pop\n      jump\t// out\n        /* \"#utility.yul\":696:835   */\n    tag_198:\n        /* \"#utility.yul\":742:747   */\n      0x00\n        /* \"#utility.yul\":780:786   */\n      dup2\n        /* \"#utility.yul\":767:787   */\n      calldataload\n        /* \"#utility.yul\":758:787   */\n      swap1\n      pop\n        /* \"#utility.yul\":796:829   */\n      tag_267\n        /* \"#utility.yul\":823:828   */\n      dup2\n        /* \"#utility.yul\":796:829   */\n      tag_197\n      jump\t// in\n    tag_267:\n        /* \"#utility.yul\":696:835   */\n      swap3\n      swap2\n      pop\n      pop\n      jump\t// out\n        /* \"#utility.yul\":841:1170   */\n    tag_18:\n        /* \"#utility.yul\":900:906   */\n      0x00\n        /* \"#utility.yul\":949:951   */\n      0x20\n        /* \"#utility.yul\":937:946   */\n      dup3\n        /* \"#utility.yul\":928:935   */\n      dup5\n        /* \"#utility.yul\":924:947   */\n      sub\n        /* \"#utility.yul\":920:952   */\n      slt\n        /* \"#utility.yul\":917:1036   */\n      iszero\n      tag_269\n      jumpi\n        /* \"#utility.yul\":955:1034   */\n      tag_270\n      tag_193\n      jump\t// in\n    tag_270:\n        /* \"#utility.yul\":917:1036   */\n    tag_269:\n        /* \"#utility.yul\":1075:1076   */\n      0x00\n        /* \"#utility.yul\":1100:1153   */\n      tag_271\n        /* \"#utility.yul\":1145:1152   */\n      dup5\n        /* \"#utility.yul\":1136:1142   */\n      dup3\n        /* \"#utility.yul\":1125:1134   */\n      dup6\n        /* \"#utility.yul\":1121:1143   */\n      add\n        /* \"#utility.yul\":1100:1153   */\n      tag_198\n      jump\t// in\n    tag_271:\n        /* \"#utility.yul\":1090:1153   */\n      swap2\n      pop\n        /* \"#utility.yul\":1046:1163   */\n      pop\n        /* \"#utility.yul\":841:1170   */\n      swap3\n      swap2\n      pop\n      pop\n      jump\t// out\n        /* \"#utility.yul\":1176:1356   */\n    tag_199:\n        /* \"#utility.yul\":1224:1301   */\n      0x4e487b7100000000000000000000000000000000000000000000000000000000\n        /* \"#utility.yul\":1221:1222   */\n      0x00\n        /* \"#utility.yul\":1214:1302   */\n      mstore\n        /* \"#utility.yul\":1321:1325   */\n      0x21\n        /* \"#utility.yul\":1318:1319   */\n      0x04\n        /* \"#utility.yul\":1311:1326   */\n      mstore\n        /* \"#utility.yul\":1345:1349   */\n      0x24\n        /* \"#utility.yul\":1342:1343   */\n      0x00\n        /* \"#utility.yul\":1335:1350   */\n      revert\n        /* \"#utility.yul\":1362:1479   */\n    tag_200:\n        /* \"#utility.yul\":1447:1448   */\n      0x04\n        /* \"#utility.yul\":1440:1445   */\n      dup2\n        /* \"#utility.yul\":1437:1449   */\n      lt\n        /* \"#utility.yul\":1427:1473   */\n      tag_274\n      jumpi\n        /* \"#utility.yul\":1453:1471   */\n      tag_275\n      tag_199\n      jump\t// in\n    tag_275:\n        /* \"#utility.yul\":1427:1473   */\n    tag_274:\n        /* \"#utility.yul\":1362:1479   */\n      pop\n      jump\t// out\n        /* \"#utility.yul\":1485:1620   */\n    tag_201:\n        /* \"#utility.yul\":1534:1541   */\n      0x00\n        /* \"#utility.yul\":1563:1568   */\n      dup2\n        /* \"#utility.yul\":1552:1568   */\n      swap1\n      pop\n        /* \"#utility.yul\":1569:1614   */\n      tag_277\n        /* \"#utility.yul\":1608:1613   */\n      dup3\n        /* \"#utility.yul\":1569:1614   */\n      tag_200\n      jump\t// in\n    tag_277:\n        /* \"#utility.yul\":1485:1620   */\n      swap2\n      swap1\n      pop\n      jump\t// out\n        /* \"#utility.yul\":1626:1761   */\n    tag_202:\n        /* \"#utility.yul\":1686:1695   */\n      0x00\n        /* \"#utility.yul\":1719:1755   */\n      tag_279\n        /* \"#utility.yul\":1749:1754   */\n      dup3\n        /* \"#utility.yul\":1719:1755   */\n      tag_201\n      jump\t// in\n    tag_279:\n        /* \"#utility.yul\":1706:1755   */\n      swap1\n      pop\n        /* \"#utility.yul\":1626:1761   */\n      swap2\n      swap1\n      pop\n      jump\t// out\n        /* \"#utility.yul\":1767:1918   */\n    tag_203:\n        /* \"#utility.yul\":1864:1911   */\n      tag_281\n        /* \"#utility.yul\":1905:1910   */\n      dup2\n        /* \"#utility.yul\":1864:1911   */\n      tag_202\n      jump\t// in\n    tag_281:\n        /* \"#utility.yul\":1859:1862   */\n      dup3\n        /* \"#utility.yul\":1852:1912   */\n      mstore\n        /* \"#utility.yul\":1767:1918   */\n      pop\n      pop\n      jump\t// out\n        /* \"#utility.yul\":1924:2166   */\n    tag_23:\n        /* \"#utility.yul\":2027:2031   */\n      0x00\n        /* \"#utility.yul\":2065:2067   */\n      0x20\n        /* \"#utility.yul\":2054:2063   */\n      dup3\n        /* \"#utility.yul\":2050:2068   */\n      add\n        /* \"#utility.yul\":2042:2068   */\n      swap1\n      pop\n        /* \"#utility.yul\":2078:2159   */\n      tag_283\n        /* \"#utility.yul\":2156:2157   */\n      0x00\n        /* \"#utility.yul\":2145:2154   */\n      dup4\n        /* \"#utility.yul\":2141:2158   */\n      add\n        /* \"#utility.yul\":2132:2138   */\n      dup5\n        /* \"#utility.yul\":2078:2159   */\n      tag_203\n      jump\t// in\n    tag_283:\n        /* \"#utility.yul\":1924:2166   */\n      swap3\n      swap2\n      pop\n      pop\n      jump\t// out\n        /* \"#utility.yul\":2172:2262   */\n    tag_204:\n        /* \"#utility.yul\":2206:2213   */\n      0x00\n        /* \"#utility.yul\":2249:2254   */\n      dup2\n        /* \"#utility.yul\":2242:2255   */\n      iszero\n        /* \"#utility.yul\":2235:2256   */\n      iszero\n        /* \"#utility.yul\":2224:2256   */\n      swap1\n      pop\n        /* \"#utility.yul\":2172:2262   */\n      swap2\n      swap1\n      pop\n      jump\t// out\n        /* \"#utility.yul\":2268:2377   */\n    tag_205:\n        /* \"#utility.yul\":2349:2370   */\n      tag_286\n        /* \"#utility.yul\":2364:2369   */\n      dup2\n        /* \"#utility.yul\":2349:2370   */\n      tag_204\n      jump\t// in\n    tag_286:\n        /* \"#utility.yul\":2344:2347   */\n      dup3\n        /* \"#utility.yul\":2337:2371   */\n      mstore\n        /* \"#utility.yul\":2268:2377   */\n      pop\n      pop\n      jump\t// out\n        /* \"#utility.yul\":2383:2593   */\n    tag_27:\n        /* \"#utility.yul\":2470:2474   */\n      0x00\n        /* \"#utility.yul\":2508:2510   */\n      0x20\n        /* \"#utility.yul\":2497:2506   */\n      dup3\n        /* \"#utility.yul\":2493:2511   */\n      add\n        /* \"#utility.yul\":2485:2511   */\n      swap1\n      pop\n        /* \"#utility.yul\":2521:2586   */\n      tag_288\n        /* \"#utility.yul\":2583:2584   */\n      0x00\n        /* \"#utility.yul\":2572:2581   */\n      dup4\n        /* \"#utility.yul\":2568:2585   */\n      add\n        /* \"#utility.yul\":2559:2565   */\n      dup5\n        /* \"#utility.yul\":2521:2586   */\n      tag_205\n      jump\t// in\n    tag_288:\n        /* \"#utility.yul\":2383:2593   */\n      swap3\n      swap2\n      pop\n      pop\n      jump\t// out\n        /* \"#utility.yul\":2599:2716   */\n    tag_206:\n        /* \"#utility.yul\":2708:2709   */\n      0x00\n        /* \"#utility.yul\":2705:2706   */\n      dup1\n        /* \"#utility.yul\":2698:2710   */\n      revert\n        /* \"#utility.yul\":2722:2839   */\n    tag_207:\n        /* \"#utility.yul\":2831:2832   */\n      0x00\n        /* \"#utility.yul\":2828:2829   */\n      dup1\n        /* \"#utility.yul\":2821:2833   */\n      revert\n        /* \"#utility.yul\":2845:2947   */\n    tag_208:\n        /* \"#utility.yul\":2886:2892   */\n      0x00\n        /* \"#utility.yul\":2937:2939   */\n      0x1f\n        /* \"#utility.yul\":2933:2940   */\n      not\n        /* \"#utility.yul\":2928:2930   */\n      0x1f\n        /* \"#utility.yul\":2921:2926   */\n      dup4\n        /* \"#utility.yul\":2917:2931   */\n      add\n        /* \"#utility.yul\":2913:2941   */\n      and\n        /* \"#utility.yul\":2903:2941   */\n      swap1\n      pop\n        /* \"#utility.yul\":2845:2947   */\n      swap2\n      swap1\n      pop\n      jump\t// out\n        /* \"#utility.yul\":2953:3133   */\n    tag_209:\n        /* \"#utility.yul\":3001:3078   */\n      0x4e487b7100000000000000000000000000000000000000000000000000000000\n        /* \"#utility.yul\":2998:2999   */\n      0x00\n        /* \"#utility.yul\":2991:3079   */\n      mstore\n        /* \"#utility.yul\":3098:3102   */\n      0x41\n        /* \"#utility.yul\":3095:3096   */\n      0x04\n        /* \"#utility.yul\":3088:3103   */\n      mstore\n        /* \"#utility.yul\":3122:3126   */\n      0x24\n        /* \"#utility.yul\":3119:3120   */\n      0x00\n        /* \"#utility.yul\":3112:3127   */\n      revert\n        /* \"#utility.yul\":3139:3420   */\n    tag_210:\n        /* \"#utility.yul\":3222:3249   */\n      tag_294\n        /* \"#utility.yul\":3244:3248   */\n      dup3\n        /* \"#utility.yul\":3222:3249   */\n      tag_208\n      jump\t// in\n    tag_294:\n        /* \"#utility.yul\":3214:3220   */\n      dup2\n        /* \"#utility.yul\":3210:3250   */\n      add\n        /* \"#utility.yul\":3352:3358   */\n      dup2\n        /* \"#utility.yul\":3340:3350   */\n      dup2\n        /* \"#utility.yul\":3337:3359   */\n      lt\n        /* \"#utility.yul\":3316:3334   */\n      0xffffffffffffffff\n        /* \"#utility.yul\":3304:3314   */\n      dup3\n        /* \"#utility.yul\":3301:3335   */\n      gt\n        /* \"#utility.yul\":3298:3360   */\n      or\n        /* \"#utility.yul\":3295:3383   */\n      iszero\n      tag_295\n      jumpi\n        /* \"#utility.yul\":3363:3381   */\n      tag_296\n      tag_209\n      jump\t// in\n    tag_296:\n        /* \"#utility.yul\":3295:3383   */\n    tag_295:\n        /* \"#utility.yul\":3403:3413   */\n      dup1\n        /* \"#utility.yul\":3399:3401   */\n      0x40\n        /* \"#utility.yul\":3392:3414   */\n      mstore\n        /* \"#utility.yul\":3182:3420   */\n      pop\n        /* \"#utility.yul\":3139:3420   */\n      pop\n      pop\n      jump\t// out\n        /* \"#utility.yul\":3426:3555   */\n    tag_211:\n        /* \"#utility.yul\":3460:3466   */\n      0x00\n        /* \"#utility.yul\":3487:3507   */\n      tag_298\n      tag_192\n      jump\t// in\n    tag_298:\n        /* \"#utility.yul\":3477:3507   */\n      swap1\n      pop\n        /* \"#utility.yul\":3516:3549   */\n      tag_299\n        /* \"#utility.yul\":3544:3548   */\n      dup3\n        /* \"#utility.yul\":3536:3542   */\n      dup3\n        /* \"#utility.yul\":3516:3549   */\n      tag_210\n      jump\t// in\n    tag_299:\n        /* \"#utility.yul\":3426:3555   */\n      swap2\n      swap1\n      pop\n      jump\t// out\n        /* \"#utility.yul\":3561:3869   */\n    tag_212:\n        /* \"#utility.yul\":3623:3627   */\n      0x00\n        /* \"#utility.yul\":3713:3731   */\n      0xffffffffffffffff\n        /* \"#utility.yul\":3705:3711   */\n      dup3\n        /* \"#utility.yul\":3702:3732   */\n      gt\n        /* \"#utility.yul\":3699:3755   */\n      iszero\n      tag_301\n      jumpi\n        /* \"#utility.yul\":3735:3753   */\n      tag_302\n      tag_209\n      jump\t// in\n    tag_302:\n        /* \"#utility.yul\":3699:3755   */\n    tag_301:\n        /* \"#utility.yul\":3773:3802   */\n      tag_303\n        /* \"#utility.yul\":3795:3801   */\n      dup3\n        /* \"#utility.yul\":3773:3802   */\n      tag_208\n      jump\t// in\n    tag_303:\n        /* \"#utility.yul\":3765:3802   */\n      swap1\n      pop\n        /* \"#utility.yul\":3857:3861   */\n      0x20\n        /* \"#utility.yul\":3851:3855   */\n      dup2\n        /* \"#utility.yul\":3847:3862   */\n      add\n        /* \"#utility.yul\":3839:3862   */\n      swap1\n      pop\n        /* \"#utility.yul\":3561:3869   */\n      swap2\n      swap1\n      pop\n      jump\t// out\n        /* \"#utility.yul\":3875:4023   */\n    tag_213:\n        /* \"#utility.yul\":3973:3979   */\n      dup3\n        /* \"#utility.yul\":3968:3971   */\n      dup2\n        /* \"#utility.yul\":3963:3966   */\n      dup4\n        /* \"#utility.yul\":3950:3980   */\n      calldatacopy\n        /* \"#utility.yul\":4014:4015   */\n      0x00\n        /* \"#utility.yul\":4005:4011   */\n      dup4\n        /* \"#utility.yul\":4000:4003   */\n      dup4\n        /* \"#utility.yul\":3996:4012   */\n      add\n        /* \"#utility.yul\":3989:4016   */\n      mstore\n        /* \"#utility.yul\":3875:4023   */\n      pop\n      pop\n      pop\n      jump\t// out\n        /* \"#utility.yul\":4029:4454   */\n    tag_214:\n        /* \"#utility.yul\":4107:4112   */\n      0x00\n        /* \"#utility.yul\":4132:4198   */\n      tag_306\n        /* \"#utility.yul\":4148:4197   */\n      tag_307\n        /* \"#utility.yul\":4190:4196   */\n      dup5\n        /* \"#utility.yul\":4148:4197   */\n      tag_212\n      jump\t// in\n    tag_307:\n        /* \"#utility.yul\":4132:4198   */\n      tag_211\n      jump\t// in\n    tag_306:\n        /* \"#utility.yul\":4123:4198   */\n      swap1\n      pop\n        /* \"#utility.yul\":4221:4227   */\n      dup3\n        /* \"#utility.yul\":4214:4219   */\n      dup2\n        /* \"#utility.yul\":4207:4228   */\n      mstore\n        /* \"#utility.yul\":4259:4263   */\n      0x20\n        /* \"#utility.yul\":4252:4257   */\n      dup2\n        /* \"#utility.yul\":4248:4264   */\n      add\n        /* \"#utility.yul\":4297:4300   */\n      dup5\n        /* \"#utility.yul\":4288:4294   */\n      dup5\n        /* \"#utility.yul\":4283:4286   */\n      dup5\n        /* \"#utility.yul\":4279:4295   */\n      add\n        /* \"#utility.yul\":4276:4301   */\n      gt\n        /* \"#utility.yul\":4273:4385   */\n      iszero\n      tag_308\n      jumpi\n        /* \"#utility.yul\":4304:4383   */\n      tag_309\n      tag_207\n      jump\t// in\n    tag_309:\n        /* \"#utility.yul\":4273:4385   */\n    tag_308:\n        /* \"#utility.yul\":4394:4448   */\n      tag_310\n        /* \"#utility.yul\":4441:4447   */\n      dup5\n        /* \"#utility.yul\":4436:4439   */\n      dup3\n        /* \"#utility.yul\":4431:4434   */\n      dup6\n        /* \"#utility.yul\":4394:4448   */\n      tag_213\n      jump\t// in\n    tag_310:\n        /* \"#utility.yul\":4113:4454   */\n      pop\n        /* \"#utility.yul\":4029:4454   */\n      swap4\n      swap3\n      pop\n      pop\n      pop\n      jump\t// out\n        /* \"#utility.yul\":4474:4814   */\n    tag_215:\n        /* \"#utility.yul\":4530:4535   */\n      0x00\n        /* \"#utility.yul\":4579:4582   */\n      dup3\n        /* \"#utility.yul\":4572:4576   */\n      0x1f\n        /* \"#utility.yul\":4564:4570   */\n      dup4\n        /* \"#utility.yul\":4560:4577   */\n      add\n        /* \"#utility.yul\":4556:4583   */\n      slt\n        /* \"#utility.yul\":4546:4668   */\n      tag_312\n      jumpi\n        /* \"#utility.yul\":4587:4666   */\n      tag_313\n      tag_206\n      jump\t// in\n    tag_313:\n        /* \"#utility.yul\":4546:4668   */\n    tag_312:\n        /* \"#utility.yul\":4704:4710   */\n      dup2\n        /* \"#utility.yul\":4691:4711   */\n      calldataload\n        /* \"#utility.yul\":4729:4808   */\n      tag_314\n        /* \"#utility.yul\":4804:4807   */\n      dup5\n        /* \"#utility.yul\":4796:4802   */\n      dup3\n        /* \"#utility.yul\":4789:4793   */\n      0x20\n        /* \"#utility.yul\":4781:4787   */\n      dup7\n        /* \"#utility.yul\":4777:4794   */\n      add\n        /* \"#utility.yul\":4729:4808   */\n      tag_214\n      jump\t// in\n    tag_314:\n        /* \"#utility.yul\":4720:4808   */\n      swap2\n      pop\n        /* \"#utility.yul\":4536:4814   */\n      pop\n        /* \"#utility.yul\":4474:4814   */\n      swap3\n      swap2\n      pop\n      pop\n      jump\t// out\n        /* \"#utility.yul\":4820:5654   */\n    tag_33:\n        /* \"#utility.yul\":4908:4914   */\n      0x00\n        /* \"#utility.yul\":4916:4922   */\n      dup1\n        /* \"#utility.yul\":4965:4967   */\n      0x40\n        /* \"#utility.yul\":4953:4962   */\n      dup4\n        /* \"#utility.yul\":4944:4951   */\n      dup6\n        /* \"#utility.yul\":4940:4963   */\n      sub\n        /* \"#utility.yul\":4936:4968   */\n      slt\n        /* \"#utility.yul\":4933:5052   */\n      iszero\n      tag_316\n      jumpi\n        /* \"#utility.yul\":4971:5050   */\n      tag_317\n      tag_193\n      jump\t// in\n    tag_317:\n        /* \"#utility.yul\":4933:5052   */\n    tag_316:\n        /* \"#utility.yul\":5119:5120   */\n      0x00\n        /* \"#utility.yul\":5108:5117   */\n      dup4\n        /* \"#utility.yul\":5104:5121   */\n      add\n        /* \"#utility.yul\":5091:5122   */\n      calldataload\n        /* \"#utility.yul\":5149:5167   */\n      0xffffffffffffffff\n        /* \"#utility.yul\":5141:5147   */\n      dup2\n        /* \"#utility.yul\":5138:5168   */\n      gt\n        /* \"#utility.yul\":5135:5252   */\n      iszero\n      tag_318\n      jumpi\n        /* \"#utility.yul\":5171:5250   */\n      tag_319\n      tag_194\n      jump\t// in\n    tag_319:\n        /* \"#utility.yul\":5135:5252   */\n    tag_318:\n        /* \"#utility.yul\":5276:5339   */\n      tag_320\n        /* \"#utility.yul\":5331:5338   */\n      dup6\n        /* \"#utility.yul\":5322:5328   */\n      dup3\n        /* \"#utility.yul\":5311:5320   */\n      dup7\n        /* \"#utility.yul\":5307:5329   */\n      add\n        /* \"#utility.yul\":5276:5339   */\n      tag_215\n      jump\t// in\n    tag_320:\n        /* \"#utility.yul\":5266:5339   */\n      swap3\n      pop\n        /* \"#utility.yul\":5062:5349   */\n      pop\n        /* \"#utility.yul\":5416:5418   */\n      0x20\n        /* \"#utility.yul\":5405:5414   */\n      dup4\n        /* \"#utility.yul\":5401:5419   */\n      add\n        /* \"#utility.yul\":5388:5420   */\n      calldataload\n        /* \"#utility.yul\":5447:5465   */\n      0xffffffffffffffff\n        /* \"#utility.yul\":5439:5445   */\n      dup2\n        /* \"#utility.yul\":5436:5466   */\n      gt\n        /* \"#utility.yul\":5433:5550   */\n      iszero\n      tag_321\n      jumpi\n        /* \"#utility.yul\":5469:5548   */\n      tag_322\n      tag_194\n      jump\t// in\n    tag_322:\n        /* \"#utility.yul\":5433:5550   */\n    tag_321:\n        /* \"#utility.yul\":5574:5637   */\n      tag_323\n        /* \"#utility.yul\":5629:5636   */\n      dup6\n        /* \"#utility.yul\":5620:5626   */\n      dup3\n        /* \"#utility.yul\":5609:5618   */\n      dup7\n        /* \"#utility.yul\":5605:5627   */\n      add\n        /* \"#utility.yul\":5574:5637   */\n      tag_215\n      jump\t// in\n    tag_323:\n        /* \"#utility.yul\":5564:5637   */\n      swap2\n      pop\n        /* \"#utility.yul\":5359:5647   */\n      pop\n        /* \"#utility.yul\":4820:5654   */\n      swap3\n      pop\n      swap3\n      swap1\n      pop\n      jump\t// out\n        /* \"#utility.yul\":5660:5778   */\n    tag_216:\n        /* \"#utility.yul\":5747:5771   */\n      tag_325\n        /* \"#utility.yul\":5765:5770   */\n      dup2\n        /* \"#utility.yul\":5747:5771   */\n      tag_196\n      jump\t// in\n    tag_325:\n        /* \"#utility.yul\":5742:5745   */\n      dup3\n        /* \"#utility.yul\":5735:5772   */\n      mstore\n        /* \"#utility.yul\":5660:5778   */\n      pop\n      pop\n      jump\t// out\n        /* \"#utility.yul\":5784:6006   */\n    tag_38:\n        /* \"#utility.yul\":5877:5881   */\n      0x00\n        /* \"#utility.yul\":5915:5917   */\n      0x20\n        /* \"#utility.yul\":5904:5913   */\n      dup3\n        /* \"#utility.yul\":5900:5918   */\n      add\n        /* \"#utility.yul\":5892:5918   */\n      swap1\n      pop\n        /* \"#utility.yul\":5928:5999   */\n      tag_327\n        /* \"#utility.yul\":5996:5997   */\n      0x00\n        /* \"#utility.yul\":5985:5994   */\n      dup4\n        /* \"#utility.yul\":5981:5998   */\n      add\n        /* \"#utility.yul\":5972:5978   */\n      dup5\n        /* \"#utility.yul\":5928:5999   */\n      tag_216\n      jump\t// in\n    tag_327:\n        /* \"#utility.yul\":5784:6006   */\n      swap3\n      swap2\n      pop\n      pop\n      jump\t// out\n        /* \"#utility.yul\":6012:6126   */\n    tag_217:\n        /* \"#utility.yul\":6079:6085   */\n      0x00\n        /* \"#utility.yul\":6113:6118   */\n      dup2\n        /* \"#utility.yul\":6107:6119   */\n      mload\n        /* \"#utility.yul\":6097:6119   */\n      swap1\n      pop\n        /* \"#utility.yul\":6012:6126   */\n      swap2\n      swap1\n      pop\n      jump\t// out\n        /* \"#utility.yul\":6132:6316   */\n    tag_218:\n        /* \"#utility.yul\":6231:6242   */\n      0x00\n        /* \"#utility.yul\":6265:6271   */\n      dup3\n        /* \"#utility.yul\":6260:6263   */\n      dup3\n        /* \"#utility.yul\":6253:6272   */\n      mstore\n        /* \"#utility.yul\":6305:6309   */\n      0x20\n        /* \"#utility.yul\":6300:6303   */\n      dup3\n        /* \"#utility.yul\":6296:6310   */\n      add\n        /* \"#utility.yul\":6281:6310   */\n      swap1\n      pop\n        /* \"#utility.yul\":6132:6316   */\n      swap3\n      swap2\n      pop\n      pop\n      jump\t// out\n        /* \"#utility.yul\":6322:6454   */\n    tag_219:\n        /* \"#utility.yul\":6389:6393   */\n      0x00\n        /* \"#utility.yul\":6412:6415   */\n      dup2\n        /* \"#utility.yul\":6404:6415   */\n      swap1\n      pop\n        /* \"#utility.yul\":6442:6446   */\n      0x20\n        /* \"#utility.yul\":6437:6440   */\n      dup3\n        /* \"#utility.yul\":6433:6447   */\n      add\n        /* \"#utility.yul\":6425:6447   */\n      swap1\n      pop\n        /* \"#utility.yul\":6322:6454   */\n      swap2\n      swap1\n      pop\n      jump\t// out\n        /* \"#utility.yul\":6460:6568   */\n    tag_220:\n        /* \"#utility.yul\":6537:6561   */\n      tag_332\n        /* \"#utility.yul\":6555:6560   */\n      dup2\n        /* \"#utility.yul\":6537:6561   */\n      tag_196\n      jump\t// in\n    tag_332:\n        /* \"#utility.yul\":6532:6535   */\n      dup3\n        /* \"#utility.yul\":6525:6562   */\n      mstore\n        /* \"#utility.yul\":6460:6568   */\n      pop\n      pop\n      jump\t// out\n        /* \"#utility.yul\":6574:6753   */\n    tag_221:\n        /* \"#utility.yul\":6643:6653   */\n      0x00\n        /* \"#utility.yul\":6664:6710   */\n      tag_334\n        /* \"#utility.yul\":6706:6709   */\n      dup4\n        /* \"#utility.yul\":6698:6704   */\n      dup4\n        /* \"#utility.yul\":6664:6710   */\n      tag_220\n      jump\t// in\n    tag_334:\n        /* \"#utility.yul\":6742:6746   */\n      0x20\n        /* \"#utility.yul\":6737:6740   */\n      dup4\n        /* \"#utility.yul\":6733:6747   */\n      add\n        /* \"#utility.yul\":6719:6747   */\n      swap1\n      pop\n        /* \"#utility.yul\":6574:6753   */\n      swap3\n      swap2\n      pop\n      pop\n      jump\t// out\n        /* \"#utility.yul\":6759:6872   */\n    tag_222:\n        /* \"#utility.yul\":6829:6833   */\n      0x00\n        /* \"#utility.yul\":6861:6865   */\n      0x20\n        /* \"#utility.yul\":6856:6859   */\n      dup3\n        /* \"#utility.yul\":6852:6866   */\n      add\n        /* \"#utility.yul\":6844:6866   */\n      swap1\n      pop\n        /* \"#utility.yul\":6759:6872   */\n      swap2\n      swap1\n      pop\n      jump\t// out\n        /* \"#utility.yul\":6908:7640   */\n    tag_223:\n        /* \"#utility.yul\":7027:7030   */\n      0x00\n        /* \"#utility.yul\":7056:7110   */\n      tag_337\n        /* \"#utility.yul\":7104:7109   */\n      dup3\n        /* \"#utility.yul\":7056:7110   */\n      tag_217\n      jump\t// in\n    tag_337:\n        /* \"#utility.yul\":7126:7212   */\n      tag_338\n        /* \"#utility.yul\":7205:7211   */\n      dup2\n        /* \"#utility.yul\":7200:7203   */\n      dup6\n        /* \"#utility.yul\":7126:7212   */\n      tag_218\n      jump\t// in\n    tag_338:\n        /* \"#utility.yul\":7119:7212   */\n      swap4\n      pop\n        /* \"#utility.yul\":7236:7292   */\n      tag_339\n        /* \"#utility.yul\":7286:7291   */\n      dup4\n        /* \"#utility.yul\":7236:7292   */\n      tag_219\n      jump\t// in\n    tag_339:\n        /* \"#utility.yul\":7315:7322   */\n      dup1\n        /* \"#utility.yul\":7346:7347   */\n      0x00\n        /* \"#utility.yul\":7331:7615   */\n    tag_340:\n        /* \"#utility.yul\":7356:7362   */\n      dup4\n        /* \"#utility.yul\":7353:7354   */\n      dup2\n        /* \"#utility.yul\":7350:7363   */\n      lt\n        /* \"#utility.yul\":7331:7615   */\n      iszero\n      tag_342\n      jumpi\n        /* \"#utility.yul\":7432:7438   */\n      dup2\n        /* \"#utility.yul\":7426:7439   */\n      mload\n        /* \"#utility.yul\":7459:7522   */\n      tag_343\n        /* \"#utility.yul\":7518:7521   */\n      dup9\n        /* \"#utility.yul\":7503:7516   */\n      dup3\n        /* \"#utility.yul\":7459:7522   */\n      tag_221\n      jump\t// in\n    tag_343:\n        /* \"#utility.yul\":7452:7522   */\n      swap8\n      pop\n        /* \"#utility.yul\":7545:7605   */\n      tag_344\n        /* \"#utility.yul\":7598:7604   */\n      dup4\n        /* \"#utility.yul\":7545:7605   */\n      tag_222\n      jump\t// in\n    tag_344:\n        /* \"#utility.yul\":7535:7605   */\n      swap3\n      pop\n        /* \"#utility.yul\":7391:7615   */\n      pop\n        /* \"#utility.yul\":7378:7379   */\n      0x01\n        /* \"#utility.yul\":7375:7376   */\n      dup2\n        /* \"#utility.yul\":7371:7380   */\n      add\n        /* \"#utility.yul\":7366:7380   */\n      swap1\n      pop\n        /* \"#utility.yul\":7331:7615   */\n      jump(tag_340)\n    tag_342:\n        /* \"#utility.yul\":7335:7349   */\n      pop\n        /* \"#utility.yul\":7631:7634   */\n      dup6\n        /* \"#utility.yul\":7624:7634   */\n      swap4\n      pop\n        /* \"#utility.yul\":7032:7640   */\n      pop\n      pop\n      pop\n        /* \"#utility.yul\":6908:7640   */\n      swap3\n      swap2\n      pop\n      pop\n      jump\t// out\n        /* \"#utility.yul\":7646:8019   */\n    tag_42:\n        /* \"#utility.yul\":7789:7793   */\n      0x00\n        /* \"#utility.yul\":7827:7829   */\n      0x20\n        /* \"#utility.yul\":7816:7825   */\n      dup3\n        /* \"#utility.yul\":7812:7830   */\n      add\n        /* \"#utility.yul\":7804:7830   */\n      swap1\n      pop\n        /* \"#utility.yul\":7876:7885   */\n      dup2\n        /* \"#utility.yul\":7870:7874   */\n      dup2\n        /* \"#utility.yul\":7866:7886   */\n      sub\n        /* \"#utility.yul\":7862:7863   */\n      0x00\n        /* \"#utility.yul\":7851:7860   */\n      dup4\n        /* \"#utility.yul\":7847:7864   */\n      add\n        /* \"#utility.yul\":7840:7887   */\n      mstore\n        /* \"#utility.yul\":7904:8012   */\n      tag_346\n        /* \"#utility.yul\":8007:8011   */\n      dup2\n        /* \"#utility.yul\":7998:8004   */\n      dup5\n        /* \"#utility.yul\":7904:8012   */\n      tag_223\n      jump\t// in\n    tag_346:\n        /* \"#utility.yul\":7896:8012   */\n      swap1\n      pop\n        /* \"#utility.yul\":7646:8019   */\n      swap3\n      swap2\n      pop\n      pop\n      jump\t// out\n        /* \"#utility.yul\":8025:8124   */\n    tag_224:\n        /* \"#utility.yul\":8077:8083   */\n      0x00\n        /* \"#utility.yul\":8111:8116   */\n      dup2\n        /* \"#utility.yul\":8105:8117   */\n      mload\n        /* \"#utility.yul\":8095:8117   */\n      swap1\n      pop\n        /* \"#utility.yul\":8025:8124   */\n      swap2\n      swap1\n      pop\n      jump\t// out\n        /* \"#utility.yul\":8130:8299   */\n    tag_225:\n        /* \"#utility.yul\":8214:8225   */\n      0x00\n        /* \"#utility.yul\":8248:8254   */\n      dup3\n        /* \"#utility.yul\":8243:8246   */\n      dup3\n        /* \"#utility.yul\":8236:8255   */\n      mstore\n        /* \"#utility.yul\":8288:8292   */\n      0x20\n        /* \"#utility.yul\":8283:8286   */\n      dup3\n        /* \"#utility.yul\":8279:8293   */\n      add\n        /* \"#utility.yul\":8264:8293   */\n      swap1\n      pop\n        /* \"#utility.yul\":8130:8299   */\n      swap3\n      swap2\n      pop\n      pop\n      jump\t// out\n        /* \"#utility.yul\":8305:8444   */\n    tag_226:\n        /* \"#utility.yul\":8394:8400   */\n      dup3\n        /* \"#utility.yul\":8389:8392   */\n      dup2\n        /* \"#utility.yul\":8384:8387   */\n      dup4\n        /* \"#utility.yul\":8378:8401   */\n      mcopy\n        /* \"#utility.yul\":8435:8436   */\n      0x00\n        /* \"#utility.yul\":8426:8432   */\n      dup4\n        /* \"#utility.yul\":8421:8424   */\n      dup4\n        /* \"#utility.yul\":8417:8433   */\n      add\n        /* \"#utility.yul\":8410:8437   */\n      mstore\n        /* \"#utility.yul\":8305:8444   */\n      pop\n      pop\n      pop\n      jump\t// out\n        /* \"#utility.yul\":8450:8827   */\n    tag_227:\n        /* \"#utility.yul\":8538:8541   */\n      0x00\n        /* \"#utility.yul\":8566:8605   */\n      tag_351\n        /* \"#utility.yul\":8599:8604   */\n      dup3\n        /* \"#utility.yul\":8566:8605   */\n      tag_224\n      jump\t// in\n    tag_351:\n        /* \"#utility.yul\":8621:8692   */\n      tag_352\n        /* \"#utility.yul\":8685:8691   */\n      dup2\n        /* \"#utility.yul\":8680:8683   */\n      dup6\n        /* \"#utility.yul\":8621:8692   */\n      tag_225\n      jump\t// in\n    tag_352:\n        /* \"#utility.yul\":8614:8692   */\n      swap4\n      pop\n        /* \"#utility.yul\":8701:8766   */\n      tag_353\n        /* \"#utility.yul\":8759:8765   */\n      dup2\n        /* \"#utility.yul\":8754:8757   */\n      dup6\n        /* \"#utility.yul\":8747:8751   */\n      0x20\n        /* \"#utility.yul\":8740:8745   */\n      dup7\n        /* \"#utility.yul\":8736:8752   */\n      add\n        /* \"#utility.yul\":8701:8766   */\n      tag_226\n      jump\t// in\n    tag_353:\n        /* \"#utility.yul\":8791:8820   */\n      tag_354\n        /* \"#utility.yul\":8813:8819   */\n      dup2\n        /* \"#utility.yul\":8791:8820   */\n      tag_208\n      jump\t// in\n    tag_354:\n        /* \"#utility.yul\":8786:8789   */\n      dup5\n        /* \"#utility.yul\":8782:8821   */\n      add\n        /* \"#utility.yul\":8775:8821   */\n      swap2\n      pop\n        /* \"#utility.yul\":8542:8827   */\n      pop\n        /* \"#utility.yul\":8450:8827   */\n      swap3\n      swap2\n      pop\n      pop\n      jump\t// out\n        /* \"#utility.yul\":8833:9347   */\n    tag_49:\n        /* \"#utility.yul\":8994:8998   */\n      0x00\n        /* \"#utility.yul\":9032:9034   */\n      0x40\n        /* \"#utility.yul\":9021:9030   */\n      dup3\n        /* \"#utility.yul\":9017:9035   */\n      add\n        /* \"#utility.yul\":9009:9035   */\n      swap1\n      pop\n        /* \"#utility.yul\":9081:9090   */\n      dup2\n        /* \"#utility.yul\":9075:9079   */\n      dup2\n        /* \"#utility.yul\":9071:9091   */\n      sub\n        /* \"#utility.yul\":9067:9068   */\n      0x00\n        /* \"#utility.yul\":9056:9065   */\n      dup4\n        /* \"#utility.yul\":9052:9069   */\n      add\n        /* \"#utility.yul\":9045:9092   */\n      mstore\n        /* \"#utility.yul\":9109:9187   */\n      tag_356\n        /* \"#utility.yul\":9182:9186   */\n      dup2\n        /* \"#utility.yul\":9173:9179   */\n      dup6\n        /* \"#utility.yul\":9109:9187   */\n      tag_227\n      jump\t// in\n    tag_356:\n        /* \"#utility.yul\":9101:9187   */\n      swap1\n      pop\n        /* \"#utility.yul\":9234:9243   */\n      dup2\n        /* \"#utility.yul\":9228:9232   */\n      dup2\n        /* \"#utility.yul\":9224:9244   */\n      sub\n        /* \"#utility.yul\":9219:9221   */\n      0x20\n        /* \"#utility.yul\":9208:9217   */\n      dup4\n        /* \"#utility.yul\":9204:9222   */\n      add\n        /* \"#utility.yul\":9197:9245   */\n      mstore\n        /* \"#utility.yul\":9262:9340   */\n      tag_357\n        /* \"#utility.yul\":9335:9339   */\n      dup2\n        /* \"#utility.yul\":9326:9332   */\n      dup5\n        /* \"#utility.yul\":9262:9340   */\n      tag_227\n      jump\t// in\n    tag_357:\n        /* \"#utility.yul\":9254:9340   */\n      swap1\n      pop\n        /* \"#utility.yul\":8833:9347   */\n      swap4\n      swap3\n      pop\n      pop\n      pop\n      jump\t// out\n        /* \"#utility.yul\":9353:9862   */\n    tag_52:\n        /* \"#utility.yul\":9422:9428   */\n      0x00\n        /* \"#utility.yul\":9471:9473   */\n      0x20\n        /* \"#utility.yul\":9459:9468   */\n      dup3\n        /* \"#utility.yul\":9450:9457   */\n      dup5\n        /* \"#utility.yul\":9446:9469   */\n      sub\n        /* \"#utility.yul\":9442:9474   */\n      slt\n        /* \"#utility.yul\":9439:9558   */\n      iszero\n      tag_359\n      jumpi\n        /* \"#utility.yul\":9477:9556   */\n      tag_360\n      tag_193\n      jump\t// in\n    tag_360:\n        /* \"#utility.yul\":9439:9558   */\n    tag_359:\n        /* \"#utility.yul\":9625:9626   */\n      0x00\n        /* \"#utility.yul\":9614:9623   */\n      dup3\n        /* \"#utility.yul\":9610:9627   */\n      add\n        /* \"#utility.yul\":9597:9628   */\n      calldataload\n        /* \"#utility.yul\":9655:9673   */\n      0xffffffffffffffff\n        /* \"#utility.yul\":9647:9653   */\n      dup2\n        /* \"#utility.yul\":9644:9674   */\n      gt\n        /* \"#utility.yul\":9641:9758   */\n      iszero\n      tag_361\n      jumpi\n        /* \"#utility.yul\":9677:9756   */\n      tag_362\n      tag_194\n      jump\t// in\n    tag_362:\n        /* \"#utility.yul\":9641:9758   */\n    tag_361:\n        /* \"#utility.yul\":9782:9845   */\n      tag_363\n        /* \"#utility.yul\":9837:9844   */\n      dup5\n        /* \"#utility.yul\":9828:9834   */\n      dup3\n        /* \"#utility.yul\":9817:9826   */\n      dup6\n        /* \"#utility.yul\":9813:9835   */\n      add\n        /* \"#utility.yul\":9782:9845   */\n      tag_215\n      jump\t// in\n    tag_363:\n        /* \"#utility.yul\":9772:9845   */\n      swap2\n      pop\n        /* \"#utility.yul\":9568:9855   */\n      pop\n        /* \"#utility.yul\":9353:9862   */\n      swap3\n      swap2\n      pop\n      pop\n      jump\t// out\n        /* \"#utility.yul\":9868:10028   */\n    tag_228:\n        /* \"#utility.yul\":10008:10020   */\n      0x4f6e6c79206f776e657200000000000000000000000000000000000000000000\n        /* \"#utility.yul\":10004:10005   */\n      0x00\n        /* \"#utility.yul\":9996:10002   */\n      dup3\n        /* \"#utility.yul\":9992:10006   */\n      add\n        /* \"#utility.yul\":9985:10021   */\n      mstore\n        /* \"#utility.yul\":9868:10028   */\n      pop\n      jump\t// out\n        /* \"#utility.yul\":10034:10400   */\n    tag_229:\n        /* \"#utility.yul\":10176:10179   */\n      0x00\n        /* \"#utility.yul\":10197:10264   */\n      tag_366\n        /* \"#utility.yul\":10261:10263   */\n      0x0a\n        /* \"#utility.yul\":10256:10259   */\n      dup4\n        /* \"#utility.yul\":10197:10264   */\n      tag_225\n      jump\t// in\n    tag_366:\n        /* \"#utility.yul\":10190:10264   */\n      swap2\n      pop\n        /* \"#utility.yul\":10273:10366   */\n      tag_367\n        /* \"#utility.yul\":10362:10365   */\n      dup3\n        /* \"#utility.yul\":10273:10366   */\n      tag_228\n      jump\t// in\n    tag_367:\n        /* \"#utility.yul\":10391:10393   */\n      0x20\n        /* \"#utility.yul\":10386:10389   */\n      dup3\n        /* \"#utility.yul\":10382:10394   */\n      add\n        /* \"#utility.yul\":10375:10394   */\n      swap1\n      pop\n        /* \"#utility.yul\":10034:10400   */\n      swap2\n      swap1\n      pop\n      jump\t// out\n        /* \"#utility.yul\":10406:10825   */\n    tag_64:\n        /* \"#utility.yul\":10572:10576   */\n      0x00\n        /* \"#utility.yul\":10610:10612   */\n      0x20\n        /* \"#utility.yul\":10599:10608   */\n      dup3\n        /* \"#utility.yul\":10595:10613   */\n      add\n        /* \"#utility.yul\":10587:10613   */\n      swap1\n      pop\n        /* \"#utility.yul\":10659:10668   */\n      dup2\n        /* \"#utility.yul\":10653:10657   */\n      dup2\n        /* \"#utility.yul\":10649:10669   */\n      sub\n        /* \"#utility.yul\":10645:10646   */\n      0x00\n        /* \"#utility.yul\":10634:10643   */\n      dup4\n        /* \"#utility.yul\":10630:10647   */\n      add\n        /* \"#utility.yul\":10623:10670   */\n      mstore\n        /* \"#utility.yul\":10687:10818   */\n      tag_369\n        /* \"#utility.yul\":10813:10817   */\n      dup2\n        /* \"#utility.yul\":10687:10818   */\n      tag_229\n      jump\t// in\n    tag_369:\n        /* \"#utility.yul\":10679:10818   */\n      swap1\n      pop\n        /* \"#utility.yul\":10406:10825   */\n      swap2\n      swap1\n      pop\n      jump\t// out\n        /* \"#utility.yul\":10831:10990   */\n    tag_230:\n        /* \"#utility.yul\":10971:10982   */\n      0x466f7262696464656e0000000000000000000000000000000000000000000000\n        /* \"#utility.yul\":10967:10968   */\n      0x00\n        /* \"#utility.yul\":10959:10965   */\n      dup3\n        /* \"#utility.yul\":10955:10969   */\n      add\n        /* \"#utility.yul\":10948:10983   */\n      mstore\n        /* \"#utility.yul\":10831:10990   */\n      pop\n      jump\t// out\n        /* \"#utility.yul\":10996:11361   */\n    tag_231:\n        /* \"#utility.yul\":11138:11141   */\n      0x00\n        /* \"#utility.yul\":11159:11225   */\n      tag_372\n        /* \"#utility.yul\":11223:11224   */\n      0x09\n        /* \"#utility.yul\":11218:11221   */\n      dup4\n        /* \"#utility.yul\":11159:11225   */\n      tag_225\n      jump\t// in\n    tag_372:\n        /* \"#utility.yul\":11152:11225   */\n      swap2\n      pop\n        /* \"#utility.yul\":11234:11327   */\n      tag_373\n        /* \"#utility.yul\":11323:11326   */\n      dup3\n        /* \"#utility.yul\":11234:11327   */\n      tag_230\n      jump\t// in\n    tag_373:\n        /* \"#utility.yul\":11352:11354   */\n      0x20\n        /* \"#utility.yul\":11347:11350   */\n      dup3\n        /* \"#utility.yul\":11343:11355   */\n      add\n        /* \"#utility.yul\":11336:11355   */\n      swap1\n      pop\n        /* \"#utility.yul\":10996:11361   */\n      swap2\n      swap1\n      pop\n      jump\t// out\n        /* \"#utility.yul\":11367:11786   */\n    tag_89:\n        /* \"#utility.yul\":11533:11537   */\n      0x00\n        /* \"#utility.yul\":11571:11573   */\n      0x20\n        /* \"#utility.yul\":11560:11569   */\n      dup3\n        /* \"#utility.yul\":11556:11574   */\n      add\n        /* \"#utility.yul\":11548:11574   */\n      swap1\n      pop\n        /* \"#utility.yul\":11620:11629   */\n      dup2\n        /* \"#utility.yul\":11614:11618   */\n      dup2\n        /* \"#utility.yul\":11610:11630   */\n      sub\n        /* \"#utility.yul\":11606:11607   */\n      0x00\n        /* \"#utility.yul\":11595:11604   */\n      dup4\n        /* \"#utility.yul\":11591:11608   */\n      add\n        /* \"#utility.yul\":11584:11631   */\n      mstore\n        /* \"#utility.yul\":11648:11779   */\n      tag_375\n        /* \"#utility.yul\":11774:11778   */\n      dup2\n        /* \"#utility.yul\":11648:11779   */\n      tag_231\n      jump\t// in\n    tag_375:\n        /* \"#utility.yul\":11640:11779   */\n      swap1\n      pop\n        /* \"#utility.yul\":11367:11786   */\n      swap2\n      swap1\n      pop\n      jump\t// out\n        /* \"#utility.yul\":11792:11972   */\n    tag_232:\n        /* \"#utility.yul\":11840:11917   */\n      0x4e487b7100000000000000000000000000000000000000000000000000000000\n        /* \"#utility.yul\":11837:11838   */\n      0x00\n        /* \"#utility.yul\":11830:11918   */\n      mstore\n        /* \"#utility.yul\":11937:11941   */\n      0x22\n        /* \"#utility.yul\":11934:11935   */\n      0x04\n        /* \"#utility.yul\":11927:11942   */\n      mstore\n        /* \"#utility.yul\":11961:11965   */\n      0x24\n        /* \"#utility.yul\":11958:11959   */\n      0x00\n        /* \"#utility.yul\":11951:11966   */\n      revert\n        /* \"#utility.yul\":11978:12298   */\n    tag_124:\n        /* \"#utility.yul\":12022:12028   */\n      0x00\n        /* \"#utility.yul\":12059:12060   */\n      0x02\n        /* \"#utility.yul\":12053:12057   */\n      dup3\n        /* \"#utility.yul\":12049:12061   */\n      div\n        /* \"#utility.yul\":12039:12061   */\n      swap1\n      pop\n        /* \"#utility.yul\":12106:12107   */\n      0x01\n        /* \"#utility.yul\":12100:12104   */\n      dup3\n        /* \"#utility.yul\":12096:12108   */\n      and\n        /* \"#utility.yul\":12127:12145   */\n      dup1\n        /* \"#utility.yul\":12117:12198   */\n      tag_378\n      jumpi\n        /* \"#utility.yul\":12183:12187   */\n      0x7f\n        /* \"#utility.yul\":12175:12181   */\n      dup3\n        /* \"#utility.yul\":12171:12188   */\n      and\n        /* \"#utility.yul\":12161:12188   */\n      swap2\n      pop\n        /* \"#utility.yul\":12117:12198   */\n    tag_378:\n        /* \"#utility.yul\":12245:12247   */\n      0x20\n        /* \"#utility.yul\":12237:12243   */\n      dup3\n        /* \"#utility.yul\":12234:12248   */\n      lt\n        /* \"#utility.yul\":12214:12232   */\n      dup2\n        /* \"#utility.yul\":12211:12249   */\n      sub\n        /* \"#utility.yul\":12208:12292   */\n      tag_379\n      jumpi\n        /* \"#utility.yul\":12264:12282   */\n      tag_380\n      tag_232\n      jump\t// in\n    tag_380:\n        /* \"#utility.yul\":12208:12292   */\n    tag_379:\n        /* \"#utility.yul\":12029:12298   */\n      pop\n        /* \"#utility.yul\":11978:12298   */\n      swap2\n      swap1\n      pop\n      jump\t// out\n        /* \"#utility.yul\":12304:12445   */\n    tag_233:\n        /* \"#utility.yul\":12353:12357   */\n      0x00\n        /* \"#utility.yul\":12376:12379   */\n      dup2\n        /* \"#utility.yul\":12368:12379   */\n      swap1\n      pop\n        /* \"#utility.yul\":12399:12402   */\n      dup2\n        /* \"#utility.yul\":12396:12397   */\n      0x00\n        /* \"#utility.yul\":12389:12403   */\n      mstore\n        /* \"#utility.yul\":12433:12437   */\n      0x20\n        /* \"#utility.yul\":12430:12431   */\n      0x00\n        /* \"#utility.yul\":12420:12438   */\n      keccak256\n        /* \"#utility.yul\":12412:12438   */\n      swap1\n      pop\n        /* \"#utility.yul\":12304:12445   */\n      swap2\n      swap1\n      pop\n      jump\t// out\n        /* \"#utility.yul\":12451:12544   */\n    tag_234:\n        /* \"#utility.yul\":12488:12494   */\n      0x00\n        /* \"#utility.yul\":12535:12537   */\n      0x20\n        /* \"#utility.yul\":12530:12532   */\n      0x1f\n        /* \"#utility.yul\":12523:12528   */\n      dup4\n        /* \"#utility.yul\":12519:12533   */\n      add\n        /* \"#utility.yul\":12515:12538   */\n      div\n        /* \"#utility.yul\":12505:12538   */\n      swap1\n      pop\n        /* \"#utility.yul\":12451:12544   */\n      swap2\n      swap1\n      pop\n      jump\t// out\n        /* \"#utility.yul\":12550:12657   */\n    tag_235:\n        /* \"#utility.yul\":12594:12602   */\n      0x00\n        /* \"#utility.yul\":12644:12649   */\n      dup3\n        /* \"#utility.yul\":12638:12642   */\n      dup3\n        /* \"#utility.yul\":12634:12650   */\n      shl\n        /* \"#utility.yul\":12613:12650   */\n      swap1\n      pop\n        /* \"#utility.yul\":12550:12657   */\n      swap3\n      swap2\n      pop\n      pop\n      jump\t// out\n        /* \"#utility.yul\":12663:13056   */\n    tag_236:\n        /* \"#utility.yul\":12732:12738   */\n      0x00\n        /* \"#utility.yul\":12782:12783   */\n      0x08\n        /* \"#utility.yul\":12770:12780   */\n      dup4\n        /* \"#utility.yul\":12766:12784   */\n      mul\n        /* \"#utility.yul\":12805:12902   */\n      tag_385\n        /* \"#utility.yul\":12835:12901   */\n      0xffffffffffffffffffffffffffffffffffffffffffffffffffffffffffffffff\n        /* \"#utility.yul\":12824:12833   */\n      dup3\n        /* \"#utility.yul\":12805:12902   */\n      tag_235\n      jump\t// in\n    tag_385:\n        /* \"#utility.yul\":12923:12962   */\n      tag_386\n        /* \"#utility.yul\":12953:12961   */\n      dup7\n        /* \"#utility.yul\":12942:12951   */\n      dup4\n        /* \"#utility.yul\":12923:12962   */\n      tag_235\n      jump\t// in\n    tag_386:\n        /* \"#utility.yul\":12911:12962   */\n      swap6\n      pop\n        /* \"#utility.yul\":12995:12999   */\n      dup1\n        /* \"#utility.yul\":12991:13000   */\n      not\n        /* \"#utility.yul\":12984:12989   */\n      dup5\n        /* \"#utility.yul\":12980:13001   */\n      and\n        /* \"#utility.yul\":12971:13001   */\n      swap4\n      pop\n        /* \"#utility.yul\":13044:13048   */\n      dup1\n        /* \"#utility.yul\":13034:13042   */\n      dup7\n        /* \"#utility.yul\":13030:13049   */\n      and\n        /* \"#utility.yul\":13023:13028   */\n      dup5\n        /* \"#utility.yul\":13020:13050   */\n      or\n        /* \"#utility.yul\":13010:13050   */\n      swap3\n      pop\n        /* \"#utility.yul\":12739:13056   */\n      pop\n      pop\n        /* \"#utility.yul\":12663:13056   */\n      swap4\n      swap3\n      pop\n      pop\n      pop\n      jump\t// out\n        /* \"#utility.yul\":13062:13139   */\n    tag_237:\n        /* \"#utility.yul\":13099:13106   */\n      0x00\n        /* \"#utility.yul\":13128:13133   */\n      dup2\n        /* \"#utility.yul\":13117:13133   */\n      swap1\n      pop\n        /* \"#utility.yul\":13062:13139   */\n      swap2\n      swap1\n      pop\n      jump\t// out\n        /* \"#utility.yul\":13145:13205   */\n    tag_238:\n        /* \"#utility.yul\":13173:13176   */\n      0x00\n        /* \"#utility.yul\":13194:13199   */\n      dup2\n        /* \"#utility.yul\":13187:13199   */\n      swap1\n      pop\n        /* \"#utility.yul\":13145:13205   */\n      swap2\n      swap1\n      pop\n      jump\t// out\n        /* \"#utility.yul\":13211:13353   */\n    tag_239:\n        /* \"#utility.yul\":13261:13270   */\n      0x00\n        /* \"#utility.yul\":13294:13347   */\n      tag_390\n        /* \"#utility.yul\":13312:13346   */\n      tag_391\n        /* \"#utility.yul\":13321:13345   */\n      tag_392\n        /* \"#utility.yul\":13339:13344   */\n      dup5\n        /* \"#utility.yul\":13321:13345   */\n      tag_237\n      jump\t// in\n    tag_392:\n        /* \"#utility.yul\":13312:13346   */\n      tag_238\n      jump\t// in\n    tag_391:\n        /* \"#utility.yul\":13294:13347   */\n      tag_237\n      jump\t// in\n    tag_390:\n        /* \"#utility.yul\":13281:13347   */\n      swap1\n      pop\n        /* \"#utility.yul\":13211:13353   */\n      swap2\n      swap1\n      pop\n      jump\t// out\n        /* \"#utility.yul\":13359:13434   */\n    tag_240:\n        /* \"#utility.yul\":13402:13405   */\n      0x00\n        /* \"#utility.yul\":13423:13428   */\n      dup2\n        /* \"#utility.yul\":13416:13428   */\n      swap1\n      pop\n        /* \"#utility.yul\":13359:13434   */\n      swap2\n      swap1\n      pop\n      jump\t// out\n        /* \"#utility.yul\":13440:13709   */\n    tag_241:\n        /* \"#utility.yul\":13550:13589   */\n      tag_395\n        /* \"#utility.yul\":13581:13588   */\n      dup4\n        /* \"#utility.yul\":13550:13589   */\n      tag_239\n      jump\t// in\n    tag_395:\n        /* \"#utility.yul\":13611:13702   */\n      tag_396\n        /* \"#utility.yul\":13660:13701   */\n      tag_397\n        /* \"#utility.yul\":13684:13700   */\n      dup3\n        /* \"#utility.yul\":13660:13701   */\n      tag_240\n      jump\t// in\n    tag_397:\n        /* \"#utility.yul\":13652:13658   */\n      dup5\n        /* \"#utility.yul\":13645:13649   */\n      dup5\n        /* \"#utility.yul\":13639:13650   */\n      sload\n        /* \"#utility.yul\":13611:13702   */\n      tag_236\n      jump\t// in\n    tag_396:\n        /* \"#utility.yul\":13605:13609   */\n      dup3\n        /* \"#utility.yul\":13598:13703   */\n      sstore\n        /* \"#utility.yul\":13516:13709   */\n      pop\n        /* \"#utility.yul\":13440:13709   */\n      pop\n      pop\n      pop\n      jump\t// out\n        /* \"#utility.yul\":13715:13788   */\n    tag_242:\n        /* \"#utility.yul\":13760:13763   */\n      0x00\n        /* \"#utility.yul\":13715:13788   */\n      swap1\n      jump\t// out\n        /* \"#utility.yul\":13794:13983   */\n    tag_243:\n        /* \"#utility.yul\":13871:13903   */\n      tag_400\n      tag_242\n      jump\t// in\n    tag_400:\n        /* \"#utility.yul\":13912:13977   */\n      tag_401\n        /* \"#utility.yul\":13970:13976   */\n      dup2\n        /* \"#utility.yul\":13962:13968   */\n      dup5\n        /* \"#utility.yul\":13956:13960   */\n      dup5\n        /* \"#utility.yul\":13912:13977   */\n      tag_241\n      jump\t// in\n    tag_401:\n        /* \"#utility.yul\":13847:13983   */\n      pop\n        /* \"#utility.yul\":13794:13983   */\n      pop\n      pop\n      jump\t// out\n        /* \"#utility.yul\":13989:14175   */\n    tag_244:\n        /* \"#utility.yul\":14049:14169   */\n    tag_403:\n        /* \"#utility.yul\":14066:14069   */\n      dup2\n        /* \"#utility.yul\":14059:14064   */\n      dup2\n        /* \"#utility.yul\":14056:14070   */\n      lt\n        /* \"#utility.yul\":14049:14169   */\n      iszero\n      tag_405\n      jumpi\n        /* \"#utility.yul\":14120:14159   */\n      tag_406\n        /* \"#utility.yul\":14157:14158   */\n      0x00\n        /* \"#utility.yul\":14150:14155   */\n      dup3\n        /* \"#utility.yul\":14120:14159   */\n      tag_243\n      jump\t// in\n    tag_406:\n        /* \"#utility.yul\":14093:14094   */\n      0x01\n        /* \"#utility.yul\":14086:14091   */\n      dup2\n        /* \"#utility.yul\":14082:14095   */\n      add\n        /* \"#utility.yul\":14073:14095   */\n      swap1\n      pop\n        /* \"#utility.yul\":14049:14169   */\n      jump(tag_403)\n    tag_405:\n        /* \"#utility.yul\":13989:14175   */\n      pop\n      pop\n      jump\t// out\n        /* \"#utility.yul\":14181:14724   */\n    tag_245:\n        /* \"#utility.yul\":14282:14284   */\n      0x1f\n        /* \"#utility.yul\":14277:14280   */\n      dup3\n        /* \"#utility.yul\":14274:14285   */\n      gt\n        /* \"#utility.yul\":14271:14717   */\n      iszero\n      tag_408\n      jumpi\n        /* \"#utility.yul\":14316:14354   */\n      tag_409\n        /* \"#utility.yul\":14348:14353   */\n      dup2\n        /* \"#utility.yul\":14316:14354   */\n      tag_233\n      jump\t// in\n    tag_409:\n        /* \"#utility.yul\":14400:14429   */\n      tag_410\n        /* \"#utility.yul\":14418:14428   */\n      dup5\n        /* \"#utility.yul\":14400:14429   */\n      tag_234\n      jump\t// in\n    tag_410:\n        /* \"#utility.yul\":14390:14398   */\n      dup2\n        /* \"#utility.yul\":14386:14430   */\n      add\n        /* \"#utility.yul\":14583:14585   */\n      0x20\n        /* \"#utility.yul\":14571:14581   */\n      dup6\n        /* \"#utility.yul\":14568:14586   */\n      lt\n        /* \"#utility.yul\":14565:14614   */\n      iszero\n      tag_411\n      jumpi\n        /* \"#utility.yul\":14604:14612   */\n      dup2\n        /* \"#utility.yul\":14589:14612   */\n      swap1\n      pop\n        /* \"#utility.yul\":14565:14614   */\n    tag_411:\n        /* \"#utility.yul\":14627:14707   */\n      tag_412\n        /* \"#utility.yul\":14683:14705   */\n      tag_413\n        /* \"#utility.yul\":14701:14704   */\n      dup6\n        /* \"#utility.yul\":14683:14705   */\n      tag_234\n      jump\t// in\n    tag_413:\n        /* \"#utility.yul\":14673:14681   */\n      dup4\n        /* \"#utility.yul\":14669:14706   */\n      add\n        /* \"#utility.yul\":14656:14667   */\n      dup3\n        /* \"#utility.yul\":14627:14707   */\n      tag_244\n      jump\t// in\n    tag_412:\n        /* \"#utility.yul\":14286:14717   */\n      pop\n      pop\n        /* \"#utility.yul\":14271:14717   */\n    tag_408:\n        /* \"#utility.yul\":14181:14724   */\n      pop\n      pop\n      pop\n      jump\t// out\n        /* \"#utility.yul\":14730:14847   */\n    tag_246:\n        /* \"#utility.yul\":14784:14792   */\n      0x00\n        /* \"#utility.yul\":14834:14839   */\n      dup3\n        /* \"#utility.yul\":14828:14832   */\n      dup3\n        /* \"#utility.yul\":14824:14840   */\n      shr\n        /* \"#utility.yul\":14803:14840   */\n      swap1\n      pop\n        /* \"#utility.yul\":14730:14847   */\n      swap3\n      swap2\n      pop\n      pop\n      jump\t// out\n        /* \"#utility.yul\":14853:15022   */\n    tag_247:\n        /* \"#utility.yul\":14897:14903   */\n      0x00\n        /* \"#utility.yul\":14930:14981   */\n      tag_416\n        /* \"#utility.yul\":14978:14979   */\n      0x00\n        /* \"#utility.yul\":14974:14980   */\n      not\n        /* \"#utility.yul\":14966:14971   */\n      dup5\n        /* \"#utility.yul\":14963:14964   */\n      0x08\n        /* \"#utility.yul\":14959:14972   */\n      mul\n        /* \"#utility.yul\":14930:14981   */\n      tag_246\n      jump\t// in\n    tag_416:\n        /* \"#utility.yul\":14926:14982   */\n      not\n        /* \"#utility.yul\":15011:15015   */\n      dup1\n        /* \"#utility.yul\":15005:15009   */\n      dup4\n        /* \"#utility.yul\":15001:15016   */\n      and\n        /* \"#utility.yul\":14991:15016   */\n      swap2\n      pop\n        /* \"#utility.yul\":14904:15022   */\n      pop\n        /* \"#utility.yul\":14853:15022   */\n      swap3\n      swap2\n      pop\n      pop\n      jump\t// out\n        /* \"#utility.yul\":15027:15322   */\n    tag_248:\n        /* \"#utility.yul\":15103:15107   */\n      0x00\n        /* \"#utility.yul\":15249:15278   */\n      tag_418\n        /* \"#utility.yul\":15274:15277   */\n      dup4\n        /* \"#utility.yul\":15268:15272   */\n      dup4\n        /* \"#utility.yul\":15249:15278   */\n      tag_247\n      jump\t// in\n    tag_418:\n        /* \"#utility.yul\":15241:15278   */\n      swap2\n      pop\n        /* \"#utility.yul\":15311:15314   */\n      dup3\n        /* \"#utility.yul\":15308:15309   */\n      0x02\n        /* \"#utility.yul\":15304:15315   */\n      mul\n        /* \"#utility.yul\":15298:15302   */\n      dup3\n        /* \"#utility.yul\":15295:15316   */\n      or\n        /* \"#utility.yul\":15287:15316   */\n      swap1\n      pop\n        /* \"#utility.yul\":15027:15322   */\n      swap3\n      swap2\n      pop\n      pop\n      jump\t// out\n        /* \"#utility.yul\":15327:16722   */\n    tag_97:\n        /* \"#utility.yul\":15444:15481   */\n      tag_420\n        /* \"#utility.yul\":15477:15480   */\n      dup3\n        /* \"#utility.yul\":15444:15481   */\n      tag_224\n      jump\t// in\n    tag_420:\n        /* \"#utility.yul\":15546:15564   */\n      0xffffffffffffffff\n        /* \"#utility.yul\":15538:15544   */\n      dup2\n        /* \"#utility.yul\":15535:15565   */\n      gt\n        /* \"#utility.yul\":15532:15588   */\n      iszero\n      tag_421\n      jumpi\n        /* \"#utility.yul\":15568:15586   */\n      tag_422\n      tag_209\n      jump\t// in\n    tag_422:\n        /* \"#utility.yul\":15532:15588   */\n    tag_421:\n        /* \"#utility.yul\":15612:15650   */\n      tag_423\n        /* \"#utility.yul\":15644:15648   */\n      dup3\n        /* \"#utility.yul\":15638:15649   */\n      sload\n        /* \"#utility.yul\":15612:15650   */\n      tag_124\n      jump\t// in\n    tag_423:\n        /* \"#utility.yul\":15697:15764   */\n      tag_424\n        /* \"#utility.yul\":15757:15763   */\n      dup3\n        /* \"#utility.yul\":15749:15755   */\n      dup3\n        /* \"#utility.yul\":15743:15747   */\n      dup6\n        /* \"#utility.yul\":15697:15764   */\n      tag_245\n      jump\t// in\n    tag_424:\n        /* \"#utility.yul\":15791:15792   */\n      0x00\n        /* \"#utility.yul\":15815:15819   */\n      0x20\n        /* \"#utility.yul\":15802:15819   */\n      swap1\n      pop\n        /* \"#utility.yul\":15847:15849   */\n      0x1f\n        /* \"#utility.yul\":15839:15845   */\n      dup4\n        /* \"#utility.yul\":15836:15850   */\n      gt\n        /* \"#utility.yul\":15864:15865   */\n      0x01\n        /* \"#utility.yul\":15859:16477   */\n      dup2\n      eq\n      tag_426\n      jumpi\n        /* \"#utility.yul\":16521:16522   */\n      0x00\n        /* \"#utility.yul\":16538:16544   */\n      dup5\n        /* \"#utility.yul\":16535:16612   */\n      iszero\n      tag_427\n      jumpi\n        /* \"#utility.yul\":16587:16596   */\n      dup3\n        /* \"#utility.yul\":16582:16585   */\n      dup8\n        /* \"#utility.yul\":16578:16597   */\n      add\n        /* \"#utility.yul\":16572:16598   */\n      mload\n        /* \"#utility.yul\":16563:16598   */\n      swap1\n      pop\n        /* \"#utility.yul\":16535:16612   */\n    tag_427:\n        /* \"#utility.yul\":16638:16705   */\n      tag_428\n        /* \"#utility.yul\":16698:16704   */\n      dup6\n        /* \"#utility.yul\":16691:16696   */\n      dup3\n        /* \"#utility.yul\":16638:16705   */\n      tag_248\n      jump\t// in\n    tag_428:\n        /* \"#utility.yul\":16632:16636   */\n      dup7\n        /* \"#utility.yul\":16625:16706   */\n      sstore\n        /* \"#utility.yul\":16494:16716   */\n      pop\n        /* \"#utility.yul\":15829:16716   */\n      jump(tag_425)\n        /* \"#utility.yul\":15859:16477   */\n    tag_426:\n        /* \"#utility.yul\":15911:15915   */\n      0x1f\n        /* \"#utility.yul\":15907:15916   */\n      not\n        /* \"#utility.yul\":15899:15905   */\n      dup5\n        /* \"#utility.yul\":15895:15917   */\n      and\n        /* \"#utility.yul\":15945:15982   */\n      tag_429\n        /* \"#utility.yul\":15977:15981   */\n      dup7\n        /* \"#utility.yul\":15945:15982   */\n      tag_233\n      jump\t// in\n    tag_429:\n        /* \"#utility.yul\":16004:16005   */\n      0x00\n        /* \"#utility.yul\":16018:16226   */\n    tag_430:\n        /* \"#utility.yul\":16032:16039   */\n      dup3\n        /* \"#utility.yul\":16029:16030   */\n      dup2\n        /* \"#utility.yul\":16026:16040   */\n      lt\n        /* \"#utility.yul\":16018:16226   */\n      iszero\n      tag_432\n      jumpi\n        /* \"#utility.yul\":16111:16120   */\n      dup5\n        /* \"#utility.yul\":16106:16109   */\n      dup10\n        /* \"#utility.yul\":16102:16121   */\n      add\n        /* \"#utility.yul\":16096:16122   */\n      mload\n        /* \"#utility.yul\":16088:16094   */\n      dup3\n        /* \"#utility.yul\":16081:16123   */\n      sstore\n        /* \"#utility.yul\":16162:16163   */\n      0x01\n        /* \"#utility.yul\":16154:16160   */\n      dup3\n        /* \"#utility.yul\":16150:16164   */\n      add\n        /* \"#utility.yul\":16140:16164   */\n      swap2\n      pop\n        /* \"#utility.yul\":16209:16211   */\n      0x20\n        /* \"#utility.yul\":16198:16207   */\n      dup6\n        /* \"#utility.yul\":16194:16212   */\n      add\n        /* \"#utility.yul\":16181:16212   */\n      swap5\n      pop\n        /* \"#utility.yul\":16055:16059   */\n      0x20\n        /* \"#utility.yul\":16052:16053   */\n      dup2\n        /* \"#utility.yul\":16048:16060   */\n      add\n        /* \"#utility.yul\":16043:16060   */\n      swap1\n      pop\n        /* \"#utility.yul\":16018:16226   */\n      jump(tag_430)\n    tag_432:\n        /* \"#utility.yul\":16254:16260   */\n      dup7\n        /* \"#utility.yul\":16245:16252   */\n      dup4\n        /* \"#utility.yul\":16242:16261   */\n      lt\n        /* \"#utility.yul\":16239:16418   */\n      iszero\n      tag_433\n      jumpi\n        /* \"#utility.yul\":16312:16321   */\n      dup5\n        /* \"#utility.yul\":16307:16310   */\n      dup10\n        /* \"#utility.yul\":16303:16322   */\n      add\n        /* \"#utility.yul\":16297:16323   */\n      mload\n        /* \"#utility.yul\":16355:16403   */\n      tag_434\n        /* \"#utility.yul\":16397:16401   */\n      0x1f\n        /* \"#utility.yul\":16389:16395   */\n      dup10\n        /* \"#utility.yul\":16385:16402   */\n      and\n        /* \"#utility.yul\":16374:16383   */\n      dup3\n        /* \"#utility.yul\":16355:16403   */\n      tag_247\n      jump\t// in\n    tag_434:\n        /* \"#utility.yul\":16347:16353   */\n      dup4\n        /* \"#utility.yul\":16340:16404   */\n      sstore\n        /* \"#utility.yul\":16262:16418   */\n      pop\n        /* \"#utility.yul\":16239:16418   */\n    tag_433:\n        /* \"#utility.yul\":16464:16465   */\n      0x01\n        /* \"#utility.yul\":16460:16461   */\n      0x02\n        /* \"#utility.yul\":16452:16458   */\n      dup9\n        /* \"#utility.yul\":16448:16462   */\n      mul\n        /* \"#utility.yul\":16444:16466   */\n      add\n        /* \"#utility.yul\":16438:16442   */\n      dup9\n        /* \"#utility.yul\":16431:16467   */\n      sstore\n        /* \"#utility.yul\":15866:16477   */\n      pop\n      pop\n      pop\n        /* \"#utility.yul\":15829:16716   */\n    tag_425:\n      pop\n        /* \"#utility.yul\":15419:16722   */\n      pop\n      pop\n      pop\n        /* \"#utility.yul\":15327:16722   */\n      pop\n      pop\n      jump\t// out\n        /* \"#utility.yul\":16728:16886   */\n    tag_249:\n        /* \"#utility.yul\":16868:16878   */\n      0x5265737472696374000000000000000000000000000000000000000000000000\n        /* \"#utility.yul\":16864:16865   */\n      0x00\n        /* \"#utility.yul\":16856:16862   */\n      dup3\n        /* \"#utility.yul\":16852:16866   */\n      add\n        /* \"#utility.yul\":16845:16879   */\n      mstore\n        /* \"#utility.yul\":16728:16886   */\n      pop\n      jump\t// out\n        /* \"#utility.yul\":16892:17257   */\n    tag_250:\n        /* \"#utility.yul\":17034:17037   */\n      0x00\n        /* \"#utility.yul\":17055:17121   */\n      tag_437\n        /* \"#utility.yul\":17119:17120   */\n      0x08\n        /* \"#utility.yul\":17114:17117   */\n      dup4\n        /* \"#utility.yul\":17055:17121   */\n      tag_225\n      jump\t// in\n    tag_437:\n        /* \"#utility.yul\":17048:17121   */\n      swap2\n      pop\n        /* \"#utility.yul\":17130:17223   */\n      tag_438\n        /* \"#utility.yul\":17219:17222   */\n      dup3\n        /* \"#utility.yul\":17130:17223   */\n      tag_249\n      jump\t// in\n    tag_438:\n        /* \"#utility.yul\":17248:17250   */\n      0x20\n        /* \"#utility.yul\":17243:17246   */\n      dup3\n        /* \"#utility.yul\":17239:17251   */\n      add\n        /* \"#utility.yul\":17232:17251   */\n      swap1\n      pop\n        /* \"#utility.yul\":16892:17257   */\n      swap2\n      swap1\n      pop\n      jump\t// out\n        /* \"#utility.yul\":17263:17682   */\n    tag_121:\n        /* \"#utility.yul\":17429:17433   */\n      0x00\n        /* \"#utility.yul\":17467:17469   */\n      0x20\n        /* \"#utility.yul\":17456:17465   */\n      dup3\n        /* \"#utility.yul\":17452:17470   */\n      add\n        /* \"#utility.yul\":17444:17470   */\n      swap1\n      pop\n        /* \"#utility.yul\":17516:17525   */\n      dup2\n        /* \"#utility.yul\":17510:17514   */\n      dup2\n        /* \"#utility.yul\":17506:17526   */\n      sub\n        /* \"#utility.yul\":17502:17503   */\n      0x00\n        /* \"#utility.yul\":17491:17500   */\n      dup4\n        /* \"#utility.yul\":17487:17504   */\n      add\n        /* \"#utility.yul\":17480:17527   */\n      mstore\n        /* \"#utility.yul\":17544:17675   */\n      tag_440\n        /* \"#utility.yul\":17670:17674   */\n      dup2\n        /* \"#utility.yul\":17544:17675   */\n      tag_250\n      jump\t// in\n    tag_440:\n        /* \"#utility.yul\":17536:17675   */\n      swap1\n      pop\n        /* \"#utility.yul\":17263:17682   */\n      swap2\n      swap1\n      pop\n      jump\t// out\n        /* \"#utility.yul\":17688:17847   */\n    tag_251:\n        /* \"#utility.yul\":17828:17839   */\n      0x4e6f7420666f756e640000000000000000000000000000000000000000000000\n        /* \"#utility.yul\":17824:17825   */\n      0x00\n        /* \"#utility.yul\":17816:17822   */\n      dup3\n        /* \"#utility.yul\":17812:17826   */\n      add\n        /* \"#utility.yul\":17805:17840   */\n      mstore\n        /* \"#utility.yul\":17688:17847   */\n      pop\n      jump\t// out\n        /* \"#utility.yul\":17853:18218   */\n    tag_252:\n        /* \"#utility.yul\":17995:17998   */\n      0x00\n        /* \"#utility.yul\":18016:18082   */\n      tag_443\n        /* \"#utility.yul\":18080:18081   */\n      0x09\n        /* \"#utility.yul\":18075:18078   */\n      dup4\n        /* \"#utility.yul\":18016:18082   */\n      tag_225\n      jump\t// in\n    tag_443:\n        /* \"#utility.yul\":18009:18082   */\n      swap2\n      pop\n        /* \"#utility.yul\":18091:18184   */\n      tag_444\n        /* \"#utility.yul\":18180:18183   */\n      dup3\n        /* \"#utility.yul\":18091:18184   */\n      tag_251\n      jump\t// in\n    tag_444:\n        /* \"#utility.yul\":18209:18211   */\n      0x20\n        /* \"#utility.yul\":18204:18207   */\n      dup3\n        /* \"#utility.yul\":18200:18212   */\n      add\n        /* \"#utility.yul\":18193:18212   */\n      swap1\n      pop\n        /* \"#utility.yul\":17853:18218   */\n      swap2\n      swap1\n      pop\n      jump\t// out\n        /* \"#utility.yul\":18224:18643   */\n    tag_152:\n        /* \"#utility.yul\":18390:18394   */\n      0x00\n        /* \"#utility.yul\":18428:18430   */\n      0x20\n        /* \"#utility.yul\":18417:18426   */\n      dup3\n        /* \"#utility.yul\":18413:18431   */\n      add\n        /* \"#utility.yul\":18405:18431   */\n      swap1\n      pop\n        /* \"#utility.yul\":18477:18486   */\n      dup2\n        /* \"#utility.yul\":18471:18475   */\n      dup2\n        /* \"#utility.yul\":18467:18487   */\n      sub\n        /* \"#utility.yul\":18463:18464   */\n      0x00\n        /* \"#utility.yul\":18452:18461   */\n      dup4\n        /* \"#utility.yul\":18448:18465   */\n      add\n        /* \"#utility.yul\":18441:18488   */\n      mstore\n        /* \"#utility.yul\":18505:18636   */\n      tag_446\n        /* \"#utility.yul\":18631:18635   */\n      dup2\n        /* \"#utility.yul\":18505:18636   */\n      tag_252\n      jump\t// in\n    tag_446:\n        /* \"#utility.yul\":18497:18636   */\n      swap1\n      pop\n        /* \"#utility.yul\":18224:18643   */\n      swap2\n      swap1\n      pop\n      jump\t// out\n        /* \"#utility.yul\":18649:18829   */\n    tag_168:\n        /* \"#utility.yul\":18697:18774   */\n      0x4e487b7100000000000000000000000000000000000000000000000000000000\n        /* \"#utility.yul\":18694:18695   */\n      0x00\n        /* \"#utility.yul\":18687:18775   */\n      mstore\n        /* \"#utility.yul\":18794:18798   */\n      0x32\n        /* \"#utility.yul\":18791:18792   */\n      0x04\n        /* \"#utility.yul\":18784:18799   */\n      mstore\n        /* \"#utility.yul\":18818:18822   */\n      0x24\n        /* \"#utility.yul\":18815:18816   */\n      0x00\n        /* \"#utility.yul\":18808:18823   */\n      revert\n        /* \"#utility.yul\":18835:18991   */\n    tag_253:\n        /* \"#utility.yul\":18975:18983   */\n      0x4e6f206964780000000000000000000000000000000000000000000000000000\n        /* \"#utility.yul\":18971:18972   */\n      0x00\n        /* \"#utility.yul\":18963:18969   */\n      dup3\n        /* \"#utility.yul\":18959:18973   */\n      add\n        /* \"#utility.yul\":18952:18984   */\n      mstore\n        /* \"#utility.yul\":18835:18991   */\n      pop\n      jump\t// out\n        /* \"#utility.yul\":18997:19362   */\n    tag_254:\n        /* \"#utility.yul\":19139:19142   */\n      0x00\n        /* \"#utility.yul\":19160:19226   */\n      tag_450\n        /* \"#utility.yul\":19224:19225   */\n      0x06\n        /* \"#utility.yul\":19219:19222   */\n      dup4\n        /* \"#utility.yul\":19160:19226   */\n      tag_225\n      jump\t// in\n    tag_450:\n        /* \"#utility.yul\":19153:19226   */\n      swap2\n      pop\n        /* \"#utility.yul\":19235:19328   */\n      tag_451\n        /* \"#utility.yul\":19324:19327   */\n      dup3\n        /* \"#utility.yul\":19235:19328   */\n      tag_253\n      jump\t// in\n    tag_451:\n        /* \"#utility.yul\":19353:19355   */\n      0x20\n        /* \"#utility.yul\":19348:19351   */\n      dup3\n        /* \"#utility.yul\":19344:19356   */\n      add\n        /* \"#utility.yul\":19337:19356   */\n      swap1\n      pop\n        /* \"#utility.yul\":18997:19362   */\n      swap2\n      swap1\n      pop\n      jump\t// out\n        /* \"#utility.yul\":19368:19787   */\n    tag_174:\n        /* \"#utility.yul\":19534:19538   */\n      0x00\n        /* \"#utility.yul\":19572:19574   */\n      0x20\n        /* \"#utility.yul\":19561:19570   */\n      dup3\n        /* \"#utility.yul\":19557:19575   */\n      add\n        /* \"#utility.yul\":19549:19575   */\n      swap1\n      pop\n        /* \"#utility.yul\":19621:19630   */\n      dup2\n        /* \"#utility.yul\":19615:19619   */\n      dup2\n        /* \"#utility.yul\":19611:19631   */\n      sub\n        /* \"#utility.yul\":19607:19608   */\n      0x00\n        /* \"#utility.yul\":19596:19605   */\n      dup4\n        /* \"#utility.yul\":19592:19609   */\n      add\n        /* \"#utility.yul\":19585:19632   */\n      mstore\n        /* \"#utility.yul\":19649:19780   */\n      tag_453\n        /* \"#utility.yul\":19775:19779   */\n      dup2\n        /* \"#utility.yul\":19649:19780   */\n      tag_254\n      jump\t// in\n    tag_453:\n        /* \"#utility.yul\":19641:19780   */\n      swap1\n      pop\n        /* \"#utility.yul\":19368:19787   */\n      swap2\n      swap1\n      pop\n      jump\t// out\n        /* \"#utility.yul\":19793:19973   */\n    tag_255:\n        /* \"#utility.yul\":19841:19918   */\n      0x4e487b7100000000000000000000000000000000000000000000000000000000\n        /* \"#utility.yul\":19838:19839   */\n      0x00\n        /* \"#utility.yul\":19831:19919   */\n      mstore\n        /* \"#utility.yul\":19938:19942   */\n      0x11\n        /* \"#utility.yul\":19935:19936   */\n      0x04\n        /* \"#utility.yul\":19928:19943   */\n      mstore\n        /* \"#utility.yul\":19962:19966   */\n      0x24\n        /* \"#utility.yul\":19959:19960   */\n      0x00\n        /* \"#utility.yul\":19952:19967   */\n      revert\n        /* \"#utility.yul\":19979:20173   */\n    tag_179:\n        /* \"#utility.yul\":20019:20023   */\n      0x00\n        /* \"#utility.yul\":20039:20059   */\n      tag_456\n        /* \"#utility.yul\":20057:20058   */\n      dup3\n        /* \"#utility.yul\":20039:20059   */\n      tag_237\n      jump\t// in\n    tag_456:\n        /* \"#utility.yul\":20034:20059   */\n      swap2\n      pop\n        /* \"#utility.yul\":20073:20093   */\n      tag_457\n        /* \"#utility.yul\":20091:20092   */\n      dup4\n        /* \"#utility.yul\":20073:20093   */\n      tag_237\n      jump\t// in\n    tag_457:\n        /* \"#utility.yul\":20068:20093   */\n      swap3\n      pop\n        /* \"#utility.yul\":20117:20118   */\n      dup3\n        /* \"#utility.yul\":20114:20115   */\n      dup3\n        /* \"#utility.yul\":20110:20119   */\n      sub\n        /* \"#utility.yul\":20102:20119   */\n      swap1\n      pop\n        /* \"#utility.yul\":20141:20142   */\n      dup2\n        /* \"#utility.yul\":20135:20139   */\n      dup2\n        /* \"#utility.yul\":20132:20143   */\n      gt\n        /* \"#utility.yul\":20129:20166   */\n      iszero\n      tag_458\n      jumpi\n        /* \"#utility.yul\":20146:20164   */\n      tag_459\n      tag_255\n      jump\t// in\n    tag_459:\n        /* \"#utility.yul\":20129:20166   */\n    tag_458:\n        /* \"#utility.yul\":19979:20173   */\n      swap3\n      swap2\n      pop\n      pop\n      jump\t// out\n        /* \"#utility.yul\":20179:20370   */\n    tag_181:\n        /* \"#utility.yul\":20219:20222   */\n      0x00\n        /* \"#utility.yul\":20238:20258   */\n      tag_461\n        /* \"#utility.yul\":20256:20257   */\n      dup3\n        /* \"#utility.yul\":20238:20258   */\n      tag_237\n      jump\t// in\n    tag_461:\n        /* \"#utility.yul\":20233:20258   */\n      swap2\n      pop\n        /* \"#utility.yul\":20272:20292   */\n      tag_462\n        /* \"#utility.yul\":20290:20291   */\n      dup4\n        /* \"#utility.yul\":20272:20292   */\n      tag_237\n      jump\t// in\n    tag_462:\n        /* \"#utility.yul\":20267:20292   */\n      swap3\n      pop\n        /* \"#utility.yul\":20315:20316   */\n      dup3\n        /* \"#utility.yul\":20312:20313   */\n      dup3\n        /* \"#utility.yul\":20308:20317   */\n      add\n        /* \"#utility.yul\":20301:20317   */\n      swap1\n      pop\n        /* \"#utility.yul\":20336:20339   */\n      dup1\n        /* \"#utility.yul\":20333:20334   */\n      dup3\n        /* \"#utility.yul\":20330:20340   */\n      gt\n        /* \"#utility.yul\":20327:20363   */\n      iszero\n      tag_463\n      jumpi\n        /* \"#utility.yul\":20343:20361   */\n      tag_464\n      tag_255\n      jump\t// in\n    tag_464:\n        /* \"#utility.yul\":20327:20363   */\n    tag_463:\n        /* \"#utility.yul\":20179:20370   */\n      swap3\n      swap2\n      pop\n      pop\n      jump\t// out\n        /* \"#utility.yul\":20376:20556   */\n    tag_190:\n        /* \"#utility.yul\":20424:20501   */\n      0x4e487b7100000000000000000000000000000000000000000000000000000000\n        /* \"#utility.yul\":20421:20422   */\n      0x00\n        /* \"#utility.yul\":20414:20502   */\n      mstore\n        /* \"#utility.yul\":20521:20525   */\n      0x31\n        /* \"#utility.yul\":20518:20519   */\n      0x04\n        /* \"#utility.yul\":20511:20526   */\n      mstore\n        /* \"#utility.yul\":20545:20549   */\n      0x24\n        /* \"#utility.yul\":20542:20543   */\n      0x00\n        /* \"#utility.yul\":20535:20550   */\n      revert\n\n    auxdata: 0xa2646970667358221220518ebc44193fa0da5b31446da1f189cbbfdae4eb56a762d849335541202385fc64736f6c634300081a0033\n}\n",
				"bytecode": {
					"linkReferences": {},
					"object": "608060405234801561000f575f80fd5b5060405161278838038061278883398181016040528101906100319190610368565b835f8383835f90816100439190610611565b508260015f6101000a81548160ff02191690836003811115610068576100676106e0565b5b0217905550816001806101000a81548173ffffffffffffffffffffffffffffffffffffffff021916908373ffffffffffffffffffffffffffffffffffffffff1602179055508060025f6101000a81548173ffffffffffffffffffffffffffffffffffffffff021916908373ffffffffffffffffffffffffffffffffffffffff1602179055505050505082600490816101009190610611565b50816001806101000a81548173ffffffffffffffffffffffffffffffffffffffff021916908373ffffffffffffffffffffffffffffffffffffffff1602179055508060025f6101000a81548173ffffffffffffffffffffffffffffffffffffffff021916908373ffffffffffffffffffffffffffffffffffffffff1602179055507f1449abf21e49fd025f33495e77f7b1461caefdd3d4bb646424a3f445c4576a5b336040516101b0919061071c565b60405180910390a150505050610735565b5f604051905090565b5f80fd5b5f80fd5b5f80fd5b5f80fd5b5f601f19601f8301169050919050565b7f4e487b71000000000000000000000000000000000000000000000000000000005f52604160045260245ffd5b610220826101da565b810181811067ffffffffffffffff8211171561023f5761023e6101ea565b5b80604052505050565b5f6102516101c1565b905061025d8282610217565b919050565b5f67ffffffffffffffff82111561027c5761027b6101ea565b5b610285826101da565b9050602081019050919050565b8281835e5f83830152505050565b5f6102b26102ad84610262565b610248565b9050828152602081018484840111156102ce576102cd6101d6565b5b6102d9848285610292565b509392505050565b5f82601f8301126102f5576102f46101d2565b5b81516103058482602086016102a0565b91505092915050565b5f73ffffffffffffffffffffffffffffffffffffffff82169050919050565b5f6103378261030e565b9050919050565b6103478161032d565b8114610351575f80fd5b50565b5f815190506103628161033e565b92915050565b5f805f80608085870312156103805761037f6101ca565b5b5f85015167ffffffffffffffff81111561039d5761039c6101ce565b5b6103a9878288016102e1565b945050602085015167ffffffffffffffff8111156103ca576103c96101ce565b5b6103d6878288016102e1565b93505060406103e787828801610354565b92505060606103f887828801610354565b91505092959194509250565b5f81519050919050565b7f4e487b71000000000000000000000000000000000000000000000000000000005f52602260045260245ffd5b5f600282049050600182168061045257607f821691505b6020821081036104655761046461040e565b5b50919050565b5f819050815f5260205f209050919050565b5f6020601f8301049050919050565b5f82821b905092915050565b5f600883026104c77fffffffffffffffffffffffffffffffffffffffffffffffffffffffffffffffff8261048c565b6104d1868361048c565b95508019841693508086168417925050509392505050565b5f819050919050565b5f819050919050565b5f61051561051061050b846104e9565b6104f2565b6104e9565b9050919050565b5f819050919050565b61052e836104fb565b61054261053a8261051c565b848454610498565b825550505050565b5f90565b61055661054a565b610561818484610525565b505050565b5b81811015610584576105795f8261054e565b600181019050610567565b5050565b601f8211156105c95761059a8161046b565b6105a38461047d565b810160208510156105b2578190505b6105c66105be8561047d565b830182610566565b50505b505050565b5f82821c905092915050565b5f6105e95f19846008026105ce565b1980831691505092915050565b5f61060183836105da565b9150826002028217905092915050565b61061a82610404565b67ffffffffffffffff811115610633576106326101ea565b5b61063d825461043b565b610648828285610588565b5f60209050601f831160018114610679575f8415610667578287015190505b61067185826105f6565b8655506106d8565b601f1984166106878661046b565b5f5b828110156106ae57848901518255600182019150602085019450602081019050610689565b868310156106cb57848901516106c7601f8916826105da565b8355505b6001600288020188555050505b505050505050565b7f4e487b71000000000000000000000000000000000000000000000000000000005f52602160045260245ffd5b6107168161032d565b82525050565b5f60208201905061072f5f83018461070d565b92915050565b612046806107425f395ff3fe608060405234801561000f575f80fd5b50600436106100b2575f3560e01c8063a95264d01161006f578063a95264d014610164578063b9daf3e214610182578063ba379e86146101a0578063c47f0027146101bf578063ded92dac146101db578063efd8af9f146101f7576100b2565b80631499c592146100b65780632858d3c8146100d25780634ba83374146100f05780635da6ef8d1461010e5780637a4c982e1461012a57806380f7602114610146575b5f80fd5b6100d060048036038101906100cb91906115d2565b610213565b005b6100da610372565b6040516100e79190611670565b60405180910390f35b6100f861046c565b60405161010591906116a3565b60405180910390f35b610128600480360381019061012391906115d2565b610522565b005b610144600480360381019061013f91906117f8565b6107e8565b005b61014e610927565b60405161015b919061187d565b60405180910390f35b61016c610a34565b604051610179919061194d565b60405180910390f35b61018a610ba4565b60405161019791906116a3565b60405180910390f35b6101a8610c50565b6040516101b69291906119cd565b60405180910390f35b6101d960048036038101906101d49190611a02565b610eb7565b005b6101f560048036038101906101f091906115d2565b610fe5565b005b610211600480360381019061020c9190611a02565b611238565b005b60018054906101000a900473ffffffffffffffffffffffffffffffffffffffff1673ffffffffffffffffffffffffffffffffffffffff163373ffffffffffffffffffffffffffffffffffffffff1614806102b9575060025f9054906101000a900473ffffffffffffffffffffffffffffffffffffffff1673ffffffffffffffffffffffffffffffffffffffff163373ffffffffffffffffffffffffffffffffffffffff16145b6102f8576040517f08c379a00000000000000000000000000000000000000000000000000000000081526004016102ef90611a93565b60405180910390fd5b8060025f6101000a81548173ffffffffffffffffffffffffffffffffffffffff021916908373ffffffffffffffffffffffffffffffffffffffff1602179055507fe00da2178806f37f69815e9ed5ed3072ec1d55206d60916d99b469c7daa421e433604051610367919061187d565b60405180910390a150565b5f60018054906101000a900473ffffffffffffffffffffffffffffffffffffffff1673ffffffffffffffffffffffffffffffffffffffff163373ffffffffffffffffffffffffffffffffffffffff161480610419575060025f9054906101000a900473ffffffffffffffffffffffffffffffffffffffff1673ffffffffffffffffffffffffffffffffffffffff163373ffffffffffffffffffffffffffffffffffffffff16145b610458576040517f08c379a000000000000000000000000000000000000000000000000000000000815260040161044f90611a93565b60405180910390fd5b60015f9054906101000a900460ff16905090565b5f7fffffffffffffffffffffffffffffffffffffffffffffffffffffffffffffffff61051b33600380548060200260200160405190810160405280929190818152602001828054801561051157602002820191905f5260205f20905b815f9054906101000a900473ffffffffffffffffffffffffffffffffffffffff1673ffffffffffffffffffffffffffffffffffffffff16815260200190600101908083116104c8575b5050505050611367565b1415905090565b60018054906101000a900473ffffffffffffffffffffffffffffffffffffffff1673ffffffffffffffffffffffffffffffffffffffff163373ffffffffffffffffffffffffffffffffffffffff1614806105c8575060025f9054906101000a900473ffffffffffffffffffffffffffffffffffffffff1673ffffffffffffffffffffffffffffffffffffffff163373ffffffffffffffffffffffffffffffffffffffff16145b610607576040517f08c379a00000000000000000000000000000000000000000000000000000000081526004016105fe90611a93565b60405180910390fd5b60018054906101000a900473ffffffffffffffffffffffffffffffffffffffff1673ffffffffffffffffffffffffffffffffffffffff168173ffffffffffffffffffffffffffffffffffffffff161415801561068f57505f73ffffffffffffffffffffffffffffffffffffffff168173ffffffffffffffffffffffffffffffffffffffff1614155b801561074657507fffffffffffffffffffffffffffffffffffffffffffffffffffffffffffffffff61074482600380548060200260200160405190810160405280929190818152602001828054801561073a57602002820191905f5260205f20905b815f9054906101000a900473ffffffffffffffffffffffffffffffffffffffff1673ffffffffffffffffffffffffffffffffffffffff16815260200190600101908083116106f1575b5050505050611367565b145b610785576040517f08c379a000000000000000000000000000000000000000000000000000000000815260040161077c90611afb565b60405180910390fd5b600381908060018154018082558091505060019003905f5260205f20015f9091909190916101000a81548173ffffffffffffffffffffffffffffffffffffffff021916908373ffffffffffffffffffffffffffffffffffffffff16021790555050565b60018054906101000a900473ffffffffffffffffffffffffffffffffffffffff1673ffffffffffffffffffffffffffffffffffffffff163373ffffffffffffffffffffffffffffffffffffffff16148061088e575060025f9054906101000a900473ffffffffffffffffffffffffffffffffffffffff1673ffffffffffffffffffffffffffffffffffffffff163373ffffffffffffffffffffffffffffffffffffffff16145b6108cd576040517f08c379a00000000000000000000000000000000000000000000000000000000081526004016108c490611a93565b60405180910390fd5b815f90816108db9190611d1c565b5080600490816108eb9190611d1c565b507fe00da2178806f37f69815e9ed5ed3072ec1d55206d60916d99b469c7daa421e43360405161091b919061187d565b60405180910390a15050565b5f60018054906101000a900473ffffffffffffffffffffffffffffffffffffffff1673ffffffffffffffffffffffffffffffffffffffff163373ffffffffffffffffffffffffffffffffffffffff1614806109ce575060025f9054906101000a900473ffffffffffffffffffffffffffffffffffffffff1673ffffffffffffffffffffffffffffffffffffffff163373ffffffffffffffffffffffffffffffffffffffff16145b610a0d576040517f08c379a0000000000000000000000000000000000000000000000000000000008152600401610a0490611a93565b60405180910390fd5b60025f9054906101000a900473ffffffffffffffffffffffffffffffffffffffff16905090565b606060018054906101000a900473ffffffffffffffffffffffffffffffffffffffff1673ffffffffffffffffffffffffffffffffffffffff163373ffffffffffffffffffffffffffffffffffffffff161480610adc575060025f9054906101000a900473ffffffffffffffffffffffffffffffffffffffff1673ffffffffffffffffffffffffffffffffffffffff163373ffffffffffffffffffffffffffffffffffffffff16145b610b1b576040517f08c379a0000000000000000000000000000000000000000000000000000000008152600401610b1290611a93565b60405180910390fd5b6003805480602002602001604051908101604052809291908181526020018280548015610b9a57602002820191905f5260205f20905b815f9054906101000a900473ffffffffffffffffffffffffffffffffffffffff1673ffffffffffffffffffffffffffffffffffffffff1681526020019060010190808311610b51575b5050505050905090565b5f60018054906101000a900473ffffffffffffffffffffffffffffffffffffffff1673ffffffffffffffffffffffffffffffffffffffff163373ffffffffffffffffffffffffffffffffffffffff161480610c4b575060025f9054906101000a900473ffffffffffffffffffffffffffffffffffffffff1673ffffffffffffffffffffffffffffffffffffffff163373ffffffffffffffffffffffffffffffffffffffff16145b905090565b60608060018054906101000a900473ffffffffffffffffffffffffffffffffffffffff1673ffffffffffffffffffffffffffffffffffffffff163373ffffffffffffffffffffffffffffffffffffffff161480610d5957507fffffffffffffffffffffffffffffffffffffffffffffffffffffffffffffffff610d56336003805480602002602001604051908101604052809291908181526020018280548015610d4c57602002820191905f5260205f20905b815f9054906101000a900473ffffffffffffffffffffffffffffffffffffffff1673ffffffffffffffffffffffffffffffffffffffff1681526020019060010190808311610d03575b5050505050611367565b14155b610d98576040517f08c379a0000000000000000000000000000000000000000000000000000000008152600401610d8f90611e35565b60405180910390fd5b5f6004818054610da790611b46565b80601f0160208091040260200160405190810160405280929190818152602001828054610dd390611b46565b8015610e1e5780601f10610df557610100808354040283529160200191610e1e565b820191905f5260205f20905b815481529060010190602001808311610e0157829003601f168201915b50505050509150808054610e3190611b46565b80601f0160208091040260200160405190810160405280929190818152602001828054610e5d90611b46565b8015610ea85780601f10610e7f57610100808354040283529160200191610ea8565b820191905f5260205f20905b815481529060010190602001808311610e8b57829003601f168201915b50505050509050915091509091565b60018054906101000a900473ffffffffffffffffffffffffffffffffffffffff1673ffffffffffffffffffffffffffffffffffffffff163373ffffffffffffffffffffffffffffffffffffffff161480610f5d575060025f9054906101000a900473ffffffffffffffffffffffffffffffffffffffff1673ffffffffffffffffffffffffffffffffffffffff163373ffffffffffffffffffffffffffffffffffffffff16145b610f9c576040517f08c379a0000000000000000000000000000000000000000000000000000000008152600401610f9390611a93565b60405180910390fd5b805f9081610faa9190611d1c565b507fe00da2178806f37f69815e9ed5ed3072ec1d55206d60916d99b469c7daa421e433604051610fda919061187d565b60405180910390a150565b5f73ffffffffffffffffffffffffffffffffffffffff168173ffffffffffffffffffffffffffffffffffffffff161415806110f8575060025f9054906101000a900473ffffffffffffffffffffffffffffffffffffffff1673ffffffffffffffffffffffffffffffffffffffff163373ffffffffffffffffffffffffffffffffffffffff1614806110c1575060018054906101000a900473ffffffffffffffffffffffffffffffffffffffff1673ffffffffffffffffffffffffffffffffffffffff163373ffffffffffffffffffffffffffffffffffffffff16145b806110f757508073ffffffffffffffffffffffffffffffffffffffff163373ffffffffffffffffffffffffffffffffffffffff16145b5b611137576040517f08c379a000000000000000000000000000000000000000000000000000000000815260040161112e90611afb565b60405180910390fd5b5f6111c58260038054806020026020016040519081016040528092919081815260200182805480156111bb57602002820191905f5260205f20905b815f9054906101000a900473ffffffffffffffffffffffffffffffffffffffff1673ffffffffffffffffffffffffffffffffffffffff1681526020019060010190808311611172575b5050505050611367565b90507fffffffffffffffffffffffffffffffffffffffffffffffffffffffffffffffff8113611229576040517f08c379a000000000000000000000000000000000000000000000000000000000815260040161122090611e9d565b60405180910390fd5b611234816003611404565b5050565b60018054906101000a900473ffffffffffffffffffffffffffffffffffffffff1673ffffffffffffffffffffffffffffffffffffffff163373ffffffffffffffffffffffffffffffffffffffff1614806112de575060025f9054906101000a900473ffffffffffffffffffffffffffffffffffffffff1673ffffffffffffffffffffffffffffffffffffffff163373ffffffffffffffffffffffffffffffffffffffff16145b61131d576040517f08c379a000000000000000000000000000000000000000000000000000000000815260040161131490611a93565b60405180910390fd5b806004908161132c9190611d1c565b507fe00da2178806f37f69815e9ed5ed3072ec1d55206d60916d99b469c7daa421e43360405161135c919061187d565b60405180910390a150565b5f805f90505b82518110156113d9578373ffffffffffffffffffffffffffffffffffffffff168382815181106113a05761139f611ebb565b5b602002602001015173ffffffffffffffffffffffffffffffffffffffff16036113cc57809150506113fe565b808060010191505061136d565b507fffffffffffffffffffffffffffffffffffffffffffffffffffffffffffffffff90505b92915050565b5f82121580156114175750808054905082105b611456576040517f08c379a000000000000000000000000000000000000000000000000000000000815260040161144d90611f32565b60405180910390fd5b5f8290505b6001828054905061146c9190611f7d565b81101561151f57816001826114819190611fb0565b8154811061149257611491611ebb565b5b905f5260205f20015f9054906101000a900473ffffffffffffffffffffffffffffffffffffffff168282815481106114cd576114cc611ebb565b5b905f5260205f20015f6101000a81548173ffffffffffffffffffffffffffffffffffffffff021916908373ffffffffffffffffffffffffffffffffffffffff160217905550808060010191505061145b565b508080548061153157611530611fe3565b5b600190038181905f5260205f20015f6101000a81549073ffffffffffffffffffffffffffffffffffffffff021916905590555050565b5f604051905090565b5f80fd5b5f80fd5b5f73ffffffffffffffffffffffffffffffffffffffff82169050919050565b5f6115a182611578565b9050919050565b6115b181611597565b81146115bb575f80fd5b50565b5f813590506115cc816115a8565b92915050565b5f602082840312156115e7576115e6611570565b5b5f6115f4848285016115be565b91505092915050565b7f4e487b71000000000000000000000000000000000000000000000000000000005f52602160045260245ffd5b6004811061163b5761163a6115fd565b5b50565b5f81905061164b8261162a565b919050565b5f61165a8261163e565b9050919050565b61166a81611650565b82525050565b5f6020820190506116835f830184611661565b92915050565b5f8115159050919050565b61169d81611689565b82525050565b5f6020820190506116b65f830184611694565b92915050565b5f80fd5b5f80fd5b5f601f19601f8301169050919050565b7f4e487b71000000000000000000000000000000000000000000000000000000005f52604160045260245ffd5b61170a826116c4565b810181811067ffffffffffffffff82111715611729576117286116d4565b5b80604052505050565b5f61173b611567565b90506117478282611701565b919050565b5f67ffffffffffffffff821115611766576117656116d4565b5b61176f826116c4565b9050602081019050919050565b828183375f83830152505050565b5f61179c6117978461174c565b611732565b9050828152602081018484840111156117b8576117b76116c0565b5b6117c384828561177c565b509392505050565b5f82601f8301126117df576117de6116bc565b5b81356117ef84826020860161178a565b91505092915050565b5f806040838503121561180e5761180d611570565b5b5f83013567ffffffffffffffff81111561182b5761182a611574565b5b611837858286016117cb565b925050602083013567ffffffffffffffff81111561185857611857611574565b5b611864858286016117cb565b9150509250929050565b61187781611597565b82525050565b5f6020820190506118905f83018461186e565b92915050565b5f81519050919050565b5f82825260208201905092915050565b5f819050602082019050919050565b6118c881611597565b82525050565b5f6118d983836118bf565b60208301905092915050565b5f602082019050919050565b5f6118fb82611896565b61190581856118a0565b9350611910836118b0565b805f5b8381101561194057815161192788826118ce565b9750611932836118e5565b925050600181019050611913565b5085935050505092915050565b5f6020820190508181035f83015261196581846118f1565b905092915050565b5f81519050919050565b5f82825260208201905092915050565b8281835e5f83830152505050565b5f61199f8261196d565b6119a98185611977565b93506119b9818560208601611987565b6119c2816116c4565b840191505092915050565b5f6040820190508181035f8301526119e58185611995565b905081810360208301526119f98184611995565b90509392505050565b5f60208284031215611a1757611a16611570565b5b5f82013567ffffffffffffffff811115611a3457611a33611574565b5b611a40848285016117cb565b91505092915050565b7f4f6e6c79206f776e6572000000000000000000000000000000000000000000005f82015250565b5f611a7d600a83611977565b9150611a8882611a49565b602082019050919050565b5f6020820190508181035f830152611aaa81611a71565b9050919050565b7f466f7262696464656e00000000000000000000000000000000000000000000005f82015250565b5f611ae5600983611977565b9150611af082611ab1565b602082019050919050565b5f6020820190508181035f830152611b1281611ad9565b9050919050565b7f4e487b71000000000000000000000000000000000000000000000000000000005f52602260045260245ffd5b5f6002820490506001821680611b5d57607f821691505b602082108103611b7057611b6f611b19565b5b50919050565b5f819050815f5260205f209050919050565b5f6020601f8301049050919050565b5f82821b905092915050565b5f60088302611bd27fffffffffffffffffffffffffffffffffffffffffffffffffffffffffffffffff82611b97565b611bdc8683611b97565b95508019841693508086168417925050509392505050565b5f819050919050565b5f819050919050565b5f611c20611c1b611c1684611bf4565b611bfd565b611bf4565b9050919050565b5f819050919050565b611c3983611c06565b611c4d611c4582611c27565b848454611ba3565b825550505050565b5f90565b611c61611c55565b611c6c818484611c30565b505050565b5b81811015611c8f57611c845f82611c59565b600181019050611c72565b5050565b601f821115611cd457611ca581611b76565b611cae84611b88565b81016020851015611cbd578190505b611cd1611cc985611b88565b830182611c71565b50505b505050565b5f82821c905092915050565b5f611cf45f1984600802611cd9565b1980831691505092915050565b5f611d0c8383611ce5565b9150826002028217905092915050565b611d258261196d565b67ffffffffffffffff811115611d3e57611d3d6116d4565b5b611d488254611b46565b611d53828285611c93565b5f60209050601f831160018114611d84575f8415611d72578287015190505b611d7c8582611d01565b865550611de3565b601f198416611d9286611b76565b5f5b82811015611db957848901518255600182019150602085019450602081019050611d94565b86831015611dd65784890151611dd2601f891682611ce5565b8355505b6001600288020188555050505b505050505050565b7f52657374726963740000000000000000000000000000000000000000000000005f82015250565b5f611e1f600883611977565b9150611e2a82611deb565b602082019050919050565b5f6020820190508181035f830152611e4c81611e13565b9050919050565b7f4e6f7420666f756e6400000000000000000000000000000000000000000000005f82015250565b5f611e87600983611977565b9150611e9282611e53565b602082019050919050565b5f6020820190508181035f830152611eb481611e7b565b9050919050565b7f4e487b71000000000000000000000000000000000000000000000000000000005f52603260045260245ffd5b7f4e6f2069647800000000000000000000000000000000000000000000000000005f82015250565b5f611f1c600683611977565b9150611f2782611ee8565b602082019050919050565b5f6020820190508181035f830152611f4981611f10565b9050919050565b7f4e487b71000000000000000000000000000000000000000000000000000000005f52601160045260245ffd5b5f611f8782611bf4565b9150611f9283611bf4565b9250828203905081811115611faa57611fa9611f50565b5b92915050565b5f611fba82611bf4565b9150611fc583611bf4565b9250828201905080821115611fdd57611fdc611f50565b5b92915050565b7f4e487b71000000000000000000000000000000000000000000000000000000005f52603160045260245ffdfea2646970667358221220518ebc44193fa0da5b31446da1f189cbbfdae4eb56a762d849335541202385fc64736f6c634300081a0033",
					"opcodes": "PUSH1 0x80 PUSH1 0x40 MSTORE CALLVALUE DUP1 ISZERO PUSH2 0xF JUMPI PUSH0 DUP1 REVERT JUMPDEST POP PUSH1 0x40 MLOAD PUSH2 0x2788 CODESIZE SUB DUP1 PUSH2 0x2788 DUP4 CODECOPY DUP2 DUP2 ADD PUSH1 0x40 MSTORE DUP2 ADD SWAP1 PUSH2 0x31 SWAP2 SWAP1 PUSH2 0x368 JUMP JUMPDEST DUP4 PUSH0 DUP4 DUP4 DUP4 PUSH0 SWAP1 DUP2 PUSH2 0x43 SWAP2 SWAP1 PUSH2 0x611 JUMP JUMPDEST POP DUP3 PUSH1 0x1 PUSH0 PUSH2 0x100 EXP DUP2 SLOAD DUP2 PUSH1 0xFF MUL NOT AND SWAP1 DUP4 PUSH1 0x3 DUP2 GT ISZERO PUSH2 0x68 JUMPI PUSH2 0x67 PUSH2 0x6E0 JUMP JUMPDEST JUMPDEST MUL OR SWAP1 SSTORE POP DUP2 PUSH1 0x1 DUP1 PUSH2 0x100 EXP DUP2 SLOAD DUP2 PUSH20 0xFFFFFFFFFFFFFFFFFFFFFFFFFFFFFFFFFFFFFFFF MUL NOT AND SWAP1 DUP4 PUSH20 0xFFFFFFFFFFFFFFFFFFFFFFFFFFFFFFFFFFFFFFFF AND MUL OR SWAP1 SSTORE POP DUP1 PUSH1 0x2 PUSH0 PUSH2 0x100 EXP DUP2 SLOAD DUP2 PUSH20 0xFFFFFFFFFFFFFFFFFFFFFFFFFFFFFFFFFFFFFFFF MUL NOT AND SWAP1 DUP4 PUSH20 0xFFFFFFFFFFFFFFFFFFFFFFFFFFFFFFFFFFFFFFFF AND MUL OR SWAP1 SSTORE POP POP POP POP POP DUP3 PUSH1 0x4 SWAP1 DUP2 PUSH2 0x100 SWAP2 SWAP1 PUSH2 0x611 JUMP JUMPDEST POP DUP2 PUSH1 0x1 DUP1 PUSH2 0x100 EXP DUP2 SLOAD DUP2 PUSH20 0xFFFFFFFFFFFFFFFFFFFFFFFFFFFFFFFFFFFFFFFF MUL NOT AND SWAP1 DUP4 PUSH20 0xFFFFFFFFFFFFFFFFFFFFFFFFFFFFFFFFFFFFFFFF AND MUL OR SWAP1 SSTORE POP DUP1 PUSH1 0x2 PUSH0 PUSH2 0x100 EXP DUP2 SLOAD DUP2 PUSH20 0xFFFFFFFFFFFFFFFFFFFFFFFFFFFFFFFFFFFFFFFF MUL NOT AND SWAP1 DUP4 PUSH20 0xFFFFFFFFFFFFFFFFFFFFFFFFFFFFFFFFFFFFFFFF AND MUL OR SWAP1 SSTORE POP PUSH32 0x1449ABF21E49FD025F33495E77F7B1461CAEFDD3D4BB646424A3F445C4576A5B CALLER PUSH1 0x40 MLOAD PUSH2 0x1B0 SWAP2 SWAP1 PUSH2 0x71C JUMP JUMPDEST PUSH1 0x40 MLOAD DUP1 SWAP2 SUB SWAP1 LOG1 POP POP POP POP PUSH2 0x735 JUMP JUMPDEST PUSH0 PUSH1 0x40 MLOAD SWAP1 POP SWAP1 JUMP JUMPDEST PUSH0 DUP1 REVERT JUMPDEST PUSH0 DUP1 REVERT JUMPDEST PUSH0 DUP1 REVERT JUMPDEST PUSH0 DUP1 REVERT JUMPDEST PUSH0 PUSH1 0x1F NOT PUSH1 0x1F DUP4 ADD AND SWAP1 POP SWAP2 SWAP1 POP JUMP JUMPDEST PUSH32 0x4E487B7100000000000000000000000000000000000000000000000000000000 PUSH0 MSTORE PUSH1 0x41 PUSH1 0x4 MSTORE PUSH1 0x24 PUSH0 REVERT JUMPDEST PUSH2 0x220 DUP3 PUSH2 0x1DA JUMP JUMPDEST DUP2 ADD DUP2 DUP2 LT PUSH8 0xFFFFFFFFFFFFFFFF DUP3 GT OR ISZERO PUSH2 0x23F JUMPI PUSH2 0x23E PUSH2 0x1EA JUMP JUMPDEST JUMPDEST DUP1 PUSH1 0x40 MSTORE POP POP POP JUMP JUMPDEST PUSH0 PUSH2 0x251 PUSH2 0x1C1 JUMP JUMPDEST SWAP1 POP PUSH2 0x25D DUP3 DUP3 PUSH2 0x217 JUMP JUMPDEST SWAP2 SWAP1 POP JUMP JUMPDEST PUSH0 PUSH8 0xFFFFFFFFFFFFFFFF DUP3 GT ISZERO PUSH2 0x27C JUMPI PUSH2 0x27B PUSH2 0x1EA JUMP JUMPDEST JUMPDEST PUSH2 0x285 DUP3 PUSH2 0x1DA JUMP JUMPDEST SWAP1 POP PUSH1 0x20 DUP2 ADD SWAP1 POP SWAP2 SWAP1 POP JUMP JUMPDEST DUP3 DUP2 DUP4 MCOPY PUSH0 DUP4 DUP4 ADD MSTORE POP POP POP JUMP JUMPDEST PUSH0 PUSH2 0x2B2 PUSH2 0x2AD DUP5 PUSH2 0x262 JUMP JUMPDEST PUSH2 0x248 JUMP JUMPDEST SWAP1 POP DUP3 DUP2 MSTORE PUSH1 0x20 DUP2 ADD DUP5 DUP5 DUP5 ADD GT ISZERO PUSH2 0x2CE JUMPI PUSH2 0x2CD PUSH2 0x1D6 JUMP JUMPDEST JUMPDEST PUSH2 0x2D9 DUP5 DUP3 DUP6 PUSH2 0x292 JUMP JUMPDEST POP SWAP4 SWAP3 POP POP POP JUMP JUMPDEST PUSH0 DUP3 PUSH1 0x1F DUP4 ADD SLT PUSH2 0x2F5 JUMPI PUSH2 0x2F4 PUSH2 0x1D2 JUMP JUMPDEST JUMPDEST DUP2 MLOAD PUSH2 0x305 DUP5 DUP3 PUSH1 0x20 DUP7 ADD PUSH2 0x2A0 JUMP JUMPDEST SWAP2 POP POP SWAP3 SWAP2 POP POP JUMP JUMPDEST PUSH0 PUSH20 0xFFFFFFFFFFFFFFFFFFFFFFFFFFFFFFFFFFFFFFFF DUP3 AND SWAP1 POP SWAP2 SWAP1 POP JUMP JUMPDEST PUSH0 PUSH2 0x337 DUP3 PUSH2 0x30E JUMP JUMPDEST SWAP1 POP SWAP2 SWAP1 POP JUMP JUMPDEST PUSH2 0x347 DUP2 PUSH2 0x32D JUMP JUMPDEST DUP2 EQ PUSH2 0x351 JUMPI PUSH0 DUP1 REVERT JUMPDEST POP JUMP JUMPDEST PUSH0 DUP2 MLOAD SWAP1 POP PUSH2 0x362 DUP2 PUSH2 0x33E JUMP JUMPDEST SWAP3 SWAP2 POP POP JUMP JUMPDEST PUSH0 DUP1 PUSH0 DUP1 PUSH1 0x80 DUP6 DUP8 SUB SLT ISZERO PUSH2 0x380 JUMPI PUSH2 0x37F PUSH2 0x1CA JUMP JUMPDEST JUMPDEST PUSH0 DUP6 ADD MLOAD PUSH8 0xFFFFFFFFFFFFFFFF DUP2 GT ISZERO PUSH2 0x39D JUMPI PUSH2 0x39C PUSH2 0x1CE JUMP JUMPDEST JUMPDEST PUSH2 0x3A9 DUP8 DUP3 DUP9 ADD PUSH2 0x2E1 JUMP JUMPDEST SWAP5 POP POP PUSH1 0x20 DUP6 ADD MLOAD PUSH8 0xFFFFFFFFFFFFFFFF DUP2 GT ISZERO PUSH2 0x3CA JUMPI PUSH2 0x3C9 PUSH2 0x1CE JUMP JUMPDEST JUMPDEST PUSH2 0x3D6 DUP8 DUP3 DUP9 ADD PUSH2 0x2E1 JUMP JUMPDEST SWAP4 POP POP PUSH1 0x40 PUSH2 0x3E7 DUP8 DUP3 DUP9 ADD PUSH2 0x354 JUMP JUMPDEST SWAP3 POP POP PUSH1 0x60 PUSH2 0x3F8 DUP8 DUP3 DUP9 ADD PUSH2 0x354 JUMP JUMPDEST SWAP2 POP POP SWAP3 SWAP6 SWAP2 SWAP5 POP SWAP3 POP JUMP JUMPDEST PUSH0 DUP2 MLOAD SWAP1 POP SWAP2 SWAP1 POP JUMP JUMPDEST PUSH32 0x4E487B7100000000000000000000000000000000000000000000000000000000 PUSH0 MSTORE PUSH1 0x22 PUSH1 0x4 MSTORE PUSH1 0x24 PUSH0 REVERT JUMPDEST PUSH0 PUSH1 0x2 DUP3 DIV SWAP1 POP PUSH1 0x1 DUP3 AND DUP1 PUSH2 0x452 JUMPI PUSH1 0x7F DUP3 AND SWAP2 POP JUMPDEST PUSH1 0x20 DUP3 LT DUP2 SUB PUSH2 0x465 JUMPI PUSH2 0x464 PUSH2 0x40E JUMP JUMPDEST JUMPDEST POP SWAP2 SWAP1 POP JUMP JUMPDEST PUSH0 DUP2 SWAP1 POP DUP2 PUSH0 MSTORE PUSH1 0x20 PUSH0 KECCAK256 SWAP1 POP SWAP2 SWAP1 POP JUMP JUMPDEST PUSH0 PUSH1 0x20 PUSH1 0x1F DUP4 ADD DIV SWAP1 POP SWAP2 SWAP1 POP JUMP JUMPDEST PUSH0 DUP3 DUP3 SHL SWAP1 POP SWAP3 SWAP2 POP POP JUMP JUMPDEST PUSH0 PUSH1 0x8 DUP4 MUL PUSH2 0x4C7 PUSH32 0xFFFFFFFFFFFFFFFFFFFFFFFFFFFFFFFFFFFFFFFFFFFFFFFFFFFFFFFFFFFFFFFF DUP3 PUSH2 0x48C JUMP JUMPDEST PUSH2 0x4D1 DUP7 DUP4 PUSH2 0x48C JUMP JUMPDEST SWAP6 POP DUP1 NOT DUP5 AND SWAP4 POP DUP1 DUP7 AND DUP5 OR SWAP3 POP POP POP SWAP4 SWAP3 POP POP POP JUMP JUMPDEST PUSH0 DUP2 SWAP1 POP SWAP2 SWAP1 POP JUMP JUMPDEST PUSH0 DUP2 SWAP1 POP SWAP2 SWAP1 POP JUMP JUMPDEST PUSH0 PUSH2 0x515 PUSH2 0x510 PUSH2 0x50B DUP5 PUSH2 0x4E9 JUMP JUMPDEST PUSH2 0x4F2 JUMP JUMPDEST PUSH2 0x4E9 JUMP JUMPDEST SWAP1 POP SWAP2 SWAP1 POP JUMP JUMPDEST PUSH0 DUP2 SWAP1 POP SWAP2 SWAP1 POP JUMP JUMPDEST PUSH2 0x52E DUP4 PUSH2 0x4FB JUMP JUMPDEST PUSH2 0x542 PUSH2 0x53A DUP3 PUSH2 0x51C JUMP JUMPDEST DUP5 DUP5 SLOAD PUSH2 0x498 JUMP JUMPDEST DUP3 SSTORE POP POP POP POP JUMP JUMPDEST PUSH0 SWAP1 JUMP JUMPDEST PUSH2 0x556 PUSH2 0x54A JUMP JUMPDEST PUSH2 0x561 DUP2 DUP5 DUP5 PUSH2 0x525 JUMP JUMPDEST POP POP POP JUMP JUMPDEST JUMPDEST DUP2 DUP2 LT ISZERO PUSH2 0x584 JUMPI PUSH2 0x579 PUSH0 DUP3 PUSH2 0x54E JUMP JUMPDEST PUSH1 0x1 DUP2 ADD SWAP1 POP PUSH2 0x567 JUMP JUMPDEST POP POP JUMP JUMPDEST PUSH1 0x1F DUP3 GT ISZERO PUSH2 0x5C9 JUMPI PUSH2 0x59A DUP2 PUSH2 0x46B JUMP JUMPDEST PUSH2 0x5A3 DUP5 PUSH2 0x47D JUMP JUMPDEST DUP2 ADD PUSH1 0x20 DUP6 LT ISZERO PUSH2 0x5B2 JUMPI DUP2 SWAP1 POP JUMPDEST PUSH2 0x5C6 PUSH2 0x5BE DUP6 PUSH2 0x47D JUMP JUMPDEST DUP4 ADD DUP3 PUSH2 0x566 JUMP JUMPDEST POP POP JUMPDEST POP POP POP JUMP JUMPDEST PUSH0 DUP3 DUP3 SHR SWAP1 POP SWAP3 SWAP2 POP POP JUMP JUMPDEST PUSH0 PUSH2 0x5E9 PUSH0 NOT DUP5 PUSH1 0x8 MUL PUSH2 0x5CE JUMP JUMPDEST NOT DUP1 DUP4 AND SWAP2 POP POP SWAP3 SWAP2 POP POP JUMP JUMPDEST PUSH0 PUSH2 0x601 DUP4 DUP4 PUSH2 0x5DA JUMP JUMPDEST SWAP2 POP DUP3 PUSH1 0x2 MUL DUP3 OR SWAP1 POP SWAP3 SWAP2 POP POP JUMP JUMPDEST PUSH2 0x61A DUP3 PUSH2 0x404 JUMP JUMPDEST PUSH8 0xFFFFFFFFFFFFFFFF DUP2 GT ISZERO PUSH2 0x633 JUMPI PUSH2 0x632 PUSH2 0x1EA JUMP JUMPDEST JUMPDEST PUSH2 0x63D DUP3 SLOAD PUSH2 0x43B JUMP JUMPDEST PUSH2 0x648 DUP3 DUP3 DUP6 PUSH2 0x588 JUMP JUMPDEST PUSH0 PUSH1 0x20 SWAP1 POP PUSH1 0x1F DUP4 GT PUSH1 0x1 DUP2 EQ PUSH2 0x679 JUMPI PUSH0 DUP5 ISZERO PUSH2 0x667 JUMPI DUP3 DUP8 ADD MLOAD SWAP1 POP JUMPDEST PUSH2 0x671 DUP6 DUP3 PUSH2 0x5F6 JUMP JUMPDEST DUP7 SSTORE POP PUSH2 0x6D8 JUMP JUMPDEST PUSH1 0x1F NOT DUP5 AND PUSH2 0x687 DUP7 PUSH2 0x46B JUMP JUMPDEST PUSH0 JUMPDEST DUP3 DUP2 LT ISZERO PUSH2 0x6AE JUMPI DUP5 DUP10 ADD MLOAD DUP3 SSTORE PUSH1 0x1 DUP3 ADD SWAP2 POP PUSH1 0x20 DUP6 ADD SWAP5 POP PUSH1 0x20 DUP2 ADD SWAP1 POP PUSH2 0x689 JUMP JUMPDEST DUP7 DUP4 LT ISZERO PUSH2 0x6CB JUMPI DUP5 DUP10 ADD MLOAD PUSH2 0x6C7 PUSH1 0x1F DUP10 AND DUP3 PUSH2 0x5DA JUMP JUMPDEST DUP4 SSTORE POP JUMPDEST PUSH1 0x1 PUSH1 0x2 DUP9 MUL ADD DUP9 SSTORE POP POP POP JUMPDEST POP POP POP POP POP POP JUMP JUMPDEST PUSH32 0x4E487B7100000000000000000000000000000000000000000000000000000000 PUSH0 MSTORE PUSH1 0x21 PUSH1 0x4 MSTORE PUSH1 0x24 PUSH0 REVERT JUMPDEST PUSH2 0x716 DUP2 PUSH2 0x32D JUMP JUMPDEST DUP3 MSTORE POP POP JUMP JUMPDEST PUSH0 PUSH1 0x20 DUP3 ADD SWAP1 POP PUSH2 0x72F PUSH0 DUP4 ADD DUP5 PUSH2 0x70D JUMP JUMPDEST SWAP3 SWAP2 POP POP JUMP JUMPDEST PUSH2 0x2046 DUP1 PUSH2 0x742 PUSH0 CODECOPY PUSH0 RETURN INVALID PUSH1 0x80 PUSH1 0x40 MSTORE CALLVALUE DUP1 ISZERO PUSH2 0xF JUMPI PUSH0 DUP1 REVERT JUMPDEST POP PUSH1 0x4 CALLDATASIZE LT PUSH2 0xB2 JUMPI PUSH0 CALLDATALOAD PUSH1 0xE0 SHR DUP1 PUSH4 0xA95264D0 GT PUSH2 0x6F JUMPI DUP1 PUSH4 0xA95264D0 EQ PUSH2 0x164 JUMPI DUP1 PUSH4 0xB9DAF3E2 EQ PUSH2 0x182 JUMPI DUP1 PUSH4 0xBA379E86 EQ PUSH2 0x1A0 JUMPI DUP1 PUSH4 0xC47F0027 EQ PUSH2 0x1BF JUMPI DUP1 PUSH4 0xDED92DAC EQ PUSH2 0x1DB JUMPI DUP1 PUSH4 0xEFD8AF9F EQ PUSH2 0x1F7 JUMPI PUSH2 0xB2 JUMP JUMPDEST DUP1 PUSH4 0x1499C592 EQ PUSH2 0xB6 JUMPI DUP1 PUSH4 0x2858D3C8 EQ PUSH2 0xD2 JUMPI DUP1 PUSH4 0x4BA83374 EQ PUSH2 0xF0 JUMPI DUP1 PUSH4 0x5DA6EF8D EQ PUSH2 0x10E JUMPI DUP1 PUSH4 0x7A4C982E EQ PUSH2 0x12A JUMPI DUP1 PUSH4 0x80F76021 EQ PUSH2 0x146 JUMPI JUMPDEST PUSH0 DUP1 REVERT JUMPDEST PUSH2 0xD0 PUSH1 0x4 DUP1 CALLDATASIZE SUB DUP2 ADD SWAP1 PUSH2 0xCB SWAP2 SWAP1 PUSH2 0x15D2 JUMP JUMPDEST PUSH2 0x213 JUMP JUMPDEST STOP JUMPDEST PUSH2 0xDA PUSH2 0x372 JUMP JUMPDEST PUSH1 0x40 MLOAD PUSH2 0xE7 SWAP2 SWAP1 PUSH2 0x1670 JUMP JUMPDEST PUSH1 0x40 MLOAD DUP1 SWAP2 SUB SWAP1 RETURN JUMPDEST PUSH2 0xF8 PUSH2 0x46C JUMP JUMPDEST PUSH1 0x40 MLOAD PUSH2 0x105 SWAP2 SWAP1 PUSH2 0x16A3 JUMP JUMPDEST PUSH1 0x40 MLOAD DUP1 SWAP2 SUB SWAP1 RETURN JUMPDEST PUSH2 0x128 PUSH1 0x4 DUP1 CALLDATASIZE SUB DUP2 ADD SWAP1 PUSH2 0x123 SWAP2 SWAP1 PUSH2 0x15D2 JUMP JUMPDEST PUSH2 0x522 JUMP JUMPDEST STOP JUMPDEST PUSH2 0x144 PUSH1 0x4 DUP1 CALLDATASIZE SUB DUP2 ADD SWAP1 PUSH2 0x13F SWAP2 SWAP1 PUSH2 0x17F8 JUMP JUMPDEST PUSH2 0x7E8 JUMP JUMPDEST STOP JUMPDEST PUSH2 0x14E PUSH2 0x927 JUMP JUMPDEST PUSH1 0x40 MLOAD PUSH2 0x15B SWAP2 SWAP1 PUSH2 0x187D JUMP JUMPDEST PUSH1 0x40 MLOAD DUP1 SWAP2 SUB SWAP1 RETURN JUMPDEST PUSH2 0x16C PUSH2 0xA34 JUMP JUMPDEST PUSH1 0x40 MLOAD PUSH2 0x179 SWAP2 SWAP1 PUSH2 0x194D JUMP JUMPDEST PUSH1 0x40 MLOAD DUP1 SWAP2 SUB SWAP1 RETURN JUMPDEST PUSH2 0x18A PUSH2 0xBA4 JUMP JUMPDEST PUSH1 0x40 MLOAD PUSH2 0x197 SWAP2 SWAP1 PUSH2 0x16A3 JUMP JUMPDEST PUSH1 0x40 MLOAD DUP1 SWAP2 SUB SWAP1 RETURN JUMPDEST PUSH2 0x1A8 PUSH2 0xC50 JUMP JUMPDEST PUSH1 0x40 MLOAD PUSH2 0x1B6 SWAP3 SWAP2 SWAP1 PUSH2 0x19CD JUMP JUMPDEST PUSH1 0x40 MLOAD DUP1 SWAP2 SUB SWAP1 RETURN JUMPDEST PUSH2 0x1D9 PUSH1 0x4 DUP1 CALLDATASIZE SUB DUP2 ADD SWAP1 PUSH2 0x1D4 SWAP2 SWAP1 PUSH2 0x1A02 JUMP JUMPDEST PUSH2 0xEB7 JUMP JUMPDEST STOP JUMPDEST PUSH2 0x1F5 PUSH1 0x4 DUP1 CALLDATASIZE SUB DUP2 ADD SWAP1 PUSH2 0x1F0 SWAP2 SWAP1 PUSH2 0x15D2 JUMP JUMPDEST PUSH2 0xFE5 JUMP JUMPDEST STOP JUMPDEST PUSH2 0x211 PUSH1 0x4 DUP1 CALLDATASIZE SUB DUP2 ADD SWAP1 PUSH2 0x20C SWAP2 SWAP1 PUSH2 0x1A02 JUMP JUMPDEST PUSH2 0x1238 JUMP JUMPDEST STOP JUMPDEST PUSH1 0x1 DUP1 SLOAD SWAP1 PUSH2 0x100 EXP SWAP1 DIV PUSH20 0xFFFFFFFFFFFFFFFFFFFFFFFFFFFFFFFFFFFFFFFF AND PUSH20 0xFFFFFFFFFFFFFFFFFFFFFFFFFFFFFFFFFFFFFFFF AND CALLER PUSH20 0xFFFFFFFFFFFFFFFFFFFFFFFFFFFFFFFFFFFFFFFF AND EQ DUP1 PUSH2 0x2B9 JUMPI POP PUSH1 0x2 PUSH0 SWAP1 SLOAD SWAP1 PUSH2 0x100 EXP SWAP1 DIV PUSH20 0xFFFFFFFFFFFFFFFFFFFFFFFFFFFFFFFFFFFFFFFF AND PUSH20 0xFFFFFFFFFFFFFFFFFFFFFFFFFFFFFFFFFFFFFFFF AND CALLER PUSH20 0xFFFFFFFFFFFFFFFFFFFFFFFFFFFFFFFFFFFFFFFF AND EQ JUMPDEST PUSH2 0x2F8 JUMPI PUSH1 0x40 MLOAD PUSH32 0x8C379A000000000000000000000000000000000000000000000000000000000 DUP2 MSTORE PUSH1 0x4 ADD PUSH2 0x2EF SWAP1 PUSH2 0x1A93 JUMP JUMPDEST PUSH1 0x40 MLOAD DUP1 SWAP2 SUB SWAP1 REVERT JUMPDEST DUP1 PUSH1 0x2 PUSH0 PUSH2 0x100 EXP DUP2 SLOAD DUP2 PUSH20 0xFFFFFFFFFFFFFFFFFFFFFFFFFFFFFFFFFFFFFFFF MUL NOT AND SWAP1 DUP4 PUSH20 0xFFFFFFFFFFFFFFFFFFFFFFFFFFFFFFFFFFFFFFFF AND MUL OR SWAP1 SSTORE POP PUSH32 0xE00DA2178806F37F69815E9ED5ED3072EC1D55206D60916D99B469C7DAA421E4 CALLER PUSH1 0x40 MLOAD PUSH2 0x367 SWAP2 SWAP1 PUSH2 0x187D JUMP JUMPDEST PUSH1 0x40 MLOAD DUP1 SWAP2 SUB SWAP1 LOG1 POP JUMP JUMPDEST PUSH0 PUSH1 0x1 DUP1 SLOAD SWAP1 PUSH2 0x100 EXP SWAP1 DIV PUSH20 0xFFFFFFFFFFFFFFFFFFFFFFFFFFFFFFFFFFFFFFFF AND PUSH20 0xFFFFFFFFFFFFFFFFFFFFFFFFFFFFFFFFFFFFFFFF AND CALLER PUSH20 0xFFFFFFFFFFFFFFFFFFFFFFFFFFFFFFFFFFFFFFFF AND EQ DUP1 PUSH2 0x419 JUMPI POP PUSH1 0x2 PUSH0 SWAP1 SLOAD SWAP1 PUSH2 0x100 EXP SWAP1 DIV PUSH20 0xFFFFFFFFFFFFFFFFFFFFFFFFFFFFFFFFFFFFFFFF AND PUSH20 0xFFFFFFFFFFFFFFFFFFFFFFFFFFFFFFFFFFFFFFFF AND CALLER PUSH20 0xFFFFFFFFFFFFFFFFFFFFFFFFFFFFFFFFFFFFFFFF AND EQ JUMPDEST PUSH2 0x458 JUMPI PUSH1 0x40 MLOAD PUSH32 0x8C379A000000000000000000000000000000000000000000000000000000000 DUP2 MSTORE PUSH1 0x4 ADD PUSH2 0x44F SWAP1 PUSH2 0x1A93 JUMP JUMPDEST PUSH1 0x40 MLOAD DUP1 SWAP2 SUB SWAP1 REVERT JUMPDEST PUSH1 0x1 PUSH0 SWAP1 SLOAD SWAP1 PUSH2 0x100 EXP SWAP1 DIV PUSH1 0xFF AND SWAP1 POP SWAP1 JUMP JUMPDEST PUSH0 PUSH32 0xFFFFFFFFFFFFFFFFFFFFFFFFFFFFFFFFFFFFFFFFFFFFFFFFFFFFFFFFFFFFFFFF PUSH2 0x51B CALLER PUSH1 0x3 DUP1 SLOAD DUP1 PUSH1 0x20 MUL PUSH1 0x20 ADD PUSH1 0x40 MLOAD SWAP1 DUP2 ADD PUSH1 0x40 MSTORE DUP1 SWAP3 SWAP2 SWAP1 DUP2 DUP2 MSTORE PUSH1 0x20 ADD DUP3 DUP1 SLOAD DUP1 ISZERO PUSH2 0x511 JUMPI PUSH1 0x20 MUL DUP3 ADD SWAP2 SWAP1 PUSH0 MSTORE PUSH1 0x20 PUSH0 KECCAK256 SWAP1 JUMPDEST DUP2 PUSH0 SWAP1 SLOAD SWAP1 PUSH2 0x100 EXP SWAP1 DIV PUSH20 0xFFFFFFFFFFFFFFFFFFFFFFFFFFFFFFFFFFFFFFFF AND PUSH20 0xFFFFFFFFFFFFFFFFFFFFFFFFFFFFFFFFFFFFFFFF AND DUP2 MSTORE PUSH1 0x20 ADD SWAP1 PUSH1 0x1 ADD SWAP1 DUP1 DUP4 GT PUSH2 0x4C8 JUMPI JUMPDEST POP POP POP POP POP PUSH2 0x1367 JUMP JUMPDEST EQ ISZERO SWAP1 POP SWAP1 JUMP JUMPDEST PUSH1 0x1 DUP1 SLOAD SWAP1 PUSH2 0x100 EXP SWAP1 DIV PUSH20 0xFFFFFFFFFFFFFFFFFFFFFFFFFFFFFFFFFFFFFFFF AND PUSH20 0xFFFFFFFFFFFFFFFFFFFFFFFFFFFFFFFFFFFFFFFF AND CALLER PUSH20 0xFFFFFFFFFFFFFFFFFFFFFFFFFFFFFFFFFFFFFFFF AND EQ DUP1 PUSH2 0x5C8 JUMPI POP PUSH1 0x2 PUSH0 SWAP1 SLOAD SWAP1 PUSH2 0x100 EXP SWAP1 DIV PUSH20 0xFFFFFFFFFFFFFFFFFFFFFFFFFFFFFFFFFFFFFFFF AND PUSH20 0xFFFFFFFFFFFFFFFFFFFFFFFFFFFFFFFFFFFFFFFF AND CALLER PUSH20 0xFFFFFFFFFFFFFFFFFFFFFFFFFFFFFFFFFFFFFFFF AND EQ JUMPDEST PUSH2 0x607 JUMPI PUSH1 0x40 MLOAD PUSH32 0x8C379A000000000000000000000000000000000000000000000000000000000 DUP2 MSTORE PUSH1 0x4 ADD PUSH2 0x5FE SWAP1 PUSH2 0x1A93 JUMP JUMPDEST PUSH1 0x40 MLOAD DUP1 SWAP2 SUB SWAP1 REVERT JUMPDEST PUSH1 0x1 DUP1 SLOAD SWAP1 PUSH2 0x100 EXP SWAP1 DIV PUSH20 0xFFFFFFFFFFFFFFFFFFFFFFFFFFFFFFFFFFFFFFFF AND PUSH20 0xFFFFFFFFFFFFFFFFFFFFFFFFFFFFFFFFFFFFFFFF AND DUP2 PUSH20 0xFFFFFFFFFFFFFFFFFFFFFFFFFFFFFFFFFFFFFFFF AND EQ ISZERO DUP1 ISZERO PUSH2 0x68F JUMPI POP PUSH0 PUSH20 0xFFFFFFFFFFFFFFFFFFFFFFFFFFFFFFFFFFFFFFFF AND DUP2 PUSH20 0xFFFFFFFFFFFFFFFFFFFFFFFFFFFFFFFFFFFFFFFF AND EQ ISZERO JUMPDEST DUP1 ISZERO PUSH2 0x746 JUMPI POP PUSH32 0xFFFFFFFFFFFFFFFFFFFFFFFFFFFFFFFFFFFFFFFFFFFFFFFFFFFFFFFFFFFFFFFF PUSH2 0x744 DUP3 PUSH1 0x3 DUP1 SLOAD DUP1 PUSH1 0x20 MUL PUSH1 0x20 ADD PUSH1 0x40 MLOAD SWAP1 DUP2 ADD PUSH1 0x40 MSTORE DUP1 SWAP3 SWAP2 SWAP1 DUP2 DUP2 MSTORE PUSH1 0x20 ADD DUP3 DUP1 SLOAD DUP1 ISZERO PUSH2 0x73A JUMPI PUSH1 0x20 MUL DUP3 ADD SWAP2 SWAP1 PUSH0 MSTORE PUSH1 0x20 PUSH0 KECCAK256 SWAP1 JUMPDEST DUP2 PUSH0 SWAP1 SLOAD SWAP1 PUSH2 0x100 EXP SWAP1 DIV PUSH20 0xFFFFFFFFFFFFFFFFFFFFFFFFFFFFFFFFFFFFFFFF AND PUSH20 0xFFFFFFFFFFFFFFFFFFFFFFFFFFFFFFFFFFFFFFFF AND DUP2 MSTORE PUSH1 0x20 ADD SWAP1 PUSH1 0x1 ADD SWAP1 DUP1 DUP4 GT PUSH2 0x6F1 JUMPI JUMPDEST POP POP POP POP POP PUSH2 0x1367 JUMP JUMPDEST EQ JUMPDEST PUSH2 0x785 JUMPI PUSH1 0x40 MLOAD PUSH32 0x8C379A000000000000000000000000000000000000000000000000000000000 DUP2 MSTORE PUSH1 0x4 ADD PUSH2 0x77C SWAP1 PUSH2 0x1AFB JUMP JUMPDEST PUSH1 0x40 MLOAD DUP1 SWAP2 SUB SWAP1 REVERT JUMPDEST PUSH1 0x3 DUP2 SWAP1 DUP1 PUSH1 0x1 DUP2 SLOAD ADD DUP1 DUP3 SSTORE DUP1 SWAP2 POP POP PUSH1 0x1 SWAP1 SUB SWAP1 PUSH0 MSTORE PUSH1 0x20 PUSH0 KECCAK256 ADD PUSH0 SWAP1 SWAP2 SWAP1 SWAP2 SWAP1 SWAP2 PUSH2 0x100 EXP DUP2 SLOAD DUP2 PUSH20 0xFFFFFFFFFFFFFFFFFFFFFFFFFFFFFFFFFFFFFFFF MUL NOT AND SWAP1 DUP4 PUSH20 0xFFFFFFFFFFFFFFFFFFFFFFFFFFFFFFFFFFFFFFFF AND MUL OR SWAP1 SSTORE POP POP JUMP JUMPDEST PUSH1 0x1 DUP1 SLOAD SWAP1 PUSH2 0x100 EXP SWAP1 DIV PUSH20 0xFFFFFFFFFFFFFFFFFFFFFFFFFFFFFFFFFFFFFFFF AND PUSH20 0xFFFFFFFFFFFFFFFFFFFFFFFFFFFFFFFFFFFFFFFF AND CALLER PUSH20 0xFFFFFFFFFFFFFFFFFFFFFFFFFFFFFFFFFFFFFFFF AND EQ DUP1 PUSH2 0x88E JUMPI POP PUSH1 0x2 PUSH0 SWAP1 SLOAD SWAP1 PUSH2 0x100 EXP SWAP1 DIV PUSH20 0xFFFFFFFFFFFFFFFFFFFFFFFFFFFFFFFFFFFFFFFF AND PUSH20 0xFFFFFFFFFFFFFFFFFFFFFFFFFFFFFFFFFFFFFFFF AND CALLER PUSH20 0xFFFFFFFFFFFFFFFFFFFFFFFFFFFFFFFFFFFFFFFF AND EQ JUMPDEST PUSH2 0x8CD JUMPI PUSH1 0x40 MLOAD PUSH32 0x8C379A000000000000000000000000000000000000000000000000000000000 DUP2 MSTORE PUSH1 0x4 ADD PUSH2 0x8C4 SWAP1 PUSH2 0x1A93 JUMP JUMPDEST PUSH1 0x40 MLOAD DUP1 SWAP2 SUB SWAP1 REVERT JUMPDEST DUP2 PUSH0 SWAP1 DUP2 PUSH2 0x8DB SWAP2 SWAP1 PUSH2 0x1D1C JUMP JUMPDEST POP DUP1 PUSH1 0x4 SWAP1 DUP2 PUSH2 0x8EB SWAP2 SWAP1 PUSH2 0x1D1C JUMP JUMPDEST POP PUSH32 0xE00DA2178806F37F69815E9ED5ED3072EC1D55206D60916D99B469C7DAA421E4 CALLER PUSH1 0x40 MLOAD PUSH2 0x91B SWAP2 SWAP1 PUSH2 0x187D JUMP JUMPDEST PUSH1 0x40 MLOAD DUP1 SWAP2 SUB SWAP1 LOG1 POP POP JUMP JUMPDEST PUSH0 PUSH1 0x1 DUP1 SLOAD SWAP1 PUSH2 0x100 EXP SWAP1 DIV PUSH20 0xFFFFFFFFFFFFFFFFFFFFFFFFFFFFFFFFFFFFFFFF AND PUSH20 0xFFFFFFFFFFFFFFFFFFFFFFFFFFFFFFFFFFFFFFFF AND CALLER PUSH20 0xFFFFFFFFFFFFFFFFFFFFFFFFFFFFFFFFFFFFFFFF AND EQ DUP1 PUSH2 0x9CE JUMPI POP PUSH1 0x2 PUSH0 SWAP1 SLOAD SWAP1 PUSH2 0x100 EXP SWAP1 DIV PUSH20 0xFFFFFFFFFFFFFFFFFFFFFFFFFFFFFFFFFFFFFFFF AND PUSH20 0xFFFFFFFFFFFFFFFFFFFFFFFFFFFFFFFFFFFFFFFF AND CALLER PUSH20 0xFFFFFFFFFFFFFFFFFFFFFFFFFFFFFFFFFFFFFFFF AND EQ JUMPDEST PUSH2 0xA0D JUMPI PUSH1 0x40 MLOAD PUSH32 0x8C379A000000000000000000000000000000000000000000000000000000000 DUP2 MSTORE PUSH1 0x4 ADD PUSH2 0xA04 SWAP1 PUSH2 0x1A93 JUMP JUMPDEST PUSH1 0x40 MLOAD DUP1 SWAP2 SUB SWAP1 REVERT JUMPDEST PUSH1 0x2 PUSH0 SWAP1 SLOAD SWAP1 PUSH2 0x100 EXP SWAP1 DIV PUSH20 0xFFFFFFFFFFFFFFFFFFFFFFFFFFFFFFFFFFFFFFFF AND SWAP1 POP SWAP1 JUMP JUMPDEST PUSH1 0x60 PUSH1 0x1 DUP1 SLOAD SWAP1 PUSH2 0x100 EXP SWAP1 DIV PUSH20 0xFFFFFFFFFFFFFFFFFFFFFFFFFFFFFFFFFFFFFFFF AND PUSH20 0xFFFFFFFFFFFFFFFFFFFFFFFFFFFFFFFFFFFFFFFF AND CALLER PUSH20 0xFFFFFFFFFFFFFFFFFFFFFFFFFFFFFFFFFFFFFFFF AND EQ DUP1 PUSH2 0xADC JUMPI POP PUSH1 0x2 PUSH0 SWAP1 SLOAD SWAP1 PUSH2 0x100 EXP SWAP1 DIV PUSH20 0xFFFFFFFFFFFFFFFFFFFFFFFFFFFFFFFFFFFFFFFF AND PUSH20 0xFFFFFFFFFFFFFFFFFFFFFFFFFFFFFFFFFFFFFFFF AND CALLER PUSH20 0xFFFFFFFFFFFFFFFFFFFFFFFFFFFFFFFFFFFFFFFF AND EQ JUMPDEST PUSH2 0xB1B JUMPI PUSH1 0x40 MLOAD PUSH32 0x8C379A000000000000000000000000000000000000000000000000000000000 DUP2 MSTORE PUSH1 0x4 ADD PUSH2 0xB12 SWAP1 PUSH2 0x1A93 JUMP JUMPDEST PUSH1 0x40 MLOAD DUP1 SWAP2 SUB SWAP1 REVERT JUMPDEST PUSH1 0x3 DUP1 SLOAD DUP1 PUSH1 0x20 MUL PUSH1 0x20 ADD PUSH1 0x40 MLOAD SWAP1 DUP2 ADD PUSH1 0x40 MSTORE DUP1 SWAP3 SWAP2 SWAP1 DUP2 DUP2 MSTORE PUSH1 0x20 ADD DUP3 DUP1 SLOAD DUP1 ISZERO PUSH2 0xB9A JUMPI PUSH1 0x20 MUL DUP3 ADD SWAP2 SWAP1 PUSH0 MSTORE PUSH1 0x20 PUSH0 KECCAK256 SWAP1 JUMPDEST DUP2 PUSH0 SWAP1 SLOAD SWAP1 PUSH2 0x100 EXP SWAP1 DIV PUSH20 0xFFFFFFFFFFFFFFFFFFFFFFFFFFFFFFFFFFFFFFFF AND PUSH20 0xFFFFFFFFFFFFFFFFFFFFFFFFFFFFFFFFFFFFFFFF AND DUP2 MSTORE PUSH1 0x20 ADD SWAP1 PUSH1 0x1 ADD SWAP1 DUP1 DUP4 GT PUSH2 0xB51 JUMPI JUMPDEST POP POP POP POP POP SWAP1 POP SWAP1 JUMP JUMPDEST PUSH0 PUSH1 0x1 DUP1 SLOAD SWAP1 PUSH2 0x100 EXP SWAP1 DIV PUSH20 0xFFFFFFFFFFFFFFFFFFFFFFFFFFFFFFFFFFFFFFFF AND PUSH20 0xFFFFFFFFFFFFFFFFFFFFFFFFFFFFFFFFFFFFFFFF AND CALLER PUSH20 0xFFFFFFFFFFFFFFFFFFFFFFFFFFFFFFFFFFFFFFFF AND EQ DUP1 PUSH2 0xC4B JUMPI POP PUSH1 0x2 PUSH0 SWAP1 SLOAD SWAP1 PUSH2 0x100 EXP SWAP1 DIV PUSH20 0xFFFFFFFFFFFFFFFFFFFFFFFFFFFFFFFFFFFFFFFF AND PUSH20 0xFFFFFFFFFFFFFFFFFFFFFFFFFFFFFFFFFFFFFFFF AND CALLER PUSH20 0xFFFFFFFFFFFFFFFFFFFFFFFFFFFFFFFFFFFFFFFF AND EQ JUMPDEST SWAP1 POP SWAP1 JUMP JUMPDEST PUSH1 0x60 DUP1 PUSH1 0x1 DUP1 SLOAD SWAP1 PUSH2 0x100 EXP SWAP1 DIV PUSH20 0xFFFFFFFFFFFFFFFFFFFFFFFFFFFFFFFFFFFFFFFF AND PUSH20 0xFFFFFFFFFFFFFFFFFFFFFFFFFFFFFFFFFFFFFFFF AND CALLER PUSH20 0xFFFFFFFFFFFFFFFFFFFFFFFFFFFFFFFFFFFFFFFF AND EQ DUP1 PUSH2 0xD59 JUMPI POP PUSH32 0xFFFFFFFFFFFFFFFFFFFFFFFFFFFFFFFFFFFFFFFFFFFFFFFFFFFFFFFFFFFFFFFF PUSH2 0xD56 CALLER PUSH1 0x3 DUP1 SLOAD DUP1 PUSH1 0x20 MUL PUSH1 0x20 ADD PUSH1 0x40 MLOAD SWAP1 DUP2 ADD PUSH1 0x40 MSTORE DUP1 SWAP3 SWAP2 SWAP1 DUP2 DUP2 MSTORE PUSH1 0x20 ADD DUP3 DUP1 SLOAD DUP1 ISZERO PUSH2 0xD4C JUMPI PUSH1 0x20 MUL DUP3 ADD SWAP2 SWAP1 PUSH0 MSTORE PUSH1 0x20 PUSH0 KECCAK256 SWAP1 JUMPDEST DUP2 PUSH0 SWAP1 SLOAD SWAP1 PUSH2 0x100 EXP SWAP1 DIV PUSH20 0xFFFFFFFFFFFFFFFFFFFFFFFFFFFFFFFFFFFFFFFF AND PUSH20 0xFFFFFFFFFFFFFFFFFFFFFFFFFFFFFFFFFFFFFFFF AND DUP2 MSTORE PUSH1 0x20 ADD SWAP1 PUSH1 0x1 ADD SWAP1 DUP1 DUP4 GT PUSH2 0xD03 JUMPI JUMPDEST POP POP POP POP POP PUSH2 0x1367 JUMP JUMPDEST EQ ISZERO JUMPDEST PUSH2 0xD98 JUMPI PUSH1 0x40 MLOAD PUSH32 0x8C379A000000000000000000000000000000000000000000000000000000000 DUP2 MSTORE PUSH1 0x4 ADD PUSH2 0xD8F SWAP1 PUSH2 0x1E35 JUMP JUMPDEST PUSH1 0x40 MLOAD DUP1 SWAP2 SUB SWAP1 REVERT JUMPDEST PUSH0 PUSH1 0x4 DUP2 DUP1 SLOAD PUSH2 0xDA7 SWAP1 PUSH2 0x1B46 JUMP JUMPDEST DUP1 PUSH1 0x1F ADD PUSH1 0x20 DUP1 SWAP2 DIV MUL PUSH1 0x20 ADD PUSH1 0x40 MLOAD SWAP1 DUP2 ADD PUSH1 0x40 MSTORE DUP1 SWAP3 SWAP2 SWAP1 DUP2 DUP2 MSTORE PUSH1 0x20 ADD DUP3 DUP1 SLOAD PUSH2 0xDD3 SWAP1 PUSH2 0x1B46 JUMP JUMPDEST DUP1 ISZERO PUSH2 0xE1E JUMPI DUP1 PUSH1 0x1F LT PUSH2 0xDF5 JUMPI PUSH2 0x100 DUP1 DUP4 SLOAD DIV MUL DUP4 MSTORE SWAP2 PUSH1 0x20 ADD SWAP2 PUSH2 0xE1E JUMP JUMPDEST DUP3 ADD SWAP2 SWAP1 PUSH0 MSTORE PUSH1 0x20 PUSH0 KECCAK256 SWAP1 JUMPDEST DUP2 SLOAD DUP2 MSTORE SWAP1 PUSH1 0x1 ADD SWAP1 PUSH1 0x20 ADD DUP1 DUP4 GT PUSH2 0xE01 JUMPI DUP3 SWAP1 SUB PUSH1 0x1F AND DUP3 ADD SWAP2 JUMPDEST POP POP POP POP POP SWAP2 POP DUP1 DUP1 SLOAD PUSH2 0xE31 SWAP1 PUSH2 0x1B46 JUMP JUMPDEST DUP1 PUSH1 0x1F ADD PUSH1 0x20 DUP1 SWAP2 DIV MUL PUSH1 0x20 ADD PUSH1 0x40 MLOAD SWAP1 DUP2 ADD PUSH1 0x40 MSTORE DUP1 SWAP3 SWAP2 SWAP1 DUP2 DUP2 MSTORE PUSH1 0x20 ADD DUP3 DUP1 SLOAD PUSH2 0xE5D SWAP1 PUSH2 0x1B46 JUMP JUMPDEST DUP1 ISZERO PUSH2 0xEA8 JUMPI DUP1 PUSH1 0x1F LT PUSH2 0xE7F JUMPI PUSH2 0x100 DUP1 DUP4 SLOAD DIV MUL DUP4 MSTORE SWAP2 PUSH1 0x20 ADD SWAP2 PUSH2 0xEA8 JUMP JUMPDEST DUP3 ADD SWAP2 SWAP1 PUSH0 MSTORE PUSH1 0x20 PUSH0 KECCAK256 SWAP1 JUMPDEST DUP2 SLOAD DUP2 MSTORE SWAP1 PUSH1 0x1 ADD SWAP1 PUSH1 0x20 ADD DUP1 DUP4 GT PUSH2 0xE8B JUMPI DUP3 SWAP1 SUB PUSH1 0x1F AND DUP3 ADD SWAP2 JUMPDEST POP POP POP POP POP SWAP1 POP SWAP2 POP SWAP2 POP SWAP1 SWAP2 JUMP JUMPDEST PUSH1 0x1 DUP1 SLOAD SWAP1 PUSH2 0x100 EXP SWAP1 DIV PUSH20 0xFFFFFFFFFFFFFFFFFFFFFFFFFFFFFFFFFFFFFFFF AND PUSH20 0xFFFFFFFFFFFFFFFFFFFFFFFFFFFFFFFFFFFFFFFF AND CALLER PUSH20 0xFFFFFFFFFFFFFFFFFFFFFFFFFFFFFFFFFFFFFFFF AND EQ DUP1 PUSH2 0xF5D JUMPI POP PUSH1 0x2 PUSH0 SWAP1 SLOAD SWAP1 PUSH2 0x100 EXP SWAP1 DIV PUSH20 0xFFFFFFFFFFFFFFFFFFFFFFFFFFFFFFFFFFFFFFFF AND PUSH20 0xFFFFFFFFFFFFFFFFFFFFFFFFFFFFFFFFFFFFFFFF AND CALLER PUSH20 0xFFFFFFFFFFFFFFFFFFFFFFFFFFFFFFFFFFFFFFFF AND EQ JUMPDEST PUSH2 0xF9C JUMPI PUSH1 0x40 MLOAD PUSH32 0x8C379A000000000000000000000000000000000000000000000000000000000 DUP2 MSTORE PUSH1 0x4 ADD PUSH2 0xF93 SWAP1 PUSH2 0x1A93 JUMP JUMPDEST PUSH1 0x40 MLOAD DUP1 SWAP2 SUB SWAP1 REVERT JUMPDEST DUP1 PUSH0 SWAP1 DUP2 PUSH2 0xFAA SWAP2 SWAP1 PUSH2 0x1D1C JUMP JUMPDEST POP PUSH32 0xE00DA2178806F37F69815E9ED5ED3072EC1D55206D60916D99B469C7DAA421E4 CALLER PUSH1 0x40 MLOAD PUSH2 0xFDA SWAP2 SWAP1 PUSH2 0x187D JUMP JUMPDEST PUSH1 0x40 MLOAD DUP1 SWAP2 SUB SWAP1 LOG1 POP JUMP JUMPDEST PUSH0 PUSH20 0xFFFFFFFFFFFFFFFFFFFFFFFFFFFFFFFFFFFFFFFF AND DUP2 PUSH20 0xFFFFFFFFFFFFFFFFFFFFFFFFFFFFFFFFFFFFFFFF AND EQ ISZERO DUP1 PUSH2 0x10F8 JUMPI POP PUSH1 0x2 PUSH0 SWAP1 SLOAD SWAP1 PUSH2 0x100 EXP SWAP1 DIV PUSH20 0xFFFFFFFFFFFFFFFFFFFFFFFFFFFFFFFFFFFFFFFF AND PUSH20 0xFFFFFFFFFFFFFFFFFFFFFFFFFFFFFFFFFFFFFFFF AND CALLER PUSH20 0xFFFFFFFFFFFFFFFFFFFFFFFFFFFFFFFFFFFFFFFF AND EQ DUP1 PUSH2 0x10C1 JUMPI POP PUSH1 0x1 DUP1 SLOAD SWAP1 PUSH2 0x100 EXP SWAP1 DIV PUSH20 0xFFFFFFFFFFFFFFFFFFFFFFFFFFFFFFFFFFFFFFFF AND PUSH20 0xFFFFFFFFFFFFFFFFFFFFFFFFFFFFFFFFFFFFFFFF AND CALLER PUSH20 0xFFFFFFFFFFFFFFFFFFFFFFFFFFFFFFFFFFFFFFFF AND EQ JUMPDEST DUP1 PUSH2 0x10F7 JUMPI POP DUP1 PUSH20 0xFFFFFFFFFFFFFFFFFFFFFFFFFFFFFFFFFFFFFFFF AND CALLER PUSH20 0xFFFFFFFFFFFFFFFFFFFFFFFFFFFFFFFFFFFFFFFF AND EQ JUMPDEST JUMPDEST PUSH2 0x1137 JUMPI PUSH1 0x40 MLOAD PUSH32 0x8C379A000000000000000000000000000000000000000000000000000000000 DUP2 MSTORE PUSH1 0x4 ADD PUSH2 0x112E SWAP1 PUSH2 0x1AFB JUMP JUMPDEST PUSH1 0x40 MLOAD DUP1 SWAP2 SUB SWAP1 REVERT JUMPDEST PUSH0 PUSH2 0x11C5 DUP3 PUSH1 0x3 DUP1 SLOAD DUP1 PUSH1 0x20 MUL PUSH1 0x20 ADD PUSH1 0x40 MLOAD SWAP1 DUP2 ADD PUSH1 0x40 MSTORE DUP1 SWAP3 SWAP2 SWAP1 DUP2 DUP2 MSTORE PUSH1 0x20 ADD DUP3 DUP1 SLOAD DUP1 ISZERO PUSH2 0x11BB JUMPI PUSH1 0x20 MUL DUP3 ADD SWAP2 SWAP1 PUSH0 MSTORE PUSH1 0x20 PUSH0 KECCAK256 SWAP1 JUMPDEST DUP2 PUSH0 SWAP1 SLOAD SWAP1 PUSH2 0x100 EXP SWAP1 DIV PUSH20 0xFFFFFFFFFFFFFFFFFFFFFFFFFFFFFFFFFFFFFFFF AND PUSH20 0xFFFFFFFFFFFFFFFFFFFFFFFFFFFFFFFFFFFFFFFF AND DUP2 MSTORE PUSH1 0x20 ADD SWAP1 PUSH1 0x1 ADD SWAP1 DUP1 DUP4 GT PUSH2 0x1172 JUMPI JUMPDEST POP POP POP POP POP PUSH2 0x1367 JUMP JUMPDEST SWAP1 POP PUSH32 0xFFFFFFFFFFFFFFFFFFFFFFFFFFFFFFFFFFFFFFFFFFFFFFFFFFFFFFFFFFFFFFFF DUP2 SGT PUSH2 0x1229 JUMPI PUSH1 0x40 MLOAD PUSH32 0x8C379A000000000000000000000000000000000000000000000000000000000 DUP2 MSTORE PUSH1 0x4 ADD PUSH2 0x1220 SWAP1 PUSH2 0x1E9D JUMP JUMPDEST PUSH1 0x40 MLOAD DUP1 SWAP2 SUB SWAP1 REVERT JUMPDEST PUSH2 0x1234 DUP2 PUSH1 0x3 PUSH2 0x1404 JUMP JUMPDEST POP POP JUMP JUMPDEST PUSH1 0x1 DUP1 SLOAD SWAP1 PUSH2 0x100 EXP SWAP1 DIV PUSH20 0xFFFFFFFFFFFFFFFFFFFFFFFFFFFFFFFFFFFFFFFF AND PUSH20 0xFFFFFFFFFFFFFFFFFFFFFFFFFFFFFFFFFFFFFFFF AND CALLER PUSH20 0xFFFFFFFFFFFFFFFFFFFFFFFFFFFFFFFFFFFFFFFF AND EQ DUP1 PUSH2 0x12DE JUMPI POP PUSH1 0x2 PUSH0 SWAP1 SLOAD SWAP1 PUSH2 0x100 EXP SWAP1 DIV PUSH20 0xFFFFFFFFFFFFFFFFFFFFFFFFFFFFFFFFFFFFFFFF AND PUSH20 0xFFFFFFFFFFFFFFFFFFFFFFFFFFFFFFFFFFFFFFFF AND CALLER PUSH20 0xFFFFFFFFFFFFFFFFFFFFFFFFFFFFFFFFFFFFFFFF AND EQ JUMPDEST PUSH2 0x131D JUMPI PUSH1 0x40 MLOAD PUSH32 0x8C379A000000000000000000000000000000000000000000000000000000000 DUP2 MSTORE PUSH1 0x4 ADD PUSH2 0x1314 SWAP1 PUSH2 0x1A93 JUMP JUMPDEST PUSH1 0x40 MLOAD DUP1 SWAP2 SUB SWAP1 REVERT JUMPDEST DUP1 PUSH1 0x4 SWAP1 DUP2 PUSH2 0x132C SWAP2 SWAP1 PUSH2 0x1D1C JUMP JUMPDEST POP PUSH32 0xE00DA2178806F37F69815E9ED5ED3072EC1D55206D60916D99B469C7DAA421E4 CALLER PUSH1 0x40 MLOAD PUSH2 0x135C SWAP2 SWAP1 PUSH2 0x187D JUMP JUMPDEST PUSH1 0x40 MLOAD DUP1 SWAP2 SUB SWAP1 LOG1 POP JUMP JUMPDEST PUSH0 DUP1 PUSH0 SWAP1 POP JUMPDEST DUP3 MLOAD DUP2 LT ISZERO PUSH2 0x13D9 JUMPI DUP4 PUSH20 0xFFFFFFFFFFFFFFFFFFFFFFFFFFFFFFFFFFFFFFFF AND DUP4 DUP3 DUP2 MLOAD DUP2 LT PUSH2 0x13A0 JUMPI PUSH2 0x139F PUSH2 0x1EBB JUMP JUMPDEST JUMPDEST PUSH1 0x20 MUL PUSH1 0x20 ADD ADD MLOAD PUSH20 0xFFFFFFFFFFFFFFFFFFFFFFFFFFFFFFFFFFFFFFFF AND SUB PUSH2 0x13CC JUMPI DUP1 SWAP2 POP POP PUSH2 0x13FE JUMP JUMPDEST DUP1 DUP1 PUSH1 0x1 ADD SWAP2 POP POP PUSH2 0x136D JUMP JUMPDEST POP PUSH32 0xFFFFFFFFFFFFFFFFFFFFFFFFFFFFFFFFFFFFFFFFFFFFFFFFFFFFFFFFFFFFFFFF SWAP1 POP JUMPDEST SWAP3 SWAP2 POP POP JUMP JUMPDEST PUSH0 DUP3 SLT ISZERO DUP1 ISZERO PUSH2 0x1417 JUMPI POP DUP1 DUP1 SLOAD SWAP1 POP DUP3 LT JUMPDEST PUSH2 0x1456 JUMPI PUSH1 0x40 MLOAD PUSH32 0x8C379A000000000000000000000000000000000000000000000000000000000 DUP2 MSTORE PUSH1 0x4 ADD PUSH2 0x144D SWAP1 PUSH2 0x1F32 JUMP JUMPDEST PUSH1 0x40 MLOAD DUP1 SWAP2 SUB SWAP1 REVERT JUMPDEST PUSH0 DUP3 SWAP1 POP JUMPDEST PUSH1 0x1 DUP3 DUP1 SLOAD SWAP1 POP PUSH2 0x146C SWAP2 SWAP1 PUSH2 0x1F7D JUMP JUMPDEST DUP2 LT ISZERO PUSH2 0x151F JUMPI DUP2 PUSH1 0x1 DUP3 PUSH2 0x1481 SWAP2 SWAP1 PUSH2 0x1FB0 JUMP JUMPDEST DUP2 SLOAD DUP2 LT PUSH2 0x1492 JUMPI PUSH2 0x1491 PUSH2 0x1EBB JUMP JUMPDEST JUMPDEST SWAP1 PUSH0 MSTORE PUSH1 0x20 PUSH0 KECCAK256 ADD PUSH0 SWAP1 SLOAD SWAP1 PUSH2 0x100 EXP SWAP1 DIV PUSH20 0xFFFFFFFFFFFFFFFFFFFFFFFFFFFFFFFFFFFFFFFF AND DUP3 DUP3 DUP2 SLOAD DUP2 LT PUSH2 0x14CD JUMPI PUSH2 0x14CC PUSH2 0x1EBB JUMP JUMPDEST JUMPDEST SWAP1 PUSH0 MSTORE PUSH1 0x20 PUSH0 KECCAK256 ADD PUSH0 PUSH2 0x100 EXP DUP2 SLOAD DUP2 PUSH20 0xFFFFFFFFFFFFFFFFFFFFFFFFFFFFFFFFFFFFFFFF MUL NOT AND SWAP1 DUP4 PUSH20 0xFFFFFFFFFFFFFFFFFFFFFFFFFFFFFFFFFFFFFFFF AND MUL OR SWAP1 SSTORE POP DUP1 DUP1 PUSH1 0x1 ADD SWAP2 POP POP PUSH2 0x145B JUMP JUMPDEST POP DUP1 DUP1 SLOAD DUP1 PUSH2 0x1531 JUMPI PUSH2 0x1530 PUSH2 0x1FE3 JUMP JUMPDEST JUMPDEST PUSH1 0x1 SWAP1 SUB DUP2 DUP2 SWAP1 PUSH0 MSTORE PUSH1 0x20 PUSH0 KECCAK256 ADD PUSH0 PUSH2 0x100 EXP DUP2 SLOAD SWAP1 PUSH20 0xFFFFFFFFFFFFFFFFFFFFFFFFFFFFFFFFFFFFFFFF MUL NOT AND SWAP1 SSTORE SWAP1 SSTORE POP POP JUMP JUMPDEST PUSH0 PUSH1 0x40 MLOAD SWAP1 POP SWAP1 JUMP JUMPDEST PUSH0 DUP1 REVERT JUMPDEST PUSH0 DUP1 REVERT JUMPDEST PUSH0 PUSH20 0xFFFFFFFFFFFFFFFFFFFFFFFFFFFFFFFFFFFFFFFF DUP3 AND SWAP1 POP SWAP2 SWAP1 POP JUMP JUMPDEST PUSH0 PUSH2 0x15A1 DUP3 PUSH2 0x1578 JUMP JUMPDEST SWAP1 POP SWAP2 SWAP1 POP JUMP JUMPDEST PUSH2 0x15B1 DUP2 PUSH2 0x1597 JUMP JUMPDEST DUP2 EQ PUSH2 0x15BB JUMPI PUSH0 DUP1 REVERT JUMPDEST POP JUMP JUMPDEST PUSH0 DUP2 CALLDATALOAD SWAP1 POP PUSH2 0x15CC DUP2 PUSH2 0x15A8 JUMP JUMPDEST SWAP3 SWAP2 POP POP JUMP JUMPDEST PUSH0 PUSH1 0x20 DUP3 DUP5 SUB SLT ISZERO PUSH2 0x15E7 JUMPI PUSH2 0x15E6 PUSH2 0x1570 JUMP JUMPDEST JUMPDEST PUSH0 PUSH2 0x15F4 DUP5 DUP3 DUP6 ADD PUSH2 0x15BE JUMP JUMPDEST SWAP2 POP POP SWAP3 SWAP2 POP POP JUMP JUMPDEST PUSH32 0x4E487B7100000000000000000000000000000000000000000000000000000000 PUSH0 MSTORE PUSH1 0x21 PUSH1 0x4 MSTORE PUSH1 0x24 PUSH0 REVERT JUMPDEST PUSH1 0x4 DUP2 LT PUSH2 0x163B JUMPI PUSH2 0x163A PUSH2 0x15FD JUMP JUMPDEST JUMPDEST POP JUMP JUMPDEST PUSH0 DUP2 SWAP1 POP PUSH2 0x164B DUP3 PUSH2 0x162A JUMP JUMPDEST SWAP2 SWAP1 POP JUMP JUMPDEST PUSH0 PUSH2 0x165A DUP3 PUSH2 0x163E JUMP JUMPDEST SWAP1 POP SWAP2 SWAP1 POP JUMP JUMPDEST PUSH2 0x166A DUP2 PUSH2 0x1650 JUMP JUMPDEST DUP3 MSTORE POP POP JUMP JUMPDEST PUSH0 PUSH1 0x20 DUP3 ADD SWAP1 POP PUSH2 0x1683 PUSH0 DUP4 ADD DUP5 PUSH2 0x1661 JUMP JUMPDEST SWAP3 SWAP2 POP POP JUMP JUMPDEST PUSH0 DUP2 ISZERO ISZERO SWAP1 POP SWAP2 SWAP1 POP JUMP JUMPDEST PUSH2 0x169D DUP2 PUSH2 0x1689 JUMP JUMPDEST DUP3 MSTORE POP POP JUMP JUMPDEST PUSH0 PUSH1 0x20 DUP3 ADD SWAP1 POP PUSH2 0x16B6 PUSH0 DUP4 ADD DUP5 PUSH2 0x1694 JUMP JUMPDEST SWAP3 SWAP2 POP POP JUMP JUMPDEST PUSH0 DUP1 REVERT JUMPDEST PUSH0 DUP1 REVERT JUMPDEST PUSH0 PUSH1 0x1F NOT PUSH1 0x1F DUP4 ADD AND SWAP1 POP SWAP2 SWAP1 POP JUMP JUMPDEST PUSH32 0x4E487B7100000000000000000000000000000000000000000000000000000000 PUSH0 MSTORE PUSH1 0x41 PUSH1 0x4 MSTORE PUSH1 0x24 PUSH0 REVERT JUMPDEST PUSH2 0x170A DUP3 PUSH2 0x16C4 JUMP JUMPDEST DUP2 ADD DUP2 DUP2 LT PUSH8 0xFFFFFFFFFFFFFFFF DUP3 GT OR ISZERO PUSH2 0x1729 JUMPI PUSH2 0x1728 PUSH2 0x16D4 JUMP JUMPDEST JUMPDEST DUP1 PUSH1 0x40 MSTORE POP POP POP JUMP JUMPDEST PUSH0 PUSH2 0x173B PUSH2 0x1567 JUMP JUMPDEST SWAP1 POP PUSH2 0x1747 DUP3 DUP3 PUSH2 0x1701 JUMP JUMPDEST SWAP2 SWAP1 POP JUMP JUMPDEST PUSH0 PUSH8 0xFFFFFFFFFFFFFFFF DUP3 GT ISZERO PUSH2 0x1766 JUMPI PUSH2 0x1765 PUSH2 0x16D4 JUMP JUMPDEST JUMPDEST PUSH2 0x176F DUP3 PUSH2 0x16C4 JUMP JUMPDEST SWAP1 POP PUSH1 0x20 DUP2 ADD SWAP1 POP SWAP2 SWAP1 POP JUMP JUMPDEST DUP3 DUP2 DUP4 CALLDATACOPY PUSH0 DUP4 DUP4 ADD MSTORE POP POP POP JUMP JUMPDEST PUSH0 PUSH2 0x179C PUSH2 0x1797 DUP5 PUSH2 0x174C JUMP JUMPDEST PUSH2 0x1732 JUMP JUMPDEST SWAP1 POP DUP3 DUP2 MSTORE PUSH1 0x20 DUP2 ADD DUP5 DUP5 DUP5 ADD GT ISZERO PUSH2 0x17B8 JUMPI PUSH2 0x17B7 PUSH2 0x16C0 JUMP JUMPDEST JUMPDEST PUSH2 0x17C3 DUP5 DUP3 DUP6 PUSH2 0x177C JUMP JUMPDEST POP SWAP4 SWAP3 POP POP POP JUMP JUMPDEST PUSH0 DUP3 PUSH1 0x1F DUP4 ADD SLT PUSH2 0x17DF JUMPI PUSH2 0x17DE PUSH2 0x16BC JUMP JUMPDEST JUMPDEST DUP2 CALLDATALOAD PUSH2 0x17EF DUP5 DUP3 PUSH1 0x20 DUP7 ADD PUSH2 0x178A JUMP JUMPDEST SWAP2 POP POP SWAP3 SWAP2 POP POP JUMP JUMPDEST PUSH0 DUP1 PUSH1 0x40 DUP4 DUP6 SUB SLT ISZERO PUSH2 0x180E JUMPI PUSH2 0x180D PUSH2 0x1570 JUMP JUMPDEST JUMPDEST PUSH0 DUP4 ADD CALLDATALOAD PUSH8 0xFFFFFFFFFFFFFFFF DUP2 GT ISZERO PUSH2 0x182B JUMPI PUSH2 0x182A PUSH2 0x1574 JUMP JUMPDEST JUMPDEST PUSH2 0x1837 DUP6 DUP3 DUP7 ADD PUSH2 0x17CB JUMP JUMPDEST SWAP3 POP POP PUSH1 0x20 DUP4 ADD CALLDATALOAD PUSH8 0xFFFFFFFFFFFFFFFF DUP2 GT ISZERO PUSH2 0x1858 JUMPI PUSH2 0x1857 PUSH2 0x1574 JUMP JUMPDEST JUMPDEST PUSH2 0x1864 DUP6 DUP3 DUP7 ADD PUSH2 0x17CB JUMP JUMPDEST SWAP2 POP POP SWAP3 POP SWAP3 SWAP1 POP JUMP JUMPDEST PUSH2 0x1877 DUP2 PUSH2 0x1597 JUMP JUMPDEST DUP3 MSTORE POP POP JUMP JUMPDEST PUSH0 PUSH1 0x20 DUP3 ADD SWAP1 POP PUSH2 0x1890 PUSH0 DUP4 ADD DUP5 PUSH2 0x186E JUMP JUMPDEST SWAP3 SWAP2 POP POP JUMP JUMPDEST PUSH0 DUP2 MLOAD SWAP1 POP SWAP2 SWAP1 POP JUMP JUMPDEST PUSH0 DUP3 DUP3 MSTORE PUSH1 0x20 DUP3 ADD SWAP1 POP SWAP3 SWAP2 POP POP JUMP JUMPDEST PUSH0 DUP2 SWAP1 POP PUSH1 0x20 DUP3 ADD SWAP1 POP SWAP2 SWAP1 POP JUMP JUMPDEST PUSH2 0x18C8 DUP2 PUSH2 0x1597 JUMP JUMPDEST DUP3 MSTORE POP POP JUMP JUMPDEST PUSH0 PUSH2 0x18D9 DUP4 DUP4 PUSH2 0x18BF JUMP JUMPDEST PUSH1 0x20 DUP4 ADD SWAP1 POP SWAP3 SWAP2 POP POP JUMP JUMPDEST PUSH0 PUSH1 0x20 DUP3 ADD SWAP1 POP SWAP2 SWAP1 POP JUMP JUMPDEST PUSH0 PUSH2 0x18FB DUP3 PUSH2 0x1896 JUMP JUMPDEST PUSH2 0x1905 DUP2 DUP6 PUSH2 0x18A0 JUMP JUMPDEST SWAP4 POP PUSH2 0x1910 DUP4 PUSH2 0x18B0 JUMP JUMPDEST DUP1 PUSH0 JUMPDEST DUP4 DUP2 LT ISZERO PUSH2 0x1940 JUMPI DUP2 MLOAD PUSH2 0x1927 DUP9 DUP3 PUSH2 0x18CE JUMP JUMPDEST SWAP8 POP PUSH2 0x1932 DUP4 PUSH2 0x18E5 JUMP JUMPDEST SWAP3 POP POP PUSH1 0x1 DUP2 ADD SWAP1 POP PUSH2 0x1913 JUMP JUMPDEST POP DUP6 SWAP4 POP POP POP POP SWAP3 SWAP2 POP POP JUMP JUMPDEST PUSH0 PUSH1 0x20 DUP3 ADD SWAP1 POP DUP2 DUP2 SUB PUSH0 DUP4 ADD MSTORE PUSH2 0x1965 DUP2 DUP5 PUSH2 0x18F1 JUMP JUMPDEST SWAP1 POP SWAP3 SWAP2 POP POP JUMP JUMPDEST PUSH0 DUP2 MLOAD SWAP1 POP SWAP2 SWAP1 POP JUMP JUMPDEST PUSH0 DUP3 DUP3 MSTORE PUSH1 0x20 DUP3 ADD SWAP1 POP SWAP3 SWAP2 POP POP JUMP JUMPDEST DUP3 DUP2 DUP4 MCOPY PUSH0 DUP4 DUP4 ADD MSTORE POP POP POP JUMP JUMPDEST PUSH0 PUSH2 0x199F DUP3 PUSH2 0x196D JUMP JUMPDEST PUSH2 0x19A9 DUP2 DUP6 PUSH2 0x1977 JUMP JUMPDEST SWAP4 POP PUSH2 0x19B9 DUP2 DUP6 PUSH1 0x20 DUP7 ADD PUSH2 0x1987 JUMP JUMPDEST PUSH2 0x19C2 DUP2 PUSH2 0x16C4 JUMP JUMPDEST DUP5 ADD SWAP2 POP POP SWAP3 SWAP2 POP POP JUMP JUMPDEST PUSH0 PUSH1 0x40 DUP3 ADD SWAP1 POP DUP2 DUP2 SUB PUSH0 DUP4 ADD MSTORE PUSH2 0x19E5 DUP2 DUP6 PUSH2 0x1995 JUMP JUMPDEST SWAP1 POP DUP2 DUP2 SUB PUSH1 0x20 DUP4 ADD MSTORE PUSH2 0x19F9 DUP2 DUP5 PUSH2 0x1995 JUMP JUMPDEST SWAP1 POP SWAP4 SWAP3 POP POP POP JUMP JUMPDEST PUSH0 PUSH1 0x20 DUP3 DUP5 SUB SLT ISZERO PUSH2 0x1A17 JUMPI PUSH2 0x1A16 PUSH2 0x1570 JUMP JUMPDEST JUMPDEST PUSH0 DUP3 ADD CALLDATALOAD PUSH8 0xFFFFFFFFFFFFFFFF DUP2 GT ISZERO PUSH2 0x1A34 JUMPI PUSH2 0x1A33 PUSH2 0x1574 JUMP JUMPDEST JUMPDEST PUSH2 0x1A40 DUP5 DUP3 DUP6 ADD PUSH2 0x17CB JUMP JUMPDEST SWAP2 POP POP SWAP3 SWAP2 POP POP JUMP JUMPDEST PUSH32 0x4F6E6C79206F776E657200000000000000000000000000000000000000000000 PUSH0 DUP3 ADD MSTORE POP JUMP JUMPDEST PUSH0 PUSH2 0x1A7D PUSH1 0xA DUP4 PUSH2 0x1977 JUMP JUMPDEST SWAP2 POP PUSH2 0x1A88 DUP3 PUSH2 0x1A49 JUMP JUMPDEST PUSH1 0x20 DUP3 ADD SWAP1 POP SWAP2 SWAP1 POP JUMP JUMPDEST PUSH0 PUSH1 0x20 DUP3 ADD SWAP1 POP DUP2 DUP2 SUB PUSH0 DUP4 ADD MSTORE PUSH2 0x1AAA DUP2 PUSH2 0x1A71 JUMP JUMPDEST SWAP1 POP SWAP2 SWAP1 POP JUMP JUMPDEST PUSH32 0x466F7262696464656E0000000000000000000000000000000000000000000000 PUSH0 DUP3 ADD MSTORE POP JUMP JUMPDEST PUSH0 PUSH2 0x1AE5 PUSH1 0x9 DUP4 PUSH2 0x1977 JUMP JUMPDEST SWAP2 POP PUSH2 0x1AF0 DUP3 PUSH2 0x1AB1 JUMP JUMPDEST PUSH1 0x20 DUP3 ADD SWAP1 POP SWAP2 SWAP1 POP JUMP JUMPDEST PUSH0 PUSH1 0x20 DUP3 ADD SWAP1 POP DUP2 DUP2 SUB PUSH0 DUP4 ADD MSTORE PUSH2 0x1B12 DUP2 PUSH2 0x1AD9 JUMP JUMPDEST SWAP1 POP SWAP2 SWAP1 POP JUMP JUMPDEST PUSH32 0x4E487B7100000000000000000000000000000000000000000000000000000000 PUSH0 MSTORE PUSH1 0x22 PUSH1 0x4 MSTORE PUSH1 0x24 PUSH0 REVERT JUMPDEST PUSH0 PUSH1 0x2 DUP3 DIV SWAP1 POP PUSH1 0x1 DUP3 AND DUP1 PUSH2 0x1B5D JUMPI PUSH1 0x7F DUP3 AND SWAP2 POP JUMPDEST PUSH1 0x20 DUP3 LT DUP2 SUB PUSH2 0x1B70 JUMPI PUSH2 0x1B6F PUSH2 0x1B19 JUMP JUMPDEST JUMPDEST POP SWAP2 SWAP1 POP JUMP JUMPDEST PUSH0 DUP2 SWAP1 POP DUP2 PUSH0 MSTORE PUSH1 0x20 PUSH0 KECCAK256 SWAP1 POP SWAP2 SWAP1 POP JUMP JUMPDEST PUSH0 PUSH1 0x20 PUSH1 0x1F DUP4 ADD DIV SWAP1 POP SWAP2 SWAP1 POP JUMP JUMPDEST PUSH0 DUP3 DUP3 SHL SWAP1 POP SWAP3 SWAP2 POP POP JUMP JUMPDEST PUSH0 PUSH1 0x8 DUP4 MUL PUSH2 0x1BD2 PUSH32 0xFFFFFFFFFFFFFFFFFFFFFFFFFFFFFFFFFFFFFFFFFFFFFFFFFFFFFFFFFFFFFFFF DUP3 PUSH2 0x1B97 JUMP JUMPDEST PUSH2 0x1BDC DUP7 DUP4 PUSH2 0x1B97 JUMP JUMPDEST SWAP6 POP DUP1 NOT DUP5 AND SWAP4 POP DUP1 DUP7 AND DUP5 OR SWAP3 POP POP POP SWAP4 SWAP3 POP POP POP JUMP JUMPDEST PUSH0 DUP2 SWAP1 POP SWAP2 SWAP1 POP JUMP JUMPDEST PUSH0 DUP2 SWAP1 POP SWAP2 SWAP1 POP JUMP JUMPDEST PUSH0 PUSH2 0x1C20 PUSH2 0x1C1B PUSH2 0x1C16 DUP5 PUSH2 0x1BF4 JUMP JUMPDEST PUSH2 0x1BFD JUMP JUMPDEST PUSH2 0x1BF4 JUMP JUMPDEST SWAP1 POP SWAP2 SWAP1 POP JUMP JUMPDEST PUSH0 DUP2 SWAP1 POP SWAP2 SWAP1 POP JUMP JUMPDEST PUSH2 0x1C39 DUP4 PUSH2 0x1C06 JUMP JUMPDEST PUSH2 0x1C4D PUSH2 0x1C45 DUP3 PUSH2 0x1C27 JUMP JUMPDEST DUP5 DUP5 SLOAD PUSH2 0x1BA3 JUMP JUMPDEST DUP3 SSTORE POP POP POP POP JUMP JUMPDEST PUSH0 SWAP1 JUMP JUMPDEST PUSH2 0x1C61 PUSH2 0x1C55 JUMP JUMPDEST PUSH2 0x1C6C DUP2 DUP5 DUP5 PUSH2 0x1C30 JUMP JUMPDEST POP POP POP JUMP JUMPDEST JUMPDEST DUP2 DUP2 LT ISZERO PUSH2 0x1C8F JUMPI PUSH2 0x1C84 PUSH0 DUP3 PUSH2 0x1C59 JUMP JUMPDEST PUSH1 0x1 DUP2 ADD SWAP1 POP PUSH2 0x1C72 JUMP JUMPDEST POP POP JUMP JUMPDEST PUSH1 0x1F DUP3 GT ISZERO PUSH2 0x1CD4 JUMPI PUSH2 0x1CA5 DUP2 PUSH2 0x1B76 JUMP JUMPDEST PUSH2 0x1CAE DUP5 PUSH2 0x1B88 JUMP JUMPDEST DUP2 ADD PUSH1 0x20 DUP6 LT ISZERO PUSH2 0x1CBD JUMPI DUP2 SWAP1 POP JUMPDEST PUSH2 0x1CD1 PUSH2 0x1CC9 DUP6 PUSH2 0x1B88 JUMP JUMPDEST DUP4 ADD DUP3 PUSH2 0x1C71 JUMP JUMPDEST POP POP JUMPDEST POP POP POP JUMP JUMPDEST PUSH0 DUP3 DUP3 SHR SWAP1 POP SWAP3 SWAP2 POP POP JUMP JUMPDEST PUSH0 PUSH2 0x1CF4 PUSH0 NOT DUP5 PUSH1 0x8 MUL PUSH2 0x1CD9 JUMP JUMPDEST NOT DUP1 DUP4 AND SWAP2 POP POP SWAP3 SWAP2 POP POP JUMP JUMPDEST PUSH0 PUSH2 0x1D0C DUP4 DUP4 PUSH2 0x1CE5 JUMP JUMPDEST SWAP2 POP DUP3 PUSH1 0x2 MUL DUP3 OR SWAP1 POP SWAP3 SWAP2 POP POP JUMP JUMPDEST PUSH2 0x1D25 DUP3 PUSH2 0x196D JUMP JUMPDEST PUSH8 0xFFFFFFFFFFFFFFFF DUP2 GT ISZERO PUSH2 0x1D3E JUMPI PUSH2 0x1D3D PUSH2 0x16D4 JUMP JUMPDEST JUMPDEST PUSH2 0x1D48 DUP3 SLOAD PUSH2 0x1B46 JUMP JUMPDEST PUSH2 0x1D53 DUP3 DUP3 DUP6 PUSH2 0x1C93 JUMP JUMPDEST PUSH0 PUSH1 0x20 SWAP1 POP PUSH1 0x1F DUP4 GT PUSH1 0x1 DUP2 EQ PUSH2 0x1D84 JUMPI PUSH0 DUP5 ISZERO PUSH2 0x1D72 JUMPI DUP3 DUP8 ADD MLOAD SWAP1 POP JUMPDEST PUSH2 0x1D7C DUP6 DUP3 PUSH2 0x1D01 JUMP JUMPDEST DUP7 SSTORE POP PUSH2 0x1DE3 JUMP JUMPDEST PUSH1 0x1F NOT DUP5 AND PUSH2 0x1D92 DUP7 PUSH2 0x1B76 JUMP JUMPDEST PUSH0 JUMPDEST DUP3 DUP2 LT ISZERO PUSH2 0x1DB9 JUMPI DUP5 DUP10 ADD MLOAD DUP3 SSTORE PUSH1 0x1 DUP3 ADD SWAP2 POP PUSH1 0x20 DUP6 ADD SWAP5 POP PUSH1 0x20 DUP2 ADD SWAP1 POP PUSH2 0x1D94 JUMP JUMPDEST DUP7 DUP4 LT ISZERO PUSH2 0x1DD6 JUMPI DUP5 DUP10 ADD MLOAD PUSH2 0x1DD2 PUSH1 0x1F DUP10 AND DUP3 PUSH2 0x1CE5 JUMP JUMPDEST DUP4 SSTORE POP JUMPDEST PUSH1 0x1 PUSH1 0x2 DUP9 MUL ADD DUP9 SSTORE POP POP POP JUMPDEST POP POP POP POP POP POP JUMP JUMPDEST PUSH32 0x5265737472696374000000000000000000000000000000000000000000000000 PUSH0 DUP3 ADD MSTORE POP JUMP JUMPDEST PUSH0 PUSH2 0x1E1F PUSH1 0x8 DUP4 PUSH2 0x1977 JUMP JUMPDEST SWAP2 POP PUSH2 0x1E2A DUP3 PUSH2 0x1DEB JUMP JUMPDEST PUSH1 0x20 DUP3 ADD SWAP1 POP SWAP2 SWAP1 POP JUMP JUMPDEST PUSH0 PUSH1 0x20 DUP3 ADD SWAP1 POP DUP2 DUP2 SUB PUSH0 DUP4 ADD MSTORE PUSH2 0x1E4C DUP2 PUSH2 0x1E13 JUMP JUMPDEST SWAP1 POP SWAP2 SWAP1 POP JUMP JUMPDEST PUSH32 0x4E6F7420666F756E640000000000000000000000000000000000000000000000 PUSH0 DUP3 ADD MSTORE POP JUMP JUMPDEST PUSH0 PUSH2 0x1E87 PUSH1 0x9 DUP4 PUSH2 0x1977 JUMP JUMPDEST SWAP2 POP PUSH2 0x1E92 DUP3 PUSH2 0x1E53 JUMP JUMPDEST PUSH1 0x20 DUP3 ADD SWAP1 POP SWAP2 SWAP1 POP JUMP JUMPDEST PUSH0 PUSH1 0x20 DUP3 ADD SWAP1 POP DUP2 DUP2 SUB PUSH0 DUP4 ADD MSTORE PUSH2 0x1EB4 DUP2 PUSH2 0x1E7B JUMP JUMPDEST SWAP1 POP SWAP2 SWAP1 POP JUMP JUMPDEST PUSH32 0x4E487B7100000000000000000000000000000000000000000000000000000000 PUSH0 MSTORE PUSH1 0x32 PUSH1 0x4 MSTORE PUSH1 0x24 PUSH0 REVERT JUMPDEST PUSH32 0x4E6F206964780000000000000000000000000000000000000000000000000000 PUSH0 DUP3 ADD MSTORE POP JUMP JUMPDEST PUSH0 PUSH2 0x1F1C PUSH1 0x6 DUP4 PUSH2 0x1977 JUMP JUMPDEST SWAP2 POP PUSH2 0x1F27 DUP3 PUSH2 0x1EE8 JUMP JUMPDEST PUSH1 0x20 DUP3 ADD SWAP1 POP SWAP2 SWAP1 POP JUMP JUMPDEST PUSH0 PUSH1 0x20 DUP3 ADD SWAP1 POP DUP2 DUP2 SUB PUSH0 DUP4 ADD MSTORE PUSH2 0x1F49 DUP2 PUSH2 0x1F10 JUMP JUMPDEST SWAP1 POP SWAP2 SWAP1 POP JUMP JUMPDEST PUSH32 0x4E487B7100000000000000000000000000000000000000000000000000000000 PUSH0 MSTORE PUSH1 0x11 PUSH1 0x4 MSTORE PUSH1 0x24 PUSH0 REVERT JUMPDEST PUSH0 PUSH2 0x1F87 DUP3 PUSH2 0x1BF4 JUMP JUMPDEST SWAP2 POP PUSH2 0x1F92 DUP4 PUSH2 0x1BF4 JUMP JUMPDEST SWAP3 POP DUP3 DUP3 SUB SWAP1 POP DUP2 DUP2 GT ISZERO PUSH2 0x1FAA JUMPI PUSH2 0x1FA9 PUSH2 0x1F50 JUMP JUMPDEST JUMPDEST SWAP3 SWAP2 POP POP JUMP JUMPDEST PUSH0 PUSH2 0x1FBA DUP3 PUSH2 0x1BF4 JUMP JUMPDEST SWAP2 POP PUSH2 0x1FC5 DUP4 PUSH2 0x1BF4 JUMP JUMPDEST SWAP3 POP DUP3 DUP3 ADD SWAP1 POP DUP1 DUP3 GT ISZERO PUSH2 0x1FDD JUMPI PUSH2 0x1FDC PUSH2 0x1F50 JUMP JUMPDEST JUMPDEST SWAP3 SWAP2 POP POP JUMP JUMPDEST PUSH32 0x4E487B7100000000000000000000000000000000000000000000000000000000 PUSH0 MSTORE PUSH1 0x31 PUSH1 0x4 MSTORE PUSH1 0x24 PUSH0 REVERT INVALID LOG2 PUSH5 0x6970667358 0x22 SLT KECCAK256 MLOAD DUP15 0xBC PREVRANDAO NOT EXTCODEHASH LOG0 0xDA JUMPDEST BALANCE PREVRANDAO PUSH14 0xA1F189CBBFDAE4EB56A762D84933 SSTORE COINBASE KECCAK256 0x23 DUP6 0xFC PUSH5 0x736F6C6343 STOP ADDMOD BYTE STOP CALLER "
				},
				"gasEstimates": {
					"creation": {
						"codeDepositCost": "1652400",
						"executionCost": "infinite",
						"totalCost": "infinite"
					},
					"external": {
						"expose()": "infinite",
						"getItemType()": "6975",
						"getParent()": "7017",
						"getSharedWith()": "infinite",
						"isOwn()": "4734",
						"isSharedWith()": "infinite",
						"restictFrom(address)": "infinite",
						"setCardId(string)": "infinite",
						"setItem(string,string)": "infinite",
						"setName(string)": "infinite",
						"setParent(address)": "infinite",
						"shareWith(address)": "infinite"
					}
				},
				"methodIdentifiers": {
					"expose()": "ba379e86",
					"getItemType()": "2858d3c8",
					"getParent()": "80f76021",
					"getSharedWith()": "a95264d0",
					"isOwn()": "b9daf3e2",
					"isSharedWith()": "4ba83374",
					"restictFrom(address)": "ded92dac",
					"setCardId(string)": "efd8af9f",
					"setItem(string,string)": "7a4c982e",
					"setName(string)": "c47f0027",
					"setParent(address)": "1499c592",
					"shareWith(address)": "5da6ef8d"
				}
			},
			"storageLayout": {
				"storage": [
					{
						"astId": 148,
						"contract": "Items/LoyalityCard.sol:LoyalityCard",
						"label": "name",
						"offset": 0,
						"slot": "0",
						"type": "t_string_storage"
					},
					{
						"astId": 151,
						"contract": "Items/LoyalityCard.sol:LoyalityCard",
						"label": "item_type",
						"offset": 0,
						"slot": "1",
						"type": "t_enum(ItemType)424"
					},
					{
						"astId": 153,
						"contract": "Items/LoyalityCard.sol:LoyalityCard",
						"label": "owner",
						"offset": 1,
						"slot": "1",
						"type": "t_address"
					},
					{
						"astId": 155,
						"contract": "Items/LoyalityCard.sol:LoyalityCard",
						"label": "parent",
						"offset": 0,
						"slot": "2",
						"type": "t_address"
					},
					{
						"astId": 158,
						"contract": "Items/LoyalityCard.sol:LoyalityCard",
						"label": "sharedWith",
						"offset": 0,
						"slot": "3",
						"type": "t_array(t_address)dyn_storage"
					},
					{
						"astId": 48,
						"contract": "Items/LoyalityCard.sol:LoyalityCard",
						"label": "card_id",
						"offset": 0,
						"slot": "4",
						"type": "t_string_storage"
					}
				],
				"types": {
					"t_address": {
						"encoding": "inplace",
						"label": "address",
						"numberOfBytes": "20"
					},
					"t_array(t_address)dyn_storage": {
						"base": "t_address",
						"encoding": "dynamic_array",
						"label": "address[]",
						"numberOfBytes": "32"
					},
					"t_enum(ItemType)424": {
						"encoding": "inplace",
						"label": "enum Constants.ItemType",
						"numberOfBytes": "1"
					},
					"t_string_storage": {
						"encoding": "bytes",
						"label": "string",
						"numberOfBytes": "32"
					}
				}
			},
			"userdoc": {
				"kind": "user",
				"methods": {},
				"version": 1
			}
		}
	}
}