{
	"Items/TimeCapsule.sol": {
		"TimeCapsule": {
			"abi": [
				{
					"inputs": [
						{
							"internalType": "string",
							"name": "_name",
							"type": "string"
						},
						{
							"internalType": "string",
							"name": "_text",
							"type": "string"
						},
						{
							"internalType": "uint256",
							"name": "_time",
							"type": "uint256"
						},
						{
							"internalType": "address",
							"name": "_owner",
							"type": "address"
						},
						{
							"internalType": "address",
							"name": "_parent",
							"type": "address"
						}
					],
					"stateMutability": "nonpayable",
					"type": "constructor"
				},
				{
					"anonymous": false,
					"inputs": [
						{
							"indexed": false,
							"internalType": "address",
							"name": "",
							"type": "address"
						}
					],
					"name": "Created",
					"type": "event"
				},
				{
					"anonymous": false,
					"inputs": [
						{
							"indexed": false,
							"internalType": "address",
							"name": "",
							"type": "address"
						}
					],
					"name": "Updated",
					"type": "event"
				},
				{
					"inputs": [],
					"name": "expose",
					"outputs": [
						{
							"internalType": "string",
							"name": "",
							"type": "string"
						}
					],
					"stateMutability": "view",
					"type": "function"
				},
				{
					"inputs": [],
					"name": "getParent",
					"outputs": [
						{
							"internalType": "address",
							"name": "",
							"type": "address"
						}
					],
					"stateMutability": "view",
					"type": "function"
				},
				{
					"inputs": [],
					"name": "getSharedWith",
					"outputs": [
						{
							"internalType": "address[]",
							"name": "",
							"type": "address[]"
						}
					],
					"stateMutability": "view",
					"type": "function"
				},
				{
					"inputs": [],
					"name": "isOwn",
					"outputs": [
						{
							"internalType": "bool",
							"name": "",
							"type": "bool"
						}
					],
					"stateMutability": "view",
					"type": "function"
				},
				{
					"inputs": [],
					"name": "isSharedWith",
					"outputs": [
						{
							"internalType": "bool",
							"name": "",
							"type": "bool"
						}
					],
					"stateMutability": "view",
					"type": "function"
				},
				{
					"inputs": [],
					"name": "item_type",
					"outputs": [
						{
							"internalType": "uint256",
							"name": "",
							"type": "uint256"
						}
					],
					"stateMutability": "view",
					"type": "function"
				},
				{
					"inputs": [
						{
							"internalType": "address",
							"name": "_f",
							"type": "address"
						}
					],
					"name": "restictFrom",
					"outputs": [],
					"stateMutability": "nonpayable",
					"type": "function"
				},
				{
					"inputs": [
						{
							"internalType": "string",
							"name": "_n",
							"type": "string"
						}
					],
					"name": "setName",
					"outputs": [],
					"stateMutability": "nonpayable",
					"type": "function"
				},
				{
					"inputs": [
						{
							"internalType": "address",
							"name": "_w",
							"type": "address"
						}
					],
					"name": "shareWith",
					"outputs": [],
					"stateMutability": "nonpayable",
					"type": "function"
				},
				{
					"inputs": [],
					"name": "time",
					"outputs": [
						{
							"internalType": "uint256",
							"name": "",
							"type": "uint256"
						}
					],
					"stateMutability": "view",
					"type": "function"
				}
			],
			"devdoc": {
				"kind": "dev",
				"methods": {},
				"version": 1
			},
			"evm": {
				"assembly": "    /* \"Items/TimeCapsule.sol\":104:687  contract TimeCapsule is VaultItem{... */\n  mstore(0x40, 0x80)\n    /* \"Items/TimeCapsule.sol\":192:518  constructor(... */\n  callvalue\n  dup1\n  iszero\n  tag_1\n  jumpi\n  0x00\n  dup1\n  revert\ntag_1:\n  pop\n  mload(0x40)\n  sub(codesize, bytecodeSize)\n  dup1\n  bytecodeSize\n  dup4\n  codecopy\n  dup2\n  add\n  0x40\n  dup2\n  swap1\n  mstore\n  tag_2\n  swap2\n  tag_3\n  jump\t// in\ntag_2:\n    /* \"Items/TimeCapsule.sol\":366:367  4 */\n  0x04\n    /* \"Items/VaultItem.sol\":709:718  item_type */\n  0x01\n    /* \"Items/VaultItem.sol\":709:729  item_type = _itm_typ */\n  dup2\n  swap1\n  sstore\n    /* \"Items/TimeCapsule.sol\":378:383  _name */\n  dup6\n    /* \"Items/TimeCapsule.sol\":394:400  _owner */\n  dup4\n    /* \"Items/TimeCapsule.sol\":411:418  _parent */\n  dup4\n    /* \"Items/VaultItem.sol\":740:744  name */\n  0x00\n    /* \"Items/VaultItem.sol\":740:749  name = _n */\n  tag_7\n    /* \"Items/TimeCapsule.sol\":378:383  _name */\n  dup5\n    /* \"Items/VaultItem.sol\":740:744  name */\n  dup3\n    /* \"Items/VaultItem.sol\":740:749  name = _n */\n  tag_8\n  jump\t// in\ntag_7:\n  pop\n    /* \"Items/VaultItem.sol\":762:767  owner */\n  0x02\n    /* \"Items/VaultItem.sol\":762:772  owner = _o */\n  dup1\n  sload\n  sub(shl(0xa0, 0x01), 0x01)\n  swap4\n  dup5\n  and\n  not(sub(shl(0xa0, 0x01), 0x01))\n  swap2\n  dup3\n  and\n  or\n  swap1\n  swap2\n  sstore\n    /* \"Items/VaultItem.sol\":783:789  parent */\n  0x03\n    /* \"Items/VaultItem.sol\":783:794  parent = _p */\n  dup1\n  sload\n  swap3\n  swap1\n  swap4\n  and\n  swap2\n  and\n  or\n  swap1\n  sstore\n  pop\n    /* \"Items/TimeCapsule.sol\":438:442  text */\n  0x05\n  swap1\n  pop\n    /* \"Items/TimeCapsule.sol\":438:450  text = _text */\n  tag_10\n    /* \"Items/TimeCapsule.sol\":445:450  _text */\n  dup6\n    /* \"Items/TimeCapsule.sol\":438:442  text */\n  dup3\n    /* \"Items/TimeCapsule.sol\":438:450  text = _text */\n  tag_8\n  jump\t// in\ntag_10:\n  pop\n    /* \"Items/TimeCapsule.sol\":461:465  time */\n  0x06\n    /* \"Items/TimeCapsule.sol\":461:473  time = _time */\n  dup4\n  swap1\n  sstore\n    /* \"Items/TimeCapsule.sol\":491:510  Created(msg.sender) */\n  mload(0x40)\n    /* \"Items/TimeCapsule.sol\":499:509  msg.sender */\n  caller\n    /* \"#utility.yul\":4506:4557   */\n  dup2\n  mstore\n    /* \"Items/TimeCapsule.sol\":491:510  Created(msg.sender) */\n  0x1449abf21e49fd025f33495e77f7b1461caefdd3d4bb646424a3f445c4576a5b\n  swap1\n    /* \"#utility.yul\":4494:4496   */\n  0x20\n    /* \"#utility.yul\":4479:4497   */\n  add\n    /* \"Items/TimeCapsule.sol\":491:510  Created(msg.sender) */\n  mload(0x40)\n  dup1\n  swap2\n  sub\n  swap1\n  log1\n    /* \"Items/TimeCapsule.sol\":192:518  constructor(... */\n  pop\n  pop\n  pop\n  pop\n  pop\n    /* \"Items/TimeCapsule.sol\":104:687  contract TimeCapsule is VaultItem{... */\n  jump(tag_21)\n    /* \"#utility.yul\":14:141   */\ntag_14:\n    /* \"#utility.yul\":75:85   */\n  0x4e487b71\n    /* \"#utility.yul\":70:73   */\n  0xe0\n    /* \"#utility.yul\":66:86   */\n  shl\n    /* \"#utility.yul\":63:64   */\n  0x00\n    /* \"#utility.yul\":56:87   */\n  mstore\n    /* \"#utility.yul\":106:110   */\n  0x41\n    /* \"#utility.yul\":103:104   */\n  0x04\n    /* \"#utility.yul\":96:111   */\n  mstore\n    /* \"#utility.yul\":130:134   */\n  0x24\n    /* \"#utility.yul\":127:128   */\n  0x00\n    /* \"#utility.yul\":120:135   */\n  revert\n    /* \"#utility.yul\":146:869   */\ntag_15:\n    /* \"#utility.yul\":200:205   */\n  0x00\n    /* \"#utility.yul\":253:256   */\n  dup3\n    /* \"#utility.yul\":246:250   */\n  0x1f\n    /* \"#utility.yul\":238:244   */\n  dup4\n    /* \"#utility.yul\":234:251   */\n  add\n    /* \"#utility.yul\":230:257   */\n  slt\n    /* \"#utility.yul\":220:275   */\n  tag_24\n  jumpi\n    /* \"#utility.yul\":271:272   */\n  0x00\n    /* \"#utility.yul\":268:269   */\n  dup1\n    /* \"#utility.yul\":261:273   */\n  revert\n    /* \"#utility.yul\":220:275   */\ntag_24:\n    /* \"#utility.yul\":298:311   */\n  dup2\n  mload\n  sub(shl(0x40, 0x01), 0x01)\n    /* \"#utility.yul\":323:353   */\n  dup2\n  gt\n    /* \"#utility.yul\":320:376   */\n  iszero\n  tag_26\n  jumpi\n    /* \"#utility.yul\":356:374   */\n  tag_26\n  tag_14\n  jump\t// in\ntag_26:\n    /* \"#utility.yul\":405:407   */\n  0x40\n    /* \"#utility.yul\":399:408   */\n  mload\n    /* \"#utility.yul\":497:499   */\n  0x1f\n    /* \"#utility.yul\":459:476   */\n  dup3\n  add\n  not(0x1f)\n    /* \"#utility.yul\":455:486   */\n  swap1\n  dup2\n  and\n    /* \"#utility.yul\":488:490   */\n  0x3f\n    /* \"#utility.yul\":451:491   */\n  add\n    /* \"#utility.yul\":447:501   */\n  and\n    /* \"#utility.yul\":435:502   */\n  dup2\n  add\n  sub(shl(0x40, 0x01), 0x01)\n    /* \"#utility.yul\":517:551   */\n  dup2\n  gt\n    /* \"#utility.yul\":553:575   */\n  dup3\n  dup3\n  lt\n    /* \"#utility.yul\":514:576   */\n  or\n    /* \"#utility.yul\":511:599   */\n  iszero\n  tag_28\n  jumpi\n    /* \"#utility.yul\":579:597   */\n  tag_28\n  tag_14\n  jump\t// in\ntag_28:\n    /* \"#utility.yul\":615:617   */\n  0x40\n    /* \"#utility.yul\":608:630   */\n  mstore\n    /* \"#utility.yul\":639:661   */\n  dup2\n  dup2\n  mstore\n    /* \"#utility.yul\":680:699   */\n  dup4\n  dup3\n  add\n    /* \"#utility.yul\":701:705   */\n  0x20\n    /* \"#utility.yul\":676:706   */\n  add\n    /* \"#utility.yul\":673:712   */\n  dup6\n  lt\n    /* \"#utility.yul\":670:729   */\n  iszero\n  tag_29\n  jumpi\n    /* \"#utility.yul\":725:726   */\n  0x00\n    /* \"#utility.yul\":722:723   */\n  dup1\n    /* \"#utility.yul\":715:727   */\n  revert\n    /* \"#utility.yul\":670:729   */\ntag_29:\n    /* \"#utility.yul\":782:788   */\n  dup2\n    /* \"#utility.yul\":775:779   */\n  0x20\n    /* \"#utility.yul\":767:773   */\n  dup6\n    /* \"#utility.yul\":763:780   */\n  add\n    /* \"#utility.yul\":756:760   */\n  0x20\n    /* \"#utility.yul\":748:754   */\n  dup4\n    /* \"#utility.yul\":744:761   */\n  add\n    /* \"#utility.yul\":738:789   */\n  mcopy\n    /* \"#utility.yul\":837:838   */\n  0x00\n    /* \"#utility.yul\":809:828   */\n  swap2\n  dup2\n  add\n    /* \"#utility.yul\":830:834   */\n  0x20\n    /* \"#utility.yul\":805:835   */\n  add\n    /* \"#utility.yul\":798:839   */\n  swap2\n  swap1\n  swap2\n  mstore\n    /* \"#utility.yul\":813:819   */\n  swap4\n    /* \"#utility.yul\":146:869   */\n  swap3\n  pop\n  pop\n  pop\n  jump\t// out\n    /* \"#utility.yul\":874:1051   */\ntag_16:\n    /* \"#utility.yul\":953:966   */\n  dup1\n  mload\n  sub(shl(0xa0, 0x01), 0x01)\n    /* \"#utility.yul\":995:1026   */\n  dup2\n  and\n    /* \"#utility.yul\":985:1027   */\n  dup2\n  eq\n    /* \"#utility.yul\":975:1045   */\n  tag_31\n  jumpi\n    /* \"#utility.yul\":1041:1042   */\n  0x00\n    /* \"#utility.yul\":1038:1039   */\n  dup1\n    /* \"#utility.yul\":1031:1043   */\n  revert\n    /* \"#utility.yul\":975:1045   */\ntag_31:\n    /* \"#utility.yul\":874:1051   */\n  swap2\n  swap1\n  pop\n  jump\t// out\n    /* \"#utility.yul\":1056:1846   */\ntag_3:\n    /* \"#utility.yul\":1182:1188   */\n  0x00\n    /* \"#utility.yul\":1190:1196   */\n  dup1\n    /* \"#utility.yul\":1198:1204   */\n  0x00\n    /* \"#utility.yul\":1206:1212   */\n  dup1\n    /* \"#utility.yul\":1214:1220   */\n  0x00\n    /* \"#utility.yul\":1267:1270   */\n  0xa0\n    /* \"#utility.yul\":1255:1264   */\n  dup7\n    /* \"#utility.yul\":1246:1253   */\n  dup9\n    /* \"#utility.yul\":1242:1265   */\n  sub\n    /* \"#utility.yul\":1238:1271   */\n  slt\n    /* \"#utility.yul\":1235:1288   */\n  iszero\n  tag_33\n  jumpi\n    /* \"#utility.yul\":1284:1285   */\n  0x00\n    /* \"#utility.yul\":1281:1282   */\n  dup1\n    /* \"#utility.yul\":1274:1286   */\n  revert\n    /* \"#utility.yul\":1235:1288   */\ntag_33:\n    /* \"#utility.yul\":1311:1327   */\n  dup6\n  mload\n  sub(shl(0x40, 0x01), 0x01)\n    /* \"#utility.yul\":1339:1369   */\n  dup2\n  gt\n    /* \"#utility.yul\":1336:1386   */\n  iszero\n  tag_34\n  jumpi\n    /* \"#utility.yul\":1382:1383   */\n  0x00\n    /* \"#utility.yul\":1379:1380   */\n  dup1\n    /* \"#utility.yul\":1372:1384   */\n  revert\n    /* \"#utility.yul\":1336:1386   */\ntag_34:\n    /* \"#utility.yul\":1405:1466   */\n  tag_35\n    /* \"#utility.yul\":1458:1465   */\n  dup9\n    /* \"#utility.yul\":1449:1455   */\n  dup3\n    /* \"#utility.yul\":1438:1447   */\n  dup10\n    /* \"#utility.yul\":1434:1456   */\n  add\n    /* \"#utility.yul\":1405:1466   */\n  tag_15\n  jump\t// in\ntag_35:\n    /* \"#utility.yul\":1512:1514   */\n  0x20\n    /* \"#utility.yul\":1497:1515   */\n  dup9\n  add\n    /* \"#utility.yul\":1491:1516   */\n  mload\n    /* \"#utility.yul\":1395:1466   */\n  swap1\n  swap7\n  pop\n    /* \"#utility.yul\":1491:1516   */\n  swap1\n  pop\n  sub(shl(0x40, 0x01), 0x01)\n    /* \"#utility.yul\":1528:1560   */\n  dup2\n  gt\n    /* \"#utility.yul\":1525:1577   */\n  iszero\n  tag_36\n  jumpi\n    /* \"#utility.yul\":1573:1574   */\n  0x00\n    /* \"#utility.yul\":1570:1571   */\n  dup1\n    /* \"#utility.yul\":1563:1575   */\n  revert\n    /* \"#utility.yul\":1525:1577   */\ntag_36:\n    /* \"#utility.yul\":1596:1659   */\n  tag_37\n    /* \"#utility.yul\":1651:1658   */\n  dup9\n    /* \"#utility.yul\":1640:1648   */\n  dup3\n    /* \"#utility.yul\":1629:1638   */\n  dup10\n    /* \"#utility.yul\":1625:1649   */\n  add\n    /* \"#utility.yul\":1596:1659   */\n  tag_15\n  jump\t// in\ntag_37:\n    /* \"#utility.yul\":1586:1659   */\n  swap5\n  pop\n  pop\n    /* \"#utility.yul\":1699:1701   */\n  0x40\n    /* \"#utility.yul\":1688:1697   */\n  dup7\n    /* \"#utility.yul\":1684:1702   */\n  add\n    /* \"#utility.yul\":1678:1703   */\n  mload\n    /* \"#utility.yul\":1668:1703   */\n  swap3\n  pop\n    /* \"#utility.yul\":1722:1771   */\n  tag_38\n    /* \"#utility.yul\":1767:1769   */\n  0x60\n    /* \"#utility.yul\":1756:1765   */\n  dup8\n    /* \"#utility.yul\":1752:1770   */\n  add\n    /* \"#utility.yul\":1722:1771   */\n  tag_16\n  jump\t// in\ntag_38:\n    /* \"#utility.yul\":1712:1771   */\n  swap2\n  pop\n    /* \"#utility.yul\":1790:1840   */\n  tag_39\n    /* \"#utility.yul\":1835:1838   */\n  0x80\n    /* \"#utility.yul\":1824:1833   */\n  dup8\n    /* \"#utility.yul\":1820:1839   */\n  add\n    /* \"#utility.yul\":1790:1840   */\n  tag_16\n  jump\t// in\ntag_39:\n    /* \"#utility.yul\":1780:1840   */\n  swap1\n  pop\n    /* \"#utility.yul\":1056:1846   */\n  swap3\n  swap6\n  pop\n  swap3\n  swap6\n  swap1\n  swap4\n  pop\n  jump\t// out\n    /* \"#utility.yul\":1851:2231   */\ntag_17:\n    /* \"#utility.yul\":1930:1931   */\n  0x01\n    /* \"#utility.yul\":1926:1938   */\n  dup2\n  dup2\n  shr\n  swap1\n    /* \"#utility.yul\":1973:1985   */\n  dup3\n  and\n  dup1\n    /* \"#utility.yul\":1994:2055   */\n  tag_41\n  jumpi\n    /* \"#utility.yul\":2048:2052   */\n  0x7f\n    /* \"#utility.yul\":2040:2046   */\n  dup3\n    /* \"#utility.yul\":2036:2053   */\n  and\n    /* \"#utility.yul\":2026:2053   */\n  swap2\n  pop\n    /* \"#utility.yul\":1994:2055   */\ntag_41:\n    /* \"#utility.yul\":2101:2103   */\n  0x20\n    /* \"#utility.yul\":2093:2099   */\n  dup3\n    /* \"#utility.yul\":2090:2104   */\n  lt\n    /* \"#utility.yul\":2070:2088   */\n  dup2\n    /* \"#utility.yul\":2067:2105   */\n  sub\n    /* \"#utility.yul\":2064:2225   */\n  tag_42\n  jumpi\n    /* \"#utility.yul\":2147:2157   */\n  0x4e487b71\n    /* \"#utility.yul\":2142:2145   */\n  0xe0\n    /* \"#utility.yul\":2138:2158   */\n  shl\n    /* \"#utility.yul\":2135:2136   */\n  0x00\n    /* \"#utility.yul\":2128:2159   */\n  mstore\n    /* \"#utility.yul\":2182:2186   */\n  0x22\n    /* \"#utility.yul\":2179:2180   */\n  0x04\n    /* \"#utility.yul\":2172:2187   */\n  mstore\n    /* \"#utility.yul\":2210:2214   */\n  0x24\n    /* \"#utility.yul\":2207:2208   */\n  0x00\n    /* \"#utility.yul\":2200:2215   */\n  revert\n    /* \"#utility.yul\":2064:2225   */\ntag_42:\n  pop\n    /* \"#utility.yul\":1851:2231   */\n  swap2\n  swap1\n  pop\n  jump\t// out\n    /* \"#utility.yul\":2362:2880   */\ntag_19:\n    /* \"#utility.yul\":2464:2466   */\n  0x1f\n    /* \"#utility.yul\":2459:2462   */\n  dup3\n    /* \"#utility.yul\":2456:2467   */\n  gt\n    /* \"#utility.yul\":2453:2874   */\n  iszero\n  tag_45\n  jumpi\n    /* \"#utility.yul\":2500:2505   */\n  dup1\n    /* \"#utility.yul\":2497:2498   */\n  0x00\n    /* \"#utility.yul\":2490:2506   */\n  mstore\n    /* \"#utility.yul\":2544:2548   */\n  0x20\n    /* \"#utility.yul\":2541:2542   */\n  0x00\n    /* \"#utility.yul\":2531:2549   */\n  keccak256\n    /* \"#utility.yul\":2614:2616   */\n  0x1f\n    /* \"#utility.yul\":2602:2612   */\n  dup5\n    /* \"#utility.yul\":2598:2617   */\n  add\n    /* \"#utility.yul\":2595:2596   */\n  0x05\n    /* \"#utility.yul\":2591:2618   */\n  shr\n    /* \"#utility.yul\":2585:2589   */\n  dup2\n    /* \"#utility.yul\":2581:2619   */\n  add\n    /* \"#utility.yul\":2650:2654   */\n  0x20\n    /* \"#utility.yul\":2638:2648   */\n  dup6\n    /* \"#utility.yul\":2635:2655   */\n  lt\n    /* \"#utility.yul\":2632:2679   */\n  iszero\n  tag_46\n  jumpi\n  pop\n    /* \"#utility.yul\":2673:2677   */\n  dup1\n    /* \"#utility.yul\":2632:2679   */\ntag_46:\n    /* \"#utility.yul\":2728:2730   */\n  0x1f\n    /* \"#utility.yul\":2723:2726   */\n  dup5\n    /* \"#utility.yul\":2719:2731   */\n  add\n    /* \"#utility.yul\":2716:2717   */\n  0x05\n    /* \"#utility.yul\":2712:2732   */\n  shr\n    /* \"#utility.yul\":2706:2710   */\n  dup3\n    /* \"#utility.yul\":2702:2733   */\n  add\n    /* \"#utility.yul\":2692:2733   */\n  swap2\n  pop\n    /* \"#utility.yul\":2783:2864   */\ntag_47:\n    /* \"#utility.yul\":2801:2803   */\n  dup2\n    /* \"#utility.yul\":2794:2799   */\n  dup2\n    /* \"#utility.yul\":2791:2804   */\n  lt\n    /* \"#utility.yul\":2783:2864   */\n  iszero\n  tag_49\n  jumpi\n    /* \"#utility.yul\":2860:2861   */\n  0x00\n    /* \"#utility.yul\":2846:2862   */\n  dup2\n  sstore\n    /* \"#utility.yul\":2827:2828   */\n  0x01\n    /* \"#utility.yul\":2816:2829   */\n  add\n    /* \"#utility.yul\":2783:2864   */\n  jump(tag_47)\ntag_49:\n    /* \"#utility.yul\":2787:2790   */\n  pop\n  pop\n    /* \"#utility.yul\":2453:2874   */\ntag_45:\n    /* \"#utility.yul\":2362:2880   */\n  pop\n  pop\n  pop\n  jump\t// out\n    /* \"#utility.yul\":3056:4355   */\ntag_8:\n    /* \"#utility.yul\":3176:3186   */\n  dup2\n  mload\n  sub(shl(0x40, 0x01), 0x01)\n    /* \"#utility.yul\":3198:3228   */\n  dup2\n  gt\n    /* \"#utility.yul\":3195:3251   */\n  iszero\n  tag_53\n  jumpi\n    /* \"#utility.yul\":3231:3249   */\n  tag_53\n  tag_14\n  jump\t// in\ntag_53:\n    /* \"#utility.yul\":3260:3357   */\n  tag_54\n    /* \"#utility.yul\":3350:3356   */\n  dup2\n    /* \"#utility.yul\":3310:3348   */\n  tag_55\n    /* \"#utility.yul\":3342:3346   */\n  dup5\n    /* \"#utility.yul\":3336:3347   */\n  sload\n    /* \"#utility.yul\":3310:3348   */\n  tag_17\n  jump\t// in\ntag_55:\n    /* \"#utility.yul\":3304:3308   */\n  dup5\n    /* \"#utility.yul\":3260:3357   */\n  tag_19\n  jump\t// in\ntag_54:\n    /* \"#utility.yul\":3406:3410   */\n  0x20\n    /* \"#utility.yul\":3437:3439   */\n  0x1f\n    /* \"#utility.yul\":3426:3440   */\n  dup3\n  gt\n    /* \"#utility.yul\":3454:3455   */\n  0x01\n    /* \"#utility.yul\":3449:4098   */\n  dup2\n  eq\n  tag_57\n  jumpi\n    /* \"#utility.yul\":4142:4143   */\n  0x00\n    /* \"#utility.yul\":4159:4165   */\n  dup4\n    /* \"#utility.yul\":4156:4245   */\n  iszero\n  tag_58\n  jumpi\n  pop\n    /* \"#utility.yul\":4211:4230   */\n  dup5\n  dup3\n  add\n    /* \"#utility.yul\":4205:4231   */\n  mload\n    /* \"#utility.yul\":4156:4245   */\ntag_58:\n  not(0x00)\n    /* \"#utility.yul\":3013:3014   */\n  0x03\n    /* \"#utility.yul\":3009:3020   */\n  dup6\n  swap1\n  shl\n    /* \"#utility.yul\":3005:3029   */\n  shr\n    /* \"#utility.yul\":3001:3030   */\n  not\n    /* \"#utility.yul\":2991:3031   */\n  and\n    /* \"#utility.yul\":3037:3038   */\n  0x01\n    /* \"#utility.yul\":3033:3044   */\n  dup5\n  swap1\n  shl\n    /* \"#utility.yul\":2988:3045   */\n  or\n    /* \"#utility.yul\":4258:4339   */\n  dup5\n  sstore\n    /* \"#utility.yul\":3419:4349   */\n  jump(tag_49)\n    /* \"#utility.yul\":3449:4098   */\ntag_57:\n    /* \"#utility.yul\":2309:2310   */\n  0x00\n    /* \"#utility.yul\":2302:2316   */\n  dup5\n  dup2\n  mstore\n    /* \"#utility.yul\":2346:2350   */\n  0x20\n    /* \"#utility.yul\":2333:2351   */\n  dup2\n  keccak256\n  not(0x1f)\n    /* \"#utility.yul\":3485:3505   */\n  dup6\n  and\n  swap2\n    /* \"#utility.yul\":3603:3825   */\ntag_61:\n    /* \"#utility.yul\":3617:3624   */\n  dup3\n    /* \"#utility.yul\":3614:3615   */\n  dup2\n    /* \"#utility.yul\":3611:3625   */\n  lt\n    /* \"#utility.yul\":3603:3825   */\n  iszero\n  tag_63\n  jumpi\n    /* \"#utility.yul\":3699:3718   */\n  dup8\n  dup6\n  add\n    /* \"#utility.yul\":3693:3719   */\n  mload\n    /* \"#utility.yul\":3678:3720   */\n  dup3\n  sstore\n    /* \"#utility.yul\":3806:3810   */\n  0x20\n    /* \"#utility.yul\":3791:3811   */\n  swap5\n  dup6\n  add\n  swap5\n    /* \"#utility.yul\":3759:3760   */\n  0x01\n    /* \"#utility.yul\":3747:3761   */\n  swap1\n  swap3\n  add\n  swap2\n    /* \"#utility.yul\":3633:3645   */\n  add\n    /* \"#utility.yul\":3603:3825   */\n  jump(tag_61)\ntag_63:\n    /* \"#utility.yul\":3607:3610   */\n  pop\n    /* \"#utility.yul\":3853:3859   */\n  dup5\n    /* \"#utility.yul\":3844:3851   */\n  dup3\n    /* \"#utility.yul\":3841:3860   */\n  lt\n    /* \"#utility.yul\":3838:4039   */\n  iszero\n  tag_64\n  jumpi\n    /* \"#utility.yul\":3914:3933   */\n  dup7\n  dup5\n  add\n    /* \"#utility.yul\":3908:3934   */\n  mload\n  not(0x00)\n    /* \"#utility.yul\":3997:3998   */\n  0x03\n    /* \"#utility.yul\":3993:4007   */\n  dup8\n  swap1\n  shl\n    /* \"#utility.yul\":4009:4012   */\n  0xf8\n    /* \"#utility.yul\":3989:4013   */\n  and\n    /* \"#utility.yul\":3985:4022   */\n  shr\n    /* \"#utility.yul\":3981:4023   */\n  not\n    /* \"#utility.yul\":3966:4024   */\n  and\n    /* \"#utility.yul\":3951:4025   */\n  dup2\n  sstore\n    /* \"#utility.yul\":3838:4039   */\ntag_64:\n  pop\n  pop\n  pop\n  pop\n    /* \"#utility.yul\":4085:4086   */\n  0x01\n    /* \"#utility.yul\":4069:4083   */\n  swap1\n  dup2\n  shl\n    /* \"#utility.yul\":4065:4087   */\n  add\n    /* \"#utility.yul\":4052:4088   */\n  swap1\n  sstore\n  pop\n    /* \"#utility.yul\":3056:4355   */\n  jump\t// out\n    /* \"#utility.yul\":4360:4563   */\ntag_21:\n    /* \"Items/TimeCapsule.sol\":104:687  contract TimeCapsule is VaultItem{... */\n  dataSize(sub_0)\n  dup1\n  dataOffset(sub_0)\n  0x00\n  codecopy\n  0x00\n  return\nstop\n\nsub_0: assembly {\n        /* \"Items/TimeCapsule.sol\":104:687  contract TimeCapsule is VaultItem{... */\n      mstore(0x40, 0x80)\n      callvalue\n      dup1\n      iszero\n      tag_1\n      jumpi\n      0x00\n      dup1\n      revert\n    tag_1:\n      pop\n      jumpi(tag_2, lt(calldatasize, 0x04))\n      shr(0xe0, calldataload(0x00))\n      dup1\n      0x16ada547\n      eq\n      tag_3\n      jumpi\n      dup1\n      0x26c7b327\n      eq\n      tag_4\n      jumpi\n      dup1\n      0x4ba83374\n      eq\n      tag_5\n      jumpi\n      dup1\n      0x5da6ef8d\n      eq\n      tag_6\n      jumpi\n      dup1\n      0x80f76021\n      eq\n      tag_7\n      jumpi\n      dup1\n      0xa95264d0\n      eq\n      tag_8\n      jumpi\n      dup1\n      0xb9daf3e2\n      eq\n      tag_9\n      jumpi\n      dup1\n      0xba379e86\n      eq\n      tag_10\n      jumpi\n      dup1\n      0xc47f0027\n      eq\n      tag_11\n      jumpi\n      dup1\n      0xded92dac\n      eq\n      tag_12\n      jumpi\n    tag_2:\n      0x00\n      dup1\n      revert\n        /* \"Items/TimeCapsule.sol\":164:183  uint256 public time */\n    tag_3:\n      tag_13\n      sload(0x06)\n      dup2\n      jump\n    tag_13:\n      mload(0x40)\n        /* \"#utility.yul\":160:185   */\n      swap1\n      dup2\n      mstore\n        /* \"#utility.yul\":148:150   */\n      0x20\n        /* \"#utility.yul\":133:151   */\n      add\n        /* \"Items/TimeCapsule.sol\":164:183  uint256 public time */\n    tag_15:\n      mload(0x40)\n      dup1\n      swap2\n      sub\n      swap1\n      return\n        /* \"Items/VaultItem.sol\":206:227  uint public item_type */\n    tag_4:\n      tag_13\n      sload(0x01)\n      dup2\n      jump\n        /* \"Items/VaultItem.sol\":1166:1303  function isSharedWith() external view returns (bool) {... */\n    tag_5:\n      tag_20\n      tag_21\n      jump\t// in\n    tag_20:\n      mload(0x40)\n        /* \"#utility.yul\":361:375   */\n      swap1\n      iszero\n        /* \"#utility.yul\":354:376   */\n      iszero\n        /* \"#utility.yul\":336:377   */\n      dup2\n      mstore\n        /* \"#utility.yul\":324:326   */\n      0x20\n        /* \"#utility.yul\":309:327   */\n      add\n        /* \"Items/VaultItem.sol\":1166:1303  function isSharedWith() external view returns (bool) {... */\n      tag_15\n        /* \"#utility.yul\":196:383   */\n      jump\n        /* \"Items/VaultItem.sol\":1437:1644  function shareWith(address _w) external ownerOnly {... */\n    tag_6:\n      tag_24\n      tag_25\n      calldatasize\n      0x04\n      tag_26\n      jump\t// in\n    tag_25:\n      tag_27\n      jump\t// in\n    tag_24:\n      stop\n        /* \"Items/VaultItem.sol\":1061:1158  function getParent() external view ownerOnly returns (address) {... */\n    tag_7:\n      tag_28\n      tag_29\n      jump\t// in\n    tag_28:\n      mload(0x40)\n      tag_15\n      swap2\n      swap1\n      tag_31\n      jump\t// in\n        /* \"Items/VaultItem.sol\":1311:1429  function getSharedWith() external view ownerOnly returns (address[] memory) {... */\n    tag_8:\n      tag_32\n      tag_33\n      jump\t// in\n    tag_32:\n      mload(0x40)\n      tag_15\n      swap2\n      swap1\n      tag_35\n      jump\t// in\n        /* \"Items/VaultItem.sol\":810:926  function isOwn() external view  returns (bool) {... */\n    tag_9:\n      tag_20\n      tag_37\n      jump\t// in\n        /* \"Items/TimeCapsule.sol\":526:680  function expose() external view ownerOrShared returns (string memory) {... */\n    tag_10:\n      tag_39\n      tag_40\n      jump\t// in\n    tag_39:\n      mload(0x40)\n      tag_15\n      swap2\n      swap1\n      tag_42\n      jump\t// in\n        /* \"Items/VaultItem.sol\":934:1053  function setName(string memory _n) external ownerOnly {... */\n    tag_11:\n      tag_24\n      tag_44\n      calldatasize\n      0x04\n      tag_45\n      jump\t// in\n    tag_44:\n      tag_46\n      jump\t// in\n        /* \"Items/VaultItem.sol\":1652:1996  function restictFrom( address _f ) external {... */\n    tag_12:\n      tag_24\n      tag_48\n      calldatasize\n      0x04\n      tag_26\n      jump\t// in\n    tag_48:\n      tag_49\n      jump\t// in\n        /* \"Items/VaultItem.sol\":1166:1303  function isSharedWith() external view returns (bool) {... */\n    tag_21:\n        /* \"Items/VaultItem.sol\":1213:1217  bool */\n      0x00\n        /* \"Items/VaultItem.sol\":1237:1289  Constants.findAddressIndex( msg.sender, sharedWith ) */\n      tag_51\n        /* \"Items/VaultItem.sol\":1265:1275  msg.sender */\n      caller\n        /* \"Items/VaultItem.sol\":1277:1287  sharedWith */\n      0x04\n        /* \"Items/VaultItem.sol\":1237:1289  Constants.findAddressIndex( msg.sender, sharedWith ) */\n      dup1\n      sload\n      dup1\n      0x20\n      mul\n      0x20\n      add\n      mload(0x40)\n      swap1\n      dup2\n      add\n      0x40\n      mstore\n      dup1\n      swap3\n      swap2\n      swap1\n      dup2\n      dup2\n      mstore\n      0x20\n      add\n      dup3\n      dup1\n      sload\n      dup1\n      iszero\n      tag_52\n      jumpi\n      0x20\n      mul\n      dup3\n      add\n      swap2\n      swap1\n      0x00\n      mstore\n      keccak256(0x00, 0x20)\n      swap1\n    tag_53:\n      dup2\n      sload\n      sub(shl(0xa0, 0x01), 0x01)\n      and\n      dup2\n      mstore\n      0x01\n      swap1\n      swap2\n      add\n      swap1\n      0x20\n      add\n      dup1\n      dup4\n      gt\n      tag_53\n      jumpi\n    tag_52:\n      pop\n      pop\n      pop\n      pop\n      pop\n        /* \"Items/VaultItem.sol\":1237:1263  Constants.findAddressIndex */\n      tag_54\n        /* \"Items/VaultItem.sol\":1237:1289  Constants.findAddressIndex( msg.sender, sharedWith ) */\n      jump\t// in\n    tag_51:\n      not(0x00)\n        /* \"Items/VaultItem.sol\":1237:1295  Constants.findAddressIndex( msg.sender, sharedWith ) != -1 */\n      eq\n      iszero\n        /* \"Items/VaultItem.sol\":1230:1295  return Constants.findAddressIndex( msg.sender, sharedWith ) != -1 */\n      swap1\n      pop\n        /* \"Items/VaultItem.sol\":1166:1303  function isSharedWith() external view returns (bool) {... */\n      swap1\n      jump\t// out\n        /* \"Items/VaultItem.sol\":1437:1644  function shareWith(address _w) external ownerOnly {... */\n    tag_27:\n        /* \"Items/VaultItem.sol\":359:364  owner */\n      and(sub(shl(0xa0, 0x01), 0x01), sload(0x02))\n        /* \"Items/VaultItem.sol\":345:355  msg.sender */\n      caller\n        /* \"Items/VaultItem.sol\":345:364  msg.sender == owner */\n      eq\n      dup1\n        /* \"Items/VaultItem.sol\":345:388  msg.sender == owner || msg.sender == parent */\n      tag_56\n      jumpi\n      pop\n        /* \"Items/VaultItem.sol\":382:388  parent */\n      and(sub(shl(0xa0, 0x01), 0x01), sload(0x03))\n        /* \"Items/VaultItem.sol\":368:378  msg.sender */\n      caller\n        /* \"Items/VaultItem.sol\":368:388  msg.sender == parent */\n      eq\n        /* \"Items/VaultItem.sol\":345:388  msg.sender == owner || msg.sender == parent */\n    tag_56:\n        /* \"Items/VaultItem.sol\":337:396  require(msg.sender == owner || msg.sender == parent, \"403\") */\n      tag_57\n      jumpi\n      mload(0x40)\n      shl(0xe5, 0x461bcd)\n      dup2\n      mstore\n      0x04\n      add\n      tag_58\n      swap1\n      tag_59\n      jump\t// in\n    tag_58:\n      mload(0x40)\n      dup1\n      swap2\n      sub\n      swap1\n      revert\n    tag_57:\n        /* \"Items/VaultItem.sol\":1515:1520  owner */\n      sload(0x02)\n      sub(shl(0xa0, 0x01), 0x01)\n        /* \"Items/VaultItem.sol\":1509:1520  _w != owner */\n      dup3\n      dup2\n      and\n        /* \"Items/VaultItem.sol\":1515:1520  owner */\n      swap2\n      and\n        /* \"Items/VaultItem.sol\":1509:1520  _w != owner */\n      eq\n      dup1\n      iszero\n      swap1\n        /* \"Items/VaultItem.sol\":1509:1540  _w != owner && _w != address(0) */\n      tag_61\n      jumpi\n      pop\n      sub(shl(0xa0, 0x01), 0x01)\n        /* \"Items/VaultItem.sol\":1524:1540  _w != address(0) */\n      dup2\n      and\n      iszero\n      iszero\n        /* \"Items/VaultItem.sol\":1509:1540  _w != owner && _w != address(0) */\n    tag_61:\n        /* \"Items/VaultItem.sol\":1509:1594  _w != owner && _w != address(0) && Constants.findAddressIndex( _w, sharedWith ) == -1 */\n      dup1\n      iszero\n      tag_62\n      jumpi\n      pop\n        /* \"Items/VaultItem.sol\":1544:1588  Constants.findAddressIndex( _w, sharedWith ) */\n      tag_63\n        /* \"Items/VaultItem.sol\":1572:1574  _w */\n      dup2\n        /* \"Items/VaultItem.sol\":1576:1586  sharedWith */\n      0x04\n        /* \"Items/VaultItem.sol\":1544:1588  Constants.findAddressIndex( _w, sharedWith ) */\n      dup1\n      sload\n      dup1\n      0x20\n      mul\n      0x20\n      add\n      mload(0x40)\n      swap1\n      dup2\n      add\n      0x40\n      mstore\n      dup1\n      swap3\n      swap2\n      swap1\n      dup2\n      dup2\n      mstore\n      0x20\n      add\n      dup3\n      dup1\n      sload\n      dup1\n      iszero\n      tag_52\n      jumpi\n      0x20\n      mul\n      dup3\n      add\n      swap2\n      swap1\n      0x00\n      mstore\n      keccak256(0x00, 0x20)\n      swap1\n      dup2\n      sload\n      sub(shl(0xa0, 0x01), 0x01)\n      and\n      dup2\n      mstore\n      0x01\n      swap1\n      swap2\n      add\n      swap1\n      0x20\n      add\n      dup1\n      dup4\n      gt\n      tag_53\n      jumpi\n      pop\n      pop\n      pop\n      pop\n      pop\n        /* \"Items/VaultItem.sol\":1544:1570  Constants.findAddressIndex */\n      tag_54\n        /* \"Items/VaultItem.sol\":1544:1588  Constants.findAddressIndex( _w, sharedWith ) */\n      jump\t// in\n    tag_63:\n      not(0x00)\n        /* \"Items/VaultItem.sol\":1544:1594  Constants.findAddressIndex( _w, sharedWith ) == -1 */\n      eq\n        /* \"Items/VaultItem.sol\":1509:1594  _w != owner && _w != address(0) && Constants.findAddressIndex( _w, sharedWith ) == -1 */\n    tag_62:\n        /* \"Items/VaultItem.sol\":1500:1602  require( _w != owner && _w != address(0) && Constants.findAddressIndex( _w, sharedWith ) == -1, \"403\") */\n      tag_66\n      jumpi\n      mload(0x40)\n      shl(0xe5, 0x461bcd)\n      dup2\n      mstore\n      0x04\n      add\n      tag_58\n      swap1\n      tag_59\n      jump\t// in\n    tag_66:\n        /* \"Items/VaultItem.sol\":1615:1625  sharedWith */\n      0x04\n        /* \"Items/VaultItem.sol\":1615:1634  sharedWith.push(_w) */\n      dup1\n      sload\n      0x01\n      dup2\n      add\n      dup3\n      sstore\n      0x00\n      swap2\n      swap1\n      swap2\n      mstore\n      0x8a35acfbc15ff81a39ae7d344fd709f28e8600b4aa8c65c6b64bfe7fe36bd19b\n      add\n      dup1\n      sload\n      not(sub(shl(0xa0, 0x01), 0x01))\n      and\n      sub(shl(0xa0, 0x01), 0x01)\n      swap3\n      swap1\n      swap3\n      and\n      swap2\n      swap1\n      swap2\n      or\n      swap1\n      sstore\n        /* \"Items/VaultItem.sol\":1437:1644  function shareWith(address _w) external ownerOnly {... */\n      jump\t// out\n        /* \"Items/VaultItem.sol\":1061:1158  function getParent() external view ownerOnly returns (address) {... */\n    tag_29:\n        /* \"Items/VaultItem.sol\":359:364  owner */\n      sload(0x02)\n        /* \"Items/VaultItem.sol\":1115:1122  address */\n      0x00\n      swap1\n      sub(shl(0xa0, 0x01), 0x01)\n        /* \"Items/VaultItem.sol\":359:364  owner */\n      and\n        /* \"Items/VaultItem.sol\":345:355  msg.sender */\n      caller\n        /* \"Items/VaultItem.sol\":345:364  msg.sender == owner */\n      eq\n      dup1\n        /* \"Items/VaultItem.sol\":345:388  msg.sender == owner || msg.sender == parent */\n      tag_70\n      jumpi\n      pop\n        /* \"Items/VaultItem.sol\":382:388  parent */\n      and(sub(shl(0xa0, 0x01), 0x01), sload(0x03))\n        /* \"Items/VaultItem.sol\":368:378  msg.sender */\n      caller\n        /* \"Items/VaultItem.sol\":368:388  msg.sender == parent */\n      eq\n        /* \"Items/VaultItem.sol\":345:388  msg.sender == owner || msg.sender == parent */\n    tag_70:\n        /* \"Items/VaultItem.sol\":337:396  require(msg.sender == owner || msg.sender == parent, \"403\") */\n      tag_71\n      jumpi\n      mload(0x40)\n      shl(0xe5, 0x461bcd)\n      dup2\n      mstore\n      0x04\n      add\n      tag_58\n      swap1\n      tag_59\n      jump\t// in\n    tag_71:\n      pop\n        /* \"Items/VaultItem.sol\":1144:1150  parent */\n      and(sub(shl(0xa0, 0x01), 0x01), sload(0x03))\n        /* \"Items/VaultItem.sol\":1061:1158  function getParent() external view ownerOnly returns (address) {... */\n      swap1\n      jump\t// out\n        /* \"Items/VaultItem.sol\":1311:1429  function getSharedWith() external view ownerOnly returns (address[] memory) {... */\n    tag_33:\n        /* \"Items/VaultItem.sol\":359:364  owner */\n      sload(0x02)\n        /* \"Items/VaultItem.sol\":1369:1385  address[] memory */\n      0x60\n      swap1\n      sub(shl(0xa0, 0x01), 0x01)\n        /* \"Items/VaultItem.sol\":359:364  owner */\n      and\n        /* \"Items/VaultItem.sol\":345:355  msg.sender */\n      caller\n        /* \"Items/VaultItem.sol\":345:364  msg.sender == owner */\n      eq\n      dup1\n        /* \"Items/VaultItem.sol\":345:388  msg.sender == owner || msg.sender == parent */\n      tag_75\n      jumpi\n      pop\n        /* \"Items/VaultItem.sol\":382:388  parent */\n      and(sub(shl(0xa0, 0x01), 0x01), sload(0x03))\n        /* \"Items/VaultItem.sol\":368:378  msg.sender */\n      caller\n        /* \"Items/VaultItem.sol\":368:388  msg.sender == parent */\n      eq\n        /* \"Items/VaultItem.sol\":345:388  msg.sender == owner || msg.sender == parent */\n    tag_75:\n        /* \"Items/VaultItem.sol\":337:396  require(msg.sender == owner || msg.sender == parent, \"403\") */\n      tag_76\n      jumpi\n      mload(0x40)\n      shl(0xe5, 0x461bcd)\n      dup2\n      mstore\n      0x04\n      add\n      tag_58\n      swap1\n      tag_59\n      jump\t// in\n    tag_76:\n        /* \"Items/VaultItem.sol\":1411:1421  sharedWith */\n      0x04\n        /* \"Items/VaultItem.sol\":1404:1421  return sharedWith */\n      dup1\n      sload\n      dup1\n      0x20\n      mul\n      0x20\n      add\n      mload(0x40)\n      swap1\n      dup2\n      add\n      0x40\n      mstore\n      dup1\n      swap3\n      swap2\n      swap1\n      dup2\n      dup2\n      mstore\n      0x20\n      add\n      dup3\n      dup1\n      sload\n      dup1\n      iszero\n      tag_79\n      jumpi\n      0x20\n      mul\n      dup3\n      add\n      swap2\n      swap1\n      0x00\n      mstore\n      keccak256(0x00, 0x20)\n      swap1\n    tag_80:\n      dup2\n      sload\n      sub(shl(0xa0, 0x01), 0x01)\n      and\n      dup2\n      mstore\n      0x01\n      swap1\n      swap2\n      add\n      swap1\n      0x20\n      add\n      dup1\n      dup4\n      gt\n      tag_80\n      jumpi\n    tag_79:\n      pop\n      pop\n      pop\n      pop\n      pop\n      swap1\n      pop\n        /* \"Items/VaultItem.sol\":1311:1429  function getSharedWith() external view ownerOnly returns (address[] memory) {... */\n      swap1\n      jump\t// out\n        /* \"Items/VaultItem.sol\":810:926  function isOwn() external view  returns (bool) {... */\n    tag_37:\n        /* \"Items/VaultItem.sol\":889:894  owner */\n      sload(0x02)\n        /* \"Items/VaultItem.sol\":851:855  bool */\n      0x00\n      swap1\n      sub(shl(0xa0, 0x01), 0x01)\n        /* \"Items/VaultItem.sol\":889:894  owner */\n      and\n        /* \"Items/VaultItem.sol\":875:885  msg.sender */\n      caller\n        /* \"Items/VaultItem.sol\":875:894  msg.sender == owner */\n      eq\n      dup1\n        /* \"Items/VaultItem.sol\":875:918  msg.sender == owner || msg.sender == parent */\n      tag_82\n      jumpi\n      pop\n        /* \"Items/VaultItem.sol\":912:918  parent */\n      and(sub(shl(0xa0, 0x01), 0x01), sload(0x03))\n        /* \"Items/VaultItem.sol\":898:908  msg.sender */\n      caller\n        /* \"Items/VaultItem.sol\":898:918  msg.sender == parent */\n      eq\n        /* \"Items/VaultItem.sol\":875:918  msg.sender == owner || msg.sender == parent */\n    tag_82:\n        /* \"Items/VaultItem.sol\":868:918  return msg.sender == owner || msg.sender == parent */\n      swap1\n      pop\n        /* \"Items/VaultItem.sol\":810:926  function isOwn() external view  returns (bool) {... */\n      swap1\n      jump\t// out\n        /* \"Items/TimeCapsule.sol\":526:680  function expose() external view ownerOrShared returns (string memory) {... */\n    tag_40:\n        /* \"Items/VaultItem.sol\":478:483  owner */\n      sload(0x02)\n        /* \"Items/TimeCapsule.sol\":581:594  string memory */\n      0x60\n      swap1\n      sub(shl(0xa0, 0x01), 0x01)\n        /* \"Items/VaultItem.sol\":478:483  owner */\n      and\n        /* \"Items/VaultItem.sol\":464:474  msg.sender */\n      caller\n        /* \"Items/VaultItem.sol\":464:483  msg.sender == owner */\n      eq\n      dup1\n        /* \"Items/VaultItem.sol\":464:545  msg.sender == owner || Constants.findAddressIndex( msg.sender, sharedWith ) != -1 */\n      tag_84\n      jumpi\n      pop\n        /* \"Items/VaultItem.sol\":487:539  Constants.findAddressIndex( msg.sender, sharedWith ) */\n      tag_85\n        /* \"Items/VaultItem.sol\":515:525  msg.sender */\n      caller\n        /* \"Items/VaultItem.sol\":527:537  sharedWith */\n      0x04\n        /* \"Items/VaultItem.sol\":487:539  Constants.findAddressIndex( msg.sender, sharedWith ) */\n      dup1\n      sload\n      dup1\n      0x20\n      mul\n      0x20\n      add\n      mload(0x40)\n      swap1\n      dup2\n      add\n      0x40\n      mstore\n      dup1\n      swap3\n      swap2\n      swap1\n      dup2\n      dup2\n      mstore\n      0x20\n      add\n      dup3\n      dup1\n      sload\n      dup1\n      iszero\n      tag_52\n      jumpi\n      0x20\n      mul\n      dup3\n      add\n      swap2\n      swap1\n      0x00\n      mstore\n      keccak256(0x00, 0x20)\n      swap1\n      dup2\n      sload\n      sub(shl(0xa0, 0x01), 0x01)\n      and\n      dup2\n      mstore\n      0x01\n      swap1\n      swap2\n      add\n      swap1\n      0x20\n      add\n      dup1\n      dup4\n      gt\n      tag_53\n      jumpi\n      pop\n      pop\n      pop\n      pop\n      pop\n        /* \"Items/VaultItem.sol\":487:513  Constants.findAddressIndex */\n      tag_54\n        /* \"Items/VaultItem.sol\":487:539  Constants.findAddressIndex( msg.sender, sharedWith ) */\n      jump\t// in\n    tag_85:\n      not(0x00)\n        /* \"Items/VaultItem.sol\":487:545  Constants.findAddressIndex( msg.sender, sharedWith ) != -1 */\n      eq\n      iszero\n        /* \"Items/VaultItem.sol\":464:545  msg.sender == owner || Constants.findAddressIndex( msg.sender, sharedWith ) != -1 */\n    tag_84:\n        /* \"Items/VaultItem.sol\":455:553  require( msg.sender == owner || Constants.findAddressIndex( msg.sender, sharedWith ) != -1, \"403\") */\n      tag_88\n      jumpi\n      mload(0x40)\n      shl(0xe5, 0x461bcd)\n      dup2\n      mstore\n      0x04\n      add\n      tag_58\n      swap1\n      tag_59\n      jump\t// in\n    tag_88:\n        /* \"Items/TimeCapsule.sol\":625:640  block.timestamp */\n      timestamp\n        /* \"Items/TimeCapsule.sol\":618:622  time */\n      sload(0x06)\n        /* \"Items/TimeCapsule.sol\":618:640  time < block.timestamp */\n      lt\n        /* \"Items/TimeCapsule.sol\":609:648  require( time < block.timestamp, \"425\") */\n      tag_91\n      jumpi\n      mload(0x40)\n      shl(0xe5, 0x461bcd)\n      dup2\n      mstore\n        /* \"#utility.yul\":3567:3569   */\n      0x20\n        /* \"Items/TimeCapsule.sol\":609:648  require( time < block.timestamp, \"425\") */\n      0x04\n      dup3\n      add\n        /* \"#utility.yul\":3549:3570   */\n      mstore\n        /* \"#utility.yul\":3606:3607   */\n      0x03\n        /* \"#utility.yul\":3586:3604   */\n      0x24\n      dup3\n      add\n        /* \"#utility.yul\":3579:3608   */\n      mstore\n      shl(0xe8, 0x343235)\n        /* \"#utility.yul\":3624:3642   */\n      0x44\n      dup3\n      add\n        /* \"#utility.yul\":3617:3650   */\n      mstore\n        /* \"#utility.yul\":3667:3685   */\n      0x64\n      add\n        /* \"Items/TimeCapsule.sol\":609:648  require( time < block.timestamp, \"425\") */\n      tag_58\n        /* \"#utility.yul\":3365:3691   */\n      jump\n        /* \"Items/TimeCapsule.sol\":609:648  require( time < block.timestamp, \"425\") */\n    tag_91:\n        /* \"Items/TimeCapsule.sol\":668:672  text */\n      0x05\n        /* \"Items/TimeCapsule.sol\":661:672  return text */\n      dup1\n      sload\n      tag_94\n      swap1\n      tag_95\n      jump\t// in\n    tag_94:\n      dup1\n      0x1f\n      add\n      0x20\n      dup1\n      swap2\n      div\n      mul\n      0x20\n      add\n      mload(0x40)\n      swap1\n      dup2\n      add\n      0x40\n      mstore\n      dup1\n      swap3\n      swap2\n      swap1\n      dup2\n      dup2\n      mstore\n      0x20\n      add\n      dup3\n      dup1\n      sload\n      tag_96\n      swap1\n      tag_95\n      jump\t// in\n    tag_96:\n      dup1\n      iszero\n      tag_79\n      jumpi\n      dup1\n      0x1f\n      lt\n      tag_98\n      jumpi\n      0x0100\n      dup1\n      dup4\n      sload\n      div\n      mul\n      dup4\n      mstore\n      swap2\n      0x20\n      add\n      swap2\n      jump(tag_79)\n    tag_98:\n      dup3\n      add\n      swap2\n      swap1\n      0x00\n      mstore\n      keccak256(0x00, 0x20)\n      swap1\n    tag_99:\n      dup2\n      sload\n      dup2\n      mstore\n      swap1\n      0x01\n      add\n      swap1\n      0x20\n      add\n      dup1\n      dup4\n      gt\n      tag_99\n      jumpi\n      pop\n      swap4\n      swap6\n        /* \"Items/TimeCapsule.sol\":526:680  function expose() external view ownerOrShared returns (string memory) {... */\n      swap5\n      pop\n      pop\n      pop\n      pop\n      pop\n      jump\t// out\n        /* \"Items/VaultItem.sol\":934:1053  function setName(string memory _n) external ownerOnly {... */\n    tag_46:\n        /* \"Items/VaultItem.sol\":359:364  owner */\n      and(sub(shl(0xa0, 0x01), 0x01), sload(0x02))\n        /* \"Items/VaultItem.sol\":345:355  msg.sender */\n      caller\n        /* \"Items/VaultItem.sol\":345:364  msg.sender == owner */\n      eq\n      dup1\n        /* \"Items/VaultItem.sol\":345:388  msg.sender == owner || msg.sender == parent */\n      tag_101\n      jumpi\n      pop\n        /* \"Items/VaultItem.sol\":382:388  parent */\n      and(sub(shl(0xa0, 0x01), 0x01), sload(0x03))\n        /* \"Items/VaultItem.sol\":368:378  msg.sender */\n      caller\n        /* \"Items/VaultItem.sol\":368:388  msg.sender == parent */\n      eq\n        /* \"Items/VaultItem.sol\":345:388  msg.sender == owner || msg.sender == parent */\n    tag_101:\n        /* \"Items/VaultItem.sol\":337:396  require(msg.sender == owner || msg.sender == parent, \"403\") */\n      tag_102\n      jumpi\n      mload(0x40)\n      shl(0xe5, 0x461bcd)\n      dup2\n      mstore\n      0x04\n      add\n      tag_58\n      swap1\n      tag_59\n      jump\t// in\n    tag_102:\n        /* \"Items/VaultItem.sol\":999:1003  name */\n      0x00\n        /* \"Items/VaultItem.sol\":999:1008  name = _n */\n      tag_105\n        /* \"Items/VaultItem.sol\":1006:1008  _n */\n      dup3\n        /* \"Items/VaultItem.sol\":999:1003  name */\n      dup3\n        /* \"Items/VaultItem.sol\":999:1008  name = _n */\n      tag_106\n      jump\t// in\n    tag_105:\n      pop\n        /* \"Items/VaultItem.sol\":1026:1045  Updated(msg.sender) */\n      0xe00da2178806f37f69815e9ed5ed3072ec1d55206d60916d99b469c7daa421e4\n        /* \"Items/VaultItem.sol\":1034:1044  msg.sender */\n      caller\n        /* \"Items/VaultItem.sol\":1026:1045  Updated(msg.sender) */\n      mload(0x40)\n      tag_107\n      swap2\n      swap1\n      tag_31\n      jump\t// in\n    tag_107:\n      mload(0x40)\n      dup1\n      swap2\n      sub\n      swap1\n      log1\n        /* \"Items/VaultItem.sol\":934:1053  function setName(string memory _n) external ownerOnly {... */\n      pop\n      jump\t// out\n        /* \"Items/VaultItem.sol\":1652:1996  function restictFrom( address _f ) external {... */\n    tag_49:\n      sub(shl(0xa0, 0x01), 0x01)\n        /* \"Items/VaultItem.sol\":1725:1741  _f != address(0) */\n      dup2\n      and\n      iszero\n      iszero\n      dup1\n        /* \"Items/VaultItem.sol\":1725:1812  _f != address(0) || ( msg.sender == parent || msg.sender == owner || msg.sender == _f ) */\n      tag_111\n      jumpi\n      pop\n        /* \"Items/VaultItem.sol\":1761:1767  parent */\n      and(sub(shl(0xa0, 0x01), 0x01), sload(0x03))\n        /* \"Items/VaultItem.sol\":1747:1757  msg.sender */\n      caller\n        /* \"Items/VaultItem.sol\":1747:1767  msg.sender == parent */\n      eq\n      dup1\n        /* \"Items/VaultItem.sol\":1747:1790  msg.sender == parent || msg.sender == owner */\n      tag_110\n      jumpi\n      pop\n        /* \"Items/VaultItem.sol\":1785:1790  owner */\n      and(sub(shl(0xa0, 0x01), 0x01), sload(0x02))\n        /* \"Items/VaultItem.sol\":1771:1781  msg.sender */\n      caller\n        /* \"Items/VaultItem.sol\":1771:1790  msg.sender == owner */\n      eq\n        /* \"Items/VaultItem.sol\":1747:1790  msg.sender == parent || msg.sender == owner */\n    tag_110:\n        /* \"Items/VaultItem.sol\":1747:1810  msg.sender == parent || msg.sender == owner || msg.sender == _f */\n      dup1\n      tag_111\n      jumpi\n      pop\n        /* \"Items/VaultItem.sol\":1794:1804  msg.sender */\n      caller\n      sub(shl(0xa0, 0x01), 0x01)\n        /* \"Items/VaultItem.sol\":1794:1810  msg.sender == _f */\n      dup3\n      and\n      eq\n        /* \"Items/VaultItem.sol\":1747:1810  msg.sender == parent || msg.sender == owner || msg.sender == _f */\n    tag_111:\n        /* \"Items/VaultItem.sol\":1717:1820  require(_f != address(0) || ( msg.sender == parent || msg.sender == owner || msg.sender == _f ), \"403\") */\n      tag_112\n      jumpi\n      mload(0x40)\n      shl(0xe5, 0x461bcd)\n      dup2\n      mstore\n      0x04\n      add\n      tag_58\n      swap1\n      tag_59\n      jump\t// in\n    tag_112:\n        /* \"Items/VaultItem.sol\":1833:1841  int _idx */\n      0x00\n        /* \"Items/VaultItem.sol\":1844:1888  Constants.findAddressIndex( _f, sharedWith ) */\n      tag_114\n        /* \"Items/VaultItem.sol\":1872:1874  _f */\n      dup3\n        /* \"Items/VaultItem.sol\":1876:1886  sharedWith */\n      0x04\n        /* \"Items/VaultItem.sol\":1844:1888  Constants.findAddressIndex( _f, sharedWith ) */\n      dup1\n      sload\n      dup1\n      0x20\n      mul\n      0x20\n      add\n      mload(0x40)\n      swap1\n      dup2\n      add\n      0x40\n      mstore\n      dup1\n      swap3\n      swap2\n      swap1\n      dup2\n      dup2\n      mstore\n      0x20\n      add\n      dup3\n      dup1\n      sload\n      dup1\n      iszero\n      tag_52\n      jumpi\n      0x20\n      mul\n      dup3\n      add\n      swap2\n      swap1\n      0x00\n      mstore\n      keccak256(0x00, 0x20)\n      swap1\n      dup2\n      sload\n      sub(shl(0xa0, 0x01), 0x01)\n      and\n      dup2\n      mstore\n      0x01\n      swap1\n      swap2\n      add\n      swap1\n      0x20\n      add\n      dup1\n      dup4\n      gt\n      tag_53\n      jumpi\n      pop\n      pop\n      pop\n      pop\n      pop\n        /* \"Items/VaultItem.sol\":1844:1870  Constants.findAddressIndex */\n      tag_54\n        /* \"Items/VaultItem.sol\":1844:1888  Constants.findAddressIndex( _f, sharedWith ) */\n      jump\t// in\n    tag_114:\n        /* \"Items/VaultItem.sol\":1833:1888  int _idx = Constants.findAddressIndex( _f, sharedWith ) */\n      swap1\n      pop\n      not(0x00)\n        /* \"Items/VaultItem.sol\":1909:1913  _idx */\n      dup2\n        /* \"Items/VaultItem.sol\":1909:1918  _idx > -1 */\n      sgt\n        /* \"Items/VaultItem.sol\":1901:1926  require(_idx > -1, \"404\") */\n      tag_117\n      jumpi\n      mload(0x40)\n      shl(0xe5, 0x461bcd)\n      dup2\n      mstore\n      0x04\n      add\n      tag_58\n      swap1\n      tag_119\n      jump\t// in\n    tag_117:\n        /* \"Items/VaultItem.sol\":1939:1986  Constants.deleteAddressFrom( _idx, sharedWith ) */\n      tag_120\n        /* \"Items/VaultItem.sol\":1968:1972  _idx */\n      dup2\n        /* \"Items/VaultItem.sol\":1974:1984  sharedWith */\n      0x04\n        /* \"Items/VaultItem.sol\":1939:1966  Constants.deleteAddressFrom */\n      tag_121\n        /* \"Items/VaultItem.sol\":1939:1986  Constants.deleteAddressFrom( _idx, sharedWith ) */\n      jump\t// in\n    tag_120:\n        /* \"Items/VaultItem.sol\":1696:1996  {... */\n      pop\n        /* \"Items/VaultItem.sol\":1652:1996  function restictFrom( address _f ) external {... */\n      pop\n      jump\t// out\n        /* \"Libs/Constants.sol\":101:327  function findAddressIndex(address _addr, address[] memory _a) internal pure returns (int) {... */\n    tag_54:\n        /* \"Libs/Constants.sol\":186:189  int */\n      0x00\n      dup1\n        /* \"Libs/Constants.sol\":202:299  for (uint i = 0; i < _a.length; i++) {... */\n    tag_123:\n        /* \"Libs/Constants.sol\":223:225  _a */\n      dup3\n        /* \"Libs/Constants.sol\":223:232  _a.length */\n      mload\n        /* \"Libs/Constants.sol\":219:220  i */\n      dup2\n        /* \"Libs/Constants.sol\":219:232  i < _a.length */\n      lt\n        /* \"Libs/Constants.sol\":202:299  for (uint i = 0; i < _a.length; i++) {... */\n      iszero\n      tag_124\n      jumpi\n        /* \"Libs/Constants.sol\":267:272  _addr */\n      dup4\n      sub(shl(0xa0, 0x01), 0x01)\n        /* \"Libs/Constants.sol\":258:272  _a[i] == _addr */\n      and\n        /* \"Libs/Constants.sol\":258:260  _a */\n      dup4\n        /* \"Libs/Constants.sol\":261:262  i */\n      dup3\n        /* \"Libs/Constants.sol\":258:263  _a[i] */\n      dup2\n      mload\n      dup2\n      lt\n      tag_127\n      jumpi\n      tag_127\n      tag_128\n      jump\t// in\n    tag_127:\n      0x20\n      mul\n      0x20\n      add\n      add\n      mload\n      sub(shl(0xa0, 0x01), 0x01)\n        /* \"Libs/Constants.sol\":258:272  _a[i] == _addr */\n      and\n      sub\n        /* \"Libs/Constants.sol\":254:287  if (_a[i] == _addr) return int(i) */\n      tag_129\n      jumpi\n        /* \"Libs/Constants.sol\":285:286  i */\n      swap1\n      pop\n        /* \"Libs/Constants.sol\":274:287  return int(i) */\n      jump(tag_122)\n        /* \"Libs/Constants.sol\":254:287  if (_a[i] == _addr) return int(i) */\n    tag_129:\n        /* \"Libs/Constants.sol\":234:237  i++ */\n      0x01\n      add\n        /* \"Libs/Constants.sol\":202:299  for (uint i = 0; i < _a.length; i++) {... */\n      jump(tag_123)\n    tag_124:\n      pop\n      not(0x00)\n        /* \"Libs/Constants.sol\":309:318  return -1 */\n      swap1\n      pop\n        /* \"Libs/Constants.sol\":101:327  function findAddressIndex(address _addr, address[] memory _a) internal pure returns (int) {... */\n    tag_122:\n      swap3\n      swap2\n      pop\n      pop\n      jump\t// out\n        /* \"Libs/Constants.sol\":336:595  function deleteAddressFrom(int idx, address[] storage _a) internal {... */\n    tag_121:\n        /* \"Libs/Constants.sol\":429:430  0 */\n      0x00\n        /* \"Libs/Constants.sol\":422:425  idx */\n      dup3\n        /* \"Libs/Constants.sol\":422:430  idx >= 0 */\n      slt\n      iszero\n        /* \"Libs/Constants.sol\":422:455  idx >= 0 && uint(idx) < _a.length */\n      dup1\n      iszero\n      tag_131\n      jumpi\n      pop\n        /* \"Libs/Constants.sol\":446:455  _a.length */\n      dup1\n      sload\n        /* \"Libs/Constants.sol\":434:455  uint(idx) < _a.length */\n      dup3\n      lt\n        /* \"Libs/Constants.sol\":422:455  idx >= 0 && uint(idx) < _a.length */\n    tag_131:\n        /* \"Libs/Constants.sol\":414:463  require(idx >= 0 && uint(idx) < _a.length, \"404\") */\n      tag_132\n      jumpi\n      mload(0x40)\n      shl(0xe5, 0x461bcd)\n      dup2\n      mstore\n      0x04\n      add\n      tag_58\n      swap1\n      tag_119\n      jump\t// in\n    tag_132:\n        /* \"Libs/Constants.sol\":493:496  idx */\n      dup2\n        /* \"Libs/Constants.sol\":474:567  for (uint i = uint(idx); i < _a.length - 1; i++) {... */\n    tag_134:\n        /* \"Libs/Constants.sol\":503:512  _a.length */\n      dup2\n      sload\n        /* \"Libs/Constants.sol\":503:516  _a.length - 1 */\n      tag_137\n      swap1\n        /* \"Libs/Constants.sol\":515:516  1 */\n      0x01\n      swap1\n        /* \"Libs/Constants.sol\":503:516  _a.length - 1 */\n      tag_138\n      jump\t// in\n    tag_137:\n        /* \"Libs/Constants.sol\":499:500  i */\n      dup2\n        /* \"Libs/Constants.sol\":499:516  i < _a.length - 1 */\n      lt\n        /* \"Libs/Constants.sol\":474:567  for (uint i = uint(idx); i < _a.length - 1; i++) {... */\n      iszero\n      tag_135\n      jumpi\n        /* \"Libs/Constants.sol\":546:548  _a */\n      dup2\n        /* \"Libs/Constants.sol\":549:554  i + 1 */\n      tag_139\n        /* \"Libs/Constants.sol\":549:550  i */\n      dup3\n        /* \"Libs/Constants.sol\":553:554  1 */\n      0x01\n        /* \"Libs/Constants.sol\":549:554  i + 1 */\n      tag_140\n      jump\t// in\n    tag_139:\n        /* \"Libs/Constants.sol\":546:555  _a[i + 1] */\n      dup2\n      sload\n      dup2\n      lt\n      tag_142\n      jumpi\n      tag_142\n      tag_128\n      jump\t// in\n    tag_142:\n      swap1\n      0x00\n      mstore\n      keccak256(0x00, 0x20)\n      add\n      0x00\n      swap1\n      sload\n      swap1\n      0x0100\n      exp\n      swap1\n      div\n      sub(shl(0xa0, 0x01), 0x01)\n      and\n        /* \"Libs/Constants.sol\":538:540  _a */\n      dup3\n        /* \"Libs/Constants.sol\":541:542  i */\n      dup3\n        /* \"Libs/Constants.sol\":538:543  _a[i] */\n      dup2\n      sload\n      dup2\n      lt\n      tag_145\n      jumpi\n      tag_145\n      tag_128\n      jump\t// in\n    tag_145:\n      0x00\n      swap2\n      dup3\n      mstore\n      0x20\n      swap1\n      swap2\n      keccak256\n      add\n        /* \"Libs/Constants.sol\":538:555  _a[i] = _a[i + 1] */\n      dup1\n      sload\n      not(sub(shl(0xa0, 0x01), 0x01))\n      and\n      sub(shl(0xa0, 0x01), 0x01)\n      swap3\n      swap1\n      swap3\n      and\n      swap2\n      swap1\n      swap2\n      or\n      swap1\n      sstore\n      0x01\n        /* \"Libs/Constants.sol\":518:521  i++ */\n      add\n        /* \"Libs/Constants.sol\":474:567  for (uint i = uint(idx); i < _a.length - 1; i++) {... */\n      jump(tag_134)\n    tag_135:\n      pop\n        /* \"Libs/Constants.sol\":579:581  _a */\n      dup1\n        /* \"Libs/Constants.sol\":579:587  _a.pop() */\n      dup1\n      sload\n      dup1\n      tag_148\n      jumpi\n      tag_148\n      tag_149\n      jump\t// in\n    tag_148:\n      0x00\n      dup3\n      dup2\n      mstore\n      0x20\n      swap1\n      keccak256\n      dup2\n      add\n      not(0x00)\n      swap1\n      dup2\n      add\n      dup1\n      sload\n      not(sub(shl(0xa0, 0x01), 0x01))\n      and\n      swap1\n      sstore\n      add\n      swap1\n      sstore\n      pop\n      pop\n        /* \"Libs/Constants.sol\":336:595  function deleteAddressFrom(int idx, address[] storage _a) internal {... */\n      jump\t// out\n        /* \"#utility.yul\":388:674   */\n    tag_26:\n        /* \"#utility.yul\":447:453   */\n      0x00\n        /* \"#utility.yul\":500:502   */\n      0x20\n        /* \"#utility.yul\":488:497   */\n      dup3\n        /* \"#utility.yul\":479:486   */\n      dup5\n        /* \"#utility.yul\":475:498   */\n      sub\n        /* \"#utility.yul\":471:503   */\n      slt\n        /* \"#utility.yul\":468:520   */\n      iszero\n      tag_160\n      jumpi\n        /* \"#utility.yul\":516:517   */\n      0x00\n        /* \"#utility.yul\":513:514   */\n      dup1\n        /* \"#utility.yul\":506:518   */\n      revert\n        /* \"#utility.yul\":468:520   */\n    tag_160:\n        /* \"#utility.yul\":542:565   */\n      dup2\n      calldataload\n      sub(shl(0xa0, 0x01), 0x01)\n        /* \"#utility.yul\":594:625   */\n      dup2\n      and\n        /* \"#utility.yul\":584:626   */\n      dup2\n      eq\n        /* \"#utility.yul\":574:644   */\n      tag_161\n      jumpi\n        /* \"#utility.yul\":640:641   */\n      0x00\n        /* \"#utility.yul\":637:638   */\n      dup1\n        /* \"#utility.yul\":630:642   */\n      revert\n        /* \"#utility.yul\":574:644   */\n    tag_161:\n        /* \"#utility.yul\":663:668   */\n      swap4\n        /* \"#utility.yul\":388:674   */\n      swap3\n      pop\n      pop\n      pop\n      jump\t// out\n        /* \"#utility.yul\":679:882   */\n    tag_31:\n      sub(shl(0xa0, 0x01), 0x01)\n        /* \"#utility.yul\":843:875   */\n      swap2\n      swap1\n      swap2\n      and\n        /* \"#utility.yul\":825:876   */\n      dup2\n      mstore\n        /* \"#utility.yul\":813:815   */\n      0x20\n        /* \"#utility.yul\":798:816   */\n      add\n      swap1\n        /* \"#utility.yul\":679:882   */\n      jump\t// out\n        /* \"#utility.yul\":887:1524   */\n    tag_35:\n        /* \"#utility.yul\":1077:1079   */\n      0x20\n        /* \"#utility.yul\":1089:1110   */\n      dup1\n      dup3\n      mstore\n        /* \"#utility.yul\":1159:1172   */\n      dup3\n      mload\n        /* \"#utility.yul\":1062:1080   */\n      dup3\n      dup3\n      add\n        /* \"#utility.yul\":1181:1203   */\n      dup2\n      swap1\n      mstore\n        /* \"#utility.yul\":1029:1033   */\n      0x00\n      swap2\n        /* \"#utility.yul\":1260:1275   */\n      dup5\n      add\n      swap1\n        /* \"#utility.yul\":1234:1236   */\n      0x40\n        /* \"#utility.yul\":1219:1237   */\n      dup5\n      add\n      swap1\n        /* \"#utility.yul\":1029:1033   */\n      dup4\n        /* \"#utility.yul\":1303:1498   */\n    tag_164:\n        /* \"#utility.yul\":1317:1323   */\n      dup2\n        /* \"#utility.yul\":1314:1315   */\n      dup2\n        /* \"#utility.yul\":1311:1324   */\n      lt\n        /* \"#utility.yul\":1303:1498   */\n      iszero\n      tag_166\n      jumpi\n        /* \"#utility.yul\":1382:1395   */\n      dup4\n      mload\n      sub(shl(0xa0, 0x01), 0x01)\n        /* \"#utility.yul\":1378:1417   */\n      and\n        /* \"#utility.yul\":1366:1418   */\n      dup4\n      mstore\n        /* \"#utility.yul\":1447:1449   */\n      0x20\n        /* \"#utility.yul\":1473:1488   */\n      swap4\n      dup5\n      add\n      swap4\n        /* \"#utility.yul\":1438:1450   */\n      swap1\n      swap3\n      add\n      swap2\n        /* \"#utility.yul\":1414:1415   */\n      0x01\n        /* \"#utility.yul\":1332:1341   */\n      add\n        /* \"#utility.yul\":1303:1498   */\n      jump(tag_164)\n    tag_166:\n      pop\n        /* \"#utility.yul\":1515:1518   */\n      swap1\n      swap6\n        /* \"#utility.yul\":887:1524   */\n      swap5\n      pop\n      pop\n      pop\n      pop\n      pop\n      jump\t// out\n        /* \"#utility.yul\":1529:1947   */\n    tag_42:\n        /* \"#utility.yul\":1678:1680   */\n      0x20\n        /* \"#utility.yul\":1667:1676   */\n      dup2\n        /* \"#utility.yul\":1660:1681   */\n      mstore\n        /* \"#utility.yul\":1641:1645   */\n      0x00\n        /* \"#utility.yul\":1710:1716   */\n      dup3\n        /* \"#utility.yul\":1704:1717   */\n      mload\n        /* \"#utility.yul\":1753:1759   */\n      dup1\n        /* \"#utility.yul\":1748:1750   */\n      0x20\n        /* \"#utility.yul\":1737:1746   */\n      dup5\n        /* \"#utility.yul\":1733:1751   */\n      add\n        /* \"#utility.yul\":1726:1760   */\n      mstore\n        /* \"#utility.yul\":1812:1818   */\n      dup1\n        /* \"#utility.yul\":1807:1809   */\n      0x20\n        /* \"#utility.yul\":1799:1805   */\n      dup6\n        /* \"#utility.yul\":1795:1810   */\n      add\n        /* \"#utility.yul\":1790:1792   */\n      0x40\n        /* \"#utility.yul\":1779:1788   */\n      dup6\n        /* \"#utility.yul\":1775:1793   */\n      add\n        /* \"#utility.yul\":1769:1819   */\n      mcopy\n        /* \"#utility.yul\":1868:1869   */\n      0x00\n        /* \"#utility.yul\":1863:1865   */\n      0x40\n        /* \"#utility.yul\":1854:1860   */\n      dup3\n        /* \"#utility.yul\":1843:1852   */\n      dup6\n        /* \"#utility.yul\":1839:1861   */\n      add\n        /* \"#utility.yul\":1835:1866   */\n      add\n        /* \"#utility.yul\":1828:1870   */\n      mstore\n        /* \"#utility.yul\":1938:1940   */\n      0x40\n        /* \"#utility.yul\":1931:1933   */\n      0x1f\n        /* \"#utility.yul\":1927:1934   */\n      not\n        /* \"#utility.yul\":1922:1924   */\n      0x1f\n        /* \"#utility.yul\":1914:1920   */\n      dup4\n        /* \"#utility.yul\":1910:1925   */\n      add\n        /* \"#utility.yul\":1906:1935   */\n      and\n        /* \"#utility.yul\":1895:1904   */\n      dup5\n        /* \"#utility.yul\":1891:1936   */\n      add\n        /* \"#utility.yul\":1887:1941   */\n      add\n        /* \"#utility.yul\":1879:1941   */\n      swap2\n      pop\n      pop\n        /* \"#utility.yul\":1529:1947   */\n      swap3\n      swap2\n      pop\n      pop\n      jump\t// out\n        /* \"#utility.yul\":1952:2079   */\n    tag_151:\n        /* \"#utility.yul\":2013:2023   */\n      0x4e487b71\n        /* \"#utility.yul\":2008:2011   */\n      0xe0\n        /* \"#utility.yul\":2004:2024   */\n      shl\n        /* \"#utility.yul\":2001:2002   */\n      0x00\n        /* \"#utility.yul\":1994:2025   */\n      mstore\n        /* \"#utility.yul\":2044:2048   */\n      0x41\n        /* \"#utility.yul\":2041:2042   */\n      0x04\n        /* \"#utility.yul\":2034:2049   */\n      mstore\n        /* \"#utility.yul\":2068:2072   */\n      0x24\n        /* \"#utility.yul\":2065:2066   */\n      0x00\n        /* \"#utility.yul\":2058:2073   */\n      revert\n        /* \"#utility.yul\":2084:3029   */\n    tag_45:\n        /* \"#utility.yul\":2153:2159   */\n      0x00\n        /* \"#utility.yul\":2206:2208   */\n      0x20\n        /* \"#utility.yul\":2194:2203   */\n      dup3\n        /* \"#utility.yul\":2185:2192   */\n      dup5\n        /* \"#utility.yul\":2181:2204   */\n      sub\n        /* \"#utility.yul\":2177:2209   */\n      slt\n        /* \"#utility.yul\":2174:2226   */\n      iszero\n      tag_170\n      jumpi\n        /* \"#utility.yul\":2222:2223   */\n      0x00\n        /* \"#utility.yul\":2219:2220   */\n      dup1\n        /* \"#utility.yul\":2212:2224   */\n      revert\n        /* \"#utility.yul\":2174:2226   */\n    tag_170:\n        /* \"#utility.yul\":2249:2272   */\n      dup2\n      calldataload\n      sub(shl(0x40, 0x01), 0x01)\n        /* \"#utility.yul\":2284:2314   */\n      dup2\n      gt\n        /* \"#utility.yul\":2281:2331   */\n      iszero\n      tag_171\n      jumpi\n        /* \"#utility.yul\":2327:2328   */\n      0x00\n        /* \"#utility.yul\":2324:2325   */\n      dup1\n        /* \"#utility.yul\":2317:2329   */\n      revert\n        /* \"#utility.yul\":2281:2331   */\n    tag_171:\n        /* \"#utility.yul\":2350:2372   */\n      dup3\n      add\n        /* \"#utility.yul\":2403:2407   */\n      0x1f\n        /* \"#utility.yul\":2395:2408   */\n      dup2\n      add\n        /* \"#utility.yul\":2391:2418   */\n      dup5\n      sgt\n        /* \"#utility.yul\":2381:2436   */\n      tag_172\n      jumpi\n        /* \"#utility.yul\":2432:2433   */\n      0x00\n        /* \"#utility.yul\":2429:2430   */\n      dup1\n        /* \"#utility.yul\":2422:2434   */\n      revert\n        /* \"#utility.yul\":2381:2436   */\n    tag_172:\n        /* \"#utility.yul\":2459:2475   */\n      dup1\n      calldataload\n      sub(shl(0x40, 0x01), 0x01)\n        /* \"#utility.yul\":2487:2517   */\n      dup2\n      gt\n        /* \"#utility.yul\":2484:2540   */\n      iszero\n      tag_174\n      jumpi\n        /* \"#utility.yul\":2520:2538   */\n      tag_174\n      tag_151\n      jump\t// in\n    tag_174:\n        /* \"#utility.yul\":2569:2571   */\n      0x40\n        /* \"#utility.yul\":2563:2572   */\n      mload\n        /* \"#utility.yul\":2661:2663   */\n      0x1f\n        /* \"#utility.yul\":2623:2640   */\n      dup3\n      add\n      not(0x1f)\n        /* \"#utility.yul\":2619:2650   */\n      swap1\n      dup2\n      and\n        /* \"#utility.yul\":2652:2654   */\n      0x3f\n        /* \"#utility.yul\":2615:2655   */\n      add\n        /* \"#utility.yul\":2611:2665   */\n      and\n        /* \"#utility.yul\":2599:2666   */\n      dup2\n      add\n      sub(shl(0x40, 0x01), 0x01)\n        /* \"#utility.yul\":2681:2715   */\n      dup2\n      gt\n        /* \"#utility.yul\":2717:2739   */\n      dup3\n      dup3\n      lt\n        /* \"#utility.yul\":2678:2740   */\n      or\n        /* \"#utility.yul\":2675:2763   */\n      iszero\n      tag_176\n      jumpi\n        /* \"#utility.yul\":2743:2761   */\n      tag_176\n      tag_151\n      jump\t// in\n    tag_176:\n        /* \"#utility.yul\":2779:2781   */\n      0x40\n        /* \"#utility.yul\":2772:2794   */\n      mstore\n        /* \"#utility.yul\":2803:2825   */\n      dup2\n      dup2\n      mstore\n        /* \"#utility.yul\":2844:2859   */\n      dup3\n      dup3\n      add\n        /* \"#utility.yul\":2861:2863   */\n      0x20\n        /* \"#utility.yul\":2840:2864   */\n      add\n        /* \"#utility.yul\":2837:2874   */\n      dup7\n      lt\n        /* \"#utility.yul\":2834:2891   */\n      iszero\n      tag_177\n      jumpi\n        /* \"#utility.yul\":2887:2888   */\n      0x00\n        /* \"#utility.yul\":2884:2885   */\n      dup1\n        /* \"#utility.yul\":2877:2889   */\n      revert\n        /* \"#utility.yul\":2834:2891   */\n    tag_177:\n        /* \"#utility.yul\":2943:2949   */\n      dup2\n        /* \"#utility.yul\":2938:2940   */\n      0x20\n        /* \"#utility.yul\":2934:2936   */\n      dup5\n        /* \"#utility.yul\":2930:2941   */\n      add\n        /* \"#utility.yul\":2925:2927   */\n      0x20\n        /* \"#utility.yul\":2917:2923   */\n      dup4\n        /* \"#utility.yul\":2913:2928   */\n      add\n        /* \"#utility.yul\":2900:2950   */\n      calldatacopy\n        /* \"#utility.yul\":2996:2997   */\n      0x00\n        /* \"#utility.yul\":2970:2989   */\n      swap2\n      dup2\n      add\n        /* \"#utility.yul\":2991:2993   */\n      0x20\n        /* \"#utility.yul\":2966:2994   */\n      add\n        /* \"#utility.yul\":2959:2998   */\n      swap2\n      swap1\n      swap2\n      mstore\n        /* \"#utility.yul\":2974:2980   */\n      swap5\n        /* \"#utility.yul\":2084:3029   */\n      swap4\n      pop\n      pop\n      pop\n      pop\n      jump\t// out\n        /* \"#utility.yul\":3034:3360   */\n    tag_59:\n        /* \"#utility.yul\":3236:3238   */\n      0x20\n        /* \"#utility.yul\":3218:3239   */\n      dup1\n      dup3\n      mstore\n        /* \"#utility.yul\":3275:3276   */\n      0x03\n        /* \"#utility.yul\":3255:3273   */\n      swap1\n      dup3\n      add\n        /* \"#utility.yul\":3248:3277   */\n      mstore\n      shl(0xe8, 0x343033)\n        /* \"#utility.yul\":3308:3310   */\n      0x40\n        /* \"#utility.yul\":3293:3311   */\n      dup3\n      add\n        /* \"#utility.yul\":3286:3319   */\n      mstore\n        /* \"#utility.yul\":3351:3353   */\n      0x60\n        /* \"#utility.yul\":3336:3354   */\n      add\n      swap1\n        /* \"#utility.yul\":3034:3360   */\n      jump\t// out\n        /* \"#utility.yul\":3696:4076   */\n    tag_95:\n        /* \"#utility.yul\":3775:3776   */\n      0x01\n        /* \"#utility.yul\":3771:3783   */\n      dup2\n      dup2\n      shr\n      swap1\n        /* \"#utility.yul\":3818:3830   */\n      dup3\n      and\n      dup1\n        /* \"#utility.yul\":3839:3900   */\n      tag_181\n      jumpi\n        /* \"#utility.yul\":3893:3897   */\n      0x7f\n        /* \"#utility.yul\":3885:3891   */\n      dup3\n        /* \"#utility.yul\":3881:3898   */\n      and\n        /* \"#utility.yul\":3871:3898   */\n      swap2\n      pop\n        /* \"#utility.yul\":3839:3900   */\n    tag_181:\n        /* \"#utility.yul\":3946:3948   */\n      0x20\n        /* \"#utility.yul\":3938:3944   */\n      dup3\n        /* \"#utility.yul\":3935:3949   */\n      lt\n        /* \"#utility.yul\":3915:3933   */\n      dup2\n        /* \"#utility.yul\":3912:3950   */\n      sub\n        /* \"#utility.yul\":3909:4070   */\n      tag_182\n      jumpi\n        /* \"#utility.yul\":3992:4002   */\n      0x4e487b71\n        /* \"#utility.yul\":3987:3990   */\n      0xe0\n        /* \"#utility.yul\":3983:4003   */\n      shl\n        /* \"#utility.yul\":3980:3981   */\n      0x00\n        /* \"#utility.yul\":3973:4004   */\n      mstore\n        /* \"#utility.yul\":4027:4031   */\n      0x22\n        /* \"#utility.yul\":4024:4025   */\n      0x04\n        /* \"#utility.yul\":4017:4032   */\n      mstore\n        /* \"#utility.yul\":4055:4059   */\n      0x24\n        /* \"#utility.yul\":4052:4053   */\n      0x00\n        /* \"#utility.yul\":4045:4060   */\n      revert\n        /* \"#utility.yul\":3909:4070   */\n    tag_182:\n      pop\n        /* \"#utility.yul\":3696:4076   */\n      swap2\n      swap1\n      pop\n      jump\t// out\n        /* \"#utility.yul\":4207:4725   */\n    tag_153:\n        /* \"#utility.yul\":4309:4311   */\n      0x1f\n        /* \"#utility.yul\":4304:4307   */\n      dup3\n        /* \"#utility.yul\":4301:4312   */\n      gt\n        /* \"#utility.yul\":4298:4719   */\n      iszero\n      tag_185\n      jumpi\n        /* \"#utility.yul\":4345:4350   */\n      dup1\n        /* \"#utility.yul\":4342:4343   */\n      0x00\n        /* \"#utility.yul\":4335:4351   */\n      mstore\n        /* \"#utility.yul\":4389:4393   */\n      0x20\n        /* \"#utility.yul\":4386:4387   */\n      0x00\n        /* \"#utility.yul\":4376:4394   */\n      keccak256\n        /* \"#utility.yul\":4459:4461   */\n      0x1f\n        /* \"#utility.yul\":4447:4457   */\n      dup5\n        /* \"#utility.yul\":4443:4462   */\n      add\n        /* \"#utility.yul\":4440:4441   */\n      0x05\n        /* \"#utility.yul\":4436:4463   */\n      shr\n        /* \"#utility.yul\":4430:4434   */\n      dup2\n        /* \"#utility.yul\":4426:4464   */\n      add\n        /* \"#utility.yul\":4495:4499   */\n      0x20\n        /* \"#utility.yul\":4483:4493   */\n      dup6\n        /* \"#utility.yul\":4480:4500   */\n      lt\n        /* \"#utility.yul\":4477:4524   */\n      iszero\n      tag_186\n      jumpi\n      pop\n        /* \"#utility.yul\":4518:4522   */\n      dup1\n        /* \"#utility.yul\":4477:4524   */\n    tag_186:\n        /* \"#utility.yul\":4573:4575   */\n      0x1f\n        /* \"#utility.yul\":4568:4571   */\n      dup5\n        /* \"#utility.yul\":4564:4576   */\n      add\n        /* \"#utility.yul\":4561:4562   */\n      0x05\n        /* \"#utility.yul\":4557:4577   */\n      shr\n        /* \"#utility.yul\":4551:4555   */\n      dup3\n        /* \"#utility.yul\":4547:4578   */\n      add\n        /* \"#utility.yul\":4537:4578   */\n      swap2\n      pop\n        /* \"#utility.yul\":4628:4709   */\n    tag_187:\n        /* \"#utility.yul\":4646:4648   */\n      dup2\n        /* \"#utility.yul\":4639:4644   */\n      dup2\n        /* \"#utility.yul\":4636:4649   */\n      lt\n        /* \"#utility.yul\":4628:4709   */\n      iszero\n      tag_189\n      jumpi\n        /* \"#utility.yul\":4705:4706   */\n      0x00\n        /* \"#utility.yul\":4691:4707   */\n      dup2\n      sstore\n        /* \"#utility.yul\":4672:4673   */\n      0x01\n        /* \"#utility.yul\":4661:4674   */\n      add\n        /* \"#utility.yul\":4628:4709   */\n      jump(tag_187)\n    tag_189:\n        /* \"#utility.yul\":4632:4635   */\n      pop\n      pop\n        /* \"#utility.yul\":4298:4719   */\n    tag_185:\n        /* \"#utility.yul\":4207:4725   */\n      pop\n      pop\n      pop\n      jump\t// out\n        /* \"#utility.yul\":4901:6200   */\n    tag_106:\n        /* \"#utility.yul\":5021:5031   */\n      dup2\n      mload\n      sub(shl(0x40, 0x01), 0x01)\n        /* \"#utility.yul\":5043:5073   */\n      dup2\n      gt\n        /* \"#utility.yul\":5040:5096   */\n      iszero\n      tag_193\n      jumpi\n        /* \"#utility.yul\":5076:5094   */\n      tag_193\n      tag_151\n      jump\t// in\n    tag_193:\n        /* \"#utility.yul\":5105:5202   */\n      tag_194\n        /* \"#utility.yul\":5195:5201   */\n      dup2\n        /* \"#utility.yul\":5155:5193   */\n      tag_195\n        /* \"#utility.yul\":5187:5191   */\n      dup5\n        /* \"#utility.yul\":5181:5192   */\n      sload\n        /* \"#utility.yul\":5155:5193   */\n      tag_95\n      jump\t// in\n    tag_195:\n        /* \"#utility.yul\":5149:5153   */\n      dup5\n        /* \"#utility.yul\":5105:5202   */\n      tag_153\n      jump\t// in\n    tag_194:\n        /* \"#utility.yul\":5251:5255   */\n      0x20\n        /* \"#utility.yul\":5282:5284   */\n      0x1f\n        /* \"#utility.yul\":5271:5285   */\n      dup3\n      gt\n        /* \"#utility.yul\":5299:5300   */\n      0x01\n        /* \"#utility.yul\":5294:5943   */\n      dup2\n      eq\n      tag_197\n      jumpi\n        /* \"#utility.yul\":5987:5988   */\n      0x00\n        /* \"#utility.yul\":6004:6010   */\n      dup4\n        /* \"#utility.yul\":6001:6090   */\n      iszero\n      tag_198\n      jumpi\n      pop\n        /* \"#utility.yul\":6056:6075   */\n      dup5\n      dup3\n      add\n        /* \"#utility.yul\":6050:6076   */\n      mload\n        /* \"#utility.yul\":6001:6090   */\n    tag_198:\n      not(0x00)\n        /* \"#utility.yul\":4858:4859   */\n      0x03\n        /* \"#utility.yul\":4854:4865   */\n      dup6\n      swap1\n      shl\n        /* \"#utility.yul\":4850:4874   */\n      shr\n        /* \"#utility.yul\":4846:4875   */\n      not\n        /* \"#utility.yul\":4836:4876   */\n      and\n        /* \"#utility.yul\":4882:4883   */\n      0x01\n        /* \"#utility.yul\":4878:4889   */\n      dup5\n      swap1\n      shl\n        /* \"#utility.yul\":4833:4890   */\n      or\n        /* \"#utility.yul\":6103:6184   */\n      dup5\n      sstore\n        /* \"#utility.yul\":5264:6194   */\n      jump(tag_189)\n        /* \"#utility.yul\":5294:5943   */\n    tag_197:\n        /* \"#utility.yul\":4154:4155   */\n      0x00\n        /* \"#utility.yul\":4147:4161   */\n      dup5\n      dup2\n      mstore\n        /* \"#utility.yul\":4191:4195   */\n      0x20\n        /* \"#utility.yul\":4178:4196   */\n      dup2\n      keccak256\n      not(0x1f)\n        /* \"#utility.yul\":5330:5350   */\n      dup6\n      and\n      swap2\n        /* \"#utility.yul\":5448:5670   */\n    tag_201:\n        /* \"#utility.yul\":5462:5469   */\n      dup3\n        /* \"#utility.yul\":5459:5460   */\n      dup2\n        /* \"#utility.yul\":5456:5470   */\n      lt\n        /* \"#utility.yul\":5448:5670   */\n      iszero\n      tag_203\n      jumpi\n        /* \"#utility.yul\":5544:5563   */\n      dup8\n      dup6\n      add\n        /* \"#utility.yul\":5538:5564   */\n      mload\n        /* \"#utility.yul\":5523:5565   */\n      dup3\n      sstore\n        /* \"#utility.yul\":5651:5655   */\n      0x20\n        /* \"#utility.yul\":5636:5656   */\n      swap5\n      dup6\n      add\n      swap5\n        /* \"#utility.yul\":5604:5605   */\n      0x01\n        /* \"#utility.yul\":5592:5606   */\n      swap1\n      swap3\n      add\n      swap2\n        /* \"#utility.yul\":5478:5490   */\n      add\n        /* \"#utility.yul\":5448:5670   */\n      jump(tag_201)\n    tag_203:\n        /* \"#utility.yul\":5452:5455   */\n      pop\n        /* \"#utility.yul\":5698:5704   */\n      dup5\n        /* \"#utility.yul\":5689:5696   */\n      dup3\n        /* \"#utility.yul\":5686:5705   */\n      lt\n        /* \"#utility.yul\":5683:5884   */\n      iszero\n      tag_204\n      jumpi\n        /* \"#utility.yul\":5759:5778   */\n      dup7\n      dup5\n      add\n        /* \"#utility.yul\":5753:5779   */\n      mload\n      not(0x00)\n        /* \"#utility.yul\":5842:5843   */\n      0x03\n        /* \"#utility.yul\":5838:5852   */\n      dup8\n      swap1\n      shl\n        /* \"#utility.yul\":5854:5857   */\n      0xf8\n        /* \"#utility.yul\":5834:5858   */\n      and\n        /* \"#utility.yul\":5830:5867   */\n      shr\n        /* \"#utility.yul\":5826:5868   */\n      not\n        /* \"#utility.yul\":5811:5869   */\n      and\n        /* \"#utility.yul\":5796:5870   */\n      dup2\n      sstore\n        /* \"#utility.yul\":5683:5884   */\n    tag_204:\n      pop\n      pop\n      pop\n      pop\n        /* \"#utility.yul\":5930:5931   */\n      0x01\n        /* \"#utility.yul\":5914:5928   */\n      swap1\n      dup2\n      shl\n        /* \"#utility.yul\":5910:5932   */\n      add\n        /* \"#utility.yul\":5897:5933   */\n      swap1\n      sstore\n      pop\n        /* \"#utility.yul\":4901:6200   */\n      jump\t// out\n        /* \"#utility.yul\":6205:6531   */\n    tag_119:\n        /* \"#utility.yul\":6407:6409   */\n      0x20\n        /* \"#utility.yul\":6389:6410   */\n      dup1\n      dup3\n      mstore\n        /* \"#utility.yul\":6446:6447   */\n      0x03\n        /* \"#utility.yul\":6426:6444   */\n      swap1\n      dup3\n      add\n        /* \"#utility.yul\":6419:6448   */\n      mstore\n      shl(0xea, 0x0d0c0d)\n        /* \"#utility.yul\":6479:6481   */\n      0x40\n        /* \"#utility.yul\":6464:6482   */\n      dup3\n      add\n        /* \"#utility.yul\":6457:6490   */\n      mstore\n        /* \"#utility.yul\":6522:6524   */\n      0x60\n        /* \"#utility.yul\":6507:6525   */\n      add\n      swap1\n        /* \"#utility.yul\":6205:6531   */\n      jump\t// out\n        /* \"#utility.yul\":6536:6663   */\n    tag_128:\n        /* \"#utility.yul\":6597:6607   */\n      0x4e487b71\n        /* \"#utility.yul\":6592:6595   */\n      0xe0\n        /* \"#utility.yul\":6588:6608   */\n      shl\n        /* \"#utility.yul\":6585:6586   */\n      0x00\n        /* \"#utility.yul\":6578:6609   */\n      mstore\n        /* \"#utility.yul\":6628:6632   */\n      0x32\n        /* \"#utility.yul\":6625:6626   */\n      0x04\n        /* \"#utility.yul\":6618:6633   */\n      mstore\n        /* \"#utility.yul\":6652:6656   */\n      0x24\n        /* \"#utility.yul\":6649:6650   */\n      0x00\n        /* \"#utility.yul\":6642:6657   */\n      revert\n        /* \"#utility.yul\":6668:6795   */\n    tag_155:\n        /* \"#utility.yul\":6729:6739   */\n      0x4e487b71\n        /* \"#utility.yul\":6724:6727   */\n      0xe0\n        /* \"#utility.yul\":6720:6740   */\n      shl\n        /* \"#utility.yul\":6717:6718   */\n      0x00\n        /* \"#utility.yul\":6710:6741   */\n      mstore\n        /* \"#utility.yul\":6760:6764   */\n      0x11\n        /* \"#utility.yul\":6757:6758   */\n      0x04\n        /* \"#utility.yul\":6750:6765   */\n      mstore\n        /* \"#utility.yul\":6784:6788   */\n      0x24\n        /* \"#utility.yul\":6781:6782   */\n      0x00\n        /* \"#utility.yul\":6774:6789   */\n      revert\n        /* \"#utility.yul\":6800:6928   */\n    tag_138:\n        /* \"#utility.yul\":6867:6876   */\n      dup2\n      dup2\n      sub\n        /* \"#utility.yul\":6888:6899   */\n      dup2\n      dup2\n      gt\n        /* \"#utility.yul\":6885:6922   */\n      iszero\n      tag_122\n      jumpi\n        /* \"#utility.yul\":6902:6920   */\n      tag_122\n      tag_155\n      jump\t// in\n        /* \"#utility.yul\":6933:7058   */\n    tag_140:\n        /* \"#utility.yul\":6998:7007   */\n      dup1\n      dup3\n      add\n        /* \"#utility.yul\":7019:7029   */\n      dup1\n      dup3\n      gt\n        /* \"#utility.yul\":7016:7052   */\n      iszero\n      tag_122\n      jumpi\n        /* \"#utility.yul\":7032:7050   */\n      tag_122\n      tag_155\n      jump\t// in\n        /* \"#utility.yul\":7063:7190   */\n    tag_149:\n        /* \"#utility.yul\":7124:7134   */\n      0x4e487b71\n        /* \"#utility.yul\":7119:7122   */\n      0xe0\n        /* \"#utility.yul\":7115:7135   */\n      shl\n        /* \"#utility.yul\":7112:7113   */\n      0x00\n        /* \"#utility.yul\":7105:7136   */\n      mstore\n        /* \"#utility.yul\":7155:7159   */\n      0x31\n        /* \"#utility.yul\":7152:7153   */\n      0x04\n        /* \"#utility.yul\":7145:7160   */\n      mstore\n        /* \"#utility.yul\":7179:7183   */\n      0x24\n        /* \"#utility.yul\":7176:7177   */\n      0x00\n        /* \"#utility.yul\":7169:7184   */\n      revert\n\n    auxdata: 0xa26469706673582212207fccc497e64626b21720cc73b0bb28babaff151213d0c89cb82c1740b00e5bf664736f6c634300081a0033\n}\n",
				"bytecode": {
					"linkReferences": {},
					"object": "608060405234801561000f575f80fd5b50604051610f1d380380610f1d83398101604081905261002e9161017a565b600460018190558583835f610043848261028c565b50600280546001600160a01b039384166001600160a01b03199182161790915560038054929093169116179055506005905061007f858261028c565b5060068390556040513381527f1449abf21e49fd025f33495e77f7b1461caefdd3d4bb646424a3f445c4576a5b9060200160405180910390a15050505050610346565b634e487b7160e01b5f52604160045260245ffd5b5f82601f8301126100e5575f80fd5b81516001600160401b038111156100fe576100fe6100c2565b604051601f8201601f19908116603f011681016001600160401b038111828210171561012c5761012c6100c2565b604052818152838201602001851015610143575f80fd5b8160208501602083015e5f918101602001919091529392505050565b80516001600160a01b0381168114610175575f80fd5b919050565b5f805f805f60a0868803121561018e575f80fd5b85516001600160401b038111156101a3575f80fd5b6101af888289016100d6565b602088015190965090506001600160401b038111156101cc575f80fd5b6101d8888289016100d6565b945050604086015192506101ee6060870161015f565b91506101fc6080870161015f565b90509295509295909350565b600181811c9082168061021c57607f821691505b60208210810361023a57634e487b7160e01b5f52602260045260245ffd5b50919050565b601f82111561028757805f5260205f20601f840160051c810160208510156102655750805b601f840160051c820191505b81811015610284575f8155600101610271565b50505b505050565b81516001600160401b038111156102a5576102a56100c2565b6102b9816102b38454610208565b84610240565b6020601f8211600181146102eb575f83156102d45750848201515b5f19600385901b1c1916600184901b178455610284565b5f84815260208120601f198516915b8281101561031a57878501518255602094850194600190920191016102fa565b508482101561033757868401515f19600387901b60f8161c191681555b50505050600190811b01905550565b610bca806103535f395ff3fe608060405234801561000f575f80fd5b506004361061008c575f3560e01c806316ada5471461009057806326c7b327146100ac5780634ba83374146100b55780635da6ef8d146100cd57806380f76021146100e2578063a95264d0146100f7578063b9daf3e21461010c578063ba379e8614610114578063c47f002714610129578063ded92dac1461013c575b5f80fd5b61009960065481565b6040519081526020015b60405180910390f35b61009960015481565b6100bd61014f565b60405190151581526020016100a3565b6100e06100db366004610835565b6101bb565b005b6100ea610301565b6040516100a39190610862565b6100ff610352565b6040516100a39190610876565b6100bd6103f2565b61011c61041c565b6040516100a391906108c1565b6100e061013736600461090a565b610570565b6100e061014a366004610835565b6105f5565b5f6101b23360048054806020026020016040519081016040528092919081815260200182805480156101a857602002820191905f5260205f20905b81546001600160a01b0316815260019091019060200180831161018a575b50505050506106eb565b5f191415905090565b6002546001600160a01b03163314806101de57506003546001600160a01b031633145b6102035760405162461bcd60e51b81526004016101fa906109ba565b60405180910390fd5b6002546001600160a01b0382811691161480159061022957506001600160a01b03811615155b801561029457506102908160048054806020026020016040519081016040528092919081815260200182805480156101a857602002820191905f5260205f209081546001600160a01b0316815260019091019060200180831161018a5750505050506106eb565b5f19145b6102b05760405162461bcd60e51b81526004016101fa906109ba565b600480546001810182555f919091527f8a35acfbc15ff81a39ae7d344fd709f28e8600b4aa8c65c6b64bfe7fe36bd19b0180546001600160a01b0319166001600160a01b0392909216919091179055565b6002545f906001600160a01b031633148061032657506003546001600160a01b031633145b6103425760405162461bcd60e51b81526004016101fa906109ba565b506003546001600160a01b031690565b6002546060906001600160a01b031633148061037857506003546001600160a01b031633145b6103945760405162461bcd60e51b81526004016101fa906109ba565b60048054806020026020016040519081016040528092919081815260200182805480156103e857602002820191905f5260205f20905b81546001600160a01b031681526001909101906020018083116103ca575b5050505050905090565b6002545f906001600160a01b031633148061041757506003546001600160a01b031633145b905090565b6002546060906001600160a01b031633148061049857506104933360048054806020026020016040519081016040528092919081815260200182805480156101a857602002820191905f5260205f209081546001600160a01b0316815260019091019060200180831161018a5750505050506106eb565b5f1914155b6104b45760405162461bcd60e51b81526004016101fa906109ba565b42600654106104eb5760405162461bcd60e51b815260206004820152600360248201526234323560e81b60448201526064016101fa565b600580546104f8906109d7565b80601f0160208091040260200160405190810160405280929190818152602001828054610524906109d7565b80156103e85780601f10610546576101008083540402835291602001916103e8565b820191905f5260205f20905b81548152906001019060200180831161055257509395945050505050565b6002546001600160a01b031633148061059357506003546001600160a01b031633145b6105af5760405162461bcd60e51b81526004016101fa906109ba565b5f6105ba8282610a5b565b507fe00da2178806f37f69815e9ed5ed3072ec1d55206d60916d99b469c7daa421e4336040516105ea9190610862565b60405180910390a150565b6001600160a01b03811615158061063d57506003546001600160a01b031633148061062a57506002546001600160a01b031633145b8061063d5750336001600160a01b038216145b6106595760405162461bcd60e51b81526004016101fa906109ba565b5f6106ba8260048054806020026020016040519081016040528092919081815260200182805480156101a857602002820191905f5260205f209081546001600160a01b0316815260019091019060200180831161018a5750505050506106eb565b90505f1981136106dc5760405162461bcd60e51b81526004016101fa90610b15565b6106e7816004610744565b5050565b5f805b825181101561073857836001600160a01b031683828151811061071357610713610b32565b60200260200101516001600160a01b03160361073057905061073e565b6001016106ee565b505f1990505b92915050565b5f82121580156107545750805482105b6107705760405162461bcd60e51b81526004016101fa90610b15565b815b815461078090600190610b5a565b8110156108005781610793826001610b6d565b815481106107a3576107a3610b32565b905f5260205f20015f9054906101000a90046001600160a01b03168282815481106107d0576107d0610b32565b5f91825260209091200180546001600160a01b0319166001600160a01b0392909216919091179055600101610772565b508080548061081157610811610b80565b5f8281526020902081015f1990810180546001600160a01b03191690550190555050565b5f60208284031215610845575f80fd5b81356001600160a01b038116811461085b575f80fd5b9392505050565b6001600160a01b0391909116815260200190565b602080825282518282018190525f918401906040840190835b818110156108b65783516001600160a01b031683526020938401939092019160010161088f565b509095945050505050565b602081525f82518060208401528060208501604085015e5f604082850101526040601f19601f83011684010191505092915050565b634e487b7160e01b5f52604160045260245ffd5b5f6020828403121561091a575f80fd5b81356001600160401b0381111561092f575f80fd5b8201601f8101841361093f575f80fd5b80356001600160401b03811115610958576109586108f6565b604051601f8201601f19908116603f011681016001600160401b0381118282101715610986576109866108f6565b60405281815282820160200186101561099d575f80fd5b816020840160208301375f91810160200191909152949350505050565b60208082526003908201526234303360e81b604082015260600190565b600181811c908216806109eb57607f821691505b602082108103610a0957634e487b7160e01b5f52602260045260245ffd5b50919050565b601f821115610a5657805f5260205f20601f840160051c81016020851015610a345750805b601f840160051c820191505b81811015610a53575f8155600101610a40565b50505b505050565b81516001600160401b03811115610a7457610a746108f6565b610a8881610a8284546109d7565b84610a0f565b6020601f821160018114610aba575f8315610aa35750848201515b5f19600385901b1c1916600184901b178455610a53565b5f84815260208120601f198516915b82811015610ae95787850151825560209485019460019092019101610ac9565b5084821015610b0657868401515f19600387901b60f8161c191681555b50505050600190811b01905550565b6020808252600390820152620d0c0d60ea1b604082015260600190565b634e487b7160e01b5f52603260045260245ffd5b634e487b7160e01b5f52601160045260245ffd5b8181038181111561073e5761073e610b46565b8082018082111561073e5761073e610b46565b634e487b7160e01b5f52603160045260245ffdfea26469706673582212207fccc497e64626b21720cc73b0bb28babaff151213d0c89cb82c1740b00e5bf664736f6c634300081a0033",
					"opcodes": "PUSH1 0x80 PUSH1 0x40 MSTORE CALLVALUE DUP1 ISZERO PUSH2 0xF JUMPI PUSH0 DUP1 REVERT JUMPDEST POP PUSH1 0x40 MLOAD PUSH2 0xF1D CODESIZE SUB DUP1 PUSH2 0xF1D DUP4 CODECOPY DUP2 ADD PUSH1 0x40 DUP2 SWAP1 MSTORE PUSH2 0x2E SWAP2 PUSH2 0x17A JUMP JUMPDEST PUSH1 0x4 PUSH1 0x1 DUP2 SWAP1 SSTORE DUP6 DUP4 DUP4 PUSH0 PUSH2 0x43 DUP5 DUP3 PUSH2 0x28C JUMP JUMPDEST POP PUSH1 0x2 DUP1 SLOAD PUSH1 0x1 PUSH1 0x1 PUSH1 0xA0 SHL SUB SWAP4 DUP5 AND PUSH1 0x1 PUSH1 0x1 PUSH1 0xA0 SHL SUB NOT SWAP2 DUP3 AND OR SWAP1 SWAP2 SSTORE PUSH1 0x3 DUP1 SLOAD SWAP3 SWAP1 SWAP4 AND SWAP2 AND OR SWAP1 SSTORE POP PUSH1 0x5 SWAP1 POP PUSH2 0x7F DUP6 DUP3 PUSH2 0x28C JUMP JUMPDEST POP PUSH1 0x6 DUP4 SWAP1 SSTORE PUSH1 0x40 MLOAD CALLER DUP2 MSTORE PUSH32 0x1449ABF21E49FD025F33495E77F7B1461CAEFDD3D4BB646424A3F445C4576A5B SWAP1 PUSH1 0x20 ADD PUSH1 0x40 MLOAD DUP1 SWAP2 SUB SWAP1 LOG1 POP POP POP POP POP PUSH2 0x346 JUMP JUMPDEST PUSH4 0x4E487B71 PUSH1 0xE0 SHL PUSH0 MSTORE PUSH1 0x41 PUSH1 0x4 MSTORE PUSH1 0x24 PUSH0 REVERT JUMPDEST PUSH0 DUP3 PUSH1 0x1F DUP4 ADD SLT PUSH2 0xE5 JUMPI PUSH0 DUP1 REVERT JUMPDEST DUP2 MLOAD PUSH1 0x1 PUSH1 0x1 PUSH1 0x40 SHL SUB DUP2 GT ISZERO PUSH2 0xFE JUMPI PUSH2 0xFE PUSH2 0xC2 JUMP JUMPDEST PUSH1 0x40 MLOAD PUSH1 0x1F DUP3 ADD PUSH1 0x1F NOT SWAP1 DUP2 AND PUSH1 0x3F ADD AND DUP2 ADD PUSH1 0x1 PUSH1 0x1 PUSH1 0x40 SHL SUB DUP2 GT DUP3 DUP3 LT OR ISZERO PUSH2 0x12C JUMPI PUSH2 0x12C PUSH2 0xC2 JUMP JUMPDEST PUSH1 0x40 MSTORE DUP2 DUP2 MSTORE DUP4 DUP3 ADD PUSH1 0x20 ADD DUP6 LT ISZERO PUSH2 0x143 JUMPI PUSH0 DUP1 REVERT JUMPDEST DUP2 PUSH1 0x20 DUP6 ADD PUSH1 0x20 DUP4 ADD MCOPY PUSH0 SWAP2 DUP2 ADD PUSH1 0x20 ADD SWAP2 SWAP1 SWAP2 MSTORE SWAP4 SWAP3 POP POP POP JUMP JUMPDEST DUP1 MLOAD PUSH1 0x1 PUSH1 0x1 PUSH1 0xA0 SHL SUB DUP2 AND DUP2 EQ PUSH2 0x175 JUMPI PUSH0 DUP1 REVERT JUMPDEST SWAP2 SWAP1 POP JUMP JUMPDEST PUSH0 DUP1 PUSH0 DUP1 PUSH0 PUSH1 0xA0 DUP7 DUP9 SUB SLT ISZERO PUSH2 0x18E JUMPI PUSH0 DUP1 REVERT JUMPDEST DUP6 MLOAD PUSH1 0x1 PUSH1 0x1 PUSH1 0x40 SHL SUB DUP2 GT ISZERO PUSH2 0x1A3 JUMPI PUSH0 DUP1 REVERT JUMPDEST PUSH2 0x1AF DUP9 DUP3 DUP10 ADD PUSH2 0xD6 JUMP JUMPDEST PUSH1 0x20 DUP9 ADD MLOAD SWAP1 SWAP7 POP SWAP1 POP PUSH1 0x1 PUSH1 0x1 PUSH1 0x40 SHL SUB DUP2 GT ISZERO PUSH2 0x1CC JUMPI PUSH0 DUP1 REVERT JUMPDEST PUSH2 0x1D8 DUP9 DUP3 DUP10 ADD PUSH2 0xD6 JUMP JUMPDEST SWAP5 POP POP PUSH1 0x40 DUP7 ADD MLOAD SWAP3 POP PUSH2 0x1EE PUSH1 0x60 DUP8 ADD PUSH2 0x15F JUMP JUMPDEST SWAP2 POP PUSH2 0x1FC PUSH1 0x80 DUP8 ADD PUSH2 0x15F JUMP JUMPDEST SWAP1 POP SWAP3 SWAP6 POP SWAP3 SWAP6 SWAP1 SWAP4 POP JUMP JUMPDEST PUSH1 0x1 DUP2 DUP2 SHR SWAP1 DUP3 AND DUP1 PUSH2 0x21C JUMPI PUSH1 0x7F DUP3 AND SWAP2 POP JUMPDEST PUSH1 0x20 DUP3 LT DUP2 SUB PUSH2 0x23A JUMPI PUSH4 0x4E487B71 PUSH1 0xE0 SHL PUSH0 MSTORE PUSH1 0x22 PUSH1 0x4 MSTORE PUSH1 0x24 PUSH0 REVERT JUMPDEST POP SWAP2 SWAP1 POP JUMP JUMPDEST PUSH1 0x1F DUP3 GT ISZERO PUSH2 0x287 JUMPI DUP1 PUSH0 MSTORE PUSH1 0x20 PUSH0 KECCAK256 PUSH1 0x1F DUP5 ADD PUSH1 0x5 SHR DUP2 ADD PUSH1 0x20 DUP6 LT ISZERO PUSH2 0x265 JUMPI POP DUP1 JUMPDEST PUSH1 0x1F DUP5 ADD PUSH1 0x5 SHR DUP3 ADD SWAP2 POP JUMPDEST DUP2 DUP2 LT ISZERO PUSH2 0x284 JUMPI PUSH0 DUP2 SSTORE PUSH1 0x1 ADD PUSH2 0x271 JUMP JUMPDEST POP POP JUMPDEST POP POP POP JUMP JUMPDEST DUP2 MLOAD PUSH1 0x1 PUSH1 0x1 PUSH1 0x40 SHL SUB DUP2 GT ISZERO PUSH2 0x2A5 JUMPI PUSH2 0x2A5 PUSH2 0xC2 JUMP JUMPDEST PUSH2 0x2B9 DUP2 PUSH2 0x2B3 DUP5 SLOAD PUSH2 0x208 JUMP JUMPDEST DUP5 PUSH2 0x240 JUMP JUMPDEST PUSH1 0x20 PUSH1 0x1F DUP3 GT PUSH1 0x1 DUP2 EQ PUSH2 0x2EB JUMPI PUSH0 DUP4 ISZERO PUSH2 0x2D4 JUMPI POP DUP5 DUP3 ADD MLOAD JUMPDEST PUSH0 NOT PUSH1 0x3 DUP6 SWAP1 SHL SHR NOT AND PUSH1 0x1 DUP5 SWAP1 SHL OR DUP5 SSTORE PUSH2 0x284 JUMP JUMPDEST PUSH0 DUP5 DUP2 MSTORE PUSH1 0x20 DUP2 KECCAK256 PUSH1 0x1F NOT DUP6 AND SWAP2 JUMPDEST DUP3 DUP2 LT ISZERO PUSH2 0x31A JUMPI DUP8 DUP6 ADD MLOAD DUP3 SSTORE PUSH1 0x20 SWAP5 DUP6 ADD SWAP5 PUSH1 0x1 SWAP1 SWAP3 ADD SWAP2 ADD PUSH2 0x2FA JUMP JUMPDEST POP DUP5 DUP3 LT ISZERO PUSH2 0x337 JUMPI DUP7 DUP5 ADD MLOAD PUSH0 NOT PUSH1 0x3 DUP8 SWAP1 SHL PUSH1 0xF8 AND SHR NOT AND DUP2 SSTORE JUMPDEST POP POP POP POP PUSH1 0x1 SWAP1 DUP2 SHL ADD SWAP1 SSTORE POP JUMP JUMPDEST PUSH2 0xBCA DUP1 PUSH2 0x353 PUSH0 CODECOPY PUSH0 RETURN INVALID PUSH1 0x80 PUSH1 0x40 MSTORE CALLVALUE DUP1 ISZERO PUSH2 0xF JUMPI PUSH0 DUP1 REVERT JUMPDEST POP PUSH1 0x4 CALLDATASIZE LT PUSH2 0x8C JUMPI PUSH0 CALLDATALOAD PUSH1 0xE0 SHR DUP1 PUSH4 0x16ADA547 EQ PUSH2 0x90 JUMPI DUP1 PUSH4 0x26C7B327 EQ PUSH2 0xAC JUMPI DUP1 PUSH4 0x4BA83374 EQ PUSH2 0xB5 JUMPI DUP1 PUSH4 0x5DA6EF8D EQ PUSH2 0xCD JUMPI DUP1 PUSH4 0x80F76021 EQ PUSH2 0xE2 JUMPI DUP1 PUSH4 0xA95264D0 EQ PUSH2 0xF7 JUMPI DUP1 PUSH4 0xB9DAF3E2 EQ PUSH2 0x10C JUMPI DUP1 PUSH4 0xBA379E86 EQ PUSH2 0x114 JUMPI DUP1 PUSH4 0xC47F0027 EQ PUSH2 0x129 JUMPI DUP1 PUSH4 0xDED92DAC EQ PUSH2 0x13C JUMPI JUMPDEST PUSH0 DUP1 REVERT JUMPDEST PUSH2 0x99 PUSH1 0x6 SLOAD DUP2 JUMP JUMPDEST PUSH1 0x40 MLOAD SWAP1 DUP2 MSTORE PUSH1 0x20 ADD JUMPDEST PUSH1 0x40 MLOAD DUP1 SWAP2 SUB SWAP1 RETURN JUMPDEST PUSH2 0x99 PUSH1 0x1 SLOAD DUP2 JUMP JUMPDEST PUSH2 0xBD PUSH2 0x14F JUMP JUMPDEST PUSH1 0x40 MLOAD SWAP1 ISZERO ISZERO DUP2 MSTORE PUSH1 0x20 ADD PUSH2 0xA3 JUMP JUMPDEST PUSH2 0xE0 PUSH2 0xDB CALLDATASIZE PUSH1 0x4 PUSH2 0x835 JUMP JUMPDEST PUSH2 0x1BB JUMP JUMPDEST STOP JUMPDEST PUSH2 0xEA PUSH2 0x301 JUMP JUMPDEST PUSH1 0x40 MLOAD PUSH2 0xA3 SWAP2 SWAP1 PUSH2 0x862 JUMP JUMPDEST PUSH2 0xFF PUSH2 0x352 JUMP JUMPDEST PUSH1 0x40 MLOAD PUSH2 0xA3 SWAP2 SWAP1 PUSH2 0x876 JUMP JUMPDEST PUSH2 0xBD PUSH2 0x3F2 JUMP JUMPDEST PUSH2 0x11C PUSH2 0x41C JUMP JUMPDEST PUSH1 0x40 MLOAD PUSH2 0xA3 SWAP2 SWAP1 PUSH2 0x8C1 JUMP JUMPDEST PUSH2 0xE0 PUSH2 0x137 CALLDATASIZE PUSH1 0x4 PUSH2 0x90A JUMP JUMPDEST PUSH2 0x570 JUMP JUMPDEST PUSH2 0xE0 PUSH2 0x14A CALLDATASIZE PUSH1 0x4 PUSH2 0x835 JUMP JUMPDEST PUSH2 0x5F5 JUMP JUMPDEST PUSH0 PUSH2 0x1B2 CALLER PUSH1 0x4 DUP1 SLOAD DUP1 PUSH1 0x20 MUL PUSH1 0x20 ADD PUSH1 0x40 MLOAD SWAP1 DUP2 ADD PUSH1 0x40 MSTORE DUP1 SWAP3 SWAP2 SWAP1 DUP2 DUP2 MSTORE PUSH1 0x20 ADD DUP3 DUP1 SLOAD DUP1 ISZERO PUSH2 0x1A8 JUMPI PUSH1 0x20 MUL DUP3 ADD SWAP2 SWAP1 PUSH0 MSTORE PUSH1 0x20 PUSH0 KECCAK256 SWAP1 JUMPDEST DUP2 SLOAD PUSH1 0x1 PUSH1 0x1 PUSH1 0xA0 SHL SUB AND DUP2 MSTORE PUSH1 0x1 SWAP1 SWAP2 ADD SWAP1 PUSH1 0x20 ADD DUP1 DUP4 GT PUSH2 0x18A JUMPI JUMPDEST POP POP POP POP POP PUSH2 0x6EB JUMP JUMPDEST PUSH0 NOT EQ ISZERO SWAP1 POP SWAP1 JUMP JUMPDEST PUSH1 0x2 SLOAD PUSH1 0x1 PUSH1 0x1 PUSH1 0xA0 SHL SUB AND CALLER EQ DUP1 PUSH2 0x1DE JUMPI POP PUSH1 0x3 SLOAD PUSH1 0x1 PUSH1 0x1 PUSH1 0xA0 SHL SUB AND CALLER EQ JUMPDEST PUSH2 0x203 JUMPI PUSH1 0x40 MLOAD PUSH3 0x461BCD PUSH1 0xE5 SHL DUP2 MSTORE PUSH1 0x4 ADD PUSH2 0x1FA SWAP1 PUSH2 0x9BA JUMP JUMPDEST PUSH1 0x40 MLOAD DUP1 SWAP2 SUB SWAP1 REVERT JUMPDEST PUSH1 0x2 SLOAD PUSH1 0x1 PUSH1 0x1 PUSH1 0xA0 SHL SUB DUP3 DUP2 AND SWAP2 AND EQ DUP1 ISZERO SWAP1 PUSH2 0x229 JUMPI POP PUSH1 0x1 PUSH1 0x1 PUSH1 0xA0 SHL SUB DUP2 AND ISZERO ISZERO JUMPDEST DUP1 ISZERO PUSH2 0x294 JUMPI POP PUSH2 0x290 DUP2 PUSH1 0x4 DUP1 SLOAD DUP1 PUSH1 0x20 MUL PUSH1 0x20 ADD PUSH1 0x40 MLOAD SWAP1 DUP2 ADD PUSH1 0x40 MSTORE DUP1 SWAP3 SWAP2 SWAP1 DUP2 DUP2 MSTORE PUSH1 0x20 ADD DUP3 DUP1 SLOAD DUP1 ISZERO PUSH2 0x1A8 JUMPI PUSH1 0x20 MUL DUP3 ADD SWAP2 SWAP1 PUSH0 MSTORE PUSH1 0x20 PUSH0 KECCAK256 SWAP1 DUP2 SLOAD PUSH1 0x1 PUSH1 0x1 PUSH1 0xA0 SHL SUB AND DUP2 MSTORE PUSH1 0x1 SWAP1 SWAP2 ADD SWAP1 PUSH1 0x20 ADD DUP1 DUP4 GT PUSH2 0x18A JUMPI POP POP POP POP POP PUSH2 0x6EB JUMP JUMPDEST PUSH0 NOT EQ JUMPDEST PUSH2 0x2B0 JUMPI PUSH1 0x40 MLOAD PUSH3 0x461BCD PUSH1 0xE5 SHL DUP2 MSTORE PUSH1 0x4 ADD PUSH2 0x1FA SWAP1 PUSH2 0x9BA JUMP JUMPDEST PUSH1 0x4 DUP1 SLOAD PUSH1 0x1 DUP2 ADD DUP3 SSTORE PUSH0 SWAP2 SWAP1 SWAP2 MSTORE PUSH32 0x8A35ACFBC15FF81A39AE7D344FD709F28E8600B4AA8C65C6B64BFE7FE36BD19B ADD DUP1 SLOAD PUSH1 0x1 PUSH1 0x1 PUSH1 0xA0 SHL SUB NOT AND PUSH1 0x1 PUSH1 0x1 PUSH1 0xA0 SHL SUB SWAP3 SWAP1 SWAP3 AND SWAP2 SWAP1 SWAP2 OR SWAP1 SSTORE JUMP JUMPDEST PUSH1 0x2 SLOAD PUSH0 SWAP1 PUSH1 0x1 PUSH1 0x1 PUSH1 0xA0 SHL SUB AND CALLER EQ DUP1 PUSH2 0x326 JUMPI POP PUSH1 0x3 SLOAD PUSH1 0x1 PUSH1 0x1 PUSH1 0xA0 SHL SUB AND CALLER EQ JUMPDEST PUSH2 0x342 JUMPI PUSH1 0x40 MLOAD PUSH3 0x461BCD PUSH1 0xE5 SHL DUP2 MSTORE PUSH1 0x4 ADD PUSH2 0x1FA SWAP1 PUSH2 0x9BA JUMP JUMPDEST POP PUSH1 0x3 SLOAD PUSH1 0x1 PUSH1 0x1 PUSH1 0xA0 SHL SUB AND SWAP1 JUMP JUMPDEST PUSH1 0x2 SLOAD PUSH1 0x60 SWAP1 PUSH1 0x1 PUSH1 0x1 PUSH1 0xA0 SHL SUB AND CALLER EQ DUP1 PUSH2 0x378 JUMPI POP PUSH1 0x3 SLOAD PUSH1 0x1 PUSH1 0x1 PUSH1 0xA0 SHL SUB AND CALLER EQ JUMPDEST PUSH2 0x394 JUMPI PUSH1 0x40 MLOAD PUSH3 0x461BCD PUSH1 0xE5 SHL DUP2 MSTORE PUSH1 0x4 ADD PUSH2 0x1FA SWAP1 PUSH2 0x9BA JUMP JUMPDEST PUSH1 0x4 DUP1 SLOAD DUP1 PUSH1 0x20 MUL PUSH1 0x20 ADD PUSH1 0x40 MLOAD SWAP1 DUP2 ADD PUSH1 0x40 MSTORE DUP1 SWAP3 SWAP2 SWAP1 DUP2 DUP2 MSTORE PUSH1 0x20 ADD DUP3 DUP1 SLOAD DUP1 ISZERO PUSH2 0x3E8 JUMPI PUSH1 0x20 MUL DUP3 ADD SWAP2 SWAP1 PUSH0 MSTORE PUSH1 0x20 PUSH0 KECCAK256 SWAP1 JUMPDEST DUP2 SLOAD PUSH1 0x1 PUSH1 0x1 PUSH1 0xA0 SHL SUB AND DUP2 MSTORE PUSH1 0x1 SWAP1 SWAP2 ADD SWAP1 PUSH1 0x20 ADD DUP1 DUP4 GT PUSH2 0x3CA JUMPI JUMPDEST POP POP POP POP POP SWAP1 POP SWAP1 JUMP JUMPDEST PUSH1 0x2 SLOAD PUSH0 SWAP1 PUSH1 0x1 PUSH1 0x1 PUSH1 0xA0 SHL SUB AND CALLER EQ DUP1 PUSH2 0x417 JUMPI POP PUSH1 0x3 SLOAD PUSH1 0x1 PUSH1 0x1 PUSH1 0xA0 SHL SUB AND CALLER EQ JUMPDEST SWAP1 POP SWAP1 JUMP JUMPDEST PUSH1 0x2 SLOAD PUSH1 0x60 SWAP1 PUSH1 0x1 PUSH1 0x1 PUSH1 0xA0 SHL SUB AND CALLER EQ DUP1 PUSH2 0x498 JUMPI POP PUSH2 0x493 CALLER PUSH1 0x4 DUP1 SLOAD DUP1 PUSH1 0x20 MUL PUSH1 0x20 ADD PUSH1 0x40 MLOAD SWAP1 DUP2 ADD PUSH1 0x40 MSTORE DUP1 SWAP3 SWAP2 SWAP1 DUP2 DUP2 MSTORE PUSH1 0x20 ADD DUP3 DUP1 SLOAD DUP1 ISZERO PUSH2 0x1A8 JUMPI PUSH1 0x20 MUL DUP3 ADD SWAP2 SWAP1 PUSH0 MSTORE PUSH1 0x20 PUSH0 KECCAK256 SWAP1 DUP2 SLOAD PUSH1 0x1 PUSH1 0x1 PUSH1 0xA0 SHL SUB AND DUP2 MSTORE PUSH1 0x1 SWAP1 SWAP2 ADD SWAP1 PUSH1 0x20 ADD DUP1 DUP4 GT PUSH2 0x18A JUMPI POP POP POP POP POP PUSH2 0x6EB JUMP JUMPDEST PUSH0 NOT EQ ISZERO JUMPDEST PUSH2 0x4B4 JUMPI PUSH1 0x40 MLOAD PUSH3 0x461BCD PUSH1 0xE5 SHL DUP2 MSTORE PUSH1 0x4 ADD PUSH2 0x1FA SWAP1 PUSH2 0x9BA JUMP JUMPDEST TIMESTAMP PUSH1 0x6 SLOAD LT PUSH2 0x4EB JUMPI PUSH1 0x40 MLOAD PUSH3 0x461BCD PUSH1 0xE5 SHL DUP2 MSTORE PUSH1 0x20 PUSH1 0x4 DUP3 ADD MSTORE PUSH1 0x3 PUSH1 0x24 DUP3 ADD MSTORE PUSH3 0x343235 PUSH1 0xE8 SHL PUSH1 0x44 DUP3 ADD MSTORE PUSH1 0x64 ADD PUSH2 0x1FA JUMP JUMPDEST PUSH1 0x5 DUP1 SLOAD PUSH2 0x4F8 SWAP1 PUSH2 0x9D7 JUMP JUMPDEST DUP1 PUSH1 0x1F ADD PUSH1 0x20 DUP1 SWAP2 DIV MUL PUSH1 0x20 ADD PUSH1 0x40 MLOAD SWAP1 DUP2 ADD PUSH1 0x40 MSTORE DUP1 SWAP3 SWAP2 SWAP1 DUP2 DUP2 MSTORE PUSH1 0x20 ADD DUP3 DUP1 SLOAD PUSH2 0x524 SWAP1 PUSH2 0x9D7 JUMP JUMPDEST DUP1 ISZERO PUSH2 0x3E8 JUMPI DUP1 PUSH1 0x1F LT PUSH2 0x546 JUMPI PUSH2 0x100 DUP1 DUP4 SLOAD DIV MUL DUP4 MSTORE SWAP2 PUSH1 0x20 ADD SWAP2 PUSH2 0x3E8 JUMP JUMPDEST DUP3 ADD SWAP2 SWAP1 PUSH0 MSTORE PUSH1 0x20 PUSH0 KECCAK256 SWAP1 JUMPDEST DUP2 SLOAD DUP2 MSTORE SWAP1 PUSH1 0x1 ADD SWAP1 PUSH1 0x20 ADD DUP1 DUP4 GT PUSH2 0x552 JUMPI POP SWAP4 SWAP6 SWAP5 POP POP POP POP POP JUMP JUMPDEST PUSH1 0x2 SLOAD PUSH1 0x1 PUSH1 0x1 PUSH1 0xA0 SHL SUB AND CALLER EQ DUP1 PUSH2 0x593 JUMPI POP PUSH1 0x3 SLOAD PUSH1 0x1 PUSH1 0x1 PUSH1 0xA0 SHL SUB AND CALLER EQ JUMPDEST PUSH2 0x5AF JUMPI PUSH1 0x40 MLOAD PUSH3 0x461BCD PUSH1 0xE5 SHL DUP2 MSTORE PUSH1 0x4 ADD PUSH2 0x1FA SWAP1 PUSH2 0x9BA JUMP JUMPDEST PUSH0 PUSH2 0x5BA DUP3 DUP3 PUSH2 0xA5B JUMP JUMPDEST POP PUSH32 0xE00DA2178806F37F69815E9ED5ED3072EC1D55206D60916D99B469C7DAA421E4 CALLER PUSH1 0x40 MLOAD PUSH2 0x5EA SWAP2 SWAP1 PUSH2 0x862 JUMP JUMPDEST PUSH1 0x40 MLOAD DUP1 SWAP2 SUB SWAP1 LOG1 POP JUMP JUMPDEST PUSH1 0x1 PUSH1 0x1 PUSH1 0xA0 SHL SUB DUP2 AND ISZERO ISZERO DUP1 PUSH2 0x63D JUMPI POP PUSH1 0x3 SLOAD PUSH1 0x1 PUSH1 0x1 PUSH1 0xA0 SHL SUB AND CALLER EQ DUP1 PUSH2 0x62A JUMPI POP PUSH1 0x2 SLOAD PUSH1 0x1 PUSH1 0x1 PUSH1 0xA0 SHL SUB AND CALLER EQ JUMPDEST DUP1 PUSH2 0x63D JUMPI POP CALLER PUSH1 0x1 PUSH1 0x1 PUSH1 0xA0 SHL SUB DUP3 AND EQ JUMPDEST PUSH2 0x659 JUMPI PUSH1 0x40 MLOAD PUSH3 0x461BCD PUSH1 0xE5 SHL DUP2 MSTORE PUSH1 0x4 ADD PUSH2 0x1FA SWAP1 PUSH2 0x9BA JUMP JUMPDEST PUSH0 PUSH2 0x6BA DUP3 PUSH1 0x4 DUP1 SLOAD DUP1 PUSH1 0x20 MUL PUSH1 0x20 ADD PUSH1 0x40 MLOAD SWAP1 DUP2 ADD PUSH1 0x40 MSTORE DUP1 SWAP3 SWAP2 SWAP1 DUP2 DUP2 MSTORE PUSH1 0x20 ADD DUP3 DUP1 SLOAD DUP1 ISZERO PUSH2 0x1A8 JUMPI PUSH1 0x20 MUL DUP3 ADD SWAP2 SWAP1 PUSH0 MSTORE PUSH1 0x20 PUSH0 KECCAK256 SWAP1 DUP2 SLOAD PUSH1 0x1 PUSH1 0x1 PUSH1 0xA0 SHL SUB AND DUP2 MSTORE PUSH1 0x1 SWAP1 SWAP2 ADD SWAP1 PUSH1 0x20 ADD DUP1 DUP4 GT PUSH2 0x18A JUMPI POP POP POP POP POP PUSH2 0x6EB JUMP JUMPDEST SWAP1 POP PUSH0 NOT DUP2 SGT PUSH2 0x6DC JUMPI PUSH1 0x40 MLOAD PUSH3 0x461BCD PUSH1 0xE5 SHL DUP2 MSTORE PUSH1 0x4 ADD PUSH2 0x1FA SWAP1 PUSH2 0xB15 JUMP JUMPDEST PUSH2 0x6E7 DUP2 PUSH1 0x4 PUSH2 0x744 JUMP JUMPDEST POP POP JUMP JUMPDEST PUSH0 DUP1 JUMPDEST DUP3 MLOAD DUP2 LT ISZERO PUSH2 0x738 JUMPI DUP4 PUSH1 0x1 PUSH1 0x1 PUSH1 0xA0 SHL SUB AND DUP4 DUP3 DUP2 MLOAD DUP2 LT PUSH2 0x713 JUMPI PUSH2 0x713 PUSH2 0xB32 JUMP JUMPDEST PUSH1 0x20 MUL PUSH1 0x20 ADD ADD MLOAD PUSH1 0x1 PUSH1 0x1 PUSH1 0xA0 SHL SUB AND SUB PUSH2 0x730 JUMPI SWAP1 POP PUSH2 0x73E JUMP JUMPDEST PUSH1 0x1 ADD PUSH2 0x6EE JUMP JUMPDEST POP PUSH0 NOT SWAP1 POP JUMPDEST SWAP3 SWAP2 POP POP JUMP JUMPDEST PUSH0 DUP3 SLT ISZERO DUP1 ISZERO PUSH2 0x754 JUMPI POP DUP1 SLOAD DUP3 LT JUMPDEST PUSH2 0x770 JUMPI PUSH1 0x40 MLOAD PUSH3 0x461BCD PUSH1 0xE5 SHL DUP2 MSTORE PUSH1 0x4 ADD PUSH2 0x1FA SWAP1 PUSH2 0xB15 JUMP JUMPDEST DUP2 JUMPDEST DUP2 SLOAD PUSH2 0x780 SWAP1 PUSH1 0x1 SWAP1 PUSH2 0xB5A JUMP JUMPDEST DUP2 LT ISZERO PUSH2 0x800 JUMPI DUP2 PUSH2 0x793 DUP3 PUSH1 0x1 PUSH2 0xB6D JUMP JUMPDEST DUP2 SLOAD DUP2 LT PUSH2 0x7A3 JUMPI PUSH2 0x7A3 PUSH2 0xB32 JUMP JUMPDEST SWAP1 PUSH0 MSTORE PUSH1 0x20 PUSH0 KECCAK256 ADD PUSH0 SWAP1 SLOAD SWAP1 PUSH2 0x100 EXP SWAP1 DIV PUSH1 0x1 PUSH1 0x1 PUSH1 0xA0 SHL SUB AND DUP3 DUP3 DUP2 SLOAD DUP2 LT PUSH2 0x7D0 JUMPI PUSH2 0x7D0 PUSH2 0xB32 JUMP JUMPDEST PUSH0 SWAP2 DUP3 MSTORE PUSH1 0x20 SWAP1 SWAP2 KECCAK256 ADD DUP1 SLOAD PUSH1 0x1 PUSH1 0x1 PUSH1 0xA0 SHL SUB NOT AND PUSH1 0x1 PUSH1 0x1 PUSH1 0xA0 SHL SUB SWAP3 SWAP1 SWAP3 AND SWAP2 SWAP1 SWAP2 OR SWAP1 SSTORE PUSH1 0x1 ADD PUSH2 0x772 JUMP JUMPDEST POP DUP1 DUP1 SLOAD DUP1 PUSH2 0x811 JUMPI PUSH2 0x811 PUSH2 0xB80 JUMP JUMPDEST PUSH0 DUP3 DUP2 MSTORE PUSH1 0x20 SWAP1 KECCAK256 DUP2 ADD PUSH0 NOT SWAP1 DUP2 ADD DUP1 SLOAD PUSH1 0x1 PUSH1 0x1 PUSH1 0xA0 SHL SUB NOT AND SWAP1 SSTORE ADD SWAP1 SSTORE POP POP JUMP JUMPDEST PUSH0 PUSH1 0x20 DUP3 DUP5 SUB SLT ISZERO PUSH2 0x845 JUMPI PUSH0 DUP1 REVERT JUMPDEST DUP2 CALLDATALOAD PUSH1 0x1 PUSH1 0x1 PUSH1 0xA0 SHL SUB DUP2 AND DUP2 EQ PUSH2 0x85B JUMPI PUSH0 DUP1 REVERT JUMPDEST SWAP4 SWAP3 POP POP POP JUMP JUMPDEST PUSH1 0x1 PUSH1 0x1 PUSH1 0xA0 SHL SUB SWAP2 SWAP1 SWAP2 AND DUP2 MSTORE PUSH1 0x20 ADD SWAP1 JUMP JUMPDEST PUSH1 0x20 DUP1 DUP3 MSTORE DUP3 MLOAD DUP3 DUP3 ADD DUP2 SWAP1 MSTORE PUSH0 SWAP2 DUP5 ADD SWAP1 PUSH1 0x40 DUP5 ADD SWAP1 DUP4 JUMPDEST DUP2 DUP2 LT ISZERO PUSH2 0x8B6 JUMPI DUP4 MLOAD PUSH1 0x1 PUSH1 0x1 PUSH1 0xA0 SHL SUB AND DUP4 MSTORE PUSH1 0x20 SWAP4 DUP5 ADD SWAP4 SWAP1 SWAP3 ADD SWAP2 PUSH1 0x1 ADD PUSH2 0x88F JUMP JUMPDEST POP SWAP1 SWAP6 SWAP5 POP POP POP POP POP JUMP JUMPDEST PUSH1 0x20 DUP2 MSTORE PUSH0 DUP3 MLOAD DUP1 PUSH1 0x20 DUP5 ADD MSTORE DUP1 PUSH1 0x20 DUP6 ADD PUSH1 0x40 DUP6 ADD MCOPY PUSH0 PUSH1 0x40 DUP3 DUP6 ADD ADD MSTORE PUSH1 0x40 PUSH1 0x1F NOT PUSH1 0x1F DUP4 ADD AND DUP5 ADD ADD SWAP2 POP POP SWAP3 SWAP2 POP POP JUMP JUMPDEST PUSH4 0x4E487B71 PUSH1 0xE0 SHL PUSH0 MSTORE PUSH1 0x41 PUSH1 0x4 MSTORE PUSH1 0x24 PUSH0 REVERT JUMPDEST PUSH0 PUSH1 0x20 DUP3 DUP5 SUB SLT ISZERO PUSH2 0x91A JUMPI PUSH0 DUP1 REVERT JUMPDEST DUP2 CALLDATALOAD PUSH1 0x1 PUSH1 0x1 PUSH1 0x40 SHL SUB DUP2 GT ISZERO PUSH2 0x92F JUMPI PUSH0 DUP1 REVERT JUMPDEST DUP3 ADD PUSH1 0x1F DUP2 ADD DUP5 SGT PUSH2 0x93F JUMPI PUSH0 DUP1 REVERT JUMPDEST DUP1 CALLDATALOAD PUSH1 0x1 PUSH1 0x1 PUSH1 0x40 SHL SUB DUP2 GT ISZERO PUSH2 0x958 JUMPI PUSH2 0x958 PUSH2 0x8F6 JUMP JUMPDEST PUSH1 0x40 MLOAD PUSH1 0x1F DUP3 ADD PUSH1 0x1F NOT SWAP1 DUP2 AND PUSH1 0x3F ADD AND DUP2 ADD PUSH1 0x1 PUSH1 0x1 PUSH1 0x40 SHL SUB DUP2 GT DUP3 DUP3 LT OR ISZERO PUSH2 0x986 JUMPI PUSH2 0x986 PUSH2 0x8F6 JUMP JUMPDEST PUSH1 0x40 MSTORE DUP2 DUP2 MSTORE DUP3 DUP3 ADD PUSH1 0x20 ADD DUP7 LT ISZERO PUSH2 0x99D JUMPI PUSH0 DUP1 REVERT JUMPDEST DUP2 PUSH1 0x20 DUP5 ADD PUSH1 0x20 DUP4 ADD CALLDATACOPY PUSH0 SWAP2 DUP2 ADD PUSH1 0x20 ADD SWAP2 SWAP1 SWAP2 MSTORE SWAP5 SWAP4 POP POP POP POP JUMP JUMPDEST PUSH1 0x20 DUP1 DUP3 MSTORE PUSH1 0x3 SWAP1 DUP3 ADD MSTORE PUSH3 0x343033 PUSH1 0xE8 SHL PUSH1 0x40 DUP3 ADD MSTORE PUSH1 0x60 ADD SWAP1 JUMP JUMPDEST PUSH1 0x1 DUP2 DUP2 SHR SWAP1 DUP3 AND DUP1 PUSH2 0x9EB JUMPI PUSH1 0x7F DUP3 AND SWAP2 POP JUMPDEST PUSH1 0x20 DUP3 LT DUP2 SUB PUSH2 0xA09 JUMPI PUSH4 0x4E487B71 PUSH1 0xE0 SHL PUSH0 MSTORE PUSH1 0x22 PUSH1 0x4 MSTORE PUSH1 0x24 PUSH0 REVERT JUMPDEST POP SWAP2 SWAP1 POP JUMP JUMPDEST PUSH1 0x1F DUP3 GT ISZERO PUSH2 0xA56 JUMPI DUP1 PUSH0 MSTORE PUSH1 0x20 PUSH0 KECCAK256 PUSH1 0x1F DUP5 ADD PUSH1 0x5 SHR DUP2 ADD PUSH1 0x20 DUP6 LT ISZERO PUSH2 0xA34 JUMPI POP DUP1 JUMPDEST PUSH1 0x1F DUP5 ADD PUSH1 0x5 SHR DUP3 ADD SWAP2 POP JUMPDEST DUP2 DUP2 LT ISZERO PUSH2 0xA53 JUMPI PUSH0 DUP2 SSTORE PUSH1 0x1 ADD PUSH2 0xA40 JUMP JUMPDEST POP POP JUMPDEST POP POP POP JUMP JUMPDEST DUP2 MLOAD PUSH1 0x1 PUSH1 0x1 PUSH1 0x40 SHL SUB DUP2 GT ISZERO PUSH2 0xA74 JUMPI PUSH2 0xA74 PUSH2 0x8F6 JUMP JUMPDEST PUSH2 0xA88 DUP2 PUSH2 0xA82 DUP5 SLOAD PUSH2 0x9D7 JUMP JUMPDEST DUP5 PUSH2 0xA0F JUMP JUMPDEST PUSH1 0x20 PUSH1 0x1F DUP3 GT PUSH1 0x1 DUP2 EQ PUSH2 0xABA JUMPI PUSH0 DUP4 ISZERO PUSH2 0xAA3 JUMPI POP DUP5 DUP3 ADD MLOAD JUMPDEST PUSH0 NOT PUSH1 0x3 DUP6 SWAP1 SHL SHR NOT AND PUSH1 0x1 DUP5 SWAP1 SHL OR DUP5 SSTORE PUSH2 0xA53 JUMP JUMPDEST PUSH0 DUP5 DUP2 MSTORE PUSH1 0x20 DUP2 KECCAK256 PUSH1 0x1F NOT DUP6 AND SWAP2 JUMPDEST DUP3 DUP2 LT ISZERO PUSH2 0xAE9 JUMPI DUP8 DUP6 ADD MLOAD DUP3 SSTORE PUSH1 0x20 SWAP5 DUP6 ADD SWAP5 PUSH1 0x1 SWAP1 SWAP3 ADD SWAP2 ADD PUSH2 0xAC9 JUMP JUMPDEST POP DUP5 DUP3 LT ISZERO PUSH2 0xB06 JUMPI DUP7 DUP5 ADD MLOAD PUSH0 NOT PUSH1 0x3 DUP8 SWAP1 SHL PUSH1 0xF8 AND SHR NOT AND DUP2 SSTORE JUMPDEST POP POP POP POP PUSH1 0x1 SWAP1 DUP2 SHL ADD SWAP1 SSTORE POP JUMP JUMPDEST PUSH1 0x20 DUP1 DUP3 MSTORE PUSH1 0x3 SWAP1 DUP3 ADD MSTORE PUSH3 0xD0C0D PUSH1 0xEA SHL PUSH1 0x40 DUP3 ADD MSTORE PUSH1 0x60 ADD SWAP1 JUMP JUMPDEST PUSH4 0x4E487B71 PUSH1 0xE0 SHL PUSH0 MSTORE PUSH1 0x32 PUSH1 0x4 MSTORE PUSH1 0x24 PUSH0 REVERT JUMPDEST PUSH4 0x4E487B71 PUSH1 0xE0 SHL PUSH0 MSTORE PUSH1 0x11 PUSH1 0x4 MSTORE PUSH1 0x24 PUSH0 REVERT JUMPDEST DUP2 DUP2 SUB DUP2 DUP2 GT ISZERO PUSH2 0x73E JUMPI PUSH2 0x73E PUSH2 0xB46 JUMP JUMPDEST DUP1 DUP3 ADD DUP1 DUP3 GT ISZERO PUSH2 0x73E JUMPI PUSH2 0x73E PUSH2 0xB46 JUMP JUMPDEST PUSH4 0x4E487B71 PUSH1 0xE0 SHL PUSH0 MSTORE PUSH1 0x31 PUSH1 0x4 MSTORE PUSH1 0x24 PUSH0 REVERT INVALID LOG2 PUSH5 0x6970667358 0x22 SLT KECCAK256 PUSH32 0xCCC497E64626B21720CC73B0BB28BABAFF151213D0C89CB82C1740B00E5BF664 PUSH20 0x6F6C634300081A00330000000000000000000000 "
				},
				"gasEstimates": {
					"creation": {
						"codeDepositCost": "603600",
						"executionCost": "infinite",
						"totalCost": "infinite"
					},
					"external": {
						"expose()": "infinite",
						"getParent()": "6727",
						"getSharedWith()": "infinite",
						"isOwn()": "4600",
						"isSharedWith()": "infinite",
						"item_type()": "2283",
						"restictFrom(address)": "infinite",
						"setName(string)": "infinite",
						"shareWith(address)": "infinite",
						"time()": "2261"
					}
				},
				"methodIdentifiers": {
					"expose()": "ba379e86",
					"getParent()": "80f76021",
					"getSharedWith()": "a95264d0",
					"isOwn()": "b9daf3e2",
					"isSharedWith()": "4ba83374",
					"item_type()": "26c7b327",
					"restictFrom(address)": "ded92dac",
					"setName(string)": "c47f0027",
					"shareWith(address)": "5da6ef8d",
					"time()": "16ada547"
				}
			},
			"storageLayout": {
				"storage": [
					{
						"astId": 90,
						"contract": "Items/TimeCapsule.sol:TimeCapsule",
						"label": "name",
						"offset": 0,
						"slot": "0",
						"type": "t_string_storage"
					},
					{
						"astId": 92,
						"contract": "Items/TimeCapsule.sol:TimeCapsule",
						"label": "item_type",
						"offset": 0,
						"slot": "1",
						"type": "t_uint256"
					},
					{
						"astId": 94,
						"contract": "Items/TimeCapsule.sol:TimeCapsule",
						"label": "owner",
						"offset": 0,
						"slot": "2",
						"type": "t_address"
					},
					{
						"astId": 96,
						"contract": "Items/TimeCapsule.sol:TimeCapsule",
						"label": "parent",
						"offset": 0,
						"slot": "3",
						"type": "t_address"
					},
					{
						"astId": 99,
						"contract": "Items/TimeCapsule.sol:TimeCapsule",
						"label": "sharedWith",
						"offset": 0,
						"slot": "4",
						"type": "t_array(t_address)dyn_storage"
					},
					{
						"astId": 28,
						"contract": "Items/TimeCapsule.sol:TimeCapsule",
						"label": "text",
						"offset": 0,
						"slot": "5",
						"type": "t_string_storage"
					},
					{
						"astId": 30,
						"contract": "Items/TimeCapsule.sol:TimeCapsule",
						"label": "time",
						"offset": 0,
						"slot": "6",
						"type": "t_uint256"
					}
				],
				"types": {
					"t_address": {
						"encoding": "inplace",
						"label": "address",
						"numberOfBytes": "20"
					},
					"t_array(t_address)dyn_storage": {
						"base": "t_address",
						"encoding": "dynamic_array",
						"label": "address[]",
						"numberOfBytes": "32"
					},
					"t_string_storage": {
						"encoding": "bytes",
						"label": "string",
						"numberOfBytes": "32"
					},
					"t_uint256": {
						"encoding": "inplace",
						"label": "uint256",
						"numberOfBytes": "32"
					}
				}
			},
			"userdoc": {
				"kind": "user",
				"methods": {},
				"version": 1
			}
		}
	}
}