{
	"Items/LoyalityCard.sol": {
		"LoyalityCard": {
			"abi": [
				{
					"inputs": [
						{
							"internalType": "string",
							"name": "_name",
							"type": "string"
						},
						{
							"internalType": "string",
							"name": "_card_id",
							"type": "string"
						},
						{
							"internalType": "address",
							"name": "_owner",
							"type": "address"
						},
						{
							"internalType": "address",
							"name": "_parent",
							"type": "address"
						}
					],
					"stateMutability": "nonpayable",
					"type": "constructor"
				},
				{
					"anonymous": false,
					"inputs": [
						{
							"indexed": false,
							"internalType": "address",
							"name": "",
							"type": "address"
						}
					],
					"name": "AddedToOrganisation",
					"type": "event"
				},
				{
					"anonymous": false,
					"inputs": [
						{
							"indexed": false,
							"internalType": "address",
							"name": "",
							"type": "address"
						}
					],
					"name": "Created",
					"type": "event"
				},
				{
					"anonymous": false,
					"inputs": [
						{
							"indexed": false,
							"internalType": "address",
							"name": "",
							"type": "address"
						}
					],
					"name": "RemovedFromOrganisation",
					"type": "event"
				},
				{
					"anonymous": false,
					"inputs": [
						{
							"indexed": false,
							"internalType": "address",
							"name": "",
							"type": "address"
						}
					],
					"name": "Updated",
					"type": "event"
				},
				{
					"inputs": [],
					"name": "expose",
					"outputs": [
						{
							"internalType": "string",
							"name": "",
							"type": "string"
						},
						{
							"internalType": "string",
							"name": "",
							"type": "string"
						}
					],
					"stateMutability": "view",
					"type": "function"
				},
				{
					"inputs": [],
					"name": "getItemType",
					"outputs": [
						{
							"internalType": "enum Constants.ItemType",
							"name": "",
							"type": "uint8"
						}
					],
					"stateMutability": "view",
					"type": "function"
				},
				{
					"inputs": [],
					"name": "getParent",
					"outputs": [
						{
							"internalType": "address",
							"name": "",
							"type": "address"
						}
					],
					"stateMutability": "view",
					"type": "function"
				},
				{
					"inputs": [],
					"name": "getSharedWith",
					"outputs": [
						{
							"internalType": "address[]",
							"name": "",
							"type": "address[]"
						}
					],
					"stateMutability": "view",
					"type": "function"
				},
				{
					"inputs": [],
					"name": "isOwn",
					"outputs": [
						{
							"internalType": "bool",
							"name": "",
							"type": "bool"
						}
					],
					"stateMutability": "view",
					"type": "function"
				},
				{
					"inputs": [],
					"name": "isSharedWith",
					"outputs": [
						{
							"internalType": "bool",
							"name": "",
							"type": "bool"
						}
					],
					"stateMutability": "view",
					"type": "function"
				},
				{
					"inputs": [
						{
							"internalType": "address",
							"name": "_f",
							"type": "address"
						}
					],
					"name": "restictFrom",
					"outputs": [],
					"stateMutability": "nonpayable",
					"type": "function"
				},
				{
					"inputs": [
						{
							"internalType": "string",
							"name": "_c_id",
							"type": "string"
						}
					],
					"name": "setCardId",
					"outputs": [],
					"stateMutability": "nonpayable",
					"type": "function"
				},
				{
					"inputs": [
						{
							"internalType": "string",
							"name": "_n",
							"type": "string"
						},
						{
							"internalType": "string",
							"name": "_c_id",
							"type": "string"
						}
					],
					"name": "setItem",
					"outputs": [],
					"stateMutability": "nonpayable",
					"type": "function"
				},
				{
					"inputs": [
						{
							"internalType": "string",
							"name": "_n",
							"type": "string"
						}
					],
					"name": "setName",
					"outputs": [],
					"stateMutability": "nonpayable",
					"type": "function"
				},
				{
					"inputs": [
						{
							"internalType": "address",
							"name": "_p",
							"type": "address"
						}
					],
					"name": "setParent",
					"outputs": [],
					"stateMutability": "nonpayable",
					"type": "function"
				},
				{
					"inputs": [
						{
							"internalType": "address",
							"name": "_w",
							"type": "address"
						}
					],
					"name": "shareWith",
					"outputs": [],
					"stateMutability": "nonpayable",
					"type": "function"
				}
			],
			"devdoc": {
				"kind": "dev",
				"methods": {},
				"version": 1
			},
			"evm": {
				"assembly": "    /* \"Items/LoyalityCard.sol\":137:1039  contract LoyalityCard is VaultItem{... */\n  mstore(0x40, 0x80)\n    /* \"Items/LoyalityCard.sol\":203:581  constructor(... */\n  callvalue\n  dup1\n  iszero\n  tag_1\n  jumpi\n  0x00\n  dup1\n  revert\ntag_1:\n  pop\n  mload(0x40)\n  sub(codesize, bytecodeSize)\n  dup1\n  bytecodeSize\n  dup4\n  codecopy\n  dup2\n  add\n  0x40\n  dup2\n  swap1\n  mstore\n  tag_2\n  swap2\n  tag_3\n  jump\t// in\ntag_2:\n    /* \"Items/LoyalityCard.sol\":357:362  _name */\n  dup4\n    /* \"Items/LoyalityCard.sol\":373:405  Constants.ItemType.LOYALITY_CARD */\n  0x00\n    /* \"Items/LoyalityCard.sol\":416:422  _owner */\n  dup4\n    /* \"Items/LoyalityCard.sol\":433:440  _parent */\n  dup4\n    /* \"Items/LoyalityCard.sol\":373:405  Constants.ItemType.LOYALITY_CARD */\n  dup3\n    /* \"Items/VaultItem.sol\":738:747  name = _n */\n  tag_7\n    /* \"Items/LoyalityCard.sol\":357:362  _name */\n  dup6\n    /* \"Items/LoyalityCard.sol\":373:405  Constants.ItemType.LOYALITY_CARD */\n  dup3\n    /* \"Items/VaultItem.sol\":738:747  name = _n */\n  tag_8\n  jump\t// in\ntag_7:\n  pop\n    /* \"Items/VaultItem.sol\":758:767  item_type */\n  0x01\n    /* \"Items/VaultItem.sol\":758:780  item_type = _item_type */\n  dup1\n  sload\n    /* \"Items/VaultItem.sol\":770:780  _item_type */\n  dup5\n  swap2\n    /* \"Items/VaultItem.sol\":758:767  item_type */\n  swap1\n  not(0xff)\n    /* \"Items/VaultItem.sol\":758:780  item_type = _item_type */\n  and\n    /* \"Items/VaultItem.sol\":758:767  item_type */\n  dup2\n    /* \"Items/VaultItem.sol\":770:780  _item_type */\n  dup4\n    /* \"Items/VaultItem.sol\":758:780  item_type = _item_type */\n  0x02\n  dup2\n  gt\n  iszero\n  tag_10\n  jumpi\n  tag_10\n  tag_11\n  jump\t// in\ntag_10:\n  mul\n  or\n  swap1\n  sstore\n  pop\n    /* \"Items/VaultItem.sol\":793:798  owner */\n  0x01\n    /* \"Items/VaultItem.sol\":793:803  owner = _o */\n  dup1\n  sload\n  not(sub(shl(0xa8, 0x01), 0x0100))\n  and\n  0x0100\n  sub(shl(0xa0, 0x01), 0x01)\n  swap5\n  dup6\n  and\n  mul\n  or\n  swap1\n  sstore\n    /* \"Items/VaultItem.sol\":814:820  parent */\n  0x02\n    /* \"Items/VaultItem.sol\":814:825  parent = _p */\n  dup1\n  sload\n  not(sub(shl(0xa0, 0x01), 0x01))\n  and\n  swap2\n  swap1\n  swap3\n  and\n  or\n  swap1\n  sstore\n  pop\n    /* \"Items/LoyalityCard.sol\":460:467  card_id */\n  0x04\n  swap1\n  pop\n    /* \"Items/LoyalityCard.sol\":460:478  card_id = _card_id */\n  tag_13\n    /* \"Items/LoyalityCard.sol\":470:478  _card_id */\n  dup5\n    /* \"Items/LoyalityCard.sol\":460:467  card_id */\n  dup3\n    /* \"Items/LoyalityCard.sol\":460:478  card_id = _card_id */\n  tag_8\n  jump\t// in\ntag_13:\n  pop\n    /* \"Items/LoyalityCard.sol\":495:500  owner */\n  0x01\n    /* \"Items/LoyalityCard.sol\":495:509  owner = _owner */\n  dup1\n  sload\n  not(sub(shl(0xa8, 0x01), 0x0100))\n  and\n  0x0100\n  sub(shl(0xa0, 0x01), 0x01)\n  dup6\n  dup2\n  and\n  swap2\n  swap1\n  swap2\n  mul\n  swap2\n  swap1\n  swap2\n  or\n  swap1\n  swap2\n  sstore\n    /* \"Items/LoyalityCard.sol\":520:526  parent */\n  0x02\n    /* \"Items/LoyalityCard.sol\":520:536  parent = _parent */\n  dup1\n  sload\n  not(sub(shl(0xa0, 0x01), 0x01))\n  and\n  swap2\n  dup4\n  and\n  swap2\n  swap1\n  swap2\n  or\n  swap1\n  sstore\n    /* \"Items/LoyalityCard.sol\":554:573  Created(msg.sender) */\n  mload(0x40)\n    /* \"Items/LoyalityCard.sol\":562:572  msg.sender */\n  caller\n    /* \"#utility.yul\":4576:4627   */\n  dup2\n  mstore\n    /* \"Items/LoyalityCard.sol\":554:573  Created(msg.sender) */\n  0x1449abf21e49fd025f33495e77f7b1461caefdd3d4bb646424a3f445c4576a5b\n  swap1\n    /* \"#utility.yul\":4564:4566   */\n  0x20\n    /* \"#utility.yul\":4549:4567   */\n  add\n    /* \"Items/LoyalityCard.sol\":554:573  Created(msg.sender) */\n  mload(0x40)\n  dup1\n  swap2\n  sub\n  swap1\n  log1\n    /* \"Items/LoyalityCard.sol\":203:581  constructor(... */\n  pop\n  pop\n  pop\n  pop\n    /* \"Items/LoyalityCard.sol\":137:1039  contract LoyalityCard is VaultItem{... */\n  jump(tag_24)\n    /* \"#utility.yul\":14:141   */\ntag_17:\n    /* \"#utility.yul\":75:85   */\n  0x4e487b71\n    /* \"#utility.yul\":70:73   */\n  0xe0\n    /* \"#utility.yul\":66:86   */\n  shl\n    /* \"#utility.yul\":63:64   */\n  0x00\n    /* \"#utility.yul\":56:87   */\n  mstore\n    /* \"#utility.yul\":106:110   */\n  0x41\n    /* \"#utility.yul\":103:104   */\n  0x04\n    /* \"#utility.yul\":96:111   */\n  mstore\n    /* \"#utility.yul\":130:134   */\n  0x24\n    /* \"#utility.yul\":127:128   */\n  0x00\n    /* \"#utility.yul\":120:135   */\n  revert\n    /* \"#utility.yul\":146:869   */\ntag_18:\n    /* \"#utility.yul\":200:205   */\n  0x00\n    /* \"#utility.yul\":253:256   */\n  dup3\n    /* \"#utility.yul\":246:250   */\n  0x1f\n    /* \"#utility.yul\":238:244   */\n  dup4\n    /* \"#utility.yul\":234:251   */\n  add\n    /* \"#utility.yul\":230:257   */\n  slt\n    /* \"#utility.yul\":220:275   */\n  tag_27\n  jumpi\n    /* \"#utility.yul\":271:272   */\n  0x00\n    /* \"#utility.yul\":268:269   */\n  dup1\n    /* \"#utility.yul\":261:273   */\n  revert\n    /* \"#utility.yul\":220:275   */\ntag_27:\n    /* \"#utility.yul\":298:311   */\n  dup2\n  mload\n  sub(shl(0x40, 0x01), 0x01)\n    /* \"#utility.yul\":323:353   */\n  dup2\n  gt\n    /* \"#utility.yul\":320:376   */\n  iszero\n  tag_29\n  jumpi\n    /* \"#utility.yul\":356:374   */\n  tag_29\n  tag_17\n  jump\t// in\ntag_29:\n    /* \"#utility.yul\":405:407   */\n  0x40\n    /* \"#utility.yul\":399:408   */\n  mload\n    /* \"#utility.yul\":497:499   */\n  0x1f\n    /* \"#utility.yul\":459:476   */\n  dup3\n  add\n  not(0x1f)\n    /* \"#utility.yul\":455:486   */\n  swap1\n  dup2\n  and\n    /* \"#utility.yul\":488:490   */\n  0x3f\n    /* \"#utility.yul\":451:491   */\n  add\n    /* \"#utility.yul\":447:501   */\n  and\n    /* \"#utility.yul\":435:502   */\n  dup2\n  add\n  sub(shl(0x40, 0x01), 0x01)\n    /* \"#utility.yul\":517:551   */\n  dup2\n  gt\n    /* \"#utility.yul\":553:575   */\n  dup3\n  dup3\n  lt\n    /* \"#utility.yul\":514:576   */\n  or\n    /* \"#utility.yul\":511:599   */\n  iszero\n  tag_31\n  jumpi\n    /* \"#utility.yul\":579:597   */\n  tag_31\n  tag_17\n  jump\t// in\ntag_31:\n    /* \"#utility.yul\":615:617   */\n  0x40\n    /* \"#utility.yul\":608:630   */\n  mstore\n    /* \"#utility.yul\":639:661   */\n  dup2\n  dup2\n  mstore\n    /* \"#utility.yul\":680:699   */\n  dup4\n  dup3\n  add\n    /* \"#utility.yul\":701:705   */\n  0x20\n    /* \"#utility.yul\":676:706   */\n  add\n    /* \"#utility.yul\":673:712   */\n  dup6\n  lt\n    /* \"#utility.yul\":670:729   */\n  iszero\n  tag_32\n  jumpi\n    /* \"#utility.yul\":725:726   */\n  0x00\n    /* \"#utility.yul\":722:723   */\n  dup1\n    /* \"#utility.yul\":715:727   */\n  revert\n    /* \"#utility.yul\":670:729   */\ntag_32:\n    /* \"#utility.yul\":782:788   */\n  dup2\n    /* \"#utility.yul\":775:779   */\n  0x20\n    /* \"#utility.yul\":767:773   */\n  dup6\n    /* \"#utility.yul\":763:780   */\n  add\n    /* \"#utility.yul\":756:760   */\n  0x20\n    /* \"#utility.yul\":748:754   */\n  dup4\n    /* \"#utility.yul\":744:761   */\n  add\n    /* \"#utility.yul\":738:789   */\n  mcopy\n    /* \"#utility.yul\":837:838   */\n  0x00\n    /* \"#utility.yul\":809:828   */\n  swap2\n  dup2\n  add\n    /* \"#utility.yul\":830:834   */\n  0x20\n    /* \"#utility.yul\":805:835   */\n  add\n    /* \"#utility.yul\":798:839   */\n  swap2\n  swap1\n  swap2\n  mstore\n    /* \"#utility.yul\":813:819   */\n  swap4\n    /* \"#utility.yul\":146:869   */\n  swap3\n  pop\n  pop\n  pop\n  jump\t// out\n    /* \"#utility.yul\":874:1051   */\ntag_19:\n    /* \"#utility.yul\":953:966   */\n  dup1\n  mload\n  sub(shl(0xa0, 0x01), 0x01)\n    /* \"#utility.yul\":995:1026   */\n  dup2\n  and\n    /* \"#utility.yul\":985:1027   */\n  dup2\n  eq\n    /* \"#utility.yul\":975:1045   */\n  tag_34\n  jumpi\n    /* \"#utility.yul\":1041:1042   */\n  0x00\n    /* \"#utility.yul\":1038:1039   */\n  dup1\n    /* \"#utility.yul\":1031:1043   */\n  revert\n    /* \"#utility.yul\":975:1045   */\ntag_34:\n    /* \"#utility.yul\":874:1051   */\n  swap2\n  swap1\n  pop\n  jump\t// out\n    /* \"#utility.yul\":1056:1784   */\ntag_3:\n    /* \"#utility.yul\":1173:1179   */\n  0x00\n    /* \"#utility.yul\":1181:1187   */\n  dup1\n    /* \"#utility.yul\":1189:1195   */\n  0x00\n    /* \"#utility.yul\":1197:1203   */\n  dup1\n    /* \"#utility.yul\":1250:1253   */\n  0x80\n    /* \"#utility.yul\":1238:1247   */\n  dup6\n    /* \"#utility.yul\":1229:1236   */\n  dup8\n    /* \"#utility.yul\":1225:1248   */\n  sub\n    /* \"#utility.yul\":1221:1254   */\n  slt\n    /* \"#utility.yul\":1218:1271   */\n  iszero\n  tag_36\n  jumpi\n    /* \"#utility.yul\":1267:1268   */\n  0x00\n    /* \"#utility.yul\":1264:1265   */\n  dup1\n    /* \"#utility.yul\":1257:1269   */\n  revert\n    /* \"#utility.yul\":1218:1271   */\ntag_36:\n    /* \"#utility.yul\":1294:1310   */\n  dup5\n  mload\n  sub(shl(0x40, 0x01), 0x01)\n    /* \"#utility.yul\":1322:1352   */\n  dup2\n  gt\n    /* \"#utility.yul\":1319:1369   */\n  iszero\n  tag_37\n  jumpi\n    /* \"#utility.yul\":1365:1366   */\n  0x00\n    /* \"#utility.yul\":1362:1363   */\n  dup1\n    /* \"#utility.yul\":1355:1367   */\n  revert\n    /* \"#utility.yul\":1319:1369   */\ntag_37:\n    /* \"#utility.yul\":1388:1449   */\n  tag_38\n    /* \"#utility.yul\":1441:1448   */\n  dup8\n    /* \"#utility.yul\":1432:1438   */\n  dup3\n    /* \"#utility.yul\":1421:1430   */\n  dup9\n    /* \"#utility.yul\":1417:1439   */\n  add\n    /* \"#utility.yul\":1388:1449   */\n  tag_18\n  jump\t// in\ntag_38:\n    /* \"#utility.yul\":1495:1497   */\n  0x20\n    /* \"#utility.yul\":1480:1498   */\n  dup8\n  add\n    /* \"#utility.yul\":1474:1499   */\n  mload\n    /* \"#utility.yul\":1378:1449   */\n  swap1\n  swap6\n  pop\n    /* \"#utility.yul\":1474:1499   */\n  swap1\n  pop\n  sub(shl(0x40, 0x01), 0x01)\n    /* \"#utility.yul\":1511:1543   */\n  dup2\n  gt\n    /* \"#utility.yul\":1508:1560   */\n  iszero\n  tag_39\n  jumpi\n    /* \"#utility.yul\":1556:1557   */\n  0x00\n    /* \"#utility.yul\":1553:1554   */\n  dup1\n    /* \"#utility.yul\":1546:1558   */\n  revert\n    /* \"#utility.yul\":1508:1560   */\ntag_39:\n    /* \"#utility.yul\":1579:1642   */\n  tag_40\n    /* \"#utility.yul\":1634:1641   */\n  dup8\n    /* \"#utility.yul\":1623:1631   */\n  dup3\n    /* \"#utility.yul\":1612:1621   */\n  dup9\n    /* \"#utility.yul\":1608:1632   */\n  add\n    /* \"#utility.yul\":1579:1642   */\n  tag_18\n  jump\t// in\ntag_40:\n    /* \"#utility.yul\":1569:1642   */\n  swap4\n  pop\n  pop\n    /* \"#utility.yul\":1661:1710   */\n  tag_41\n    /* \"#utility.yul\":1706:1708   */\n  0x40\n    /* \"#utility.yul\":1695:1704   */\n  dup7\n    /* \"#utility.yul\":1691:1709   */\n  add\n    /* \"#utility.yul\":1661:1710   */\n  tag_19\n  jump\t// in\ntag_41:\n    /* \"#utility.yul\":1651:1710   */\n  swap2\n  pop\n    /* \"#utility.yul\":1729:1778   */\n  tag_42\n    /* \"#utility.yul\":1774:1776   */\n  0x60\n    /* \"#utility.yul\":1763:1772   */\n  dup7\n    /* \"#utility.yul\":1759:1777   */\n  add\n    /* \"#utility.yul\":1729:1778   */\n  tag_19\n  jump\t// in\ntag_42:\n    /* \"#utility.yul\":1719:1778   */\n  swap1\n  pop\n    /* \"#utility.yul\":1056:1784   */\n  swap3\n  swap6\n  swap2\n  swap5\n  pop\n  swap3\n  pop\n  jump\t// out\n    /* \"#utility.yul\":1789:2169   */\ntag_20:\n    /* \"#utility.yul\":1868:1869   */\n  0x01\n    /* \"#utility.yul\":1864:1876   */\n  dup2\n  dup2\n  shr\n  swap1\n    /* \"#utility.yul\":1911:1923   */\n  dup3\n  and\n  dup1\n    /* \"#utility.yul\":1932:1993   */\n  tag_44\n  jumpi\n    /* \"#utility.yul\":1986:1990   */\n  0x7f\n    /* \"#utility.yul\":1978:1984   */\n  dup3\n    /* \"#utility.yul\":1974:1991   */\n  and\n    /* \"#utility.yul\":1964:1991   */\n  swap2\n  pop\n    /* \"#utility.yul\":1932:1993   */\ntag_44:\n    /* \"#utility.yul\":2039:2041   */\n  0x20\n    /* \"#utility.yul\":2031:2037   */\n  dup3\n    /* \"#utility.yul\":2028:2042   */\n  lt\n    /* \"#utility.yul\":2008:2026   */\n  dup2\n    /* \"#utility.yul\":2005:2043   */\n  sub\n    /* \"#utility.yul\":2002:2163   */\n  tag_45\n  jumpi\n    /* \"#utility.yul\":2085:2095   */\n  0x4e487b71\n    /* \"#utility.yul\":2080:2083   */\n  0xe0\n    /* \"#utility.yul\":2076:2096   */\n  shl\n    /* \"#utility.yul\":2073:2074   */\n  0x00\n    /* \"#utility.yul\":2066:2097   */\n  mstore\n    /* \"#utility.yul\":2120:2124   */\n  0x22\n    /* \"#utility.yul\":2117:2118   */\n  0x04\n    /* \"#utility.yul\":2110:2125   */\n  mstore\n    /* \"#utility.yul\":2148:2152   */\n  0x24\n    /* \"#utility.yul\":2145:2146   */\n  0x00\n    /* \"#utility.yul\":2138:2153   */\n  revert\n    /* \"#utility.yul\":2002:2163   */\ntag_45:\n  pop\n    /* \"#utility.yul\":1789:2169   */\n  swap2\n  swap1\n  pop\n  jump\t// out\n    /* \"#utility.yul\":2300:2818   */\ntag_22:\n    /* \"#utility.yul\":2402:2404   */\n  0x1f\n    /* \"#utility.yul\":2397:2400   */\n  dup3\n    /* \"#utility.yul\":2394:2405   */\n  gt\n    /* \"#utility.yul\":2391:2812   */\n  iszero\n  tag_48\n  jumpi\n    /* \"#utility.yul\":2438:2443   */\n  dup1\n    /* \"#utility.yul\":2435:2436   */\n  0x00\n    /* \"#utility.yul\":2428:2444   */\n  mstore\n    /* \"#utility.yul\":2482:2486   */\n  0x20\n    /* \"#utility.yul\":2479:2480   */\n  0x00\n    /* \"#utility.yul\":2469:2487   */\n  keccak256\n    /* \"#utility.yul\":2552:2554   */\n  0x1f\n    /* \"#utility.yul\":2540:2550   */\n  dup5\n    /* \"#utility.yul\":2536:2555   */\n  add\n    /* \"#utility.yul\":2533:2534   */\n  0x05\n    /* \"#utility.yul\":2529:2556   */\n  shr\n    /* \"#utility.yul\":2523:2527   */\n  dup2\n    /* \"#utility.yul\":2519:2557   */\n  add\n    /* \"#utility.yul\":2588:2592   */\n  0x20\n    /* \"#utility.yul\":2576:2586   */\n  dup6\n    /* \"#utility.yul\":2573:2593   */\n  lt\n    /* \"#utility.yul\":2570:2617   */\n  iszero\n  tag_49\n  jumpi\n  pop\n    /* \"#utility.yul\":2611:2615   */\n  dup1\n    /* \"#utility.yul\":2570:2617   */\ntag_49:\n    /* \"#utility.yul\":2666:2668   */\n  0x1f\n    /* \"#utility.yul\":2661:2664   */\n  dup5\n    /* \"#utility.yul\":2657:2669   */\n  add\n    /* \"#utility.yul\":2654:2655   */\n  0x05\n    /* \"#utility.yul\":2650:2670   */\n  shr\n    /* \"#utility.yul\":2644:2648   */\n  dup3\n    /* \"#utility.yul\":2640:2671   */\n  add\n    /* \"#utility.yul\":2630:2671   */\n  swap2\n  pop\n    /* \"#utility.yul\":2721:2802   */\ntag_50:\n    /* \"#utility.yul\":2739:2741   */\n  dup2\n    /* \"#utility.yul\":2732:2737   */\n  dup2\n    /* \"#utility.yul\":2729:2742   */\n  lt\n    /* \"#utility.yul\":2721:2802   */\n  iszero\n  tag_52\n  jumpi\n    /* \"#utility.yul\":2798:2799   */\n  0x00\n    /* \"#utility.yul\":2784:2800   */\n  dup2\n  sstore\n    /* \"#utility.yul\":2765:2766   */\n  0x01\n    /* \"#utility.yul\":2754:2767   */\n  add\n    /* \"#utility.yul\":2721:2802   */\n  jump(tag_50)\ntag_52:\n    /* \"#utility.yul\":2725:2728   */\n  pop\n  pop\n    /* \"#utility.yul\":2391:2812   */\ntag_48:\n    /* \"#utility.yul\":2300:2818   */\n  pop\n  pop\n  pop\n  jump\t// out\n    /* \"#utility.yul\":2994:4293   */\ntag_8:\n    /* \"#utility.yul\":3114:3124   */\n  dup2\n  mload\n  sub(shl(0x40, 0x01), 0x01)\n    /* \"#utility.yul\":3136:3166   */\n  dup2\n  gt\n    /* \"#utility.yul\":3133:3189   */\n  iszero\n  tag_56\n  jumpi\n    /* \"#utility.yul\":3169:3187   */\n  tag_56\n  tag_17\n  jump\t// in\ntag_56:\n    /* \"#utility.yul\":3198:3295   */\n  tag_57\n    /* \"#utility.yul\":3288:3294   */\n  dup2\n    /* \"#utility.yul\":3248:3286   */\n  tag_58\n    /* \"#utility.yul\":3280:3284   */\n  dup5\n    /* \"#utility.yul\":3274:3285   */\n  sload\n    /* \"#utility.yul\":3248:3286   */\n  tag_20\n  jump\t// in\ntag_58:\n    /* \"#utility.yul\":3242:3246   */\n  dup5\n    /* \"#utility.yul\":3198:3295   */\n  tag_22\n  jump\t// in\ntag_57:\n    /* \"#utility.yul\":3344:3348   */\n  0x20\n    /* \"#utility.yul\":3375:3377   */\n  0x1f\n    /* \"#utility.yul\":3364:3378   */\n  dup3\n  gt\n    /* \"#utility.yul\":3392:3393   */\n  0x01\n    /* \"#utility.yul\":3387:4036   */\n  dup2\n  eq\n  tag_60\n  jumpi\n    /* \"#utility.yul\":4080:4081   */\n  0x00\n    /* \"#utility.yul\":4097:4103   */\n  dup4\n    /* \"#utility.yul\":4094:4183   */\n  iszero\n  tag_61\n  jumpi\n  pop\n    /* \"#utility.yul\":4149:4168   */\n  dup5\n  dup3\n  add\n    /* \"#utility.yul\":4143:4169   */\n  mload\n    /* \"#utility.yul\":4094:4183   */\ntag_61:\n  not(0x00)\n    /* \"#utility.yul\":2951:2952   */\n  0x03\n    /* \"#utility.yul\":2947:2958   */\n  dup6\n  swap1\n  shl\n    /* \"#utility.yul\":2943:2967   */\n  shr\n    /* \"#utility.yul\":2939:2968   */\n  not\n    /* \"#utility.yul\":2929:2969   */\n  and\n    /* \"#utility.yul\":2975:2976   */\n  0x01\n    /* \"#utility.yul\":2971:2982   */\n  dup5\n  swap1\n  shl\n    /* \"#utility.yul\":2926:2983   */\n  or\n    /* \"#utility.yul\":4196:4277   */\n  dup5\n  sstore\n    /* \"#utility.yul\":3357:4287   */\n  jump(tag_52)\n    /* \"#utility.yul\":3387:4036   */\ntag_60:\n    /* \"#utility.yul\":2247:2248   */\n  0x00\n    /* \"#utility.yul\":2240:2254   */\n  dup5\n  dup2\n  mstore\n    /* \"#utility.yul\":2284:2288   */\n  0x20\n    /* \"#utility.yul\":2271:2289   */\n  dup2\n  keccak256\n  not(0x1f)\n    /* \"#utility.yul\":3423:3443   */\n  dup6\n  and\n  swap2\n    /* \"#utility.yul\":3541:3763   */\ntag_64:\n    /* \"#utility.yul\":3555:3562   */\n  dup3\n    /* \"#utility.yul\":3552:3553   */\n  dup2\n    /* \"#utility.yul\":3549:3563   */\n  lt\n    /* \"#utility.yul\":3541:3763   */\n  iszero\n  tag_66\n  jumpi\n    /* \"#utility.yul\":3637:3656   */\n  dup8\n  dup6\n  add\n    /* \"#utility.yul\":3631:3657   */\n  mload\n    /* \"#utility.yul\":3616:3658   */\n  dup3\n  sstore\n    /* \"#utility.yul\":3744:3748   */\n  0x20\n    /* \"#utility.yul\":3729:3749   */\n  swap5\n  dup6\n  add\n  swap5\n    /* \"#utility.yul\":3697:3698   */\n  0x01\n    /* \"#utility.yul\":3685:3699   */\n  swap1\n  swap3\n  add\n  swap2\n    /* \"#utility.yul\":3571:3583   */\n  add\n    /* \"#utility.yul\":3541:3763   */\n  jump(tag_64)\ntag_66:\n    /* \"#utility.yul\":3545:3548   */\n  pop\n    /* \"#utility.yul\":3791:3797   */\n  dup5\n    /* \"#utility.yul\":3782:3789   */\n  dup3\n    /* \"#utility.yul\":3779:3798   */\n  lt\n    /* \"#utility.yul\":3776:3977   */\n  iszero\n  tag_67\n  jumpi\n    /* \"#utility.yul\":3852:3871   */\n  dup7\n  dup5\n  add\n    /* \"#utility.yul\":3846:3872   */\n  mload\n  not(0x00)\n    /* \"#utility.yul\":3935:3936   */\n  0x03\n    /* \"#utility.yul\":3931:3945   */\n  dup8\n  swap1\n  shl\n    /* \"#utility.yul\":3947:3950   */\n  0xf8\n    /* \"#utility.yul\":3927:3951   */\n  and\n    /* \"#utility.yul\":3923:3960   */\n  shr\n    /* \"#utility.yul\":3919:3961   */\n  not\n    /* \"#utility.yul\":3904:3962   */\n  and\n    /* \"#utility.yul\":3889:3963   */\n  dup2\n  sstore\n    /* \"#utility.yul\":3776:3977   */\ntag_67:\n  pop\n  pop\n  pop\n  pop\n    /* \"#utility.yul\":4023:4024   */\n  0x01\n    /* \"#utility.yul\":4007:4021   */\n  swap1\n  dup2\n  shl\n    /* \"#utility.yul\":4003:4025   */\n  add\n    /* \"#utility.yul\":3990:4026   */\n  swap1\n  sstore\n  pop\n    /* \"#utility.yul\":2994:4293   */\n  jump\t// out\n    /* \"#utility.yul\":4298:4425   */\ntag_11:\n    /* \"#utility.yul\":4359:4369   */\n  0x4e487b71\n    /* \"#utility.yul\":4354:4357   */\n  0xe0\n    /* \"#utility.yul\":4350:4370   */\n  shl\n    /* \"#utility.yul\":4347:4348   */\n  0x00\n    /* \"#utility.yul\":4340:4371   */\n  mstore\n    /* \"#utility.yul\":4390:4394   */\n  0x21\n    /* \"#utility.yul\":4387:4388   */\n  0x04\n    /* \"#utility.yul\":4380:4395   */\n  mstore\n    /* \"#utility.yul\":4414:4418   */\n  0x24\n    /* \"#utility.yul\":4411:4412   */\n  0x00\n    /* \"#utility.yul\":4404:4419   */\n  revert\n    /* \"#utility.yul\":4430:4633   */\ntag_24:\n    /* \"Items/LoyalityCard.sol\":137:1039  contract LoyalityCard is VaultItem{... */\n  dataSize(sub_0)\n  dup1\n  dataOffset(sub_0)\n  0x00\n  codecopy\n  0x00\n  return\nstop\n\nsub_0: assembly {\n        /* \"Items/LoyalityCard.sol\":137:1039  contract LoyalityCard is VaultItem{... */\n      mstore(0x40, 0x80)\n      callvalue\n      dup1\n      iszero\n      tag_1\n      jumpi\n      0x00\n      dup1\n      revert\n    tag_1:\n      pop\n      jumpi(tag_2, lt(calldatasize, 0x04))\n      shr(0xe0, calldataload(0x00))\n      dup1\n      0xa95264d0\n      gt\n      tag_15\n      jumpi\n      dup1\n      0xa95264d0\n      eq\n      tag_9\n      jumpi\n      dup1\n      0xb9daf3e2\n      eq\n      tag_10\n      jumpi\n      dup1\n      0xba379e86\n      eq\n      tag_11\n      jumpi\n      dup1\n      0xc47f0027\n      eq\n      tag_12\n      jumpi\n      dup1\n      0xded92dac\n      eq\n      tag_13\n      jumpi\n      dup1\n      0xefd8af9f\n      eq\n      tag_14\n      jumpi\n      0x00\n      dup1\n      revert\n    tag_15:\n      dup1\n      0x1499c592\n      eq\n      tag_3\n      jumpi\n      dup1\n      0x2858d3c8\n      eq\n      tag_4\n      jumpi\n      dup1\n      0x4ba83374\n      eq\n      tag_5\n      jumpi\n      dup1\n      0x5da6ef8d\n      eq\n      tag_6\n      jumpi\n      dup1\n      0x7a4c982e\n      eq\n      tag_7\n      jumpi\n      dup1\n      0x80f76021\n      eq\n      tag_8\n      jumpi\n    tag_2:\n      0x00\n      dup1\n      revert\n        /* \"Items/VaultItem.sol\":1316:1435  function setParent( address _p) external  ownerOnly {... */\n    tag_3:\n      tag_16\n      tag_17\n      calldatasize\n      0x04\n      tag_18\n      jump\t// in\n    tag_17:\n      tag_19\n      jump\t// in\n    tag_16:\n      stop\n        /* \"Items/VaultItem.sol\":965:1076  function getItemType() external view ownerOnly returns (Constants.ItemType) {... */\n    tag_4:\n      tag_20\n      tag_21\n      jump\t// in\n    tag_20:\n      mload(0x40)\n      tag_22\n      swap2\n      swap1\n      tag_23\n      jump\t// in\n    tag_22:\n      mload(0x40)\n      dup1\n      swap2\n      sub\n      swap1\n      return\n        /* \"Items/VaultItem.sol\":1443:1580  function isSharedWith() external view returns (bool) {... */\n    tag_5:\n      tag_24\n      tag_25\n      jump\t// in\n    tag_24:\n      mload(0x40)\n        /* \"#utility.yul\":815:829   */\n      swap1\n      iszero\n        /* \"#utility.yul\":808:830   */\n      iszero\n        /* \"#utility.yul\":790:831   */\n      dup2\n      mstore\n        /* \"#utility.yul\":778:780   */\n      0x20\n        /* \"#utility.yul\":763:781   */\n      add\n        /* \"Items/VaultItem.sol\":1443:1580  function isSharedWith() external view returns (bool) {... */\n      tag_22\n        /* \"#utility.yul\":650:837   */\n      jump\n        /* \"Items/VaultItem.sol\":1714:1927  function shareWith(address _w) external ownerOnly {... */\n    tag_6:\n      tag_16\n      tag_29\n      calldatasize\n      0x04\n      tag_18\n      jump\t// in\n    tag_29:\n      tag_30\n      jump\t// in\n        /* \"Items/LoyalityCard.sol\":729:895  function setItem(string memory _n, string memory _c_id) external ownerOnly {... */\n    tag_7:\n      tag_16\n      tag_32\n      calldatasize\n      0x04\n      tag_33\n      jump\t// in\n    tag_32:\n      tag_34\n      jump\t// in\n        /* \"Items/VaultItem.sol\":1211:1308  function getParent() external view ownerOnly returns (address) {... */\n    tag_8:\n      tag_35\n      tag_36\n      jump\t// in\n    tag_35:\n      mload(0x40)\n      sub(shl(0xa0, 0x01), 0x01)\n        /* \"#utility.yul\":2412:2444   */\n      swap1\n      swap2\n      and\n        /* \"#utility.yul\":2394:2445   */\n      dup2\n      mstore\n        /* \"#utility.yul\":2382:2384   */\n      0x20\n        /* \"#utility.yul\":2367:2385   */\n      add\n        /* \"Items/VaultItem.sol\":1211:1308  function getParent() external view ownerOnly returns (address) {... */\n      tag_22\n        /* \"#utility.yul\":2248:2451   */\n      jump\n        /* \"Items/VaultItem.sol\":1588:1706  function getSharedWith() external view ownerOnly returns (address[] memory) {... */\n    tag_9:\n      tag_39\n      tag_40\n      jump\t// in\n    tag_39:\n      mload(0x40)\n      tag_22\n      swap2\n      swap1\n      tag_42\n      jump\t// in\n        /* \"Items/VaultItem.sol\":841:957  function isOwn() external view  returns (bool) {... */\n    tag_10:\n      tag_24\n      tag_44\n      jump\t// in\n        /* \"Items/LoyalityCard.sol\":903:1032  function expose() external view ownerOrShared returns ( string memory, string memory) {... */\n    tag_11:\n      tag_46\n      tag_47\n      jump\t// in\n    tag_46:\n      mload(0x40)\n      tag_22\n      swap3\n      swap2\n      swap1\n      tag_49\n      jump\t// in\n        /* \"Items/VaultItem.sol\":1084:1203  function setName(string memory _n) external ownerOnly {... */\n    tag_12:\n      tag_16\n      tag_51\n      calldatasize\n      0x04\n      tag_52\n      jump\t// in\n    tag_51:\n      tag_53\n      jump\t// in\n        /* \"Items/VaultItem.sol\":1935:2291  function restictFrom( address _f ) external {... */\n    tag_13:\n      tag_16\n      tag_55\n      calldatasize\n      0x04\n      tag_18\n      jump\t// in\n    tag_55:\n      tag_56\n      jump\t// in\n        /* \"Items/LoyalityCard.sol\":591:721  function setCardId(string memory _c_id) external ownerOnly {... */\n    tag_14:\n      tag_16\n      tag_58\n      calldatasize\n      0x04\n      tag_52\n      jump\t// in\n    tag_58:\n      tag_59\n      jump\t// in\n        /* \"Items/VaultItem.sol\":1316:1435  function setParent( address _p) external  ownerOnly {... */\n    tag_19:\n        /* \"Items/VaultItem.sol\":366:371  owner */\n      sload(0x01)\n      0x0100\n      swap1\n      div\n      sub(shl(0xa0, 0x01), 0x01)\n      and\n        /* \"Items/VaultItem.sol\":352:362  msg.sender */\n      caller\n        /* \"Items/VaultItem.sol\":352:371  msg.sender == owner */\n      eq\n      dup1\n        /* \"Items/VaultItem.sol\":352:395  msg.sender == owner || msg.sender == parent */\n      tag_61\n      jumpi\n      pop\n        /* \"Items/VaultItem.sol\":389:395  parent */\n      and(sub(shl(0xa0, 0x01), 0x01), sload(0x02))\n        /* \"Items/VaultItem.sol\":375:385  msg.sender */\n      caller\n        /* \"Items/VaultItem.sol\":375:395  msg.sender == parent */\n      eq\n        /* \"Items/VaultItem.sol\":352:395  msg.sender == owner || msg.sender == parent */\n    tag_61:\n        /* \"Items/VaultItem.sol\":344:410  require(msg.sender == owner || msg.sender == parent, \"Only owner\") */\n      tag_62\n      jumpi\n      mload(0x40)\n      shl(0xe5, 0x461bcd)\n      dup2\n      mstore\n      0x04\n      add\n      tag_63\n      swap1\n      tag_64\n      jump\t// in\n    tag_63:\n      mload(0x40)\n      dup1\n      swap2\n      sub\n      swap1\n      revert\n    tag_62:\n        /* \"Items/VaultItem.sol\":1379:1385  parent */\n      0x02\n        /* \"Items/VaultItem.sol\":1379:1390  parent = _p */\n      dup1\n      sload\n      not(sub(shl(0xa0, 0x01), 0x01))\n      and\n      sub(shl(0xa0, 0x01), 0x01)\n      dup4\n      and\n      or\n      swap1\n      sstore\n        /* \"Items/VaultItem.sol\":1408:1427  Updated(msg.sender) */\n      mload(0x40)\n        /* \"Items/VaultItem.sol\":1416:1426  msg.sender */\n      caller\n        /* \"#utility.yul\":2394:2445   */\n      dup2\n      mstore\n        /* \"Items/VaultItem.sol\":1408:1427  Updated(msg.sender) */\n      0xe00da2178806f37f69815e9ed5ed3072ec1d55206d60916d99b469c7daa421e4\n      swap1\n        /* \"#utility.yul\":2382:2384   */\n      0x20\n        /* \"#utility.yul\":2367:2385   */\n      add\n        /* \"Items/VaultItem.sol\":1408:1427  Updated(msg.sender) */\n    tag_66:\n      mload(0x40)\n      dup1\n      swap2\n      sub\n      swap1\n      log1\n        /* \"Items/VaultItem.sol\":1316:1435  function setParent( address _p) external  ownerOnly {... */\n      pop\n      jump\t// out\n        /* \"Items/VaultItem.sol\":965:1076  function getItemType() external view ownerOnly returns (Constants.ItemType) {... */\n    tag_21:\n        /* \"Items/VaultItem.sol\":366:371  owner */\n      sload(0x01)\n        /* \"Items/VaultItem.sol\":1021:1039  Constants.ItemType */\n      0x00\n      swap1\n        /* \"Items/VaultItem.sol\":366:371  owner */\n      0x0100\n      swap1\n      div\n      sub(shl(0xa0, 0x01), 0x01)\n      and\n        /* \"Items/VaultItem.sol\":352:362  msg.sender */\n      caller\n        /* \"Items/VaultItem.sol\":352:371  msg.sender == owner */\n      eq\n      dup1\n        /* \"Items/VaultItem.sol\":352:395  msg.sender == owner || msg.sender == parent */\n      tag_68\n      jumpi\n      pop\n        /* \"Items/VaultItem.sol\":389:395  parent */\n      and(sub(shl(0xa0, 0x01), 0x01), sload(0x02))\n        /* \"Items/VaultItem.sol\":375:385  msg.sender */\n      caller\n        /* \"Items/VaultItem.sol\":375:395  msg.sender == parent */\n      eq\n        /* \"Items/VaultItem.sol\":352:395  msg.sender == owner || msg.sender == parent */\n    tag_68:\n        /* \"Items/VaultItem.sol\":344:410  require(msg.sender == owner || msg.sender == parent, \"Only owner\") */\n      tag_69\n      jumpi\n      mload(0x40)\n      shl(0xe5, 0x461bcd)\n      dup2\n      mstore\n      0x04\n      add\n      tag_63\n      swap1\n      tag_64\n      jump\t// in\n    tag_69:\n      pop\n        /* \"Items/VaultItem.sol\":1059:1068  item_type */\n      and(0xff, sload(0x01))\n        /* \"Items/VaultItem.sol\":965:1076  function getItemType() external view ownerOnly returns (Constants.ItemType) {... */\n      swap1\n      jump\t// out\n        /* \"Items/VaultItem.sol\":1443:1580  function isSharedWith() external view returns (bool) {... */\n    tag_25:\n        /* \"Items/VaultItem.sol\":1490:1494  bool */\n      0x00\n        /* \"Items/VaultItem.sol\":1514:1566  Constants.findAddressIndex( msg.sender, sharedWith ) */\n      tag_73\n        /* \"Items/VaultItem.sol\":1542:1552  msg.sender */\n      caller\n        /* \"Items/VaultItem.sol\":1554:1564  sharedWith */\n      0x03\n        /* \"Items/VaultItem.sol\":1514:1566  Constants.findAddressIndex( msg.sender, sharedWith ) */\n      dup1\n      sload\n      dup1\n      0x20\n      mul\n      0x20\n      add\n      mload(0x40)\n      swap1\n      dup2\n      add\n      0x40\n      mstore\n      dup1\n      swap3\n      swap2\n      swap1\n      dup2\n      dup2\n      mstore\n      0x20\n      add\n      dup3\n      dup1\n      sload\n      dup1\n      iszero\n      tag_74\n      jumpi\n      0x20\n      mul\n      dup3\n      add\n      swap2\n      swap1\n      0x00\n      mstore\n      keccak256(0x00, 0x20)\n      swap1\n    tag_75:\n      dup2\n      sload\n      sub(shl(0xa0, 0x01), 0x01)\n      and\n      dup2\n      mstore\n      0x01\n      swap1\n      swap2\n      add\n      swap1\n      0x20\n      add\n      dup1\n      dup4\n      gt\n      tag_75\n      jumpi\n    tag_74:\n      pop\n      pop\n      pop\n      pop\n      pop\n        /* \"Items/VaultItem.sol\":1514:1540  Constants.findAddressIndex */\n      tag_76\n        /* \"Items/VaultItem.sol\":1514:1566  Constants.findAddressIndex( msg.sender, sharedWith ) */\n      jump\t// in\n    tag_73:\n      not(0x00)\n        /* \"Items/VaultItem.sol\":1514:1572  Constants.findAddressIndex( msg.sender, sharedWith ) != -1 */\n      eq\n      iszero\n        /* \"Items/VaultItem.sol\":1507:1572  return Constants.findAddressIndex( msg.sender, sharedWith ) != -1 */\n      swap1\n      pop\n        /* \"Items/VaultItem.sol\":1443:1580  function isSharedWith() external view returns (bool) {... */\n      swap1\n      jump\t// out\n        /* \"Items/VaultItem.sol\":1714:1927  function shareWith(address _w) external ownerOnly {... */\n    tag_30:\n        /* \"Items/VaultItem.sol\":366:371  owner */\n      sload(0x01)\n      0x0100\n      swap1\n      div\n      sub(shl(0xa0, 0x01), 0x01)\n      and\n        /* \"Items/VaultItem.sol\":352:362  msg.sender */\n      caller\n        /* \"Items/VaultItem.sol\":352:371  msg.sender == owner */\n      eq\n      dup1\n        /* \"Items/VaultItem.sol\":352:395  msg.sender == owner || msg.sender == parent */\n      tag_78\n      jumpi\n      pop\n        /* \"Items/VaultItem.sol\":389:395  parent */\n      and(sub(shl(0xa0, 0x01), 0x01), sload(0x02))\n        /* \"Items/VaultItem.sol\":375:385  msg.sender */\n      caller\n        /* \"Items/VaultItem.sol\":375:395  msg.sender == parent */\n      eq\n        /* \"Items/VaultItem.sol\":352:395  msg.sender == owner || msg.sender == parent */\n    tag_78:\n        /* \"Items/VaultItem.sol\":344:410  require(msg.sender == owner || msg.sender == parent, \"Only owner\") */\n      tag_79\n      jumpi\n      mload(0x40)\n      shl(0xe5, 0x461bcd)\n      dup2\n      mstore\n      0x04\n      add\n      tag_63\n      swap1\n      tag_64\n      jump\t// in\n    tag_79:\n        /* \"Items/VaultItem.sol\":1792:1797  owner */\n      sload(0x01)\n      sub(shl(0xa0, 0x01), 0x01)\n        /* \"Items/VaultItem.sol\":1786:1797  _w != owner */\n      dup3\n      dup2\n      and\n        /* \"Items/VaultItem.sol\":1792:1797  owner */\n      0x0100\n      swap1\n      swap3\n      div\n      and\n        /* \"Items/VaultItem.sol\":1786:1797  _w != owner */\n      eq\n      dup1\n      iszero\n      swap1\n        /* \"Items/VaultItem.sol\":1786:1817  _w != owner && _w != address(0) */\n      tag_82\n      jumpi\n      pop\n      sub(shl(0xa0, 0x01), 0x01)\n        /* \"Items/VaultItem.sol\":1801:1817  _w != address(0) */\n      dup2\n      and\n      iszero\n      iszero\n        /* \"Items/VaultItem.sol\":1786:1817  _w != owner && _w != address(0) */\n    tag_82:\n        /* \"Items/VaultItem.sol\":1786:1871  _w != owner && _w != address(0) && Constants.findAddressIndex( _w, sharedWith ) == -1 */\n      dup1\n      iszero\n      tag_83\n      jumpi\n      pop\n        /* \"Items/VaultItem.sol\":1821:1865  Constants.findAddressIndex( _w, sharedWith ) */\n      tag_84\n        /* \"Items/VaultItem.sol\":1849:1851  _w */\n      dup2\n        /* \"Items/VaultItem.sol\":1853:1863  sharedWith */\n      0x03\n        /* \"Items/VaultItem.sol\":1821:1865  Constants.findAddressIndex( _w, sharedWith ) */\n      dup1\n      sload\n      dup1\n      0x20\n      mul\n      0x20\n      add\n      mload(0x40)\n      swap1\n      dup2\n      add\n      0x40\n      mstore\n      dup1\n      swap3\n      swap2\n      swap1\n      dup2\n      dup2\n      mstore\n      0x20\n      add\n      dup3\n      dup1\n      sload\n      dup1\n      iszero\n      tag_74\n      jumpi\n      0x20\n      mul\n      dup3\n      add\n      swap2\n      swap1\n      0x00\n      mstore\n      keccak256(0x00, 0x20)\n      swap1\n      dup2\n      sload\n      sub(shl(0xa0, 0x01), 0x01)\n      and\n      dup2\n      mstore\n      0x01\n      swap1\n      swap2\n      add\n      swap1\n      0x20\n      add\n      dup1\n      dup4\n      gt\n      tag_75\n      jumpi\n      pop\n      pop\n      pop\n      pop\n      pop\n        /* \"Items/VaultItem.sol\":1821:1847  Constants.findAddressIndex */\n      tag_76\n        /* \"Items/VaultItem.sol\":1821:1865  Constants.findAddressIndex( _w, sharedWith ) */\n      jump\t// in\n    tag_84:\n      not(0x00)\n        /* \"Items/VaultItem.sol\":1821:1871  Constants.findAddressIndex( _w, sharedWith ) == -1 */\n      eq\n        /* \"Items/VaultItem.sol\":1786:1871  _w != owner && _w != address(0) && Constants.findAddressIndex( _w, sharedWith ) == -1 */\n    tag_83:\n        /* \"Items/VaultItem.sol\":1777:1885  require( _w != owner && _w != address(0) && Constants.findAddressIndex( _w, sharedWith ) == -1, \"Forbidden\") */\n      tag_87\n      jumpi\n      mload(0x40)\n      shl(0xe5, 0x461bcd)\n      dup2\n      mstore\n        /* \"#utility.yul\":4648:4650   */\n      0x20\n        /* \"Items/VaultItem.sol\":1777:1885  require( _w != owner && _w != address(0) && Constants.findAddressIndex( _w, sharedWith ) == -1, \"Forbidden\") */\n      0x04\n      dup3\n      add\n        /* \"#utility.yul\":4630:4651   */\n      mstore\n        /* \"#utility.yul\":4687:4688   */\n      0x09\n        /* \"#utility.yul\":4667:4685   */\n      0x24\n      dup3\n      add\n        /* \"#utility.yul\":4660:4689   */\n      mstore\n      shl(0xb9, 0x2337b93134b23232b7)\n        /* \"#utility.yul\":4705:4723   */\n      0x44\n      dup3\n      add\n        /* \"#utility.yul\":4698:4737   */\n      mstore\n        /* \"#utility.yul\":4754:4772   */\n      0x64\n      add\n        /* \"Items/VaultItem.sol\":1777:1885  require( _w != owner && _w != address(0) && Constants.findAddressIndex( _w, sharedWith ) == -1, \"Forbidden\") */\n      tag_63\n        /* \"#utility.yul\":4446:4778   */\n      jump\n        /* \"Items/VaultItem.sol\":1777:1885  require( _w != owner && _w != address(0) && Constants.findAddressIndex( _w, sharedWith ) == -1, \"Forbidden\") */\n    tag_87:\n        /* \"Items/VaultItem.sol\":1898:1908  sharedWith */\n      0x03\n        /* \"Items/VaultItem.sol\":1898:1917  sharedWith.push(_w) */\n      dup1\n      sload\n      0x01\n      dup2\n      add\n      dup3\n      sstore\n      0x00\n      swap2\n      swap1\n      swap2\n      mstore\n      0xc2575a0e9e593c00f959f8c92f12db2869c3395a3b0502d05e2516446f71f85b\n      add\n      dup1\n      sload\n      not(sub(shl(0xa0, 0x01), 0x01))\n      and\n      sub(shl(0xa0, 0x01), 0x01)\n      swap3\n      swap1\n      swap3\n      and\n      swap2\n      swap1\n      swap2\n      or\n      swap1\n      sstore\n        /* \"Items/VaultItem.sol\":1714:1927  function shareWith(address _w) external ownerOnly {... */\n      jump\t// out\n        /* \"Items/LoyalityCard.sol\":729:895  function setItem(string memory _n, string memory _c_id) external ownerOnly {... */\n    tag_34:\n        /* \"Items/VaultItem.sol\":366:371  owner */\n      sload(0x01)\n      0x0100\n      swap1\n      div\n      sub(shl(0xa0, 0x01), 0x01)\n      and\n        /* \"Items/VaultItem.sol\":352:362  msg.sender */\n      caller\n        /* \"Items/VaultItem.sol\":352:371  msg.sender == owner */\n      eq\n      dup1\n        /* \"Items/VaultItem.sol\":352:395  msg.sender == owner || msg.sender == parent */\n      tag_92\n      jumpi\n      pop\n        /* \"Items/VaultItem.sol\":389:395  parent */\n      and(sub(shl(0xa0, 0x01), 0x01), sload(0x02))\n        /* \"Items/VaultItem.sol\":375:385  msg.sender */\n      caller\n        /* \"Items/VaultItem.sol\":375:395  msg.sender == parent */\n      eq\n        /* \"Items/VaultItem.sol\":352:395  msg.sender == owner || msg.sender == parent */\n    tag_92:\n        /* \"Items/VaultItem.sol\":344:410  require(msg.sender == owner || msg.sender == parent, \"Only owner\") */\n      tag_93\n      jumpi\n      mload(0x40)\n      shl(0xe5, 0x461bcd)\n      dup2\n      mstore\n      0x04\n      add\n      tag_63\n      swap1\n      tag_64\n      jump\t// in\n    tag_93:\n        /* \"Items/LoyalityCard.sol\":815:819  name */\n      0x00\n        /* \"Items/LoyalityCard.sol\":815:824  name = _n */\n      tag_96\n        /* \"Items/LoyalityCard.sol\":822:824  _n */\n      dup4\n        /* \"Items/LoyalityCard.sol\":815:819  name */\n      dup3\n        /* \"Items/LoyalityCard.sol\":815:824  name = _n */\n      tag_97\n      jump\t// in\n    tag_96:\n      pop\n        /* \"Items/LoyalityCard.sol\":835:842  card_id */\n      0x04\n        /* \"Items/LoyalityCard.sol\":835:850  card_id = _c_id */\n      tag_98\n        /* \"Items/LoyalityCard.sol\":845:850  _c_id */\n      dup3\n        /* \"Items/LoyalityCard.sol\":835:842  card_id */\n      dup3\n        /* \"Items/LoyalityCard.sol\":835:850  card_id = _c_id */\n      tag_97\n      jump\t// in\n    tag_98:\n      pop\n        /* \"Items/LoyalityCard.sol\":868:887  Updated(msg.sender) */\n      mload(0x40)\n        /* \"Items/LoyalityCard.sol\":876:886  msg.sender */\n      caller\n        /* \"#utility.yul\":2394:2445   */\n      dup2\n      mstore\n        /* \"Items/LoyalityCard.sol\":868:887  Updated(msg.sender) */\n      0xe00da2178806f37f69815e9ed5ed3072ec1d55206d60916d99b469c7daa421e4\n      swap1\n        /* \"#utility.yul\":2382:2384   */\n      0x20\n        /* \"#utility.yul\":2367:2385   */\n      add\n        /* \"Items/LoyalityCard.sol\":868:887  Updated(msg.sender) */\n      mload(0x40)\n      dup1\n      swap2\n      sub\n      swap1\n      log1\n        /* \"Items/LoyalityCard.sol\":729:895  function setItem(string memory _n, string memory _c_id) external ownerOnly {... */\n      pop\n      pop\n      jump\t// out\n        /* \"Items/VaultItem.sol\":1211:1308  function getParent() external view ownerOnly returns (address) {... */\n    tag_36:\n        /* \"Items/VaultItem.sol\":366:371  owner */\n      sload(0x01)\n        /* \"Items/VaultItem.sol\":1265:1272  address */\n      0x00\n      swap1\n        /* \"Items/VaultItem.sol\":366:371  owner */\n      0x0100\n      swap1\n      div\n      sub(shl(0xa0, 0x01), 0x01)\n      and\n        /* \"Items/VaultItem.sol\":352:362  msg.sender */\n      caller\n        /* \"Items/VaultItem.sol\":352:371  msg.sender == owner */\n      eq\n      dup1\n        /* \"Items/VaultItem.sol\":352:395  msg.sender == owner || msg.sender == parent */\n      tag_101\n      jumpi\n      pop\n        /* \"Items/VaultItem.sol\":389:395  parent */\n      and(sub(shl(0xa0, 0x01), 0x01), sload(0x02))\n        /* \"Items/VaultItem.sol\":375:385  msg.sender */\n      caller\n        /* \"Items/VaultItem.sol\":375:395  msg.sender == parent */\n      eq\n        /* \"Items/VaultItem.sol\":352:395  msg.sender == owner || msg.sender == parent */\n    tag_101:\n        /* \"Items/VaultItem.sol\":344:410  require(msg.sender == owner || msg.sender == parent, \"Only owner\") */\n      tag_102\n      jumpi\n      mload(0x40)\n      shl(0xe5, 0x461bcd)\n      dup2\n      mstore\n      0x04\n      add\n      tag_63\n      swap1\n      tag_64\n      jump\t// in\n    tag_102:\n      pop\n        /* \"Items/VaultItem.sol\":1294:1300  parent */\n      and(sub(shl(0xa0, 0x01), 0x01), sload(0x02))\n        /* \"Items/VaultItem.sol\":1211:1308  function getParent() external view ownerOnly returns (address) {... */\n      swap1\n      jump\t// out\n        /* \"Items/VaultItem.sol\":1588:1706  function getSharedWith() external view ownerOnly returns (address[] memory) {... */\n    tag_40:\n        /* \"Items/VaultItem.sol\":366:371  owner */\n      sload(0x01)\n        /* \"Items/VaultItem.sol\":1646:1662  address[] memory */\n      0x60\n      swap1\n        /* \"Items/VaultItem.sol\":366:371  owner */\n      0x0100\n      swap1\n      div\n      sub(shl(0xa0, 0x01), 0x01)\n      and\n        /* \"Items/VaultItem.sol\":352:362  msg.sender */\n      caller\n        /* \"Items/VaultItem.sol\":352:371  msg.sender == owner */\n      eq\n      dup1\n        /* \"Items/VaultItem.sol\":352:395  msg.sender == owner || msg.sender == parent */\n      tag_106\n      jumpi\n      pop\n        /* \"Items/VaultItem.sol\":389:395  parent */\n      and(sub(shl(0xa0, 0x01), 0x01), sload(0x02))\n        /* \"Items/VaultItem.sol\":375:385  msg.sender */\n      caller\n        /* \"Items/VaultItem.sol\":375:395  msg.sender == parent */\n      eq\n        /* \"Items/VaultItem.sol\":352:395  msg.sender == owner || msg.sender == parent */\n    tag_106:\n        /* \"Items/VaultItem.sol\":344:410  require(msg.sender == owner || msg.sender == parent, \"Only owner\") */\n      tag_107\n      jumpi\n      mload(0x40)\n      shl(0xe5, 0x461bcd)\n      dup2\n      mstore\n      0x04\n      add\n      tag_63\n      swap1\n      tag_64\n      jump\t// in\n    tag_107:\n        /* \"Items/VaultItem.sol\":1688:1698  sharedWith */\n      0x03\n        /* \"Items/VaultItem.sol\":1681:1698  return sharedWith */\n      dup1\n      sload\n      dup1\n      0x20\n      mul\n      0x20\n      add\n      mload(0x40)\n      swap1\n      dup2\n      add\n      0x40\n      mstore\n      dup1\n      swap3\n      swap2\n      swap1\n      dup2\n      dup2\n      mstore\n      0x20\n      add\n      dup3\n      dup1\n      sload\n      dup1\n      iszero\n      tag_110\n      jumpi\n      0x20\n      mul\n      dup3\n      add\n      swap2\n      swap1\n      0x00\n      mstore\n      keccak256(0x00, 0x20)\n      swap1\n    tag_111:\n      dup2\n      sload\n      sub(shl(0xa0, 0x01), 0x01)\n      and\n      dup2\n      mstore\n      0x01\n      swap1\n      swap2\n      add\n      swap1\n      0x20\n      add\n      dup1\n      dup4\n      gt\n      tag_111\n      jumpi\n    tag_110:\n      pop\n      pop\n      pop\n      pop\n      pop\n      swap1\n      pop\n        /* \"Items/VaultItem.sol\":1588:1706  function getSharedWith() external view ownerOnly returns (address[] memory) {... */\n      swap1\n      jump\t// out\n        /* \"Items/VaultItem.sol\":841:957  function isOwn() external view  returns (bool) {... */\n    tag_44:\n        /* \"Items/VaultItem.sol\":920:925  owner */\n      sload(0x01)\n        /* \"Items/VaultItem.sol\":882:886  bool */\n      0x00\n      swap1\n        /* \"Items/VaultItem.sol\":920:925  owner */\n      0x0100\n      swap1\n      div\n      sub(shl(0xa0, 0x01), 0x01)\n      and\n        /* \"Items/VaultItem.sol\":906:916  msg.sender */\n      caller\n        /* \"Items/VaultItem.sol\":906:925  msg.sender == owner */\n      eq\n      dup1\n        /* \"Items/VaultItem.sol\":906:949  msg.sender == owner || msg.sender == parent */\n      tag_113\n      jumpi\n      pop\n        /* \"Items/VaultItem.sol\":943:949  parent */\n      and(sub(shl(0xa0, 0x01), 0x01), sload(0x02))\n        /* \"Items/VaultItem.sol\":929:939  msg.sender */\n      caller\n        /* \"Items/VaultItem.sol\":929:949  msg.sender == parent */\n      eq\n        /* \"Items/VaultItem.sol\":906:949  msg.sender == owner || msg.sender == parent */\n    tag_113:\n        /* \"Items/VaultItem.sol\":899:949  return msg.sender == owner || msg.sender == parent */\n      swap1\n      pop\n        /* \"Items/VaultItem.sol\":841:957  function isOwn() external view  returns (bool) {... */\n      swap1\n      jump\t// out\n        /* \"Items/LoyalityCard.sol\":903:1032  function expose() external view ownerOrShared returns ( string memory, string memory) {... */\n    tag_47:\n        /* \"Items/VaultItem.sol\":492:497  owner */\n      sload(0x01)\n        /* \"Items/LoyalityCard.sol\":959:972  string memory */\n      0x60\n      swap1\n      dup2\n      swap1\n        /* \"Items/VaultItem.sol\":492:497  owner */\n      0x0100\n      swap1\n      div\n      sub(shl(0xa0, 0x01), 0x01)\n      and\n        /* \"Items/VaultItem.sol\":478:488  msg.sender */\n      caller\n        /* \"Items/VaultItem.sol\":478:497  msg.sender == owner */\n      eq\n      dup1\n        /* \"Items/VaultItem.sol\":478:559  msg.sender == owner || Constants.findAddressIndex( msg.sender, sharedWith ) != -1 */\n      tag_115\n      jumpi\n      pop\n        /* \"Items/VaultItem.sol\":501:553  Constants.findAddressIndex( msg.sender, sharedWith ) */\n      tag_116\n        /* \"Items/VaultItem.sol\":529:539  msg.sender */\n      caller\n        /* \"Items/VaultItem.sol\":541:551  sharedWith */\n      0x03\n        /* \"Items/VaultItem.sol\":501:553  Constants.findAddressIndex( msg.sender, sharedWith ) */\n      dup1\n      sload\n      dup1\n      0x20\n      mul\n      0x20\n      add\n      mload(0x40)\n      swap1\n      dup2\n      add\n      0x40\n      mstore\n      dup1\n      swap3\n      swap2\n      swap1\n      dup2\n      dup2\n      mstore\n      0x20\n      add\n      dup3\n      dup1\n      sload\n      dup1\n      iszero\n      tag_74\n      jumpi\n      0x20\n      mul\n      dup3\n      add\n      swap2\n      swap1\n      0x00\n      mstore\n      keccak256(0x00, 0x20)\n      swap1\n      dup2\n      sload\n      sub(shl(0xa0, 0x01), 0x01)\n      and\n      dup2\n      mstore\n      0x01\n      swap1\n      swap2\n      add\n      swap1\n      0x20\n      add\n      dup1\n      dup4\n      gt\n      tag_75\n      jumpi\n      pop\n      pop\n      pop\n      pop\n      pop\n        /* \"Items/VaultItem.sol\":501:527  Constants.findAddressIndex */\n      tag_76\n        /* \"Items/VaultItem.sol\":501:553  Constants.findAddressIndex( msg.sender, sharedWith ) */\n      jump\t// in\n    tag_116:\n      not(0x00)\n        /* \"Items/VaultItem.sol\":501:559  Constants.findAddressIndex( msg.sender, sharedWith ) != -1 */\n      eq\n      iszero\n        /* \"Items/VaultItem.sol\":478:559  msg.sender == owner || Constants.findAddressIndex( msg.sender, sharedWith ) != -1 */\n    tag_115:\n        /* \"Items/VaultItem.sol\":469:572  require( msg.sender == owner || Constants.findAddressIndex( msg.sender, sharedWith ) != -1, \"Restrict\") */\n      tag_119\n      jumpi\n      mload(0x40)\n      shl(0xe5, 0x461bcd)\n      dup2\n      mstore\n        /* \"#utility.yul\":7494:7496   */\n      0x20\n        /* \"Items/VaultItem.sol\":469:572  require( msg.sender == owner || Constants.findAddressIndex( msg.sender, sharedWith ) != -1, \"Restrict\") */\n      0x04\n      dup3\n      add\n        /* \"#utility.yul\":7476:7497   */\n      mstore\n        /* \"#utility.yul\":7533:7534   */\n      0x08\n        /* \"#utility.yul\":7513:7531   */\n      0x24\n      dup3\n      add\n        /* \"#utility.yul\":7506:7535   */\n      mstore\n      shl(0xc2, 0x14995cdd1c9a58dd)\n        /* \"#utility.yul\":7551:7569   */\n      0x44\n      dup3\n      add\n        /* \"#utility.yul\":7544:7582   */\n      mstore\n        /* \"#utility.yul\":7599:7617   */\n      0x64\n      add\n        /* \"Items/VaultItem.sol\":469:572  require( msg.sender == owner || Constants.findAddressIndex( msg.sender, sharedWith ) != -1, \"Restrict\") */\n      tag_63\n        /* \"#utility.yul\":7292:7623   */\n      jump\n        /* \"Items/VaultItem.sol\":469:572  require( msg.sender == owner || Constants.findAddressIndex( msg.sender, sharedWith ) != -1, \"Restrict\") */\n    tag_119:\n        /* \"Items/LoyalityCard.sol\":1009:1013  name */\n      0x00\n        /* \"Items/LoyalityCard.sol\":1015:1022  card_id */\n      0x04\n        /* \"Items/LoyalityCard.sol\":1000:1024  return ( name, card_id ) */\n      dup2\n      dup1\n      sload\n      tag_123\n      swap1\n      tag_124\n      jump\t// in\n    tag_123:\n      dup1\n      0x1f\n      add\n      0x20\n      dup1\n      swap2\n      div\n      mul\n      0x20\n      add\n      mload(0x40)\n      swap1\n      dup2\n      add\n      0x40\n      mstore\n      dup1\n      swap3\n      swap2\n      swap1\n      dup2\n      dup2\n      mstore\n      0x20\n      add\n      dup3\n      dup1\n      sload\n      tag_125\n      swap1\n      tag_124\n      jump\t// in\n    tag_125:\n      dup1\n      iszero\n      tag_126\n      jumpi\n      dup1\n      0x1f\n      lt\n      tag_127\n      jumpi\n      0x0100\n      dup1\n      dup4\n      sload\n      div\n      mul\n      dup4\n      mstore\n      swap2\n      0x20\n      add\n      swap2\n      jump(tag_126)\n    tag_127:\n      dup3\n      add\n      swap2\n      swap1\n      0x00\n      mstore\n      keccak256(0x00, 0x20)\n      swap1\n    tag_128:\n      dup2\n      sload\n      dup2\n      mstore\n      swap1\n      0x01\n      add\n      swap1\n      0x20\n      add\n      dup1\n      dup4\n      gt\n      tag_128\n      jumpi\n      dup3\n      swap1\n      sub\n      0x1f\n      and\n      dup3\n      add\n      swap2\n    tag_126:\n      pop\n      pop\n      pop\n      pop\n      pop\n      swap2\n      pop\n      dup1\n      dup1\n      sload\n      tag_129\n      swap1\n      tag_124\n      jump\t// in\n    tag_129:\n      dup1\n      0x1f\n      add\n      0x20\n      dup1\n      swap2\n      div\n      mul\n      0x20\n      add\n      mload(0x40)\n      swap1\n      dup2\n      add\n      0x40\n      mstore\n      dup1\n      swap3\n      swap2\n      swap1\n      dup2\n      dup2\n      mstore\n      0x20\n      add\n      dup3\n      dup1\n      sload\n      tag_130\n      swap1\n      tag_124\n      jump\t// in\n    tag_130:\n      dup1\n      iszero\n      tag_131\n      jumpi\n      dup1\n      0x1f\n      lt\n      tag_132\n      jumpi\n      0x0100\n      dup1\n      dup4\n      sload\n      div\n      mul\n      dup4\n      mstore\n      swap2\n      0x20\n      add\n      swap2\n      jump(tag_131)\n    tag_132:\n      dup3\n      add\n      swap2\n      swap1\n      0x00\n      mstore\n      keccak256(0x00, 0x20)\n      swap1\n    tag_133:\n      dup2\n      sload\n      dup2\n      mstore\n      swap1\n      0x01\n      add\n      swap1\n      0x20\n      add\n      dup1\n      dup4\n      gt\n      tag_133\n      jumpi\n      dup3\n      swap1\n      sub\n      0x1f\n      and\n      dup3\n      add\n      swap2\n    tag_131:\n      pop\n      pop\n      pop\n      pop\n      pop\n      swap1\n      pop\n      swap2\n      pop\n      swap2\n      pop\n        /* \"Items/LoyalityCard.sol\":903:1032  function expose() external view ownerOrShared returns ( string memory, string memory) {... */\n      swap1\n      swap2\n      jump\t// out\n        /* \"Items/VaultItem.sol\":1084:1203  function setName(string memory _n) external ownerOnly {... */\n    tag_53:\n        /* \"Items/VaultItem.sol\":366:371  owner */\n      sload(0x01)\n      0x0100\n      swap1\n      div\n      sub(shl(0xa0, 0x01), 0x01)\n      and\n        /* \"Items/VaultItem.sol\":352:362  msg.sender */\n      caller\n        /* \"Items/VaultItem.sol\":352:371  msg.sender == owner */\n      eq\n      dup1\n        /* \"Items/VaultItem.sol\":352:395  msg.sender == owner || msg.sender == parent */\n      tag_135\n      jumpi\n      pop\n        /* \"Items/VaultItem.sol\":389:395  parent */\n      and(sub(shl(0xa0, 0x01), 0x01), sload(0x02))\n        /* \"Items/VaultItem.sol\":375:385  msg.sender */\n      caller\n        /* \"Items/VaultItem.sol\":375:395  msg.sender == parent */\n      eq\n        /* \"Items/VaultItem.sol\":352:395  msg.sender == owner || msg.sender == parent */\n    tag_135:\n        /* \"Items/VaultItem.sol\":344:410  require(msg.sender == owner || msg.sender == parent, \"Only owner\") */\n      tag_136\n      jumpi\n      mload(0x40)\n      shl(0xe5, 0x461bcd)\n      dup2\n      mstore\n      0x04\n      add\n      tag_63\n      swap1\n      tag_64\n      jump\t// in\n    tag_136:\n        /* \"Items/VaultItem.sol\":1149:1153  name */\n      0x00\n        /* \"Items/VaultItem.sol\":1149:1158  name = _n */\n      tag_139\n        /* \"Items/VaultItem.sol\":1156:1158  _n */\n      dup3\n        /* \"Items/VaultItem.sol\":1149:1153  name */\n      dup3\n        /* \"Items/VaultItem.sol\":1149:1158  name = _n */\n      tag_97\n      jump\t// in\n    tag_139:\n      pop\n        /* \"Items/VaultItem.sol\":1176:1195  Updated(msg.sender) */\n      mload(0x40)\n        /* \"Items/VaultItem.sol\":1184:1194  msg.sender */\n      caller\n        /* \"#utility.yul\":2394:2445   */\n      dup2\n      mstore\n        /* \"Items/VaultItem.sol\":1176:1195  Updated(msg.sender) */\n      0xe00da2178806f37f69815e9ed5ed3072ec1d55206d60916d99b469c7daa421e4\n      swap1\n        /* \"#utility.yul\":2382:2384   */\n      0x20\n        /* \"#utility.yul\":2367:2385   */\n      add\n        /* \"Items/VaultItem.sol\":1176:1195  Updated(msg.sender) */\n      tag_66\n        /* \"#utility.yul\":2248:2451   */\n      jump\n        /* \"Items/VaultItem.sol\":1935:2291  function restictFrom( address _f ) external {... */\n    tag_56:\n      sub(shl(0xa0, 0x01), 0x01)\n        /* \"Items/VaultItem.sol\":2008:2024  _f != address(0) */\n      dup2\n      and\n      iszero\n      iszero\n      dup1\n        /* \"Items/VaultItem.sol\":2008:2095  _f != address(0) || ( msg.sender == parent || msg.sender == owner || msg.sender == _f ) */\n      tag_144\n      jumpi\n      pop\n        /* \"Items/VaultItem.sol\":2044:2050  parent */\n      and(sub(shl(0xa0, 0x01), 0x01), sload(0x02))\n        /* \"Items/VaultItem.sol\":2030:2040  msg.sender */\n      caller\n        /* \"Items/VaultItem.sol\":2030:2050  msg.sender == parent */\n      eq\n      dup1\n        /* \"Items/VaultItem.sol\":2030:2073  msg.sender == parent || msg.sender == owner */\n      tag_143\n      jumpi\n      pop\n        /* \"Items/VaultItem.sol\":2068:2073  owner */\n      sload(0x01)\n      0x0100\n      swap1\n      div\n      sub(shl(0xa0, 0x01), 0x01)\n      and\n        /* \"Items/VaultItem.sol\":2054:2064  msg.sender */\n      caller\n        /* \"Items/VaultItem.sol\":2054:2073  msg.sender == owner */\n      eq\n        /* \"Items/VaultItem.sol\":2030:2073  msg.sender == parent || msg.sender == owner */\n    tag_143:\n        /* \"Items/VaultItem.sol\":2030:2093  msg.sender == parent || msg.sender == owner || msg.sender == _f */\n      dup1\n      tag_144\n      jumpi\n      pop\n        /* \"Items/VaultItem.sol\":2077:2087  msg.sender */\n      caller\n      sub(shl(0xa0, 0x01), 0x01)\n        /* \"Items/VaultItem.sol\":2077:2093  msg.sender == _f */\n      dup3\n      and\n      eq\n        /* \"Items/VaultItem.sol\":2030:2093  msg.sender == parent || msg.sender == owner || msg.sender == _f */\n    tag_144:\n        /* \"Items/VaultItem.sol\":2000:2109  require(_f != address(0) || ( msg.sender == parent || msg.sender == owner || msg.sender == _f ), \"Forbidden\") */\n      tag_145\n      jumpi\n      mload(0x40)\n      shl(0xe5, 0x461bcd)\n      dup2\n      mstore\n        /* \"#utility.yul\":4648:4650   */\n      0x20\n        /* \"Items/VaultItem.sol\":2000:2109  require(_f != address(0) || ( msg.sender == parent || msg.sender == owner || msg.sender == _f ), \"Forbidden\") */\n      0x04\n      dup3\n      add\n        /* \"#utility.yul\":4630:4651   */\n      mstore\n        /* \"#utility.yul\":4687:4688   */\n      0x09\n        /* \"#utility.yul\":4667:4685   */\n      0x24\n      dup3\n      add\n        /* \"#utility.yul\":4660:4689   */\n      mstore\n      shl(0xb9, 0x2337b93134b23232b7)\n        /* \"#utility.yul\":4705:4723   */\n      0x44\n      dup3\n      add\n        /* \"#utility.yul\":4698:4737   */\n      mstore\n        /* \"#utility.yul\":4754:4772   */\n      0x64\n      add\n        /* \"Items/VaultItem.sol\":2000:2109  require(_f != address(0) || ( msg.sender == parent || msg.sender == owner || msg.sender == _f ), \"Forbidden\") */\n      tag_63\n        /* \"#utility.yul\":4446:4778   */\n      jump\n        /* \"Items/VaultItem.sol\":2000:2109  require(_f != address(0) || ( msg.sender == parent || msg.sender == owner || msg.sender == _f ), \"Forbidden\") */\n    tag_145:\n        /* \"Items/VaultItem.sol\":2122:2130  int _idx */\n      0x00\n        /* \"Items/VaultItem.sol\":2133:2177  Constants.findAddressIndex( _f, sharedWith ) */\n      tag_147\n        /* \"Items/VaultItem.sol\":2161:2163  _f */\n      dup3\n        /* \"Items/VaultItem.sol\":2165:2175  sharedWith */\n      0x03\n        /* \"Items/VaultItem.sol\":2133:2177  Constants.findAddressIndex( _f, sharedWith ) */\n      dup1\n      sload\n      dup1\n      0x20\n      mul\n      0x20\n      add\n      mload(0x40)\n      swap1\n      dup2\n      add\n      0x40\n      mstore\n      dup1\n      swap3\n      swap2\n      swap1\n      dup2\n      dup2\n      mstore\n      0x20\n      add\n      dup3\n      dup1\n      sload\n      dup1\n      iszero\n      tag_74\n      jumpi\n      0x20\n      mul\n      dup3\n      add\n      swap2\n      swap1\n      0x00\n      mstore\n      keccak256(0x00, 0x20)\n      swap1\n      dup2\n      sload\n      sub(shl(0xa0, 0x01), 0x01)\n      and\n      dup2\n      mstore\n      0x01\n      swap1\n      swap2\n      add\n      swap1\n      0x20\n      add\n      dup1\n      dup4\n      gt\n      tag_75\n      jumpi\n      pop\n      pop\n      pop\n      pop\n      pop\n        /* \"Items/VaultItem.sol\":2133:2159  Constants.findAddressIndex */\n      tag_76\n        /* \"Items/VaultItem.sol\":2133:2177  Constants.findAddressIndex( _f, sharedWith ) */\n      jump\t// in\n    tag_147:\n        /* \"Items/VaultItem.sol\":2122:2177  int _idx = Constants.findAddressIndex( _f, sharedWith ) */\n      swap1\n      pop\n      not(0x00)\n        /* \"Items/VaultItem.sol\":2198:2202  _idx */\n      dup2\n        /* \"Items/VaultItem.sol\":2198:2207  _idx > -1 */\n      sgt\n        /* \"Items/VaultItem.sol\":2190:2221  require(_idx > -1, \"Not found\") */\n      tag_150\n      jumpi\n      mload(0x40)\n      shl(0xe5, 0x461bcd)\n      dup2\n      mstore\n        /* \"#utility.yul\":7830:7832   */\n      0x20\n        /* \"Items/VaultItem.sol\":2190:2221  require(_idx > -1, \"Not found\") */\n      0x04\n      dup3\n      add\n        /* \"#utility.yul\":7812:7833   */\n      mstore\n        /* \"#utility.yul\":7869:7870   */\n      0x09\n        /* \"#utility.yul\":7849:7867   */\n      0x24\n      dup3\n      add\n        /* \"#utility.yul\":7842:7871   */\n      mstore\n      shl(0xba, 0x139bdd08199bdd5b99)\n        /* \"#utility.yul\":7887:7905   */\n      0x44\n      dup3\n      add\n        /* \"#utility.yul\":7880:7919   */\n      mstore\n        /* \"#utility.yul\":7936:7954   */\n      0x64\n      add\n        /* \"Items/VaultItem.sol\":2190:2221  require(_idx > -1, \"Not found\") */\n      tag_63\n        /* \"#utility.yul\":7628:7960   */\n      jump\n        /* \"Items/VaultItem.sol\":2190:2221  require(_idx > -1, \"Not found\") */\n    tag_150:\n        /* \"Items/VaultItem.sol\":2234:2281  Constants.deleteAddressFrom( _idx, sharedWith ) */\n      tag_153\n        /* \"Items/VaultItem.sol\":2263:2267  _idx */\n      dup2\n        /* \"Items/VaultItem.sol\":2269:2279  sharedWith */\n      0x03\n        /* \"Items/VaultItem.sol\":2234:2261  Constants.deleteAddressFrom */\n      tag_154\n        /* \"Items/VaultItem.sol\":2234:2281  Constants.deleteAddressFrom( _idx, sharedWith ) */\n      jump\t// in\n    tag_153:\n        /* \"Items/VaultItem.sol\":1979:2291  {... */\n      pop\n        /* \"Items/VaultItem.sol\":1935:2291  function restictFrom( address _f ) external {... */\n      pop\n      jump\t// out\n        /* \"Items/LoyalityCard.sol\":591:721  function setCardId(string memory _c_id) external ownerOnly {... */\n    tag_59:\n        /* \"Items/VaultItem.sol\":366:371  owner */\n      sload(0x01)\n      0x0100\n      swap1\n      div\n      sub(shl(0xa0, 0x01), 0x01)\n      and\n        /* \"Items/VaultItem.sol\":352:362  msg.sender */\n      caller\n        /* \"Items/VaultItem.sol\":352:371  msg.sender == owner */\n      eq\n      dup1\n        /* \"Items/VaultItem.sol\":352:395  msg.sender == owner || msg.sender == parent */\n      tag_156\n      jumpi\n      pop\n        /* \"Items/VaultItem.sol\":389:395  parent */\n      and(sub(shl(0xa0, 0x01), 0x01), sload(0x02))\n        /* \"Items/VaultItem.sol\":375:385  msg.sender */\n      caller\n        /* \"Items/VaultItem.sol\":375:395  msg.sender == parent */\n      eq\n        /* \"Items/VaultItem.sol\":352:395  msg.sender == owner || msg.sender == parent */\n    tag_156:\n        /* \"Items/VaultItem.sol\":344:410  require(msg.sender == owner || msg.sender == parent, \"Only owner\") */\n      tag_157\n      jumpi\n      mload(0x40)\n      shl(0xe5, 0x461bcd)\n      dup2\n      mstore\n      0x04\n      add\n      tag_63\n      swap1\n      tag_64\n      jump\t// in\n    tag_157:\n        /* \"Items/LoyalityCard.sol\":661:668  card_id */\n      0x04\n        /* \"Items/LoyalityCard.sol\":661:676  card_id = _c_id */\n      tag_139\n        /* \"Items/LoyalityCard.sol\":671:676  _c_id */\n      dup3\n        /* \"Items/LoyalityCard.sol\":661:668  card_id */\n      dup3\n        /* \"Items/LoyalityCard.sol\":661:676  card_id = _c_id */\n      tag_97\n      jump\t// in\n        /* \"Libs/Constants.sol\":296:522  function findAddressIndex(address _addr, address[] memory _a) internal pure returns (int) {... */\n    tag_76:\n        /* \"Libs/Constants.sol\":381:384  int */\n      0x00\n      dup1\n        /* \"Libs/Constants.sol\":397:494  for (uint i = 0; i < _a.length; i++) {... */\n    tag_163:\n        /* \"Libs/Constants.sol\":418:420  _a */\n      dup3\n        /* \"Libs/Constants.sol\":418:427  _a.length */\n      mload\n        /* \"Libs/Constants.sol\":414:415  i */\n      dup2\n        /* \"Libs/Constants.sol\":414:427  i < _a.length */\n      lt\n        /* \"Libs/Constants.sol\":397:494  for (uint i = 0; i < _a.length; i++) {... */\n      iszero\n      tag_164\n      jumpi\n        /* \"Libs/Constants.sol\":462:467  _addr */\n      dup4\n      sub(shl(0xa0, 0x01), 0x01)\n        /* \"Libs/Constants.sol\":453:467  _a[i] == _addr */\n      and\n        /* \"Libs/Constants.sol\":453:455  _a */\n      dup4\n        /* \"Libs/Constants.sol\":456:457  i */\n      dup3\n        /* \"Libs/Constants.sol\":453:458  _a[i] */\n      dup2\n      mload\n      dup2\n      lt\n      tag_167\n      jumpi\n      tag_167\n      tag_168\n      jump\t// in\n    tag_167:\n      0x20\n      mul\n      0x20\n      add\n      add\n      mload\n      sub(shl(0xa0, 0x01), 0x01)\n        /* \"Libs/Constants.sol\":453:467  _a[i] == _addr */\n      and\n      sub\n        /* \"Libs/Constants.sol\":449:482  if (_a[i] == _addr) return int(i) */\n      tag_169\n      jumpi\n        /* \"Libs/Constants.sol\":480:481  i */\n      swap1\n      pop\n        /* \"Libs/Constants.sol\":469:482  return int(i) */\n      jump(tag_162)\n        /* \"Libs/Constants.sol\":449:482  if (_a[i] == _addr) return int(i) */\n    tag_169:\n        /* \"Libs/Constants.sol\":429:432  i++ */\n      0x01\n      add\n        /* \"Libs/Constants.sol\":397:494  for (uint i = 0; i < _a.length; i++) {... */\n      jump(tag_163)\n    tag_164:\n      pop\n      not(0x00)\n        /* \"Libs/Constants.sol\":504:513  return -1 */\n      swap1\n      pop\n        /* \"Libs/Constants.sol\":296:522  function findAddressIndex(address _addr, address[] memory _a) internal pure returns (int) {... */\n    tag_162:\n      swap3\n      swap2\n      pop\n      pop\n      jump\t// out\n        /* \"Libs/Constants.sol\":531:793  function deleteAddressFrom(int idx, address[] storage _a) internal {... */\n    tag_154:\n        /* \"Libs/Constants.sol\":624:625  0 */\n      0x00\n        /* \"Libs/Constants.sol\":617:620  idx */\n      dup3\n        /* \"Libs/Constants.sol\":617:625  idx >= 0 */\n      slt\n      iszero\n        /* \"Libs/Constants.sol\":617:650  idx >= 0 && uint(idx) < _a.length */\n      dup1\n      iszero\n      tag_171\n      jumpi\n      pop\n        /* \"Libs/Constants.sol\":641:650  _a.length */\n      dup1\n      sload\n        /* \"Libs/Constants.sol\":629:650  uint(idx) < _a.length */\n      dup3\n      lt\n        /* \"Libs/Constants.sol\":617:650  idx >= 0 && uint(idx) < _a.length */\n    tag_171:\n        /* \"Libs/Constants.sol\":609:661  require(idx >= 0 && uint(idx) < _a.length, \"No idx\") */\n      tag_172\n      jumpi\n      mload(0x40)\n      shl(0xe5, 0x461bcd)\n      dup2\n      mstore\n        /* \"#utility.yul\":8299:8301   */\n      0x20\n        /* \"Libs/Constants.sol\":609:661  require(idx >= 0 && uint(idx) < _a.length, \"No idx\") */\n      0x04\n      dup3\n      add\n        /* \"#utility.yul\":8281:8302   */\n      mstore\n        /* \"#utility.yul\":8338:8339   */\n      0x06\n        /* \"#utility.yul\":8318:8336   */\n      0x24\n      dup3\n      add\n        /* \"#utility.yul\":8311:8340   */\n      mstore\n      shl(0xd3, 0x09cde40d2c8f)\n        /* \"#utility.yul\":8356:8374   */\n      0x44\n      dup3\n      add\n        /* \"#utility.yul\":8349:8385   */\n      mstore\n        /* \"#utility.yul\":8402:8420   */\n      0x64\n      add\n        /* \"Libs/Constants.sol\":609:661  require(idx >= 0 && uint(idx) < _a.length, \"No idx\") */\n      tag_63\n        /* \"#utility.yul\":8097:8426   */\n      jump\n        /* \"Libs/Constants.sol\":609:661  require(idx >= 0 && uint(idx) < _a.length, \"No idx\") */\n    tag_172:\n        /* \"Libs/Constants.sol\":691:694  idx */\n      dup2\n        /* \"Libs/Constants.sol\":672:765  for (uint i = uint(idx); i < _a.length - 1; i++) {... */\n    tag_175:\n        /* \"Libs/Constants.sol\":701:710  _a.length */\n      dup2\n      sload\n        /* \"Libs/Constants.sol\":701:714  _a.length - 1 */\n      tag_178\n      swap1\n        /* \"Libs/Constants.sol\":713:714  1 */\n      0x01\n      swap1\n        /* \"Libs/Constants.sol\":701:714  _a.length - 1 */\n      tag_179\n      jump\t// in\n    tag_178:\n        /* \"Libs/Constants.sol\":697:698  i */\n      dup2\n        /* \"Libs/Constants.sol\":697:714  i < _a.length - 1 */\n      lt\n        /* \"Libs/Constants.sol\":672:765  for (uint i = uint(idx); i < _a.length - 1; i++) {... */\n      iszero\n      tag_176\n      jumpi\n        /* \"Libs/Constants.sol\":744:746  _a */\n      dup2\n        /* \"Libs/Constants.sol\":747:752  i + 1 */\n      tag_180\n        /* \"Libs/Constants.sol\":747:748  i */\n      dup3\n        /* \"Libs/Constants.sol\":751:752  1 */\n      0x01\n        /* \"Libs/Constants.sol\":747:752  i + 1 */\n      tag_181\n      jump\t// in\n    tag_180:\n        /* \"Libs/Constants.sol\":744:753  _a[i + 1] */\n      dup2\n      sload\n      dup2\n      lt\n      tag_183\n      jumpi\n      tag_183\n      tag_168\n      jump\t// in\n    tag_183:\n      swap1\n      0x00\n      mstore\n      keccak256(0x00, 0x20)\n      add\n      0x00\n      swap1\n      sload\n      swap1\n      0x0100\n      exp\n      swap1\n      div\n      sub(shl(0xa0, 0x01), 0x01)\n      and\n        /* \"Libs/Constants.sol\":736:738  _a */\n      dup3\n        /* \"Libs/Constants.sol\":739:740  i */\n      dup3\n        /* \"Libs/Constants.sol\":736:741  _a[i] */\n      dup2\n      sload\n      dup2\n      lt\n      tag_186\n      jumpi\n      tag_186\n      tag_168\n      jump\t// in\n    tag_186:\n      0x00\n      swap2\n      dup3\n      mstore\n      0x20\n      swap1\n      swap2\n      keccak256\n      add\n        /* \"Libs/Constants.sol\":736:753  _a[i] = _a[i + 1] */\n      dup1\n      sload\n      not(sub(shl(0xa0, 0x01), 0x01))\n      and\n      sub(shl(0xa0, 0x01), 0x01)\n      swap3\n      swap1\n      swap3\n      and\n      swap2\n      swap1\n      swap2\n      or\n      swap1\n      sstore\n      0x01\n        /* \"Libs/Constants.sol\":716:719  i++ */\n      add\n        /* \"Libs/Constants.sol\":672:765  for (uint i = uint(idx); i < _a.length - 1; i++) {... */\n      jump(tag_175)\n    tag_176:\n      pop\n        /* \"Libs/Constants.sol\":777:779  _a */\n      dup1\n        /* \"Libs/Constants.sol\":777:785  _a.pop() */\n      dup1\n      sload\n      dup1\n      tag_189\n      jumpi\n      tag_189\n      tag_190\n      jump\t// in\n    tag_189:\n      0x00\n      dup3\n      dup2\n      mstore\n      0x20\n      swap1\n      keccak256\n      dup2\n      add\n      not(0x00)\n      swap1\n      dup2\n      add\n      dup1\n      sload\n      not(sub(shl(0xa0, 0x01), 0x01))\n      and\n      swap1\n      sstore\n      add\n      swap1\n      sstore\n      pop\n      pop\n        /* \"Libs/Constants.sol\":531:793  function deleteAddressFrom(int idx, address[] storage _a) internal {... */\n      jump\t// out\n        /* \"#utility.yul\":14:300   */\n    tag_18:\n        /* \"#utility.yul\":73:79   */\n      0x00\n        /* \"#utility.yul\":126:128   */\n      0x20\n        /* \"#utility.yul\":114:123   */\n      dup3\n        /* \"#utility.yul\":105:112   */\n      dup5\n        /* \"#utility.yul\":101:124   */\n      sub\n        /* \"#utility.yul\":97:129   */\n      slt\n        /* \"#utility.yul\":94:146   */\n      iszero\n      tag_201\n      jumpi\n        /* \"#utility.yul\":142:143   */\n      0x00\n        /* \"#utility.yul\":139:140   */\n      dup1\n        /* \"#utility.yul\":132:144   */\n      revert\n        /* \"#utility.yul\":94:146   */\n    tag_201:\n        /* \"#utility.yul\":168:191   */\n      dup2\n      calldataload\n      sub(shl(0xa0, 0x01), 0x01)\n        /* \"#utility.yul\":220:251   */\n      dup2\n      and\n        /* \"#utility.yul\":210:252   */\n      dup2\n      eq\n        /* \"#utility.yul\":200:270   */\n      tag_202\n      jumpi\n        /* \"#utility.yul\":266:267   */\n      0x00\n        /* \"#utility.yul\":263:264   */\n      dup1\n        /* \"#utility.yul\":256:268   */\n      revert\n        /* \"#utility.yul\":200:270   */\n    tag_202:\n        /* \"#utility.yul\":289:294   */\n      swap4\n        /* \"#utility.yul\":14:300   */\n      swap3\n      pop\n      pop\n      pop\n      jump\t// out\n        /* \"#utility.yul\":305:645   */\n    tag_23:\n        /* \"#utility.yul\":449:451   */\n      0x20\n        /* \"#utility.yul\":434:452   */\n      dup2\n      add\n        /* \"#utility.yul\":482:483   */\n      0x03\n        /* \"#utility.yul\":471:484   */\n      dup4\n      lt\n        /* \"#utility.yul\":461:605   */\n      tag_204\n      jumpi\n        /* \"#utility.yul\":527:537   */\n      0x4e487b71\n        /* \"#utility.yul\":522:525   */\n      0xe0\n        /* \"#utility.yul\":518:538   */\n      shl\n        /* \"#utility.yul\":515:516   */\n      0x00\n        /* \"#utility.yul\":508:539   */\n      mstore\n        /* \"#utility.yul\":562:566   */\n      0x21\n        /* \"#utility.yul\":559:560   */\n      0x04\n        /* \"#utility.yul\":552:567   */\n      mstore\n        /* \"#utility.yul\":590:594   */\n      0x24\n        /* \"#utility.yul\":587:588   */\n      0x00\n        /* \"#utility.yul\":580:595   */\n      revert\n        /* \"#utility.yul\":461:605   */\n    tag_204:\n        /* \"#utility.yul\":614:639   */\n      swap2\n      swap1\n      mstore\n        /* \"#utility.yul\":305:645   */\n      swap1\n      jump\t// out\n        /* \"#utility.yul\":842:969   */\n    tag_192:\n        /* \"#utility.yul\":903:913   */\n      0x4e487b71\n        /* \"#utility.yul\":898:901   */\n      0xe0\n        /* \"#utility.yul\":894:914   */\n      shl\n        /* \"#utility.yul\":891:892   */\n      0x00\n        /* \"#utility.yul\":884:915   */\n      mstore\n        /* \"#utility.yul\":934:938   */\n      0x41\n        /* \"#utility.yul\":931:932   */\n      0x04\n        /* \"#utility.yul\":924:939   */\n      mstore\n        /* \"#utility.yul\":958:962   */\n      0x24\n        /* \"#utility.yul\":955:956   */\n      0x00\n        /* \"#utility.yul\":948:963   */\n      revert\n        /* \"#utility.yul\":974:1700   */\n    tag_193:\n        /* \"#utility.yul\":1017:1022   */\n      0x00\n        /* \"#utility.yul\":1070:1073   */\n      dup3\n        /* \"#utility.yul\":1063:1067   */\n      0x1f\n        /* \"#utility.yul\":1055:1061   */\n      dup4\n        /* \"#utility.yul\":1051:1068   */\n      add\n        /* \"#utility.yul\":1047:1074   */\n      slt\n        /* \"#utility.yul\":1037:1092   */\n      tag_208\n      jumpi\n        /* \"#utility.yul\":1088:1089   */\n      0x00\n        /* \"#utility.yul\":1085:1086   */\n      dup1\n        /* \"#utility.yul\":1078:1090   */\n      revert\n        /* \"#utility.yul\":1037:1092   */\n    tag_208:\n        /* \"#utility.yul\":1128:1134   */\n      dup2\n        /* \"#utility.yul\":1115:1135   */\n      calldataload\n        /* \"#utility.yul\":1158:1176   */\n      0xffffffffffffffff\n        /* \"#utility.yul\":1150:1156   */\n      dup2\n        /* \"#utility.yul\":1147:1177   */\n      gt\n        /* \"#utility.yul\":1144:1200   */\n      iszero\n      tag_210\n      jumpi\n        /* \"#utility.yul\":1180:1198   */\n      tag_210\n      tag_192\n      jump\t// in\n    tag_210:\n        /* \"#utility.yul\":1229:1231   */\n      0x40\n        /* \"#utility.yul\":1223:1232   */\n      mload\n        /* \"#utility.yul\":1321:1323   */\n      0x1f\n        /* \"#utility.yul\":1283:1300   */\n      dup3\n      add\n      not(0x1f)\n        /* \"#utility.yul\":1279:1310   */\n      swap1\n      dup2\n      and\n        /* \"#utility.yul\":1312:1314   */\n      0x3f\n        /* \"#utility.yul\":1275:1315   */\n      add\n        /* \"#utility.yul\":1271:1325   */\n      and\n        /* \"#utility.yul\":1259:1326   */\n      dup2\n      add\n        /* \"#utility.yul\":1356:1374   */\n      0xffffffffffffffff\n        /* \"#utility.yul\":1341:1375   */\n      dup2\n      gt\n        /* \"#utility.yul\":1377:1399   */\n      dup3\n      dup3\n      lt\n        /* \"#utility.yul\":1338:1400   */\n      or\n        /* \"#utility.yul\":1335:1423   */\n      iszero\n      tag_212\n      jumpi\n        /* \"#utility.yul\":1403:1421   */\n      tag_212\n      tag_192\n      jump\t// in\n    tag_212:\n        /* \"#utility.yul\":1439:1441   */\n      0x40\n        /* \"#utility.yul\":1432:1454   */\n      mstore\n        /* \"#utility.yul\":1463:1485   */\n      dup2\n      dup2\n      mstore\n        /* \"#utility.yul\":1504:1523   */\n      dup4\n      dup3\n      add\n        /* \"#utility.yul\":1525:1529   */\n      0x20\n        /* \"#utility.yul\":1500:1530   */\n      add\n        /* \"#utility.yul\":1497:1536   */\n      dup6\n      lt\n        /* \"#utility.yul\":1494:1553   */\n      iszero\n      tag_213\n      jumpi\n        /* \"#utility.yul\":1549:1550   */\n      0x00\n        /* \"#utility.yul\":1546:1547   */\n      dup1\n        /* \"#utility.yul\":1539:1551   */\n      revert\n        /* \"#utility.yul\":1494:1553   */\n    tag_213:\n        /* \"#utility.yul\":1613:1619   */\n      dup2\n        /* \"#utility.yul\":1606:1610   */\n      0x20\n        /* \"#utility.yul\":1598:1604   */\n      dup6\n        /* \"#utility.yul\":1594:1611   */\n      add\n        /* \"#utility.yul\":1587:1591   */\n      0x20\n        /* \"#utility.yul\":1579:1585   */\n      dup4\n        /* \"#utility.yul\":1575:1592   */\n      add\n        /* \"#utility.yul\":1562:1620   */\n      calldatacopy\n        /* \"#utility.yul\":1668:1669   */\n      0x00\n        /* \"#utility.yul\":1640:1659   */\n      swap2\n      dup2\n      add\n        /* \"#utility.yul\":1661:1665   */\n      0x20\n        /* \"#utility.yul\":1636:1666   */\n      add\n        /* \"#utility.yul\":1629:1670   */\n      swap2\n      swap1\n      swap2\n      mstore\n        /* \"#utility.yul\":1644:1650   */\n      swap4\n        /* \"#utility.yul\":974:1700   */\n      swap3\n      pop\n      pop\n      pop\n      jump\t// out\n        /* \"#utility.yul\":1705:2243   */\n    tag_33:\n        /* \"#utility.yul\":1793:1799   */\n      0x00\n        /* \"#utility.yul\":1801:1807   */\n      dup1\n        /* \"#utility.yul\":1854:1856   */\n      0x40\n        /* \"#utility.yul\":1842:1851   */\n      dup4\n        /* \"#utility.yul\":1833:1840   */\n      dup6\n        /* \"#utility.yul\":1829:1852   */\n      sub\n        /* \"#utility.yul\":1825:1857   */\n      slt\n        /* \"#utility.yul\":1822:1874   */\n      iszero\n      tag_215\n      jumpi\n        /* \"#utility.yul\":1870:1871   */\n      0x00\n        /* \"#utility.yul\":1867:1868   */\n      dup1\n        /* \"#utility.yul\":1860:1872   */\n      revert\n        /* \"#utility.yul\":1822:1874   */\n    tag_215:\n        /* \"#utility.yul\":1910:1919   */\n      dup3\n        /* \"#utility.yul\":1897:1920   */\n      calldataload\n        /* \"#utility.yul\":1943:1961   */\n      0xffffffffffffffff\n        /* \"#utility.yul\":1935:1941   */\n      dup2\n        /* \"#utility.yul\":1932:1962   */\n      gt\n        /* \"#utility.yul\":1929:1979   */\n      iszero\n      tag_216\n      jumpi\n        /* \"#utility.yul\":1975:1976   */\n      0x00\n        /* \"#utility.yul\":1972:1973   */\n      dup1\n        /* \"#utility.yul\":1965:1977   */\n      revert\n        /* \"#utility.yul\":1929:1979   */\n    tag_216:\n        /* \"#utility.yul\":1998:2048   */\n      tag_217\n        /* \"#utility.yul\":2040:2047   */\n      dup6\n        /* \"#utility.yul\":2031:2037   */\n      dup3\n        /* \"#utility.yul\":2020:2029   */\n      dup7\n        /* \"#utility.yul\":2016:2038   */\n      add\n        /* \"#utility.yul\":1998:2048   */\n      tag_193\n      jump\t// in\n    tag_217:\n        /* \"#utility.yul\":1988:2048   */\n      swap3\n      pop\n      pop\n        /* \"#utility.yul\":2101:2103   */\n      0x20\n        /* \"#utility.yul\":2090:2099   */\n      dup4\n        /* \"#utility.yul\":2086:2104   */\n      add\n        /* \"#utility.yul\":2073:2105   */\n      calldataload\n        /* \"#utility.yul\":2130:2148   */\n      0xffffffffffffffff\n        /* \"#utility.yul\":2120:2128   */\n      dup2\n        /* \"#utility.yul\":2117:2149   */\n      gt\n        /* \"#utility.yul\":2114:2166   */\n      iszero\n      tag_218\n      jumpi\n        /* \"#utility.yul\":2162:2163   */\n      0x00\n        /* \"#utility.yul\":2159:2160   */\n      dup1\n        /* \"#utility.yul\":2152:2164   */\n      revert\n        /* \"#utility.yul\":2114:2166   */\n    tag_218:\n        /* \"#utility.yul\":2185:2237   */\n      tag_219\n        /* \"#utility.yul\":2229:2236   */\n      dup6\n        /* \"#utility.yul\":2218:2226   */\n      dup3\n        /* \"#utility.yul\":2207:2216   */\n      dup7\n        /* \"#utility.yul\":2203:2227   */\n      add\n        /* \"#utility.yul\":2185:2237   */\n      tag_193\n      jump\t// in\n    tag_219:\n        /* \"#utility.yul\":2175:2237   */\n      swap2\n      pop\n      pop\n        /* \"#utility.yul\":1705:2243   */\n      swap3\n      pop\n      swap3\n      swap1\n      pop\n      jump\t// out\n        /* \"#utility.yul\":2456:3093   */\n    tag_42:\n        /* \"#utility.yul\":2646:2648   */\n      0x20\n        /* \"#utility.yul\":2658:2679   */\n      dup1\n      dup3\n      mstore\n        /* \"#utility.yul\":2728:2741   */\n      dup3\n      mload\n        /* \"#utility.yul\":2631:2649   */\n      dup3\n      dup3\n      add\n        /* \"#utility.yul\":2750:2772   */\n      dup2\n      swap1\n      mstore\n        /* \"#utility.yul\":2598:2602   */\n      0x00\n      swap2\n        /* \"#utility.yul\":2829:2844   */\n      dup5\n      add\n      swap1\n        /* \"#utility.yul\":2803:2805   */\n      0x40\n        /* \"#utility.yul\":2788:2806   */\n      dup5\n      add\n      swap1\n        /* \"#utility.yul\":2598:2602   */\n      dup4\n        /* \"#utility.yul\":2872:3067   */\n    tag_222:\n        /* \"#utility.yul\":2886:2892   */\n      dup2\n        /* \"#utility.yul\":2883:2884   */\n      dup2\n        /* \"#utility.yul\":2880:2893   */\n      lt\n        /* \"#utility.yul\":2872:3067   */\n      iszero\n      tag_224\n      jumpi\n        /* \"#utility.yul\":2951:2964   */\n      dup4\n      mload\n      sub(shl(0xa0, 0x01), 0x01)\n        /* \"#utility.yul\":2947:2986   */\n      and\n        /* \"#utility.yul\":2935:2987   */\n      dup4\n      mstore\n        /* \"#utility.yul\":3016:3018   */\n      0x20\n        /* \"#utility.yul\":3042:3057   */\n      swap4\n      dup5\n      add\n      swap4\n        /* \"#utility.yul\":3007:3019   */\n      swap1\n      swap3\n      add\n      swap2\n        /* \"#utility.yul\":2983:2984   */\n      0x01\n        /* \"#utility.yul\":2901:2910   */\n      add\n        /* \"#utility.yul\":2872:3067   */\n      jump(tag_222)\n    tag_224:\n      pop\n        /* \"#utility.yul\":3084:3087   */\n      swap1\n      swap6\n        /* \"#utility.yul\":2456:3093   */\n      swap5\n      pop\n      pop\n      pop\n      pop\n      pop\n      jump\t// out\n        /* \"#utility.yul\":3098:3387   */\n    tag_194:\n        /* \"#utility.yul\":3140:3143   */\n      0x00\n        /* \"#utility.yul\":3178:3183   */\n      dup2\n        /* \"#utility.yul\":3172:3184   */\n      mload\n        /* \"#utility.yul\":3205:3211   */\n      dup1\n        /* \"#utility.yul\":3200:3203   */\n      dup5\n        /* \"#utility.yul\":3193:3212   */\n      mstore\n        /* \"#utility.yul\":3261:3267   */\n      dup1\n        /* \"#utility.yul\":3254:3258   */\n      0x20\n        /* \"#utility.yul\":3247:3252   */\n      dup5\n        /* \"#utility.yul\":3243:3259   */\n      add\n        /* \"#utility.yul\":3236:3240   */\n      0x20\n        /* \"#utility.yul\":3231:3234   */\n      dup7\n        /* \"#utility.yul\":3227:3241   */\n      add\n        /* \"#utility.yul\":3221:3268   */\n      mcopy\n        /* \"#utility.yul\":3313:3314   */\n      0x00\n        /* \"#utility.yul\":3306:3310   */\n      0x20\n        /* \"#utility.yul\":3297:3303   */\n      dup3\n        /* \"#utility.yul\":3292:3295   */\n      dup7\n        /* \"#utility.yul\":3288:3304   */\n      add\n        /* \"#utility.yul\":3284:3311   */\n      add\n        /* \"#utility.yul\":3277:3315   */\n      mstore\n        /* \"#utility.yul\":3376:3380   */\n      0x20\n        /* \"#utility.yul\":3369:3371   */\n      0x1f\n        /* \"#utility.yul\":3365:3372   */\n      not\n        /* \"#utility.yul\":3360:3362   */\n      0x1f\n        /* \"#utility.yul\":3352:3358   */\n      dup4\n        /* \"#utility.yul\":3348:3363   */\n      add\n        /* \"#utility.yul\":3344:3373   */\n      and\n        /* \"#utility.yul\":3339:3342   */\n      dup6\n        /* \"#utility.yul\":3335:3374   */\n      add\n        /* \"#utility.yul\":3331:3381   */\n      add\n        /* \"#utility.yul\":3324:3381   */\n      swap2\n      pop\n      pop\n        /* \"#utility.yul\":3098:3387   */\n      swap3\n      swap2\n      pop\n      pop\n      jump\t// out\n        /* \"#utility.yul\":3392:3775   */\n    tag_49:\n        /* \"#utility.yul\":3589:3591   */\n      0x40\n        /* \"#utility.yul\":3578:3587   */\n      dup2\n        /* \"#utility.yul\":3571:3592   */\n      mstore\n        /* \"#utility.yul\":3552:3556   */\n      0x00\n        /* \"#utility.yul\":3615:3660   */\n      tag_227\n        /* \"#utility.yul\":3656:3658   */\n      0x40\n        /* \"#utility.yul\":3645:3654   */\n      dup4\n        /* \"#utility.yul\":3641:3659   */\n      add\n        /* \"#utility.yul\":3633:3639   */\n      dup6\n        /* \"#utility.yul\":3615:3660   */\n      tag_194\n      jump\t// in\n    tag_227:\n        /* \"#utility.yul\":3708:3717   */\n      dup3\n        /* \"#utility.yul\":3700:3706   */\n      dup2\n        /* \"#utility.yul\":3696:3718   */\n      sub\n        /* \"#utility.yul\":3691:3693   */\n      0x20\n        /* \"#utility.yul\":3680:3689   */\n      dup5\n        /* \"#utility.yul\":3676:3694   */\n      add\n        /* \"#utility.yul\":3669:3719   */\n      mstore\n        /* \"#utility.yul\":3736:3769   */\n      tag_228\n        /* \"#utility.yul\":3762:3768   */\n      dup2\n        /* \"#utility.yul\":3754:3760   */\n      dup6\n        /* \"#utility.yul\":3736:3769   */\n      tag_194\n      jump\t// in\n    tag_228:\n        /* \"#utility.yul\":3728:3769   */\n      swap6\n        /* \"#utility.yul\":3392:3775   */\n      swap5\n      pop\n      pop\n      pop\n      pop\n      pop\n      jump\t// out\n        /* \"#utility.yul\":3780:4102   */\n    tag_52:\n        /* \"#utility.yul\":3849:3855   */\n      0x00\n        /* \"#utility.yul\":3902:3904   */\n      0x20\n        /* \"#utility.yul\":3890:3899   */\n      dup3\n        /* \"#utility.yul\":3881:3888   */\n      dup5\n        /* \"#utility.yul\":3877:3900   */\n      sub\n        /* \"#utility.yul\":3873:3905   */\n      slt\n        /* \"#utility.yul\":3870:3922   */\n      iszero\n      tag_230\n      jumpi\n        /* \"#utility.yul\":3918:3919   */\n      0x00\n        /* \"#utility.yul\":3915:3916   */\n      dup1\n        /* \"#utility.yul\":3908:3920   */\n      revert\n        /* \"#utility.yul\":3870:3922   */\n    tag_230:\n        /* \"#utility.yul\":3958:3967   */\n      dup2\n        /* \"#utility.yul\":3945:3968   */\n      calldataload\n        /* \"#utility.yul\":3991:4009   */\n      0xffffffffffffffff\n        /* \"#utility.yul\":3983:3989   */\n      dup2\n        /* \"#utility.yul\":3980:4010   */\n      gt\n        /* \"#utility.yul\":3977:4027   */\n      iszero\n      tag_231\n      jumpi\n        /* \"#utility.yul\":4023:4024   */\n      0x00\n        /* \"#utility.yul\":4020:4021   */\n      dup1\n        /* \"#utility.yul\":4013:4025   */\n      revert\n        /* \"#utility.yul\":3977:4027   */\n    tag_231:\n        /* \"#utility.yul\":4046:4096   */\n      tag_232\n        /* \"#utility.yul\":4088:4095   */\n      dup5\n        /* \"#utility.yul\":4079:4085   */\n      dup3\n        /* \"#utility.yul\":4068:4077   */\n      dup6\n        /* \"#utility.yul\":4064:4086   */\n      add\n        /* \"#utility.yul\":4046:4096   */\n      tag_193\n      jump\t// in\n    tag_232:\n        /* \"#utility.yul\":4036:4096   */\n      swap5\n        /* \"#utility.yul\":3780:4102   */\n      swap4\n      pop\n      pop\n      pop\n      pop\n      jump\t// out\n        /* \"#utility.yul\":4107:4441   */\n    tag_64:\n        /* \"#utility.yul\":4309:4311   */\n      0x20\n        /* \"#utility.yul\":4291:4312   */\n      dup1\n      dup3\n      mstore\n        /* \"#utility.yul\":4348:4350   */\n      0x0a\n        /* \"#utility.yul\":4328:4346   */\n      swap1\n      dup3\n      add\n        /* \"#utility.yul\":4321:4351   */\n      mstore\n      shl(0xb1, 0x27b7363c9037bbb732b9)\n        /* \"#utility.yul\":4382:4384   */\n      0x40\n        /* \"#utility.yul\":4367:4385   */\n      dup3\n      add\n        /* \"#utility.yul\":4360:4400   */\n      mstore\n        /* \"#utility.yul\":4432:4434   */\n      0x60\n        /* \"#utility.yul\":4417:4435   */\n      add\n      swap1\n        /* \"#utility.yul\":4107:4441   */\n      jump\t// out\n        /* \"#utility.yul\":4783:5163   */\n    tag_124:\n        /* \"#utility.yul\":4862:4863   */\n      0x01\n        /* \"#utility.yul\":4858:4870   */\n      dup2\n      dup2\n      shr\n      swap1\n        /* \"#utility.yul\":4905:4917   */\n      dup3\n      and\n      dup1\n        /* \"#utility.yul\":4926:4987   */\n      tag_236\n      jumpi\n        /* \"#utility.yul\":4980:4984   */\n      0x7f\n        /* \"#utility.yul\":4972:4978   */\n      dup3\n        /* \"#utility.yul\":4968:4985   */\n      and\n        /* \"#utility.yul\":4958:4985   */\n      swap2\n      pop\n        /* \"#utility.yul\":4926:4987   */\n    tag_236:\n        /* \"#utility.yul\":5033:5035   */\n      0x20\n        /* \"#utility.yul\":5025:5031   */\n      dup3\n        /* \"#utility.yul\":5022:5036   */\n      lt\n        /* \"#utility.yul\":5002:5020   */\n      dup2\n        /* \"#utility.yul\":4999:5037   */\n      sub\n        /* \"#utility.yul\":4996:5157   */\n      tag_237\n      jumpi\n        /* \"#utility.yul\":5079:5089   */\n      0x4e487b71\n        /* \"#utility.yul\":5074:5077   */\n      0xe0\n        /* \"#utility.yul\":5070:5090   */\n      shl\n        /* \"#utility.yul\":5067:5068   */\n      0x00\n        /* \"#utility.yul\":5060:5091   */\n      mstore\n        /* \"#utility.yul\":5114:5118   */\n      0x22\n        /* \"#utility.yul\":5111:5112   */\n      0x04\n        /* \"#utility.yul\":5104:5119   */\n      mstore\n        /* \"#utility.yul\":5142:5146   */\n      0x24\n        /* \"#utility.yul\":5139:5140   */\n      0x00\n        /* \"#utility.yul\":5132:5147   */\n      revert\n        /* \"#utility.yul\":4996:5157   */\n    tag_237:\n      pop\n        /* \"#utility.yul\":4783:5163   */\n      swap2\n      swap1\n      pop\n      jump\t// out\n        /* \"#utility.yul\":5294:5812   */\n    tag_196:\n        /* \"#utility.yul\":5396:5398   */\n      0x1f\n        /* \"#utility.yul\":5391:5394   */\n      dup3\n        /* \"#utility.yul\":5388:5399   */\n      gt\n        /* \"#utility.yul\":5385:5806   */\n      iszero\n      tag_240\n      jumpi\n        /* \"#utility.yul\":5432:5437   */\n      dup1\n        /* \"#utility.yul\":5429:5430   */\n      0x00\n        /* \"#utility.yul\":5422:5438   */\n      mstore\n        /* \"#utility.yul\":5476:5480   */\n      0x20\n        /* \"#utility.yul\":5473:5474   */\n      0x00\n        /* \"#utility.yul\":5463:5481   */\n      keccak256\n        /* \"#utility.yul\":5546:5548   */\n      0x1f\n        /* \"#utility.yul\":5534:5544   */\n      dup5\n        /* \"#utility.yul\":5530:5549   */\n      add\n        /* \"#utility.yul\":5527:5528   */\n      0x05\n        /* \"#utility.yul\":5523:5550   */\n      shr\n        /* \"#utility.yul\":5517:5521   */\n      dup2\n        /* \"#utility.yul\":5513:5551   */\n      add\n        /* \"#utility.yul\":5582:5586   */\n      0x20\n        /* \"#utility.yul\":5570:5580   */\n      dup6\n        /* \"#utility.yul\":5567:5587   */\n      lt\n        /* \"#utility.yul\":5564:5611   */\n      iszero\n      tag_241\n      jumpi\n      pop\n        /* \"#utility.yul\":5605:5609   */\n      dup1\n        /* \"#utility.yul\":5564:5611   */\n    tag_241:\n        /* \"#utility.yul\":5660:5662   */\n      0x1f\n        /* \"#utility.yul\":5655:5658   */\n      dup5\n        /* \"#utility.yul\":5651:5663   */\n      add\n        /* \"#utility.yul\":5648:5649   */\n      0x05\n        /* \"#utility.yul\":5644:5664   */\n      shr\n        /* \"#utility.yul\":5638:5642   */\n      dup3\n        /* \"#utility.yul\":5634:5665   */\n      add\n        /* \"#utility.yul\":5624:5665   */\n      swap2\n      pop\n        /* \"#utility.yul\":5715:5796   */\n    tag_242:\n        /* \"#utility.yul\":5733:5735   */\n      dup2\n        /* \"#utility.yul\":5726:5731   */\n      dup2\n        /* \"#utility.yul\":5723:5736   */\n      lt\n        /* \"#utility.yul\":5715:5796   */\n      iszero\n      tag_244\n      jumpi\n        /* \"#utility.yul\":5792:5793   */\n      0x00\n        /* \"#utility.yul\":5778:5794   */\n      dup2\n      sstore\n        /* \"#utility.yul\":5759:5760   */\n      0x01\n        /* \"#utility.yul\":5748:5761   */\n      add\n        /* \"#utility.yul\":5715:5796   */\n      jump(tag_242)\n    tag_244:\n        /* \"#utility.yul\":5719:5722   */\n      pop\n      pop\n        /* \"#utility.yul\":5385:5806   */\n    tag_240:\n        /* \"#utility.yul\":5294:5812   */\n      pop\n      pop\n      pop\n      jump\t// out\n        /* \"#utility.yul\":5988:7287   */\n    tag_97:\n        /* \"#utility.yul\":6114:6117   */\n      dup2\n        /* \"#utility.yul\":6108:6118   */\n      mload\n        /* \"#utility.yul\":6141:6159   */\n      0xffffffffffffffff\n        /* \"#utility.yul\":6133:6139   */\n      dup2\n        /* \"#utility.yul\":6130:6160   */\n      gt\n        /* \"#utility.yul\":6127:6183   */\n      iszero\n      tag_248\n      jumpi\n        /* \"#utility.yul\":6163:6181   */\n      tag_248\n      tag_192\n      jump\t// in\n    tag_248:\n        /* \"#utility.yul\":6192:6289   */\n      tag_249\n        /* \"#utility.yul\":6282:6288   */\n      dup2\n        /* \"#utility.yul\":6242:6280   */\n      tag_250\n        /* \"#utility.yul\":6274:6278   */\n      dup5\n        /* \"#utility.yul\":6268:6279   */\n      sload\n        /* \"#utility.yul\":6242:6280   */\n      tag_124\n      jump\t// in\n    tag_250:\n        /* \"#utility.yul\":6236:6240   */\n      dup5\n        /* \"#utility.yul\":6192:6289   */\n      tag_196\n      jump\t// in\n    tag_249:\n        /* \"#utility.yul\":6338:6342   */\n      0x20\n        /* \"#utility.yul\":6369:6371   */\n      0x1f\n        /* \"#utility.yul\":6358:6372   */\n      dup3\n      gt\n        /* \"#utility.yul\":6386:6387   */\n      0x01\n        /* \"#utility.yul\":6381:7030   */\n      dup2\n      eq\n      tag_252\n      jumpi\n        /* \"#utility.yul\":7074:7075   */\n      0x00\n        /* \"#utility.yul\":7091:7097   */\n      dup4\n        /* \"#utility.yul\":7088:7177   */\n      iszero\n      tag_253\n      jumpi\n      pop\n        /* \"#utility.yul\":7143:7162   */\n      dup5\n      dup3\n      add\n        /* \"#utility.yul\":7137:7163   */\n      mload\n        /* \"#utility.yul\":7088:7177   */\n    tag_253:\n      not(0x00)\n        /* \"#utility.yul\":5945:5946   */\n      0x03\n        /* \"#utility.yul\":5941:5952   */\n      dup6\n      swap1\n      shl\n        /* \"#utility.yul\":5937:5961   */\n      shr\n        /* \"#utility.yul\":5933:5962   */\n      not\n        /* \"#utility.yul\":5923:5963   */\n      and\n        /* \"#utility.yul\":5969:5970   */\n      0x01\n        /* \"#utility.yul\":5965:5976   */\n      dup5\n      swap1\n      shl\n        /* \"#utility.yul\":5920:5977   */\n      or\n        /* \"#utility.yul\":7190:7271   */\n      dup5\n      sstore\n        /* \"#utility.yul\":6351:7281   */\n      jump(tag_244)\n        /* \"#utility.yul\":6381:7030   */\n    tag_252:\n        /* \"#utility.yul\":5241:5242   */\n      0x00\n        /* \"#utility.yul\":5234:5248   */\n      dup5\n      dup2\n      mstore\n        /* \"#utility.yul\":5278:5282   */\n      0x20\n        /* \"#utility.yul\":5265:5283   */\n      dup2\n      keccak256\n      not(0x1f)\n        /* \"#utility.yul\":6417:6437   */\n      dup6\n      and\n      swap2\n        /* \"#utility.yul\":6535:6757   */\n    tag_256:\n        /* \"#utility.yul\":6549:6556   */\n      dup3\n        /* \"#utility.yul\":6546:6547   */\n      dup2\n        /* \"#utility.yul\":6543:6557   */\n      lt\n        /* \"#utility.yul\":6535:6757   */\n      iszero\n      tag_258\n      jumpi\n        /* \"#utility.yul\":6631:6650   */\n      dup8\n      dup6\n      add\n        /* \"#utility.yul\":6625:6651   */\n      mload\n        /* \"#utility.yul\":6610:6652   */\n      dup3\n      sstore\n        /* \"#utility.yul\":6738:6742   */\n      0x20\n        /* \"#utility.yul\":6723:6743   */\n      swap5\n      dup6\n      add\n      swap5\n        /* \"#utility.yul\":6691:6692   */\n      0x01\n        /* \"#utility.yul\":6679:6693   */\n      swap1\n      swap3\n      add\n      swap2\n        /* \"#utility.yul\":6565:6577   */\n      add\n        /* \"#utility.yul\":6535:6757   */\n      jump(tag_256)\n    tag_258:\n        /* \"#utility.yul\":6539:6542   */\n      pop\n        /* \"#utility.yul\":6785:6791   */\n      dup5\n        /* \"#utility.yul\":6776:6783   */\n      dup3\n        /* \"#utility.yul\":6773:6792   */\n      lt\n        /* \"#utility.yul\":6770:6971   */\n      iszero\n      tag_259\n      jumpi\n        /* \"#utility.yul\":6846:6865   */\n      dup7\n      dup5\n      add\n        /* \"#utility.yul\":6840:6866   */\n      mload\n      not(0x00)\n        /* \"#utility.yul\":6929:6930   */\n      0x03\n        /* \"#utility.yul\":6925:6939   */\n      dup8\n      swap1\n      shl\n        /* \"#utility.yul\":6941:6944   */\n      0xf8\n        /* \"#utility.yul\":6921:6945   */\n      and\n        /* \"#utility.yul\":6917:6954   */\n      shr\n        /* \"#utility.yul\":6913:6955   */\n      not\n        /* \"#utility.yul\":6898:6956   */\n      and\n        /* \"#utility.yul\":6883:6957   */\n      dup2\n      sstore\n        /* \"#utility.yul\":6770:6971   */\n    tag_259:\n      pop\n      pop\n      pop\n      pop\n        /* \"#utility.yul\":7017:7018   */\n      0x01\n        /* \"#utility.yul\":7001:7015   */\n      swap1\n      dup2\n      shl\n        /* \"#utility.yul\":6997:7019   */\n      add\n        /* \"#utility.yul\":6984:7020   */\n      swap1\n      sstore\n      pop\n        /* \"#utility.yul\":5988:7287   */\n      jump\t// out\n        /* \"#utility.yul\":7965:8092   */\n    tag_168:\n        /* \"#utility.yul\":8026:8036   */\n      0x4e487b71\n        /* \"#utility.yul\":8021:8024   */\n      0xe0\n        /* \"#utility.yul\":8017:8037   */\n      shl\n        /* \"#utility.yul\":8014:8015   */\n      0x00\n        /* \"#utility.yul\":8007:8038   */\n      mstore\n        /* \"#utility.yul\":8057:8061   */\n      0x32\n        /* \"#utility.yul\":8054:8055   */\n      0x04\n        /* \"#utility.yul\":8047:8062   */\n      mstore\n        /* \"#utility.yul\":8081:8085   */\n      0x24\n        /* \"#utility.yul\":8078:8079   */\n      0x00\n        /* \"#utility.yul\":8071:8086   */\n      revert\n        /* \"#utility.yul\":8431:8558   */\n    tag_198:\n        /* \"#utility.yul\":8492:8502   */\n      0x4e487b71\n        /* \"#utility.yul\":8487:8490   */\n      0xe0\n        /* \"#utility.yul\":8483:8503   */\n      shl\n        /* \"#utility.yul\":8480:8481   */\n      0x00\n        /* \"#utility.yul\":8473:8504   */\n      mstore\n        /* \"#utility.yul\":8523:8527   */\n      0x11\n        /* \"#utility.yul\":8520:8521   */\n      0x04\n        /* \"#utility.yul\":8513:8528   */\n      mstore\n        /* \"#utility.yul\":8547:8551   */\n      0x24\n        /* \"#utility.yul\":8544:8545   */\n      0x00\n        /* \"#utility.yul\":8537:8552   */\n      revert\n        /* \"#utility.yul\":8563:8691   */\n    tag_179:\n        /* \"#utility.yul\":8630:8639   */\n      dup2\n      dup2\n      sub\n        /* \"#utility.yul\":8651:8662   */\n      dup2\n      dup2\n      gt\n        /* \"#utility.yul\":8648:8685   */\n      iszero\n      tag_162\n      jumpi\n        /* \"#utility.yul\":8665:8683   */\n      tag_162\n      tag_198\n      jump\t// in\n        /* \"#utility.yul\":8696:8821   */\n    tag_181:\n        /* \"#utility.yul\":8761:8770   */\n      dup1\n      dup3\n      add\n        /* \"#utility.yul\":8782:8792   */\n      dup1\n      dup3\n      gt\n        /* \"#utility.yul\":8779:8815   */\n      iszero\n      tag_162\n      jumpi\n        /* \"#utility.yul\":8795:8813   */\n      tag_162\n      tag_198\n      jump\t// in\n        /* \"#utility.yul\":8826:8953   */\n    tag_190:\n        /* \"#utility.yul\":8887:8897   */\n      0x4e487b71\n        /* \"#utility.yul\":8882:8885   */\n      0xe0\n        /* \"#utility.yul\":8878:8898   */\n      shl\n        /* \"#utility.yul\":8875:8876   */\n      0x00\n        /* \"#utility.yul\":8868:8899   */\n      mstore\n        /* \"#utility.yul\":8918:8922   */\n      0x31\n        /* \"#utility.yul\":8915:8916   */\n      0x04\n        /* \"#utility.yul\":8908:8923   */\n      mstore\n        /* \"#utility.yul\":8942:8946   */\n      0x24\n        /* \"#utility.yul\":8939:8940   */\n      0x00\n        /* \"#utility.yul\":8932:8947   */\n      revert\n\n    auxdata: 0xa264697066735822122029567e150a9abca154acdf6e0f9ab4616f6a4cd21004536830c8342a6147caf664736f6c634300081a0033\n}\n",
				"bytecode": {
					"linkReferences": {},
					"object": "608060405234801561000f575f80fd5b5060405161135d38038061135d83398101604081905261002e916101da565b835f83838261003d85826102e3565b506001805484919060ff19168183600281111561005c5761005c61039d565b021790555060018054610100600160a81b0319166101006001600160a01b0394851602179055600280546001600160a01b0319169190921617905550600490506100a684826102e3565b5060018054610100600160a81b0319166101006001600160a01b038581169190910291909117909155600280546001600160a01b0319169183169190911790556040513381527f1449abf21e49fd025f33495e77f7b1461caefdd3d4bb646424a3f445c4576a5b9060200160405180910390a1505050506103b1565b634e487b7160e01b5f52604160045260245ffd5b5f82601f830112610145575f80fd5b81516001600160401b0381111561015e5761015e610122565b604051601f8201601f19908116603f011681016001600160401b038111828210171561018c5761018c610122565b6040528181528382016020018510156101a3575f80fd5b8160208501602083015e5f918101602001919091529392505050565b80516001600160a01b03811681146101d5575f80fd5b919050565b5f805f80608085870312156101ed575f80fd5b84516001600160401b03811115610202575f80fd5b61020e87828801610136565b602087015190955090506001600160401b0381111561022b575f80fd5b61023787828801610136565b935050610246604086016101bf565b9150610254606086016101bf565b905092959194509250565b600181811c9082168061027357607f821691505b60208210810361029157634e487b7160e01b5f52602260045260245ffd5b50919050565b601f8211156102de57805f5260205f20601f840160051c810160208510156102bc5750805b601f840160051c820191505b818110156102db575f81556001016102c8565b50505b505050565b81516001600160401b038111156102fc576102fc610122565b6103108161030a845461025f565b84610297565b6020601f821160018114610342575f831561032b5750848201515b5f19600385901b1c1916600184901b1784556102db565b5f84815260208120601f198516915b828110156103715787850151825560209485019460019092019101610351565b508482101561038e57868401515f19600387901b60f8161c191681555b50505050600190811b01905550565b634e487b7160e01b5f52602160045260245ffd5b610f9f806103be5f395ff3fe608060405234801561000f575f80fd5b50600436106100b1575f3560e01c8063a95264d01161006e578063a95264d014610146578063b9daf3e21461015b578063ba379e8614610163578063c47f002714610179578063ded92dac1461018c578063efd8af9f1461019f575f80fd5b80631499c592146100b55780632858d3c8146100ca5780634ba83374146100e85780635da6ef8d146101005780637a4c982e1461011357806380f7602114610126575b5f80fd5b6100c86100c3366004610b6d565b6101b2565b005b6100d2610251565b6040516100df9190610b9a565b60405180910390f35b6100f06102a1565b60405190151581526020016100df565b6100c861010e366004610b6d565b61030d565b6100c8610121366004610c5f565b610470565b61012e610504565b6040516001600160a01b0390911681526020016100df565b61014e61055a565b6040516100df9190610cc4565b6100f06105ff565b61016b61062e565b6040516100df929190610d3d565b6100c8610187366004610d6a565b610807565b6100c861019a366004610b6d565b610887565b6100c86101ad366004610d6a565b6109ba565b60015461010090046001600160a01b03163314806101da57506002546001600160a01b031633145b6101ff5760405162461bcd60e51b81526004016101f690610da4565b60405180910390fd5b600280546001600160a01b0319166001600160a01b0383161790556040513381527fe00da2178806f37f69815e9ed5ed3072ec1d55206d60916d99b469c7daa421e4906020015b60405180910390a150565b6001545f9061010090046001600160a01b031633148061027b57506002546001600160a01b031633145b6102975760405162461bcd60e51b81526004016101f690610da4565b5060015460ff1690565b5f6103043360038054806020026020016040519081016040528092919081815260200182805480156102fa57602002820191905f5260205f20905b81546001600160a01b031681526001909101906020018083116102dc575b5050505050610a0a565b5f191415905090565b60015461010090046001600160a01b031633148061033557506002546001600160a01b031633145b6103515760405162461bcd60e51b81526004016101f690610da4565b6001546001600160a01b03828116610100909204161480159061037c57506001600160a01b03811615155b80156103e757506103e38160038054806020026020016040519081016040528092919081815260200182805480156102fa57602002820191905f5260205f209081546001600160a01b031681526001909101906020018083116102dc575050505050610a0a565b5f19145b61041f5760405162461bcd60e51b81526020600482015260096024820152682337b93134b23232b760b91b60448201526064016101f6565b600380546001810182555f919091527fc2575a0e9e593c00f959f8c92f12db2869c3395a3b0502d05e2516446f71f85b0180546001600160a01b0319166001600160a01b0392909216919091179055565b60015461010090046001600160a01b031633148061049857506002546001600160a01b031633145b6104b45760405162461bcd60e51b81526004016101f690610da4565b5f6104bf8382610e4c565b5060046104cc8282610e4c565b506040513381527fe00da2178806f37f69815e9ed5ed3072ec1d55206d60916d99b469c7daa421e49060200160405180910390a15050565b6001545f9061010090046001600160a01b031633148061052e57506002546001600160a01b031633145b61054a5760405162461bcd60e51b81526004016101f690610da4565b506002546001600160a01b031690565b60015460609061010090046001600160a01b031633148061058557506002546001600160a01b031633145b6105a15760405162461bcd60e51b81526004016101f690610da4565b60038054806020026020016040519081016040528092919081815260200182805480156105f557602002820191905f5260205f20905b81546001600160a01b031681526001909101906020018083116105d7575b5050505050905090565b6001545f9061010090046001600160a01b031633148061062957506002546001600160a01b031633145b905090565b600154606090819061010090046001600160a01b03163314806106b157506106ac3360038054806020026020016040519081016040528092919081815260200182805480156102fa57602002820191905f5260205f209081546001600160a01b031681526001909101906020018083116102dc575050505050610a0a565b5f1914155b6106e85760405162461bcd60e51b815260206004820152600860248201526714995cdd1c9a58dd60c21b60448201526064016101f6565b5f60048180546106f790610dc8565b80601f016020809104026020016040519081016040528092919081815260200182805461072390610dc8565b801561076e5780601f106107455761010080835404028352916020019161076e565b820191905f5260205f20905b81548152906001019060200180831161075157829003601f168201915b5050505050915080805461078190610dc8565b80601f01602080910402602001604051908101604052809291908181526020018280546107ad90610dc8565b80156107f85780601f106107cf576101008083540402835291602001916107f8565b820191905f5260205f20905b8154815290600101906020018083116107db57829003601f168201915b50505050509050915091509091565b60015461010090046001600160a01b031633148061082f57506002546001600160a01b031633145b61084b5760405162461bcd60e51b81526004016101f690610da4565b5f6108568282610e4c565b506040513381527fe00da2178806f37f69815e9ed5ed3072ec1d55206d60916d99b469c7daa421e490602001610246565b6001600160a01b0381161515806108d457506002546001600160a01b03163314806108c1575060015461010090046001600160a01b031633145b806108d45750336001600160a01b038216145b61090c5760405162461bcd60e51b81526020600482015260096024820152682337b93134b23232b760b91b60448201526064016101f6565b5f61096d8260038054806020026020016040519081016040528092919081815260200182805480156102fa57602002820191905f5260205f209081546001600160a01b031681526001909101906020018083116102dc575050505050610a0a565b90505f1981136109ab5760405162461bcd60e51b8152602060048201526009602482015268139bdd08199bdd5b9960ba1b60448201526064016101f6565b6109b6816003610a63565b5050565b60015461010090046001600160a01b03163314806109e257506002546001600160a01b031633145b6109fe5760405162461bcd60e51b81526004016101f690610da4565b60046108568282610e4c565b5f805b8251811015610a5757836001600160a01b0316838281518110610a3257610a32610f07565b60200260200101516001600160a01b031603610a4f579050610a5d565b600101610a0d565b505f1990505b92915050565b5f8212158015610a735750805482105b610aa85760405162461bcd60e51b815260206004820152600660248201526509cde40d2c8f60d31b60448201526064016101f6565b815b8154610ab890600190610f2f565b811015610b385781610acb826001610f42565b81548110610adb57610adb610f07565b905f5260205f20015f9054906101000a90046001600160a01b0316828281548110610b0857610b08610f07565b5f91825260209091200180546001600160a01b0319166001600160a01b0392909216919091179055600101610aaa565b5080805480610b4957610b49610f55565b5f8281526020902081015f1990810180546001600160a01b03191690550190555050565b5f60208284031215610b7d575f80fd5b81356001600160a01b0381168114610b93575f80fd5b9392505050565b6020810160038310610bba57634e487b7160e01b5f52602160045260245ffd5b91905290565b634e487b7160e01b5f52604160045260245ffd5b5f82601f830112610be3575f80fd5b813567ffffffffffffffff811115610bfd57610bfd610bc0565b604051601f8201601f19908116603f0116810167ffffffffffffffff81118282101715610c2c57610c2c610bc0565b604052818152838201602001851015610c43575f80fd5b816020850160208301375f918101602001919091529392505050565b5f8060408385031215610c70575f80fd5b823567ffffffffffffffff811115610c86575f80fd5b610c9285828601610bd4565b925050602083013567ffffffffffffffff811115610cae575f80fd5b610cba85828601610bd4565b9150509250929050565b602080825282518282018190525f918401906040840190835b81811015610d045783516001600160a01b0316835260209384019390920191600101610cdd565b509095945050505050565b5f81518084528060208401602086015e5f602082860101526020601f19601f83011685010191505092915050565b604081525f610d4f6040830185610d0f565b8281036020840152610d618185610d0f565b95945050505050565b5f60208284031215610d7a575f80fd5b813567ffffffffffffffff811115610d90575f80fd5b610d9c84828501610bd4565b949350505050565b6020808252600a908201526927b7363c9037bbb732b960b11b604082015260600190565b600181811c90821680610ddc57607f821691505b602082108103610dfa57634e487b7160e01b5f52602260045260245ffd5b50919050565b601f821115610e4757805f5260205f20601f840160051c81016020851015610e255750805b601f840160051c820191505b81811015610e44575f8155600101610e31565b50505b505050565b815167ffffffffffffffff811115610e6657610e66610bc0565b610e7a81610e748454610dc8565b84610e00565b6020601f821160018114610eac575f8315610e955750848201515b5f19600385901b1c1916600184901b178455610e44565b5f84815260208120601f198516915b82811015610edb5787850151825560209485019460019092019101610ebb565b5084821015610ef857868401515f19600387901b60f8161c191681555b50505050600190811b01905550565b634e487b7160e01b5f52603260045260245ffd5b634e487b7160e01b5f52601160045260245ffd5b81810381811115610a5d57610a5d610f1b565b80820180821115610a5d57610a5d610f1b565b634e487b7160e01b5f52603160045260245ffdfea264697066735822122029567e150a9abca154acdf6e0f9ab4616f6a4cd21004536830c8342a6147caf664736f6c634300081a0033",
					"opcodes": "PUSH1 0x80 PUSH1 0x40 MSTORE CALLVALUE DUP1 ISZERO PUSH2 0xF JUMPI PUSH0 DUP1 REVERT JUMPDEST POP PUSH1 0x40 MLOAD PUSH2 0x135D CODESIZE SUB DUP1 PUSH2 0x135D DUP4 CODECOPY DUP2 ADD PUSH1 0x40 DUP2 SWAP1 MSTORE PUSH2 0x2E SWAP2 PUSH2 0x1DA JUMP JUMPDEST DUP4 PUSH0 DUP4 DUP4 DUP3 PUSH2 0x3D DUP6 DUP3 PUSH2 0x2E3 JUMP JUMPDEST POP PUSH1 0x1 DUP1 SLOAD DUP5 SWAP2 SWAP1 PUSH1 0xFF NOT AND DUP2 DUP4 PUSH1 0x2 DUP2 GT ISZERO PUSH2 0x5C JUMPI PUSH2 0x5C PUSH2 0x39D JUMP JUMPDEST MUL OR SWAP1 SSTORE POP PUSH1 0x1 DUP1 SLOAD PUSH2 0x100 PUSH1 0x1 PUSH1 0xA8 SHL SUB NOT AND PUSH2 0x100 PUSH1 0x1 PUSH1 0x1 PUSH1 0xA0 SHL SUB SWAP5 DUP6 AND MUL OR SWAP1 SSTORE PUSH1 0x2 DUP1 SLOAD PUSH1 0x1 PUSH1 0x1 PUSH1 0xA0 SHL SUB NOT AND SWAP2 SWAP1 SWAP3 AND OR SWAP1 SSTORE POP PUSH1 0x4 SWAP1 POP PUSH2 0xA6 DUP5 DUP3 PUSH2 0x2E3 JUMP JUMPDEST POP PUSH1 0x1 DUP1 SLOAD PUSH2 0x100 PUSH1 0x1 PUSH1 0xA8 SHL SUB NOT AND PUSH2 0x100 PUSH1 0x1 PUSH1 0x1 PUSH1 0xA0 SHL SUB DUP6 DUP2 AND SWAP2 SWAP1 SWAP2 MUL SWAP2 SWAP1 SWAP2 OR SWAP1 SWAP2 SSTORE PUSH1 0x2 DUP1 SLOAD PUSH1 0x1 PUSH1 0x1 PUSH1 0xA0 SHL SUB NOT AND SWAP2 DUP4 AND SWAP2 SWAP1 SWAP2 OR SWAP1 SSTORE PUSH1 0x40 MLOAD CALLER DUP2 MSTORE PUSH32 0x1449ABF21E49FD025F33495E77F7B1461CAEFDD3D4BB646424A3F445C4576A5B SWAP1 PUSH1 0x20 ADD PUSH1 0x40 MLOAD DUP1 SWAP2 SUB SWAP1 LOG1 POP POP POP POP PUSH2 0x3B1 JUMP JUMPDEST PUSH4 0x4E487B71 PUSH1 0xE0 SHL PUSH0 MSTORE PUSH1 0x41 PUSH1 0x4 MSTORE PUSH1 0x24 PUSH0 REVERT JUMPDEST PUSH0 DUP3 PUSH1 0x1F DUP4 ADD SLT PUSH2 0x145 JUMPI PUSH0 DUP1 REVERT JUMPDEST DUP2 MLOAD PUSH1 0x1 PUSH1 0x1 PUSH1 0x40 SHL SUB DUP2 GT ISZERO PUSH2 0x15E JUMPI PUSH2 0x15E PUSH2 0x122 JUMP JUMPDEST PUSH1 0x40 MLOAD PUSH1 0x1F DUP3 ADD PUSH1 0x1F NOT SWAP1 DUP2 AND PUSH1 0x3F ADD AND DUP2 ADD PUSH1 0x1 PUSH1 0x1 PUSH1 0x40 SHL SUB DUP2 GT DUP3 DUP3 LT OR ISZERO PUSH2 0x18C JUMPI PUSH2 0x18C PUSH2 0x122 JUMP JUMPDEST PUSH1 0x40 MSTORE DUP2 DUP2 MSTORE DUP4 DUP3 ADD PUSH1 0x20 ADD DUP6 LT ISZERO PUSH2 0x1A3 JUMPI PUSH0 DUP1 REVERT JUMPDEST DUP2 PUSH1 0x20 DUP6 ADD PUSH1 0x20 DUP4 ADD MCOPY PUSH0 SWAP2 DUP2 ADD PUSH1 0x20 ADD SWAP2 SWAP1 SWAP2 MSTORE SWAP4 SWAP3 POP POP POP JUMP JUMPDEST DUP1 MLOAD PUSH1 0x1 PUSH1 0x1 PUSH1 0xA0 SHL SUB DUP2 AND DUP2 EQ PUSH2 0x1D5 JUMPI PUSH0 DUP1 REVERT JUMPDEST SWAP2 SWAP1 POP JUMP JUMPDEST PUSH0 DUP1 PUSH0 DUP1 PUSH1 0x80 DUP6 DUP8 SUB SLT ISZERO PUSH2 0x1ED JUMPI PUSH0 DUP1 REVERT JUMPDEST DUP5 MLOAD PUSH1 0x1 PUSH1 0x1 PUSH1 0x40 SHL SUB DUP2 GT ISZERO PUSH2 0x202 JUMPI PUSH0 DUP1 REVERT JUMPDEST PUSH2 0x20E DUP8 DUP3 DUP9 ADD PUSH2 0x136 JUMP JUMPDEST PUSH1 0x20 DUP8 ADD MLOAD SWAP1 SWAP6 POP SWAP1 POP PUSH1 0x1 PUSH1 0x1 PUSH1 0x40 SHL SUB DUP2 GT ISZERO PUSH2 0x22B JUMPI PUSH0 DUP1 REVERT JUMPDEST PUSH2 0x237 DUP8 DUP3 DUP9 ADD PUSH2 0x136 JUMP JUMPDEST SWAP4 POP POP PUSH2 0x246 PUSH1 0x40 DUP7 ADD PUSH2 0x1BF JUMP JUMPDEST SWAP2 POP PUSH2 0x254 PUSH1 0x60 DUP7 ADD PUSH2 0x1BF JUMP JUMPDEST SWAP1 POP SWAP3 SWAP6 SWAP2 SWAP5 POP SWAP3 POP JUMP JUMPDEST PUSH1 0x1 DUP2 DUP2 SHR SWAP1 DUP3 AND DUP1 PUSH2 0x273 JUMPI PUSH1 0x7F DUP3 AND SWAP2 POP JUMPDEST PUSH1 0x20 DUP3 LT DUP2 SUB PUSH2 0x291 JUMPI PUSH4 0x4E487B71 PUSH1 0xE0 SHL PUSH0 MSTORE PUSH1 0x22 PUSH1 0x4 MSTORE PUSH1 0x24 PUSH0 REVERT JUMPDEST POP SWAP2 SWAP1 POP JUMP JUMPDEST PUSH1 0x1F DUP3 GT ISZERO PUSH2 0x2DE JUMPI DUP1 PUSH0 MSTORE PUSH1 0x20 PUSH0 KECCAK256 PUSH1 0x1F DUP5 ADD PUSH1 0x5 SHR DUP2 ADD PUSH1 0x20 DUP6 LT ISZERO PUSH2 0x2BC JUMPI POP DUP1 JUMPDEST PUSH1 0x1F DUP5 ADD PUSH1 0x5 SHR DUP3 ADD SWAP2 POP JUMPDEST DUP2 DUP2 LT ISZERO PUSH2 0x2DB JUMPI PUSH0 DUP2 SSTORE PUSH1 0x1 ADD PUSH2 0x2C8 JUMP JUMPDEST POP POP JUMPDEST POP POP POP JUMP JUMPDEST DUP2 MLOAD PUSH1 0x1 PUSH1 0x1 PUSH1 0x40 SHL SUB DUP2 GT ISZERO PUSH2 0x2FC JUMPI PUSH2 0x2FC PUSH2 0x122 JUMP JUMPDEST PUSH2 0x310 DUP2 PUSH2 0x30A DUP5 SLOAD PUSH2 0x25F JUMP JUMPDEST DUP5 PUSH2 0x297 JUMP JUMPDEST PUSH1 0x20 PUSH1 0x1F DUP3 GT PUSH1 0x1 DUP2 EQ PUSH2 0x342 JUMPI PUSH0 DUP4 ISZERO PUSH2 0x32B JUMPI POP DUP5 DUP3 ADD MLOAD JUMPDEST PUSH0 NOT PUSH1 0x3 DUP6 SWAP1 SHL SHR NOT AND PUSH1 0x1 DUP5 SWAP1 SHL OR DUP5 SSTORE PUSH2 0x2DB JUMP JUMPDEST PUSH0 DUP5 DUP2 MSTORE PUSH1 0x20 DUP2 KECCAK256 PUSH1 0x1F NOT DUP6 AND SWAP2 JUMPDEST DUP3 DUP2 LT ISZERO PUSH2 0x371 JUMPI DUP8 DUP6 ADD MLOAD DUP3 SSTORE PUSH1 0x20 SWAP5 DUP6 ADD SWAP5 PUSH1 0x1 SWAP1 SWAP3 ADD SWAP2 ADD PUSH2 0x351 JUMP JUMPDEST POP DUP5 DUP3 LT ISZERO PUSH2 0x38E JUMPI DUP7 DUP5 ADD MLOAD PUSH0 NOT PUSH1 0x3 DUP8 SWAP1 SHL PUSH1 0xF8 AND SHR NOT AND DUP2 SSTORE JUMPDEST POP POP POP POP PUSH1 0x1 SWAP1 DUP2 SHL ADD SWAP1 SSTORE POP JUMP JUMPDEST PUSH4 0x4E487B71 PUSH1 0xE0 SHL PUSH0 MSTORE PUSH1 0x21 PUSH1 0x4 MSTORE PUSH1 0x24 PUSH0 REVERT JUMPDEST PUSH2 0xF9F DUP1 PUSH2 0x3BE PUSH0 CODECOPY PUSH0 RETURN INVALID PUSH1 0x80 PUSH1 0x40 MSTORE CALLVALUE DUP1 ISZERO PUSH2 0xF JUMPI PUSH0 DUP1 REVERT JUMPDEST POP PUSH1 0x4 CALLDATASIZE LT PUSH2 0xB1 JUMPI PUSH0 CALLDATALOAD PUSH1 0xE0 SHR DUP1 PUSH4 0xA95264D0 GT PUSH2 0x6E JUMPI DUP1 PUSH4 0xA95264D0 EQ PUSH2 0x146 JUMPI DUP1 PUSH4 0xB9DAF3E2 EQ PUSH2 0x15B JUMPI DUP1 PUSH4 0xBA379E86 EQ PUSH2 0x163 JUMPI DUP1 PUSH4 0xC47F0027 EQ PUSH2 0x179 JUMPI DUP1 PUSH4 0xDED92DAC EQ PUSH2 0x18C JUMPI DUP1 PUSH4 0xEFD8AF9F EQ PUSH2 0x19F JUMPI PUSH0 DUP1 REVERT JUMPDEST DUP1 PUSH4 0x1499C592 EQ PUSH2 0xB5 JUMPI DUP1 PUSH4 0x2858D3C8 EQ PUSH2 0xCA JUMPI DUP1 PUSH4 0x4BA83374 EQ PUSH2 0xE8 JUMPI DUP1 PUSH4 0x5DA6EF8D EQ PUSH2 0x100 JUMPI DUP1 PUSH4 0x7A4C982E EQ PUSH2 0x113 JUMPI DUP1 PUSH4 0x80F76021 EQ PUSH2 0x126 JUMPI JUMPDEST PUSH0 DUP1 REVERT JUMPDEST PUSH2 0xC8 PUSH2 0xC3 CALLDATASIZE PUSH1 0x4 PUSH2 0xB6D JUMP JUMPDEST PUSH2 0x1B2 JUMP JUMPDEST STOP JUMPDEST PUSH2 0xD2 PUSH2 0x251 JUMP JUMPDEST PUSH1 0x40 MLOAD PUSH2 0xDF SWAP2 SWAP1 PUSH2 0xB9A JUMP JUMPDEST PUSH1 0x40 MLOAD DUP1 SWAP2 SUB SWAP1 RETURN JUMPDEST PUSH2 0xF0 PUSH2 0x2A1 JUMP JUMPDEST PUSH1 0x40 MLOAD SWAP1 ISZERO ISZERO DUP2 MSTORE PUSH1 0x20 ADD PUSH2 0xDF JUMP JUMPDEST PUSH2 0xC8 PUSH2 0x10E CALLDATASIZE PUSH1 0x4 PUSH2 0xB6D JUMP JUMPDEST PUSH2 0x30D JUMP JUMPDEST PUSH2 0xC8 PUSH2 0x121 CALLDATASIZE PUSH1 0x4 PUSH2 0xC5F JUMP JUMPDEST PUSH2 0x470 JUMP JUMPDEST PUSH2 0x12E PUSH2 0x504 JUMP JUMPDEST PUSH1 0x40 MLOAD PUSH1 0x1 PUSH1 0x1 PUSH1 0xA0 SHL SUB SWAP1 SWAP2 AND DUP2 MSTORE PUSH1 0x20 ADD PUSH2 0xDF JUMP JUMPDEST PUSH2 0x14E PUSH2 0x55A JUMP JUMPDEST PUSH1 0x40 MLOAD PUSH2 0xDF SWAP2 SWAP1 PUSH2 0xCC4 JUMP JUMPDEST PUSH2 0xF0 PUSH2 0x5FF JUMP JUMPDEST PUSH2 0x16B PUSH2 0x62E JUMP JUMPDEST PUSH1 0x40 MLOAD PUSH2 0xDF SWAP3 SWAP2 SWAP1 PUSH2 0xD3D JUMP JUMPDEST PUSH2 0xC8 PUSH2 0x187 CALLDATASIZE PUSH1 0x4 PUSH2 0xD6A JUMP JUMPDEST PUSH2 0x807 JUMP JUMPDEST PUSH2 0xC8 PUSH2 0x19A CALLDATASIZE PUSH1 0x4 PUSH2 0xB6D JUMP JUMPDEST PUSH2 0x887 JUMP JUMPDEST PUSH2 0xC8 PUSH2 0x1AD CALLDATASIZE PUSH1 0x4 PUSH2 0xD6A JUMP JUMPDEST PUSH2 0x9BA JUMP JUMPDEST PUSH1 0x1 SLOAD PUSH2 0x100 SWAP1 DIV PUSH1 0x1 PUSH1 0x1 PUSH1 0xA0 SHL SUB AND CALLER EQ DUP1 PUSH2 0x1DA JUMPI POP PUSH1 0x2 SLOAD PUSH1 0x1 PUSH1 0x1 PUSH1 0xA0 SHL SUB AND CALLER EQ JUMPDEST PUSH2 0x1FF JUMPI PUSH1 0x40 MLOAD PUSH3 0x461BCD PUSH1 0xE5 SHL DUP2 MSTORE PUSH1 0x4 ADD PUSH2 0x1F6 SWAP1 PUSH2 0xDA4 JUMP JUMPDEST PUSH1 0x40 MLOAD DUP1 SWAP2 SUB SWAP1 REVERT JUMPDEST PUSH1 0x2 DUP1 SLOAD PUSH1 0x1 PUSH1 0x1 PUSH1 0xA0 SHL SUB NOT AND PUSH1 0x1 PUSH1 0x1 PUSH1 0xA0 SHL SUB DUP4 AND OR SWAP1 SSTORE PUSH1 0x40 MLOAD CALLER DUP2 MSTORE PUSH32 0xE00DA2178806F37F69815E9ED5ED3072EC1D55206D60916D99B469C7DAA421E4 SWAP1 PUSH1 0x20 ADD JUMPDEST PUSH1 0x40 MLOAD DUP1 SWAP2 SUB SWAP1 LOG1 POP JUMP JUMPDEST PUSH1 0x1 SLOAD PUSH0 SWAP1 PUSH2 0x100 SWAP1 DIV PUSH1 0x1 PUSH1 0x1 PUSH1 0xA0 SHL SUB AND CALLER EQ DUP1 PUSH2 0x27B JUMPI POP PUSH1 0x2 SLOAD PUSH1 0x1 PUSH1 0x1 PUSH1 0xA0 SHL SUB AND CALLER EQ JUMPDEST PUSH2 0x297 JUMPI PUSH1 0x40 MLOAD PUSH3 0x461BCD PUSH1 0xE5 SHL DUP2 MSTORE PUSH1 0x4 ADD PUSH2 0x1F6 SWAP1 PUSH2 0xDA4 JUMP JUMPDEST POP PUSH1 0x1 SLOAD PUSH1 0xFF AND SWAP1 JUMP JUMPDEST PUSH0 PUSH2 0x304 CALLER PUSH1 0x3 DUP1 SLOAD DUP1 PUSH1 0x20 MUL PUSH1 0x20 ADD PUSH1 0x40 MLOAD SWAP1 DUP2 ADD PUSH1 0x40 MSTORE DUP1 SWAP3 SWAP2 SWAP1 DUP2 DUP2 MSTORE PUSH1 0x20 ADD DUP3 DUP1 SLOAD DUP1 ISZERO PUSH2 0x2FA JUMPI PUSH1 0x20 MUL DUP3 ADD SWAP2 SWAP1 PUSH0 MSTORE PUSH1 0x20 PUSH0 KECCAK256 SWAP1 JUMPDEST DUP2 SLOAD PUSH1 0x1 PUSH1 0x1 PUSH1 0xA0 SHL SUB AND DUP2 MSTORE PUSH1 0x1 SWAP1 SWAP2 ADD SWAP1 PUSH1 0x20 ADD DUP1 DUP4 GT PUSH2 0x2DC JUMPI JUMPDEST POP POP POP POP POP PUSH2 0xA0A JUMP JUMPDEST PUSH0 NOT EQ ISZERO SWAP1 POP SWAP1 JUMP JUMPDEST PUSH1 0x1 SLOAD PUSH2 0x100 SWAP1 DIV PUSH1 0x1 PUSH1 0x1 PUSH1 0xA0 SHL SUB AND CALLER EQ DUP1 PUSH2 0x335 JUMPI POP PUSH1 0x2 SLOAD PUSH1 0x1 PUSH1 0x1 PUSH1 0xA0 SHL SUB AND CALLER EQ JUMPDEST PUSH2 0x351 JUMPI PUSH1 0x40 MLOAD PUSH3 0x461BCD PUSH1 0xE5 SHL DUP2 MSTORE PUSH1 0x4 ADD PUSH2 0x1F6 SWAP1 PUSH2 0xDA4 JUMP JUMPDEST PUSH1 0x1 SLOAD PUSH1 0x1 PUSH1 0x1 PUSH1 0xA0 SHL SUB DUP3 DUP2 AND PUSH2 0x100 SWAP1 SWAP3 DIV AND EQ DUP1 ISZERO SWAP1 PUSH2 0x37C JUMPI POP PUSH1 0x1 PUSH1 0x1 PUSH1 0xA0 SHL SUB DUP2 AND ISZERO ISZERO JUMPDEST DUP1 ISZERO PUSH2 0x3E7 JUMPI POP PUSH2 0x3E3 DUP2 PUSH1 0x3 DUP1 SLOAD DUP1 PUSH1 0x20 MUL PUSH1 0x20 ADD PUSH1 0x40 MLOAD SWAP1 DUP2 ADD PUSH1 0x40 MSTORE DUP1 SWAP3 SWAP2 SWAP1 DUP2 DUP2 MSTORE PUSH1 0x20 ADD DUP3 DUP1 SLOAD DUP1 ISZERO PUSH2 0x2FA JUMPI PUSH1 0x20 MUL DUP3 ADD SWAP2 SWAP1 PUSH0 MSTORE PUSH1 0x20 PUSH0 KECCAK256 SWAP1 DUP2 SLOAD PUSH1 0x1 PUSH1 0x1 PUSH1 0xA0 SHL SUB AND DUP2 MSTORE PUSH1 0x1 SWAP1 SWAP2 ADD SWAP1 PUSH1 0x20 ADD DUP1 DUP4 GT PUSH2 0x2DC JUMPI POP POP POP POP POP PUSH2 0xA0A JUMP JUMPDEST PUSH0 NOT EQ JUMPDEST PUSH2 0x41F JUMPI PUSH1 0x40 MLOAD PUSH3 0x461BCD PUSH1 0xE5 SHL DUP2 MSTORE PUSH1 0x20 PUSH1 0x4 DUP3 ADD MSTORE PUSH1 0x9 PUSH1 0x24 DUP3 ADD MSTORE PUSH9 0x2337B93134B23232B7 PUSH1 0xB9 SHL PUSH1 0x44 DUP3 ADD MSTORE PUSH1 0x64 ADD PUSH2 0x1F6 JUMP JUMPDEST PUSH1 0x3 DUP1 SLOAD PUSH1 0x1 DUP2 ADD DUP3 SSTORE PUSH0 SWAP2 SWAP1 SWAP2 MSTORE PUSH32 0xC2575A0E9E593C00F959F8C92F12DB2869C3395A3B0502D05E2516446F71F85B ADD DUP1 SLOAD PUSH1 0x1 PUSH1 0x1 PUSH1 0xA0 SHL SUB NOT AND PUSH1 0x1 PUSH1 0x1 PUSH1 0xA0 SHL SUB SWAP3 SWAP1 SWAP3 AND SWAP2 SWAP1 SWAP2 OR SWAP1 SSTORE JUMP JUMPDEST PUSH1 0x1 SLOAD PUSH2 0x100 SWAP1 DIV PUSH1 0x1 PUSH1 0x1 PUSH1 0xA0 SHL SUB AND CALLER EQ DUP1 PUSH2 0x498 JUMPI POP PUSH1 0x2 SLOAD PUSH1 0x1 PUSH1 0x1 PUSH1 0xA0 SHL SUB AND CALLER EQ JUMPDEST PUSH2 0x4B4 JUMPI PUSH1 0x40 MLOAD PUSH3 0x461BCD PUSH1 0xE5 SHL DUP2 MSTORE PUSH1 0x4 ADD PUSH2 0x1F6 SWAP1 PUSH2 0xDA4 JUMP JUMPDEST PUSH0 PUSH2 0x4BF DUP4 DUP3 PUSH2 0xE4C JUMP JUMPDEST POP PUSH1 0x4 PUSH2 0x4CC DUP3 DUP3 PUSH2 0xE4C JUMP JUMPDEST POP PUSH1 0x40 MLOAD CALLER DUP2 MSTORE PUSH32 0xE00DA2178806F37F69815E9ED5ED3072EC1D55206D60916D99B469C7DAA421E4 SWAP1 PUSH1 0x20 ADD PUSH1 0x40 MLOAD DUP1 SWAP2 SUB SWAP1 LOG1 POP POP JUMP JUMPDEST PUSH1 0x1 SLOAD PUSH0 SWAP1 PUSH2 0x100 SWAP1 DIV PUSH1 0x1 PUSH1 0x1 PUSH1 0xA0 SHL SUB AND CALLER EQ DUP1 PUSH2 0x52E JUMPI POP PUSH1 0x2 SLOAD PUSH1 0x1 PUSH1 0x1 PUSH1 0xA0 SHL SUB AND CALLER EQ JUMPDEST PUSH2 0x54A JUMPI PUSH1 0x40 MLOAD PUSH3 0x461BCD PUSH1 0xE5 SHL DUP2 MSTORE PUSH1 0x4 ADD PUSH2 0x1F6 SWAP1 PUSH2 0xDA4 JUMP JUMPDEST POP PUSH1 0x2 SLOAD PUSH1 0x1 PUSH1 0x1 PUSH1 0xA0 SHL SUB AND SWAP1 JUMP JUMPDEST PUSH1 0x1 SLOAD PUSH1 0x60 SWAP1 PUSH2 0x100 SWAP1 DIV PUSH1 0x1 PUSH1 0x1 PUSH1 0xA0 SHL SUB AND CALLER EQ DUP1 PUSH2 0x585 JUMPI POP PUSH1 0x2 SLOAD PUSH1 0x1 PUSH1 0x1 PUSH1 0xA0 SHL SUB AND CALLER EQ JUMPDEST PUSH2 0x5A1 JUMPI PUSH1 0x40 MLOAD PUSH3 0x461BCD PUSH1 0xE5 SHL DUP2 MSTORE PUSH1 0x4 ADD PUSH2 0x1F6 SWAP1 PUSH2 0xDA4 JUMP JUMPDEST PUSH1 0x3 DUP1 SLOAD DUP1 PUSH1 0x20 MUL PUSH1 0x20 ADD PUSH1 0x40 MLOAD SWAP1 DUP2 ADD PUSH1 0x40 MSTORE DUP1 SWAP3 SWAP2 SWAP1 DUP2 DUP2 MSTORE PUSH1 0x20 ADD DUP3 DUP1 SLOAD DUP1 ISZERO PUSH2 0x5F5 JUMPI PUSH1 0x20 MUL DUP3 ADD SWAP2 SWAP1 PUSH0 MSTORE PUSH1 0x20 PUSH0 KECCAK256 SWAP1 JUMPDEST DUP2 SLOAD PUSH1 0x1 PUSH1 0x1 PUSH1 0xA0 SHL SUB AND DUP2 MSTORE PUSH1 0x1 SWAP1 SWAP2 ADD SWAP1 PUSH1 0x20 ADD DUP1 DUP4 GT PUSH2 0x5D7 JUMPI JUMPDEST POP POP POP POP POP SWAP1 POP SWAP1 JUMP JUMPDEST PUSH1 0x1 SLOAD PUSH0 SWAP1 PUSH2 0x100 SWAP1 DIV PUSH1 0x1 PUSH1 0x1 PUSH1 0xA0 SHL SUB AND CALLER EQ DUP1 PUSH2 0x629 JUMPI POP PUSH1 0x2 SLOAD PUSH1 0x1 PUSH1 0x1 PUSH1 0xA0 SHL SUB AND CALLER EQ JUMPDEST SWAP1 POP SWAP1 JUMP JUMPDEST PUSH1 0x1 SLOAD PUSH1 0x60 SWAP1 DUP2 SWAP1 PUSH2 0x100 SWAP1 DIV PUSH1 0x1 PUSH1 0x1 PUSH1 0xA0 SHL SUB AND CALLER EQ DUP1 PUSH2 0x6B1 JUMPI POP PUSH2 0x6AC CALLER PUSH1 0x3 DUP1 SLOAD DUP1 PUSH1 0x20 MUL PUSH1 0x20 ADD PUSH1 0x40 MLOAD SWAP1 DUP2 ADD PUSH1 0x40 MSTORE DUP1 SWAP3 SWAP2 SWAP1 DUP2 DUP2 MSTORE PUSH1 0x20 ADD DUP3 DUP1 SLOAD DUP1 ISZERO PUSH2 0x2FA JUMPI PUSH1 0x20 MUL DUP3 ADD SWAP2 SWAP1 PUSH0 MSTORE PUSH1 0x20 PUSH0 KECCAK256 SWAP1 DUP2 SLOAD PUSH1 0x1 PUSH1 0x1 PUSH1 0xA0 SHL SUB AND DUP2 MSTORE PUSH1 0x1 SWAP1 SWAP2 ADD SWAP1 PUSH1 0x20 ADD DUP1 DUP4 GT PUSH2 0x2DC JUMPI POP POP POP POP POP PUSH2 0xA0A JUMP JUMPDEST PUSH0 NOT EQ ISZERO JUMPDEST PUSH2 0x6E8 JUMPI PUSH1 0x40 MLOAD PUSH3 0x461BCD PUSH1 0xE5 SHL DUP2 MSTORE PUSH1 0x20 PUSH1 0x4 DUP3 ADD MSTORE PUSH1 0x8 PUSH1 0x24 DUP3 ADD MSTORE PUSH8 0x14995CDD1C9A58DD PUSH1 0xC2 SHL PUSH1 0x44 DUP3 ADD MSTORE PUSH1 0x64 ADD PUSH2 0x1F6 JUMP JUMPDEST PUSH0 PUSH1 0x4 DUP2 DUP1 SLOAD PUSH2 0x6F7 SWAP1 PUSH2 0xDC8 JUMP JUMPDEST DUP1 PUSH1 0x1F ADD PUSH1 0x20 DUP1 SWAP2 DIV MUL PUSH1 0x20 ADD PUSH1 0x40 MLOAD SWAP1 DUP2 ADD PUSH1 0x40 MSTORE DUP1 SWAP3 SWAP2 SWAP1 DUP2 DUP2 MSTORE PUSH1 0x20 ADD DUP3 DUP1 SLOAD PUSH2 0x723 SWAP1 PUSH2 0xDC8 JUMP JUMPDEST DUP1 ISZERO PUSH2 0x76E JUMPI DUP1 PUSH1 0x1F LT PUSH2 0x745 JUMPI PUSH2 0x100 DUP1 DUP4 SLOAD DIV MUL DUP4 MSTORE SWAP2 PUSH1 0x20 ADD SWAP2 PUSH2 0x76E JUMP JUMPDEST DUP3 ADD SWAP2 SWAP1 PUSH0 MSTORE PUSH1 0x20 PUSH0 KECCAK256 SWAP1 JUMPDEST DUP2 SLOAD DUP2 MSTORE SWAP1 PUSH1 0x1 ADD SWAP1 PUSH1 0x20 ADD DUP1 DUP4 GT PUSH2 0x751 JUMPI DUP3 SWAP1 SUB PUSH1 0x1F AND DUP3 ADD SWAP2 JUMPDEST POP POP POP POP POP SWAP2 POP DUP1 DUP1 SLOAD PUSH2 0x781 SWAP1 PUSH2 0xDC8 JUMP JUMPDEST DUP1 PUSH1 0x1F ADD PUSH1 0x20 DUP1 SWAP2 DIV MUL PUSH1 0x20 ADD PUSH1 0x40 MLOAD SWAP1 DUP2 ADD PUSH1 0x40 MSTORE DUP1 SWAP3 SWAP2 SWAP1 DUP2 DUP2 MSTORE PUSH1 0x20 ADD DUP3 DUP1 SLOAD PUSH2 0x7AD SWAP1 PUSH2 0xDC8 JUMP JUMPDEST DUP1 ISZERO PUSH2 0x7F8 JUMPI DUP1 PUSH1 0x1F LT PUSH2 0x7CF JUMPI PUSH2 0x100 DUP1 DUP4 SLOAD DIV MUL DUP4 MSTORE SWAP2 PUSH1 0x20 ADD SWAP2 PUSH2 0x7F8 JUMP JUMPDEST DUP3 ADD SWAP2 SWAP1 PUSH0 MSTORE PUSH1 0x20 PUSH0 KECCAK256 SWAP1 JUMPDEST DUP2 SLOAD DUP2 MSTORE SWAP1 PUSH1 0x1 ADD SWAP1 PUSH1 0x20 ADD DUP1 DUP4 GT PUSH2 0x7DB JUMPI DUP3 SWAP1 SUB PUSH1 0x1F AND DUP3 ADD SWAP2 JUMPDEST POP POP POP POP POP SWAP1 POP SWAP2 POP SWAP2 POP SWAP1 SWAP2 JUMP JUMPDEST PUSH1 0x1 SLOAD PUSH2 0x100 SWAP1 DIV PUSH1 0x1 PUSH1 0x1 PUSH1 0xA0 SHL SUB AND CALLER EQ DUP1 PUSH2 0x82F JUMPI POP PUSH1 0x2 SLOAD PUSH1 0x1 PUSH1 0x1 PUSH1 0xA0 SHL SUB AND CALLER EQ JUMPDEST PUSH2 0x84B JUMPI PUSH1 0x40 MLOAD PUSH3 0x461BCD PUSH1 0xE5 SHL DUP2 MSTORE PUSH1 0x4 ADD PUSH2 0x1F6 SWAP1 PUSH2 0xDA4 JUMP JUMPDEST PUSH0 PUSH2 0x856 DUP3 DUP3 PUSH2 0xE4C JUMP JUMPDEST POP PUSH1 0x40 MLOAD CALLER DUP2 MSTORE PUSH32 0xE00DA2178806F37F69815E9ED5ED3072EC1D55206D60916D99B469C7DAA421E4 SWAP1 PUSH1 0x20 ADD PUSH2 0x246 JUMP JUMPDEST PUSH1 0x1 PUSH1 0x1 PUSH1 0xA0 SHL SUB DUP2 AND ISZERO ISZERO DUP1 PUSH2 0x8D4 JUMPI POP PUSH1 0x2 SLOAD PUSH1 0x1 PUSH1 0x1 PUSH1 0xA0 SHL SUB AND CALLER EQ DUP1 PUSH2 0x8C1 JUMPI POP PUSH1 0x1 SLOAD PUSH2 0x100 SWAP1 DIV PUSH1 0x1 PUSH1 0x1 PUSH1 0xA0 SHL SUB AND CALLER EQ JUMPDEST DUP1 PUSH2 0x8D4 JUMPI POP CALLER PUSH1 0x1 PUSH1 0x1 PUSH1 0xA0 SHL SUB DUP3 AND EQ JUMPDEST PUSH2 0x90C JUMPI PUSH1 0x40 MLOAD PUSH3 0x461BCD PUSH1 0xE5 SHL DUP2 MSTORE PUSH1 0x20 PUSH1 0x4 DUP3 ADD MSTORE PUSH1 0x9 PUSH1 0x24 DUP3 ADD MSTORE PUSH9 0x2337B93134B23232B7 PUSH1 0xB9 SHL PUSH1 0x44 DUP3 ADD MSTORE PUSH1 0x64 ADD PUSH2 0x1F6 JUMP JUMPDEST PUSH0 PUSH2 0x96D DUP3 PUSH1 0x3 DUP1 SLOAD DUP1 PUSH1 0x20 MUL PUSH1 0x20 ADD PUSH1 0x40 MLOAD SWAP1 DUP2 ADD PUSH1 0x40 MSTORE DUP1 SWAP3 SWAP2 SWAP1 DUP2 DUP2 MSTORE PUSH1 0x20 ADD DUP3 DUP1 SLOAD DUP1 ISZERO PUSH2 0x2FA JUMPI PUSH1 0x20 MUL DUP3 ADD SWAP2 SWAP1 PUSH0 MSTORE PUSH1 0x20 PUSH0 KECCAK256 SWAP1 DUP2 SLOAD PUSH1 0x1 PUSH1 0x1 PUSH1 0xA0 SHL SUB AND DUP2 MSTORE PUSH1 0x1 SWAP1 SWAP2 ADD SWAP1 PUSH1 0x20 ADD DUP1 DUP4 GT PUSH2 0x2DC JUMPI POP POP POP POP POP PUSH2 0xA0A JUMP JUMPDEST SWAP1 POP PUSH0 NOT DUP2 SGT PUSH2 0x9AB JUMPI PUSH1 0x40 MLOAD PUSH3 0x461BCD PUSH1 0xE5 SHL DUP2 MSTORE PUSH1 0x20 PUSH1 0x4 DUP3 ADD MSTORE PUSH1 0x9 PUSH1 0x24 DUP3 ADD MSTORE PUSH9 0x139BDD08199BDD5B99 PUSH1 0xBA SHL PUSH1 0x44 DUP3 ADD MSTORE PUSH1 0x64 ADD PUSH2 0x1F6 JUMP JUMPDEST PUSH2 0x9B6 DUP2 PUSH1 0x3 PUSH2 0xA63 JUMP JUMPDEST POP POP JUMP JUMPDEST PUSH1 0x1 SLOAD PUSH2 0x100 SWAP1 DIV PUSH1 0x1 PUSH1 0x1 PUSH1 0xA0 SHL SUB AND CALLER EQ DUP1 PUSH2 0x9E2 JUMPI POP PUSH1 0x2 SLOAD PUSH1 0x1 PUSH1 0x1 PUSH1 0xA0 SHL SUB AND CALLER EQ JUMPDEST PUSH2 0x9FE JUMPI PUSH1 0x40 MLOAD PUSH3 0x461BCD PUSH1 0xE5 SHL DUP2 MSTORE PUSH1 0x4 ADD PUSH2 0x1F6 SWAP1 PUSH2 0xDA4 JUMP JUMPDEST PUSH1 0x4 PUSH2 0x856 DUP3 DUP3 PUSH2 0xE4C JUMP JUMPDEST PUSH0 DUP1 JUMPDEST DUP3 MLOAD DUP2 LT ISZERO PUSH2 0xA57 JUMPI DUP4 PUSH1 0x1 PUSH1 0x1 PUSH1 0xA0 SHL SUB AND DUP4 DUP3 DUP2 MLOAD DUP2 LT PUSH2 0xA32 JUMPI PUSH2 0xA32 PUSH2 0xF07 JUMP JUMPDEST PUSH1 0x20 MUL PUSH1 0x20 ADD ADD MLOAD PUSH1 0x1 PUSH1 0x1 PUSH1 0xA0 SHL SUB AND SUB PUSH2 0xA4F JUMPI SWAP1 POP PUSH2 0xA5D JUMP JUMPDEST PUSH1 0x1 ADD PUSH2 0xA0D JUMP JUMPDEST POP PUSH0 NOT SWAP1 POP JUMPDEST SWAP3 SWAP2 POP POP JUMP JUMPDEST PUSH0 DUP3 SLT ISZERO DUP1 ISZERO PUSH2 0xA73 JUMPI POP DUP1 SLOAD DUP3 LT JUMPDEST PUSH2 0xAA8 JUMPI PUSH1 0x40 MLOAD PUSH3 0x461BCD PUSH1 0xE5 SHL DUP2 MSTORE PUSH1 0x20 PUSH1 0x4 DUP3 ADD MSTORE PUSH1 0x6 PUSH1 0x24 DUP3 ADD MSTORE PUSH6 0x9CDE40D2C8F PUSH1 0xD3 SHL PUSH1 0x44 DUP3 ADD MSTORE PUSH1 0x64 ADD PUSH2 0x1F6 JUMP JUMPDEST DUP2 JUMPDEST DUP2 SLOAD PUSH2 0xAB8 SWAP1 PUSH1 0x1 SWAP1 PUSH2 0xF2F JUMP JUMPDEST DUP2 LT ISZERO PUSH2 0xB38 JUMPI DUP2 PUSH2 0xACB DUP3 PUSH1 0x1 PUSH2 0xF42 JUMP JUMPDEST DUP2 SLOAD DUP2 LT PUSH2 0xADB JUMPI PUSH2 0xADB PUSH2 0xF07 JUMP JUMPDEST SWAP1 PUSH0 MSTORE PUSH1 0x20 PUSH0 KECCAK256 ADD PUSH0 SWAP1 SLOAD SWAP1 PUSH2 0x100 EXP SWAP1 DIV PUSH1 0x1 PUSH1 0x1 PUSH1 0xA0 SHL SUB AND DUP3 DUP3 DUP2 SLOAD DUP2 LT PUSH2 0xB08 JUMPI PUSH2 0xB08 PUSH2 0xF07 JUMP JUMPDEST PUSH0 SWAP2 DUP3 MSTORE PUSH1 0x20 SWAP1 SWAP2 KECCAK256 ADD DUP1 SLOAD PUSH1 0x1 PUSH1 0x1 PUSH1 0xA0 SHL SUB NOT AND PUSH1 0x1 PUSH1 0x1 PUSH1 0xA0 SHL SUB SWAP3 SWAP1 SWAP3 AND SWAP2 SWAP1 SWAP2 OR SWAP1 SSTORE PUSH1 0x1 ADD PUSH2 0xAAA JUMP JUMPDEST POP DUP1 DUP1 SLOAD DUP1 PUSH2 0xB49 JUMPI PUSH2 0xB49 PUSH2 0xF55 JUMP JUMPDEST PUSH0 DUP3 DUP2 MSTORE PUSH1 0x20 SWAP1 KECCAK256 DUP2 ADD PUSH0 NOT SWAP1 DUP2 ADD DUP1 SLOAD PUSH1 0x1 PUSH1 0x1 PUSH1 0xA0 SHL SUB NOT AND SWAP1 SSTORE ADD SWAP1 SSTORE POP POP JUMP JUMPDEST PUSH0 PUSH1 0x20 DUP3 DUP5 SUB SLT ISZERO PUSH2 0xB7D JUMPI PUSH0 DUP1 REVERT JUMPDEST DUP2 CALLDATALOAD PUSH1 0x1 PUSH1 0x1 PUSH1 0xA0 SHL SUB DUP2 AND DUP2 EQ PUSH2 0xB93 JUMPI PUSH0 DUP1 REVERT JUMPDEST SWAP4 SWAP3 POP POP POP JUMP JUMPDEST PUSH1 0x20 DUP2 ADD PUSH1 0x3 DUP4 LT PUSH2 0xBBA JUMPI PUSH4 0x4E487B71 PUSH1 0xE0 SHL PUSH0 MSTORE PUSH1 0x21 PUSH1 0x4 MSTORE PUSH1 0x24 PUSH0 REVERT JUMPDEST SWAP2 SWAP1 MSTORE SWAP1 JUMP JUMPDEST PUSH4 0x4E487B71 PUSH1 0xE0 SHL PUSH0 MSTORE PUSH1 0x41 PUSH1 0x4 MSTORE PUSH1 0x24 PUSH0 REVERT JUMPDEST PUSH0 DUP3 PUSH1 0x1F DUP4 ADD SLT PUSH2 0xBE3 JUMPI PUSH0 DUP1 REVERT JUMPDEST DUP2 CALLDATALOAD PUSH8 0xFFFFFFFFFFFFFFFF DUP2 GT ISZERO PUSH2 0xBFD JUMPI PUSH2 0xBFD PUSH2 0xBC0 JUMP JUMPDEST PUSH1 0x40 MLOAD PUSH1 0x1F DUP3 ADD PUSH1 0x1F NOT SWAP1 DUP2 AND PUSH1 0x3F ADD AND DUP2 ADD PUSH8 0xFFFFFFFFFFFFFFFF DUP2 GT DUP3 DUP3 LT OR ISZERO PUSH2 0xC2C JUMPI PUSH2 0xC2C PUSH2 0xBC0 JUMP JUMPDEST PUSH1 0x40 MSTORE DUP2 DUP2 MSTORE DUP4 DUP3 ADD PUSH1 0x20 ADD DUP6 LT ISZERO PUSH2 0xC43 JUMPI PUSH0 DUP1 REVERT JUMPDEST DUP2 PUSH1 0x20 DUP6 ADD PUSH1 0x20 DUP4 ADD CALLDATACOPY PUSH0 SWAP2 DUP2 ADD PUSH1 0x20 ADD SWAP2 SWAP1 SWAP2 MSTORE SWAP4 SWAP3 POP POP POP JUMP JUMPDEST PUSH0 DUP1 PUSH1 0x40 DUP4 DUP6 SUB SLT ISZERO PUSH2 0xC70 JUMPI PUSH0 DUP1 REVERT JUMPDEST DUP3 CALLDATALOAD PUSH8 0xFFFFFFFFFFFFFFFF DUP2 GT ISZERO PUSH2 0xC86 JUMPI PUSH0 DUP1 REVERT JUMPDEST PUSH2 0xC92 DUP6 DUP3 DUP7 ADD PUSH2 0xBD4 JUMP JUMPDEST SWAP3 POP POP PUSH1 0x20 DUP4 ADD CALLDATALOAD PUSH8 0xFFFFFFFFFFFFFFFF DUP2 GT ISZERO PUSH2 0xCAE JUMPI PUSH0 DUP1 REVERT JUMPDEST PUSH2 0xCBA DUP6 DUP3 DUP7 ADD PUSH2 0xBD4 JUMP JUMPDEST SWAP2 POP POP SWAP3 POP SWAP3 SWAP1 POP JUMP JUMPDEST PUSH1 0x20 DUP1 DUP3 MSTORE DUP3 MLOAD DUP3 DUP3 ADD DUP2 SWAP1 MSTORE PUSH0 SWAP2 DUP5 ADD SWAP1 PUSH1 0x40 DUP5 ADD SWAP1 DUP4 JUMPDEST DUP2 DUP2 LT ISZERO PUSH2 0xD04 JUMPI DUP4 MLOAD PUSH1 0x1 PUSH1 0x1 PUSH1 0xA0 SHL SUB AND DUP4 MSTORE PUSH1 0x20 SWAP4 DUP5 ADD SWAP4 SWAP1 SWAP3 ADD SWAP2 PUSH1 0x1 ADD PUSH2 0xCDD JUMP JUMPDEST POP SWAP1 SWAP6 SWAP5 POP POP POP POP POP JUMP JUMPDEST PUSH0 DUP2 MLOAD DUP1 DUP5 MSTORE DUP1 PUSH1 0x20 DUP5 ADD PUSH1 0x20 DUP7 ADD MCOPY PUSH0 PUSH1 0x20 DUP3 DUP7 ADD ADD MSTORE PUSH1 0x20 PUSH1 0x1F NOT PUSH1 0x1F DUP4 ADD AND DUP6 ADD ADD SWAP2 POP POP SWAP3 SWAP2 POP POP JUMP JUMPDEST PUSH1 0x40 DUP2 MSTORE PUSH0 PUSH2 0xD4F PUSH1 0x40 DUP4 ADD DUP6 PUSH2 0xD0F JUMP JUMPDEST DUP3 DUP2 SUB PUSH1 0x20 DUP5 ADD MSTORE PUSH2 0xD61 DUP2 DUP6 PUSH2 0xD0F JUMP JUMPDEST SWAP6 SWAP5 POP POP POP POP POP JUMP JUMPDEST PUSH0 PUSH1 0x20 DUP3 DUP5 SUB SLT ISZERO PUSH2 0xD7A JUMPI PUSH0 DUP1 REVERT JUMPDEST DUP2 CALLDATALOAD PUSH8 0xFFFFFFFFFFFFFFFF DUP2 GT ISZERO PUSH2 0xD90 JUMPI PUSH0 DUP1 REVERT JUMPDEST PUSH2 0xD9C DUP5 DUP3 DUP6 ADD PUSH2 0xBD4 JUMP JUMPDEST SWAP5 SWAP4 POP POP POP POP JUMP JUMPDEST PUSH1 0x20 DUP1 DUP3 MSTORE PUSH1 0xA SWAP1 DUP3 ADD MSTORE PUSH10 0x27B7363C9037BBB732B9 PUSH1 0xB1 SHL PUSH1 0x40 DUP3 ADD MSTORE PUSH1 0x60 ADD SWAP1 JUMP JUMPDEST PUSH1 0x1 DUP2 DUP2 SHR SWAP1 DUP3 AND DUP1 PUSH2 0xDDC JUMPI PUSH1 0x7F DUP3 AND SWAP2 POP JUMPDEST PUSH1 0x20 DUP3 LT DUP2 SUB PUSH2 0xDFA JUMPI PUSH4 0x4E487B71 PUSH1 0xE0 SHL PUSH0 MSTORE PUSH1 0x22 PUSH1 0x4 MSTORE PUSH1 0x24 PUSH0 REVERT JUMPDEST POP SWAP2 SWAP1 POP JUMP JUMPDEST PUSH1 0x1F DUP3 GT ISZERO PUSH2 0xE47 JUMPI DUP1 PUSH0 MSTORE PUSH1 0x20 PUSH0 KECCAK256 PUSH1 0x1F DUP5 ADD PUSH1 0x5 SHR DUP2 ADD PUSH1 0x20 DUP6 LT ISZERO PUSH2 0xE25 JUMPI POP DUP1 JUMPDEST PUSH1 0x1F DUP5 ADD PUSH1 0x5 SHR DUP3 ADD SWAP2 POP JUMPDEST DUP2 DUP2 LT ISZERO PUSH2 0xE44 JUMPI PUSH0 DUP2 SSTORE PUSH1 0x1 ADD PUSH2 0xE31 JUMP JUMPDEST POP POP JUMPDEST POP POP POP JUMP JUMPDEST DUP2 MLOAD PUSH8 0xFFFFFFFFFFFFFFFF DUP2 GT ISZERO PUSH2 0xE66 JUMPI PUSH2 0xE66 PUSH2 0xBC0 JUMP JUMPDEST PUSH2 0xE7A DUP2 PUSH2 0xE74 DUP5 SLOAD PUSH2 0xDC8 JUMP JUMPDEST DUP5 PUSH2 0xE00 JUMP JUMPDEST PUSH1 0x20 PUSH1 0x1F DUP3 GT PUSH1 0x1 DUP2 EQ PUSH2 0xEAC JUMPI PUSH0 DUP4 ISZERO PUSH2 0xE95 JUMPI POP DUP5 DUP3 ADD MLOAD JUMPDEST PUSH0 NOT PUSH1 0x3 DUP6 SWAP1 SHL SHR NOT AND PUSH1 0x1 DUP5 SWAP1 SHL OR DUP5 SSTORE PUSH2 0xE44 JUMP JUMPDEST PUSH0 DUP5 DUP2 MSTORE PUSH1 0x20 DUP2 KECCAK256 PUSH1 0x1F NOT DUP6 AND SWAP2 JUMPDEST DUP3 DUP2 LT ISZERO PUSH2 0xEDB JUMPI DUP8 DUP6 ADD MLOAD DUP3 SSTORE PUSH1 0x20 SWAP5 DUP6 ADD SWAP5 PUSH1 0x1 SWAP1 SWAP3 ADD SWAP2 ADD PUSH2 0xEBB JUMP JUMPDEST POP DUP5 DUP3 LT ISZERO PUSH2 0xEF8 JUMPI DUP7 DUP5 ADD MLOAD PUSH0 NOT PUSH1 0x3 DUP8 SWAP1 SHL PUSH1 0xF8 AND SHR NOT AND DUP2 SSTORE JUMPDEST POP POP POP POP PUSH1 0x1 SWAP1 DUP2 SHL ADD SWAP1 SSTORE POP JUMP JUMPDEST PUSH4 0x4E487B71 PUSH1 0xE0 SHL PUSH0 MSTORE PUSH1 0x32 PUSH1 0x4 MSTORE PUSH1 0x24 PUSH0 REVERT JUMPDEST PUSH4 0x4E487B71 PUSH1 0xE0 SHL PUSH0 MSTORE PUSH1 0x11 PUSH1 0x4 MSTORE PUSH1 0x24 PUSH0 REVERT JUMPDEST DUP2 DUP2 SUB DUP2 DUP2 GT ISZERO PUSH2 0xA5D JUMPI PUSH2 0xA5D PUSH2 0xF1B JUMP JUMPDEST DUP1 DUP3 ADD DUP1 DUP3 GT ISZERO PUSH2 0xA5D JUMPI PUSH2 0xA5D PUSH2 0xF1B JUMP JUMPDEST PUSH4 0x4E487B71 PUSH1 0xE0 SHL PUSH0 MSTORE PUSH1 0x31 PUSH1 0x4 MSTORE PUSH1 0x24 PUSH0 REVERT INVALID LOG2 PUSH5 0x6970667358 0x22 SLT KECCAK256 0x29 JUMP PUSH31 0x150A9ABCA154ACDF6E0F9AB4616F6A4CD21004536830C8342A6147CAF66473 PUSH16 0x6C634300081A00330000000000000000 "
				},
				"gasEstimates": {
					"creation": {
						"codeDepositCost": "799800",
						"executionCost": "infinite",
						"totalCost": "infinite"
					},
					"external": {
						"expose()": "infinite",
						"getItemType()": "6685",
						"getParent()": "6759",
						"getSharedWith()": "infinite",
						"isOwn()": "4523",
						"isSharedWith()": "infinite",
						"restictFrom(address)": "infinite",
						"setCardId(string)": "infinite",
						"setItem(string,string)": "infinite",
						"setName(string)": "infinite",
						"setParent(address)": "29875",
						"shareWith(address)": "infinite"
					}
				},
				"methodIdentifiers": {
					"expose()": "ba379e86",
					"getItemType()": "2858d3c8",
					"getParent()": "80f76021",
					"getSharedWith()": "a95264d0",
					"isOwn()": "b9daf3e2",
					"isSharedWith()": "4ba83374",
					"restictFrom(address)": "ded92dac",
					"setCardId(string)": "efd8af9f",
					"setItem(string,string)": "7a4c982e",
					"setName(string)": "c47f0027",
					"setParent(address)": "1499c592",
					"shareWith(address)": "5da6ef8d"
				}
			},
			"storageLayout": {
				"storage": [
					{
						"astId": 148,
						"contract": "Items/LoyalityCard.sol:LoyalityCard",
						"label": "name",
						"offset": 0,
						"slot": "0",
						"type": "t_string_storage"
					},
					{
						"astId": 151,
						"contract": "Items/LoyalityCard.sol:LoyalityCard",
						"label": "item_type",
						"offset": 0,
						"slot": "1",
						"type": "t_enum(ItemType)423"
					},
					{
						"astId": 153,
						"contract": "Items/LoyalityCard.sol:LoyalityCard",
						"label": "owner",
						"offset": 1,
						"slot": "1",
						"type": "t_address"
					},
					{
						"astId": 155,
						"contract": "Items/LoyalityCard.sol:LoyalityCard",
						"label": "parent",
						"offset": 0,
						"slot": "2",
						"type": "t_address"
					},
					{
						"astId": 158,
						"contract": "Items/LoyalityCard.sol:LoyalityCard",
						"label": "sharedWith",
						"offset": 0,
						"slot": "3",
						"type": "t_array(t_address)dyn_storage"
					},
					{
						"astId": 48,
						"contract": "Items/LoyalityCard.sol:LoyalityCard",
						"label": "card_id",
						"offset": 0,
						"slot": "4",
						"type": "t_string_storage"
					}
				],
				"types": {
					"t_address": {
						"encoding": "inplace",
						"label": "address",
						"numberOfBytes": "20"
					},
					"t_array(t_address)dyn_storage": {
						"base": "t_address",
						"encoding": "dynamic_array",
						"label": "address[]",
						"numberOfBytes": "32"
					},
					"t_enum(ItemType)423": {
						"encoding": "inplace",
						"label": "enum Constants.ItemType",
						"numberOfBytes": "1"
					},
					"t_string_storage": {
						"encoding": "bytes",
						"label": "string",
						"numberOfBytes": "32"
					}
				}
			},
			"userdoc": {
				"kind": "user",
				"methods": {},
				"version": 1
			}
		}
	}
}