{
	"Items/DebitCard.sol": {
		"DebitCard": {
			"abi": [
				{
					"inputs": [
						{
							"internalType": "string",
							"name": "_name",
							"type": "string"
						},
						{
							"internalType": "string",
							"name": "_card_id",
							"type": "string"
						},
						{
							"internalType": "string",
							"name": "_name_on_card",
							"type": "string"
						},
						{
							"internalType": "uint16",
							"name": "_expire_at",
							"type": "uint16"
						},
						{
							"internalType": "uint16",
							"name": "_cvv",
							"type": "uint16"
						},
						{
							"internalType": "address",
							"name": "_owner",
							"type": "address"
						},
						{
							"internalType": "address",
							"name": "_parent",
							"type": "address"
						}
					],
					"stateMutability": "nonpayable",
					"type": "constructor"
				},
				{
					"anonymous": false,
					"inputs": [
						{
							"indexed": false,
							"internalType": "address",
							"name": "",
							"type": "address"
						}
					],
					"name": "AddedToOrganisation",
					"type": "event"
				},
				{
					"anonymous": false,
					"inputs": [
						{
							"indexed": false,
							"internalType": "address",
							"name": "",
							"type": "address"
						}
					],
					"name": "Created",
					"type": "event"
				},
				{
					"anonymous": false,
					"inputs": [
						{
							"indexed": false,
							"internalType": "address",
							"name": "",
							"type": "address"
						}
					],
					"name": "RemovedFromOrganisation",
					"type": "event"
				},
				{
					"anonymous": false,
					"inputs": [
						{
							"indexed": false,
							"internalType": "address",
							"name": "",
							"type": "address"
						}
					],
					"name": "Updated",
					"type": "event"
				},
				{
					"inputs": [],
					"name": "expose",
					"outputs": [
						{
							"internalType": "string",
							"name": "",
							"type": "string"
						},
						{
							"internalType": "string",
							"name": "",
							"type": "string"
						},
						{
							"internalType": "string",
							"name": "",
							"type": "string"
						},
						{
							"internalType": "uint16",
							"name": "",
							"type": "uint16"
						},
						{
							"internalType": "uint16",
							"name": "",
							"type": "uint16"
						}
					],
					"stateMutability": "view",
					"type": "function"
				},
				{
					"inputs": [],
					"name": "getItemType",
					"outputs": [
						{
							"internalType": "enum Constants.ItemType",
							"name": "",
							"type": "uint8"
						}
					],
					"stateMutability": "view",
					"type": "function"
				},
				{
					"inputs": [],
					"name": "getParent",
					"outputs": [
						{
							"internalType": "address",
							"name": "",
							"type": "address"
						}
					],
					"stateMutability": "view",
					"type": "function"
				},
				{
					"inputs": [],
					"name": "getSharedWith",
					"outputs": [
						{
							"internalType": "address[]",
							"name": "",
							"type": "address[]"
						}
					],
					"stateMutability": "view",
					"type": "function"
				},
				{
					"inputs": [],
					"name": "isOwn",
					"outputs": [
						{
							"internalType": "bool",
							"name": "",
							"type": "bool"
						}
					],
					"stateMutability": "view",
					"type": "function"
				},
				{
					"inputs": [],
					"name": "isSharedWith",
					"outputs": [
						{
							"internalType": "bool",
							"name": "",
							"type": "bool"
						}
					],
					"stateMutability": "view",
					"type": "function"
				},
				{
					"inputs": [
						{
							"internalType": "address",
							"name": "_f",
							"type": "address"
						}
					],
					"name": "restictFrom",
					"outputs": [],
					"stateMutability": "nonpayable",
					"type": "function"
				},
				{
					"inputs": [
						{
							"internalType": "string",
							"name": "_card_id",
							"type": "string"
						}
					],
					"name": "setCardId",
					"outputs": [],
					"stateMutability": "nonpayable",
					"type": "function"
				},
				{
					"inputs": [
						{
							"internalType": "uint16",
							"name": "_cvv",
							"type": "uint16"
						}
					],
					"name": "setCvv",
					"outputs": [],
					"stateMutability": "nonpayable",
					"type": "function"
				},
				{
					"inputs": [
						{
							"internalType": "uint16",
							"name": "_expire_at",
							"type": "uint16"
						}
					],
					"name": "setExpireAt",
					"outputs": [],
					"stateMutability": "nonpayable",
					"type": "function"
				},
				{
					"inputs": [
						{
							"internalType": "string",
							"name": "_n",
							"type": "string"
						},
						{
							"internalType": "string",
							"name": "_c_id",
							"type": "string"
						},
						{
							"internalType": "string",
							"name": "_noc",
							"type": "string"
						},
						{
							"internalType": "uint16",
							"name": "_e_at",
							"type": "uint16"
						},
						{
							"internalType": "uint16",
							"name": "_cvv",
							"type": "uint16"
						}
					],
					"name": "setItem",
					"outputs": [],
					"stateMutability": "nonpayable",
					"type": "function"
				},
				{
					"inputs": [
						{
							"internalType": "string",
							"name": "_n",
							"type": "string"
						}
					],
					"name": "setName",
					"outputs": [],
					"stateMutability": "nonpayable",
					"type": "function"
				},
				{
					"inputs": [
						{
							"internalType": "string",
							"name": "_name_on_card",
							"type": "string"
						}
					],
					"name": "setNameOnCard",
					"outputs": [],
					"stateMutability": "nonpayable",
					"type": "function"
				},
				{
					"inputs": [
						{
							"internalType": "address",
							"name": "_p",
							"type": "address"
						}
					],
					"name": "setParent",
					"outputs": [],
					"stateMutability": "nonpayable",
					"type": "function"
				},
				{
					"inputs": [
						{
							"internalType": "address",
							"name": "_w",
							"type": "address"
						}
					],
					"name": "shareWith",
					"outputs": [],
					"stateMutability": "nonpayable",
					"type": "function"
				}
			],
			"devdoc": {
				"kind": "dev",
				"methods": {},
				"version": 1
			},
			"evm": {
				"assembly": "    /* \"Items/DebitCard.sol\":137:1897  contract DebitCard is VaultItem{... */\n  mstore(0x40, 0x80)\n    /* \"Items/DebitCard.sol\":266:763  constructor(... */\n  callvalue\n  dup1\n  iszero\n  tag_1\n  jumpi\n  0x00\n  dup1\n  revert\ntag_1:\n  pop\n  mload(0x40)\n  sub(codesize, bytecodeSize)\n  dup1\n  bytecodeSize\n  dup4\n  codecopy\n  dup2\n  add\n  0x40\n  dup2\n  swap1\n  mstore\n  tag_2\n  swap2\n  tag_3\n  jump\t// in\ntag_2:\n    /* \"Items/DebitCard.sol\":507:512  _name */\n  dup7\n    /* \"Items/DebitCard.sol\":523:552  Constants.ItemType.DEBIT_CARD */\n  0x01\n    /* \"Items/DebitCard.sol\":563:569  _owner */\n  dup4\n    /* \"Items/DebitCard.sol\":580:587  _parent */\n  dup4\n    /* \"Items/VaultItem.sol\":738:742  name */\n  0x00\n    /* \"Items/VaultItem.sol\":738:747  name = _n */\n  tag_7\n    /* \"Items/DebitCard.sol\":507:512  _name */\n  dup6\n    /* \"Items/VaultItem.sol\":738:742  name */\n  dup3\n    /* \"Items/VaultItem.sol\":738:747  name = _n */\n  tag_8\n  jump\t// in\ntag_7:\n  pop\n    /* \"Items/VaultItem.sol\":758:767  item_type */\n  0x01\n    /* \"Items/VaultItem.sol\":758:780  item_type = _item_type */\n  dup1\n  sload\n    /* \"Items/VaultItem.sol\":770:780  _item_type */\n  dup5\n  swap2\n    /* \"Items/VaultItem.sol\":758:767  item_type */\n  swap1\n  not(0xff)\n    /* \"Items/VaultItem.sol\":758:780  item_type = _item_type */\n  and\n    /* \"Items/VaultItem.sol\":758:767  item_type */\n  dup2\n    /* \"Items/VaultItem.sol\":770:780  _item_type */\n  dup4\n    /* \"Items/VaultItem.sol\":758:780  item_type = _item_type */\n  0x02\n  dup2\n  gt\n  iszero\n  tag_10\n  jumpi\n  tag_10\n  tag_11\n  jump\t// in\ntag_10:\n  mul\n  or\n  swap1\n  sstore\n  pop\n    /* \"Items/VaultItem.sol\":793:798  owner */\n  0x01\n    /* \"Items/VaultItem.sol\":793:803  owner = _o */\n  dup1\n  sload\n  not(sub(shl(0xa8, 0x01), 0x0100))\n  and\n  0x0100\n  sub(shl(0xa0, 0x01), 0x01)\n  swap5\n  dup6\n  and\n  mul\n  or\n  swap1\n  sstore\n    /* \"Items/VaultItem.sol\":814:820  parent */\n  0x02\n    /* \"Items/VaultItem.sol\":814:825  parent = _p */\n  dup1\n  sload\n  not(sub(shl(0xa0, 0x01), 0x01))\n  and\n  swap2\n  swap1\n  swap3\n  and\n  or\n  swap1\n  sstore\n  pop\n    /* \"Items/DebitCard.sol\":607:614  card_id */\n  0x04\n  swap1\n  pop\n    /* \"Items/DebitCard.sol\":607:625  card_id = _card_id */\n  tag_13\n    /* \"Items/DebitCard.sol\":617:625  _card_id */\n  dup8\n    /* \"Items/DebitCard.sol\":607:614  card_id */\n  dup3\n    /* \"Items/DebitCard.sol\":607:625  card_id = _card_id */\n  tag_8\n  jump\t// in\ntag_13:\n  pop\n    /* \"Items/DebitCard.sol\":636:648  name_on_card */\n  0x05\n    /* \"Items/DebitCard.sol\":636:664  name_on_card = _name_on_card */\n  tag_14\n    /* \"Items/DebitCard.sol\":651:664  _name_on_card */\n  dup7\n    /* \"Items/DebitCard.sol\":636:648  name_on_card */\n  dup3\n    /* \"Items/DebitCard.sol\":636:664  name_on_card = _name_on_card */\n  tag_8\n  jump\t// in\ntag_14:\n  pop\n    /* \"Items/DebitCard.sol\":675:684  expire_at */\n  0x06\n    /* \"Items/DebitCard.sol\":675:697  expire_at = _expire_at */\n  dup1\n  sload\n  0xffff\n    /* \"Items/DebitCard.sol\":708:718  cvv = _cvv */\n  dup6\n  dup2\n  and\n  0x010000\n  mul\n  not(0xffffffff)\n  swap1\n  swap3\n  and\n    /* \"Items/DebitCard.sol\":675:697  expire_at = _expire_at */\n  swap1\n  dup8\n  and\n    /* \"Items/DebitCard.sol\":708:718  cvv = _cvv */\n  or\n  or\n  swap1\n  sstore\n    /* \"Items/DebitCard.sol\":736:755  Created(msg.sender) */\n  mload(0x40)\n    /* \"Items/DebitCard.sol\":744:754  msg.sender */\n  caller\n    /* \"#utility.yul\":5133:5184   */\n  dup2\n  mstore\n    /* \"Items/DebitCard.sol\":736:755  Created(msg.sender) */\n  0x1449abf21e49fd025f33495e77f7b1461caefdd3d4bb646424a3f445c4576a5b\n  swap1\n    /* \"#utility.yul\":5121:5123   */\n  0x20\n    /* \"#utility.yul\":5106:5124   */\n  add\n    /* \"Items/DebitCard.sol\":736:755  Created(msg.sender) */\n  mload(0x40)\n  dup1\n  swap2\n  sub\n  swap1\n  log1\n    /* \"Items/DebitCard.sol\":266:763  constructor(... */\n  pop\n  pop\n  pop\n  pop\n  pop\n  pop\n  pop\n    /* \"Items/DebitCard.sol\":137:1897  contract DebitCard is VaultItem{... */\n  jump(tag_26)\n    /* \"#utility.yul\":14:141   */\ntag_18:\n    /* \"#utility.yul\":75:85   */\n  0x4e487b71\n    /* \"#utility.yul\":70:73   */\n  0xe0\n    /* \"#utility.yul\":66:86   */\n  shl\n    /* \"#utility.yul\":63:64   */\n  0x00\n    /* \"#utility.yul\":56:87   */\n  mstore\n    /* \"#utility.yul\":106:110   */\n  0x41\n    /* \"#utility.yul\":103:104   */\n  0x04\n    /* \"#utility.yul\":96:111   */\n  mstore\n    /* \"#utility.yul\":130:134   */\n  0x24\n    /* \"#utility.yul\":127:128   */\n  0x00\n    /* \"#utility.yul\":120:135   */\n  revert\n    /* \"#utility.yul\":146:869   */\ntag_19:\n    /* \"#utility.yul\":200:205   */\n  0x00\n    /* \"#utility.yul\":253:256   */\n  dup3\n    /* \"#utility.yul\":246:250   */\n  0x1f\n    /* \"#utility.yul\":238:244   */\n  dup4\n    /* \"#utility.yul\":234:251   */\n  add\n    /* \"#utility.yul\":230:257   */\n  slt\n    /* \"#utility.yul\":220:275   */\n  tag_29\n  jumpi\n    /* \"#utility.yul\":271:272   */\n  0x00\n    /* \"#utility.yul\":268:269   */\n  dup1\n    /* \"#utility.yul\":261:273   */\n  revert\n    /* \"#utility.yul\":220:275   */\ntag_29:\n    /* \"#utility.yul\":298:311   */\n  dup2\n  mload\n  sub(shl(0x40, 0x01), 0x01)\n    /* \"#utility.yul\":323:353   */\n  dup2\n  gt\n    /* \"#utility.yul\":320:376   */\n  iszero\n  tag_31\n  jumpi\n    /* \"#utility.yul\":356:374   */\n  tag_31\n  tag_18\n  jump\t// in\ntag_31:\n    /* \"#utility.yul\":405:407   */\n  0x40\n    /* \"#utility.yul\":399:408   */\n  mload\n    /* \"#utility.yul\":497:499   */\n  0x1f\n    /* \"#utility.yul\":459:476   */\n  dup3\n  add\n  not(0x1f)\n    /* \"#utility.yul\":455:486   */\n  swap1\n  dup2\n  and\n    /* \"#utility.yul\":488:490   */\n  0x3f\n    /* \"#utility.yul\":451:491   */\n  add\n    /* \"#utility.yul\":447:501   */\n  and\n    /* \"#utility.yul\":435:502   */\n  dup2\n  add\n  sub(shl(0x40, 0x01), 0x01)\n    /* \"#utility.yul\":517:551   */\n  dup2\n  gt\n    /* \"#utility.yul\":553:575   */\n  dup3\n  dup3\n  lt\n    /* \"#utility.yul\":514:576   */\n  or\n    /* \"#utility.yul\":511:599   */\n  iszero\n  tag_33\n  jumpi\n    /* \"#utility.yul\":579:597   */\n  tag_33\n  tag_18\n  jump\t// in\ntag_33:\n    /* \"#utility.yul\":615:617   */\n  0x40\n    /* \"#utility.yul\":608:630   */\n  mstore\n    /* \"#utility.yul\":639:661   */\n  dup2\n  dup2\n  mstore\n    /* \"#utility.yul\":680:699   */\n  dup4\n  dup3\n  add\n    /* \"#utility.yul\":701:705   */\n  0x20\n    /* \"#utility.yul\":676:706   */\n  add\n    /* \"#utility.yul\":673:712   */\n  dup6\n  lt\n    /* \"#utility.yul\":670:729   */\n  iszero\n  tag_34\n  jumpi\n    /* \"#utility.yul\":725:726   */\n  0x00\n    /* \"#utility.yul\":722:723   */\n  dup1\n    /* \"#utility.yul\":715:727   */\n  revert\n    /* \"#utility.yul\":670:729   */\ntag_34:\n    /* \"#utility.yul\":782:788   */\n  dup2\n    /* \"#utility.yul\":775:779   */\n  0x20\n    /* \"#utility.yul\":767:773   */\n  dup6\n    /* \"#utility.yul\":763:780   */\n  add\n    /* \"#utility.yul\":756:760   */\n  0x20\n    /* \"#utility.yul\":748:754   */\n  dup4\n    /* \"#utility.yul\":744:761   */\n  add\n    /* \"#utility.yul\":738:789   */\n  mcopy\n    /* \"#utility.yul\":837:838   */\n  0x00\n    /* \"#utility.yul\":809:828   */\n  swap2\n  dup2\n  add\n    /* \"#utility.yul\":830:834   */\n  0x20\n    /* \"#utility.yul\":805:835   */\n  add\n    /* \"#utility.yul\":798:839   */\n  swap2\n  swap1\n  swap2\n  mstore\n    /* \"#utility.yul\":813:819   */\n  swap4\n    /* \"#utility.yul\":146:869   */\n  swap3\n  pop\n  pop\n  pop\n  jump\t// out\n    /* \"#utility.yul\":874:1037   */\ntag_20:\n    /* \"#utility.yul\":952:965   */\n  dup1\n  mload\n    /* \"#utility.yul\":1005:1011   */\n  0xffff\n    /* \"#utility.yul\":994:1012   */\n  dup2\n  and\n    /* \"#utility.yul\":984:1013   */\n  dup2\n  eq\n    /* \"#utility.yul\":974:1031   */\n  tag_36\n  jumpi\n    /* \"#utility.yul\":1027:1028   */\n  0x00\n    /* \"#utility.yul\":1024:1025   */\n  dup1\n    /* \"#utility.yul\":1017:1029   */\n  revert\n    /* \"#utility.yul\":974:1031   */\ntag_36:\n    /* \"#utility.yul\":874:1037   */\n  swap2\n  swap1\n  pop\n  jump\t// out\n    /* \"#utility.yul\":1042:1219   */\ntag_21:\n    /* \"#utility.yul\":1121:1134   */\n  dup1\n  mload\n  sub(shl(0xa0, 0x01), 0x01)\n    /* \"#utility.yul\":1163:1194   */\n  dup2\n  and\n    /* \"#utility.yul\":1153:1195   */\n  dup2\n  eq\n    /* \"#utility.yul\":1143:1213   */\n  tag_36\n  jumpi\n    /* \"#utility.yul\":1209:1210   */\n  0x00\n    /* \"#utility.yul\":1206:1207   */\n  dup1\n    /* \"#utility.yul\":1199:1211   */\n  revert\n    /* \"#utility.yul\":1224:2341   */\ntag_3:\n    /* \"#utility.yul\":1376:1382   */\n  0x00\n    /* \"#utility.yul\":1384:1390   */\n  dup1\n    /* \"#utility.yul\":1392:1398   */\n  0x00\n    /* \"#utility.yul\":1400:1406   */\n  dup1\n    /* \"#utility.yul\":1408:1414   */\n  0x00\n    /* \"#utility.yul\":1416:1422   */\n  dup1\n    /* \"#utility.yul\":1424:1430   */\n  0x00\n    /* \"#utility.yul\":1477:1480   */\n  0xe0\n    /* \"#utility.yul\":1465:1474   */\n  dup9\n    /* \"#utility.yul\":1456:1463   */\n  dup11\n    /* \"#utility.yul\":1452:1475   */\n  sub\n    /* \"#utility.yul\":1448:1481   */\n  slt\n    /* \"#utility.yul\":1445:1498   */\n  iszero\n  tag_40\n  jumpi\n    /* \"#utility.yul\":1494:1495   */\n  0x00\n    /* \"#utility.yul\":1491:1492   */\n  dup1\n    /* \"#utility.yul\":1484:1496   */\n  revert\n    /* \"#utility.yul\":1445:1498   */\ntag_40:\n    /* \"#utility.yul\":1521:1537   */\n  dup8\n  mload\n  sub(shl(0x40, 0x01), 0x01)\n    /* \"#utility.yul\":1549:1579   */\n  dup2\n  gt\n    /* \"#utility.yul\":1546:1596   */\n  iszero\n  tag_41\n  jumpi\n    /* \"#utility.yul\":1592:1593   */\n  0x00\n    /* \"#utility.yul\":1589:1590   */\n  dup1\n    /* \"#utility.yul\":1582:1594   */\n  revert\n    /* \"#utility.yul\":1546:1596   */\ntag_41:\n    /* \"#utility.yul\":1615:1676   */\n  tag_42\n    /* \"#utility.yul\":1668:1675   */\n  dup11\n    /* \"#utility.yul\":1659:1665   */\n  dup3\n    /* \"#utility.yul\":1648:1657   */\n  dup12\n    /* \"#utility.yul\":1644:1666   */\n  add\n    /* \"#utility.yul\":1615:1676   */\n  tag_19\n  jump\t// in\ntag_42:\n    /* \"#utility.yul\":1722:1724   */\n  0x20\n    /* \"#utility.yul\":1707:1725   */\n  dup11\n  add\n    /* \"#utility.yul\":1701:1726   */\n  mload\n    /* \"#utility.yul\":1605:1676   */\n  swap1\n  swap9\n  pop\n    /* \"#utility.yul\":1701:1726   */\n  swap1\n  pop\n  sub(shl(0x40, 0x01), 0x01)\n    /* \"#utility.yul\":1738:1770   */\n  dup2\n  gt\n    /* \"#utility.yul\":1735:1787   */\n  iszero\n  tag_43\n  jumpi\n    /* \"#utility.yul\":1783:1784   */\n  0x00\n    /* \"#utility.yul\":1780:1781   */\n  dup1\n    /* \"#utility.yul\":1773:1785   */\n  revert\n    /* \"#utility.yul\":1735:1787   */\ntag_43:\n    /* \"#utility.yul\":1806:1869   */\n  tag_44\n    /* \"#utility.yul\":1861:1868   */\n  dup11\n    /* \"#utility.yul\":1850:1858   */\n  dup3\n    /* \"#utility.yul\":1839:1848   */\n  dup12\n    /* \"#utility.yul\":1835:1859   */\n  add\n    /* \"#utility.yul\":1806:1869   */\n  tag_19\n  jump\t// in\ntag_44:\n    /* \"#utility.yul\":1915:1917   */\n  0x40\n    /* \"#utility.yul\":1900:1918   */\n  dup11\n  add\n    /* \"#utility.yul\":1894:1919   */\n  mload\n    /* \"#utility.yul\":1796:1869   */\n  swap1\n  swap8\n  pop\n    /* \"#utility.yul\":1894:1919   */\n  swap1\n  pop\n  sub(shl(0x40, 0x01), 0x01)\n    /* \"#utility.yul\":1931:1963   */\n  dup2\n  gt\n    /* \"#utility.yul\":1928:1980   */\n  iszero\n  tag_45\n  jumpi\n    /* \"#utility.yul\":1976:1977   */\n  0x00\n    /* \"#utility.yul\":1973:1974   */\n  dup1\n    /* \"#utility.yul\":1966:1978   */\n  revert\n    /* \"#utility.yul\":1928:1980   */\ntag_45:\n    /* \"#utility.yul\":1999:2062   */\n  tag_46\n    /* \"#utility.yul\":2054:2061   */\n  dup11\n    /* \"#utility.yul\":2043:2051   */\n  dup3\n    /* \"#utility.yul\":2032:2041   */\n  dup12\n    /* \"#utility.yul\":2028:2052   */\n  add\n    /* \"#utility.yul\":1999:2062   */\n  tag_19\n  jump\t// in\ntag_46:\n    /* \"#utility.yul\":1989:2062   */\n  swap6\n  pop\n  pop\n    /* \"#utility.yul\":2081:2129   */\n  tag_47\n    /* \"#utility.yul\":2125:2127   */\n  0x60\n    /* \"#utility.yul\":2114:2123   */\n  dup10\n    /* \"#utility.yul\":2110:2128   */\n  add\n    /* \"#utility.yul\":2081:2129   */\n  tag_20\n  jump\t// in\ntag_47:\n    /* \"#utility.yul\":2071:2129   */\n  swap4\n  pop\n    /* \"#utility.yul\":2148:2197   */\n  tag_48\n    /* \"#utility.yul\":2192:2195   */\n  0x80\n    /* \"#utility.yul\":2181:2190   */\n  dup10\n    /* \"#utility.yul\":2177:2196   */\n  add\n    /* \"#utility.yul\":2148:2197   */\n  tag_20\n  jump\t// in\ntag_48:\n    /* \"#utility.yul\":2138:2197   */\n  swap3\n  pop\n    /* \"#utility.yul\":2216:2266   */\n  tag_49\n    /* \"#utility.yul\":2261:2264   */\n  0xa0\n    /* \"#utility.yul\":2250:2259   */\n  dup10\n    /* \"#utility.yul\":2246:2265   */\n  add\n    /* \"#utility.yul\":2216:2266   */\n  tag_21\n  jump\t// in\ntag_49:\n    /* \"#utility.yul\":2206:2266   */\n  swap2\n  pop\n    /* \"#utility.yul\":2285:2335   */\n  tag_50\n    /* \"#utility.yul\":2330:2333   */\n  0xc0\n    /* \"#utility.yul\":2319:2328   */\n  dup10\n    /* \"#utility.yul\":2315:2334   */\n  add\n    /* \"#utility.yul\":2285:2335   */\n  tag_21\n  jump\t// in\ntag_50:\n    /* \"#utility.yul\":2275:2335   */\n  swap1\n  pop\n    /* \"#utility.yul\":1224:2341   */\n  swap3\n  swap6\n  swap9\n  swap2\n  swap5\n  swap8\n  pop\n  swap3\n  swap6\n  pop\n  jump\t// out\n    /* \"#utility.yul\":2346:2726   */\ntag_22:\n    /* \"#utility.yul\":2425:2426   */\n  0x01\n    /* \"#utility.yul\":2421:2433   */\n  dup2\n  dup2\n  shr\n  swap1\n    /* \"#utility.yul\":2468:2480   */\n  dup3\n  and\n  dup1\n    /* \"#utility.yul\":2489:2550   */\n  tag_52\n  jumpi\n    /* \"#utility.yul\":2543:2547   */\n  0x7f\n    /* \"#utility.yul\":2535:2541   */\n  dup3\n    /* \"#utility.yul\":2531:2548   */\n  and\n    /* \"#utility.yul\":2521:2548   */\n  swap2\n  pop\n    /* \"#utility.yul\":2489:2550   */\ntag_52:\n    /* \"#utility.yul\":2596:2598   */\n  0x20\n    /* \"#utility.yul\":2588:2594   */\n  dup3\n    /* \"#utility.yul\":2585:2599   */\n  lt\n    /* \"#utility.yul\":2565:2583   */\n  dup2\n    /* \"#utility.yul\":2562:2600   */\n  sub\n    /* \"#utility.yul\":2559:2720   */\n  tag_53\n  jumpi\n    /* \"#utility.yul\":2642:2652   */\n  0x4e487b71\n    /* \"#utility.yul\":2637:2640   */\n  0xe0\n    /* \"#utility.yul\":2633:2653   */\n  shl\n    /* \"#utility.yul\":2630:2631   */\n  0x00\n    /* \"#utility.yul\":2623:2654   */\n  mstore\n    /* \"#utility.yul\":2677:2681   */\n  0x22\n    /* \"#utility.yul\":2674:2675   */\n  0x04\n    /* \"#utility.yul\":2667:2682   */\n  mstore\n    /* \"#utility.yul\":2705:2709   */\n  0x24\n    /* \"#utility.yul\":2702:2703   */\n  0x00\n    /* \"#utility.yul\":2695:2710   */\n  revert\n    /* \"#utility.yul\":2559:2720   */\ntag_53:\n  pop\n    /* \"#utility.yul\":2346:2726   */\n  swap2\n  swap1\n  pop\n  jump\t// out\n    /* \"#utility.yul\":2857:3375   */\ntag_24:\n    /* \"#utility.yul\":2959:2961   */\n  0x1f\n    /* \"#utility.yul\":2954:2957   */\n  dup3\n    /* \"#utility.yul\":2951:2962   */\n  gt\n    /* \"#utility.yul\":2948:3369   */\n  iszero\n  tag_56\n  jumpi\n    /* \"#utility.yul\":2995:3000   */\n  dup1\n    /* \"#utility.yul\":2992:2993   */\n  0x00\n    /* \"#utility.yul\":2985:3001   */\n  mstore\n    /* \"#utility.yul\":3039:3043   */\n  0x20\n    /* \"#utility.yul\":3036:3037   */\n  0x00\n    /* \"#utility.yul\":3026:3044   */\n  keccak256\n    /* \"#utility.yul\":3109:3111   */\n  0x1f\n    /* \"#utility.yul\":3097:3107   */\n  dup5\n    /* \"#utility.yul\":3093:3112   */\n  add\n    /* \"#utility.yul\":3090:3091   */\n  0x05\n    /* \"#utility.yul\":3086:3113   */\n  shr\n    /* \"#utility.yul\":3080:3084   */\n  dup2\n    /* \"#utility.yul\":3076:3114   */\n  add\n    /* \"#utility.yul\":3145:3149   */\n  0x20\n    /* \"#utility.yul\":3133:3143   */\n  dup6\n    /* \"#utility.yul\":3130:3150   */\n  lt\n    /* \"#utility.yul\":3127:3174   */\n  iszero\n  tag_57\n  jumpi\n  pop\n    /* \"#utility.yul\":3168:3172   */\n  dup1\n    /* \"#utility.yul\":3127:3174   */\ntag_57:\n    /* \"#utility.yul\":3223:3225   */\n  0x1f\n    /* \"#utility.yul\":3218:3221   */\n  dup5\n    /* \"#utility.yul\":3214:3226   */\n  add\n    /* \"#utility.yul\":3211:3212   */\n  0x05\n    /* \"#utility.yul\":3207:3227   */\n  shr\n    /* \"#utility.yul\":3201:3205   */\n  dup3\n    /* \"#utility.yul\":3197:3228   */\n  add\n    /* \"#utility.yul\":3187:3228   */\n  swap2\n  pop\n    /* \"#utility.yul\":3278:3359   */\ntag_58:\n    /* \"#utility.yul\":3296:3298   */\n  dup2\n    /* \"#utility.yul\":3289:3294   */\n  dup2\n    /* \"#utility.yul\":3286:3299   */\n  lt\n    /* \"#utility.yul\":3278:3359   */\n  iszero\n  tag_60\n  jumpi\n    /* \"#utility.yul\":3355:3356   */\n  0x00\n    /* \"#utility.yul\":3341:3357   */\n  dup2\n  sstore\n    /* \"#utility.yul\":3322:3323   */\n  0x01\n    /* \"#utility.yul\":3311:3324   */\n  add\n    /* \"#utility.yul\":3278:3359   */\n  jump(tag_58)\ntag_60:\n    /* \"#utility.yul\":3282:3285   */\n  pop\n  pop\n    /* \"#utility.yul\":2948:3369   */\ntag_56:\n    /* \"#utility.yul\":2857:3375   */\n  pop\n  pop\n  pop\n  jump\t// out\n    /* \"#utility.yul\":3551:4850   */\ntag_8:\n    /* \"#utility.yul\":3671:3681   */\n  dup2\n  mload\n  sub(shl(0x40, 0x01), 0x01)\n    /* \"#utility.yul\":3693:3723   */\n  dup2\n  gt\n    /* \"#utility.yul\":3690:3746   */\n  iszero\n  tag_64\n  jumpi\n    /* \"#utility.yul\":3726:3744   */\n  tag_64\n  tag_18\n  jump\t// in\ntag_64:\n    /* \"#utility.yul\":3755:3852   */\n  tag_65\n    /* \"#utility.yul\":3845:3851   */\n  dup2\n    /* \"#utility.yul\":3805:3843   */\n  tag_66\n    /* \"#utility.yul\":3837:3841   */\n  dup5\n    /* \"#utility.yul\":3831:3842   */\n  sload\n    /* \"#utility.yul\":3805:3843   */\n  tag_22\n  jump\t// in\ntag_66:\n    /* \"#utility.yul\":3799:3803   */\n  dup5\n    /* \"#utility.yul\":3755:3852   */\n  tag_24\n  jump\t// in\ntag_65:\n    /* \"#utility.yul\":3901:3905   */\n  0x20\n    /* \"#utility.yul\":3932:3934   */\n  0x1f\n    /* \"#utility.yul\":3921:3935   */\n  dup3\n  gt\n    /* \"#utility.yul\":3949:3950   */\n  0x01\n    /* \"#utility.yul\":3944:4593   */\n  dup2\n  eq\n  tag_68\n  jumpi\n    /* \"#utility.yul\":4637:4638   */\n  0x00\n    /* \"#utility.yul\":4654:4660   */\n  dup4\n    /* \"#utility.yul\":4651:4740   */\n  iszero\n  tag_69\n  jumpi\n  pop\n    /* \"#utility.yul\":4706:4725   */\n  dup5\n  dup3\n  add\n    /* \"#utility.yul\":4700:4726   */\n  mload\n    /* \"#utility.yul\":4651:4740   */\ntag_69:\n  not(0x00)\n    /* \"#utility.yul\":3508:3509   */\n  0x03\n    /* \"#utility.yul\":3504:3515   */\n  dup6\n  swap1\n  shl\n    /* \"#utility.yul\":3500:3524   */\n  shr\n    /* \"#utility.yul\":3496:3525   */\n  not\n    /* \"#utility.yul\":3486:3526   */\n  and\n    /* \"#utility.yul\":3532:3533   */\n  0x01\n    /* \"#utility.yul\":3528:3539   */\n  dup5\n  swap1\n  shl\n    /* \"#utility.yul\":3483:3540   */\n  or\n    /* \"#utility.yul\":4753:4834   */\n  dup5\n  sstore\n    /* \"#utility.yul\":3914:4844   */\n  jump(tag_60)\n    /* \"#utility.yul\":3944:4593   */\ntag_68:\n    /* \"#utility.yul\":2804:2805   */\n  0x00\n    /* \"#utility.yul\":2797:2811   */\n  dup5\n  dup2\n  mstore\n    /* \"#utility.yul\":2841:2845   */\n  0x20\n    /* \"#utility.yul\":2828:2846   */\n  dup2\n  keccak256\n  not(0x1f)\n    /* \"#utility.yul\":3980:4000   */\n  dup6\n  and\n  swap2\n    /* \"#utility.yul\":4098:4320   */\ntag_72:\n    /* \"#utility.yul\":4112:4119   */\n  dup3\n    /* \"#utility.yul\":4109:4110   */\n  dup2\n    /* \"#utility.yul\":4106:4120   */\n  lt\n    /* \"#utility.yul\":4098:4320   */\n  iszero\n  tag_74\n  jumpi\n    /* \"#utility.yul\":4194:4213   */\n  dup8\n  dup6\n  add\n    /* \"#utility.yul\":4188:4214   */\n  mload\n    /* \"#utility.yul\":4173:4215   */\n  dup3\n  sstore\n    /* \"#utility.yul\":4301:4305   */\n  0x20\n    /* \"#utility.yul\":4286:4306   */\n  swap5\n  dup6\n  add\n  swap5\n    /* \"#utility.yul\":4254:4255   */\n  0x01\n    /* \"#utility.yul\":4242:4256   */\n  swap1\n  swap3\n  add\n  swap2\n    /* \"#utility.yul\":4128:4140   */\n  add\n    /* \"#utility.yul\":4098:4320   */\n  jump(tag_72)\ntag_74:\n    /* \"#utility.yul\":4102:4105   */\n  pop\n    /* \"#utility.yul\":4348:4354   */\n  dup5\n    /* \"#utility.yul\":4339:4346   */\n  dup3\n    /* \"#utility.yul\":4336:4355   */\n  lt\n    /* \"#utility.yul\":4333:4534   */\n  iszero\n  tag_75\n  jumpi\n    /* \"#utility.yul\":4409:4428   */\n  dup7\n  dup5\n  add\n    /* \"#utility.yul\":4403:4429   */\n  mload\n  not(0x00)\n    /* \"#utility.yul\":4492:4493   */\n  0x03\n    /* \"#utility.yul\":4488:4502   */\n  dup8\n  swap1\n  shl\n    /* \"#utility.yul\":4504:4507   */\n  0xf8\n    /* \"#utility.yul\":4484:4508   */\n  and\n    /* \"#utility.yul\":4480:4517   */\n  shr\n    /* \"#utility.yul\":4476:4518   */\n  not\n    /* \"#utility.yul\":4461:4519   */\n  and\n    /* \"#utility.yul\":4446:4520   */\n  dup2\n  sstore\n    /* \"#utility.yul\":4333:4534   */\ntag_75:\n  pop\n  pop\n  pop\n  pop\n    /* \"#utility.yul\":4580:4581   */\n  0x01\n    /* \"#utility.yul\":4564:4578   */\n  swap1\n  dup2\n  shl\n    /* \"#utility.yul\":4560:4582   */\n  add\n    /* \"#utility.yul\":4547:4583   */\n  swap1\n  sstore\n  pop\n    /* \"#utility.yul\":3551:4850   */\n  jump\t// out\n    /* \"#utility.yul\":4855:4982   */\ntag_11:\n    /* \"#utility.yul\":4916:4926   */\n  0x4e487b71\n    /* \"#utility.yul\":4911:4914   */\n  0xe0\n    /* \"#utility.yul\":4907:4927   */\n  shl\n    /* \"#utility.yul\":4904:4905   */\n  0x00\n    /* \"#utility.yul\":4897:4928   */\n  mstore\n    /* \"#utility.yul\":4947:4951   */\n  0x21\n    /* \"#utility.yul\":4944:4945   */\n  0x04\n    /* \"#utility.yul\":4937:4952   */\n  mstore\n    /* \"#utility.yul\":4971:4975   */\n  0x24\n    /* \"#utility.yul\":4968:4969   */\n  0x00\n    /* \"#utility.yul\":4961:4976   */\n  revert\n    /* \"#utility.yul\":4987:5190   */\ntag_26:\n    /* \"Items/DebitCard.sol\":137:1897  contract DebitCard is VaultItem{... */\n  dataSize(sub_0)\n  dup1\n  dataOffset(sub_0)\n  0x00\n  codecopy\n  0x00\n  return\nstop\n\nsub_0: assembly {\n        /* \"Items/DebitCard.sol\":137:1897  contract DebitCard is VaultItem{... */\n      mstore(0x40, 0x80)\n      callvalue\n      dup1\n      iszero\n      tag_1\n      jumpi\n      0x00\n      dup1\n      revert\n    tag_1:\n      pop\n      jumpi(tag_2, lt(calldatasize, 0x04))\n      shr(0xe0, calldataload(0x00))\n      dup1\n      0x80f76021\n      gt\n      tag_18\n      jumpi\n      dup1\n      0xc40da770\n      gt\n      tag_19\n      jumpi\n      dup1\n      0xc40da770\n      eq\n      tag_14\n      jumpi\n      dup1\n      0xc47f0027\n      eq\n      tag_15\n      jumpi\n      dup1\n      0xded92dac\n      eq\n      tag_16\n      jumpi\n      dup1\n      0xefd8af9f\n      eq\n      tag_17\n      jumpi\n      0x00\n      dup1\n      revert\n    tag_19:\n      dup1\n      0x80f76021\n      eq\n      tag_10\n      jumpi\n      dup1\n      0xa95264d0\n      eq\n      tag_11\n      jumpi\n      dup1\n      0xb9daf3e2\n      eq\n      tag_12\n      jumpi\n      dup1\n      0xba379e86\n      eq\n      tag_13\n      jumpi\n      0x00\n      dup1\n      revert\n    tag_18:\n      dup1\n      0x40aa5c71\n      gt\n      tag_20\n      jumpi\n      dup1\n      0x40aa5c71\n      eq\n      tag_6\n      jumpi\n      dup1\n      0x478e5cb3\n      eq\n      tag_7\n      jumpi\n      dup1\n      0x4ba83374\n      eq\n      tag_8\n      jumpi\n      dup1\n      0x5da6ef8d\n      eq\n      tag_9\n      jumpi\n      0x00\n      dup1\n      revert\n    tag_20:\n      dup1\n      0x0dbef92c\n      eq\n      tag_3\n      jumpi\n      dup1\n      0x1499c592\n      eq\n      tag_4\n      jumpi\n      dup1\n      0x2858d3c8\n      eq\n      tag_5\n      jumpi\n    tag_2:\n      0x00\n      dup1\n      revert\n        /* \"Items/DebitCard.sol\":917:1072  function setNameOnCard(string memory _name_on_card) external ownerOnly {... */\n    tag_3:\n      tag_21\n      tag_22\n      calldatasize\n      0x04\n      tag_23\n      jump\t// in\n    tag_22:\n      tag_24\n      jump\t// in\n    tag_21:\n      stop\n        /* \"Items/VaultItem.sol\":1316:1435  function setParent( address _p) external  ownerOnly {... */\n    tag_4:\n      tag_21\n      tag_26\n      calldatasize\n      0x04\n      tag_27\n      jump\t// in\n    tag_26:\n      tag_28\n      jump\t// in\n        /* \"Items/VaultItem.sol\":965:1076  function getItemType() external view ownerOnly returns (Constants.ItemType) {... */\n    tag_5:\n      tag_29\n      tag_30\n      jump\t// in\n    tag_29:\n      mload(0x40)\n      tag_31\n      swap2\n      swap1\n      tag_32\n      jump\t// in\n    tag_31:\n      mload(0x40)\n      dup1\n      swap2\n      sub\n      swap1\n      return\n        /* \"Items/DebitCard.sol\":1080:1217  function setExpireAt(uint16 _expire_at) external ownerOnly {... */\n    tag_6:\n      tag_21\n      tag_34\n      calldatasize\n      0x04\n      tag_35\n      jump\t// in\n    tag_34:\n      tag_36\n      jump\t// in\n        /* \"Items/DebitCard.sol\":1347:1693  function setItem(... */\n    tag_7:\n      tag_21\n      tag_38\n      calldatasize\n      0x04\n      tag_39\n      jump\t// in\n    tag_38:\n      tag_40\n      jump\t// in\n        /* \"Items/VaultItem.sol\":1443:1580  function isSharedWith() external view returns (bool) {... */\n    tag_8:\n      tag_41\n      tag_42\n      jump\t// in\n    tag_41:\n      mload(0x40)\n        /* \"#utility.yul\":3263:3277   */\n      swap1\n      iszero\n        /* \"#utility.yul\":3256:3278   */\n      iszero\n        /* \"#utility.yul\":3238:3279   */\n      dup2\n      mstore\n        /* \"#utility.yul\":3226:3228   */\n      0x20\n        /* \"#utility.yul\":3211:3229   */\n      add\n        /* \"Items/VaultItem.sol\":1443:1580  function isSharedWith() external view returns (bool) {... */\n      tag_31\n        /* \"#utility.yul\":3098:3285   */\n      jump\n        /* \"Items/VaultItem.sol\":1714:1927  function shareWith(address _w) external ownerOnly {... */\n    tag_9:\n      tag_21\n      tag_46\n      calldatasize\n      0x04\n      tag_27\n      jump\t// in\n    tag_46:\n      tag_47\n      jump\t// in\n        /* \"Items/VaultItem.sol\":1211:1308  function getParent() external view ownerOnly returns (address) {... */\n    tag_10:\n      tag_48\n      tag_49\n      jump\t// in\n    tag_48:\n      mload(0x40)\n      sub(shl(0xa0, 0x01), 0x01)\n        /* \"#utility.yul\":3454:3486   */\n      swap1\n      swap2\n      and\n        /* \"#utility.yul\":3436:3487   */\n      dup2\n      mstore\n        /* \"#utility.yul\":3424:3426   */\n      0x20\n        /* \"#utility.yul\":3409:3427   */\n      add\n        /* \"Items/VaultItem.sol\":1211:1308  function getParent() external view ownerOnly returns (address) {... */\n      tag_31\n        /* \"#utility.yul\":3290:3493   */\n      jump\n        /* \"Items/VaultItem.sol\":1588:1706  function getSharedWith() external view ownerOnly returns (address[] memory) {... */\n    tag_11:\n      tag_52\n      tag_53\n      jump\t// in\n    tag_52:\n      mload(0x40)\n      tag_31\n      swap2\n      swap1\n      tag_55\n      jump\t// in\n        /* \"Items/VaultItem.sol\":841:957  function isOwn() external view  returns (bool) {... */\n    tag_12:\n      tag_41\n      tag_57\n      jump\t// in\n        /* \"Items/DebitCard.sol\":1701:1890  function expose() external view ownerOrShared returns (string memory, string memory, string memory, uint16, uint16) {... */\n    tag_13:\n      tag_59\n      tag_60\n      jump\t// in\n    tag_59:\n      mload(0x40)\n      tag_31\n      swap6\n      swap5\n      swap4\n      swap3\n      swap2\n      swap1\n      tag_62\n      jump\t// in\n        /* \"Items/DebitCard.sol\":1225:1339  function setCvv(uint16 _cvv) external ownerOnly {... */\n    tag_14:\n      tag_21\n      tag_64\n      calldatasize\n      0x04\n      tag_35\n      jump\t// in\n    tag_64:\n      tag_65\n      jump\t// in\n        /* \"Items/VaultItem.sol\":1084:1203  function setName(string memory _n) external ownerOnly {... */\n    tag_15:\n      tag_21\n      tag_67\n      calldatasize\n      0x04\n      tag_23\n      jump\t// in\n    tag_67:\n      tag_68\n      jump\t// in\n        /* \"Items/VaultItem.sol\":1935:2291  function restictFrom( address _f ) external {... */\n    tag_16:\n      tag_21\n      tag_70\n      calldatasize\n      0x04\n      tag_27\n      jump\t// in\n    tag_70:\n      tag_71\n      jump\t// in\n        /* \"Items/DebitCard.sol\":773:909  function setCardId(string memory _card_id) external ownerOnly {... */\n    tag_17:\n      tag_21\n      tag_73\n      calldatasize\n      0x04\n      tag_23\n      jump\t// in\n    tag_73:\n      tag_74\n      jump\t// in\n        /* \"Items/DebitCard.sol\":917:1072  function setNameOnCard(string memory _name_on_card) external ownerOnly {... */\n    tag_24:\n        /* \"Items/VaultItem.sol\":366:371  owner */\n      sload(0x01)\n      0x0100\n      swap1\n      div\n      sub(shl(0xa0, 0x01), 0x01)\n      and\n        /* \"Items/VaultItem.sol\":352:362  msg.sender */\n      caller\n        /* \"Items/VaultItem.sol\":352:371  msg.sender == owner */\n      eq\n      dup1\n        /* \"Items/VaultItem.sol\":352:395  msg.sender == owner || msg.sender == parent */\n      tag_76\n      jumpi\n      pop\n        /* \"Items/VaultItem.sol\":389:395  parent */\n      and(sub(shl(0xa0, 0x01), 0x01), sload(0x02))\n        /* \"Items/VaultItem.sol\":375:385  msg.sender */\n      caller\n        /* \"Items/VaultItem.sol\":375:395  msg.sender == parent */\n      eq\n        /* \"Items/VaultItem.sol\":352:395  msg.sender == owner || msg.sender == parent */\n    tag_76:\n        /* \"Items/VaultItem.sol\":344:410  require(msg.sender == owner || msg.sender == parent, \"Only owner\") */\n      tag_77\n      jumpi\n      mload(0x40)\n      shl(0xe5, 0x461bcd)\n      dup2\n      mstore\n      0x04\n      add\n      tag_78\n      swap1\n      tag_79\n      jump\t// in\n    tag_78:\n      mload(0x40)\n      dup1\n      swap2\n      sub\n      swap1\n      revert\n    tag_77:\n        /* \"Items/DebitCard.sol\":999:1011  name_on_card */\n      0x05\n        /* \"Items/DebitCard.sol\":999:1027  name_on_card = _name_on_card */\n      tag_81\n        /* \"Items/DebitCard.sol\":1014:1027  _name_on_card */\n      dup3\n        /* \"Items/DebitCard.sol\":999:1011  name_on_card */\n      dup3\n        /* \"Items/DebitCard.sol\":999:1027  name_on_card = _name_on_card */\n      tag_82\n      jump\t// in\n    tag_81:\n      pop\n        /* \"Items/DebitCard.sol\":1045:1064  Updated(msg.sender) */\n      mload(0x40)\n        /* \"Items/DebitCard.sol\":1053:1063  msg.sender */\n      caller\n        /* \"#utility.yul\":3436:3487   */\n      dup2\n      mstore\n      0x00\n      dup1\n      mload\n      0x20\n      data_2c67c2ea5f0acf1af63e6d21f70491caaa8c297045be1c6ee3e9b1d07edcb366\n      dup4\n      codecopy\n      dup2\n      mload\n      swap2\n      mstore\n        /* \"Items/DebitCard.sol\":1045:1064  Updated(msg.sender) */\n      swap1\n        /* \"#utility.yul\":3424:3426   */\n      0x20\n        /* \"#utility.yul\":3409:3427   */\n      add\n        /* \"Items/DebitCard.sol\":1045:1064  Updated(msg.sender) */\n    tag_83:\n      mload(0x40)\n      dup1\n      swap2\n      sub\n      swap1\n      log1\n        /* \"Items/DebitCard.sol\":917:1072  function setNameOnCard(string memory _name_on_card) external ownerOnly {... */\n      pop\n      jump\t// out\n        /* \"Items/VaultItem.sol\":1316:1435  function setParent( address _p) external  ownerOnly {... */\n    tag_28:\n        /* \"Items/VaultItem.sol\":366:371  owner */\n      sload(0x01)\n      0x0100\n      swap1\n      div\n      sub(shl(0xa0, 0x01), 0x01)\n      and\n        /* \"Items/VaultItem.sol\":352:362  msg.sender */\n      caller\n        /* \"Items/VaultItem.sol\":352:371  msg.sender == owner */\n      eq\n      dup1\n        /* \"Items/VaultItem.sol\":352:395  msg.sender == owner || msg.sender == parent */\n      tag_85\n      jumpi\n      pop\n        /* \"Items/VaultItem.sol\":389:395  parent */\n      and(sub(shl(0xa0, 0x01), 0x01), sload(0x02))\n        /* \"Items/VaultItem.sol\":375:385  msg.sender */\n      caller\n        /* \"Items/VaultItem.sol\":375:395  msg.sender == parent */\n      eq\n        /* \"Items/VaultItem.sol\":352:395  msg.sender == owner || msg.sender == parent */\n    tag_85:\n        /* \"Items/VaultItem.sol\":344:410  require(msg.sender == owner || msg.sender == parent, \"Only owner\") */\n      tag_86\n      jumpi\n      mload(0x40)\n      shl(0xe5, 0x461bcd)\n      dup2\n      mstore\n      0x04\n      add\n      tag_78\n      swap1\n      tag_79\n      jump\t// in\n    tag_86:\n        /* \"Items/VaultItem.sol\":1379:1385  parent */\n      0x02\n        /* \"Items/VaultItem.sol\":1379:1390  parent = _p */\n      dup1\n      sload\n      not(sub(shl(0xa0, 0x01), 0x01))\n      and\n      sub(shl(0xa0, 0x01), 0x01)\n      dup4\n      and\n      or\n      swap1\n      sstore\n        /* \"Items/VaultItem.sol\":1408:1427  Updated(msg.sender) */\n      mload(0x40)\n        /* \"Items/VaultItem.sol\":1416:1426  msg.sender */\n      caller\n        /* \"#utility.yul\":3436:3487   */\n      dup2\n      mstore\n      0x00\n      dup1\n      mload\n      0x20\n      data_2c67c2ea5f0acf1af63e6d21f70491caaa8c297045be1c6ee3e9b1d07edcb366\n      dup4\n      codecopy\n      dup2\n      mload\n      swap2\n      mstore\n        /* \"Items/VaultItem.sol\":1408:1427  Updated(msg.sender) */\n      swap1\n        /* \"#utility.yul\":3424:3426   */\n      0x20\n        /* \"#utility.yul\":3409:3427   */\n      add\n        /* \"Items/VaultItem.sol\":1408:1427  Updated(msg.sender) */\n      tag_83\n        /* \"#utility.yul\":3290:3493   */\n      jump\n        /* \"Items/VaultItem.sol\":965:1076  function getItemType() external view ownerOnly returns (Constants.ItemType) {... */\n    tag_30:\n        /* \"Items/VaultItem.sol\":366:371  owner */\n      sload(0x01)\n        /* \"Items/VaultItem.sol\":1021:1039  Constants.ItemType */\n      0x00\n      swap1\n        /* \"Items/VaultItem.sol\":366:371  owner */\n      0x0100\n      swap1\n      div\n      sub(shl(0xa0, 0x01), 0x01)\n      and\n        /* \"Items/VaultItem.sol\":352:362  msg.sender */\n      caller\n        /* \"Items/VaultItem.sol\":352:371  msg.sender == owner */\n      eq\n      dup1\n        /* \"Items/VaultItem.sol\":352:395  msg.sender == owner || msg.sender == parent */\n      tag_91\n      jumpi\n      pop\n        /* \"Items/VaultItem.sol\":389:395  parent */\n      and(sub(shl(0xa0, 0x01), 0x01), sload(0x02))\n        /* \"Items/VaultItem.sol\":375:385  msg.sender */\n      caller\n        /* \"Items/VaultItem.sol\":375:395  msg.sender == parent */\n      eq\n        /* \"Items/VaultItem.sol\":352:395  msg.sender == owner || msg.sender == parent */\n    tag_91:\n        /* \"Items/VaultItem.sol\":344:410  require(msg.sender == owner || msg.sender == parent, \"Only owner\") */\n      tag_92\n      jumpi\n      mload(0x40)\n      shl(0xe5, 0x461bcd)\n      dup2\n      mstore\n      0x04\n      add\n      tag_78\n      swap1\n      tag_79\n      jump\t// in\n    tag_92:\n      pop\n        /* \"Items/VaultItem.sol\":1059:1068  item_type */\n      and(0xff, sload(0x01))\n        /* \"Items/VaultItem.sol\":965:1076  function getItemType() external view ownerOnly returns (Constants.ItemType) {... */\n      swap1\n      jump\t// out\n        /* \"Items/DebitCard.sol\":1080:1217  function setExpireAt(uint16 _expire_at) external ownerOnly {... */\n    tag_36:\n        /* \"Items/VaultItem.sol\":366:371  owner */\n      sload(0x01)\n      0x0100\n      swap1\n      div\n      sub(shl(0xa0, 0x01), 0x01)\n      and\n        /* \"Items/VaultItem.sol\":352:362  msg.sender */\n      caller\n        /* \"Items/VaultItem.sol\":352:371  msg.sender == owner */\n      eq\n      dup1\n        /* \"Items/VaultItem.sol\":352:395  msg.sender == owner || msg.sender == parent */\n      tag_96\n      jumpi\n      pop\n        /* \"Items/VaultItem.sol\":389:395  parent */\n      and(sub(shl(0xa0, 0x01), 0x01), sload(0x02))\n        /* \"Items/VaultItem.sol\":375:385  msg.sender */\n      caller\n        /* \"Items/VaultItem.sol\":375:395  msg.sender == parent */\n      eq\n        /* \"Items/VaultItem.sol\":352:395  msg.sender == owner || msg.sender == parent */\n    tag_96:\n        /* \"Items/VaultItem.sol\":344:410  require(msg.sender == owner || msg.sender == parent, \"Only owner\") */\n      tag_97\n      jumpi\n      mload(0x40)\n      shl(0xe5, 0x461bcd)\n      dup2\n      mstore\n      0x04\n      add\n      tag_78\n      swap1\n      tag_79\n      jump\t// in\n    tag_97:\n        /* \"Items/DebitCard.sol\":1150:1159  expire_at */\n      0x06\n        /* \"Items/DebitCard.sol\":1150:1172  expire_at = _expire_at */\n      dup1\n      sload\n      not(0xffff)\n      and\n      0xffff\n      dup4\n      and\n      or\n      swap1\n      sstore\n        /* \"Items/DebitCard.sol\":1190:1209  Updated(msg.sender) */\n      mload(0x40)\n        /* \"Items/DebitCard.sol\":1198:1208  msg.sender */\n      caller\n        /* \"#utility.yul\":3436:3487   */\n      dup2\n      mstore\n      0x00\n      dup1\n      mload\n      0x20\n      data_2c67c2ea5f0acf1af63e6d21f70491caaa8c297045be1c6ee3e9b1d07edcb366\n      dup4\n      codecopy\n      dup2\n      mload\n      swap2\n      mstore\n        /* \"Items/DebitCard.sol\":1190:1209  Updated(msg.sender) */\n      swap1\n        /* \"#utility.yul\":3424:3426   */\n      0x20\n        /* \"#utility.yul\":3409:3427   */\n      add\n        /* \"Items/DebitCard.sol\":1190:1209  Updated(msg.sender) */\n      tag_83\n        /* \"#utility.yul\":3290:3493   */\n      jump\n        /* \"Items/DebitCard.sol\":1347:1693  function setItem(... */\n    tag_40:\n        /* \"Items/VaultItem.sol\":366:371  owner */\n      sload(0x01)\n      0x0100\n      swap1\n      div\n      sub(shl(0xa0, 0x01), 0x01)\n      and\n        /* \"Items/VaultItem.sol\":352:362  msg.sender */\n      caller\n        /* \"Items/VaultItem.sol\":352:371  msg.sender == owner */\n      eq\n      dup1\n        /* \"Items/VaultItem.sol\":352:395  msg.sender == owner || msg.sender == parent */\n      tag_102\n      jumpi\n      pop\n        /* \"Items/VaultItem.sol\":389:395  parent */\n      and(sub(shl(0xa0, 0x01), 0x01), sload(0x02))\n        /* \"Items/VaultItem.sol\":375:385  msg.sender */\n      caller\n        /* \"Items/VaultItem.sol\":375:395  msg.sender == parent */\n      eq\n        /* \"Items/VaultItem.sol\":352:395  msg.sender == owner || msg.sender == parent */\n    tag_102:\n        /* \"Items/VaultItem.sol\":344:410  require(msg.sender == owner || msg.sender == parent, \"Only owner\") */\n      tag_103\n      jumpi\n      mload(0x40)\n      shl(0xe5, 0x461bcd)\n      dup2\n      mstore\n      0x04\n      add\n      tag_78\n      swap1\n      tag_79\n      jump\t// in\n    tag_103:\n        /* \"Items/DebitCard.sol\":1534:1538  name */\n      0x00\n        /* \"Items/DebitCard.sol\":1534:1543  name = _n */\n      tag_106\n        /* \"Items/DebitCard.sol\":1541:1543  _n */\n      dup7\n        /* \"Items/DebitCard.sol\":1534:1538  name */\n      dup3\n        /* \"Items/DebitCard.sol\":1534:1543  name = _n */\n      tag_82\n      jump\t// in\n    tag_106:\n      pop\n        /* \"Items/DebitCard.sol\":1554:1561  card_id */\n      0x04\n        /* \"Items/DebitCard.sol\":1554:1569  card_id = _c_id */\n      tag_107\n        /* \"Items/DebitCard.sol\":1564:1569  _c_id */\n      dup6\n        /* \"Items/DebitCard.sol\":1554:1561  card_id */\n      dup3\n        /* \"Items/DebitCard.sol\":1554:1569  card_id = _c_id */\n      tag_82\n      jump\t// in\n    tag_107:\n      pop\n        /* \"Items/DebitCard.sol\":1580:1592  name_on_card */\n      0x05\n        /* \"Items/DebitCard.sol\":1580:1599  name_on_card = _noc */\n      tag_108\n        /* \"Items/DebitCard.sol\":1595:1599  _noc */\n      dup5\n        /* \"Items/DebitCard.sol\":1580:1592  name_on_card */\n      dup3\n        /* \"Items/DebitCard.sol\":1580:1599  name_on_card = _noc */\n      tag_82\n      jump\t// in\n    tag_108:\n      pop\n        /* \"Items/DebitCard.sol\":1610:1619  expire_at */\n      0x06\n        /* \"Items/DebitCard.sol\":1610:1627  expire_at = _e_at */\n      dup1\n      sload\n      0xffff\n        /* \"Items/DebitCard.sol\":1638:1648  cvv = _cvv */\n      dup4\n      dup2\n      and\n      0x010000\n      mul\n      not(0xffffffff)\n      swap1\n      swap3\n      and\n        /* \"Items/DebitCard.sol\":1610:1627  expire_at = _e_at */\n      swap1\n      dup6\n      and\n        /* \"Items/DebitCard.sol\":1638:1648  cvv = _cvv */\n      or\n      or\n      swap1\n      sstore\n        /* \"Items/DebitCard.sol\":1666:1685  Updated(msg.sender) */\n      mload(0x40)\n        /* \"Items/DebitCard.sol\":1674:1684  msg.sender */\n      caller\n        /* \"#utility.yul\":3436:3487   */\n      dup2\n      mstore\n      0x00\n      dup1\n      mload\n      0x20\n      data_2c67c2ea5f0acf1af63e6d21f70491caaa8c297045be1c6ee3e9b1d07edcb366\n      dup4\n      codecopy\n      dup2\n      mload\n      swap2\n      mstore\n        /* \"Items/DebitCard.sol\":1666:1685  Updated(msg.sender) */\n      swap1\n        /* \"#utility.yul\":3424:3426   */\n      0x20\n        /* \"#utility.yul\":3409:3427   */\n      add\n        /* \"Items/DebitCard.sol\":1666:1685  Updated(msg.sender) */\n      mload(0x40)\n      dup1\n      swap2\n      sub\n      swap1\n      log1\n        /* \"Items/DebitCard.sol\":1347:1693  function setItem(... */\n      pop\n      pop\n      pop\n      pop\n      pop\n      jump\t// out\n        /* \"Items/VaultItem.sol\":1443:1580  function isSharedWith() external view returns (bool) {... */\n    tag_42:\n        /* \"Items/VaultItem.sol\":1490:1494  bool */\n      0x00\n        /* \"Items/VaultItem.sol\":1514:1566  Constants.findAddressIndex( msg.sender, sharedWith ) */\n      tag_111\n        /* \"Items/VaultItem.sol\":1542:1552  msg.sender */\n      caller\n        /* \"Items/VaultItem.sol\":1554:1564  sharedWith */\n      0x03\n        /* \"Items/VaultItem.sol\":1514:1566  Constants.findAddressIndex( msg.sender, sharedWith ) */\n      dup1\n      sload\n      dup1\n      0x20\n      mul\n      0x20\n      add\n      mload(0x40)\n      swap1\n      dup2\n      add\n      0x40\n      mstore\n      dup1\n      swap3\n      swap2\n      swap1\n      dup2\n      dup2\n      mstore\n      0x20\n      add\n      dup3\n      dup1\n      sload\n      dup1\n      iszero\n      tag_112\n      jumpi\n      0x20\n      mul\n      dup3\n      add\n      swap2\n      swap1\n      0x00\n      mstore\n      keccak256(0x00, 0x20)\n      swap1\n    tag_113:\n      dup2\n      sload\n      sub(shl(0xa0, 0x01), 0x01)\n      and\n      dup2\n      mstore\n      0x01\n      swap1\n      swap2\n      add\n      swap1\n      0x20\n      add\n      dup1\n      dup4\n      gt\n      tag_113\n      jumpi\n    tag_112:\n      pop\n      pop\n      pop\n      pop\n      pop\n        /* \"Items/VaultItem.sol\":1514:1540  Constants.findAddressIndex */\n      tag_114\n        /* \"Items/VaultItem.sol\":1514:1566  Constants.findAddressIndex( msg.sender, sharedWith ) */\n      jump\t// in\n    tag_111:\n      not(0x00)\n        /* \"Items/VaultItem.sol\":1514:1572  Constants.findAddressIndex( msg.sender, sharedWith ) != -1 */\n      eq\n      iszero\n        /* \"Items/VaultItem.sol\":1507:1572  return Constants.findAddressIndex( msg.sender, sharedWith ) != -1 */\n      swap1\n      pop\n        /* \"Items/VaultItem.sol\":1443:1580  function isSharedWith() external view returns (bool) {... */\n      swap1\n      jump\t// out\n        /* \"Items/VaultItem.sol\":1714:1927  function shareWith(address _w) external ownerOnly {... */\n    tag_47:\n        /* \"Items/VaultItem.sol\":366:371  owner */\n      sload(0x01)\n      0x0100\n      swap1\n      div\n      sub(shl(0xa0, 0x01), 0x01)\n      and\n        /* \"Items/VaultItem.sol\":352:362  msg.sender */\n      caller\n        /* \"Items/VaultItem.sol\":352:371  msg.sender == owner */\n      eq\n      dup1\n        /* \"Items/VaultItem.sol\":352:395  msg.sender == owner || msg.sender == parent */\n      tag_116\n      jumpi\n      pop\n        /* \"Items/VaultItem.sol\":389:395  parent */\n      and(sub(shl(0xa0, 0x01), 0x01), sload(0x02))\n        /* \"Items/VaultItem.sol\":375:385  msg.sender */\n      caller\n        /* \"Items/VaultItem.sol\":375:395  msg.sender == parent */\n      eq\n        /* \"Items/VaultItem.sol\":352:395  msg.sender == owner || msg.sender == parent */\n    tag_116:\n        /* \"Items/VaultItem.sol\":344:410  require(msg.sender == owner || msg.sender == parent, \"Only owner\") */\n      tag_117\n      jumpi\n      mload(0x40)\n      shl(0xe5, 0x461bcd)\n      dup2\n      mstore\n      0x04\n      add\n      tag_78\n      swap1\n      tag_79\n      jump\t// in\n    tag_117:\n        /* \"Items/VaultItem.sol\":1792:1797  owner */\n      sload(0x01)\n      sub(shl(0xa0, 0x01), 0x01)\n        /* \"Items/VaultItem.sol\":1786:1797  _w != owner */\n      dup3\n      dup2\n      and\n        /* \"Items/VaultItem.sol\":1792:1797  owner */\n      0x0100\n      swap1\n      swap3\n      div\n      and\n        /* \"Items/VaultItem.sol\":1786:1797  _w != owner */\n      eq\n      dup1\n      iszero\n      swap1\n        /* \"Items/VaultItem.sol\":1786:1817  _w != owner && _w != address(0) */\n      tag_120\n      jumpi\n      pop\n      sub(shl(0xa0, 0x01), 0x01)\n        /* \"Items/VaultItem.sol\":1801:1817  _w != address(0) */\n      dup2\n      and\n      iszero\n      iszero\n        /* \"Items/VaultItem.sol\":1786:1817  _w != owner && _w != address(0) */\n    tag_120:\n        /* \"Items/VaultItem.sol\":1786:1871  _w != owner && _w != address(0) && Constants.findAddressIndex( _w, sharedWith ) == -1 */\n      dup1\n      iszero\n      tag_121\n      jumpi\n      pop\n        /* \"Items/VaultItem.sol\":1821:1865  Constants.findAddressIndex( _w, sharedWith ) */\n      tag_122\n        /* \"Items/VaultItem.sol\":1849:1851  _w */\n      dup2\n        /* \"Items/VaultItem.sol\":1853:1863  sharedWith */\n      0x03\n        /* \"Items/VaultItem.sol\":1821:1865  Constants.findAddressIndex( _w, sharedWith ) */\n      dup1\n      sload\n      dup1\n      0x20\n      mul\n      0x20\n      add\n      mload(0x40)\n      swap1\n      dup2\n      add\n      0x40\n      mstore\n      dup1\n      swap3\n      swap2\n      swap1\n      dup2\n      dup2\n      mstore\n      0x20\n      add\n      dup3\n      dup1\n      sload\n      dup1\n      iszero\n      tag_112\n      jumpi\n      0x20\n      mul\n      dup3\n      add\n      swap2\n      swap1\n      0x00\n      mstore\n      keccak256(0x00, 0x20)\n      swap1\n      dup2\n      sload\n      sub(shl(0xa0, 0x01), 0x01)\n      and\n      dup2\n      mstore\n      0x01\n      swap1\n      swap2\n      add\n      swap1\n      0x20\n      add\n      dup1\n      dup4\n      gt\n      tag_113\n      jumpi\n      pop\n      pop\n      pop\n      pop\n      pop\n        /* \"Items/VaultItem.sol\":1821:1847  Constants.findAddressIndex */\n      tag_114\n        /* \"Items/VaultItem.sol\":1821:1865  Constants.findAddressIndex( _w, sharedWith ) */\n      jump\t// in\n    tag_122:\n      not(0x00)\n        /* \"Items/VaultItem.sol\":1821:1871  Constants.findAddressIndex( _w, sharedWith ) == -1 */\n      eq\n        /* \"Items/VaultItem.sol\":1786:1871  _w != owner && _w != address(0) && Constants.findAddressIndex( _w, sharedWith ) == -1 */\n    tag_121:\n        /* \"Items/VaultItem.sol\":1777:1885  require( _w != owner && _w != address(0) && Constants.findAddressIndex( _w, sharedWith ) == -1, \"Forbidden\") */\n      tag_125\n      jumpi\n      mload(0x40)\n      shl(0xe5, 0x461bcd)\n      dup2\n      mstore\n        /* \"#utility.yul\":8202:8204   */\n      0x20\n        /* \"Items/VaultItem.sol\":1777:1885  require( _w != owner && _w != address(0) && Constants.findAddressIndex( _w, sharedWith ) == -1, \"Forbidden\") */\n      0x04\n      dup3\n      add\n        /* \"#utility.yul\":8184:8205   */\n      mstore\n        /* \"#utility.yul\":8241:8242   */\n      0x09\n        /* \"#utility.yul\":8221:8239   */\n      0x24\n      dup3\n      add\n        /* \"#utility.yul\":8214:8243   */\n      mstore\n      shl(0xb9, 0x2337b93134b23232b7)\n        /* \"#utility.yul\":8259:8277   */\n      0x44\n      dup3\n      add\n        /* \"#utility.yul\":8252:8291   */\n      mstore\n        /* \"#utility.yul\":8308:8326   */\n      0x64\n      add\n        /* \"Items/VaultItem.sol\":1777:1885  require( _w != owner && _w != address(0) && Constants.findAddressIndex( _w, sharedWith ) == -1, \"Forbidden\") */\n      tag_78\n        /* \"#utility.yul\":8000:8332   */\n      jump\n        /* \"Items/VaultItem.sol\":1777:1885  require( _w != owner && _w != address(0) && Constants.findAddressIndex( _w, sharedWith ) == -1, \"Forbidden\") */\n    tag_125:\n        /* \"Items/VaultItem.sol\":1898:1908  sharedWith */\n      0x03\n        /* \"Items/VaultItem.sol\":1898:1917  sharedWith.push(_w) */\n      dup1\n      sload\n      0x01\n      dup2\n      add\n      dup3\n      sstore\n      0x00\n      swap2\n      swap1\n      swap2\n      mstore\n      0xc2575a0e9e593c00f959f8c92f12db2869c3395a3b0502d05e2516446f71f85b\n      add\n      dup1\n      sload\n      not(sub(shl(0xa0, 0x01), 0x01))\n      and\n      sub(shl(0xa0, 0x01), 0x01)\n      swap3\n      swap1\n      swap3\n      and\n      swap2\n      swap1\n      swap2\n      or\n      swap1\n      sstore\n        /* \"Items/VaultItem.sol\":1714:1927  function shareWith(address _w) external ownerOnly {... */\n      jump\t// out\n        /* \"Items/VaultItem.sol\":1211:1308  function getParent() external view ownerOnly returns (address) {... */\n    tag_49:\n        /* \"Items/VaultItem.sol\":366:371  owner */\n      sload(0x01)\n        /* \"Items/VaultItem.sol\":1265:1272  address */\n      0x00\n      swap1\n        /* \"Items/VaultItem.sol\":366:371  owner */\n      0x0100\n      swap1\n      div\n      sub(shl(0xa0, 0x01), 0x01)\n      and\n        /* \"Items/VaultItem.sol\":352:362  msg.sender */\n      caller\n        /* \"Items/VaultItem.sol\":352:371  msg.sender == owner */\n      eq\n      dup1\n        /* \"Items/VaultItem.sol\":352:395  msg.sender == owner || msg.sender == parent */\n      tag_130\n      jumpi\n      pop\n        /* \"Items/VaultItem.sol\":389:395  parent */\n      and(sub(shl(0xa0, 0x01), 0x01), sload(0x02))\n        /* \"Items/VaultItem.sol\":375:385  msg.sender */\n      caller\n        /* \"Items/VaultItem.sol\":375:395  msg.sender == parent */\n      eq\n        /* \"Items/VaultItem.sol\":352:395  msg.sender == owner || msg.sender == parent */\n    tag_130:\n        /* \"Items/VaultItem.sol\":344:410  require(msg.sender == owner || msg.sender == parent, \"Only owner\") */\n      tag_131\n      jumpi\n      mload(0x40)\n      shl(0xe5, 0x461bcd)\n      dup2\n      mstore\n      0x04\n      add\n      tag_78\n      swap1\n      tag_79\n      jump\t// in\n    tag_131:\n      pop\n        /* \"Items/VaultItem.sol\":1294:1300  parent */\n      and(sub(shl(0xa0, 0x01), 0x01), sload(0x02))\n        /* \"Items/VaultItem.sol\":1211:1308  function getParent() external view ownerOnly returns (address) {... */\n      swap1\n      jump\t// out\n        /* \"Items/VaultItem.sol\":1588:1706  function getSharedWith() external view ownerOnly returns (address[] memory) {... */\n    tag_53:\n        /* \"Items/VaultItem.sol\":366:371  owner */\n      sload(0x01)\n        /* \"Items/VaultItem.sol\":1646:1662  address[] memory */\n      0x60\n      swap1\n        /* \"Items/VaultItem.sol\":366:371  owner */\n      0x0100\n      swap1\n      div\n      sub(shl(0xa0, 0x01), 0x01)\n      and\n        /* \"Items/VaultItem.sol\":352:362  msg.sender */\n      caller\n        /* \"Items/VaultItem.sol\":352:371  msg.sender == owner */\n      eq\n      dup1\n        /* \"Items/VaultItem.sol\":352:395  msg.sender == owner || msg.sender == parent */\n      tag_135\n      jumpi\n      pop\n        /* \"Items/VaultItem.sol\":389:395  parent */\n      and(sub(shl(0xa0, 0x01), 0x01), sload(0x02))\n        /* \"Items/VaultItem.sol\":375:385  msg.sender */\n      caller\n        /* \"Items/VaultItem.sol\":375:395  msg.sender == parent */\n      eq\n        /* \"Items/VaultItem.sol\":352:395  msg.sender == owner || msg.sender == parent */\n    tag_135:\n        /* \"Items/VaultItem.sol\":344:410  require(msg.sender == owner || msg.sender == parent, \"Only owner\") */\n      tag_136\n      jumpi\n      mload(0x40)\n      shl(0xe5, 0x461bcd)\n      dup2\n      mstore\n      0x04\n      add\n      tag_78\n      swap1\n      tag_79\n      jump\t// in\n    tag_136:\n        /* \"Items/VaultItem.sol\":1688:1698  sharedWith */\n      0x03\n        /* \"Items/VaultItem.sol\":1681:1698  return sharedWith */\n      dup1\n      sload\n      dup1\n      0x20\n      mul\n      0x20\n      add\n      mload(0x40)\n      swap1\n      dup2\n      add\n      0x40\n      mstore\n      dup1\n      swap3\n      swap2\n      swap1\n      dup2\n      dup2\n      mstore\n      0x20\n      add\n      dup3\n      dup1\n      sload\n      dup1\n      iszero\n      tag_139\n      jumpi\n      0x20\n      mul\n      dup3\n      add\n      swap2\n      swap1\n      0x00\n      mstore\n      keccak256(0x00, 0x20)\n      swap1\n    tag_140:\n      dup2\n      sload\n      sub(shl(0xa0, 0x01), 0x01)\n      and\n      dup2\n      mstore\n      0x01\n      swap1\n      swap2\n      add\n      swap1\n      0x20\n      add\n      dup1\n      dup4\n      gt\n      tag_140\n      jumpi\n    tag_139:\n      pop\n      pop\n      pop\n      pop\n      pop\n      swap1\n      pop\n        /* \"Items/VaultItem.sol\":1588:1706  function getSharedWith() external view ownerOnly returns (address[] memory) {... */\n      swap1\n      jump\t// out\n        /* \"Items/VaultItem.sol\":841:957  function isOwn() external view  returns (bool) {... */\n    tag_57:\n        /* \"Items/VaultItem.sol\":920:925  owner */\n      sload(0x01)\n        /* \"Items/VaultItem.sol\":882:886  bool */\n      0x00\n      swap1\n        /* \"Items/VaultItem.sol\":920:925  owner */\n      0x0100\n      swap1\n      div\n      sub(shl(0xa0, 0x01), 0x01)\n      and\n        /* \"Items/VaultItem.sol\":906:916  msg.sender */\n      caller\n        /* \"Items/VaultItem.sol\":906:925  msg.sender == owner */\n      eq\n      dup1\n        /* \"Items/VaultItem.sol\":906:949  msg.sender == owner || msg.sender == parent */\n      tag_142\n      jumpi\n      pop\n        /* \"Items/VaultItem.sol\":943:949  parent */\n      and(sub(shl(0xa0, 0x01), 0x01), sload(0x02))\n        /* \"Items/VaultItem.sol\":929:939  msg.sender */\n      caller\n        /* \"Items/VaultItem.sol\":929:949  msg.sender == parent */\n      eq\n        /* \"Items/VaultItem.sol\":906:949  msg.sender == owner || msg.sender == parent */\n    tag_142:\n        /* \"Items/VaultItem.sol\":899:949  return msg.sender == owner || msg.sender == parent */\n      swap1\n      pop\n        /* \"Items/VaultItem.sol\":841:957  function isOwn() external view  returns (bool) {... */\n      swap1\n      jump\t// out\n        /* \"Items/DebitCard.sol\":1701:1890  function expose() external view ownerOrShared returns (string memory, string memory, string memory, uint16, uint16) {... */\n    tag_60:\n        /* \"Items/DebitCard.sol\":1756:1769  string memory */\n      0x60\n        /* \"Items/DebitCard.sol\":1771:1784  string memory */\n      dup1\n        /* \"Items/DebitCard.sol\":1786:1799  string memory */\n      0x60\n        /* \"Items/DebitCard.sol\":1801:1807  uint16 */\n      0x00\n        /* \"Items/DebitCard.sol\":1809:1815  uint16 */\n      dup1\n        /* \"Items/VaultItem.sol\":492:497  owner */\n      0x01\n      dup1\n      sload\n      swap1\n      0x0100\n      exp\n      swap1\n      div\n      sub(shl(0xa0, 0x01), 0x01)\n      and\n      sub(shl(0xa0, 0x01), 0x01)\n        /* \"Items/VaultItem.sol\":478:497  msg.sender == owner */\n      and\n        /* \"Items/VaultItem.sol\":478:488  msg.sender */\n      caller\n      sub(shl(0xa0, 0x01), 0x01)\n        /* \"Items/VaultItem.sol\":478:497  msg.sender == owner */\n      and\n      eq\n        /* \"Items/VaultItem.sol\":478:559  msg.sender == owner || Constants.findAddressIndex( msg.sender, sharedWith ) != -1 */\n      dup1\n      tag_144\n      jumpi\n      pop\n        /* \"Items/VaultItem.sol\":501:553  Constants.findAddressIndex( msg.sender, sharedWith ) */\n      tag_145\n        /* \"Items/VaultItem.sol\":529:539  msg.sender */\n      caller\n        /* \"Items/VaultItem.sol\":541:551  sharedWith */\n      0x03\n        /* \"Items/VaultItem.sol\":501:553  Constants.findAddressIndex( msg.sender, sharedWith ) */\n      dup1\n      sload\n      dup1\n      0x20\n      mul\n      0x20\n      add\n      mload(0x40)\n      swap1\n      dup2\n      add\n      0x40\n      mstore\n      dup1\n      swap3\n      swap2\n      swap1\n      dup2\n      dup2\n      mstore\n      0x20\n      add\n      dup3\n      dup1\n      sload\n      dup1\n      iszero\n      tag_112\n      jumpi\n      0x20\n      mul\n      dup3\n      add\n      swap2\n      swap1\n      0x00\n      mstore\n      keccak256(0x00, 0x20)\n      swap1\n      dup2\n      sload\n      sub(shl(0xa0, 0x01), 0x01)\n      and\n      dup2\n      mstore\n      0x01\n      swap1\n      swap2\n      add\n      swap1\n      0x20\n      add\n      dup1\n      dup4\n      gt\n      tag_113\n      jumpi\n      pop\n      pop\n      pop\n      pop\n      pop\n        /* \"Items/VaultItem.sol\":501:527  Constants.findAddressIndex */\n      tag_114\n        /* \"Items/VaultItem.sol\":501:553  Constants.findAddressIndex( msg.sender, sharedWith ) */\n      jump\t// in\n    tag_145:\n      not(0x00)\n        /* \"Items/VaultItem.sol\":501:559  Constants.findAddressIndex( msg.sender, sharedWith ) != -1 */\n      eq\n      iszero\n        /* \"Items/VaultItem.sol\":478:559  msg.sender == owner || Constants.findAddressIndex( msg.sender, sharedWith ) != -1 */\n    tag_144:\n        /* \"Items/VaultItem.sol\":469:572  require( msg.sender == owner || Constants.findAddressIndex( msg.sender, sharedWith ) != -1, \"Restrict\") */\n      tag_148\n      jumpi\n      mload(0x40)\n      shl(0xe5, 0x461bcd)\n      dup2\n      mstore\n        /* \"#utility.yul\":8539:8541   */\n      0x20\n        /* \"Items/VaultItem.sol\":469:572  require( msg.sender == owner || Constants.findAddressIndex( msg.sender, sharedWith ) != -1, \"Restrict\") */\n      0x04\n      dup3\n      add\n        /* \"#utility.yul\":8521:8542   */\n      mstore\n        /* \"#utility.yul\":8578:8579   */\n      0x08\n        /* \"#utility.yul\":8558:8576   */\n      0x24\n      dup3\n      add\n        /* \"#utility.yul\":8551:8580   */\n      mstore\n      shl(0xc2, 0x14995cdd1c9a58dd)\n        /* \"#utility.yul\":8596:8614   */\n      0x44\n      dup3\n      add\n        /* \"#utility.yul\":8589:8627   */\n      mstore\n        /* \"#utility.yul\":8644:8662   */\n      0x64\n      add\n        /* \"Items/VaultItem.sol\":469:572  require( msg.sender == owner || Constants.findAddressIndex( msg.sender, sharedWith ) != -1, \"Restrict\") */\n      tag_78\n        /* \"#utility.yul\":8337:8668   */\n      jump\n        /* \"Items/VaultItem.sol\":469:572  require( msg.sender == owner || Constants.findAddressIndex( msg.sender, sharedWith ) != -1, \"Restrict\") */\n    tag_148:\n        /* \"Items/DebitCard.sol\":1866:1875  expire_at */\n      sload(0x06)\n        /* \"Items/DebitCard.sol\":1837:1841  name */\n      0x00\n        /* \"Items/DebitCard.sol\":1828:1882  return ( name, card_id, name_on_card, expire_at, cvv ) */\n      dup1\n      sload\n        /* \"Items/DebitCard.sol\":1837:1841  name */\n      swap1\n      swap2\n        /* \"Items/DebitCard.sol\":1843:1850  card_id */\n      0x04\n      swap2\n        /* \"Items/DebitCard.sol\":1852:1864  name_on_card */\n      0x05\n      swap2\n        /* \"Items/DebitCard.sol\":1866:1875  expire_at */\n      0xffff\n      dup1\n      dup3\n      and\n      swap3\n        /* \"Items/DebitCard.sol\":1877:1880  cvv */\n      0x010000\n      swap1\n      swap3\n      div\n      and\n      swap1\n        /* \"Items/DebitCard.sol\":1837:1841  name */\n      dup6\n      swap1\n        /* \"Items/DebitCard.sol\":1828:1882  return ( name, card_id, name_on_card, expire_at, cvv ) */\n      tag_152\n      swap1\n      tag_153\n      jump\t// in\n    tag_152:\n      dup1\n      0x1f\n      add\n      0x20\n      dup1\n      swap2\n      div\n      mul\n      0x20\n      add\n      mload(0x40)\n      swap1\n      dup2\n      add\n      0x40\n      mstore\n      dup1\n      swap3\n      swap2\n      swap1\n      dup2\n      dup2\n      mstore\n      0x20\n      add\n      dup3\n      dup1\n      sload\n      tag_154\n      swap1\n      tag_153\n      jump\t// in\n    tag_154:\n      dup1\n      iszero\n      tag_155\n      jumpi\n      dup1\n      0x1f\n      lt\n      tag_156\n      jumpi\n      0x0100\n      dup1\n      dup4\n      sload\n      div\n      mul\n      dup4\n      mstore\n      swap2\n      0x20\n      add\n      swap2\n      jump(tag_155)\n    tag_156:\n      dup3\n      add\n      swap2\n      swap1\n      0x00\n      mstore\n      keccak256(0x00, 0x20)\n      swap1\n    tag_157:\n      dup2\n      sload\n      dup2\n      mstore\n      swap1\n      0x01\n      add\n      swap1\n      0x20\n      add\n      dup1\n      dup4\n      gt\n      tag_157\n      jumpi\n      dup3\n      swap1\n      sub\n      0x1f\n      and\n      dup3\n      add\n      swap2\n    tag_155:\n      pop\n      pop\n      pop\n      pop\n      pop\n      swap5\n      pop\n      dup4\n      dup1\n      sload\n      tag_158\n      swap1\n      tag_153\n      jump\t// in\n    tag_158:\n      dup1\n      0x1f\n      add\n      0x20\n      dup1\n      swap2\n      div\n      mul\n      0x20\n      add\n      mload(0x40)\n      swap1\n      dup2\n      add\n      0x40\n      mstore\n      dup1\n      swap3\n      swap2\n      swap1\n      dup2\n      dup2\n      mstore\n      0x20\n      add\n      dup3\n      dup1\n      sload\n      tag_159\n      swap1\n      tag_153\n      jump\t// in\n    tag_159:\n      dup1\n      iszero\n      tag_160\n      jumpi\n      dup1\n      0x1f\n      lt\n      tag_161\n      jumpi\n      0x0100\n      dup1\n      dup4\n      sload\n      div\n      mul\n      dup4\n      mstore\n      swap2\n      0x20\n      add\n      swap2\n      jump(tag_160)\n    tag_161:\n      dup3\n      add\n      swap2\n      swap1\n      0x00\n      mstore\n      keccak256(0x00, 0x20)\n      swap1\n    tag_162:\n      dup2\n      sload\n      dup2\n      mstore\n      swap1\n      0x01\n      add\n      swap1\n      0x20\n      add\n      dup1\n      dup4\n      gt\n      tag_162\n      jumpi\n      dup3\n      swap1\n      sub\n      0x1f\n      and\n      dup3\n      add\n      swap2\n    tag_160:\n      pop\n      pop\n      pop\n      pop\n      pop\n      swap4\n      pop\n      dup3\n      dup1\n      sload\n      tag_163\n      swap1\n      tag_153\n      jump\t// in\n    tag_163:\n      dup1\n      0x1f\n      add\n      0x20\n      dup1\n      swap2\n      div\n      mul\n      0x20\n      add\n      mload(0x40)\n      swap1\n      dup2\n      add\n      0x40\n      mstore\n      dup1\n      swap3\n      swap2\n      swap1\n      dup2\n      dup2\n      mstore\n      0x20\n      add\n      dup3\n      dup1\n      sload\n      tag_164\n      swap1\n      tag_153\n      jump\t// in\n    tag_164:\n      dup1\n      iszero\n      tag_165\n      jumpi\n      dup1\n      0x1f\n      lt\n      tag_166\n      jumpi\n      0x0100\n      dup1\n      dup4\n      sload\n      div\n      mul\n      dup4\n      mstore\n      swap2\n      0x20\n      add\n      swap2\n      jump(tag_165)\n    tag_166:\n      dup3\n      add\n      swap2\n      swap1\n      0x00\n      mstore\n      keccak256(0x00, 0x20)\n      swap1\n    tag_167:\n      dup2\n      sload\n      dup2\n      mstore\n      swap1\n      0x01\n      add\n      swap1\n      0x20\n      add\n      dup1\n      dup4\n      gt\n      tag_167\n      jumpi\n      dup3\n      swap1\n      sub\n      0x1f\n      and\n      dup3\n      add\n      swap2\n    tag_165:\n      pop\n      pop\n      pop\n      pop\n      pop\n      swap3\n      pop\n      swap5\n      pop\n      swap5\n      pop\n      swap5\n      pop\n      swap5\n      pop\n      swap5\n      pop\n        /* \"Items/DebitCard.sol\":1701:1890  function expose() external view ownerOrShared returns (string memory, string memory, string memory, uint16, uint16) {... */\n      swap1\n      swap2\n      swap3\n      swap4\n      swap5\n      jump\t// out\n        /* \"Items/DebitCard.sol\":1225:1339  function setCvv(uint16 _cvv) external ownerOnly {... */\n    tag_65:\n        /* \"Items/VaultItem.sol\":366:371  owner */\n      sload(0x01)\n      0x0100\n      swap1\n      div\n      sub(shl(0xa0, 0x01), 0x01)\n      and\n        /* \"Items/VaultItem.sol\":352:362  msg.sender */\n      caller\n        /* \"Items/VaultItem.sol\":352:371  msg.sender == owner */\n      eq\n      dup1\n        /* \"Items/VaultItem.sol\":352:395  msg.sender == owner || msg.sender == parent */\n      tag_169\n      jumpi\n      pop\n        /* \"Items/VaultItem.sol\":389:395  parent */\n      and(sub(shl(0xa0, 0x01), 0x01), sload(0x02))\n        /* \"Items/VaultItem.sol\":375:385  msg.sender */\n      caller\n        /* \"Items/VaultItem.sol\":375:395  msg.sender == parent */\n      eq\n        /* \"Items/VaultItem.sol\":352:395  msg.sender == owner || msg.sender == parent */\n    tag_169:\n        /* \"Items/VaultItem.sol\":344:410  require(msg.sender == owner || msg.sender == parent, \"Only owner\") */\n      tag_170\n      jumpi\n      mload(0x40)\n      shl(0xe5, 0x461bcd)\n      dup2\n      mstore\n      0x04\n      add\n      tag_78\n      swap1\n      tag_79\n      jump\t// in\n    tag_170:\n        /* \"Items/DebitCard.sol\":1284:1287  cvv */\n      0x06\n        /* \"Items/DebitCard.sol\":1284:1294  cvv = _cvv */\n      dup1\n      sload\n      not(0xffff0000)\n      and\n      0x010000\n      0xffff\n      dup5\n      and\n      mul\n      or\n      swap1\n      sstore\n        /* \"Items/DebitCard.sol\":1312:1331  Updated(msg.sender) */\n      mload(0x40)\n        /* \"Items/DebitCard.sol\":1320:1330  msg.sender */\n      caller\n        /* \"#utility.yul\":3436:3487   */\n      dup2\n      mstore\n      0x00\n      dup1\n      mload\n      0x20\n      data_2c67c2ea5f0acf1af63e6d21f70491caaa8c297045be1c6ee3e9b1d07edcb366\n      dup4\n      codecopy\n      dup2\n      mload\n      swap2\n      mstore\n        /* \"Items/DebitCard.sol\":1312:1331  Updated(msg.sender) */\n      swap1\n        /* \"#utility.yul\":3424:3426   */\n      0x20\n        /* \"#utility.yul\":3409:3427   */\n      add\n        /* \"Items/DebitCard.sol\":1312:1331  Updated(msg.sender) */\n      tag_83\n        /* \"#utility.yul\":3290:3493   */\n      jump\n        /* \"Items/VaultItem.sol\":1084:1203  function setName(string memory _n) external ownerOnly {... */\n    tag_68:\n        /* \"Items/VaultItem.sol\":366:371  owner */\n      sload(0x01)\n      0x0100\n      swap1\n      div\n      sub(shl(0xa0, 0x01), 0x01)\n      and\n        /* \"Items/VaultItem.sol\":352:362  msg.sender */\n      caller\n        /* \"Items/VaultItem.sol\":352:371  msg.sender == owner */\n      eq\n      dup1\n        /* \"Items/VaultItem.sol\":352:395  msg.sender == owner || msg.sender == parent */\n      tag_175\n      jumpi\n      pop\n        /* \"Items/VaultItem.sol\":389:395  parent */\n      and(sub(shl(0xa0, 0x01), 0x01), sload(0x02))\n        /* \"Items/VaultItem.sol\":375:385  msg.sender */\n      caller\n        /* \"Items/VaultItem.sol\":375:395  msg.sender == parent */\n      eq\n        /* \"Items/VaultItem.sol\":352:395  msg.sender == owner || msg.sender == parent */\n    tag_175:\n        /* \"Items/VaultItem.sol\":344:410  require(msg.sender == owner || msg.sender == parent, \"Only owner\") */\n      tag_176\n      jumpi\n      mload(0x40)\n      shl(0xe5, 0x461bcd)\n      dup2\n      mstore\n      0x04\n      add\n      tag_78\n      swap1\n      tag_79\n      jump\t// in\n    tag_176:\n        /* \"Items/VaultItem.sol\":1149:1153  name */\n      0x00\n        /* \"Items/VaultItem.sol\":1149:1158  name = _n */\n      tag_81\n        /* \"Items/VaultItem.sol\":1156:1158  _n */\n      dup3\n        /* \"Items/VaultItem.sol\":1149:1153  name */\n      dup3\n        /* \"Items/VaultItem.sol\":1149:1158  name = _n */\n      tag_82\n      jump\t// in\n        /* \"Items/VaultItem.sol\":1935:2291  function restictFrom( address _f ) external {... */\n    tag_71:\n      sub(shl(0xa0, 0x01), 0x01)\n        /* \"Items/VaultItem.sol\":2008:2024  _f != address(0) */\n      dup2\n      and\n      iszero\n      iszero\n      dup1\n        /* \"Items/VaultItem.sol\":2008:2095  _f != address(0) || ( msg.sender == parent || msg.sender == owner || msg.sender == _f ) */\n      tag_184\n      jumpi\n      pop\n        /* \"Items/VaultItem.sol\":2044:2050  parent */\n      and(sub(shl(0xa0, 0x01), 0x01), sload(0x02))\n        /* \"Items/VaultItem.sol\":2030:2040  msg.sender */\n      caller\n        /* \"Items/VaultItem.sol\":2030:2050  msg.sender == parent */\n      eq\n      dup1\n        /* \"Items/VaultItem.sol\":2030:2073  msg.sender == parent || msg.sender == owner */\n      tag_183\n      jumpi\n      pop\n        /* \"Items/VaultItem.sol\":2068:2073  owner */\n      sload(0x01)\n      0x0100\n      swap1\n      div\n      sub(shl(0xa0, 0x01), 0x01)\n      and\n        /* \"Items/VaultItem.sol\":2054:2064  msg.sender */\n      caller\n        /* \"Items/VaultItem.sol\":2054:2073  msg.sender == owner */\n      eq\n        /* \"Items/VaultItem.sol\":2030:2073  msg.sender == parent || msg.sender == owner */\n    tag_183:\n        /* \"Items/VaultItem.sol\":2030:2093  msg.sender == parent || msg.sender == owner || msg.sender == _f */\n      dup1\n      tag_184\n      jumpi\n      pop\n        /* \"Items/VaultItem.sol\":2077:2087  msg.sender */\n      caller\n      sub(shl(0xa0, 0x01), 0x01)\n        /* \"Items/VaultItem.sol\":2077:2093  msg.sender == _f */\n      dup3\n      and\n      eq\n        /* \"Items/VaultItem.sol\":2030:2093  msg.sender == parent || msg.sender == owner || msg.sender == _f */\n    tag_184:\n        /* \"Items/VaultItem.sol\":2000:2109  require(_f != address(0) || ( msg.sender == parent || msg.sender == owner || msg.sender == _f ), \"Forbidden\") */\n      tag_185\n      jumpi\n      mload(0x40)\n      shl(0xe5, 0x461bcd)\n      dup2\n      mstore\n        /* \"#utility.yul\":8202:8204   */\n      0x20\n        /* \"Items/VaultItem.sol\":2000:2109  require(_f != address(0) || ( msg.sender == parent || msg.sender == owner || msg.sender == _f ), \"Forbidden\") */\n      0x04\n      dup3\n      add\n        /* \"#utility.yul\":8184:8205   */\n      mstore\n        /* \"#utility.yul\":8241:8242   */\n      0x09\n        /* \"#utility.yul\":8221:8239   */\n      0x24\n      dup3\n      add\n        /* \"#utility.yul\":8214:8243   */\n      mstore\n      shl(0xb9, 0x2337b93134b23232b7)\n        /* \"#utility.yul\":8259:8277   */\n      0x44\n      dup3\n      add\n        /* \"#utility.yul\":8252:8291   */\n      mstore\n        /* \"#utility.yul\":8308:8326   */\n      0x64\n      add\n        /* \"Items/VaultItem.sol\":2000:2109  require(_f != address(0) || ( msg.sender == parent || msg.sender == owner || msg.sender == _f ), \"Forbidden\") */\n      tag_78\n        /* \"#utility.yul\":8000:8332   */\n      jump\n        /* \"Items/VaultItem.sol\":2000:2109  require(_f != address(0) || ( msg.sender == parent || msg.sender == owner || msg.sender == _f ), \"Forbidden\") */\n    tag_185:\n        /* \"Items/VaultItem.sol\":2122:2130  int _idx */\n      0x00\n        /* \"Items/VaultItem.sol\":2133:2177  Constants.findAddressIndex( _f, sharedWith ) */\n      tag_187\n        /* \"Items/VaultItem.sol\":2161:2163  _f */\n      dup3\n        /* \"Items/VaultItem.sol\":2165:2175  sharedWith */\n      0x03\n        /* \"Items/VaultItem.sol\":2133:2177  Constants.findAddressIndex( _f, sharedWith ) */\n      dup1\n      sload\n      dup1\n      0x20\n      mul\n      0x20\n      add\n      mload(0x40)\n      swap1\n      dup2\n      add\n      0x40\n      mstore\n      dup1\n      swap3\n      swap2\n      swap1\n      dup2\n      dup2\n      mstore\n      0x20\n      add\n      dup3\n      dup1\n      sload\n      dup1\n      iszero\n      tag_112\n      jumpi\n      0x20\n      mul\n      dup3\n      add\n      swap2\n      swap1\n      0x00\n      mstore\n      keccak256(0x00, 0x20)\n      swap1\n      dup2\n      sload\n      sub(shl(0xa0, 0x01), 0x01)\n      and\n      dup2\n      mstore\n      0x01\n      swap1\n      swap2\n      add\n      swap1\n      0x20\n      add\n      dup1\n      dup4\n      gt\n      tag_113\n      jumpi\n      pop\n      pop\n      pop\n      pop\n      pop\n        /* \"Items/VaultItem.sol\":2133:2159  Constants.findAddressIndex */\n      tag_114\n        /* \"Items/VaultItem.sol\":2133:2177  Constants.findAddressIndex( _f, sharedWith ) */\n      jump\t// in\n    tag_187:\n        /* \"Items/VaultItem.sol\":2122:2177  int _idx = Constants.findAddressIndex( _f, sharedWith ) */\n      swap1\n      pop\n      not(0x00)\n        /* \"Items/VaultItem.sol\":2198:2202  _idx */\n      dup2\n        /* \"Items/VaultItem.sol\":2198:2207  _idx > -1 */\n      sgt\n        /* \"Items/VaultItem.sol\":2190:2221  require(_idx > -1, \"Not found\") */\n      tag_190\n      jumpi\n      mload(0x40)\n      shl(0xe5, 0x461bcd)\n      dup2\n      mstore\n        /* \"#utility.yul\":8875:8877   */\n      0x20\n        /* \"Items/VaultItem.sol\":2190:2221  require(_idx > -1, \"Not found\") */\n      0x04\n      dup3\n      add\n        /* \"#utility.yul\":8857:8878   */\n      mstore\n        /* \"#utility.yul\":8914:8915   */\n      0x09\n        /* \"#utility.yul\":8894:8912   */\n      0x24\n      dup3\n      add\n        /* \"#utility.yul\":8887:8916   */\n      mstore\n      shl(0xba, 0x139bdd08199bdd5b99)\n        /* \"#utility.yul\":8932:8950   */\n      0x44\n      dup3\n      add\n        /* \"#utility.yul\":8925:8964   */\n      mstore\n        /* \"#utility.yul\":8981:8999   */\n      0x64\n      add\n        /* \"Items/VaultItem.sol\":2190:2221  require(_idx > -1, \"Not found\") */\n      tag_78\n        /* \"#utility.yul\":8673:9005   */\n      jump\n        /* \"Items/VaultItem.sol\":2190:2221  require(_idx > -1, \"Not found\") */\n    tag_190:\n        /* \"Items/VaultItem.sol\":2234:2281  Constants.deleteAddressFrom( _idx, sharedWith ) */\n      tag_193\n        /* \"Items/VaultItem.sol\":2263:2267  _idx */\n      dup2\n        /* \"Items/VaultItem.sol\":2269:2279  sharedWith */\n      0x03\n        /* \"Items/VaultItem.sol\":2234:2261  Constants.deleteAddressFrom */\n      tag_194\n        /* \"Items/VaultItem.sol\":2234:2281  Constants.deleteAddressFrom( _idx, sharedWith ) */\n      jump\t// in\n    tag_193:\n        /* \"Items/VaultItem.sol\":1979:2291  {... */\n      pop\n        /* \"Items/VaultItem.sol\":1935:2291  function restictFrom( address _f ) external {... */\n      pop\n      jump\t// out\n        /* \"Items/DebitCard.sol\":773:909  function setCardId(string memory _card_id) external ownerOnly {... */\n    tag_74:\n        /* \"Items/VaultItem.sol\":366:371  owner */\n      sload(0x01)\n      0x0100\n      swap1\n      div\n      sub(shl(0xa0, 0x01), 0x01)\n      and\n        /* \"Items/VaultItem.sol\":352:362  msg.sender */\n      caller\n        /* \"Items/VaultItem.sol\":352:371  msg.sender == owner */\n      eq\n      dup1\n        /* \"Items/VaultItem.sol\":352:395  msg.sender == owner || msg.sender == parent */\n      tag_196\n      jumpi\n      pop\n        /* \"Items/VaultItem.sol\":389:395  parent */\n      and(sub(shl(0xa0, 0x01), 0x01), sload(0x02))\n        /* \"Items/VaultItem.sol\":375:385  msg.sender */\n      caller\n        /* \"Items/VaultItem.sol\":375:395  msg.sender == parent */\n      eq\n        /* \"Items/VaultItem.sol\":352:395  msg.sender == owner || msg.sender == parent */\n    tag_196:\n        /* \"Items/VaultItem.sol\":344:410  require(msg.sender == owner || msg.sender == parent, \"Only owner\") */\n      tag_197\n      jumpi\n      mload(0x40)\n      shl(0xe5, 0x461bcd)\n      dup2\n      mstore\n      0x04\n      add\n      tag_78\n      swap1\n      tag_79\n      jump\t// in\n    tag_197:\n        /* \"Items/DebitCard.sol\":846:853  card_id */\n      0x04\n        /* \"Items/DebitCard.sol\":846:864  card_id = _card_id */\n      tag_81\n        /* \"Items/DebitCard.sol\":856:864  _card_id */\n      dup3\n        /* \"Items/DebitCard.sol\":846:853  card_id */\n      dup3\n        /* \"Items/DebitCard.sol\":846:864  card_id = _card_id */\n      tag_82\n      jump\t// in\n        /* \"Libs/Constants.sol\":296:522  function findAddressIndex(address _addr, address[] memory _a) internal pure returns (int) {... */\n    tag_114:\n        /* \"Libs/Constants.sol\":381:384  int */\n      0x00\n      dup1\n        /* \"Libs/Constants.sol\":397:494  for (uint i = 0; i < _a.length; i++) {... */\n    tag_203:\n        /* \"Libs/Constants.sol\":418:420  _a */\n      dup3\n        /* \"Libs/Constants.sol\":418:427  _a.length */\n      mload\n        /* \"Libs/Constants.sol\":414:415  i */\n      dup2\n        /* \"Libs/Constants.sol\":414:427  i < _a.length */\n      lt\n        /* \"Libs/Constants.sol\":397:494  for (uint i = 0; i < _a.length; i++) {... */\n      iszero\n      tag_204\n      jumpi\n        /* \"Libs/Constants.sol\":462:467  _addr */\n      dup4\n      sub(shl(0xa0, 0x01), 0x01)\n        /* \"Libs/Constants.sol\":453:467  _a[i] == _addr */\n      and\n        /* \"Libs/Constants.sol\":453:455  _a */\n      dup4\n        /* \"Libs/Constants.sol\":456:457  i */\n      dup3\n        /* \"Libs/Constants.sol\":453:458  _a[i] */\n      dup2\n      mload\n      dup2\n      lt\n      tag_207\n      jumpi\n      tag_207\n      tag_208\n      jump\t// in\n    tag_207:\n      0x20\n      mul\n      0x20\n      add\n      add\n      mload\n      sub(shl(0xa0, 0x01), 0x01)\n        /* \"Libs/Constants.sol\":453:467  _a[i] == _addr */\n      and\n      sub\n        /* \"Libs/Constants.sol\":449:482  if (_a[i] == _addr) return int(i) */\n      tag_209\n      jumpi\n        /* \"Libs/Constants.sol\":480:481  i */\n      swap1\n      pop\n        /* \"Libs/Constants.sol\":469:482  return int(i) */\n      jump(tag_202)\n        /* \"Libs/Constants.sol\":449:482  if (_a[i] == _addr) return int(i) */\n    tag_209:\n        /* \"Libs/Constants.sol\":429:432  i++ */\n      0x01\n      add\n        /* \"Libs/Constants.sol\":397:494  for (uint i = 0; i < _a.length; i++) {... */\n      jump(tag_203)\n    tag_204:\n      pop\n      not(0x00)\n        /* \"Libs/Constants.sol\":504:513  return -1 */\n      swap1\n      pop\n        /* \"Libs/Constants.sol\":296:522  function findAddressIndex(address _addr, address[] memory _a) internal pure returns (int) {... */\n    tag_202:\n      swap3\n      swap2\n      pop\n      pop\n      jump\t// out\n        /* \"Libs/Constants.sol\":531:793  function deleteAddressFrom(int idx, address[] storage _a) internal {... */\n    tag_194:\n        /* \"Libs/Constants.sol\":624:625  0 */\n      0x00\n        /* \"Libs/Constants.sol\":617:620  idx */\n      dup3\n        /* \"Libs/Constants.sol\":617:625  idx >= 0 */\n      slt\n      iszero\n        /* \"Libs/Constants.sol\":617:650  idx >= 0 && uint(idx) < _a.length */\n      dup1\n      iszero\n      tag_211\n      jumpi\n      pop\n        /* \"Libs/Constants.sol\":641:650  _a.length */\n      dup1\n      sload\n        /* \"Libs/Constants.sol\":629:650  uint(idx) < _a.length */\n      dup3\n      lt\n        /* \"Libs/Constants.sol\":617:650  idx >= 0 && uint(idx) < _a.length */\n    tag_211:\n        /* \"Libs/Constants.sol\":609:661  require(idx >= 0 && uint(idx) < _a.length, \"No idx\") */\n      tag_212\n      jumpi\n      mload(0x40)\n      shl(0xe5, 0x461bcd)\n      dup2\n      mstore\n        /* \"#utility.yul\":9344:9346   */\n      0x20\n        /* \"Libs/Constants.sol\":609:661  require(idx >= 0 && uint(idx) < _a.length, \"No idx\") */\n      0x04\n      dup3\n      add\n        /* \"#utility.yul\":9326:9347   */\n      mstore\n        /* \"#utility.yul\":9383:9384   */\n      0x06\n        /* \"#utility.yul\":9363:9381   */\n      0x24\n      dup3\n      add\n        /* \"#utility.yul\":9356:9385   */\n      mstore\n      shl(0xd3, 0x09cde40d2c8f)\n        /* \"#utility.yul\":9401:9419   */\n      0x44\n      dup3\n      add\n        /* \"#utility.yul\":9394:9430   */\n      mstore\n        /* \"#utility.yul\":9447:9465   */\n      0x64\n      add\n        /* \"Libs/Constants.sol\":609:661  require(idx >= 0 && uint(idx) < _a.length, \"No idx\") */\n      tag_78\n        /* \"#utility.yul\":9142:9471   */\n      jump\n        /* \"Libs/Constants.sol\":609:661  require(idx >= 0 && uint(idx) < _a.length, \"No idx\") */\n    tag_212:\n        /* \"Libs/Constants.sol\":691:694  idx */\n      dup2\n        /* \"Libs/Constants.sol\":672:765  for (uint i = uint(idx); i < _a.length - 1; i++) {... */\n    tag_215:\n        /* \"Libs/Constants.sol\":701:710  _a.length */\n      dup2\n      sload\n        /* \"Libs/Constants.sol\":701:714  _a.length - 1 */\n      tag_218\n      swap1\n        /* \"Libs/Constants.sol\":713:714  1 */\n      0x01\n      swap1\n        /* \"Libs/Constants.sol\":701:714  _a.length - 1 */\n      tag_219\n      jump\t// in\n    tag_218:\n        /* \"Libs/Constants.sol\":697:698  i */\n      dup2\n        /* \"Libs/Constants.sol\":697:714  i < _a.length - 1 */\n      lt\n        /* \"Libs/Constants.sol\":672:765  for (uint i = uint(idx); i < _a.length - 1; i++) {... */\n      iszero\n      tag_216\n      jumpi\n        /* \"Libs/Constants.sol\":744:746  _a */\n      dup2\n        /* \"Libs/Constants.sol\":747:752  i + 1 */\n      tag_220\n        /* \"Libs/Constants.sol\":747:748  i */\n      dup3\n        /* \"Libs/Constants.sol\":751:752  1 */\n      0x01\n        /* \"Libs/Constants.sol\":747:752  i + 1 */\n      tag_221\n      jump\t// in\n    tag_220:\n        /* \"Libs/Constants.sol\":744:753  _a[i + 1] */\n      dup2\n      sload\n      dup2\n      lt\n      tag_223\n      jumpi\n      tag_223\n      tag_208\n      jump\t// in\n    tag_223:\n      swap1\n      0x00\n      mstore\n      keccak256(0x00, 0x20)\n      add\n      0x00\n      swap1\n      sload\n      swap1\n      0x0100\n      exp\n      swap1\n      div\n      sub(shl(0xa0, 0x01), 0x01)\n      and\n        /* \"Libs/Constants.sol\":736:738  _a */\n      dup3\n        /* \"Libs/Constants.sol\":739:740  i */\n      dup3\n        /* \"Libs/Constants.sol\":736:741  _a[i] */\n      dup2\n      sload\n      dup2\n      lt\n      tag_226\n      jumpi\n      tag_226\n      tag_208\n      jump\t// in\n    tag_226:\n      0x00\n      swap2\n      dup3\n      mstore\n      0x20\n      swap1\n      swap2\n      keccak256\n      add\n        /* \"Libs/Constants.sol\":736:753  _a[i] = _a[i + 1] */\n      dup1\n      sload\n      not(sub(shl(0xa0, 0x01), 0x01))\n      and\n      sub(shl(0xa0, 0x01), 0x01)\n      swap3\n      swap1\n      swap3\n      and\n      swap2\n      swap1\n      swap2\n      or\n      swap1\n      sstore\n      0x01\n        /* \"Libs/Constants.sol\":716:719  i++ */\n      add\n        /* \"Libs/Constants.sol\":672:765  for (uint i = uint(idx); i < _a.length - 1; i++) {... */\n      jump(tag_215)\n    tag_216:\n      pop\n        /* \"Libs/Constants.sol\":777:779  _a */\n      dup1\n        /* \"Libs/Constants.sol\":777:785  _a.pop() */\n      dup1\n      sload\n      dup1\n      tag_229\n      jumpi\n      tag_229\n      tag_230\n      jump\t// in\n    tag_229:\n      0x00\n      dup3\n      dup2\n      mstore\n      0x20\n      swap1\n      keccak256\n      dup2\n      add\n      not(0x00)\n      swap1\n      dup2\n      add\n      dup1\n      sload\n      not(sub(shl(0xa0, 0x01), 0x01))\n      and\n      swap1\n      sstore\n      add\n      swap1\n      sstore\n      pop\n      pop\n        /* \"Libs/Constants.sol\":531:793  function deleteAddressFrom(int idx, address[] storage _a) internal {... */\n      jump\t// out\n        /* \"#utility.yul\":14:141   */\n    tag_232:\n        /* \"#utility.yul\":75:85   */\n      0x4e487b71\n        /* \"#utility.yul\":70:73   */\n      0xe0\n        /* \"#utility.yul\":66:86   */\n      shl\n        /* \"#utility.yul\":63:64   */\n      0x00\n        /* \"#utility.yul\":56:87   */\n      mstore\n        /* \"#utility.yul\":106:110   */\n      0x41\n        /* \"#utility.yul\":103:104   */\n      0x04\n        /* \"#utility.yul\":96:111   */\n      mstore\n        /* \"#utility.yul\":130:134   */\n      0x24\n        /* \"#utility.yul\":127:128   */\n      0x00\n        /* \"#utility.yul\":120:135   */\n      revert\n        /* \"#utility.yul\":146:872   */\n    tag_233:\n        /* \"#utility.yul\":189:194   */\n      0x00\n        /* \"#utility.yul\":242:245   */\n      dup3\n        /* \"#utility.yul\":235:239   */\n      0x1f\n        /* \"#utility.yul\":227:233   */\n      dup4\n        /* \"#utility.yul\":223:240   */\n      add\n        /* \"#utility.yul\":219:246   */\n      slt\n        /* \"#utility.yul\":209:264   */\n      tag_243\n      jumpi\n        /* \"#utility.yul\":260:261   */\n      0x00\n        /* \"#utility.yul\":257:258   */\n      dup1\n        /* \"#utility.yul\":250:262   */\n      revert\n        /* \"#utility.yul\":209:264   */\n    tag_243:\n        /* \"#utility.yul\":300:306   */\n      dup2\n        /* \"#utility.yul\":287:307   */\n      calldataload\n        /* \"#utility.yul\":330:348   */\n      0xffffffffffffffff\n        /* \"#utility.yul\":322:328   */\n      dup2\n        /* \"#utility.yul\":319:349   */\n      gt\n        /* \"#utility.yul\":316:372   */\n      iszero\n      tag_245\n      jumpi\n        /* \"#utility.yul\":352:370   */\n      tag_245\n      tag_232\n      jump\t// in\n    tag_245:\n        /* \"#utility.yul\":401:403   */\n      0x40\n        /* \"#utility.yul\":395:404   */\n      mload\n        /* \"#utility.yul\":493:495   */\n      0x1f\n        /* \"#utility.yul\":455:472   */\n      dup3\n      add\n      not(0x1f)\n        /* \"#utility.yul\":451:482   */\n      swap1\n      dup2\n      and\n        /* \"#utility.yul\":484:486   */\n      0x3f\n        /* \"#utility.yul\":447:487   */\n      add\n        /* \"#utility.yul\":443:497   */\n      and\n        /* \"#utility.yul\":431:498   */\n      dup2\n      add\n        /* \"#utility.yul\":528:546   */\n      0xffffffffffffffff\n        /* \"#utility.yul\":513:547   */\n      dup2\n      gt\n        /* \"#utility.yul\":549:571   */\n      dup3\n      dup3\n      lt\n        /* \"#utility.yul\":510:572   */\n      or\n        /* \"#utility.yul\":507:595   */\n      iszero\n      tag_247\n      jumpi\n        /* \"#utility.yul\":575:593   */\n      tag_247\n      tag_232\n      jump\t// in\n    tag_247:\n        /* \"#utility.yul\":611:613   */\n      0x40\n        /* \"#utility.yul\":604:626   */\n      mstore\n        /* \"#utility.yul\":635:657   */\n      dup2\n      dup2\n      mstore\n        /* \"#utility.yul\":676:695   */\n      dup4\n      dup3\n      add\n        /* \"#utility.yul\":697:701   */\n      0x20\n        /* \"#utility.yul\":672:702   */\n      add\n        /* \"#utility.yul\":669:708   */\n      dup6\n      lt\n        /* \"#utility.yul\":666:725   */\n      iszero\n      tag_248\n      jumpi\n        /* \"#utility.yul\":721:722   */\n      0x00\n        /* \"#utility.yul\":718:719   */\n      dup1\n        /* \"#utility.yul\":711:723   */\n      revert\n        /* \"#utility.yul\":666:725   */\n    tag_248:\n        /* \"#utility.yul\":785:791   */\n      dup2\n        /* \"#utility.yul\":778:782   */\n      0x20\n        /* \"#utility.yul\":770:776   */\n      dup6\n        /* \"#utility.yul\":766:783   */\n      add\n        /* \"#utility.yul\":759:763   */\n      0x20\n        /* \"#utility.yul\":751:757   */\n      dup4\n        /* \"#utility.yul\":747:764   */\n      add\n        /* \"#utility.yul\":734:792   */\n      calldatacopy\n        /* \"#utility.yul\":840:841   */\n      0x00\n        /* \"#utility.yul\":812:831   */\n      swap2\n      dup2\n      add\n        /* \"#utility.yul\":833:837   */\n      0x20\n        /* \"#utility.yul\":808:838   */\n      add\n        /* \"#utility.yul\":801:842   */\n      swap2\n      swap1\n      swap2\n      mstore\n        /* \"#utility.yul\":816:822   */\n      swap4\n        /* \"#utility.yul\":146:872   */\n      swap3\n      pop\n      pop\n      pop\n      jump\t// out\n        /* \"#utility.yul\":877:1199   */\n    tag_23:\n        /* \"#utility.yul\":946:952   */\n      0x00\n        /* \"#utility.yul\":999:1001   */\n      0x20\n        /* \"#utility.yul\":987:996   */\n      dup3\n        /* \"#utility.yul\":978:985   */\n      dup5\n        /* \"#utility.yul\":974:997   */\n      sub\n        /* \"#utility.yul\":970:1002   */\n      slt\n        /* \"#utility.yul\":967:1019   */\n      iszero\n      tag_250\n      jumpi\n        /* \"#utility.yul\":1015:1016   */\n      0x00\n        /* \"#utility.yul\":1012:1013   */\n      dup1\n        /* \"#utility.yul\":1005:1017   */\n      revert\n        /* \"#utility.yul\":967:1019   */\n    tag_250:\n        /* \"#utility.yul\":1055:1064   */\n      dup2\n        /* \"#utility.yul\":1042:1065   */\n      calldataload\n        /* \"#utility.yul\":1088:1106   */\n      0xffffffffffffffff\n        /* \"#utility.yul\":1080:1086   */\n      dup2\n        /* \"#utility.yul\":1077:1107   */\n      gt\n        /* \"#utility.yul\":1074:1124   */\n      iszero\n      tag_251\n      jumpi\n        /* \"#utility.yul\":1120:1121   */\n      0x00\n        /* \"#utility.yul\":1117:1118   */\n      dup1\n        /* \"#utility.yul\":1110:1122   */\n      revert\n        /* \"#utility.yul\":1074:1124   */\n    tag_251:\n        /* \"#utility.yul\":1143:1193   */\n      tag_252\n        /* \"#utility.yul\":1185:1192   */\n      dup5\n        /* \"#utility.yul\":1176:1182   */\n      dup3\n        /* \"#utility.yul\":1165:1174   */\n      dup6\n        /* \"#utility.yul\":1161:1183   */\n      add\n        /* \"#utility.yul\":1143:1193   */\n      tag_233\n      jump\t// in\n    tag_252:\n        /* \"#utility.yul\":1133:1193   */\n      swap5\n        /* \"#utility.yul\":877:1199   */\n      swap4\n      pop\n      pop\n      pop\n      pop\n      jump\t// out\n        /* \"#utility.yul\":1204:1490   */\n    tag_27:\n        /* \"#utility.yul\":1263:1269   */\n      0x00\n        /* \"#utility.yul\":1316:1318   */\n      0x20\n        /* \"#utility.yul\":1304:1313   */\n      dup3\n        /* \"#utility.yul\":1295:1302   */\n      dup5\n        /* \"#utility.yul\":1291:1314   */\n      sub\n        /* \"#utility.yul\":1287:1319   */\n      slt\n        /* \"#utility.yul\":1284:1336   */\n      iszero\n      tag_254\n      jumpi\n        /* \"#utility.yul\":1332:1333   */\n      0x00\n        /* \"#utility.yul\":1329:1330   */\n      dup1\n        /* \"#utility.yul\":1322:1334   */\n      revert\n        /* \"#utility.yul\":1284:1336   */\n    tag_254:\n        /* \"#utility.yul\":1358:1381   */\n      dup2\n      calldataload\n      sub(shl(0xa0, 0x01), 0x01)\n        /* \"#utility.yul\":1410:1441   */\n      dup2\n      and\n        /* \"#utility.yul\":1400:1442   */\n      dup2\n      eq\n        /* \"#utility.yul\":1390:1460   */\n      tag_255\n      jumpi\n        /* \"#utility.yul\":1456:1457   */\n      0x00\n        /* \"#utility.yul\":1453:1454   */\n      dup1\n        /* \"#utility.yul\":1446:1458   */\n      revert\n        /* \"#utility.yul\":1390:1460   */\n    tag_255:\n        /* \"#utility.yul\":1479:1484   */\n      swap4\n        /* \"#utility.yul\":1204:1490   */\n      swap3\n      pop\n      pop\n      pop\n      jump\t// out\n        /* \"#utility.yul\":1495:1835   */\n    tag_32:\n        /* \"#utility.yul\":1639:1641   */\n      0x20\n        /* \"#utility.yul\":1624:1642   */\n      dup2\n      add\n        /* \"#utility.yul\":1672:1673   */\n      0x03\n        /* \"#utility.yul\":1661:1674   */\n      dup4\n      lt\n        /* \"#utility.yul\":1651:1795   */\n      tag_257\n      jumpi\n        /* \"#utility.yul\":1717:1727   */\n      0x4e487b71\n        /* \"#utility.yul\":1712:1715   */\n      0xe0\n        /* \"#utility.yul\":1708:1728   */\n      shl\n        /* \"#utility.yul\":1705:1706   */\n      0x00\n        /* \"#utility.yul\":1698:1729   */\n      mstore\n        /* \"#utility.yul\":1752:1756   */\n      0x21\n        /* \"#utility.yul\":1749:1750   */\n      0x04\n        /* \"#utility.yul\":1742:1757   */\n      mstore\n        /* \"#utility.yul\":1780:1784   */\n      0x24\n        /* \"#utility.yul\":1777:1778   */\n      0x00\n        /* \"#utility.yul\":1770:1785   */\n      revert\n        /* \"#utility.yul\":1651:1795   */\n    tag_257:\n        /* \"#utility.yul\":1804:1829   */\n      swap2\n      swap1\n      mstore\n        /* \"#utility.yul\":1495:1835   */\n      swap1\n      jump\t// out\n        /* \"#utility.yul\":1840:1999   */\n    tag_234:\n        /* \"#utility.yul\":1907:1927   */\n      dup1\n      calldataload\n        /* \"#utility.yul\":1967:1973   */\n      0xffff\n        /* \"#utility.yul\":1956:1974   */\n      dup2\n      and\n        /* \"#utility.yul\":1946:1975   */\n      dup2\n      eq\n        /* \"#utility.yul\":1936:1993   */\n      tag_259\n      jumpi\n        /* \"#utility.yul\":1989:1990   */\n      0x00\n        /* \"#utility.yul\":1986:1987   */\n      dup1\n        /* \"#utility.yul\":1979:1991   */\n      revert\n        /* \"#utility.yul\":1936:1993   */\n    tag_259:\n        /* \"#utility.yul\":1840:1999   */\n      swap2\n      swap1\n      pop\n      jump\t// out\n        /* \"#utility.yul\":2004:2188   */\n    tag_35:\n        /* \"#utility.yul\":2062:2068   */\n      0x00\n        /* \"#utility.yul\":2115:2117   */\n      0x20\n        /* \"#utility.yul\":2103:2112   */\n      dup3\n        /* \"#utility.yul\":2094:2101   */\n      dup5\n        /* \"#utility.yul\":2090:2113   */\n      sub\n        /* \"#utility.yul\":2086:2118   */\n      slt\n        /* \"#utility.yul\":2083:2135   */\n      iszero\n      tag_261\n      jumpi\n        /* \"#utility.yul\":2131:2132   */\n      0x00\n        /* \"#utility.yul\":2128:2129   */\n      dup1\n        /* \"#utility.yul\":2121:2133   */\n      revert\n        /* \"#utility.yul\":2083:2135   */\n    tag_261:\n        /* \"#utility.yul\":2154:2182   */\n      tag_255\n        /* \"#utility.yul\":2172:2181   */\n      dup3\n        /* \"#utility.yul\":2154:2182   */\n      tag_234\n      jump\t// in\n        /* \"#utility.yul\":2193:3093   */\n    tag_39:\n        /* \"#utility.yul\":2316:2322   */\n      0x00\n        /* \"#utility.yul\":2324:2330   */\n      dup1\n        /* \"#utility.yul\":2332:2338   */\n      0x00\n        /* \"#utility.yul\":2340:2346   */\n      dup1\n        /* \"#utility.yul\":2348:2354   */\n      0x00\n        /* \"#utility.yul\":2401:2404   */\n      0xa0\n        /* \"#utility.yul\":2389:2398   */\n      dup7\n        /* \"#utility.yul\":2380:2387   */\n      dup9\n        /* \"#utility.yul\":2376:2399   */\n      sub\n        /* \"#utility.yul\":2372:2405   */\n      slt\n        /* \"#utility.yul\":2369:2422   */\n      iszero\n      tag_264\n      jumpi\n        /* \"#utility.yul\":2418:2419   */\n      0x00\n        /* \"#utility.yul\":2415:2416   */\n      dup1\n        /* \"#utility.yul\":2408:2420   */\n      revert\n        /* \"#utility.yul\":2369:2422   */\n    tag_264:\n        /* \"#utility.yul\":2458:2467   */\n      dup6\n        /* \"#utility.yul\":2445:2468   */\n      calldataload\n        /* \"#utility.yul\":2491:2509   */\n      0xffffffffffffffff\n        /* \"#utility.yul\":2483:2489   */\n      dup2\n        /* \"#utility.yul\":2480:2510   */\n      gt\n        /* \"#utility.yul\":2477:2527   */\n      iszero\n      tag_265\n      jumpi\n        /* \"#utility.yul\":2523:2524   */\n      0x00\n        /* \"#utility.yul\":2520:2521   */\n      dup1\n        /* \"#utility.yul\":2513:2525   */\n      revert\n        /* \"#utility.yul\":2477:2527   */\n    tag_265:\n        /* \"#utility.yul\":2546:2596   */\n      tag_266\n        /* \"#utility.yul\":2588:2595   */\n      dup9\n        /* \"#utility.yul\":2579:2585   */\n      dup3\n        /* \"#utility.yul\":2568:2577   */\n      dup10\n        /* \"#utility.yul\":2564:2586   */\n      add\n        /* \"#utility.yul\":2546:2596   */\n      tag_233\n      jump\t// in\n    tag_266:\n        /* \"#utility.yul\":2536:2596   */\n      swap6\n      pop\n      pop\n        /* \"#utility.yul\":2649:2651   */\n      0x20\n        /* \"#utility.yul\":2638:2647   */\n      dup7\n        /* \"#utility.yul\":2634:2652   */\n      add\n        /* \"#utility.yul\":2621:2653   */\n      calldataload\n        /* \"#utility.yul\":2678:2696   */\n      0xffffffffffffffff\n        /* \"#utility.yul\":2668:2676   */\n      dup2\n        /* \"#utility.yul\":2665:2697   */\n      gt\n        /* \"#utility.yul\":2662:2714   */\n      iszero\n      tag_267\n      jumpi\n        /* \"#utility.yul\":2710:2711   */\n      0x00\n        /* \"#utility.yul\":2707:2708   */\n      dup1\n        /* \"#utility.yul\":2700:2712   */\n      revert\n        /* \"#utility.yul\":2662:2714   */\n    tag_267:\n        /* \"#utility.yul\":2733:2785   */\n      tag_268\n        /* \"#utility.yul\":2777:2784   */\n      dup9\n        /* \"#utility.yul\":2766:2774   */\n      dup3\n        /* \"#utility.yul\":2755:2764   */\n      dup10\n        /* \"#utility.yul\":2751:2775   */\n      add\n        /* \"#utility.yul\":2733:2785   */\n      tag_233\n      jump\t// in\n    tag_268:\n        /* \"#utility.yul\":2723:2785   */\n      swap5\n      pop\n      pop\n        /* \"#utility.yul\":2838:2840   */\n      0x40\n        /* \"#utility.yul\":2827:2836   */\n      dup7\n        /* \"#utility.yul\":2823:2841   */\n      add\n        /* \"#utility.yul\":2810:2842   */\n      calldataload\n        /* \"#utility.yul\":2867:2885   */\n      0xffffffffffffffff\n        /* \"#utility.yul\":2857:2865   */\n      dup2\n        /* \"#utility.yul\":2854:2886   */\n      gt\n        /* \"#utility.yul\":2851:2903   */\n      iszero\n      tag_269\n      jumpi\n        /* \"#utility.yul\":2899:2900   */\n      0x00\n        /* \"#utility.yul\":2896:2897   */\n      dup1\n        /* \"#utility.yul\":2889:2901   */\n      revert\n        /* \"#utility.yul\":2851:2903   */\n    tag_269:\n        /* \"#utility.yul\":2922:2974   */\n      tag_270\n        /* \"#utility.yul\":2966:2973   */\n      dup9\n        /* \"#utility.yul\":2955:2963   */\n      dup3\n        /* \"#utility.yul\":2944:2953   */\n      dup10\n        /* \"#utility.yul\":2940:2964   */\n      add\n        /* \"#utility.yul\":2922:2974   */\n      tag_233\n      jump\t// in\n    tag_270:\n        /* \"#utility.yul\":2912:2974   */\n      swap4\n      pop\n      pop\n        /* \"#utility.yul\":2993:3030   */\n      tag_271\n        /* \"#utility.yul\":3026:3028   */\n      0x60\n        /* \"#utility.yul\":3015:3024   */\n      dup8\n        /* \"#utility.yul\":3011:3029   */\n      add\n        /* \"#utility.yul\":2993:3030   */\n      tag_234\n      jump\t// in\n    tag_271:\n        /* \"#utility.yul\":2983:3030   */\n      swap2\n      pop\n        /* \"#utility.yul\":3049:3087   */\n      tag_272\n        /* \"#utility.yul\":3082:3085   */\n      0x80\n        /* \"#utility.yul\":3071:3080   */\n      dup8\n        /* \"#utility.yul\":3067:3086   */\n      add\n        /* \"#utility.yul\":3049:3087   */\n      tag_234\n      jump\t// in\n    tag_272:\n        /* \"#utility.yul\":3039:3087   */\n      swap1\n      pop\n        /* \"#utility.yul\":2193:3093   */\n      swap3\n      swap6\n      pop\n      swap3\n      swap6\n      swap1\n      swap4\n      pop\n      jump\t// out\n        /* \"#utility.yul\":3498:4135   */\n    tag_55:\n        /* \"#utility.yul\":3688:3690   */\n      0x20\n        /* \"#utility.yul\":3700:3721   */\n      dup1\n      dup3\n      mstore\n        /* \"#utility.yul\":3770:3783   */\n      dup3\n      mload\n        /* \"#utility.yul\":3673:3691   */\n      dup3\n      dup3\n      add\n        /* \"#utility.yul\":3792:3814   */\n      dup2\n      swap1\n      mstore\n        /* \"#utility.yul\":3640:3644   */\n      0x00\n      swap2\n        /* \"#utility.yul\":3871:3886   */\n      dup5\n      add\n      swap1\n        /* \"#utility.yul\":3845:3847   */\n      0x40\n        /* \"#utility.yul\":3830:3848   */\n      dup5\n      add\n      swap1\n        /* \"#utility.yul\":3640:3644   */\n      dup4\n        /* \"#utility.yul\":3914:4109   */\n    tag_276:\n        /* \"#utility.yul\":3928:3934   */\n      dup2\n        /* \"#utility.yul\":3925:3926   */\n      dup2\n        /* \"#utility.yul\":3922:3935   */\n      lt\n        /* \"#utility.yul\":3914:4109   */\n      iszero\n      tag_278\n      jumpi\n        /* \"#utility.yul\":3993:4006   */\n      dup4\n      mload\n      sub(shl(0xa0, 0x01), 0x01)\n        /* \"#utility.yul\":3989:4028   */\n      and\n        /* \"#utility.yul\":3977:4029   */\n      dup4\n      mstore\n        /* \"#utility.yul\":4058:4060   */\n      0x20\n        /* \"#utility.yul\":4084:4099   */\n      swap4\n      dup5\n      add\n      swap4\n        /* \"#utility.yul\":4049:4061   */\n      swap1\n      swap3\n      add\n      swap2\n        /* \"#utility.yul\":4025:4026   */\n      0x01\n        /* \"#utility.yul\":3943:3952   */\n      add\n        /* \"#utility.yul\":3914:4109   */\n      jump(tag_276)\n    tag_278:\n      pop\n        /* \"#utility.yul\":4126:4129   */\n      swap1\n      swap6\n        /* \"#utility.yul\":3498:4135   */\n      swap5\n      pop\n      pop\n      pop\n      pop\n      pop\n      jump\t// out\n        /* \"#utility.yul\":4140:4429   */\n    tag_235:\n        /* \"#utility.yul\":4182:4185   */\n      0x00\n        /* \"#utility.yul\":4220:4225   */\n      dup2\n        /* \"#utility.yul\":4214:4226   */\n      mload\n        /* \"#utility.yul\":4247:4253   */\n      dup1\n        /* \"#utility.yul\":4242:4245   */\n      dup5\n        /* \"#utility.yul\":4235:4254   */\n      mstore\n        /* \"#utility.yul\":4303:4309   */\n      dup1\n        /* \"#utility.yul\":4296:4300   */\n      0x20\n        /* \"#utility.yul\":4289:4294   */\n      dup5\n        /* \"#utility.yul\":4285:4301   */\n      add\n        /* \"#utility.yul\":4278:4282   */\n      0x20\n        /* \"#utility.yul\":4273:4276   */\n      dup7\n        /* \"#utility.yul\":4269:4283   */\n      add\n        /* \"#utility.yul\":4263:4310   */\n      mcopy\n        /* \"#utility.yul\":4355:4356   */\n      0x00\n        /* \"#utility.yul\":4348:4352   */\n      0x20\n        /* \"#utility.yul\":4339:4345   */\n      dup3\n        /* \"#utility.yul\":4334:4337   */\n      dup7\n        /* \"#utility.yul\":4330:4346   */\n      add\n        /* \"#utility.yul\":4326:4353   */\n      add\n        /* \"#utility.yul\":4319:4357   */\n      mstore\n        /* \"#utility.yul\":4418:4422   */\n      0x20\n        /* \"#utility.yul\":4411:4413   */\n      0x1f\n        /* \"#utility.yul\":4407:4414   */\n      not\n        /* \"#utility.yul\":4402:4404   */\n      0x1f\n        /* \"#utility.yul\":4394:4400   */\n      dup4\n        /* \"#utility.yul\":4390:4405   */\n      add\n        /* \"#utility.yul\":4386:4415   */\n      and\n        /* \"#utility.yul\":4381:4384   */\n      dup6\n        /* \"#utility.yul\":4377:4416   */\n      add\n        /* \"#utility.yul\":4373:4423   */\n      add\n        /* \"#utility.yul\":4366:4423   */\n      swap2\n      pop\n      pop\n        /* \"#utility.yul\":4140:4429   */\n      swap3\n      swap2\n      pop\n      pop\n      jump\t// out\n        /* \"#utility.yul\":4434:5147   */\n    tag_62:\n        /* \"#utility.yul\":4731:4734   */\n      0xa0\n        /* \"#utility.yul\":4720:4729   */\n      dup2\n        /* \"#utility.yul\":4713:4735   */\n      mstore\n        /* \"#utility.yul\":4694:4698   */\n      0x00\n        /* \"#utility.yul\":4758:4804   */\n      tag_281\n        /* \"#utility.yul\":4799:4802   */\n      0xa0\n        /* \"#utility.yul\":4788:4797   */\n      dup4\n        /* \"#utility.yul\":4784:4803   */\n      add\n        /* \"#utility.yul\":4776:4782   */\n      dup9\n        /* \"#utility.yul\":4758:4804   */\n      tag_235\n      jump\t// in\n    tag_281:\n        /* \"#utility.yul\":4852:4861   */\n      dup3\n        /* \"#utility.yul\":4844:4850   */\n      dup2\n        /* \"#utility.yul\":4840:4862   */\n      sub\n        /* \"#utility.yul\":4835:4837   */\n      0x20\n        /* \"#utility.yul\":4824:4833   */\n      dup5\n        /* \"#utility.yul\":4820:4838   */\n      add\n        /* \"#utility.yul\":4813:4863   */\n      mstore\n        /* \"#utility.yul\":4886:4919   */\n      tag_282\n        /* \"#utility.yul\":4912:4918   */\n      dup2\n        /* \"#utility.yul\":4904:4910   */\n      dup9\n        /* \"#utility.yul\":4886:4919   */\n      tag_235\n      jump\t// in\n    tag_282:\n        /* \"#utility.yul\":4872:4919   */\n      swap1\n      pop\n        /* \"#utility.yul\":4967:4976   */\n      dup3\n        /* \"#utility.yul\":4959:4965   */\n      dup2\n        /* \"#utility.yul\":4955:4977   */\n      sub\n        /* \"#utility.yul\":4950:4952   */\n      0x40\n        /* \"#utility.yul\":4939:4948   */\n      dup5\n        /* \"#utility.yul\":4935:4953   */\n      add\n        /* \"#utility.yul\":4928:4978   */\n      mstore\n        /* \"#utility.yul\":4995:5028   */\n      tag_283\n        /* \"#utility.yul\":5021:5027   */\n      dup2\n        /* \"#utility.yul\":5013:5019   */\n      dup8\n        /* \"#utility.yul\":4995:5028   */\n      tag_235\n      jump\t// in\n    tag_283:\n        /* \"#utility.yul\":4987:5028   */\n      swap2\n      pop\n      pop\n        /* \"#utility.yul\":5076:5082   */\n      0xffff\n        /* \"#utility.yul\":5068:5074   */\n      dup5\n        /* \"#utility.yul\":5064:5083   */\n      and\n        /* \"#utility.yul\":5059:5061   */\n      0x60\n        /* \"#utility.yul\":5048:5057   */\n      dup4\n        /* \"#utility.yul\":5044:5062   */\n      add\n        /* \"#utility.yul\":5037:5084   */\n      mstore\n        /* \"#utility.yul\":5133:5139   */\n      0xffff\n        /* \"#utility.yul\":5125:5131   */\n      dup4\n        /* \"#utility.yul\":5121:5140   */\n      and\n        /* \"#utility.yul\":5115:5118   */\n      0x80\n        /* \"#utility.yul\":5104:5113   */\n      dup4\n        /* \"#utility.yul\":5100:5119   */\n      add\n        /* \"#utility.yul\":5093:5141   */\n      mstore\n        /* \"#utility.yul\":4434:5147   */\n      swap7\n      swap6\n      pop\n      pop\n      pop\n      pop\n      pop\n      pop\n      jump\t// out\n        /* \"#utility.yul\":5152:5486   */\n    tag_79:\n        /* \"#utility.yul\":5354:5356   */\n      0x20\n        /* \"#utility.yul\":5336:5357   */\n      dup1\n      dup3\n      mstore\n        /* \"#utility.yul\":5393:5395   */\n      0x0a\n        /* \"#utility.yul\":5373:5391   */\n      swap1\n      dup3\n      add\n        /* \"#utility.yul\":5366:5396   */\n      mstore\n      shl(0xb1, 0x27b7363c9037bbb732b9)\n        /* \"#utility.yul\":5427:5429   */\n      0x40\n        /* \"#utility.yul\":5412:5430   */\n      dup3\n      add\n        /* \"#utility.yul\":5405:5445   */\n      mstore\n        /* \"#utility.yul\":5477:5479   */\n      0x60\n        /* \"#utility.yul\":5462:5480   */\n      add\n      swap1\n        /* \"#utility.yul\":5152:5486   */\n      jump\t// out\n        /* \"#utility.yul\":5491:5871   */\n    tag_153:\n        /* \"#utility.yul\":5570:5571   */\n      0x01\n        /* \"#utility.yul\":5566:5578   */\n      dup2\n      dup2\n      shr\n      swap1\n        /* \"#utility.yul\":5613:5625   */\n      dup3\n      and\n      dup1\n        /* \"#utility.yul\":5634:5695   */\n      tag_286\n      jumpi\n        /* \"#utility.yul\":5688:5692   */\n      0x7f\n        /* \"#utility.yul\":5680:5686   */\n      dup3\n        /* \"#utility.yul\":5676:5693   */\n      and\n        /* \"#utility.yul\":5666:5693   */\n      swap2\n      pop\n        /* \"#utility.yul\":5634:5695   */\n    tag_286:\n        /* \"#utility.yul\":5741:5743   */\n      0x20\n        /* \"#utility.yul\":5733:5739   */\n      dup3\n        /* \"#utility.yul\":5730:5744   */\n      lt\n        /* \"#utility.yul\":5710:5728   */\n      dup2\n        /* \"#utility.yul\":5707:5745   */\n      sub\n        /* \"#utility.yul\":5704:5865   */\n      tag_287\n      jumpi\n        /* \"#utility.yul\":5787:5797   */\n      0x4e487b71\n        /* \"#utility.yul\":5782:5785   */\n      0xe0\n        /* \"#utility.yul\":5778:5798   */\n      shl\n        /* \"#utility.yul\":5775:5776   */\n      0x00\n        /* \"#utility.yul\":5768:5799   */\n      mstore\n        /* \"#utility.yul\":5822:5826   */\n      0x22\n        /* \"#utility.yul\":5819:5820   */\n      0x04\n        /* \"#utility.yul\":5812:5827   */\n      mstore\n        /* \"#utility.yul\":5850:5854   */\n      0x24\n        /* \"#utility.yul\":5847:5848   */\n      0x00\n        /* \"#utility.yul\":5840:5855   */\n      revert\n        /* \"#utility.yul\":5704:5865   */\n    tag_287:\n      pop\n        /* \"#utility.yul\":5491:5871   */\n      swap2\n      swap1\n      pop\n      jump\t// out\n        /* \"#utility.yul\":6002:6520   */\n    tag_237:\n        /* \"#utility.yul\":6104:6106   */\n      0x1f\n        /* \"#utility.yul\":6099:6102   */\n      dup3\n        /* \"#utility.yul\":6096:6107   */\n      gt\n        /* \"#utility.yul\":6093:6514   */\n      iszero\n      tag_290\n      jumpi\n        /* \"#utility.yul\":6140:6145   */\n      dup1\n        /* \"#utility.yul\":6137:6138   */\n      0x00\n        /* \"#utility.yul\":6130:6146   */\n      mstore\n        /* \"#utility.yul\":6184:6188   */\n      0x20\n        /* \"#utility.yul\":6181:6182   */\n      0x00\n        /* \"#utility.yul\":6171:6189   */\n      keccak256\n        /* \"#utility.yul\":6254:6256   */\n      0x1f\n        /* \"#utility.yul\":6242:6252   */\n      dup5\n        /* \"#utility.yul\":6238:6257   */\n      add\n        /* \"#utility.yul\":6235:6236   */\n      0x05\n        /* \"#utility.yul\":6231:6258   */\n      shr\n        /* \"#utility.yul\":6225:6229   */\n      dup2\n        /* \"#utility.yul\":6221:6259   */\n      add\n        /* \"#utility.yul\":6290:6294   */\n      0x20\n        /* \"#utility.yul\":6278:6288   */\n      dup6\n        /* \"#utility.yul\":6275:6295   */\n      lt\n        /* \"#utility.yul\":6272:6319   */\n      iszero\n      tag_291\n      jumpi\n      pop\n        /* \"#utility.yul\":6313:6317   */\n      dup1\n        /* \"#utility.yul\":6272:6319   */\n    tag_291:\n        /* \"#utility.yul\":6368:6370   */\n      0x1f\n        /* \"#utility.yul\":6363:6366   */\n      dup5\n        /* \"#utility.yul\":6359:6371   */\n      add\n        /* \"#utility.yul\":6356:6357   */\n      0x05\n        /* \"#utility.yul\":6352:6372   */\n      shr\n        /* \"#utility.yul\":6346:6350   */\n      dup3\n        /* \"#utility.yul\":6342:6373   */\n      add\n        /* \"#utility.yul\":6332:6373   */\n      swap2\n      pop\n        /* \"#utility.yul\":6423:6504   */\n    tag_292:\n        /* \"#utility.yul\":6441:6443   */\n      dup2\n        /* \"#utility.yul\":6434:6439   */\n      dup2\n        /* \"#utility.yul\":6431:6444   */\n      lt\n        /* \"#utility.yul\":6423:6504   */\n      iszero\n      tag_294\n      jumpi\n        /* \"#utility.yul\":6500:6501   */\n      0x00\n        /* \"#utility.yul\":6486:6502   */\n      dup2\n      sstore\n        /* \"#utility.yul\":6467:6468   */\n      0x01\n        /* \"#utility.yul\":6456:6469   */\n      add\n        /* \"#utility.yul\":6423:6504   */\n      jump(tag_292)\n    tag_294:\n        /* \"#utility.yul\":6427:6430   */\n      pop\n      pop\n        /* \"#utility.yul\":6093:6514   */\n    tag_290:\n        /* \"#utility.yul\":6002:6520   */\n      pop\n      pop\n      pop\n      jump\t// out\n        /* \"#utility.yul\":6696:7995   */\n    tag_82:\n        /* \"#utility.yul\":6822:6825   */\n      dup2\n        /* \"#utility.yul\":6816:6826   */\n      mload\n        /* \"#utility.yul\":6849:6867   */\n      0xffffffffffffffff\n        /* \"#utility.yul\":6841:6847   */\n      dup2\n        /* \"#utility.yul\":6838:6868   */\n      gt\n        /* \"#utility.yul\":6835:6891   */\n      iszero\n      tag_298\n      jumpi\n        /* \"#utility.yul\":6871:6889   */\n      tag_298\n      tag_232\n      jump\t// in\n    tag_298:\n        /* \"#utility.yul\":6900:6997   */\n      tag_299\n        /* \"#utility.yul\":6990:6996   */\n      dup2\n        /* \"#utility.yul\":6950:6988   */\n      tag_300\n        /* \"#utility.yul\":6982:6986   */\n      dup5\n        /* \"#utility.yul\":6976:6987   */\n      sload\n        /* \"#utility.yul\":6950:6988   */\n      tag_153\n      jump\t// in\n    tag_300:\n        /* \"#utility.yul\":6944:6948   */\n      dup5\n        /* \"#utility.yul\":6900:6997   */\n      tag_237\n      jump\t// in\n    tag_299:\n        /* \"#utility.yul\":7046:7050   */\n      0x20\n        /* \"#utility.yul\":7077:7079   */\n      0x1f\n        /* \"#utility.yul\":7066:7080   */\n      dup3\n      gt\n        /* \"#utility.yul\":7094:7095   */\n      0x01\n        /* \"#utility.yul\":7089:7738   */\n      dup2\n      eq\n      tag_302\n      jumpi\n        /* \"#utility.yul\":7782:7783   */\n      0x00\n        /* \"#utility.yul\":7799:7805   */\n      dup4\n        /* \"#utility.yul\":7796:7885   */\n      iszero\n      tag_303\n      jumpi\n      pop\n        /* \"#utility.yul\":7851:7870   */\n      dup5\n      dup3\n      add\n        /* \"#utility.yul\":7845:7871   */\n      mload\n        /* \"#utility.yul\":7796:7885   */\n    tag_303:\n      not(0x00)\n        /* \"#utility.yul\":6653:6654   */\n      0x03\n        /* \"#utility.yul\":6649:6660   */\n      dup6\n      swap1\n      shl\n        /* \"#utility.yul\":6645:6669   */\n      shr\n        /* \"#utility.yul\":6641:6670   */\n      not\n        /* \"#utility.yul\":6631:6671   */\n      and\n        /* \"#utility.yul\":6677:6678   */\n      0x01\n        /* \"#utility.yul\":6673:6684   */\n      dup5\n      swap1\n      shl\n        /* \"#utility.yul\":6628:6685   */\n      or\n        /* \"#utility.yul\":7898:7979   */\n      dup5\n      sstore\n        /* \"#utility.yul\":7059:7989   */\n      jump(tag_294)\n        /* \"#utility.yul\":7089:7738   */\n    tag_302:\n        /* \"#utility.yul\":5949:5950   */\n      0x00\n        /* \"#utility.yul\":5942:5956   */\n      dup5\n      dup2\n      mstore\n        /* \"#utility.yul\":5986:5990   */\n      0x20\n        /* \"#utility.yul\":5973:5991   */\n      dup2\n      keccak256\n      not(0x1f)\n        /* \"#utility.yul\":7125:7145   */\n      dup6\n      and\n      swap2\n        /* \"#utility.yul\":7243:7465   */\n    tag_306:\n        /* \"#utility.yul\":7257:7264   */\n      dup3\n        /* \"#utility.yul\":7254:7255   */\n      dup2\n        /* \"#utility.yul\":7251:7265   */\n      lt\n        /* \"#utility.yul\":7243:7465   */\n      iszero\n      tag_308\n      jumpi\n        /* \"#utility.yul\":7339:7358   */\n      dup8\n      dup6\n      add\n        /* \"#utility.yul\":7333:7359   */\n      mload\n        /* \"#utility.yul\":7318:7360   */\n      dup3\n      sstore\n        /* \"#utility.yul\":7446:7450   */\n      0x20\n        /* \"#utility.yul\":7431:7451   */\n      swap5\n      dup6\n      add\n      swap5\n        /* \"#utility.yul\":7399:7400   */\n      0x01\n        /* \"#utility.yul\":7387:7401   */\n      swap1\n      swap3\n      add\n      swap2\n        /* \"#utility.yul\":7273:7285   */\n      add\n        /* \"#utility.yul\":7243:7465   */\n      jump(tag_306)\n    tag_308:\n        /* \"#utility.yul\":7247:7250   */\n      pop\n        /* \"#utility.yul\":7493:7499   */\n      dup5\n        /* \"#utility.yul\":7484:7491   */\n      dup3\n        /* \"#utility.yul\":7481:7500   */\n      lt\n        /* \"#utility.yul\":7478:7679   */\n      iszero\n      tag_309\n      jumpi\n        /* \"#utility.yul\":7554:7573   */\n      dup7\n      dup5\n      add\n        /* \"#utility.yul\":7548:7574   */\n      mload\n      not(0x00)\n        /* \"#utility.yul\":7637:7638   */\n      0x03\n        /* \"#utility.yul\":7633:7647   */\n      dup8\n      swap1\n      shl\n        /* \"#utility.yul\":7649:7652   */\n      0xf8\n        /* \"#utility.yul\":7629:7653   */\n      and\n        /* \"#utility.yul\":7625:7662   */\n      shr\n        /* \"#utility.yul\":7621:7663   */\n      not\n        /* \"#utility.yul\":7606:7664   */\n      and\n        /* \"#utility.yul\":7591:7665   */\n      dup2\n      sstore\n        /* \"#utility.yul\":7478:7679   */\n    tag_309:\n      pop\n      pop\n      pop\n      pop\n        /* \"#utility.yul\":7725:7726   */\n      0x01\n        /* \"#utility.yul\":7709:7723   */\n      swap1\n      dup2\n      shl\n        /* \"#utility.yul\":7705:7727   */\n      add\n        /* \"#utility.yul\":7692:7728   */\n      swap1\n      sstore\n      pop\n        /* \"#utility.yul\":6696:7995   */\n      jump\t// out\n        /* \"#utility.yul\":9010:9137   */\n    tag_208:\n        /* \"#utility.yul\":9071:9081   */\n      0x4e487b71\n        /* \"#utility.yul\":9066:9069   */\n      0xe0\n        /* \"#utility.yul\":9062:9082   */\n      shl\n        /* \"#utility.yul\":9059:9060   */\n      0x00\n        /* \"#utility.yul\":9052:9083   */\n      mstore\n        /* \"#utility.yul\":9102:9106   */\n      0x32\n        /* \"#utility.yul\":9099:9100   */\n      0x04\n        /* \"#utility.yul\":9092:9107   */\n      mstore\n        /* \"#utility.yul\":9126:9130   */\n      0x24\n        /* \"#utility.yul\":9123:9124   */\n      0x00\n        /* \"#utility.yul\":9116:9131   */\n      revert\n        /* \"#utility.yul\":9476:9603   */\n    tag_239:\n        /* \"#utility.yul\":9537:9547   */\n      0x4e487b71\n        /* \"#utility.yul\":9532:9535   */\n      0xe0\n        /* \"#utility.yul\":9528:9548   */\n      shl\n        /* \"#utility.yul\":9525:9526   */\n      0x00\n        /* \"#utility.yul\":9518:9549   */\n      mstore\n        /* \"#utility.yul\":9568:9572   */\n      0x11\n        /* \"#utility.yul\":9565:9566   */\n      0x04\n        /* \"#utility.yul\":9558:9573   */\n      mstore\n        /* \"#utility.yul\":9592:9596   */\n      0x24\n        /* \"#utility.yul\":9589:9590   */\n      0x00\n        /* \"#utility.yul\":9582:9597   */\n      revert\n        /* \"#utility.yul\":9608:9736   */\n    tag_219:\n        /* \"#utility.yul\":9675:9684   */\n      dup2\n      dup2\n      sub\n        /* \"#utility.yul\":9696:9707   */\n      dup2\n      dup2\n      gt\n        /* \"#utility.yul\":9693:9730   */\n      iszero\n      tag_202\n      jumpi\n        /* \"#utility.yul\":9710:9728   */\n      tag_202\n      tag_239\n      jump\t// in\n        /* \"#utility.yul\":9741:9866   */\n    tag_221:\n        /* \"#utility.yul\":9806:9815   */\n      dup1\n      dup3\n      add\n        /* \"#utility.yul\":9827:9837   */\n      dup1\n      dup3\n      gt\n        /* \"#utility.yul\":9824:9860   */\n      iszero\n      tag_202\n      jumpi\n        /* \"#utility.yul\":9840:9858   */\n      tag_202\n      tag_239\n      jump\t// in\n        /* \"#utility.yul\":9871:9998   */\n    tag_230:\n        /* \"#utility.yul\":9932:9942   */\n      0x4e487b71\n        /* \"#utility.yul\":9927:9930   */\n      0xe0\n        /* \"#utility.yul\":9923:9943   */\n      shl\n        /* \"#utility.yul\":9920:9921   */\n      0x00\n        /* \"#utility.yul\":9913:9944   */\n      mstore\n        /* \"#utility.yul\":9963:9967   */\n      0x31\n        /* \"#utility.yul\":9960:9961   */\n      0x04\n        /* \"#utility.yul\":9953:9968   */\n      mstore\n        /* \"#utility.yul\":9987:9991   */\n      0x24\n        /* \"#utility.yul\":9984:9985   */\n      0x00\n        /* \"#utility.yul\":9977:9992   */\n      revert\n    stop\n    data_2c67c2ea5f0acf1af63e6d21f70491caaa8c297045be1c6ee3e9b1d07edcb366 e00da2178806f37f69815e9ed5ed3072ec1d55206d60916d99b469c7daa421e4\n\n    auxdata: 0xa2646970667358221220ca802ed3ce8364584b44af605d8966c81fcf899109de2e641b9535ecb607d51a64736f6c634300081a0033\n}\n",
				"bytecode": {
					"linkReferences": {},
					"object": "608060405234801561000f575f80fd5b506040516116df3803806116df83398101604081905261002e916101dc565b86600183835f61003e8582610330565b506001805484919060ff19168183600281111561005d5761005d6103ea565b021790555060018054610100600160a81b0319166101006001600160a01b0394851602179055600280546001600160a01b0319169190921617905550600490506100a78782610330565b5060056100b48682610330565b506006805461ffff858116620100000263ffffffff19909216908716171790556040513381527f1449abf21e49fd025f33495e77f7b1461caefdd3d4bb646424a3f445c4576a5b9060200160405180910390a1505050505050506103fe565b634e487b7160e01b5f52604160045260245ffd5b5f82601f830112610136575f80fd5b81516001600160401b0381111561014f5761014f610113565b604051601f8201601f19908116603f011681016001600160401b038111828210171561017d5761017d610113565b604052818152838201602001851015610194575f80fd5b8160208501602083015e5f918101602001919091529392505050565b805161ffff811681146101c1575f80fd5b919050565b80516001600160a01b03811681146101c1575f80fd5b5f805f805f805f60e0888a0312156101f2575f80fd5b87516001600160401b03811115610207575f80fd5b6102138a828b01610127565b60208a015190985090506001600160401b03811115610230575f80fd5b61023c8a828b01610127565b60408a015190975090506001600160401b03811115610259575f80fd5b6102658a828b01610127565b955050610274606089016101b0565b9350610282608089016101b0565b925061029060a089016101c6565b915061029e60c089016101c6565b905092959891949750929550565b600181811c908216806102c057607f821691505b6020821081036102de57634e487b7160e01b5f52602260045260245ffd5b50919050565b601f82111561032b57805f5260205f20601f840160051c810160208510156103095750805b601f840160051c820191505b81811015610328575f8155600101610315565b50505b505050565b81516001600160401b0381111561034957610349610113565b61035d8161035784546102ac565b846102e4565b6020601f82116001811461038f575f83156103785750848201515b5f19600385901b1c1916600184901b178455610328565b5f84815260208120601f198516915b828110156103be578785015182556020948501946001909201910161039e565b50848210156103db57868401515f19600387901b60f8161c191681555b50505050600190811b01905550565b634e487b7160e01b5f52602160045260245ffd5b6112d48061040b5f395ff3fe608060405234801561000f575f80fd5b50600436106100f0575f3560e01c806380f7602111610093578063c40da77011610063578063c40da770146101e1578063c47f0027146101f4578063ded92dac14610207578063efd8af9f1461021a575f80fd5b806380f760211461018b578063a95264d0146101ab578063b9daf3e2146101c0578063ba379e86146101c8575f80fd5b806340aa5c71116100ce57806340aa5c711461013a578063478e5cb31461014d5780634ba83374146101605780635da6ef8d14610178575f80fd5b80630dbef92c146100f45780631499c592146101095780632858d3c81461011c575b5f80fd5b610107610102366004610e7c565b61022d565b005b610107610117366004610eb6565b6102ab565b610124610327565b6040516101319190610ee3565b60405180910390f35b610107610148366004610f1f565b610377565b61010761015b366004610f38565b6103e9565b610168610499565b6040519015158152602001610131565b610107610186366004610eb6565b610505565b610193610668565b6040516001600160a01b039091168152602001610131565b6101b36106be565b6040516101319190610fe7565b610168610763565b6101d0610792565b604051610131959493929190611060565b6101076101ef366004610f1f565b610a2f565b610107610202366004610e7c565b610aa8565b610107610215366004610eb6565b610af7565b610107610228366004610e7c565b610c2a565b60015461010090046001600160a01b031633148061025557506002546001600160a01b031633145b61027a5760405162461bcd60e51b8152600401610271906110b9565b60405180910390fd5b60056102868282611161565b506040513381525f8051602061127f833981519152906020015b60405180910390a150565b60015461010090046001600160a01b03163314806102d357506002546001600160a01b031633145b6102ef5760405162461bcd60e51b8152600401610271906110b9565b600280546001600160a01b0319166001600160a01b0383161790556040513381525f8051602061127f833981519152906020016102a0565b6001545f9061010090046001600160a01b031633148061035157506002546001600160a01b031633145b61036d5760405162461bcd60e51b8152600401610271906110b9565b5060015460ff1690565b60015461010090046001600160a01b031633148061039f57506002546001600160a01b031633145b6103bb5760405162461bcd60e51b8152600401610271906110b9565b6006805461ffff191661ffff83161790556040513381525f8051602061127f833981519152906020016102a0565b60015461010090046001600160a01b031633148061041157506002546001600160a01b031633145b61042d5760405162461bcd60e51b8152600401610271906110b9565b5f6104388682611161565b5060046104458582611161565b5060056104528482611161565b506006805461ffff838116620100000263ffffffff19909216908516171790556040513381525f8051602061127f8339815191529060200160405180910390a15050505050565b5f6104fc3360038054806020026020016040519081016040528092919081815260200182805480156104f257602002820191905f5260205f20905b81546001600160a01b031681526001909101906020018083116104d4575b5050505050610c7a565b5f191415905090565b60015461010090046001600160a01b031633148061052d57506002546001600160a01b031633145b6105495760405162461bcd60e51b8152600401610271906110b9565b6001546001600160a01b03828116610100909204161480159061057457506001600160a01b03811615155b80156105df57506105db8160038054806020026020016040519081016040528092919081815260200182805480156104f257602002820191905f5260205f209081546001600160a01b031681526001909101906020018083116104d4575050505050610c7a565b5f19145b6106175760405162461bcd60e51b81526020600482015260096024820152682337b93134b23232b760b91b6044820152606401610271565b600380546001810182555f919091527fc2575a0e9e593c00f959f8c92f12db2869c3395a3b0502d05e2516446f71f85b0180546001600160a01b0319166001600160a01b0392909216919091179055565b6001545f9061010090046001600160a01b031633148061069257506002546001600160a01b031633145b6106ae5760405162461bcd60e51b8152600401610271906110b9565b506002546001600160a01b031690565b60015460609061010090046001600160a01b03163314806106e957506002546001600160a01b031633145b6107055760405162461bcd60e51b8152600401610271906110b9565b600380548060200260200160405190810160405280929190818152602001828054801561075957602002820191905f5260205f20905b81546001600160a01b0316815260019091019060200180831161073b575b5050505050905090565b6001545f9061010090046001600160a01b031633148061078d57506002546001600160a01b031633145b905090565b60608060605f8060018054906101000a90046001600160a01b03166001600160a01b0316336001600160a01b0316148061082c57506108273360038054806020026020016040519081016040528092919081815260200182805480156104f257602002820191905f5260205f209081546001600160a01b031681526001909101906020018083116104d4575050505050610c7a565b5f1914155b6108635760405162461bcd60e51b815260206004820152600860248201526714995cdd1c9a58dd60c21b6044820152606401610271565b6006545f8054909160049160059161ffff80821692620100009092041690859061088c906110dd565b80601f01602080910402602001604051908101604052809291908181526020018280546108b8906110dd565b80156109035780601f106108da57610100808354040283529160200191610903565b820191905f5260205f20905b8154815290600101906020018083116108e657829003601f168201915b50505050509450838054610916906110dd565b80601f0160208091040260200160405190810160405280929190818152602001828054610942906110dd565b801561098d5780601f106109645761010080835404028352916020019161098d565b820191905f5260205f20905b81548152906001019060200180831161097057829003601f168201915b505050505093508280546109a0906110dd565b80601f01602080910402602001604051908101604052809291908181526020018280546109cc906110dd565b8015610a175780601f106109ee57610100808354040283529160200191610a17565b820191905f5260205f20905b8154815290600101906020018083116109fa57829003601f168201915b50505050509250945094509450945094509091929394565b60015461010090046001600160a01b0316331480610a5757506002546001600160a01b031633145b610a735760405162461bcd60e51b8152600401610271906110b9565b6006805463ffff000019166201000061ffff8416021790556040513381525f8051602061127f833981519152906020016102a0565b60015461010090046001600160a01b0316331480610ad057506002546001600160a01b031633145b610aec5760405162461bcd60e51b8152600401610271906110b9565b5f6102868282611161565b6001600160a01b038116151580610b4457506002546001600160a01b0316331480610b31575060015461010090046001600160a01b031633145b80610b445750336001600160a01b038216145b610b7c5760405162461bcd60e51b81526020600482015260096024820152682337b93134b23232b760b91b6044820152606401610271565b5f610bdd8260038054806020026020016040519081016040528092919081815260200182805480156104f257602002820191905f5260205f209081546001600160a01b031681526001909101906020018083116104d4575050505050610c7a565b90505f198113610c1b5760405162461bcd60e51b8152602060048201526009602482015268139bdd08199bdd5b9960ba1b6044820152606401610271565b610c26816003610cd3565b5050565b60015461010090046001600160a01b0316331480610c5257506002546001600160a01b031633145b610c6e5760405162461bcd60e51b8152600401610271906110b9565b60046102868282611161565b5f805b8251811015610cc757836001600160a01b0316838281518110610ca257610ca261121c565b60200260200101516001600160a01b031603610cbf579050610ccd565b600101610c7d565b505f1990505b92915050565b5f8212158015610ce35750805482105b610d185760405162461bcd60e51b815260206004820152600660248201526509cde40d2c8f60d31b6044820152606401610271565b815b8154610d2890600190611244565b811015610da85781610d3b826001611257565b81548110610d4b57610d4b61121c565b905f5260205f20015f9054906101000a90046001600160a01b0316828281548110610d7857610d7861121c565b5f91825260209091200180546001600160a01b0319166001600160a01b0392909216919091179055600101610d1a565b5080805480610db957610db961126a565b5f8281526020902081015f1990810180546001600160a01b03191690550190555050565b634e487b7160e01b5f52604160045260245ffd5b5f82601f830112610e00575f80fd5b813567ffffffffffffffff811115610e1a57610e1a610ddd565b604051601f8201601f19908116603f0116810167ffffffffffffffff81118282101715610e4957610e49610ddd565b604052818152838201602001851015610e60575f80fd5b816020850160208301375f918101602001919091529392505050565b5f60208284031215610e8c575f80fd5b813567ffffffffffffffff811115610ea2575f80fd5b610eae84828501610df1565b949350505050565b5f60208284031215610ec6575f80fd5b81356001600160a01b0381168114610edc575f80fd5b9392505050565b6020810160038310610f0357634e487b7160e01b5f52602160045260245ffd5b91905290565b803561ffff81168114610f1a575f80fd5b919050565b5f60208284031215610f2f575f80fd5b610edc82610f09565b5f805f805f60a08688031215610f4c575f80fd5b853567ffffffffffffffff811115610f62575f80fd5b610f6e88828901610df1565b955050602086013567ffffffffffffffff811115610f8a575f80fd5b610f9688828901610df1565b945050604086013567ffffffffffffffff811115610fb2575f80fd5b610fbe88828901610df1565b935050610fcd60608701610f09565b9150610fdb60808701610f09565b90509295509295909350565b602080825282518282018190525f918401906040840190835b818110156110275783516001600160a01b0316835260209384019390920191600101611000565b509095945050505050565b5f81518084528060208401602086015e5f602082860101526020601f19601f83011685010191505092915050565b60a081525f61107260a0830188611032565b82810360208401526110848188611032565b905082810360408401526110988187611032565b91505061ffff8416606083015261ffff831660808301529695505050505050565b6020808252600a908201526927b7363c9037bbb732b960b11b604082015260600190565b600181811c908216806110f157607f821691505b60208210810361110f57634e487b7160e01b5f52602260045260245ffd5b50919050565b601f82111561115c57805f5260205f20601f840160051c8101602085101561113a5750805b601f840160051c820191505b81811015611159575f8155600101611146565b50505b505050565b815167ffffffffffffffff81111561117b5761117b610ddd565b61118f8161118984546110dd565b84611115565b6020601f8211600181146111c1575f83156111aa5750848201515b5f19600385901b1c1916600184901b178455611159565b5f84815260208120601f198516915b828110156111f057878501518255602094850194600190920191016111d0565b508482101561120d57868401515f19600387901b60f8161c191681555b50505050600190811b01905550565b634e487b7160e01b5f52603260045260245ffd5b634e487b7160e01b5f52601160045260245ffd5b81810381811115610ccd57610ccd611230565b80820180821115610ccd57610ccd611230565b634e487b7160e01b5f52603160045260245ffdfee00da2178806f37f69815e9ed5ed3072ec1d55206d60916d99b469c7daa421e4a2646970667358221220ca802ed3ce8364584b44af605d8966c81fcf899109de2e641b9535ecb607d51a64736f6c634300081a0033",
					"opcodes": "PUSH1 0x80 PUSH1 0x40 MSTORE CALLVALUE DUP1 ISZERO PUSH2 0xF JUMPI PUSH0 DUP1 REVERT JUMPDEST POP PUSH1 0x40 MLOAD PUSH2 0x16DF CODESIZE SUB DUP1 PUSH2 0x16DF DUP4 CODECOPY DUP2 ADD PUSH1 0x40 DUP2 SWAP1 MSTORE PUSH2 0x2E SWAP2 PUSH2 0x1DC JUMP JUMPDEST DUP7 PUSH1 0x1 DUP4 DUP4 PUSH0 PUSH2 0x3E DUP6 DUP3 PUSH2 0x330 JUMP JUMPDEST POP PUSH1 0x1 DUP1 SLOAD DUP5 SWAP2 SWAP1 PUSH1 0xFF NOT AND DUP2 DUP4 PUSH1 0x2 DUP2 GT ISZERO PUSH2 0x5D JUMPI PUSH2 0x5D PUSH2 0x3EA JUMP JUMPDEST MUL OR SWAP1 SSTORE POP PUSH1 0x1 DUP1 SLOAD PUSH2 0x100 PUSH1 0x1 PUSH1 0xA8 SHL SUB NOT AND PUSH2 0x100 PUSH1 0x1 PUSH1 0x1 PUSH1 0xA0 SHL SUB SWAP5 DUP6 AND MUL OR SWAP1 SSTORE PUSH1 0x2 DUP1 SLOAD PUSH1 0x1 PUSH1 0x1 PUSH1 0xA0 SHL SUB NOT AND SWAP2 SWAP1 SWAP3 AND OR SWAP1 SSTORE POP PUSH1 0x4 SWAP1 POP PUSH2 0xA7 DUP8 DUP3 PUSH2 0x330 JUMP JUMPDEST POP PUSH1 0x5 PUSH2 0xB4 DUP7 DUP3 PUSH2 0x330 JUMP JUMPDEST POP PUSH1 0x6 DUP1 SLOAD PUSH2 0xFFFF DUP6 DUP2 AND PUSH3 0x10000 MUL PUSH4 0xFFFFFFFF NOT SWAP1 SWAP3 AND SWAP1 DUP8 AND OR OR SWAP1 SSTORE PUSH1 0x40 MLOAD CALLER DUP2 MSTORE PUSH32 0x1449ABF21E49FD025F33495E77F7B1461CAEFDD3D4BB646424A3F445C4576A5B SWAP1 PUSH1 0x20 ADD PUSH1 0x40 MLOAD DUP1 SWAP2 SUB SWAP1 LOG1 POP POP POP POP POP POP POP PUSH2 0x3FE JUMP JUMPDEST PUSH4 0x4E487B71 PUSH1 0xE0 SHL PUSH0 MSTORE PUSH1 0x41 PUSH1 0x4 MSTORE PUSH1 0x24 PUSH0 REVERT JUMPDEST PUSH0 DUP3 PUSH1 0x1F DUP4 ADD SLT PUSH2 0x136 JUMPI PUSH0 DUP1 REVERT JUMPDEST DUP2 MLOAD PUSH1 0x1 PUSH1 0x1 PUSH1 0x40 SHL SUB DUP2 GT ISZERO PUSH2 0x14F JUMPI PUSH2 0x14F PUSH2 0x113 JUMP JUMPDEST PUSH1 0x40 MLOAD PUSH1 0x1F DUP3 ADD PUSH1 0x1F NOT SWAP1 DUP2 AND PUSH1 0x3F ADD AND DUP2 ADD PUSH1 0x1 PUSH1 0x1 PUSH1 0x40 SHL SUB DUP2 GT DUP3 DUP3 LT OR ISZERO PUSH2 0x17D JUMPI PUSH2 0x17D PUSH2 0x113 JUMP JUMPDEST PUSH1 0x40 MSTORE DUP2 DUP2 MSTORE DUP4 DUP3 ADD PUSH1 0x20 ADD DUP6 LT ISZERO PUSH2 0x194 JUMPI PUSH0 DUP1 REVERT JUMPDEST DUP2 PUSH1 0x20 DUP6 ADD PUSH1 0x20 DUP4 ADD MCOPY PUSH0 SWAP2 DUP2 ADD PUSH1 0x20 ADD SWAP2 SWAP1 SWAP2 MSTORE SWAP4 SWAP3 POP POP POP JUMP JUMPDEST DUP1 MLOAD PUSH2 0xFFFF DUP2 AND DUP2 EQ PUSH2 0x1C1 JUMPI PUSH0 DUP1 REVERT JUMPDEST SWAP2 SWAP1 POP JUMP JUMPDEST DUP1 MLOAD PUSH1 0x1 PUSH1 0x1 PUSH1 0xA0 SHL SUB DUP2 AND DUP2 EQ PUSH2 0x1C1 JUMPI PUSH0 DUP1 REVERT JUMPDEST PUSH0 DUP1 PUSH0 DUP1 PUSH0 DUP1 PUSH0 PUSH1 0xE0 DUP9 DUP11 SUB SLT ISZERO PUSH2 0x1F2 JUMPI PUSH0 DUP1 REVERT JUMPDEST DUP8 MLOAD PUSH1 0x1 PUSH1 0x1 PUSH1 0x40 SHL SUB DUP2 GT ISZERO PUSH2 0x207 JUMPI PUSH0 DUP1 REVERT JUMPDEST PUSH2 0x213 DUP11 DUP3 DUP12 ADD PUSH2 0x127 JUMP JUMPDEST PUSH1 0x20 DUP11 ADD MLOAD SWAP1 SWAP9 POP SWAP1 POP PUSH1 0x1 PUSH1 0x1 PUSH1 0x40 SHL SUB DUP2 GT ISZERO PUSH2 0x230 JUMPI PUSH0 DUP1 REVERT JUMPDEST PUSH2 0x23C DUP11 DUP3 DUP12 ADD PUSH2 0x127 JUMP JUMPDEST PUSH1 0x40 DUP11 ADD MLOAD SWAP1 SWAP8 POP SWAP1 POP PUSH1 0x1 PUSH1 0x1 PUSH1 0x40 SHL SUB DUP2 GT ISZERO PUSH2 0x259 JUMPI PUSH0 DUP1 REVERT JUMPDEST PUSH2 0x265 DUP11 DUP3 DUP12 ADD PUSH2 0x127 JUMP JUMPDEST SWAP6 POP POP PUSH2 0x274 PUSH1 0x60 DUP10 ADD PUSH2 0x1B0 JUMP JUMPDEST SWAP4 POP PUSH2 0x282 PUSH1 0x80 DUP10 ADD PUSH2 0x1B0 JUMP JUMPDEST SWAP3 POP PUSH2 0x290 PUSH1 0xA0 DUP10 ADD PUSH2 0x1C6 JUMP JUMPDEST SWAP2 POP PUSH2 0x29E PUSH1 0xC0 DUP10 ADD PUSH2 0x1C6 JUMP JUMPDEST SWAP1 POP SWAP3 SWAP6 SWAP9 SWAP2 SWAP5 SWAP8 POP SWAP3 SWAP6 POP JUMP JUMPDEST PUSH1 0x1 DUP2 DUP2 SHR SWAP1 DUP3 AND DUP1 PUSH2 0x2C0 JUMPI PUSH1 0x7F DUP3 AND SWAP2 POP JUMPDEST PUSH1 0x20 DUP3 LT DUP2 SUB PUSH2 0x2DE JUMPI PUSH4 0x4E487B71 PUSH1 0xE0 SHL PUSH0 MSTORE PUSH1 0x22 PUSH1 0x4 MSTORE PUSH1 0x24 PUSH0 REVERT JUMPDEST POP SWAP2 SWAP1 POP JUMP JUMPDEST PUSH1 0x1F DUP3 GT ISZERO PUSH2 0x32B JUMPI DUP1 PUSH0 MSTORE PUSH1 0x20 PUSH0 KECCAK256 PUSH1 0x1F DUP5 ADD PUSH1 0x5 SHR DUP2 ADD PUSH1 0x20 DUP6 LT ISZERO PUSH2 0x309 JUMPI POP DUP1 JUMPDEST PUSH1 0x1F DUP5 ADD PUSH1 0x5 SHR DUP3 ADD SWAP2 POP JUMPDEST DUP2 DUP2 LT ISZERO PUSH2 0x328 JUMPI PUSH0 DUP2 SSTORE PUSH1 0x1 ADD PUSH2 0x315 JUMP JUMPDEST POP POP JUMPDEST POP POP POP JUMP JUMPDEST DUP2 MLOAD PUSH1 0x1 PUSH1 0x1 PUSH1 0x40 SHL SUB DUP2 GT ISZERO PUSH2 0x349 JUMPI PUSH2 0x349 PUSH2 0x113 JUMP JUMPDEST PUSH2 0x35D DUP2 PUSH2 0x357 DUP5 SLOAD PUSH2 0x2AC JUMP JUMPDEST DUP5 PUSH2 0x2E4 JUMP JUMPDEST PUSH1 0x20 PUSH1 0x1F DUP3 GT PUSH1 0x1 DUP2 EQ PUSH2 0x38F JUMPI PUSH0 DUP4 ISZERO PUSH2 0x378 JUMPI POP DUP5 DUP3 ADD MLOAD JUMPDEST PUSH0 NOT PUSH1 0x3 DUP6 SWAP1 SHL SHR NOT AND PUSH1 0x1 DUP5 SWAP1 SHL OR DUP5 SSTORE PUSH2 0x328 JUMP JUMPDEST PUSH0 DUP5 DUP2 MSTORE PUSH1 0x20 DUP2 KECCAK256 PUSH1 0x1F NOT DUP6 AND SWAP2 JUMPDEST DUP3 DUP2 LT ISZERO PUSH2 0x3BE JUMPI DUP8 DUP6 ADD MLOAD DUP3 SSTORE PUSH1 0x20 SWAP5 DUP6 ADD SWAP5 PUSH1 0x1 SWAP1 SWAP3 ADD SWAP2 ADD PUSH2 0x39E JUMP JUMPDEST POP DUP5 DUP3 LT ISZERO PUSH2 0x3DB JUMPI DUP7 DUP5 ADD MLOAD PUSH0 NOT PUSH1 0x3 DUP8 SWAP1 SHL PUSH1 0xF8 AND SHR NOT AND DUP2 SSTORE JUMPDEST POP POP POP POP PUSH1 0x1 SWAP1 DUP2 SHL ADD SWAP1 SSTORE POP JUMP JUMPDEST PUSH4 0x4E487B71 PUSH1 0xE0 SHL PUSH0 MSTORE PUSH1 0x21 PUSH1 0x4 MSTORE PUSH1 0x24 PUSH0 REVERT JUMPDEST PUSH2 0x12D4 DUP1 PUSH2 0x40B PUSH0 CODECOPY PUSH0 RETURN INVALID PUSH1 0x80 PUSH1 0x40 MSTORE CALLVALUE DUP1 ISZERO PUSH2 0xF JUMPI PUSH0 DUP1 REVERT JUMPDEST POP PUSH1 0x4 CALLDATASIZE LT PUSH2 0xF0 JUMPI PUSH0 CALLDATALOAD PUSH1 0xE0 SHR DUP1 PUSH4 0x80F76021 GT PUSH2 0x93 JUMPI DUP1 PUSH4 0xC40DA770 GT PUSH2 0x63 JUMPI DUP1 PUSH4 0xC40DA770 EQ PUSH2 0x1E1 JUMPI DUP1 PUSH4 0xC47F0027 EQ PUSH2 0x1F4 JUMPI DUP1 PUSH4 0xDED92DAC EQ PUSH2 0x207 JUMPI DUP1 PUSH4 0xEFD8AF9F EQ PUSH2 0x21A JUMPI PUSH0 DUP1 REVERT JUMPDEST DUP1 PUSH4 0x80F76021 EQ PUSH2 0x18B JUMPI DUP1 PUSH4 0xA95264D0 EQ PUSH2 0x1AB JUMPI DUP1 PUSH4 0xB9DAF3E2 EQ PUSH2 0x1C0 JUMPI DUP1 PUSH4 0xBA379E86 EQ PUSH2 0x1C8 JUMPI PUSH0 DUP1 REVERT JUMPDEST DUP1 PUSH4 0x40AA5C71 GT PUSH2 0xCE JUMPI DUP1 PUSH4 0x40AA5C71 EQ PUSH2 0x13A JUMPI DUP1 PUSH4 0x478E5CB3 EQ PUSH2 0x14D JUMPI DUP1 PUSH4 0x4BA83374 EQ PUSH2 0x160 JUMPI DUP1 PUSH4 0x5DA6EF8D EQ PUSH2 0x178 JUMPI PUSH0 DUP1 REVERT JUMPDEST DUP1 PUSH4 0xDBEF92C EQ PUSH2 0xF4 JUMPI DUP1 PUSH4 0x1499C592 EQ PUSH2 0x109 JUMPI DUP1 PUSH4 0x2858D3C8 EQ PUSH2 0x11C JUMPI JUMPDEST PUSH0 DUP1 REVERT JUMPDEST PUSH2 0x107 PUSH2 0x102 CALLDATASIZE PUSH1 0x4 PUSH2 0xE7C JUMP JUMPDEST PUSH2 0x22D JUMP JUMPDEST STOP JUMPDEST PUSH2 0x107 PUSH2 0x117 CALLDATASIZE PUSH1 0x4 PUSH2 0xEB6 JUMP JUMPDEST PUSH2 0x2AB JUMP JUMPDEST PUSH2 0x124 PUSH2 0x327 JUMP JUMPDEST PUSH1 0x40 MLOAD PUSH2 0x131 SWAP2 SWAP1 PUSH2 0xEE3 JUMP JUMPDEST PUSH1 0x40 MLOAD DUP1 SWAP2 SUB SWAP1 RETURN JUMPDEST PUSH2 0x107 PUSH2 0x148 CALLDATASIZE PUSH1 0x4 PUSH2 0xF1F JUMP JUMPDEST PUSH2 0x377 JUMP JUMPDEST PUSH2 0x107 PUSH2 0x15B CALLDATASIZE PUSH1 0x4 PUSH2 0xF38 JUMP JUMPDEST PUSH2 0x3E9 JUMP JUMPDEST PUSH2 0x168 PUSH2 0x499 JUMP JUMPDEST PUSH1 0x40 MLOAD SWAP1 ISZERO ISZERO DUP2 MSTORE PUSH1 0x20 ADD PUSH2 0x131 JUMP JUMPDEST PUSH2 0x107 PUSH2 0x186 CALLDATASIZE PUSH1 0x4 PUSH2 0xEB6 JUMP JUMPDEST PUSH2 0x505 JUMP JUMPDEST PUSH2 0x193 PUSH2 0x668 JUMP JUMPDEST PUSH1 0x40 MLOAD PUSH1 0x1 PUSH1 0x1 PUSH1 0xA0 SHL SUB SWAP1 SWAP2 AND DUP2 MSTORE PUSH1 0x20 ADD PUSH2 0x131 JUMP JUMPDEST PUSH2 0x1B3 PUSH2 0x6BE JUMP JUMPDEST PUSH1 0x40 MLOAD PUSH2 0x131 SWAP2 SWAP1 PUSH2 0xFE7 JUMP JUMPDEST PUSH2 0x168 PUSH2 0x763 JUMP JUMPDEST PUSH2 0x1D0 PUSH2 0x792 JUMP JUMPDEST PUSH1 0x40 MLOAD PUSH2 0x131 SWAP6 SWAP5 SWAP4 SWAP3 SWAP2 SWAP1 PUSH2 0x1060 JUMP JUMPDEST PUSH2 0x107 PUSH2 0x1EF CALLDATASIZE PUSH1 0x4 PUSH2 0xF1F JUMP JUMPDEST PUSH2 0xA2F JUMP JUMPDEST PUSH2 0x107 PUSH2 0x202 CALLDATASIZE PUSH1 0x4 PUSH2 0xE7C JUMP JUMPDEST PUSH2 0xAA8 JUMP JUMPDEST PUSH2 0x107 PUSH2 0x215 CALLDATASIZE PUSH1 0x4 PUSH2 0xEB6 JUMP JUMPDEST PUSH2 0xAF7 JUMP JUMPDEST PUSH2 0x107 PUSH2 0x228 CALLDATASIZE PUSH1 0x4 PUSH2 0xE7C JUMP JUMPDEST PUSH2 0xC2A JUMP JUMPDEST PUSH1 0x1 SLOAD PUSH2 0x100 SWAP1 DIV PUSH1 0x1 PUSH1 0x1 PUSH1 0xA0 SHL SUB AND CALLER EQ DUP1 PUSH2 0x255 JUMPI POP PUSH1 0x2 SLOAD PUSH1 0x1 PUSH1 0x1 PUSH1 0xA0 SHL SUB AND CALLER EQ JUMPDEST PUSH2 0x27A JUMPI PUSH1 0x40 MLOAD PUSH3 0x461BCD PUSH1 0xE5 SHL DUP2 MSTORE PUSH1 0x4 ADD PUSH2 0x271 SWAP1 PUSH2 0x10B9 JUMP JUMPDEST PUSH1 0x40 MLOAD DUP1 SWAP2 SUB SWAP1 REVERT JUMPDEST PUSH1 0x5 PUSH2 0x286 DUP3 DUP3 PUSH2 0x1161 JUMP JUMPDEST POP PUSH1 0x40 MLOAD CALLER DUP2 MSTORE PUSH0 DUP1 MLOAD PUSH1 0x20 PUSH2 0x127F DUP4 CODECOPY DUP2 MLOAD SWAP2 MSTORE SWAP1 PUSH1 0x20 ADD JUMPDEST PUSH1 0x40 MLOAD DUP1 SWAP2 SUB SWAP1 LOG1 POP JUMP JUMPDEST PUSH1 0x1 SLOAD PUSH2 0x100 SWAP1 DIV PUSH1 0x1 PUSH1 0x1 PUSH1 0xA0 SHL SUB AND CALLER EQ DUP1 PUSH2 0x2D3 JUMPI POP PUSH1 0x2 SLOAD PUSH1 0x1 PUSH1 0x1 PUSH1 0xA0 SHL SUB AND CALLER EQ JUMPDEST PUSH2 0x2EF JUMPI PUSH1 0x40 MLOAD PUSH3 0x461BCD PUSH1 0xE5 SHL DUP2 MSTORE PUSH1 0x4 ADD PUSH2 0x271 SWAP1 PUSH2 0x10B9 JUMP JUMPDEST PUSH1 0x2 DUP1 SLOAD PUSH1 0x1 PUSH1 0x1 PUSH1 0xA0 SHL SUB NOT AND PUSH1 0x1 PUSH1 0x1 PUSH1 0xA0 SHL SUB DUP4 AND OR SWAP1 SSTORE PUSH1 0x40 MLOAD CALLER DUP2 MSTORE PUSH0 DUP1 MLOAD PUSH1 0x20 PUSH2 0x127F DUP4 CODECOPY DUP2 MLOAD SWAP2 MSTORE SWAP1 PUSH1 0x20 ADD PUSH2 0x2A0 JUMP JUMPDEST PUSH1 0x1 SLOAD PUSH0 SWAP1 PUSH2 0x100 SWAP1 DIV PUSH1 0x1 PUSH1 0x1 PUSH1 0xA0 SHL SUB AND CALLER EQ DUP1 PUSH2 0x351 JUMPI POP PUSH1 0x2 SLOAD PUSH1 0x1 PUSH1 0x1 PUSH1 0xA0 SHL SUB AND CALLER EQ JUMPDEST PUSH2 0x36D JUMPI PUSH1 0x40 MLOAD PUSH3 0x461BCD PUSH1 0xE5 SHL DUP2 MSTORE PUSH1 0x4 ADD PUSH2 0x271 SWAP1 PUSH2 0x10B9 JUMP JUMPDEST POP PUSH1 0x1 SLOAD PUSH1 0xFF AND SWAP1 JUMP JUMPDEST PUSH1 0x1 SLOAD PUSH2 0x100 SWAP1 DIV PUSH1 0x1 PUSH1 0x1 PUSH1 0xA0 SHL SUB AND CALLER EQ DUP1 PUSH2 0x39F JUMPI POP PUSH1 0x2 SLOAD PUSH1 0x1 PUSH1 0x1 PUSH1 0xA0 SHL SUB AND CALLER EQ JUMPDEST PUSH2 0x3BB JUMPI PUSH1 0x40 MLOAD PUSH3 0x461BCD PUSH1 0xE5 SHL DUP2 MSTORE PUSH1 0x4 ADD PUSH2 0x271 SWAP1 PUSH2 0x10B9 JUMP JUMPDEST PUSH1 0x6 DUP1 SLOAD PUSH2 0xFFFF NOT AND PUSH2 0xFFFF DUP4 AND OR SWAP1 SSTORE PUSH1 0x40 MLOAD CALLER DUP2 MSTORE PUSH0 DUP1 MLOAD PUSH1 0x20 PUSH2 0x127F DUP4 CODECOPY DUP2 MLOAD SWAP2 MSTORE SWAP1 PUSH1 0x20 ADD PUSH2 0x2A0 JUMP JUMPDEST PUSH1 0x1 SLOAD PUSH2 0x100 SWAP1 DIV PUSH1 0x1 PUSH1 0x1 PUSH1 0xA0 SHL SUB AND CALLER EQ DUP1 PUSH2 0x411 JUMPI POP PUSH1 0x2 SLOAD PUSH1 0x1 PUSH1 0x1 PUSH1 0xA0 SHL SUB AND CALLER EQ JUMPDEST PUSH2 0x42D JUMPI PUSH1 0x40 MLOAD PUSH3 0x461BCD PUSH1 0xE5 SHL DUP2 MSTORE PUSH1 0x4 ADD PUSH2 0x271 SWAP1 PUSH2 0x10B9 JUMP JUMPDEST PUSH0 PUSH2 0x438 DUP7 DUP3 PUSH2 0x1161 JUMP JUMPDEST POP PUSH1 0x4 PUSH2 0x445 DUP6 DUP3 PUSH2 0x1161 JUMP JUMPDEST POP PUSH1 0x5 PUSH2 0x452 DUP5 DUP3 PUSH2 0x1161 JUMP JUMPDEST POP PUSH1 0x6 DUP1 SLOAD PUSH2 0xFFFF DUP4 DUP2 AND PUSH3 0x10000 MUL PUSH4 0xFFFFFFFF NOT SWAP1 SWAP3 AND SWAP1 DUP6 AND OR OR SWAP1 SSTORE PUSH1 0x40 MLOAD CALLER DUP2 MSTORE PUSH0 DUP1 MLOAD PUSH1 0x20 PUSH2 0x127F DUP4 CODECOPY DUP2 MLOAD SWAP2 MSTORE SWAP1 PUSH1 0x20 ADD PUSH1 0x40 MLOAD DUP1 SWAP2 SUB SWAP1 LOG1 POP POP POP POP POP JUMP JUMPDEST PUSH0 PUSH2 0x4FC CALLER PUSH1 0x3 DUP1 SLOAD DUP1 PUSH1 0x20 MUL PUSH1 0x20 ADD PUSH1 0x40 MLOAD SWAP1 DUP2 ADD PUSH1 0x40 MSTORE DUP1 SWAP3 SWAP2 SWAP1 DUP2 DUP2 MSTORE PUSH1 0x20 ADD DUP3 DUP1 SLOAD DUP1 ISZERO PUSH2 0x4F2 JUMPI PUSH1 0x20 MUL DUP3 ADD SWAP2 SWAP1 PUSH0 MSTORE PUSH1 0x20 PUSH0 KECCAK256 SWAP1 JUMPDEST DUP2 SLOAD PUSH1 0x1 PUSH1 0x1 PUSH1 0xA0 SHL SUB AND DUP2 MSTORE PUSH1 0x1 SWAP1 SWAP2 ADD SWAP1 PUSH1 0x20 ADD DUP1 DUP4 GT PUSH2 0x4D4 JUMPI JUMPDEST POP POP POP POP POP PUSH2 0xC7A JUMP JUMPDEST PUSH0 NOT EQ ISZERO SWAP1 POP SWAP1 JUMP JUMPDEST PUSH1 0x1 SLOAD PUSH2 0x100 SWAP1 DIV PUSH1 0x1 PUSH1 0x1 PUSH1 0xA0 SHL SUB AND CALLER EQ DUP1 PUSH2 0x52D JUMPI POP PUSH1 0x2 SLOAD PUSH1 0x1 PUSH1 0x1 PUSH1 0xA0 SHL SUB AND CALLER EQ JUMPDEST PUSH2 0x549 JUMPI PUSH1 0x40 MLOAD PUSH3 0x461BCD PUSH1 0xE5 SHL DUP2 MSTORE PUSH1 0x4 ADD PUSH2 0x271 SWAP1 PUSH2 0x10B9 JUMP JUMPDEST PUSH1 0x1 SLOAD PUSH1 0x1 PUSH1 0x1 PUSH1 0xA0 SHL SUB DUP3 DUP2 AND PUSH2 0x100 SWAP1 SWAP3 DIV AND EQ DUP1 ISZERO SWAP1 PUSH2 0x574 JUMPI POP PUSH1 0x1 PUSH1 0x1 PUSH1 0xA0 SHL SUB DUP2 AND ISZERO ISZERO JUMPDEST DUP1 ISZERO PUSH2 0x5DF JUMPI POP PUSH2 0x5DB DUP2 PUSH1 0x3 DUP1 SLOAD DUP1 PUSH1 0x20 MUL PUSH1 0x20 ADD PUSH1 0x40 MLOAD SWAP1 DUP2 ADD PUSH1 0x40 MSTORE DUP1 SWAP3 SWAP2 SWAP1 DUP2 DUP2 MSTORE PUSH1 0x20 ADD DUP3 DUP1 SLOAD DUP1 ISZERO PUSH2 0x4F2 JUMPI PUSH1 0x20 MUL DUP3 ADD SWAP2 SWAP1 PUSH0 MSTORE PUSH1 0x20 PUSH0 KECCAK256 SWAP1 DUP2 SLOAD PUSH1 0x1 PUSH1 0x1 PUSH1 0xA0 SHL SUB AND DUP2 MSTORE PUSH1 0x1 SWAP1 SWAP2 ADD SWAP1 PUSH1 0x20 ADD DUP1 DUP4 GT PUSH2 0x4D4 JUMPI POP POP POP POP POP PUSH2 0xC7A JUMP JUMPDEST PUSH0 NOT EQ JUMPDEST PUSH2 0x617 JUMPI PUSH1 0x40 MLOAD PUSH3 0x461BCD PUSH1 0xE5 SHL DUP2 MSTORE PUSH1 0x20 PUSH1 0x4 DUP3 ADD MSTORE PUSH1 0x9 PUSH1 0x24 DUP3 ADD MSTORE PUSH9 0x2337B93134B23232B7 PUSH1 0xB9 SHL PUSH1 0x44 DUP3 ADD MSTORE PUSH1 0x64 ADD PUSH2 0x271 JUMP JUMPDEST PUSH1 0x3 DUP1 SLOAD PUSH1 0x1 DUP2 ADD DUP3 SSTORE PUSH0 SWAP2 SWAP1 SWAP2 MSTORE PUSH32 0xC2575A0E9E593C00F959F8C92F12DB2869C3395A3B0502D05E2516446F71F85B ADD DUP1 SLOAD PUSH1 0x1 PUSH1 0x1 PUSH1 0xA0 SHL SUB NOT AND PUSH1 0x1 PUSH1 0x1 PUSH1 0xA0 SHL SUB SWAP3 SWAP1 SWAP3 AND SWAP2 SWAP1 SWAP2 OR SWAP1 SSTORE JUMP JUMPDEST PUSH1 0x1 SLOAD PUSH0 SWAP1 PUSH2 0x100 SWAP1 DIV PUSH1 0x1 PUSH1 0x1 PUSH1 0xA0 SHL SUB AND CALLER EQ DUP1 PUSH2 0x692 JUMPI POP PUSH1 0x2 SLOAD PUSH1 0x1 PUSH1 0x1 PUSH1 0xA0 SHL SUB AND CALLER EQ JUMPDEST PUSH2 0x6AE JUMPI PUSH1 0x40 MLOAD PUSH3 0x461BCD PUSH1 0xE5 SHL DUP2 MSTORE PUSH1 0x4 ADD PUSH2 0x271 SWAP1 PUSH2 0x10B9 JUMP JUMPDEST POP PUSH1 0x2 SLOAD PUSH1 0x1 PUSH1 0x1 PUSH1 0xA0 SHL SUB AND SWAP1 JUMP JUMPDEST PUSH1 0x1 SLOAD PUSH1 0x60 SWAP1 PUSH2 0x100 SWAP1 DIV PUSH1 0x1 PUSH1 0x1 PUSH1 0xA0 SHL SUB AND CALLER EQ DUP1 PUSH2 0x6E9 JUMPI POP PUSH1 0x2 SLOAD PUSH1 0x1 PUSH1 0x1 PUSH1 0xA0 SHL SUB AND CALLER EQ JUMPDEST PUSH2 0x705 JUMPI PUSH1 0x40 MLOAD PUSH3 0x461BCD PUSH1 0xE5 SHL DUP2 MSTORE PUSH1 0x4 ADD PUSH2 0x271 SWAP1 PUSH2 0x10B9 JUMP JUMPDEST PUSH1 0x3 DUP1 SLOAD DUP1 PUSH1 0x20 MUL PUSH1 0x20 ADD PUSH1 0x40 MLOAD SWAP1 DUP2 ADD PUSH1 0x40 MSTORE DUP1 SWAP3 SWAP2 SWAP1 DUP2 DUP2 MSTORE PUSH1 0x20 ADD DUP3 DUP1 SLOAD DUP1 ISZERO PUSH2 0x759 JUMPI PUSH1 0x20 MUL DUP3 ADD SWAP2 SWAP1 PUSH0 MSTORE PUSH1 0x20 PUSH0 KECCAK256 SWAP1 JUMPDEST DUP2 SLOAD PUSH1 0x1 PUSH1 0x1 PUSH1 0xA0 SHL SUB AND DUP2 MSTORE PUSH1 0x1 SWAP1 SWAP2 ADD SWAP1 PUSH1 0x20 ADD DUP1 DUP4 GT PUSH2 0x73B JUMPI JUMPDEST POP POP POP POP POP SWAP1 POP SWAP1 JUMP JUMPDEST PUSH1 0x1 SLOAD PUSH0 SWAP1 PUSH2 0x100 SWAP1 DIV PUSH1 0x1 PUSH1 0x1 PUSH1 0xA0 SHL SUB AND CALLER EQ DUP1 PUSH2 0x78D JUMPI POP PUSH1 0x2 SLOAD PUSH1 0x1 PUSH1 0x1 PUSH1 0xA0 SHL SUB AND CALLER EQ JUMPDEST SWAP1 POP SWAP1 JUMP JUMPDEST PUSH1 0x60 DUP1 PUSH1 0x60 PUSH0 DUP1 PUSH1 0x1 DUP1 SLOAD SWAP1 PUSH2 0x100 EXP SWAP1 DIV PUSH1 0x1 PUSH1 0x1 PUSH1 0xA0 SHL SUB AND PUSH1 0x1 PUSH1 0x1 PUSH1 0xA0 SHL SUB AND CALLER PUSH1 0x1 PUSH1 0x1 PUSH1 0xA0 SHL SUB AND EQ DUP1 PUSH2 0x82C JUMPI POP PUSH2 0x827 CALLER PUSH1 0x3 DUP1 SLOAD DUP1 PUSH1 0x20 MUL PUSH1 0x20 ADD PUSH1 0x40 MLOAD SWAP1 DUP2 ADD PUSH1 0x40 MSTORE DUP1 SWAP3 SWAP2 SWAP1 DUP2 DUP2 MSTORE PUSH1 0x20 ADD DUP3 DUP1 SLOAD DUP1 ISZERO PUSH2 0x4F2 JUMPI PUSH1 0x20 MUL DUP3 ADD SWAP2 SWAP1 PUSH0 MSTORE PUSH1 0x20 PUSH0 KECCAK256 SWAP1 DUP2 SLOAD PUSH1 0x1 PUSH1 0x1 PUSH1 0xA0 SHL SUB AND DUP2 MSTORE PUSH1 0x1 SWAP1 SWAP2 ADD SWAP1 PUSH1 0x20 ADD DUP1 DUP4 GT PUSH2 0x4D4 JUMPI POP POP POP POP POP PUSH2 0xC7A JUMP JUMPDEST PUSH0 NOT EQ ISZERO JUMPDEST PUSH2 0x863 JUMPI PUSH1 0x40 MLOAD PUSH3 0x461BCD PUSH1 0xE5 SHL DUP2 MSTORE PUSH1 0x20 PUSH1 0x4 DUP3 ADD MSTORE PUSH1 0x8 PUSH1 0x24 DUP3 ADD MSTORE PUSH8 0x14995CDD1C9A58DD PUSH1 0xC2 SHL PUSH1 0x44 DUP3 ADD MSTORE PUSH1 0x64 ADD PUSH2 0x271 JUMP JUMPDEST PUSH1 0x6 SLOAD PUSH0 DUP1 SLOAD SWAP1 SWAP2 PUSH1 0x4 SWAP2 PUSH1 0x5 SWAP2 PUSH2 0xFFFF DUP1 DUP3 AND SWAP3 PUSH3 0x10000 SWAP1 SWAP3 DIV AND SWAP1 DUP6 SWAP1 PUSH2 0x88C SWAP1 PUSH2 0x10DD JUMP JUMPDEST DUP1 PUSH1 0x1F ADD PUSH1 0x20 DUP1 SWAP2 DIV MUL PUSH1 0x20 ADD PUSH1 0x40 MLOAD SWAP1 DUP2 ADD PUSH1 0x40 MSTORE DUP1 SWAP3 SWAP2 SWAP1 DUP2 DUP2 MSTORE PUSH1 0x20 ADD DUP3 DUP1 SLOAD PUSH2 0x8B8 SWAP1 PUSH2 0x10DD JUMP JUMPDEST DUP1 ISZERO PUSH2 0x903 JUMPI DUP1 PUSH1 0x1F LT PUSH2 0x8DA JUMPI PUSH2 0x100 DUP1 DUP4 SLOAD DIV MUL DUP4 MSTORE SWAP2 PUSH1 0x20 ADD SWAP2 PUSH2 0x903 JUMP JUMPDEST DUP3 ADD SWAP2 SWAP1 PUSH0 MSTORE PUSH1 0x20 PUSH0 KECCAK256 SWAP1 JUMPDEST DUP2 SLOAD DUP2 MSTORE SWAP1 PUSH1 0x1 ADD SWAP1 PUSH1 0x20 ADD DUP1 DUP4 GT PUSH2 0x8E6 JUMPI DUP3 SWAP1 SUB PUSH1 0x1F AND DUP3 ADD SWAP2 JUMPDEST POP POP POP POP POP SWAP5 POP DUP4 DUP1 SLOAD PUSH2 0x916 SWAP1 PUSH2 0x10DD JUMP JUMPDEST DUP1 PUSH1 0x1F ADD PUSH1 0x20 DUP1 SWAP2 DIV MUL PUSH1 0x20 ADD PUSH1 0x40 MLOAD SWAP1 DUP2 ADD PUSH1 0x40 MSTORE DUP1 SWAP3 SWAP2 SWAP1 DUP2 DUP2 MSTORE PUSH1 0x20 ADD DUP3 DUP1 SLOAD PUSH2 0x942 SWAP1 PUSH2 0x10DD JUMP JUMPDEST DUP1 ISZERO PUSH2 0x98D JUMPI DUP1 PUSH1 0x1F LT PUSH2 0x964 JUMPI PUSH2 0x100 DUP1 DUP4 SLOAD DIV MUL DUP4 MSTORE SWAP2 PUSH1 0x20 ADD SWAP2 PUSH2 0x98D JUMP JUMPDEST DUP3 ADD SWAP2 SWAP1 PUSH0 MSTORE PUSH1 0x20 PUSH0 KECCAK256 SWAP1 JUMPDEST DUP2 SLOAD DUP2 MSTORE SWAP1 PUSH1 0x1 ADD SWAP1 PUSH1 0x20 ADD DUP1 DUP4 GT PUSH2 0x970 JUMPI DUP3 SWAP1 SUB PUSH1 0x1F AND DUP3 ADD SWAP2 JUMPDEST POP POP POP POP POP SWAP4 POP DUP3 DUP1 SLOAD PUSH2 0x9A0 SWAP1 PUSH2 0x10DD JUMP JUMPDEST DUP1 PUSH1 0x1F ADD PUSH1 0x20 DUP1 SWAP2 DIV MUL PUSH1 0x20 ADD PUSH1 0x40 MLOAD SWAP1 DUP2 ADD PUSH1 0x40 MSTORE DUP1 SWAP3 SWAP2 SWAP1 DUP2 DUP2 MSTORE PUSH1 0x20 ADD DUP3 DUP1 SLOAD PUSH2 0x9CC SWAP1 PUSH2 0x10DD JUMP JUMPDEST DUP1 ISZERO PUSH2 0xA17 JUMPI DUP1 PUSH1 0x1F LT PUSH2 0x9EE JUMPI PUSH2 0x100 DUP1 DUP4 SLOAD DIV MUL DUP4 MSTORE SWAP2 PUSH1 0x20 ADD SWAP2 PUSH2 0xA17 JUMP JUMPDEST DUP3 ADD SWAP2 SWAP1 PUSH0 MSTORE PUSH1 0x20 PUSH0 KECCAK256 SWAP1 JUMPDEST DUP2 SLOAD DUP2 MSTORE SWAP1 PUSH1 0x1 ADD SWAP1 PUSH1 0x20 ADD DUP1 DUP4 GT PUSH2 0x9FA JUMPI DUP3 SWAP1 SUB PUSH1 0x1F AND DUP3 ADD SWAP2 JUMPDEST POP POP POP POP POP SWAP3 POP SWAP5 POP SWAP5 POP SWAP5 POP SWAP5 POP SWAP5 POP SWAP1 SWAP2 SWAP3 SWAP4 SWAP5 JUMP JUMPDEST PUSH1 0x1 SLOAD PUSH2 0x100 SWAP1 DIV PUSH1 0x1 PUSH1 0x1 PUSH1 0xA0 SHL SUB AND CALLER EQ DUP1 PUSH2 0xA57 JUMPI POP PUSH1 0x2 SLOAD PUSH1 0x1 PUSH1 0x1 PUSH1 0xA0 SHL SUB AND CALLER EQ JUMPDEST PUSH2 0xA73 JUMPI PUSH1 0x40 MLOAD PUSH3 0x461BCD PUSH1 0xE5 SHL DUP2 MSTORE PUSH1 0x4 ADD PUSH2 0x271 SWAP1 PUSH2 0x10B9 JUMP JUMPDEST PUSH1 0x6 DUP1 SLOAD PUSH4 0xFFFF0000 NOT AND PUSH3 0x10000 PUSH2 0xFFFF DUP5 AND MUL OR SWAP1 SSTORE PUSH1 0x40 MLOAD CALLER DUP2 MSTORE PUSH0 DUP1 MLOAD PUSH1 0x20 PUSH2 0x127F DUP4 CODECOPY DUP2 MLOAD SWAP2 MSTORE SWAP1 PUSH1 0x20 ADD PUSH2 0x2A0 JUMP JUMPDEST PUSH1 0x1 SLOAD PUSH2 0x100 SWAP1 DIV PUSH1 0x1 PUSH1 0x1 PUSH1 0xA0 SHL SUB AND CALLER EQ DUP1 PUSH2 0xAD0 JUMPI POP PUSH1 0x2 SLOAD PUSH1 0x1 PUSH1 0x1 PUSH1 0xA0 SHL SUB AND CALLER EQ JUMPDEST PUSH2 0xAEC JUMPI PUSH1 0x40 MLOAD PUSH3 0x461BCD PUSH1 0xE5 SHL DUP2 MSTORE PUSH1 0x4 ADD PUSH2 0x271 SWAP1 PUSH2 0x10B9 JUMP JUMPDEST PUSH0 PUSH2 0x286 DUP3 DUP3 PUSH2 0x1161 JUMP JUMPDEST PUSH1 0x1 PUSH1 0x1 PUSH1 0xA0 SHL SUB DUP2 AND ISZERO ISZERO DUP1 PUSH2 0xB44 JUMPI POP PUSH1 0x2 SLOAD PUSH1 0x1 PUSH1 0x1 PUSH1 0xA0 SHL SUB AND CALLER EQ DUP1 PUSH2 0xB31 JUMPI POP PUSH1 0x1 SLOAD PUSH2 0x100 SWAP1 DIV PUSH1 0x1 PUSH1 0x1 PUSH1 0xA0 SHL SUB AND CALLER EQ JUMPDEST DUP1 PUSH2 0xB44 JUMPI POP CALLER PUSH1 0x1 PUSH1 0x1 PUSH1 0xA0 SHL SUB DUP3 AND EQ JUMPDEST PUSH2 0xB7C JUMPI PUSH1 0x40 MLOAD PUSH3 0x461BCD PUSH1 0xE5 SHL DUP2 MSTORE PUSH1 0x20 PUSH1 0x4 DUP3 ADD MSTORE PUSH1 0x9 PUSH1 0x24 DUP3 ADD MSTORE PUSH9 0x2337B93134B23232B7 PUSH1 0xB9 SHL PUSH1 0x44 DUP3 ADD MSTORE PUSH1 0x64 ADD PUSH2 0x271 JUMP JUMPDEST PUSH0 PUSH2 0xBDD DUP3 PUSH1 0x3 DUP1 SLOAD DUP1 PUSH1 0x20 MUL PUSH1 0x20 ADD PUSH1 0x40 MLOAD SWAP1 DUP2 ADD PUSH1 0x40 MSTORE DUP1 SWAP3 SWAP2 SWAP1 DUP2 DUP2 MSTORE PUSH1 0x20 ADD DUP3 DUP1 SLOAD DUP1 ISZERO PUSH2 0x4F2 JUMPI PUSH1 0x20 MUL DUP3 ADD SWAP2 SWAP1 PUSH0 MSTORE PUSH1 0x20 PUSH0 KECCAK256 SWAP1 DUP2 SLOAD PUSH1 0x1 PUSH1 0x1 PUSH1 0xA0 SHL SUB AND DUP2 MSTORE PUSH1 0x1 SWAP1 SWAP2 ADD SWAP1 PUSH1 0x20 ADD DUP1 DUP4 GT PUSH2 0x4D4 JUMPI POP POP POP POP POP PUSH2 0xC7A JUMP JUMPDEST SWAP1 POP PUSH0 NOT DUP2 SGT PUSH2 0xC1B JUMPI PUSH1 0x40 MLOAD PUSH3 0x461BCD PUSH1 0xE5 SHL DUP2 MSTORE PUSH1 0x20 PUSH1 0x4 DUP3 ADD MSTORE PUSH1 0x9 PUSH1 0x24 DUP3 ADD MSTORE PUSH9 0x139BDD08199BDD5B99 PUSH1 0xBA SHL PUSH1 0x44 DUP3 ADD MSTORE PUSH1 0x64 ADD PUSH2 0x271 JUMP JUMPDEST PUSH2 0xC26 DUP2 PUSH1 0x3 PUSH2 0xCD3 JUMP JUMPDEST POP POP JUMP JUMPDEST PUSH1 0x1 SLOAD PUSH2 0x100 SWAP1 DIV PUSH1 0x1 PUSH1 0x1 PUSH1 0xA0 SHL SUB AND CALLER EQ DUP1 PUSH2 0xC52 JUMPI POP PUSH1 0x2 SLOAD PUSH1 0x1 PUSH1 0x1 PUSH1 0xA0 SHL SUB AND CALLER EQ JUMPDEST PUSH2 0xC6E JUMPI PUSH1 0x40 MLOAD PUSH3 0x461BCD PUSH1 0xE5 SHL DUP2 MSTORE PUSH1 0x4 ADD PUSH2 0x271 SWAP1 PUSH2 0x10B9 JUMP JUMPDEST PUSH1 0x4 PUSH2 0x286 DUP3 DUP3 PUSH2 0x1161 JUMP JUMPDEST PUSH0 DUP1 JUMPDEST DUP3 MLOAD DUP2 LT ISZERO PUSH2 0xCC7 JUMPI DUP4 PUSH1 0x1 PUSH1 0x1 PUSH1 0xA0 SHL SUB AND DUP4 DUP3 DUP2 MLOAD DUP2 LT PUSH2 0xCA2 JUMPI PUSH2 0xCA2 PUSH2 0x121C JUMP JUMPDEST PUSH1 0x20 MUL PUSH1 0x20 ADD ADD MLOAD PUSH1 0x1 PUSH1 0x1 PUSH1 0xA0 SHL SUB AND SUB PUSH2 0xCBF JUMPI SWAP1 POP PUSH2 0xCCD JUMP JUMPDEST PUSH1 0x1 ADD PUSH2 0xC7D JUMP JUMPDEST POP PUSH0 NOT SWAP1 POP JUMPDEST SWAP3 SWAP2 POP POP JUMP JUMPDEST PUSH0 DUP3 SLT ISZERO DUP1 ISZERO PUSH2 0xCE3 JUMPI POP DUP1 SLOAD DUP3 LT JUMPDEST PUSH2 0xD18 JUMPI PUSH1 0x40 MLOAD PUSH3 0x461BCD PUSH1 0xE5 SHL DUP2 MSTORE PUSH1 0x20 PUSH1 0x4 DUP3 ADD MSTORE PUSH1 0x6 PUSH1 0x24 DUP3 ADD MSTORE PUSH6 0x9CDE40D2C8F PUSH1 0xD3 SHL PUSH1 0x44 DUP3 ADD MSTORE PUSH1 0x64 ADD PUSH2 0x271 JUMP JUMPDEST DUP2 JUMPDEST DUP2 SLOAD PUSH2 0xD28 SWAP1 PUSH1 0x1 SWAP1 PUSH2 0x1244 JUMP JUMPDEST DUP2 LT ISZERO PUSH2 0xDA8 JUMPI DUP2 PUSH2 0xD3B DUP3 PUSH1 0x1 PUSH2 0x1257 JUMP JUMPDEST DUP2 SLOAD DUP2 LT PUSH2 0xD4B JUMPI PUSH2 0xD4B PUSH2 0x121C JUMP JUMPDEST SWAP1 PUSH0 MSTORE PUSH1 0x20 PUSH0 KECCAK256 ADD PUSH0 SWAP1 SLOAD SWAP1 PUSH2 0x100 EXP SWAP1 DIV PUSH1 0x1 PUSH1 0x1 PUSH1 0xA0 SHL SUB AND DUP3 DUP3 DUP2 SLOAD DUP2 LT PUSH2 0xD78 JUMPI PUSH2 0xD78 PUSH2 0x121C JUMP JUMPDEST PUSH0 SWAP2 DUP3 MSTORE PUSH1 0x20 SWAP1 SWAP2 KECCAK256 ADD DUP1 SLOAD PUSH1 0x1 PUSH1 0x1 PUSH1 0xA0 SHL SUB NOT AND PUSH1 0x1 PUSH1 0x1 PUSH1 0xA0 SHL SUB SWAP3 SWAP1 SWAP3 AND SWAP2 SWAP1 SWAP2 OR SWAP1 SSTORE PUSH1 0x1 ADD PUSH2 0xD1A JUMP JUMPDEST POP DUP1 DUP1 SLOAD DUP1 PUSH2 0xDB9 JUMPI PUSH2 0xDB9 PUSH2 0x126A JUMP JUMPDEST PUSH0 DUP3 DUP2 MSTORE PUSH1 0x20 SWAP1 KECCAK256 DUP2 ADD PUSH0 NOT SWAP1 DUP2 ADD DUP1 SLOAD PUSH1 0x1 PUSH1 0x1 PUSH1 0xA0 SHL SUB NOT AND SWAP1 SSTORE ADD SWAP1 SSTORE POP POP JUMP JUMPDEST PUSH4 0x4E487B71 PUSH1 0xE0 SHL PUSH0 MSTORE PUSH1 0x41 PUSH1 0x4 MSTORE PUSH1 0x24 PUSH0 REVERT JUMPDEST PUSH0 DUP3 PUSH1 0x1F DUP4 ADD SLT PUSH2 0xE00 JUMPI PUSH0 DUP1 REVERT JUMPDEST DUP2 CALLDATALOAD PUSH8 0xFFFFFFFFFFFFFFFF DUP2 GT ISZERO PUSH2 0xE1A JUMPI PUSH2 0xE1A PUSH2 0xDDD JUMP JUMPDEST PUSH1 0x40 MLOAD PUSH1 0x1F DUP3 ADD PUSH1 0x1F NOT SWAP1 DUP2 AND PUSH1 0x3F ADD AND DUP2 ADD PUSH8 0xFFFFFFFFFFFFFFFF DUP2 GT DUP3 DUP3 LT OR ISZERO PUSH2 0xE49 JUMPI PUSH2 0xE49 PUSH2 0xDDD JUMP JUMPDEST PUSH1 0x40 MSTORE DUP2 DUP2 MSTORE DUP4 DUP3 ADD PUSH1 0x20 ADD DUP6 LT ISZERO PUSH2 0xE60 JUMPI PUSH0 DUP1 REVERT JUMPDEST DUP2 PUSH1 0x20 DUP6 ADD PUSH1 0x20 DUP4 ADD CALLDATACOPY PUSH0 SWAP2 DUP2 ADD PUSH1 0x20 ADD SWAP2 SWAP1 SWAP2 MSTORE SWAP4 SWAP3 POP POP POP JUMP JUMPDEST PUSH0 PUSH1 0x20 DUP3 DUP5 SUB SLT ISZERO PUSH2 0xE8C JUMPI PUSH0 DUP1 REVERT JUMPDEST DUP2 CALLDATALOAD PUSH8 0xFFFFFFFFFFFFFFFF DUP2 GT ISZERO PUSH2 0xEA2 JUMPI PUSH0 DUP1 REVERT JUMPDEST PUSH2 0xEAE DUP5 DUP3 DUP6 ADD PUSH2 0xDF1 JUMP JUMPDEST SWAP5 SWAP4 POP POP POP POP JUMP JUMPDEST PUSH0 PUSH1 0x20 DUP3 DUP5 SUB SLT ISZERO PUSH2 0xEC6 JUMPI PUSH0 DUP1 REVERT JUMPDEST DUP2 CALLDATALOAD PUSH1 0x1 PUSH1 0x1 PUSH1 0xA0 SHL SUB DUP2 AND DUP2 EQ PUSH2 0xEDC JUMPI PUSH0 DUP1 REVERT JUMPDEST SWAP4 SWAP3 POP POP POP JUMP JUMPDEST PUSH1 0x20 DUP2 ADD PUSH1 0x3 DUP4 LT PUSH2 0xF03 JUMPI PUSH4 0x4E487B71 PUSH1 0xE0 SHL PUSH0 MSTORE PUSH1 0x21 PUSH1 0x4 MSTORE PUSH1 0x24 PUSH0 REVERT JUMPDEST SWAP2 SWAP1 MSTORE SWAP1 JUMP JUMPDEST DUP1 CALLDATALOAD PUSH2 0xFFFF DUP2 AND DUP2 EQ PUSH2 0xF1A JUMPI PUSH0 DUP1 REVERT JUMPDEST SWAP2 SWAP1 POP JUMP JUMPDEST PUSH0 PUSH1 0x20 DUP3 DUP5 SUB SLT ISZERO PUSH2 0xF2F JUMPI PUSH0 DUP1 REVERT JUMPDEST PUSH2 0xEDC DUP3 PUSH2 0xF09 JUMP JUMPDEST PUSH0 DUP1 PUSH0 DUP1 PUSH0 PUSH1 0xA0 DUP7 DUP9 SUB SLT ISZERO PUSH2 0xF4C JUMPI PUSH0 DUP1 REVERT JUMPDEST DUP6 CALLDATALOAD PUSH8 0xFFFFFFFFFFFFFFFF DUP2 GT ISZERO PUSH2 0xF62 JUMPI PUSH0 DUP1 REVERT JUMPDEST PUSH2 0xF6E DUP9 DUP3 DUP10 ADD PUSH2 0xDF1 JUMP JUMPDEST SWAP6 POP POP PUSH1 0x20 DUP7 ADD CALLDATALOAD PUSH8 0xFFFFFFFFFFFFFFFF DUP2 GT ISZERO PUSH2 0xF8A JUMPI PUSH0 DUP1 REVERT JUMPDEST PUSH2 0xF96 DUP9 DUP3 DUP10 ADD PUSH2 0xDF1 JUMP JUMPDEST SWAP5 POP POP PUSH1 0x40 DUP7 ADD CALLDATALOAD PUSH8 0xFFFFFFFFFFFFFFFF DUP2 GT ISZERO PUSH2 0xFB2 JUMPI PUSH0 DUP1 REVERT JUMPDEST PUSH2 0xFBE DUP9 DUP3 DUP10 ADD PUSH2 0xDF1 JUMP JUMPDEST SWAP4 POP POP PUSH2 0xFCD PUSH1 0x60 DUP8 ADD PUSH2 0xF09 JUMP JUMPDEST SWAP2 POP PUSH2 0xFDB PUSH1 0x80 DUP8 ADD PUSH2 0xF09 JUMP JUMPDEST SWAP1 POP SWAP3 SWAP6 POP SWAP3 SWAP6 SWAP1 SWAP4 POP JUMP JUMPDEST PUSH1 0x20 DUP1 DUP3 MSTORE DUP3 MLOAD DUP3 DUP3 ADD DUP2 SWAP1 MSTORE PUSH0 SWAP2 DUP5 ADD SWAP1 PUSH1 0x40 DUP5 ADD SWAP1 DUP4 JUMPDEST DUP2 DUP2 LT ISZERO PUSH2 0x1027 JUMPI DUP4 MLOAD PUSH1 0x1 PUSH1 0x1 PUSH1 0xA0 SHL SUB AND DUP4 MSTORE PUSH1 0x20 SWAP4 DUP5 ADD SWAP4 SWAP1 SWAP3 ADD SWAP2 PUSH1 0x1 ADD PUSH2 0x1000 JUMP JUMPDEST POP SWAP1 SWAP6 SWAP5 POP POP POP POP POP JUMP JUMPDEST PUSH0 DUP2 MLOAD DUP1 DUP5 MSTORE DUP1 PUSH1 0x20 DUP5 ADD PUSH1 0x20 DUP7 ADD MCOPY PUSH0 PUSH1 0x20 DUP3 DUP7 ADD ADD MSTORE PUSH1 0x20 PUSH1 0x1F NOT PUSH1 0x1F DUP4 ADD AND DUP6 ADD ADD SWAP2 POP POP SWAP3 SWAP2 POP POP JUMP JUMPDEST PUSH1 0xA0 DUP2 MSTORE PUSH0 PUSH2 0x1072 PUSH1 0xA0 DUP4 ADD DUP9 PUSH2 0x1032 JUMP JUMPDEST DUP3 DUP2 SUB PUSH1 0x20 DUP5 ADD MSTORE PUSH2 0x1084 DUP2 DUP9 PUSH2 0x1032 JUMP JUMPDEST SWAP1 POP DUP3 DUP2 SUB PUSH1 0x40 DUP5 ADD MSTORE PUSH2 0x1098 DUP2 DUP8 PUSH2 0x1032 JUMP JUMPDEST SWAP2 POP POP PUSH2 0xFFFF DUP5 AND PUSH1 0x60 DUP4 ADD MSTORE PUSH2 0xFFFF DUP4 AND PUSH1 0x80 DUP4 ADD MSTORE SWAP7 SWAP6 POP POP POP POP POP POP JUMP JUMPDEST PUSH1 0x20 DUP1 DUP3 MSTORE PUSH1 0xA SWAP1 DUP3 ADD MSTORE PUSH10 0x27B7363C9037BBB732B9 PUSH1 0xB1 SHL PUSH1 0x40 DUP3 ADD MSTORE PUSH1 0x60 ADD SWAP1 JUMP JUMPDEST PUSH1 0x1 DUP2 DUP2 SHR SWAP1 DUP3 AND DUP1 PUSH2 0x10F1 JUMPI PUSH1 0x7F DUP3 AND SWAP2 POP JUMPDEST PUSH1 0x20 DUP3 LT DUP2 SUB PUSH2 0x110F JUMPI PUSH4 0x4E487B71 PUSH1 0xE0 SHL PUSH0 MSTORE PUSH1 0x22 PUSH1 0x4 MSTORE PUSH1 0x24 PUSH0 REVERT JUMPDEST POP SWAP2 SWAP1 POP JUMP JUMPDEST PUSH1 0x1F DUP3 GT ISZERO PUSH2 0x115C JUMPI DUP1 PUSH0 MSTORE PUSH1 0x20 PUSH0 KECCAK256 PUSH1 0x1F DUP5 ADD PUSH1 0x5 SHR DUP2 ADD PUSH1 0x20 DUP6 LT ISZERO PUSH2 0x113A JUMPI POP DUP1 JUMPDEST PUSH1 0x1F DUP5 ADD PUSH1 0x5 SHR DUP3 ADD SWAP2 POP JUMPDEST DUP2 DUP2 LT ISZERO PUSH2 0x1159 JUMPI PUSH0 DUP2 SSTORE PUSH1 0x1 ADD PUSH2 0x1146 JUMP JUMPDEST POP POP JUMPDEST POP POP POP JUMP JUMPDEST DUP2 MLOAD PUSH8 0xFFFFFFFFFFFFFFFF DUP2 GT ISZERO PUSH2 0x117B JUMPI PUSH2 0x117B PUSH2 0xDDD JUMP JUMPDEST PUSH2 0x118F DUP2 PUSH2 0x1189 DUP5 SLOAD PUSH2 0x10DD JUMP JUMPDEST DUP5 PUSH2 0x1115 JUMP JUMPDEST PUSH1 0x20 PUSH1 0x1F DUP3 GT PUSH1 0x1 DUP2 EQ PUSH2 0x11C1 JUMPI PUSH0 DUP4 ISZERO PUSH2 0x11AA JUMPI POP DUP5 DUP3 ADD MLOAD JUMPDEST PUSH0 NOT PUSH1 0x3 DUP6 SWAP1 SHL SHR NOT AND PUSH1 0x1 DUP5 SWAP1 SHL OR DUP5 SSTORE PUSH2 0x1159 JUMP JUMPDEST PUSH0 DUP5 DUP2 MSTORE PUSH1 0x20 DUP2 KECCAK256 PUSH1 0x1F NOT DUP6 AND SWAP2 JUMPDEST DUP3 DUP2 LT ISZERO PUSH2 0x11F0 JUMPI DUP8 DUP6 ADD MLOAD DUP3 SSTORE PUSH1 0x20 SWAP5 DUP6 ADD SWAP5 PUSH1 0x1 SWAP1 SWAP3 ADD SWAP2 ADD PUSH2 0x11D0 JUMP JUMPDEST POP DUP5 DUP3 LT ISZERO PUSH2 0x120D JUMPI DUP7 DUP5 ADD MLOAD PUSH0 NOT PUSH1 0x3 DUP8 SWAP1 SHL PUSH1 0xF8 AND SHR NOT AND DUP2 SSTORE JUMPDEST POP POP POP POP PUSH1 0x1 SWAP1 DUP2 SHL ADD SWAP1 SSTORE POP JUMP JUMPDEST PUSH4 0x4E487B71 PUSH1 0xE0 SHL PUSH0 MSTORE PUSH1 0x32 PUSH1 0x4 MSTORE PUSH1 0x24 PUSH0 REVERT JUMPDEST PUSH4 0x4E487B71 PUSH1 0xE0 SHL PUSH0 MSTORE PUSH1 0x11 PUSH1 0x4 MSTORE PUSH1 0x24 PUSH0 REVERT JUMPDEST DUP2 DUP2 SUB DUP2 DUP2 GT ISZERO PUSH2 0xCCD JUMPI PUSH2 0xCCD PUSH2 0x1230 JUMP JUMPDEST DUP1 DUP3 ADD DUP1 DUP3 GT ISZERO PUSH2 0xCCD JUMPI PUSH2 0xCCD PUSH2 0x1230 JUMP JUMPDEST PUSH4 0x4E487B71 PUSH1 0xE0 SHL PUSH0 MSTORE PUSH1 0x31 PUSH1 0x4 MSTORE PUSH1 0x24 PUSH0 REVERT INVALID 0xE0 0xD LOG2 OR DUP9 MOD RETURN PUSH32 0x69815E9ED5ED3072EC1D55206D60916D99B469C7DAA421E4A264697066735822 SLT KECCAK256 0xCA DUP1 0x2E 0xD3 0xCE DUP4 PUSH5 0x584B44AF60 TSTORE DUP10 PUSH7 0xC81FCF899109DE 0x2E PUSH5 0x1B9535ECB6 SMOD 0xD5 BYTE PUSH5 0x736F6C6343 STOP ADDMOD BYTE STOP CALLER "
				},
				"gasEstimates": {
					"creation": {
						"codeDepositCost": "964000",
						"executionCost": "infinite",
						"totalCost": "infinite"
					},
					"external": {
						"expose()": "infinite",
						"getItemType()": "6730",
						"getParent()": "6671",
						"getSharedWith()": "infinite",
						"isOwn()": "4568",
						"isSharedWith()": "infinite",
						"restictFrom(address)": "infinite",
						"setCardId(string)": "infinite",
						"setCvv(uint16)": "infinite",
						"setExpireAt(uint16)": "infinite",
						"setItem(string,string,string,uint16,uint16)": "infinite",
						"setName(string)": "infinite",
						"setNameOnCard(string)": "infinite",
						"setParent(address)": "infinite",
						"shareWith(address)": "infinite"
					}
				},
				"methodIdentifiers": {
					"expose()": "ba379e86",
					"getItemType()": "2858d3c8",
					"getParent()": "80f76021",
					"getSharedWith()": "a95264d0",
					"isOwn()": "b9daf3e2",
					"isSharedWith()": "4ba83374",
					"restictFrom(address)": "ded92dac",
					"setCardId(string)": "efd8af9f",
					"setCvv(uint16)": "c40da770",
					"setExpireAt(uint16)": "40aa5c71",
					"setItem(string,string,string,uint16,uint16)": "478e5cb3",
					"setName(string)": "c47f0027",
					"setNameOnCard(string)": "0dbef92c",
					"setParent(address)": "1499c592",
					"shareWith(address)": "5da6ef8d"
				}
			},
			"storageLayout": {
				"storage": [
					{
						"astId": 242,
						"contract": "Items/DebitCard.sol:DebitCard",
						"label": "name",
						"offset": 0,
						"slot": "0",
						"type": "t_string_storage"
					},
					{
						"astId": 245,
						"contract": "Items/DebitCard.sol:DebitCard",
						"label": "item_type",
						"offset": 0,
						"slot": "1",
						"type": "t_enum(ItemType)517"
					},
					{
						"astId": 247,
						"contract": "Items/DebitCard.sol:DebitCard",
						"label": "owner",
						"offset": 1,
						"slot": "1",
						"type": "t_address"
					},
					{
						"astId": 249,
						"contract": "Items/DebitCard.sol:DebitCard",
						"label": "parent",
						"offset": 0,
						"slot": "2",
						"type": "t_address"
					},
					{
						"astId": 252,
						"contract": "Items/DebitCard.sol:DebitCard",
						"label": "sharedWith",
						"offset": 0,
						"slot": "3",
						"type": "t_array(t_address)dyn_storage"
					},
					{
						"astId": 48,
						"contract": "Items/DebitCard.sol:DebitCard",
						"label": "card_id",
						"offset": 0,
						"slot": "4",
						"type": "t_string_storage"
					},
					{
						"astId": 50,
						"contract": "Items/DebitCard.sol:DebitCard",
						"label": "name_on_card",
						"offset": 0,
						"slot": "5",
						"type": "t_string_storage"
					},
					{
						"astId": 52,
						"contract": "Items/DebitCard.sol:DebitCard",
						"label": "expire_at",
						"offset": 0,
						"slot": "6",
						"type": "t_uint16"
					},
					{
						"astId": 54,
						"contract": "Items/DebitCard.sol:DebitCard",
						"label": "cvv",
						"offset": 2,
						"slot": "6",
						"type": "t_uint16"
					}
				],
				"types": {
					"t_address": {
						"encoding": "inplace",
						"label": "address",
						"numberOfBytes": "20"
					},
					"t_array(t_address)dyn_storage": {
						"base": "t_address",
						"encoding": "dynamic_array",
						"label": "address[]",
						"numberOfBytes": "32"
					},
					"t_enum(ItemType)517": {
						"encoding": "inplace",
						"label": "enum Constants.ItemType",
						"numberOfBytes": "1"
					},
					"t_string_storage": {
						"encoding": "bytes",
						"label": "string",
						"numberOfBytes": "32"
					},
					"t_uint16": {
						"encoding": "inplace",
						"label": "uint16",
						"numberOfBytes": "2"
					}
				}
			},
			"userdoc": {
				"kind": "user",
				"methods": {},
				"version": 1
			}
		}
	}
}