{
	"Items/LoyalityCard.sol": {
		"LoyalityCard": {
			"abi": [
				{
					"inputs": [
						{
							"internalType": "string",
							"name": "_name",
							"type": "string"
						},
						{
							"internalType": "string",
							"name": "_card_id",
							"type": "string"
						},
						{
							"internalType": "address",
							"name": "_owner",
							"type": "address"
						},
						{
							"internalType": "address",
							"name": "_parent",
							"type": "address"
						}
					],
					"stateMutability": "nonpayable",
					"type": "constructor"
				},
				{
					"anonymous": false,
					"inputs": [
						{
							"indexed": false,
							"internalType": "address",
							"name": "",
							"type": "address"
						}
					],
					"name": "Created",
					"type": "event"
				},
				{
					"anonymous": false,
					"inputs": [
						{
							"indexed": false,
							"internalType": "address",
							"name": "",
							"type": "address"
						}
					],
					"name": "Updated",
					"type": "event"
				},
				{
					"inputs": [],
					"name": "expose",
					"outputs": [
						{
							"internalType": "string",
							"name": "",
							"type": "string"
						},
						{
							"internalType": "string",
							"name": "",
							"type": "string"
						}
					],
					"stateMutability": "view",
					"type": "function"
				},
				{
					"inputs": [],
					"name": "getParent",
					"outputs": [
						{
							"internalType": "address",
							"name": "",
							"type": "address"
						}
					],
					"stateMutability": "view",
					"type": "function"
				},
				{
					"inputs": [],
					"name": "getSharedWith",
					"outputs": [
						{
							"internalType": "address[]",
							"name": "",
							"type": "address[]"
						}
					],
					"stateMutability": "view",
					"type": "function"
				},
				{
					"inputs": [],
					"name": "isOwn",
					"outputs": [
						{
							"internalType": "bool",
							"name": "",
							"type": "bool"
						}
					],
					"stateMutability": "view",
					"type": "function"
				},
				{
					"inputs": [],
					"name": "isSharedWith",
					"outputs": [
						{
							"internalType": "bool",
							"name": "",
							"type": "bool"
						}
					],
					"stateMutability": "view",
					"type": "function"
				},
				{
					"inputs": [],
					"name": "item_type",
					"outputs": [
						{
							"internalType": "uint256",
							"name": "",
							"type": "uint256"
						}
					],
					"stateMutability": "view",
					"type": "function"
				},
				{
					"inputs": [
						{
							"internalType": "address",
							"name": "_f",
							"type": "address"
						}
					],
					"name": "restictFrom",
					"outputs": [],
					"stateMutability": "nonpayable",
					"type": "function"
				},
				{
					"inputs": [
						{
							"internalType": "string",
							"name": "_c_id",
							"type": "string"
						}
					],
					"name": "setCardId",
					"outputs": [],
					"stateMutability": "nonpayable",
					"type": "function"
				},
				{
					"inputs": [
						{
							"internalType": "string",
							"name": "_n",
							"type": "string"
						},
						{
							"internalType": "string",
							"name": "_c_id",
							"type": "string"
						}
					],
					"name": "setItem",
					"outputs": [],
					"stateMutability": "nonpayable",
					"type": "function"
				},
				{
					"inputs": [
						{
							"internalType": "string",
							"name": "_n",
							"type": "string"
						}
					],
					"name": "setName",
					"outputs": [],
					"stateMutability": "nonpayable",
					"type": "function"
				},
				{
					"inputs": [
						{
							"internalType": "address",
							"name": "_w",
							"type": "address"
						}
					],
					"name": "shareWith",
					"outputs": [],
					"stateMutability": "nonpayable",
					"type": "function"
				}
			],
			"devdoc": {
				"kind": "dev",
				"methods": {},
				"version": 1
			},
			"evm": {
				"assembly": "    /* \"Items/LoyalityCard.sol\":104:975  contract LoyalityCard is VaultItem{... */\n  mstore(0x40, 0x80)\n    /* \"Items/LoyalityCard.sol\":170:517  constructor(... */\n  callvalue\n  dup1\n  iszero\n  tag_1\n  jumpi\n  0x00\n  dup1\n  revert\ntag_1:\n  pop\n  mload(0x40)\n  sub(codesize, bytecodeSize)\n  dup1\n  bytecodeSize\n  dup4\n  codecopy\n  dup2\n  add\n  0x40\n  dup2\n  swap1\n  mstore\n  tag_2\n  swap2\n  tag_3\n  jump\t// in\ntag_2:\n    /* \"Items/LoyalityCard.sol\":324:325  0 */\n  0x00\n    /* \"Items/VaultItem.sol\":709:718  item_type */\n  0x01\n    /* \"Items/VaultItem.sol\":709:729  item_type = _itm_typ */\n  dup2\n  swap1\n  sstore\n    /* \"Items/LoyalityCard.sol\":336:341  _name */\n  dup5\n    /* \"Items/LoyalityCard.sol\":352:358  _owner */\n  dup4\n    /* \"Items/LoyalityCard.sol\":369:376  _parent */\n  dup4\n    /* \"Items/LoyalityCard.sol\":324:325  0 */\n  dup4\n    /* \"Items/VaultItem.sol\":740:749  name = _n */\n  tag_7\n    /* \"Items/LoyalityCard.sol\":336:341  _name */\n  dup5\n    /* \"Items/LoyalityCard.sol\":324:325  0 */\n  dup3\n    /* \"Items/VaultItem.sol\":740:749  name = _n */\n  tag_8\n  jump\t// in\ntag_7:\n  pop\n    /* \"Items/VaultItem.sol\":762:767  owner */\n  0x02\n    /* \"Items/VaultItem.sol\":762:772  owner = _o */\n  dup1\n  sload\n  sub(shl(0xa0, 0x01), 0x01)\n  swap4\n  dup5\n  and\n  not(sub(shl(0xa0, 0x01), 0x01))\n  swap2\n  dup3\n  and\n  or\n  swap1\n  swap2\n  sstore\n    /* \"Items/VaultItem.sol\":783:789  parent */\n  0x03\n    /* \"Items/VaultItem.sol\":783:794  parent = _p */\n  dup1\n  sload\n  swap3\n  swap1\n  swap4\n  and\n  swap2\n  and\n  or\n  swap1\n  sstore\n  pop\n    /* \"Items/LoyalityCard.sol\":396:403  card_id */\n  0x05\n  swap1\n  pop\n    /* \"Items/LoyalityCard.sol\":396:414  card_id = _card_id */\n  tag_10\n    /* \"Items/LoyalityCard.sol\":406:414  _card_id */\n  dup5\n    /* \"Items/LoyalityCard.sol\":396:403  card_id */\n  dup3\n    /* \"Items/LoyalityCard.sol\":396:414  card_id = _card_id */\n  tag_8\n  jump\t// in\ntag_10:\n  pop\n    /* \"Items/LoyalityCard.sol\":431:436  owner */\n  0x02\n    /* \"Items/LoyalityCard.sol\":431:445  owner = _owner */\n  dup1\n  sload\n  sub(shl(0xa0, 0x01), 0x01)\n  dup5\n  dup2\n  and\n  not(sub(shl(0xa0, 0x01), 0x01))\n  swap3\n  dup4\n  and\n  or\n  swap1\n  swap3\n  sstore\n    /* \"Items/LoyalityCard.sol\":456:462  parent */\n  0x03\n    /* \"Items/LoyalityCard.sol\":456:472  parent = _parent */\n  dup1\n  sload\n  swap3\n  dup5\n  and\n  swap3\n  swap1\n  swap2\n  and\n  swap2\n  swap1\n  swap2\n  or\n  swap1\n  sstore\n    /* \"Items/LoyalityCard.sol\":490:509  Created(msg.sender) */\n  mload(0x40)\n    /* \"Items/LoyalityCard.sol\":498:508  msg.sender */\n  caller\n    /* \"#utility.yul\":4444:4495   */\n  dup2\n  mstore\n    /* \"Items/LoyalityCard.sol\":490:509  Created(msg.sender) */\n  0x1449abf21e49fd025f33495e77f7b1461caefdd3d4bb646424a3f445c4576a5b\n  swap1\n    /* \"#utility.yul\":4432:4434   */\n  0x20\n    /* \"#utility.yul\":4417:4435   */\n  add\n    /* \"Items/LoyalityCard.sol\":490:509  Created(msg.sender) */\n  mload(0x40)\n  dup1\n  swap2\n  sub\n  swap1\n  log1\n    /* \"Items/LoyalityCard.sol\":170:517  constructor(... */\n  pop\n  pop\n  pop\n  pop\n    /* \"Items/LoyalityCard.sol\":104:975  contract LoyalityCard is VaultItem{... */\n  jump(tag_21)\n    /* \"#utility.yul\":14:141   */\ntag_14:\n    /* \"#utility.yul\":75:85   */\n  0x4e487b71\n    /* \"#utility.yul\":70:73   */\n  0xe0\n    /* \"#utility.yul\":66:86   */\n  shl\n    /* \"#utility.yul\":63:64   */\n  0x00\n    /* \"#utility.yul\":56:87   */\n  mstore\n    /* \"#utility.yul\":106:110   */\n  0x41\n    /* \"#utility.yul\":103:104   */\n  0x04\n    /* \"#utility.yul\":96:111   */\n  mstore\n    /* \"#utility.yul\":130:134   */\n  0x24\n    /* \"#utility.yul\":127:128   */\n  0x00\n    /* \"#utility.yul\":120:135   */\n  revert\n    /* \"#utility.yul\":146:869   */\ntag_15:\n    /* \"#utility.yul\":200:205   */\n  0x00\n    /* \"#utility.yul\":253:256   */\n  dup3\n    /* \"#utility.yul\":246:250   */\n  0x1f\n    /* \"#utility.yul\":238:244   */\n  dup4\n    /* \"#utility.yul\":234:251   */\n  add\n    /* \"#utility.yul\":230:257   */\n  slt\n    /* \"#utility.yul\":220:275   */\n  tag_24\n  jumpi\n    /* \"#utility.yul\":271:272   */\n  0x00\n    /* \"#utility.yul\":268:269   */\n  dup1\n    /* \"#utility.yul\":261:273   */\n  revert\n    /* \"#utility.yul\":220:275   */\ntag_24:\n    /* \"#utility.yul\":298:311   */\n  dup2\n  mload\n  sub(shl(0x40, 0x01), 0x01)\n    /* \"#utility.yul\":323:353   */\n  dup2\n  gt\n    /* \"#utility.yul\":320:376   */\n  iszero\n  tag_26\n  jumpi\n    /* \"#utility.yul\":356:374   */\n  tag_26\n  tag_14\n  jump\t// in\ntag_26:\n    /* \"#utility.yul\":405:407   */\n  0x40\n    /* \"#utility.yul\":399:408   */\n  mload\n    /* \"#utility.yul\":497:499   */\n  0x1f\n    /* \"#utility.yul\":459:476   */\n  dup3\n  add\n  not(0x1f)\n    /* \"#utility.yul\":455:486   */\n  swap1\n  dup2\n  and\n    /* \"#utility.yul\":488:490   */\n  0x3f\n    /* \"#utility.yul\":451:491   */\n  add\n    /* \"#utility.yul\":447:501   */\n  and\n    /* \"#utility.yul\":435:502   */\n  dup2\n  add\n  sub(shl(0x40, 0x01), 0x01)\n    /* \"#utility.yul\":517:551   */\n  dup2\n  gt\n    /* \"#utility.yul\":553:575   */\n  dup3\n  dup3\n  lt\n    /* \"#utility.yul\":514:576   */\n  or\n    /* \"#utility.yul\":511:599   */\n  iszero\n  tag_28\n  jumpi\n    /* \"#utility.yul\":579:597   */\n  tag_28\n  tag_14\n  jump\t// in\ntag_28:\n    /* \"#utility.yul\":615:617   */\n  0x40\n    /* \"#utility.yul\":608:630   */\n  mstore\n    /* \"#utility.yul\":639:661   */\n  dup2\n  dup2\n  mstore\n    /* \"#utility.yul\":680:699   */\n  dup4\n  dup3\n  add\n    /* \"#utility.yul\":701:705   */\n  0x20\n    /* \"#utility.yul\":676:706   */\n  add\n    /* \"#utility.yul\":673:712   */\n  dup6\n  lt\n    /* \"#utility.yul\":670:729   */\n  iszero\n  tag_29\n  jumpi\n    /* \"#utility.yul\":725:726   */\n  0x00\n    /* \"#utility.yul\":722:723   */\n  dup1\n    /* \"#utility.yul\":715:727   */\n  revert\n    /* \"#utility.yul\":670:729   */\ntag_29:\n    /* \"#utility.yul\":782:788   */\n  dup2\n    /* \"#utility.yul\":775:779   */\n  0x20\n    /* \"#utility.yul\":767:773   */\n  dup6\n    /* \"#utility.yul\":763:780   */\n  add\n    /* \"#utility.yul\":756:760   */\n  0x20\n    /* \"#utility.yul\":748:754   */\n  dup4\n    /* \"#utility.yul\":744:761   */\n  add\n    /* \"#utility.yul\":738:789   */\n  mcopy\n    /* \"#utility.yul\":837:838   */\n  0x00\n    /* \"#utility.yul\":809:828   */\n  swap2\n  dup2\n  add\n    /* \"#utility.yul\":830:834   */\n  0x20\n    /* \"#utility.yul\":805:835   */\n  add\n    /* \"#utility.yul\":798:839   */\n  swap2\n  swap1\n  swap2\n  mstore\n    /* \"#utility.yul\":813:819   */\n  swap4\n    /* \"#utility.yul\":146:869   */\n  swap3\n  pop\n  pop\n  pop\n  jump\t// out\n    /* \"#utility.yul\":874:1051   */\ntag_16:\n    /* \"#utility.yul\":953:966   */\n  dup1\n  mload\n  sub(shl(0xa0, 0x01), 0x01)\n    /* \"#utility.yul\":995:1026   */\n  dup2\n  and\n    /* \"#utility.yul\":985:1027   */\n  dup2\n  eq\n    /* \"#utility.yul\":975:1045   */\n  tag_31\n  jumpi\n    /* \"#utility.yul\":1041:1042   */\n  0x00\n    /* \"#utility.yul\":1038:1039   */\n  dup1\n    /* \"#utility.yul\":1031:1043   */\n  revert\n    /* \"#utility.yul\":975:1045   */\ntag_31:\n    /* \"#utility.yul\":874:1051   */\n  swap2\n  swap1\n  pop\n  jump\t// out\n    /* \"#utility.yul\":1056:1784   */\ntag_3:\n    /* \"#utility.yul\":1173:1179   */\n  0x00\n    /* \"#utility.yul\":1181:1187   */\n  dup1\n    /* \"#utility.yul\":1189:1195   */\n  0x00\n    /* \"#utility.yul\":1197:1203   */\n  dup1\n    /* \"#utility.yul\":1250:1253   */\n  0x80\n    /* \"#utility.yul\":1238:1247   */\n  dup6\n    /* \"#utility.yul\":1229:1236   */\n  dup8\n    /* \"#utility.yul\":1225:1248   */\n  sub\n    /* \"#utility.yul\":1221:1254   */\n  slt\n    /* \"#utility.yul\":1218:1271   */\n  iszero\n  tag_33\n  jumpi\n    /* \"#utility.yul\":1267:1268   */\n  0x00\n    /* \"#utility.yul\":1264:1265   */\n  dup1\n    /* \"#utility.yul\":1257:1269   */\n  revert\n    /* \"#utility.yul\":1218:1271   */\ntag_33:\n    /* \"#utility.yul\":1294:1310   */\n  dup5\n  mload\n  sub(shl(0x40, 0x01), 0x01)\n    /* \"#utility.yul\":1322:1352   */\n  dup2\n  gt\n    /* \"#utility.yul\":1319:1369   */\n  iszero\n  tag_34\n  jumpi\n    /* \"#utility.yul\":1365:1366   */\n  0x00\n    /* \"#utility.yul\":1362:1363   */\n  dup1\n    /* \"#utility.yul\":1355:1367   */\n  revert\n    /* \"#utility.yul\":1319:1369   */\ntag_34:\n    /* \"#utility.yul\":1388:1449   */\n  tag_35\n    /* \"#utility.yul\":1441:1448   */\n  dup8\n    /* \"#utility.yul\":1432:1438   */\n  dup3\n    /* \"#utility.yul\":1421:1430   */\n  dup9\n    /* \"#utility.yul\":1417:1439   */\n  add\n    /* \"#utility.yul\":1388:1449   */\n  tag_15\n  jump\t// in\ntag_35:\n    /* \"#utility.yul\":1495:1497   */\n  0x20\n    /* \"#utility.yul\":1480:1498   */\n  dup8\n  add\n    /* \"#utility.yul\":1474:1499   */\n  mload\n    /* \"#utility.yul\":1378:1449   */\n  swap1\n  swap6\n  pop\n    /* \"#utility.yul\":1474:1499   */\n  swap1\n  pop\n  sub(shl(0x40, 0x01), 0x01)\n    /* \"#utility.yul\":1511:1543   */\n  dup2\n  gt\n    /* \"#utility.yul\":1508:1560   */\n  iszero\n  tag_36\n  jumpi\n    /* \"#utility.yul\":1556:1557   */\n  0x00\n    /* \"#utility.yul\":1553:1554   */\n  dup1\n    /* \"#utility.yul\":1546:1558   */\n  revert\n    /* \"#utility.yul\":1508:1560   */\ntag_36:\n    /* \"#utility.yul\":1579:1642   */\n  tag_37\n    /* \"#utility.yul\":1634:1641   */\n  dup8\n    /* \"#utility.yul\":1623:1631   */\n  dup3\n    /* \"#utility.yul\":1612:1621   */\n  dup9\n    /* \"#utility.yul\":1608:1632   */\n  add\n    /* \"#utility.yul\":1579:1642   */\n  tag_15\n  jump\t// in\ntag_37:\n    /* \"#utility.yul\":1569:1642   */\n  swap4\n  pop\n  pop\n    /* \"#utility.yul\":1661:1710   */\n  tag_38\n    /* \"#utility.yul\":1706:1708   */\n  0x40\n    /* \"#utility.yul\":1695:1704   */\n  dup7\n    /* \"#utility.yul\":1691:1709   */\n  add\n    /* \"#utility.yul\":1661:1710   */\n  tag_16\n  jump\t// in\ntag_38:\n    /* \"#utility.yul\":1651:1710   */\n  swap2\n  pop\n    /* \"#utility.yul\":1729:1778   */\n  tag_39\n    /* \"#utility.yul\":1774:1776   */\n  0x60\n    /* \"#utility.yul\":1763:1772   */\n  dup7\n    /* \"#utility.yul\":1759:1777   */\n  add\n    /* \"#utility.yul\":1729:1778   */\n  tag_16\n  jump\t// in\ntag_39:\n    /* \"#utility.yul\":1719:1778   */\n  swap1\n  pop\n    /* \"#utility.yul\":1056:1784   */\n  swap3\n  swap6\n  swap2\n  swap5\n  pop\n  swap3\n  pop\n  jump\t// out\n    /* \"#utility.yul\":1789:2169   */\ntag_17:\n    /* \"#utility.yul\":1868:1869   */\n  0x01\n    /* \"#utility.yul\":1864:1876   */\n  dup2\n  dup2\n  shr\n  swap1\n    /* \"#utility.yul\":1911:1923   */\n  dup3\n  and\n  dup1\n    /* \"#utility.yul\":1932:1993   */\n  tag_41\n  jumpi\n    /* \"#utility.yul\":1986:1990   */\n  0x7f\n    /* \"#utility.yul\":1978:1984   */\n  dup3\n    /* \"#utility.yul\":1974:1991   */\n  and\n    /* \"#utility.yul\":1964:1991   */\n  swap2\n  pop\n    /* \"#utility.yul\":1932:1993   */\ntag_41:\n    /* \"#utility.yul\":2039:2041   */\n  0x20\n    /* \"#utility.yul\":2031:2037   */\n  dup3\n    /* \"#utility.yul\":2028:2042   */\n  lt\n    /* \"#utility.yul\":2008:2026   */\n  dup2\n    /* \"#utility.yul\":2005:2043   */\n  sub\n    /* \"#utility.yul\":2002:2163   */\n  tag_42\n  jumpi\n    /* \"#utility.yul\":2085:2095   */\n  0x4e487b71\n    /* \"#utility.yul\":2080:2083   */\n  0xe0\n    /* \"#utility.yul\":2076:2096   */\n  shl\n    /* \"#utility.yul\":2073:2074   */\n  0x00\n    /* \"#utility.yul\":2066:2097   */\n  mstore\n    /* \"#utility.yul\":2120:2124   */\n  0x22\n    /* \"#utility.yul\":2117:2118   */\n  0x04\n    /* \"#utility.yul\":2110:2125   */\n  mstore\n    /* \"#utility.yul\":2148:2152   */\n  0x24\n    /* \"#utility.yul\":2145:2146   */\n  0x00\n    /* \"#utility.yul\":2138:2153   */\n  revert\n    /* \"#utility.yul\":2002:2163   */\ntag_42:\n  pop\n    /* \"#utility.yul\":1789:2169   */\n  swap2\n  swap1\n  pop\n  jump\t// out\n    /* \"#utility.yul\":2300:2818   */\ntag_19:\n    /* \"#utility.yul\":2402:2404   */\n  0x1f\n    /* \"#utility.yul\":2397:2400   */\n  dup3\n    /* \"#utility.yul\":2394:2405   */\n  gt\n    /* \"#utility.yul\":2391:2812   */\n  iszero\n  tag_45\n  jumpi\n    /* \"#utility.yul\":2438:2443   */\n  dup1\n    /* \"#utility.yul\":2435:2436   */\n  0x00\n    /* \"#utility.yul\":2428:2444   */\n  mstore\n    /* \"#utility.yul\":2482:2486   */\n  0x20\n    /* \"#utility.yul\":2479:2480   */\n  0x00\n    /* \"#utility.yul\":2469:2487   */\n  keccak256\n    /* \"#utility.yul\":2552:2554   */\n  0x1f\n    /* \"#utility.yul\":2540:2550   */\n  dup5\n    /* \"#utility.yul\":2536:2555   */\n  add\n    /* \"#utility.yul\":2533:2534   */\n  0x05\n    /* \"#utility.yul\":2529:2556   */\n  shr\n    /* \"#utility.yul\":2523:2527   */\n  dup2\n    /* \"#utility.yul\":2519:2557   */\n  add\n    /* \"#utility.yul\":2588:2592   */\n  0x20\n    /* \"#utility.yul\":2576:2586   */\n  dup6\n    /* \"#utility.yul\":2573:2593   */\n  lt\n    /* \"#utility.yul\":2570:2617   */\n  iszero\n  tag_46\n  jumpi\n  pop\n    /* \"#utility.yul\":2611:2615   */\n  dup1\n    /* \"#utility.yul\":2570:2617   */\ntag_46:\n    /* \"#utility.yul\":2666:2668   */\n  0x1f\n    /* \"#utility.yul\":2661:2664   */\n  dup5\n    /* \"#utility.yul\":2657:2669   */\n  add\n    /* \"#utility.yul\":2654:2655   */\n  0x05\n    /* \"#utility.yul\":2650:2670   */\n  shr\n    /* \"#utility.yul\":2644:2648   */\n  dup3\n    /* \"#utility.yul\":2640:2671   */\n  add\n    /* \"#utility.yul\":2630:2671   */\n  swap2\n  pop\n    /* \"#utility.yul\":2721:2802   */\ntag_47:\n    /* \"#utility.yul\":2739:2741   */\n  dup2\n    /* \"#utility.yul\":2732:2737   */\n  dup2\n    /* \"#utility.yul\":2729:2742   */\n  lt\n    /* \"#utility.yul\":2721:2802   */\n  iszero\n  tag_49\n  jumpi\n    /* \"#utility.yul\":2798:2799   */\n  0x00\n    /* \"#utility.yul\":2784:2800   */\n  dup2\n  sstore\n    /* \"#utility.yul\":2765:2766   */\n  0x01\n    /* \"#utility.yul\":2754:2767   */\n  add\n    /* \"#utility.yul\":2721:2802   */\n  jump(tag_47)\ntag_49:\n    /* \"#utility.yul\":2725:2728   */\n  pop\n  pop\n    /* \"#utility.yul\":2391:2812   */\ntag_45:\n    /* \"#utility.yul\":2300:2818   */\n  pop\n  pop\n  pop\n  jump\t// out\n    /* \"#utility.yul\":2994:4293   */\ntag_8:\n    /* \"#utility.yul\":3114:3124   */\n  dup2\n  mload\n  sub(shl(0x40, 0x01), 0x01)\n    /* \"#utility.yul\":3136:3166   */\n  dup2\n  gt\n    /* \"#utility.yul\":3133:3189   */\n  iszero\n  tag_53\n  jumpi\n    /* \"#utility.yul\":3169:3187   */\n  tag_53\n  tag_14\n  jump\t// in\ntag_53:\n    /* \"#utility.yul\":3198:3295   */\n  tag_54\n    /* \"#utility.yul\":3288:3294   */\n  dup2\n    /* \"#utility.yul\":3248:3286   */\n  tag_55\n    /* \"#utility.yul\":3280:3284   */\n  dup5\n    /* \"#utility.yul\":3274:3285   */\n  sload\n    /* \"#utility.yul\":3248:3286   */\n  tag_17\n  jump\t// in\ntag_55:\n    /* \"#utility.yul\":3242:3246   */\n  dup5\n    /* \"#utility.yul\":3198:3295   */\n  tag_19\n  jump\t// in\ntag_54:\n    /* \"#utility.yul\":3344:3348   */\n  0x20\n    /* \"#utility.yul\":3375:3377   */\n  0x1f\n    /* \"#utility.yul\":3364:3378   */\n  dup3\n  gt\n    /* \"#utility.yul\":3392:3393   */\n  0x01\n    /* \"#utility.yul\":3387:4036   */\n  dup2\n  eq\n  tag_57\n  jumpi\n    /* \"#utility.yul\":4080:4081   */\n  0x00\n    /* \"#utility.yul\":4097:4103   */\n  dup4\n    /* \"#utility.yul\":4094:4183   */\n  iszero\n  tag_58\n  jumpi\n  pop\n    /* \"#utility.yul\":4149:4168   */\n  dup5\n  dup3\n  add\n    /* \"#utility.yul\":4143:4169   */\n  mload\n    /* \"#utility.yul\":4094:4183   */\ntag_58:\n  not(0x00)\n    /* \"#utility.yul\":2951:2952   */\n  0x03\n    /* \"#utility.yul\":2947:2958   */\n  dup6\n  swap1\n  shl\n    /* \"#utility.yul\":2943:2967   */\n  shr\n    /* \"#utility.yul\":2939:2968   */\n  not\n    /* \"#utility.yul\":2929:2969   */\n  and\n    /* \"#utility.yul\":2975:2976   */\n  0x01\n    /* \"#utility.yul\":2971:2982   */\n  dup5\n  swap1\n  shl\n    /* \"#utility.yul\":2926:2983   */\n  or\n    /* \"#utility.yul\":4196:4277   */\n  dup5\n  sstore\n    /* \"#utility.yul\":3357:4287   */\n  jump(tag_49)\n    /* \"#utility.yul\":3387:4036   */\ntag_57:\n    /* \"#utility.yul\":2247:2248   */\n  0x00\n    /* \"#utility.yul\":2240:2254   */\n  dup5\n  dup2\n  mstore\n    /* \"#utility.yul\":2284:2288   */\n  0x20\n    /* \"#utility.yul\":2271:2289   */\n  dup2\n  keccak256\n  not(0x1f)\n    /* \"#utility.yul\":3423:3443   */\n  dup6\n  and\n  swap2\n    /* \"#utility.yul\":3541:3763   */\ntag_61:\n    /* \"#utility.yul\":3555:3562   */\n  dup3\n    /* \"#utility.yul\":3552:3553   */\n  dup2\n    /* \"#utility.yul\":3549:3563   */\n  lt\n    /* \"#utility.yul\":3541:3763   */\n  iszero\n  tag_63\n  jumpi\n    /* \"#utility.yul\":3637:3656   */\n  dup8\n  dup6\n  add\n    /* \"#utility.yul\":3631:3657   */\n  mload\n    /* \"#utility.yul\":3616:3658   */\n  dup3\n  sstore\n    /* \"#utility.yul\":3744:3748   */\n  0x20\n    /* \"#utility.yul\":3729:3749   */\n  swap5\n  dup6\n  add\n  swap5\n    /* \"#utility.yul\":3697:3698   */\n  0x01\n    /* \"#utility.yul\":3685:3699   */\n  swap1\n  swap3\n  add\n  swap2\n    /* \"#utility.yul\":3571:3583   */\n  add\n    /* \"#utility.yul\":3541:3763   */\n  jump(tag_61)\ntag_63:\n    /* \"#utility.yul\":3545:3548   */\n  pop\n    /* \"#utility.yul\":3791:3797   */\n  dup5\n    /* \"#utility.yul\":3782:3789   */\n  dup3\n    /* \"#utility.yul\":3779:3798   */\n  lt\n    /* \"#utility.yul\":3776:3977   */\n  iszero\n  tag_64\n  jumpi\n    /* \"#utility.yul\":3852:3871   */\n  dup7\n  dup5\n  add\n    /* \"#utility.yul\":3846:3872   */\n  mload\n  not(0x00)\n    /* \"#utility.yul\":3935:3936   */\n  0x03\n    /* \"#utility.yul\":3931:3945   */\n  dup8\n  swap1\n  shl\n    /* \"#utility.yul\":3947:3950   */\n  0xf8\n    /* \"#utility.yul\":3927:3951   */\n  and\n    /* \"#utility.yul\":3923:3960   */\n  shr\n    /* \"#utility.yul\":3919:3961   */\n  not\n    /* \"#utility.yul\":3904:3962   */\n  and\n    /* \"#utility.yul\":3889:3963   */\n  dup2\n  sstore\n    /* \"#utility.yul\":3776:3977   */\ntag_64:\n  pop\n  pop\n  pop\n  pop\n    /* \"#utility.yul\":4023:4024   */\n  0x01\n    /* \"#utility.yul\":4007:4021   */\n  swap1\n  dup2\n  shl\n    /* \"#utility.yul\":4003:4025   */\n  add\n    /* \"#utility.yul\":3990:4026   */\n  swap1\n  sstore\n  pop\n    /* \"#utility.yul\":2994:4293   */\n  jump\t// out\n    /* \"#utility.yul\":4298:4501   */\ntag_21:\n    /* \"Items/LoyalityCard.sol\":104:975  contract LoyalityCard is VaultItem{... */\n  dataSize(sub_0)\n  dup1\n  dataOffset(sub_0)\n  0x00\n  codecopy\n  0x00\n  return\nstop\n\nsub_0: assembly {\n        /* \"Items/LoyalityCard.sol\":104:975  contract LoyalityCard is VaultItem{... */\n      mstore(0x40, 0x80)\n      callvalue\n      dup1\n      iszero\n      tag_1\n      jumpi\n      0x00\n      dup1\n      revert\n    tag_1:\n      pop\n      jumpi(tag_2, lt(calldatasize, 0x04))\n      shr(0xe0, calldataload(0x00))\n      dup1\n      0x26c7b327\n      eq\n      tag_3\n      jumpi\n      dup1\n      0x4ba83374\n      eq\n      tag_4\n      jumpi\n      dup1\n      0x5da6ef8d\n      eq\n      tag_5\n      jumpi\n      dup1\n      0x7a4c982e\n      eq\n      tag_6\n      jumpi\n      dup1\n      0x80f76021\n      eq\n      tag_7\n      jumpi\n      dup1\n      0xa95264d0\n      eq\n      tag_8\n      jumpi\n      dup1\n      0xb9daf3e2\n      eq\n      tag_9\n      jumpi\n      dup1\n      0xba379e86\n      eq\n      tag_10\n      jumpi\n      dup1\n      0xc47f0027\n      eq\n      tag_11\n      jumpi\n      dup1\n      0xded92dac\n      eq\n      tag_12\n      jumpi\n      dup1\n      0xefd8af9f\n      eq\n      tag_13\n      jumpi\n    tag_2:\n      0x00\n      dup1\n      revert\n        /* \"Items/VaultItem.sol\":206:227  uint public item_type */\n    tag_3:\n      tag_14\n      sload(0x01)\n      dup2\n      jump\n    tag_14:\n      mload(0x40)\n        /* \"#utility.yul\":160:185   */\n      swap1\n      dup2\n      mstore\n        /* \"#utility.yul\":148:150   */\n      0x20\n        /* \"#utility.yul\":133:151   */\n      add\n        /* \"Items/VaultItem.sol\":206:227  uint public item_type */\n    tag_16:\n      mload(0x40)\n      dup1\n      swap2\n      sub\n      swap1\n      return\n        /* \"Items/VaultItem.sol\":1166:1303  function isSharedWith() external view returns (bool) {... */\n    tag_4:\n      tag_18\n      tag_19\n      jump\t// in\n    tag_18:\n      mload(0x40)\n        /* \"#utility.yul\":361:375   */\n      swap1\n      iszero\n        /* \"#utility.yul\":354:376   */\n      iszero\n        /* \"#utility.yul\":336:377   */\n      dup2\n      mstore\n        /* \"#utility.yul\":324:326   */\n      0x20\n        /* \"#utility.yul\":309:327   */\n      add\n        /* \"Items/VaultItem.sol\":1166:1303  function isSharedWith() external view returns (bool) {... */\n      tag_16\n        /* \"#utility.yul\":196:383   */\n      jump\n        /* \"Items/VaultItem.sol\":1437:1644  function shareWith(address _w) external ownerOnly {... */\n    tag_5:\n      tag_22\n      tag_23\n      calldatasize\n      0x04\n      tag_24\n      jump\t// in\n    tag_23:\n      tag_25\n      jump\t// in\n    tag_22:\n      stop\n        /* \"Items/LoyalityCard.sol\":665:831  function setItem(string memory _n, string memory _c_id) external ownerOnly {... */\n    tag_6:\n      tag_22\n      tag_27\n      calldatasize\n      0x04\n      tag_28\n      jump\t// in\n    tag_27:\n      tag_29\n      jump\t// in\n        /* \"Items/VaultItem.sol\":1061:1158  function getParent() external view ownerOnly returns (address) {... */\n    tag_7:\n      tag_30\n      tag_31\n      jump\t// in\n    tag_30:\n      mload(0x40)\n      tag_16\n      swap2\n      swap1\n      tag_33\n      jump\t// in\n        /* \"Items/VaultItem.sol\":1311:1429  function getSharedWith() external view ownerOnly returns (address[] memory) {... */\n    tag_8:\n      tag_34\n      tag_35\n      jump\t// in\n    tag_34:\n      mload(0x40)\n      tag_16\n      swap2\n      swap1\n      tag_37\n      jump\t// in\n        /* \"Items/VaultItem.sol\":810:926  function isOwn() external view  returns (bool) {... */\n    tag_9:\n      tag_18\n      tag_39\n      jump\t// in\n        /* \"Items/LoyalityCard.sol\":839:968  function expose() external view ownerOrShared returns ( string memory, string memory) {... */\n    tag_10:\n      tag_41\n      tag_42\n      jump\t// in\n    tag_41:\n      mload(0x40)\n      tag_16\n      swap3\n      swap2\n      swap1\n      tag_44\n      jump\t// in\n        /* \"Items/VaultItem.sol\":934:1053  function setName(string memory _n) external ownerOnly {... */\n    tag_11:\n      tag_22\n      tag_46\n      calldatasize\n      0x04\n      tag_47\n      jump\t// in\n    tag_46:\n      tag_48\n      jump\t// in\n        /* \"Items/VaultItem.sol\":1652:1996  function restictFrom( address _f ) external {... */\n    tag_12:\n      tag_22\n      tag_50\n      calldatasize\n      0x04\n      tag_24\n      jump\t// in\n    tag_50:\n      tag_51\n      jump\t// in\n        /* \"Items/LoyalityCard.sol\":527:657  function setCardId(string memory _c_id) external ownerOnly {... */\n    tag_13:\n      tag_22\n      tag_53\n      calldatasize\n      0x04\n      tag_47\n      jump\t// in\n    tag_53:\n      tag_54\n      jump\t// in\n        /* \"Items/VaultItem.sol\":1166:1303  function isSharedWith() external view returns (bool) {... */\n    tag_19:\n        /* \"Items/VaultItem.sol\":1213:1217  bool */\n      0x00\n        /* \"Items/VaultItem.sol\":1237:1289  Constants.findAddressIndex( msg.sender, sharedWith ) */\n      tag_56\n        /* \"Items/VaultItem.sol\":1265:1275  msg.sender */\n      caller\n        /* \"Items/VaultItem.sol\":1277:1287  sharedWith */\n      0x04\n        /* \"Items/VaultItem.sol\":1237:1289  Constants.findAddressIndex( msg.sender, sharedWith ) */\n      dup1\n      sload\n      dup1\n      0x20\n      mul\n      0x20\n      add\n      mload(0x40)\n      swap1\n      dup2\n      add\n      0x40\n      mstore\n      dup1\n      swap3\n      swap2\n      swap1\n      dup2\n      dup2\n      mstore\n      0x20\n      add\n      dup3\n      dup1\n      sload\n      dup1\n      iszero\n      tag_57\n      jumpi\n      0x20\n      mul\n      dup3\n      add\n      swap2\n      swap1\n      0x00\n      mstore\n      keccak256(0x00, 0x20)\n      swap1\n    tag_58:\n      dup2\n      sload\n      sub(shl(0xa0, 0x01), 0x01)\n      and\n      dup2\n      mstore\n      0x01\n      swap1\n      swap2\n      add\n      swap1\n      0x20\n      add\n      dup1\n      dup4\n      gt\n      tag_58\n      jumpi\n    tag_57:\n      pop\n      pop\n      pop\n      pop\n      pop\n        /* \"Items/VaultItem.sol\":1237:1263  Constants.findAddressIndex */\n      tag_59\n        /* \"Items/VaultItem.sol\":1237:1289  Constants.findAddressIndex( msg.sender, sharedWith ) */\n      jump\t// in\n    tag_56:\n      not(0x00)\n        /* \"Items/VaultItem.sol\":1237:1295  Constants.findAddressIndex( msg.sender, sharedWith ) != -1 */\n      eq\n      iszero\n        /* \"Items/VaultItem.sol\":1230:1295  return Constants.findAddressIndex( msg.sender, sharedWith ) != -1 */\n      swap1\n      pop\n        /* \"Items/VaultItem.sol\":1166:1303  function isSharedWith() external view returns (bool) {... */\n      swap1\n      jump\t// out\n        /* \"Items/VaultItem.sol\":1437:1644  function shareWith(address _w) external ownerOnly {... */\n    tag_25:\n        /* \"Items/VaultItem.sol\":359:364  owner */\n      and(sub(shl(0xa0, 0x01), 0x01), sload(0x02))\n        /* \"Items/VaultItem.sol\":345:355  msg.sender */\n      caller\n        /* \"Items/VaultItem.sol\":345:364  msg.sender == owner */\n      eq\n      dup1\n        /* \"Items/VaultItem.sol\":345:388  msg.sender == owner || msg.sender == parent */\n      tag_61\n      jumpi\n      pop\n        /* \"Items/VaultItem.sol\":382:388  parent */\n      and(sub(shl(0xa0, 0x01), 0x01), sload(0x03))\n        /* \"Items/VaultItem.sol\":368:378  msg.sender */\n      caller\n        /* \"Items/VaultItem.sol\":368:388  msg.sender == parent */\n      eq\n        /* \"Items/VaultItem.sol\":345:388  msg.sender == owner || msg.sender == parent */\n    tag_61:\n        /* \"Items/VaultItem.sol\":337:396  require(msg.sender == owner || msg.sender == parent, \"403\") */\n      tag_62\n      jumpi\n      mload(0x40)\n      shl(0xe5, 0x461bcd)\n      dup2\n      mstore\n      0x04\n      add\n      tag_63\n      swap1\n      tag_64\n      jump\t// in\n    tag_63:\n      mload(0x40)\n      dup1\n      swap2\n      sub\n      swap1\n      revert\n    tag_62:\n        /* \"Items/VaultItem.sol\":1515:1520  owner */\n      sload(0x02)\n      sub(shl(0xa0, 0x01), 0x01)\n        /* \"Items/VaultItem.sol\":1509:1520  _w != owner */\n      dup3\n      dup2\n      and\n        /* \"Items/VaultItem.sol\":1515:1520  owner */\n      swap2\n      and\n        /* \"Items/VaultItem.sol\":1509:1520  _w != owner */\n      eq\n      dup1\n      iszero\n      swap1\n        /* \"Items/VaultItem.sol\":1509:1540  _w != owner && _w != address(0) */\n      tag_66\n      jumpi\n      pop\n      sub(shl(0xa0, 0x01), 0x01)\n        /* \"Items/VaultItem.sol\":1524:1540  _w != address(0) */\n      dup2\n      and\n      iszero\n      iszero\n        /* \"Items/VaultItem.sol\":1509:1540  _w != owner && _w != address(0) */\n    tag_66:\n        /* \"Items/VaultItem.sol\":1509:1594  _w != owner && _w != address(0) && Constants.findAddressIndex( _w, sharedWith ) == -1 */\n      dup1\n      iszero\n      tag_67\n      jumpi\n      pop\n        /* \"Items/VaultItem.sol\":1544:1588  Constants.findAddressIndex( _w, sharedWith ) */\n      tag_68\n        /* \"Items/VaultItem.sol\":1572:1574  _w */\n      dup2\n        /* \"Items/VaultItem.sol\":1576:1586  sharedWith */\n      0x04\n        /* \"Items/VaultItem.sol\":1544:1588  Constants.findAddressIndex( _w, sharedWith ) */\n      dup1\n      sload\n      dup1\n      0x20\n      mul\n      0x20\n      add\n      mload(0x40)\n      swap1\n      dup2\n      add\n      0x40\n      mstore\n      dup1\n      swap3\n      swap2\n      swap1\n      dup2\n      dup2\n      mstore\n      0x20\n      add\n      dup3\n      dup1\n      sload\n      dup1\n      iszero\n      tag_57\n      jumpi\n      0x20\n      mul\n      dup3\n      add\n      swap2\n      swap1\n      0x00\n      mstore\n      keccak256(0x00, 0x20)\n      swap1\n      dup2\n      sload\n      sub(shl(0xa0, 0x01), 0x01)\n      and\n      dup2\n      mstore\n      0x01\n      swap1\n      swap2\n      add\n      swap1\n      0x20\n      add\n      dup1\n      dup4\n      gt\n      tag_58\n      jumpi\n      pop\n      pop\n      pop\n      pop\n      pop\n        /* \"Items/VaultItem.sol\":1544:1570  Constants.findAddressIndex */\n      tag_59\n        /* \"Items/VaultItem.sol\":1544:1588  Constants.findAddressIndex( _w, sharedWith ) */\n      jump\t// in\n    tag_68:\n      not(0x00)\n        /* \"Items/VaultItem.sol\":1544:1594  Constants.findAddressIndex( _w, sharedWith ) == -1 */\n      eq\n        /* \"Items/VaultItem.sol\":1509:1594  _w != owner && _w != address(0) && Constants.findAddressIndex( _w, sharedWith ) == -1 */\n    tag_67:\n        /* \"Items/VaultItem.sol\":1500:1602  require( _w != owner && _w != address(0) && Constants.findAddressIndex( _w, sharedWith ) == -1, \"403\") */\n      tag_71\n      jumpi\n      mload(0x40)\n      shl(0xe5, 0x461bcd)\n      dup2\n      mstore\n      0x04\n      add\n      tag_63\n      swap1\n      tag_64\n      jump\t// in\n    tag_71:\n        /* \"Items/VaultItem.sol\":1615:1625  sharedWith */\n      0x04\n        /* \"Items/VaultItem.sol\":1615:1634  sharedWith.push(_w) */\n      dup1\n      sload\n      0x01\n      dup2\n      add\n      dup3\n      sstore\n      0x00\n      swap2\n      swap1\n      swap2\n      mstore\n      0x8a35acfbc15ff81a39ae7d344fd709f28e8600b4aa8c65c6b64bfe7fe36bd19b\n      add\n      dup1\n      sload\n      not(sub(shl(0xa0, 0x01), 0x01))\n      and\n      sub(shl(0xa0, 0x01), 0x01)\n      swap3\n      swap1\n      swap3\n      and\n      swap2\n      swap1\n      swap2\n      or\n      swap1\n      sstore\n        /* \"Items/VaultItem.sol\":1437:1644  function shareWith(address _w) external ownerOnly {... */\n      jump\t// out\n        /* \"Items/LoyalityCard.sol\":665:831  function setItem(string memory _n, string memory _c_id) external ownerOnly {... */\n    tag_29:\n        /* \"Items/VaultItem.sol\":359:364  owner */\n      and(sub(shl(0xa0, 0x01), 0x01), sload(0x02))\n        /* \"Items/VaultItem.sol\":345:355  msg.sender */\n      caller\n        /* \"Items/VaultItem.sol\":345:364  msg.sender == owner */\n      eq\n      dup1\n        /* \"Items/VaultItem.sol\":345:388  msg.sender == owner || msg.sender == parent */\n      tag_75\n      jumpi\n      pop\n        /* \"Items/VaultItem.sol\":382:388  parent */\n      and(sub(shl(0xa0, 0x01), 0x01), sload(0x03))\n        /* \"Items/VaultItem.sol\":368:378  msg.sender */\n      caller\n        /* \"Items/VaultItem.sol\":368:388  msg.sender == parent */\n      eq\n        /* \"Items/VaultItem.sol\":345:388  msg.sender == owner || msg.sender == parent */\n    tag_75:\n        /* \"Items/VaultItem.sol\":337:396  require(msg.sender == owner || msg.sender == parent, \"403\") */\n      tag_76\n      jumpi\n      mload(0x40)\n      shl(0xe5, 0x461bcd)\n      dup2\n      mstore\n      0x04\n      add\n      tag_63\n      swap1\n      tag_64\n      jump\t// in\n    tag_76:\n        /* \"Items/LoyalityCard.sol\":751:755  name */\n      0x00\n        /* \"Items/LoyalityCard.sol\":751:760  name = _n */\n      tag_79\n        /* \"Items/LoyalityCard.sol\":758:760  _n */\n      dup4\n        /* \"Items/LoyalityCard.sol\":751:755  name */\n      dup3\n        /* \"Items/LoyalityCard.sol\":751:760  name = _n */\n      tag_80\n      jump\t// in\n    tag_79:\n      pop\n        /* \"Items/LoyalityCard.sol\":771:778  card_id */\n      0x05\n        /* \"Items/LoyalityCard.sol\":771:786  card_id = _c_id */\n      tag_81\n        /* \"Items/LoyalityCard.sol\":781:786  _c_id */\n      dup3\n        /* \"Items/LoyalityCard.sol\":771:778  card_id */\n      dup3\n        /* \"Items/LoyalityCard.sol\":771:786  card_id = _c_id */\n      tag_80\n      jump\t// in\n    tag_81:\n      pop\n      0x00\n      dup1\n      mload\n      0x20\n      data_2c67c2ea5f0acf1af63e6d21f70491caaa8c297045be1c6ee3e9b1d07edcb366\n      dup4\n      codecopy\n      dup2\n      mload\n      swap2\n      mstore\n        /* \"Items/LoyalityCard.sol\":812:822  msg.sender */\n      caller\n        /* \"Items/LoyalityCard.sol\":804:823  Updated(msg.sender) */\n      mload(0x40)\n      tag_82\n      swap2\n      swap1\n      tag_33\n      jump\t// in\n    tag_82:\n      mload(0x40)\n      dup1\n      swap2\n      sub\n      swap1\n      log1\n        /* \"Items/LoyalityCard.sol\":665:831  function setItem(string memory _n, string memory _c_id) external ownerOnly {... */\n      pop\n      pop\n      jump\t// out\n        /* \"Items/VaultItem.sol\":1061:1158  function getParent() external view ownerOnly returns (address) {... */\n    tag_31:\n        /* \"Items/VaultItem.sol\":359:364  owner */\n      sload(0x02)\n        /* \"Items/VaultItem.sol\":1115:1122  address */\n      0x00\n      swap1\n      sub(shl(0xa0, 0x01), 0x01)\n        /* \"Items/VaultItem.sol\":359:364  owner */\n      and\n        /* \"Items/VaultItem.sol\":345:355  msg.sender */\n      caller\n        /* \"Items/VaultItem.sol\":345:364  msg.sender == owner */\n      eq\n      dup1\n        /* \"Items/VaultItem.sol\":345:388  msg.sender == owner || msg.sender == parent */\n      tag_84\n      jumpi\n      pop\n        /* \"Items/VaultItem.sol\":382:388  parent */\n      and(sub(shl(0xa0, 0x01), 0x01), sload(0x03))\n        /* \"Items/VaultItem.sol\":368:378  msg.sender */\n      caller\n        /* \"Items/VaultItem.sol\":368:388  msg.sender == parent */\n      eq\n        /* \"Items/VaultItem.sol\":345:388  msg.sender == owner || msg.sender == parent */\n    tag_84:\n        /* \"Items/VaultItem.sol\":337:396  require(msg.sender == owner || msg.sender == parent, \"403\") */\n      tag_85\n      jumpi\n      mload(0x40)\n      shl(0xe5, 0x461bcd)\n      dup2\n      mstore\n      0x04\n      add\n      tag_63\n      swap1\n      tag_64\n      jump\t// in\n    tag_85:\n      pop\n        /* \"Items/VaultItem.sol\":1144:1150  parent */\n      and(sub(shl(0xa0, 0x01), 0x01), sload(0x03))\n        /* \"Items/VaultItem.sol\":1061:1158  function getParent() external view ownerOnly returns (address) {... */\n      swap1\n      jump\t// out\n        /* \"Items/VaultItem.sol\":1311:1429  function getSharedWith() external view ownerOnly returns (address[] memory) {... */\n    tag_35:\n        /* \"Items/VaultItem.sol\":359:364  owner */\n      sload(0x02)\n        /* \"Items/VaultItem.sol\":1369:1385  address[] memory */\n      0x60\n      swap1\n      sub(shl(0xa0, 0x01), 0x01)\n        /* \"Items/VaultItem.sol\":359:364  owner */\n      and\n        /* \"Items/VaultItem.sol\":345:355  msg.sender */\n      caller\n        /* \"Items/VaultItem.sol\":345:364  msg.sender == owner */\n      eq\n      dup1\n        /* \"Items/VaultItem.sol\":345:388  msg.sender == owner || msg.sender == parent */\n      tag_89\n      jumpi\n      pop\n        /* \"Items/VaultItem.sol\":382:388  parent */\n      and(sub(shl(0xa0, 0x01), 0x01), sload(0x03))\n        /* \"Items/VaultItem.sol\":368:378  msg.sender */\n      caller\n        /* \"Items/VaultItem.sol\":368:388  msg.sender == parent */\n      eq\n        /* \"Items/VaultItem.sol\":345:388  msg.sender == owner || msg.sender == parent */\n    tag_89:\n        /* \"Items/VaultItem.sol\":337:396  require(msg.sender == owner || msg.sender == parent, \"403\") */\n      tag_90\n      jumpi\n      mload(0x40)\n      shl(0xe5, 0x461bcd)\n      dup2\n      mstore\n      0x04\n      add\n      tag_63\n      swap1\n      tag_64\n      jump\t// in\n    tag_90:\n        /* \"Items/VaultItem.sol\":1411:1421  sharedWith */\n      0x04\n        /* \"Items/VaultItem.sol\":1404:1421  return sharedWith */\n      dup1\n      sload\n      dup1\n      0x20\n      mul\n      0x20\n      add\n      mload(0x40)\n      swap1\n      dup2\n      add\n      0x40\n      mstore\n      dup1\n      swap3\n      swap2\n      swap1\n      dup2\n      dup2\n      mstore\n      0x20\n      add\n      dup3\n      dup1\n      sload\n      dup1\n      iszero\n      tag_93\n      jumpi\n      0x20\n      mul\n      dup3\n      add\n      swap2\n      swap1\n      0x00\n      mstore\n      keccak256(0x00, 0x20)\n      swap1\n    tag_94:\n      dup2\n      sload\n      sub(shl(0xa0, 0x01), 0x01)\n      and\n      dup2\n      mstore\n      0x01\n      swap1\n      swap2\n      add\n      swap1\n      0x20\n      add\n      dup1\n      dup4\n      gt\n      tag_94\n      jumpi\n    tag_93:\n      pop\n      pop\n      pop\n      pop\n      pop\n      swap1\n      pop\n        /* \"Items/VaultItem.sol\":1311:1429  function getSharedWith() external view ownerOnly returns (address[] memory) {... */\n      swap1\n      jump\t// out\n        /* \"Items/VaultItem.sol\":810:926  function isOwn() external view  returns (bool) {... */\n    tag_39:\n        /* \"Items/VaultItem.sol\":889:894  owner */\n      sload(0x02)\n        /* \"Items/VaultItem.sol\":851:855  bool */\n      0x00\n      swap1\n      sub(shl(0xa0, 0x01), 0x01)\n        /* \"Items/VaultItem.sol\":889:894  owner */\n      and\n        /* \"Items/VaultItem.sol\":875:885  msg.sender */\n      caller\n        /* \"Items/VaultItem.sol\":875:894  msg.sender == owner */\n      eq\n      dup1\n        /* \"Items/VaultItem.sol\":875:918  msg.sender == owner || msg.sender == parent */\n      tag_96\n      jumpi\n      pop\n        /* \"Items/VaultItem.sol\":912:918  parent */\n      and(sub(shl(0xa0, 0x01), 0x01), sload(0x03))\n        /* \"Items/VaultItem.sol\":898:908  msg.sender */\n      caller\n        /* \"Items/VaultItem.sol\":898:918  msg.sender == parent */\n      eq\n        /* \"Items/VaultItem.sol\":875:918  msg.sender == owner || msg.sender == parent */\n    tag_96:\n        /* \"Items/VaultItem.sol\":868:918  return msg.sender == owner || msg.sender == parent */\n      swap1\n      pop\n        /* \"Items/VaultItem.sol\":810:926  function isOwn() external view  returns (bool) {... */\n      swap1\n      jump\t// out\n        /* \"Items/LoyalityCard.sol\":839:968  function expose() external view ownerOrShared returns ( string memory, string memory) {... */\n    tag_42:\n        /* \"Items/VaultItem.sol\":478:483  owner */\n      sload(0x02)\n        /* \"Items/LoyalityCard.sol\":895:908  string memory */\n      0x60\n      swap1\n      dup2\n      swap1\n      sub(shl(0xa0, 0x01), 0x01)\n        /* \"Items/VaultItem.sol\":478:483  owner */\n      and\n        /* \"Items/VaultItem.sol\":464:474  msg.sender */\n      caller\n        /* \"Items/VaultItem.sol\":464:483  msg.sender == owner */\n      eq\n      dup1\n        /* \"Items/VaultItem.sol\":464:545  msg.sender == owner || Constants.findAddressIndex( msg.sender, sharedWith ) != -1 */\n      tag_98\n      jumpi\n      pop\n        /* \"Items/VaultItem.sol\":487:539  Constants.findAddressIndex( msg.sender, sharedWith ) */\n      tag_99\n        /* \"Items/VaultItem.sol\":515:525  msg.sender */\n      caller\n        /* \"Items/VaultItem.sol\":527:537  sharedWith */\n      0x04\n        /* \"Items/VaultItem.sol\":487:539  Constants.findAddressIndex( msg.sender, sharedWith ) */\n      dup1\n      sload\n      dup1\n      0x20\n      mul\n      0x20\n      add\n      mload(0x40)\n      swap1\n      dup2\n      add\n      0x40\n      mstore\n      dup1\n      swap3\n      swap2\n      swap1\n      dup2\n      dup2\n      mstore\n      0x20\n      add\n      dup3\n      dup1\n      sload\n      dup1\n      iszero\n      tag_57\n      jumpi\n      0x20\n      mul\n      dup3\n      add\n      swap2\n      swap1\n      0x00\n      mstore\n      keccak256(0x00, 0x20)\n      swap1\n      dup2\n      sload\n      sub(shl(0xa0, 0x01), 0x01)\n      and\n      dup2\n      mstore\n      0x01\n      swap1\n      swap2\n      add\n      swap1\n      0x20\n      add\n      dup1\n      dup4\n      gt\n      tag_58\n      jumpi\n      pop\n      pop\n      pop\n      pop\n      pop\n        /* \"Items/VaultItem.sol\":487:513  Constants.findAddressIndex */\n      tag_59\n        /* \"Items/VaultItem.sol\":487:539  Constants.findAddressIndex( msg.sender, sharedWith ) */\n      jump\t// in\n    tag_99:\n      not(0x00)\n        /* \"Items/VaultItem.sol\":487:545  Constants.findAddressIndex( msg.sender, sharedWith ) != -1 */\n      eq\n      iszero\n        /* \"Items/VaultItem.sol\":464:545  msg.sender == owner || Constants.findAddressIndex( msg.sender, sharedWith ) != -1 */\n    tag_98:\n        /* \"Items/VaultItem.sol\":455:553  require( msg.sender == owner || Constants.findAddressIndex( msg.sender, sharedWith ) != -1, \"403\") */\n      tag_102\n      jumpi\n      mload(0x40)\n      shl(0xe5, 0x461bcd)\n      dup2\n      mstore\n      0x04\n      add\n      tag_63\n      swap1\n      tag_64\n      jump\t// in\n    tag_102:\n        /* \"Items/LoyalityCard.sol\":945:949  name */\n      0x00\n        /* \"Items/LoyalityCard.sol\":951:958  card_id */\n      0x05\n        /* \"Items/LoyalityCard.sol\":936:960  return ( name, card_id ) */\n      dup2\n      dup1\n      sload\n      tag_105\n      swap1\n      tag_106\n      jump\t// in\n    tag_105:\n      dup1\n      0x1f\n      add\n      0x20\n      dup1\n      swap2\n      div\n      mul\n      0x20\n      add\n      mload(0x40)\n      swap1\n      dup2\n      add\n      0x40\n      mstore\n      dup1\n      swap3\n      swap2\n      swap1\n      dup2\n      dup2\n      mstore\n      0x20\n      add\n      dup3\n      dup1\n      sload\n      tag_107\n      swap1\n      tag_106\n      jump\t// in\n    tag_107:\n      dup1\n      iszero\n      tag_108\n      jumpi\n      dup1\n      0x1f\n      lt\n      tag_109\n      jumpi\n      0x0100\n      dup1\n      dup4\n      sload\n      div\n      mul\n      dup4\n      mstore\n      swap2\n      0x20\n      add\n      swap2\n      jump(tag_108)\n    tag_109:\n      dup3\n      add\n      swap2\n      swap1\n      0x00\n      mstore\n      keccak256(0x00, 0x20)\n      swap1\n    tag_110:\n      dup2\n      sload\n      dup2\n      mstore\n      swap1\n      0x01\n      add\n      swap1\n      0x20\n      add\n      dup1\n      dup4\n      gt\n      tag_110\n      jumpi\n      dup3\n      swap1\n      sub\n      0x1f\n      and\n      dup3\n      add\n      swap2\n    tag_108:\n      pop\n      pop\n      pop\n      pop\n      pop\n      swap2\n      pop\n      dup1\n      dup1\n      sload\n      tag_111\n      swap1\n      tag_106\n      jump\t// in\n    tag_111:\n      dup1\n      0x1f\n      add\n      0x20\n      dup1\n      swap2\n      div\n      mul\n      0x20\n      add\n      mload(0x40)\n      swap1\n      dup2\n      add\n      0x40\n      mstore\n      dup1\n      swap3\n      swap2\n      swap1\n      dup2\n      dup2\n      mstore\n      0x20\n      add\n      dup3\n      dup1\n      sload\n      tag_112\n      swap1\n      tag_106\n      jump\t// in\n    tag_112:\n      dup1\n      iszero\n      tag_113\n      jumpi\n      dup1\n      0x1f\n      lt\n      tag_114\n      jumpi\n      0x0100\n      dup1\n      dup4\n      sload\n      div\n      mul\n      dup4\n      mstore\n      swap2\n      0x20\n      add\n      swap2\n      jump(tag_113)\n    tag_114:\n      dup3\n      add\n      swap2\n      swap1\n      0x00\n      mstore\n      keccak256(0x00, 0x20)\n      swap1\n    tag_115:\n      dup2\n      sload\n      dup2\n      mstore\n      swap1\n      0x01\n      add\n      swap1\n      0x20\n      add\n      dup1\n      dup4\n      gt\n      tag_115\n      jumpi\n      dup3\n      swap1\n      sub\n      0x1f\n      and\n      dup3\n      add\n      swap2\n    tag_113:\n      pop\n      pop\n      pop\n      pop\n      pop\n      swap1\n      pop\n      swap2\n      pop\n      swap2\n      pop\n        /* \"Items/LoyalityCard.sol\":839:968  function expose() external view ownerOrShared returns ( string memory, string memory) {... */\n      swap1\n      swap2\n      jump\t// out\n        /* \"Items/VaultItem.sol\":934:1053  function setName(string memory _n) external ownerOnly {... */\n    tag_48:\n        /* \"Items/VaultItem.sol\":359:364  owner */\n      and(sub(shl(0xa0, 0x01), 0x01), sload(0x02))\n        /* \"Items/VaultItem.sol\":345:355  msg.sender */\n      caller\n        /* \"Items/VaultItem.sol\":345:364  msg.sender == owner */\n      eq\n      dup1\n        /* \"Items/VaultItem.sol\":345:388  msg.sender == owner || msg.sender == parent */\n      tag_117\n      jumpi\n      pop\n        /* \"Items/VaultItem.sol\":382:388  parent */\n      and(sub(shl(0xa0, 0x01), 0x01), sload(0x03))\n        /* \"Items/VaultItem.sol\":368:378  msg.sender */\n      caller\n        /* \"Items/VaultItem.sol\":368:388  msg.sender == parent */\n      eq\n        /* \"Items/VaultItem.sol\":345:388  msg.sender == owner || msg.sender == parent */\n    tag_117:\n        /* \"Items/VaultItem.sol\":337:396  require(msg.sender == owner || msg.sender == parent, \"403\") */\n      tag_118\n      jumpi\n      mload(0x40)\n      shl(0xe5, 0x461bcd)\n      dup2\n      mstore\n      0x04\n      add\n      tag_63\n      swap1\n      tag_64\n      jump\t// in\n    tag_118:\n        /* \"Items/VaultItem.sol\":999:1003  name */\n      0x00\n        /* \"Items/VaultItem.sol\":999:1008  name = _n */\n      tag_121\n        /* \"Items/VaultItem.sol\":1006:1008  _n */\n      dup3\n        /* \"Items/VaultItem.sol\":999:1003  name */\n      dup3\n        /* \"Items/VaultItem.sol\":999:1008  name = _n */\n      tag_80\n      jump\t// in\n    tag_121:\n      pop\n      0x00\n      dup1\n      mload\n      0x20\n      data_2c67c2ea5f0acf1af63e6d21f70491caaa8c297045be1c6ee3e9b1d07edcb366\n      dup4\n      codecopy\n      dup2\n      mload\n      swap2\n      mstore\n        /* \"Items/VaultItem.sol\":1034:1044  msg.sender */\n      caller\n        /* \"Items/VaultItem.sol\":1026:1045  Updated(msg.sender) */\n      mload(0x40)\n      tag_122\n      swap2\n      swap1\n      tag_33\n      jump\t// in\n    tag_122:\n      mload(0x40)\n      dup1\n      swap2\n      sub\n      swap1\n      log1\n        /* \"Items/VaultItem.sol\":934:1053  function setName(string memory _n) external ownerOnly {... */\n      pop\n      jump\t// out\n        /* \"Items/VaultItem.sol\":1652:1996  function restictFrom( address _f ) external {... */\n    tag_51:\n      sub(shl(0xa0, 0x01), 0x01)\n        /* \"Items/VaultItem.sol\":1725:1741  _f != address(0) */\n      dup2\n      and\n      iszero\n      iszero\n      dup1\n        /* \"Items/VaultItem.sol\":1725:1812  _f != address(0) || ( msg.sender == parent || msg.sender == owner || msg.sender == _f ) */\n      tag_126\n      jumpi\n      pop\n        /* \"Items/VaultItem.sol\":1761:1767  parent */\n      and(sub(shl(0xa0, 0x01), 0x01), sload(0x03))\n        /* \"Items/VaultItem.sol\":1747:1757  msg.sender */\n      caller\n        /* \"Items/VaultItem.sol\":1747:1767  msg.sender == parent */\n      eq\n      dup1\n        /* \"Items/VaultItem.sol\":1747:1790  msg.sender == parent || msg.sender == owner */\n      tag_125\n      jumpi\n      pop\n        /* \"Items/VaultItem.sol\":1785:1790  owner */\n      and(sub(shl(0xa0, 0x01), 0x01), sload(0x02))\n        /* \"Items/VaultItem.sol\":1771:1781  msg.sender */\n      caller\n        /* \"Items/VaultItem.sol\":1771:1790  msg.sender == owner */\n      eq\n        /* \"Items/VaultItem.sol\":1747:1790  msg.sender == parent || msg.sender == owner */\n    tag_125:\n        /* \"Items/VaultItem.sol\":1747:1810  msg.sender == parent || msg.sender == owner || msg.sender == _f */\n      dup1\n      tag_126\n      jumpi\n      pop\n        /* \"Items/VaultItem.sol\":1794:1804  msg.sender */\n      caller\n      sub(shl(0xa0, 0x01), 0x01)\n        /* \"Items/VaultItem.sol\":1794:1810  msg.sender == _f */\n      dup3\n      and\n      eq\n        /* \"Items/VaultItem.sol\":1747:1810  msg.sender == parent || msg.sender == owner || msg.sender == _f */\n    tag_126:\n        /* \"Items/VaultItem.sol\":1717:1820  require(_f != address(0) || ( msg.sender == parent || msg.sender == owner || msg.sender == _f ), \"403\") */\n      tag_127\n      jumpi\n      mload(0x40)\n      shl(0xe5, 0x461bcd)\n      dup2\n      mstore\n      0x04\n      add\n      tag_63\n      swap1\n      tag_64\n      jump\t// in\n    tag_127:\n        /* \"Items/VaultItem.sol\":1833:1841  int _idx */\n      0x00\n        /* \"Items/VaultItem.sol\":1844:1888  Constants.findAddressIndex( _f, sharedWith ) */\n      tag_129\n        /* \"Items/VaultItem.sol\":1872:1874  _f */\n      dup3\n        /* \"Items/VaultItem.sol\":1876:1886  sharedWith */\n      0x04\n        /* \"Items/VaultItem.sol\":1844:1888  Constants.findAddressIndex( _f, sharedWith ) */\n      dup1\n      sload\n      dup1\n      0x20\n      mul\n      0x20\n      add\n      mload(0x40)\n      swap1\n      dup2\n      add\n      0x40\n      mstore\n      dup1\n      swap3\n      swap2\n      swap1\n      dup2\n      dup2\n      mstore\n      0x20\n      add\n      dup3\n      dup1\n      sload\n      dup1\n      iszero\n      tag_57\n      jumpi\n      0x20\n      mul\n      dup3\n      add\n      swap2\n      swap1\n      0x00\n      mstore\n      keccak256(0x00, 0x20)\n      swap1\n      dup2\n      sload\n      sub(shl(0xa0, 0x01), 0x01)\n      and\n      dup2\n      mstore\n      0x01\n      swap1\n      swap2\n      add\n      swap1\n      0x20\n      add\n      dup1\n      dup4\n      gt\n      tag_58\n      jumpi\n      pop\n      pop\n      pop\n      pop\n      pop\n        /* \"Items/VaultItem.sol\":1844:1870  Constants.findAddressIndex */\n      tag_59\n        /* \"Items/VaultItem.sol\":1844:1888  Constants.findAddressIndex( _f, sharedWith ) */\n      jump\t// in\n    tag_129:\n        /* \"Items/VaultItem.sol\":1833:1888  int _idx = Constants.findAddressIndex( _f, sharedWith ) */\n      swap1\n      pop\n      not(0x00)\n        /* \"Items/VaultItem.sol\":1909:1913  _idx */\n      dup2\n        /* \"Items/VaultItem.sol\":1909:1918  _idx > -1 */\n      sgt\n        /* \"Items/VaultItem.sol\":1901:1926  require(_idx > -1, \"404\") */\n      tag_132\n      jumpi\n      mload(0x40)\n      shl(0xe5, 0x461bcd)\n      dup2\n      mstore\n      0x04\n      add\n      tag_63\n      swap1\n      tag_134\n      jump\t// in\n    tag_132:\n        /* \"Items/VaultItem.sol\":1939:1986  Constants.deleteAddressFrom( _idx, sharedWith ) */\n      tag_135\n        /* \"Items/VaultItem.sol\":1968:1972  _idx */\n      dup2\n        /* \"Items/VaultItem.sol\":1974:1984  sharedWith */\n      0x04\n        /* \"Items/VaultItem.sol\":1939:1966  Constants.deleteAddressFrom */\n      tag_136\n        /* \"Items/VaultItem.sol\":1939:1986  Constants.deleteAddressFrom( _idx, sharedWith ) */\n      jump\t// in\n    tag_135:\n        /* \"Items/VaultItem.sol\":1696:1996  {... */\n      pop\n        /* \"Items/VaultItem.sol\":1652:1996  function restictFrom( address _f ) external {... */\n      pop\n      jump\t// out\n        /* \"Items/LoyalityCard.sol\":527:657  function setCardId(string memory _c_id) external ownerOnly {... */\n    tag_54:\n        /* \"Items/VaultItem.sol\":359:364  owner */\n      and(sub(shl(0xa0, 0x01), 0x01), sload(0x02))\n        /* \"Items/VaultItem.sol\":345:355  msg.sender */\n      caller\n        /* \"Items/VaultItem.sol\":345:364  msg.sender == owner */\n      eq\n      dup1\n        /* \"Items/VaultItem.sol\":345:388  msg.sender == owner || msg.sender == parent */\n      tag_138\n      jumpi\n      pop\n        /* \"Items/VaultItem.sol\":382:388  parent */\n      and(sub(shl(0xa0, 0x01), 0x01), sload(0x03))\n        /* \"Items/VaultItem.sol\":368:378  msg.sender */\n      caller\n        /* \"Items/VaultItem.sol\":368:388  msg.sender == parent */\n      eq\n        /* \"Items/VaultItem.sol\":345:388  msg.sender == owner || msg.sender == parent */\n    tag_138:\n        /* \"Items/VaultItem.sol\":337:396  require(msg.sender == owner || msg.sender == parent, \"403\") */\n      tag_139\n      jumpi\n      mload(0x40)\n      shl(0xe5, 0x461bcd)\n      dup2\n      mstore\n      0x04\n      add\n      tag_63\n      swap1\n      tag_64\n      jump\t// in\n    tag_139:\n        /* \"Items/LoyalityCard.sol\":597:604  card_id */\n      0x05\n        /* \"Items/LoyalityCard.sol\":597:612  card_id = _c_id */\n      tag_121\n        /* \"Items/LoyalityCard.sol\":607:612  _c_id */\n      dup3\n        /* \"Items/LoyalityCard.sol\":597:604  card_id */\n      dup3\n        /* \"Items/LoyalityCard.sol\":597:612  card_id = _c_id */\n      tag_80\n      jump\t// in\n        /* \"Libs/Constants.sol\":101:327  function findAddressIndex(address _addr, address[] memory _a) internal pure returns (int) {... */\n    tag_59:\n        /* \"Libs/Constants.sol\":186:189  int */\n      0x00\n      dup1\n        /* \"Libs/Constants.sol\":202:299  for (uint i = 0; i < _a.length; i++) {... */\n    tag_145:\n        /* \"Libs/Constants.sol\":223:225  _a */\n      dup3\n        /* \"Libs/Constants.sol\":223:232  _a.length */\n      mload\n        /* \"Libs/Constants.sol\":219:220  i */\n      dup2\n        /* \"Libs/Constants.sol\":219:232  i < _a.length */\n      lt\n        /* \"Libs/Constants.sol\":202:299  for (uint i = 0; i < _a.length; i++) {... */\n      iszero\n      tag_146\n      jumpi\n        /* \"Libs/Constants.sol\":267:272  _addr */\n      dup4\n      sub(shl(0xa0, 0x01), 0x01)\n        /* \"Libs/Constants.sol\":258:272  _a[i] == _addr */\n      and\n        /* \"Libs/Constants.sol\":258:260  _a */\n      dup4\n        /* \"Libs/Constants.sol\":261:262  i */\n      dup3\n        /* \"Libs/Constants.sol\":258:263  _a[i] */\n      dup2\n      mload\n      dup2\n      lt\n      tag_149\n      jumpi\n      tag_149\n      tag_150\n      jump\t// in\n    tag_149:\n      0x20\n      mul\n      0x20\n      add\n      add\n      mload\n      sub(shl(0xa0, 0x01), 0x01)\n        /* \"Libs/Constants.sol\":258:272  _a[i] == _addr */\n      and\n      sub\n        /* \"Libs/Constants.sol\":254:287  if (_a[i] == _addr) return int(i) */\n      tag_151\n      jumpi\n        /* \"Libs/Constants.sol\":285:286  i */\n      swap1\n      pop\n        /* \"Libs/Constants.sol\":274:287  return int(i) */\n      jump(tag_144)\n        /* \"Libs/Constants.sol\":254:287  if (_a[i] == _addr) return int(i) */\n    tag_151:\n        /* \"Libs/Constants.sol\":234:237  i++ */\n      0x01\n      add\n        /* \"Libs/Constants.sol\":202:299  for (uint i = 0; i < _a.length; i++) {... */\n      jump(tag_145)\n    tag_146:\n      pop\n      not(0x00)\n        /* \"Libs/Constants.sol\":309:318  return -1 */\n      swap1\n      pop\n        /* \"Libs/Constants.sol\":101:327  function findAddressIndex(address _addr, address[] memory _a) internal pure returns (int) {... */\n    tag_144:\n      swap3\n      swap2\n      pop\n      pop\n      jump\t// out\n        /* \"Libs/Constants.sol\":336:595  function deleteAddressFrom(int idx, address[] storage _a) internal {... */\n    tag_136:\n        /* \"Libs/Constants.sol\":429:430  0 */\n      0x00\n        /* \"Libs/Constants.sol\":422:425  idx */\n      dup3\n        /* \"Libs/Constants.sol\":422:430  idx >= 0 */\n      slt\n      iszero\n        /* \"Libs/Constants.sol\":422:455  idx >= 0 && uint(idx) < _a.length */\n      dup1\n      iszero\n      tag_153\n      jumpi\n      pop\n        /* \"Libs/Constants.sol\":446:455  _a.length */\n      dup1\n      sload\n        /* \"Libs/Constants.sol\":434:455  uint(idx) < _a.length */\n      dup3\n      lt\n        /* \"Libs/Constants.sol\":422:455  idx >= 0 && uint(idx) < _a.length */\n    tag_153:\n        /* \"Libs/Constants.sol\":414:463  require(idx >= 0 && uint(idx) < _a.length, \"404\") */\n      tag_154\n      jumpi\n      mload(0x40)\n      shl(0xe5, 0x461bcd)\n      dup2\n      mstore\n      0x04\n      add\n      tag_63\n      swap1\n      tag_134\n      jump\t// in\n    tag_154:\n        /* \"Libs/Constants.sol\":493:496  idx */\n      dup2\n        /* \"Libs/Constants.sol\":474:567  for (uint i = uint(idx); i < _a.length - 1; i++) {... */\n    tag_156:\n        /* \"Libs/Constants.sol\":503:512  _a.length */\n      dup2\n      sload\n        /* \"Libs/Constants.sol\":503:516  _a.length - 1 */\n      tag_159\n      swap1\n        /* \"Libs/Constants.sol\":515:516  1 */\n      0x01\n      swap1\n        /* \"Libs/Constants.sol\":503:516  _a.length - 1 */\n      tag_160\n      jump\t// in\n    tag_159:\n        /* \"Libs/Constants.sol\":499:500  i */\n      dup2\n        /* \"Libs/Constants.sol\":499:516  i < _a.length - 1 */\n      lt\n        /* \"Libs/Constants.sol\":474:567  for (uint i = uint(idx); i < _a.length - 1; i++) {... */\n      iszero\n      tag_157\n      jumpi\n        /* \"Libs/Constants.sol\":546:548  _a */\n      dup2\n        /* \"Libs/Constants.sol\":549:554  i + 1 */\n      tag_161\n        /* \"Libs/Constants.sol\":549:550  i */\n      dup3\n        /* \"Libs/Constants.sol\":553:554  1 */\n      0x01\n        /* \"Libs/Constants.sol\":549:554  i + 1 */\n      tag_162\n      jump\t// in\n    tag_161:\n        /* \"Libs/Constants.sol\":546:555  _a[i + 1] */\n      dup2\n      sload\n      dup2\n      lt\n      tag_164\n      jumpi\n      tag_164\n      tag_150\n      jump\t// in\n    tag_164:\n      swap1\n      0x00\n      mstore\n      keccak256(0x00, 0x20)\n      add\n      0x00\n      swap1\n      sload\n      swap1\n      0x0100\n      exp\n      swap1\n      div\n      sub(shl(0xa0, 0x01), 0x01)\n      and\n        /* \"Libs/Constants.sol\":538:540  _a */\n      dup3\n        /* \"Libs/Constants.sol\":541:542  i */\n      dup3\n        /* \"Libs/Constants.sol\":538:543  _a[i] */\n      dup2\n      sload\n      dup2\n      lt\n      tag_167\n      jumpi\n      tag_167\n      tag_150\n      jump\t// in\n    tag_167:\n      0x00\n      swap2\n      dup3\n      mstore\n      0x20\n      swap1\n      swap2\n      keccak256\n      add\n        /* \"Libs/Constants.sol\":538:555  _a[i] = _a[i + 1] */\n      dup1\n      sload\n      not(sub(shl(0xa0, 0x01), 0x01))\n      and\n      sub(shl(0xa0, 0x01), 0x01)\n      swap3\n      swap1\n      swap3\n      and\n      swap2\n      swap1\n      swap2\n      or\n      swap1\n      sstore\n      0x01\n        /* \"Libs/Constants.sol\":518:521  i++ */\n      add\n        /* \"Libs/Constants.sol\":474:567  for (uint i = uint(idx); i < _a.length - 1; i++) {... */\n      jump(tag_156)\n    tag_157:\n      pop\n        /* \"Libs/Constants.sol\":579:581  _a */\n      dup1\n        /* \"Libs/Constants.sol\":579:587  _a.pop() */\n      dup1\n      sload\n      dup1\n      tag_170\n      jumpi\n      tag_170\n      tag_171\n      jump\t// in\n    tag_170:\n      0x00\n      dup3\n      dup2\n      mstore\n      0x20\n      swap1\n      keccak256\n      dup2\n      add\n      not(0x00)\n      swap1\n      dup2\n      add\n      dup1\n      sload\n      not(sub(shl(0xa0, 0x01), 0x01))\n      and\n      swap1\n      sstore\n      add\n      swap1\n      sstore\n      pop\n      pop\n        /* \"Libs/Constants.sol\":336:595  function deleteAddressFrom(int idx, address[] storage _a) internal {... */\n      jump\t// out\n        /* \"#utility.yul\":388:674   */\n    tag_24:\n        /* \"#utility.yul\":447:453   */\n      0x00\n        /* \"#utility.yul\":500:502   */\n      0x20\n        /* \"#utility.yul\":488:497   */\n      dup3\n        /* \"#utility.yul\":479:486   */\n      dup5\n        /* \"#utility.yul\":475:498   */\n      sub\n        /* \"#utility.yul\":471:503   */\n      slt\n        /* \"#utility.yul\":468:520   */\n      iszero\n      tag_184\n      jumpi\n        /* \"#utility.yul\":516:517   */\n      0x00\n        /* \"#utility.yul\":513:514   */\n      dup1\n        /* \"#utility.yul\":506:518   */\n      revert\n        /* \"#utility.yul\":468:520   */\n    tag_184:\n        /* \"#utility.yul\":542:565   */\n      dup2\n      calldataload\n      sub(shl(0xa0, 0x01), 0x01)\n        /* \"#utility.yul\":594:625   */\n      dup2\n      and\n        /* \"#utility.yul\":584:626   */\n      dup2\n      eq\n        /* \"#utility.yul\":574:644   */\n      tag_185\n      jumpi\n        /* \"#utility.yul\":640:641   */\n      0x00\n        /* \"#utility.yul\":637:638   */\n      dup1\n        /* \"#utility.yul\":630:642   */\n      revert\n        /* \"#utility.yul\":574:644   */\n    tag_185:\n        /* \"#utility.yul\":663:668   */\n      swap4\n        /* \"#utility.yul\":388:674   */\n      swap3\n      pop\n      pop\n      pop\n      jump\t// out\n        /* \"#utility.yul\":679:806   */\n    tag_173:\n        /* \"#utility.yul\":740:750   */\n      0x4e487b71\n        /* \"#utility.yul\":735:738   */\n      0xe0\n        /* \"#utility.yul\":731:751   */\n      shl\n        /* \"#utility.yul\":728:729   */\n      0x00\n        /* \"#utility.yul\":721:752   */\n      mstore\n        /* \"#utility.yul\":771:775   */\n      0x41\n        /* \"#utility.yul\":768:769   */\n      0x04\n        /* \"#utility.yul\":761:776   */\n      mstore\n        /* \"#utility.yul\":795:799   */\n      0x24\n        /* \"#utility.yul\":792:793   */\n      0x00\n        /* \"#utility.yul\":785:800   */\n      revert\n        /* \"#utility.yul\":811:1537   */\n    tag_174:\n        /* \"#utility.yul\":854:859   */\n      0x00\n        /* \"#utility.yul\":907:910   */\n      dup3\n        /* \"#utility.yul\":900:904   */\n      0x1f\n        /* \"#utility.yul\":892:898   */\n      dup4\n        /* \"#utility.yul\":888:905   */\n      add\n        /* \"#utility.yul\":884:911   */\n      slt\n        /* \"#utility.yul\":874:929   */\n      tag_188\n      jumpi\n        /* \"#utility.yul\":925:926   */\n      0x00\n        /* \"#utility.yul\":922:923   */\n      dup1\n        /* \"#utility.yul\":915:927   */\n      revert\n        /* \"#utility.yul\":874:929   */\n    tag_188:\n        /* \"#utility.yul\":952:972   */\n      dup2\n      calldataload\n      sub(shl(0x40, 0x01), 0x01)\n        /* \"#utility.yul\":984:1014   */\n      dup2\n      gt\n        /* \"#utility.yul\":981:1037   */\n      iszero\n      tag_190\n      jumpi\n        /* \"#utility.yul\":1017:1035   */\n      tag_190\n      tag_173\n      jump\t// in\n    tag_190:\n        /* \"#utility.yul\":1066:1068   */\n      0x40\n        /* \"#utility.yul\":1060:1069   */\n      mload\n        /* \"#utility.yul\":1158:1160   */\n      0x1f\n        /* \"#utility.yul\":1120:1137   */\n      dup3\n      add\n      not(0x1f)\n        /* \"#utility.yul\":1116:1147   */\n      swap1\n      dup2\n      and\n        /* \"#utility.yul\":1149:1151   */\n      0x3f\n        /* \"#utility.yul\":1112:1152   */\n      add\n        /* \"#utility.yul\":1108:1162   */\n      and\n        /* \"#utility.yul\":1096:1163   */\n      dup2\n      add\n      sub(shl(0x40, 0x01), 0x01)\n        /* \"#utility.yul\":1178:1212   */\n      dup2\n      gt\n        /* \"#utility.yul\":1214:1236   */\n      dup3\n      dup3\n      lt\n        /* \"#utility.yul\":1175:1237   */\n      or\n        /* \"#utility.yul\":1172:1260   */\n      iszero\n      tag_192\n      jumpi\n        /* \"#utility.yul\":1240:1258   */\n      tag_192\n      tag_173\n      jump\t// in\n    tag_192:\n        /* \"#utility.yul\":1276:1278   */\n      0x40\n        /* \"#utility.yul\":1269:1291   */\n      mstore\n        /* \"#utility.yul\":1300:1322   */\n      dup2\n      dup2\n      mstore\n        /* \"#utility.yul\":1341:1360   */\n      dup4\n      dup3\n      add\n        /* \"#utility.yul\":1362:1366   */\n      0x20\n        /* \"#utility.yul\":1337:1367   */\n      add\n        /* \"#utility.yul\":1334:1373   */\n      dup6\n      lt\n        /* \"#utility.yul\":1331:1390   */\n      iszero\n      tag_193\n      jumpi\n        /* \"#utility.yul\":1386:1387   */\n      0x00\n        /* \"#utility.yul\":1383:1384   */\n      dup1\n        /* \"#utility.yul\":1376:1388   */\n      revert\n        /* \"#utility.yul\":1331:1390   */\n    tag_193:\n        /* \"#utility.yul\":1450:1456   */\n      dup2\n        /* \"#utility.yul\":1443:1447   */\n      0x20\n        /* \"#utility.yul\":1435:1441   */\n      dup6\n        /* \"#utility.yul\":1431:1448   */\n      add\n        /* \"#utility.yul\":1424:1428   */\n      0x20\n        /* \"#utility.yul\":1416:1422   */\n      dup4\n        /* \"#utility.yul\":1412:1429   */\n      add\n        /* \"#utility.yul\":1399:1457   */\n      calldatacopy\n        /* \"#utility.yul\":1505:1506   */\n      0x00\n        /* \"#utility.yul\":1477:1496   */\n      swap2\n      dup2\n      add\n        /* \"#utility.yul\":1498:1502   */\n      0x20\n        /* \"#utility.yul\":1473:1503   */\n      add\n        /* \"#utility.yul\":1466:1507   */\n      swap2\n      swap1\n      swap2\n      mstore\n        /* \"#utility.yul\":1481:1487   */\n      swap4\n        /* \"#utility.yul\":811:1537   */\n      swap3\n      pop\n      pop\n      pop\n      jump\t// out\n        /* \"#utility.yul\":1542:2080   */\n    tag_28:\n        /* \"#utility.yul\":1630:1636   */\n      0x00\n        /* \"#utility.yul\":1638:1644   */\n      dup1\n        /* \"#utility.yul\":1691:1693   */\n      0x40\n        /* \"#utility.yul\":1679:1688   */\n      dup4\n        /* \"#utility.yul\":1670:1677   */\n      dup6\n        /* \"#utility.yul\":1666:1689   */\n      sub\n        /* \"#utility.yul\":1662:1694   */\n      slt\n        /* \"#utility.yul\":1659:1711   */\n      iszero\n      tag_195\n      jumpi\n        /* \"#utility.yul\":1707:1708   */\n      0x00\n        /* \"#utility.yul\":1704:1705   */\n      dup1\n        /* \"#utility.yul\":1697:1709   */\n      revert\n        /* \"#utility.yul\":1659:1711   */\n    tag_195:\n        /* \"#utility.yul\":1734:1757   */\n      dup3\n      calldataload\n      sub(shl(0x40, 0x01), 0x01)\n        /* \"#utility.yul\":1769:1799   */\n      dup2\n      gt\n        /* \"#utility.yul\":1766:1816   */\n      iszero\n      tag_196\n      jumpi\n        /* \"#utility.yul\":1812:1813   */\n      0x00\n        /* \"#utility.yul\":1809:1810   */\n      dup1\n        /* \"#utility.yul\":1802:1814   */\n      revert\n        /* \"#utility.yul\":1766:1816   */\n    tag_196:\n        /* \"#utility.yul\":1835:1885   */\n      tag_197\n        /* \"#utility.yul\":1877:1884   */\n      dup6\n        /* \"#utility.yul\":1868:1874   */\n      dup3\n        /* \"#utility.yul\":1857:1866   */\n      dup7\n        /* \"#utility.yul\":1853:1875   */\n      add\n        /* \"#utility.yul\":1835:1885   */\n      tag_174\n      jump\t// in\n    tag_197:\n        /* \"#utility.yul\":1825:1885   */\n      swap3\n      pop\n      pop\n        /* \"#utility.yul\":1938:1940   */\n      0x20\n        /* \"#utility.yul\":1923:1941   */\n      dup4\n      add\n        /* \"#utility.yul\":1910:1942   */\n      calldataload\n      sub(shl(0x40, 0x01), 0x01)\n        /* \"#utility.yul\":1954:1986   */\n      dup2\n      gt\n        /* \"#utility.yul\":1951:2003   */\n      iszero\n      tag_198\n      jumpi\n        /* \"#utility.yul\":1999:2000   */\n      0x00\n        /* \"#utility.yul\":1996:1997   */\n      dup1\n        /* \"#utility.yul\":1989:2001   */\n      revert\n        /* \"#utility.yul\":1951:2003   */\n    tag_198:\n        /* \"#utility.yul\":2022:2074   */\n      tag_199\n        /* \"#utility.yul\":2066:2073   */\n      dup6\n        /* \"#utility.yul\":2055:2063   */\n      dup3\n        /* \"#utility.yul\":2044:2053   */\n      dup7\n        /* \"#utility.yul\":2040:2064   */\n      add\n        /* \"#utility.yul\":2022:2074   */\n      tag_174\n      jump\t// in\n    tag_199:\n        /* \"#utility.yul\":2012:2074   */\n      swap2\n      pop\n      pop\n        /* \"#utility.yul\":1542:2080   */\n      swap3\n      pop\n      swap3\n      swap1\n      pop\n      jump\t// out\n        /* \"#utility.yul\":2085:2288   */\n    tag_33:\n      sub(shl(0xa0, 0x01), 0x01)\n        /* \"#utility.yul\":2249:2281   */\n      swap2\n      swap1\n      swap2\n      and\n        /* \"#utility.yul\":2231:2282   */\n      dup2\n      mstore\n        /* \"#utility.yul\":2219:2221   */\n      0x20\n        /* \"#utility.yul\":2204:2222   */\n      add\n      swap1\n        /* \"#utility.yul\":2085:2288   */\n      jump\t// out\n        /* \"#utility.yul\":2293:2930   */\n    tag_37:\n        /* \"#utility.yul\":2483:2485   */\n      0x20\n        /* \"#utility.yul\":2495:2516   */\n      dup1\n      dup3\n      mstore\n        /* \"#utility.yul\":2565:2578   */\n      dup3\n      mload\n        /* \"#utility.yul\":2468:2486   */\n      dup3\n      dup3\n      add\n        /* \"#utility.yul\":2587:2609   */\n      dup2\n      swap1\n      mstore\n        /* \"#utility.yul\":2435:2439   */\n      0x00\n      swap2\n        /* \"#utility.yul\":2666:2681   */\n      dup5\n      add\n      swap1\n        /* \"#utility.yul\":2640:2642   */\n      0x40\n        /* \"#utility.yul\":2625:2643   */\n      dup5\n      add\n      swap1\n        /* \"#utility.yul\":2435:2439   */\n      dup4\n        /* \"#utility.yul\":2709:2904   */\n    tag_202:\n        /* \"#utility.yul\":2723:2729   */\n      dup2\n        /* \"#utility.yul\":2720:2721   */\n      dup2\n        /* \"#utility.yul\":2717:2730   */\n      lt\n        /* \"#utility.yul\":2709:2904   */\n      iszero\n      tag_204\n      jumpi\n        /* \"#utility.yul\":2788:2801   */\n      dup4\n      mload\n      sub(shl(0xa0, 0x01), 0x01)\n        /* \"#utility.yul\":2784:2823   */\n      and\n        /* \"#utility.yul\":2772:2824   */\n      dup4\n      mstore\n        /* \"#utility.yul\":2853:2855   */\n      0x20\n        /* \"#utility.yul\":2879:2894   */\n      swap4\n      dup5\n      add\n      swap4\n        /* \"#utility.yul\":2844:2856   */\n      swap1\n      swap3\n      add\n      swap2\n        /* \"#utility.yul\":2820:2821   */\n      0x01\n        /* \"#utility.yul\":2738:2747   */\n      add\n        /* \"#utility.yul\":2709:2904   */\n      jump(tag_202)\n    tag_204:\n      pop\n        /* \"#utility.yul\":2921:2924   */\n      swap1\n      swap6\n        /* \"#utility.yul\":2293:2930   */\n      swap5\n      pop\n      pop\n      pop\n      pop\n      pop\n      jump\t// out\n        /* \"#utility.yul\":2935:3224   */\n    tag_175:\n        /* \"#utility.yul\":2977:2980   */\n      0x00\n        /* \"#utility.yul\":3015:3020   */\n      dup2\n        /* \"#utility.yul\":3009:3021   */\n      mload\n        /* \"#utility.yul\":3042:3048   */\n      dup1\n        /* \"#utility.yul\":3037:3040   */\n      dup5\n        /* \"#utility.yul\":3030:3049   */\n      mstore\n        /* \"#utility.yul\":3098:3104   */\n      dup1\n        /* \"#utility.yul\":3091:3095   */\n      0x20\n        /* \"#utility.yul\":3084:3089   */\n      dup5\n        /* \"#utility.yul\":3080:3096   */\n      add\n        /* \"#utility.yul\":3073:3077   */\n      0x20\n        /* \"#utility.yul\":3068:3071   */\n      dup7\n        /* \"#utility.yul\":3064:3078   */\n      add\n        /* \"#utility.yul\":3058:3105   */\n      mcopy\n        /* \"#utility.yul\":3150:3151   */\n      0x00\n        /* \"#utility.yul\":3143:3147   */\n      0x20\n        /* \"#utility.yul\":3134:3140   */\n      dup3\n        /* \"#utility.yul\":3129:3132   */\n      dup7\n        /* \"#utility.yul\":3125:3141   */\n      add\n        /* \"#utility.yul\":3121:3148   */\n      add\n        /* \"#utility.yul\":3114:3152   */\n      mstore\n        /* \"#utility.yul\":3213:3217   */\n      0x20\n        /* \"#utility.yul\":3206:3208   */\n      0x1f\n        /* \"#utility.yul\":3202:3209   */\n      not\n        /* \"#utility.yul\":3197:3199   */\n      0x1f\n        /* \"#utility.yul\":3189:3195   */\n      dup4\n        /* \"#utility.yul\":3185:3200   */\n      add\n        /* \"#utility.yul\":3181:3210   */\n      and\n        /* \"#utility.yul\":3176:3179   */\n      dup6\n        /* \"#utility.yul\":3172:3211   */\n      add\n        /* \"#utility.yul\":3168:3218   */\n      add\n        /* \"#utility.yul\":3161:3218   */\n      swap2\n      pop\n      pop\n        /* \"#utility.yul\":2935:3224   */\n      swap3\n      swap2\n      pop\n      pop\n      jump\t// out\n        /* \"#utility.yul\":3229:3612   */\n    tag_44:\n        /* \"#utility.yul\":3426:3428   */\n      0x40\n        /* \"#utility.yul\":3415:3424   */\n      dup2\n        /* \"#utility.yul\":3408:3429   */\n      mstore\n        /* \"#utility.yul\":3389:3393   */\n      0x00\n        /* \"#utility.yul\":3452:3497   */\n      tag_207\n        /* \"#utility.yul\":3493:3495   */\n      0x40\n        /* \"#utility.yul\":3482:3491   */\n      dup4\n        /* \"#utility.yul\":3478:3496   */\n      add\n        /* \"#utility.yul\":3470:3476   */\n      dup6\n        /* \"#utility.yul\":3452:3497   */\n      tag_175\n      jump\t// in\n    tag_207:\n        /* \"#utility.yul\":3545:3554   */\n      dup3\n        /* \"#utility.yul\":3537:3543   */\n      dup2\n        /* \"#utility.yul\":3533:3555   */\n      sub\n        /* \"#utility.yul\":3528:3530   */\n      0x20\n        /* \"#utility.yul\":3517:3526   */\n      dup5\n        /* \"#utility.yul\":3513:3531   */\n      add\n        /* \"#utility.yul\":3506:3556   */\n      mstore\n        /* \"#utility.yul\":3573:3606   */\n      tag_208\n        /* \"#utility.yul\":3599:3605   */\n      dup2\n        /* \"#utility.yul\":3591:3597   */\n      dup6\n        /* \"#utility.yul\":3573:3606   */\n      tag_175\n      jump\t// in\n    tag_208:\n        /* \"#utility.yul\":3565:3606   */\n      swap6\n        /* \"#utility.yul\":3229:3612   */\n      swap5\n      pop\n      pop\n      pop\n      pop\n      pop\n      jump\t// out\n        /* \"#utility.yul\":3617:3939   */\n    tag_47:\n        /* \"#utility.yul\":3686:3692   */\n      0x00\n        /* \"#utility.yul\":3739:3741   */\n      0x20\n        /* \"#utility.yul\":3727:3736   */\n      dup3\n        /* \"#utility.yul\":3718:3725   */\n      dup5\n        /* \"#utility.yul\":3714:3737   */\n      sub\n        /* \"#utility.yul\":3710:3742   */\n      slt\n        /* \"#utility.yul\":3707:3759   */\n      iszero\n      tag_210\n      jumpi\n        /* \"#utility.yul\":3755:3756   */\n      0x00\n        /* \"#utility.yul\":3752:3753   */\n      dup1\n        /* \"#utility.yul\":3745:3757   */\n      revert\n        /* \"#utility.yul\":3707:3759   */\n    tag_210:\n        /* \"#utility.yul\":3782:3805   */\n      dup2\n      calldataload\n      sub(shl(0x40, 0x01), 0x01)\n        /* \"#utility.yul\":3817:3847   */\n      dup2\n      gt\n        /* \"#utility.yul\":3814:3864   */\n      iszero\n      tag_211\n      jumpi\n        /* \"#utility.yul\":3860:3861   */\n      0x00\n        /* \"#utility.yul\":3857:3858   */\n      dup1\n        /* \"#utility.yul\":3850:3862   */\n      revert\n        /* \"#utility.yul\":3814:3864   */\n    tag_211:\n        /* \"#utility.yul\":3883:3933   */\n      tag_212\n        /* \"#utility.yul\":3925:3932   */\n      dup5\n        /* \"#utility.yul\":3916:3922   */\n      dup3\n        /* \"#utility.yul\":3905:3914   */\n      dup6\n        /* \"#utility.yul\":3901:3923   */\n      add\n        /* \"#utility.yul\":3883:3933   */\n      tag_174\n      jump\t// in\n    tag_212:\n        /* \"#utility.yul\":3873:3933   */\n      swap5\n        /* \"#utility.yul\":3617:3939   */\n      swap4\n      pop\n      pop\n      pop\n      pop\n      jump\t// out\n        /* \"#utility.yul\":3944:4270   */\n    tag_64:\n        /* \"#utility.yul\":4146:4148   */\n      0x20\n        /* \"#utility.yul\":4128:4149   */\n      dup1\n      dup3\n      mstore\n        /* \"#utility.yul\":4185:4186   */\n      0x03\n        /* \"#utility.yul\":4165:4183   */\n      swap1\n      dup3\n      add\n        /* \"#utility.yul\":4158:4187   */\n      mstore\n      shl(0xe8, 0x343033)\n        /* \"#utility.yul\":4218:4220   */\n      0x40\n        /* \"#utility.yul\":4203:4221   */\n      dup3\n      add\n        /* \"#utility.yul\":4196:4229   */\n      mstore\n        /* \"#utility.yul\":4261:4263   */\n      0x60\n        /* \"#utility.yul\":4246:4264   */\n      add\n      swap1\n        /* \"#utility.yul\":3944:4270   */\n      jump\t// out\n        /* \"#utility.yul\":4275:4655   */\n    tag_106:\n        /* \"#utility.yul\":4354:4355   */\n      0x01\n        /* \"#utility.yul\":4350:4362   */\n      dup2\n      dup2\n      shr\n      swap1\n        /* \"#utility.yul\":4397:4409   */\n      dup3\n      and\n      dup1\n        /* \"#utility.yul\":4418:4479   */\n      tag_215\n      jumpi\n        /* \"#utility.yul\":4472:4476   */\n      0x7f\n        /* \"#utility.yul\":4464:4470   */\n      dup3\n        /* \"#utility.yul\":4460:4477   */\n      and\n        /* \"#utility.yul\":4450:4477   */\n      swap2\n      pop\n        /* \"#utility.yul\":4418:4479   */\n    tag_215:\n        /* \"#utility.yul\":4525:4527   */\n      0x20\n        /* \"#utility.yul\":4517:4523   */\n      dup3\n        /* \"#utility.yul\":4514:4528   */\n      lt\n        /* \"#utility.yul\":4494:4512   */\n      dup2\n        /* \"#utility.yul\":4491:4529   */\n      sub\n        /* \"#utility.yul\":4488:4649   */\n      tag_216\n      jumpi\n        /* \"#utility.yul\":4571:4581   */\n      0x4e487b71\n        /* \"#utility.yul\":4566:4569   */\n      0xe0\n        /* \"#utility.yul\":4562:4582   */\n      shl\n        /* \"#utility.yul\":4559:4560   */\n      0x00\n        /* \"#utility.yul\":4552:4583   */\n      mstore\n        /* \"#utility.yul\":4606:4610   */\n      0x22\n        /* \"#utility.yul\":4603:4604   */\n      0x04\n        /* \"#utility.yul\":4596:4611   */\n      mstore\n        /* \"#utility.yul\":4634:4638   */\n      0x24\n        /* \"#utility.yul\":4631:4632   */\n      0x00\n        /* \"#utility.yul\":4624:4639   */\n      revert\n        /* \"#utility.yul\":4488:4649   */\n    tag_216:\n      pop\n        /* \"#utility.yul\":4275:4655   */\n      swap2\n      swap1\n      pop\n      jump\t// out\n        /* \"#utility.yul\":4786:5304   */\n    tag_177:\n        /* \"#utility.yul\":4888:4890   */\n      0x1f\n        /* \"#utility.yul\":4883:4886   */\n      dup3\n        /* \"#utility.yul\":4880:4891   */\n      gt\n        /* \"#utility.yul\":4877:5298   */\n      iszero\n      tag_219\n      jumpi\n        /* \"#utility.yul\":4924:4929   */\n      dup1\n        /* \"#utility.yul\":4921:4922   */\n      0x00\n        /* \"#utility.yul\":4914:4930   */\n      mstore\n        /* \"#utility.yul\":4968:4972   */\n      0x20\n        /* \"#utility.yul\":4965:4966   */\n      0x00\n        /* \"#utility.yul\":4955:4973   */\n      keccak256\n        /* \"#utility.yul\":5038:5040   */\n      0x1f\n        /* \"#utility.yul\":5026:5036   */\n      dup5\n        /* \"#utility.yul\":5022:5041   */\n      add\n        /* \"#utility.yul\":5019:5020   */\n      0x05\n        /* \"#utility.yul\":5015:5042   */\n      shr\n        /* \"#utility.yul\":5009:5013   */\n      dup2\n        /* \"#utility.yul\":5005:5043   */\n      add\n        /* \"#utility.yul\":5074:5078   */\n      0x20\n        /* \"#utility.yul\":5062:5072   */\n      dup6\n        /* \"#utility.yul\":5059:5079   */\n      lt\n        /* \"#utility.yul\":5056:5103   */\n      iszero\n      tag_220\n      jumpi\n      pop\n        /* \"#utility.yul\":5097:5101   */\n      dup1\n        /* \"#utility.yul\":5056:5103   */\n    tag_220:\n        /* \"#utility.yul\":5152:5154   */\n      0x1f\n        /* \"#utility.yul\":5147:5150   */\n      dup5\n        /* \"#utility.yul\":5143:5155   */\n      add\n        /* \"#utility.yul\":5140:5141   */\n      0x05\n        /* \"#utility.yul\":5136:5156   */\n      shr\n        /* \"#utility.yul\":5130:5134   */\n      dup3\n        /* \"#utility.yul\":5126:5157   */\n      add\n        /* \"#utility.yul\":5116:5157   */\n      swap2\n      pop\n        /* \"#utility.yul\":5207:5288   */\n    tag_221:\n        /* \"#utility.yul\":5225:5227   */\n      dup2\n        /* \"#utility.yul\":5218:5223   */\n      dup2\n        /* \"#utility.yul\":5215:5228   */\n      lt\n        /* \"#utility.yul\":5207:5288   */\n      iszero\n      tag_223\n      jumpi\n        /* \"#utility.yul\":5284:5285   */\n      0x00\n        /* \"#utility.yul\":5270:5286   */\n      dup2\n      sstore\n        /* \"#utility.yul\":5251:5252   */\n      0x01\n        /* \"#utility.yul\":5240:5253   */\n      add\n        /* \"#utility.yul\":5207:5288   */\n      jump(tag_221)\n    tag_223:\n        /* \"#utility.yul\":5211:5214   */\n      pop\n      pop\n        /* \"#utility.yul\":4877:5298   */\n    tag_219:\n        /* \"#utility.yul\":4786:5304   */\n      pop\n      pop\n      pop\n      jump\t// out\n        /* \"#utility.yul\":5480:6779   */\n    tag_80:\n        /* \"#utility.yul\":5600:5610   */\n      dup2\n      mload\n      sub(shl(0x40, 0x01), 0x01)\n        /* \"#utility.yul\":5622:5652   */\n      dup2\n      gt\n        /* \"#utility.yul\":5619:5675   */\n      iszero\n      tag_227\n      jumpi\n        /* \"#utility.yul\":5655:5673   */\n      tag_227\n      tag_173\n      jump\t// in\n    tag_227:\n        /* \"#utility.yul\":5684:5781   */\n      tag_228\n        /* \"#utility.yul\":5774:5780   */\n      dup2\n        /* \"#utility.yul\":5734:5772   */\n      tag_229\n        /* \"#utility.yul\":5766:5770   */\n      dup5\n        /* \"#utility.yul\":5760:5771   */\n      sload\n        /* \"#utility.yul\":5734:5772   */\n      tag_106\n      jump\t// in\n    tag_229:\n        /* \"#utility.yul\":5728:5732   */\n      dup5\n        /* \"#utility.yul\":5684:5781   */\n      tag_177\n      jump\t// in\n    tag_228:\n        /* \"#utility.yul\":5830:5834   */\n      0x20\n        /* \"#utility.yul\":5861:5863   */\n      0x1f\n        /* \"#utility.yul\":5850:5864   */\n      dup3\n      gt\n        /* \"#utility.yul\":5878:5879   */\n      0x01\n        /* \"#utility.yul\":5873:6522   */\n      dup2\n      eq\n      tag_231\n      jumpi\n        /* \"#utility.yul\":6566:6567   */\n      0x00\n        /* \"#utility.yul\":6583:6589   */\n      dup4\n        /* \"#utility.yul\":6580:6669   */\n      iszero\n      tag_232\n      jumpi\n      pop\n        /* \"#utility.yul\":6635:6654   */\n      dup5\n      dup3\n      add\n        /* \"#utility.yul\":6629:6655   */\n      mload\n        /* \"#utility.yul\":6580:6669   */\n    tag_232:\n      not(0x00)\n        /* \"#utility.yul\":5437:5438   */\n      0x03\n        /* \"#utility.yul\":5433:5444   */\n      dup6\n      swap1\n      shl\n        /* \"#utility.yul\":5429:5453   */\n      shr\n        /* \"#utility.yul\":5425:5454   */\n      not\n        /* \"#utility.yul\":5415:5455   */\n      and\n        /* \"#utility.yul\":5461:5462   */\n      0x01\n        /* \"#utility.yul\":5457:5468   */\n      dup5\n      swap1\n      shl\n        /* \"#utility.yul\":5412:5469   */\n      or\n        /* \"#utility.yul\":6682:6763   */\n      dup5\n      sstore\n        /* \"#utility.yul\":5843:6773   */\n      jump(tag_223)\n        /* \"#utility.yul\":5873:6522   */\n    tag_231:\n        /* \"#utility.yul\":4733:4734   */\n      0x00\n        /* \"#utility.yul\":4726:4740   */\n      dup5\n      dup2\n      mstore\n        /* \"#utility.yul\":4770:4774   */\n      0x20\n        /* \"#utility.yul\":4757:4775   */\n      dup2\n      keccak256\n      not(0x1f)\n        /* \"#utility.yul\":5909:5929   */\n      dup6\n      and\n      swap2\n        /* \"#utility.yul\":6027:6249   */\n    tag_235:\n        /* \"#utility.yul\":6041:6048   */\n      dup3\n        /* \"#utility.yul\":6038:6039   */\n      dup2\n        /* \"#utility.yul\":6035:6049   */\n      lt\n        /* \"#utility.yul\":6027:6249   */\n      iszero\n      tag_237\n      jumpi\n        /* \"#utility.yul\":6123:6142   */\n      dup8\n      dup6\n      add\n        /* \"#utility.yul\":6117:6143   */\n      mload\n        /* \"#utility.yul\":6102:6144   */\n      dup3\n      sstore\n        /* \"#utility.yul\":6230:6234   */\n      0x20\n        /* \"#utility.yul\":6215:6235   */\n      swap5\n      dup6\n      add\n      swap5\n        /* \"#utility.yul\":6183:6184   */\n      0x01\n        /* \"#utility.yul\":6171:6185   */\n      swap1\n      swap3\n      add\n      swap2\n        /* \"#utility.yul\":6057:6069   */\n      add\n        /* \"#utility.yul\":6027:6249   */\n      jump(tag_235)\n    tag_237:\n        /* \"#utility.yul\":6031:6034   */\n      pop\n        /* \"#utility.yul\":6277:6283   */\n      dup5\n        /* \"#utility.yul\":6268:6275   */\n      dup3\n        /* \"#utility.yul\":6265:6284   */\n      lt\n        /* \"#utility.yul\":6262:6463   */\n      iszero\n      tag_238\n      jumpi\n        /* \"#utility.yul\":6338:6357   */\n      dup7\n      dup5\n      add\n        /* \"#utility.yul\":6332:6358   */\n      mload\n      not(0x00)\n        /* \"#utility.yul\":6421:6422   */\n      0x03\n        /* \"#utility.yul\":6417:6431   */\n      dup8\n      swap1\n      shl\n        /* \"#utility.yul\":6433:6436   */\n      0xf8\n        /* \"#utility.yul\":6413:6437   */\n      and\n        /* \"#utility.yul\":6409:6446   */\n      shr\n        /* \"#utility.yul\":6405:6447   */\n      not\n        /* \"#utility.yul\":6390:6448   */\n      and\n        /* \"#utility.yul\":6375:6449   */\n      dup2\n      sstore\n        /* \"#utility.yul\":6262:6463   */\n    tag_238:\n      pop\n      pop\n      pop\n      pop\n        /* \"#utility.yul\":6509:6510   */\n      0x01\n        /* \"#utility.yul\":6493:6507   */\n      swap1\n      dup2\n      shl\n        /* \"#utility.yul\":6489:6511   */\n      add\n        /* \"#utility.yul\":6476:6512   */\n      swap1\n      sstore\n      pop\n        /* \"#utility.yul\":5480:6779   */\n      jump\t// out\n        /* \"#utility.yul\":6784:7110   */\n    tag_134:\n        /* \"#utility.yul\":6986:6988   */\n      0x20\n        /* \"#utility.yul\":6968:6989   */\n      dup1\n      dup3\n      mstore\n        /* \"#utility.yul\":7025:7026   */\n      0x03\n        /* \"#utility.yul\":7005:7023   */\n      swap1\n      dup3\n      add\n        /* \"#utility.yul\":6998:7027   */\n      mstore\n      shl(0xea, 0x0d0c0d)\n        /* \"#utility.yul\":7058:7060   */\n      0x40\n        /* \"#utility.yul\":7043:7061   */\n      dup3\n      add\n        /* \"#utility.yul\":7036:7069   */\n      mstore\n        /* \"#utility.yul\":7101:7103   */\n      0x60\n        /* \"#utility.yul\":7086:7104   */\n      add\n      swap1\n        /* \"#utility.yul\":6784:7110   */\n      jump\t// out\n        /* \"#utility.yul\":7115:7242   */\n    tag_150:\n        /* \"#utility.yul\":7176:7186   */\n      0x4e487b71\n        /* \"#utility.yul\":7171:7174   */\n      0xe0\n        /* \"#utility.yul\":7167:7187   */\n      shl\n        /* \"#utility.yul\":7164:7165   */\n      0x00\n        /* \"#utility.yul\":7157:7188   */\n      mstore\n        /* \"#utility.yul\":7207:7211   */\n      0x32\n        /* \"#utility.yul\":7204:7205   */\n      0x04\n        /* \"#utility.yul\":7197:7212   */\n      mstore\n        /* \"#utility.yul\":7231:7235   */\n      0x24\n        /* \"#utility.yul\":7228:7229   */\n      0x00\n        /* \"#utility.yul\":7221:7236   */\n      revert\n        /* \"#utility.yul\":7247:7374   */\n    tag_179:\n        /* \"#utility.yul\":7308:7318   */\n      0x4e487b71\n        /* \"#utility.yul\":7303:7306   */\n      0xe0\n        /* \"#utility.yul\":7299:7319   */\n      shl\n        /* \"#utility.yul\":7296:7297   */\n      0x00\n        /* \"#utility.yul\":7289:7320   */\n      mstore\n        /* \"#utility.yul\":7339:7343   */\n      0x11\n        /* \"#utility.yul\":7336:7337   */\n      0x04\n        /* \"#utility.yul\":7329:7344   */\n      mstore\n        /* \"#utility.yul\":7363:7367   */\n      0x24\n        /* \"#utility.yul\":7360:7361   */\n      0x00\n        /* \"#utility.yul\":7353:7368   */\n      revert\n        /* \"#utility.yul\":7379:7507   */\n    tag_160:\n        /* \"#utility.yul\":7446:7455   */\n      dup2\n      dup2\n      sub\n        /* \"#utility.yul\":7467:7478   */\n      dup2\n      dup2\n      gt\n        /* \"#utility.yul\":7464:7501   */\n      iszero\n      tag_144\n      jumpi\n        /* \"#utility.yul\":7481:7499   */\n      tag_144\n      tag_179\n      jump\t// in\n        /* \"#utility.yul\":7512:7637   */\n    tag_162:\n        /* \"#utility.yul\":7577:7586   */\n      dup1\n      dup3\n      add\n        /* \"#utility.yul\":7598:7608   */\n      dup1\n      dup3\n      gt\n        /* \"#utility.yul\":7595:7631   */\n      iszero\n      tag_144\n      jumpi\n        /* \"#utility.yul\":7611:7629   */\n      tag_144\n      tag_179\n      jump\t// in\n        /* \"#utility.yul\":7642:7769   */\n    tag_171:\n        /* \"#utility.yul\":7703:7713   */\n      0x4e487b71\n        /* \"#utility.yul\":7698:7701   */\n      0xe0\n        /* \"#utility.yul\":7694:7714   */\n      shl\n        /* \"#utility.yul\":7691:7692   */\n      0x00\n        /* \"#utility.yul\":7684:7715   */\n      mstore\n        /* \"#utility.yul\":7734:7738   */\n      0x31\n        /* \"#utility.yul\":7731:7732   */\n      0x04\n        /* \"#utility.yul\":7724:7739   */\n      mstore\n        /* \"#utility.yul\":7758:7762   */\n      0x24\n        /* \"#utility.yul\":7755:7756   */\n      0x00\n        /* \"#utility.yul\":7748:7763   */\n      revert\n    stop\n    data_2c67c2ea5f0acf1af63e6d21f70491caaa8c297045be1c6ee3e9b1d07edcb366 e00da2178806f37f69815e9ed5ed3072ec1d55206d60916d99b469c7daa421e4\n\n    auxdata: 0xa2646970667358221220d8cdb8847f5deee7c900ef1fcaf4419652b659fba908421937fb1f4debd86b9064736f6c634300081a0033\n}\n",
				"bytecode": {
					"linkReferences": {},
					"object": "608060405234801561000f575f80fd5b5060405161113e38038061113e83398101604081905261002e916101a3565b5f60018190558483838361004284826102ac565b50600280546001600160a01b039384166001600160a01b03199182161790915560038054929093169116179055506005905061007e84826102ac565b50600280546001600160a01b038481166001600160a01b03199283161790925560038054928416929091169190911790556040513381527f1449abf21e49fd025f33495e77f7b1461caefdd3d4bb646424a3f445c4576a5b9060200160405180910390a150505050610366565b634e487b7160e01b5f52604160045260245ffd5b5f82601f83011261010e575f80fd5b81516001600160401b03811115610127576101276100eb565b604051601f8201601f19908116603f011681016001600160401b0381118282101715610155576101556100eb565b60405281815283820160200185101561016c575f80fd5b8160208501602083015e5f918101602001919091529392505050565b80516001600160a01b038116811461019e575f80fd5b919050565b5f805f80608085870312156101b6575f80fd5b84516001600160401b038111156101cb575f80fd5b6101d7878288016100ff565b602087015190955090506001600160401b038111156101f4575f80fd5b610200878288016100ff565b93505061020f60408601610188565b915061021d60608601610188565b905092959194509250565b600181811c9082168061023c57607f821691505b60208210810361025a57634e487b7160e01b5f52602260045260245ffd5b50919050565b601f8211156102a757805f5260205f20601f840160051c810160208510156102855750805b601f840160051c820191505b818110156102a4575f8155600101610291565b50505b505050565b81516001600160401b038111156102c5576102c56100eb565b6102d9816102d38454610228565b84610260565b6020601f82116001811461030b575f83156102f45750848201515b5f19600385901b1c1916600184901b1784556102a4565b5f84815260208120601f198516915b8281101561033a578785015182556020948501946001909201910161031a565b508482101561035757868401515f19600387901b60f8161c191681555b50505050600190811b01905550565b610dcb806103735f395ff3fe608060405234801561000f575f80fd5b5060043610610097575f3560e01c806326c7b3271461009b5780634ba83374146100b75780635da6ef8d146100cf5780637a4c982e146100e457806380f76021146100f7578063a95264d01461010c578063b9daf3e214610121578063ba379e8614610129578063c47f00271461013f578063ded92dac14610152578063efd8af9f14610165575b5f80fd5b6100a460015481565b6040519081526020015b60405180910390f35b6100bf610178565b60405190151581526020016100ae565b6100e26100dd36600461097b565b6101e4565b005b6100e26100f2366004610a45565b61032a565b6100ff6103aa565b6040516100ae9190610aa8565b6101146103fb565b6040516100ae9190610abc565b6100bf61049b565b6101316104c5565b6040516100ae929190610b35565b6100e261014d366004610b62565b61067e565b6100e261016036600461097b565b6106f0565b6100e2610173366004610b62565b6107e6565b5f6101db3360048054806020026020016040519081016040528092919081815260200182805480156101d157602002820191905f5260205f20905b81546001600160a01b031681526001909101906020018083116101b3575b5050505050610831565b5f191415905090565b6002546001600160a01b031633148061020757506003546001600160a01b031633145b61022c5760405162461bcd60e51b815260040161022390610b9b565b60405180910390fd5b6002546001600160a01b0382811691161480159061025257506001600160a01b03811615155b80156102bd57506102b98160048054806020026020016040519081016040528092919081815260200182805480156101d157602002820191905f5260205f209081546001600160a01b031681526001909101906020018083116101b3575050505050610831565b5f19145b6102d95760405162461bcd60e51b815260040161022390610b9b565b600480546001810182555f919091527f8a35acfbc15ff81a39ae7d344fd709f28e8600b4aa8c65c6b64bfe7fe36bd19b0180546001600160a01b0319166001600160a01b0392909216919091179055565b6002546001600160a01b031633148061034d57506003546001600160a01b031633145b6103695760405162461bcd60e51b815260040161022390610b9b565b5f6103748382610c3c565b5060056103818282610c3c565b505f80516020610d768339815191523360405161039e9190610aa8565b60405180910390a15050565b6002545f906001600160a01b03163314806103cf57506003546001600160a01b031633145b6103eb5760405162461bcd60e51b815260040161022390610b9b565b506003546001600160a01b031690565b6002546060906001600160a01b031633148061042157506003546001600160a01b031633145b61043d5760405162461bcd60e51b815260040161022390610b9b565b600480548060200260200160405190810160405280929190818152602001828054801561049157602002820191905f5260205f20905b81546001600160a01b03168152600190910190602001808311610473575b5050505050905090565b6002545f906001600160a01b03163314806104c057506003546001600160a01b031633145b905090565b60025460609081906001600160a01b0316331480610543575061053e3360048054806020026020016040519081016040528092919081815260200182805480156101d157602002820191905f5260205f209081546001600160a01b031681526001909101906020018083116101b3575050505050610831565b5f1914155b61055f5760405162461bcd60e51b815260040161022390610b9b565b5f600581805461056e90610bb8565b80601f016020809104026020016040519081016040528092919081815260200182805461059a90610bb8565b80156105e55780601f106105bc576101008083540402835291602001916105e5565b820191905f5260205f20905b8154815290600101906020018083116105c857829003601f168201915b505050505091508080546105f890610bb8565b80601f016020809104026020016040519081016040528092919081815260200182805461062490610bb8565b801561066f5780601f106106465761010080835404028352916020019161066f565b820191905f5260205f20905b81548152906001019060200180831161065257829003601f168201915b50505050509050915091509091565b6002546001600160a01b03163314806106a157506003546001600160a01b031633145b6106bd5760405162461bcd60e51b815260040161022390610b9b565b5f6106c88282610c3c565b505f80516020610d76833981519152336040516106e59190610aa8565b60405180910390a150565b6001600160a01b03811615158061073857506003546001600160a01b031633148061072557506002546001600160a01b031633145b806107385750336001600160a01b038216145b6107545760405162461bcd60e51b815260040161022390610b9b565b5f6107b58260048054806020026020016040519081016040528092919081815260200182805480156101d157602002820191905f5260205f209081546001600160a01b031681526001909101906020018083116101b3575050505050610831565b90505f1981136107d75760405162461bcd60e51b815260040161022390610cf6565b6107e281600461088a565b5050565b6002546001600160a01b031633148061080957506003546001600160a01b031633145b6108255760405162461bcd60e51b815260040161022390610b9b565b60056106c88282610c3c565b5f805b825181101561087e57836001600160a01b031683828151811061085957610859610d13565b60200260200101516001600160a01b031603610876579050610884565b600101610834565b505f1990505b92915050565b5f821215801561089a5750805482105b6108b65760405162461bcd60e51b815260040161022390610cf6565b815b81546108c690600190610d3b565b81101561094657816108d9826001610d4e565b815481106108e9576108e9610d13565b905f5260205f20015f9054906101000a90046001600160a01b031682828154811061091657610916610d13565b5f91825260209091200180546001600160a01b0319166001600160a01b03929092169190911790556001016108b8565b508080548061095757610957610d61565b5f8281526020902081015f1990810180546001600160a01b03191690550190555050565b5f6020828403121561098b575f80fd5b81356001600160a01b03811681146109a1575f80fd5b9392505050565b634e487b7160e01b5f52604160045260245ffd5b5f82601f8301126109cb575f80fd5b81356001600160401b038111156109e4576109e46109a8565b604051601f8201601f19908116603f011681016001600160401b0381118282101715610a1257610a126109a8565b604052818152838201602001851015610a29575f80fd5b816020850160208301375f918101602001919091529392505050565b5f8060408385031215610a56575f80fd5b82356001600160401b03811115610a6b575f80fd5b610a77858286016109bc565b92505060208301356001600160401b03811115610a92575f80fd5b610a9e858286016109bc565b9150509250929050565b6001600160a01b0391909116815260200190565b602080825282518282018190525f918401906040840190835b81811015610afc5783516001600160a01b0316835260209384019390920191600101610ad5565b509095945050505050565b5f81518084528060208401602086015e5f602082860101526020601f19601f83011685010191505092915050565b604081525f610b476040830185610b07565b8281036020840152610b598185610b07565b95945050505050565b5f60208284031215610b72575f80fd5b81356001600160401b03811115610b87575f80fd5b610b93848285016109bc565b949350505050565b60208082526003908201526234303360e81b604082015260600190565b600181811c90821680610bcc57607f821691505b602082108103610bea57634e487b7160e01b5f52602260045260245ffd5b50919050565b601f821115610c3757805f5260205f20601f840160051c81016020851015610c155750805b601f840160051c820191505b81811015610c34575f8155600101610c21565b50505b505050565b81516001600160401b03811115610c5557610c556109a8565b610c6981610c638454610bb8565b84610bf0565b6020601f821160018114610c9b575f8315610c845750848201515b5f19600385901b1c1916600184901b178455610c34565b5f84815260208120601f198516915b82811015610cca5787850151825560209485019460019092019101610caa565b5084821015610ce757868401515f19600387901b60f8161c191681555b50505050600190811b01905550565b6020808252600390820152620d0c0d60ea1b604082015260600190565b634e487b7160e01b5f52603260045260245ffd5b634e487b7160e01b5f52601160045260245ffd5b8181038181111561088457610884610d27565b8082018082111561088457610884610d27565b634e487b7160e01b5f52603160045260245ffdfee00da2178806f37f69815e9ed5ed3072ec1d55206d60916d99b469c7daa421e4a2646970667358221220d8cdb8847f5deee7c900ef1fcaf4419652b659fba908421937fb1f4debd86b9064736f6c634300081a0033",
					"opcodes": "PUSH1 0x80 PUSH1 0x40 MSTORE CALLVALUE DUP1 ISZERO PUSH2 0xF JUMPI PUSH0 DUP1 REVERT JUMPDEST POP PUSH1 0x40 MLOAD PUSH2 0x113E CODESIZE SUB DUP1 PUSH2 0x113E DUP4 CODECOPY DUP2 ADD PUSH1 0x40 DUP2 SWAP1 MSTORE PUSH2 0x2E SWAP2 PUSH2 0x1A3 JUMP JUMPDEST PUSH0 PUSH1 0x1 DUP2 SWAP1 SSTORE DUP5 DUP4 DUP4 DUP4 PUSH2 0x42 DUP5 DUP3 PUSH2 0x2AC JUMP JUMPDEST POP PUSH1 0x2 DUP1 SLOAD PUSH1 0x1 PUSH1 0x1 PUSH1 0xA0 SHL SUB SWAP4 DUP5 AND PUSH1 0x1 PUSH1 0x1 PUSH1 0xA0 SHL SUB NOT SWAP2 DUP3 AND OR SWAP1 SWAP2 SSTORE PUSH1 0x3 DUP1 SLOAD SWAP3 SWAP1 SWAP4 AND SWAP2 AND OR SWAP1 SSTORE POP PUSH1 0x5 SWAP1 POP PUSH2 0x7E DUP5 DUP3 PUSH2 0x2AC JUMP JUMPDEST POP PUSH1 0x2 DUP1 SLOAD PUSH1 0x1 PUSH1 0x1 PUSH1 0xA0 SHL SUB DUP5 DUP2 AND PUSH1 0x1 PUSH1 0x1 PUSH1 0xA0 SHL SUB NOT SWAP3 DUP4 AND OR SWAP1 SWAP3 SSTORE PUSH1 0x3 DUP1 SLOAD SWAP3 DUP5 AND SWAP3 SWAP1 SWAP2 AND SWAP2 SWAP1 SWAP2 OR SWAP1 SSTORE PUSH1 0x40 MLOAD CALLER DUP2 MSTORE PUSH32 0x1449ABF21E49FD025F33495E77F7B1461CAEFDD3D4BB646424A3F445C4576A5B SWAP1 PUSH1 0x20 ADD PUSH1 0x40 MLOAD DUP1 SWAP2 SUB SWAP1 LOG1 POP POP POP POP PUSH2 0x366 JUMP JUMPDEST PUSH4 0x4E487B71 PUSH1 0xE0 SHL PUSH0 MSTORE PUSH1 0x41 PUSH1 0x4 MSTORE PUSH1 0x24 PUSH0 REVERT JUMPDEST PUSH0 DUP3 PUSH1 0x1F DUP4 ADD SLT PUSH2 0x10E JUMPI PUSH0 DUP1 REVERT JUMPDEST DUP2 MLOAD PUSH1 0x1 PUSH1 0x1 PUSH1 0x40 SHL SUB DUP2 GT ISZERO PUSH2 0x127 JUMPI PUSH2 0x127 PUSH2 0xEB JUMP JUMPDEST PUSH1 0x40 MLOAD PUSH1 0x1F DUP3 ADD PUSH1 0x1F NOT SWAP1 DUP2 AND PUSH1 0x3F ADD AND DUP2 ADD PUSH1 0x1 PUSH1 0x1 PUSH1 0x40 SHL SUB DUP2 GT DUP3 DUP3 LT OR ISZERO PUSH2 0x155 JUMPI PUSH2 0x155 PUSH2 0xEB JUMP JUMPDEST PUSH1 0x40 MSTORE DUP2 DUP2 MSTORE DUP4 DUP3 ADD PUSH1 0x20 ADD DUP6 LT ISZERO PUSH2 0x16C JUMPI PUSH0 DUP1 REVERT JUMPDEST DUP2 PUSH1 0x20 DUP6 ADD PUSH1 0x20 DUP4 ADD MCOPY PUSH0 SWAP2 DUP2 ADD PUSH1 0x20 ADD SWAP2 SWAP1 SWAP2 MSTORE SWAP4 SWAP3 POP POP POP JUMP JUMPDEST DUP1 MLOAD PUSH1 0x1 PUSH1 0x1 PUSH1 0xA0 SHL SUB DUP2 AND DUP2 EQ PUSH2 0x19E JUMPI PUSH0 DUP1 REVERT JUMPDEST SWAP2 SWAP1 POP JUMP JUMPDEST PUSH0 DUP1 PUSH0 DUP1 PUSH1 0x80 DUP6 DUP8 SUB SLT ISZERO PUSH2 0x1B6 JUMPI PUSH0 DUP1 REVERT JUMPDEST DUP5 MLOAD PUSH1 0x1 PUSH1 0x1 PUSH1 0x40 SHL SUB DUP2 GT ISZERO PUSH2 0x1CB JUMPI PUSH0 DUP1 REVERT JUMPDEST PUSH2 0x1D7 DUP8 DUP3 DUP9 ADD PUSH2 0xFF JUMP JUMPDEST PUSH1 0x20 DUP8 ADD MLOAD SWAP1 SWAP6 POP SWAP1 POP PUSH1 0x1 PUSH1 0x1 PUSH1 0x40 SHL SUB DUP2 GT ISZERO PUSH2 0x1F4 JUMPI PUSH0 DUP1 REVERT JUMPDEST PUSH2 0x200 DUP8 DUP3 DUP9 ADD PUSH2 0xFF JUMP JUMPDEST SWAP4 POP POP PUSH2 0x20F PUSH1 0x40 DUP7 ADD PUSH2 0x188 JUMP JUMPDEST SWAP2 POP PUSH2 0x21D PUSH1 0x60 DUP7 ADD PUSH2 0x188 JUMP JUMPDEST SWAP1 POP SWAP3 SWAP6 SWAP2 SWAP5 POP SWAP3 POP JUMP JUMPDEST PUSH1 0x1 DUP2 DUP2 SHR SWAP1 DUP3 AND DUP1 PUSH2 0x23C JUMPI PUSH1 0x7F DUP3 AND SWAP2 POP JUMPDEST PUSH1 0x20 DUP3 LT DUP2 SUB PUSH2 0x25A JUMPI PUSH4 0x4E487B71 PUSH1 0xE0 SHL PUSH0 MSTORE PUSH1 0x22 PUSH1 0x4 MSTORE PUSH1 0x24 PUSH0 REVERT JUMPDEST POP SWAP2 SWAP1 POP JUMP JUMPDEST PUSH1 0x1F DUP3 GT ISZERO PUSH2 0x2A7 JUMPI DUP1 PUSH0 MSTORE PUSH1 0x20 PUSH0 KECCAK256 PUSH1 0x1F DUP5 ADD PUSH1 0x5 SHR DUP2 ADD PUSH1 0x20 DUP6 LT ISZERO PUSH2 0x285 JUMPI POP DUP1 JUMPDEST PUSH1 0x1F DUP5 ADD PUSH1 0x5 SHR DUP3 ADD SWAP2 POP JUMPDEST DUP2 DUP2 LT ISZERO PUSH2 0x2A4 JUMPI PUSH0 DUP2 SSTORE PUSH1 0x1 ADD PUSH2 0x291 JUMP JUMPDEST POP POP JUMPDEST POP POP POP JUMP JUMPDEST DUP2 MLOAD PUSH1 0x1 PUSH1 0x1 PUSH1 0x40 SHL SUB DUP2 GT ISZERO PUSH2 0x2C5 JUMPI PUSH2 0x2C5 PUSH2 0xEB JUMP JUMPDEST PUSH2 0x2D9 DUP2 PUSH2 0x2D3 DUP5 SLOAD PUSH2 0x228 JUMP JUMPDEST DUP5 PUSH2 0x260 JUMP JUMPDEST PUSH1 0x20 PUSH1 0x1F DUP3 GT PUSH1 0x1 DUP2 EQ PUSH2 0x30B JUMPI PUSH0 DUP4 ISZERO PUSH2 0x2F4 JUMPI POP DUP5 DUP3 ADD MLOAD JUMPDEST PUSH0 NOT PUSH1 0x3 DUP6 SWAP1 SHL SHR NOT AND PUSH1 0x1 DUP5 SWAP1 SHL OR DUP5 SSTORE PUSH2 0x2A4 JUMP JUMPDEST PUSH0 DUP5 DUP2 MSTORE PUSH1 0x20 DUP2 KECCAK256 PUSH1 0x1F NOT DUP6 AND SWAP2 JUMPDEST DUP3 DUP2 LT ISZERO PUSH2 0x33A JUMPI DUP8 DUP6 ADD MLOAD DUP3 SSTORE PUSH1 0x20 SWAP5 DUP6 ADD SWAP5 PUSH1 0x1 SWAP1 SWAP3 ADD SWAP2 ADD PUSH2 0x31A JUMP JUMPDEST POP DUP5 DUP3 LT ISZERO PUSH2 0x357 JUMPI DUP7 DUP5 ADD MLOAD PUSH0 NOT PUSH1 0x3 DUP8 SWAP1 SHL PUSH1 0xF8 AND SHR NOT AND DUP2 SSTORE JUMPDEST POP POP POP POP PUSH1 0x1 SWAP1 DUP2 SHL ADD SWAP1 SSTORE POP JUMP JUMPDEST PUSH2 0xDCB DUP1 PUSH2 0x373 PUSH0 CODECOPY PUSH0 RETURN INVALID PUSH1 0x80 PUSH1 0x40 MSTORE CALLVALUE DUP1 ISZERO PUSH2 0xF JUMPI PUSH0 DUP1 REVERT JUMPDEST POP PUSH1 0x4 CALLDATASIZE LT PUSH2 0x97 JUMPI PUSH0 CALLDATALOAD PUSH1 0xE0 SHR DUP1 PUSH4 0x26C7B327 EQ PUSH2 0x9B JUMPI DUP1 PUSH4 0x4BA83374 EQ PUSH2 0xB7 JUMPI DUP1 PUSH4 0x5DA6EF8D EQ PUSH2 0xCF JUMPI DUP1 PUSH4 0x7A4C982E EQ PUSH2 0xE4 JUMPI DUP1 PUSH4 0x80F76021 EQ PUSH2 0xF7 JUMPI DUP1 PUSH4 0xA95264D0 EQ PUSH2 0x10C JUMPI DUP1 PUSH4 0xB9DAF3E2 EQ PUSH2 0x121 JUMPI DUP1 PUSH4 0xBA379E86 EQ PUSH2 0x129 JUMPI DUP1 PUSH4 0xC47F0027 EQ PUSH2 0x13F JUMPI DUP1 PUSH4 0xDED92DAC EQ PUSH2 0x152 JUMPI DUP1 PUSH4 0xEFD8AF9F EQ PUSH2 0x165 JUMPI JUMPDEST PUSH0 DUP1 REVERT JUMPDEST PUSH2 0xA4 PUSH1 0x1 SLOAD DUP2 JUMP JUMPDEST PUSH1 0x40 MLOAD SWAP1 DUP2 MSTORE PUSH1 0x20 ADD JUMPDEST PUSH1 0x40 MLOAD DUP1 SWAP2 SUB SWAP1 RETURN JUMPDEST PUSH2 0xBF PUSH2 0x178 JUMP JUMPDEST PUSH1 0x40 MLOAD SWAP1 ISZERO ISZERO DUP2 MSTORE PUSH1 0x20 ADD PUSH2 0xAE JUMP JUMPDEST PUSH2 0xE2 PUSH2 0xDD CALLDATASIZE PUSH1 0x4 PUSH2 0x97B JUMP JUMPDEST PUSH2 0x1E4 JUMP JUMPDEST STOP JUMPDEST PUSH2 0xE2 PUSH2 0xF2 CALLDATASIZE PUSH1 0x4 PUSH2 0xA45 JUMP JUMPDEST PUSH2 0x32A JUMP JUMPDEST PUSH2 0xFF PUSH2 0x3AA JUMP JUMPDEST PUSH1 0x40 MLOAD PUSH2 0xAE SWAP2 SWAP1 PUSH2 0xAA8 JUMP JUMPDEST PUSH2 0x114 PUSH2 0x3FB JUMP JUMPDEST PUSH1 0x40 MLOAD PUSH2 0xAE SWAP2 SWAP1 PUSH2 0xABC JUMP JUMPDEST PUSH2 0xBF PUSH2 0x49B JUMP JUMPDEST PUSH2 0x131 PUSH2 0x4C5 JUMP JUMPDEST PUSH1 0x40 MLOAD PUSH2 0xAE SWAP3 SWAP2 SWAP1 PUSH2 0xB35 JUMP JUMPDEST PUSH2 0xE2 PUSH2 0x14D CALLDATASIZE PUSH1 0x4 PUSH2 0xB62 JUMP JUMPDEST PUSH2 0x67E JUMP JUMPDEST PUSH2 0xE2 PUSH2 0x160 CALLDATASIZE PUSH1 0x4 PUSH2 0x97B JUMP JUMPDEST PUSH2 0x6F0 JUMP JUMPDEST PUSH2 0xE2 PUSH2 0x173 CALLDATASIZE PUSH1 0x4 PUSH2 0xB62 JUMP JUMPDEST PUSH2 0x7E6 JUMP JUMPDEST PUSH0 PUSH2 0x1DB CALLER PUSH1 0x4 DUP1 SLOAD DUP1 PUSH1 0x20 MUL PUSH1 0x20 ADD PUSH1 0x40 MLOAD SWAP1 DUP2 ADD PUSH1 0x40 MSTORE DUP1 SWAP3 SWAP2 SWAP1 DUP2 DUP2 MSTORE PUSH1 0x20 ADD DUP3 DUP1 SLOAD DUP1 ISZERO PUSH2 0x1D1 JUMPI PUSH1 0x20 MUL DUP3 ADD SWAP2 SWAP1 PUSH0 MSTORE PUSH1 0x20 PUSH0 KECCAK256 SWAP1 JUMPDEST DUP2 SLOAD PUSH1 0x1 PUSH1 0x1 PUSH1 0xA0 SHL SUB AND DUP2 MSTORE PUSH1 0x1 SWAP1 SWAP2 ADD SWAP1 PUSH1 0x20 ADD DUP1 DUP4 GT PUSH2 0x1B3 JUMPI JUMPDEST POP POP POP POP POP PUSH2 0x831 JUMP JUMPDEST PUSH0 NOT EQ ISZERO SWAP1 POP SWAP1 JUMP JUMPDEST PUSH1 0x2 SLOAD PUSH1 0x1 PUSH1 0x1 PUSH1 0xA0 SHL SUB AND CALLER EQ DUP1 PUSH2 0x207 JUMPI POP PUSH1 0x3 SLOAD PUSH1 0x1 PUSH1 0x1 PUSH1 0xA0 SHL SUB AND CALLER EQ JUMPDEST PUSH2 0x22C JUMPI PUSH1 0x40 MLOAD PUSH3 0x461BCD PUSH1 0xE5 SHL DUP2 MSTORE PUSH1 0x4 ADD PUSH2 0x223 SWAP1 PUSH2 0xB9B JUMP JUMPDEST PUSH1 0x40 MLOAD DUP1 SWAP2 SUB SWAP1 REVERT JUMPDEST PUSH1 0x2 SLOAD PUSH1 0x1 PUSH1 0x1 PUSH1 0xA0 SHL SUB DUP3 DUP2 AND SWAP2 AND EQ DUP1 ISZERO SWAP1 PUSH2 0x252 JUMPI POP PUSH1 0x1 PUSH1 0x1 PUSH1 0xA0 SHL SUB DUP2 AND ISZERO ISZERO JUMPDEST DUP1 ISZERO PUSH2 0x2BD JUMPI POP PUSH2 0x2B9 DUP2 PUSH1 0x4 DUP1 SLOAD DUP1 PUSH1 0x20 MUL PUSH1 0x20 ADD PUSH1 0x40 MLOAD SWAP1 DUP2 ADD PUSH1 0x40 MSTORE DUP1 SWAP3 SWAP2 SWAP1 DUP2 DUP2 MSTORE PUSH1 0x20 ADD DUP3 DUP1 SLOAD DUP1 ISZERO PUSH2 0x1D1 JUMPI PUSH1 0x20 MUL DUP3 ADD SWAP2 SWAP1 PUSH0 MSTORE PUSH1 0x20 PUSH0 KECCAK256 SWAP1 DUP2 SLOAD PUSH1 0x1 PUSH1 0x1 PUSH1 0xA0 SHL SUB AND DUP2 MSTORE PUSH1 0x1 SWAP1 SWAP2 ADD SWAP1 PUSH1 0x20 ADD DUP1 DUP4 GT PUSH2 0x1B3 JUMPI POP POP POP POP POP PUSH2 0x831 JUMP JUMPDEST PUSH0 NOT EQ JUMPDEST PUSH2 0x2D9 JUMPI PUSH1 0x40 MLOAD PUSH3 0x461BCD PUSH1 0xE5 SHL DUP2 MSTORE PUSH1 0x4 ADD PUSH2 0x223 SWAP1 PUSH2 0xB9B JUMP JUMPDEST PUSH1 0x4 DUP1 SLOAD PUSH1 0x1 DUP2 ADD DUP3 SSTORE PUSH0 SWAP2 SWAP1 SWAP2 MSTORE PUSH32 0x8A35ACFBC15FF81A39AE7D344FD709F28E8600B4AA8C65C6B64BFE7FE36BD19B ADD DUP1 SLOAD PUSH1 0x1 PUSH1 0x1 PUSH1 0xA0 SHL SUB NOT AND PUSH1 0x1 PUSH1 0x1 PUSH1 0xA0 SHL SUB SWAP3 SWAP1 SWAP3 AND SWAP2 SWAP1 SWAP2 OR SWAP1 SSTORE JUMP JUMPDEST PUSH1 0x2 SLOAD PUSH1 0x1 PUSH1 0x1 PUSH1 0xA0 SHL SUB AND CALLER EQ DUP1 PUSH2 0x34D JUMPI POP PUSH1 0x3 SLOAD PUSH1 0x1 PUSH1 0x1 PUSH1 0xA0 SHL SUB AND CALLER EQ JUMPDEST PUSH2 0x369 JUMPI PUSH1 0x40 MLOAD PUSH3 0x461BCD PUSH1 0xE5 SHL DUP2 MSTORE PUSH1 0x4 ADD PUSH2 0x223 SWAP1 PUSH2 0xB9B JUMP JUMPDEST PUSH0 PUSH2 0x374 DUP4 DUP3 PUSH2 0xC3C JUMP JUMPDEST POP PUSH1 0x5 PUSH2 0x381 DUP3 DUP3 PUSH2 0xC3C JUMP JUMPDEST POP PUSH0 DUP1 MLOAD PUSH1 0x20 PUSH2 0xD76 DUP4 CODECOPY DUP2 MLOAD SWAP2 MSTORE CALLER PUSH1 0x40 MLOAD PUSH2 0x39E SWAP2 SWAP1 PUSH2 0xAA8 JUMP JUMPDEST PUSH1 0x40 MLOAD DUP1 SWAP2 SUB SWAP1 LOG1 POP POP JUMP JUMPDEST PUSH1 0x2 SLOAD PUSH0 SWAP1 PUSH1 0x1 PUSH1 0x1 PUSH1 0xA0 SHL SUB AND CALLER EQ DUP1 PUSH2 0x3CF JUMPI POP PUSH1 0x3 SLOAD PUSH1 0x1 PUSH1 0x1 PUSH1 0xA0 SHL SUB AND CALLER EQ JUMPDEST PUSH2 0x3EB JUMPI PUSH1 0x40 MLOAD PUSH3 0x461BCD PUSH1 0xE5 SHL DUP2 MSTORE PUSH1 0x4 ADD PUSH2 0x223 SWAP1 PUSH2 0xB9B JUMP JUMPDEST POP PUSH1 0x3 SLOAD PUSH1 0x1 PUSH1 0x1 PUSH1 0xA0 SHL SUB AND SWAP1 JUMP JUMPDEST PUSH1 0x2 SLOAD PUSH1 0x60 SWAP1 PUSH1 0x1 PUSH1 0x1 PUSH1 0xA0 SHL SUB AND CALLER EQ DUP1 PUSH2 0x421 JUMPI POP PUSH1 0x3 SLOAD PUSH1 0x1 PUSH1 0x1 PUSH1 0xA0 SHL SUB AND CALLER EQ JUMPDEST PUSH2 0x43D JUMPI PUSH1 0x40 MLOAD PUSH3 0x461BCD PUSH1 0xE5 SHL DUP2 MSTORE PUSH1 0x4 ADD PUSH2 0x223 SWAP1 PUSH2 0xB9B JUMP JUMPDEST PUSH1 0x4 DUP1 SLOAD DUP1 PUSH1 0x20 MUL PUSH1 0x20 ADD PUSH1 0x40 MLOAD SWAP1 DUP2 ADD PUSH1 0x40 MSTORE DUP1 SWAP3 SWAP2 SWAP1 DUP2 DUP2 MSTORE PUSH1 0x20 ADD DUP3 DUP1 SLOAD DUP1 ISZERO PUSH2 0x491 JUMPI PUSH1 0x20 MUL DUP3 ADD SWAP2 SWAP1 PUSH0 MSTORE PUSH1 0x20 PUSH0 KECCAK256 SWAP1 JUMPDEST DUP2 SLOAD PUSH1 0x1 PUSH1 0x1 PUSH1 0xA0 SHL SUB AND DUP2 MSTORE PUSH1 0x1 SWAP1 SWAP2 ADD SWAP1 PUSH1 0x20 ADD DUP1 DUP4 GT PUSH2 0x473 JUMPI JUMPDEST POP POP POP POP POP SWAP1 POP SWAP1 JUMP JUMPDEST PUSH1 0x2 SLOAD PUSH0 SWAP1 PUSH1 0x1 PUSH1 0x1 PUSH1 0xA0 SHL SUB AND CALLER EQ DUP1 PUSH2 0x4C0 JUMPI POP PUSH1 0x3 SLOAD PUSH1 0x1 PUSH1 0x1 PUSH1 0xA0 SHL SUB AND CALLER EQ JUMPDEST SWAP1 POP SWAP1 JUMP JUMPDEST PUSH1 0x2 SLOAD PUSH1 0x60 SWAP1 DUP2 SWAP1 PUSH1 0x1 PUSH1 0x1 PUSH1 0xA0 SHL SUB AND CALLER EQ DUP1 PUSH2 0x543 JUMPI POP PUSH2 0x53E CALLER PUSH1 0x4 DUP1 SLOAD DUP1 PUSH1 0x20 MUL PUSH1 0x20 ADD PUSH1 0x40 MLOAD SWAP1 DUP2 ADD PUSH1 0x40 MSTORE DUP1 SWAP3 SWAP2 SWAP1 DUP2 DUP2 MSTORE PUSH1 0x20 ADD DUP3 DUP1 SLOAD DUP1 ISZERO PUSH2 0x1D1 JUMPI PUSH1 0x20 MUL DUP3 ADD SWAP2 SWAP1 PUSH0 MSTORE PUSH1 0x20 PUSH0 KECCAK256 SWAP1 DUP2 SLOAD PUSH1 0x1 PUSH1 0x1 PUSH1 0xA0 SHL SUB AND DUP2 MSTORE PUSH1 0x1 SWAP1 SWAP2 ADD SWAP1 PUSH1 0x20 ADD DUP1 DUP4 GT PUSH2 0x1B3 JUMPI POP POP POP POP POP PUSH2 0x831 JUMP JUMPDEST PUSH0 NOT EQ ISZERO JUMPDEST PUSH2 0x55F JUMPI PUSH1 0x40 MLOAD PUSH3 0x461BCD PUSH1 0xE5 SHL DUP2 MSTORE PUSH1 0x4 ADD PUSH2 0x223 SWAP1 PUSH2 0xB9B JUMP JUMPDEST PUSH0 PUSH1 0x5 DUP2 DUP1 SLOAD PUSH2 0x56E SWAP1 PUSH2 0xBB8 JUMP JUMPDEST DUP1 PUSH1 0x1F ADD PUSH1 0x20 DUP1 SWAP2 DIV MUL PUSH1 0x20 ADD PUSH1 0x40 MLOAD SWAP1 DUP2 ADD PUSH1 0x40 MSTORE DUP1 SWAP3 SWAP2 SWAP1 DUP2 DUP2 MSTORE PUSH1 0x20 ADD DUP3 DUP1 SLOAD PUSH2 0x59A SWAP1 PUSH2 0xBB8 JUMP JUMPDEST DUP1 ISZERO PUSH2 0x5E5 JUMPI DUP1 PUSH1 0x1F LT PUSH2 0x5BC JUMPI PUSH2 0x100 DUP1 DUP4 SLOAD DIV MUL DUP4 MSTORE SWAP2 PUSH1 0x20 ADD SWAP2 PUSH2 0x5E5 JUMP JUMPDEST DUP3 ADD SWAP2 SWAP1 PUSH0 MSTORE PUSH1 0x20 PUSH0 KECCAK256 SWAP1 JUMPDEST DUP2 SLOAD DUP2 MSTORE SWAP1 PUSH1 0x1 ADD SWAP1 PUSH1 0x20 ADD DUP1 DUP4 GT PUSH2 0x5C8 JUMPI DUP3 SWAP1 SUB PUSH1 0x1F AND DUP3 ADD SWAP2 JUMPDEST POP POP POP POP POP SWAP2 POP DUP1 DUP1 SLOAD PUSH2 0x5F8 SWAP1 PUSH2 0xBB8 JUMP JUMPDEST DUP1 PUSH1 0x1F ADD PUSH1 0x20 DUP1 SWAP2 DIV MUL PUSH1 0x20 ADD PUSH1 0x40 MLOAD SWAP1 DUP2 ADD PUSH1 0x40 MSTORE DUP1 SWAP3 SWAP2 SWAP1 DUP2 DUP2 MSTORE PUSH1 0x20 ADD DUP3 DUP1 SLOAD PUSH2 0x624 SWAP1 PUSH2 0xBB8 JUMP JUMPDEST DUP1 ISZERO PUSH2 0x66F JUMPI DUP1 PUSH1 0x1F LT PUSH2 0x646 JUMPI PUSH2 0x100 DUP1 DUP4 SLOAD DIV MUL DUP4 MSTORE SWAP2 PUSH1 0x20 ADD SWAP2 PUSH2 0x66F JUMP JUMPDEST DUP3 ADD SWAP2 SWAP1 PUSH0 MSTORE PUSH1 0x20 PUSH0 KECCAK256 SWAP1 JUMPDEST DUP2 SLOAD DUP2 MSTORE SWAP1 PUSH1 0x1 ADD SWAP1 PUSH1 0x20 ADD DUP1 DUP4 GT PUSH2 0x652 JUMPI DUP3 SWAP1 SUB PUSH1 0x1F AND DUP3 ADD SWAP2 JUMPDEST POP POP POP POP POP SWAP1 POP SWAP2 POP SWAP2 POP SWAP1 SWAP2 JUMP JUMPDEST PUSH1 0x2 SLOAD PUSH1 0x1 PUSH1 0x1 PUSH1 0xA0 SHL SUB AND CALLER EQ DUP1 PUSH2 0x6A1 JUMPI POP PUSH1 0x3 SLOAD PUSH1 0x1 PUSH1 0x1 PUSH1 0xA0 SHL SUB AND CALLER EQ JUMPDEST PUSH2 0x6BD JUMPI PUSH1 0x40 MLOAD PUSH3 0x461BCD PUSH1 0xE5 SHL DUP2 MSTORE PUSH1 0x4 ADD PUSH2 0x223 SWAP1 PUSH2 0xB9B JUMP JUMPDEST PUSH0 PUSH2 0x6C8 DUP3 DUP3 PUSH2 0xC3C JUMP JUMPDEST POP PUSH0 DUP1 MLOAD PUSH1 0x20 PUSH2 0xD76 DUP4 CODECOPY DUP2 MLOAD SWAP2 MSTORE CALLER PUSH1 0x40 MLOAD PUSH2 0x6E5 SWAP2 SWAP1 PUSH2 0xAA8 JUMP JUMPDEST PUSH1 0x40 MLOAD DUP1 SWAP2 SUB SWAP1 LOG1 POP JUMP JUMPDEST PUSH1 0x1 PUSH1 0x1 PUSH1 0xA0 SHL SUB DUP2 AND ISZERO ISZERO DUP1 PUSH2 0x738 JUMPI POP PUSH1 0x3 SLOAD PUSH1 0x1 PUSH1 0x1 PUSH1 0xA0 SHL SUB AND CALLER EQ DUP1 PUSH2 0x725 JUMPI POP PUSH1 0x2 SLOAD PUSH1 0x1 PUSH1 0x1 PUSH1 0xA0 SHL SUB AND CALLER EQ JUMPDEST DUP1 PUSH2 0x738 JUMPI POP CALLER PUSH1 0x1 PUSH1 0x1 PUSH1 0xA0 SHL SUB DUP3 AND EQ JUMPDEST PUSH2 0x754 JUMPI PUSH1 0x40 MLOAD PUSH3 0x461BCD PUSH1 0xE5 SHL DUP2 MSTORE PUSH1 0x4 ADD PUSH2 0x223 SWAP1 PUSH2 0xB9B JUMP JUMPDEST PUSH0 PUSH2 0x7B5 DUP3 PUSH1 0x4 DUP1 SLOAD DUP1 PUSH1 0x20 MUL PUSH1 0x20 ADD PUSH1 0x40 MLOAD SWAP1 DUP2 ADD PUSH1 0x40 MSTORE DUP1 SWAP3 SWAP2 SWAP1 DUP2 DUP2 MSTORE PUSH1 0x20 ADD DUP3 DUP1 SLOAD DUP1 ISZERO PUSH2 0x1D1 JUMPI PUSH1 0x20 MUL DUP3 ADD SWAP2 SWAP1 PUSH0 MSTORE PUSH1 0x20 PUSH0 KECCAK256 SWAP1 DUP2 SLOAD PUSH1 0x1 PUSH1 0x1 PUSH1 0xA0 SHL SUB AND DUP2 MSTORE PUSH1 0x1 SWAP1 SWAP2 ADD SWAP1 PUSH1 0x20 ADD DUP1 DUP4 GT PUSH2 0x1B3 JUMPI POP POP POP POP POP PUSH2 0x831 JUMP JUMPDEST SWAP1 POP PUSH0 NOT DUP2 SGT PUSH2 0x7D7 JUMPI PUSH1 0x40 MLOAD PUSH3 0x461BCD PUSH1 0xE5 SHL DUP2 MSTORE PUSH1 0x4 ADD PUSH2 0x223 SWAP1 PUSH2 0xCF6 JUMP JUMPDEST PUSH2 0x7E2 DUP2 PUSH1 0x4 PUSH2 0x88A JUMP JUMPDEST POP POP JUMP JUMPDEST PUSH1 0x2 SLOAD PUSH1 0x1 PUSH1 0x1 PUSH1 0xA0 SHL SUB AND CALLER EQ DUP1 PUSH2 0x809 JUMPI POP PUSH1 0x3 SLOAD PUSH1 0x1 PUSH1 0x1 PUSH1 0xA0 SHL SUB AND CALLER EQ JUMPDEST PUSH2 0x825 JUMPI PUSH1 0x40 MLOAD PUSH3 0x461BCD PUSH1 0xE5 SHL DUP2 MSTORE PUSH1 0x4 ADD PUSH2 0x223 SWAP1 PUSH2 0xB9B JUMP JUMPDEST PUSH1 0x5 PUSH2 0x6C8 DUP3 DUP3 PUSH2 0xC3C JUMP JUMPDEST PUSH0 DUP1 JUMPDEST DUP3 MLOAD DUP2 LT ISZERO PUSH2 0x87E JUMPI DUP4 PUSH1 0x1 PUSH1 0x1 PUSH1 0xA0 SHL SUB AND DUP4 DUP3 DUP2 MLOAD DUP2 LT PUSH2 0x859 JUMPI PUSH2 0x859 PUSH2 0xD13 JUMP JUMPDEST PUSH1 0x20 MUL PUSH1 0x20 ADD ADD MLOAD PUSH1 0x1 PUSH1 0x1 PUSH1 0xA0 SHL SUB AND SUB PUSH2 0x876 JUMPI SWAP1 POP PUSH2 0x884 JUMP JUMPDEST PUSH1 0x1 ADD PUSH2 0x834 JUMP JUMPDEST POP PUSH0 NOT SWAP1 POP JUMPDEST SWAP3 SWAP2 POP POP JUMP JUMPDEST PUSH0 DUP3 SLT ISZERO DUP1 ISZERO PUSH2 0x89A JUMPI POP DUP1 SLOAD DUP3 LT JUMPDEST PUSH2 0x8B6 JUMPI PUSH1 0x40 MLOAD PUSH3 0x461BCD PUSH1 0xE5 SHL DUP2 MSTORE PUSH1 0x4 ADD PUSH2 0x223 SWAP1 PUSH2 0xCF6 JUMP JUMPDEST DUP2 JUMPDEST DUP2 SLOAD PUSH2 0x8C6 SWAP1 PUSH1 0x1 SWAP1 PUSH2 0xD3B JUMP JUMPDEST DUP2 LT ISZERO PUSH2 0x946 JUMPI DUP2 PUSH2 0x8D9 DUP3 PUSH1 0x1 PUSH2 0xD4E JUMP JUMPDEST DUP2 SLOAD DUP2 LT PUSH2 0x8E9 JUMPI PUSH2 0x8E9 PUSH2 0xD13 JUMP JUMPDEST SWAP1 PUSH0 MSTORE PUSH1 0x20 PUSH0 KECCAK256 ADD PUSH0 SWAP1 SLOAD SWAP1 PUSH2 0x100 EXP SWAP1 DIV PUSH1 0x1 PUSH1 0x1 PUSH1 0xA0 SHL SUB AND DUP3 DUP3 DUP2 SLOAD DUP2 LT PUSH2 0x916 JUMPI PUSH2 0x916 PUSH2 0xD13 JUMP JUMPDEST PUSH0 SWAP2 DUP3 MSTORE PUSH1 0x20 SWAP1 SWAP2 KECCAK256 ADD DUP1 SLOAD PUSH1 0x1 PUSH1 0x1 PUSH1 0xA0 SHL SUB NOT AND PUSH1 0x1 PUSH1 0x1 PUSH1 0xA0 SHL SUB SWAP3 SWAP1 SWAP3 AND SWAP2 SWAP1 SWAP2 OR SWAP1 SSTORE PUSH1 0x1 ADD PUSH2 0x8B8 JUMP JUMPDEST POP DUP1 DUP1 SLOAD DUP1 PUSH2 0x957 JUMPI PUSH2 0x957 PUSH2 0xD61 JUMP JUMPDEST PUSH0 DUP3 DUP2 MSTORE PUSH1 0x20 SWAP1 KECCAK256 DUP2 ADD PUSH0 NOT SWAP1 DUP2 ADD DUP1 SLOAD PUSH1 0x1 PUSH1 0x1 PUSH1 0xA0 SHL SUB NOT AND SWAP1 SSTORE ADD SWAP1 SSTORE POP POP JUMP JUMPDEST PUSH0 PUSH1 0x20 DUP3 DUP5 SUB SLT ISZERO PUSH2 0x98B JUMPI PUSH0 DUP1 REVERT JUMPDEST DUP2 CALLDATALOAD PUSH1 0x1 PUSH1 0x1 PUSH1 0xA0 SHL SUB DUP2 AND DUP2 EQ PUSH2 0x9A1 JUMPI PUSH0 DUP1 REVERT JUMPDEST SWAP4 SWAP3 POP POP POP JUMP JUMPDEST PUSH4 0x4E487B71 PUSH1 0xE0 SHL PUSH0 MSTORE PUSH1 0x41 PUSH1 0x4 MSTORE PUSH1 0x24 PUSH0 REVERT JUMPDEST PUSH0 DUP3 PUSH1 0x1F DUP4 ADD SLT PUSH2 0x9CB JUMPI PUSH0 DUP1 REVERT JUMPDEST DUP2 CALLDATALOAD PUSH1 0x1 PUSH1 0x1 PUSH1 0x40 SHL SUB DUP2 GT ISZERO PUSH2 0x9E4 JUMPI PUSH2 0x9E4 PUSH2 0x9A8 JUMP JUMPDEST PUSH1 0x40 MLOAD PUSH1 0x1F DUP3 ADD PUSH1 0x1F NOT SWAP1 DUP2 AND PUSH1 0x3F ADD AND DUP2 ADD PUSH1 0x1 PUSH1 0x1 PUSH1 0x40 SHL SUB DUP2 GT DUP3 DUP3 LT OR ISZERO PUSH2 0xA12 JUMPI PUSH2 0xA12 PUSH2 0x9A8 JUMP JUMPDEST PUSH1 0x40 MSTORE DUP2 DUP2 MSTORE DUP4 DUP3 ADD PUSH1 0x20 ADD DUP6 LT ISZERO PUSH2 0xA29 JUMPI PUSH0 DUP1 REVERT JUMPDEST DUP2 PUSH1 0x20 DUP6 ADD PUSH1 0x20 DUP4 ADD CALLDATACOPY PUSH0 SWAP2 DUP2 ADD PUSH1 0x20 ADD SWAP2 SWAP1 SWAP2 MSTORE SWAP4 SWAP3 POP POP POP JUMP JUMPDEST PUSH0 DUP1 PUSH1 0x40 DUP4 DUP6 SUB SLT ISZERO PUSH2 0xA56 JUMPI PUSH0 DUP1 REVERT JUMPDEST DUP3 CALLDATALOAD PUSH1 0x1 PUSH1 0x1 PUSH1 0x40 SHL SUB DUP2 GT ISZERO PUSH2 0xA6B JUMPI PUSH0 DUP1 REVERT JUMPDEST PUSH2 0xA77 DUP6 DUP3 DUP7 ADD PUSH2 0x9BC JUMP JUMPDEST SWAP3 POP POP PUSH1 0x20 DUP4 ADD CALLDATALOAD PUSH1 0x1 PUSH1 0x1 PUSH1 0x40 SHL SUB DUP2 GT ISZERO PUSH2 0xA92 JUMPI PUSH0 DUP1 REVERT JUMPDEST PUSH2 0xA9E DUP6 DUP3 DUP7 ADD PUSH2 0x9BC JUMP JUMPDEST SWAP2 POP POP SWAP3 POP SWAP3 SWAP1 POP JUMP JUMPDEST PUSH1 0x1 PUSH1 0x1 PUSH1 0xA0 SHL SUB SWAP2 SWAP1 SWAP2 AND DUP2 MSTORE PUSH1 0x20 ADD SWAP1 JUMP JUMPDEST PUSH1 0x20 DUP1 DUP3 MSTORE DUP3 MLOAD DUP3 DUP3 ADD DUP2 SWAP1 MSTORE PUSH0 SWAP2 DUP5 ADD SWAP1 PUSH1 0x40 DUP5 ADD SWAP1 DUP4 JUMPDEST DUP2 DUP2 LT ISZERO PUSH2 0xAFC JUMPI DUP4 MLOAD PUSH1 0x1 PUSH1 0x1 PUSH1 0xA0 SHL SUB AND DUP4 MSTORE PUSH1 0x20 SWAP4 DUP5 ADD SWAP4 SWAP1 SWAP3 ADD SWAP2 PUSH1 0x1 ADD PUSH2 0xAD5 JUMP JUMPDEST POP SWAP1 SWAP6 SWAP5 POP POP POP POP POP JUMP JUMPDEST PUSH0 DUP2 MLOAD DUP1 DUP5 MSTORE DUP1 PUSH1 0x20 DUP5 ADD PUSH1 0x20 DUP7 ADD MCOPY PUSH0 PUSH1 0x20 DUP3 DUP7 ADD ADD MSTORE PUSH1 0x20 PUSH1 0x1F NOT PUSH1 0x1F DUP4 ADD AND DUP6 ADD ADD SWAP2 POP POP SWAP3 SWAP2 POP POP JUMP JUMPDEST PUSH1 0x40 DUP2 MSTORE PUSH0 PUSH2 0xB47 PUSH1 0x40 DUP4 ADD DUP6 PUSH2 0xB07 JUMP JUMPDEST DUP3 DUP2 SUB PUSH1 0x20 DUP5 ADD MSTORE PUSH2 0xB59 DUP2 DUP6 PUSH2 0xB07 JUMP JUMPDEST SWAP6 SWAP5 POP POP POP POP POP JUMP JUMPDEST PUSH0 PUSH1 0x20 DUP3 DUP5 SUB SLT ISZERO PUSH2 0xB72 JUMPI PUSH0 DUP1 REVERT JUMPDEST DUP2 CALLDATALOAD PUSH1 0x1 PUSH1 0x1 PUSH1 0x40 SHL SUB DUP2 GT ISZERO PUSH2 0xB87 JUMPI PUSH0 DUP1 REVERT JUMPDEST PUSH2 0xB93 DUP5 DUP3 DUP6 ADD PUSH2 0x9BC JUMP JUMPDEST SWAP5 SWAP4 POP POP POP POP JUMP JUMPDEST PUSH1 0x20 DUP1 DUP3 MSTORE PUSH1 0x3 SWAP1 DUP3 ADD MSTORE PUSH3 0x343033 PUSH1 0xE8 SHL PUSH1 0x40 DUP3 ADD MSTORE PUSH1 0x60 ADD SWAP1 JUMP JUMPDEST PUSH1 0x1 DUP2 DUP2 SHR SWAP1 DUP3 AND DUP1 PUSH2 0xBCC JUMPI PUSH1 0x7F DUP3 AND SWAP2 POP JUMPDEST PUSH1 0x20 DUP3 LT DUP2 SUB PUSH2 0xBEA JUMPI PUSH4 0x4E487B71 PUSH1 0xE0 SHL PUSH0 MSTORE PUSH1 0x22 PUSH1 0x4 MSTORE PUSH1 0x24 PUSH0 REVERT JUMPDEST POP SWAP2 SWAP1 POP JUMP JUMPDEST PUSH1 0x1F DUP3 GT ISZERO PUSH2 0xC37 JUMPI DUP1 PUSH0 MSTORE PUSH1 0x20 PUSH0 KECCAK256 PUSH1 0x1F DUP5 ADD PUSH1 0x5 SHR DUP2 ADD PUSH1 0x20 DUP6 LT ISZERO PUSH2 0xC15 JUMPI POP DUP1 JUMPDEST PUSH1 0x1F DUP5 ADD PUSH1 0x5 SHR DUP3 ADD SWAP2 POP JUMPDEST DUP2 DUP2 LT ISZERO PUSH2 0xC34 JUMPI PUSH0 DUP2 SSTORE PUSH1 0x1 ADD PUSH2 0xC21 JUMP JUMPDEST POP POP JUMPDEST POP POP POP JUMP JUMPDEST DUP2 MLOAD PUSH1 0x1 PUSH1 0x1 PUSH1 0x40 SHL SUB DUP2 GT ISZERO PUSH2 0xC55 JUMPI PUSH2 0xC55 PUSH2 0x9A8 JUMP JUMPDEST PUSH2 0xC69 DUP2 PUSH2 0xC63 DUP5 SLOAD PUSH2 0xBB8 JUMP JUMPDEST DUP5 PUSH2 0xBF0 JUMP JUMPDEST PUSH1 0x20 PUSH1 0x1F DUP3 GT PUSH1 0x1 DUP2 EQ PUSH2 0xC9B JUMPI PUSH0 DUP4 ISZERO PUSH2 0xC84 JUMPI POP DUP5 DUP3 ADD MLOAD JUMPDEST PUSH0 NOT PUSH1 0x3 DUP6 SWAP1 SHL SHR NOT AND PUSH1 0x1 DUP5 SWAP1 SHL OR DUP5 SSTORE PUSH2 0xC34 JUMP JUMPDEST PUSH0 DUP5 DUP2 MSTORE PUSH1 0x20 DUP2 KECCAK256 PUSH1 0x1F NOT DUP6 AND SWAP2 JUMPDEST DUP3 DUP2 LT ISZERO PUSH2 0xCCA JUMPI DUP8 DUP6 ADD MLOAD DUP3 SSTORE PUSH1 0x20 SWAP5 DUP6 ADD SWAP5 PUSH1 0x1 SWAP1 SWAP3 ADD SWAP2 ADD PUSH2 0xCAA JUMP JUMPDEST POP DUP5 DUP3 LT ISZERO PUSH2 0xCE7 JUMPI DUP7 DUP5 ADD MLOAD PUSH0 NOT PUSH1 0x3 DUP8 SWAP1 SHL PUSH1 0xF8 AND SHR NOT AND DUP2 SSTORE JUMPDEST POP POP POP POP PUSH1 0x1 SWAP1 DUP2 SHL ADD SWAP1 SSTORE POP JUMP JUMPDEST PUSH1 0x20 DUP1 DUP3 MSTORE PUSH1 0x3 SWAP1 DUP3 ADD MSTORE PUSH3 0xD0C0D PUSH1 0xEA SHL PUSH1 0x40 DUP3 ADD MSTORE PUSH1 0x60 ADD SWAP1 JUMP JUMPDEST PUSH4 0x4E487B71 PUSH1 0xE0 SHL PUSH0 MSTORE PUSH1 0x32 PUSH1 0x4 MSTORE PUSH1 0x24 PUSH0 REVERT JUMPDEST PUSH4 0x4E487B71 PUSH1 0xE0 SHL PUSH0 MSTORE PUSH1 0x11 PUSH1 0x4 MSTORE PUSH1 0x24 PUSH0 REVERT JUMPDEST DUP2 DUP2 SUB DUP2 DUP2 GT ISZERO PUSH2 0x884 JUMPI PUSH2 0x884 PUSH2 0xD27 JUMP JUMPDEST DUP1 DUP3 ADD DUP1 DUP3 GT ISZERO PUSH2 0x884 JUMPI PUSH2 0x884 PUSH2 0xD27 JUMP JUMPDEST PUSH4 0x4E487B71 PUSH1 0xE0 SHL PUSH0 MSTORE PUSH1 0x31 PUSH1 0x4 MSTORE PUSH1 0x24 PUSH0 REVERT INVALID 0xE0 0xD LOG2 OR DUP9 MOD RETURN PUSH32 0x69815E9ED5ED3072EC1D55206D60916D99B469C7DAA421E4A264697066735822 SLT KECCAK256 0xD8 0xCD 0xB8 DUP5 PUSH32 0x5DEEE7C900EF1FCAF4419652B659FBA908421937FB1F4DEBD86B9064736F6C63 NUMBER STOP ADDMOD BYTE STOP CALLER "
				},
				"gasEstimates": {
					"creation": {
						"codeDepositCost": "706200",
						"executionCost": "infinite",
						"totalCost": "infinite"
					},
					"external": {
						"expose()": "infinite",
						"getParent()": "6727",
						"getSharedWith()": "infinite",
						"isOwn()": "4600",
						"isSharedWith()": "infinite",
						"item_type()": "2261",
						"restictFrom(address)": "infinite",
						"setCardId(string)": "infinite",
						"setItem(string,string)": "infinite",
						"setName(string)": "infinite",
						"shareWith(address)": "infinite"
					}
				},
				"methodIdentifiers": {
					"expose()": "ba379e86",
					"getParent()": "80f76021",
					"getSharedWith()": "a95264d0",
					"isOwn()": "b9daf3e2",
					"isSharedWith()": "4ba83374",
					"item_type()": "26c7b327",
					"restictFrom(address)": "ded92dac",
					"setCardId(string)": "efd8af9f",
					"setItem(string,string)": "7a4c982e",
					"setName(string)": "c47f0027",
					"shareWith(address)": "5da6ef8d"
				}
			},
			"storageLayout": {
				"storage": [
					{
						"astId": 126,
						"contract": "Items/LoyalityCard.sol:LoyalityCard",
						"label": "name",
						"offset": 0,
						"slot": "0",
						"type": "t_string_storage"
					},
					{
						"astId": 128,
						"contract": "Items/LoyalityCard.sol:LoyalityCard",
						"label": "item_type",
						"offset": 0,
						"slot": "1",
						"type": "t_uint256"
					},
					{
						"astId": 130,
						"contract": "Items/LoyalityCard.sol:LoyalityCard",
						"label": "owner",
						"offset": 0,
						"slot": "2",
						"type": "t_address"
					},
					{
						"astId": 132,
						"contract": "Items/LoyalityCard.sol:LoyalityCard",
						"label": "parent",
						"offset": 0,
						"slot": "3",
						"type": "t_address"
					},
					{
						"astId": 135,
						"contract": "Items/LoyalityCard.sol:LoyalityCard",
						"label": "sharedWith",
						"offset": 0,
						"slot": "4",
						"type": "t_array(t_address)dyn_storage"
					},
					{
						"astId": 28,
						"contract": "Items/LoyalityCard.sol:LoyalityCard",
						"label": "card_id",
						"offset": 0,
						"slot": "5",
						"type": "t_string_storage"
					}
				],
				"types": {
					"t_address": {
						"encoding": "inplace",
						"label": "address",
						"numberOfBytes": "20"
					},
					"t_array(t_address)dyn_storage": {
						"base": "t_address",
						"encoding": "dynamic_array",
						"label": "address[]",
						"numberOfBytes": "32"
					},
					"t_string_storage": {
						"encoding": "bytes",
						"label": "string",
						"numberOfBytes": "32"
					},
					"t_uint256": {
						"encoding": "inplace",
						"label": "uint256",
						"numberOfBytes": "32"
					}
				}
			},
			"userdoc": {
				"kind": "user",
				"methods": {},
				"version": 1
			}
		}
	}
}