{
	"./Items/Chat.sol": {
		"Chat": {
			"abi": [
				{
					"inputs": [
						{
							"internalType": "string",
							"name": "_name",
							"type": "string"
						},
						{
							"internalType": "address",
							"name": "_guest",
							"type": "address"
						},
						{
							"internalType": "address",
							"name": "_owner",
							"type": "address"
						},
						{
							"internalType": "address",
							"name": "_parent",
							"type": "address"
						}
					],
					"stateMutability": "nonpayable",
					"type": "constructor"
				},
				{
					"anonymous": false,
					"inputs": [
						{
							"indexed": false,
							"internalType": "address",
							"name": "",
							"type": "address"
						}
					],
					"name": "Created",
					"type": "event"
				},
				{
					"anonymous": false,
					"inputs": [
						{
							"indexed": true,
							"internalType": "address",
							"name": "sender",
							"type": "address"
						},
						{
							"indexed": false,
							"internalType": "uint256",
							"name": "timestamp",
							"type": "uint256"
						}
					],
					"name": "NewMessage",
					"type": "event"
				},
				{
					"anonymous": false,
					"inputs": [
						{
							"indexed": false,
							"internalType": "address",
							"name": "",
							"type": "address"
						}
					],
					"name": "Updated",
					"type": "event"
				},
				{
					"inputs": [],
					"name": "getMessages",
					"outputs": [
						{
							"components": [
								{
									"internalType": "uint256",
									"name": "timestamp",
									"type": "uint256"
								},
								{
									"internalType": "string",
									"name": "text",
									"type": "string"
								},
								{
									"internalType": "address",
									"name": "author",
									"type": "address"
								}
							],
							"internalType": "struct Chat.Message[]",
							"name": "",
							"type": "tuple[]"
						}
					],
					"stateMutability": "view",
					"type": "function"
				},
				{
					"inputs": [],
					"name": "getParent",
					"outputs": [
						{
							"internalType": "address",
							"name": "",
							"type": "address"
						}
					],
					"stateMutability": "view",
					"type": "function"
				},
				{
					"inputs": [],
					"name": "getSharedWith",
					"outputs": [
						{
							"internalType": "address[]",
							"name": "",
							"type": "address[]"
						}
					],
					"stateMutability": "view",
					"type": "function"
				},
				{
					"inputs": [],
					"name": "isOwn",
					"outputs": [
						{
							"internalType": "bool",
							"name": "",
							"type": "bool"
						}
					],
					"stateMutability": "view",
					"type": "function"
				},
				{
					"inputs": [],
					"name": "isSharedWith",
					"outputs": [
						{
							"internalType": "bool",
							"name": "",
							"type": "bool"
						}
					],
					"stateMutability": "view",
					"type": "function"
				},
				{
					"inputs": [],
					"name": "item_type",
					"outputs": [
						{
							"internalType": "enum ItemTypes.Type",
							"name": "",
							"type": "uint8"
						}
					],
					"stateMutability": "view",
					"type": "function"
				},
				{
					"inputs": [
						{
							"internalType": "address",
							"name": "_f",
							"type": "address"
						}
					],
					"name": "restictFrom",
					"outputs": [],
					"stateMutability": "nonpayable",
					"type": "function"
				},
				{
					"inputs": [
						{
							"internalType": "string",
							"name": "_text",
							"type": "string"
						}
					],
					"name": "sendMessage",
					"outputs": [],
					"stateMutability": "nonpayable",
					"type": "function"
				},
				{
					"inputs": [
						{
							"internalType": "string",
							"name": "_n",
							"type": "string"
						}
					],
					"name": "setName",
					"outputs": [],
					"stateMutability": "nonpayable",
					"type": "function"
				},
				{
					"inputs": [
						{
							"internalType": "address",
							"name": "_w",
							"type": "address"
						}
					],
					"name": "shareWith",
					"outputs": [],
					"stateMutability": "nonpayable",
					"type": "function"
				}
			],
			"devdoc": {
				"kind": "dev",
				"methods": {},
				"version": 1
			},
			"evm": {
				"assembly": "    /* \"./Items/Chat.sol\":137:1197  contract Chat is VaultItem{... */\n  mstore(0x40, 0x80)\n    /* \"./Items/Chat.sol\":520:822  constructor(... */\n  callvalue\n  dup1\n  iszero\n  tag_1\n  jumpi\n  0x00\n  dup1\n  revert\ntag_1:\n  pop\n  mload(0x40)\n  sub(codesize, bytecodeSize)\n  dup1\n  bytecodeSize\n  dup4\n  codecopy\n  dup2\n  dup2\n  add\n  0x40\n  mstore\n  dup2\n  add\n  swap1\n  tag_2\n  swap2\n  swap1\n  tag_3\n  jump\t// in\ntag_2:\n    /* \"./Items/Chat.sol\":665:670  _name */\n  dup4\n    /* \"./Items/Chat.sol\":681:700  ItemTypes.Type.CHAT */\n  0x03\n    /* \"./Items/Chat.sol\":711:717  _owner */\n  dup4\n    /* \"./Items/Chat.sol\":728:735  _parent */\n  dup4\n    /* \"./Items/VaultItem.sol\":765:767  _n */\n  dup4\n    /* \"./Items/VaultItem.sol\":758:762  name */\n  0x00\n    /* \"./Items/VaultItem.sol\":758:767  name = _n */\n  swap1\n  dup2\n  tag_7\n  swap2\n  swap1\n  tag_8\n  jump\t// in\ntag_7:\n  pop\n    /* \"./Items/VaultItem.sol\":790:800  _item_type */\n  dup3\n    /* \"./Items/VaultItem.sol\":778:787  item_type */\n  0x01\n  0x00\n    /* \"./Items/VaultItem.sol\":778:800  item_type = _item_type */\n  0x0100\n  exp\n  dup2\n  sload\n  dup2\n  0xff\n  mul\n  not\n  and\n  swap1\n  dup4\n  0x03\n  dup2\n  gt\n  iszero\n  tag_9\n  jumpi\n  tag_10\n  tag_11\n  jump\t// in\ntag_10:\ntag_9:\n  mul\n  or\n  swap1\n  sstore\n  pop\n    /* \"./Items/VaultItem.sol\":821:823  _o */\n  dup2\n    /* \"./Items/VaultItem.sol\":813:818  owner */\n  0x01\n  dup1\n    /* \"./Items/VaultItem.sol\":813:823  owner = _o */\n  0x0100\n  exp\n  dup2\n  sload\n  dup2\n  0xffffffffffffffffffffffffffffffffffffffff\n  mul\n  not\n  and\n  swap1\n  dup4\n  0xffffffffffffffffffffffffffffffffffffffff\n  and\n  mul\n  or\n  swap1\n  sstore\n  pop\n    /* \"./Items/VaultItem.sol\":843:845  _p */\n  dup1\n    /* \"./Items/VaultItem.sol\":834:840  parent */\n  0x02\n  0x00\n    /* \"./Items/VaultItem.sol\":834:845  parent = _p */\n  0x0100\n  exp\n  dup2\n  sload\n  dup2\n  0xffffffffffffffffffffffffffffffffffffffff\n  mul\n  not\n  and\n  swap1\n  dup4\n  0xffffffffffffffffffffffffffffffffffffffff\n  and\n  mul\n  or\n  swap1\n  sstore\n  pop\n    /* \"./Items/VaultItem.sol\":624:853  constructor(... */\n  pop\n  pop\n  pop\n  pop\n    /* \"./Items/Chat.sol\":763:769  _guest */\n  dup3\n    /* \"./Items/Chat.sol\":755:760  guest */\n  0x04\n  0x00\n    /* \"./Items/Chat.sol\":755:769  guest = _guest */\n  0x0100\n  exp\n  dup2\n  sload\n  dup2\n  0xffffffffffffffffffffffffffffffffffffffff\n  mul\n  not\n  and\n  swap1\n  dup4\n  0xffffffffffffffffffffffffffffffffffffffff\n  and\n  mul\n  or\n  swap1\n  sstore\n  pop\n    /* \"./Items/Chat.sol\":795:814  Created(msg.sender) */\n  0x1449abf21e49fd025f33495e77f7b1461caefdd3d4bb646424a3f445c4576a5b\n    /* \"./Items/Chat.sol\":803:813  msg.sender */\n  caller\n    /* \"./Items/Chat.sol\":795:814  Created(msg.sender) */\n  mload(0x40)\n  tag_13\n  swap2\n  swap1\n  tag_14\n  jump\t// in\ntag_13:\n  mload(0x40)\n  dup1\n  swap2\n  sub\n  swap1\n  log1\n    /* \"./Items/Chat.sol\":520:822  constructor(... */\n  pop\n  pop\n  pop\n  pop\n    /* \"./Items/Chat.sol\":137:1197  contract Chat is VaultItem{... */\n  jump(tag_15)\n    /* \"#utility.yul\":7:82   */\ntag_16:\n    /* \"#utility.yul\":40:46   */\n  0x00\n    /* \"#utility.yul\":73:75   */\n  0x40\n    /* \"#utility.yul\":67:76   */\n  mload\n    /* \"#utility.yul\":57:76   */\n  swap1\n  pop\n    /* \"#utility.yul\":7:82   */\n  swap1\n  jump\t// out\n    /* \"#utility.yul\":88:205   */\ntag_17:\n    /* \"#utility.yul\":197:198   */\n  0x00\n    /* \"#utility.yul\":194:195   */\n  dup1\n    /* \"#utility.yul\":187:199   */\n  revert\n    /* \"#utility.yul\":211:328   */\ntag_18:\n    /* \"#utility.yul\":320:321   */\n  0x00\n    /* \"#utility.yul\":317:318   */\n  dup1\n    /* \"#utility.yul\":310:322   */\n  revert\n    /* \"#utility.yul\":334:451   */\ntag_19:\n    /* \"#utility.yul\":443:444   */\n  0x00\n    /* \"#utility.yul\":440:441   */\n  dup1\n    /* \"#utility.yul\":433:445   */\n  revert\n    /* \"#utility.yul\":457:574   */\ntag_20:\n    /* \"#utility.yul\":566:567   */\n  0x00\n    /* \"#utility.yul\":563:564   */\n  dup1\n    /* \"#utility.yul\":556:568   */\n  revert\n    /* \"#utility.yul\":580:682   */\ntag_21:\n    /* \"#utility.yul\":621:627   */\n  0x00\n    /* \"#utility.yul\":672:674   */\n  0x1f\n    /* \"#utility.yul\":668:675   */\n  not\n    /* \"#utility.yul\":663:665   */\n  0x1f\n    /* \"#utility.yul\":656:661   */\n  dup4\n    /* \"#utility.yul\":652:666   */\n  add\n    /* \"#utility.yul\":648:676   */\n  and\n    /* \"#utility.yul\":638:676   */\n  swap1\n  pop\n    /* \"#utility.yul\":580:682   */\n  swap2\n  swap1\n  pop\n  jump\t// out\n    /* \"#utility.yul\":688:868   */\ntag_22:\n    /* \"#utility.yul\":736:813   */\n  0x4e487b7100000000000000000000000000000000000000000000000000000000\n    /* \"#utility.yul\":733:734   */\n  0x00\n    /* \"#utility.yul\":726:814   */\n  mstore\n    /* \"#utility.yul\":833:837   */\n  0x41\n    /* \"#utility.yul\":830:831   */\n  0x04\n    /* \"#utility.yul\":823:838   */\n  mstore\n    /* \"#utility.yul\":857:861   */\n  0x24\n    /* \"#utility.yul\":854:855   */\n  0x00\n    /* \"#utility.yul\":847:862   */\n  revert\n    /* \"#utility.yul\":874:1155   */\ntag_23:\n    /* \"#utility.yul\":957:984   */\n  tag_62\n    /* \"#utility.yul\":979:983   */\n  dup3\n    /* \"#utility.yul\":957:984   */\n  tag_21\n  jump\t// in\ntag_62:\n    /* \"#utility.yul\":949:955   */\n  dup2\n    /* \"#utility.yul\":945:985   */\n  add\n    /* \"#utility.yul\":1087:1093   */\n  dup2\n    /* \"#utility.yul\":1075:1085   */\n  dup2\n    /* \"#utility.yul\":1072:1094   */\n  lt\n    /* \"#utility.yul\":1051:1069   */\n  0xffffffffffffffff\n    /* \"#utility.yul\":1039:1049   */\n  dup3\n    /* \"#utility.yul\":1036:1070   */\n  gt\n    /* \"#utility.yul\":1033:1095   */\n  or\n    /* \"#utility.yul\":1030:1118   */\n  iszero\n  tag_63\n  jumpi\n    /* \"#utility.yul\":1098:1116   */\n  tag_64\n  tag_22\n  jump\t// in\ntag_64:\n    /* \"#utility.yul\":1030:1118   */\ntag_63:\n    /* \"#utility.yul\":1138:1148   */\n  dup1\n    /* \"#utility.yul\":1134:1136   */\n  0x40\n    /* \"#utility.yul\":1127:1149   */\n  mstore\n    /* \"#utility.yul\":917:1155   */\n  pop\n    /* \"#utility.yul\":874:1155   */\n  pop\n  pop\n  jump\t// out\n    /* \"#utility.yul\":1161:1290   */\ntag_24:\n    /* \"#utility.yul\":1195:1201   */\n  0x00\n    /* \"#utility.yul\":1222:1242   */\n  tag_66\n  tag_16\n  jump\t// in\ntag_66:\n    /* \"#utility.yul\":1212:1242   */\n  swap1\n  pop\n    /* \"#utility.yul\":1251:1284   */\n  tag_67\n    /* \"#utility.yul\":1279:1283   */\n  dup3\n    /* \"#utility.yul\":1271:1277   */\n  dup3\n    /* \"#utility.yul\":1251:1284   */\n  tag_23\n  jump\t// in\ntag_67:\n    /* \"#utility.yul\":1161:1290   */\n  swap2\n  swap1\n  pop\n  jump\t// out\n    /* \"#utility.yul\":1296:1604   */\ntag_25:\n    /* \"#utility.yul\":1358:1362   */\n  0x00\n    /* \"#utility.yul\":1448:1466   */\n  0xffffffffffffffff\n    /* \"#utility.yul\":1440:1446   */\n  dup3\n    /* \"#utility.yul\":1437:1467   */\n  gt\n    /* \"#utility.yul\":1434:1490   */\n  iszero\n  tag_69\n  jumpi\n    /* \"#utility.yul\":1470:1488   */\n  tag_70\n  tag_22\n  jump\t// in\ntag_70:\n    /* \"#utility.yul\":1434:1490   */\ntag_69:\n    /* \"#utility.yul\":1508:1537   */\n  tag_71\n    /* \"#utility.yul\":1530:1536   */\n  dup3\n    /* \"#utility.yul\":1508:1537   */\n  tag_21\n  jump\t// in\ntag_71:\n    /* \"#utility.yul\":1500:1537   */\n  swap1\n  pop\n    /* \"#utility.yul\":1592:1596   */\n  0x20\n    /* \"#utility.yul\":1586:1590   */\n  dup2\n    /* \"#utility.yul\":1582:1597   */\n  add\n    /* \"#utility.yul\":1574:1597   */\n  swap1\n  pop\n    /* \"#utility.yul\":1296:1604   */\n  swap2\n  swap1\n  pop\n  jump\t// out\n    /* \"#utility.yul\":1610:1749   */\ntag_26:\n    /* \"#utility.yul\":1699:1705   */\n  dup3\n    /* \"#utility.yul\":1694:1697   */\n  dup2\n    /* \"#utility.yul\":1689:1692   */\n  dup4\n    /* \"#utility.yul\":1683:1706   */\n  mcopy\n    /* \"#utility.yul\":1740:1741   */\n  0x00\n    /* \"#utility.yul\":1731:1737   */\n  dup4\n    /* \"#utility.yul\":1726:1729   */\n  dup4\n    /* \"#utility.yul\":1722:1738   */\n  add\n    /* \"#utility.yul\":1715:1742   */\n  mstore\n    /* \"#utility.yul\":1610:1749   */\n  pop\n  pop\n  pop\n  jump\t// out\n    /* \"#utility.yul\":1755:2189   */\ntag_27:\n    /* \"#utility.yul\":1844:1849   */\n  0x00\n    /* \"#utility.yul\":1869:1935   */\n  tag_74\n    /* \"#utility.yul\":1885:1934   */\n  tag_75\n    /* \"#utility.yul\":1927:1933   */\n  dup5\n    /* \"#utility.yul\":1885:1934   */\n  tag_25\n  jump\t// in\ntag_75:\n    /* \"#utility.yul\":1869:1935   */\n  tag_24\n  jump\t// in\ntag_74:\n    /* \"#utility.yul\":1860:1935   */\n  swap1\n  pop\n    /* \"#utility.yul\":1958:1964   */\n  dup3\n    /* \"#utility.yul\":1951:1956   */\n  dup2\n    /* \"#utility.yul\":1944:1965   */\n  mstore\n    /* \"#utility.yul\":1996:2000   */\n  0x20\n    /* \"#utility.yul\":1989:1994   */\n  dup2\n    /* \"#utility.yul\":1985:2001   */\n  add\n    /* \"#utility.yul\":2034:2037   */\n  dup5\n    /* \"#utility.yul\":2025:2031   */\n  dup5\n    /* \"#utility.yul\":2020:2023   */\n  dup5\n    /* \"#utility.yul\":2016:2032   */\n  add\n    /* \"#utility.yul\":2013:2038   */\n  gt\n    /* \"#utility.yul\":2010:2122   */\n  iszero\n  tag_76\n  jumpi\n    /* \"#utility.yul\":2041:2120   */\n  tag_77\n  tag_20\n  jump\t// in\ntag_77:\n    /* \"#utility.yul\":2010:2122   */\ntag_76:\n    /* \"#utility.yul\":2131:2183   */\n  tag_78\n    /* \"#utility.yul\":2176:2182   */\n  dup5\n    /* \"#utility.yul\":2171:2174   */\n  dup3\n    /* \"#utility.yul\":2166:2169   */\n  dup6\n    /* \"#utility.yul\":2131:2183   */\n  tag_26\n  jump\t// in\ntag_78:\n    /* \"#utility.yul\":1850:2189   */\n  pop\n    /* \"#utility.yul\":1755:2189   */\n  swap4\n  swap3\n  pop\n  pop\n  pop\n  jump\t// out\n    /* \"#utility.yul\":2209:2564   */\ntag_28:\n    /* \"#utility.yul\":2276:2281   */\n  0x00\n    /* \"#utility.yul\":2325:2328   */\n  dup3\n    /* \"#utility.yul\":2318:2322   */\n  0x1f\n    /* \"#utility.yul\":2310:2316   */\n  dup4\n    /* \"#utility.yul\":2306:2323   */\n  add\n    /* \"#utility.yul\":2302:2329   */\n  slt\n    /* \"#utility.yul\":2292:2414   */\n  tag_80\n  jumpi\n    /* \"#utility.yul\":2333:2412   */\n  tag_81\n  tag_19\n  jump\t// in\ntag_81:\n    /* \"#utility.yul\":2292:2414   */\ntag_80:\n    /* \"#utility.yul\":2443:2449   */\n  dup2\n    /* \"#utility.yul\":2437:2450   */\n  mload\n    /* \"#utility.yul\":2468:2558   */\n  tag_82\n    /* \"#utility.yul\":2554:2557   */\n  dup5\n    /* \"#utility.yul\":2546:2552   */\n  dup3\n    /* \"#utility.yul\":2539:2543   */\n  0x20\n    /* \"#utility.yul\":2531:2537   */\n  dup7\n    /* \"#utility.yul\":2527:2544   */\n  add\n    /* \"#utility.yul\":2468:2558   */\n  tag_27\n  jump\t// in\ntag_82:\n    /* \"#utility.yul\":2459:2558   */\n  swap2\n  pop\n    /* \"#utility.yul\":2282:2564   */\n  pop\n    /* \"#utility.yul\":2209:2564   */\n  swap3\n  swap2\n  pop\n  pop\n  jump\t// out\n    /* \"#utility.yul\":2570:2696   */\ntag_29:\n    /* \"#utility.yul\":2607:2614   */\n  0x00\n    /* \"#utility.yul\":2647:2689   */\n  0xffffffffffffffffffffffffffffffffffffffff\n    /* \"#utility.yul\":2640:2645   */\n  dup3\n    /* \"#utility.yul\":2636:2690   */\n  and\n    /* \"#utility.yul\":2625:2690   */\n  swap1\n  pop\n    /* \"#utility.yul\":2570:2696   */\n  swap2\n  swap1\n  pop\n  jump\t// out\n    /* \"#utility.yul\":2702:2798   */\ntag_30:\n    /* \"#utility.yul\":2739:2746   */\n  0x00\n    /* \"#utility.yul\":2768:2792   */\n  tag_85\n    /* \"#utility.yul\":2786:2791   */\n  dup3\n    /* \"#utility.yul\":2768:2792   */\n  tag_29\n  jump\t// in\ntag_85:\n    /* \"#utility.yul\":2757:2792   */\n  swap1\n  pop\n    /* \"#utility.yul\":2702:2798   */\n  swap2\n  swap1\n  pop\n  jump\t// out\n    /* \"#utility.yul\":2804:2926   */\ntag_31:\n    /* \"#utility.yul\":2877:2901   */\n  tag_87\n    /* \"#utility.yul\":2895:2900   */\n  dup2\n    /* \"#utility.yul\":2877:2901   */\n  tag_30\n  jump\t// in\ntag_87:\n    /* \"#utility.yul\":2870:2875   */\n  dup2\n    /* \"#utility.yul\":2867:2902   */\n  eq\n    /* \"#utility.yul\":2857:2920   */\n  tag_88\n  jumpi\n    /* \"#utility.yul\":2916:2917   */\n  0x00\n    /* \"#utility.yul\":2913:2914   */\n  dup1\n    /* \"#utility.yul\":2906:2918   */\n  revert\n    /* \"#utility.yul\":2857:2920   */\ntag_88:\n    /* \"#utility.yul\":2804:2926   */\n  pop\n  jump\t// out\n    /* \"#utility.yul\":2932:3075   */\ntag_32:\n    /* \"#utility.yul\":2989:2994   */\n  0x00\n    /* \"#utility.yul\":3020:3026   */\n  dup2\n    /* \"#utility.yul\":3014:3027   */\n  mload\n    /* \"#utility.yul\":3005:3027   */\n  swap1\n  pop\n    /* \"#utility.yul\":3036:3069   */\n  tag_90\n    /* \"#utility.yul\":3063:3068   */\n  dup2\n    /* \"#utility.yul\":3036:3069   */\n  tag_31\n  jump\t// in\ntag_90:\n    /* \"#utility.yul\":2932:3075   */\n  swap3\n  swap2\n  pop\n  pop\n  jump\t// out\n    /* \"#utility.yul\":3081:4074   */\ntag_3:\n    /* \"#utility.yul\":3188:3194   */\n  0x00\n    /* \"#utility.yul\":3196:3202   */\n  dup1\n    /* \"#utility.yul\":3204:3210   */\n  0x00\n    /* \"#utility.yul\":3212:3218   */\n  dup1\n    /* \"#utility.yul\":3261:3264   */\n  0x80\n    /* \"#utility.yul\":3249:3258   */\n  dup6\n    /* \"#utility.yul\":3240:3247   */\n  dup8\n    /* \"#utility.yul\":3236:3259   */\n  sub\n    /* \"#utility.yul\":3232:3265   */\n  slt\n    /* \"#utility.yul\":3229:3349   */\n  iszero\n  tag_92\n  jumpi\n    /* \"#utility.yul\":3268:3347   */\n  tag_93\n  tag_17\n  jump\t// in\ntag_93:\n    /* \"#utility.yul\":3229:3349   */\ntag_92:\n    /* \"#utility.yul\":3409:3410   */\n  0x00\n    /* \"#utility.yul\":3398:3407   */\n  dup6\n    /* \"#utility.yul\":3394:3411   */\n  add\n    /* \"#utility.yul\":3388:3412   */\n  mload\n    /* \"#utility.yul\":3439:3457   */\n  0xffffffffffffffff\n    /* \"#utility.yul\":3431:3437   */\n  dup2\n    /* \"#utility.yul\":3428:3458   */\n  gt\n    /* \"#utility.yul\":3425:3542   */\n  iszero\n  tag_94\n  jumpi\n    /* \"#utility.yul\":3461:3540   */\n  tag_95\n  tag_18\n  jump\t// in\ntag_95:\n    /* \"#utility.yul\":3425:3542   */\ntag_94:\n    /* \"#utility.yul\":3566:3640   */\n  tag_96\n    /* \"#utility.yul\":3632:3639   */\n  dup8\n    /* \"#utility.yul\":3623:3629   */\n  dup3\n    /* \"#utility.yul\":3612:3621   */\n  dup9\n    /* \"#utility.yul\":3608:3630   */\n  add\n    /* \"#utility.yul\":3566:3640   */\n  tag_28\n  jump\t// in\ntag_96:\n    /* \"#utility.yul\":3556:3640   */\n  swap5\n  pop\n    /* \"#utility.yul\":3359:3650   */\n  pop\n    /* \"#utility.yul\":3689:3691   */\n  0x20\n    /* \"#utility.yul\":3715:3779   */\n  tag_97\n    /* \"#utility.yul\":3771:3778   */\n  dup8\n    /* \"#utility.yul\":3762:3768   */\n  dup3\n    /* \"#utility.yul\":3751:3760   */\n  dup9\n    /* \"#utility.yul\":3747:3769   */\n  add\n    /* \"#utility.yul\":3715:3779   */\n  tag_32\n  jump\t// in\ntag_97:\n    /* \"#utility.yul\":3705:3779   */\n  swap4\n  pop\n    /* \"#utility.yul\":3660:3789   */\n  pop\n    /* \"#utility.yul\":3828:3830   */\n  0x40\n    /* \"#utility.yul\":3854:3918   */\n  tag_98\n    /* \"#utility.yul\":3910:3917   */\n  dup8\n    /* \"#utility.yul\":3901:3907   */\n  dup3\n    /* \"#utility.yul\":3890:3899   */\n  dup9\n    /* \"#utility.yul\":3886:3908   */\n  add\n    /* \"#utility.yul\":3854:3918   */\n  tag_32\n  jump\t// in\ntag_98:\n    /* \"#utility.yul\":3844:3918   */\n  swap3\n  pop\n    /* \"#utility.yul\":3799:3928   */\n  pop\n    /* \"#utility.yul\":3967:3969   */\n  0x60\n    /* \"#utility.yul\":3993:4057   */\n  tag_99\n    /* \"#utility.yul\":4049:4056   */\n  dup8\n    /* \"#utility.yul\":4040:4046   */\n  dup3\n    /* \"#utility.yul\":4029:4038   */\n  dup9\n    /* \"#utility.yul\":4025:4047   */\n  add\n    /* \"#utility.yul\":3993:4057   */\n  tag_32\n  jump\t// in\ntag_99:\n    /* \"#utility.yul\":3983:4057   */\n  swap2\n  pop\n    /* \"#utility.yul\":3938:4067   */\n  pop\n    /* \"#utility.yul\":3081:4074   */\n  swap3\n  swap6\n  swap2\n  swap5\n  pop\n  swap3\n  pop\n  jump\t// out\n    /* \"#utility.yul\":4080:4179   */\ntag_33:\n    /* \"#utility.yul\":4132:4138   */\n  0x00\n    /* \"#utility.yul\":4166:4171   */\n  dup2\n    /* \"#utility.yul\":4160:4172   */\n  mload\n    /* \"#utility.yul\":4150:4172   */\n  swap1\n  pop\n    /* \"#utility.yul\":4080:4179   */\n  swap2\n  swap1\n  pop\n  jump\t// out\n    /* \"#utility.yul\":4185:4365   */\ntag_34:\n    /* \"#utility.yul\":4233:4310   */\n  0x4e487b7100000000000000000000000000000000000000000000000000000000\n    /* \"#utility.yul\":4230:4231   */\n  0x00\n    /* \"#utility.yul\":4223:4311   */\n  mstore\n    /* \"#utility.yul\":4330:4334   */\n  0x22\n    /* \"#utility.yul\":4327:4328   */\n  0x04\n    /* \"#utility.yul\":4320:4335   */\n  mstore\n    /* \"#utility.yul\":4354:4358   */\n  0x24\n    /* \"#utility.yul\":4351:4352   */\n  0x00\n    /* \"#utility.yul\":4344:4359   */\n  revert\n    /* \"#utility.yul\":4371:4691   */\ntag_35:\n    /* \"#utility.yul\":4415:4421   */\n  0x00\n    /* \"#utility.yul\":4452:4453   */\n  0x02\n    /* \"#utility.yul\":4446:4450   */\n  dup3\n    /* \"#utility.yul\":4442:4454   */\n  div\n    /* \"#utility.yul\":4432:4454   */\n  swap1\n  pop\n    /* \"#utility.yul\":4499:4500   */\n  0x01\n    /* \"#utility.yul\":4493:4497   */\n  dup3\n    /* \"#utility.yul\":4489:4501   */\n  and\n    /* \"#utility.yul\":4520:4538   */\n  dup1\n    /* \"#utility.yul\":4510:4591   */\n  tag_103\n  jumpi\n    /* \"#utility.yul\":4576:4580   */\n  0x7f\n    /* \"#utility.yul\":4568:4574   */\n  dup3\n    /* \"#utility.yul\":4564:4581   */\n  and\n    /* \"#utility.yul\":4554:4581   */\n  swap2\n  pop\n    /* \"#utility.yul\":4510:4591   */\ntag_103:\n    /* \"#utility.yul\":4638:4640   */\n  0x20\n    /* \"#utility.yul\":4630:4636   */\n  dup3\n    /* \"#utility.yul\":4627:4641   */\n  lt\n    /* \"#utility.yul\":4607:4625   */\n  dup2\n    /* \"#utility.yul\":4604:4642   */\n  sub\n    /* \"#utility.yul\":4601:4685   */\n  tag_104\n  jumpi\n    /* \"#utility.yul\":4657:4675   */\n  tag_105\n  tag_34\n  jump\t// in\ntag_105:\n    /* \"#utility.yul\":4601:4685   */\ntag_104:\n    /* \"#utility.yul\":4422:4691   */\n  pop\n    /* \"#utility.yul\":4371:4691   */\n  swap2\n  swap1\n  pop\n  jump\t// out\n    /* \"#utility.yul\":4697:4838   */\ntag_36:\n    /* \"#utility.yul\":4746:4750   */\n  0x00\n    /* \"#utility.yul\":4769:4772   */\n  dup2\n    /* \"#utility.yul\":4761:4772   */\n  swap1\n  pop\n    /* \"#utility.yul\":4792:4795   */\n  dup2\n    /* \"#utility.yul\":4789:4790   */\n  0x00\n    /* \"#utility.yul\":4782:4796   */\n  mstore\n    /* \"#utility.yul\":4826:4830   */\n  0x20\n    /* \"#utility.yul\":4823:4824   */\n  0x00\n    /* \"#utility.yul\":4813:4831   */\n  keccak256\n    /* \"#utility.yul\":4805:4831   */\n  swap1\n  pop\n    /* \"#utility.yul\":4697:4838   */\n  swap2\n  swap1\n  pop\n  jump\t// out\n    /* \"#utility.yul\":4844:4937   */\ntag_37:\n    /* \"#utility.yul\":4881:4887   */\n  0x00\n    /* \"#utility.yul\":4928:4930   */\n  0x20\n    /* \"#utility.yul\":4923:4925   */\n  0x1f\n    /* \"#utility.yul\":4916:4921   */\n  dup4\n    /* \"#utility.yul\":4912:4926   */\n  add\n    /* \"#utility.yul\":4908:4931   */\n  div\n    /* \"#utility.yul\":4898:4931   */\n  swap1\n  pop\n    /* \"#utility.yul\":4844:4937   */\n  swap2\n  swap1\n  pop\n  jump\t// out\n    /* \"#utility.yul\":4943:5050   */\ntag_38:\n    /* \"#utility.yul\":4987:4995   */\n  0x00\n    /* \"#utility.yul\":5037:5042   */\n  dup3\n    /* \"#utility.yul\":5031:5035   */\n  dup3\n    /* \"#utility.yul\":5027:5043   */\n  shl\n    /* \"#utility.yul\":5006:5043   */\n  swap1\n  pop\n    /* \"#utility.yul\":4943:5050   */\n  swap3\n  swap2\n  pop\n  pop\n  jump\t// out\n    /* \"#utility.yul\":5056:5449   */\ntag_39:\n    /* \"#utility.yul\":5125:5131   */\n  0x00\n    /* \"#utility.yul\":5175:5176   */\n  0x08\n    /* \"#utility.yul\":5163:5173   */\n  dup4\n    /* \"#utility.yul\":5159:5177   */\n  mul\n    /* \"#utility.yul\":5198:5295   */\n  tag_110\n    /* \"#utility.yul\":5228:5294   */\n  0xffffffffffffffffffffffffffffffffffffffffffffffffffffffffffffffff\n    /* \"#utility.yul\":5217:5226   */\n  dup3\n    /* \"#utility.yul\":5198:5295   */\n  tag_38\n  jump\t// in\ntag_110:\n    /* \"#utility.yul\":5316:5355   */\n  tag_111\n    /* \"#utility.yul\":5346:5354   */\n  dup7\n    /* \"#utility.yul\":5335:5344   */\n  dup4\n    /* \"#utility.yul\":5316:5355   */\n  tag_38\n  jump\t// in\ntag_111:\n    /* \"#utility.yul\":5304:5355   */\n  swap6\n  pop\n    /* \"#utility.yul\":5388:5392   */\n  dup1\n    /* \"#utility.yul\":5384:5393   */\n  not\n    /* \"#utility.yul\":5377:5382   */\n  dup5\n    /* \"#utility.yul\":5373:5394   */\n  and\n    /* \"#utility.yul\":5364:5394   */\n  swap4\n  pop\n    /* \"#utility.yul\":5437:5441   */\n  dup1\n    /* \"#utility.yul\":5427:5435   */\n  dup7\n    /* \"#utility.yul\":5423:5442   */\n  and\n    /* \"#utility.yul\":5416:5421   */\n  dup5\n    /* \"#utility.yul\":5413:5443   */\n  or\n    /* \"#utility.yul\":5403:5443   */\n  swap3\n  pop\n    /* \"#utility.yul\":5132:5449   */\n  pop\n  pop\n    /* \"#utility.yul\":5056:5449   */\n  swap4\n  swap3\n  pop\n  pop\n  pop\n  jump\t// out\n    /* \"#utility.yul\":5455:5532   */\ntag_40:\n    /* \"#utility.yul\":5492:5499   */\n  0x00\n    /* \"#utility.yul\":5521:5526   */\n  dup2\n    /* \"#utility.yul\":5510:5526   */\n  swap1\n  pop\n    /* \"#utility.yul\":5455:5532   */\n  swap2\n  swap1\n  pop\n  jump\t// out\n    /* \"#utility.yul\":5538:5598   */\ntag_41:\n    /* \"#utility.yul\":5566:5569   */\n  0x00\n    /* \"#utility.yul\":5587:5592   */\n  dup2\n    /* \"#utility.yul\":5580:5592   */\n  swap1\n  pop\n    /* \"#utility.yul\":5538:5598   */\n  swap2\n  swap1\n  pop\n  jump\t// out\n    /* \"#utility.yul\":5604:5746   */\ntag_42:\n    /* \"#utility.yul\":5654:5663   */\n  0x00\n    /* \"#utility.yul\":5687:5740   */\n  tag_115\n    /* \"#utility.yul\":5705:5739   */\n  tag_116\n    /* \"#utility.yul\":5714:5738   */\n  tag_117\n    /* \"#utility.yul\":5732:5737   */\n  dup5\n    /* \"#utility.yul\":5714:5738   */\n  tag_40\n  jump\t// in\ntag_117:\n    /* \"#utility.yul\":5705:5739   */\n  tag_41\n  jump\t// in\ntag_116:\n    /* \"#utility.yul\":5687:5740   */\n  tag_40\n  jump\t// in\ntag_115:\n    /* \"#utility.yul\":5674:5740   */\n  swap1\n  pop\n    /* \"#utility.yul\":5604:5746   */\n  swap2\n  swap1\n  pop\n  jump\t// out\n    /* \"#utility.yul\":5752:5827   */\ntag_43:\n    /* \"#utility.yul\":5795:5798   */\n  0x00\n    /* \"#utility.yul\":5816:5821   */\n  dup2\n    /* \"#utility.yul\":5809:5821   */\n  swap1\n  pop\n    /* \"#utility.yul\":5752:5827   */\n  swap2\n  swap1\n  pop\n  jump\t// out\n    /* \"#utility.yul\":5833:6102   */\ntag_44:\n    /* \"#utility.yul\":5943:5982   */\n  tag_120\n    /* \"#utility.yul\":5974:5981   */\n  dup4\n    /* \"#utility.yul\":5943:5982   */\n  tag_42\n  jump\t// in\ntag_120:\n    /* \"#utility.yul\":6004:6095   */\n  tag_121\n    /* \"#utility.yul\":6053:6094   */\n  tag_122\n    /* \"#utility.yul\":6077:6093   */\n  dup3\n    /* \"#utility.yul\":6053:6094   */\n  tag_43\n  jump\t// in\ntag_122:\n    /* \"#utility.yul\":6045:6051   */\n  dup5\n    /* \"#utility.yul\":6038:6042   */\n  dup5\n    /* \"#utility.yul\":6032:6043   */\n  sload\n    /* \"#utility.yul\":6004:6095   */\n  tag_39\n  jump\t// in\ntag_121:\n    /* \"#utility.yul\":5998:6002   */\n  dup3\n    /* \"#utility.yul\":5991:6096   */\n  sstore\n    /* \"#utility.yul\":5909:6102   */\n  pop\n    /* \"#utility.yul\":5833:6102   */\n  pop\n  pop\n  pop\n  jump\t// out\n    /* \"#utility.yul\":6108:6181   */\ntag_45:\n    /* \"#utility.yul\":6153:6156   */\n  0x00\n    /* \"#utility.yul\":6108:6181   */\n  swap1\n  jump\t// out\n    /* \"#utility.yul\":6187:6376   */\ntag_46:\n    /* \"#utility.yul\":6264:6296   */\n  tag_125\n  tag_45\n  jump\t// in\ntag_125:\n    /* \"#utility.yul\":6305:6370   */\n  tag_126\n    /* \"#utility.yul\":6363:6369   */\n  dup2\n    /* \"#utility.yul\":6355:6361   */\n  dup5\n    /* \"#utility.yul\":6349:6353   */\n  dup5\n    /* \"#utility.yul\":6305:6370   */\n  tag_44\n  jump\t// in\ntag_126:\n    /* \"#utility.yul\":6240:6376   */\n  pop\n    /* \"#utility.yul\":6187:6376   */\n  pop\n  pop\n  jump\t// out\n    /* \"#utility.yul\":6382:6568   */\ntag_47:\n    /* \"#utility.yul\":6442:6562   */\ntag_128:\n    /* \"#utility.yul\":6459:6462   */\n  dup2\n    /* \"#utility.yul\":6452:6457   */\n  dup2\n    /* \"#utility.yul\":6449:6463   */\n  lt\n    /* \"#utility.yul\":6442:6562   */\n  iszero\n  tag_130\n  jumpi\n    /* \"#utility.yul\":6513:6552   */\n  tag_131\n    /* \"#utility.yul\":6550:6551   */\n  0x00\n    /* \"#utility.yul\":6543:6548   */\n  dup3\n    /* \"#utility.yul\":6513:6552   */\n  tag_46\n  jump\t// in\ntag_131:\n    /* \"#utility.yul\":6486:6487   */\n  0x01\n    /* \"#utility.yul\":6479:6484   */\n  dup2\n    /* \"#utility.yul\":6475:6488   */\n  add\n    /* \"#utility.yul\":6466:6488   */\n  swap1\n  pop\n    /* \"#utility.yul\":6442:6562   */\n  jump(tag_128)\ntag_130:\n    /* \"#utility.yul\":6382:6568   */\n  pop\n  pop\n  jump\t// out\n    /* \"#utility.yul\":6574:7117   */\ntag_48:\n    /* \"#utility.yul\":6675:6677   */\n  0x1f\n    /* \"#utility.yul\":6670:6673   */\n  dup3\n    /* \"#utility.yul\":6667:6678   */\n  gt\n    /* \"#utility.yul\":6664:7110   */\n  iszero\n  tag_133\n  jumpi\n    /* \"#utility.yul\":6709:6747   */\n  tag_134\n    /* \"#utility.yul\":6741:6746   */\n  dup2\n    /* \"#utility.yul\":6709:6747   */\n  tag_36\n  jump\t// in\ntag_134:\n    /* \"#utility.yul\":6793:6822   */\n  tag_135\n    /* \"#utility.yul\":6811:6821   */\n  dup5\n    /* \"#utility.yul\":6793:6822   */\n  tag_37\n  jump\t// in\ntag_135:\n    /* \"#utility.yul\":6783:6791   */\n  dup2\n    /* \"#utility.yul\":6779:6823   */\n  add\n    /* \"#utility.yul\":6976:6978   */\n  0x20\n    /* \"#utility.yul\":6964:6974   */\n  dup6\n    /* \"#utility.yul\":6961:6979   */\n  lt\n    /* \"#utility.yul\":6958:7007   */\n  iszero\n  tag_136\n  jumpi\n    /* \"#utility.yul\":6997:7005   */\n  dup2\n    /* \"#utility.yul\":6982:7005   */\n  swap1\n  pop\n    /* \"#utility.yul\":6958:7007   */\ntag_136:\n    /* \"#utility.yul\":7020:7100   */\n  tag_137\n    /* \"#utility.yul\":7076:7098   */\n  tag_138\n    /* \"#utility.yul\":7094:7097   */\n  dup6\n    /* \"#utility.yul\":7076:7098   */\n  tag_37\n  jump\t// in\ntag_138:\n    /* \"#utility.yul\":7066:7074   */\n  dup4\n    /* \"#utility.yul\":7062:7099   */\n  add\n    /* \"#utility.yul\":7049:7060   */\n  dup3\n    /* \"#utility.yul\":7020:7100   */\n  tag_47\n  jump\t// in\ntag_137:\n    /* \"#utility.yul\":6679:7110   */\n  pop\n  pop\n    /* \"#utility.yul\":6664:7110   */\ntag_133:\n    /* \"#utility.yul\":6574:7117   */\n  pop\n  pop\n  pop\n  jump\t// out\n    /* \"#utility.yul\":7123:7240   */\ntag_49:\n    /* \"#utility.yul\":7177:7185   */\n  0x00\n    /* \"#utility.yul\":7227:7232   */\n  dup3\n    /* \"#utility.yul\":7221:7225   */\n  dup3\n    /* \"#utility.yul\":7217:7233   */\n  shr\n    /* \"#utility.yul\":7196:7233   */\n  swap1\n  pop\n    /* \"#utility.yul\":7123:7240   */\n  swap3\n  swap2\n  pop\n  pop\n  jump\t// out\n    /* \"#utility.yul\":7246:7415   */\ntag_50:\n    /* \"#utility.yul\":7290:7296   */\n  0x00\n    /* \"#utility.yul\":7323:7374   */\n  tag_141\n    /* \"#utility.yul\":7371:7372   */\n  0x00\n    /* \"#utility.yul\":7367:7373   */\n  not\n    /* \"#utility.yul\":7359:7364   */\n  dup5\n    /* \"#utility.yul\":7356:7357   */\n  0x08\n    /* \"#utility.yul\":7352:7365   */\n  mul\n    /* \"#utility.yul\":7323:7374   */\n  tag_49\n  jump\t// in\ntag_141:\n    /* \"#utility.yul\":7319:7375   */\n  not\n    /* \"#utility.yul\":7404:7408   */\n  dup1\n    /* \"#utility.yul\":7398:7402   */\n  dup4\n    /* \"#utility.yul\":7394:7409   */\n  and\n    /* \"#utility.yul\":7384:7409   */\n  swap2\n  pop\n    /* \"#utility.yul\":7297:7415   */\n  pop\n    /* \"#utility.yul\":7246:7415   */\n  swap3\n  swap2\n  pop\n  pop\n  jump\t// out\n    /* \"#utility.yul\":7420:7715   */\ntag_51:\n    /* \"#utility.yul\":7496:7500   */\n  0x00\n    /* \"#utility.yul\":7642:7671   */\n  tag_143\n    /* \"#utility.yul\":7667:7670   */\n  dup4\n    /* \"#utility.yul\":7661:7665   */\n  dup4\n    /* \"#utility.yul\":7642:7671   */\n  tag_50\n  jump\t// in\ntag_143:\n    /* \"#utility.yul\":7634:7671   */\n  swap2\n  pop\n    /* \"#utility.yul\":7704:7707   */\n  dup3\n    /* \"#utility.yul\":7701:7702   */\n  0x02\n    /* \"#utility.yul\":7697:7708   */\n  mul\n    /* \"#utility.yul\":7691:7695   */\n  dup3\n    /* \"#utility.yul\":7688:7709   */\n  or\n    /* \"#utility.yul\":7680:7709   */\n  swap1\n  pop\n    /* \"#utility.yul\":7420:7715   */\n  swap3\n  swap2\n  pop\n  pop\n  jump\t// out\n    /* \"#utility.yul\":7720:9115   */\ntag_8:\n    /* \"#utility.yul\":7837:7874   */\n  tag_145\n    /* \"#utility.yul\":7870:7873   */\n  dup3\n    /* \"#utility.yul\":7837:7874   */\n  tag_33\n  jump\t// in\ntag_145:\n    /* \"#utility.yul\":7939:7957   */\n  0xffffffffffffffff\n    /* \"#utility.yul\":7931:7937   */\n  dup2\n    /* \"#utility.yul\":7928:7958   */\n  gt\n    /* \"#utility.yul\":7925:7981   */\n  iszero\n  tag_146\n  jumpi\n    /* \"#utility.yul\":7961:7979   */\n  tag_147\n  tag_22\n  jump\t// in\ntag_147:\n    /* \"#utility.yul\":7925:7981   */\ntag_146:\n    /* \"#utility.yul\":8005:8043   */\n  tag_148\n    /* \"#utility.yul\":8037:8041   */\n  dup3\n    /* \"#utility.yul\":8031:8042   */\n  sload\n    /* \"#utility.yul\":8005:8043   */\n  tag_35\n  jump\t// in\ntag_148:\n    /* \"#utility.yul\":8090:8157   */\n  tag_149\n    /* \"#utility.yul\":8150:8156   */\n  dup3\n    /* \"#utility.yul\":8142:8148   */\n  dup3\n    /* \"#utility.yul\":8136:8140   */\n  dup6\n    /* \"#utility.yul\":8090:8157   */\n  tag_48\n  jump\t// in\ntag_149:\n    /* \"#utility.yul\":8184:8185   */\n  0x00\n    /* \"#utility.yul\":8208:8212   */\n  0x20\n    /* \"#utility.yul\":8195:8212   */\n  swap1\n  pop\n    /* \"#utility.yul\":8240:8242   */\n  0x1f\n    /* \"#utility.yul\":8232:8238   */\n  dup4\n    /* \"#utility.yul\":8229:8243   */\n  gt\n    /* \"#utility.yul\":8257:8258   */\n  0x01\n    /* \"#utility.yul\":8252:8870   */\n  dup2\n  eq\n  tag_151\n  jumpi\n    /* \"#utility.yul\":8914:8915   */\n  0x00\n    /* \"#utility.yul\":8931:8937   */\n  dup5\n    /* \"#utility.yul\":8928:9005   */\n  iszero\n  tag_152\n  jumpi\n    /* \"#utility.yul\":8980:8989   */\n  dup3\n    /* \"#utility.yul\":8975:8978   */\n  dup8\n    /* \"#utility.yul\":8971:8990   */\n  add\n    /* \"#utility.yul\":8965:8991   */\n  mload\n    /* \"#utility.yul\":8956:8991   */\n  swap1\n  pop\n    /* \"#utility.yul\":8928:9005   */\ntag_152:\n    /* \"#utility.yul\":9031:9098   */\n  tag_153\n    /* \"#utility.yul\":9091:9097   */\n  dup6\n    /* \"#utility.yul\":9084:9089   */\n  dup3\n    /* \"#utility.yul\":9031:9098   */\n  tag_51\n  jump\t// in\ntag_153:\n    /* \"#utility.yul\":9025:9029   */\n  dup7\n    /* \"#utility.yul\":9018:9099   */\n  sstore\n    /* \"#utility.yul\":8887:9109   */\n  pop\n    /* \"#utility.yul\":8222:9109   */\n  jump(tag_150)\n    /* \"#utility.yul\":8252:8870   */\ntag_151:\n    /* \"#utility.yul\":8304:8308   */\n  0x1f\n    /* \"#utility.yul\":8300:8309   */\n  not\n    /* \"#utility.yul\":8292:8298   */\n  dup5\n    /* \"#utility.yul\":8288:8310   */\n  and\n    /* \"#utility.yul\":8338:8375   */\n  tag_154\n    /* \"#utility.yul\":8370:8374   */\n  dup7\n    /* \"#utility.yul\":8338:8375   */\n  tag_36\n  jump\t// in\ntag_154:\n    /* \"#utility.yul\":8397:8398   */\n  0x00\n    /* \"#utility.yul\":8411:8619   */\ntag_155:\n    /* \"#utility.yul\":8425:8432   */\n  dup3\n    /* \"#utility.yul\":8422:8423   */\n  dup2\n    /* \"#utility.yul\":8419:8433   */\n  lt\n    /* \"#utility.yul\":8411:8619   */\n  iszero\n  tag_157\n  jumpi\n    /* \"#utility.yul\":8504:8513   */\n  dup5\n    /* \"#utility.yul\":8499:8502   */\n  dup10\n    /* \"#utility.yul\":8495:8514   */\n  add\n    /* \"#utility.yul\":8489:8515   */\n  mload\n    /* \"#utility.yul\":8481:8487   */\n  dup3\n    /* \"#utility.yul\":8474:8516   */\n  sstore\n    /* \"#utility.yul\":8555:8556   */\n  0x01\n    /* \"#utility.yul\":8547:8553   */\n  dup3\n    /* \"#utility.yul\":8543:8557   */\n  add\n    /* \"#utility.yul\":8533:8557   */\n  swap2\n  pop\n    /* \"#utility.yul\":8602:8604   */\n  0x20\n    /* \"#utility.yul\":8591:8600   */\n  dup6\n    /* \"#utility.yul\":8587:8605   */\n  add\n    /* \"#utility.yul\":8574:8605   */\n  swap5\n  pop\n    /* \"#utility.yul\":8448:8452   */\n  0x20\n    /* \"#utility.yul\":8445:8446   */\n  dup2\n    /* \"#utility.yul\":8441:8453   */\n  add\n    /* \"#utility.yul\":8436:8453   */\n  swap1\n  pop\n    /* \"#utility.yul\":8411:8619   */\n  jump(tag_155)\ntag_157:\n    /* \"#utility.yul\":8647:8653   */\n  dup7\n    /* \"#utility.yul\":8638:8645   */\n  dup4\n    /* \"#utility.yul\":8635:8654   */\n  lt\n    /* \"#utility.yul\":8632:8811   */\n  iszero\n  tag_158\n  jumpi\n    /* \"#utility.yul\":8705:8714   */\n  dup5\n    /* \"#utility.yul\":8700:8703   */\n  dup10\n    /* \"#utility.yul\":8696:8715   */\n  add\n    /* \"#utility.yul\":8690:8716   */\n  mload\n    /* \"#utility.yul\":8748:8796   */\n  tag_159\n    /* \"#utility.yul\":8790:8794   */\n  0x1f\n    /* \"#utility.yul\":8782:8788   */\n  dup10\n    /* \"#utility.yul\":8778:8795   */\n  and\n    /* \"#utility.yul\":8767:8776   */\n  dup3\n    /* \"#utility.yul\":8748:8796   */\n  tag_50\n  jump\t// in\ntag_159:\n    /* \"#utility.yul\":8740:8746   */\n  dup4\n    /* \"#utility.yul\":8733:8797   */\n  sstore\n    /* \"#utility.yul\":8655:8811   */\n  pop\n    /* \"#utility.yul\":8632:8811   */\ntag_158:\n    /* \"#utility.yul\":8857:8858   */\n  0x01\n    /* \"#utility.yul\":8853:8854   */\n  0x02\n    /* \"#utility.yul\":8845:8851   */\n  dup9\n    /* \"#utility.yul\":8841:8855   */\n  mul\n    /* \"#utility.yul\":8837:8859   */\n  add\n    /* \"#utility.yul\":8831:8835   */\n  dup9\n    /* \"#utility.yul\":8824:8860   */\n  sstore\n    /* \"#utility.yul\":8259:8870   */\n  pop\n  pop\n  pop\n    /* \"#utility.yul\":8222:9109   */\ntag_150:\n  pop\n    /* \"#utility.yul\":7812:9115   */\n  pop\n  pop\n  pop\n    /* \"#utility.yul\":7720:9115   */\n  pop\n  pop\n  jump\t// out\n    /* \"#utility.yul\":9121:9301   */\ntag_11:\n    /* \"#utility.yul\":9169:9246   */\n  0x4e487b7100000000000000000000000000000000000000000000000000000000\n    /* \"#utility.yul\":9166:9167   */\n  0x00\n    /* \"#utility.yul\":9159:9247   */\n  mstore\n    /* \"#utility.yul\":9266:9270   */\n  0x21\n    /* \"#utility.yul\":9263:9264   */\n  0x04\n    /* \"#utility.yul\":9256:9271   */\n  mstore\n    /* \"#utility.yul\":9290:9294   */\n  0x24\n    /* \"#utility.yul\":9287:9288   */\n  0x00\n    /* \"#utility.yul\":9280:9295   */\n  revert\n    /* \"#utility.yul\":9307:9425   */\ntag_52:\n    /* \"#utility.yul\":9394:9418   */\n  tag_162\n    /* \"#utility.yul\":9412:9417   */\n  dup2\n    /* \"#utility.yul\":9394:9418   */\n  tag_30\n  jump\t// in\ntag_162:\n    /* \"#utility.yul\":9389:9392   */\n  dup3\n    /* \"#utility.yul\":9382:9419   */\n  mstore\n    /* \"#utility.yul\":9307:9425   */\n  pop\n  pop\n  jump\t// out\n    /* \"#utility.yul\":9431:9653   */\ntag_14:\n    /* \"#utility.yul\":9524:9528   */\n  0x00\n    /* \"#utility.yul\":9562:9564   */\n  0x20\n    /* \"#utility.yul\":9551:9560   */\n  dup3\n    /* \"#utility.yul\":9547:9565   */\n  add\n    /* \"#utility.yul\":9539:9565   */\n  swap1\n  pop\n    /* \"#utility.yul\":9575:9646   */\n  tag_164\n    /* \"#utility.yul\":9643:9644   */\n  0x00\n    /* \"#utility.yul\":9632:9641   */\n  dup4\n    /* \"#utility.yul\":9628:9645   */\n  add\n    /* \"#utility.yul\":9619:9625   */\n  dup5\n    /* \"#utility.yul\":9575:9646   */\n  tag_52\n  jump\t// in\ntag_164:\n    /* \"#utility.yul\":9431:9653   */\n  swap3\n  swap2\n  pop\n  pop\n  jump\t// out\n    /* \"./Items/Chat.sol\":137:1197  contract Chat is VaultItem{... */\ntag_15:\n  dataSize(sub_0)\n  dup1\n  dataOffset(sub_0)\n  0x00\n  codecopy\n  0x00\n  return\nstop\n\nsub_0: assembly {\n        /* \"./Items/Chat.sol\":137:1197  contract Chat is VaultItem{... */\n      mstore(0x40, 0x80)\n      callvalue\n      dup1\n      iszero\n      tag_1\n      jumpi\n      0x00\n      dup1\n      revert\n    tag_1:\n      pop\n      jumpi(tag_2, lt(calldatasize, 0x04))\n      shr(0xe0, calldataload(0x00))\n      dup1\n      0x80f76021\n      gt\n      tag_13\n      jumpi\n      dup1\n      0x80f76021\n      eq\n      tag_8\n      jumpi\n      dup1\n      0xa95264d0\n      eq\n      tag_9\n      jumpi\n      dup1\n      0xb9daf3e2\n      eq\n      tag_10\n      jumpi\n      dup1\n      0xc47f0027\n      eq\n      tag_11\n      jumpi\n      dup1\n      0xded92dac\n      eq\n      tag_12\n      jumpi\n      jump(tag_2)\n    tag_13:\n      dup1\n      0x26c7b327\n      eq\n      tag_3\n      jumpi\n      dup1\n      0x469c8110\n      eq\n      tag_4\n      jumpi\n      dup1\n      0x4ba83374\n      eq\n      tag_5\n      jumpi\n      dup1\n      0x5da6ef8d\n      eq\n      tag_6\n      jumpi\n      dup1\n      0x5ff6cbf3\n      eq\n      tag_7\n      jumpi\n    tag_2:\n      0x00\n      dup1\n      revert\n        /* \"./Items/VaultItem.sol\":239:270  ItemTypes.Type public item_type */\n    tag_3:\n      tag_14\n      tag_15\n      jump\t// in\n    tag_14:\n      mload(0x40)\n      tag_16\n      swap2\n      swap1\n      tag_17\n      jump\t// in\n    tag_16:\n      mload(0x40)\n      dup1\n      swap2\n      sub\n      swap1\n      return\n        /* \"./Items/Chat.sol\":955:1184  function sendMessage(string memory _text) external onlyOwnerOrGuest {... */\n    tag_4:\n      tag_18\n      0x04\n      dup1\n      calldatasize\n      sub\n      dup2\n      add\n      swap1\n      tag_19\n      swap2\n      swap1\n      tag_20\n      jump\t// in\n    tag_19:\n      tag_21\n      jump\t// in\n    tag_18:\n      stop\n        /* \"./Items/VaultItem.sol\":1217:1354  function isSharedWith() external view returns (bool) {... */\n    tag_5:\n      tag_22\n      tag_23\n      jump\t// in\n    tag_22:\n      mload(0x40)\n      tag_24\n      swap2\n      swap1\n      tag_25\n      jump\t// in\n    tag_24:\n      mload(0x40)\n      dup1\n      swap2\n      sub\n      swap1\n      return\n        /* \"./Items/VaultItem.sol\":1488:1695  function shareWith(address _w) external ownerOnly {... */\n    tag_6:\n      tag_26\n      0x04\n      dup1\n      calldatasize\n      sub\n      dup2\n      add\n      swap1\n      tag_27\n      swap2\n      swap1\n      tag_28\n      jump\t// in\n    tag_27:\n      tag_29\n      jump\t// in\n    tag_26:\n      stop\n        /* \"./Items/Chat.sol\":831:947  function getMessages() external onlyOwnerOrGuest view returns ( Message[] memory ){... */\n    tag_7:\n      tag_30\n      tag_31\n      jump\t// in\n    tag_30:\n      mload(0x40)\n      tag_32\n      swap2\n      swap1\n      tag_33\n      jump\t// in\n    tag_32:\n      mload(0x40)\n      dup1\n      swap2\n      sub\n      swap1\n      return\n        /* \"./Items/VaultItem.sol\":1112:1209  function getParent() external view ownerOnly returns (address) {... */\n    tag_8:\n      tag_34\n      tag_35\n      jump\t// in\n    tag_34:\n      mload(0x40)\n      tag_36\n      swap2\n      swap1\n      tag_37\n      jump\t// in\n    tag_36:\n      mload(0x40)\n      dup1\n      swap2\n      sub\n      swap1\n      return\n        /* \"./Items/VaultItem.sol\":1362:1480  function getSharedWith() external view ownerOnly returns (address[] memory) {... */\n    tag_9:\n      tag_38\n      tag_39\n      jump\t// in\n    tag_38:\n      mload(0x40)\n      tag_40\n      swap2\n      swap1\n      tag_41\n      jump\t// in\n    tag_40:\n      mload(0x40)\n      dup1\n      swap2\n      sub\n      swap1\n      return\n        /* \"./Items/VaultItem.sol\":861:977  function isOwn() external view  returns (bool) {... */\n    tag_10:\n      tag_42\n      tag_43\n      jump\t// in\n    tag_42:\n      mload(0x40)\n      tag_44\n      swap2\n      swap1\n      tag_25\n      jump\t// in\n    tag_44:\n      mload(0x40)\n      dup1\n      swap2\n      sub\n      swap1\n      return\n        /* \"./Items/VaultItem.sol\":985:1104  function setName(string memory _n) external ownerOnly {... */\n    tag_11:\n      tag_45\n      0x04\n      dup1\n      calldatasize\n      sub\n      dup2\n      add\n      swap1\n      tag_46\n      swap2\n      swap1\n      tag_20\n      jump\t// in\n    tag_46:\n      tag_47\n      jump\t// in\n    tag_45:\n      stop\n        /* \"./Items/VaultItem.sol\":1703:2047  function restictFrom( address _f ) external {... */\n    tag_12:\n      tag_48\n      0x04\n      dup1\n      calldatasize\n      sub\n      dup2\n      add\n      swap1\n      tag_49\n      swap2\n      swap1\n      tag_28\n      jump\t// in\n    tag_49:\n      tag_50\n      jump\t// in\n    tag_48:\n      stop\n        /* \"./Items/VaultItem.sol\":239:270  ItemTypes.Type public item_type */\n    tag_15:\n      0x01\n      0x00\n      swap1\n      sload\n      swap1\n      0x0100\n      exp\n      swap1\n      div\n      0xff\n      and\n      dup2\n      jump\t// out\n        /* \"./Items/Chat.sol\":955:1184  function sendMessage(string memory _text) external onlyOwnerOrGuest {... */\n    tag_21:\n        /* \"./Items/Chat.sol\":388:393  owner */\n      0x01\n      dup1\n      sload\n      swap1\n      0x0100\n      exp\n      swap1\n      div\n      0xffffffffffffffffffffffffffffffffffffffff\n      and\n        /* \"./Items/Chat.sol\":374:393  msg.sender == owner */\n      0xffffffffffffffffffffffffffffffffffffffff\n      and\n        /* \"./Items/Chat.sol\":374:384  msg.sender */\n      caller\n        /* \"./Items/Chat.sol\":374:393  msg.sender == owner */\n      0xffffffffffffffffffffffffffffffffffffffff\n      and\n      eq\n        /* \"./Items/Chat.sol\":374:416  msg.sender == owner || msg.sender == guest */\n      dup1\n      tag_52\n      jumpi\n      pop\n        /* \"./Items/Chat.sol\":411:416  guest */\n      0x04\n      0x00\n      swap1\n      sload\n      swap1\n      0x0100\n      exp\n      swap1\n      div\n      0xffffffffffffffffffffffffffffffffffffffff\n      and\n        /* \"./Items/Chat.sol\":397:416  msg.sender == guest */\n      0xffffffffffffffffffffffffffffffffffffffff\n      and\n        /* \"./Items/Chat.sol\":397:407  msg.sender */\n      caller\n        /* \"./Items/Chat.sol\":397:416  msg.sender == guest */\n      0xffffffffffffffffffffffffffffffffffffffff\n      and\n      eq\n        /* \"./Items/Chat.sol\":374:416  msg.sender == owner || msg.sender == guest */\n    tag_52:\n        /* \"./Items/Chat.sol\":366:424  require(msg.sender == owner || msg.sender == guest, \"403\") */\n      tag_53\n      jumpi\n      mload(0x40)\n      0x08c379a000000000000000000000000000000000000000000000000000000000\n      dup2\n      mstore\n      0x04\n      add\n      tag_54\n      swap1\n      tag_55\n      jump\t// in\n    tag_54:\n      mload(0x40)\n      dup1\n      swap2\n      sub\n      swap1\n      revert\n    tag_53:\n        /* \"./Items/Chat.sol\":1036:1044  messages */\n      0x05\n        /* \"./Items/Chat.sol\":1064:1107  Message(block.timestamp, _text, msg.sender) */\n      mload(0x40)\n      dup1\n      0x60\n      add\n      0x40\n      mstore\n      dup1\n        /* \"./Items/Chat.sol\":1072:1087  block.timestamp */\n      timestamp\n        /* \"./Items/Chat.sol\":1064:1107  Message(block.timestamp, _text, msg.sender) */\n      dup2\n      mstore\n      0x20\n      add\n        /* \"./Items/Chat.sol\":1089:1094  _text */\n      dup4\n        /* \"./Items/Chat.sol\":1064:1107  Message(block.timestamp, _text, msg.sender) */\n      dup2\n      mstore\n      0x20\n      add\n        /* \"./Items/Chat.sol\":1096:1106  msg.sender */\n      caller\n        /* \"./Items/Chat.sol\":1064:1107  Message(block.timestamp, _text, msg.sender) */\n      0xffffffffffffffffffffffffffffffffffffffff\n      and\n      dup2\n      mstore\n      pop\n        /* \"./Items/Chat.sol\":1036:1118  messages.push(... */\n      swap1\n      dup1\n      0x01\n      dup2\n      sload\n      add\n      dup1\n      dup3\n      sstore\n      dup1\n      swap2\n      pop\n      pop\n      0x01\n      swap1\n      sub\n      swap1\n      0x00\n      mstore\n      keccak256(0x00, 0x20)\n      swap1\n      0x03\n      mul\n      add\n      0x00\n      swap1\n      swap2\n      swap1\n      swap2\n      swap1\n      swap2\n      pop\n      0x00\n      dup3\n      add\n      mload\n      dup2\n      0x00\n      add\n      sstore\n      0x20\n      dup3\n      add\n      mload\n      dup2\n      0x01\n      add\n      swap1\n      dup2\n      tag_58\n      swap2\n      swap1\n      tag_59\n      jump\t// in\n    tag_58:\n      pop\n      0x40\n      dup3\n      add\n      mload\n      dup2\n      0x02\n      add\n      exp(0x0100, 0x00)\n      dup2\n      sload\n      dup2\n      0xffffffffffffffffffffffffffffffffffffffff\n      mul\n      not\n      and\n      swap1\n      dup4\n      0xffffffffffffffffffffffffffffffffffffffff\n      and\n      mul\n      or\n      swap1\n      sstore\n      pop\n      pop\n      pop\n        /* \"./Items/Chat.sol\":1147:1157  msg.sender */\n      caller\n        /* \"./Items/Chat.sol\":1136:1176  NewMessage(msg.sender, block.timestamp ) */\n      0xffffffffffffffffffffffffffffffffffffffff\n      and\n      0x0951e0ca7381a5c665ef8d64c982968ea7b66aaf3d6c667a004bc9926d2959b0\n        /* \"./Items/Chat.sol\":1159:1174  block.timestamp */\n      timestamp\n        /* \"./Items/Chat.sol\":1136:1176  NewMessage(msg.sender, block.timestamp ) */\n      mload(0x40)\n      tag_60\n      swap2\n      swap1\n      tag_61\n      jump\t// in\n    tag_60:\n      mload(0x40)\n      dup1\n      swap2\n      sub\n      swap1\n      log2\n        /* \"./Items/Chat.sol\":955:1184  function sendMessage(string memory _text) external onlyOwnerOrGuest {... */\n      pop\n      jump\t// out\n        /* \"./Items/VaultItem.sol\":1217:1354  function isSharedWith() external view returns (bool) {... */\n    tag_23:\n        /* \"./Items/VaultItem.sol\":1264:1268  bool */\n      0x00\n        /* \"./Items/VaultItem.sol\":1344:1346  -1 */\n      0xffffffffffffffffffffffffffffffffffffffffffffffffffffffffffffffff\n        /* \"./Items/VaultItem.sol\":1288:1340  Constants.findAddressIndex( msg.sender, sharedWith ) */\n      tag_63\n        /* \"./Items/VaultItem.sol\":1316:1326  msg.sender */\n      caller\n        /* \"./Items/VaultItem.sol\":1328:1338  sharedWith */\n      0x03\n        /* \"./Items/VaultItem.sol\":1288:1340  Constants.findAddressIndex( msg.sender, sharedWith ) */\n      dup1\n      sload\n      dup1\n      0x20\n      mul\n      0x20\n      add\n      mload(0x40)\n      swap1\n      dup2\n      add\n      0x40\n      mstore\n      dup1\n      swap3\n      swap2\n      swap1\n      dup2\n      dup2\n      mstore\n      0x20\n      add\n      dup3\n      dup1\n      sload\n      dup1\n      iszero\n      tag_64\n      jumpi\n      0x20\n      mul\n      dup3\n      add\n      swap2\n      swap1\n      0x00\n      mstore\n      keccak256(0x00, 0x20)\n      swap1\n    tag_65:\n      dup2\n      0x00\n      swap1\n      sload\n      swap1\n      0x0100\n      exp\n      swap1\n      div\n      0xffffffffffffffffffffffffffffffffffffffff\n      and\n      0xffffffffffffffffffffffffffffffffffffffff\n      and\n      dup2\n      mstore\n      0x20\n      add\n      swap1\n      0x01\n      add\n      swap1\n      dup1\n      dup4\n      gt\n      tag_65\n      jumpi\n    tag_64:\n      pop\n      pop\n      pop\n      pop\n      pop\n        /* \"./Items/VaultItem.sol\":1288:1314  Constants.findAddressIndex */\n      tag_66\n        /* \"./Items/VaultItem.sol\":1288:1340  Constants.findAddressIndex( msg.sender, sharedWith ) */\n      jump\t// in\n    tag_63:\n        /* \"./Items/VaultItem.sol\":1288:1346  Constants.findAddressIndex( msg.sender, sharedWith ) != -1 */\n      eq\n      iszero\n        /* \"./Items/VaultItem.sol\":1281:1346  return Constants.findAddressIndex( msg.sender, sharedWith ) != -1 */\n      swap1\n      pop\n        /* \"./Items/VaultItem.sol\":1217:1354  function isSharedWith() external view returns (bool) {... */\n      swap1\n      jump\t// out\n        /* \"./Items/VaultItem.sol\":1488:1695  function shareWith(address _w) external ownerOnly {... */\n    tag_29:\n        /* \"./Items/VaultItem.sol\":402:407  owner */\n      0x01\n      dup1\n      sload\n      swap1\n      0x0100\n      exp\n      swap1\n      div\n      0xffffffffffffffffffffffffffffffffffffffff\n      and\n        /* \"./Items/VaultItem.sol\":388:407  msg.sender == owner */\n      0xffffffffffffffffffffffffffffffffffffffff\n      and\n        /* \"./Items/VaultItem.sol\":388:398  msg.sender */\n      caller\n        /* \"./Items/VaultItem.sol\":388:407  msg.sender == owner */\n      0xffffffffffffffffffffffffffffffffffffffff\n      and\n      eq\n        /* \"./Items/VaultItem.sol\":388:431  msg.sender == owner || msg.sender == parent */\n      dup1\n      tag_68\n      jumpi\n      pop\n        /* \"./Items/VaultItem.sol\":425:431  parent */\n      0x02\n      0x00\n      swap1\n      sload\n      swap1\n      0x0100\n      exp\n      swap1\n      div\n      0xffffffffffffffffffffffffffffffffffffffff\n      and\n        /* \"./Items/VaultItem.sol\":411:431  msg.sender == parent */\n      0xffffffffffffffffffffffffffffffffffffffff\n      and\n        /* \"./Items/VaultItem.sol\":411:421  msg.sender */\n      caller\n        /* \"./Items/VaultItem.sol\":411:431  msg.sender == parent */\n      0xffffffffffffffffffffffffffffffffffffffff\n      and\n      eq\n        /* \"./Items/VaultItem.sol\":388:431  msg.sender == owner || msg.sender == parent */\n    tag_68:\n        /* \"./Items/VaultItem.sol\":380:439  require(msg.sender == owner || msg.sender == parent, \"403\") */\n      tag_69\n      jumpi\n      mload(0x40)\n      0x08c379a000000000000000000000000000000000000000000000000000000000\n      dup2\n      mstore\n      0x04\n      add\n      tag_70\n      swap1\n      tag_55\n      jump\t// in\n    tag_70:\n      mload(0x40)\n      dup1\n      swap2\n      sub\n      swap1\n      revert\n    tag_69:\n        /* \"./Items/VaultItem.sol\":1566:1571  owner */\n      0x01\n      dup1\n      sload\n      swap1\n      0x0100\n      exp\n      swap1\n      div\n      0xffffffffffffffffffffffffffffffffffffffff\n      and\n        /* \"./Items/VaultItem.sol\":1560:1571  _w != owner */\n      0xffffffffffffffffffffffffffffffffffffffff\n      and\n        /* \"./Items/VaultItem.sol\":1560:1562  _w */\n      dup2\n        /* \"./Items/VaultItem.sol\":1560:1571  _w != owner */\n      0xffffffffffffffffffffffffffffffffffffffff\n      and\n      eq\n      iszero\n        /* \"./Items/VaultItem.sol\":1560:1591  _w != owner && _w != address(0) */\n      dup1\n      iszero\n      tag_72\n      jumpi\n      pop\n        /* \"./Items/VaultItem.sol\":1589:1590  0 */\n      0x00\n        /* \"./Items/VaultItem.sol\":1575:1591  _w != address(0) */\n      0xffffffffffffffffffffffffffffffffffffffff\n      and\n        /* \"./Items/VaultItem.sol\":1575:1577  _w */\n      dup2\n        /* \"./Items/VaultItem.sol\":1575:1591  _w != address(0) */\n      0xffffffffffffffffffffffffffffffffffffffff\n      and\n      eq\n      iszero\n        /* \"./Items/VaultItem.sol\":1560:1591  _w != owner && _w != address(0) */\n    tag_72:\n        /* \"./Items/VaultItem.sol\":1560:1645  _w != owner && _w != address(0) && Constants.findAddressIndex( _w, sharedWith ) == -1 */\n      dup1\n      iszero\n      tag_73\n      jumpi\n      pop\n        /* \"./Items/VaultItem.sol\":1643:1645  -1 */\n      0xffffffffffffffffffffffffffffffffffffffffffffffffffffffffffffffff\n        /* \"./Items/VaultItem.sol\":1595:1639  Constants.findAddressIndex( _w, sharedWith ) */\n      tag_74\n        /* \"./Items/VaultItem.sol\":1623:1625  _w */\n      dup3\n        /* \"./Items/VaultItem.sol\":1627:1637  sharedWith */\n      0x03\n        /* \"./Items/VaultItem.sol\":1595:1639  Constants.findAddressIndex( _w, sharedWith ) */\n      dup1\n      sload\n      dup1\n      0x20\n      mul\n      0x20\n      add\n      mload(0x40)\n      swap1\n      dup2\n      add\n      0x40\n      mstore\n      dup1\n      swap3\n      swap2\n      swap1\n      dup2\n      dup2\n      mstore\n      0x20\n      add\n      dup3\n      dup1\n      sload\n      dup1\n      iszero\n      tag_75\n      jumpi\n      0x20\n      mul\n      dup3\n      add\n      swap2\n      swap1\n      0x00\n      mstore\n      keccak256(0x00, 0x20)\n      swap1\n    tag_76:\n      dup2\n      0x00\n      swap1\n      sload\n      swap1\n      0x0100\n      exp\n      swap1\n      div\n      0xffffffffffffffffffffffffffffffffffffffff\n      and\n      0xffffffffffffffffffffffffffffffffffffffff\n      and\n      dup2\n      mstore\n      0x20\n      add\n      swap1\n      0x01\n      add\n      swap1\n      dup1\n      dup4\n      gt\n      tag_76\n      jumpi\n    tag_75:\n      pop\n      pop\n      pop\n      pop\n      pop\n        /* \"./Items/VaultItem.sol\":1595:1621  Constants.findAddressIndex */\n      tag_66\n        /* \"./Items/VaultItem.sol\":1595:1639  Constants.findAddressIndex( _w, sharedWith ) */\n      jump\t// in\n    tag_74:\n        /* \"./Items/VaultItem.sol\":1595:1645  Constants.findAddressIndex( _w, sharedWith ) == -1 */\n      eq\n        /* \"./Items/VaultItem.sol\":1560:1645  _w != owner && _w != address(0) && Constants.findAddressIndex( _w, sharedWith ) == -1 */\n    tag_73:\n        /* \"./Items/VaultItem.sol\":1551:1653  require( _w != owner && _w != address(0) && Constants.findAddressIndex( _w, sharedWith ) == -1, \"403\") */\n      tag_77\n      jumpi\n      mload(0x40)\n      0x08c379a000000000000000000000000000000000000000000000000000000000\n      dup2\n      mstore\n      0x04\n      add\n      tag_78\n      swap1\n      tag_55\n      jump\t// in\n    tag_78:\n      mload(0x40)\n      dup1\n      swap2\n      sub\n      swap1\n      revert\n    tag_77:\n        /* \"./Items/VaultItem.sol\":1666:1676  sharedWith */\n      0x03\n        /* \"./Items/VaultItem.sol\":1682:1684  _w */\n      dup2\n        /* \"./Items/VaultItem.sol\":1666:1685  sharedWith.push(_w) */\n      swap1\n      dup1\n      0x01\n      dup2\n      sload\n      add\n      dup1\n      dup3\n      sstore\n      dup1\n      swap2\n      pop\n      pop\n      0x01\n      swap1\n      sub\n      swap1\n      0x00\n      mstore\n      keccak256(0x00, 0x20)\n      add\n      0x00\n      swap1\n      swap2\n      swap1\n      swap2\n      swap1\n      swap2\n      0x0100\n      exp\n      dup2\n      sload\n      dup2\n      0xffffffffffffffffffffffffffffffffffffffff\n      mul\n      not\n      and\n      swap1\n      dup4\n      0xffffffffffffffffffffffffffffffffffffffff\n      and\n      mul\n      or\n      swap1\n      sstore\n      pop\n        /* \"./Items/VaultItem.sol\":1488:1695  function shareWith(address _w) external ownerOnly {... */\n      pop\n      jump\t// out\n        /* \"./Items/Chat.sol\":831:947  function getMessages() external onlyOwnerOrGuest view returns ( Message[] memory ){... */\n    tag_31:\n        /* \"./Items/Chat.sol\":895:911  Message[] memory */\n      0x60\n        /* \"./Items/Chat.sol\":388:393  owner */\n      0x01\n      dup1\n      sload\n      swap1\n      0x0100\n      exp\n      swap1\n      div\n      0xffffffffffffffffffffffffffffffffffffffff\n      and\n        /* \"./Items/Chat.sol\":374:393  msg.sender == owner */\n      0xffffffffffffffffffffffffffffffffffffffff\n      and\n        /* \"./Items/Chat.sol\":374:384  msg.sender */\n      caller\n        /* \"./Items/Chat.sol\":374:393  msg.sender == owner */\n      0xffffffffffffffffffffffffffffffffffffffff\n      and\n      eq\n        /* \"./Items/Chat.sol\":374:416  msg.sender == owner || msg.sender == guest */\n      dup1\n      tag_81\n      jumpi\n      pop\n        /* \"./Items/Chat.sol\":411:416  guest */\n      0x04\n      0x00\n      swap1\n      sload\n      swap1\n      0x0100\n      exp\n      swap1\n      div\n      0xffffffffffffffffffffffffffffffffffffffff\n      and\n        /* \"./Items/Chat.sol\":397:416  msg.sender == guest */\n      0xffffffffffffffffffffffffffffffffffffffff\n      and\n        /* \"./Items/Chat.sol\":397:407  msg.sender */\n      caller\n        /* \"./Items/Chat.sol\":397:416  msg.sender == guest */\n      0xffffffffffffffffffffffffffffffffffffffff\n      and\n      eq\n        /* \"./Items/Chat.sol\":374:416  msg.sender == owner || msg.sender == guest */\n    tag_81:\n        /* \"./Items/Chat.sol\":366:424  require(msg.sender == owner || msg.sender == guest, \"403\") */\n      tag_82\n      jumpi\n      mload(0x40)\n      0x08c379a000000000000000000000000000000000000000000000000000000000\n      dup2\n      mstore\n      0x04\n      add\n      tag_83\n      swap1\n      tag_55\n      jump\t// in\n    tag_83:\n      mload(0x40)\n      dup1\n      swap2\n      sub\n      swap1\n      revert\n    tag_82:\n        /* \"./Items/Chat.sol\":931:939  messages */\n      0x05\n        /* \"./Items/Chat.sol\":924:939  return messages */\n      dup1\n      sload\n      dup1\n      0x20\n      mul\n      0x20\n      add\n      mload(0x40)\n      swap1\n      dup2\n      add\n      0x40\n      mstore\n      dup1\n      swap3\n      swap2\n      swap1\n      dup2\n      dup2\n      mstore\n      0x20\n      add\n      0x00\n      swap1\n    tag_85:\n      dup3\n      dup3\n      lt\n      iszero\n      tag_86\n      jumpi\n      dup4\n      dup3\n      swap1\n      0x00\n      mstore\n      keccak256(0x00, 0x20)\n      swap1\n      0x03\n      mul\n      add\n      mload(0x40)\n      dup1\n      0x60\n      add\n      0x40\n      mstore\n      swap1\n      dup2\n      0x00\n      dup3\n      add\n      sload\n      dup2\n      mstore\n      0x20\n      add\n      0x01\n      dup3\n      add\n      dup1\n      sload\n      tag_88\n      swap1\n      tag_89\n      jump\t// in\n    tag_88:\n      dup1\n      0x1f\n      add\n      0x20\n      dup1\n      swap2\n      div\n      mul\n      0x20\n      add\n      mload(0x40)\n      swap1\n      dup2\n      add\n      0x40\n      mstore\n      dup1\n      swap3\n      swap2\n      swap1\n      dup2\n      dup2\n      mstore\n      0x20\n      add\n      dup3\n      dup1\n      sload\n      tag_90\n      swap1\n      tag_89\n      jump\t// in\n    tag_90:\n      dup1\n      iszero\n      tag_91\n      jumpi\n      dup1\n      0x1f\n      lt\n      tag_92\n      jumpi\n      0x0100\n      dup1\n      dup4\n      sload\n      div\n      mul\n      dup4\n      mstore\n      swap2\n      0x20\n      add\n      swap2\n      jump(tag_91)\n    tag_92:\n      dup3\n      add\n      swap2\n      swap1\n      0x00\n      mstore\n      keccak256(0x00, 0x20)\n      swap1\n    tag_93:\n      dup2\n      sload\n      dup2\n      mstore\n      swap1\n      0x01\n      add\n      swap1\n      0x20\n      add\n      dup1\n      dup4\n      gt\n      tag_93\n      jumpi\n      dup3\n      swap1\n      sub\n      0x1f\n      and\n      dup3\n      add\n      swap2\n    tag_91:\n      pop\n      pop\n      pop\n      pop\n      pop\n      dup2\n      mstore\n      0x20\n      add\n      0x02\n      dup3\n      add\n      0x00\n      swap1\n      sload\n      swap1\n      0x0100\n      exp\n      swap1\n      div\n      0xffffffffffffffffffffffffffffffffffffffff\n      and\n      0xffffffffffffffffffffffffffffffffffffffff\n      and\n      0xffffffffffffffffffffffffffffffffffffffff\n      and\n      dup2\n      mstore\n      pop\n      pop\n      dup2\n      mstore\n      0x20\n      add\n      swap1\n      0x01\n      add\n      swap1\n      jump(tag_85)\n    tag_86:\n      pop\n      pop\n      pop\n      pop\n      swap1\n      pop\n        /* \"./Items/Chat.sol\":831:947  function getMessages() external onlyOwnerOrGuest view returns ( Message[] memory ){... */\n      swap1\n      jump\t// out\n        /* \"./Items/VaultItem.sol\":1112:1209  function getParent() external view ownerOnly returns (address) {... */\n    tag_35:\n        /* \"./Items/VaultItem.sol\":1166:1173  address */\n      0x00\n        /* \"./Items/VaultItem.sol\":402:407  owner */\n      0x01\n      dup1\n      sload\n      swap1\n      0x0100\n      exp\n      swap1\n      div\n      0xffffffffffffffffffffffffffffffffffffffff\n      and\n        /* \"./Items/VaultItem.sol\":388:407  msg.sender == owner */\n      0xffffffffffffffffffffffffffffffffffffffff\n      and\n        /* \"./Items/VaultItem.sol\":388:398  msg.sender */\n      caller\n        /* \"./Items/VaultItem.sol\":388:407  msg.sender == owner */\n      0xffffffffffffffffffffffffffffffffffffffff\n      and\n      eq\n        /* \"./Items/VaultItem.sol\":388:431  msg.sender == owner || msg.sender == parent */\n      dup1\n      tag_95\n      jumpi\n      pop\n        /* \"./Items/VaultItem.sol\":425:431  parent */\n      0x02\n      0x00\n      swap1\n      sload\n      swap1\n      0x0100\n      exp\n      swap1\n      div\n      0xffffffffffffffffffffffffffffffffffffffff\n      and\n        /* \"./Items/VaultItem.sol\":411:431  msg.sender == parent */\n      0xffffffffffffffffffffffffffffffffffffffff\n      and\n        /* \"./Items/VaultItem.sol\":411:421  msg.sender */\n      caller\n        /* \"./Items/VaultItem.sol\":411:431  msg.sender == parent */\n      0xffffffffffffffffffffffffffffffffffffffff\n      and\n      eq\n        /* \"./Items/VaultItem.sol\":388:431  msg.sender == owner || msg.sender == parent */\n    tag_95:\n        /* \"./Items/VaultItem.sol\":380:439  require(msg.sender == owner || msg.sender == parent, \"403\") */\n      tag_96\n      jumpi\n      mload(0x40)\n      0x08c379a000000000000000000000000000000000000000000000000000000000\n      dup2\n      mstore\n      0x04\n      add\n      tag_97\n      swap1\n      tag_55\n      jump\t// in\n    tag_97:\n      mload(0x40)\n      dup1\n      swap2\n      sub\n      swap1\n      revert\n    tag_96:\n        /* \"./Items/VaultItem.sol\":1195:1201  parent */\n      0x02\n      0x00\n      swap1\n      sload\n      swap1\n      0x0100\n      exp\n      swap1\n      div\n      0xffffffffffffffffffffffffffffffffffffffff\n      and\n        /* \"./Items/VaultItem.sol\":1188:1201  return parent */\n      swap1\n      pop\n        /* \"./Items/VaultItem.sol\":1112:1209  function getParent() external view ownerOnly returns (address) {... */\n      swap1\n      jump\t// out\n        /* \"./Items/VaultItem.sol\":1362:1480  function getSharedWith() external view ownerOnly returns (address[] memory) {... */\n    tag_39:\n        /* \"./Items/VaultItem.sol\":1420:1436  address[] memory */\n      0x60\n        /* \"./Items/VaultItem.sol\":402:407  owner */\n      0x01\n      dup1\n      sload\n      swap1\n      0x0100\n      exp\n      swap1\n      div\n      0xffffffffffffffffffffffffffffffffffffffff\n      and\n        /* \"./Items/VaultItem.sol\":388:407  msg.sender == owner */\n      0xffffffffffffffffffffffffffffffffffffffff\n      and\n        /* \"./Items/VaultItem.sol\":388:398  msg.sender */\n      caller\n        /* \"./Items/VaultItem.sol\":388:407  msg.sender == owner */\n      0xffffffffffffffffffffffffffffffffffffffff\n      and\n      eq\n        /* \"./Items/VaultItem.sol\":388:431  msg.sender == owner || msg.sender == parent */\n      dup1\n      tag_100\n      jumpi\n      pop\n        /* \"./Items/VaultItem.sol\":425:431  parent */\n      0x02\n      0x00\n      swap1\n      sload\n      swap1\n      0x0100\n      exp\n      swap1\n      div\n      0xffffffffffffffffffffffffffffffffffffffff\n      and\n        /* \"./Items/VaultItem.sol\":411:431  msg.sender == parent */\n      0xffffffffffffffffffffffffffffffffffffffff\n      and\n        /* \"./Items/VaultItem.sol\":411:421  msg.sender */\n      caller\n        /* \"./Items/VaultItem.sol\":411:431  msg.sender == parent */\n      0xffffffffffffffffffffffffffffffffffffffff\n      and\n      eq\n        /* \"./Items/VaultItem.sol\":388:431  msg.sender == owner || msg.sender == parent */\n    tag_100:\n        /* \"./Items/VaultItem.sol\":380:439  require(msg.sender == owner || msg.sender == parent, \"403\") */\n      tag_101\n      jumpi\n      mload(0x40)\n      0x08c379a000000000000000000000000000000000000000000000000000000000\n      dup2\n      mstore\n      0x04\n      add\n      tag_102\n      swap1\n      tag_55\n      jump\t// in\n    tag_102:\n      mload(0x40)\n      dup1\n      swap2\n      sub\n      swap1\n      revert\n    tag_101:\n        /* \"./Items/VaultItem.sol\":1462:1472  sharedWith */\n      0x03\n        /* \"./Items/VaultItem.sol\":1455:1472  return sharedWith */\n      dup1\n      sload\n      dup1\n      0x20\n      mul\n      0x20\n      add\n      mload(0x40)\n      swap1\n      dup2\n      add\n      0x40\n      mstore\n      dup1\n      swap3\n      swap2\n      swap1\n      dup2\n      dup2\n      mstore\n      0x20\n      add\n      dup3\n      dup1\n      sload\n      dup1\n      iszero\n      tag_104\n      jumpi\n      0x20\n      mul\n      dup3\n      add\n      swap2\n      swap1\n      0x00\n      mstore\n      keccak256(0x00, 0x20)\n      swap1\n    tag_105:\n      dup2\n      0x00\n      swap1\n      sload\n      swap1\n      0x0100\n      exp\n      swap1\n      div\n      0xffffffffffffffffffffffffffffffffffffffff\n      and\n      0xffffffffffffffffffffffffffffffffffffffff\n      and\n      dup2\n      mstore\n      0x20\n      add\n      swap1\n      0x01\n      add\n      swap1\n      dup1\n      dup4\n      gt\n      tag_105\n      jumpi\n    tag_104:\n      pop\n      pop\n      pop\n      pop\n      pop\n      swap1\n      pop\n        /* \"./Items/VaultItem.sol\":1362:1480  function getSharedWith() external view ownerOnly returns (address[] memory) {... */\n      swap1\n      jump\t// out\n        /* \"./Items/VaultItem.sol\":861:977  function isOwn() external view  returns (bool) {... */\n    tag_43:\n        /* \"./Items/VaultItem.sol\":902:906  bool */\n      0x00\n        /* \"./Items/VaultItem.sol\":940:945  owner */\n      0x01\n      dup1\n      sload\n      swap1\n      0x0100\n      exp\n      swap1\n      div\n      0xffffffffffffffffffffffffffffffffffffffff\n      and\n        /* \"./Items/VaultItem.sol\":926:945  msg.sender == owner */\n      0xffffffffffffffffffffffffffffffffffffffff\n      and\n        /* \"./Items/VaultItem.sol\":926:936  msg.sender */\n      caller\n        /* \"./Items/VaultItem.sol\":926:945  msg.sender == owner */\n      0xffffffffffffffffffffffffffffffffffffffff\n      and\n      eq\n        /* \"./Items/VaultItem.sol\":926:969  msg.sender == owner || msg.sender == parent */\n      dup1\n      tag_107\n      jumpi\n      pop\n        /* \"./Items/VaultItem.sol\":963:969  parent */\n      0x02\n      0x00\n      swap1\n      sload\n      swap1\n      0x0100\n      exp\n      swap1\n      div\n      0xffffffffffffffffffffffffffffffffffffffff\n      and\n        /* \"./Items/VaultItem.sol\":949:969  msg.sender == parent */\n      0xffffffffffffffffffffffffffffffffffffffff\n      and\n        /* \"./Items/VaultItem.sol\":949:959  msg.sender */\n      caller\n        /* \"./Items/VaultItem.sol\":949:969  msg.sender == parent */\n      0xffffffffffffffffffffffffffffffffffffffff\n      and\n      eq\n        /* \"./Items/VaultItem.sol\":926:969  msg.sender == owner || msg.sender == parent */\n    tag_107:\n        /* \"./Items/VaultItem.sol\":919:969  return msg.sender == owner || msg.sender == parent */\n      swap1\n      pop\n        /* \"./Items/VaultItem.sol\":861:977  function isOwn() external view  returns (bool) {... */\n      swap1\n      jump\t// out\n        /* \"./Items/VaultItem.sol\":985:1104  function setName(string memory _n) external ownerOnly {... */\n    tag_47:\n        /* \"./Items/VaultItem.sol\":402:407  owner */\n      0x01\n      dup1\n      sload\n      swap1\n      0x0100\n      exp\n      swap1\n      div\n      0xffffffffffffffffffffffffffffffffffffffff\n      and\n        /* \"./Items/VaultItem.sol\":388:407  msg.sender == owner */\n      0xffffffffffffffffffffffffffffffffffffffff\n      and\n        /* \"./Items/VaultItem.sol\":388:398  msg.sender */\n      caller\n        /* \"./Items/VaultItem.sol\":388:407  msg.sender == owner */\n      0xffffffffffffffffffffffffffffffffffffffff\n      and\n      eq\n        /* \"./Items/VaultItem.sol\":388:431  msg.sender == owner || msg.sender == parent */\n      dup1\n      tag_109\n      jumpi\n      pop\n        /* \"./Items/VaultItem.sol\":425:431  parent */\n      0x02\n      0x00\n      swap1\n      sload\n      swap1\n      0x0100\n      exp\n      swap1\n      div\n      0xffffffffffffffffffffffffffffffffffffffff\n      and\n        /* \"./Items/VaultItem.sol\":411:431  msg.sender == parent */\n      0xffffffffffffffffffffffffffffffffffffffff\n      and\n        /* \"./Items/VaultItem.sol\":411:421  msg.sender */\n      caller\n        /* \"./Items/VaultItem.sol\":411:431  msg.sender == parent */\n      0xffffffffffffffffffffffffffffffffffffffff\n      and\n      eq\n        /* \"./Items/VaultItem.sol\":388:431  msg.sender == owner || msg.sender == parent */\n    tag_109:\n        /* \"./Items/VaultItem.sol\":380:439  require(msg.sender == owner || msg.sender == parent, \"403\") */\n      tag_110\n      jumpi\n      mload(0x40)\n      0x08c379a000000000000000000000000000000000000000000000000000000000\n      dup2\n      mstore\n      0x04\n      add\n      tag_111\n      swap1\n      tag_55\n      jump\t// in\n    tag_111:\n      mload(0x40)\n      dup1\n      swap2\n      sub\n      swap1\n      revert\n    tag_110:\n        /* \"./Items/VaultItem.sol\":1057:1059  _n */\n      dup1\n        /* \"./Items/VaultItem.sol\":1050:1054  name */\n      0x00\n        /* \"./Items/VaultItem.sol\":1050:1059  name = _n */\n      swap1\n      dup2\n      tag_113\n      swap2\n      swap1\n      tag_59\n      jump\t// in\n    tag_113:\n      pop\n        /* \"./Items/VaultItem.sol\":1077:1096  Updated(msg.sender) */\n      0xe00da2178806f37f69815e9ed5ed3072ec1d55206d60916d99b469c7daa421e4\n        /* \"./Items/VaultItem.sol\":1085:1095  msg.sender */\n      caller\n        /* \"./Items/VaultItem.sol\":1077:1096  Updated(msg.sender) */\n      mload(0x40)\n      tag_114\n      swap2\n      swap1\n      tag_37\n      jump\t// in\n    tag_114:\n      mload(0x40)\n      dup1\n      swap2\n      sub\n      swap1\n      log1\n        /* \"./Items/VaultItem.sol\":985:1104  function setName(string memory _n) external ownerOnly {... */\n      pop\n      jump\t// out\n        /* \"./Items/VaultItem.sol\":1703:2047  function restictFrom( address _f ) external {... */\n    tag_50:\n        /* \"./Items/VaultItem.sol\":1790:1791  0 */\n      0x00\n        /* \"./Items/VaultItem.sol\":1776:1792  _f != address(0) */\n      0xffffffffffffffffffffffffffffffffffffffff\n      and\n        /* \"./Items/VaultItem.sol\":1776:1778  _f */\n      dup2\n        /* \"./Items/VaultItem.sol\":1776:1792  _f != address(0) */\n      0xffffffffffffffffffffffffffffffffffffffff\n      and\n      eq\n      iszero\n        /* \"./Items/VaultItem.sol\":1776:1863  _f != address(0) || ( msg.sender == parent || msg.sender == owner || msg.sender == _f ) */\n      dup1\n      tag_116\n      jumpi\n      pop\n        /* \"./Items/VaultItem.sol\":1812:1818  parent */\n      0x02\n      0x00\n      swap1\n      sload\n      swap1\n      0x0100\n      exp\n      swap1\n      div\n      0xffffffffffffffffffffffffffffffffffffffff\n      and\n        /* \"./Items/VaultItem.sol\":1798:1818  msg.sender == parent */\n      0xffffffffffffffffffffffffffffffffffffffff\n      and\n        /* \"./Items/VaultItem.sol\":1798:1808  msg.sender */\n      caller\n        /* \"./Items/VaultItem.sol\":1798:1818  msg.sender == parent */\n      0xffffffffffffffffffffffffffffffffffffffff\n      and\n      eq\n        /* \"./Items/VaultItem.sol\":1798:1841  msg.sender == parent || msg.sender == owner */\n      dup1\n      tag_117\n      jumpi\n      pop\n        /* \"./Items/VaultItem.sol\":1836:1841  owner */\n      0x01\n      dup1\n      sload\n      swap1\n      0x0100\n      exp\n      swap1\n      div\n      0xffffffffffffffffffffffffffffffffffffffff\n      and\n        /* \"./Items/VaultItem.sol\":1822:1841  msg.sender == owner */\n      0xffffffffffffffffffffffffffffffffffffffff\n      and\n        /* \"./Items/VaultItem.sol\":1822:1832  msg.sender */\n      caller\n        /* \"./Items/VaultItem.sol\":1822:1841  msg.sender == owner */\n      0xffffffffffffffffffffffffffffffffffffffff\n      and\n      eq\n        /* \"./Items/VaultItem.sol\":1798:1841  msg.sender == parent || msg.sender == owner */\n    tag_117:\n        /* \"./Items/VaultItem.sol\":1798:1861  msg.sender == parent || msg.sender == owner || msg.sender == _f */\n      dup1\n      tag_118\n      jumpi\n      pop\n        /* \"./Items/VaultItem.sol\":1859:1861  _f */\n      dup1\n        /* \"./Items/VaultItem.sol\":1845:1861  msg.sender == _f */\n      0xffffffffffffffffffffffffffffffffffffffff\n      and\n        /* \"./Items/VaultItem.sol\":1845:1855  msg.sender */\n      caller\n        /* \"./Items/VaultItem.sol\":1845:1861  msg.sender == _f */\n      0xffffffffffffffffffffffffffffffffffffffff\n      and\n      eq\n        /* \"./Items/VaultItem.sol\":1798:1861  msg.sender == parent || msg.sender == owner || msg.sender == _f */\n    tag_118:\n        /* \"./Items/VaultItem.sol\":1776:1863  _f != address(0) || ( msg.sender == parent || msg.sender == owner || msg.sender == _f ) */\n    tag_116:\n        /* \"./Items/VaultItem.sol\":1768:1871  require(_f != address(0) || ( msg.sender == parent || msg.sender == owner || msg.sender == _f ), \"403\") */\n      tag_119\n      jumpi\n      mload(0x40)\n      0x08c379a000000000000000000000000000000000000000000000000000000000\n      dup2\n      mstore\n      0x04\n      add\n      tag_120\n      swap1\n      tag_55\n      jump\t// in\n    tag_120:\n      mload(0x40)\n      dup1\n      swap2\n      sub\n      swap1\n      revert\n    tag_119:\n        /* \"./Items/VaultItem.sol\":1884:1892  int _idx */\n      0x00\n        /* \"./Items/VaultItem.sol\":1895:1939  Constants.findAddressIndex( _f, sharedWith ) */\n      tag_121\n        /* \"./Items/VaultItem.sol\":1923:1925  _f */\n      dup3\n        /* \"./Items/VaultItem.sol\":1927:1937  sharedWith */\n      0x03\n        /* \"./Items/VaultItem.sol\":1895:1939  Constants.findAddressIndex( _f, sharedWith ) */\n      dup1\n      sload\n      dup1\n      0x20\n      mul\n      0x20\n      add\n      mload(0x40)\n      swap1\n      dup2\n      add\n      0x40\n      mstore\n      dup1\n      swap3\n      swap2\n      swap1\n      dup2\n      dup2\n      mstore\n      0x20\n      add\n      dup3\n      dup1\n      sload\n      dup1\n      iszero\n      tag_122\n      jumpi\n      0x20\n      mul\n      dup3\n      add\n      swap2\n      swap1\n      0x00\n      mstore\n      keccak256(0x00, 0x20)\n      swap1\n    tag_123:\n      dup2\n      0x00\n      swap1\n      sload\n      swap1\n      0x0100\n      exp\n      swap1\n      div\n      0xffffffffffffffffffffffffffffffffffffffff\n      and\n      0xffffffffffffffffffffffffffffffffffffffff\n      and\n      dup2\n      mstore\n      0x20\n      add\n      swap1\n      0x01\n      add\n      swap1\n      dup1\n      dup4\n      gt\n      tag_123\n      jumpi\n    tag_122:\n      pop\n      pop\n      pop\n      pop\n      pop\n        /* \"./Items/VaultItem.sol\":1895:1921  Constants.findAddressIndex */\n      tag_66\n        /* \"./Items/VaultItem.sol\":1895:1939  Constants.findAddressIndex( _f, sharedWith ) */\n      jump\t// in\n    tag_121:\n        /* \"./Items/VaultItem.sol\":1884:1939  int _idx = Constants.findAddressIndex( _f, sharedWith ) */\n      swap1\n      pop\n        /* \"./Items/VaultItem.sol\":1967:1969  -1 */\n      0xffffffffffffffffffffffffffffffffffffffffffffffffffffffffffffffff\n        /* \"./Items/VaultItem.sol\":1960:1964  _idx */\n      dup2\n        /* \"./Items/VaultItem.sol\":1960:1969  _idx > -1 */\n      sgt\n        /* \"./Items/VaultItem.sol\":1952:1977  require(_idx > -1, \"404\") */\n      tag_124\n      jumpi\n      mload(0x40)\n      0x08c379a000000000000000000000000000000000000000000000000000000000\n      dup2\n      mstore\n      0x04\n      add\n      tag_125\n      swap1\n      tag_126\n      jump\t// in\n    tag_125:\n      mload(0x40)\n      dup1\n      swap2\n      sub\n      swap1\n      revert\n    tag_124:\n        /* \"./Items/VaultItem.sol\":1990:2037  Constants.deleteAddressFrom( _idx, sharedWith ) */\n      tag_127\n        /* \"./Items/VaultItem.sol\":2019:2023  _idx */\n      dup2\n        /* \"./Items/VaultItem.sol\":2025:2035  sharedWith */\n      0x03\n        /* \"./Items/VaultItem.sol\":1990:2017  Constants.deleteAddressFrom */\n      tag_128\n        /* \"./Items/VaultItem.sol\":1990:2037  Constants.deleteAddressFrom( _idx, sharedWith ) */\n      jump\t// in\n    tag_127:\n        /* \"./Items/VaultItem.sol\":1747:2047  {... */\n      pop\n        /* \"./Items/VaultItem.sol\":1703:2047  function restictFrom( address _f ) external {... */\n      pop\n      jump\t// out\n        /* \"./Libs/Constants.sol\":263:489  function findAddressIndex(address _addr, address[] memory _a) internal pure returns (int) {... */\n    tag_66:\n        /* \"./Libs/Constants.sol\":348:351  int */\n      0x00\n        /* \"./Libs/Constants.sol\":369:375  uint i */\n      dup1\n        /* \"./Libs/Constants.sol\":378:379  0 */\n      0x00\n        /* \"./Libs/Constants.sol\":369:379  uint i = 0 */\n      swap1\n      pop\n        /* \"./Libs/Constants.sol\":364:461  for (uint i = 0; i < _a.length; i++) {... */\n    tag_130:\n        /* \"./Libs/Constants.sol\":385:387  _a */\n      dup3\n        /* \"./Libs/Constants.sol\":385:394  _a.length */\n      mload\n        /* \"./Libs/Constants.sol\":381:382  i */\n      dup2\n        /* \"./Libs/Constants.sol\":381:394  i < _a.length */\n      lt\n        /* \"./Libs/Constants.sol\":364:461  for (uint i = 0; i < _a.length; i++) {... */\n      iszero\n      tag_131\n      jumpi\n        /* \"./Libs/Constants.sol\":429:434  _addr */\n      dup4\n        /* \"./Libs/Constants.sol\":420:434  _a[i] == _addr */\n      0xffffffffffffffffffffffffffffffffffffffff\n      and\n        /* \"./Libs/Constants.sol\":420:422  _a */\n      dup4\n        /* \"./Libs/Constants.sol\":423:424  i */\n      dup3\n        /* \"./Libs/Constants.sol\":420:425  _a[i] */\n      dup2\n      mload\n      dup2\n      lt\n      tag_133\n      jumpi\n      tag_134\n      tag_135\n      jump\t// in\n    tag_134:\n    tag_133:\n      0x20\n      mul\n      0x20\n      add\n      add\n      mload\n        /* \"./Libs/Constants.sol\":420:434  _a[i] == _addr */\n      0xffffffffffffffffffffffffffffffffffffffff\n      and\n      sub\n        /* \"./Libs/Constants.sol\":416:449  if (_a[i] == _addr) return int(i) */\n      tag_136\n      jumpi\n        /* \"./Libs/Constants.sol\":447:448  i */\n      dup1\n        /* \"./Libs/Constants.sol\":436:449  return int(i) */\n      swap2\n      pop\n      pop\n      jump(tag_129)\n        /* \"./Libs/Constants.sol\":416:449  if (_a[i] == _addr) return int(i) */\n    tag_136:\n        /* \"./Libs/Constants.sol\":396:399  i++ */\n      dup1\n      dup1\n      0x01\n      add\n      swap2\n      pop\n      pop\n        /* \"./Libs/Constants.sol\":364:461  for (uint i = 0; i < _a.length; i++) {... */\n      jump(tag_130)\n    tag_131:\n      pop\n        /* \"./Libs/Constants.sol\":478:480  -1 */\n      0xffffffffffffffffffffffffffffffffffffffffffffffffffffffffffffffff\n        /* \"./Libs/Constants.sol\":471:480  return -1 */\n      swap1\n      pop\n        /* \"./Libs/Constants.sol\":263:489  function findAddressIndex(address _addr, address[] memory _a) internal pure returns (int) {... */\n    tag_129:\n      swap3\n      swap2\n      pop\n      pop\n      jump\t// out\n        /* \"./Libs/Constants.sol\":498:757  function deleteAddressFrom(int idx, address[] storage _a) internal {... */\n    tag_128:\n        /* \"./Libs/Constants.sol\":591:592  0 */\n      0x00\n        /* \"./Libs/Constants.sol\":584:587  idx */\n      dup3\n        /* \"./Libs/Constants.sol\":584:592  idx >= 0 */\n      slt\n      iszero\n        /* \"./Libs/Constants.sol\":584:617  idx >= 0 && uint(idx) < _a.length */\n      dup1\n      iszero\n      tag_138\n      jumpi\n      pop\n        /* \"./Libs/Constants.sol\":608:610  _a */\n      dup1\n        /* \"./Libs/Constants.sol\":608:617  _a.length */\n      dup1\n      sload\n      swap1\n      pop\n        /* \"./Libs/Constants.sol\":601:604  idx */\n      dup3\n        /* \"./Libs/Constants.sol\":596:617  uint(idx) < _a.length */\n      lt\n        /* \"./Libs/Constants.sol\":584:617  idx >= 0 && uint(idx) < _a.length */\n    tag_138:\n        /* \"./Libs/Constants.sol\":576:625  require(idx >= 0 && uint(idx) < _a.length, \"404\") */\n      tag_139\n      jumpi\n      mload(0x40)\n      0x08c379a000000000000000000000000000000000000000000000000000000000\n      dup2\n      mstore\n      0x04\n      add\n      tag_140\n      swap1\n      tag_126\n      jump\t// in\n    tag_140:\n      mload(0x40)\n      dup1\n      swap2\n      sub\n      swap1\n      revert\n    tag_139:\n        /* \"./Libs/Constants.sol\":641:647  uint i */\n      0x00\n        /* \"./Libs/Constants.sol\":655:658  idx */\n      dup3\n        /* \"./Libs/Constants.sol\":641:659  uint i = uint(idx) */\n      swap1\n      pop\n        /* \"./Libs/Constants.sol\":636:729  for (uint i = uint(idx); i < _a.length - 1; i++) {... */\n    tag_141:\n        /* \"./Libs/Constants.sol\":677:678  1 */\n      0x01\n        /* \"./Libs/Constants.sol\":665:667  _a */\n      dup3\n        /* \"./Libs/Constants.sol\":665:674  _a.length */\n      dup1\n      sload\n      swap1\n      pop\n        /* \"./Libs/Constants.sol\":665:678  _a.length - 1 */\n      tag_144\n      swap2\n      swap1\n      tag_145\n      jump\t// in\n    tag_144:\n        /* \"./Libs/Constants.sol\":661:662  i */\n      dup2\n        /* \"./Libs/Constants.sol\":661:678  i < _a.length - 1 */\n      lt\n        /* \"./Libs/Constants.sol\":636:729  for (uint i = uint(idx); i < _a.length - 1; i++) {... */\n      iszero\n      tag_142\n      jumpi\n        /* \"./Libs/Constants.sol\":708:710  _a */\n      dup2\n        /* \"./Libs/Constants.sol\":715:716  1 */\n      0x01\n        /* \"./Libs/Constants.sol\":711:712  i */\n      dup3\n        /* \"./Libs/Constants.sol\":711:716  i + 1 */\n      tag_146\n      swap2\n      swap1\n      tag_147\n      jump\t// in\n    tag_146:\n        /* \"./Libs/Constants.sol\":708:717  _a[i + 1] */\n      dup2\n      sload\n      dup2\n      lt\n      tag_148\n      jumpi\n      tag_149\n      tag_135\n      jump\t// in\n    tag_149:\n    tag_148:\n      swap1\n      0x00\n      mstore\n      keccak256(0x00, 0x20)\n      add\n      0x00\n      swap1\n      sload\n      swap1\n      0x0100\n      exp\n      swap1\n      div\n      0xffffffffffffffffffffffffffffffffffffffff\n      and\n        /* \"./Libs/Constants.sol\":700:702  _a */\n      dup3\n        /* \"./Libs/Constants.sol\":703:704  i */\n      dup3\n        /* \"./Libs/Constants.sol\":700:705  _a[i] */\n      dup2\n      sload\n      dup2\n      lt\n      tag_151\n      jumpi\n      tag_152\n      tag_135\n      jump\t// in\n    tag_152:\n    tag_151:\n      swap1\n      0x00\n      mstore\n      keccak256(0x00, 0x20)\n      add\n      0x00\n        /* \"./Libs/Constants.sol\":700:717  _a[i] = _a[i + 1] */\n      0x0100\n      exp\n      dup2\n      sload\n      dup2\n      0xffffffffffffffffffffffffffffffffffffffff\n      mul\n      not\n      and\n      swap1\n      dup4\n      0xffffffffffffffffffffffffffffffffffffffff\n      and\n      mul\n      or\n      swap1\n      sstore\n      pop\n        /* \"./Libs/Constants.sol\":680:683  i++ */\n      dup1\n      dup1\n      0x01\n      add\n      swap2\n      pop\n      pop\n        /* \"./Libs/Constants.sol\":636:729  for (uint i = uint(idx); i < _a.length - 1; i++) {... */\n      jump(tag_141)\n    tag_142:\n      pop\n        /* \"./Libs/Constants.sol\":741:743  _a */\n      dup1\n        /* \"./Libs/Constants.sol\":741:749  _a.pop() */\n      dup1\n      sload\n      dup1\n      tag_154\n      jumpi\n      tag_155\n      tag_156\n      jump\t// in\n    tag_155:\n    tag_154:\n      0x01\n      swap1\n      sub\n      dup2\n      dup2\n      swap1\n      0x00\n      mstore\n      keccak256(0x00, 0x20)\n      add\n      exp(0x0100, 0x00)\n      dup2\n      sload\n      swap1\n      0xffffffffffffffffffffffffffffffffffffffff\n      mul\n      not\n      and\n      swap1\n      sstore\n      swap1\n      sstore\n        /* \"./Libs/Constants.sol\":498:757  function deleteAddressFrom(int idx, address[] storage _a) internal {... */\n      pop\n      pop\n      jump\t// out\n        /* \"#utility.yul\":7:187   */\n    tag_158:\n        /* \"#utility.yul\":55:132   */\n      0x4e487b7100000000000000000000000000000000000000000000000000000000\n        /* \"#utility.yul\":52:53   */\n      0x00\n        /* \"#utility.yul\":45:133   */\n      mstore\n        /* \"#utility.yul\":152:156   */\n      0x21\n        /* \"#utility.yul\":149:150   */\n      0x04\n        /* \"#utility.yul\":142:157   */\n      mstore\n        /* \"#utility.yul\":176:180   */\n      0x24\n        /* \"#utility.yul\":173:174   */\n      0x00\n        /* \"#utility.yul\":166:181   */\n      revert\n        /* \"#utility.yul\":193:306   */\n    tag_159:\n        /* \"#utility.yul\":274:275   */\n      0x04\n        /* \"#utility.yul\":267:272   */\n      dup2\n        /* \"#utility.yul\":264:276   */\n      lt\n        /* \"#utility.yul\":254:300   */\n      tag_229\n      jumpi\n        /* \"#utility.yul\":280:298   */\n      tag_230\n      tag_158\n      jump\t// in\n    tag_230:\n        /* \"#utility.yul\":254:300   */\n    tag_229:\n        /* \"#utility.yul\":193:306   */\n      pop\n      jump\t// out\n        /* \"#utility.yul\":312:439   */\n    tag_160:\n        /* \"#utility.yul\":357:364   */\n      0x00\n        /* \"#utility.yul\":386:391   */\n      dup2\n        /* \"#utility.yul\":375:391   */\n      swap1\n      pop\n        /* \"#utility.yul\":392:433   */\n      tag_232\n        /* \"#utility.yul\":427:432   */\n      dup3\n        /* \"#utility.yul\":392:433   */\n      tag_159\n      jump\t// in\n    tag_232:\n        /* \"#utility.yul\":312:439   */\n      swap2\n      swap1\n      pop\n      jump\t// out\n        /* \"#utility.yul\":445:572   */\n    tag_161:\n        /* \"#utility.yul\":501:510   */\n      0x00\n        /* \"#utility.yul\":534:566   */\n      tag_234\n        /* \"#utility.yul\":560:565   */\n      dup3\n        /* \"#utility.yul\":534:566   */\n      tag_160\n      jump\t// in\n    tag_234:\n        /* \"#utility.yul\":521:566   */\n      swap1\n      pop\n        /* \"#utility.yul\":445:572   */\n      swap2\n      swap1\n      pop\n      jump\t// out\n        /* \"#utility.yul\":578:721   */\n    tag_162:\n        /* \"#utility.yul\":671:714   */\n      tag_236\n        /* \"#utility.yul\":708:713   */\n      dup2\n        /* \"#utility.yul\":671:714   */\n      tag_161\n      jump\t// in\n    tag_236:\n        /* \"#utility.yul\":666:669   */\n      dup3\n        /* \"#utility.yul\":659:715   */\n      mstore\n        /* \"#utility.yul\":578:721   */\n      pop\n      pop\n      jump\t// out\n        /* \"#utility.yul\":727:961   */\n    tag_17:\n        /* \"#utility.yul\":826:830   */\n      0x00\n        /* \"#utility.yul\":864:866   */\n      0x20\n        /* \"#utility.yul\":853:862   */\n      dup3\n        /* \"#utility.yul\":849:867   */\n      add\n        /* \"#utility.yul\":841:867   */\n      swap1\n      pop\n        /* \"#utility.yul\":877:954   */\n      tag_238\n        /* \"#utility.yul\":951:952   */\n      0x00\n        /* \"#utility.yul\":940:949   */\n      dup4\n        /* \"#utility.yul\":936:953   */\n      add\n        /* \"#utility.yul\":927:933   */\n      dup5\n        /* \"#utility.yul\":877:954   */\n      tag_162\n      jump\t// in\n    tag_238:\n        /* \"#utility.yul\":727:961   */\n      swap3\n      swap2\n      pop\n      pop\n      jump\t// out\n        /* \"#utility.yul\":967:1042   */\n    tag_163:\n        /* \"#utility.yul\":1000:1006   */\n      0x00\n        /* \"#utility.yul\":1033:1035   */\n      0x40\n        /* \"#utility.yul\":1027:1036   */\n      mload\n        /* \"#utility.yul\":1017:1036   */\n      swap1\n      pop\n        /* \"#utility.yul\":967:1042   */\n      swap1\n      jump\t// out\n        /* \"#utility.yul\":1048:1165   */\n    tag_164:\n        /* \"#utility.yul\":1157:1158   */\n      0x00\n        /* \"#utility.yul\":1154:1155   */\n      dup1\n        /* \"#utility.yul\":1147:1159   */\n      revert\n        /* \"#utility.yul\":1171:1288   */\n    tag_165:\n        /* \"#utility.yul\":1280:1281   */\n      0x00\n        /* \"#utility.yul\":1277:1278   */\n      dup1\n        /* \"#utility.yul\":1270:1282   */\n      revert\n        /* \"#utility.yul\":1294:1411   */\n    tag_166:\n        /* \"#utility.yul\":1403:1404   */\n      0x00\n        /* \"#utility.yul\":1400:1401   */\n      dup1\n        /* \"#utility.yul\":1393:1405   */\n      revert\n        /* \"#utility.yul\":1417:1534   */\n    tag_167:\n        /* \"#utility.yul\":1526:1527   */\n      0x00\n        /* \"#utility.yul\":1523:1524   */\n      dup1\n        /* \"#utility.yul\":1516:1528   */\n      revert\n        /* \"#utility.yul\":1540:1642   */\n    tag_168:\n        /* \"#utility.yul\":1581:1587   */\n      0x00\n        /* \"#utility.yul\":1632:1634   */\n      0x1f\n        /* \"#utility.yul\":1628:1635   */\n      not\n        /* \"#utility.yul\":1623:1625   */\n      0x1f\n        /* \"#utility.yul\":1616:1621   */\n      dup4\n        /* \"#utility.yul\":1612:1626   */\n      add\n        /* \"#utility.yul\":1608:1636   */\n      and\n        /* \"#utility.yul\":1598:1636   */\n      swap1\n      pop\n        /* \"#utility.yul\":1540:1642   */\n      swap2\n      swap1\n      pop\n      jump\t// out\n        /* \"#utility.yul\":1648:1828   */\n    tag_169:\n        /* \"#utility.yul\":1696:1773   */\n      0x4e487b7100000000000000000000000000000000000000000000000000000000\n        /* \"#utility.yul\":1693:1694   */\n      0x00\n        /* \"#utility.yul\":1686:1774   */\n      mstore\n        /* \"#utility.yul\":1793:1797   */\n      0x41\n        /* \"#utility.yul\":1790:1791   */\n      0x04\n        /* \"#utility.yul\":1783:1798   */\n      mstore\n        /* \"#utility.yul\":1817:1821   */\n      0x24\n        /* \"#utility.yul\":1814:1815   */\n      0x00\n        /* \"#utility.yul\":1807:1822   */\n      revert\n        /* \"#utility.yul\":1834:2115   */\n    tag_170:\n        /* \"#utility.yul\":1917:1944   */\n      tag_247\n        /* \"#utility.yul\":1939:1943   */\n      dup3\n        /* \"#utility.yul\":1917:1944   */\n      tag_168\n      jump\t// in\n    tag_247:\n        /* \"#utility.yul\":1909:1915   */\n      dup2\n        /* \"#utility.yul\":1905:1945   */\n      add\n        /* \"#utility.yul\":2047:2053   */\n      dup2\n        /* \"#utility.yul\":2035:2045   */\n      dup2\n        /* \"#utility.yul\":2032:2054   */\n      lt\n        /* \"#utility.yul\":2011:2029   */\n      0xffffffffffffffff\n        /* \"#utility.yul\":1999:2009   */\n      dup3\n        /* \"#utility.yul\":1996:2030   */\n      gt\n        /* \"#utility.yul\":1993:2055   */\n      or\n        /* \"#utility.yul\":1990:2078   */\n      iszero\n      tag_248\n      jumpi\n        /* \"#utility.yul\":2058:2076   */\n      tag_249\n      tag_169\n      jump\t// in\n    tag_249:\n        /* \"#utility.yul\":1990:2078   */\n    tag_248:\n        /* \"#utility.yul\":2098:2108   */\n      dup1\n        /* \"#utility.yul\":2094:2096   */\n      0x40\n        /* \"#utility.yul\":2087:2109   */\n      mstore\n        /* \"#utility.yul\":1877:2115   */\n      pop\n        /* \"#utility.yul\":1834:2115   */\n      pop\n      pop\n      jump\t// out\n        /* \"#utility.yul\":2121:2250   */\n    tag_171:\n        /* \"#utility.yul\":2155:2161   */\n      0x00\n        /* \"#utility.yul\":2182:2202   */\n      tag_251\n      tag_163\n      jump\t// in\n    tag_251:\n        /* \"#utility.yul\":2172:2202   */\n      swap1\n      pop\n        /* \"#utility.yul\":2211:2244   */\n      tag_252\n        /* \"#utility.yul\":2239:2243   */\n      dup3\n        /* \"#utility.yul\":2231:2237   */\n      dup3\n        /* \"#utility.yul\":2211:2244   */\n      tag_170\n      jump\t// in\n    tag_252:\n        /* \"#utility.yul\":2121:2250   */\n      swap2\n      swap1\n      pop\n      jump\t// out\n        /* \"#utility.yul\":2256:2564   */\n    tag_172:\n        /* \"#utility.yul\":2318:2322   */\n      0x00\n        /* \"#utility.yul\":2408:2426   */\n      0xffffffffffffffff\n        /* \"#utility.yul\":2400:2406   */\n      dup3\n        /* \"#utility.yul\":2397:2427   */\n      gt\n        /* \"#utility.yul\":2394:2450   */\n      iszero\n      tag_254\n      jumpi\n        /* \"#utility.yul\":2430:2448   */\n      tag_255\n      tag_169\n      jump\t// in\n    tag_255:\n        /* \"#utility.yul\":2394:2450   */\n    tag_254:\n        /* \"#utility.yul\":2468:2497   */\n      tag_256\n        /* \"#utility.yul\":2490:2496   */\n      dup3\n        /* \"#utility.yul\":2468:2497   */\n      tag_168\n      jump\t// in\n    tag_256:\n        /* \"#utility.yul\":2460:2497   */\n      swap1\n      pop\n        /* \"#utility.yul\":2552:2556   */\n      0x20\n        /* \"#utility.yul\":2546:2550   */\n      dup2\n        /* \"#utility.yul\":2542:2557   */\n      add\n        /* \"#utility.yul\":2534:2557   */\n      swap1\n      pop\n        /* \"#utility.yul\":2256:2564   */\n      swap2\n      swap1\n      pop\n      jump\t// out\n        /* \"#utility.yul\":2570:2718   */\n    tag_173:\n        /* \"#utility.yul\":2668:2674   */\n      dup3\n        /* \"#utility.yul\":2663:2666   */\n      dup2\n        /* \"#utility.yul\":2658:2661   */\n      dup4\n        /* \"#utility.yul\":2645:2675   */\n      calldatacopy\n        /* \"#utility.yul\":2709:2710   */\n      0x00\n        /* \"#utility.yul\":2700:2706   */\n      dup4\n        /* \"#utility.yul\":2695:2698   */\n      dup4\n        /* \"#utility.yul\":2691:2707   */\n      add\n        /* \"#utility.yul\":2684:2711   */\n      mstore\n        /* \"#utility.yul\":2570:2718   */\n      pop\n      pop\n      pop\n      jump\t// out\n        /* \"#utility.yul\":2724:3149   */\n    tag_174:\n        /* \"#utility.yul\":2802:2807   */\n      0x00\n        /* \"#utility.yul\":2827:2893   */\n      tag_259\n        /* \"#utility.yul\":2843:2892   */\n      tag_260\n        /* \"#utility.yul\":2885:2891   */\n      dup5\n        /* \"#utility.yul\":2843:2892   */\n      tag_172\n      jump\t// in\n    tag_260:\n        /* \"#utility.yul\":2827:2893   */\n      tag_171\n      jump\t// in\n    tag_259:\n        /* \"#utility.yul\":2818:2893   */\n      swap1\n      pop\n        /* \"#utility.yul\":2916:2922   */\n      dup3\n        /* \"#utility.yul\":2909:2914   */\n      dup2\n        /* \"#utility.yul\":2902:2923   */\n      mstore\n        /* \"#utility.yul\":2954:2958   */\n      0x20\n        /* \"#utility.yul\":2947:2952   */\n      dup2\n        /* \"#utility.yul\":2943:2959   */\n      add\n        /* \"#utility.yul\":2992:2995   */\n      dup5\n        /* \"#utility.yul\":2983:2989   */\n      dup5\n        /* \"#utility.yul\":2978:2981   */\n      dup5\n        /* \"#utility.yul\":2974:2990   */\n      add\n        /* \"#utility.yul\":2971:2996   */\n      gt\n        /* \"#utility.yul\":2968:3080   */\n      iszero\n      tag_261\n      jumpi\n        /* \"#utility.yul\":2999:3078   */\n      tag_262\n      tag_167\n      jump\t// in\n    tag_262:\n        /* \"#utility.yul\":2968:3080   */\n    tag_261:\n        /* \"#utility.yul\":3089:3143   */\n      tag_263\n        /* \"#utility.yul\":3136:3142   */\n      dup5\n        /* \"#utility.yul\":3131:3134   */\n      dup3\n        /* \"#utility.yul\":3126:3129   */\n      dup6\n        /* \"#utility.yul\":3089:3143   */\n      tag_173\n      jump\t// in\n    tag_263:\n        /* \"#utility.yul\":2808:3149   */\n      pop\n        /* \"#utility.yul\":2724:3149   */\n      swap4\n      swap3\n      pop\n      pop\n      pop\n      jump\t// out\n        /* \"#utility.yul\":3169:3509   */\n    tag_175:\n        /* \"#utility.yul\":3225:3230   */\n      0x00\n        /* \"#utility.yul\":3274:3277   */\n      dup3\n        /* \"#utility.yul\":3267:3271   */\n      0x1f\n        /* \"#utility.yul\":3259:3265   */\n      dup4\n        /* \"#utility.yul\":3255:3272   */\n      add\n        /* \"#utility.yul\":3251:3278   */\n      slt\n        /* \"#utility.yul\":3241:3363   */\n      tag_265\n      jumpi\n        /* \"#utility.yul\":3282:3361   */\n      tag_266\n      tag_166\n      jump\t// in\n    tag_266:\n        /* \"#utility.yul\":3241:3363   */\n    tag_265:\n        /* \"#utility.yul\":3399:3405   */\n      dup2\n        /* \"#utility.yul\":3386:3406   */\n      calldataload\n        /* \"#utility.yul\":3424:3503   */\n      tag_267\n        /* \"#utility.yul\":3499:3502   */\n      dup5\n        /* \"#utility.yul\":3491:3497   */\n      dup3\n        /* \"#utility.yul\":3484:3488   */\n      0x20\n        /* \"#utility.yul\":3476:3482   */\n      dup7\n        /* \"#utility.yul\":3472:3489   */\n      add\n        /* \"#utility.yul\":3424:3503   */\n      tag_174\n      jump\t// in\n    tag_267:\n        /* \"#utility.yul\":3415:3503   */\n      swap2\n      pop\n        /* \"#utility.yul\":3231:3509   */\n      pop\n        /* \"#utility.yul\":3169:3509   */\n      swap3\n      swap2\n      pop\n      pop\n      jump\t// out\n        /* \"#utility.yul\":3515:4024   */\n    tag_20:\n        /* \"#utility.yul\":3584:3590   */\n      0x00\n        /* \"#utility.yul\":3633:3635   */\n      0x20\n        /* \"#utility.yul\":3621:3630   */\n      dup3\n        /* \"#utility.yul\":3612:3619   */\n      dup5\n        /* \"#utility.yul\":3608:3631   */\n      sub\n        /* \"#utility.yul\":3604:3636   */\n      slt\n        /* \"#utility.yul\":3601:3720   */\n      iszero\n      tag_269\n      jumpi\n        /* \"#utility.yul\":3639:3718   */\n      tag_270\n      tag_164\n      jump\t// in\n    tag_270:\n        /* \"#utility.yul\":3601:3720   */\n    tag_269:\n        /* \"#utility.yul\":3787:3788   */\n      0x00\n        /* \"#utility.yul\":3776:3785   */\n      dup3\n        /* \"#utility.yul\":3772:3789   */\n      add\n        /* \"#utility.yul\":3759:3790   */\n      calldataload\n        /* \"#utility.yul\":3817:3835   */\n      0xffffffffffffffff\n        /* \"#utility.yul\":3809:3815   */\n      dup2\n        /* \"#utility.yul\":3806:3836   */\n      gt\n        /* \"#utility.yul\":3803:3920   */\n      iszero\n      tag_271\n      jumpi\n        /* \"#utility.yul\":3839:3918   */\n      tag_272\n      tag_165\n      jump\t// in\n    tag_272:\n        /* \"#utility.yul\":3803:3920   */\n    tag_271:\n        /* \"#utility.yul\":3944:4007   */\n      tag_273\n        /* \"#utility.yul\":3999:4006   */\n      dup5\n        /* \"#utility.yul\":3990:3996   */\n      dup3\n        /* \"#utility.yul\":3979:3988   */\n      dup6\n        /* \"#utility.yul\":3975:3997   */\n      add\n        /* \"#utility.yul\":3944:4007   */\n      tag_175\n      jump\t// in\n    tag_273:\n        /* \"#utility.yul\":3934:4007   */\n      swap2\n      pop\n        /* \"#utility.yul\":3730:4017   */\n      pop\n        /* \"#utility.yul\":3515:4024   */\n      swap3\n      swap2\n      pop\n      pop\n      jump\t// out\n        /* \"#utility.yul\":4030:4120   */\n    tag_176:\n        /* \"#utility.yul\":4064:4071   */\n      0x00\n        /* \"#utility.yul\":4107:4112   */\n      dup2\n        /* \"#utility.yul\":4100:4113   */\n      iszero\n        /* \"#utility.yul\":4093:4114   */\n      iszero\n        /* \"#utility.yul\":4082:4114   */\n      swap1\n      pop\n        /* \"#utility.yul\":4030:4120   */\n      swap2\n      swap1\n      pop\n      jump\t// out\n        /* \"#utility.yul\":4126:4235   */\n    tag_177:\n        /* \"#utility.yul\":4207:4228   */\n      tag_276\n        /* \"#utility.yul\":4222:4227   */\n      dup2\n        /* \"#utility.yul\":4207:4228   */\n      tag_176\n      jump\t// in\n    tag_276:\n        /* \"#utility.yul\":4202:4205   */\n      dup3\n        /* \"#utility.yul\":4195:4229   */\n      mstore\n        /* \"#utility.yul\":4126:4235   */\n      pop\n      pop\n      jump\t// out\n        /* \"#utility.yul\":4241:4451   */\n    tag_25:\n        /* \"#utility.yul\":4328:4332   */\n      0x00\n        /* \"#utility.yul\":4366:4368   */\n      0x20\n        /* \"#utility.yul\":4355:4364   */\n      dup3\n        /* \"#utility.yul\":4351:4369   */\n      add\n        /* \"#utility.yul\":4343:4369   */\n      swap1\n      pop\n        /* \"#utility.yul\":4379:4444   */\n      tag_278\n        /* \"#utility.yul\":4441:4442   */\n      0x00\n        /* \"#utility.yul\":4430:4439   */\n      dup4\n        /* \"#utility.yul\":4426:4443   */\n      add\n        /* \"#utility.yul\":4417:4423   */\n      dup5\n        /* \"#utility.yul\":4379:4444   */\n      tag_177\n      jump\t// in\n    tag_278:\n        /* \"#utility.yul\":4241:4451   */\n      swap3\n      swap2\n      pop\n      pop\n      jump\t// out\n        /* \"#utility.yul\":4457:4583   */\n    tag_178:\n        /* \"#utility.yul\":4494:4501   */\n      0x00\n        /* \"#utility.yul\":4534:4576   */\n      0xffffffffffffffffffffffffffffffffffffffff\n        /* \"#utility.yul\":4527:4532   */\n      dup3\n        /* \"#utility.yul\":4523:4577   */\n      and\n        /* \"#utility.yul\":4512:4577   */\n      swap1\n      pop\n        /* \"#utility.yul\":4457:4583   */\n      swap2\n      swap1\n      pop\n      jump\t// out\n        /* \"#utility.yul\":4589:4685   */\n    tag_179:\n        /* \"#utility.yul\":4626:4633   */\n      0x00\n        /* \"#utility.yul\":4655:4679   */\n      tag_281\n        /* \"#utility.yul\":4673:4678   */\n      dup3\n        /* \"#utility.yul\":4655:4679   */\n      tag_178\n      jump\t// in\n    tag_281:\n        /* \"#utility.yul\":4644:4679   */\n      swap1\n      pop\n        /* \"#utility.yul\":4589:4685   */\n      swap2\n      swap1\n      pop\n      jump\t// out\n        /* \"#utility.yul\":4691:4813   */\n    tag_180:\n        /* \"#utility.yul\":4764:4788   */\n      tag_283\n        /* \"#utility.yul\":4782:4787   */\n      dup2\n        /* \"#utility.yul\":4764:4788   */\n      tag_179\n      jump\t// in\n    tag_283:\n        /* \"#utility.yul\":4757:4762   */\n      dup2\n        /* \"#utility.yul\":4754:4789   */\n      eq\n        /* \"#utility.yul\":4744:4807   */\n      tag_284\n      jumpi\n        /* \"#utility.yul\":4803:4804   */\n      0x00\n        /* \"#utility.yul\":4800:4801   */\n      dup1\n        /* \"#utility.yul\":4793:4805   */\n      revert\n        /* \"#utility.yul\":4744:4807   */\n    tag_284:\n        /* \"#utility.yul\":4691:4813   */\n      pop\n      jump\t// out\n        /* \"#utility.yul\":4819:4958   */\n    tag_181:\n        /* \"#utility.yul\":4865:4870   */\n      0x00\n        /* \"#utility.yul\":4903:4909   */\n      dup2\n        /* \"#utility.yul\":4890:4910   */\n      calldataload\n        /* \"#utility.yul\":4881:4910   */\n      swap1\n      pop\n        /* \"#utility.yul\":4919:4952   */\n      tag_286\n        /* \"#utility.yul\":4946:4951   */\n      dup2\n        /* \"#utility.yul\":4919:4952   */\n      tag_180\n      jump\t// in\n    tag_286:\n        /* \"#utility.yul\":4819:4958   */\n      swap3\n      swap2\n      pop\n      pop\n      jump\t// out\n        /* \"#utility.yul\":4964:5293   */\n    tag_28:\n        /* \"#utility.yul\":5023:5029   */\n      0x00\n        /* \"#utility.yul\":5072:5074   */\n      0x20\n        /* \"#utility.yul\":5060:5069   */\n      dup3\n        /* \"#utility.yul\":5051:5058   */\n      dup5\n        /* \"#utility.yul\":5047:5070   */\n      sub\n        /* \"#utility.yul\":5043:5075   */\n      slt\n        /* \"#utility.yul\":5040:5159   */\n      iszero\n      tag_288\n      jumpi\n        /* \"#utility.yul\":5078:5157   */\n      tag_289\n      tag_164\n      jump\t// in\n    tag_289:\n        /* \"#utility.yul\":5040:5159   */\n    tag_288:\n        /* \"#utility.yul\":5198:5199   */\n      0x00\n        /* \"#utility.yul\":5223:5276   */\n      tag_290\n        /* \"#utility.yul\":5268:5275   */\n      dup5\n        /* \"#utility.yul\":5259:5265   */\n      dup3\n        /* \"#utility.yul\":5248:5257   */\n      dup6\n        /* \"#utility.yul\":5244:5266   */\n      add\n        /* \"#utility.yul\":5223:5276   */\n      tag_181\n      jump\t// in\n    tag_290:\n        /* \"#utility.yul\":5213:5276   */\n      swap2\n      pop\n        /* \"#utility.yul\":5169:5286   */\n      pop\n        /* \"#utility.yul\":4964:5293   */\n      swap3\n      swap2\n      pop\n      pop\n      jump\t// out\n        /* \"#utility.yul\":5299:5436   */\n    tag_182:\n        /* \"#utility.yul\":5389:5395   */\n      0x00\n        /* \"#utility.yul\":5423:5428   */\n      dup2\n        /* \"#utility.yul\":5417:5429   */\n      mload\n        /* \"#utility.yul\":5407:5429   */\n      swap1\n      pop\n        /* \"#utility.yul\":5299:5436   */\n      swap2\n      swap1\n      pop\n      jump\t// out\n        /* \"#utility.yul\":5442:5649   */\n    tag_183:\n        /* \"#utility.yul\":5564:5575   */\n      0x00\n        /* \"#utility.yul\":5598:5604   */\n      dup3\n        /* \"#utility.yul\":5593:5596   */\n      dup3\n        /* \"#utility.yul\":5586:5605   */\n      mstore\n        /* \"#utility.yul\":5638:5642   */\n      0x20\n        /* \"#utility.yul\":5633:5636   */\n      dup3\n        /* \"#utility.yul\":5629:5643   */\n      add\n        /* \"#utility.yul\":5614:5643   */\n      swap1\n      pop\n        /* \"#utility.yul\":5442:5649   */\n      swap3\n      swap2\n      pop\n      pop\n      jump\t// out\n        /* \"#utility.yul\":5655:5810   */\n    tag_184:\n        /* \"#utility.yul\":5745:5749   */\n      0x00\n        /* \"#utility.yul\":5768:5771   */\n      dup2\n        /* \"#utility.yul\":5760:5771   */\n      swap1\n      pop\n        /* \"#utility.yul\":5798:5802   */\n      0x20\n        /* \"#utility.yul\":5793:5796   */\n      dup3\n        /* \"#utility.yul\":5789:5803   */\n      add\n        /* \"#utility.yul\":5781:5803   */\n      swap1\n      pop\n        /* \"#utility.yul\":5655:5810   */\n      swap2\n      swap1\n      pop\n      jump\t// out\n        /* \"#utility.yul\":5816:5893   */\n    tag_185:\n        /* \"#utility.yul\":5853:5860   */\n      0x00\n        /* \"#utility.yul\":5882:5887   */\n      dup2\n        /* \"#utility.yul\":5871:5887   */\n      swap1\n      pop\n        /* \"#utility.yul\":5816:5893   */\n      swap2\n      swap1\n      pop\n      jump\t// out\n        /* \"#utility.yul\":5899:6007   */\n    tag_186:\n        /* \"#utility.yul\":5976:6000   */\n      tag_296\n        /* \"#utility.yul\":5994:5999   */\n      dup2\n        /* \"#utility.yul\":5976:6000   */\n      tag_185\n      jump\t// in\n    tag_296:\n        /* \"#utility.yul\":5971:5974   */\n      dup3\n        /* \"#utility.yul\":5964:6001   */\n      mstore\n        /* \"#utility.yul\":5899:6007   */\n      pop\n      pop\n      jump\t// out\n        /* \"#utility.yul\":6013:6112   */\n    tag_187:\n        /* \"#utility.yul\":6065:6071   */\n      0x00\n        /* \"#utility.yul\":6099:6104   */\n      dup2\n        /* \"#utility.yul\":6093:6105   */\n      mload\n        /* \"#utility.yul\":6083:6105   */\n      swap1\n      pop\n        /* \"#utility.yul\":6013:6112   */\n      swap2\n      swap1\n      pop\n      jump\t// out\n        /* \"#utility.yul\":6118:6277   */\n    tag_188:\n        /* \"#utility.yul\":6192:6203   */\n      0x00\n        /* \"#utility.yul\":6226:6232   */\n      dup3\n        /* \"#utility.yul\":6221:6224   */\n      dup3\n        /* \"#utility.yul\":6214:6233   */\n      mstore\n        /* \"#utility.yul\":6266:6270   */\n      0x20\n        /* \"#utility.yul\":6261:6264   */\n      dup3\n        /* \"#utility.yul\":6257:6271   */\n      add\n        /* \"#utility.yul\":6242:6271   */\n      swap1\n      pop\n        /* \"#utility.yul\":6118:6277   */\n      swap3\n      swap2\n      pop\n      pop\n      jump\t// out\n        /* \"#utility.yul\":6283:6422   */\n    tag_189:\n        /* \"#utility.yul\":6372:6378   */\n      dup3\n        /* \"#utility.yul\":6367:6370   */\n      dup2\n        /* \"#utility.yul\":6362:6365   */\n      dup4\n        /* \"#utility.yul\":6356:6379   */\n      mcopy\n        /* \"#utility.yul\":6413:6414   */\n      0x00\n        /* \"#utility.yul\":6404:6410   */\n      dup4\n        /* \"#utility.yul\":6399:6402   */\n      dup4\n        /* \"#utility.yul\":6395:6411   */\n      add\n        /* \"#utility.yul\":6388:6415   */\n      mstore\n        /* \"#utility.yul\":6283:6422   */\n      pop\n      pop\n      pop\n      jump\t// out\n        /* \"#utility.yul\":6428:6785   */\n    tag_190:\n        /* \"#utility.yul\":6506:6509   */\n      0x00\n        /* \"#utility.yul\":6534:6573   */\n      tag_301\n        /* \"#utility.yul\":6567:6572   */\n      dup3\n        /* \"#utility.yul\":6534:6573   */\n      tag_187\n      jump\t// in\n    tag_301:\n        /* \"#utility.yul\":6589:6650   */\n      tag_302\n        /* \"#utility.yul\":6643:6649   */\n      dup2\n        /* \"#utility.yul\":6638:6641   */\n      dup6\n        /* \"#utility.yul\":6589:6650   */\n      tag_188\n      jump\t// in\n    tag_302:\n        /* \"#utility.yul\":6582:6650   */\n      swap4\n      pop\n        /* \"#utility.yul\":6659:6724   */\n      tag_303\n        /* \"#utility.yul\":6717:6723   */\n      dup2\n        /* \"#utility.yul\":6712:6715   */\n      dup6\n        /* \"#utility.yul\":6705:6709   */\n      0x20\n        /* \"#utility.yul\":6698:6703   */\n      dup7\n        /* \"#utility.yul\":6694:6710   */\n      add\n        /* \"#utility.yul\":6659:6724   */\n      tag_189\n      jump\t// in\n    tag_303:\n        /* \"#utility.yul\":6749:6778   */\n      tag_304\n        /* \"#utility.yul\":6771:6777   */\n      dup2\n        /* \"#utility.yul\":6749:6778   */\n      tag_168\n      jump\t// in\n    tag_304:\n        /* \"#utility.yul\":6744:6747   */\n      dup5\n        /* \"#utility.yul\":6740:6779   */\n      add\n        /* \"#utility.yul\":6733:6779   */\n      swap2\n      pop\n        /* \"#utility.yul\":6510:6785   */\n      pop\n        /* \"#utility.yul\":6428:6785   */\n      swap3\n      swap2\n      pop\n      pop\n      jump\t// out\n        /* \"#utility.yul\":6791:6899   */\n    tag_191:\n        /* \"#utility.yul\":6868:6892   */\n      tag_306\n        /* \"#utility.yul\":6886:6891   */\n      dup2\n        /* \"#utility.yul\":6868:6892   */\n      tag_179\n      jump\t// in\n    tag_306:\n        /* \"#utility.yul\":6863:6866   */\n      dup3\n        /* \"#utility.yul\":6856:6893   */\n      mstore\n        /* \"#utility.yul\":6791:6899   */\n      pop\n      pop\n      jump\t// out\n        /* \"#utility.yul\":6955:7728   */\n    tag_192:\n        /* \"#utility.yul\":7060:7063   */\n      0x00\n        /* \"#utility.yul\":7096:7100   */\n      0x60\n        /* \"#utility.yul\":7091:7094   */\n      dup4\n        /* \"#utility.yul\":7087:7101   */\n      add\n        /* \"#utility.yul\":7188:7192   */\n      0x00\n        /* \"#utility.yul\":7181:7186   */\n      dup4\n        /* \"#utility.yul\":7177:7193   */\n      add\n        /* \"#utility.yul\":7171:7194   */\n      mload\n        /* \"#utility.yul\":7207:7270   */\n      tag_308\n        /* \"#utility.yul\":7264:7268   */\n      0x00\n        /* \"#utility.yul\":7259:7262   */\n      dup7\n        /* \"#utility.yul\":7255:7269   */\n      add\n        /* \"#utility.yul\":7241:7253   */\n      dup3\n        /* \"#utility.yul\":7207:7270   */\n      tag_186\n      jump\t// in\n    tag_308:\n        /* \"#utility.yul\":7111:7280   */\n      pop\n        /* \"#utility.yul\":7362:7366   */\n      0x20\n        /* \"#utility.yul\":7355:7360   */\n      dup4\n        /* \"#utility.yul\":7351:7367   */\n      add\n        /* \"#utility.yul\":7345:7368   */\n      mload\n        /* \"#utility.yul\":7415:7418   */\n      dup5\n        /* \"#utility.yul\":7409:7413   */\n      dup3\n        /* \"#utility.yul\":7405:7419   */\n      sub\n        /* \"#utility.yul\":7398:7402   */\n      0x20\n        /* \"#utility.yul\":7393:7396   */\n      dup7\n        /* \"#utility.yul\":7389:7403   */\n      add\n        /* \"#utility.yul\":7382:7420   */\n      mstore\n        /* \"#utility.yul\":7441:7514   */\n      tag_309\n        /* \"#utility.yul\":7509:7513   */\n      dup3\n        /* \"#utility.yul\":7495:7507   */\n      dup3\n        /* \"#utility.yul\":7441:7514   */\n      tag_190\n      jump\t// in\n    tag_309:\n        /* \"#utility.yul\":7433:7514   */\n      swap2\n      pop\n        /* \"#utility.yul\":7290:7525   */\n      pop\n        /* \"#utility.yul\":7609:7613   */\n      0x40\n        /* \"#utility.yul\":7602:7607   */\n      dup4\n        /* \"#utility.yul\":7598:7614   */\n      add\n        /* \"#utility.yul\":7592:7615   */\n      mload\n        /* \"#utility.yul\":7628:7691   */\n      tag_310\n        /* \"#utility.yul\":7685:7689   */\n      0x40\n        /* \"#utility.yul\":7680:7683   */\n      dup7\n        /* \"#utility.yul\":7676:7690   */\n      add\n        /* \"#utility.yul\":7662:7674   */\n      dup3\n        /* \"#utility.yul\":7628:7691   */\n      tag_191\n      jump\t// in\n    tag_310:\n        /* \"#utility.yul\":7535:7701   */\n      pop\n        /* \"#utility.yul\":7718:7722   */\n      dup1\n        /* \"#utility.yul\":7711:7722   */\n      swap2\n      pop\n        /* \"#utility.yul\":7065:7728   */\n      pop\n        /* \"#utility.yul\":6955:7728   */\n      swap3\n      swap2\n      pop\n      pop\n      jump\t// out\n        /* \"#utility.yul\":7734:7982   */\n    tag_193:\n        /* \"#utility.yul\":7849:7859   */\n      0x00\n        /* \"#utility.yul\":7884:7976   */\n      tag_312\n        /* \"#utility.yul\":7972:7975   */\n      dup4\n        /* \"#utility.yul\":7964:7970   */\n      dup4\n        /* \"#utility.yul\":7884:7976   */\n      tag_192\n      jump\t// in\n    tag_312:\n        /* \"#utility.yul\":7870:7976   */\n      swap1\n      pop\n        /* \"#utility.yul\":7734:7982   */\n      swap3\n      swap2\n      pop\n      pop\n      jump\t// out\n        /* \"#utility.yul\":7988:8124   */\n    tag_194:\n        /* \"#utility.yul\":8081:8085   */\n      0x00\n        /* \"#utility.yul\":8113:8117   */\n      0x20\n        /* \"#utility.yul\":8108:8111   */\n      dup3\n        /* \"#utility.yul\":8104:8118   */\n      add\n        /* \"#utility.yul\":8096:8118   */\n      swap1\n      pop\n        /* \"#utility.yul\":7988:8124   */\n      swap2\n      swap1\n      pop\n      jump\t// out\n        /* \"#utility.yul\":8184:9279   */\n    tag_195:\n        /* \"#utility.yul\":8349:8352   */\n      0x00\n        /* \"#utility.yul\":8378:8455   */\n      tag_315\n        /* \"#utility.yul\":8449:8454   */\n      dup3\n        /* \"#utility.yul\":8378:8455   */\n      tag_182\n      jump\t// in\n    tag_315:\n        /* \"#utility.yul\":8471:8580   */\n      tag_316\n        /* \"#utility.yul\":8573:8579   */\n      dup2\n        /* \"#utility.yul\":8568:8571   */\n      dup6\n        /* \"#utility.yul\":8471:8580   */\n      tag_183\n      jump\t// in\n    tag_316:\n        /* \"#utility.yul\":8464:8580   */\n      swap4\n      pop\n        /* \"#utility.yul\":8606:8609   */\n      dup4\n        /* \"#utility.yul\":8651:8655   */\n      0x20\n        /* \"#utility.yul\":8643:8649   */\n      dup3\n        /* \"#utility.yul\":8639:8656   */\n      mul\n        /* \"#utility.yul\":8634:8637   */\n      dup6\n        /* \"#utility.yul\":8630:8657   */\n      add\n        /* \"#utility.yul\":8681:8760   */\n      tag_317\n        /* \"#utility.yul\":8754:8759   */\n      dup6\n        /* \"#utility.yul\":8681:8760   */\n      tag_184\n      jump\t// in\n    tag_317:\n        /* \"#utility.yul\":8783:8790   */\n      dup1\n        /* \"#utility.yul\":8814:8815   */\n      0x00\n        /* \"#utility.yul\":8799:9234   */\n    tag_318:\n        /* \"#utility.yul\":8824:8830   */\n      dup6\n        /* \"#utility.yul\":8821:8822   */\n      dup2\n        /* \"#utility.yul\":8818:8831   */\n      lt\n        /* \"#utility.yul\":8799:9234   */\n      iszero\n      tag_320\n      jumpi\n        /* \"#utility.yul\":8895:8904   */\n      dup5\n        /* \"#utility.yul\":8889:8893   */\n      dup5\n        /* \"#utility.yul\":8885:8905   */\n      sub\n        /* \"#utility.yul\":8880:8883   */\n      dup10\n        /* \"#utility.yul\":8873:8906   */\n      mstore\n        /* \"#utility.yul\":8946:8952   */\n      dup2\n        /* \"#utility.yul\":8940:8953   */\n      mload\n        /* \"#utility.yul\":8974:9084   */\n      tag_321\n        /* \"#utility.yul\":9079:9083   */\n      dup6\n        /* \"#utility.yul\":9064:9077   */\n      dup3\n        /* \"#utility.yul\":8974:9084   */\n      tag_193\n      jump\t// in\n    tag_321:\n        /* \"#utility.yul\":8966:9084   */\n      swap5\n      pop\n        /* \"#utility.yul\":9107:9190   */\n      tag_322\n        /* \"#utility.yul\":9183:9189   */\n      dup4\n        /* \"#utility.yul\":9107:9190   */\n      tag_194\n      jump\t// in\n    tag_322:\n        /* \"#utility.yul\":9097:9190   */\n      swap3\n      pop\n        /* \"#utility.yul\":9219:9223   */\n      0x20\n        /* \"#utility.yul\":9214:9217   */\n      dup11\n        /* \"#utility.yul\":9210:9224   */\n      add\n        /* \"#utility.yul\":9203:9224   */\n      swap10\n      pop\n        /* \"#utility.yul\":8859:9234   */\n      pop\n        /* \"#utility.yul\":8846:8847   */\n      0x01\n        /* \"#utility.yul\":8843:8844   */\n      dup2\n        /* \"#utility.yul\":8839:8848   */\n      add\n        /* \"#utility.yul\":8834:8848   */\n      swap1\n      pop\n        /* \"#utility.yul\":8799:9234   */\n      jump(tag_318)\n    tag_320:\n        /* \"#utility.yul\":8803:8817   */\n      pop\n        /* \"#utility.yul\":9250:9254   */\n      dup3\n        /* \"#utility.yul\":9243:9254   */\n      swap8\n      pop\n        /* \"#utility.yul\":9270:9273   */\n      dup8\n        /* \"#utility.yul\":9263:9273   */\n      swap6\n      pop\n        /* \"#utility.yul\":8354:9279   */\n      pop\n      pop\n      pop\n      pop\n      pop\n        /* \"#utility.yul\":8184:9279   */\n      swap3\n      swap2\n      pop\n      pop\n      jump\t// out\n        /* \"#utility.yul\":9285:9750   */\n    tag_33:\n        /* \"#utility.yul\":9474:9478   */\n      0x00\n        /* \"#utility.yul\":9512:9514   */\n      0x20\n        /* \"#utility.yul\":9501:9510   */\n      dup3\n        /* \"#utility.yul\":9497:9515   */\n      add\n        /* \"#utility.yul\":9489:9515   */\n      swap1\n      pop\n        /* \"#utility.yul\":9561:9570   */\n      dup2\n        /* \"#utility.yul\":9555:9559   */\n      dup2\n        /* \"#utility.yul\":9551:9571   */\n      sub\n        /* \"#utility.yul\":9547:9548   */\n      0x00\n        /* \"#utility.yul\":9536:9545   */\n      dup4\n        /* \"#utility.yul\":9532:9549   */\n      add\n        /* \"#utility.yul\":9525:9572   */\n      mstore\n        /* \"#utility.yul\":9589:9743   */\n      tag_324\n        /* \"#utility.yul\":9738:9742   */\n      dup2\n        /* \"#utility.yul\":9729:9735   */\n      dup5\n        /* \"#utility.yul\":9589:9743   */\n      tag_195\n      jump\t// in\n    tag_324:\n        /* \"#utility.yul\":9581:9743   */\n      swap1\n      pop\n        /* \"#utility.yul\":9285:9750   */\n      swap3\n      swap2\n      pop\n      pop\n      jump\t// out\n        /* \"#utility.yul\":9756:9874   */\n    tag_196:\n        /* \"#utility.yul\":9843:9867   */\n      tag_326\n        /* \"#utility.yul\":9861:9866   */\n      dup2\n        /* \"#utility.yul\":9843:9867   */\n      tag_179\n      jump\t// in\n    tag_326:\n        /* \"#utility.yul\":9838:9841   */\n      dup3\n        /* \"#utility.yul\":9831:9868   */\n      mstore\n        /* \"#utility.yul\":9756:9874   */\n      pop\n      pop\n      jump\t// out\n        /* \"#utility.yul\":9880:10102   */\n    tag_37:\n        /* \"#utility.yul\":9973:9977   */\n      0x00\n        /* \"#utility.yul\":10011:10013   */\n      0x20\n        /* \"#utility.yul\":10000:10009   */\n      dup3\n        /* \"#utility.yul\":9996:10014   */\n      add\n        /* \"#utility.yul\":9988:10014   */\n      swap1\n      pop\n        /* \"#utility.yul\":10024:10095   */\n      tag_328\n        /* \"#utility.yul\":10092:10093   */\n      0x00\n        /* \"#utility.yul\":10081:10090   */\n      dup4\n        /* \"#utility.yul\":10077:10094   */\n      add\n        /* \"#utility.yul\":10068:10074   */\n      dup5\n        /* \"#utility.yul\":10024:10095   */\n      tag_196\n      jump\t// in\n    tag_328:\n        /* \"#utility.yul\":9880:10102   */\n      swap3\n      swap2\n      pop\n      pop\n      jump\t// out\n        /* \"#utility.yul\":10108:10222   */\n    tag_197:\n        /* \"#utility.yul\":10175:10181   */\n      0x00\n        /* \"#utility.yul\":10209:10214   */\n      dup2\n        /* \"#utility.yul\":10203:10215   */\n      mload\n        /* \"#utility.yul\":10193:10215   */\n      swap1\n      pop\n        /* \"#utility.yul\":10108:10222   */\n      swap2\n      swap1\n      pop\n      jump\t// out\n        /* \"#utility.yul\":10228:10412   */\n    tag_198:\n        /* \"#utility.yul\":10327:10338   */\n      0x00\n        /* \"#utility.yul\":10361:10367   */\n      dup3\n        /* \"#utility.yul\":10356:10359   */\n      dup3\n        /* \"#utility.yul\":10349:10368   */\n      mstore\n        /* \"#utility.yul\":10401:10405   */\n      0x20\n        /* \"#utility.yul\":10396:10399   */\n      dup3\n        /* \"#utility.yul\":10392:10406   */\n      add\n        /* \"#utility.yul\":10377:10406   */\n      swap1\n      pop\n        /* \"#utility.yul\":10228:10412   */\n      swap3\n      swap2\n      pop\n      pop\n      jump\t// out\n        /* \"#utility.yul\":10418:10550   */\n    tag_199:\n        /* \"#utility.yul\":10485:10489   */\n      0x00\n        /* \"#utility.yul\":10508:10511   */\n      dup2\n        /* \"#utility.yul\":10500:10511   */\n      swap1\n      pop\n        /* \"#utility.yul\":10538:10542   */\n      0x20\n        /* \"#utility.yul\":10533:10536   */\n      dup3\n        /* \"#utility.yul\":10529:10543   */\n      add\n        /* \"#utility.yul\":10521:10543   */\n      swap1\n      pop\n        /* \"#utility.yul\":10418:10550   */\n      swap2\n      swap1\n      pop\n      jump\t// out\n        /* \"#utility.yul\":10556:10735   */\n    tag_200:\n        /* \"#utility.yul\":10625:10635   */\n      0x00\n        /* \"#utility.yul\":10646:10692   */\n      tag_333\n        /* \"#utility.yul\":10688:10691   */\n      dup4\n        /* \"#utility.yul\":10680:10686   */\n      dup4\n        /* \"#utility.yul\":10646:10692   */\n      tag_191\n      jump\t// in\n    tag_333:\n        /* \"#utility.yul\":10724:10728   */\n      0x20\n        /* \"#utility.yul\":10719:10722   */\n      dup4\n        /* \"#utility.yul\":10715:10729   */\n      add\n        /* \"#utility.yul\":10701:10729   */\n      swap1\n      pop\n        /* \"#utility.yul\":10556:10735   */\n      swap3\n      swap2\n      pop\n      pop\n      jump\t// out\n        /* \"#utility.yul\":10741:10854   */\n    tag_201:\n        /* \"#utility.yul\":10811:10815   */\n      0x00\n        /* \"#utility.yul\":10843:10847   */\n      0x20\n        /* \"#utility.yul\":10838:10841   */\n      dup3\n        /* \"#utility.yul\":10834:10848   */\n      add\n        /* \"#utility.yul\":10826:10848   */\n      swap1\n      pop\n        /* \"#utility.yul\":10741:10854   */\n      swap2\n      swap1\n      pop\n      jump\t// out\n        /* \"#utility.yul\":10890:11622   */\n    tag_202:\n        /* \"#utility.yul\":11009:11012   */\n      0x00\n        /* \"#utility.yul\":11038:11092   */\n      tag_336\n        /* \"#utility.yul\":11086:11091   */\n      dup3\n        /* \"#utility.yul\":11038:11092   */\n      tag_197\n      jump\t// in\n    tag_336:\n        /* \"#utility.yul\":11108:11194   */\n      tag_337\n        /* \"#utility.yul\":11187:11193   */\n      dup2\n        /* \"#utility.yul\":11182:11185   */\n      dup6\n        /* \"#utility.yul\":11108:11194   */\n      tag_198\n      jump\t// in\n    tag_337:\n        /* \"#utility.yul\":11101:11194   */\n      swap4\n      pop\n        /* \"#utility.yul\":11218:11274   */\n      tag_338\n        /* \"#utility.yul\":11268:11273   */\n      dup4\n        /* \"#utility.yul\":11218:11274   */\n      tag_199\n      jump\t// in\n    tag_338:\n        /* \"#utility.yul\":11297:11304   */\n      dup1\n        /* \"#utility.yul\":11328:11329   */\n      0x00\n        /* \"#utility.yul\":11313:11597   */\n    tag_339:\n        /* \"#utility.yul\":11338:11344   */\n      dup4\n        /* \"#utility.yul\":11335:11336   */\n      dup2\n        /* \"#utility.yul\":11332:11345   */\n      lt\n        /* \"#utility.yul\":11313:11597   */\n      iszero\n      tag_341\n      jumpi\n        /* \"#utility.yul\":11414:11420   */\n      dup2\n        /* \"#utility.yul\":11408:11421   */\n      mload\n        /* \"#utility.yul\":11441:11504   */\n      tag_342\n        /* \"#utility.yul\":11500:11503   */\n      dup9\n        /* \"#utility.yul\":11485:11498   */\n      dup3\n        /* \"#utility.yul\":11441:11504   */\n      tag_200\n      jump\t// in\n    tag_342:\n        /* \"#utility.yul\":11434:11504   */\n      swap8\n      pop\n        /* \"#utility.yul\":11527:11587   */\n      tag_343\n        /* \"#utility.yul\":11580:11586   */\n      dup4\n        /* \"#utility.yul\":11527:11587   */\n      tag_201\n      jump\t// in\n    tag_343:\n        /* \"#utility.yul\":11517:11587   */\n      swap3\n      pop\n        /* \"#utility.yul\":11373:11597   */\n      pop\n        /* \"#utility.yul\":11360:11361   */\n      0x01\n        /* \"#utility.yul\":11357:11358   */\n      dup2\n        /* \"#utility.yul\":11353:11362   */\n      add\n        /* \"#utility.yul\":11348:11362   */\n      swap1\n      pop\n        /* \"#utility.yul\":11313:11597   */\n      jump(tag_339)\n    tag_341:\n        /* \"#utility.yul\":11317:11331   */\n      pop\n        /* \"#utility.yul\":11613:11616   */\n      dup6\n        /* \"#utility.yul\":11606:11616   */\n      swap4\n      pop\n        /* \"#utility.yul\":11014:11622   */\n      pop\n      pop\n      pop\n        /* \"#utility.yul\":10890:11622   */\n      swap3\n      swap2\n      pop\n      pop\n      jump\t// out\n        /* \"#utility.yul\":11628:12001   */\n    tag_41:\n        /* \"#utility.yul\":11771:11775   */\n      0x00\n        /* \"#utility.yul\":11809:11811   */\n      0x20\n        /* \"#utility.yul\":11798:11807   */\n      dup3\n        /* \"#utility.yul\":11794:11812   */\n      add\n        /* \"#utility.yul\":11786:11812   */\n      swap1\n      pop\n        /* \"#utility.yul\":11858:11867   */\n      dup2\n        /* \"#utility.yul\":11852:11856   */\n      dup2\n        /* \"#utility.yul\":11848:11868   */\n      sub\n        /* \"#utility.yul\":11844:11845   */\n      0x00\n        /* \"#utility.yul\":11833:11842   */\n      dup4\n        /* \"#utility.yul\":11829:11846   */\n      add\n        /* \"#utility.yul\":11822:11869   */\n      mstore\n        /* \"#utility.yul\":11886:11994   */\n      tag_345\n        /* \"#utility.yul\":11989:11993   */\n      dup2\n        /* \"#utility.yul\":11980:11986   */\n      dup5\n        /* \"#utility.yul\":11886:11994   */\n      tag_202\n      jump\t// in\n    tag_345:\n        /* \"#utility.yul\":11878:11994   */\n      swap1\n      pop\n        /* \"#utility.yul\":11628:12001   */\n      swap3\n      swap2\n      pop\n      pop\n      jump\t// out\n        /* \"#utility.yul\":12007:12176   */\n    tag_203:\n        /* \"#utility.yul\":12091:12102   */\n      0x00\n        /* \"#utility.yul\":12125:12131   */\n      dup3\n        /* \"#utility.yul\":12120:12123   */\n      dup3\n        /* \"#utility.yul\":12113:12132   */\n      mstore\n        /* \"#utility.yul\":12165:12169   */\n      0x20\n        /* \"#utility.yul\":12160:12163   */\n      dup3\n        /* \"#utility.yul\":12156:12170   */\n      add\n        /* \"#utility.yul\":12141:12170   */\n      swap1\n      pop\n        /* \"#utility.yul\":12007:12176   */\n      swap3\n      swap2\n      pop\n      pop\n      jump\t// out\n        /* \"#utility.yul\":12182:12335   */\n    tag_204:\n        /* \"#utility.yul\":12322:12327   */\n      0x3430330000000000000000000000000000000000000000000000000000000000\n        /* \"#utility.yul\":12318:12319   */\n      0x00\n        /* \"#utility.yul\":12310:12316   */\n      dup3\n        /* \"#utility.yul\":12306:12320   */\n      add\n        /* \"#utility.yul\":12299:12328   */\n      mstore\n        /* \"#utility.yul\":12182:12335   */\n      pop\n      jump\t// out\n        /* \"#utility.yul\":12341:12706   */\n    tag_205:\n        /* \"#utility.yul\":12483:12486   */\n      0x00\n        /* \"#utility.yul\":12504:12570   */\n      tag_349\n        /* \"#utility.yul\":12568:12569   */\n      0x03\n        /* \"#utility.yul\":12563:12566   */\n      dup4\n        /* \"#utility.yul\":12504:12570   */\n      tag_203\n      jump\t// in\n    tag_349:\n        /* \"#utility.yul\":12497:12570   */\n      swap2\n      pop\n        /* \"#utility.yul\":12579:12672   */\n      tag_350\n        /* \"#utility.yul\":12668:12671   */\n      dup3\n        /* \"#utility.yul\":12579:12672   */\n      tag_204\n      jump\t// in\n    tag_350:\n        /* \"#utility.yul\":12697:12699   */\n      0x20\n        /* \"#utility.yul\":12692:12695   */\n      dup3\n        /* \"#utility.yul\":12688:12700   */\n      add\n        /* \"#utility.yul\":12681:12700   */\n      swap1\n      pop\n        /* \"#utility.yul\":12341:12706   */\n      swap2\n      swap1\n      pop\n      jump\t// out\n        /* \"#utility.yul\":12712:13131   */\n    tag_55:\n        /* \"#utility.yul\":12878:12882   */\n      0x00\n        /* \"#utility.yul\":12916:12918   */\n      0x20\n        /* \"#utility.yul\":12905:12914   */\n      dup3\n        /* \"#utility.yul\":12901:12919   */\n      add\n        /* \"#utility.yul\":12893:12919   */\n      swap1\n      pop\n        /* \"#utility.yul\":12965:12974   */\n      dup2\n        /* \"#utility.yul\":12959:12963   */\n      dup2\n        /* \"#utility.yul\":12955:12975   */\n      sub\n        /* \"#utility.yul\":12951:12952   */\n      0x00\n        /* \"#utility.yul\":12940:12949   */\n      dup4\n        /* \"#utility.yul\":12936:12953   */\n      add\n        /* \"#utility.yul\":12929:12976   */\n      mstore\n        /* \"#utility.yul\":12993:13124   */\n      tag_352\n        /* \"#utility.yul\":13119:13123   */\n      dup2\n        /* \"#utility.yul\":12993:13124   */\n      tag_205\n      jump\t// in\n    tag_352:\n        /* \"#utility.yul\":12985:13124   */\n      swap1\n      pop\n        /* \"#utility.yul\":12712:13131   */\n      swap2\n      swap1\n      pop\n      jump\t// out\n        /* \"#utility.yul\":13137:13317   */\n    tag_206:\n        /* \"#utility.yul\":13185:13262   */\n      0x4e487b7100000000000000000000000000000000000000000000000000000000\n        /* \"#utility.yul\":13182:13183   */\n      0x00\n        /* \"#utility.yul\":13175:13263   */\n      mstore\n        /* \"#utility.yul\":13282:13286   */\n      0x22\n        /* \"#utility.yul\":13279:13280   */\n      0x04\n        /* \"#utility.yul\":13272:13287   */\n      mstore\n        /* \"#utility.yul\":13306:13310   */\n      0x24\n        /* \"#utility.yul\":13303:13304   */\n      0x00\n        /* \"#utility.yul\":13296:13311   */\n      revert\n        /* \"#utility.yul\":13323:13643   */\n    tag_89:\n        /* \"#utility.yul\":13367:13373   */\n      0x00\n        /* \"#utility.yul\":13404:13405   */\n      0x02\n        /* \"#utility.yul\":13398:13402   */\n      dup3\n        /* \"#utility.yul\":13394:13406   */\n      div\n        /* \"#utility.yul\":13384:13406   */\n      swap1\n      pop\n        /* \"#utility.yul\":13451:13452   */\n      0x01\n        /* \"#utility.yul\":13445:13449   */\n      dup3\n        /* \"#utility.yul\":13441:13453   */\n      and\n        /* \"#utility.yul\":13472:13490   */\n      dup1\n        /* \"#utility.yul\":13462:13543   */\n      tag_355\n      jumpi\n        /* \"#utility.yul\":13528:13532   */\n      0x7f\n        /* \"#utility.yul\":13520:13526   */\n      dup3\n        /* \"#utility.yul\":13516:13533   */\n      and\n        /* \"#utility.yul\":13506:13533   */\n      swap2\n      pop\n        /* \"#utility.yul\":13462:13543   */\n    tag_355:\n        /* \"#utility.yul\":13590:13592   */\n      0x20\n        /* \"#utility.yul\":13582:13588   */\n      dup3\n        /* \"#utility.yul\":13579:13593   */\n      lt\n        /* \"#utility.yul\":13559:13577   */\n      dup2\n        /* \"#utility.yul\":13556:13594   */\n      sub\n        /* \"#utility.yul\":13553:13637   */\n      tag_356\n      jumpi\n        /* \"#utility.yul\":13609:13627   */\n      tag_357\n      tag_206\n      jump\t// in\n    tag_357:\n        /* \"#utility.yul\":13553:13637   */\n    tag_356:\n        /* \"#utility.yul\":13374:13643   */\n      pop\n        /* \"#utility.yul\":13323:13643   */\n      swap2\n      swap1\n      pop\n      jump\t// out\n        /* \"#utility.yul\":13649:13790   */\n    tag_207:\n        /* \"#utility.yul\":13698:13702   */\n      0x00\n        /* \"#utility.yul\":13721:13724   */\n      dup2\n        /* \"#utility.yul\":13713:13724   */\n      swap1\n      pop\n        /* \"#utility.yul\":13744:13747   */\n      dup2\n        /* \"#utility.yul\":13741:13742   */\n      0x00\n        /* \"#utility.yul\":13734:13748   */\n      mstore\n        /* \"#utility.yul\":13778:13782   */\n      0x20\n        /* \"#utility.yul\":13775:13776   */\n      0x00\n        /* \"#utility.yul\":13765:13783   */\n      keccak256\n        /* \"#utility.yul\":13757:13783   */\n      swap1\n      pop\n        /* \"#utility.yul\":13649:13790   */\n      swap2\n      swap1\n      pop\n      jump\t// out\n        /* \"#utility.yul\":13796:13889   */\n    tag_208:\n        /* \"#utility.yul\":13833:13839   */\n      0x00\n        /* \"#utility.yul\":13880:13882   */\n      0x20\n        /* \"#utility.yul\":13875:13877   */\n      0x1f\n        /* \"#utility.yul\":13868:13873   */\n      dup4\n        /* \"#utility.yul\":13864:13878   */\n      add\n        /* \"#utility.yul\":13860:13883   */\n      div\n        /* \"#utility.yul\":13850:13883   */\n      swap1\n      pop\n        /* \"#utility.yul\":13796:13889   */\n      swap2\n      swap1\n      pop\n      jump\t// out\n        /* \"#utility.yul\":13895:14002   */\n    tag_209:\n        /* \"#utility.yul\":13939:13947   */\n      0x00\n        /* \"#utility.yul\":13989:13994   */\n      dup3\n        /* \"#utility.yul\":13983:13987   */\n      dup3\n        /* \"#utility.yul\":13979:13995   */\n      shl\n        /* \"#utility.yul\":13958:13995   */\n      swap1\n      pop\n        /* \"#utility.yul\":13895:14002   */\n      swap3\n      swap2\n      pop\n      pop\n      jump\t// out\n        /* \"#utility.yul\":14008:14401   */\n    tag_210:\n        /* \"#utility.yul\":14077:14083   */\n      0x00\n        /* \"#utility.yul\":14127:14128   */\n      0x08\n        /* \"#utility.yul\":14115:14125   */\n      dup4\n        /* \"#utility.yul\":14111:14129   */\n      mul\n        /* \"#utility.yul\":14150:14247   */\n      tag_362\n        /* \"#utility.yul\":14180:14246   */\n      0xffffffffffffffffffffffffffffffffffffffffffffffffffffffffffffffff\n        /* \"#utility.yul\":14169:14178   */\n      dup3\n        /* \"#utility.yul\":14150:14247   */\n      tag_209\n      jump\t// in\n    tag_362:\n        /* \"#utility.yul\":14268:14307   */\n      tag_363\n        /* \"#utility.yul\":14298:14306   */\n      dup7\n        /* \"#utility.yul\":14287:14296   */\n      dup4\n        /* \"#utility.yul\":14268:14307   */\n      tag_209\n      jump\t// in\n    tag_363:\n        /* \"#utility.yul\":14256:14307   */\n      swap6\n      pop\n        /* \"#utility.yul\":14340:14344   */\n      dup1\n        /* \"#utility.yul\":14336:14345   */\n      not\n        /* \"#utility.yul\":14329:14334   */\n      dup5\n        /* \"#utility.yul\":14325:14346   */\n      and\n        /* \"#utility.yul\":14316:14346   */\n      swap4\n      pop\n        /* \"#utility.yul\":14389:14393   */\n      dup1\n        /* \"#utility.yul\":14379:14387   */\n      dup7\n        /* \"#utility.yul\":14375:14394   */\n      and\n        /* \"#utility.yul\":14368:14373   */\n      dup5\n        /* \"#utility.yul\":14365:14395   */\n      or\n        /* \"#utility.yul\":14355:14395   */\n      swap3\n      pop\n        /* \"#utility.yul\":14084:14401   */\n      pop\n      pop\n        /* \"#utility.yul\":14008:14401   */\n      swap4\n      swap3\n      pop\n      pop\n      pop\n      jump\t// out\n        /* \"#utility.yul\":14407:14467   */\n    tag_211:\n        /* \"#utility.yul\":14435:14438   */\n      0x00\n        /* \"#utility.yul\":14456:14461   */\n      dup2\n        /* \"#utility.yul\":14449:14461   */\n      swap1\n      pop\n        /* \"#utility.yul\":14407:14467   */\n      swap2\n      swap1\n      pop\n      jump\t// out\n        /* \"#utility.yul\":14473:14615   */\n    tag_212:\n        /* \"#utility.yul\":14523:14532   */\n      0x00\n        /* \"#utility.yul\":14556:14609   */\n      tag_366\n        /* \"#utility.yul\":14574:14608   */\n      tag_367\n        /* \"#utility.yul\":14583:14607   */\n      tag_368\n        /* \"#utility.yul\":14601:14606   */\n      dup5\n        /* \"#utility.yul\":14583:14607   */\n      tag_185\n      jump\t// in\n    tag_368:\n        /* \"#utility.yul\":14574:14608   */\n      tag_211\n      jump\t// in\n    tag_367:\n        /* \"#utility.yul\":14556:14609   */\n      tag_185\n      jump\t// in\n    tag_366:\n        /* \"#utility.yul\":14543:14609   */\n      swap1\n      pop\n        /* \"#utility.yul\":14473:14615   */\n      swap2\n      swap1\n      pop\n      jump\t// out\n        /* \"#utility.yul\":14621:14696   */\n    tag_213:\n        /* \"#utility.yul\":14664:14667   */\n      0x00\n        /* \"#utility.yul\":14685:14690   */\n      dup2\n        /* \"#utility.yul\":14678:14690   */\n      swap1\n      pop\n        /* \"#utility.yul\":14621:14696   */\n      swap2\n      swap1\n      pop\n      jump\t// out\n        /* \"#utility.yul\":14702:14971   */\n    tag_214:\n        /* \"#utility.yul\":14812:14851   */\n      tag_371\n        /* \"#utility.yul\":14843:14850   */\n      dup4\n        /* \"#utility.yul\":14812:14851   */\n      tag_212\n      jump\t// in\n    tag_371:\n        /* \"#utility.yul\":14873:14964   */\n      tag_372\n        /* \"#utility.yul\":14922:14963   */\n      tag_373\n        /* \"#utility.yul\":14946:14962   */\n      dup3\n        /* \"#utility.yul\":14922:14963   */\n      tag_213\n      jump\t// in\n    tag_373:\n        /* \"#utility.yul\":14914:14920   */\n      dup5\n        /* \"#utility.yul\":14907:14911   */\n      dup5\n        /* \"#utility.yul\":14901:14912   */\n      sload\n        /* \"#utility.yul\":14873:14964   */\n      tag_210\n      jump\t// in\n    tag_372:\n        /* \"#utility.yul\":14867:14871   */\n      dup3\n        /* \"#utility.yul\":14860:14965   */\n      sstore\n        /* \"#utility.yul\":14778:14971   */\n      pop\n        /* \"#utility.yul\":14702:14971   */\n      pop\n      pop\n      pop\n      jump\t// out\n        /* \"#utility.yul\":14977:15050   */\n    tag_215:\n        /* \"#utility.yul\":15022:15025   */\n      0x00\n        /* \"#utility.yul\":14977:15050   */\n      swap1\n      jump\t// out\n        /* \"#utility.yul\":15056:15245   */\n    tag_216:\n        /* \"#utility.yul\":15133:15165   */\n      tag_376\n      tag_215\n      jump\t// in\n    tag_376:\n        /* \"#utility.yul\":15174:15239   */\n      tag_377\n        /* \"#utility.yul\":15232:15238   */\n      dup2\n        /* \"#utility.yul\":15224:15230   */\n      dup5\n        /* \"#utility.yul\":15218:15222   */\n      dup5\n        /* \"#utility.yul\":15174:15239   */\n      tag_214\n      jump\t// in\n    tag_377:\n        /* \"#utility.yul\":15109:15245   */\n      pop\n        /* \"#utility.yul\":15056:15245   */\n      pop\n      pop\n      jump\t// out\n        /* \"#utility.yul\":15251:15437   */\n    tag_217:\n        /* \"#utility.yul\":15311:15431   */\n    tag_379:\n        /* \"#utility.yul\":15328:15331   */\n      dup2\n        /* \"#utility.yul\":15321:15326   */\n      dup2\n        /* \"#utility.yul\":15318:15332   */\n      lt\n        /* \"#utility.yul\":15311:15431   */\n      iszero\n      tag_381\n      jumpi\n        /* \"#utility.yul\":15382:15421   */\n      tag_382\n        /* \"#utility.yul\":15419:15420   */\n      0x00\n        /* \"#utility.yul\":15412:15417   */\n      dup3\n        /* \"#utility.yul\":15382:15421   */\n      tag_216\n      jump\t// in\n    tag_382:\n        /* \"#utility.yul\":15355:15356   */\n      0x01\n        /* \"#utility.yul\":15348:15353   */\n      dup2\n        /* \"#utility.yul\":15344:15357   */\n      add\n        /* \"#utility.yul\":15335:15357   */\n      swap1\n      pop\n        /* \"#utility.yul\":15311:15431   */\n      jump(tag_379)\n    tag_381:\n        /* \"#utility.yul\":15251:15437   */\n      pop\n      pop\n      jump\t// out\n        /* \"#utility.yul\":15443:15986   */\n    tag_218:\n        /* \"#utility.yul\":15544:15546   */\n      0x1f\n        /* \"#utility.yul\":15539:15542   */\n      dup3\n        /* \"#utility.yul\":15536:15547   */\n      gt\n        /* \"#utility.yul\":15533:15979   */\n      iszero\n      tag_384\n      jumpi\n        /* \"#utility.yul\":15578:15616   */\n      tag_385\n        /* \"#utility.yul\":15610:15615   */\n      dup2\n        /* \"#utility.yul\":15578:15616   */\n      tag_207\n      jump\t// in\n    tag_385:\n        /* \"#utility.yul\":15662:15691   */\n      tag_386\n        /* \"#utility.yul\":15680:15690   */\n      dup5\n        /* \"#utility.yul\":15662:15691   */\n      tag_208\n      jump\t// in\n    tag_386:\n        /* \"#utility.yul\":15652:15660   */\n      dup2\n        /* \"#utility.yul\":15648:15692   */\n      add\n        /* \"#utility.yul\":15845:15847   */\n      0x20\n        /* \"#utility.yul\":15833:15843   */\n      dup6\n        /* \"#utility.yul\":15830:15848   */\n      lt\n        /* \"#utility.yul\":15827:15876   */\n      iszero\n      tag_387\n      jumpi\n        /* \"#utility.yul\":15866:15874   */\n      dup2\n        /* \"#utility.yul\":15851:15874   */\n      swap1\n      pop\n        /* \"#utility.yul\":15827:15876   */\n    tag_387:\n        /* \"#utility.yul\":15889:15969   */\n      tag_388\n        /* \"#utility.yul\":15945:15967   */\n      tag_389\n        /* \"#utility.yul\":15963:15966   */\n      dup6\n        /* \"#utility.yul\":15945:15967   */\n      tag_208\n      jump\t// in\n    tag_389:\n        /* \"#utility.yul\":15935:15943   */\n      dup4\n        /* \"#utility.yul\":15931:15968   */\n      add\n        /* \"#utility.yul\":15918:15929   */\n      dup3\n        /* \"#utility.yul\":15889:15969   */\n      tag_217\n      jump\t// in\n    tag_388:\n        /* \"#utility.yul\":15548:15979   */\n      pop\n      pop\n        /* \"#utility.yul\":15533:15979   */\n    tag_384:\n        /* \"#utility.yul\":15443:15986   */\n      pop\n      pop\n      pop\n      jump\t// out\n        /* \"#utility.yul\":15992:16109   */\n    tag_219:\n        /* \"#utility.yul\":16046:16054   */\n      0x00\n        /* \"#utility.yul\":16096:16101   */\n      dup3\n        /* \"#utility.yul\":16090:16094   */\n      dup3\n        /* \"#utility.yul\":16086:16102   */\n      shr\n        /* \"#utility.yul\":16065:16102   */\n      swap1\n      pop\n        /* \"#utility.yul\":15992:16109   */\n      swap3\n      swap2\n      pop\n      pop\n      jump\t// out\n        /* \"#utility.yul\":16115:16284   */\n    tag_220:\n        /* \"#utility.yul\":16159:16165   */\n      0x00\n        /* \"#utility.yul\":16192:16243   */\n      tag_392\n        /* \"#utility.yul\":16240:16241   */\n      0x00\n        /* \"#utility.yul\":16236:16242   */\n      not\n        /* \"#utility.yul\":16228:16233   */\n      dup5\n        /* \"#utility.yul\":16225:16226   */\n      0x08\n        /* \"#utility.yul\":16221:16234   */\n      mul\n        /* \"#utility.yul\":16192:16243   */\n      tag_219\n      jump\t// in\n    tag_392:\n        /* \"#utility.yul\":16188:16244   */\n      not\n        /* \"#utility.yul\":16273:16277   */\n      dup1\n        /* \"#utility.yul\":16267:16271   */\n      dup4\n        /* \"#utility.yul\":16263:16278   */\n      and\n        /* \"#utility.yul\":16253:16278   */\n      swap2\n      pop\n        /* \"#utility.yul\":16166:16284   */\n      pop\n        /* \"#utility.yul\":16115:16284   */\n      swap3\n      swap2\n      pop\n      pop\n      jump\t// out\n        /* \"#utility.yul\":16289:16584   */\n    tag_221:\n        /* \"#utility.yul\":16365:16369   */\n      0x00\n        /* \"#utility.yul\":16511:16540   */\n      tag_394\n        /* \"#utility.yul\":16536:16539   */\n      dup4\n        /* \"#utility.yul\":16530:16534   */\n      dup4\n        /* \"#utility.yul\":16511:16540   */\n      tag_220\n      jump\t// in\n    tag_394:\n        /* \"#utility.yul\":16503:16540   */\n      swap2\n      pop\n        /* \"#utility.yul\":16573:16576   */\n      dup3\n        /* \"#utility.yul\":16570:16571   */\n      0x02\n        /* \"#utility.yul\":16566:16577   */\n      mul\n        /* \"#utility.yul\":16560:16564   */\n      dup3\n        /* \"#utility.yul\":16557:16578   */\n      or\n        /* \"#utility.yul\":16549:16578   */\n      swap1\n      pop\n        /* \"#utility.yul\":16289:16584   */\n      swap3\n      swap2\n      pop\n      pop\n      jump\t// out\n        /* \"#utility.yul\":16589:17984   */\n    tag_59:\n        /* \"#utility.yul\":16706:16743   */\n      tag_396\n        /* \"#utility.yul\":16739:16742   */\n      dup3\n        /* \"#utility.yul\":16706:16743   */\n      tag_187\n      jump\t// in\n    tag_396:\n        /* \"#utility.yul\":16808:16826   */\n      0xffffffffffffffff\n        /* \"#utility.yul\":16800:16806   */\n      dup2\n        /* \"#utility.yul\":16797:16827   */\n      gt\n        /* \"#utility.yul\":16794:16850   */\n      iszero\n      tag_397\n      jumpi\n        /* \"#utility.yul\":16830:16848   */\n      tag_398\n      tag_169\n      jump\t// in\n    tag_398:\n        /* \"#utility.yul\":16794:16850   */\n    tag_397:\n        /* \"#utility.yul\":16874:16912   */\n      tag_399\n        /* \"#utility.yul\":16906:16910   */\n      dup3\n        /* \"#utility.yul\":16900:16911   */\n      sload\n        /* \"#utility.yul\":16874:16912   */\n      tag_89\n      jump\t// in\n    tag_399:\n        /* \"#utility.yul\":16959:17026   */\n      tag_400\n        /* \"#utility.yul\":17019:17025   */\n      dup3\n        /* \"#utility.yul\":17011:17017   */\n      dup3\n        /* \"#utility.yul\":17005:17009   */\n      dup6\n        /* \"#utility.yul\":16959:17026   */\n      tag_218\n      jump\t// in\n    tag_400:\n        /* \"#utility.yul\":17053:17054   */\n      0x00\n        /* \"#utility.yul\":17077:17081   */\n      0x20\n        /* \"#utility.yul\":17064:17081   */\n      swap1\n      pop\n        /* \"#utility.yul\":17109:17111   */\n      0x1f\n        /* \"#utility.yul\":17101:17107   */\n      dup4\n        /* \"#utility.yul\":17098:17112   */\n      gt\n        /* \"#utility.yul\":17126:17127   */\n      0x01\n        /* \"#utility.yul\":17121:17739   */\n      dup2\n      eq\n      tag_402\n      jumpi\n        /* \"#utility.yul\":17783:17784   */\n      0x00\n        /* \"#utility.yul\":17800:17806   */\n      dup5\n        /* \"#utility.yul\":17797:17874   */\n      iszero\n      tag_403\n      jumpi\n        /* \"#utility.yul\":17849:17858   */\n      dup3\n        /* \"#utility.yul\":17844:17847   */\n      dup8\n        /* \"#utility.yul\":17840:17859   */\n      add\n        /* \"#utility.yul\":17834:17860   */\n      mload\n        /* \"#utility.yul\":17825:17860   */\n      swap1\n      pop\n        /* \"#utility.yul\":17797:17874   */\n    tag_403:\n        /* \"#utility.yul\":17900:17967   */\n      tag_404\n        /* \"#utility.yul\":17960:17966   */\n      dup6\n        /* \"#utility.yul\":17953:17958   */\n      dup3\n        /* \"#utility.yul\":17900:17967   */\n      tag_221\n      jump\t// in\n    tag_404:\n        /* \"#utility.yul\":17894:17898   */\n      dup7\n        /* \"#utility.yul\":17887:17968   */\n      sstore\n        /* \"#utility.yul\":17756:17978   */\n      pop\n        /* \"#utility.yul\":17091:17978   */\n      jump(tag_401)\n        /* \"#utility.yul\":17121:17739   */\n    tag_402:\n        /* \"#utility.yul\":17173:17177   */\n      0x1f\n        /* \"#utility.yul\":17169:17178   */\n      not\n        /* \"#utility.yul\":17161:17167   */\n      dup5\n        /* \"#utility.yul\":17157:17179   */\n      and\n        /* \"#utility.yul\":17207:17244   */\n      tag_405\n        /* \"#utility.yul\":17239:17243   */\n      dup7\n        /* \"#utility.yul\":17207:17244   */\n      tag_207\n      jump\t// in\n    tag_405:\n        /* \"#utility.yul\":17266:17267   */\n      0x00\n        /* \"#utility.yul\":17280:17488   */\n    tag_406:\n        /* \"#utility.yul\":17294:17301   */\n      dup3\n        /* \"#utility.yul\":17291:17292   */\n      dup2\n        /* \"#utility.yul\":17288:17302   */\n      lt\n        /* \"#utility.yul\":17280:17488   */\n      iszero\n      tag_408\n      jumpi\n        /* \"#utility.yul\":17373:17382   */\n      dup5\n        /* \"#utility.yul\":17368:17371   */\n      dup10\n        /* \"#utility.yul\":17364:17383   */\n      add\n        /* \"#utility.yul\":17358:17384   */\n      mload\n        /* \"#utility.yul\":17350:17356   */\n      dup3\n        /* \"#utility.yul\":17343:17385   */\n      sstore\n        /* \"#utility.yul\":17424:17425   */\n      0x01\n        /* \"#utility.yul\":17416:17422   */\n      dup3\n        /* \"#utility.yul\":17412:17426   */\n      add\n        /* \"#utility.yul\":17402:17426   */\n      swap2\n      pop\n        /* \"#utility.yul\":17471:17473   */\n      0x20\n        /* \"#utility.yul\":17460:17469   */\n      dup6\n        /* \"#utility.yul\":17456:17474   */\n      add\n        /* \"#utility.yul\":17443:17474   */\n      swap5\n      pop\n        /* \"#utility.yul\":17317:17321   */\n      0x20\n        /* \"#utility.yul\":17314:17315   */\n      dup2\n        /* \"#utility.yul\":17310:17322   */\n      add\n        /* \"#utility.yul\":17305:17322   */\n      swap1\n      pop\n        /* \"#utility.yul\":17280:17488   */\n      jump(tag_406)\n    tag_408:\n        /* \"#utility.yul\":17516:17522   */\n      dup7\n        /* \"#utility.yul\":17507:17514   */\n      dup4\n        /* \"#utility.yul\":17504:17523   */\n      lt\n        /* \"#utility.yul\":17501:17680   */\n      iszero\n      tag_409\n      jumpi\n        /* \"#utility.yul\":17574:17583   */\n      dup5\n        /* \"#utility.yul\":17569:17572   */\n      dup10\n        /* \"#utility.yul\":17565:17584   */\n      add\n        /* \"#utility.yul\":17559:17585   */\n      mload\n        /* \"#utility.yul\":17617:17665   */\n      tag_410\n        /* \"#utility.yul\":17659:17663   */\n      0x1f\n        /* \"#utility.yul\":17651:17657   */\n      dup10\n        /* \"#utility.yul\":17647:17664   */\n      and\n        /* \"#utility.yul\":17636:17645   */\n      dup3\n        /* \"#utility.yul\":17617:17665   */\n      tag_220\n      jump\t// in\n    tag_410:\n        /* \"#utility.yul\":17609:17615   */\n      dup4\n        /* \"#utility.yul\":17602:17666   */\n      sstore\n        /* \"#utility.yul\":17524:17680   */\n      pop\n        /* \"#utility.yul\":17501:17680   */\n    tag_409:\n        /* \"#utility.yul\":17726:17727   */\n      0x01\n        /* \"#utility.yul\":17722:17723   */\n      0x02\n        /* \"#utility.yul\":17714:17720   */\n      dup9\n        /* \"#utility.yul\":17710:17724   */\n      mul\n        /* \"#utility.yul\":17706:17728   */\n      add\n        /* \"#utility.yul\":17700:17704   */\n      dup9\n        /* \"#utility.yul\":17693:17729   */\n      sstore\n        /* \"#utility.yul\":17128:17739   */\n      pop\n      pop\n      pop\n        /* \"#utility.yul\":17091:17978   */\n    tag_401:\n      pop\n        /* \"#utility.yul\":16681:17984   */\n      pop\n      pop\n      pop\n        /* \"#utility.yul\":16589:17984   */\n      pop\n      pop\n      jump\t// out\n        /* \"#utility.yul\":17990:18108   */\n    tag_222:\n        /* \"#utility.yul\":18077:18101   */\n      tag_412\n        /* \"#utility.yul\":18095:18100   */\n      dup2\n        /* \"#utility.yul\":18077:18101   */\n      tag_185\n      jump\t// in\n    tag_412:\n        /* \"#utility.yul\":18072:18075   */\n      dup3\n        /* \"#utility.yul\":18065:18102   */\n      mstore\n        /* \"#utility.yul\":17990:18108   */\n      pop\n      pop\n      jump\t// out\n        /* \"#utility.yul\":18114:18336   */\n    tag_61:\n        /* \"#utility.yul\":18207:18211   */\n      0x00\n        /* \"#utility.yul\":18245:18247   */\n      0x20\n        /* \"#utility.yul\":18234:18243   */\n      dup3\n        /* \"#utility.yul\":18230:18248   */\n      add\n        /* \"#utility.yul\":18222:18248   */\n      swap1\n      pop\n        /* \"#utility.yul\":18258:18329   */\n      tag_414\n        /* \"#utility.yul\":18326:18327   */\n      0x00\n        /* \"#utility.yul\":18315:18324   */\n      dup4\n        /* \"#utility.yul\":18311:18328   */\n      add\n        /* \"#utility.yul\":18302:18308   */\n      dup5\n        /* \"#utility.yul\":18258:18329   */\n      tag_222\n      jump\t// in\n    tag_414:\n        /* \"#utility.yul\":18114:18336   */\n      swap3\n      swap2\n      pop\n      pop\n      jump\t// out\n        /* \"#utility.yul\":18342:18495   */\n    tag_223:\n        /* \"#utility.yul\":18482:18487   */\n      0x3430340000000000000000000000000000000000000000000000000000000000\n        /* \"#utility.yul\":18478:18479   */\n      0x00\n        /* \"#utility.yul\":18470:18476   */\n      dup3\n        /* \"#utility.yul\":18466:18480   */\n      add\n        /* \"#utility.yul\":18459:18488   */\n      mstore\n        /* \"#utility.yul\":18342:18495   */\n      pop\n      jump\t// out\n        /* \"#utility.yul\":18501:18866   */\n    tag_224:\n        /* \"#utility.yul\":18643:18646   */\n      0x00\n        /* \"#utility.yul\":18664:18730   */\n      tag_417\n        /* \"#utility.yul\":18728:18729   */\n      0x03\n        /* \"#utility.yul\":18723:18726   */\n      dup4\n        /* \"#utility.yul\":18664:18730   */\n      tag_203\n      jump\t// in\n    tag_417:\n        /* \"#utility.yul\":18657:18730   */\n      swap2\n      pop\n        /* \"#utility.yul\":18739:18832   */\n      tag_418\n        /* \"#utility.yul\":18828:18831   */\n      dup3\n        /* \"#utility.yul\":18739:18832   */\n      tag_223\n      jump\t// in\n    tag_418:\n        /* \"#utility.yul\":18857:18859   */\n      0x20\n        /* \"#utility.yul\":18852:18855   */\n      dup3\n        /* \"#utility.yul\":18848:18860   */\n      add\n        /* \"#utility.yul\":18841:18860   */\n      swap1\n      pop\n        /* \"#utility.yul\":18501:18866   */\n      swap2\n      swap1\n      pop\n      jump\t// out\n        /* \"#utility.yul\":18872:19291   */\n    tag_126:\n        /* \"#utility.yul\":19038:19042   */\n      0x00\n        /* \"#utility.yul\":19076:19078   */\n      0x20\n        /* \"#utility.yul\":19065:19074   */\n      dup3\n        /* \"#utility.yul\":19061:19079   */\n      add\n        /* \"#utility.yul\":19053:19079   */\n      swap1\n      pop\n        /* \"#utility.yul\":19125:19134   */\n      dup2\n        /* \"#utility.yul\":19119:19123   */\n      dup2\n        /* \"#utility.yul\":19115:19135   */\n      sub\n        /* \"#utility.yul\":19111:19112   */\n      0x00\n        /* \"#utility.yul\":19100:19109   */\n      dup4\n        /* \"#utility.yul\":19096:19113   */\n      add\n        /* \"#utility.yul\":19089:19136   */\n      mstore\n        /* \"#utility.yul\":19153:19284   */\n      tag_420\n        /* \"#utility.yul\":19279:19283   */\n      dup2\n        /* \"#utility.yul\":19153:19284   */\n      tag_224\n      jump\t// in\n    tag_420:\n        /* \"#utility.yul\":19145:19284   */\n      swap1\n      pop\n        /* \"#utility.yul\":18872:19291   */\n      swap2\n      swap1\n      pop\n      jump\t// out\n        /* \"#utility.yul\":19297:19477   */\n    tag_135:\n        /* \"#utility.yul\":19345:19422   */\n      0x4e487b7100000000000000000000000000000000000000000000000000000000\n        /* \"#utility.yul\":19342:19343   */\n      0x00\n        /* \"#utility.yul\":19335:19423   */\n      mstore\n        /* \"#utility.yul\":19442:19446   */\n      0x32\n        /* \"#utility.yul\":19439:19440   */\n      0x04\n        /* \"#utility.yul\":19432:19447   */\n      mstore\n        /* \"#utility.yul\":19466:19470   */\n      0x24\n        /* \"#utility.yul\":19463:19464   */\n      0x00\n        /* \"#utility.yul\":19456:19471   */\n      revert\n        /* \"#utility.yul\":19483:19663   */\n    tag_225:\n        /* \"#utility.yul\":19531:19608   */\n      0x4e487b7100000000000000000000000000000000000000000000000000000000\n        /* \"#utility.yul\":19528:19529   */\n      0x00\n        /* \"#utility.yul\":19521:19609   */\n      mstore\n        /* \"#utility.yul\":19628:19632   */\n      0x11\n        /* \"#utility.yul\":19625:19626   */\n      0x04\n        /* \"#utility.yul\":19618:19633   */\n      mstore\n        /* \"#utility.yul\":19652:19656   */\n      0x24\n        /* \"#utility.yul\":19649:19650   */\n      0x00\n        /* \"#utility.yul\":19642:19657   */\n      revert\n        /* \"#utility.yul\":19669:19863   */\n    tag_145:\n        /* \"#utility.yul\":19709:19713   */\n      0x00\n        /* \"#utility.yul\":19729:19749   */\n      tag_424\n        /* \"#utility.yul\":19747:19748   */\n      dup3\n        /* \"#utility.yul\":19729:19749   */\n      tag_185\n      jump\t// in\n    tag_424:\n        /* \"#utility.yul\":19724:19749   */\n      swap2\n      pop\n        /* \"#utility.yul\":19763:19783   */\n      tag_425\n        /* \"#utility.yul\":19781:19782   */\n      dup4\n        /* \"#utility.yul\":19763:19783   */\n      tag_185\n      jump\t// in\n    tag_425:\n        /* \"#utility.yul\":19758:19783   */\n      swap3\n      pop\n        /* \"#utility.yul\":19807:19808   */\n      dup3\n        /* \"#utility.yul\":19804:19805   */\n      dup3\n        /* \"#utility.yul\":19800:19809   */\n      sub\n        /* \"#utility.yul\":19792:19809   */\n      swap1\n      pop\n        /* \"#utility.yul\":19831:19832   */\n      dup2\n        /* \"#utility.yul\":19825:19829   */\n      dup2\n        /* \"#utility.yul\":19822:19833   */\n      gt\n        /* \"#utility.yul\":19819:19856   */\n      iszero\n      tag_426\n      jumpi\n        /* \"#utility.yul\":19836:19854   */\n      tag_427\n      tag_225\n      jump\t// in\n    tag_427:\n        /* \"#utility.yul\":19819:19856   */\n    tag_426:\n        /* \"#utility.yul\":19669:19863   */\n      swap3\n      swap2\n      pop\n      pop\n      jump\t// out\n        /* \"#utility.yul\":19869:20060   */\n    tag_147:\n        /* \"#utility.yul\":19909:19912   */\n      0x00\n        /* \"#utility.yul\":19928:19948   */\n      tag_429\n        /* \"#utility.yul\":19946:19947   */\n      dup3\n        /* \"#utility.yul\":19928:19948   */\n      tag_185\n      jump\t// in\n    tag_429:\n        /* \"#utility.yul\":19923:19948   */\n      swap2\n      pop\n        /* \"#utility.yul\":19962:19982   */\n      tag_430\n        /* \"#utility.yul\":19980:19981   */\n      dup4\n        /* \"#utility.yul\":19962:19982   */\n      tag_185\n      jump\t// in\n    tag_430:\n        /* \"#utility.yul\":19957:19982   */\n      swap3\n      pop\n        /* \"#utility.yul\":20005:20006   */\n      dup3\n        /* \"#utility.yul\":20002:20003   */\n      dup3\n        /* \"#utility.yul\":19998:20007   */\n      add\n        /* \"#utility.yul\":19991:20007   */\n      swap1\n      pop\n        /* \"#utility.yul\":20026:20029   */\n      dup1\n        /* \"#utility.yul\":20023:20024   */\n      dup3\n        /* \"#utility.yul\":20020:20030   */\n      gt\n        /* \"#utility.yul\":20017:20053   */\n      iszero\n      tag_431\n      jumpi\n        /* \"#utility.yul\":20033:20051   */\n      tag_432\n      tag_225\n      jump\t// in\n    tag_432:\n        /* \"#utility.yul\":20017:20053   */\n    tag_431:\n        /* \"#utility.yul\":19869:20060   */\n      swap3\n      swap2\n      pop\n      pop\n      jump\t// out\n        /* \"#utility.yul\":20066:20246   */\n    tag_156:\n        /* \"#utility.yul\":20114:20191   */\n      0x4e487b7100000000000000000000000000000000000000000000000000000000\n        /* \"#utility.yul\":20111:20112   */\n      0x00\n        /* \"#utility.yul\":20104:20192   */\n      mstore\n        /* \"#utility.yul\":20211:20215   */\n      0x31\n        /* \"#utility.yul\":20208:20209   */\n      0x04\n        /* \"#utility.yul\":20201:20216   */\n      mstore\n        /* \"#utility.yul\":20235:20239   */\n      0x24\n        /* \"#utility.yul\":20232:20233   */\n      0x00\n        /* \"#utility.yul\":20225:20240   */\n      revert\n\n    auxdata: 0xa2646970667358221220beb26d54e296f204d69d1e648544625fd40436e45bb7558614281d4870b09cc664736f6c634300081a0033\n}\n",
				"bytecode": {
					"linkReferences": {},
					"object": "608060405234801561000f575f80fd5b5060405161236238038061236283398181016040528101906100319190610319565b8360038383835f908161004491906105a6565b508260015f6101000a81548160ff0219169083600381111561006957610068610675565b5b0217905550816001806101000a81548173ffffffffffffffffffffffffffffffffffffffff021916908373ffffffffffffffffffffffffffffffffffffffff1602179055508060025f6101000a81548173ffffffffffffffffffffffffffffffffffffffff021916908373ffffffffffffffffffffffffffffffffffffffff160217905550505050508260045f6101000a81548173ffffffffffffffffffffffffffffffffffffffff021916908373ffffffffffffffffffffffffffffffffffffffff1602179055507f1449abf21e49fd025f33495e77f7b1461caefdd3d4bb646424a3f445c4576a5b3360405161016191906106b1565b60405180910390a1505050506106ca565b5f604051905090565b5f80fd5b5f80fd5b5f80fd5b5f80fd5b5f601f19601f8301169050919050565b7f4e487b71000000000000000000000000000000000000000000000000000000005f52604160045260245ffd5b6101d18261018b565b810181811067ffffffffffffffff821117156101f0576101ef61019b565b5b80604052505050565b5f610202610172565b905061020e82826101c8565b919050565b5f67ffffffffffffffff82111561022d5761022c61019b565b5b6102368261018b565b9050602081019050919050565b8281835e5f83830152505050565b5f61026361025e84610213565b6101f9565b90508281526020810184848401111561027f5761027e610187565b5b61028a848285610243565b509392505050565b5f82601f8301126102a6576102a5610183565b5b81516102b6848260208601610251565b91505092915050565b5f73ffffffffffffffffffffffffffffffffffffffff82169050919050565b5f6102e8826102bf565b9050919050565b6102f8816102de565b8114610302575f80fd5b50565b5f81519050610313816102ef565b92915050565b5f805f80608085870312156103315761033061017b565b5b5f85015167ffffffffffffffff81111561034e5761034d61017f565b5b61035a87828801610292565b945050602061036b87828801610305565b935050604061037c87828801610305565b925050606061038d87828801610305565b91505092959194509250565b5f81519050919050565b7f4e487b71000000000000000000000000000000000000000000000000000000005f52602260045260245ffd5b5f60028204905060018216806103e757607f821691505b6020821081036103fa576103f96103a3565b5b50919050565b5f819050815f5260205f209050919050565b5f6020601f8301049050919050565b5f82821b905092915050565b5f6008830261045c7fffffffffffffffffffffffffffffffffffffffffffffffffffffffffffffffff82610421565b6104668683610421565b95508019841693508086168417925050509392505050565b5f819050919050565b5f819050919050565b5f6104aa6104a56104a08461047e565b610487565b61047e565b9050919050565b5f819050919050565b6104c383610490565b6104d76104cf826104b1565b84845461042d565b825550505050565b5f90565b6104eb6104df565b6104f68184846104ba565b505050565b5b818110156105195761050e5f826104e3565b6001810190506104fc565b5050565b601f82111561055e5761052f81610400565b61053884610412565b81016020851015610547578190505b61055b61055385610412565b8301826104fb565b50505b505050565b5f82821c905092915050565b5f61057e5f1984600802610563565b1980831691505092915050565b5f610596838361056f565b9150826002028217905092915050565b6105af82610399565b67ffffffffffffffff8111156105c8576105c761019b565b5b6105d282546103d0565b6105dd82828561051d565b5f60209050601f83116001811461060e575f84156105fc578287015190505b610606858261058b565b86555061066d565b601f19841661061c86610400565b5f5b828110156106435784890151825560018201915060208501945060208101905061061e565b86831015610660578489015161065c601f89168261056f565b8355505b6001600288020188555050505b505050505050565b7f4e487b71000000000000000000000000000000000000000000000000000000005f52602160045260245ffd5b6106ab816102de565b82525050565b5f6020820190506106c45f8301846106a2565b92915050565b611c8b806106d75f395ff3fe608060405234801561000f575f80fd5b506004361061009c575f3560e01c806380f760211161006457806380f7602114610132578063a95264d014610150578063b9daf3e21461016e578063c47f00271461018c578063ded92dac146101a85761009c565b806326c7b327146100a0578063469c8110146100be5780634ba83374146100da5780635da6ef8d146100f85780635ff6cbf314610114575b5f80fd5b6100a86101c4565b6040516100b59190611293565b60405180910390f35b6100d860048036038101906100d391906113f9565b6101d6565b005b6100e26103cb565b6040516100ef919061145a565b60405180910390f35b610112600480360381019061010d91906114cd565b610481565b005b61011c610747565b6040516101299190611687565b60405180910390f35b61013a610976565b60405161014791906116b6565b60405180910390f35b610158610a83565b6040516101659190611777565b60405180910390f35b610176610bf3565b604051610183919061145a565b60405180910390f35b6101a660048036038101906101a191906113f9565b610c9f565b005b6101c260048036038101906101bd91906114cd565b610dcd565b005b60015f9054906101000a900460ff1681565b60018054906101000a900473ffffffffffffffffffffffffffffffffffffffff1673ffffffffffffffffffffffffffffffffffffffff163373ffffffffffffffffffffffffffffffffffffffff16148061027c575060045f9054906101000a900473ffffffffffffffffffffffffffffffffffffffff1673ffffffffffffffffffffffffffffffffffffffff163373ffffffffffffffffffffffffffffffffffffffff16145b6102bb576040517f08c379a00000000000000000000000000000000000000000000000000000000081526004016102b2906117f1565b60405180910390fd5b600560405180606001604052804281526020018381526020013373ffffffffffffffffffffffffffffffffffffffff16815250908060018154018082558091505060019003905f5260205f2090600302015f909190919091505f820151815f015560208201518160010190816103319190611a09565b506040820151816002015f6101000a81548173ffffffffffffffffffffffffffffffffffffffff021916908373ffffffffffffffffffffffffffffffffffffffff16021790555050503373ffffffffffffffffffffffffffffffffffffffff167f0951e0ca7381a5c665ef8d64c982968ea7b66aaf3d6c667a004bc9926d2959b0426040516103c09190611ae7565b60405180910390a250565b5f7fffffffffffffffffffffffffffffffffffffffffffffffffffffffffffffffff61047a33600380548060200260200160405190810160405280929190818152602001828054801561047057602002820191905f5260205f20905b815f9054906101000a900473ffffffffffffffffffffffffffffffffffffffff1673ffffffffffffffffffffffffffffffffffffffff1681526020019060010190808311610427575b5050505050611020565b1415905090565b60018054906101000a900473ffffffffffffffffffffffffffffffffffffffff1673ffffffffffffffffffffffffffffffffffffffff163373ffffffffffffffffffffffffffffffffffffffff161480610527575060025f9054906101000a900473ffffffffffffffffffffffffffffffffffffffff1673ffffffffffffffffffffffffffffffffffffffff163373ffffffffffffffffffffffffffffffffffffffff16145b610566576040517f08c379a000000000000000000000000000000000000000000000000000000000815260040161055d906117f1565b60405180910390fd5b60018054906101000a900473ffffffffffffffffffffffffffffffffffffffff1673ffffffffffffffffffffffffffffffffffffffff168173ffffffffffffffffffffffffffffffffffffffff16141580156105ee57505f73ffffffffffffffffffffffffffffffffffffffff168173ffffffffffffffffffffffffffffffffffffffff1614155b80156106a557507fffffffffffffffffffffffffffffffffffffffffffffffffffffffffffffffff6106a382600380548060200260200160405190810160405280929190818152602001828054801561069957602002820191905f5260205f20905b815f9054906101000a900473ffffffffffffffffffffffffffffffffffffffff1673ffffffffffffffffffffffffffffffffffffffff1681526020019060010190808311610650575b5050505050611020565b145b6106e4576040517f08c379a00000000000000000000000000000000000000000000000000000000081526004016106db906117f1565b60405180910390fd5b600381908060018154018082558091505060019003905f5260205f20015f9091909190916101000a81548173ffffffffffffffffffffffffffffffffffffffff021916908373ffffffffffffffffffffffffffffffffffffffff16021790555050565b606060018054906101000a900473ffffffffffffffffffffffffffffffffffffffff1673ffffffffffffffffffffffffffffffffffffffff163373ffffffffffffffffffffffffffffffffffffffff1614806107ef575060045f9054906101000a900473ffffffffffffffffffffffffffffffffffffffff1673ffffffffffffffffffffffffffffffffffffffff163373ffffffffffffffffffffffffffffffffffffffff16145b61082e576040517f08c379a0000000000000000000000000000000000000000000000000000000008152600401610825906117f1565b60405180910390fd5b6005805480602002602001604051908101604052809291908181526020015f905b8282101561096d578382905f5260205f2090600302016040518060600160405290815f82015481526020016001820180546108899061183c565b80601f01602080910402602001604051908101604052809291908181526020018280546108b59061183c565b80156109005780601f106108d757610100808354040283529160200191610900565b820191905f5260205f20905b8154815290600101906020018083116108e357829003601f168201915b50505050508152602001600282015f9054906101000a900473ffffffffffffffffffffffffffffffffffffffff1673ffffffffffffffffffffffffffffffffffffffff1673ffffffffffffffffffffffffffffffffffffffff16815250508152602001906001019061084f565b50505050905090565b5f60018054906101000a900473ffffffffffffffffffffffffffffffffffffffff1673ffffffffffffffffffffffffffffffffffffffff163373ffffffffffffffffffffffffffffffffffffffff161480610a1d575060025f9054906101000a900473ffffffffffffffffffffffffffffffffffffffff1673ffffffffffffffffffffffffffffffffffffffff163373ffffffffffffffffffffffffffffffffffffffff16145b610a5c576040517f08c379a0000000000000000000000000000000000000000000000000000000008152600401610a53906117f1565b60405180910390fd5b60025f9054906101000a900473ffffffffffffffffffffffffffffffffffffffff16905090565b606060018054906101000a900473ffffffffffffffffffffffffffffffffffffffff1673ffffffffffffffffffffffffffffffffffffffff163373ffffffffffffffffffffffffffffffffffffffff161480610b2b575060025f9054906101000a900473ffffffffffffffffffffffffffffffffffffffff1673ffffffffffffffffffffffffffffffffffffffff163373ffffffffffffffffffffffffffffffffffffffff16145b610b6a576040517f08c379a0000000000000000000000000000000000000000000000000000000008152600401610b61906117f1565b60405180910390fd5b6003805480602002602001604051908101604052809291908181526020018280548015610be957602002820191905f5260205f20905b815f9054906101000a900473ffffffffffffffffffffffffffffffffffffffff1673ffffffffffffffffffffffffffffffffffffffff1681526020019060010190808311610ba0575b5050505050905090565b5f60018054906101000a900473ffffffffffffffffffffffffffffffffffffffff1673ffffffffffffffffffffffffffffffffffffffff163373ffffffffffffffffffffffffffffffffffffffff161480610c9a575060025f9054906101000a900473ffffffffffffffffffffffffffffffffffffffff1673ffffffffffffffffffffffffffffffffffffffff163373ffffffffffffffffffffffffffffffffffffffff16145b905090565b60018054906101000a900473ffffffffffffffffffffffffffffffffffffffff1673ffffffffffffffffffffffffffffffffffffffff163373ffffffffffffffffffffffffffffffffffffffff161480610d45575060025f9054906101000a900473ffffffffffffffffffffffffffffffffffffffff1673ffffffffffffffffffffffffffffffffffffffff163373ffffffffffffffffffffffffffffffffffffffff16145b610d84576040517f08c379a0000000000000000000000000000000000000000000000000000000008152600401610d7b906117f1565b60405180910390fd5b805f9081610d929190611a09565b507fe00da2178806f37f69815e9ed5ed3072ec1d55206d60916d99b469c7daa421e433604051610dc291906116b6565b60405180910390a150565b5f73ffffffffffffffffffffffffffffffffffffffff168173ffffffffffffffffffffffffffffffffffffffff16141580610ee0575060025f9054906101000a900473ffffffffffffffffffffffffffffffffffffffff1673ffffffffffffffffffffffffffffffffffffffff163373ffffffffffffffffffffffffffffffffffffffff161480610ea9575060018054906101000a900473ffffffffffffffffffffffffffffffffffffffff1673ffffffffffffffffffffffffffffffffffffffff163373ffffffffffffffffffffffffffffffffffffffff16145b80610edf57508073ffffffffffffffffffffffffffffffffffffffff163373ffffffffffffffffffffffffffffffffffffffff16145b5b610f1f576040517f08c379a0000000000000000000000000000000000000000000000000000000008152600401610f16906117f1565b60405180910390fd5b5f610fad826003805480602002602001604051908101604052809291908181526020018280548015610fa357602002820191905f5260205f20905b815f9054906101000a900473ffffffffffffffffffffffffffffffffffffffff1673ffffffffffffffffffffffffffffffffffffffff1681526020019060010190808311610f5a575b5050505050611020565b90507fffffffffffffffffffffffffffffffffffffffffffffffffffffffffffffffff8113611011576040517f08c379a000000000000000000000000000000000000000000000000000000000815260040161100890611b4a565b60405180910390fd5b61101c8160036110bd565b5050565b5f805f90505b8251811015611092578373ffffffffffffffffffffffffffffffffffffffff1683828151811061105957611058611b68565b5b602002602001015173ffffffffffffffffffffffffffffffffffffffff160361108557809150506110b7565b8080600101915050611026565b507fffffffffffffffffffffffffffffffffffffffffffffffffffffffffffffffff90505b92915050565b5f82121580156110d05750808054905082105b61110f576040517f08c379a000000000000000000000000000000000000000000000000000000000815260040161110690611b4a565b60405180910390fd5b5f8290505b600182805490506111259190611bc2565b8110156111d8578160018261113a9190611bf5565b8154811061114b5761114a611b68565b5b905f5260205f20015f9054906101000a900473ffffffffffffffffffffffffffffffffffffffff1682828154811061118657611185611b68565b5b905f5260205f20015f6101000a81548173ffffffffffffffffffffffffffffffffffffffff021916908373ffffffffffffffffffffffffffffffffffffffff1602179055508080600101915050611114565b50808054806111ea576111e9611c28565b5b600190038181905f5260205f20015f6101000a81549073ffffffffffffffffffffffffffffffffffffffff021916905590555050565b7f4e487b71000000000000000000000000000000000000000000000000000000005f52602160045260245ffd5b6004811061125e5761125d611220565b5b50565b5f81905061126e8261124d565b919050565b5f61127d82611261565b9050919050565b61128d81611273565b82525050565b5f6020820190506112a65f830184611284565b92915050565b5f604051905090565b5f80fd5b5f80fd5b5f80fd5b5f80fd5b5f601f19601f8301169050919050565b7f4e487b71000000000000000000000000000000000000000000000000000000005f52604160045260245ffd5b61130b826112c5565b810181811067ffffffffffffffff8211171561132a576113296112d5565b5b80604052505050565b5f61133c6112ac565b90506113488282611302565b919050565b5f67ffffffffffffffff821115611367576113666112d5565b5b611370826112c5565b9050602081019050919050565b828183375f83830152505050565b5f61139d6113988461134d565b611333565b9050828152602081018484840111156113b9576113b86112c1565b5b6113c484828561137d565b509392505050565b5f82601f8301126113e0576113df6112bd565b5b81356113f084826020860161138b565b91505092915050565b5f6020828403121561140e5761140d6112b5565b5b5f82013567ffffffffffffffff81111561142b5761142a6112b9565b5b611437848285016113cc565b91505092915050565b5f8115159050919050565b61145481611440565b82525050565b5f60208201905061146d5f83018461144b565b92915050565b5f73ffffffffffffffffffffffffffffffffffffffff82169050919050565b5f61149c82611473565b9050919050565b6114ac81611492565b81146114b6575f80fd5b50565b5f813590506114c7816114a3565b92915050565b5f602082840312156114e2576114e16112b5565b5b5f6114ef848285016114b9565b91505092915050565b5f81519050919050565b5f82825260208201905092915050565b5f819050602082019050919050565b5f819050919050565b61153381611521565b82525050565b5f81519050919050565b5f82825260208201905092915050565b8281835e5f83830152505050565b5f61156b82611539565b6115758185611543565b9350611585818560208601611553565b61158e816112c5565b840191505092915050565b6115a281611492565b82525050565b5f606083015f8301516115bd5f86018261152a565b50602083015184820360208601526115d58282611561565b91505060408301516115ea6040860182611599565b508091505092915050565b5f61160083836115a8565b905092915050565b5f602082019050919050565b5f61161e826114f8565b6116288185611502565b93508360208202850161163a85611512565b805f5b85811015611675578484038952815161165685826115f5565b945061166183611608565b925060208a0199505060018101905061163d565b50829750879550505050505092915050565b5f6020820190508181035f83015261169f8184611614565b905092915050565b6116b081611492565b82525050565b5f6020820190506116c95f8301846116a7565b92915050565b5f81519050919050565b5f82825260208201905092915050565b5f819050602082019050919050565b5f6117038383611599565b60208301905092915050565b5f602082019050919050565b5f611725826116cf565b61172f81856116d9565b935061173a836116e9565b805f5b8381101561176a57815161175188826116f8565b975061175c8361170f565b92505060018101905061173d565b5085935050505092915050565b5f6020820190508181035f83015261178f818461171b565b905092915050565b5f82825260208201905092915050565b7f34303300000000000000000000000000000000000000000000000000000000005f82015250565b5f6117db600383611797565b91506117e6826117a7565b602082019050919050565b5f6020820190508181035f830152611808816117cf565b9050919050565b7f4e487b71000000000000000000000000000000000000000000000000000000005f52602260045260245ffd5b5f600282049050600182168061185357607f821691505b6020821081036118665761186561180f565b5b50919050565b5f819050815f5260205f209050919050565b5f6020601f8301049050919050565b5f82821b905092915050565b5f600883026118c87fffffffffffffffffffffffffffffffffffffffffffffffffffffffffffffffff8261188d565b6118d2868361188d565b95508019841693508086168417925050509392505050565b5f819050919050565b5f61190d61190861190384611521565b6118ea565b611521565b9050919050565b5f819050919050565b611926836118f3565b61193a61193282611914565b848454611899565b825550505050565b5f90565b61194e611942565b61195981848461191d565b505050565b5b8181101561197c576119715f82611946565b60018101905061195f565b5050565b601f8211156119c1576119928161186c565b61199b8461187e565b810160208510156119aa578190505b6119be6119b68561187e565b83018261195e565b50505b505050565b5f82821c905092915050565b5f6119e15f19846008026119c6565b1980831691505092915050565b5f6119f983836119d2565b9150826002028217905092915050565b611a1282611539565b67ffffffffffffffff811115611a2b57611a2a6112d5565b5b611a35825461183c565b611a40828285611980565b5f60209050601f831160018114611a71575f8415611a5f578287015190505b611a6985826119ee565b865550611ad0565b601f198416611a7f8661186c565b5f5b82811015611aa657848901518255600182019150602085019450602081019050611a81565b86831015611ac35784890151611abf601f8916826119d2565b8355505b6001600288020188555050505b505050505050565b611ae181611521565b82525050565b5f602082019050611afa5f830184611ad8565b92915050565b7f34303400000000000000000000000000000000000000000000000000000000005f82015250565b5f611b34600383611797565b9150611b3f82611b00565b602082019050919050565b5f6020820190508181035f830152611b6181611b28565b9050919050565b7f4e487b71000000000000000000000000000000000000000000000000000000005f52603260045260245ffd5b7f4e487b71000000000000000000000000000000000000000000000000000000005f52601160045260245ffd5b5f611bcc82611521565b9150611bd783611521565b9250828203905081811115611bef57611bee611b95565b5b92915050565b5f611bff82611521565b9150611c0a83611521565b9250828201905080821115611c2257611c21611b95565b5b92915050565b7f4e487b71000000000000000000000000000000000000000000000000000000005f52603160045260245ffdfea2646970667358221220beb26d54e296f204d69d1e648544625fd40436e45bb7558614281d4870b09cc664736f6c634300081a0033",
					"opcodes": "PUSH1 0x80 PUSH1 0x40 MSTORE CALLVALUE DUP1 ISZERO PUSH2 0xF JUMPI PUSH0 DUP1 REVERT JUMPDEST POP PUSH1 0x40 MLOAD PUSH2 0x2362 CODESIZE SUB DUP1 PUSH2 0x2362 DUP4 CODECOPY DUP2 DUP2 ADD PUSH1 0x40 MSTORE DUP2 ADD SWAP1 PUSH2 0x31 SWAP2 SWAP1 PUSH2 0x319 JUMP JUMPDEST DUP4 PUSH1 0x3 DUP4 DUP4 DUP4 PUSH0 SWAP1 DUP2 PUSH2 0x44 SWAP2 SWAP1 PUSH2 0x5A6 JUMP JUMPDEST POP DUP3 PUSH1 0x1 PUSH0 PUSH2 0x100 EXP DUP2 SLOAD DUP2 PUSH1 0xFF MUL NOT AND SWAP1 DUP4 PUSH1 0x3 DUP2 GT ISZERO PUSH2 0x69 JUMPI PUSH2 0x68 PUSH2 0x675 JUMP JUMPDEST JUMPDEST MUL OR SWAP1 SSTORE POP DUP2 PUSH1 0x1 DUP1 PUSH2 0x100 EXP DUP2 SLOAD DUP2 PUSH20 0xFFFFFFFFFFFFFFFFFFFFFFFFFFFFFFFFFFFFFFFF MUL NOT AND SWAP1 DUP4 PUSH20 0xFFFFFFFFFFFFFFFFFFFFFFFFFFFFFFFFFFFFFFFF AND MUL OR SWAP1 SSTORE POP DUP1 PUSH1 0x2 PUSH0 PUSH2 0x100 EXP DUP2 SLOAD DUP2 PUSH20 0xFFFFFFFFFFFFFFFFFFFFFFFFFFFFFFFFFFFFFFFF MUL NOT AND SWAP1 DUP4 PUSH20 0xFFFFFFFFFFFFFFFFFFFFFFFFFFFFFFFFFFFFFFFF AND MUL OR SWAP1 SSTORE POP POP POP POP POP DUP3 PUSH1 0x4 PUSH0 PUSH2 0x100 EXP DUP2 SLOAD DUP2 PUSH20 0xFFFFFFFFFFFFFFFFFFFFFFFFFFFFFFFFFFFFFFFF MUL NOT AND SWAP1 DUP4 PUSH20 0xFFFFFFFFFFFFFFFFFFFFFFFFFFFFFFFFFFFFFFFF AND MUL OR SWAP1 SSTORE POP PUSH32 0x1449ABF21E49FD025F33495E77F7B1461CAEFDD3D4BB646424A3F445C4576A5B CALLER PUSH1 0x40 MLOAD PUSH2 0x161 SWAP2 SWAP1 PUSH2 0x6B1 JUMP JUMPDEST PUSH1 0x40 MLOAD DUP1 SWAP2 SUB SWAP1 LOG1 POP POP POP POP PUSH2 0x6CA JUMP JUMPDEST PUSH0 PUSH1 0x40 MLOAD SWAP1 POP SWAP1 JUMP JUMPDEST PUSH0 DUP1 REVERT JUMPDEST PUSH0 DUP1 REVERT JUMPDEST PUSH0 DUP1 REVERT JUMPDEST PUSH0 DUP1 REVERT JUMPDEST PUSH0 PUSH1 0x1F NOT PUSH1 0x1F DUP4 ADD AND SWAP1 POP SWAP2 SWAP1 POP JUMP JUMPDEST PUSH32 0x4E487B7100000000000000000000000000000000000000000000000000000000 PUSH0 MSTORE PUSH1 0x41 PUSH1 0x4 MSTORE PUSH1 0x24 PUSH0 REVERT JUMPDEST PUSH2 0x1D1 DUP3 PUSH2 0x18B JUMP JUMPDEST DUP2 ADD DUP2 DUP2 LT PUSH8 0xFFFFFFFFFFFFFFFF DUP3 GT OR ISZERO PUSH2 0x1F0 JUMPI PUSH2 0x1EF PUSH2 0x19B JUMP JUMPDEST JUMPDEST DUP1 PUSH1 0x40 MSTORE POP POP POP JUMP JUMPDEST PUSH0 PUSH2 0x202 PUSH2 0x172 JUMP JUMPDEST SWAP1 POP PUSH2 0x20E DUP3 DUP3 PUSH2 0x1C8 JUMP JUMPDEST SWAP2 SWAP1 POP JUMP JUMPDEST PUSH0 PUSH8 0xFFFFFFFFFFFFFFFF DUP3 GT ISZERO PUSH2 0x22D JUMPI PUSH2 0x22C PUSH2 0x19B JUMP JUMPDEST JUMPDEST PUSH2 0x236 DUP3 PUSH2 0x18B JUMP JUMPDEST SWAP1 POP PUSH1 0x20 DUP2 ADD SWAP1 POP SWAP2 SWAP1 POP JUMP JUMPDEST DUP3 DUP2 DUP4 MCOPY PUSH0 DUP4 DUP4 ADD MSTORE POP POP POP JUMP JUMPDEST PUSH0 PUSH2 0x263 PUSH2 0x25E DUP5 PUSH2 0x213 JUMP JUMPDEST PUSH2 0x1F9 JUMP JUMPDEST SWAP1 POP DUP3 DUP2 MSTORE PUSH1 0x20 DUP2 ADD DUP5 DUP5 DUP5 ADD GT ISZERO PUSH2 0x27F JUMPI PUSH2 0x27E PUSH2 0x187 JUMP JUMPDEST JUMPDEST PUSH2 0x28A DUP5 DUP3 DUP6 PUSH2 0x243 JUMP JUMPDEST POP SWAP4 SWAP3 POP POP POP JUMP JUMPDEST PUSH0 DUP3 PUSH1 0x1F DUP4 ADD SLT PUSH2 0x2A6 JUMPI PUSH2 0x2A5 PUSH2 0x183 JUMP JUMPDEST JUMPDEST DUP2 MLOAD PUSH2 0x2B6 DUP5 DUP3 PUSH1 0x20 DUP7 ADD PUSH2 0x251 JUMP JUMPDEST SWAP2 POP POP SWAP3 SWAP2 POP POP JUMP JUMPDEST PUSH0 PUSH20 0xFFFFFFFFFFFFFFFFFFFFFFFFFFFFFFFFFFFFFFFF DUP3 AND SWAP1 POP SWAP2 SWAP1 POP JUMP JUMPDEST PUSH0 PUSH2 0x2E8 DUP3 PUSH2 0x2BF JUMP JUMPDEST SWAP1 POP SWAP2 SWAP1 POP JUMP JUMPDEST PUSH2 0x2F8 DUP2 PUSH2 0x2DE JUMP JUMPDEST DUP2 EQ PUSH2 0x302 JUMPI PUSH0 DUP1 REVERT JUMPDEST POP JUMP JUMPDEST PUSH0 DUP2 MLOAD SWAP1 POP PUSH2 0x313 DUP2 PUSH2 0x2EF JUMP JUMPDEST SWAP3 SWAP2 POP POP JUMP JUMPDEST PUSH0 DUP1 PUSH0 DUP1 PUSH1 0x80 DUP6 DUP8 SUB SLT ISZERO PUSH2 0x331 JUMPI PUSH2 0x330 PUSH2 0x17B JUMP JUMPDEST JUMPDEST PUSH0 DUP6 ADD MLOAD PUSH8 0xFFFFFFFFFFFFFFFF DUP2 GT ISZERO PUSH2 0x34E JUMPI PUSH2 0x34D PUSH2 0x17F JUMP JUMPDEST JUMPDEST PUSH2 0x35A DUP8 DUP3 DUP9 ADD PUSH2 0x292 JUMP JUMPDEST SWAP5 POP POP PUSH1 0x20 PUSH2 0x36B DUP8 DUP3 DUP9 ADD PUSH2 0x305 JUMP JUMPDEST SWAP4 POP POP PUSH1 0x40 PUSH2 0x37C DUP8 DUP3 DUP9 ADD PUSH2 0x305 JUMP JUMPDEST SWAP3 POP POP PUSH1 0x60 PUSH2 0x38D DUP8 DUP3 DUP9 ADD PUSH2 0x305 JUMP JUMPDEST SWAP2 POP POP SWAP3 SWAP6 SWAP2 SWAP5 POP SWAP3 POP JUMP JUMPDEST PUSH0 DUP2 MLOAD SWAP1 POP SWAP2 SWAP1 POP JUMP JUMPDEST PUSH32 0x4E487B7100000000000000000000000000000000000000000000000000000000 PUSH0 MSTORE PUSH1 0x22 PUSH1 0x4 MSTORE PUSH1 0x24 PUSH0 REVERT JUMPDEST PUSH0 PUSH1 0x2 DUP3 DIV SWAP1 POP PUSH1 0x1 DUP3 AND DUP1 PUSH2 0x3E7 JUMPI PUSH1 0x7F DUP3 AND SWAP2 POP JUMPDEST PUSH1 0x20 DUP3 LT DUP2 SUB PUSH2 0x3FA JUMPI PUSH2 0x3F9 PUSH2 0x3A3 JUMP JUMPDEST JUMPDEST POP SWAP2 SWAP1 POP JUMP JUMPDEST PUSH0 DUP2 SWAP1 POP DUP2 PUSH0 MSTORE PUSH1 0x20 PUSH0 KECCAK256 SWAP1 POP SWAP2 SWAP1 POP JUMP JUMPDEST PUSH0 PUSH1 0x20 PUSH1 0x1F DUP4 ADD DIV SWAP1 POP SWAP2 SWAP1 POP JUMP JUMPDEST PUSH0 DUP3 DUP3 SHL SWAP1 POP SWAP3 SWAP2 POP POP JUMP JUMPDEST PUSH0 PUSH1 0x8 DUP4 MUL PUSH2 0x45C PUSH32 0xFFFFFFFFFFFFFFFFFFFFFFFFFFFFFFFFFFFFFFFFFFFFFFFFFFFFFFFFFFFFFFFF DUP3 PUSH2 0x421 JUMP JUMPDEST PUSH2 0x466 DUP7 DUP4 PUSH2 0x421 JUMP JUMPDEST SWAP6 POP DUP1 NOT DUP5 AND SWAP4 POP DUP1 DUP7 AND DUP5 OR SWAP3 POP POP POP SWAP4 SWAP3 POP POP POP JUMP JUMPDEST PUSH0 DUP2 SWAP1 POP SWAP2 SWAP1 POP JUMP JUMPDEST PUSH0 DUP2 SWAP1 POP SWAP2 SWAP1 POP JUMP JUMPDEST PUSH0 PUSH2 0x4AA PUSH2 0x4A5 PUSH2 0x4A0 DUP5 PUSH2 0x47E JUMP JUMPDEST PUSH2 0x487 JUMP JUMPDEST PUSH2 0x47E JUMP JUMPDEST SWAP1 POP SWAP2 SWAP1 POP JUMP JUMPDEST PUSH0 DUP2 SWAP1 POP SWAP2 SWAP1 POP JUMP JUMPDEST PUSH2 0x4C3 DUP4 PUSH2 0x490 JUMP JUMPDEST PUSH2 0x4D7 PUSH2 0x4CF DUP3 PUSH2 0x4B1 JUMP JUMPDEST DUP5 DUP5 SLOAD PUSH2 0x42D JUMP JUMPDEST DUP3 SSTORE POP POP POP POP JUMP JUMPDEST PUSH0 SWAP1 JUMP JUMPDEST PUSH2 0x4EB PUSH2 0x4DF JUMP JUMPDEST PUSH2 0x4F6 DUP2 DUP5 DUP5 PUSH2 0x4BA JUMP JUMPDEST POP POP POP JUMP JUMPDEST JUMPDEST DUP2 DUP2 LT ISZERO PUSH2 0x519 JUMPI PUSH2 0x50E PUSH0 DUP3 PUSH2 0x4E3 JUMP JUMPDEST PUSH1 0x1 DUP2 ADD SWAP1 POP PUSH2 0x4FC JUMP JUMPDEST POP POP JUMP JUMPDEST PUSH1 0x1F DUP3 GT ISZERO PUSH2 0x55E JUMPI PUSH2 0x52F DUP2 PUSH2 0x400 JUMP JUMPDEST PUSH2 0x538 DUP5 PUSH2 0x412 JUMP JUMPDEST DUP2 ADD PUSH1 0x20 DUP6 LT ISZERO PUSH2 0x547 JUMPI DUP2 SWAP1 POP JUMPDEST PUSH2 0x55B PUSH2 0x553 DUP6 PUSH2 0x412 JUMP JUMPDEST DUP4 ADD DUP3 PUSH2 0x4FB JUMP JUMPDEST POP POP JUMPDEST POP POP POP JUMP JUMPDEST PUSH0 DUP3 DUP3 SHR SWAP1 POP SWAP3 SWAP2 POP POP JUMP JUMPDEST PUSH0 PUSH2 0x57E PUSH0 NOT DUP5 PUSH1 0x8 MUL PUSH2 0x563 JUMP JUMPDEST NOT DUP1 DUP4 AND SWAP2 POP POP SWAP3 SWAP2 POP POP JUMP JUMPDEST PUSH0 PUSH2 0x596 DUP4 DUP4 PUSH2 0x56F JUMP JUMPDEST SWAP2 POP DUP3 PUSH1 0x2 MUL DUP3 OR SWAP1 POP SWAP3 SWAP2 POP POP JUMP JUMPDEST PUSH2 0x5AF DUP3 PUSH2 0x399 JUMP JUMPDEST PUSH8 0xFFFFFFFFFFFFFFFF DUP2 GT ISZERO PUSH2 0x5C8 JUMPI PUSH2 0x5C7 PUSH2 0x19B JUMP JUMPDEST JUMPDEST PUSH2 0x5D2 DUP3 SLOAD PUSH2 0x3D0 JUMP JUMPDEST PUSH2 0x5DD DUP3 DUP3 DUP6 PUSH2 0x51D JUMP JUMPDEST PUSH0 PUSH1 0x20 SWAP1 POP PUSH1 0x1F DUP4 GT PUSH1 0x1 DUP2 EQ PUSH2 0x60E JUMPI PUSH0 DUP5 ISZERO PUSH2 0x5FC JUMPI DUP3 DUP8 ADD MLOAD SWAP1 POP JUMPDEST PUSH2 0x606 DUP6 DUP3 PUSH2 0x58B JUMP JUMPDEST DUP7 SSTORE POP PUSH2 0x66D JUMP JUMPDEST PUSH1 0x1F NOT DUP5 AND PUSH2 0x61C DUP7 PUSH2 0x400 JUMP JUMPDEST PUSH0 JUMPDEST DUP3 DUP2 LT ISZERO PUSH2 0x643 JUMPI DUP5 DUP10 ADD MLOAD DUP3 SSTORE PUSH1 0x1 DUP3 ADD SWAP2 POP PUSH1 0x20 DUP6 ADD SWAP5 POP PUSH1 0x20 DUP2 ADD SWAP1 POP PUSH2 0x61E JUMP JUMPDEST DUP7 DUP4 LT ISZERO PUSH2 0x660 JUMPI DUP5 DUP10 ADD MLOAD PUSH2 0x65C PUSH1 0x1F DUP10 AND DUP3 PUSH2 0x56F JUMP JUMPDEST DUP4 SSTORE POP JUMPDEST PUSH1 0x1 PUSH1 0x2 DUP9 MUL ADD DUP9 SSTORE POP POP POP JUMPDEST POP POP POP POP POP POP JUMP JUMPDEST PUSH32 0x4E487B7100000000000000000000000000000000000000000000000000000000 PUSH0 MSTORE PUSH1 0x21 PUSH1 0x4 MSTORE PUSH1 0x24 PUSH0 REVERT JUMPDEST PUSH2 0x6AB DUP2 PUSH2 0x2DE JUMP JUMPDEST DUP3 MSTORE POP POP JUMP JUMPDEST PUSH0 PUSH1 0x20 DUP3 ADD SWAP1 POP PUSH2 0x6C4 PUSH0 DUP4 ADD DUP5 PUSH2 0x6A2 JUMP JUMPDEST SWAP3 SWAP2 POP POP JUMP JUMPDEST PUSH2 0x1C8B DUP1 PUSH2 0x6D7 PUSH0 CODECOPY PUSH0 RETURN INVALID PUSH1 0x80 PUSH1 0x40 MSTORE CALLVALUE DUP1 ISZERO PUSH2 0xF JUMPI PUSH0 DUP1 REVERT JUMPDEST POP PUSH1 0x4 CALLDATASIZE LT PUSH2 0x9C JUMPI PUSH0 CALLDATALOAD PUSH1 0xE0 SHR DUP1 PUSH4 0x80F76021 GT PUSH2 0x64 JUMPI DUP1 PUSH4 0x80F76021 EQ PUSH2 0x132 JUMPI DUP1 PUSH4 0xA95264D0 EQ PUSH2 0x150 JUMPI DUP1 PUSH4 0xB9DAF3E2 EQ PUSH2 0x16E JUMPI DUP1 PUSH4 0xC47F0027 EQ PUSH2 0x18C JUMPI DUP1 PUSH4 0xDED92DAC EQ PUSH2 0x1A8 JUMPI PUSH2 0x9C JUMP JUMPDEST DUP1 PUSH4 0x26C7B327 EQ PUSH2 0xA0 JUMPI DUP1 PUSH4 0x469C8110 EQ PUSH2 0xBE JUMPI DUP1 PUSH4 0x4BA83374 EQ PUSH2 0xDA JUMPI DUP1 PUSH4 0x5DA6EF8D EQ PUSH2 0xF8 JUMPI DUP1 PUSH4 0x5FF6CBF3 EQ PUSH2 0x114 JUMPI JUMPDEST PUSH0 DUP1 REVERT JUMPDEST PUSH2 0xA8 PUSH2 0x1C4 JUMP JUMPDEST PUSH1 0x40 MLOAD PUSH2 0xB5 SWAP2 SWAP1 PUSH2 0x1293 JUMP JUMPDEST PUSH1 0x40 MLOAD DUP1 SWAP2 SUB SWAP1 RETURN JUMPDEST PUSH2 0xD8 PUSH1 0x4 DUP1 CALLDATASIZE SUB DUP2 ADD SWAP1 PUSH2 0xD3 SWAP2 SWAP1 PUSH2 0x13F9 JUMP JUMPDEST PUSH2 0x1D6 JUMP JUMPDEST STOP JUMPDEST PUSH2 0xE2 PUSH2 0x3CB JUMP JUMPDEST PUSH1 0x40 MLOAD PUSH2 0xEF SWAP2 SWAP1 PUSH2 0x145A JUMP JUMPDEST PUSH1 0x40 MLOAD DUP1 SWAP2 SUB SWAP1 RETURN JUMPDEST PUSH2 0x112 PUSH1 0x4 DUP1 CALLDATASIZE SUB DUP2 ADD SWAP1 PUSH2 0x10D SWAP2 SWAP1 PUSH2 0x14CD JUMP JUMPDEST PUSH2 0x481 JUMP JUMPDEST STOP JUMPDEST PUSH2 0x11C PUSH2 0x747 JUMP JUMPDEST PUSH1 0x40 MLOAD PUSH2 0x129 SWAP2 SWAP1 PUSH2 0x1687 JUMP JUMPDEST PUSH1 0x40 MLOAD DUP1 SWAP2 SUB SWAP1 RETURN JUMPDEST PUSH2 0x13A PUSH2 0x976 JUMP JUMPDEST PUSH1 0x40 MLOAD PUSH2 0x147 SWAP2 SWAP1 PUSH2 0x16B6 JUMP JUMPDEST PUSH1 0x40 MLOAD DUP1 SWAP2 SUB SWAP1 RETURN JUMPDEST PUSH2 0x158 PUSH2 0xA83 JUMP JUMPDEST PUSH1 0x40 MLOAD PUSH2 0x165 SWAP2 SWAP1 PUSH2 0x1777 JUMP JUMPDEST PUSH1 0x40 MLOAD DUP1 SWAP2 SUB SWAP1 RETURN JUMPDEST PUSH2 0x176 PUSH2 0xBF3 JUMP JUMPDEST PUSH1 0x40 MLOAD PUSH2 0x183 SWAP2 SWAP1 PUSH2 0x145A JUMP JUMPDEST PUSH1 0x40 MLOAD DUP1 SWAP2 SUB SWAP1 RETURN JUMPDEST PUSH2 0x1A6 PUSH1 0x4 DUP1 CALLDATASIZE SUB DUP2 ADD SWAP1 PUSH2 0x1A1 SWAP2 SWAP1 PUSH2 0x13F9 JUMP JUMPDEST PUSH2 0xC9F JUMP JUMPDEST STOP JUMPDEST PUSH2 0x1C2 PUSH1 0x4 DUP1 CALLDATASIZE SUB DUP2 ADD SWAP1 PUSH2 0x1BD SWAP2 SWAP1 PUSH2 0x14CD JUMP JUMPDEST PUSH2 0xDCD JUMP JUMPDEST STOP JUMPDEST PUSH1 0x1 PUSH0 SWAP1 SLOAD SWAP1 PUSH2 0x100 EXP SWAP1 DIV PUSH1 0xFF AND DUP2 JUMP JUMPDEST PUSH1 0x1 DUP1 SLOAD SWAP1 PUSH2 0x100 EXP SWAP1 DIV PUSH20 0xFFFFFFFFFFFFFFFFFFFFFFFFFFFFFFFFFFFFFFFF AND PUSH20 0xFFFFFFFFFFFFFFFFFFFFFFFFFFFFFFFFFFFFFFFF AND CALLER PUSH20 0xFFFFFFFFFFFFFFFFFFFFFFFFFFFFFFFFFFFFFFFF AND EQ DUP1 PUSH2 0x27C JUMPI POP PUSH1 0x4 PUSH0 SWAP1 SLOAD SWAP1 PUSH2 0x100 EXP SWAP1 DIV PUSH20 0xFFFFFFFFFFFFFFFFFFFFFFFFFFFFFFFFFFFFFFFF AND PUSH20 0xFFFFFFFFFFFFFFFFFFFFFFFFFFFFFFFFFFFFFFFF AND CALLER PUSH20 0xFFFFFFFFFFFFFFFFFFFFFFFFFFFFFFFFFFFFFFFF AND EQ JUMPDEST PUSH2 0x2BB JUMPI PUSH1 0x40 MLOAD PUSH32 0x8C379A000000000000000000000000000000000000000000000000000000000 DUP2 MSTORE PUSH1 0x4 ADD PUSH2 0x2B2 SWAP1 PUSH2 0x17F1 JUMP JUMPDEST PUSH1 0x40 MLOAD DUP1 SWAP2 SUB SWAP1 REVERT JUMPDEST PUSH1 0x5 PUSH1 0x40 MLOAD DUP1 PUSH1 0x60 ADD PUSH1 0x40 MSTORE DUP1 TIMESTAMP DUP2 MSTORE PUSH1 0x20 ADD DUP4 DUP2 MSTORE PUSH1 0x20 ADD CALLER PUSH20 0xFFFFFFFFFFFFFFFFFFFFFFFFFFFFFFFFFFFFFFFF AND DUP2 MSTORE POP SWAP1 DUP1 PUSH1 0x1 DUP2 SLOAD ADD DUP1 DUP3 SSTORE DUP1 SWAP2 POP POP PUSH1 0x1 SWAP1 SUB SWAP1 PUSH0 MSTORE PUSH1 0x20 PUSH0 KECCAK256 SWAP1 PUSH1 0x3 MUL ADD PUSH0 SWAP1 SWAP2 SWAP1 SWAP2 SWAP1 SWAP2 POP PUSH0 DUP3 ADD MLOAD DUP2 PUSH0 ADD SSTORE PUSH1 0x20 DUP3 ADD MLOAD DUP2 PUSH1 0x1 ADD SWAP1 DUP2 PUSH2 0x331 SWAP2 SWAP1 PUSH2 0x1A09 JUMP JUMPDEST POP PUSH1 0x40 DUP3 ADD MLOAD DUP2 PUSH1 0x2 ADD PUSH0 PUSH2 0x100 EXP DUP2 SLOAD DUP2 PUSH20 0xFFFFFFFFFFFFFFFFFFFFFFFFFFFFFFFFFFFFFFFF MUL NOT AND SWAP1 DUP4 PUSH20 0xFFFFFFFFFFFFFFFFFFFFFFFFFFFFFFFFFFFFFFFF AND MUL OR SWAP1 SSTORE POP POP POP CALLER PUSH20 0xFFFFFFFFFFFFFFFFFFFFFFFFFFFFFFFFFFFFFFFF AND PUSH32 0x951E0CA7381A5C665EF8D64C982968EA7B66AAF3D6C667A004BC9926D2959B0 TIMESTAMP PUSH1 0x40 MLOAD PUSH2 0x3C0 SWAP2 SWAP1 PUSH2 0x1AE7 JUMP JUMPDEST PUSH1 0x40 MLOAD DUP1 SWAP2 SUB SWAP1 LOG2 POP JUMP JUMPDEST PUSH0 PUSH32 0xFFFFFFFFFFFFFFFFFFFFFFFFFFFFFFFFFFFFFFFFFFFFFFFFFFFFFFFFFFFFFFFF PUSH2 0x47A CALLER PUSH1 0x3 DUP1 SLOAD DUP1 PUSH1 0x20 MUL PUSH1 0x20 ADD PUSH1 0x40 MLOAD SWAP1 DUP2 ADD PUSH1 0x40 MSTORE DUP1 SWAP3 SWAP2 SWAP1 DUP2 DUP2 MSTORE PUSH1 0x20 ADD DUP3 DUP1 SLOAD DUP1 ISZERO PUSH2 0x470 JUMPI PUSH1 0x20 MUL DUP3 ADD SWAP2 SWAP1 PUSH0 MSTORE PUSH1 0x20 PUSH0 KECCAK256 SWAP1 JUMPDEST DUP2 PUSH0 SWAP1 SLOAD SWAP1 PUSH2 0x100 EXP SWAP1 DIV PUSH20 0xFFFFFFFFFFFFFFFFFFFFFFFFFFFFFFFFFFFFFFFF AND PUSH20 0xFFFFFFFFFFFFFFFFFFFFFFFFFFFFFFFFFFFFFFFF AND DUP2 MSTORE PUSH1 0x20 ADD SWAP1 PUSH1 0x1 ADD SWAP1 DUP1 DUP4 GT PUSH2 0x427 JUMPI JUMPDEST POP POP POP POP POP PUSH2 0x1020 JUMP JUMPDEST EQ ISZERO SWAP1 POP SWAP1 JUMP JUMPDEST PUSH1 0x1 DUP1 SLOAD SWAP1 PUSH2 0x100 EXP SWAP1 DIV PUSH20 0xFFFFFFFFFFFFFFFFFFFFFFFFFFFFFFFFFFFFFFFF AND PUSH20 0xFFFFFFFFFFFFFFFFFFFFFFFFFFFFFFFFFFFFFFFF AND CALLER PUSH20 0xFFFFFFFFFFFFFFFFFFFFFFFFFFFFFFFFFFFFFFFF AND EQ DUP1 PUSH2 0x527 JUMPI POP PUSH1 0x2 PUSH0 SWAP1 SLOAD SWAP1 PUSH2 0x100 EXP SWAP1 DIV PUSH20 0xFFFFFFFFFFFFFFFFFFFFFFFFFFFFFFFFFFFFFFFF AND PUSH20 0xFFFFFFFFFFFFFFFFFFFFFFFFFFFFFFFFFFFFFFFF AND CALLER PUSH20 0xFFFFFFFFFFFFFFFFFFFFFFFFFFFFFFFFFFFFFFFF AND EQ JUMPDEST PUSH2 0x566 JUMPI PUSH1 0x40 MLOAD PUSH32 0x8C379A000000000000000000000000000000000000000000000000000000000 DUP2 MSTORE PUSH1 0x4 ADD PUSH2 0x55D SWAP1 PUSH2 0x17F1 JUMP JUMPDEST PUSH1 0x40 MLOAD DUP1 SWAP2 SUB SWAP1 REVERT JUMPDEST PUSH1 0x1 DUP1 SLOAD SWAP1 PUSH2 0x100 EXP SWAP1 DIV PUSH20 0xFFFFFFFFFFFFFFFFFFFFFFFFFFFFFFFFFFFFFFFF AND PUSH20 0xFFFFFFFFFFFFFFFFFFFFFFFFFFFFFFFFFFFFFFFF AND DUP2 PUSH20 0xFFFFFFFFFFFFFFFFFFFFFFFFFFFFFFFFFFFFFFFF AND EQ ISZERO DUP1 ISZERO PUSH2 0x5EE JUMPI POP PUSH0 PUSH20 0xFFFFFFFFFFFFFFFFFFFFFFFFFFFFFFFFFFFFFFFF AND DUP2 PUSH20 0xFFFFFFFFFFFFFFFFFFFFFFFFFFFFFFFFFFFFFFFF AND EQ ISZERO JUMPDEST DUP1 ISZERO PUSH2 0x6A5 JUMPI POP PUSH32 0xFFFFFFFFFFFFFFFFFFFFFFFFFFFFFFFFFFFFFFFFFFFFFFFFFFFFFFFFFFFFFFFF PUSH2 0x6A3 DUP3 PUSH1 0x3 DUP1 SLOAD DUP1 PUSH1 0x20 MUL PUSH1 0x20 ADD PUSH1 0x40 MLOAD SWAP1 DUP2 ADD PUSH1 0x40 MSTORE DUP1 SWAP3 SWAP2 SWAP1 DUP2 DUP2 MSTORE PUSH1 0x20 ADD DUP3 DUP1 SLOAD DUP1 ISZERO PUSH2 0x699 JUMPI PUSH1 0x20 MUL DUP3 ADD SWAP2 SWAP1 PUSH0 MSTORE PUSH1 0x20 PUSH0 KECCAK256 SWAP1 JUMPDEST DUP2 PUSH0 SWAP1 SLOAD SWAP1 PUSH2 0x100 EXP SWAP1 DIV PUSH20 0xFFFFFFFFFFFFFFFFFFFFFFFFFFFFFFFFFFFFFFFF AND PUSH20 0xFFFFFFFFFFFFFFFFFFFFFFFFFFFFFFFFFFFFFFFF AND DUP2 MSTORE PUSH1 0x20 ADD SWAP1 PUSH1 0x1 ADD SWAP1 DUP1 DUP4 GT PUSH2 0x650 JUMPI JUMPDEST POP POP POP POP POP PUSH2 0x1020 JUMP JUMPDEST EQ JUMPDEST PUSH2 0x6E4 JUMPI PUSH1 0x40 MLOAD PUSH32 0x8C379A000000000000000000000000000000000000000000000000000000000 DUP2 MSTORE PUSH1 0x4 ADD PUSH2 0x6DB SWAP1 PUSH2 0x17F1 JUMP JUMPDEST PUSH1 0x40 MLOAD DUP1 SWAP2 SUB SWAP1 REVERT JUMPDEST PUSH1 0x3 DUP2 SWAP1 DUP1 PUSH1 0x1 DUP2 SLOAD ADD DUP1 DUP3 SSTORE DUP1 SWAP2 POP POP PUSH1 0x1 SWAP1 SUB SWAP1 PUSH0 MSTORE PUSH1 0x20 PUSH0 KECCAK256 ADD PUSH0 SWAP1 SWAP2 SWAP1 SWAP2 SWAP1 SWAP2 PUSH2 0x100 EXP DUP2 SLOAD DUP2 PUSH20 0xFFFFFFFFFFFFFFFFFFFFFFFFFFFFFFFFFFFFFFFF MUL NOT AND SWAP1 DUP4 PUSH20 0xFFFFFFFFFFFFFFFFFFFFFFFFFFFFFFFFFFFFFFFF AND MUL OR SWAP1 SSTORE POP POP JUMP JUMPDEST PUSH1 0x60 PUSH1 0x1 DUP1 SLOAD SWAP1 PUSH2 0x100 EXP SWAP1 DIV PUSH20 0xFFFFFFFFFFFFFFFFFFFFFFFFFFFFFFFFFFFFFFFF AND PUSH20 0xFFFFFFFFFFFFFFFFFFFFFFFFFFFFFFFFFFFFFFFF AND CALLER PUSH20 0xFFFFFFFFFFFFFFFFFFFFFFFFFFFFFFFFFFFFFFFF AND EQ DUP1 PUSH2 0x7EF JUMPI POP PUSH1 0x4 PUSH0 SWAP1 SLOAD SWAP1 PUSH2 0x100 EXP SWAP1 DIV PUSH20 0xFFFFFFFFFFFFFFFFFFFFFFFFFFFFFFFFFFFFFFFF AND PUSH20 0xFFFFFFFFFFFFFFFFFFFFFFFFFFFFFFFFFFFFFFFF AND CALLER PUSH20 0xFFFFFFFFFFFFFFFFFFFFFFFFFFFFFFFFFFFFFFFF AND EQ JUMPDEST PUSH2 0x82E JUMPI PUSH1 0x40 MLOAD PUSH32 0x8C379A000000000000000000000000000000000000000000000000000000000 DUP2 MSTORE PUSH1 0x4 ADD PUSH2 0x825 SWAP1 PUSH2 0x17F1 JUMP JUMPDEST PUSH1 0x40 MLOAD DUP1 SWAP2 SUB SWAP1 REVERT JUMPDEST PUSH1 0x5 DUP1 SLOAD DUP1 PUSH1 0x20 MUL PUSH1 0x20 ADD PUSH1 0x40 MLOAD SWAP1 DUP2 ADD PUSH1 0x40 MSTORE DUP1 SWAP3 SWAP2 SWAP1 DUP2 DUP2 MSTORE PUSH1 0x20 ADD PUSH0 SWAP1 JUMPDEST DUP3 DUP3 LT ISZERO PUSH2 0x96D JUMPI DUP4 DUP3 SWAP1 PUSH0 MSTORE PUSH1 0x20 PUSH0 KECCAK256 SWAP1 PUSH1 0x3 MUL ADD PUSH1 0x40 MLOAD DUP1 PUSH1 0x60 ADD PUSH1 0x40 MSTORE SWAP1 DUP2 PUSH0 DUP3 ADD SLOAD DUP2 MSTORE PUSH1 0x20 ADD PUSH1 0x1 DUP3 ADD DUP1 SLOAD PUSH2 0x889 SWAP1 PUSH2 0x183C JUMP JUMPDEST DUP1 PUSH1 0x1F ADD PUSH1 0x20 DUP1 SWAP2 DIV MUL PUSH1 0x20 ADD PUSH1 0x40 MLOAD SWAP1 DUP2 ADD PUSH1 0x40 MSTORE DUP1 SWAP3 SWAP2 SWAP1 DUP2 DUP2 MSTORE PUSH1 0x20 ADD DUP3 DUP1 SLOAD PUSH2 0x8B5 SWAP1 PUSH2 0x183C JUMP JUMPDEST DUP1 ISZERO PUSH2 0x900 JUMPI DUP1 PUSH1 0x1F LT PUSH2 0x8D7 JUMPI PUSH2 0x100 DUP1 DUP4 SLOAD DIV MUL DUP4 MSTORE SWAP2 PUSH1 0x20 ADD SWAP2 PUSH2 0x900 JUMP JUMPDEST DUP3 ADD SWAP2 SWAP1 PUSH0 MSTORE PUSH1 0x20 PUSH0 KECCAK256 SWAP1 JUMPDEST DUP2 SLOAD DUP2 MSTORE SWAP1 PUSH1 0x1 ADD SWAP1 PUSH1 0x20 ADD DUP1 DUP4 GT PUSH2 0x8E3 JUMPI DUP3 SWAP1 SUB PUSH1 0x1F AND DUP3 ADD SWAP2 JUMPDEST POP POP POP POP POP DUP2 MSTORE PUSH1 0x20 ADD PUSH1 0x2 DUP3 ADD PUSH0 SWAP1 SLOAD SWAP1 PUSH2 0x100 EXP SWAP1 DIV PUSH20 0xFFFFFFFFFFFFFFFFFFFFFFFFFFFFFFFFFFFFFFFF AND PUSH20 0xFFFFFFFFFFFFFFFFFFFFFFFFFFFFFFFFFFFFFFFF AND PUSH20 0xFFFFFFFFFFFFFFFFFFFFFFFFFFFFFFFFFFFFFFFF AND DUP2 MSTORE POP POP DUP2 MSTORE PUSH1 0x20 ADD SWAP1 PUSH1 0x1 ADD SWAP1 PUSH2 0x84F JUMP JUMPDEST POP POP POP POP SWAP1 POP SWAP1 JUMP JUMPDEST PUSH0 PUSH1 0x1 DUP1 SLOAD SWAP1 PUSH2 0x100 EXP SWAP1 DIV PUSH20 0xFFFFFFFFFFFFFFFFFFFFFFFFFFFFFFFFFFFFFFFF AND PUSH20 0xFFFFFFFFFFFFFFFFFFFFFFFFFFFFFFFFFFFFFFFF AND CALLER PUSH20 0xFFFFFFFFFFFFFFFFFFFFFFFFFFFFFFFFFFFFFFFF AND EQ DUP1 PUSH2 0xA1D JUMPI POP PUSH1 0x2 PUSH0 SWAP1 SLOAD SWAP1 PUSH2 0x100 EXP SWAP1 DIV PUSH20 0xFFFFFFFFFFFFFFFFFFFFFFFFFFFFFFFFFFFFFFFF AND PUSH20 0xFFFFFFFFFFFFFFFFFFFFFFFFFFFFFFFFFFFFFFFF AND CALLER PUSH20 0xFFFFFFFFFFFFFFFFFFFFFFFFFFFFFFFFFFFFFFFF AND EQ JUMPDEST PUSH2 0xA5C JUMPI PUSH1 0x40 MLOAD PUSH32 0x8C379A000000000000000000000000000000000000000000000000000000000 DUP2 MSTORE PUSH1 0x4 ADD PUSH2 0xA53 SWAP1 PUSH2 0x17F1 JUMP JUMPDEST PUSH1 0x40 MLOAD DUP1 SWAP2 SUB SWAP1 REVERT JUMPDEST PUSH1 0x2 PUSH0 SWAP1 SLOAD SWAP1 PUSH2 0x100 EXP SWAP1 DIV PUSH20 0xFFFFFFFFFFFFFFFFFFFFFFFFFFFFFFFFFFFFFFFF AND SWAP1 POP SWAP1 JUMP JUMPDEST PUSH1 0x60 PUSH1 0x1 DUP1 SLOAD SWAP1 PUSH2 0x100 EXP SWAP1 DIV PUSH20 0xFFFFFFFFFFFFFFFFFFFFFFFFFFFFFFFFFFFFFFFF AND PUSH20 0xFFFFFFFFFFFFFFFFFFFFFFFFFFFFFFFFFFFFFFFF AND CALLER PUSH20 0xFFFFFFFFFFFFFFFFFFFFFFFFFFFFFFFFFFFFFFFF AND EQ DUP1 PUSH2 0xB2B JUMPI POP PUSH1 0x2 PUSH0 SWAP1 SLOAD SWAP1 PUSH2 0x100 EXP SWAP1 DIV PUSH20 0xFFFFFFFFFFFFFFFFFFFFFFFFFFFFFFFFFFFFFFFF AND PUSH20 0xFFFFFFFFFFFFFFFFFFFFFFFFFFFFFFFFFFFFFFFF AND CALLER PUSH20 0xFFFFFFFFFFFFFFFFFFFFFFFFFFFFFFFFFFFFFFFF AND EQ JUMPDEST PUSH2 0xB6A JUMPI PUSH1 0x40 MLOAD PUSH32 0x8C379A000000000000000000000000000000000000000000000000000000000 DUP2 MSTORE PUSH1 0x4 ADD PUSH2 0xB61 SWAP1 PUSH2 0x17F1 JUMP JUMPDEST PUSH1 0x40 MLOAD DUP1 SWAP2 SUB SWAP1 REVERT JUMPDEST PUSH1 0x3 DUP1 SLOAD DUP1 PUSH1 0x20 MUL PUSH1 0x20 ADD PUSH1 0x40 MLOAD SWAP1 DUP2 ADD PUSH1 0x40 MSTORE DUP1 SWAP3 SWAP2 SWAP1 DUP2 DUP2 MSTORE PUSH1 0x20 ADD DUP3 DUP1 SLOAD DUP1 ISZERO PUSH2 0xBE9 JUMPI PUSH1 0x20 MUL DUP3 ADD SWAP2 SWAP1 PUSH0 MSTORE PUSH1 0x20 PUSH0 KECCAK256 SWAP1 JUMPDEST DUP2 PUSH0 SWAP1 SLOAD SWAP1 PUSH2 0x100 EXP SWAP1 DIV PUSH20 0xFFFFFFFFFFFFFFFFFFFFFFFFFFFFFFFFFFFFFFFF AND PUSH20 0xFFFFFFFFFFFFFFFFFFFFFFFFFFFFFFFFFFFFFFFF AND DUP2 MSTORE PUSH1 0x20 ADD SWAP1 PUSH1 0x1 ADD SWAP1 DUP1 DUP4 GT PUSH2 0xBA0 JUMPI JUMPDEST POP POP POP POP POP SWAP1 POP SWAP1 JUMP JUMPDEST PUSH0 PUSH1 0x1 DUP1 SLOAD SWAP1 PUSH2 0x100 EXP SWAP1 DIV PUSH20 0xFFFFFFFFFFFFFFFFFFFFFFFFFFFFFFFFFFFFFFFF AND PUSH20 0xFFFFFFFFFFFFFFFFFFFFFFFFFFFFFFFFFFFFFFFF AND CALLER PUSH20 0xFFFFFFFFFFFFFFFFFFFFFFFFFFFFFFFFFFFFFFFF AND EQ DUP1 PUSH2 0xC9A JUMPI POP PUSH1 0x2 PUSH0 SWAP1 SLOAD SWAP1 PUSH2 0x100 EXP SWAP1 DIV PUSH20 0xFFFFFFFFFFFFFFFFFFFFFFFFFFFFFFFFFFFFFFFF AND PUSH20 0xFFFFFFFFFFFFFFFFFFFFFFFFFFFFFFFFFFFFFFFF AND CALLER PUSH20 0xFFFFFFFFFFFFFFFFFFFFFFFFFFFFFFFFFFFFFFFF AND EQ JUMPDEST SWAP1 POP SWAP1 JUMP JUMPDEST PUSH1 0x1 DUP1 SLOAD SWAP1 PUSH2 0x100 EXP SWAP1 DIV PUSH20 0xFFFFFFFFFFFFFFFFFFFFFFFFFFFFFFFFFFFFFFFF AND PUSH20 0xFFFFFFFFFFFFFFFFFFFFFFFFFFFFFFFFFFFFFFFF AND CALLER PUSH20 0xFFFFFFFFFFFFFFFFFFFFFFFFFFFFFFFFFFFFFFFF AND EQ DUP1 PUSH2 0xD45 JUMPI POP PUSH1 0x2 PUSH0 SWAP1 SLOAD SWAP1 PUSH2 0x100 EXP SWAP1 DIV PUSH20 0xFFFFFFFFFFFFFFFFFFFFFFFFFFFFFFFFFFFFFFFF AND PUSH20 0xFFFFFFFFFFFFFFFFFFFFFFFFFFFFFFFFFFFFFFFF AND CALLER PUSH20 0xFFFFFFFFFFFFFFFFFFFFFFFFFFFFFFFFFFFFFFFF AND EQ JUMPDEST PUSH2 0xD84 JUMPI PUSH1 0x40 MLOAD PUSH32 0x8C379A000000000000000000000000000000000000000000000000000000000 DUP2 MSTORE PUSH1 0x4 ADD PUSH2 0xD7B SWAP1 PUSH2 0x17F1 JUMP JUMPDEST PUSH1 0x40 MLOAD DUP1 SWAP2 SUB SWAP1 REVERT JUMPDEST DUP1 PUSH0 SWAP1 DUP2 PUSH2 0xD92 SWAP2 SWAP1 PUSH2 0x1A09 JUMP JUMPDEST POP PUSH32 0xE00DA2178806F37F69815E9ED5ED3072EC1D55206D60916D99B469C7DAA421E4 CALLER PUSH1 0x40 MLOAD PUSH2 0xDC2 SWAP2 SWAP1 PUSH2 0x16B6 JUMP JUMPDEST PUSH1 0x40 MLOAD DUP1 SWAP2 SUB SWAP1 LOG1 POP JUMP JUMPDEST PUSH0 PUSH20 0xFFFFFFFFFFFFFFFFFFFFFFFFFFFFFFFFFFFFFFFF AND DUP2 PUSH20 0xFFFFFFFFFFFFFFFFFFFFFFFFFFFFFFFFFFFFFFFF AND EQ ISZERO DUP1 PUSH2 0xEE0 JUMPI POP PUSH1 0x2 PUSH0 SWAP1 SLOAD SWAP1 PUSH2 0x100 EXP SWAP1 DIV PUSH20 0xFFFFFFFFFFFFFFFFFFFFFFFFFFFFFFFFFFFFFFFF AND PUSH20 0xFFFFFFFFFFFFFFFFFFFFFFFFFFFFFFFFFFFFFFFF AND CALLER PUSH20 0xFFFFFFFFFFFFFFFFFFFFFFFFFFFFFFFFFFFFFFFF AND EQ DUP1 PUSH2 0xEA9 JUMPI POP PUSH1 0x1 DUP1 SLOAD SWAP1 PUSH2 0x100 EXP SWAP1 DIV PUSH20 0xFFFFFFFFFFFFFFFFFFFFFFFFFFFFFFFFFFFFFFFF AND PUSH20 0xFFFFFFFFFFFFFFFFFFFFFFFFFFFFFFFFFFFFFFFF AND CALLER PUSH20 0xFFFFFFFFFFFFFFFFFFFFFFFFFFFFFFFFFFFFFFFF AND EQ JUMPDEST DUP1 PUSH2 0xEDF JUMPI POP DUP1 PUSH20 0xFFFFFFFFFFFFFFFFFFFFFFFFFFFFFFFFFFFFFFFF AND CALLER PUSH20 0xFFFFFFFFFFFFFFFFFFFFFFFFFFFFFFFFFFFFFFFF AND EQ JUMPDEST JUMPDEST PUSH2 0xF1F JUMPI PUSH1 0x40 MLOAD PUSH32 0x8C379A000000000000000000000000000000000000000000000000000000000 DUP2 MSTORE PUSH1 0x4 ADD PUSH2 0xF16 SWAP1 PUSH2 0x17F1 JUMP JUMPDEST PUSH1 0x40 MLOAD DUP1 SWAP2 SUB SWAP1 REVERT JUMPDEST PUSH0 PUSH2 0xFAD DUP3 PUSH1 0x3 DUP1 SLOAD DUP1 PUSH1 0x20 MUL PUSH1 0x20 ADD PUSH1 0x40 MLOAD SWAP1 DUP2 ADD PUSH1 0x40 MSTORE DUP1 SWAP3 SWAP2 SWAP1 DUP2 DUP2 MSTORE PUSH1 0x20 ADD DUP3 DUP1 SLOAD DUP1 ISZERO PUSH2 0xFA3 JUMPI PUSH1 0x20 MUL DUP3 ADD SWAP2 SWAP1 PUSH0 MSTORE PUSH1 0x20 PUSH0 KECCAK256 SWAP1 JUMPDEST DUP2 PUSH0 SWAP1 SLOAD SWAP1 PUSH2 0x100 EXP SWAP1 DIV PUSH20 0xFFFFFFFFFFFFFFFFFFFFFFFFFFFFFFFFFFFFFFFF AND PUSH20 0xFFFFFFFFFFFFFFFFFFFFFFFFFFFFFFFFFFFFFFFF AND DUP2 MSTORE PUSH1 0x20 ADD SWAP1 PUSH1 0x1 ADD SWAP1 DUP1 DUP4 GT PUSH2 0xF5A JUMPI JUMPDEST POP POP POP POP POP PUSH2 0x1020 JUMP JUMPDEST SWAP1 POP PUSH32 0xFFFFFFFFFFFFFFFFFFFFFFFFFFFFFFFFFFFFFFFFFFFFFFFFFFFFFFFFFFFFFFFF DUP2 SGT PUSH2 0x1011 JUMPI PUSH1 0x40 MLOAD PUSH32 0x8C379A000000000000000000000000000000000000000000000000000000000 DUP2 MSTORE PUSH1 0x4 ADD PUSH2 0x1008 SWAP1 PUSH2 0x1B4A JUMP JUMPDEST PUSH1 0x40 MLOAD DUP1 SWAP2 SUB SWAP1 REVERT JUMPDEST PUSH2 0x101C DUP2 PUSH1 0x3 PUSH2 0x10BD JUMP JUMPDEST POP POP JUMP JUMPDEST PUSH0 DUP1 PUSH0 SWAP1 POP JUMPDEST DUP3 MLOAD DUP2 LT ISZERO PUSH2 0x1092 JUMPI DUP4 PUSH20 0xFFFFFFFFFFFFFFFFFFFFFFFFFFFFFFFFFFFFFFFF AND DUP4 DUP3 DUP2 MLOAD DUP2 LT PUSH2 0x1059 JUMPI PUSH2 0x1058 PUSH2 0x1B68 JUMP JUMPDEST JUMPDEST PUSH1 0x20 MUL PUSH1 0x20 ADD ADD MLOAD PUSH20 0xFFFFFFFFFFFFFFFFFFFFFFFFFFFFFFFFFFFFFFFF AND SUB PUSH2 0x1085 JUMPI DUP1 SWAP2 POP POP PUSH2 0x10B7 JUMP JUMPDEST DUP1 DUP1 PUSH1 0x1 ADD SWAP2 POP POP PUSH2 0x1026 JUMP JUMPDEST POP PUSH32 0xFFFFFFFFFFFFFFFFFFFFFFFFFFFFFFFFFFFFFFFFFFFFFFFFFFFFFFFFFFFFFFFF SWAP1 POP JUMPDEST SWAP3 SWAP2 POP POP JUMP JUMPDEST PUSH0 DUP3 SLT ISZERO DUP1 ISZERO PUSH2 0x10D0 JUMPI POP DUP1 DUP1 SLOAD SWAP1 POP DUP3 LT JUMPDEST PUSH2 0x110F JUMPI PUSH1 0x40 MLOAD PUSH32 0x8C379A000000000000000000000000000000000000000000000000000000000 DUP2 MSTORE PUSH1 0x4 ADD PUSH2 0x1106 SWAP1 PUSH2 0x1B4A JUMP JUMPDEST PUSH1 0x40 MLOAD DUP1 SWAP2 SUB SWAP1 REVERT JUMPDEST PUSH0 DUP3 SWAP1 POP JUMPDEST PUSH1 0x1 DUP3 DUP1 SLOAD SWAP1 POP PUSH2 0x1125 SWAP2 SWAP1 PUSH2 0x1BC2 JUMP JUMPDEST DUP2 LT ISZERO PUSH2 0x11D8 JUMPI DUP2 PUSH1 0x1 DUP3 PUSH2 0x113A SWAP2 SWAP1 PUSH2 0x1BF5 JUMP JUMPDEST DUP2 SLOAD DUP2 LT PUSH2 0x114B JUMPI PUSH2 0x114A PUSH2 0x1B68 JUMP JUMPDEST JUMPDEST SWAP1 PUSH0 MSTORE PUSH1 0x20 PUSH0 KECCAK256 ADD PUSH0 SWAP1 SLOAD SWAP1 PUSH2 0x100 EXP SWAP1 DIV PUSH20 0xFFFFFFFFFFFFFFFFFFFFFFFFFFFFFFFFFFFFFFFF AND DUP3 DUP3 DUP2 SLOAD DUP2 LT PUSH2 0x1186 JUMPI PUSH2 0x1185 PUSH2 0x1B68 JUMP JUMPDEST JUMPDEST SWAP1 PUSH0 MSTORE PUSH1 0x20 PUSH0 KECCAK256 ADD PUSH0 PUSH2 0x100 EXP DUP2 SLOAD DUP2 PUSH20 0xFFFFFFFFFFFFFFFFFFFFFFFFFFFFFFFFFFFFFFFF MUL NOT AND SWAP1 DUP4 PUSH20 0xFFFFFFFFFFFFFFFFFFFFFFFFFFFFFFFFFFFFFFFF AND MUL OR SWAP1 SSTORE POP DUP1 DUP1 PUSH1 0x1 ADD SWAP2 POP POP PUSH2 0x1114 JUMP JUMPDEST POP DUP1 DUP1 SLOAD DUP1 PUSH2 0x11EA JUMPI PUSH2 0x11E9 PUSH2 0x1C28 JUMP JUMPDEST JUMPDEST PUSH1 0x1 SWAP1 SUB DUP2 DUP2 SWAP1 PUSH0 MSTORE PUSH1 0x20 PUSH0 KECCAK256 ADD PUSH0 PUSH2 0x100 EXP DUP2 SLOAD SWAP1 PUSH20 0xFFFFFFFFFFFFFFFFFFFFFFFFFFFFFFFFFFFFFFFF MUL NOT AND SWAP1 SSTORE SWAP1 SSTORE POP POP JUMP JUMPDEST PUSH32 0x4E487B7100000000000000000000000000000000000000000000000000000000 PUSH0 MSTORE PUSH1 0x21 PUSH1 0x4 MSTORE PUSH1 0x24 PUSH0 REVERT JUMPDEST PUSH1 0x4 DUP2 LT PUSH2 0x125E JUMPI PUSH2 0x125D PUSH2 0x1220 JUMP JUMPDEST JUMPDEST POP JUMP JUMPDEST PUSH0 DUP2 SWAP1 POP PUSH2 0x126E DUP3 PUSH2 0x124D JUMP JUMPDEST SWAP2 SWAP1 POP JUMP JUMPDEST PUSH0 PUSH2 0x127D DUP3 PUSH2 0x1261 JUMP JUMPDEST SWAP1 POP SWAP2 SWAP1 POP JUMP JUMPDEST PUSH2 0x128D DUP2 PUSH2 0x1273 JUMP JUMPDEST DUP3 MSTORE POP POP JUMP JUMPDEST PUSH0 PUSH1 0x20 DUP3 ADD SWAP1 POP PUSH2 0x12A6 PUSH0 DUP4 ADD DUP5 PUSH2 0x1284 JUMP JUMPDEST SWAP3 SWAP2 POP POP JUMP JUMPDEST PUSH0 PUSH1 0x40 MLOAD SWAP1 POP SWAP1 JUMP JUMPDEST PUSH0 DUP1 REVERT JUMPDEST PUSH0 DUP1 REVERT JUMPDEST PUSH0 DUP1 REVERT JUMPDEST PUSH0 DUP1 REVERT JUMPDEST PUSH0 PUSH1 0x1F NOT PUSH1 0x1F DUP4 ADD AND SWAP1 POP SWAP2 SWAP1 POP JUMP JUMPDEST PUSH32 0x4E487B7100000000000000000000000000000000000000000000000000000000 PUSH0 MSTORE PUSH1 0x41 PUSH1 0x4 MSTORE PUSH1 0x24 PUSH0 REVERT JUMPDEST PUSH2 0x130B DUP3 PUSH2 0x12C5 JUMP JUMPDEST DUP2 ADD DUP2 DUP2 LT PUSH8 0xFFFFFFFFFFFFFFFF DUP3 GT OR ISZERO PUSH2 0x132A JUMPI PUSH2 0x1329 PUSH2 0x12D5 JUMP JUMPDEST JUMPDEST DUP1 PUSH1 0x40 MSTORE POP POP POP JUMP JUMPDEST PUSH0 PUSH2 0x133C PUSH2 0x12AC JUMP JUMPDEST SWAP1 POP PUSH2 0x1348 DUP3 DUP3 PUSH2 0x1302 JUMP JUMPDEST SWAP2 SWAP1 POP JUMP JUMPDEST PUSH0 PUSH8 0xFFFFFFFFFFFFFFFF DUP3 GT ISZERO PUSH2 0x1367 JUMPI PUSH2 0x1366 PUSH2 0x12D5 JUMP JUMPDEST JUMPDEST PUSH2 0x1370 DUP3 PUSH2 0x12C5 JUMP JUMPDEST SWAP1 POP PUSH1 0x20 DUP2 ADD SWAP1 POP SWAP2 SWAP1 POP JUMP JUMPDEST DUP3 DUP2 DUP4 CALLDATACOPY PUSH0 DUP4 DUP4 ADD MSTORE POP POP POP JUMP JUMPDEST PUSH0 PUSH2 0x139D PUSH2 0x1398 DUP5 PUSH2 0x134D JUMP JUMPDEST PUSH2 0x1333 JUMP JUMPDEST SWAP1 POP DUP3 DUP2 MSTORE PUSH1 0x20 DUP2 ADD DUP5 DUP5 DUP5 ADD GT ISZERO PUSH2 0x13B9 JUMPI PUSH2 0x13B8 PUSH2 0x12C1 JUMP JUMPDEST JUMPDEST PUSH2 0x13C4 DUP5 DUP3 DUP6 PUSH2 0x137D JUMP JUMPDEST POP SWAP4 SWAP3 POP POP POP JUMP JUMPDEST PUSH0 DUP3 PUSH1 0x1F DUP4 ADD SLT PUSH2 0x13E0 JUMPI PUSH2 0x13DF PUSH2 0x12BD JUMP JUMPDEST JUMPDEST DUP2 CALLDATALOAD PUSH2 0x13F0 DUP5 DUP3 PUSH1 0x20 DUP7 ADD PUSH2 0x138B JUMP JUMPDEST SWAP2 POP POP SWAP3 SWAP2 POP POP JUMP JUMPDEST PUSH0 PUSH1 0x20 DUP3 DUP5 SUB SLT ISZERO PUSH2 0x140E JUMPI PUSH2 0x140D PUSH2 0x12B5 JUMP JUMPDEST JUMPDEST PUSH0 DUP3 ADD CALLDATALOAD PUSH8 0xFFFFFFFFFFFFFFFF DUP2 GT ISZERO PUSH2 0x142B JUMPI PUSH2 0x142A PUSH2 0x12B9 JUMP JUMPDEST JUMPDEST PUSH2 0x1437 DUP5 DUP3 DUP6 ADD PUSH2 0x13CC JUMP JUMPDEST SWAP2 POP POP SWAP3 SWAP2 POP POP JUMP JUMPDEST PUSH0 DUP2 ISZERO ISZERO SWAP1 POP SWAP2 SWAP1 POP JUMP JUMPDEST PUSH2 0x1454 DUP2 PUSH2 0x1440 JUMP JUMPDEST DUP3 MSTORE POP POP JUMP JUMPDEST PUSH0 PUSH1 0x20 DUP3 ADD SWAP1 POP PUSH2 0x146D PUSH0 DUP4 ADD DUP5 PUSH2 0x144B JUMP JUMPDEST SWAP3 SWAP2 POP POP JUMP JUMPDEST PUSH0 PUSH20 0xFFFFFFFFFFFFFFFFFFFFFFFFFFFFFFFFFFFFFFFF DUP3 AND SWAP1 POP SWAP2 SWAP1 POP JUMP JUMPDEST PUSH0 PUSH2 0x149C DUP3 PUSH2 0x1473 JUMP JUMPDEST SWAP1 POP SWAP2 SWAP1 POP JUMP JUMPDEST PUSH2 0x14AC DUP2 PUSH2 0x1492 JUMP JUMPDEST DUP2 EQ PUSH2 0x14B6 JUMPI PUSH0 DUP1 REVERT JUMPDEST POP JUMP JUMPDEST PUSH0 DUP2 CALLDATALOAD SWAP1 POP PUSH2 0x14C7 DUP2 PUSH2 0x14A3 JUMP JUMPDEST SWAP3 SWAP2 POP POP JUMP JUMPDEST PUSH0 PUSH1 0x20 DUP3 DUP5 SUB SLT ISZERO PUSH2 0x14E2 JUMPI PUSH2 0x14E1 PUSH2 0x12B5 JUMP JUMPDEST JUMPDEST PUSH0 PUSH2 0x14EF DUP5 DUP3 DUP6 ADD PUSH2 0x14B9 JUMP JUMPDEST SWAP2 POP POP SWAP3 SWAP2 POP POP JUMP JUMPDEST PUSH0 DUP2 MLOAD SWAP1 POP SWAP2 SWAP1 POP JUMP JUMPDEST PUSH0 DUP3 DUP3 MSTORE PUSH1 0x20 DUP3 ADD SWAP1 POP SWAP3 SWAP2 POP POP JUMP JUMPDEST PUSH0 DUP2 SWAP1 POP PUSH1 0x20 DUP3 ADD SWAP1 POP SWAP2 SWAP1 POP JUMP JUMPDEST PUSH0 DUP2 SWAP1 POP SWAP2 SWAP1 POP JUMP JUMPDEST PUSH2 0x1533 DUP2 PUSH2 0x1521 JUMP JUMPDEST DUP3 MSTORE POP POP JUMP JUMPDEST PUSH0 DUP2 MLOAD SWAP1 POP SWAP2 SWAP1 POP JUMP JUMPDEST PUSH0 DUP3 DUP3 MSTORE PUSH1 0x20 DUP3 ADD SWAP1 POP SWAP3 SWAP2 POP POP JUMP JUMPDEST DUP3 DUP2 DUP4 MCOPY PUSH0 DUP4 DUP4 ADD MSTORE POP POP POP JUMP JUMPDEST PUSH0 PUSH2 0x156B DUP3 PUSH2 0x1539 JUMP JUMPDEST PUSH2 0x1575 DUP2 DUP6 PUSH2 0x1543 JUMP JUMPDEST SWAP4 POP PUSH2 0x1585 DUP2 DUP6 PUSH1 0x20 DUP7 ADD PUSH2 0x1553 JUMP JUMPDEST PUSH2 0x158E DUP2 PUSH2 0x12C5 JUMP JUMPDEST DUP5 ADD SWAP2 POP POP SWAP3 SWAP2 POP POP JUMP JUMPDEST PUSH2 0x15A2 DUP2 PUSH2 0x1492 JUMP JUMPDEST DUP3 MSTORE POP POP JUMP JUMPDEST PUSH0 PUSH1 0x60 DUP4 ADD PUSH0 DUP4 ADD MLOAD PUSH2 0x15BD PUSH0 DUP7 ADD DUP3 PUSH2 0x152A JUMP JUMPDEST POP PUSH1 0x20 DUP4 ADD MLOAD DUP5 DUP3 SUB PUSH1 0x20 DUP7 ADD MSTORE PUSH2 0x15D5 DUP3 DUP3 PUSH2 0x1561 JUMP JUMPDEST SWAP2 POP POP PUSH1 0x40 DUP4 ADD MLOAD PUSH2 0x15EA PUSH1 0x40 DUP7 ADD DUP3 PUSH2 0x1599 JUMP JUMPDEST POP DUP1 SWAP2 POP POP SWAP3 SWAP2 POP POP JUMP JUMPDEST PUSH0 PUSH2 0x1600 DUP4 DUP4 PUSH2 0x15A8 JUMP JUMPDEST SWAP1 POP SWAP3 SWAP2 POP POP JUMP JUMPDEST PUSH0 PUSH1 0x20 DUP3 ADD SWAP1 POP SWAP2 SWAP1 POP JUMP JUMPDEST PUSH0 PUSH2 0x161E DUP3 PUSH2 0x14F8 JUMP JUMPDEST PUSH2 0x1628 DUP2 DUP6 PUSH2 0x1502 JUMP JUMPDEST SWAP4 POP DUP4 PUSH1 0x20 DUP3 MUL DUP6 ADD PUSH2 0x163A DUP6 PUSH2 0x1512 JUMP JUMPDEST DUP1 PUSH0 JUMPDEST DUP6 DUP2 LT ISZERO PUSH2 0x1675 JUMPI DUP5 DUP5 SUB DUP10 MSTORE DUP2 MLOAD PUSH2 0x1656 DUP6 DUP3 PUSH2 0x15F5 JUMP JUMPDEST SWAP5 POP PUSH2 0x1661 DUP4 PUSH2 0x1608 JUMP JUMPDEST SWAP3 POP PUSH1 0x20 DUP11 ADD SWAP10 POP POP PUSH1 0x1 DUP2 ADD SWAP1 POP PUSH2 0x163D JUMP JUMPDEST POP DUP3 SWAP8 POP DUP8 SWAP6 POP POP POP POP POP POP SWAP3 SWAP2 POP POP JUMP JUMPDEST PUSH0 PUSH1 0x20 DUP3 ADD SWAP1 POP DUP2 DUP2 SUB PUSH0 DUP4 ADD MSTORE PUSH2 0x169F DUP2 DUP5 PUSH2 0x1614 JUMP JUMPDEST SWAP1 POP SWAP3 SWAP2 POP POP JUMP JUMPDEST PUSH2 0x16B0 DUP2 PUSH2 0x1492 JUMP JUMPDEST DUP3 MSTORE POP POP JUMP JUMPDEST PUSH0 PUSH1 0x20 DUP3 ADD SWAP1 POP PUSH2 0x16C9 PUSH0 DUP4 ADD DUP5 PUSH2 0x16A7 JUMP JUMPDEST SWAP3 SWAP2 POP POP JUMP JUMPDEST PUSH0 DUP2 MLOAD SWAP1 POP SWAP2 SWAP1 POP JUMP JUMPDEST PUSH0 DUP3 DUP3 MSTORE PUSH1 0x20 DUP3 ADD SWAP1 POP SWAP3 SWAP2 POP POP JUMP JUMPDEST PUSH0 DUP2 SWAP1 POP PUSH1 0x20 DUP3 ADD SWAP1 POP SWAP2 SWAP1 POP JUMP JUMPDEST PUSH0 PUSH2 0x1703 DUP4 DUP4 PUSH2 0x1599 JUMP JUMPDEST PUSH1 0x20 DUP4 ADD SWAP1 POP SWAP3 SWAP2 POP POP JUMP JUMPDEST PUSH0 PUSH1 0x20 DUP3 ADD SWAP1 POP SWAP2 SWAP1 POP JUMP JUMPDEST PUSH0 PUSH2 0x1725 DUP3 PUSH2 0x16CF JUMP JUMPDEST PUSH2 0x172F DUP2 DUP6 PUSH2 0x16D9 JUMP JUMPDEST SWAP4 POP PUSH2 0x173A DUP4 PUSH2 0x16E9 JUMP JUMPDEST DUP1 PUSH0 JUMPDEST DUP4 DUP2 LT ISZERO PUSH2 0x176A JUMPI DUP2 MLOAD PUSH2 0x1751 DUP9 DUP3 PUSH2 0x16F8 JUMP JUMPDEST SWAP8 POP PUSH2 0x175C DUP4 PUSH2 0x170F JUMP JUMPDEST SWAP3 POP POP PUSH1 0x1 DUP2 ADD SWAP1 POP PUSH2 0x173D JUMP JUMPDEST POP DUP6 SWAP4 POP POP POP POP SWAP3 SWAP2 POP POP JUMP JUMPDEST PUSH0 PUSH1 0x20 DUP3 ADD SWAP1 POP DUP2 DUP2 SUB PUSH0 DUP4 ADD MSTORE PUSH2 0x178F DUP2 DUP5 PUSH2 0x171B JUMP JUMPDEST SWAP1 POP SWAP3 SWAP2 POP POP JUMP JUMPDEST PUSH0 DUP3 DUP3 MSTORE PUSH1 0x20 DUP3 ADD SWAP1 POP SWAP3 SWAP2 POP POP JUMP JUMPDEST PUSH32 0x3430330000000000000000000000000000000000000000000000000000000000 PUSH0 DUP3 ADD MSTORE POP JUMP JUMPDEST PUSH0 PUSH2 0x17DB PUSH1 0x3 DUP4 PUSH2 0x1797 JUMP JUMPDEST SWAP2 POP PUSH2 0x17E6 DUP3 PUSH2 0x17A7 JUMP JUMPDEST PUSH1 0x20 DUP3 ADD SWAP1 POP SWAP2 SWAP1 POP JUMP JUMPDEST PUSH0 PUSH1 0x20 DUP3 ADD SWAP1 POP DUP2 DUP2 SUB PUSH0 DUP4 ADD MSTORE PUSH2 0x1808 DUP2 PUSH2 0x17CF JUMP JUMPDEST SWAP1 POP SWAP2 SWAP1 POP JUMP JUMPDEST PUSH32 0x4E487B7100000000000000000000000000000000000000000000000000000000 PUSH0 MSTORE PUSH1 0x22 PUSH1 0x4 MSTORE PUSH1 0x24 PUSH0 REVERT JUMPDEST PUSH0 PUSH1 0x2 DUP3 DIV SWAP1 POP PUSH1 0x1 DUP3 AND DUP1 PUSH2 0x1853 JUMPI PUSH1 0x7F DUP3 AND SWAP2 POP JUMPDEST PUSH1 0x20 DUP3 LT DUP2 SUB PUSH2 0x1866 JUMPI PUSH2 0x1865 PUSH2 0x180F JUMP JUMPDEST JUMPDEST POP SWAP2 SWAP1 POP JUMP JUMPDEST PUSH0 DUP2 SWAP1 POP DUP2 PUSH0 MSTORE PUSH1 0x20 PUSH0 KECCAK256 SWAP1 POP SWAP2 SWAP1 POP JUMP JUMPDEST PUSH0 PUSH1 0x20 PUSH1 0x1F DUP4 ADD DIV SWAP1 POP SWAP2 SWAP1 POP JUMP JUMPDEST PUSH0 DUP3 DUP3 SHL SWAP1 POP SWAP3 SWAP2 POP POP JUMP JUMPDEST PUSH0 PUSH1 0x8 DUP4 MUL PUSH2 0x18C8 PUSH32 0xFFFFFFFFFFFFFFFFFFFFFFFFFFFFFFFFFFFFFFFFFFFFFFFFFFFFFFFFFFFFFFFF DUP3 PUSH2 0x188D JUMP JUMPDEST PUSH2 0x18D2 DUP7 DUP4 PUSH2 0x188D JUMP JUMPDEST SWAP6 POP DUP1 NOT DUP5 AND SWAP4 POP DUP1 DUP7 AND DUP5 OR SWAP3 POP POP POP SWAP4 SWAP3 POP POP POP JUMP JUMPDEST PUSH0 DUP2 SWAP1 POP SWAP2 SWAP1 POP JUMP JUMPDEST PUSH0 PUSH2 0x190D PUSH2 0x1908 PUSH2 0x1903 DUP5 PUSH2 0x1521 JUMP JUMPDEST PUSH2 0x18EA JUMP JUMPDEST PUSH2 0x1521 JUMP JUMPDEST SWAP1 POP SWAP2 SWAP1 POP JUMP JUMPDEST PUSH0 DUP2 SWAP1 POP SWAP2 SWAP1 POP JUMP JUMPDEST PUSH2 0x1926 DUP4 PUSH2 0x18F3 JUMP JUMPDEST PUSH2 0x193A PUSH2 0x1932 DUP3 PUSH2 0x1914 JUMP JUMPDEST DUP5 DUP5 SLOAD PUSH2 0x1899 JUMP JUMPDEST DUP3 SSTORE POP POP POP POP JUMP JUMPDEST PUSH0 SWAP1 JUMP JUMPDEST PUSH2 0x194E PUSH2 0x1942 JUMP JUMPDEST PUSH2 0x1959 DUP2 DUP5 DUP5 PUSH2 0x191D JUMP JUMPDEST POP POP POP JUMP JUMPDEST JUMPDEST DUP2 DUP2 LT ISZERO PUSH2 0x197C JUMPI PUSH2 0x1971 PUSH0 DUP3 PUSH2 0x1946 JUMP JUMPDEST PUSH1 0x1 DUP2 ADD SWAP1 POP PUSH2 0x195F JUMP JUMPDEST POP POP JUMP JUMPDEST PUSH1 0x1F DUP3 GT ISZERO PUSH2 0x19C1 JUMPI PUSH2 0x1992 DUP2 PUSH2 0x186C JUMP JUMPDEST PUSH2 0x199B DUP5 PUSH2 0x187E JUMP JUMPDEST DUP2 ADD PUSH1 0x20 DUP6 LT ISZERO PUSH2 0x19AA JUMPI DUP2 SWAP1 POP JUMPDEST PUSH2 0x19BE PUSH2 0x19B6 DUP6 PUSH2 0x187E JUMP JUMPDEST DUP4 ADD DUP3 PUSH2 0x195E JUMP JUMPDEST POP POP JUMPDEST POP POP POP JUMP JUMPDEST PUSH0 DUP3 DUP3 SHR SWAP1 POP SWAP3 SWAP2 POP POP JUMP JUMPDEST PUSH0 PUSH2 0x19E1 PUSH0 NOT DUP5 PUSH1 0x8 MUL PUSH2 0x19C6 JUMP JUMPDEST NOT DUP1 DUP4 AND SWAP2 POP POP SWAP3 SWAP2 POP POP JUMP JUMPDEST PUSH0 PUSH2 0x19F9 DUP4 DUP4 PUSH2 0x19D2 JUMP JUMPDEST SWAP2 POP DUP3 PUSH1 0x2 MUL DUP3 OR SWAP1 POP SWAP3 SWAP2 POP POP JUMP JUMPDEST PUSH2 0x1A12 DUP3 PUSH2 0x1539 JUMP JUMPDEST PUSH8 0xFFFFFFFFFFFFFFFF DUP2 GT ISZERO PUSH2 0x1A2B JUMPI PUSH2 0x1A2A PUSH2 0x12D5 JUMP JUMPDEST JUMPDEST PUSH2 0x1A35 DUP3 SLOAD PUSH2 0x183C JUMP JUMPDEST PUSH2 0x1A40 DUP3 DUP3 DUP6 PUSH2 0x1980 JUMP JUMPDEST PUSH0 PUSH1 0x20 SWAP1 POP PUSH1 0x1F DUP4 GT PUSH1 0x1 DUP2 EQ PUSH2 0x1A71 JUMPI PUSH0 DUP5 ISZERO PUSH2 0x1A5F JUMPI DUP3 DUP8 ADD MLOAD SWAP1 POP JUMPDEST PUSH2 0x1A69 DUP6 DUP3 PUSH2 0x19EE JUMP JUMPDEST DUP7 SSTORE POP PUSH2 0x1AD0 JUMP JUMPDEST PUSH1 0x1F NOT DUP5 AND PUSH2 0x1A7F DUP7 PUSH2 0x186C JUMP JUMPDEST PUSH0 JUMPDEST DUP3 DUP2 LT ISZERO PUSH2 0x1AA6 JUMPI DUP5 DUP10 ADD MLOAD DUP3 SSTORE PUSH1 0x1 DUP3 ADD SWAP2 POP PUSH1 0x20 DUP6 ADD SWAP5 POP PUSH1 0x20 DUP2 ADD SWAP1 POP PUSH2 0x1A81 JUMP JUMPDEST DUP7 DUP4 LT ISZERO PUSH2 0x1AC3 JUMPI DUP5 DUP10 ADD MLOAD PUSH2 0x1ABF PUSH1 0x1F DUP10 AND DUP3 PUSH2 0x19D2 JUMP JUMPDEST DUP4 SSTORE POP JUMPDEST PUSH1 0x1 PUSH1 0x2 DUP9 MUL ADD DUP9 SSTORE POP POP POP JUMPDEST POP POP POP POP POP POP JUMP JUMPDEST PUSH2 0x1AE1 DUP2 PUSH2 0x1521 JUMP JUMPDEST DUP3 MSTORE POP POP JUMP JUMPDEST PUSH0 PUSH1 0x20 DUP3 ADD SWAP1 POP PUSH2 0x1AFA PUSH0 DUP4 ADD DUP5 PUSH2 0x1AD8 JUMP JUMPDEST SWAP3 SWAP2 POP POP JUMP JUMPDEST PUSH32 0x3430340000000000000000000000000000000000000000000000000000000000 PUSH0 DUP3 ADD MSTORE POP JUMP JUMPDEST PUSH0 PUSH2 0x1B34 PUSH1 0x3 DUP4 PUSH2 0x1797 JUMP JUMPDEST SWAP2 POP PUSH2 0x1B3F DUP3 PUSH2 0x1B00 JUMP JUMPDEST PUSH1 0x20 DUP3 ADD SWAP1 POP SWAP2 SWAP1 POP JUMP JUMPDEST PUSH0 PUSH1 0x20 DUP3 ADD SWAP1 POP DUP2 DUP2 SUB PUSH0 DUP4 ADD MSTORE PUSH2 0x1B61 DUP2 PUSH2 0x1B28 JUMP JUMPDEST SWAP1 POP SWAP2 SWAP1 POP JUMP JUMPDEST PUSH32 0x4E487B7100000000000000000000000000000000000000000000000000000000 PUSH0 MSTORE PUSH1 0x32 PUSH1 0x4 MSTORE PUSH1 0x24 PUSH0 REVERT JUMPDEST PUSH32 0x4E487B7100000000000000000000000000000000000000000000000000000000 PUSH0 MSTORE PUSH1 0x11 PUSH1 0x4 MSTORE PUSH1 0x24 PUSH0 REVERT JUMPDEST PUSH0 PUSH2 0x1BCC DUP3 PUSH2 0x1521 JUMP JUMPDEST SWAP2 POP PUSH2 0x1BD7 DUP4 PUSH2 0x1521 JUMP JUMPDEST SWAP3 POP DUP3 DUP3 SUB SWAP1 POP DUP2 DUP2 GT ISZERO PUSH2 0x1BEF JUMPI PUSH2 0x1BEE PUSH2 0x1B95 JUMP JUMPDEST JUMPDEST SWAP3 SWAP2 POP POP JUMP JUMPDEST PUSH0 PUSH2 0x1BFF DUP3 PUSH2 0x1521 JUMP JUMPDEST SWAP2 POP PUSH2 0x1C0A DUP4 PUSH2 0x1521 JUMP JUMPDEST SWAP3 POP DUP3 DUP3 ADD SWAP1 POP DUP1 DUP3 GT ISZERO PUSH2 0x1C22 JUMPI PUSH2 0x1C21 PUSH2 0x1B95 JUMP JUMPDEST JUMPDEST SWAP3 SWAP2 POP POP JUMP JUMPDEST PUSH32 0x4E487B7100000000000000000000000000000000000000000000000000000000 PUSH0 MSTORE PUSH1 0x31 PUSH1 0x4 MSTORE PUSH1 0x24 PUSH0 REVERT INVALID LOG2 PUSH5 0x6970667358 0x22 SLT KECCAK256 0xBE 0xB2 PUSH14 0x54E296F204D69D1E648544625FD4 DIV CALLDATASIZE 0xE4 JUMPDEST 0xB7 SSTORE DUP7 EQ 0x28 SAR BASEFEE PUSH17 0xB09CC664736F6C634300081A0033000000 "
				},
				"gasEstimates": {
					"creation": {
						"codeDepositCost": "1461400",
						"executionCost": "infinite",
						"totalCost": "infinite"
					},
					"external": {
						"getMessages()": "infinite",
						"getParent()": "6906",
						"getSharedWith()": "infinite",
						"isOwn()": "4756",
						"isSharedWith()": "infinite",
						"item_type()": "2555",
						"restictFrom(address)": "infinite",
						"sendMessage(string)": "infinite",
						"setName(string)": "infinite",
						"shareWith(address)": "infinite"
					}
				},
				"methodIdentifiers": {
					"getMessages()": "5ff6cbf3",
					"getParent()": "80f76021",
					"getSharedWith()": "a95264d0",
					"isOwn()": "b9daf3e2",
					"isSharedWith()": "4ba83374",
					"item_type()": "26c7b327",
					"restictFrom(address)": "ded92dac",
					"sendMessage(string)": "469c8110",
					"setName(string)": "c47f0027",
					"shareWith(address)": "5da6ef8d"
				}
			},
			"storageLayout": {
				"storage": [
					{
						"astId": 141,
						"contract": "./Items/Chat.sol:Chat",
						"label": "name",
						"offset": 0,
						"slot": "0",
						"type": "t_string_storage"
					},
					{
						"astId": 144,
						"contract": "./Items/Chat.sol:Chat",
						"label": "item_type",
						"offset": 0,
						"slot": "1",
						"type": "t_enum(Type)507"
					},
					{
						"astId": 146,
						"contract": "./Items/Chat.sol:Chat",
						"label": "owner",
						"offset": 1,
						"slot": "1",
						"type": "t_address"
					},
					{
						"astId": 148,
						"contract": "./Items/Chat.sol:Chat",
						"label": "parent",
						"offset": 0,
						"slot": "2",
						"type": "t_address"
					},
					{
						"astId": 151,
						"contract": "./Items/Chat.sol:Chat",
						"label": "sharedWith",
						"offset": 0,
						"slot": "3",
						"type": "t_array(t_address)dyn_storage"
					},
					{
						"astId": 29,
						"contract": "./Items/Chat.sol:Chat",
						"label": "guest",
						"offset": 0,
						"slot": "4",
						"type": "t_address"
					},
					{
						"astId": 40,
						"contract": "./Items/Chat.sol:Chat",
						"label": "messages",
						"offset": 0,
						"slot": "5",
						"type": "t_array(t_struct(Message)36_storage)dyn_storage"
					}
				],
				"types": {
					"t_address": {
						"encoding": "inplace",
						"label": "address",
						"numberOfBytes": "20"
					},
					"t_array(t_address)dyn_storage": {
						"base": "t_address",
						"encoding": "dynamic_array",
						"label": "address[]",
						"numberOfBytes": "32"
					},
					"t_array(t_struct(Message)36_storage)dyn_storage": {
						"base": "t_struct(Message)36_storage",
						"encoding": "dynamic_array",
						"label": "struct Chat.Message[]",
						"numberOfBytes": "32"
					},
					"t_enum(Type)507": {
						"encoding": "inplace",
						"label": "enum ItemTypes.Type",
						"numberOfBytes": "1"
					},
					"t_string_storage": {
						"encoding": "bytes",
						"label": "string",
						"numberOfBytes": "32"
					},
					"t_struct(Message)36_storage": {
						"encoding": "inplace",
						"label": "struct Chat.Message",
						"members": [
							{
								"astId": 31,
								"contract": "./Items/Chat.sol:Chat",
								"label": "timestamp",
								"offset": 0,
								"slot": "0",
								"type": "t_uint256"
							},
							{
								"astId": 33,
								"contract": "./Items/Chat.sol:Chat",
								"label": "text",
								"offset": 0,
								"slot": "1",
								"type": "t_string_storage"
							},
							{
								"astId": 35,
								"contract": "./Items/Chat.sol:Chat",
								"label": "author",
								"offset": 0,
								"slot": "2",
								"type": "t_address"
							}
						],
						"numberOfBytes": "96"
					},
					"t_uint256": {
						"encoding": "inplace",
						"label": "uint256",
						"numberOfBytes": "32"
					}
				}
			},
			"userdoc": {
				"kind": "user",
				"methods": {},
				"version": 1
			}
		}
	}
}