{
	"Items/LoyalityCard.sol": {
		"LoyalityCard": {
			"abi": [
				{
					"inputs": [
						{
							"internalType": "string",
							"name": "_name",
							"type": "string"
						},
						{
							"internalType": "string",
							"name": "_card_id",
							"type": "string"
						},
						{
							"internalType": "address",
							"name": "_owner",
							"type": "address"
						},
						{
							"internalType": "address",
							"name": "_parent",
							"type": "address"
						}
					],
					"stateMutability": "nonpayable",
					"type": "constructor"
				},
				{
					"anonymous": false,
					"inputs": [
						{
							"indexed": false,
							"internalType": "address",
							"name": "",
							"type": "address"
						}
					],
					"name": "AddedToOrganisation",
					"type": "event"
				},
				{
					"anonymous": false,
					"inputs": [
						{
							"indexed": false,
							"internalType": "address",
							"name": "",
							"type": "address"
						}
					],
					"name": "Created",
					"type": "event"
				},
				{
					"anonymous": false,
					"inputs": [
						{
							"indexed": false,
							"internalType": "address",
							"name": "",
							"type": "address"
						}
					],
					"name": "RemovedFromOrganisation",
					"type": "event"
				},
				{
					"anonymous": false,
					"inputs": [
						{
							"indexed": false,
							"internalType": "address",
							"name": "",
							"type": "address"
						}
					],
					"name": "Updated",
					"type": "event"
				},
				{
					"inputs": [],
					"name": "expose",
					"outputs": [
						{
							"internalType": "string",
							"name": "",
							"type": "string"
						},
						{
							"internalType": "string",
							"name": "",
							"type": "string"
						}
					],
					"stateMutability": "view",
					"type": "function"
				},
				{
					"inputs": [],
					"name": "getItemType",
					"outputs": [
						{
							"internalType": "enum Constants.ItemType",
							"name": "",
							"type": "uint8"
						}
					],
					"stateMutability": "view",
					"type": "function"
				},
				{
					"inputs": [],
					"name": "getParent",
					"outputs": [
						{
							"internalType": "address",
							"name": "",
							"type": "address"
						}
					],
					"stateMutability": "view",
					"type": "function"
				},
				{
					"inputs": [
						{
							"internalType": "string",
							"name": "_card_id",
							"type": "string"
						}
					],
					"name": "setCardId",
					"outputs": [],
					"stateMutability": "nonpayable",
					"type": "function"
				},
				{
					"inputs": [
						{
							"internalType": "string",
							"name": "_name",
							"type": "string"
						},
						{
							"internalType": "string",
							"name": "_card_id",
							"type": "string"
						}
					],
					"name": "setItem",
					"outputs": [],
					"stateMutability": "nonpayable",
					"type": "function"
				},
				{
					"inputs": [
						{
							"internalType": "string",
							"name": "_name",
							"type": "string"
						}
					],
					"name": "setName",
					"outputs": [],
					"stateMutability": "nonpayable",
					"type": "function"
				},
				{
					"inputs": [
						{
							"internalType": "address",
							"name": "_parnet",
							"type": "address"
						}
					],
					"name": "setParent",
					"outputs": [],
					"stateMutability": "nonpayable",
					"type": "function"
				}
			],
			"devdoc": {
				"kind": "dev",
				"methods": {},
				"version": 1
			},
			"evm": {
				"assembly": "    /* \"Items/LoyalityCard.sol\":137:1053  contract LoyalityCard is VaultItem{... */\n  mstore(0x40, 0x80)\n    /* \"Items/LoyalityCard.sol\":203:581  constructor(... */\n  callvalue\n  dup1\n  iszero\n  tag_1\n  jumpi\n  0x00\n  dup1\n  revert\ntag_1:\n  pop\n  mload(0x40)\n  sub(codesize, bytecodeSize)\n  dup1\n  bytecodeSize\n  dup4\n  codecopy\n  dup2\n  add\n  0x40\n  dup2\n  swap1\n  mstore\n  tag_2\n  swap2\n  tag_3\n  jump\t// in\ntag_2:\n    /* \"Items/LoyalityCard.sol\":357:362  _name */\n  dup4\n    /* \"Items/LoyalityCard.sol\":373:405  Constants.ItemType.LOYALITY_CARD */\n  0x00\n    /* \"Items/LoyalityCard.sol\":416:422  _owner */\n  dup4\n    /* \"Items/LoyalityCard.sol\":433:440  _parent */\n  dup4\n    /* \"Items/LoyalityCard.sol\":373:405  Constants.ItemType.LOYALITY_CARD */\n  dup3\n    /* \"Items/VaultItem.sol\":561:573  name = _name */\n  tag_7\n    /* \"Items/LoyalityCard.sol\":357:362  _name */\n  dup6\n    /* \"Items/LoyalityCard.sol\":373:405  Constants.ItemType.LOYALITY_CARD */\n  dup3\n    /* \"Items/VaultItem.sol\":561:573  name = _name */\n  tag_8\n  jump\t// in\ntag_7:\n  pop\n    /* \"Items/VaultItem.sol\":584:593  item_type */\n  0x01\n    /* \"Items/VaultItem.sol\":584:606  item_type = _item_type */\n  dup1\n  sload\n    /* \"Items/VaultItem.sol\":596:606  _item_type */\n  dup5\n  swap2\n    /* \"Items/VaultItem.sol\":584:593  item_type */\n  swap1\n  not(0xff)\n    /* \"Items/VaultItem.sol\":584:606  item_type = _item_type */\n  and\n    /* \"Items/VaultItem.sol\":584:593  item_type */\n  dup2\n    /* \"Items/VaultItem.sol\":596:606  _item_type */\n  dup4\n    /* \"Items/VaultItem.sol\":584:606  item_type = _item_type */\n  0x02\n  dup2\n  gt\n  iszero\n  tag_10\n  jumpi\n  tag_10\n  tag_11\n  jump\t// in\ntag_10:\n  mul\n  or\n  swap1\n  sstore\n  pop\n    /* \"Items/VaultItem.sol\":619:624  owner */\n  0x01\n    /* \"Items/VaultItem.sol\":619:633  owner = _owner */\n  dup1\n  sload\n  not(sub(shl(0xa8, 0x01), 0x0100))\n  and\n  0x0100\n  sub(shl(0xa0, 0x01), 0x01)\n  swap5\n  dup6\n  and\n  mul\n  or\n  swap1\n  sstore\n    /* \"Items/VaultItem.sol\":644:650  parent */\n  0x02\n    /* \"Items/VaultItem.sol\":644:660  parent = _parent */\n  dup1\n  sload\n  not(sub(shl(0xa0, 0x01), 0x01))\n  and\n  swap2\n  swap1\n  swap3\n  and\n  or\n  swap1\n  sstore\n  pop\n    /* \"Items/LoyalityCard.sol\":460:467  card_id */\n  0x03\n  swap1\n  pop\n    /* \"Items/LoyalityCard.sol\":460:478  card_id = _card_id */\n  tag_13\n    /* \"Items/LoyalityCard.sol\":470:478  _card_id */\n  dup5\n    /* \"Items/LoyalityCard.sol\":460:467  card_id */\n  dup3\n    /* \"Items/LoyalityCard.sol\":460:478  card_id = _card_id */\n  tag_8\n  jump\t// in\ntag_13:\n  pop\n    /* \"Items/LoyalityCard.sol\":495:500  owner */\n  0x01\n    /* \"Items/LoyalityCard.sol\":495:509  owner = _owner */\n  dup1\n  sload\n  not(sub(shl(0xa8, 0x01), 0x0100))\n  and\n  0x0100\n  sub(shl(0xa0, 0x01), 0x01)\n  dup6\n  dup2\n  and\n  swap2\n  swap1\n  swap2\n  mul\n  swap2\n  swap1\n  swap2\n  or\n  swap1\n  swap2\n  sstore\n    /* \"Items/LoyalityCard.sol\":520:526  parent */\n  0x02\n    /* \"Items/LoyalityCard.sol\":520:536  parent = _parent */\n  dup1\n  sload\n  not(sub(shl(0xa0, 0x01), 0x01))\n  and\n  swap2\n  dup4\n  and\n  swap2\n  swap1\n  swap2\n  or\n  swap1\n  sstore\n    /* \"Items/LoyalityCard.sol\":554:573  Created(msg.sender) */\n  mload(0x40)\n    /* \"Items/LoyalityCard.sol\":562:572  msg.sender */\n  caller\n    /* \"#utility.yul\":4576:4627   */\n  dup2\n  mstore\n    /* \"Items/LoyalityCard.sol\":554:573  Created(msg.sender) */\n  0x1449abf21e49fd025f33495e77f7b1461caefdd3d4bb646424a3f445c4576a5b\n  swap1\n    /* \"#utility.yul\":4564:4566   */\n  0x20\n    /* \"#utility.yul\":4549:4567   */\n  add\n    /* \"Items/LoyalityCard.sol\":554:573  Created(msg.sender) */\n  mload(0x40)\n  dup1\n  swap2\n  sub\n  swap1\n  log1\n    /* \"Items/LoyalityCard.sol\":203:581  constructor(... */\n  pop\n  pop\n  pop\n  pop\n    /* \"Items/LoyalityCard.sol\":137:1053  contract LoyalityCard is VaultItem{... */\n  jump(tag_24)\n    /* \"#utility.yul\":14:141   */\ntag_17:\n    /* \"#utility.yul\":75:85   */\n  0x4e487b71\n    /* \"#utility.yul\":70:73   */\n  0xe0\n    /* \"#utility.yul\":66:86   */\n  shl\n    /* \"#utility.yul\":63:64   */\n  0x00\n    /* \"#utility.yul\":56:87   */\n  mstore\n    /* \"#utility.yul\":106:110   */\n  0x41\n    /* \"#utility.yul\":103:104   */\n  0x04\n    /* \"#utility.yul\":96:111   */\n  mstore\n    /* \"#utility.yul\":130:134   */\n  0x24\n    /* \"#utility.yul\":127:128   */\n  0x00\n    /* \"#utility.yul\":120:135   */\n  revert\n    /* \"#utility.yul\":146:869   */\ntag_18:\n    /* \"#utility.yul\":200:205   */\n  0x00\n    /* \"#utility.yul\":253:256   */\n  dup3\n    /* \"#utility.yul\":246:250   */\n  0x1f\n    /* \"#utility.yul\":238:244   */\n  dup4\n    /* \"#utility.yul\":234:251   */\n  add\n    /* \"#utility.yul\":230:257   */\n  slt\n    /* \"#utility.yul\":220:275   */\n  tag_27\n  jumpi\n    /* \"#utility.yul\":271:272   */\n  0x00\n    /* \"#utility.yul\":268:269   */\n  dup1\n    /* \"#utility.yul\":261:273   */\n  revert\n    /* \"#utility.yul\":220:275   */\ntag_27:\n    /* \"#utility.yul\":298:311   */\n  dup2\n  mload\n  sub(shl(0x40, 0x01), 0x01)\n    /* \"#utility.yul\":323:353   */\n  dup2\n  gt\n    /* \"#utility.yul\":320:376   */\n  iszero\n  tag_29\n  jumpi\n    /* \"#utility.yul\":356:374   */\n  tag_29\n  tag_17\n  jump\t// in\ntag_29:\n    /* \"#utility.yul\":405:407   */\n  0x40\n    /* \"#utility.yul\":399:408   */\n  mload\n    /* \"#utility.yul\":497:499   */\n  0x1f\n    /* \"#utility.yul\":459:476   */\n  dup3\n  add\n  not(0x1f)\n    /* \"#utility.yul\":455:486   */\n  swap1\n  dup2\n  and\n    /* \"#utility.yul\":488:490   */\n  0x3f\n    /* \"#utility.yul\":451:491   */\n  add\n    /* \"#utility.yul\":447:501   */\n  and\n    /* \"#utility.yul\":435:502   */\n  dup2\n  add\n  sub(shl(0x40, 0x01), 0x01)\n    /* \"#utility.yul\":517:551   */\n  dup2\n  gt\n    /* \"#utility.yul\":553:575   */\n  dup3\n  dup3\n  lt\n    /* \"#utility.yul\":514:576   */\n  or\n    /* \"#utility.yul\":511:599   */\n  iszero\n  tag_31\n  jumpi\n    /* \"#utility.yul\":579:597   */\n  tag_31\n  tag_17\n  jump\t// in\ntag_31:\n    /* \"#utility.yul\":615:617   */\n  0x40\n    /* \"#utility.yul\":608:630   */\n  mstore\n    /* \"#utility.yul\":639:661   */\n  dup2\n  dup2\n  mstore\n    /* \"#utility.yul\":680:699   */\n  dup4\n  dup3\n  add\n    /* \"#utility.yul\":701:705   */\n  0x20\n    /* \"#utility.yul\":676:706   */\n  add\n    /* \"#utility.yul\":673:712   */\n  dup6\n  lt\n    /* \"#utility.yul\":670:729   */\n  iszero\n  tag_32\n  jumpi\n    /* \"#utility.yul\":725:726   */\n  0x00\n    /* \"#utility.yul\":722:723   */\n  dup1\n    /* \"#utility.yul\":715:727   */\n  revert\n    /* \"#utility.yul\":670:729   */\ntag_32:\n    /* \"#utility.yul\":782:788   */\n  dup2\n    /* \"#utility.yul\":775:779   */\n  0x20\n    /* \"#utility.yul\":767:773   */\n  dup6\n    /* \"#utility.yul\":763:780   */\n  add\n    /* \"#utility.yul\":756:760   */\n  0x20\n    /* \"#utility.yul\":748:754   */\n  dup4\n    /* \"#utility.yul\":744:761   */\n  add\n    /* \"#utility.yul\":738:789   */\n  mcopy\n    /* \"#utility.yul\":837:838   */\n  0x00\n    /* \"#utility.yul\":809:828   */\n  swap2\n  dup2\n  add\n    /* \"#utility.yul\":830:834   */\n  0x20\n    /* \"#utility.yul\":805:835   */\n  add\n    /* \"#utility.yul\":798:839   */\n  swap2\n  swap1\n  swap2\n  mstore\n    /* \"#utility.yul\":813:819   */\n  swap4\n    /* \"#utility.yul\":146:869   */\n  swap3\n  pop\n  pop\n  pop\n  jump\t// out\n    /* \"#utility.yul\":874:1051   */\ntag_19:\n    /* \"#utility.yul\":953:966   */\n  dup1\n  mload\n  sub(shl(0xa0, 0x01), 0x01)\n    /* \"#utility.yul\":995:1026   */\n  dup2\n  and\n    /* \"#utility.yul\":985:1027   */\n  dup2\n  eq\n    /* \"#utility.yul\":975:1045   */\n  tag_34\n  jumpi\n    /* \"#utility.yul\":1041:1042   */\n  0x00\n    /* \"#utility.yul\":1038:1039   */\n  dup1\n    /* \"#utility.yul\":1031:1043   */\n  revert\n    /* \"#utility.yul\":975:1045   */\ntag_34:\n    /* \"#utility.yul\":874:1051   */\n  swap2\n  swap1\n  pop\n  jump\t// out\n    /* \"#utility.yul\":1056:1784   */\ntag_3:\n    /* \"#utility.yul\":1173:1179   */\n  0x00\n    /* \"#utility.yul\":1181:1187   */\n  dup1\n    /* \"#utility.yul\":1189:1195   */\n  0x00\n    /* \"#utility.yul\":1197:1203   */\n  dup1\n    /* \"#utility.yul\":1250:1253   */\n  0x80\n    /* \"#utility.yul\":1238:1247   */\n  dup6\n    /* \"#utility.yul\":1229:1236   */\n  dup8\n    /* \"#utility.yul\":1225:1248   */\n  sub\n    /* \"#utility.yul\":1221:1254   */\n  slt\n    /* \"#utility.yul\":1218:1271   */\n  iszero\n  tag_36\n  jumpi\n    /* \"#utility.yul\":1267:1268   */\n  0x00\n    /* \"#utility.yul\":1264:1265   */\n  dup1\n    /* \"#utility.yul\":1257:1269   */\n  revert\n    /* \"#utility.yul\":1218:1271   */\ntag_36:\n    /* \"#utility.yul\":1294:1310   */\n  dup5\n  mload\n  sub(shl(0x40, 0x01), 0x01)\n    /* \"#utility.yul\":1322:1352   */\n  dup2\n  gt\n    /* \"#utility.yul\":1319:1369   */\n  iszero\n  tag_37\n  jumpi\n    /* \"#utility.yul\":1365:1366   */\n  0x00\n    /* \"#utility.yul\":1362:1363   */\n  dup1\n    /* \"#utility.yul\":1355:1367   */\n  revert\n    /* \"#utility.yul\":1319:1369   */\ntag_37:\n    /* \"#utility.yul\":1388:1449   */\n  tag_38\n    /* \"#utility.yul\":1441:1448   */\n  dup8\n    /* \"#utility.yul\":1432:1438   */\n  dup3\n    /* \"#utility.yul\":1421:1430   */\n  dup9\n    /* \"#utility.yul\":1417:1439   */\n  add\n    /* \"#utility.yul\":1388:1449   */\n  tag_18\n  jump\t// in\ntag_38:\n    /* \"#utility.yul\":1495:1497   */\n  0x20\n    /* \"#utility.yul\":1480:1498   */\n  dup8\n  add\n    /* \"#utility.yul\":1474:1499   */\n  mload\n    /* \"#utility.yul\":1378:1449   */\n  swap1\n  swap6\n  pop\n    /* \"#utility.yul\":1474:1499   */\n  swap1\n  pop\n  sub(shl(0x40, 0x01), 0x01)\n    /* \"#utility.yul\":1511:1543   */\n  dup2\n  gt\n    /* \"#utility.yul\":1508:1560   */\n  iszero\n  tag_39\n  jumpi\n    /* \"#utility.yul\":1556:1557   */\n  0x00\n    /* \"#utility.yul\":1553:1554   */\n  dup1\n    /* \"#utility.yul\":1546:1558   */\n  revert\n    /* \"#utility.yul\":1508:1560   */\ntag_39:\n    /* \"#utility.yul\":1579:1642   */\n  tag_40\n    /* \"#utility.yul\":1634:1641   */\n  dup8\n    /* \"#utility.yul\":1623:1631   */\n  dup3\n    /* \"#utility.yul\":1612:1621   */\n  dup9\n    /* \"#utility.yul\":1608:1632   */\n  add\n    /* \"#utility.yul\":1579:1642   */\n  tag_18\n  jump\t// in\ntag_40:\n    /* \"#utility.yul\":1569:1642   */\n  swap4\n  pop\n  pop\n    /* \"#utility.yul\":1661:1710   */\n  tag_41\n    /* \"#utility.yul\":1706:1708   */\n  0x40\n    /* \"#utility.yul\":1695:1704   */\n  dup7\n    /* \"#utility.yul\":1691:1709   */\n  add\n    /* \"#utility.yul\":1661:1710   */\n  tag_19\n  jump\t// in\ntag_41:\n    /* \"#utility.yul\":1651:1710   */\n  swap2\n  pop\n    /* \"#utility.yul\":1729:1778   */\n  tag_42\n    /* \"#utility.yul\":1774:1776   */\n  0x60\n    /* \"#utility.yul\":1763:1772   */\n  dup7\n    /* \"#utility.yul\":1759:1777   */\n  add\n    /* \"#utility.yul\":1729:1778   */\n  tag_19\n  jump\t// in\ntag_42:\n    /* \"#utility.yul\":1719:1778   */\n  swap1\n  pop\n    /* \"#utility.yul\":1056:1784   */\n  swap3\n  swap6\n  swap2\n  swap5\n  pop\n  swap3\n  pop\n  jump\t// out\n    /* \"#utility.yul\":1789:2169   */\ntag_20:\n    /* \"#utility.yul\":1868:1869   */\n  0x01\n    /* \"#utility.yul\":1864:1876   */\n  dup2\n  dup2\n  shr\n  swap1\n    /* \"#utility.yul\":1911:1923   */\n  dup3\n  and\n  dup1\n    /* \"#utility.yul\":1932:1993   */\n  tag_44\n  jumpi\n    /* \"#utility.yul\":1986:1990   */\n  0x7f\n    /* \"#utility.yul\":1978:1984   */\n  dup3\n    /* \"#utility.yul\":1974:1991   */\n  and\n    /* \"#utility.yul\":1964:1991   */\n  swap2\n  pop\n    /* \"#utility.yul\":1932:1993   */\ntag_44:\n    /* \"#utility.yul\":2039:2041   */\n  0x20\n    /* \"#utility.yul\":2031:2037   */\n  dup3\n    /* \"#utility.yul\":2028:2042   */\n  lt\n    /* \"#utility.yul\":2008:2026   */\n  dup2\n    /* \"#utility.yul\":2005:2043   */\n  sub\n    /* \"#utility.yul\":2002:2163   */\n  tag_45\n  jumpi\n    /* \"#utility.yul\":2085:2095   */\n  0x4e487b71\n    /* \"#utility.yul\":2080:2083   */\n  0xe0\n    /* \"#utility.yul\":2076:2096   */\n  shl\n    /* \"#utility.yul\":2073:2074   */\n  0x00\n    /* \"#utility.yul\":2066:2097   */\n  mstore\n    /* \"#utility.yul\":2120:2124   */\n  0x22\n    /* \"#utility.yul\":2117:2118   */\n  0x04\n    /* \"#utility.yul\":2110:2125   */\n  mstore\n    /* \"#utility.yul\":2148:2152   */\n  0x24\n    /* \"#utility.yul\":2145:2146   */\n  0x00\n    /* \"#utility.yul\":2138:2153   */\n  revert\n    /* \"#utility.yul\":2002:2163   */\ntag_45:\n  pop\n    /* \"#utility.yul\":1789:2169   */\n  swap2\n  swap1\n  pop\n  jump\t// out\n    /* \"#utility.yul\":2300:2818   */\ntag_22:\n    /* \"#utility.yul\":2402:2404   */\n  0x1f\n    /* \"#utility.yul\":2397:2400   */\n  dup3\n    /* \"#utility.yul\":2394:2405   */\n  gt\n    /* \"#utility.yul\":2391:2812   */\n  iszero\n  tag_48\n  jumpi\n    /* \"#utility.yul\":2438:2443   */\n  dup1\n    /* \"#utility.yul\":2435:2436   */\n  0x00\n    /* \"#utility.yul\":2428:2444   */\n  mstore\n    /* \"#utility.yul\":2482:2486   */\n  0x20\n    /* \"#utility.yul\":2479:2480   */\n  0x00\n    /* \"#utility.yul\":2469:2487   */\n  keccak256\n    /* \"#utility.yul\":2552:2554   */\n  0x1f\n    /* \"#utility.yul\":2540:2550   */\n  dup5\n    /* \"#utility.yul\":2536:2555   */\n  add\n    /* \"#utility.yul\":2533:2534   */\n  0x05\n    /* \"#utility.yul\":2529:2556   */\n  shr\n    /* \"#utility.yul\":2523:2527   */\n  dup2\n    /* \"#utility.yul\":2519:2557   */\n  add\n    /* \"#utility.yul\":2588:2592   */\n  0x20\n    /* \"#utility.yul\":2576:2586   */\n  dup6\n    /* \"#utility.yul\":2573:2593   */\n  lt\n    /* \"#utility.yul\":2570:2617   */\n  iszero\n  tag_49\n  jumpi\n  pop\n    /* \"#utility.yul\":2611:2615   */\n  dup1\n    /* \"#utility.yul\":2570:2617   */\ntag_49:\n    /* \"#utility.yul\":2666:2668   */\n  0x1f\n    /* \"#utility.yul\":2661:2664   */\n  dup5\n    /* \"#utility.yul\":2657:2669   */\n  add\n    /* \"#utility.yul\":2654:2655   */\n  0x05\n    /* \"#utility.yul\":2650:2670   */\n  shr\n    /* \"#utility.yul\":2644:2648   */\n  dup3\n    /* \"#utility.yul\":2640:2671   */\n  add\n    /* \"#utility.yul\":2630:2671   */\n  swap2\n  pop\n    /* \"#utility.yul\":2721:2802   */\ntag_50:\n    /* \"#utility.yul\":2739:2741   */\n  dup2\n    /* \"#utility.yul\":2732:2737   */\n  dup2\n    /* \"#utility.yul\":2729:2742   */\n  lt\n    /* \"#utility.yul\":2721:2802   */\n  iszero\n  tag_52\n  jumpi\n    /* \"#utility.yul\":2798:2799   */\n  0x00\n    /* \"#utility.yul\":2784:2800   */\n  dup2\n  sstore\n    /* \"#utility.yul\":2765:2766   */\n  0x01\n    /* \"#utility.yul\":2754:2767   */\n  add\n    /* \"#utility.yul\":2721:2802   */\n  jump(tag_50)\ntag_52:\n    /* \"#utility.yul\":2725:2728   */\n  pop\n  pop\n    /* \"#utility.yul\":2391:2812   */\ntag_48:\n    /* \"#utility.yul\":2300:2818   */\n  pop\n  pop\n  pop\n  jump\t// out\n    /* \"#utility.yul\":2994:4293   */\ntag_8:\n    /* \"#utility.yul\":3114:3124   */\n  dup2\n  mload\n  sub(shl(0x40, 0x01), 0x01)\n    /* \"#utility.yul\":3136:3166   */\n  dup2\n  gt\n    /* \"#utility.yul\":3133:3189   */\n  iszero\n  tag_56\n  jumpi\n    /* \"#utility.yul\":3169:3187   */\n  tag_56\n  tag_17\n  jump\t// in\ntag_56:\n    /* \"#utility.yul\":3198:3295   */\n  tag_57\n    /* \"#utility.yul\":3288:3294   */\n  dup2\n    /* \"#utility.yul\":3248:3286   */\n  tag_58\n    /* \"#utility.yul\":3280:3284   */\n  dup5\n    /* \"#utility.yul\":3274:3285   */\n  sload\n    /* \"#utility.yul\":3248:3286   */\n  tag_20\n  jump\t// in\ntag_58:\n    /* \"#utility.yul\":3242:3246   */\n  dup5\n    /* \"#utility.yul\":3198:3295   */\n  tag_22\n  jump\t// in\ntag_57:\n    /* \"#utility.yul\":3344:3348   */\n  0x20\n    /* \"#utility.yul\":3375:3377   */\n  0x1f\n    /* \"#utility.yul\":3364:3378   */\n  dup3\n  gt\n    /* \"#utility.yul\":3392:3393   */\n  0x01\n    /* \"#utility.yul\":3387:4036   */\n  dup2\n  eq\n  tag_60\n  jumpi\n    /* \"#utility.yul\":4080:4081   */\n  0x00\n    /* \"#utility.yul\":4097:4103   */\n  dup4\n    /* \"#utility.yul\":4094:4183   */\n  iszero\n  tag_61\n  jumpi\n  pop\n    /* \"#utility.yul\":4149:4168   */\n  dup5\n  dup3\n  add\n    /* \"#utility.yul\":4143:4169   */\n  mload\n    /* \"#utility.yul\":4094:4183   */\ntag_61:\n  not(0x00)\n    /* \"#utility.yul\":2951:2952   */\n  0x03\n    /* \"#utility.yul\":2947:2958   */\n  dup6\n  swap1\n  shl\n    /* \"#utility.yul\":2943:2967   */\n  shr\n    /* \"#utility.yul\":2939:2968   */\n  not\n    /* \"#utility.yul\":2929:2969   */\n  and\n    /* \"#utility.yul\":2975:2976   */\n  0x01\n    /* \"#utility.yul\":2971:2982   */\n  dup5\n  swap1\n  shl\n    /* \"#utility.yul\":2926:2983   */\n  or\n    /* \"#utility.yul\":4196:4277   */\n  dup5\n  sstore\n    /* \"#utility.yul\":3357:4287   */\n  jump(tag_52)\n    /* \"#utility.yul\":3387:4036   */\ntag_60:\n    /* \"#utility.yul\":2247:2248   */\n  0x00\n    /* \"#utility.yul\":2240:2254   */\n  dup5\n  dup2\n  mstore\n    /* \"#utility.yul\":2284:2288   */\n  0x20\n    /* \"#utility.yul\":2271:2289   */\n  dup2\n  keccak256\n  not(0x1f)\n    /* \"#utility.yul\":3423:3443   */\n  dup6\n  and\n  swap2\n    /* \"#utility.yul\":3541:3763   */\ntag_64:\n    /* \"#utility.yul\":3555:3562   */\n  dup3\n    /* \"#utility.yul\":3552:3553   */\n  dup2\n    /* \"#utility.yul\":3549:3563   */\n  lt\n    /* \"#utility.yul\":3541:3763   */\n  iszero\n  tag_66\n  jumpi\n    /* \"#utility.yul\":3637:3656   */\n  dup8\n  dup6\n  add\n    /* \"#utility.yul\":3631:3657   */\n  mload\n    /* \"#utility.yul\":3616:3658   */\n  dup3\n  sstore\n    /* \"#utility.yul\":3744:3748   */\n  0x20\n    /* \"#utility.yul\":3729:3749   */\n  swap5\n  dup6\n  add\n  swap5\n    /* \"#utility.yul\":3697:3698   */\n  0x01\n    /* \"#utility.yul\":3685:3699   */\n  swap1\n  swap3\n  add\n  swap2\n    /* \"#utility.yul\":3571:3583   */\n  add\n    /* \"#utility.yul\":3541:3763   */\n  jump(tag_64)\ntag_66:\n    /* \"#utility.yul\":3545:3548   */\n  pop\n    /* \"#utility.yul\":3791:3797   */\n  dup5\n    /* \"#utility.yul\":3782:3789   */\n  dup3\n    /* \"#utility.yul\":3779:3798   */\n  lt\n    /* \"#utility.yul\":3776:3977   */\n  iszero\n  tag_67\n  jumpi\n    /* \"#utility.yul\":3852:3871   */\n  dup7\n  dup5\n  add\n    /* \"#utility.yul\":3846:3872   */\n  mload\n  not(0x00)\n    /* \"#utility.yul\":3935:3936   */\n  0x03\n    /* \"#utility.yul\":3931:3945   */\n  dup8\n  swap1\n  shl\n    /* \"#utility.yul\":3947:3950   */\n  0xf8\n    /* \"#utility.yul\":3927:3951   */\n  and\n    /* \"#utility.yul\":3923:3960   */\n  shr\n    /* \"#utility.yul\":3919:3961   */\n  not\n    /* \"#utility.yul\":3904:3962   */\n  and\n    /* \"#utility.yul\":3889:3963   */\n  dup2\n  sstore\n    /* \"#utility.yul\":3776:3977   */\ntag_67:\n  pop\n  pop\n  pop\n  pop\n    /* \"#utility.yul\":4023:4024   */\n  0x01\n    /* \"#utility.yul\":4007:4021   */\n  swap1\n  dup2\n  shl\n    /* \"#utility.yul\":4003:4025   */\n  add\n    /* \"#utility.yul\":3990:4026   */\n  swap1\n  sstore\n  pop\n    /* \"#utility.yul\":2994:4293   */\n  jump\t// out\n    /* \"#utility.yul\":4298:4425   */\ntag_11:\n    /* \"#utility.yul\":4359:4369   */\n  0x4e487b71\n    /* \"#utility.yul\":4354:4357   */\n  0xe0\n    /* \"#utility.yul\":4350:4370   */\n  shl\n    /* \"#utility.yul\":4347:4348   */\n  0x00\n    /* \"#utility.yul\":4340:4371   */\n  mstore\n    /* \"#utility.yul\":4390:4394   */\n  0x21\n    /* \"#utility.yul\":4387:4388   */\n  0x04\n    /* \"#utility.yul\":4380:4395   */\n  mstore\n    /* \"#utility.yul\":4414:4418   */\n  0x24\n    /* \"#utility.yul\":4411:4412   */\n  0x00\n    /* \"#utility.yul\":4404:4419   */\n  revert\n    /* \"#utility.yul\":4430:4633   */\ntag_24:\n    /* \"Items/LoyalityCard.sol\":137:1053  contract LoyalityCard is VaultItem{... */\n  dataSize(sub_0)\n  dup1\n  dataOffset(sub_0)\n  0x00\n  codecopy\n  0x00\n  return\nstop\n\nsub_0: assembly {\n        /* \"Items/LoyalityCard.sol\":137:1053  contract LoyalityCard is VaultItem{... */\n      mstore(0x40, 0x80)\n      callvalue\n      dup1\n      iszero\n      tag_1\n      jumpi\n      0x00\n      dup1\n      revert\n    tag_1:\n      pop\n      jumpi(tag_2, lt(calldatasize, 0x04))\n      shr(0xe0, calldataload(0x00))\n      dup1\n      0x80f76021\n      gt\n      tag_10\n      jumpi\n      dup1\n      0x80f76021\n      eq\n      tag_6\n      jumpi\n      dup1\n      0xba379e86\n      eq\n      tag_7\n      jumpi\n      dup1\n      0xc47f0027\n      eq\n      tag_8\n      jumpi\n      dup1\n      0xefd8af9f\n      eq\n      tag_9\n      jumpi\n      0x00\n      dup1\n      revert\n    tag_10:\n      dup1\n      0x1499c592\n      eq\n      tag_3\n      jumpi\n      dup1\n      0x2858d3c8\n      eq\n      tag_4\n      jumpi\n      dup1\n      0x7a4c982e\n      eq\n      tag_5\n      jumpi\n    tag_2:\n      0x00\n      dup1\n      revert\n        /* \"Items/VaultItem.sol\":900:1029  function setParent( address _parnet) external  ownerOnly {... */\n    tag_3:\n      tag_11\n      tag_12\n      calldatasize\n      0x04\n      tag_13\n      jump\t// in\n    tag_12:\n      tag_14\n      jump\t// in\n    tag_11:\n      stop\n        /* \"Items/VaultItem.sol\":676:787  function getItemType() external view ownerOnly returns (Constants.ItemType) {... */\n    tag_4:\n      tag_15\n      tag_16\n      jump\t// in\n    tag_15:\n      mload(0x40)\n      tag_17\n      swap2\n      swap1\n      tag_18\n      jump\t// in\n    tag_17:\n      mload(0x40)\n      dup1\n      swap2\n      sub\n      swap1\n      return\n        /* \"Items/LoyalityCard.sol\":735:913  function setItem(string memory _name, string memory _card_id) external ownerOnly {... */\n    tag_5:\n      tag_11\n      tag_20\n      calldatasize\n      0x04\n      tag_21\n      jump\t// in\n    tag_20:\n      tag_22\n      jump\t// in\n        /* \"Items/VaultItem.sol\":795:892  function getParent() external view ownerOnly returns (address) {... */\n    tag_6:\n      tag_23\n      tag_24\n      jump\t// in\n    tag_23:\n      mload(0x40)\n      sub(shl(0xa0, 0x01), 0x01)\n        /* \"#utility.yul\":2220:2252   */\n      swap1\n      swap2\n      and\n        /* \"#utility.yul\":2202:2253   */\n      dup2\n      mstore\n        /* \"#utility.yul\":2190:2192   */\n      0x20\n        /* \"#utility.yul\":2175:2193   */\n      add\n        /* \"Items/VaultItem.sol\":795:892  function getParent() external view ownerOnly returns (address) {... */\n      tag_17\n        /* \"#utility.yul\":2056:2259   */\n      jump\n        /* \"Items/LoyalityCard.sol\":921:1046  function expose() external view ownerOnly returns ( string memory, string memory) {... */\n    tag_7:\n      tag_27\n      tag_28\n      jump\t// in\n    tag_27:\n      mload(0x40)\n      tag_17\n      swap3\n      swap2\n      swap1\n      tag_30\n      jump\t// in\n        /* \"Items/VaultItem.sol\":1037:1162  function setName(string memory _name) external ownerOnly {... */\n    tag_8:\n      tag_11\n      tag_32\n      calldatasize\n      0x04\n      tag_33\n      jump\t// in\n    tag_32:\n      tag_34\n      jump\t// in\n        /* \"Items/LoyalityCard.sol\":591:727  function setCardId(string memory _card_id) external ownerOnly {... */\n    tag_9:\n      tag_11\n      tag_36\n      calldatasize\n      0x04\n      tag_33\n      jump\t// in\n    tag_36:\n      tag_37\n      jump\t// in\n        /* \"Items/VaultItem.sol\":900:1029  function setParent( address _parnet) external  ownerOnly {... */\n    tag_14:\n        /* \"Items/VaultItem.sol\":339:344  owner */\n      sload(0x01)\n      0x0100\n      swap1\n      div\n      sub(shl(0xa0, 0x01), 0x01)\n      and\n        /* \"Items/VaultItem.sol\":325:335  msg.sender */\n      caller\n        /* \"Items/VaultItem.sol\":325:344  msg.sender == owner */\n      eq\n      dup1\n        /* \"Items/VaultItem.sol\":325:368  msg.sender == owner || msg.sender == parent */\n      tag_39\n      jumpi\n      pop\n        /* \"Items/VaultItem.sol\":362:368  parent */\n      and(sub(shl(0xa0, 0x01), 0x01), sload(0x02))\n        /* \"Items/VaultItem.sol\":348:358  msg.sender */\n      caller\n        /* \"Items/VaultItem.sol\":348:368  msg.sender == parent */\n      eq\n        /* \"Items/VaultItem.sol\":325:368  msg.sender == owner || msg.sender == parent */\n    tag_39:\n        /* \"Items/VaultItem.sol\":317:383  require(msg.sender == owner || msg.sender == parent, \"Only owner\") */\n      tag_40\n      jumpi\n      mload(0x40)\n      shl(0xe5, 0x461bcd)\n      dup2\n      mstore\n      0x04\n      add\n      tag_41\n      swap1\n      tag_42\n      jump\t// in\n    tag_41:\n      mload(0x40)\n      dup1\n      swap2\n      sub\n      swap1\n      revert\n    tag_40:\n        /* \"Items/VaultItem.sol\":968:974  parent */\n      0x02\n        /* \"Items/VaultItem.sol\":968:984  parent = _parnet */\n      dup1\n      sload\n      not(sub(shl(0xa0, 0x01), 0x01))\n      and\n      sub(shl(0xa0, 0x01), 0x01)\n      dup4\n      and\n      or\n      swap1\n      sstore\n        /* \"Items/VaultItem.sol\":1002:1021  Updated(msg.sender) */\n      mload(0x40)\n        /* \"Items/VaultItem.sol\":1010:1020  msg.sender */\n      caller\n        /* \"#utility.yul\":2202:2253   */\n      dup2\n      mstore\n        /* \"Items/VaultItem.sol\":1002:1021  Updated(msg.sender) */\n      0xe00da2178806f37f69815e9ed5ed3072ec1d55206d60916d99b469c7daa421e4\n      swap1\n        /* \"#utility.yul\":2190:2192   */\n      0x20\n        /* \"#utility.yul\":2175:2193   */\n      add\n        /* \"Items/VaultItem.sol\":1002:1021  Updated(msg.sender) */\n    tag_44:\n      mload(0x40)\n      dup1\n      swap2\n      sub\n      swap1\n      log1\n        /* \"Items/VaultItem.sol\":900:1029  function setParent( address _parnet) external  ownerOnly {... */\n      pop\n      jump\t// out\n        /* \"Items/VaultItem.sol\":676:787  function getItemType() external view ownerOnly returns (Constants.ItemType) {... */\n    tag_16:\n        /* \"Items/VaultItem.sol\":339:344  owner */\n      sload(0x01)\n        /* \"Items/VaultItem.sol\":732:750  Constants.ItemType */\n      0x00\n      swap1\n        /* \"Items/VaultItem.sol\":339:344  owner */\n      0x0100\n      swap1\n      div\n      sub(shl(0xa0, 0x01), 0x01)\n      and\n        /* \"Items/VaultItem.sol\":325:335  msg.sender */\n      caller\n        /* \"Items/VaultItem.sol\":325:344  msg.sender == owner */\n      eq\n      dup1\n        /* \"Items/VaultItem.sol\":325:368  msg.sender == owner || msg.sender == parent */\n      tag_46\n      jumpi\n      pop\n        /* \"Items/VaultItem.sol\":362:368  parent */\n      and(sub(shl(0xa0, 0x01), 0x01), sload(0x02))\n        /* \"Items/VaultItem.sol\":348:358  msg.sender */\n      caller\n        /* \"Items/VaultItem.sol\":348:368  msg.sender == parent */\n      eq\n        /* \"Items/VaultItem.sol\":325:368  msg.sender == owner || msg.sender == parent */\n    tag_46:\n        /* \"Items/VaultItem.sol\":317:383  require(msg.sender == owner || msg.sender == parent, \"Only owner\") */\n      tag_47\n      jumpi\n      mload(0x40)\n      shl(0xe5, 0x461bcd)\n      dup2\n      mstore\n      0x04\n      add\n      tag_41\n      swap1\n      tag_42\n      jump\t// in\n    tag_47:\n      pop\n        /* \"Items/VaultItem.sol\":770:779  item_type */\n      and(0xff, sload(0x01))\n        /* \"Items/VaultItem.sol\":676:787  function getItemType() external view ownerOnly returns (Constants.ItemType) {... */\n      swap1\n      jump\t// out\n        /* \"Items/LoyalityCard.sol\":735:913  function setItem(string memory _name, string memory _card_id) external ownerOnly {... */\n    tag_22:\n        /* \"Items/VaultItem.sol\":339:344  owner */\n      sload(0x01)\n      0x0100\n      swap1\n      div\n      sub(shl(0xa0, 0x01), 0x01)\n      and\n        /* \"Items/VaultItem.sol\":325:335  msg.sender */\n      caller\n        /* \"Items/VaultItem.sol\":325:344  msg.sender == owner */\n      eq\n      dup1\n        /* \"Items/VaultItem.sol\":325:368  msg.sender == owner || msg.sender == parent */\n      tag_51\n      jumpi\n      pop\n        /* \"Items/VaultItem.sol\":362:368  parent */\n      and(sub(shl(0xa0, 0x01), 0x01), sload(0x02))\n        /* \"Items/VaultItem.sol\":348:358  msg.sender */\n      caller\n        /* \"Items/VaultItem.sol\":348:368  msg.sender == parent */\n      eq\n        /* \"Items/VaultItem.sol\":325:368  msg.sender == owner || msg.sender == parent */\n    tag_51:\n        /* \"Items/VaultItem.sol\":317:383  require(msg.sender == owner || msg.sender == parent, \"Only owner\") */\n      tag_52\n      jumpi\n      mload(0x40)\n      shl(0xe5, 0x461bcd)\n      dup2\n      mstore\n      0x04\n      add\n      tag_41\n      swap1\n      tag_42\n      jump\t// in\n    tag_52:\n        /* \"Items/LoyalityCard.sol\":827:831  name */\n      0x00\n        /* \"Items/LoyalityCard.sol\":827:839  name = _name */\n      tag_55\n        /* \"Items/LoyalityCard.sol\":834:839  _name */\n      dup4\n        /* \"Items/LoyalityCard.sol\":827:831  name */\n      dup3\n        /* \"Items/LoyalityCard.sol\":827:839  name = _name */\n      tag_56\n      jump\t// in\n    tag_55:\n      pop\n        /* \"Items/LoyalityCard.sol\":850:857  card_id */\n      0x03\n        /* \"Items/LoyalityCard.sol\":850:868  card_id = _card_id */\n      tag_57\n        /* \"Items/LoyalityCard.sol\":860:868  _card_id */\n      dup3\n        /* \"Items/LoyalityCard.sol\":850:857  card_id */\n      dup3\n        /* \"Items/LoyalityCard.sol\":850:868  card_id = _card_id */\n      tag_56\n      jump\t// in\n    tag_57:\n      pop\n        /* \"Items/LoyalityCard.sol\":886:905  Updated(msg.sender) */\n      mload(0x40)\n        /* \"Items/LoyalityCard.sol\":894:904  msg.sender */\n      caller\n        /* \"#utility.yul\":2202:2253   */\n      dup2\n      mstore\n        /* \"Items/LoyalityCard.sol\":886:905  Updated(msg.sender) */\n      0xe00da2178806f37f69815e9ed5ed3072ec1d55206d60916d99b469c7daa421e4\n      swap1\n        /* \"#utility.yul\":2190:2192   */\n      0x20\n        /* \"#utility.yul\":2175:2193   */\n      add\n        /* \"Items/LoyalityCard.sol\":886:905  Updated(msg.sender) */\n      mload(0x40)\n      dup1\n      swap2\n      sub\n      swap1\n      log1\n        /* \"Items/LoyalityCard.sol\":735:913  function setItem(string memory _name, string memory _card_id) external ownerOnly {... */\n      pop\n      pop\n      jump\t// out\n        /* \"Items/VaultItem.sol\":795:892  function getParent() external view ownerOnly returns (address) {... */\n    tag_24:\n        /* \"Items/VaultItem.sol\":339:344  owner */\n      sload(0x01)\n        /* \"Items/VaultItem.sol\":849:856  address */\n      0x00\n      swap1\n        /* \"Items/VaultItem.sol\":339:344  owner */\n      0x0100\n      swap1\n      div\n      sub(shl(0xa0, 0x01), 0x01)\n      and\n        /* \"Items/VaultItem.sol\":325:335  msg.sender */\n      caller\n        /* \"Items/VaultItem.sol\":325:344  msg.sender == owner */\n      eq\n      dup1\n        /* \"Items/VaultItem.sol\":325:368  msg.sender == owner || msg.sender == parent */\n      tag_60\n      jumpi\n      pop\n        /* \"Items/VaultItem.sol\":362:368  parent */\n      and(sub(shl(0xa0, 0x01), 0x01), sload(0x02))\n        /* \"Items/VaultItem.sol\":348:358  msg.sender */\n      caller\n        /* \"Items/VaultItem.sol\":348:368  msg.sender == parent */\n      eq\n        /* \"Items/VaultItem.sol\":325:368  msg.sender == owner || msg.sender == parent */\n    tag_60:\n        /* \"Items/VaultItem.sol\":317:383  require(msg.sender == owner || msg.sender == parent, \"Only owner\") */\n      tag_61\n      jumpi\n      mload(0x40)\n      shl(0xe5, 0x461bcd)\n      dup2\n      mstore\n      0x04\n      add\n      tag_41\n      swap1\n      tag_42\n      jump\t// in\n    tag_61:\n      pop\n        /* \"Items/VaultItem.sol\":878:884  parent */\n      and(sub(shl(0xa0, 0x01), 0x01), sload(0x02))\n        /* \"Items/VaultItem.sol\":795:892  function getParent() external view ownerOnly returns (address) {... */\n      swap1\n      jump\t// out\n        /* \"Items/LoyalityCard.sol\":921:1046  function expose() external view ownerOnly returns ( string memory, string memory) {... */\n    tag_28:\n        /* \"Items/VaultItem.sol\":339:344  owner */\n      sload(0x01)\n        /* \"Items/LoyalityCard.sol\":973:986  string memory */\n      0x60\n      swap1\n      dup2\n      swap1\n        /* \"Items/VaultItem.sol\":339:344  owner */\n      0x0100\n      swap1\n      div\n      sub(shl(0xa0, 0x01), 0x01)\n      and\n        /* \"Items/VaultItem.sol\":325:335  msg.sender */\n      caller\n        /* \"Items/VaultItem.sol\":325:344  msg.sender == owner */\n      eq\n      dup1\n        /* \"Items/VaultItem.sol\":325:368  msg.sender == owner || msg.sender == parent */\n      tag_65\n      jumpi\n      pop\n        /* \"Items/VaultItem.sol\":362:368  parent */\n      and(sub(shl(0xa0, 0x01), 0x01), sload(0x02))\n        /* \"Items/VaultItem.sol\":348:358  msg.sender */\n      caller\n        /* \"Items/VaultItem.sol\":348:368  msg.sender == parent */\n      eq\n        /* \"Items/VaultItem.sol\":325:368  msg.sender == owner || msg.sender == parent */\n    tag_65:\n        /* \"Items/VaultItem.sol\":317:383  require(msg.sender == owner || msg.sender == parent, \"Only owner\") */\n      tag_66\n      jumpi\n      mload(0x40)\n      shl(0xe5, 0x461bcd)\n      dup2\n      mstore\n      0x04\n      add\n      tag_41\n      swap1\n      tag_42\n      jump\t// in\n    tag_66:\n        /* \"Items/LoyalityCard.sol\":1023:1027  name */\n      0x00\n        /* \"Items/LoyalityCard.sol\":1029:1036  card_id */\n      0x03\n        /* \"Items/LoyalityCard.sol\":1014:1038  return ( name, card_id ) */\n      dup2\n      dup1\n      sload\n      tag_69\n      swap1\n      tag_70\n      jump\t// in\n    tag_69:\n      dup1\n      0x1f\n      add\n      0x20\n      dup1\n      swap2\n      div\n      mul\n      0x20\n      add\n      mload(0x40)\n      swap1\n      dup2\n      add\n      0x40\n      mstore\n      dup1\n      swap3\n      swap2\n      swap1\n      dup2\n      dup2\n      mstore\n      0x20\n      add\n      dup3\n      dup1\n      sload\n      tag_71\n      swap1\n      tag_70\n      jump\t// in\n    tag_71:\n      dup1\n      iszero\n      tag_72\n      jumpi\n      dup1\n      0x1f\n      lt\n      tag_73\n      jumpi\n      0x0100\n      dup1\n      dup4\n      sload\n      div\n      mul\n      dup4\n      mstore\n      swap2\n      0x20\n      add\n      swap2\n      jump(tag_72)\n    tag_73:\n      dup3\n      add\n      swap2\n      swap1\n      0x00\n      mstore\n      keccak256(0x00, 0x20)\n      swap1\n    tag_74:\n      dup2\n      sload\n      dup2\n      mstore\n      swap1\n      0x01\n      add\n      swap1\n      0x20\n      add\n      dup1\n      dup4\n      gt\n      tag_74\n      jumpi\n      dup3\n      swap1\n      sub\n      0x1f\n      and\n      dup3\n      add\n      swap2\n    tag_72:\n      pop\n      pop\n      pop\n      pop\n      pop\n      swap2\n      pop\n      dup1\n      dup1\n      sload\n      tag_75\n      swap1\n      tag_70\n      jump\t// in\n    tag_75:\n      dup1\n      0x1f\n      add\n      0x20\n      dup1\n      swap2\n      div\n      mul\n      0x20\n      add\n      mload(0x40)\n      swap1\n      dup2\n      add\n      0x40\n      mstore\n      dup1\n      swap3\n      swap2\n      swap1\n      dup2\n      dup2\n      mstore\n      0x20\n      add\n      dup3\n      dup1\n      sload\n      tag_76\n      swap1\n      tag_70\n      jump\t// in\n    tag_76:\n      dup1\n      iszero\n      tag_77\n      jumpi\n      dup1\n      0x1f\n      lt\n      tag_78\n      jumpi\n      0x0100\n      dup1\n      dup4\n      sload\n      div\n      mul\n      dup4\n      mstore\n      swap2\n      0x20\n      add\n      swap2\n      jump(tag_77)\n    tag_78:\n      dup3\n      add\n      swap2\n      swap1\n      0x00\n      mstore\n      keccak256(0x00, 0x20)\n      swap1\n    tag_79:\n      dup2\n      sload\n      dup2\n      mstore\n      swap1\n      0x01\n      add\n      swap1\n      0x20\n      add\n      dup1\n      dup4\n      gt\n      tag_79\n      jumpi\n      dup3\n      swap1\n      sub\n      0x1f\n      and\n      dup3\n      add\n      swap2\n    tag_77:\n      pop\n      pop\n      pop\n      pop\n      pop\n      swap1\n      pop\n      swap2\n      pop\n      swap2\n      pop\n        /* \"Items/LoyalityCard.sol\":921:1046  function expose() external view ownerOnly returns ( string memory, string memory) {... */\n      swap1\n      swap2\n      jump\t// out\n        /* \"Items/VaultItem.sol\":1037:1162  function setName(string memory _name) external ownerOnly {... */\n    tag_34:\n        /* \"Items/VaultItem.sol\":339:344  owner */\n      sload(0x01)\n      0x0100\n      swap1\n      div\n      sub(shl(0xa0, 0x01), 0x01)\n      and\n        /* \"Items/VaultItem.sol\":325:335  msg.sender */\n      caller\n        /* \"Items/VaultItem.sol\":325:344  msg.sender == owner */\n      eq\n      dup1\n        /* \"Items/VaultItem.sol\":325:368  msg.sender == owner || msg.sender == parent */\n      tag_81\n      jumpi\n      pop\n        /* \"Items/VaultItem.sol\":362:368  parent */\n      and(sub(shl(0xa0, 0x01), 0x01), sload(0x02))\n        /* \"Items/VaultItem.sol\":348:358  msg.sender */\n      caller\n        /* \"Items/VaultItem.sol\":348:368  msg.sender == parent */\n      eq\n        /* \"Items/VaultItem.sol\":325:368  msg.sender == owner || msg.sender == parent */\n    tag_81:\n        /* \"Items/VaultItem.sol\":317:383  require(msg.sender == owner || msg.sender == parent, \"Only owner\") */\n      tag_82\n      jumpi\n      mload(0x40)\n      shl(0xe5, 0x461bcd)\n      dup2\n      mstore\n      0x04\n      add\n      tag_41\n      swap1\n      tag_42\n      jump\t// in\n    tag_82:\n        /* \"Items/VaultItem.sol\":1105:1109  name */\n      0x00\n        /* \"Items/VaultItem.sol\":1105:1117  name = _name */\n      tag_85\n        /* \"Items/VaultItem.sol\":1112:1117  _name */\n      dup3\n        /* \"Items/VaultItem.sol\":1105:1109  name */\n      dup3\n        /* \"Items/VaultItem.sol\":1105:1117  name = _name */\n      tag_56\n      jump\t// in\n    tag_85:\n      pop\n        /* \"Items/VaultItem.sol\":1135:1154  Updated(msg.sender) */\n      mload(0x40)\n        /* \"Items/VaultItem.sol\":1143:1153  msg.sender */\n      caller\n        /* \"#utility.yul\":2202:2253   */\n      dup2\n      mstore\n        /* \"Items/VaultItem.sol\":1135:1154  Updated(msg.sender) */\n      0xe00da2178806f37f69815e9ed5ed3072ec1d55206d60916d99b469c7daa421e4\n      swap1\n        /* \"#utility.yul\":2190:2192   */\n      0x20\n        /* \"#utility.yul\":2175:2193   */\n      add\n        /* \"Items/VaultItem.sol\":1135:1154  Updated(msg.sender) */\n      tag_44\n        /* \"#utility.yul\":2056:2259   */\n      jump\n        /* \"Items/LoyalityCard.sol\":591:727  function setCardId(string memory _card_id) external ownerOnly {... */\n    tag_37:\n        /* \"Items/VaultItem.sol\":339:344  owner */\n      sload(0x01)\n      0x0100\n      swap1\n      div\n      sub(shl(0xa0, 0x01), 0x01)\n      and\n        /* \"Items/VaultItem.sol\":325:335  msg.sender */\n      caller\n        /* \"Items/VaultItem.sol\":325:344  msg.sender == owner */\n      eq\n      dup1\n        /* \"Items/VaultItem.sol\":325:368  msg.sender == owner || msg.sender == parent */\n      tag_88\n      jumpi\n      pop\n        /* \"Items/VaultItem.sol\":362:368  parent */\n      and(sub(shl(0xa0, 0x01), 0x01), sload(0x02))\n        /* \"Items/VaultItem.sol\":348:358  msg.sender */\n      caller\n        /* \"Items/VaultItem.sol\":348:368  msg.sender == parent */\n      eq\n        /* \"Items/VaultItem.sol\":325:368  msg.sender == owner || msg.sender == parent */\n    tag_88:\n        /* \"Items/VaultItem.sol\":317:383  require(msg.sender == owner || msg.sender == parent, \"Only owner\") */\n      tag_89\n      jumpi\n      mload(0x40)\n      shl(0xe5, 0x461bcd)\n      dup2\n      mstore\n      0x04\n      add\n      tag_41\n      swap1\n      tag_42\n      jump\t// in\n    tag_89:\n        /* \"Items/LoyalityCard.sol\":664:671  card_id */\n      0x03\n        /* \"Items/LoyalityCard.sol\":664:682  card_id = _card_id */\n      tag_85\n        /* \"Items/LoyalityCard.sol\":674:682  _card_id */\n      dup3\n        /* \"Items/LoyalityCard.sol\":664:671  card_id */\n      dup3\n        /* \"Items/LoyalityCard.sol\":664:682  card_id = _card_id */\n      tag_56\n      jump\t// in\n        /* \"#utility.yul\":14:300   */\n    tag_13:\n        /* \"#utility.yul\":73:79   */\n      0x00\n        /* \"#utility.yul\":126:128   */\n      0x20\n        /* \"#utility.yul\":114:123   */\n      dup3\n        /* \"#utility.yul\":105:112   */\n      dup5\n        /* \"#utility.yul\":101:124   */\n      sub\n        /* \"#utility.yul\":97:129   */\n      slt\n        /* \"#utility.yul\":94:146   */\n      iszero\n      tag_102\n      jumpi\n        /* \"#utility.yul\":142:143   */\n      0x00\n        /* \"#utility.yul\":139:140   */\n      dup1\n        /* \"#utility.yul\":132:144   */\n      revert\n        /* \"#utility.yul\":94:146   */\n    tag_102:\n        /* \"#utility.yul\":168:191   */\n      dup2\n      calldataload\n      sub(shl(0xa0, 0x01), 0x01)\n        /* \"#utility.yul\":220:251   */\n      dup2\n      and\n        /* \"#utility.yul\":210:252   */\n      dup2\n      eq\n        /* \"#utility.yul\":200:270   */\n      tag_103\n      jumpi\n        /* \"#utility.yul\":266:267   */\n      0x00\n        /* \"#utility.yul\":263:264   */\n      dup1\n        /* \"#utility.yul\":256:268   */\n      revert\n        /* \"#utility.yul\":200:270   */\n    tag_103:\n        /* \"#utility.yul\":289:294   */\n      swap4\n        /* \"#utility.yul\":14:300   */\n      swap3\n      pop\n      pop\n      pop\n      jump\t// out\n        /* \"#utility.yul\":305:645   */\n    tag_18:\n        /* \"#utility.yul\":449:451   */\n      0x20\n        /* \"#utility.yul\":434:452   */\n      dup2\n      add\n        /* \"#utility.yul\":482:483   */\n      0x03\n        /* \"#utility.yul\":471:484   */\n      dup4\n      lt\n        /* \"#utility.yul\":461:605   */\n      tag_105\n      jumpi\n        /* \"#utility.yul\":527:537   */\n      0x4e487b71\n        /* \"#utility.yul\":522:525   */\n      0xe0\n        /* \"#utility.yul\":518:538   */\n      shl\n        /* \"#utility.yul\":515:516   */\n      0x00\n        /* \"#utility.yul\":508:539   */\n      mstore\n        /* \"#utility.yul\":562:566   */\n      0x21\n        /* \"#utility.yul\":559:560   */\n      0x04\n        /* \"#utility.yul\":552:567   */\n      mstore\n        /* \"#utility.yul\":590:594   */\n      0x24\n        /* \"#utility.yul\":587:588   */\n      0x00\n        /* \"#utility.yul\":580:595   */\n      revert\n        /* \"#utility.yul\":461:605   */\n    tag_105:\n        /* \"#utility.yul\":614:639   */\n      swap2\n      swap1\n      mstore\n        /* \"#utility.yul\":305:645   */\n      swap1\n      jump\t// out\n        /* \"#utility.yul\":650:777   */\n    tag_94:\n        /* \"#utility.yul\":711:721   */\n      0x4e487b71\n        /* \"#utility.yul\":706:709   */\n      0xe0\n        /* \"#utility.yul\":702:722   */\n      shl\n        /* \"#utility.yul\":699:700   */\n      0x00\n        /* \"#utility.yul\":692:723   */\n      mstore\n        /* \"#utility.yul\":742:746   */\n      0x41\n        /* \"#utility.yul\":739:740   */\n      0x04\n        /* \"#utility.yul\":732:747   */\n      mstore\n        /* \"#utility.yul\":766:770   */\n      0x24\n        /* \"#utility.yul\":763:764   */\n      0x00\n        /* \"#utility.yul\":756:771   */\n      revert\n        /* \"#utility.yul\":782:1508   */\n    tag_95:\n        /* \"#utility.yul\":825:830   */\n      0x00\n        /* \"#utility.yul\":878:881   */\n      dup3\n        /* \"#utility.yul\":871:875   */\n      0x1f\n        /* \"#utility.yul\":863:869   */\n      dup4\n        /* \"#utility.yul\":859:876   */\n      add\n        /* \"#utility.yul\":855:882   */\n      slt\n        /* \"#utility.yul\":845:900   */\n      tag_108\n      jumpi\n        /* \"#utility.yul\":896:897   */\n      0x00\n        /* \"#utility.yul\":893:894   */\n      dup1\n        /* \"#utility.yul\":886:898   */\n      revert\n        /* \"#utility.yul\":845:900   */\n    tag_108:\n        /* \"#utility.yul\":936:942   */\n      dup2\n        /* \"#utility.yul\":923:943   */\n      calldataload\n        /* \"#utility.yul\":966:984   */\n      0xffffffffffffffff\n        /* \"#utility.yul\":958:964   */\n      dup2\n        /* \"#utility.yul\":955:985   */\n      gt\n        /* \"#utility.yul\":952:1008   */\n      iszero\n      tag_110\n      jumpi\n        /* \"#utility.yul\":988:1006   */\n      tag_110\n      tag_94\n      jump\t// in\n    tag_110:\n        /* \"#utility.yul\":1037:1039   */\n      0x40\n        /* \"#utility.yul\":1031:1040   */\n      mload\n        /* \"#utility.yul\":1129:1131   */\n      0x1f\n        /* \"#utility.yul\":1091:1108   */\n      dup3\n      add\n      not(0x1f)\n        /* \"#utility.yul\":1087:1118   */\n      swap1\n      dup2\n      and\n        /* \"#utility.yul\":1120:1122   */\n      0x3f\n        /* \"#utility.yul\":1083:1123   */\n      add\n        /* \"#utility.yul\":1079:1133   */\n      and\n        /* \"#utility.yul\":1067:1134   */\n      dup2\n      add\n        /* \"#utility.yul\":1164:1182   */\n      0xffffffffffffffff\n        /* \"#utility.yul\":1149:1183   */\n      dup2\n      gt\n        /* \"#utility.yul\":1185:1207   */\n      dup3\n      dup3\n      lt\n        /* \"#utility.yul\":1146:1208   */\n      or\n        /* \"#utility.yul\":1143:1231   */\n      iszero\n      tag_112\n      jumpi\n        /* \"#utility.yul\":1211:1229   */\n      tag_112\n      tag_94\n      jump\t// in\n    tag_112:\n        /* \"#utility.yul\":1247:1249   */\n      0x40\n        /* \"#utility.yul\":1240:1262   */\n      mstore\n        /* \"#utility.yul\":1271:1293   */\n      dup2\n      dup2\n      mstore\n        /* \"#utility.yul\":1312:1331   */\n      dup4\n      dup3\n      add\n        /* \"#utility.yul\":1333:1337   */\n      0x20\n        /* \"#utility.yul\":1308:1338   */\n      add\n        /* \"#utility.yul\":1305:1344   */\n      dup6\n      lt\n        /* \"#utility.yul\":1302:1361   */\n      iszero\n      tag_113\n      jumpi\n        /* \"#utility.yul\":1357:1358   */\n      0x00\n        /* \"#utility.yul\":1354:1355   */\n      dup1\n        /* \"#utility.yul\":1347:1359   */\n      revert\n        /* \"#utility.yul\":1302:1361   */\n    tag_113:\n        /* \"#utility.yul\":1421:1427   */\n      dup2\n        /* \"#utility.yul\":1414:1418   */\n      0x20\n        /* \"#utility.yul\":1406:1412   */\n      dup6\n        /* \"#utility.yul\":1402:1419   */\n      add\n        /* \"#utility.yul\":1395:1399   */\n      0x20\n        /* \"#utility.yul\":1387:1393   */\n      dup4\n        /* \"#utility.yul\":1383:1400   */\n      add\n        /* \"#utility.yul\":1370:1428   */\n      calldatacopy\n        /* \"#utility.yul\":1476:1477   */\n      0x00\n        /* \"#utility.yul\":1448:1467   */\n      swap2\n      dup2\n      add\n        /* \"#utility.yul\":1469:1473   */\n      0x20\n        /* \"#utility.yul\":1444:1474   */\n      add\n        /* \"#utility.yul\":1437:1478   */\n      swap2\n      swap1\n      swap2\n      mstore\n        /* \"#utility.yul\":1452:1458   */\n      swap4\n        /* \"#utility.yul\":782:1508   */\n      swap3\n      pop\n      pop\n      pop\n      jump\t// out\n        /* \"#utility.yul\":1513:2051   */\n    tag_21:\n        /* \"#utility.yul\":1601:1607   */\n      0x00\n        /* \"#utility.yul\":1609:1615   */\n      dup1\n        /* \"#utility.yul\":1662:1664   */\n      0x40\n        /* \"#utility.yul\":1650:1659   */\n      dup4\n        /* \"#utility.yul\":1641:1648   */\n      dup6\n        /* \"#utility.yul\":1637:1660   */\n      sub\n        /* \"#utility.yul\":1633:1665   */\n      slt\n        /* \"#utility.yul\":1630:1682   */\n      iszero\n      tag_115\n      jumpi\n        /* \"#utility.yul\":1678:1679   */\n      0x00\n        /* \"#utility.yul\":1675:1676   */\n      dup1\n        /* \"#utility.yul\":1668:1680   */\n      revert\n        /* \"#utility.yul\":1630:1682   */\n    tag_115:\n        /* \"#utility.yul\":1718:1727   */\n      dup3\n        /* \"#utility.yul\":1705:1728   */\n      calldataload\n        /* \"#utility.yul\":1751:1769   */\n      0xffffffffffffffff\n        /* \"#utility.yul\":1743:1749   */\n      dup2\n        /* \"#utility.yul\":1740:1770   */\n      gt\n        /* \"#utility.yul\":1737:1787   */\n      iszero\n      tag_116\n      jumpi\n        /* \"#utility.yul\":1783:1784   */\n      0x00\n        /* \"#utility.yul\":1780:1781   */\n      dup1\n        /* \"#utility.yul\":1773:1785   */\n      revert\n        /* \"#utility.yul\":1737:1787   */\n    tag_116:\n        /* \"#utility.yul\":1806:1856   */\n      tag_117\n        /* \"#utility.yul\":1848:1855   */\n      dup6\n        /* \"#utility.yul\":1839:1845   */\n      dup3\n        /* \"#utility.yul\":1828:1837   */\n      dup7\n        /* \"#utility.yul\":1824:1846   */\n      add\n        /* \"#utility.yul\":1806:1856   */\n      tag_95\n      jump\t// in\n    tag_117:\n        /* \"#utility.yul\":1796:1856   */\n      swap3\n      pop\n      pop\n        /* \"#utility.yul\":1909:1911   */\n      0x20\n        /* \"#utility.yul\":1898:1907   */\n      dup4\n        /* \"#utility.yul\":1894:1912   */\n      add\n        /* \"#utility.yul\":1881:1913   */\n      calldataload\n        /* \"#utility.yul\":1938:1956   */\n      0xffffffffffffffff\n        /* \"#utility.yul\":1928:1936   */\n      dup2\n        /* \"#utility.yul\":1925:1957   */\n      gt\n        /* \"#utility.yul\":1922:1974   */\n      iszero\n      tag_118\n      jumpi\n        /* \"#utility.yul\":1970:1971   */\n      0x00\n        /* \"#utility.yul\":1967:1968   */\n      dup1\n        /* \"#utility.yul\":1960:1972   */\n      revert\n        /* \"#utility.yul\":1922:1974   */\n    tag_118:\n        /* \"#utility.yul\":1993:2045   */\n      tag_119\n        /* \"#utility.yul\":2037:2044   */\n      dup6\n        /* \"#utility.yul\":2026:2034   */\n      dup3\n        /* \"#utility.yul\":2015:2024   */\n      dup7\n        /* \"#utility.yul\":2011:2035   */\n      add\n        /* \"#utility.yul\":1993:2045   */\n      tag_95\n      jump\t// in\n    tag_119:\n        /* \"#utility.yul\":1983:2045   */\n      swap2\n      pop\n      pop\n        /* \"#utility.yul\":1513:2051   */\n      swap3\n      pop\n      swap3\n      swap1\n      pop\n      jump\t// out\n        /* \"#utility.yul\":2264:2553   */\n    tag_96:\n        /* \"#utility.yul\":2306:2309   */\n      0x00\n        /* \"#utility.yul\":2344:2349   */\n      dup2\n        /* \"#utility.yul\":2338:2350   */\n      mload\n        /* \"#utility.yul\":2371:2377   */\n      dup1\n        /* \"#utility.yul\":2366:2369   */\n      dup5\n        /* \"#utility.yul\":2359:2378   */\n      mstore\n        /* \"#utility.yul\":2427:2433   */\n      dup1\n        /* \"#utility.yul\":2420:2424   */\n      0x20\n        /* \"#utility.yul\":2413:2418   */\n      dup5\n        /* \"#utility.yul\":2409:2425   */\n      add\n        /* \"#utility.yul\":2402:2406   */\n      0x20\n        /* \"#utility.yul\":2397:2400   */\n      dup7\n        /* \"#utility.yul\":2393:2407   */\n      add\n        /* \"#utility.yul\":2387:2434   */\n      mcopy\n        /* \"#utility.yul\":2479:2480   */\n      0x00\n        /* \"#utility.yul\":2472:2476   */\n      0x20\n        /* \"#utility.yul\":2463:2469   */\n      dup3\n        /* \"#utility.yul\":2458:2461   */\n      dup7\n        /* \"#utility.yul\":2454:2470   */\n      add\n        /* \"#utility.yul\":2450:2477   */\n      add\n        /* \"#utility.yul\":2443:2481   */\n      mstore\n        /* \"#utility.yul\":2542:2546   */\n      0x20\n        /* \"#utility.yul\":2535:2537   */\n      0x1f\n        /* \"#utility.yul\":2531:2538   */\n      not\n        /* \"#utility.yul\":2526:2528   */\n      0x1f\n        /* \"#utility.yul\":2518:2524   */\n      dup4\n        /* \"#utility.yul\":2514:2529   */\n      add\n        /* \"#utility.yul\":2510:2539   */\n      and\n        /* \"#utility.yul\":2505:2508   */\n      dup6\n        /* \"#utility.yul\":2501:2540   */\n      add\n        /* \"#utility.yul\":2497:2547   */\n      add\n        /* \"#utility.yul\":2490:2547   */\n      swap2\n      pop\n      pop\n        /* \"#utility.yul\":2264:2553   */\n      swap3\n      swap2\n      pop\n      pop\n      jump\t// out\n        /* \"#utility.yul\":2558:2941   */\n    tag_30:\n        /* \"#utility.yul\":2755:2757   */\n      0x40\n        /* \"#utility.yul\":2744:2753   */\n      dup2\n        /* \"#utility.yul\":2737:2758   */\n      mstore\n        /* \"#utility.yul\":2718:2722   */\n      0x00\n        /* \"#utility.yul\":2781:2826   */\n      tag_123\n        /* \"#utility.yul\":2822:2824   */\n      0x40\n        /* \"#utility.yul\":2811:2820   */\n      dup4\n        /* \"#utility.yul\":2807:2825   */\n      add\n        /* \"#utility.yul\":2799:2805   */\n      dup6\n        /* \"#utility.yul\":2781:2826   */\n      tag_96\n      jump\t// in\n    tag_123:\n        /* \"#utility.yul\":2874:2883   */\n      dup3\n        /* \"#utility.yul\":2866:2872   */\n      dup2\n        /* \"#utility.yul\":2862:2884   */\n      sub\n        /* \"#utility.yul\":2857:2859   */\n      0x20\n        /* \"#utility.yul\":2846:2855   */\n      dup5\n        /* \"#utility.yul\":2842:2860   */\n      add\n        /* \"#utility.yul\":2835:2885   */\n      mstore\n        /* \"#utility.yul\":2902:2935   */\n      tag_124\n        /* \"#utility.yul\":2928:2934   */\n      dup2\n        /* \"#utility.yul\":2920:2926   */\n      dup6\n        /* \"#utility.yul\":2902:2935   */\n      tag_96\n      jump\t// in\n    tag_124:\n        /* \"#utility.yul\":2894:2935   */\n      swap6\n        /* \"#utility.yul\":2558:2941   */\n      swap5\n      pop\n      pop\n      pop\n      pop\n      pop\n      jump\t// out\n        /* \"#utility.yul\":2946:3268   */\n    tag_33:\n        /* \"#utility.yul\":3015:3021   */\n      0x00\n        /* \"#utility.yul\":3068:3070   */\n      0x20\n        /* \"#utility.yul\":3056:3065   */\n      dup3\n        /* \"#utility.yul\":3047:3054   */\n      dup5\n        /* \"#utility.yul\":3043:3066   */\n      sub\n        /* \"#utility.yul\":3039:3071   */\n      slt\n        /* \"#utility.yul\":3036:3088   */\n      iszero\n      tag_126\n      jumpi\n        /* \"#utility.yul\":3084:3085   */\n      0x00\n        /* \"#utility.yul\":3081:3082   */\n      dup1\n        /* \"#utility.yul\":3074:3086   */\n      revert\n        /* \"#utility.yul\":3036:3088   */\n    tag_126:\n        /* \"#utility.yul\":3124:3133   */\n      dup2\n        /* \"#utility.yul\":3111:3134   */\n      calldataload\n        /* \"#utility.yul\":3157:3175   */\n      0xffffffffffffffff\n        /* \"#utility.yul\":3149:3155   */\n      dup2\n        /* \"#utility.yul\":3146:3176   */\n      gt\n        /* \"#utility.yul\":3143:3193   */\n      iszero\n      tag_127\n      jumpi\n        /* \"#utility.yul\":3189:3190   */\n      0x00\n        /* \"#utility.yul\":3186:3187   */\n      dup1\n        /* \"#utility.yul\":3179:3191   */\n      revert\n        /* \"#utility.yul\":3143:3193   */\n    tag_127:\n        /* \"#utility.yul\":3212:3262   */\n      tag_128\n        /* \"#utility.yul\":3254:3261   */\n      dup5\n        /* \"#utility.yul\":3245:3251   */\n      dup3\n        /* \"#utility.yul\":3234:3243   */\n      dup6\n        /* \"#utility.yul\":3230:3252   */\n      add\n        /* \"#utility.yul\":3212:3262   */\n      tag_95\n      jump\t// in\n    tag_128:\n        /* \"#utility.yul\":3202:3262   */\n      swap5\n        /* \"#utility.yul\":2946:3268   */\n      swap4\n      pop\n      pop\n      pop\n      pop\n      jump\t// out\n        /* \"#utility.yul\":3273:3607   */\n    tag_42:\n        /* \"#utility.yul\":3475:3477   */\n      0x20\n        /* \"#utility.yul\":3457:3478   */\n      dup1\n      dup3\n      mstore\n        /* \"#utility.yul\":3514:3516   */\n      0x0a\n        /* \"#utility.yul\":3494:3512   */\n      swap1\n      dup3\n      add\n        /* \"#utility.yul\":3487:3517   */\n      mstore\n      shl(0xb1, 0x27b7363c9037bbb732b9)\n        /* \"#utility.yul\":3548:3550   */\n      0x40\n        /* \"#utility.yul\":3533:3551   */\n      dup3\n      add\n        /* \"#utility.yul\":3526:3566   */\n      mstore\n        /* \"#utility.yul\":3598:3600   */\n      0x60\n        /* \"#utility.yul\":3583:3601   */\n      add\n      swap1\n        /* \"#utility.yul\":3273:3607   */\n      jump\t// out\n        /* \"#utility.yul\":3612:3992   */\n    tag_70:\n        /* \"#utility.yul\":3691:3692   */\n      0x01\n        /* \"#utility.yul\":3687:3699   */\n      dup2\n      dup2\n      shr\n      swap1\n        /* \"#utility.yul\":3734:3746   */\n      dup3\n      and\n      dup1\n        /* \"#utility.yul\":3755:3816   */\n      tag_131\n      jumpi\n        /* \"#utility.yul\":3809:3813   */\n      0x7f\n        /* \"#utility.yul\":3801:3807   */\n      dup3\n        /* \"#utility.yul\":3797:3814   */\n      and\n        /* \"#utility.yul\":3787:3814   */\n      swap2\n      pop\n        /* \"#utility.yul\":3755:3816   */\n    tag_131:\n        /* \"#utility.yul\":3862:3864   */\n      0x20\n        /* \"#utility.yul\":3854:3860   */\n      dup3\n        /* \"#utility.yul\":3851:3865   */\n      lt\n        /* \"#utility.yul\":3831:3849   */\n      dup2\n        /* \"#utility.yul\":3828:3866   */\n      sub\n        /* \"#utility.yul\":3825:3986   */\n      tag_132\n      jumpi\n        /* \"#utility.yul\":3908:3918   */\n      0x4e487b71\n        /* \"#utility.yul\":3903:3906   */\n      0xe0\n        /* \"#utility.yul\":3899:3919   */\n      shl\n        /* \"#utility.yul\":3896:3897   */\n      0x00\n        /* \"#utility.yul\":3889:3920   */\n      mstore\n        /* \"#utility.yul\":3943:3947   */\n      0x22\n        /* \"#utility.yul\":3940:3941   */\n      0x04\n        /* \"#utility.yul\":3933:3948   */\n      mstore\n        /* \"#utility.yul\":3971:3975   */\n      0x24\n        /* \"#utility.yul\":3968:3969   */\n      0x00\n        /* \"#utility.yul\":3961:3976   */\n      revert\n        /* \"#utility.yul\":3825:3986   */\n    tag_132:\n      pop\n        /* \"#utility.yul\":3612:3992   */\n      swap2\n      swap1\n      pop\n      jump\t// out\n        /* \"#utility.yul\":4123:4641   */\n    tag_98:\n        /* \"#utility.yul\":4225:4227   */\n      0x1f\n        /* \"#utility.yul\":4220:4223   */\n      dup3\n        /* \"#utility.yul\":4217:4228   */\n      gt\n        /* \"#utility.yul\":4214:4635   */\n      iszero\n      tag_135\n      jumpi\n        /* \"#utility.yul\":4261:4266   */\n      dup1\n        /* \"#utility.yul\":4258:4259   */\n      0x00\n        /* \"#utility.yul\":4251:4267   */\n      mstore\n        /* \"#utility.yul\":4305:4309   */\n      0x20\n        /* \"#utility.yul\":4302:4303   */\n      0x00\n        /* \"#utility.yul\":4292:4310   */\n      keccak256\n        /* \"#utility.yul\":4375:4377   */\n      0x1f\n        /* \"#utility.yul\":4363:4373   */\n      dup5\n        /* \"#utility.yul\":4359:4378   */\n      add\n        /* \"#utility.yul\":4356:4357   */\n      0x05\n        /* \"#utility.yul\":4352:4379   */\n      shr\n        /* \"#utility.yul\":4346:4350   */\n      dup2\n        /* \"#utility.yul\":4342:4380   */\n      add\n        /* \"#utility.yul\":4411:4415   */\n      0x20\n        /* \"#utility.yul\":4399:4409   */\n      dup6\n        /* \"#utility.yul\":4396:4416   */\n      lt\n        /* \"#utility.yul\":4393:4440   */\n      iszero\n      tag_136\n      jumpi\n      pop\n        /* \"#utility.yul\":4434:4438   */\n      dup1\n        /* \"#utility.yul\":4393:4440   */\n    tag_136:\n        /* \"#utility.yul\":4489:4491   */\n      0x1f\n        /* \"#utility.yul\":4484:4487   */\n      dup5\n        /* \"#utility.yul\":4480:4492   */\n      add\n        /* \"#utility.yul\":4477:4478   */\n      0x05\n        /* \"#utility.yul\":4473:4493   */\n      shr\n        /* \"#utility.yul\":4467:4471   */\n      dup3\n        /* \"#utility.yul\":4463:4494   */\n      add\n        /* \"#utility.yul\":4453:4494   */\n      swap2\n      pop\n        /* \"#utility.yul\":4544:4625   */\n    tag_137:\n        /* \"#utility.yul\":4562:4564   */\n      dup2\n        /* \"#utility.yul\":4555:4560   */\n      dup2\n        /* \"#utility.yul\":4552:4565   */\n      lt\n        /* \"#utility.yul\":4544:4625   */\n      iszero\n      tag_139\n      jumpi\n        /* \"#utility.yul\":4621:4622   */\n      0x00\n        /* \"#utility.yul\":4607:4623   */\n      dup2\n      sstore\n        /* \"#utility.yul\":4588:4589   */\n      0x01\n        /* \"#utility.yul\":4577:4590   */\n      add\n        /* \"#utility.yul\":4544:4625   */\n      jump(tag_137)\n    tag_139:\n        /* \"#utility.yul\":4548:4551   */\n      pop\n      pop\n        /* \"#utility.yul\":4214:4635   */\n    tag_135:\n        /* \"#utility.yul\":4123:4641   */\n      pop\n      pop\n      pop\n      jump\t// out\n        /* \"#utility.yul\":4817:6116   */\n    tag_56:\n        /* \"#utility.yul\":4943:4946   */\n      dup2\n        /* \"#utility.yul\":4937:4947   */\n      mload\n        /* \"#utility.yul\":4970:4988   */\n      0xffffffffffffffff\n        /* \"#utility.yul\":4962:4968   */\n      dup2\n        /* \"#utility.yul\":4959:4989   */\n      gt\n        /* \"#utility.yul\":4956:5012   */\n      iszero\n      tag_143\n      jumpi\n        /* \"#utility.yul\":4992:5010   */\n      tag_143\n      tag_94\n      jump\t// in\n    tag_143:\n        /* \"#utility.yul\":5021:5118   */\n      tag_144\n        /* \"#utility.yul\":5111:5117   */\n      dup2\n        /* \"#utility.yul\":5071:5109   */\n      tag_145\n        /* \"#utility.yul\":5103:5107   */\n      dup5\n        /* \"#utility.yul\":5097:5108   */\n      sload\n        /* \"#utility.yul\":5071:5109   */\n      tag_70\n      jump\t// in\n    tag_145:\n        /* \"#utility.yul\":5065:5069   */\n      dup5\n        /* \"#utility.yul\":5021:5118   */\n      tag_98\n      jump\t// in\n    tag_144:\n        /* \"#utility.yul\":5167:5171   */\n      0x20\n        /* \"#utility.yul\":5198:5200   */\n      0x1f\n        /* \"#utility.yul\":5187:5201   */\n      dup3\n      gt\n        /* \"#utility.yul\":5215:5216   */\n      0x01\n        /* \"#utility.yul\":5210:5859   */\n      dup2\n      eq\n      tag_147\n      jumpi\n        /* \"#utility.yul\":5903:5904   */\n      0x00\n        /* \"#utility.yul\":5920:5926   */\n      dup4\n        /* \"#utility.yul\":5917:6006   */\n      iszero\n      tag_148\n      jumpi\n      pop\n        /* \"#utility.yul\":5972:5991   */\n      dup5\n      dup3\n      add\n        /* \"#utility.yul\":5966:5992   */\n      mload\n        /* \"#utility.yul\":5917:6006   */\n    tag_148:\n      not(0x00)\n        /* \"#utility.yul\":4774:4775   */\n      0x03\n        /* \"#utility.yul\":4770:4781   */\n      dup6\n      swap1\n      shl\n        /* \"#utility.yul\":4766:4790   */\n      shr\n        /* \"#utility.yul\":4762:4791   */\n      not\n        /* \"#utility.yul\":4752:4792   */\n      and\n        /* \"#utility.yul\":4798:4799   */\n      0x01\n        /* \"#utility.yul\":4794:4805   */\n      dup5\n      swap1\n      shl\n        /* \"#utility.yul\":4749:4806   */\n      or\n        /* \"#utility.yul\":6019:6100   */\n      dup5\n      sstore\n        /* \"#utility.yul\":5180:6110   */\n      jump(tag_139)\n        /* \"#utility.yul\":5210:5859   */\n    tag_147:\n        /* \"#utility.yul\":4070:4071   */\n      0x00\n        /* \"#utility.yul\":4063:4077   */\n      dup5\n      dup2\n      mstore\n        /* \"#utility.yul\":4107:4111   */\n      0x20\n        /* \"#utility.yul\":4094:4112   */\n      dup2\n      keccak256\n      not(0x1f)\n        /* \"#utility.yul\":5246:5266   */\n      dup6\n      and\n      swap2\n        /* \"#utility.yul\":5364:5586   */\n    tag_151:\n        /* \"#utility.yul\":5378:5385   */\n      dup3\n        /* \"#utility.yul\":5375:5376   */\n      dup2\n        /* \"#utility.yul\":5372:5386   */\n      lt\n        /* \"#utility.yul\":5364:5586   */\n      iszero\n      tag_153\n      jumpi\n        /* \"#utility.yul\":5460:5479   */\n      dup8\n      dup6\n      add\n        /* \"#utility.yul\":5454:5480   */\n      mload\n        /* \"#utility.yul\":5439:5481   */\n      dup3\n      sstore\n        /* \"#utility.yul\":5567:5571   */\n      0x20\n        /* \"#utility.yul\":5552:5572   */\n      swap5\n      dup6\n      add\n      swap5\n        /* \"#utility.yul\":5520:5521   */\n      0x01\n        /* \"#utility.yul\":5508:5522   */\n      swap1\n      swap3\n      add\n      swap2\n        /* \"#utility.yul\":5394:5406   */\n      add\n        /* \"#utility.yul\":5364:5586   */\n      jump(tag_151)\n    tag_153:\n        /* \"#utility.yul\":5368:5371   */\n      pop\n        /* \"#utility.yul\":5614:5620   */\n      dup5\n        /* \"#utility.yul\":5605:5612   */\n      dup3\n        /* \"#utility.yul\":5602:5621   */\n      lt\n        /* \"#utility.yul\":5599:5800   */\n      iszero\n      tag_154\n      jumpi\n        /* \"#utility.yul\":5675:5694   */\n      dup7\n      dup5\n      add\n        /* \"#utility.yul\":5669:5695   */\n      mload\n      not(0x00)\n        /* \"#utility.yul\":5758:5759   */\n      0x03\n        /* \"#utility.yul\":5754:5768   */\n      dup8\n      swap1\n      shl\n        /* \"#utility.yul\":5770:5773   */\n      0xf8\n        /* \"#utility.yul\":5750:5774   */\n      and\n        /* \"#utility.yul\":5746:5783   */\n      shr\n        /* \"#utility.yul\":5742:5784   */\n      not\n        /* \"#utility.yul\":5727:5785   */\n      and\n        /* \"#utility.yul\":5712:5786   */\n      dup2\n      sstore\n        /* \"#utility.yul\":5599:5800   */\n    tag_154:\n      pop\n      pop\n      pop\n      pop\n        /* \"#utility.yul\":5846:5847   */\n      0x01\n        /* \"#utility.yul\":5830:5844   */\n      swap1\n      dup2\n      shl\n        /* \"#utility.yul\":5826:5848   */\n      add\n        /* \"#utility.yul\":5813:5849   */\n      swap1\n      sstore\n      pop\n        /* \"#utility.yul\":4817:6116   */\n      jump\t// out\n\n    auxdata: 0xa2646970667358221220fc60a4aec4d63e99fc593468e8823dc8feece997b4745650f3be8b1adde17ca964736f6c634300081a0033\n}\n",
				"bytecode": {
					"linkReferences": {},
					"object": "608060405234801561000f575f80fd5b50604051610c74380380610c7483398101604081905261002e916101da565b835f83838261003d85826102e3565b506001805484919060ff19168183600281111561005c5761005c61039d565b021790555060018054610100600160a81b0319166101006001600160a01b0394851602179055600280546001600160a01b0319169190921617905550600390506100a684826102e3565b5060018054610100600160a81b0319166101006001600160a01b038581169190910291909117909155600280546001600160a01b0319169183169190911790556040513381527f1449abf21e49fd025f33495e77f7b1461caefdd3d4bb646424a3f445c4576a5b9060200160405180910390a1505050506103b1565b634e487b7160e01b5f52604160045260245ffd5b5f82601f830112610145575f80fd5b81516001600160401b0381111561015e5761015e610122565b604051601f8201601f19908116603f011681016001600160401b038111828210171561018c5761018c610122565b6040528181528382016020018510156101a3575f80fd5b8160208501602083015e5f918101602001919091529392505050565b80516001600160a01b03811681146101d5575f80fd5b919050565b5f805f80608085870312156101ed575f80fd5b84516001600160401b03811115610202575f80fd5b61020e87828801610136565b602087015190955090506001600160401b0381111561022b575f80fd5b61023787828801610136565b935050610246604086016101bf565b9150610254606086016101bf565b905092959194509250565b600181811c9082168061027357607f821691505b60208210810361029157634e487b7160e01b5f52602260045260245ffd5b50919050565b601f8211156102de57805f5260205f20601f840160051c810160208510156102bc5750805b601f840160051c820191505b818110156102db575f81556001016102c8565b50505b505050565b81516001600160401b038111156102fc576102fc610122565b6103108161030a845461025f565b84610297565b6020601f821160018114610342575f831561032b5750848201515b5f19600385901b1c1916600184901b1784556102db565b5f84815260208120601f198516915b828110156103715787850151825560209485019460019092019101610351565b508482101561038e57868401515f19600387901b60f8161c191681555b50505050600190811b01905550565b634e487b7160e01b5f52602160045260245ffd5b6108b6806103be5f395ff3fe608060405234801561000f575f80fd5b506004361061007a575f3560e01c806380f760211161005857806380f76021146100c4578063ba379e86146100e4578063c47f0027146100fa578063efd8af9f1461010d575f80fd5b80631499c5921461007e5780632858d3c8146100935780637a4c982e146100b1575b5f80fd5b61009161008c366004610531565b610120565b005b61009b6101bf565b6040516100a8919061055e565b60405180910390f35b6100916100bf366004610623565b61020f565b6100cc6102a3565b6040516001600160a01b0390911681526020016100a8565b6100ec6102f9565b6040516100a89291906106b6565b6100916101083660046106e3565b610461565b61009161011b3660046106e3565b6104e1565b60015461010090046001600160a01b031633148061014857506002546001600160a01b031633145b61016d5760405162461bcd60e51b81526004016101649061071d565b60405180910390fd5b600280546001600160a01b0319166001600160a01b0383161790556040513381527fe00da2178806f37f69815e9ed5ed3072ec1d55206d60916d99b469c7daa421e4906020015b60405180910390a150565b6001545f9061010090046001600160a01b03163314806101e957506002546001600160a01b031633145b6102055760405162461bcd60e51b81526004016101649061071d565b5060015460ff1690565b60015461010090046001600160a01b031633148061023757506002546001600160a01b031633145b6102535760405162461bcd60e51b81526004016101649061071d565b5f61025e83826107c5565b50600361026b82826107c5565b506040513381527fe00da2178806f37f69815e9ed5ed3072ec1d55206d60916d99b469c7daa421e49060200160405180910390a15050565b6001545f9061010090046001600160a01b03163314806102cd57506002546001600160a01b031633145b6102e95760405162461bcd60e51b81526004016101649061071d565b506002546001600160a01b031690565b600154606090819061010090046001600160a01b031633148061032657506002546001600160a01b031633145b6103425760405162461bcd60e51b81526004016101649061071d565b5f600381805461035190610741565b80601f016020809104026020016040519081016040528092919081815260200182805461037d90610741565b80156103c85780601f1061039f576101008083540402835291602001916103c8565b820191905f5260205f20905b8154815290600101906020018083116103ab57829003601f168201915b505050505091508080546103db90610741565b80601f016020809104026020016040519081016040528092919081815260200182805461040790610741565b80156104525780601f1061042957610100808354040283529160200191610452565b820191905f5260205f20905b81548152906001019060200180831161043557829003601f168201915b50505050509050915091509091565b60015461010090046001600160a01b031633148061048957506002546001600160a01b031633145b6104a55760405162461bcd60e51b81526004016101649061071d565b5f6104b082826107c5565b506040513381527fe00da2178806f37f69815e9ed5ed3072ec1d55206d60916d99b469c7daa421e4906020016101b4565b60015461010090046001600160a01b031633148061050957506002546001600160a01b031633145b6105255760405162461bcd60e51b81526004016101649061071d565b60036104b082826107c5565b5f60208284031215610541575f80fd5b81356001600160a01b0381168114610557575f80fd5b9392505050565b602081016003831061057e57634e487b7160e01b5f52602160045260245ffd5b91905290565b634e487b7160e01b5f52604160045260245ffd5b5f82601f8301126105a7575f80fd5b813567ffffffffffffffff8111156105c1576105c1610584565b604051601f8201601f19908116603f0116810167ffffffffffffffff811182821017156105f0576105f0610584565b604052818152838201602001851015610607575f80fd5b816020850160208301375f918101602001919091529392505050565b5f8060408385031215610634575f80fd5b823567ffffffffffffffff81111561064a575f80fd5b61065685828601610598565b925050602083013567ffffffffffffffff811115610672575f80fd5b61067e85828601610598565b9150509250929050565b5f81518084528060208401602086015e5f602082860101526020601f19601f83011685010191505092915050565b604081525f6106c86040830185610688565b82810360208401526106da8185610688565b95945050505050565b5f602082840312156106f3575f80fd5b813567ffffffffffffffff811115610709575f80fd5b61071584828501610598565b949350505050565b6020808252600a908201526927b7363c9037bbb732b960b11b604082015260600190565b600181811c9082168061075557607f821691505b60208210810361077357634e487b7160e01b5f52602260045260245ffd5b50919050565b601f8211156107c057805f5260205f20601f840160051c8101602085101561079e5750805b601f840160051c820191505b818110156107bd575f81556001016107aa565b50505b505050565b815167ffffffffffffffff8111156107df576107df610584565b6107f3816107ed8454610741565b84610779565b6020601f821160018114610825575f831561080e5750848201515b5f19600385901b1c1916600184901b1784556107bd565b5f84815260208120601f198516915b828110156108545787850151825560209485019460019092019101610834565b508482101561087157868401515f19600387901b60f8161c191681555b50505050600190811b0190555056fea2646970667358221220fc60a4aec4d63e99fc593468e8823dc8feece997b4745650f3be8b1adde17ca964736f6c634300081a0033",
					"opcodes": "PUSH1 0x80 PUSH1 0x40 MSTORE CALLVALUE DUP1 ISZERO PUSH2 0xF JUMPI PUSH0 DUP1 REVERT JUMPDEST POP PUSH1 0x40 MLOAD PUSH2 0xC74 CODESIZE SUB DUP1 PUSH2 0xC74 DUP4 CODECOPY DUP2 ADD PUSH1 0x40 DUP2 SWAP1 MSTORE PUSH2 0x2E SWAP2 PUSH2 0x1DA JUMP JUMPDEST DUP4 PUSH0 DUP4 DUP4 DUP3 PUSH2 0x3D DUP6 DUP3 PUSH2 0x2E3 JUMP JUMPDEST POP PUSH1 0x1 DUP1 SLOAD DUP5 SWAP2 SWAP1 PUSH1 0xFF NOT AND DUP2 DUP4 PUSH1 0x2 DUP2 GT ISZERO PUSH2 0x5C JUMPI PUSH2 0x5C PUSH2 0x39D JUMP JUMPDEST MUL OR SWAP1 SSTORE POP PUSH1 0x1 DUP1 SLOAD PUSH2 0x100 PUSH1 0x1 PUSH1 0xA8 SHL SUB NOT AND PUSH2 0x100 PUSH1 0x1 PUSH1 0x1 PUSH1 0xA0 SHL SUB SWAP5 DUP6 AND MUL OR SWAP1 SSTORE PUSH1 0x2 DUP1 SLOAD PUSH1 0x1 PUSH1 0x1 PUSH1 0xA0 SHL SUB NOT AND SWAP2 SWAP1 SWAP3 AND OR SWAP1 SSTORE POP PUSH1 0x3 SWAP1 POP PUSH2 0xA6 DUP5 DUP3 PUSH2 0x2E3 JUMP JUMPDEST POP PUSH1 0x1 DUP1 SLOAD PUSH2 0x100 PUSH1 0x1 PUSH1 0xA8 SHL SUB NOT AND PUSH2 0x100 PUSH1 0x1 PUSH1 0x1 PUSH1 0xA0 SHL SUB DUP6 DUP2 AND SWAP2 SWAP1 SWAP2 MUL SWAP2 SWAP1 SWAP2 OR SWAP1 SWAP2 SSTORE PUSH1 0x2 DUP1 SLOAD PUSH1 0x1 PUSH1 0x1 PUSH1 0xA0 SHL SUB NOT AND SWAP2 DUP4 AND SWAP2 SWAP1 SWAP2 OR SWAP1 SSTORE PUSH1 0x40 MLOAD CALLER DUP2 MSTORE PUSH32 0x1449ABF21E49FD025F33495E77F7B1461CAEFDD3D4BB646424A3F445C4576A5B SWAP1 PUSH1 0x20 ADD PUSH1 0x40 MLOAD DUP1 SWAP2 SUB SWAP1 LOG1 POP POP POP POP PUSH2 0x3B1 JUMP JUMPDEST PUSH4 0x4E487B71 PUSH1 0xE0 SHL PUSH0 MSTORE PUSH1 0x41 PUSH1 0x4 MSTORE PUSH1 0x24 PUSH0 REVERT JUMPDEST PUSH0 DUP3 PUSH1 0x1F DUP4 ADD SLT PUSH2 0x145 JUMPI PUSH0 DUP1 REVERT JUMPDEST DUP2 MLOAD PUSH1 0x1 PUSH1 0x1 PUSH1 0x40 SHL SUB DUP2 GT ISZERO PUSH2 0x15E JUMPI PUSH2 0x15E PUSH2 0x122 JUMP JUMPDEST PUSH1 0x40 MLOAD PUSH1 0x1F DUP3 ADD PUSH1 0x1F NOT SWAP1 DUP2 AND PUSH1 0x3F ADD AND DUP2 ADD PUSH1 0x1 PUSH1 0x1 PUSH1 0x40 SHL SUB DUP2 GT DUP3 DUP3 LT OR ISZERO PUSH2 0x18C JUMPI PUSH2 0x18C PUSH2 0x122 JUMP JUMPDEST PUSH1 0x40 MSTORE DUP2 DUP2 MSTORE DUP4 DUP3 ADD PUSH1 0x20 ADD DUP6 LT ISZERO PUSH2 0x1A3 JUMPI PUSH0 DUP1 REVERT JUMPDEST DUP2 PUSH1 0x20 DUP6 ADD PUSH1 0x20 DUP4 ADD MCOPY PUSH0 SWAP2 DUP2 ADD PUSH1 0x20 ADD SWAP2 SWAP1 SWAP2 MSTORE SWAP4 SWAP3 POP POP POP JUMP JUMPDEST DUP1 MLOAD PUSH1 0x1 PUSH1 0x1 PUSH1 0xA0 SHL SUB DUP2 AND DUP2 EQ PUSH2 0x1D5 JUMPI PUSH0 DUP1 REVERT JUMPDEST SWAP2 SWAP1 POP JUMP JUMPDEST PUSH0 DUP1 PUSH0 DUP1 PUSH1 0x80 DUP6 DUP8 SUB SLT ISZERO PUSH2 0x1ED JUMPI PUSH0 DUP1 REVERT JUMPDEST DUP5 MLOAD PUSH1 0x1 PUSH1 0x1 PUSH1 0x40 SHL SUB DUP2 GT ISZERO PUSH2 0x202 JUMPI PUSH0 DUP1 REVERT JUMPDEST PUSH2 0x20E DUP8 DUP3 DUP9 ADD PUSH2 0x136 JUMP JUMPDEST PUSH1 0x20 DUP8 ADD MLOAD SWAP1 SWAP6 POP SWAP1 POP PUSH1 0x1 PUSH1 0x1 PUSH1 0x40 SHL SUB DUP2 GT ISZERO PUSH2 0x22B JUMPI PUSH0 DUP1 REVERT JUMPDEST PUSH2 0x237 DUP8 DUP3 DUP9 ADD PUSH2 0x136 JUMP JUMPDEST SWAP4 POP POP PUSH2 0x246 PUSH1 0x40 DUP7 ADD PUSH2 0x1BF JUMP JUMPDEST SWAP2 POP PUSH2 0x254 PUSH1 0x60 DUP7 ADD PUSH2 0x1BF JUMP JUMPDEST SWAP1 POP SWAP3 SWAP6 SWAP2 SWAP5 POP SWAP3 POP JUMP JUMPDEST PUSH1 0x1 DUP2 DUP2 SHR SWAP1 DUP3 AND DUP1 PUSH2 0x273 JUMPI PUSH1 0x7F DUP3 AND SWAP2 POP JUMPDEST PUSH1 0x20 DUP3 LT DUP2 SUB PUSH2 0x291 JUMPI PUSH4 0x4E487B71 PUSH1 0xE0 SHL PUSH0 MSTORE PUSH1 0x22 PUSH1 0x4 MSTORE PUSH1 0x24 PUSH0 REVERT JUMPDEST POP SWAP2 SWAP1 POP JUMP JUMPDEST PUSH1 0x1F DUP3 GT ISZERO PUSH2 0x2DE JUMPI DUP1 PUSH0 MSTORE PUSH1 0x20 PUSH0 KECCAK256 PUSH1 0x1F DUP5 ADD PUSH1 0x5 SHR DUP2 ADD PUSH1 0x20 DUP6 LT ISZERO PUSH2 0x2BC JUMPI POP DUP1 JUMPDEST PUSH1 0x1F DUP5 ADD PUSH1 0x5 SHR DUP3 ADD SWAP2 POP JUMPDEST DUP2 DUP2 LT ISZERO PUSH2 0x2DB JUMPI PUSH0 DUP2 SSTORE PUSH1 0x1 ADD PUSH2 0x2C8 JUMP JUMPDEST POP POP JUMPDEST POP POP POP JUMP JUMPDEST DUP2 MLOAD PUSH1 0x1 PUSH1 0x1 PUSH1 0x40 SHL SUB DUP2 GT ISZERO PUSH2 0x2FC JUMPI PUSH2 0x2FC PUSH2 0x122 JUMP JUMPDEST PUSH2 0x310 DUP2 PUSH2 0x30A DUP5 SLOAD PUSH2 0x25F JUMP JUMPDEST DUP5 PUSH2 0x297 JUMP JUMPDEST PUSH1 0x20 PUSH1 0x1F DUP3 GT PUSH1 0x1 DUP2 EQ PUSH2 0x342 JUMPI PUSH0 DUP4 ISZERO PUSH2 0x32B JUMPI POP DUP5 DUP3 ADD MLOAD JUMPDEST PUSH0 NOT PUSH1 0x3 DUP6 SWAP1 SHL SHR NOT AND PUSH1 0x1 DUP5 SWAP1 SHL OR DUP5 SSTORE PUSH2 0x2DB JUMP JUMPDEST PUSH0 DUP5 DUP2 MSTORE PUSH1 0x20 DUP2 KECCAK256 PUSH1 0x1F NOT DUP6 AND SWAP2 JUMPDEST DUP3 DUP2 LT ISZERO PUSH2 0x371 JUMPI DUP8 DUP6 ADD MLOAD DUP3 SSTORE PUSH1 0x20 SWAP5 DUP6 ADD SWAP5 PUSH1 0x1 SWAP1 SWAP3 ADD SWAP2 ADD PUSH2 0x351 JUMP JUMPDEST POP DUP5 DUP3 LT ISZERO PUSH2 0x38E JUMPI DUP7 DUP5 ADD MLOAD PUSH0 NOT PUSH1 0x3 DUP8 SWAP1 SHL PUSH1 0xF8 AND SHR NOT AND DUP2 SSTORE JUMPDEST POP POP POP POP PUSH1 0x1 SWAP1 DUP2 SHL ADD SWAP1 SSTORE POP JUMP JUMPDEST PUSH4 0x4E487B71 PUSH1 0xE0 SHL PUSH0 MSTORE PUSH1 0x21 PUSH1 0x4 MSTORE PUSH1 0x24 PUSH0 REVERT JUMPDEST PUSH2 0x8B6 DUP1 PUSH2 0x3BE PUSH0 CODECOPY PUSH0 RETURN INVALID PUSH1 0x80 PUSH1 0x40 MSTORE CALLVALUE DUP1 ISZERO PUSH2 0xF JUMPI PUSH0 DUP1 REVERT JUMPDEST POP PUSH1 0x4 CALLDATASIZE LT PUSH2 0x7A JUMPI PUSH0 CALLDATALOAD PUSH1 0xE0 SHR DUP1 PUSH4 0x80F76021 GT PUSH2 0x58 JUMPI DUP1 PUSH4 0x80F76021 EQ PUSH2 0xC4 JUMPI DUP1 PUSH4 0xBA379E86 EQ PUSH2 0xE4 JUMPI DUP1 PUSH4 0xC47F0027 EQ PUSH2 0xFA JUMPI DUP1 PUSH4 0xEFD8AF9F EQ PUSH2 0x10D JUMPI PUSH0 DUP1 REVERT JUMPDEST DUP1 PUSH4 0x1499C592 EQ PUSH2 0x7E JUMPI DUP1 PUSH4 0x2858D3C8 EQ PUSH2 0x93 JUMPI DUP1 PUSH4 0x7A4C982E EQ PUSH2 0xB1 JUMPI JUMPDEST PUSH0 DUP1 REVERT JUMPDEST PUSH2 0x91 PUSH2 0x8C CALLDATASIZE PUSH1 0x4 PUSH2 0x531 JUMP JUMPDEST PUSH2 0x120 JUMP JUMPDEST STOP JUMPDEST PUSH2 0x9B PUSH2 0x1BF JUMP JUMPDEST PUSH1 0x40 MLOAD PUSH2 0xA8 SWAP2 SWAP1 PUSH2 0x55E JUMP JUMPDEST PUSH1 0x40 MLOAD DUP1 SWAP2 SUB SWAP1 RETURN JUMPDEST PUSH2 0x91 PUSH2 0xBF CALLDATASIZE PUSH1 0x4 PUSH2 0x623 JUMP JUMPDEST PUSH2 0x20F JUMP JUMPDEST PUSH2 0xCC PUSH2 0x2A3 JUMP JUMPDEST PUSH1 0x40 MLOAD PUSH1 0x1 PUSH1 0x1 PUSH1 0xA0 SHL SUB SWAP1 SWAP2 AND DUP2 MSTORE PUSH1 0x20 ADD PUSH2 0xA8 JUMP JUMPDEST PUSH2 0xEC PUSH2 0x2F9 JUMP JUMPDEST PUSH1 0x40 MLOAD PUSH2 0xA8 SWAP3 SWAP2 SWAP1 PUSH2 0x6B6 JUMP JUMPDEST PUSH2 0x91 PUSH2 0x108 CALLDATASIZE PUSH1 0x4 PUSH2 0x6E3 JUMP JUMPDEST PUSH2 0x461 JUMP JUMPDEST PUSH2 0x91 PUSH2 0x11B CALLDATASIZE PUSH1 0x4 PUSH2 0x6E3 JUMP JUMPDEST PUSH2 0x4E1 JUMP JUMPDEST PUSH1 0x1 SLOAD PUSH2 0x100 SWAP1 DIV PUSH1 0x1 PUSH1 0x1 PUSH1 0xA0 SHL SUB AND CALLER EQ DUP1 PUSH2 0x148 JUMPI POP PUSH1 0x2 SLOAD PUSH1 0x1 PUSH1 0x1 PUSH1 0xA0 SHL SUB AND CALLER EQ JUMPDEST PUSH2 0x16D JUMPI PUSH1 0x40 MLOAD PUSH3 0x461BCD PUSH1 0xE5 SHL DUP2 MSTORE PUSH1 0x4 ADD PUSH2 0x164 SWAP1 PUSH2 0x71D JUMP JUMPDEST PUSH1 0x40 MLOAD DUP1 SWAP2 SUB SWAP1 REVERT JUMPDEST PUSH1 0x2 DUP1 SLOAD PUSH1 0x1 PUSH1 0x1 PUSH1 0xA0 SHL SUB NOT AND PUSH1 0x1 PUSH1 0x1 PUSH1 0xA0 SHL SUB DUP4 AND OR SWAP1 SSTORE PUSH1 0x40 MLOAD CALLER DUP2 MSTORE PUSH32 0xE00DA2178806F37F69815E9ED5ED3072EC1D55206D60916D99B469C7DAA421E4 SWAP1 PUSH1 0x20 ADD JUMPDEST PUSH1 0x40 MLOAD DUP1 SWAP2 SUB SWAP1 LOG1 POP JUMP JUMPDEST PUSH1 0x1 SLOAD PUSH0 SWAP1 PUSH2 0x100 SWAP1 DIV PUSH1 0x1 PUSH1 0x1 PUSH1 0xA0 SHL SUB AND CALLER EQ DUP1 PUSH2 0x1E9 JUMPI POP PUSH1 0x2 SLOAD PUSH1 0x1 PUSH1 0x1 PUSH1 0xA0 SHL SUB AND CALLER EQ JUMPDEST PUSH2 0x205 JUMPI PUSH1 0x40 MLOAD PUSH3 0x461BCD PUSH1 0xE5 SHL DUP2 MSTORE PUSH1 0x4 ADD PUSH2 0x164 SWAP1 PUSH2 0x71D JUMP JUMPDEST POP PUSH1 0x1 SLOAD PUSH1 0xFF AND SWAP1 JUMP JUMPDEST PUSH1 0x1 SLOAD PUSH2 0x100 SWAP1 DIV PUSH1 0x1 PUSH1 0x1 PUSH1 0xA0 SHL SUB AND CALLER EQ DUP1 PUSH2 0x237 JUMPI POP PUSH1 0x2 SLOAD PUSH1 0x1 PUSH1 0x1 PUSH1 0xA0 SHL SUB AND CALLER EQ JUMPDEST PUSH2 0x253 JUMPI PUSH1 0x40 MLOAD PUSH3 0x461BCD PUSH1 0xE5 SHL DUP2 MSTORE PUSH1 0x4 ADD PUSH2 0x164 SWAP1 PUSH2 0x71D JUMP JUMPDEST PUSH0 PUSH2 0x25E DUP4 DUP3 PUSH2 0x7C5 JUMP JUMPDEST POP PUSH1 0x3 PUSH2 0x26B DUP3 DUP3 PUSH2 0x7C5 JUMP JUMPDEST POP PUSH1 0x40 MLOAD CALLER DUP2 MSTORE PUSH32 0xE00DA2178806F37F69815E9ED5ED3072EC1D55206D60916D99B469C7DAA421E4 SWAP1 PUSH1 0x20 ADD PUSH1 0x40 MLOAD DUP1 SWAP2 SUB SWAP1 LOG1 POP POP JUMP JUMPDEST PUSH1 0x1 SLOAD PUSH0 SWAP1 PUSH2 0x100 SWAP1 DIV PUSH1 0x1 PUSH1 0x1 PUSH1 0xA0 SHL SUB AND CALLER EQ DUP1 PUSH2 0x2CD JUMPI POP PUSH1 0x2 SLOAD PUSH1 0x1 PUSH1 0x1 PUSH1 0xA0 SHL SUB AND CALLER EQ JUMPDEST PUSH2 0x2E9 JUMPI PUSH1 0x40 MLOAD PUSH3 0x461BCD PUSH1 0xE5 SHL DUP2 MSTORE PUSH1 0x4 ADD PUSH2 0x164 SWAP1 PUSH2 0x71D JUMP JUMPDEST POP PUSH1 0x2 SLOAD PUSH1 0x1 PUSH1 0x1 PUSH1 0xA0 SHL SUB AND SWAP1 JUMP JUMPDEST PUSH1 0x1 SLOAD PUSH1 0x60 SWAP1 DUP2 SWAP1 PUSH2 0x100 SWAP1 DIV PUSH1 0x1 PUSH1 0x1 PUSH1 0xA0 SHL SUB AND CALLER EQ DUP1 PUSH2 0x326 JUMPI POP PUSH1 0x2 SLOAD PUSH1 0x1 PUSH1 0x1 PUSH1 0xA0 SHL SUB AND CALLER EQ JUMPDEST PUSH2 0x342 JUMPI PUSH1 0x40 MLOAD PUSH3 0x461BCD PUSH1 0xE5 SHL DUP2 MSTORE PUSH1 0x4 ADD PUSH2 0x164 SWAP1 PUSH2 0x71D JUMP JUMPDEST PUSH0 PUSH1 0x3 DUP2 DUP1 SLOAD PUSH2 0x351 SWAP1 PUSH2 0x741 JUMP JUMPDEST DUP1 PUSH1 0x1F ADD PUSH1 0x20 DUP1 SWAP2 DIV MUL PUSH1 0x20 ADD PUSH1 0x40 MLOAD SWAP1 DUP2 ADD PUSH1 0x40 MSTORE DUP1 SWAP3 SWAP2 SWAP1 DUP2 DUP2 MSTORE PUSH1 0x20 ADD DUP3 DUP1 SLOAD PUSH2 0x37D SWAP1 PUSH2 0x741 JUMP JUMPDEST DUP1 ISZERO PUSH2 0x3C8 JUMPI DUP1 PUSH1 0x1F LT PUSH2 0x39F JUMPI PUSH2 0x100 DUP1 DUP4 SLOAD DIV MUL DUP4 MSTORE SWAP2 PUSH1 0x20 ADD SWAP2 PUSH2 0x3C8 JUMP JUMPDEST DUP3 ADD SWAP2 SWAP1 PUSH0 MSTORE PUSH1 0x20 PUSH0 KECCAK256 SWAP1 JUMPDEST DUP2 SLOAD DUP2 MSTORE SWAP1 PUSH1 0x1 ADD SWAP1 PUSH1 0x20 ADD DUP1 DUP4 GT PUSH2 0x3AB JUMPI DUP3 SWAP1 SUB PUSH1 0x1F AND DUP3 ADD SWAP2 JUMPDEST POP POP POP POP POP SWAP2 POP DUP1 DUP1 SLOAD PUSH2 0x3DB SWAP1 PUSH2 0x741 JUMP JUMPDEST DUP1 PUSH1 0x1F ADD PUSH1 0x20 DUP1 SWAP2 DIV MUL PUSH1 0x20 ADD PUSH1 0x40 MLOAD SWAP1 DUP2 ADD PUSH1 0x40 MSTORE DUP1 SWAP3 SWAP2 SWAP1 DUP2 DUP2 MSTORE PUSH1 0x20 ADD DUP3 DUP1 SLOAD PUSH2 0x407 SWAP1 PUSH2 0x741 JUMP JUMPDEST DUP1 ISZERO PUSH2 0x452 JUMPI DUP1 PUSH1 0x1F LT PUSH2 0x429 JUMPI PUSH2 0x100 DUP1 DUP4 SLOAD DIV MUL DUP4 MSTORE SWAP2 PUSH1 0x20 ADD SWAP2 PUSH2 0x452 JUMP JUMPDEST DUP3 ADD SWAP2 SWAP1 PUSH0 MSTORE PUSH1 0x20 PUSH0 KECCAK256 SWAP1 JUMPDEST DUP2 SLOAD DUP2 MSTORE SWAP1 PUSH1 0x1 ADD SWAP1 PUSH1 0x20 ADD DUP1 DUP4 GT PUSH2 0x435 JUMPI DUP3 SWAP1 SUB PUSH1 0x1F AND DUP3 ADD SWAP2 JUMPDEST POP POP POP POP POP SWAP1 POP SWAP2 POP SWAP2 POP SWAP1 SWAP2 JUMP JUMPDEST PUSH1 0x1 SLOAD PUSH2 0x100 SWAP1 DIV PUSH1 0x1 PUSH1 0x1 PUSH1 0xA0 SHL SUB AND CALLER EQ DUP1 PUSH2 0x489 JUMPI POP PUSH1 0x2 SLOAD PUSH1 0x1 PUSH1 0x1 PUSH1 0xA0 SHL SUB AND CALLER EQ JUMPDEST PUSH2 0x4A5 JUMPI PUSH1 0x40 MLOAD PUSH3 0x461BCD PUSH1 0xE5 SHL DUP2 MSTORE PUSH1 0x4 ADD PUSH2 0x164 SWAP1 PUSH2 0x71D JUMP JUMPDEST PUSH0 PUSH2 0x4B0 DUP3 DUP3 PUSH2 0x7C5 JUMP JUMPDEST POP PUSH1 0x40 MLOAD CALLER DUP2 MSTORE PUSH32 0xE00DA2178806F37F69815E9ED5ED3072EC1D55206D60916D99B469C7DAA421E4 SWAP1 PUSH1 0x20 ADD PUSH2 0x1B4 JUMP JUMPDEST PUSH1 0x1 SLOAD PUSH2 0x100 SWAP1 DIV PUSH1 0x1 PUSH1 0x1 PUSH1 0xA0 SHL SUB AND CALLER EQ DUP1 PUSH2 0x509 JUMPI POP PUSH1 0x2 SLOAD PUSH1 0x1 PUSH1 0x1 PUSH1 0xA0 SHL SUB AND CALLER EQ JUMPDEST PUSH2 0x525 JUMPI PUSH1 0x40 MLOAD PUSH3 0x461BCD PUSH1 0xE5 SHL DUP2 MSTORE PUSH1 0x4 ADD PUSH2 0x164 SWAP1 PUSH2 0x71D JUMP JUMPDEST PUSH1 0x3 PUSH2 0x4B0 DUP3 DUP3 PUSH2 0x7C5 JUMP JUMPDEST PUSH0 PUSH1 0x20 DUP3 DUP5 SUB SLT ISZERO PUSH2 0x541 JUMPI PUSH0 DUP1 REVERT JUMPDEST DUP2 CALLDATALOAD PUSH1 0x1 PUSH1 0x1 PUSH1 0xA0 SHL SUB DUP2 AND DUP2 EQ PUSH2 0x557 JUMPI PUSH0 DUP1 REVERT JUMPDEST SWAP4 SWAP3 POP POP POP JUMP JUMPDEST PUSH1 0x20 DUP2 ADD PUSH1 0x3 DUP4 LT PUSH2 0x57E JUMPI PUSH4 0x4E487B71 PUSH1 0xE0 SHL PUSH0 MSTORE PUSH1 0x21 PUSH1 0x4 MSTORE PUSH1 0x24 PUSH0 REVERT JUMPDEST SWAP2 SWAP1 MSTORE SWAP1 JUMP JUMPDEST PUSH4 0x4E487B71 PUSH1 0xE0 SHL PUSH0 MSTORE PUSH1 0x41 PUSH1 0x4 MSTORE PUSH1 0x24 PUSH0 REVERT JUMPDEST PUSH0 DUP3 PUSH1 0x1F DUP4 ADD SLT PUSH2 0x5A7 JUMPI PUSH0 DUP1 REVERT JUMPDEST DUP2 CALLDATALOAD PUSH8 0xFFFFFFFFFFFFFFFF DUP2 GT ISZERO PUSH2 0x5C1 JUMPI PUSH2 0x5C1 PUSH2 0x584 JUMP JUMPDEST PUSH1 0x40 MLOAD PUSH1 0x1F DUP3 ADD PUSH1 0x1F NOT SWAP1 DUP2 AND PUSH1 0x3F ADD AND DUP2 ADD PUSH8 0xFFFFFFFFFFFFFFFF DUP2 GT DUP3 DUP3 LT OR ISZERO PUSH2 0x5F0 JUMPI PUSH2 0x5F0 PUSH2 0x584 JUMP JUMPDEST PUSH1 0x40 MSTORE DUP2 DUP2 MSTORE DUP4 DUP3 ADD PUSH1 0x20 ADD DUP6 LT ISZERO PUSH2 0x607 JUMPI PUSH0 DUP1 REVERT JUMPDEST DUP2 PUSH1 0x20 DUP6 ADD PUSH1 0x20 DUP4 ADD CALLDATACOPY PUSH0 SWAP2 DUP2 ADD PUSH1 0x20 ADD SWAP2 SWAP1 SWAP2 MSTORE SWAP4 SWAP3 POP POP POP JUMP JUMPDEST PUSH0 DUP1 PUSH1 0x40 DUP4 DUP6 SUB SLT ISZERO PUSH2 0x634 JUMPI PUSH0 DUP1 REVERT JUMPDEST DUP3 CALLDATALOAD PUSH8 0xFFFFFFFFFFFFFFFF DUP2 GT ISZERO PUSH2 0x64A JUMPI PUSH0 DUP1 REVERT JUMPDEST PUSH2 0x656 DUP6 DUP3 DUP7 ADD PUSH2 0x598 JUMP JUMPDEST SWAP3 POP POP PUSH1 0x20 DUP4 ADD CALLDATALOAD PUSH8 0xFFFFFFFFFFFFFFFF DUP2 GT ISZERO PUSH2 0x672 JUMPI PUSH0 DUP1 REVERT JUMPDEST PUSH2 0x67E DUP6 DUP3 DUP7 ADD PUSH2 0x598 JUMP JUMPDEST SWAP2 POP POP SWAP3 POP SWAP3 SWAP1 POP JUMP JUMPDEST PUSH0 DUP2 MLOAD DUP1 DUP5 MSTORE DUP1 PUSH1 0x20 DUP5 ADD PUSH1 0x20 DUP7 ADD MCOPY PUSH0 PUSH1 0x20 DUP3 DUP7 ADD ADD MSTORE PUSH1 0x20 PUSH1 0x1F NOT PUSH1 0x1F DUP4 ADD AND DUP6 ADD ADD SWAP2 POP POP SWAP3 SWAP2 POP POP JUMP JUMPDEST PUSH1 0x40 DUP2 MSTORE PUSH0 PUSH2 0x6C8 PUSH1 0x40 DUP4 ADD DUP6 PUSH2 0x688 JUMP JUMPDEST DUP3 DUP2 SUB PUSH1 0x20 DUP5 ADD MSTORE PUSH2 0x6DA DUP2 DUP6 PUSH2 0x688 JUMP JUMPDEST SWAP6 SWAP5 POP POP POP POP POP JUMP JUMPDEST PUSH0 PUSH1 0x20 DUP3 DUP5 SUB SLT ISZERO PUSH2 0x6F3 JUMPI PUSH0 DUP1 REVERT JUMPDEST DUP2 CALLDATALOAD PUSH8 0xFFFFFFFFFFFFFFFF DUP2 GT ISZERO PUSH2 0x709 JUMPI PUSH0 DUP1 REVERT JUMPDEST PUSH2 0x715 DUP5 DUP3 DUP6 ADD PUSH2 0x598 JUMP JUMPDEST SWAP5 SWAP4 POP POP POP POP JUMP JUMPDEST PUSH1 0x20 DUP1 DUP3 MSTORE PUSH1 0xA SWAP1 DUP3 ADD MSTORE PUSH10 0x27B7363C9037BBB732B9 PUSH1 0xB1 SHL PUSH1 0x40 DUP3 ADD MSTORE PUSH1 0x60 ADD SWAP1 JUMP JUMPDEST PUSH1 0x1 DUP2 DUP2 SHR SWAP1 DUP3 AND DUP1 PUSH2 0x755 JUMPI PUSH1 0x7F DUP3 AND SWAP2 POP JUMPDEST PUSH1 0x20 DUP3 LT DUP2 SUB PUSH2 0x773 JUMPI PUSH4 0x4E487B71 PUSH1 0xE0 SHL PUSH0 MSTORE PUSH1 0x22 PUSH1 0x4 MSTORE PUSH1 0x24 PUSH0 REVERT JUMPDEST POP SWAP2 SWAP1 POP JUMP JUMPDEST PUSH1 0x1F DUP3 GT ISZERO PUSH2 0x7C0 JUMPI DUP1 PUSH0 MSTORE PUSH1 0x20 PUSH0 KECCAK256 PUSH1 0x1F DUP5 ADD PUSH1 0x5 SHR DUP2 ADD PUSH1 0x20 DUP6 LT ISZERO PUSH2 0x79E JUMPI POP DUP1 JUMPDEST PUSH1 0x1F DUP5 ADD PUSH1 0x5 SHR DUP3 ADD SWAP2 POP JUMPDEST DUP2 DUP2 LT ISZERO PUSH2 0x7BD JUMPI PUSH0 DUP2 SSTORE PUSH1 0x1 ADD PUSH2 0x7AA JUMP JUMPDEST POP POP JUMPDEST POP POP POP JUMP JUMPDEST DUP2 MLOAD PUSH8 0xFFFFFFFFFFFFFFFF DUP2 GT ISZERO PUSH2 0x7DF JUMPI PUSH2 0x7DF PUSH2 0x584 JUMP JUMPDEST PUSH2 0x7F3 DUP2 PUSH2 0x7ED DUP5 SLOAD PUSH2 0x741 JUMP JUMPDEST DUP5 PUSH2 0x779 JUMP JUMPDEST PUSH1 0x20 PUSH1 0x1F DUP3 GT PUSH1 0x1 DUP2 EQ PUSH2 0x825 JUMPI PUSH0 DUP4 ISZERO PUSH2 0x80E JUMPI POP DUP5 DUP3 ADD MLOAD JUMPDEST PUSH0 NOT PUSH1 0x3 DUP6 SWAP1 SHL SHR NOT AND PUSH1 0x1 DUP5 SWAP1 SHL OR DUP5 SSTORE PUSH2 0x7BD JUMP JUMPDEST PUSH0 DUP5 DUP2 MSTORE PUSH1 0x20 DUP2 KECCAK256 PUSH1 0x1F NOT DUP6 AND SWAP2 JUMPDEST DUP3 DUP2 LT ISZERO PUSH2 0x854 JUMPI DUP8 DUP6 ADD MLOAD DUP3 SSTORE PUSH1 0x20 SWAP5 DUP6 ADD SWAP5 PUSH1 0x1 SWAP1 SWAP3 ADD SWAP2 ADD PUSH2 0x834 JUMP JUMPDEST POP DUP5 DUP3 LT ISZERO PUSH2 0x871 JUMPI DUP7 DUP5 ADD MLOAD PUSH0 NOT PUSH1 0x3 DUP8 SWAP1 SHL PUSH1 0xF8 AND SHR NOT AND DUP2 SSTORE JUMPDEST POP POP POP POP PUSH1 0x1 SWAP1 DUP2 SHL ADD SWAP1 SSTORE POP JUMP INVALID LOG2 PUSH5 0x6970667358 0x22 SLT KECCAK256 0xFC PUSH1 0xA4 0xAE 0xC4 0xD6 RETURNDATACOPY SWAP10 0xFC MSIZE CALLVALUE PUSH9 0xE8823DC8FEECE997B4 PUSH21 0x5650F3BE8B1ADDE17CA964736F6C634300081A0033 "
				},
				"gasEstimates": {
					"creation": {
						"codeDepositCost": "446000",
						"executionCost": "infinite",
						"totalCost": "infinite"
					},
					"external": {
						"expose()": "infinite",
						"getItemType()": "6685",
						"getParent()": "6648",
						"setCardId(string)": "infinite",
						"setItem(string,string)": "infinite",
						"setName(string)": "infinite",
						"setParent(address)": "29875"
					}
				},
				"methodIdentifiers": {
					"expose()": "ba379e86",
					"getItemType()": "2858d3c8",
					"getParent()": "80f76021",
					"setCardId(string)": "efd8af9f",
					"setItem(string,string)": "7a4c982e",
					"setName(string)": "c47f0027",
					"setParent(address)": "1499c592"
				}
			},
			"storageLayout": {
				"storage": [
					{
						"astId": 148,
						"contract": "Items/LoyalityCard.sol:LoyalityCard",
						"label": "name",
						"offset": 0,
						"slot": "0",
						"type": "t_string_storage"
					},
					{
						"astId": 151,
						"contract": "Items/LoyalityCard.sol:LoyalityCard",
						"label": "item_type",
						"offset": 0,
						"slot": "1",
						"type": "t_enum(ItemType)263"
					},
					{
						"astId": 153,
						"contract": "Items/LoyalityCard.sol:LoyalityCard",
						"label": "owner",
						"offset": 1,
						"slot": "1",
						"type": "t_address"
					},
					{
						"astId": 155,
						"contract": "Items/LoyalityCard.sol:LoyalityCard",
						"label": "parent",
						"offset": 0,
						"slot": "2",
						"type": "t_address"
					},
					{
						"astId": 48,
						"contract": "Items/LoyalityCard.sol:LoyalityCard",
						"label": "card_id",
						"offset": 0,
						"slot": "3",
						"type": "t_string_storage"
					}
				],
				"types": {
					"t_address": {
						"encoding": "inplace",
						"label": "address",
						"numberOfBytes": "20"
					},
					"t_enum(ItemType)263": {
						"encoding": "inplace",
						"label": "enum Constants.ItemType",
						"numberOfBytes": "1"
					},
					"t_string_storage": {
						"encoding": "bytes",
						"label": "string",
						"numberOfBytes": "32"
					}
				}
			},
			"userdoc": {
				"kind": "user",
				"methods": {},
				"version": 1
			}
		}
	}
}