{
	"Items/DebitCard.sol": {
		"DebitCard": {
			"abi": [
				{
					"inputs": [
						{
							"internalType": "string",
							"name": "_name",
							"type": "string"
						},
						{
							"internalType": "string",
							"name": "_card_id",
							"type": "string"
						},
						{
							"internalType": "string",
							"name": "_name_on_card",
							"type": "string"
						},
						{
							"internalType": "uint16",
							"name": "_expire_at",
							"type": "uint16"
						},
						{
							"internalType": "uint16",
							"name": "_cvv",
							"type": "uint16"
						},
						{
							"internalType": "address",
							"name": "_owner",
							"type": "address"
						},
						{
							"internalType": "address",
							"name": "_parent",
							"type": "address"
						}
					],
					"stateMutability": "nonpayable",
					"type": "constructor"
				},
				{
					"anonymous": false,
					"inputs": [
						{
							"indexed": false,
							"internalType": "address",
							"name": "",
							"type": "address"
						}
					],
					"name": "AddedToOrganisation",
					"type": "event"
				},
				{
					"anonymous": false,
					"inputs": [
						{
							"indexed": false,
							"internalType": "address",
							"name": "",
							"type": "address"
						}
					],
					"name": "Created",
					"type": "event"
				},
				{
					"anonymous": false,
					"inputs": [
						{
							"indexed": false,
							"internalType": "address",
							"name": "",
							"type": "address"
						}
					],
					"name": "RemovedFromOrganisation",
					"type": "event"
				},
				{
					"anonymous": false,
					"inputs": [
						{
							"indexed": false,
							"internalType": "address",
							"name": "",
							"type": "address"
						}
					],
					"name": "Updated",
					"type": "event"
				},
				{
					"inputs": [],
					"name": "expose",
					"outputs": [
						{
							"internalType": "string",
							"name": "",
							"type": "string"
						},
						{
							"internalType": "string",
							"name": "",
							"type": "string"
						},
						{
							"internalType": "string",
							"name": "",
							"type": "string"
						},
						{
							"internalType": "uint16",
							"name": "",
							"type": "uint16"
						},
						{
							"internalType": "uint16",
							"name": "",
							"type": "uint16"
						}
					],
					"stateMutability": "view",
					"type": "function"
				},
				{
					"inputs": [],
					"name": "getItemType",
					"outputs": [
						{
							"internalType": "enum Constants.ItemType",
							"name": "",
							"type": "uint8"
						}
					],
					"stateMutability": "view",
					"type": "function"
				},
				{
					"inputs": [],
					"name": "getParent",
					"outputs": [
						{
							"internalType": "address",
							"name": "",
							"type": "address"
						}
					],
					"stateMutability": "view",
					"type": "function"
				},
				{
					"inputs": [
						{
							"internalType": "string",
							"name": "_card_id",
							"type": "string"
						}
					],
					"name": "setCardId",
					"outputs": [],
					"stateMutability": "nonpayable",
					"type": "function"
				},
				{
					"inputs": [
						{
							"internalType": "uint16",
							"name": "_cvv",
							"type": "uint16"
						}
					],
					"name": "setCvv",
					"outputs": [],
					"stateMutability": "nonpayable",
					"type": "function"
				},
				{
					"inputs": [
						{
							"internalType": "uint16",
							"name": "_expire_at",
							"type": "uint16"
						}
					],
					"name": "setExpireAt",
					"outputs": [],
					"stateMutability": "nonpayable",
					"type": "function"
				},
				{
					"inputs": [
						{
							"internalType": "string",
							"name": "_name",
							"type": "string"
						},
						{
							"internalType": "string",
							"name": "_card_id",
							"type": "string"
						},
						{
							"internalType": "string",
							"name": "_name_on_card",
							"type": "string"
						},
						{
							"internalType": "uint16",
							"name": "_expire_at",
							"type": "uint16"
						},
						{
							"internalType": "uint16",
							"name": "_cvv",
							"type": "uint16"
						}
					],
					"name": "setItem",
					"outputs": [],
					"stateMutability": "nonpayable",
					"type": "function"
				},
				{
					"inputs": [
						{
							"internalType": "string",
							"name": "_name",
							"type": "string"
						}
					],
					"name": "setName",
					"outputs": [],
					"stateMutability": "nonpayable",
					"type": "function"
				},
				{
					"inputs": [
						{
							"internalType": "string",
							"name": "_name_on_card",
							"type": "string"
						}
					],
					"name": "setNameOnCard",
					"outputs": [],
					"stateMutability": "nonpayable",
					"type": "function"
				},
				{
					"inputs": [
						{
							"internalType": "address",
							"name": "_parnet",
							"type": "address"
						}
					],
					"name": "setParent",
					"outputs": [],
					"stateMutability": "nonpayable",
					"type": "function"
				}
			],
			"devdoc": {
				"kind": "dev",
				"methods": {},
				"version": 1
			},
			"evm": {
				"assembly": "    /* \"Items/DebitCard.sol\":137:1924  contract DebitCard is VaultItem{... */\n  mstore(0x40, 0x80)\n    /* \"Items/DebitCard.sol\":266:763  constructor(... */\n  callvalue\n  dup1\n  iszero\n  tag_1\n  jumpi\n  0x00\n  dup1\n  revert\ntag_1:\n  pop\n  mload(0x40)\n  sub(codesize, bytecodeSize)\n  dup1\n  bytecodeSize\n  dup4\n  codecopy\n  dup2\n  add\n  0x40\n  dup2\n  swap1\n  mstore\n  tag_2\n  swap2\n  tag_3\n  jump\t// in\ntag_2:\n    /* \"Items/DebitCard.sol\":507:512  _name */\n  dup7\n    /* \"Items/DebitCard.sol\":523:552  Constants.ItemType.DEBIT_CARD */\n  0x01\n    /* \"Items/DebitCard.sol\":563:569  _owner */\n  dup4\n    /* \"Items/DebitCard.sol\":580:587  _parent */\n  dup4\n    /* \"Items/VaultItem.sol\":561:565  name */\n  0x00\n    /* \"Items/VaultItem.sol\":561:573  name = _name */\n  tag_7\n    /* \"Items/DebitCard.sol\":507:512  _name */\n  dup6\n    /* \"Items/VaultItem.sol\":561:565  name */\n  dup3\n    /* \"Items/VaultItem.sol\":561:573  name = _name */\n  tag_8\n  jump\t// in\ntag_7:\n  pop\n    /* \"Items/VaultItem.sol\":584:593  item_type */\n  0x01\n    /* \"Items/VaultItem.sol\":584:606  item_type = _item_type */\n  dup1\n  sload\n    /* \"Items/VaultItem.sol\":596:606  _item_type */\n  dup5\n  swap2\n    /* \"Items/VaultItem.sol\":584:593  item_type */\n  swap1\n  not(0xff)\n    /* \"Items/VaultItem.sol\":584:606  item_type = _item_type */\n  and\n    /* \"Items/VaultItem.sol\":584:593  item_type */\n  dup2\n    /* \"Items/VaultItem.sol\":596:606  _item_type */\n  dup4\n    /* \"Items/VaultItem.sol\":584:606  item_type = _item_type */\n  0x02\n  dup2\n  gt\n  iszero\n  tag_10\n  jumpi\n  tag_10\n  tag_11\n  jump\t// in\ntag_10:\n  mul\n  or\n  swap1\n  sstore\n  pop\n    /* \"Items/VaultItem.sol\":619:624  owner */\n  0x01\n    /* \"Items/VaultItem.sol\":619:633  owner = _owner */\n  dup1\n  sload\n  not(sub(shl(0xa8, 0x01), 0x0100))\n  and\n  0x0100\n  sub(shl(0xa0, 0x01), 0x01)\n  swap5\n  dup6\n  and\n  mul\n  or\n  swap1\n  sstore\n    /* \"Items/VaultItem.sol\":644:650  parent */\n  0x02\n    /* \"Items/VaultItem.sol\":644:660  parent = _parent */\n  dup1\n  sload\n  not(sub(shl(0xa0, 0x01), 0x01))\n  and\n  swap2\n  swap1\n  swap3\n  and\n  or\n  swap1\n  sstore\n  pop\n    /* \"Items/DebitCard.sol\":607:614  card_id */\n  0x03\n  swap1\n  pop\n    /* \"Items/DebitCard.sol\":607:625  card_id = _card_id */\n  tag_13\n    /* \"Items/DebitCard.sol\":617:625  _card_id */\n  dup8\n    /* \"Items/DebitCard.sol\":607:614  card_id */\n  dup3\n    /* \"Items/DebitCard.sol\":607:625  card_id = _card_id */\n  tag_8\n  jump\t// in\ntag_13:\n  pop\n    /* \"Items/DebitCard.sol\":636:648  name_on_card */\n  0x04\n    /* \"Items/DebitCard.sol\":636:664  name_on_card = _name_on_card */\n  tag_14\n    /* \"Items/DebitCard.sol\":651:664  _name_on_card */\n  dup7\n    /* \"Items/DebitCard.sol\":636:648  name_on_card */\n  dup3\n    /* \"Items/DebitCard.sol\":636:664  name_on_card = _name_on_card */\n  tag_8\n  jump\t// in\ntag_14:\n  pop\n    /* \"Items/DebitCard.sol\":675:684  expire_at */\n  0x05\n    /* \"Items/DebitCard.sol\":675:697  expire_at = _expire_at */\n  dup1\n  sload\n  0xffff\n    /* \"Items/DebitCard.sol\":708:718  cvv = _cvv */\n  dup6\n  dup2\n  and\n  0x010000\n  mul\n  not(0xffffffff)\n  swap1\n  swap3\n  and\n    /* \"Items/DebitCard.sol\":675:697  expire_at = _expire_at */\n  swap1\n  dup8\n  and\n    /* \"Items/DebitCard.sol\":708:718  cvv = _cvv */\n  or\n  or\n  swap1\n  sstore\n    /* \"Items/DebitCard.sol\":736:755  Created(msg.sender) */\n  mload(0x40)\n    /* \"Items/DebitCard.sol\":744:754  msg.sender */\n  caller\n    /* \"#utility.yul\":5133:5184   */\n  dup2\n  mstore\n    /* \"Items/DebitCard.sol\":736:755  Created(msg.sender) */\n  0x1449abf21e49fd025f33495e77f7b1461caefdd3d4bb646424a3f445c4576a5b\n  swap1\n    /* \"#utility.yul\":5121:5123   */\n  0x20\n    /* \"#utility.yul\":5106:5124   */\n  add\n    /* \"Items/DebitCard.sol\":736:755  Created(msg.sender) */\n  mload(0x40)\n  dup1\n  swap2\n  sub\n  swap1\n  log1\n    /* \"Items/DebitCard.sol\":266:763  constructor(... */\n  pop\n  pop\n  pop\n  pop\n  pop\n  pop\n  pop\n    /* \"Items/DebitCard.sol\":137:1924  contract DebitCard is VaultItem{... */\n  jump(tag_26)\n    /* \"#utility.yul\":14:141   */\ntag_18:\n    /* \"#utility.yul\":75:85   */\n  0x4e487b71\n    /* \"#utility.yul\":70:73   */\n  0xe0\n    /* \"#utility.yul\":66:86   */\n  shl\n    /* \"#utility.yul\":63:64   */\n  0x00\n    /* \"#utility.yul\":56:87   */\n  mstore\n    /* \"#utility.yul\":106:110   */\n  0x41\n    /* \"#utility.yul\":103:104   */\n  0x04\n    /* \"#utility.yul\":96:111   */\n  mstore\n    /* \"#utility.yul\":130:134   */\n  0x24\n    /* \"#utility.yul\":127:128   */\n  0x00\n    /* \"#utility.yul\":120:135   */\n  revert\n    /* \"#utility.yul\":146:869   */\ntag_19:\n    /* \"#utility.yul\":200:205   */\n  0x00\n    /* \"#utility.yul\":253:256   */\n  dup3\n    /* \"#utility.yul\":246:250   */\n  0x1f\n    /* \"#utility.yul\":238:244   */\n  dup4\n    /* \"#utility.yul\":234:251   */\n  add\n    /* \"#utility.yul\":230:257   */\n  slt\n    /* \"#utility.yul\":220:275   */\n  tag_29\n  jumpi\n    /* \"#utility.yul\":271:272   */\n  0x00\n    /* \"#utility.yul\":268:269   */\n  dup1\n    /* \"#utility.yul\":261:273   */\n  revert\n    /* \"#utility.yul\":220:275   */\ntag_29:\n    /* \"#utility.yul\":298:311   */\n  dup2\n  mload\n  sub(shl(0x40, 0x01), 0x01)\n    /* \"#utility.yul\":323:353   */\n  dup2\n  gt\n    /* \"#utility.yul\":320:376   */\n  iszero\n  tag_31\n  jumpi\n    /* \"#utility.yul\":356:374   */\n  tag_31\n  tag_18\n  jump\t// in\ntag_31:\n    /* \"#utility.yul\":405:407   */\n  0x40\n    /* \"#utility.yul\":399:408   */\n  mload\n    /* \"#utility.yul\":497:499   */\n  0x1f\n    /* \"#utility.yul\":459:476   */\n  dup3\n  add\n  not(0x1f)\n    /* \"#utility.yul\":455:486   */\n  swap1\n  dup2\n  and\n    /* \"#utility.yul\":488:490   */\n  0x3f\n    /* \"#utility.yul\":451:491   */\n  add\n    /* \"#utility.yul\":447:501   */\n  and\n    /* \"#utility.yul\":435:502   */\n  dup2\n  add\n  sub(shl(0x40, 0x01), 0x01)\n    /* \"#utility.yul\":517:551   */\n  dup2\n  gt\n    /* \"#utility.yul\":553:575   */\n  dup3\n  dup3\n  lt\n    /* \"#utility.yul\":514:576   */\n  or\n    /* \"#utility.yul\":511:599   */\n  iszero\n  tag_33\n  jumpi\n    /* \"#utility.yul\":579:597   */\n  tag_33\n  tag_18\n  jump\t// in\ntag_33:\n    /* \"#utility.yul\":615:617   */\n  0x40\n    /* \"#utility.yul\":608:630   */\n  mstore\n    /* \"#utility.yul\":639:661   */\n  dup2\n  dup2\n  mstore\n    /* \"#utility.yul\":680:699   */\n  dup4\n  dup3\n  add\n    /* \"#utility.yul\":701:705   */\n  0x20\n    /* \"#utility.yul\":676:706   */\n  add\n    /* \"#utility.yul\":673:712   */\n  dup6\n  lt\n    /* \"#utility.yul\":670:729   */\n  iszero\n  tag_34\n  jumpi\n    /* \"#utility.yul\":725:726   */\n  0x00\n    /* \"#utility.yul\":722:723   */\n  dup1\n    /* \"#utility.yul\":715:727   */\n  revert\n    /* \"#utility.yul\":670:729   */\ntag_34:\n    /* \"#utility.yul\":782:788   */\n  dup2\n    /* \"#utility.yul\":775:779   */\n  0x20\n    /* \"#utility.yul\":767:773   */\n  dup6\n    /* \"#utility.yul\":763:780   */\n  add\n    /* \"#utility.yul\":756:760   */\n  0x20\n    /* \"#utility.yul\":748:754   */\n  dup4\n    /* \"#utility.yul\":744:761   */\n  add\n    /* \"#utility.yul\":738:789   */\n  mcopy\n    /* \"#utility.yul\":837:838   */\n  0x00\n    /* \"#utility.yul\":809:828   */\n  swap2\n  dup2\n  add\n    /* \"#utility.yul\":830:834   */\n  0x20\n    /* \"#utility.yul\":805:835   */\n  add\n    /* \"#utility.yul\":798:839   */\n  swap2\n  swap1\n  swap2\n  mstore\n    /* \"#utility.yul\":813:819   */\n  swap4\n    /* \"#utility.yul\":146:869   */\n  swap3\n  pop\n  pop\n  pop\n  jump\t// out\n    /* \"#utility.yul\":874:1037   */\ntag_20:\n    /* \"#utility.yul\":952:965   */\n  dup1\n  mload\n    /* \"#utility.yul\":1005:1011   */\n  0xffff\n    /* \"#utility.yul\":994:1012   */\n  dup2\n  and\n    /* \"#utility.yul\":984:1013   */\n  dup2\n  eq\n    /* \"#utility.yul\":974:1031   */\n  tag_36\n  jumpi\n    /* \"#utility.yul\":1027:1028   */\n  0x00\n    /* \"#utility.yul\":1024:1025   */\n  dup1\n    /* \"#utility.yul\":1017:1029   */\n  revert\n    /* \"#utility.yul\":974:1031   */\ntag_36:\n    /* \"#utility.yul\":874:1037   */\n  swap2\n  swap1\n  pop\n  jump\t// out\n    /* \"#utility.yul\":1042:1219   */\ntag_21:\n    /* \"#utility.yul\":1121:1134   */\n  dup1\n  mload\n  sub(shl(0xa0, 0x01), 0x01)\n    /* \"#utility.yul\":1163:1194   */\n  dup2\n  and\n    /* \"#utility.yul\":1153:1195   */\n  dup2\n  eq\n    /* \"#utility.yul\":1143:1213   */\n  tag_36\n  jumpi\n    /* \"#utility.yul\":1209:1210   */\n  0x00\n    /* \"#utility.yul\":1206:1207   */\n  dup1\n    /* \"#utility.yul\":1199:1211   */\n  revert\n    /* \"#utility.yul\":1224:2341   */\ntag_3:\n    /* \"#utility.yul\":1376:1382   */\n  0x00\n    /* \"#utility.yul\":1384:1390   */\n  dup1\n    /* \"#utility.yul\":1392:1398   */\n  0x00\n    /* \"#utility.yul\":1400:1406   */\n  dup1\n    /* \"#utility.yul\":1408:1414   */\n  0x00\n    /* \"#utility.yul\":1416:1422   */\n  dup1\n    /* \"#utility.yul\":1424:1430   */\n  0x00\n    /* \"#utility.yul\":1477:1480   */\n  0xe0\n    /* \"#utility.yul\":1465:1474   */\n  dup9\n    /* \"#utility.yul\":1456:1463   */\n  dup11\n    /* \"#utility.yul\":1452:1475   */\n  sub\n    /* \"#utility.yul\":1448:1481   */\n  slt\n    /* \"#utility.yul\":1445:1498   */\n  iszero\n  tag_40\n  jumpi\n    /* \"#utility.yul\":1494:1495   */\n  0x00\n    /* \"#utility.yul\":1491:1492   */\n  dup1\n    /* \"#utility.yul\":1484:1496   */\n  revert\n    /* \"#utility.yul\":1445:1498   */\ntag_40:\n    /* \"#utility.yul\":1521:1537   */\n  dup8\n  mload\n  sub(shl(0x40, 0x01), 0x01)\n    /* \"#utility.yul\":1549:1579   */\n  dup2\n  gt\n    /* \"#utility.yul\":1546:1596   */\n  iszero\n  tag_41\n  jumpi\n    /* \"#utility.yul\":1592:1593   */\n  0x00\n    /* \"#utility.yul\":1589:1590   */\n  dup1\n    /* \"#utility.yul\":1582:1594   */\n  revert\n    /* \"#utility.yul\":1546:1596   */\ntag_41:\n    /* \"#utility.yul\":1615:1676   */\n  tag_42\n    /* \"#utility.yul\":1668:1675   */\n  dup11\n    /* \"#utility.yul\":1659:1665   */\n  dup3\n    /* \"#utility.yul\":1648:1657   */\n  dup12\n    /* \"#utility.yul\":1644:1666   */\n  add\n    /* \"#utility.yul\":1615:1676   */\n  tag_19\n  jump\t// in\ntag_42:\n    /* \"#utility.yul\":1722:1724   */\n  0x20\n    /* \"#utility.yul\":1707:1725   */\n  dup11\n  add\n    /* \"#utility.yul\":1701:1726   */\n  mload\n    /* \"#utility.yul\":1605:1676   */\n  swap1\n  swap9\n  pop\n    /* \"#utility.yul\":1701:1726   */\n  swap1\n  pop\n  sub(shl(0x40, 0x01), 0x01)\n    /* \"#utility.yul\":1738:1770   */\n  dup2\n  gt\n    /* \"#utility.yul\":1735:1787   */\n  iszero\n  tag_43\n  jumpi\n    /* \"#utility.yul\":1783:1784   */\n  0x00\n    /* \"#utility.yul\":1780:1781   */\n  dup1\n    /* \"#utility.yul\":1773:1785   */\n  revert\n    /* \"#utility.yul\":1735:1787   */\ntag_43:\n    /* \"#utility.yul\":1806:1869   */\n  tag_44\n    /* \"#utility.yul\":1861:1868   */\n  dup11\n    /* \"#utility.yul\":1850:1858   */\n  dup3\n    /* \"#utility.yul\":1839:1848   */\n  dup12\n    /* \"#utility.yul\":1835:1859   */\n  add\n    /* \"#utility.yul\":1806:1869   */\n  tag_19\n  jump\t// in\ntag_44:\n    /* \"#utility.yul\":1915:1917   */\n  0x40\n    /* \"#utility.yul\":1900:1918   */\n  dup11\n  add\n    /* \"#utility.yul\":1894:1919   */\n  mload\n    /* \"#utility.yul\":1796:1869   */\n  swap1\n  swap8\n  pop\n    /* \"#utility.yul\":1894:1919   */\n  swap1\n  pop\n  sub(shl(0x40, 0x01), 0x01)\n    /* \"#utility.yul\":1931:1963   */\n  dup2\n  gt\n    /* \"#utility.yul\":1928:1980   */\n  iszero\n  tag_45\n  jumpi\n    /* \"#utility.yul\":1976:1977   */\n  0x00\n    /* \"#utility.yul\":1973:1974   */\n  dup1\n    /* \"#utility.yul\":1966:1978   */\n  revert\n    /* \"#utility.yul\":1928:1980   */\ntag_45:\n    /* \"#utility.yul\":1999:2062   */\n  tag_46\n    /* \"#utility.yul\":2054:2061   */\n  dup11\n    /* \"#utility.yul\":2043:2051   */\n  dup3\n    /* \"#utility.yul\":2032:2041   */\n  dup12\n    /* \"#utility.yul\":2028:2052   */\n  add\n    /* \"#utility.yul\":1999:2062   */\n  tag_19\n  jump\t// in\ntag_46:\n    /* \"#utility.yul\":1989:2062   */\n  swap6\n  pop\n  pop\n    /* \"#utility.yul\":2081:2129   */\n  tag_47\n    /* \"#utility.yul\":2125:2127   */\n  0x60\n    /* \"#utility.yul\":2114:2123   */\n  dup10\n    /* \"#utility.yul\":2110:2128   */\n  add\n    /* \"#utility.yul\":2081:2129   */\n  tag_20\n  jump\t// in\ntag_47:\n    /* \"#utility.yul\":2071:2129   */\n  swap4\n  pop\n    /* \"#utility.yul\":2148:2197   */\n  tag_48\n    /* \"#utility.yul\":2192:2195   */\n  0x80\n    /* \"#utility.yul\":2181:2190   */\n  dup10\n    /* \"#utility.yul\":2177:2196   */\n  add\n    /* \"#utility.yul\":2148:2197   */\n  tag_20\n  jump\t// in\ntag_48:\n    /* \"#utility.yul\":2138:2197   */\n  swap3\n  pop\n    /* \"#utility.yul\":2216:2266   */\n  tag_49\n    /* \"#utility.yul\":2261:2264   */\n  0xa0\n    /* \"#utility.yul\":2250:2259   */\n  dup10\n    /* \"#utility.yul\":2246:2265   */\n  add\n    /* \"#utility.yul\":2216:2266   */\n  tag_21\n  jump\t// in\ntag_49:\n    /* \"#utility.yul\":2206:2266   */\n  swap2\n  pop\n    /* \"#utility.yul\":2285:2335   */\n  tag_50\n    /* \"#utility.yul\":2330:2333   */\n  0xc0\n    /* \"#utility.yul\":2319:2328   */\n  dup10\n    /* \"#utility.yul\":2315:2334   */\n  add\n    /* \"#utility.yul\":2285:2335   */\n  tag_21\n  jump\t// in\ntag_50:\n    /* \"#utility.yul\":2275:2335   */\n  swap1\n  pop\n    /* \"#utility.yul\":1224:2341   */\n  swap3\n  swap6\n  swap9\n  swap2\n  swap5\n  swap8\n  pop\n  swap3\n  swap6\n  pop\n  jump\t// out\n    /* \"#utility.yul\":2346:2726   */\ntag_22:\n    /* \"#utility.yul\":2425:2426   */\n  0x01\n    /* \"#utility.yul\":2421:2433   */\n  dup2\n  dup2\n  shr\n  swap1\n    /* \"#utility.yul\":2468:2480   */\n  dup3\n  and\n  dup1\n    /* \"#utility.yul\":2489:2550   */\n  tag_52\n  jumpi\n    /* \"#utility.yul\":2543:2547   */\n  0x7f\n    /* \"#utility.yul\":2535:2541   */\n  dup3\n    /* \"#utility.yul\":2531:2548   */\n  and\n    /* \"#utility.yul\":2521:2548   */\n  swap2\n  pop\n    /* \"#utility.yul\":2489:2550   */\ntag_52:\n    /* \"#utility.yul\":2596:2598   */\n  0x20\n    /* \"#utility.yul\":2588:2594   */\n  dup3\n    /* \"#utility.yul\":2585:2599   */\n  lt\n    /* \"#utility.yul\":2565:2583   */\n  dup2\n    /* \"#utility.yul\":2562:2600   */\n  sub\n    /* \"#utility.yul\":2559:2720   */\n  tag_53\n  jumpi\n    /* \"#utility.yul\":2642:2652   */\n  0x4e487b71\n    /* \"#utility.yul\":2637:2640   */\n  0xe0\n    /* \"#utility.yul\":2633:2653   */\n  shl\n    /* \"#utility.yul\":2630:2631   */\n  0x00\n    /* \"#utility.yul\":2623:2654   */\n  mstore\n    /* \"#utility.yul\":2677:2681   */\n  0x22\n    /* \"#utility.yul\":2674:2675   */\n  0x04\n    /* \"#utility.yul\":2667:2682   */\n  mstore\n    /* \"#utility.yul\":2705:2709   */\n  0x24\n    /* \"#utility.yul\":2702:2703   */\n  0x00\n    /* \"#utility.yul\":2695:2710   */\n  revert\n    /* \"#utility.yul\":2559:2720   */\ntag_53:\n  pop\n    /* \"#utility.yul\":2346:2726   */\n  swap2\n  swap1\n  pop\n  jump\t// out\n    /* \"#utility.yul\":2857:3375   */\ntag_24:\n    /* \"#utility.yul\":2959:2961   */\n  0x1f\n    /* \"#utility.yul\":2954:2957   */\n  dup3\n    /* \"#utility.yul\":2951:2962   */\n  gt\n    /* \"#utility.yul\":2948:3369   */\n  iszero\n  tag_56\n  jumpi\n    /* \"#utility.yul\":2995:3000   */\n  dup1\n    /* \"#utility.yul\":2992:2993   */\n  0x00\n    /* \"#utility.yul\":2985:3001   */\n  mstore\n    /* \"#utility.yul\":3039:3043   */\n  0x20\n    /* \"#utility.yul\":3036:3037   */\n  0x00\n    /* \"#utility.yul\":3026:3044   */\n  keccak256\n    /* \"#utility.yul\":3109:3111   */\n  0x1f\n    /* \"#utility.yul\":3097:3107   */\n  dup5\n    /* \"#utility.yul\":3093:3112   */\n  add\n    /* \"#utility.yul\":3090:3091   */\n  0x05\n    /* \"#utility.yul\":3086:3113   */\n  shr\n    /* \"#utility.yul\":3080:3084   */\n  dup2\n    /* \"#utility.yul\":3076:3114   */\n  add\n    /* \"#utility.yul\":3145:3149   */\n  0x20\n    /* \"#utility.yul\":3133:3143   */\n  dup6\n    /* \"#utility.yul\":3130:3150   */\n  lt\n    /* \"#utility.yul\":3127:3174   */\n  iszero\n  tag_57\n  jumpi\n  pop\n    /* \"#utility.yul\":3168:3172   */\n  dup1\n    /* \"#utility.yul\":3127:3174   */\ntag_57:\n    /* \"#utility.yul\":3223:3225   */\n  0x1f\n    /* \"#utility.yul\":3218:3221   */\n  dup5\n    /* \"#utility.yul\":3214:3226   */\n  add\n    /* \"#utility.yul\":3211:3212   */\n  0x05\n    /* \"#utility.yul\":3207:3227   */\n  shr\n    /* \"#utility.yul\":3201:3205   */\n  dup3\n    /* \"#utility.yul\":3197:3228   */\n  add\n    /* \"#utility.yul\":3187:3228   */\n  swap2\n  pop\n    /* \"#utility.yul\":3278:3359   */\ntag_58:\n    /* \"#utility.yul\":3296:3298   */\n  dup2\n    /* \"#utility.yul\":3289:3294   */\n  dup2\n    /* \"#utility.yul\":3286:3299   */\n  lt\n    /* \"#utility.yul\":3278:3359   */\n  iszero\n  tag_60\n  jumpi\n    /* \"#utility.yul\":3355:3356   */\n  0x00\n    /* \"#utility.yul\":3341:3357   */\n  dup2\n  sstore\n    /* \"#utility.yul\":3322:3323   */\n  0x01\n    /* \"#utility.yul\":3311:3324   */\n  add\n    /* \"#utility.yul\":3278:3359   */\n  jump(tag_58)\ntag_60:\n    /* \"#utility.yul\":3282:3285   */\n  pop\n  pop\n    /* \"#utility.yul\":2948:3369   */\ntag_56:\n    /* \"#utility.yul\":2857:3375   */\n  pop\n  pop\n  pop\n  jump\t// out\n    /* \"#utility.yul\":3551:4850   */\ntag_8:\n    /* \"#utility.yul\":3671:3681   */\n  dup2\n  mload\n  sub(shl(0x40, 0x01), 0x01)\n    /* \"#utility.yul\":3693:3723   */\n  dup2\n  gt\n    /* \"#utility.yul\":3690:3746   */\n  iszero\n  tag_64\n  jumpi\n    /* \"#utility.yul\":3726:3744   */\n  tag_64\n  tag_18\n  jump\t// in\ntag_64:\n    /* \"#utility.yul\":3755:3852   */\n  tag_65\n    /* \"#utility.yul\":3845:3851   */\n  dup2\n    /* \"#utility.yul\":3805:3843   */\n  tag_66\n    /* \"#utility.yul\":3837:3841   */\n  dup5\n    /* \"#utility.yul\":3831:3842   */\n  sload\n    /* \"#utility.yul\":3805:3843   */\n  tag_22\n  jump\t// in\ntag_66:\n    /* \"#utility.yul\":3799:3803   */\n  dup5\n    /* \"#utility.yul\":3755:3852   */\n  tag_24\n  jump\t// in\ntag_65:\n    /* \"#utility.yul\":3901:3905   */\n  0x20\n    /* \"#utility.yul\":3932:3934   */\n  0x1f\n    /* \"#utility.yul\":3921:3935   */\n  dup3\n  gt\n    /* \"#utility.yul\":3949:3950   */\n  0x01\n    /* \"#utility.yul\":3944:4593   */\n  dup2\n  eq\n  tag_68\n  jumpi\n    /* \"#utility.yul\":4637:4638   */\n  0x00\n    /* \"#utility.yul\":4654:4660   */\n  dup4\n    /* \"#utility.yul\":4651:4740   */\n  iszero\n  tag_69\n  jumpi\n  pop\n    /* \"#utility.yul\":4706:4725   */\n  dup5\n  dup3\n  add\n    /* \"#utility.yul\":4700:4726   */\n  mload\n    /* \"#utility.yul\":4651:4740   */\ntag_69:\n  not(0x00)\n    /* \"#utility.yul\":3508:3509   */\n  0x03\n    /* \"#utility.yul\":3504:3515   */\n  dup6\n  swap1\n  shl\n    /* \"#utility.yul\":3500:3524   */\n  shr\n    /* \"#utility.yul\":3496:3525   */\n  not\n    /* \"#utility.yul\":3486:3526   */\n  and\n    /* \"#utility.yul\":3532:3533   */\n  0x01\n    /* \"#utility.yul\":3528:3539   */\n  dup5\n  swap1\n  shl\n    /* \"#utility.yul\":3483:3540   */\n  or\n    /* \"#utility.yul\":4753:4834   */\n  dup5\n  sstore\n    /* \"#utility.yul\":3914:4844   */\n  jump(tag_60)\n    /* \"#utility.yul\":3944:4593   */\ntag_68:\n    /* \"#utility.yul\":2804:2805   */\n  0x00\n    /* \"#utility.yul\":2797:2811   */\n  dup5\n  dup2\n  mstore\n    /* \"#utility.yul\":2841:2845   */\n  0x20\n    /* \"#utility.yul\":2828:2846   */\n  dup2\n  keccak256\n  not(0x1f)\n    /* \"#utility.yul\":3980:4000   */\n  dup6\n  and\n  swap2\n    /* \"#utility.yul\":4098:4320   */\ntag_72:\n    /* \"#utility.yul\":4112:4119   */\n  dup3\n    /* \"#utility.yul\":4109:4110   */\n  dup2\n    /* \"#utility.yul\":4106:4120   */\n  lt\n    /* \"#utility.yul\":4098:4320   */\n  iszero\n  tag_74\n  jumpi\n    /* \"#utility.yul\":4194:4213   */\n  dup8\n  dup6\n  add\n    /* \"#utility.yul\":4188:4214   */\n  mload\n    /* \"#utility.yul\":4173:4215   */\n  dup3\n  sstore\n    /* \"#utility.yul\":4301:4305   */\n  0x20\n    /* \"#utility.yul\":4286:4306   */\n  swap5\n  dup6\n  add\n  swap5\n    /* \"#utility.yul\":4254:4255   */\n  0x01\n    /* \"#utility.yul\":4242:4256   */\n  swap1\n  swap3\n  add\n  swap2\n    /* \"#utility.yul\":4128:4140   */\n  add\n    /* \"#utility.yul\":4098:4320   */\n  jump(tag_72)\ntag_74:\n    /* \"#utility.yul\":4102:4105   */\n  pop\n    /* \"#utility.yul\":4348:4354   */\n  dup5\n    /* \"#utility.yul\":4339:4346   */\n  dup3\n    /* \"#utility.yul\":4336:4355   */\n  lt\n    /* \"#utility.yul\":4333:4534   */\n  iszero\n  tag_75\n  jumpi\n    /* \"#utility.yul\":4409:4428   */\n  dup7\n  dup5\n  add\n    /* \"#utility.yul\":4403:4429   */\n  mload\n  not(0x00)\n    /* \"#utility.yul\":4492:4493   */\n  0x03\n    /* \"#utility.yul\":4488:4502   */\n  dup8\n  swap1\n  shl\n    /* \"#utility.yul\":4504:4507   */\n  0xf8\n    /* \"#utility.yul\":4484:4508   */\n  and\n    /* \"#utility.yul\":4480:4517   */\n  shr\n    /* \"#utility.yul\":4476:4518   */\n  not\n    /* \"#utility.yul\":4461:4519   */\n  and\n    /* \"#utility.yul\":4446:4520   */\n  dup2\n  sstore\n    /* \"#utility.yul\":4333:4534   */\ntag_75:\n  pop\n  pop\n  pop\n  pop\n    /* \"#utility.yul\":4580:4581   */\n  0x01\n    /* \"#utility.yul\":4564:4578   */\n  swap1\n  dup2\n  shl\n    /* \"#utility.yul\":4560:4582   */\n  add\n    /* \"#utility.yul\":4547:4583   */\n  swap1\n  sstore\n  pop\n    /* \"#utility.yul\":3551:4850   */\n  jump\t// out\n    /* \"#utility.yul\":4855:4982   */\ntag_11:\n    /* \"#utility.yul\":4916:4926   */\n  0x4e487b71\n    /* \"#utility.yul\":4911:4914   */\n  0xe0\n    /* \"#utility.yul\":4907:4927   */\n  shl\n    /* \"#utility.yul\":4904:4905   */\n  0x00\n    /* \"#utility.yul\":4897:4928   */\n  mstore\n    /* \"#utility.yul\":4947:4951   */\n  0x21\n    /* \"#utility.yul\":4944:4945   */\n  0x04\n    /* \"#utility.yul\":4937:4952   */\n  mstore\n    /* \"#utility.yul\":4971:4975   */\n  0x24\n    /* \"#utility.yul\":4968:4969   */\n  0x00\n    /* \"#utility.yul\":4961:4976   */\n  revert\n    /* \"#utility.yul\":4987:5190   */\ntag_26:\n    /* \"Items/DebitCard.sol\":137:1924  contract DebitCard is VaultItem{... */\n  dataSize(sub_0)\n  dup1\n  dataOffset(sub_0)\n  0x00\n  codecopy\n  0x00\n  return\nstop\n\nsub_0: assembly {\n        /* \"Items/DebitCard.sol\":137:1924  contract DebitCard is VaultItem{... */\n      mstore(0x40, 0x80)\n      callvalue\n      dup1\n      iszero\n      tag_1\n      jumpi\n      0x00\n      dup1\n      revert\n    tag_1:\n      pop\n      jumpi(tag_2, lt(calldatasize, 0x04))\n      shr(0xe0, calldataload(0x00))\n      dup1\n      0x80f76021\n      gt\n      tag_13\n      jumpi\n      dup1\n      0x80f76021\n      eq\n      tag_8\n      jumpi\n      dup1\n      0xba379e86\n      eq\n      tag_9\n      jumpi\n      dup1\n      0xc40da770\n      eq\n      tag_10\n      jumpi\n      dup1\n      0xc47f0027\n      eq\n      tag_11\n      jumpi\n      dup1\n      0xefd8af9f\n      eq\n      tag_12\n      jumpi\n      0x00\n      dup1\n      revert\n    tag_13:\n      dup1\n      0x0dbef92c\n      eq\n      tag_3\n      jumpi\n      dup1\n      0x1499c592\n      eq\n      tag_4\n      jumpi\n      dup1\n      0x2858d3c8\n      eq\n      tag_5\n      jumpi\n      dup1\n      0x40aa5c71\n      eq\n      tag_6\n      jumpi\n      dup1\n      0x478e5cb3\n      eq\n      tag_7\n      jumpi\n    tag_2:\n      0x00\n      dup1\n      revert\n        /* \"Items/DebitCard.sol\":917:1072  function setNameOnCard(string memory _name_on_card) external ownerOnly {... */\n    tag_3:\n      tag_14\n      tag_15\n      calldatasize\n      0x04\n      tag_16\n      jump\t// in\n    tag_15:\n      tag_17\n      jump\t// in\n    tag_14:\n      stop\n        /* \"Items/VaultItem.sol\":900:1029  function setParent( address _parnet) external  ownerOnly {... */\n    tag_4:\n      tag_14\n      tag_19\n      calldatasize\n      0x04\n      tag_20\n      jump\t// in\n    tag_19:\n      tag_21\n      jump\t// in\n        /* \"Items/VaultItem.sol\":676:787  function getItemType() external view ownerOnly returns (Constants.ItemType) {... */\n    tag_5:\n      tag_22\n      tag_23\n      jump\t// in\n    tag_22:\n      mload(0x40)\n      tag_24\n      swap2\n      swap1\n      tag_25\n      jump\t// in\n    tag_24:\n      mload(0x40)\n      dup1\n      swap2\n      sub\n      swap1\n      return\n        /* \"Items/DebitCard.sol\":1080:1217  function setExpireAt(uint16 _expire_at) external ownerOnly {... */\n    tag_6:\n      tag_14\n      tag_27\n      calldatasize\n      0x04\n      tag_28\n      jump\t// in\n    tag_27:\n      tag_29\n      jump\t// in\n        /* \"Items/DebitCard.sol\":1347:1724  function setItem(... */\n    tag_7:\n      tag_14\n      tag_31\n      calldatasize\n      0x04\n      tag_32\n      jump\t// in\n    tag_31:\n      tag_33\n      jump\t// in\n        /* \"Items/VaultItem.sol\":795:892  function getParent() external view ownerOnly returns (address) {... */\n    tag_8:\n      tag_34\n      tag_35\n      jump\t// in\n    tag_34:\n      mload(0x40)\n      sub(shl(0xa0, 0x01), 0x01)\n        /* \"#utility.yul\":3262:3294   */\n      swap1\n      swap2\n      and\n        /* \"#utility.yul\":3244:3295   */\n      dup2\n      mstore\n        /* \"#utility.yul\":3232:3234   */\n      0x20\n        /* \"#utility.yul\":3217:3235   */\n      add\n        /* \"Items/VaultItem.sol\":795:892  function getParent() external view ownerOnly returns (address) {... */\n      tag_24\n        /* \"#utility.yul\":3098:3301   */\n      jump\n        /* \"Items/DebitCard.sol\":1732:1917  function expose() external view ownerOnly returns (string memory, string memory, string memory, uint16, uint16) {... */\n    tag_9:\n      tag_38\n      tag_39\n      jump\t// in\n    tag_38:\n      mload(0x40)\n      tag_24\n      swap6\n      swap5\n      swap4\n      swap3\n      swap2\n      swap1\n      tag_41\n      jump\t// in\n        /* \"Items/DebitCard.sol\":1225:1339  function setCvv(uint16 _cvv) external ownerOnly {... */\n    tag_10:\n      tag_14\n      tag_43\n      calldatasize\n      0x04\n      tag_28\n      jump\t// in\n    tag_43:\n      tag_44\n      jump\t// in\n        /* \"Items/VaultItem.sol\":1037:1162  function setName(string memory _name) external ownerOnly {... */\n    tag_11:\n      tag_14\n      tag_46\n      calldatasize\n      0x04\n      tag_16\n      jump\t// in\n    tag_46:\n      tag_47\n      jump\t// in\n        /* \"Items/DebitCard.sol\":773:909  function setCardId(string memory _card_id) external ownerOnly {... */\n    tag_12:\n      tag_14\n      tag_49\n      calldatasize\n      0x04\n      tag_16\n      jump\t// in\n    tag_49:\n      tag_50\n      jump\t// in\n        /* \"Items/DebitCard.sol\":917:1072  function setNameOnCard(string memory _name_on_card) external ownerOnly {... */\n    tag_17:\n        /* \"Items/VaultItem.sol\":339:344  owner */\n      sload(0x01)\n      0x0100\n      swap1\n      div\n      sub(shl(0xa0, 0x01), 0x01)\n      and\n        /* \"Items/VaultItem.sol\":325:335  msg.sender */\n      caller\n        /* \"Items/VaultItem.sol\":325:344  msg.sender == owner */\n      eq\n      dup1\n        /* \"Items/VaultItem.sol\":325:368  msg.sender == owner || msg.sender == parent */\n      tag_52\n      jumpi\n      pop\n        /* \"Items/VaultItem.sol\":362:368  parent */\n      and(sub(shl(0xa0, 0x01), 0x01), sload(0x02))\n        /* \"Items/VaultItem.sol\":348:358  msg.sender */\n      caller\n        /* \"Items/VaultItem.sol\":348:368  msg.sender == parent */\n      eq\n        /* \"Items/VaultItem.sol\":325:368  msg.sender == owner || msg.sender == parent */\n    tag_52:\n        /* \"Items/VaultItem.sol\":317:383  require(msg.sender == owner || msg.sender == parent, \"Only owner\") */\n      tag_53\n      jumpi\n      mload(0x40)\n      shl(0xe5, 0x461bcd)\n      dup2\n      mstore\n      0x04\n      add\n      tag_54\n      swap1\n      tag_55\n      jump\t// in\n    tag_54:\n      mload(0x40)\n      dup1\n      swap2\n      sub\n      swap1\n      revert\n    tag_53:\n        /* \"Items/DebitCard.sol\":999:1011  name_on_card */\n      0x04\n        /* \"Items/DebitCard.sol\":999:1027  name_on_card = _name_on_card */\n      tag_57\n        /* \"Items/DebitCard.sol\":1014:1027  _name_on_card */\n      dup3\n        /* \"Items/DebitCard.sol\":999:1011  name_on_card */\n      dup3\n        /* \"Items/DebitCard.sol\":999:1027  name_on_card = _name_on_card */\n      tag_58\n      jump\t// in\n    tag_57:\n      pop\n        /* \"Items/DebitCard.sol\":1045:1064  Updated(msg.sender) */\n      mload(0x40)\n        /* \"Items/DebitCard.sol\":1053:1063  msg.sender */\n      caller\n        /* \"#utility.yul\":3244:3295   */\n      dup2\n      mstore\n      0x00\n      dup1\n      mload\n      0x20\n      data_2c67c2ea5f0acf1af63e6d21f70491caaa8c297045be1c6ee3e9b1d07edcb366\n      dup4\n      codecopy\n      dup2\n      mload\n      swap2\n      mstore\n        /* \"Items/DebitCard.sol\":1045:1064  Updated(msg.sender) */\n      swap1\n        /* \"#utility.yul\":3232:3234   */\n      0x20\n        /* \"#utility.yul\":3217:3235   */\n      add\n        /* \"Items/DebitCard.sol\":1045:1064  Updated(msg.sender) */\n    tag_59:\n      mload(0x40)\n      dup1\n      swap2\n      sub\n      swap1\n      log1\n        /* \"Items/DebitCard.sol\":917:1072  function setNameOnCard(string memory _name_on_card) external ownerOnly {... */\n      pop\n      jump\t// out\n        /* \"Items/VaultItem.sol\":900:1029  function setParent( address _parnet) external  ownerOnly {... */\n    tag_21:\n        /* \"Items/VaultItem.sol\":339:344  owner */\n      sload(0x01)\n      0x0100\n      swap1\n      div\n      sub(shl(0xa0, 0x01), 0x01)\n      and\n        /* \"Items/VaultItem.sol\":325:335  msg.sender */\n      caller\n        /* \"Items/VaultItem.sol\":325:344  msg.sender == owner */\n      eq\n      dup1\n        /* \"Items/VaultItem.sol\":325:368  msg.sender == owner || msg.sender == parent */\n      tag_61\n      jumpi\n      pop\n        /* \"Items/VaultItem.sol\":362:368  parent */\n      and(sub(shl(0xa0, 0x01), 0x01), sload(0x02))\n        /* \"Items/VaultItem.sol\":348:358  msg.sender */\n      caller\n        /* \"Items/VaultItem.sol\":348:368  msg.sender == parent */\n      eq\n        /* \"Items/VaultItem.sol\":325:368  msg.sender == owner || msg.sender == parent */\n    tag_61:\n        /* \"Items/VaultItem.sol\":317:383  require(msg.sender == owner || msg.sender == parent, \"Only owner\") */\n      tag_62\n      jumpi\n      mload(0x40)\n      shl(0xe5, 0x461bcd)\n      dup2\n      mstore\n      0x04\n      add\n      tag_54\n      swap1\n      tag_55\n      jump\t// in\n    tag_62:\n        /* \"Items/VaultItem.sol\":968:974  parent */\n      0x02\n        /* \"Items/VaultItem.sol\":968:984  parent = _parnet */\n      dup1\n      sload\n      not(sub(shl(0xa0, 0x01), 0x01))\n      and\n      sub(shl(0xa0, 0x01), 0x01)\n      dup4\n      and\n      or\n      swap1\n      sstore\n        /* \"Items/VaultItem.sol\":1002:1021  Updated(msg.sender) */\n      mload(0x40)\n        /* \"Items/VaultItem.sol\":1010:1020  msg.sender */\n      caller\n        /* \"#utility.yul\":3244:3295   */\n      dup2\n      mstore\n      0x00\n      dup1\n      mload\n      0x20\n      data_2c67c2ea5f0acf1af63e6d21f70491caaa8c297045be1c6ee3e9b1d07edcb366\n      dup4\n      codecopy\n      dup2\n      mload\n      swap2\n      mstore\n        /* \"Items/VaultItem.sol\":1002:1021  Updated(msg.sender) */\n      swap1\n        /* \"#utility.yul\":3232:3234   */\n      0x20\n        /* \"#utility.yul\":3217:3235   */\n      add\n        /* \"Items/VaultItem.sol\":1002:1021  Updated(msg.sender) */\n      tag_59\n        /* \"#utility.yul\":3098:3301   */\n      jump\n        /* \"Items/VaultItem.sol\":676:787  function getItemType() external view ownerOnly returns (Constants.ItemType) {... */\n    tag_23:\n        /* \"Items/VaultItem.sol\":339:344  owner */\n      sload(0x01)\n        /* \"Items/VaultItem.sol\":732:750  Constants.ItemType */\n      0x00\n      swap1\n        /* \"Items/VaultItem.sol\":339:344  owner */\n      0x0100\n      swap1\n      div\n      sub(shl(0xa0, 0x01), 0x01)\n      and\n        /* \"Items/VaultItem.sol\":325:335  msg.sender */\n      caller\n        /* \"Items/VaultItem.sol\":325:344  msg.sender == owner */\n      eq\n      dup1\n        /* \"Items/VaultItem.sol\":325:368  msg.sender == owner || msg.sender == parent */\n      tag_67\n      jumpi\n      pop\n        /* \"Items/VaultItem.sol\":362:368  parent */\n      and(sub(shl(0xa0, 0x01), 0x01), sload(0x02))\n        /* \"Items/VaultItem.sol\":348:358  msg.sender */\n      caller\n        /* \"Items/VaultItem.sol\":348:368  msg.sender == parent */\n      eq\n        /* \"Items/VaultItem.sol\":325:368  msg.sender == owner || msg.sender == parent */\n    tag_67:\n        /* \"Items/VaultItem.sol\":317:383  require(msg.sender == owner || msg.sender == parent, \"Only owner\") */\n      tag_68\n      jumpi\n      mload(0x40)\n      shl(0xe5, 0x461bcd)\n      dup2\n      mstore\n      0x04\n      add\n      tag_54\n      swap1\n      tag_55\n      jump\t// in\n    tag_68:\n      pop\n        /* \"Items/VaultItem.sol\":770:779  item_type */\n      and(0xff, sload(0x01))\n        /* \"Items/VaultItem.sol\":676:787  function getItemType() external view ownerOnly returns (Constants.ItemType) {... */\n      swap1\n      jump\t// out\n        /* \"Items/DebitCard.sol\":1080:1217  function setExpireAt(uint16 _expire_at) external ownerOnly {... */\n    tag_29:\n        /* \"Items/VaultItem.sol\":339:344  owner */\n      sload(0x01)\n      0x0100\n      swap1\n      div\n      sub(shl(0xa0, 0x01), 0x01)\n      and\n        /* \"Items/VaultItem.sol\":325:335  msg.sender */\n      caller\n        /* \"Items/VaultItem.sol\":325:344  msg.sender == owner */\n      eq\n      dup1\n        /* \"Items/VaultItem.sol\":325:368  msg.sender == owner || msg.sender == parent */\n      tag_72\n      jumpi\n      pop\n        /* \"Items/VaultItem.sol\":362:368  parent */\n      and(sub(shl(0xa0, 0x01), 0x01), sload(0x02))\n        /* \"Items/VaultItem.sol\":348:358  msg.sender */\n      caller\n        /* \"Items/VaultItem.sol\":348:368  msg.sender == parent */\n      eq\n        /* \"Items/VaultItem.sol\":325:368  msg.sender == owner || msg.sender == parent */\n    tag_72:\n        /* \"Items/VaultItem.sol\":317:383  require(msg.sender == owner || msg.sender == parent, \"Only owner\") */\n      tag_73\n      jumpi\n      mload(0x40)\n      shl(0xe5, 0x461bcd)\n      dup2\n      mstore\n      0x04\n      add\n      tag_54\n      swap1\n      tag_55\n      jump\t// in\n    tag_73:\n        /* \"Items/DebitCard.sol\":1150:1159  expire_at */\n      0x05\n        /* \"Items/DebitCard.sol\":1150:1172  expire_at = _expire_at */\n      dup1\n      sload\n      not(0xffff)\n      and\n      0xffff\n      dup4\n      and\n      or\n      swap1\n      sstore\n        /* \"Items/DebitCard.sol\":1190:1209  Updated(msg.sender) */\n      mload(0x40)\n        /* \"Items/DebitCard.sol\":1198:1208  msg.sender */\n      caller\n        /* \"#utility.yul\":3244:3295   */\n      dup2\n      mstore\n      0x00\n      dup1\n      mload\n      0x20\n      data_2c67c2ea5f0acf1af63e6d21f70491caaa8c297045be1c6ee3e9b1d07edcb366\n      dup4\n      codecopy\n      dup2\n      mload\n      swap2\n      mstore\n        /* \"Items/DebitCard.sol\":1190:1209  Updated(msg.sender) */\n      swap1\n        /* \"#utility.yul\":3232:3234   */\n      0x20\n        /* \"#utility.yul\":3217:3235   */\n      add\n        /* \"Items/DebitCard.sol\":1190:1209  Updated(msg.sender) */\n      tag_59\n        /* \"#utility.yul\":3098:3301   */\n      jump\n        /* \"Items/DebitCard.sol\":1347:1724  function setItem(... */\n    tag_33:\n        /* \"Items/VaultItem.sol\":339:344  owner */\n      sload(0x01)\n      0x0100\n      swap1\n      div\n      sub(shl(0xa0, 0x01), 0x01)\n      and\n        /* \"Items/VaultItem.sol\":325:335  msg.sender */\n      caller\n        /* \"Items/VaultItem.sol\":325:344  msg.sender == owner */\n      eq\n      dup1\n        /* \"Items/VaultItem.sol\":325:368  msg.sender == owner || msg.sender == parent */\n      tag_78\n      jumpi\n      pop\n        /* \"Items/VaultItem.sol\":362:368  parent */\n      and(sub(shl(0xa0, 0x01), 0x01), sload(0x02))\n        /* \"Items/VaultItem.sol\":348:358  msg.sender */\n      caller\n        /* \"Items/VaultItem.sol\":348:368  msg.sender == parent */\n      eq\n        /* \"Items/VaultItem.sol\":325:368  msg.sender == owner || msg.sender == parent */\n    tag_78:\n        /* \"Items/VaultItem.sol\":317:383  require(msg.sender == owner || msg.sender == parent, \"Only owner\") */\n      tag_79\n      jumpi\n      mload(0x40)\n      shl(0xe5, 0x461bcd)\n      dup2\n      mstore\n      0x04\n      add\n      tag_54\n      swap1\n      tag_55\n      jump\t// in\n    tag_79:\n        /* \"Items/DebitCard.sol\":1545:1549  name */\n      0x00\n        /* \"Items/DebitCard.sol\":1545:1557  name = _name */\n      tag_82\n        /* \"Items/DebitCard.sol\":1552:1557  _name */\n      dup7\n        /* \"Items/DebitCard.sol\":1545:1549  name */\n      dup3\n        /* \"Items/DebitCard.sol\":1545:1557  name = _name */\n      tag_58\n      jump\t// in\n    tag_82:\n      pop\n        /* \"Items/DebitCard.sol\":1568:1575  card_id */\n      0x03\n        /* \"Items/DebitCard.sol\":1568:1586  card_id = _card_id */\n      tag_83\n        /* \"Items/DebitCard.sol\":1578:1586  _card_id */\n      dup6\n        /* \"Items/DebitCard.sol\":1568:1575  card_id */\n      dup3\n        /* \"Items/DebitCard.sol\":1568:1586  card_id = _card_id */\n      tag_58\n      jump\t// in\n    tag_83:\n      pop\n        /* \"Items/DebitCard.sol\":1597:1609  name_on_card */\n      0x04\n        /* \"Items/DebitCard.sol\":1597:1625  name_on_card = _name_on_card */\n      tag_84\n        /* \"Items/DebitCard.sol\":1612:1625  _name_on_card */\n      dup5\n        /* \"Items/DebitCard.sol\":1597:1609  name_on_card */\n      dup3\n        /* \"Items/DebitCard.sol\":1597:1625  name_on_card = _name_on_card */\n      tag_58\n      jump\t// in\n    tag_84:\n      pop\n        /* \"Items/DebitCard.sol\":1636:1645  expire_at */\n      0x05\n        /* \"Items/DebitCard.sol\":1636:1658  expire_at = _expire_at */\n      dup1\n      sload\n      0xffff\n        /* \"Items/DebitCard.sol\":1669:1679  cvv = _cvv */\n      dup4\n      dup2\n      and\n      0x010000\n      mul\n      not(0xffffffff)\n      swap1\n      swap3\n      and\n        /* \"Items/DebitCard.sol\":1636:1658  expire_at = _expire_at */\n      swap1\n      dup6\n      and\n        /* \"Items/DebitCard.sol\":1669:1679  cvv = _cvv */\n      or\n      or\n      swap1\n      sstore\n        /* \"Items/DebitCard.sol\":1697:1716  Updated(msg.sender) */\n      mload(0x40)\n        /* \"Items/DebitCard.sol\":1705:1715  msg.sender */\n      caller\n        /* \"#utility.yul\":3244:3295   */\n      dup2\n      mstore\n      0x00\n      dup1\n      mload\n      0x20\n      data_2c67c2ea5f0acf1af63e6d21f70491caaa8c297045be1c6ee3e9b1d07edcb366\n      dup4\n      codecopy\n      dup2\n      mload\n      swap2\n      mstore\n        /* \"Items/DebitCard.sol\":1697:1716  Updated(msg.sender) */\n      swap1\n        /* \"#utility.yul\":3232:3234   */\n      0x20\n        /* \"#utility.yul\":3217:3235   */\n      add\n        /* \"Items/DebitCard.sol\":1697:1716  Updated(msg.sender) */\n      mload(0x40)\n      dup1\n      swap2\n      sub\n      swap1\n      log1\n        /* \"Items/DebitCard.sol\":1347:1724  function setItem(... */\n      pop\n      pop\n      pop\n      pop\n      pop\n      jump\t// out\n        /* \"Items/VaultItem.sol\":795:892  function getParent() external view ownerOnly returns (address) {... */\n    tag_35:\n        /* \"Items/VaultItem.sol\":339:344  owner */\n      sload(0x01)\n        /* \"Items/VaultItem.sol\":849:856  address */\n      0x00\n      swap1\n        /* \"Items/VaultItem.sol\":339:344  owner */\n      0x0100\n      swap1\n      div\n      sub(shl(0xa0, 0x01), 0x01)\n      and\n        /* \"Items/VaultItem.sol\":325:335  msg.sender */\n      caller\n        /* \"Items/VaultItem.sol\":325:344  msg.sender == owner */\n      eq\n      dup1\n        /* \"Items/VaultItem.sol\":325:368  msg.sender == owner || msg.sender == parent */\n      tag_87\n      jumpi\n      pop\n        /* \"Items/VaultItem.sol\":362:368  parent */\n      and(sub(shl(0xa0, 0x01), 0x01), sload(0x02))\n        /* \"Items/VaultItem.sol\":348:358  msg.sender */\n      caller\n        /* \"Items/VaultItem.sol\":348:368  msg.sender == parent */\n      eq\n        /* \"Items/VaultItem.sol\":325:368  msg.sender == owner || msg.sender == parent */\n    tag_87:\n        /* \"Items/VaultItem.sol\":317:383  require(msg.sender == owner || msg.sender == parent, \"Only owner\") */\n      tag_88\n      jumpi\n      mload(0x40)\n      shl(0xe5, 0x461bcd)\n      dup2\n      mstore\n      0x04\n      add\n      tag_54\n      swap1\n      tag_55\n      jump\t// in\n    tag_88:\n      pop\n        /* \"Items/VaultItem.sol\":878:884  parent */\n      and(sub(shl(0xa0, 0x01), 0x01), sload(0x02))\n        /* \"Items/VaultItem.sol\":795:892  function getParent() external view ownerOnly returns (address) {... */\n      swap1\n      jump\t// out\n        /* \"Items/DebitCard.sol\":1732:1917  function expose() external view ownerOnly returns (string memory, string memory, string memory, uint16, uint16) {... */\n    tag_39:\n        /* \"Items/DebitCard.sol\":1783:1796  string memory */\n      0x60\n        /* \"Items/DebitCard.sol\":1798:1811  string memory */\n      dup1\n        /* \"Items/DebitCard.sol\":1813:1826  string memory */\n      0x60\n        /* \"Items/DebitCard.sol\":1828:1834  uint16 */\n      0x00\n        /* \"Items/DebitCard.sol\":1836:1842  uint16 */\n      dup1\n        /* \"Items/VaultItem.sol\":339:344  owner */\n      0x01\n      dup1\n      sload\n      swap1\n      0x0100\n      exp\n      swap1\n      div\n      sub(shl(0xa0, 0x01), 0x01)\n      and\n      sub(shl(0xa0, 0x01), 0x01)\n        /* \"Items/VaultItem.sol\":325:344  msg.sender == owner */\n      and\n        /* \"Items/VaultItem.sol\":325:335  msg.sender */\n      caller\n      sub(shl(0xa0, 0x01), 0x01)\n        /* \"Items/VaultItem.sol\":325:344  msg.sender == owner */\n      and\n      eq\n        /* \"Items/VaultItem.sol\":325:368  msg.sender == owner || msg.sender == parent */\n      dup1\n      tag_92\n      jumpi\n      pop\n        /* \"Items/VaultItem.sol\":362:368  parent */\n      and(sub(shl(0xa0, 0x01), 0x01), sload(0x02))\n        /* \"Items/VaultItem.sol\":348:358  msg.sender */\n      caller\n        /* \"Items/VaultItem.sol\":348:368  msg.sender == parent */\n      eq\n        /* \"Items/VaultItem.sol\":325:368  msg.sender == owner || msg.sender == parent */\n    tag_92:\n        /* \"Items/VaultItem.sol\":317:383  require(msg.sender == owner || msg.sender == parent, \"Only owner\") */\n      tag_93\n      jumpi\n      mload(0x40)\n      shl(0xe5, 0x461bcd)\n      dup2\n      mstore\n      0x04\n      add\n      tag_54\n      swap1\n      tag_55\n      jump\t// in\n    tag_93:\n        /* \"Items/DebitCard.sol\":1893:1902  expire_at */\n      sload(0x05)\n        /* \"Items/DebitCard.sol\":1864:1868  name */\n      0x00\n        /* \"Items/DebitCard.sol\":1855:1909  return ( name, card_id, name_on_card, expire_at, cvv ) */\n      dup1\n      sload\n        /* \"Items/DebitCard.sol\":1864:1868  name */\n      swap1\n      swap2\n        /* \"Items/DebitCard.sol\":1870:1877  card_id */\n      0x03\n      swap2\n        /* \"Items/DebitCard.sol\":1879:1891  name_on_card */\n      0x04\n      swap2\n        /* \"Items/DebitCard.sol\":1893:1902  expire_at */\n      0xffff\n      dup1\n      dup3\n      and\n      swap3\n        /* \"Items/DebitCard.sol\":1904:1907  cvv */\n      0x010000\n      swap1\n      swap3\n      div\n      and\n      swap1\n        /* \"Items/DebitCard.sol\":1864:1868  name */\n      dup6\n      swap1\n        /* \"Items/DebitCard.sol\":1855:1909  return ( name, card_id, name_on_card, expire_at, cvv ) */\n      tag_96\n      swap1\n      tag_97\n      jump\t// in\n    tag_96:\n      dup1\n      0x1f\n      add\n      0x20\n      dup1\n      swap2\n      div\n      mul\n      0x20\n      add\n      mload(0x40)\n      swap1\n      dup2\n      add\n      0x40\n      mstore\n      dup1\n      swap3\n      swap2\n      swap1\n      dup2\n      dup2\n      mstore\n      0x20\n      add\n      dup3\n      dup1\n      sload\n      tag_98\n      swap1\n      tag_97\n      jump\t// in\n    tag_98:\n      dup1\n      iszero\n      tag_99\n      jumpi\n      dup1\n      0x1f\n      lt\n      tag_100\n      jumpi\n      0x0100\n      dup1\n      dup4\n      sload\n      div\n      mul\n      dup4\n      mstore\n      swap2\n      0x20\n      add\n      swap2\n      jump(tag_99)\n    tag_100:\n      dup3\n      add\n      swap2\n      swap1\n      0x00\n      mstore\n      keccak256(0x00, 0x20)\n      swap1\n    tag_101:\n      dup2\n      sload\n      dup2\n      mstore\n      swap1\n      0x01\n      add\n      swap1\n      0x20\n      add\n      dup1\n      dup4\n      gt\n      tag_101\n      jumpi\n      dup3\n      swap1\n      sub\n      0x1f\n      and\n      dup3\n      add\n      swap2\n    tag_99:\n      pop\n      pop\n      pop\n      pop\n      pop\n      swap5\n      pop\n      dup4\n      dup1\n      sload\n      tag_102\n      swap1\n      tag_97\n      jump\t// in\n    tag_102:\n      dup1\n      0x1f\n      add\n      0x20\n      dup1\n      swap2\n      div\n      mul\n      0x20\n      add\n      mload(0x40)\n      swap1\n      dup2\n      add\n      0x40\n      mstore\n      dup1\n      swap3\n      swap2\n      swap1\n      dup2\n      dup2\n      mstore\n      0x20\n      add\n      dup3\n      dup1\n      sload\n      tag_103\n      swap1\n      tag_97\n      jump\t// in\n    tag_103:\n      dup1\n      iszero\n      tag_104\n      jumpi\n      dup1\n      0x1f\n      lt\n      tag_105\n      jumpi\n      0x0100\n      dup1\n      dup4\n      sload\n      div\n      mul\n      dup4\n      mstore\n      swap2\n      0x20\n      add\n      swap2\n      jump(tag_104)\n    tag_105:\n      dup3\n      add\n      swap2\n      swap1\n      0x00\n      mstore\n      keccak256(0x00, 0x20)\n      swap1\n    tag_106:\n      dup2\n      sload\n      dup2\n      mstore\n      swap1\n      0x01\n      add\n      swap1\n      0x20\n      add\n      dup1\n      dup4\n      gt\n      tag_106\n      jumpi\n      dup3\n      swap1\n      sub\n      0x1f\n      and\n      dup3\n      add\n      swap2\n    tag_104:\n      pop\n      pop\n      pop\n      pop\n      pop\n      swap4\n      pop\n      dup3\n      dup1\n      sload\n      tag_107\n      swap1\n      tag_97\n      jump\t// in\n    tag_107:\n      dup1\n      0x1f\n      add\n      0x20\n      dup1\n      swap2\n      div\n      mul\n      0x20\n      add\n      mload(0x40)\n      swap1\n      dup2\n      add\n      0x40\n      mstore\n      dup1\n      swap3\n      swap2\n      swap1\n      dup2\n      dup2\n      mstore\n      0x20\n      add\n      dup3\n      dup1\n      sload\n      tag_108\n      swap1\n      tag_97\n      jump\t// in\n    tag_108:\n      dup1\n      iszero\n      tag_109\n      jumpi\n      dup1\n      0x1f\n      lt\n      tag_110\n      jumpi\n      0x0100\n      dup1\n      dup4\n      sload\n      div\n      mul\n      dup4\n      mstore\n      swap2\n      0x20\n      add\n      swap2\n      jump(tag_109)\n    tag_110:\n      dup3\n      add\n      swap2\n      swap1\n      0x00\n      mstore\n      keccak256(0x00, 0x20)\n      swap1\n    tag_111:\n      dup2\n      sload\n      dup2\n      mstore\n      swap1\n      0x01\n      add\n      swap1\n      0x20\n      add\n      dup1\n      dup4\n      gt\n      tag_111\n      jumpi\n      dup3\n      swap1\n      sub\n      0x1f\n      and\n      dup3\n      add\n      swap2\n    tag_109:\n      pop\n      pop\n      pop\n      pop\n      pop\n      swap3\n      pop\n      swap5\n      pop\n      swap5\n      pop\n      swap5\n      pop\n      swap5\n      pop\n      swap5\n      pop\n        /* \"Items/DebitCard.sol\":1732:1917  function expose() external view ownerOnly returns (string memory, string memory, string memory, uint16, uint16) {... */\n      swap1\n      swap2\n      swap3\n      swap4\n      swap5\n      jump\t// out\n        /* \"Items/DebitCard.sol\":1225:1339  function setCvv(uint16 _cvv) external ownerOnly {... */\n    tag_44:\n        /* \"Items/VaultItem.sol\":339:344  owner */\n      sload(0x01)\n      0x0100\n      swap1\n      div\n      sub(shl(0xa0, 0x01), 0x01)\n      and\n        /* \"Items/VaultItem.sol\":325:335  msg.sender */\n      caller\n        /* \"Items/VaultItem.sol\":325:344  msg.sender == owner */\n      eq\n      dup1\n        /* \"Items/VaultItem.sol\":325:368  msg.sender == owner || msg.sender == parent */\n      tag_113\n      jumpi\n      pop\n        /* \"Items/VaultItem.sol\":362:368  parent */\n      and(sub(shl(0xa0, 0x01), 0x01), sload(0x02))\n        /* \"Items/VaultItem.sol\":348:358  msg.sender */\n      caller\n        /* \"Items/VaultItem.sol\":348:368  msg.sender == parent */\n      eq\n        /* \"Items/VaultItem.sol\":325:368  msg.sender == owner || msg.sender == parent */\n    tag_113:\n        /* \"Items/VaultItem.sol\":317:383  require(msg.sender == owner || msg.sender == parent, \"Only owner\") */\n      tag_114\n      jumpi\n      mload(0x40)\n      shl(0xe5, 0x461bcd)\n      dup2\n      mstore\n      0x04\n      add\n      tag_54\n      swap1\n      tag_55\n      jump\t// in\n    tag_114:\n        /* \"Items/DebitCard.sol\":1284:1287  cvv */\n      0x05\n        /* \"Items/DebitCard.sol\":1284:1294  cvv = _cvv */\n      dup1\n      sload\n      not(0xffff0000)\n      and\n      0x010000\n      0xffff\n      dup5\n      and\n      mul\n      or\n      swap1\n      sstore\n        /* \"Items/DebitCard.sol\":1312:1331  Updated(msg.sender) */\n      mload(0x40)\n        /* \"Items/DebitCard.sol\":1320:1330  msg.sender */\n      caller\n        /* \"#utility.yul\":3244:3295   */\n      dup2\n      mstore\n      0x00\n      dup1\n      mload\n      0x20\n      data_2c67c2ea5f0acf1af63e6d21f70491caaa8c297045be1c6ee3e9b1d07edcb366\n      dup4\n      codecopy\n      dup2\n      mload\n      swap2\n      mstore\n        /* \"Items/DebitCard.sol\":1312:1331  Updated(msg.sender) */\n      swap1\n        /* \"#utility.yul\":3232:3234   */\n      0x20\n        /* \"#utility.yul\":3217:3235   */\n      add\n        /* \"Items/DebitCard.sol\":1312:1331  Updated(msg.sender) */\n      tag_59\n        /* \"#utility.yul\":3098:3301   */\n      jump\n        /* \"Items/VaultItem.sol\":1037:1162  function setName(string memory _name) external ownerOnly {... */\n    tag_47:\n        /* \"Items/VaultItem.sol\":339:344  owner */\n      sload(0x01)\n      0x0100\n      swap1\n      div\n      sub(shl(0xa0, 0x01), 0x01)\n      and\n        /* \"Items/VaultItem.sol\":325:335  msg.sender */\n      caller\n        /* \"Items/VaultItem.sol\":325:344  msg.sender == owner */\n      eq\n      dup1\n        /* \"Items/VaultItem.sol\":325:368  msg.sender == owner || msg.sender == parent */\n      tag_119\n      jumpi\n      pop\n        /* \"Items/VaultItem.sol\":362:368  parent */\n      and(sub(shl(0xa0, 0x01), 0x01), sload(0x02))\n        /* \"Items/VaultItem.sol\":348:358  msg.sender */\n      caller\n        /* \"Items/VaultItem.sol\":348:368  msg.sender == parent */\n      eq\n        /* \"Items/VaultItem.sol\":325:368  msg.sender == owner || msg.sender == parent */\n    tag_119:\n        /* \"Items/VaultItem.sol\":317:383  require(msg.sender == owner || msg.sender == parent, \"Only owner\") */\n      tag_120\n      jumpi\n      mload(0x40)\n      shl(0xe5, 0x461bcd)\n      dup2\n      mstore\n      0x04\n      add\n      tag_54\n      swap1\n      tag_55\n      jump\t// in\n    tag_120:\n        /* \"Items/VaultItem.sol\":1105:1109  name */\n      0x00\n        /* \"Items/VaultItem.sol\":1105:1117  name = _name */\n      tag_57\n        /* \"Items/VaultItem.sol\":1112:1117  _name */\n      dup3\n        /* \"Items/VaultItem.sol\":1105:1109  name */\n      dup3\n        /* \"Items/VaultItem.sol\":1105:1117  name = _name */\n      tag_58\n      jump\t// in\n        /* \"Items/DebitCard.sol\":773:909  function setCardId(string memory _card_id) external ownerOnly {... */\n    tag_50:\n        /* \"Items/VaultItem.sol\":339:344  owner */\n      sload(0x01)\n      0x0100\n      swap1\n      div\n      sub(shl(0xa0, 0x01), 0x01)\n      and\n        /* \"Items/VaultItem.sol\":325:335  msg.sender */\n      caller\n        /* \"Items/VaultItem.sol\":325:344  msg.sender == owner */\n      eq\n      dup1\n        /* \"Items/VaultItem.sol\":325:368  msg.sender == owner || msg.sender == parent */\n      tag_126\n      jumpi\n      pop\n        /* \"Items/VaultItem.sol\":362:368  parent */\n      and(sub(shl(0xa0, 0x01), 0x01), sload(0x02))\n        /* \"Items/VaultItem.sol\":348:358  msg.sender */\n      caller\n        /* \"Items/VaultItem.sol\":348:368  msg.sender == parent */\n      eq\n        /* \"Items/VaultItem.sol\":325:368  msg.sender == owner || msg.sender == parent */\n    tag_126:\n        /* \"Items/VaultItem.sol\":317:383  require(msg.sender == owner || msg.sender == parent, \"Only owner\") */\n      tag_127\n      jumpi\n      mload(0x40)\n      shl(0xe5, 0x461bcd)\n      dup2\n      mstore\n      0x04\n      add\n      tag_54\n      swap1\n      tag_55\n      jump\t// in\n    tag_127:\n        /* \"Items/DebitCard.sol\":846:853  card_id */\n      0x03\n        /* \"Items/DebitCard.sol\":846:864  card_id = _card_id */\n      tag_57\n        /* \"Items/DebitCard.sol\":856:864  _card_id */\n      dup3\n        /* \"Items/DebitCard.sol\":846:853  card_id */\n      dup3\n        /* \"Items/DebitCard.sol\":846:864  card_id = _card_id */\n      tag_58\n      jump\t// in\n        /* \"#utility.yul\":14:141   */\n    tag_132:\n        /* \"#utility.yul\":75:85   */\n      0x4e487b71\n        /* \"#utility.yul\":70:73   */\n      0xe0\n        /* \"#utility.yul\":66:86   */\n      shl\n        /* \"#utility.yul\":63:64   */\n      0x00\n        /* \"#utility.yul\":56:87   */\n      mstore\n        /* \"#utility.yul\":106:110   */\n      0x41\n        /* \"#utility.yul\":103:104   */\n      0x04\n        /* \"#utility.yul\":96:111   */\n      mstore\n        /* \"#utility.yul\":130:134   */\n      0x24\n        /* \"#utility.yul\":127:128   */\n      0x00\n        /* \"#utility.yul\":120:135   */\n      revert\n        /* \"#utility.yul\":146:872   */\n    tag_133:\n        /* \"#utility.yul\":189:194   */\n      0x00\n        /* \"#utility.yul\":242:245   */\n      dup3\n        /* \"#utility.yul\":235:239   */\n      0x1f\n        /* \"#utility.yul\":227:233   */\n      dup4\n        /* \"#utility.yul\":223:240   */\n      add\n        /* \"#utility.yul\":219:246   */\n      slt\n        /* \"#utility.yul\":209:264   */\n      tag_142\n      jumpi\n        /* \"#utility.yul\":260:261   */\n      0x00\n        /* \"#utility.yul\":257:258   */\n      dup1\n        /* \"#utility.yul\":250:262   */\n      revert\n        /* \"#utility.yul\":209:264   */\n    tag_142:\n        /* \"#utility.yul\":300:306   */\n      dup2\n        /* \"#utility.yul\":287:307   */\n      calldataload\n        /* \"#utility.yul\":330:348   */\n      0xffffffffffffffff\n        /* \"#utility.yul\":322:328   */\n      dup2\n        /* \"#utility.yul\":319:349   */\n      gt\n        /* \"#utility.yul\":316:372   */\n      iszero\n      tag_144\n      jumpi\n        /* \"#utility.yul\":352:370   */\n      tag_144\n      tag_132\n      jump\t// in\n    tag_144:\n        /* \"#utility.yul\":401:403   */\n      0x40\n        /* \"#utility.yul\":395:404   */\n      mload\n        /* \"#utility.yul\":493:495   */\n      0x1f\n        /* \"#utility.yul\":455:472   */\n      dup3\n      add\n      not(0x1f)\n        /* \"#utility.yul\":451:482   */\n      swap1\n      dup2\n      and\n        /* \"#utility.yul\":484:486   */\n      0x3f\n        /* \"#utility.yul\":447:487   */\n      add\n        /* \"#utility.yul\":443:497   */\n      and\n        /* \"#utility.yul\":431:498   */\n      dup2\n      add\n        /* \"#utility.yul\":528:546   */\n      0xffffffffffffffff\n        /* \"#utility.yul\":513:547   */\n      dup2\n      gt\n        /* \"#utility.yul\":549:571   */\n      dup3\n      dup3\n      lt\n        /* \"#utility.yul\":510:572   */\n      or\n        /* \"#utility.yul\":507:595   */\n      iszero\n      tag_146\n      jumpi\n        /* \"#utility.yul\":575:593   */\n      tag_146\n      tag_132\n      jump\t// in\n    tag_146:\n        /* \"#utility.yul\":611:613   */\n      0x40\n        /* \"#utility.yul\":604:626   */\n      mstore\n        /* \"#utility.yul\":635:657   */\n      dup2\n      dup2\n      mstore\n        /* \"#utility.yul\":676:695   */\n      dup4\n      dup3\n      add\n        /* \"#utility.yul\":697:701   */\n      0x20\n        /* \"#utility.yul\":672:702   */\n      add\n        /* \"#utility.yul\":669:708   */\n      dup6\n      lt\n        /* \"#utility.yul\":666:725   */\n      iszero\n      tag_147\n      jumpi\n        /* \"#utility.yul\":721:722   */\n      0x00\n        /* \"#utility.yul\":718:719   */\n      dup1\n        /* \"#utility.yul\":711:723   */\n      revert\n        /* \"#utility.yul\":666:725   */\n    tag_147:\n        /* \"#utility.yul\":785:791   */\n      dup2\n        /* \"#utility.yul\":778:782   */\n      0x20\n        /* \"#utility.yul\":770:776   */\n      dup6\n        /* \"#utility.yul\":766:783   */\n      add\n        /* \"#utility.yul\":759:763   */\n      0x20\n        /* \"#utility.yul\":751:757   */\n      dup4\n        /* \"#utility.yul\":747:764   */\n      add\n        /* \"#utility.yul\":734:792   */\n      calldatacopy\n        /* \"#utility.yul\":840:841   */\n      0x00\n        /* \"#utility.yul\":812:831   */\n      swap2\n      dup2\n      add\n        /* \"#utility.yul\":833:837   */\n      0x20\n        /* \"#utility.yul\":808:838   */\n      add\n        /* \"#utility.yul\":801:842   */\n      swap2\n      swap1\n      swap2\n      mstore\n        /* \"#utility.yul\":816:822   */\n      swap4\n        /* \"#utility.yul\":146:872   */\n      swap3\n      pop\n      pop\n      pop\n      jump\t// out\n        /* \"#utility.yul\":877:1199   */\n    tag_16:\n        /* \"#utility.yul\":946:952   */\n      0x00\n        /* \"#utility.yul\":999:1001   */\n      0x20\n        /* \"#utility.yul\":987:996   */\n      dup3\n        /* \"#utility.yul\":978:985   */\n      dup5\n        /* \"#utility.yul\":974:997   */\n      sub\n        /* \"#utility.yul\":970:1002   */\n      slt\n        /* \"#utility.yul\":967:1019   */\n      iszero\n      tag_149\n      jumpi\n        /* \"#utility.yul\":1015:1016   */\n      0x00\n        /* \"#utility.yul\":1012:1013   */\n      dup1\n        /* \"#utility.yul\":1005:1017   */\n      revert\n        /* \"#utility.yul\":967:1019   */\n    tag_149:\n        /* \"#utility.yul\":1055:1064   */\n      dup2\n        /* \"#utility.yul\":1042:1065   */\n      calldataload\n        /* \"#utility.yul\":1088:1106   */\n      0xffffffffffffffff\n        /* \"#utility.yul\":1080:1086   */\n      dup2\n        /* \"#utility.yul\":1077:1107   */\n      gt\n        /* \"#utility.yul\":1074:1124   */\n      iszero\n      tag_150\n      jumpi\n        /* \"#utility.yul\":1120:1121   */\n      0x00\n        /* \"#utility.yul\":1117:1118   */\n      dup1\n        /* \"#utility.yul\":1110:1122   */\n      revert\n        /* \"#utility.yul\":1074:1124   */\n    tag_150:\n        /* \"#utility.yul\":1143:1193   */\n      tag_151\n        /* \"#utility.yul\":1185:1192   */\n      dup5\n        /* \"#utility.yul\":1176:1182   */\n      dup3\n        /* \"#utility.yul\":1165:1174   */\n      dup6\n        /* \"#utility.yul\":1161:1183   */\n      add\n        /* \"#utility.yul\":1143:1193   */\n      tag_133\n      jump\t// in\n    tag_151:\n        /* \"#utility.yul\":1133:1193   */\n      swap5\n        /* \"#utility.yul\":877:1199   */\n      swap4\n      pop\n      pop\n      pop\n      pop\n      jump\t// out\n        /* \"#utility.yul\":1204:1490   */\n    tag_20:\n        /* \"#utility.yul\":1263:1269   */\n      0x00\n        /* \"#utility.yul\":1316:1318   */\n      0x20\n        /* \"#utility.yul\":1304:1313   */\n      dup3\n        /* \"#utility.yul\":1295:1302   */\n      dup5\n        /* \"#utility.yul\":1291:1314   */\n      sub\n        /* \"#utility.yul\":1287:1319   */\n      slt\n        /* \"#utility.yul\":1284:1336   */\n      iszero\n      tag_153\n      jumpi\n        /* \"#utility.yul\":1332:1333   */\n      0x00\n        /* \"#utility.yul\":1329:1330   */\n      dup1\n        /* \"#utility.yul\":1322:1334   */\n      revert\n        /* \"#utility.yul\":1284:1336   */\n    tag_153:\n        /* \"#utility.yul\":1358:1381   */\n      dup2\n      calldataload\n      sub(shl(0xa0, 0x01), 0x01)\n        /* \"#utility.yul\":1410:1441   */\n      dup2\n      and\n        /* \"#utility.yul\":1400:1442   */\n      dup2\n      eq\n        /* \"#utility.yul\":1390:1460   */\n      tag_154\n      jumpi\n        /* \"#utility.yul\":1456:1457   */\n      0x00\n        /* \"#utility.yul\":1453:1454   */\n      dup1\n        /* \"#utility.yul\":1446:1458   */\n      revert\n        /* \"#utility.yul\":1390:1460   */\n    tag_154:\n        /* \"#utility.yul\":1479:1484   */\n      swap4\n        /* \"#utility.yul\":1204:1490   */\n      swap3\n      pop\n      pop\n      pop\n      jump\t// out\n        /* \"#utility.yul\":1495:1835   */\n    tag_25:\n        /* \"#utility.yul\":1639:1641   */\n      0x20\n        /* \"#utility.yul\":1624:1642   */\n      dup2\n      add\n        /* \"#utility.yul\":1672:1673   */\n      0x03\n        /* \"#utility.yul\":1661:1674   */\n      dup4\n      lt\n        /* \"#utility.yul\":1651:1795   */\n      tag_156\n      jumpi\n        /* \"#utility.yul\":1717:1727   */\n      0x4e487b71\n        /* \"#utility.yul\":1712:1715   */\n      0xe0\n        /* \"#utility.yul\":1708:1728   */\n      shl\n        /* \"#utility.yul\":1705:1706   */\n      0x00\n        /* \"#utility.yul\":1698:1729   */\n      mstore\n        /* \"#utility.yul\":1752:1756   */\n      0x21\n        /* \"#utility.yul\":1749:1750   */\n      0x04\n        /* \"#utility.yul\":1742:1757   */\n      mstore\n        /* \"#utility.yul\":1780:1784   */\n      0x24\n        /* \"#utility.yul\":1777:1778   */\n      0x00\n        /* \"#utility.yul\":1770:1785   */\n      revert\n        /* \"#utility.yul\":1651:1795   */\n    tag_156:\n        /* \"#utility.yul\":1804:1829   */\n      swap2\n      swap1\n      mstore\n        /* \"#utility.yul\":1495:1835   */\n      swap1\n      jump\t// out\n        /* \"#utility.yul\":1840:1999   */\n    tag_134:\n        /* \"#utility.yul\":1907:1927   */\n      dup1\n      calldataload\n        /* \"#utility.yul\":1967:1973   */\n      0xffff\n        /* \"#utility.yul\":1956:1974   */\n      dup2\n      and\n        /* \"#utility.yul\":1946:1975   */\n      dup2\n      eq\n        /* \"#utility.yul\":1936:1993   */\n      tag_158\n      jumpi\n        /* \"#utility.yul\":1989:1990   */\n      0x00\n        /* \"#utility.yul\":1986:1987   */\n      dup1\n        /* \"#utility.yul\":1979:1991   */\n      revert\n        /* \"#utility.yul\":1936:1993   */\n    tag_158:\n        /* \"#utility.yul\":1840:1999   */\n      swap2\n      swap1\n      pop\n      jump\t// out\n        /* \"#utility.yul\":2004:2188   */\n    tag_28:\n        /* \"#utility.yul\":2062:2068   */\n      0x00\n        /* \"#utility.yul\":2115:2117   */\n      0x20\n        /* \"#utility.yul\":2103:2112   */\n      dup3\n        /* \"#utility.yul\":2094:2101   */\n      dup5\n        /* \"#utility.yul\":2090:2113   */\n      sub\n        /* \"#utility.yul\":2086:2118   */\n      slt\n        /* \"#utility.yul\":2083:2135   */\n      iszero\n      tag_160\n      jumpi\n        /* \"#utility.yul\":2131:2132   */\n      0x00\n        /* \"#utility.yul\":2128:2129   */\n      dup1\n        /* \"#utility.yul\":2121:2133   */\n      revert\n        /* \"#utility.yul\":2083:2135   */\n    tag_160:\n        /* \"#utility.yul\":2154:2182   */\n      tag_154\n        /* \"#utility.yul\":2172:2181   */\n      dup3\n        /* \"#utility.yul\":2154:2182   */\n      tag_134\n      jump\t// in\n        /* \"#utility.yul\":2193:3093   */\n    tag_32:\n        /* \"#utility.yul\":2316:2322   */\n      0x00\n        /* \"#utility.yul\":2324:2330   */\n      dup1\n        /* \"#utility.yul\":2332:2338   */\n      0x00\n        /* \"#utility.yul\":2340:2346   */\n      dup1\n        /* \"#utility.yul\":2348:2354   */\n      0x00\n        /* \"#utility.yul\":2401:2404   */\n      0xa0\n        /* \"#utility.yul\":2389:2398   */\n      dup7\n        /* \"#utility.yul\":2380:2387   */\n      dup9\n        /* \"#utility.yul\":2376:2399   */\n      sub\n        /* \"#utility.yul\":2372:2405   */\n      slt\n        /* \"#utility.yul\":2369:2422   */\n      iszero\n      tag_163\n      jumpi\n        /* \"#utility.yul\":2418:2419   */\n      0x00\n        /* \"#utility.yul\":2415:2416   */\n      dup1\n        /* \"#utility.yul\":2408:2420   */\n      revert\n        /* \"#utility.yul\":2369:2422   */\n    tag_163:\n        /* \"#utility.yul\":2458:2467   */\n      dup6\n        /* \"#utility.yul\":2445:2468   */\n      calldataload\n        /* \"#utility.yul\":2491:2509   */\n      0xffffffffffffffff\n        /* \"#utility.yul\":2483:2489   */\n      dup2\n        /* \"#utility.yul\":2480:2510   */\n      gt\n        /* \"#utility.yul\":2477:2527   */\n      iszero\n      tag_164\n      jumpi\n        /* \"#utility.yul\":2523:2524   */\n      0x00\n        /* \"#utility.yul\":2520:2521   */\n      dup1\n        /* \"#utility.yul\":2513:2525   */\n      revert\n        /* \"#utility.yul\":2477:2527   */\n    tag_164:\n        /* \"#utility.yul\":2546:2596   */\n      tag_165\n        /* \"#utility.yul\":2588:2595   */\n      dup9\n        /* \"#utility.yul\":2579:2585   */\n      dup3\n        /* \"#utility.yul\":2568:2577   */\n      dup10\n        /* \"#utility.yul\":2564:2586   */\n      add\n        /* \"#utility.yul\":2546:2596   */\n      tag_133\n      jump\t// in\n    tag_165:\n        /* \"#utility.yul\":2536:2596   */\n      swap6\n      pop\n      pop\n        /* \"#utility.yul\":2649:2651   */\n      0x20\n        /* \"#utility.yul\":2638:2647   */\n      dup7\n        /* \"#utility.yul\":2634:2652   */\n      add\n        /* \"#utility.yul\":2621:2653   */\n      calldataload\n        /* \"#utility.yul\":2678:2696   */\n      0xffffffffffffffff\n        /* \"#utility.yul\":2668:2676   */\n      dup2\n        /* \"#utility.yul\":2665:2697   */\n      gt\n        /* \"#utility.yul\":2662:2714   */\n      iszero\n      tag_166\n      jumpi\n        /* \"#utility.yul\":2710:2711   */\n      0x00\n        /* \"#utility.yul\":2707:2708   */\n      dup1\n        /* \"#utility.yul\":2700:2712   */\n      revert\n        /* \"#utility.yul\":2662:2714   */\n    tag_166:\n        /* \"#utility.yul\":2733:2785   */\n      tag_167\n        /* \"#utility.yul\":2777:2784   */\n      dup9\n        /* \"#utility.yul\":2766:2774   */\n      dup3\n        /* \"#utility.yul\":2755:2764   */\n      dup10\n        /* \"#utility.yul\":2751:2775   */\n      add\n        /* \"#utility.yul\":2733:2785   */\n      tag_133\n      jump\t// in\n    tag_167:\n        /* \"#utility.yul\":2723:2785   */\n      swap5\n      pop\n      pop\n        /* \"#utility.yul\":2838:2840   */\n      0x40\n        /* \"#utility.yul\":2827:2836   */\n      dup7\n        /* \"#utility.yul\":2823:2841   */\n      add\n        /* \"#utility.yul\":2810:2842   */\n      calldataload\n        /* \"#utility.yul\":2867:2885   */\n      0xffffffffffffffff\n        /* \"#utility.yul\":2857:2865   */\n      dup2\n        /* \"#utility.yul\":2854:2886   */\n      gt\n        /* \"#utility.yul\":2851:2903   */\n      iszero\n      tag_168\n      jumpi\n        /* \"#utility.yul\":2899:2900   */\n      0x00\n        /* \"#utility.yul\":2896:2897   */\n      dup1\n        /* \"#utility.yul\":2889:2901   */\n      revert\n        /* \"#utility.yul\":2851:2903   */\n    tag_168:\n        /* \"#utility.yul\":2922:2974   */\n      tag_169\n        /* \"#utility.yul\":2966:2973   */\n      dup9\n        /* \"#utility.yul\":2955:2963   */\n      dup3\n        /* \"#utility.yul\":2944:2953   */\n      dup10\n        /* \"#utility.yul\":2940:2964   */\n      add\n        /* \"#utility.yul\":2922:2974   */\n      tag_133\n      jump\t// in\n    tag_169:\n        /* \"#utility.yul\":2912:2974   */\n      swap4\n      pop\n      pop\n        /* \"#utility.yul\":2993:3030   */\n      tag_170\n        /* \"#utility.yul\":3026:3028   */\n      0x60\n        /* \"#utility.yul\":3015:3024   */\n      dup8\n        /* \"#utility.yul\":3011:3029   */\n      add\n        /* \"#utility.yul\":2993:3030   */\n      tag_134\n      jump\t// in\n    tag_170:\n        /* \"#utility.yul\":2983:3030   */\n      swap2\n      pop\n        /* \"#utility.yul\":3049:3087   */\n      tag_171\n        /* \"#utility.yul\":3082:3085   */\n      0x80\n        /* \"#utility.yul\":3071:3080   */\n      dup8\n        /* \"#utility.yul\":3067:3086   */\n      add\n        /* \"#utility.yul\":3049:3087   */\n      tag_134\n      jump\t// in\n    tag_171:\n        /* \"#utility.yul\":3039:3087   */\n      swap1\n      pop\n        /* \"#utility.yul\":2193:3093   */\n      swap3\n      swap6\n      pop\n      swap3\n      swap6\n      swap1\n      swap4\n      pop\n      jump\t// out\n        /* \"#utility.yul\":3306:3595   */\n    tag_135:\n        /* \"#utility.yul\":3348:3351   */\n      0x00\n        /* \"#utility.yul\":3386:3391   */\n      dup2\n        /* \"#utility.yul\":3380:3392   */\n      mload\n        /* \"#utility.yul\":3413:3419   */\n      dup1\n        /* \"#utility.yul\":3408:3411   */\n      dup5\n        /* \"#utility.yul\":3401:3420   */\n      mstore\n        /* \"#utility.yul\":3469:3475   */\n      dup1\n        /* \"#utility.yul\":3462:3466   */\n      0x20\n        /* \"#utility.yul\":3455:3460   */\n      dup5\n        /* \"#utility.yul\":3451:3467   */\n      add\n        /* \"#utility.yul\":3444:3448   */\n      0x20\n        /* \"#utility.yul\":3439:3442   */\n      dup7\n        /* \"#utility.yul\":3435:3449   */\n      add\n        /* \"#utility.yul\":3429:3476   */\n      mcopy\n        /* \"#utility.yul\":3521:3522   */\n      0x00\n        /* \"#utility.yul\":3514:3518   */\n      0x20\n        /* \"#utility.yul\":3505:3511   */\n      dup3\n        /* \"#utility.yul\":3500:3503   */\n      dup7\n        /* \"#utility.yul\":3496:3512   */\n      add\n        /* \"#utility.yul\":3492:3519   */\n      add\n        /* \"#utility.yul\":3485:3523   */\n      mstore\n        /* \"#utility.yul\":3584:3588   */\n      0x20\n        /* \"#utility.yul\":3577:3579   */\n      0x1f\n        /* \"#utility.yul\":3573:3580   */\n      not\n        /* \"#utility.yul\":3568:3570   */\n      0x1f\n        /* \"#utility.yul\":3560:3566   */\n      dup4\n        /* \"#utility.yul\":3556:3571   */\n      add\n        /* \"#utility.yul\":3552:3581   */\n      and\n        /* \"#utility.yul\":3547:3550   */\n      dup6\n        /* \"#utility.yul\":3543:3582   */\n      add\n        /* \"#utility.yul\":3539:3589   */\n      add\n        /* \"#utility.yul\":3532:3589   */\n      swap2\n      pop\n      pop\n        /* \"#utility.yul\":3306:3595   */\n      swap3\n      swap2\n      pop\n      pop\n      jump\t// out\n        /* \"#utility.yul\":3600:4313   */\n    tag_41:\n        /* \"#utility.yul\":3897:3900   */\n      0xa0\n        /* \"#utility.yul\":3886:3895   */\n      dup2\n        /* \"#utility.yul\":3879:3901   */\n      mstore\n        /* \"#utility.yul\":3860:3864   */\n      0x00\n        /* \"#utility.yul\":3924:3970   */\n      tag_175\n        /* \"#utility.yul\":3965:3968   */\n      0xa0\n        /* \"#utility.yul\":3954:3963   */\n      dup4\n        /* \"#utility.yul\":3950:3969   */\n      add\n        /* \"#utility.yul\":3942:3948   */\n      dup9\n        /* \"#utility.yul\":3924:3970   */\n      tag_135\n      jump\t// in\n    tag_175:\n        /* \"#utility.yul\":4018:4027   */\n      dup3\n        /* \"#utility.yul\":4010:4016   */\n      dup2\n        /* \"#utility.yul\":4006:4028   */\n      sub\n        /* \"#utility.yul\":4001:4003   */\n      0x20\n        /* \"#utility.yul\":3990:3999   */\n      dup5\n        /* \"#utility.yul\":3986:4004   */\n      add\n        /* \"#utility.yul\":3979:4029   */\n      mstore\n        /* \"#utility.yul\":4052:4085   */\n      tag_176\n        /* \"#utility.yul\":4078:4084   */\n      dup2\n        /* \"#utility.yul\":4070:4076   */\n      dup9\n        /* \"#utility.yul\":4052:4085   */\n      tag_135\n      jump\t// in\n    tag_176:\n        /* \"#utility.yul\":4038:4085   */\n      swap1\n      pop\n        /* \"#utility.yul\":4133:4142   */\n      dup3\n        /* \"#utility.yul\":4125:4131   */\n      dup2\n        /* \"#utility.yul\":4121:4143   */\n      sub\n        /* \"#utility.yul\":4116:4118   */\n      0x40\n        /* \"#utility.yul\":4105:4114   */\n      dup5\n        /* \"#utility.yul\":4101:4119   */\n      add\n        /* \"#utility.yul\":4094:4144   */\n      mstore\n        /* \"#utility.yul\":4161:4194   */\n      tag_177\n        /* \"#utility.yul\":4187:4193   */\n      dup2\n        /* \"#utility.yul\":4179:4185   */\n      dup8\n        /* \"#utility.yul\":4161:4194   */\n      tag_135\n      jump\t// in\n    tag_177:\n        /* \"#utility.yul\":4153:4194   */\n      swap2\n      pop\n      pop\n        /* \"#utility.yul\":4242:4248   */\n      0xffff\n        /* \"#utility.yul\":4234:4240   */\n      dup5\n        /* \"#utility.yul\":4230:4249   */\n      and\n        /* \"#utility.yul\":4225:4227   */\n      0x60\n        /* \"#utility.yul\":4214:4223   */\n      dup4\n        /* \"#utility.yul\":4210:4228   */\n      add\n        /* \"#utility.yul\":4203:4250   */\n      mstore\n        /* \"#utility.yul\":4299:4305   */\n      0xffff\n        /* \"#utility.yul\":4291:4297   */\n      dup4\n        /* \"#utility.yul\":4287:4306   */\n      and\n        /* \"#utility.yul\":4281:4284   */\n      0x80\n        /* \"#utility.yul\":4270:4279   */\n      dup4\n        /* \"#utility.yul\":4266:4285   */\n      add\n        /* \"#utility.yul\":4259:4307   */\n      mstore\n        /* \"#utility.yul\":3600:4313   */\n      swap7\n      swap6\n      pop\n      pop\n      pop\n      pop\n      pop\n      pop\n      jump\t// out\n        /* \"#utility.yul\":4318:4652   */\n    tag_55:\n        /* \"#utility.yul\":4520:4522   */\n      0x20\n        /* \"#utility.yul\":4502:4523   */\n      dup1\n      dup3\n      mstore\n        /* \"#utility.yul\":4559:4561   */\n      0x0a\n        /* \"#utility.yul\":4539:4557   */\n      swap1\n      dup3\n      add\n        /* \"#utility.yul\":4532:4562   */\n      mstore\n      shl(0xb1, 0x27b7363c9037bbb732b9)\n        /* \"#utility.yul\":4593:4595   */\n      0x40\n        /* \"#utility.yul\":4578:4596   */\n      dup3\n      add\n        /* \"#utility.yul\":4571:4611   */\n      mstore\n        /* \"#utility.yul\":4643:4645   */\n      0x60\n        /* \"#utility.yul\":4628:4646   */\n      add\n      swap1\n        /* \"#utility.yul\":4318:4652   */\n      jump\t// out\n        /* \"#utility.yul\":4657:5037   */\n    tag_97:\n        /* \"#utility.yul\":4736:4737   */\n      0x01\n        /* \"#utility.yul\":4732:4744   */\n      dup2\n      dup2\n      shr\n      swap1\n        /* \"#utility.yul\":4779:4791   */\n      dup3\n      and\n      dup1\n        /* \"#utility.yul\":4800:4861   */\n      tag_180\n      jumpi\n        /* \"#utility.yul\":4854:4858   */\n      0x7f\n        /* \"#utility.yul\":4846:4852   */\n      dup3\n        /* \"#utility.yul\":4842:4859   */\n      and\n        /* \"#utility.yul\":4832:4859   */\n      swap2\n      pop\n        /* \"#utility.yul\":4800:4861   */\n    tag_180:\n        /* \"#utility.yul\":4907:4909   */\n      0x20\n        /* \"#utility.yul\":4899:4905   */\n      dup3\n        /* \"#utility.yul\":4896:4910   */\n      lt\n        /* \"#utility.yul\":4876:4894   */\n      dup2\n        /* \"#utility.yul\":4873:4911   */\n      sub\n        /* \"#utility.yul\":4870:5031   */\n      tag_181\n      jumpi\n        /* \"#utility.yul\":4953:4963   */\n      0x4e487b71\n        /* \"#utility.yul\":4948:4951   */\n      0xe0\n        /* \"#utility.yul\":4944:4964   */\n      shl\n        /* \"#utility.yul\":4941:4942   */\n      0x00\n        /* \"#utility.yul\":4934:4965   */\n      mstore\n        /* \"#utility.yul\":4988:4992   */\n      0x22\n        /* \"#utility.yul\":4985:4986   */\n      0x04\n        /* \"#utility.yul\":4978:4993   */\n      mstore\n        /* \"#utility.yul\":5016:5020   */\n      0x24\n        /* \"#utility.yul\":5013:5014   */\n      0x00\n        /* \"#utility.yul\":5006:5021   */\n      revert\n        /* \"#utility.yul\":4870:5031   */\n    tag_181:\n      pop\n        /* \"#utility.yul\":4657:5037   */\n      swap2\n      swap1\n      pop\n      jump\t// out\n        /* \"#utility.yul\":5168:5686   */\n    tag_137:\n        /* \"#utility.yul\":5270:5272   */\n      0x1f\n        /* \"#utility.yul\":5265:5268   */\n      dup3\n        /* \"#utility.yul\":5262:5273   */\n      gt\n        /* \"#utility.yul\":5259:5680   */\n      iszero\n      tag_184\n      jumpi\n        /* \"#utility.yul\":5306:5311   */\n      dup1\n        /* \"#utility.yul\":5303:5304   */\n      0x00\n        /* \"#utility.yul\":5296:5312   */\n      mstore\n        /* \"#utility.yul\":5350:5354   */\n      0x20\n        /* \"#utility.yul\":5347:5348   */\n      0x00\n        /* \"#utility.yul\":5337:5355   */\n      keccak256\n        /* \"#utility.yul\":5420:5422   */\n      0x1f\n        /* \"#utility.yul\":5408:5418   */\n      dup5\n        /* \"#utility.yul\":5404:5423   */\n      add\n        /* \"#utility.yul\":5401:5402   */\n      0x05\n        /* \"#utility.yul\":5397:5424   */\n      shr\n        /* \"#utility.yul\":5391:5395   */\n      dup2\n        /* \"#utility.yul\":5387:5425   */\n      add\n        /* \"#utility.yul\":5456:5460   */\n      0x20\n        /* \"#utility.yul\":5444:5454   */\n      dup6\n        /* \"#utility.yul\":5441:5461   */\n      lt\n        /* \"#utility.yul\":5438:5485   */\n      iszero\n      tag_185\n      jumpi\n      pop\n        /* \"#utility.yul\":5479:5483   */\n      dup1\n        /* \"#utility.yul\":5438:5485   */\n    tag_185:\n        /* \"#utility.yul\":5534:5536   */\n      0x1f\n        /* \"#utility.yul\":5529:5532   */\n      dup5\n        /* \"#utility.yul\":5525:5537   */\n      add\n        /* \"#utility.yul\":5522:5523   */\n      0x05\n        /* \"#utility.yul\":5518:5538   */\n      shr\n        /* \"#utility.yul\":5512:5516   */\n      dup3\n        /* \"#utility.yul\":5508:5539   */\n      add\n        /* \"#utility.yul\":5498:5539   */\n      swap2\n      pop\n        /* \"#utility.yul\":5589:5670   */\n    tag_186:\n        /* \"#utility.yul\":5607:5609   */\n      dup2\n        /* \"#utility.yul\":5600:5605   */\n      dup2\n        /* \"#utility.yul\":5597:5610   */\n      lt\n        /* \"#utility.yul\":5589:5670   */\n      iszero\n      tag_188\n      jumpi\n        /* \"#utility.yul\":5666:5667   */\n      0x00\n        /* \"#utility.yul\":5652:5668   */\n      dup2\n      sstore\n        /* \"#utility.yul\":5633:5634   */\n      0x01\n        /* \"#utility.yul\":5622:5635   */\n      add\n        /* \"#utility.yul\":5589:5670   */\n      jump(tag_186)\n    tag_188:\n        /* \"#utility.yul\":5593:5596   */\n      pop\n      pop\n        /* \"#utility.yul\":5259:5680   */\n    tag_184:\n        /* \"#utility.yul\":5168:5686   */\n      pop\n      pop\n      pop\n      jump\t// out\n        /* \"#utility.yul\":5862:7161   */\n    tag_58:\n        /* \"#utility.yul\":5988:5991   */\n      dup2\n        /* \"#utility.yul\":5982:5992   */\n      mload\n        /* \"#utility.yul\":6015:6033   */\n      0xffffffffffffffff\n        /* \"#utility.yul\":6007:6013   */\n      dup2\n        /* \"#utility.yul\":6004:6034   */\n      gt\n        /* \"#utility.yul\":6001:6057   */\n      iszero\n      tag_192\n      jumpi\n        /* \"#utility.yul\":6037:6055   */\n      tag_192\n      tag_132\n      jump\t// in\n    tag_192:\n        /* \"#utility.yul\":6066:6163   */\n      tag_193\n        /* \"#utility.yul\":6156:6162   */\n      dup2\n        /* \"#utility.yul\":6116:6154   */\n      tag_194\n        /* \"#utility.yul\":6148:6152   */\n      dup5\n        /* \"#utility.yul\":6142:6153   */\n      sload\n        /* \"#utility.yul\":6116:6154   */\n      tag_97\n      jump\t// in\n    tag_194:\n        /* \"#utility.yul\":6110:6114   */\n      dup5\n        /* \"#utility.yul\":6066:6163   */\n      tag_137\n      jump\t// in\n    tag_193:\n        /* \"#utility.yul\":6212:6216   */\n      0x20\n        /* \"#utility.yul\":6243:6245   */\n      0x1f\n        /* \"#utility.yul\":6232:6246   */\n      dup3\n      gt\n        /* \"#utility.yul\":6260:6261   */\n      0x01\n        /* \"#utility.yul\":6255:6904   */\n      dup2\n      eq\n      tag_196\n      jumpi\n        /* \"#utility.yul\":6948:6949   */\n      0x00\n        /* \"#utility.yul\":6965:6971   */\n      dup4\n        /* \"#utility.yul\":6962:7051   */\n      iszero\n      tag_197\n      jumpi\n      pop\n        /* \"#utility.yul\":7017:7036   */\n      dup5\n      dup3\n      add\n        /* \"#utility.yul\":7011:7037   */\n      mload\n        /* \"#utility.yul\":6962:7051   */\n    tag_197:\n      not(0x00)\n        /* \"#utility.yul\":5819:5820   */\n      0x03\n        /* \"#utility.yul\":5815:5826   */\n      dup6\n      swap1\n      shl\n        /* \"#utility.yul\":5811:5835   */\n      shr\n        /* \"#utility.yul\":5807:5836   */\n      not\n        /* \"#utility.yul\":5797:5837   */\n      and\n        /* \"#utility.yul\":5843:5844   */\n      0x01\n        /* \"#utility.yul\":5839:5850   */\n      dup5\n      swap1\n      shl\n        /* \"#utility.yul\":5794:5851   */\n      or\n        /* \"#utility.yul\":7064:7145   */\n      dup5\n      sstore\n        /* \"#utility.yul\":6225:7155   */\n      jump(tag_188)\n        /* \"#utility.yul\":6255:6904   */\n    tag_196:\n        /* \"#utility.yul\":5115:5116   */\n      0x00\n        /* \"#utility.yul\":5108:5122   */\n      dup5\n      dup2\n      mstore\n        /* \"#utility.yul\":5152:5156   */\n      0x20\n        /* \"#utility.yul\":5139:5157   */\n      dup2\n      keccak256\n      not(0x1f)\n        /* \"#utility.yul\":6291:6311   */\n      dup6\n      and\n      swap2\n        /* \"#utility.yul\":6409:6631   */\n    tag_200:\n        /* \"#utility.yul\":6423:6430   */\n      dup3\n        /* \"#utility.yul\":6420:6421   */\n      dup2\n        /* \"#utility.yul\":6417:6431   */\n      lt\n        /* \"#utility.yul\":6409:6631   */\n      iszero\n      tag_202\n      jumpi\n        /* \"#utility.yul\":6505:6524   */\n      dup8\n      dup6\n      add\n        /* \"#utility.yul\":6499:6525   */\n      mload\n        /* \"#utility.yul\":6484:6526   */\n      dup3\n      sstore\n        /* \"#utility.yul\":6612:6616   */\n      0x20\n        /* \"#utility.yul\":6597:6617   */\n      swap5\n      dup6\n      add\n      swap5\n        /* \"#utility.yul\":6565:6566   */\n      0x01\n        /* \"#utility.yul\":6553:6567   */\n      swap1\n      swap3\n      add\n      swap2\n        /* \"#utility.yul\":6439:6451   */\n      add\n        /* \"#utility.yul\":6409:6631   */\n      jump(tag_200)\n    tag_202:\n        /* \"#utility.yul\":6413:6416   */\n      pop\n        /* \"#utility.yul\":6659:6665   */\n      dup5\n        /* \"#utility.yul\":6650:6657   */\n      dup3\n        /* \"#utility.yul\":6647:6666   */\n      lt\n        /* \"#utility.yul\":6644:6845   */\n      iszero\n      tag_203\n      jumpi\n        /* \"#utility.yul\":6720:6739   */\n      dup7\n      dup5\n      add\n        /* \"#utility.yul\":6714:6740   */\n      mload\n      not(0x00)\n        /* \"#utility.yul\":6803:6804   */\n      0x03\n        /* \"#utility.yul\":6799:6813   */\n      dup8\n      swap1\n      shl\n        /* \"#utility.yul\":6815:6818   */\n      0xf8\n        /* \"#utility.yul\":6795:6819   */\n      and\n        /* \"#utility.yul\":6791:6828   */\n      shr\n        /* \"#utility.yul\":6787:6829   */\n      not\n        /* \"#utility.yul\":6772:6830   */\n      and\n        /* \"#utility.yul\":6757:6831   */\n      dup2\n      sstore\n        /* \"#utility.yul\":6644:6845   */\n    tag_203:\n      pop\n      pop\n      pop\n      pop\n        /* \"#utility.yul\":6891:6892   */\n      0x01\n        /* \"#utility.yul\":6875:6889   */\n      swap1\n      dup2\n      shl\n        /* \"#utility.yul\":6871:6893   */\n      add\n        /* \"#utility.yul\":6858:6894   */\n      swap1\n      sstore\n      pop\n        /* \"#utility.yul\":5862:7161   */\n      jump\t// out\n    stop\n    data_2c67c2ea5f0acf1af63e6d21f70491caaa8c297045be1c6ee3e9b1d07edcb366 e00da2178806f37f69815e9ed5ed3072ec1d55206d60916d99b469c7daa421e4\n\n    auxdata: 0xa2646970667358221220430e54b513933738eba527e36438a9262382a9c14c51368210a1791be6b262f664736f6c634300081a0033\n}\n",
				"bytecode": {
					"linkReferences": {},
					"object": "608060405234801561000f575f80fd5b50604051610fd8380380610fd883398101604081905261002e916101dc565b86600183835f61003e8582610330565b506001805484919060ff19168183600281111561005d5761005d6103ea565b021790555060018054610100600160a81b0319166101006001600160a01b0394851602179055600280546001600160a01b0319169190921617905550600390506100a78782610330565b5060046100b48682610330565b506005805461ffff858116620100000263ffffffff19909216908716171790556040513381527f1449abf21e49fd025f33495e77f7b1461caefdd3d4bb646424a3f445c4576a5b9060200160405180910390a1505050505050506103fe565b634e487b7160e01b5f52604160045260245ffd5b5f82601f830112610136575f80fd5b81516001600160401b0381111561014f5761014f610113565b604051601f8201601f19908116603f011681016001600160401b038111828210171561017d5761017d610113565b604052818152838201602001851015610194575f80fd5b8160208501602083015e5f918101602001919091529392505050565b805161ffff811681146101c1575f80fd5b919050565b80516001600160a01b03811681146101c1575f80fd5b5f805f805f805f60e0888a0312156101f2575f80fd5b87516001600160401b03811115610207575f80fd5b6102138a828b01610127565b60208a015190985090506001600160401b03811115610230575f80fd5b61023c8a828b01610127565b60408a015190975090506001600160401b03811115610259575f80fd5b6102658a828b01610127565b955050610274606089016101b0565b9350610282608089016101b0565b925061029060a089016101c6565b915061029e60c089016101c6565b905092959891949750929550565b600181811c908216806102c057607f821691505b6020821081036102de57634e487b7160e01b5f52602260045260245ffd5b50919050565b601f82111561032b57805f5260205f20601f840160051c810160208510156103095750805b601f840160051c820191505b81811015610328575f8155600101610315565b50505b505050565b81516001600160401b0381111561034957610349610113565b61035d8161035784546102ac565b846102e4565b6020601f82116001811461038f575f83156103785750848201515b5f19600385901b1c1916600184901b178455610328565b5f84815260208120601f198516915b828110156103be578785015182556020948501946001909201910161039e565b50848210156103db57868401515f19600387901b60f8161c191681555b50505050600190811b01905550565b634e487b7160e01b5f52602160045260245ffd5b610bcd8061040b5f395ff3fe608060405234801561000f575f80fd5b506004361061009b575f3560e01c806380f760211161006357806380f760211461010b578063ba379e861461012b578063c40da77014610144578063c47f002714610157578063efd8af9f1461016a575f80fd5b80630dbef92c1461009f5780631499c592146100b45780632858d3c8146100c757806340aa5c71146100e5578063478e5cb3146100f8575b5f80fd5b6100b26100ad366004610822565b61017d565b005b6100b26100c236600461085c565b6101fb565b6100cf610277565b6040516100dc9190610889565b60405180910390f35b6100b26100f33660046108c5565b6102c7565b6100b26101063660046108de565b610339565b6101136103e9565b6040516001600160a01b0390911681526020016100dc565b61013361043f565b6040516100dc9594939291906109bb565b6100b26101523660046108c5565b61066b565b6100b2610165366004610822565b6106e4565b6100b2610178366004610822565b610733565b60015461010090046001600160a01b03163314806101a557506002546001600160a01b031633145b6101ca5760405162461bcd60e51b81526004016101c190610a14565b60405180910390fd5b60046101d68282610abc565b506040513381525f80516020610b78833981519152906020015b60405180910390a150565b60015461010090046001600160a01b031633148061022357506002546001600160a01b031633145b61023f5760405162461bcd60e51b81526004016101c190610a14565b600280546001600160a01b0319166001600160a01b0383161790556040513381525f80516020610b78833981519152906020016101f0565b6001545f9061010090046001600160a01b03163314806102a157506002546001600160a01b031633145b6102bd5760405162461bcd60e51b81526004016101c190610a14565b5060015460ff1690565b60015461010090046001600160a01b03163314806102ef57506002546001600160a01b031633145b61030b5760405162461bcd60e51b81526004016101c190610a14565b6005805461ffff191661ffff83161790556040513381525f80516020610b78833981519152906020016101f0565b60015461010090046001600160a01b031633148061036157506002546001600160a01b031633145b61037d5760405162461bcd60e51b81526004016101c190610a14565b5f6103888682610abc565b5060036103958582610abc565b5060046103a28482610abc565b506005805461ffff838116620100000263ffffffff19909216908516171790556040513381525f80516020610b788339815191529060200160405180910390a15050505050565b6001545f9061010090046001600160a01b031633148061041357506002546001600160a01b031633145b61042f5760405162461bcd60e51b81526004016101c190610a14565b506002546001600160a01b031690565b60608060605f8060018054906101000a90046001600160a01b03166001600160a01b0316336001600160a01b0316148061048357506002546001600160a01b031633145b61049f5760405162461bcd60e51b81526004016101c190610a14565b6005545f8054909160039160049161ffff8082169262010000909204169085906104c890610a38565b80601f01602080910402602001604051908101604052809291908181526020018280546104f490610a38565b801561053f5780601f106105165761010080835404028352916020019161053f565b820191905f5260205f20905b81548152906001019060200180831161052257829003601f168201915b5050505050945083805461055290610a38565b80601f016020809104026020016040519081016040528092919081815260200182805461057e90610a38565b80156105c95780601f106105a0576101008083540402835291602001916105c9565b820191905f5260205f20905b8154815290600101906020018083116105ac57829003601f168201915b505050505093508280546105dc90610a38565b80601f016020809104026020016040519081016040528092919081815260200182805461060890610a38565b80156106535780601f1061062a57610100808354040283529160200191610653565b820191905f5260205f20905b81548152906001019060200180831161063657829003601f168201915b50505050509250945094509450945094509091929394565b60015461010090046001600160a01b031633148061069357506002546001600160a01b031633145b6106af5760405162461bcd60e51b81526004016101c190610a14565b6005805463ffff000019166201000061ffff8416021790556040513381525f80516020610b78833981519152906020016101f0565b60015461010090046001600160a01b031633148061070c57506002546001600160a01b031633145b6107285760405162461bcd60e51b81526004016101c190610a14565b5f6101d68282610abc565b60015461010090046001600160a01b031633148061075b57506002546001600160a01b031633145b6107775760405162461bcd60e51b81526004016101c190610a14565b60036101d68282610abc565b634e487b7160e01b5f52604160045260245ffd5b5f82601f8301126107a6575f80fd5b813567ffffffffffffffff8111156107c0576107c0610783565b604051601f8201601f19908116603f0116810167ffffffffffffffff811182821017156107ef576107ef610783565b604052818152838201602001851015610806575f80fd5b816020850160208301375f918101602001919091529392505050565b5f60208284031215610832575f80fd5b813567ffffffffffffffff811115610848575f80fd5b61085484828501610797565b949350505050565b5f6020828403121561086c575f80fd5b81356001600160a01b0381168114610882575f80fd5b9392505050565b60208101600383106108a957634e487b7160e01b5f52602160045260245ffd5b91905290565b803561ffff811681146108c0575f80fd5b919050565b5f602082840312156108d5575f80fd5b610882826108af565b5f805f805f60a086880312156108f2575f80fd5b853567ffffffffffffffff811115610908575f80fd5b61091488828901610797565b955050602086013567ffffffffffffffff811115610930575f80fd5b61093c88828901610797565b945050604086013567ffffffffffffffff811115610958575f80fd5b61096488828901610797565b935050610973606087016108af565b9150610981608087016108af565b90509295509295909350565b5f81518084528060208401602086015e5f602082860101526020601f19601f83011685010191505092915050565b60a081525f6109cd60a083018861098d565b82810360208401526109df818861098d565b905082810360408401526109f3818761098d565b91505061ffff8416606083015261ffff831660808301529695505050505050565b6020808252600a908201526927b7363c9037bbb732b960b11b604082015260600190565b600181811c90821680610a4c57607f821691505b602082108103610a6a57634e487b7160e01b5f52602260045260245ffd5b50919050565b601f821115610ab757805f5260205f20601f840160051c81016020851015610a955750805b601f840160051c820191505b81811015610ab4575f8155600101610aa1565b50505b505050565b815167ffffffffffffffff811115610ad657610ad6610783565b610aea81610ae48454610a38565b84610a70565b6020601f821160018114610b1c575f8315610b055750848201515b5f19600385901b1c1916600184901b178455610ab4565b5f84815260208120601f198516915b82811015610b4b5787850151825560209485019460019092019101610b2b565b5084821015610b6857868401515f19600387901b60f8161c191681555b50505050600190811b0190555056fee00da2178806f37f69815e9ed5ed3072ec1d55206d60916d99b469c7daa421e4a2646970667358221220430e54b513933738eba527e36438a9262382a9c14c51368210a1791be6b262f664736f6c634300081a0033",
					"opcodes": "PUSH1 0x80 PUSH1 0x40 MSTORE CALLVALUE DUP1 ISZERO PUSH2 0xF JUMPI PUSH0 DUP1 REVERT JUMPDEST POP PUSH1 0x40 MLOAD PUSH2 0xFD8 CODESIZE SUB DUP1 PUSH2 0xFD8 DUP4 CODECOPY DUP2 ADD PUSH1 0x40 DUP2 SWAP1 MSTORE PUSH2 0x2E SWAP2 PUSH2 0x1DC JUMP JUMPDEST DUP7 PUSH1 0x1 DUP4 DUP4 PUSH0 PUSH2 0x3E DUP6 DUP3 PUSH2 0x330 JUMP JUMPDEST POP PUSH1 0x1 DUP1 SLOAD DUP5 SWAP2 SWAP1 PUSH1 0xFF NOT AND DUP2 DUP4 PUSH1 0x2 DUP2 GT ISZERO PUSH2 0x5D JUMPI PUSH2 0x5D PUSH2 0x3EA JUMP JUMPDEST MUL OR SWAP1 SSTORE POP PUSH1 0x1 DUP1 SLOAD PUSH2 0x100 PUSH1 0x1 PUSH1 0xA8 SHL SUB NOT AND PUSH2 0x100 PUSH1 0x1 PUSH1 0x1 PUSH1 0xA0 SHL SUB SWAP5 DUP6 AND MUL OR SWAP1 SSTORE PUSH1 0x2 DUP1 SLOAD PUSH1 0x1 PUSH1 0x1 PUSH1 0xA0 SHL SUB NOT AND SWAP2 SWAP1 SWAP3 AND OR SWAP1 SSTORE POP PUSH1 0x3 SWAP1 POP PUSH2 0xA7 DUP8 DUP3 PUSH2 0x330 JUMP JUMPDEST POP PUSH1 0x4 PUSH2 0xB4 DUP7 DUP3 PUSH2 0x330 JUMP JUMPDEST POP PUSH1 0x5 DUP1 SLOAD PUSH2 0xFFFF DUP6 DUP2 AND PUSH3 0x10000 MUL PUSH4 0xFFFFFFFF NOT SWAP1 SWAP3 AND SWAP1 DUP8 AND OR OR SWAP1 SSTORE PUSH1 0x40 MLOAD CALLER DUP2 MSTORE PUSH32 0x1449ABF21E49FD025F33495E77F7B1461CAEFDD3D4BB646424A3F445C4576A5B SWAP1 PUSH1 0x20 ADD PUSH1 0x40 MLOAD DUP1 SWAP2 SUB SWAP1 LOG1 POP POP POP POP POP POP POP PUSH2 0x3FE JUMP JUMPDEST PUSH4 0x4E487B71 PUSH1 0xE0 SHL PUSH0 MSTORE PUSH1 0x41 PUSH1 0x4 MSTORE PUSH1 0x24 PUSH0 REVERT JUMPDEST PUSH0 DUP3 PUSH1 0x1F DUP4 ADD SLT PUSH2 0x136 JUMPI PUSH0 DUP1 REVERT JUMPDEST DUP2 MLOAD PUSH1 0x1 PUSH1 0x1 PUSH1 0x40 SHL SUB DUP2 GT ISZERO PUSH2 0x14F JUMPI PUSH2 0x14F PUSH2 0x113 JUMP JUMPDEST PUSH1 0x40 MLOAD PUSH1 0x1F DUP3 ADD PUSH1 0x1F NOT SWAP1 DUP2 AND PUSH1 0x3F ADD AND DUP2 ADD PUSH1 0x1 PUSH1 0x1 PUSH1 0x40 SHL SUB DUP2 GT DUP3 DUP3 LT OR ISZERO PUSH2 0x17D JUMPI PUSH2 0x17D PUSH2 0x113 JUMP JUMPDEST PUSH1 0x40 MSTORE DUP2 DUP2 MSTORE DUP4 DUP3 ADD PUSH1 0x20 ADD DUP6 LT ISZERO PUSH2 0x194 JUMPI PUSH0 DUP1 REVERT JUMPDEST DUP2 PUSH1 0x20 DUP6 ADD PUSH1 0x20 DUP4 ADD MCOPY PUSH0 SWAP2 DUP2 ADD PUSH1 0x20 ADD SWAP2 SWAP1 SWAP2 MSTORE SWAP4 SWAP3 POP POP POP JUMP JUMPDEST DUP1 MLOAD PUSH2 0xFFFF DUP2 AND DUP2 EQ PUSH2 0x1C1 JUMPI PUSH0 DUP1 REVERT JUMPDEST SWAP2 SWAP1 POP JUMP JUMPDEST DUP1 MLOAD PUSH1 0x1 PUSH1 0x1 PUSH1 0xA0 SHL SUB DUP2 AND DUP2 EQ PUSH2 0x1C1 JUMPI PUSH0 DUP1 REVERT JUMPDEST PUSH0 DUP1 PUSH0 DUP1 PUSH0 DUP1 PUSH0 PUSH1 0xE0 DUP9 DUP11 SUB SLT ISZERO PUSH2 0x1F2 JUMPI PUSH0 DUP1 REVERT JUMPDEST DUP8 MLOAD PUSH1 0x1 PUSH1 0x1 PUSH1 0x40 SHL SUB DUP2 GT ISZERO PUSH2 0x207 JUMPI PUSH0 DUP1 REVERT JUMPDEST PUSH2 0x213 DUP11 DUP3 DUP12 ADD PUSH2 0x127 JUMP JUMPDEST PUSH1 0x20 DUP11 ADD MLOAD SWAP1 SWAP9 POP SWAP1 POP PUSH1 0x1 PUSH1 0x1 PUSH1 0x40 SHL SUB DUP2 GT ISZERO PUSH2 0x230 JUMPI PUSH0 DUP1 REVERT JUMPDEST PUSH2 0x23C DUP11 DUP3 DUP12 ADD PUSH2 0x127 JUMP JUMPDEST PUSH1 0x40 DUP11 ADD MLOAD SWAP1 SWAP8 POP SWAP1 POP PUSH1 0x1 PUSH1 0x1 PUSH1 0x40 SHL SUB DUP2 GT ISZERO PUSH2 0x259 JUMPI PUSH0 DUP1 REVERT JUMPDEST PUSH2 0x265 DUP11 DUP3 DUP12 ADD PUSH2 0x127 JUMP JUMPDEST SWAP6 POP POP PUSH2 0x274 PUSH1 0x60 DUP10 ADD PUSH2 0x1B0 JUMP JUMPDEST SWAP4 POP PUSH2 0x282 PUSH1 0x80 DUP10 ADD PUSH2 0x1B0 JUMP JUMPDEST SWAP3 POP PUSH2 0x290 PUSH1 0xA0 DUP10 ADD PUSH2 0x1C6 JUMP JUMPDEST SWAP2 POP PUSH2 0x29E PUSH1 0xC0 DUP10 ADD PUSH2 0x1C6 JUMP JUMPDEST SWAP1 POP SWAP3 SWAP6 SWAP9 SWAP2 SWAP5 SWAP8 POP SWAP3 SWAP6 POP JUMP JUMPDEST PUSH1 0x1 DUP2 DUP2 SHR SWAP1 DUP3 AND DUP1 PUSH2 0x2C0 JUMPI PUSH1 0x7F DUP3 AND SWAP2 POP JUMPDEST PUSH1 0x20 DUP3 LT DUP2 SUB PUSH2 0x2DE JUMPI PUSH4 0x4E487B71 PUSH1 0xE0 SHL PUSH0 MSTORE PUSH1 0x22 PUSH1 0x4 MSTORE PUSH1 0x24 PUSH0 REVERT JUMPDEST POP SWAP2 SWAP1 POP JUMP JUMPDEST PUSH1 0x1F DUP3 GT ISZERO PUSH2 0x32B JUMPI DUP1 PUSH0 MSTORE PUSH1 0x20 PUSH0 KECCAK256 PUSH1 0x1F DUP5 ADD PUSH1 0x5 SHR DUP2 ADD PUSH1 0x20 DUP6 LT ISZERO PUSH2 0x309 JUMPI POP DUP1 JUMPDEST PUSH1 0x1F DUP5 ADD PUSH1 0x5 SHR DUP3 ADD SWAP2 POP JUMPDEST DUP2 DUP2 LT ISZERO PUSH2 0x328 JUMPI PUSH0 DUP2 SSTORE PUSH1 0x1 ADD PUSH2 0x315 JUMP JUMPDEST POP POP JUMPDEST POP POP POP JUMP JUMPDEST DUP2 MLOAD PUSH1 0x1 PUSH1 0x1 PUSH1 0x40 SHL SUB DUP2 GT ISZERO PUSH2 0x349 JUMPI PUSH2 0x349 PUSH2 0x113 JUMP JUMPDEST PUSH2 0x35D DUP2 PUSH2 0x357 DUP5 SLOAD PUSH2 0x2AC JUMP JUMPDEST DUP5 PUSH2 0x2E4 JUMP JUMPDEST PUSH1 0x20 PUSH1 0x1F DUP3 GT PUSH1 0x1 DUP2 EQ PUSH2 0x38F JUMPI PUSH0 DUP4 ISZERO PUSH2 0x378 JUMPI POP DUP5 DUP3 ADD MLOAD JUMPDEST PUSH0 NOT PUSH1 0x3 DUP6 SWAP1 SHL SHR NOT AND PUSH1 0x1 DUP5 SWAP1 SHL OR DUP5 SSTORE PUSH2 0x328 JUMP JUMPDEST PUSH0 DUP5 DUP2 MSTORE PUSH1 0x20 DUP2 KECCAK256 PUSH1 0x1F NOT DUP6 AND SWAP2 JUMPDEST DUP3 DUP2 LT ISZERO PUSH2 0x3BE JUMPI DUP8 DUP6 ADD MLOAD DUP3 SSTORE PUSH1 0x20 SWAP5 DUP6 ADD SWAP5 PUSH1 0x1 SWAP1 SWAP3 ADD SWAP2 ADD PUSH2 0x39E JUMP JUMPDEST POP DUP5 DUP3 LT ISZERO PUSH2 0x3DB JUMPI DUP7 DUP5 ADD MLOAD PUSH0 NOT PUSH1 0x3 DUP8 SWAP1 SHL PUSH1 0xF8 AND SHR NOT AND DUP2 SSTORE JUMPDEST POP POP POP POP PUSH1 0x1 SWAP1 DUP2 SHL ADD SWAP1 SSTORE POP JUMP JUMPDEST PUSH4 0x4E487B71 PUSH1 0xE0 SHL PUSH0 MSTORE PUSH1 0x21 PUSH1 0x4 MSTORE PUSH1 0x24 PUSH0 REVERT JUMPDEST PUSH2 0xBCD DUP1 PUSH2 0x40B PUSH0 CODECOPY PUSH0 RETURN INVALID PUSH1 0x80 PUSH1 0x40 MSTORE CALLVALUE DUP1 ISZERO PUSH2 0xF JUMPI PUSH0 DUP1 REVERT JUMPDEST POP PUSH1 0x4 CALLDATASIZE LT PUSH2 0x9B JUMPI PUSH0 CALLDATALOAD PUSH1 0xE0 SHR DUP1 PUSH4 0x80F76021 GT PUSH2 0x63 JUMPI DUP1 PUSH4 0x80F76021 EQ PUSH2 0x10B JUMPI DUP1 PUSH4 0xBA379E86 EQ PUSH2 0x12B JUMPI DUP1 PUSH4 0xC40DA770 EQ PUSH2 0x144 JUMPI DUP1 PUSH4 0xC47F0027 EQ PUSH2 0x157 JUMPI DUP1 PUSH4 0xEFD8AF9F EQ PUSH2 0x16A JUMPI PUSH0 DUP1 REVERT JUMPDEST DUP1 PUSH4 0xDBEF92C EQ PUSH2 0x9F JUMPI DUP1 PUSH4 0x1499C592 EQ PUSH2 0xB4 JUMPI DUP1 PUSH4 0x2858D3C8 EQ PUSH2 0xC7 JUMPI DUP1 PUSH4 0x40AA5C71 EQ PUSH2 0xE5 JUMPI DUP1 PUSH4 0x478E5CB3 EQ PUSH2 0xF8 JUMPI JUMPDEST PUSH0 DUP1 REVERT JUMPDEST PUSH2 0xB2 PUSH2 0xAD CALLDATASIZE PUSH1 0x4 PUSH2 0x822 JUMP JUMPDEST PUSH2 0x17D JUMP JUMPDEST STOP JUMPDEST PUSH2 0xB2 PUSH2 0xC2 CALLDATASIZE PUSH1 0x4 PUSH2 0x85C JUMP JUMPDEST PUSH2 0x1FB JUMP JUMPDEST PUSH2 0xCF PUSH2 0x277 JUMP JUMPDEST PUSH1 0x40 MLOAD PUSH2 0xDC SWAP2 SWAP1 PUSH2 0x889 JUMP JUMPDEST PUSH1 0x40 MLOAD DUP1 SWAP2 SUB SWAP1 RETURN JUMPDEST PUSH2 0xB2 PUSH2 0xF3 CALLDATASIZE PUSH1 0x4 PUSH2 0x8C5 JUMP JUMPDEST PUSH2 0x2C7 JUMP JUMPDEST PUSH2 0xB2 PUSH2 0x106 CALLDATASIZE PUSH1 0x4 PUSH2 0x8DE JUMP JUMPDEST PUSH2 0x339 JUMP JUMPDEST PUSH2 0x113 PUSH2 0x3E9 JUMP JUMPDEST PUSH1 0x40 MLOAD PUSH1 0x1 PUSH1 0x1 PUSH1 0xA0 SHL SUB SWAP1 SWAP2 AND DUP2 MSTORE PUSH1 0x20 ADD PUSH2 0xDC JUMP JUMPDEST PUSH2 0x133 PUSH2 0x43F JUMP JUMPDEST PUSH1 0x40 MLOAD PUSH2 0xDC SWAP6 SWAP5 SWAP4 SWAP3 SWAP2 SWAP1 PUSH2 0x9BB JUMP JUMPDEST PUSH2 0xB2 PUSH2 0x152 CALLDATASIZE PUSH1 0x4 PUSH2 0x8C5 JUMP JUMPDEST PUSH2 0x66B JUMP JUMPDEST PUSH2 0xB2 PUSH2 0x165 CALLDATASIZE PUSH1 0x4 PUSH2 0x822 JUMP JUMPDEST PUSH2 0x6E4 JUMP JUMPDEST PUSH2 0xB2 PUSH2 0x178 CALLDATASIZE PUSH1 0x4 PUSH2 0x822 JUMP JUMPDEST PUSH2 0x733 JUMP JUMPDEST PUSH1 0x1 SLOAD PUSH2 0x100 SWAP1 DIV PUSH1 0x1 PUSH1 0x1 PUSH1 0xA0 SHL SUB AND CALLER EQ DUP1 PUSH2 0x1A5 JUMPI POP PUSH1 0x2 SLOAD PUSH1 0x1 PUSH1 0x1 PUSH1 0xA0 SHL SUB AND CALLER EQ JUMPDEST PUSH2 0x1CA JUMPI PUSH1 0x40 MLOAD PUSH3 0x461BCD PUSH1 0xE5 SHL DUP2 MSTORE PUSH1 0x4 ADD PUSH2 0x1C1 SWAP1 PUSH2 0xA14 JUMP JUMPDEST PUSH1 0x40 MLOAD DUP1 SWAP2 SUB SWAP1 REVERT JUMPDEST PUSH1 0x4 PUSH2 0x1D6 DUP3 DUP3 PUSH2 0xABC JUMP JUMPDEST POP PUSH1 0x40 MLOAD CALLER DUP2 MSTORE PUSH0 DUP1 MLOAD PUSH1 0x20 PUSH2 0xB78 DUP4 CODECOPY DUP2 MLOAD SWAP2 MSTORE SWAP1 PUSH1 0x20 ADD JUMPDEST PUSH1 0x40 MLOAD DUP1 SWAP2 SUB SWAP1 LOG1 POP JUMP JUMPDEST PUSH1 0x1 SLOAD PUSH2 0x100 SWAP1 DIV PUSH1 0x1 PUSH1 0x1 PUSH1 0xA0 SHL SUB AND CALLER EQ DUP1 PUSH2 0x223 JUMPI POP PUSH1 0x2 SLOAD PUSH1 0x1 PUSH1 0x1 PUSH1 0xA0 SHL SUB AND CALLER EQ JUMPDEST PUSH2 0x23F JUMPI PUSH1 0x40 MLOAD PUSH3 0x461BCD PUSH1 0xE5 SHL DUP2 MSTORE PUSH1 0x4 ADD PUSH2 0x1C1 SWAP1 PUSH2 0xA14 JUMP JUMPDEST PUSH1 0x2 DUP1 SLOAD PUSH1 0x1 PUSH1 0x1 PUSH1 0xA0 SHL SUB NOT AND PUSH1 0x1 PUSH1 0x1 PUSH1 0xA0 SHL SUB DUP4 AND OR SWAP1 SSTORE PUSH1 0x40 MLOAD CALLER DUP2 MSTORE PUSH0 DUP1 MLOAD PUSH1 0x20 PUSH2 0xB78 DUP4 CODECOPY DUP2 MLOAD SWAP2 MSTORE SWAP1 PUSH1 0x20 ADD PUSH2 0x1F0 JUMP JUMPDEST PUSH1 0x1 SLOAD PUSH0 SWAP1 PUSH2 0x100 SWAP1 DIV PUSH1 0x1 PUSH1 0x1 PUSH1 0xA0 SHL SUB AND CALLER EQ DUP1 PUSH2 0x2A1 JUMPI POP PUSH1 0x2 SLOAD PUSH1 0x1 PUSH1 0x1 PUSH1 0xA0 SHL SUB AND CALLER EQ JUMPDEST PUSH2 0x2BD JUMPI PUSH1 0x40 MLOAD PUSH3 0x461BCD PUSH1 0xE5 SHL DUP2 MSTORE PUSH1 0x4 ADD PUSH2 0x1C1 SWAP1 PUSH2 0xA14 JUMP JUMPDEST POP PUSH1 0x1 SLOAD PUSH1 0xFF AND SWAP1 JUMP JUMPDEST PUSH1 0x1 SLOAD PUSH2 0x100 SWAP1 DIV PUSH1 0x1 PUSH1 0x1 PUSH1 0xA0 SHL SUB AND CALLER EQ DUP1 PUSH2 0x2EF JUMPI POP PUSH1 0x2 SLOAD PUSH1 0x1 PUSH1 0x1 PUSH1 0xA0 SHL SUB AND CALLER EQ JUMPDEST PUSH2 0x30B JUMPI PUSH1 0x40 MLOAD PUSH3 0x461BCD PUSH1 0xE5 SHL DUP2 MSTORE PUSH1 0x4 ADD PUSH2 0x1C1 SWAP1 PUSH2 0xA14 JUMP JUMPDEST PUSH1 0x5 DUP1 SLOAD PUSH2 0xFFFF NOT AND PUSH2 0xFFFF DUP4 AND OR SWAP1 SSTORE PUSH1 0x40 MLOAD CALLER DUP2 MSTORE PUSH0 DUP1 MLOAD PUSH1 0x20 PUSH2 0xB78 DUP4 CODECOPY DUP2 MLOAD SWAP2 MSTORE SWAP1 PUSH1 0x20 ADD PUSH2 0x1F0 JUMP JUMPDEST PUSH1 0x1 SLOAD PUSH2 0x100 SWAP1 DIV PUSH1 0x1 PUSH1 0x1 PUSH1 0xA0 SHL SUB AND CALLER EQ DUP1 PUSH2 0x361 JUMPI POP PUSH1 0x2 SLOAD PUSH1 0x1 PUSH1 0x1 PUSH1 0xA0 SHL SUB AND CALLER EQ JUMPDEST PUSH2 0x37D JUMPI PUSH1 0x40 MLOAD PUSH3 0x461BCD PUSH1 0xE5 SHL DUP2 MSTORE PUSH1 0x4 ADD PUSH2 0x1C1 SWAP1 PUSH2 0xA14 JUMP JUMPDEST PUSH0 PUSH2 0x388 DUP7 DUP3 PUSH2 0xABC JUMP JUMPDEST POP PUSH1 0x3 PUSH2 0x395 DUP6 DUP3 PUSH2 0xABC JUMP JUMPDEST POP PUSH1 0x4 PUSH2 0x3A2 DUP5 DUP3 PUSH2 0xABC JUMP JUMPDEST POP PUSH1 0x5 DUP1 SLOAD PUSH2 0xFFFF DUP4 DUP2 AND PUSH3 0x10000 MUL PUSH4 0xFFFFFFFF NOT SWAP1 SWAP3 AND SWAP1 DUP6 AND OR OR SWAP1 SSTORE PUSH1 0x40 MLOAD CALLER DUP2 MSTORE PUSH0 DUP1 MLOAD PUSH1 0x20 PUSH2 0xB78 DUP4 CODECOPY DUP2 MLOAD SWAP2 MSTORE SWAP1 PUSH1 0x20 ADD PUSH1 0x40 MLOAD DUP1 SWAP2 SUB SWAP1 LOG1 POP POP POP POP POP JUMP JUMPDEST PUSH1 0x1 SLOAD PUSH0 SWAP1 PUSH2 0x100 SWAP1 DIV PUSH1 0x1 PUSH1 0x1 PUSH1 0xA0 SHL SUB AND CALLER EQ DUP1 PUSH2 0x413 JUMPI POP PUSH1 0x2 SLOAD PUSH1 0x1 PUSH1 0x1 PUSH1 0xA0 SHL SUB AND CALLER EQ JUMPDEST PUSH2 0x42F JUMPI PUSH1 0x40 MLOAD PUSH3 0x461BCD PUSH1 0xE5 SHL DUP2 MSTORE PUSH1 0x4 ADD PUSH2 0x1C1 SWAP1 PUSH2 0xA14 JUMP JUMPDEST POP PUSH1 0x2 SLOAD PUSH1 0x1 PUSH1 0x1 PUSH1 0xA0 SHL SUB AND SWAP1 JUMP JUMPDEST PUSH1 0x60 DUP1 PUSH1 0x60 PUSH0 DUP1 PUSH1 0x1 DUP1 SLOAD SWAP1 PUSH2 0x100 EXP SWAP1 DIV PUSH1 0x1 PUSH1 0x1 PUSH1 0xA0 SHL SUB AND PUSH1 0x1 PUSH1 0x1 PUSH1 0xA0 SHL SUB AND CALLER PUSH1 0x1 PUSH1 0x1 PUSH1 0xA0 SHL SUB AND EQ DUP1 PUSH2 0x483 JUMPI POP PUSH1 0x2 SLOAD PUSH1 0x1 PUSH1 0x1 PUSH1 0xA0 SHL SUB AND CALLER EQ JUMPDEST PUSH2 0x49F JUMPI PUSH1 0x40 MLOAD PUSH3 0x461BCD PUSH1 0xE5 SHL DUP2 MSTORE PUSH1 0x4 ADD PUSH2 0x1C1 SWAP1 PUSH2 0xA14 JUMP JUMPDEST PUSH1 0x5 SLOAD PUSH0 DUP1 SLOAD SWAP1 SWAP2 PUSH1 0x3 SWAP2 PUSH1 0x4 SWAP2 PUSH2 0xFFFF DUP1 DUP3 AND SWAP3 PUSH3 0x10000 SWAP1 SWAP3 DIV AND SWAP1 DUP6 SWAP1 PUSH2 0x4C8 SWAP1 PUSH2 0xA38 JUMP JUMPDEST DUP1 PUSH1 0x1F ADD PUSH1 0x20 DUP1 SWAP2 DIV MUL PUSH1 0x20 ADD PUSH1 0x40 MLOAD SWAP1 DUP2 ADD PUSH1 0x40 MSTORE DUP1 SWAP3 SWAP2 SWAP1 DUP2 DUP2 MSTORE PUSH1 0x20 ADD DUP3 DUP1 SLOAD PUSH2 0x4F4 SWAP1 PUSH2 0xA38 JUMP JUMPDEST DUP1 ISZERO PUSH2 0x53F JUMPI DUP1 PUSH1 0x1F LT PUSH2 0x516 JUMPI PUSH2 0x100 DUP1 DUP4 SLOAD DIV MUL DUP4 MSTORE SWAP2 PUSH1 0x20 ADD SWAP2 PUSH2 0x53F JUMP JUMPDEST DUP3 ADD SWAP2 SWAP1 PUSH0 MSTORE PUSH1 0x20 PUSH0 KECCAK256 SWAP1 JUMPDEST DUP2 SLOAD DUP2 MSTORE SWAP1 PUSH1 0x1 ADD SWAP1 PUSH1 0x20 ADD DUP1 DUP4 GT PUSH2 0x522 JUMPI DUP3 SWAP1 SUB PUSH1 0x1F AND DUP3 ADD SWAP2 JUMPDEST POP POP POP POP POP SWAP5 POP DUP4 DUP1 SLOAD PUSH2 0x552 SWAP1 PUSH2 0xA38 JUMP JUMPDEST DUP1 PUSH1 0x1F ADD PUSH1 0x20 DUP1 SWAP2 DIV MUL PUSH1 0x20 ADD PUSH1 0x40 MLOAD SWAP1 DUP2 ADD PUSH1 0x40 MSTORE DUP1 SWAP3 SWAP2 SWAP1 DUP2 DUP2 MSTORE PUSH1 0x20 ADD DUP3 DUP1 SLOAD PUSH2 0x57E SWAP1 PUSH2 0xA38 JUMP JUMPDEST DUP1 ISZERO PUSH2 0x5C9 JUMPI DUP1 PUSH1 0x1F LT PUSH2 0x5A0 JUMPI PUSH2 0x100 DUP1 DUP4 SLOAD DIV MUL DUP4 MSTORE SWAP2 PUSH1 0x20 ADD SWAP2 PUSH2 0x5C9 JUMP JUMPDEST DUP3 ADD SWAP2 SWAP1 PUSH0 MSTORE PUSH1 0x20 PUSH0 KECCAK256 SWAP1 JUMPDEST DUP2 SLOAD DUP2 MSTORE SWAP1 PUSH1 0x1 ADD SWAP1 PUSH1 0x20 ADD DUP1 DUP4 GT PUSH2 0x5AC JUMPI DUP3 SWAP1 SUB PUSH1 0x1F AND DUP3 ADD SWAP2 JUMPDEST POP POP POP POP POP SWAP4 POP DUP3 DUP1 SLOAD PUSH2 0x5DC SWAP1 PUSH2 0xA38 JUMP JUMPDEST DUP1 PUSH1 0x1F ADD PUSH1 0x20 DUP1 SWAP2 DIV MUL PUSH1 0x20 ADD PUSH1 0x40 MLOAD SWAP1 DUP2 ADD PUSH1 0x40 MSTORE DUP1 SWAP3 SWAP2 SWAP1 DUP2 DUP2 MSTORE PUSH1 0x20 ADD DUP3 DUP1 SLOAD PUSH2 0x608 SWAP1 PUSH2 0xA38 JUMP JUMPDEST DUP1 ISZERO PUSH2 0x653 JUMPI DUP1 PUSH1 0x1F LT PUSH2 0x62A JUMPI PUSH2 0x100 DUP1 DUP4 SLOAD DIV MUL DUP4 MSTORE SWAP2 PUSH1 0x20 ADD SWAP2 PUSH2 0x653 JUMP JUMPDEST DUP3 ADD SWAP2 SWAP1 PUSH0 MSTORE PUSH1 0x20 PUSH0 KECCAK256 SWAP1 JUMPDEST DUP2 SLOAD DUP2 MSTORE SWAP1 PUSH1 0x1 ADD SWAP1 PUSH1 0x20 ADD DUP1 DUP4 GT PUSH2 0x636 JUMPI DUP3 SWAP1 SUB PUSH1 0x1F AND DUP3 ADD SWAP2 JUMPDEST POP POP POP POP POP SWAP3 POP SWAP5 POP SWAP5 POP SWAP5 POP SWAP5 POP SWAP5 POP SWAP1 SWAP2 SWAP3 SWAP4 SWAP5 JUMP JUMPDEST PUSH1 0x1 SLOAD PUSH2 0x100 SWAP1 DIV PUSH1 0x1 PUSH1 0x1 PUSH1 0xA0 SHL SUB AND CALLER EQ DUP1 PUSH2 0x693 JUMPI POP PUSH1 0x2 SLOAD PUSH1 0x1 PUSH1 0x1 PUSH1 0xA0 SHL SUB AND CALLER EQ JUMPDEST PUSH2 0x6AF JUMPI PUSH1 0x40 MLOAD PUSH3 0x461BCD PUSH1 0xE5 SHL DUP2 MSTORE PUSH1 0x4 ADD PUSH2 0x1C1 SWAP1 PUSH2 0xA14 JUMP JUMPDEST PUSH1 0x5 DUP1 SLOAD PUSH4 0xFFFF0000 NOT AND PUSH3 0x10000 PUSH2 0xFFFF DUP5 AND MUL OR SWAP1 SSTORE PUSH1 0x40 MLOAD CALLER DUP2 MSTORE PUSH0 DUP1 MLOAD PUSH1 0x20 PUSH2 0xB78 DUP4 CODECOPY DUP2 MLOAD SWAP2 MSTORE SWAP1 PUSH1 0x20 ADD PUSH2 0x1F0 JUMP JUMPDEST PUSH1 0x1 SLOAD PUSH2 0x100 SWAP1 DIV PUSH1 0x1 PUSH1 0x1 PUSH1 0xA0 SHL SUB AND CALLER EQ DUP1 PUSH2 0x70C JUMPI POP PUSH1 0x2 SLOAD PUSH1 0x1 PUSH1 0x1 PUSH1 0xA0 SHL SUB AND CALLER EQ JUMPDEST PUSH2 0x728 JUMPI PUSH1 0x40 MLOAD PUSH3 0x461BCD PUSH1 0xE5 SHL DUP2 MSTORE PUSH1 0x4 ADD PUSH2 0x1C1 SWAP1 PUSH2 0xA14 JUMP JUMPDEST PUSH0 PUSH2 0x1D6 DUP3 DUP3 PUSH2 0xABC JUMP JUMPDEST PUSH1 0x1 SLOAD PUSH2 0x100 SWAP1 DIV PUSH1 0x1 PUSH1 0x1 PUSH1 0xA0 SHL SUB AND CALLER EQ DUP1 PUSH2 0x75B JUMPI POP PUSH1 0x2 SLOAD PUSH1 0x1 PUSH1 0x1 PUSH1 0xA0 SHL SUB AND CALLER EQ JUMPDEST PUSH2 0x777 JUMPI PUSH1 0x40 MLOAD PUSH3 0x461BCD PUSH1 0xE5 SHL DUP2 MSTORE PUSH1 0x4 ADD PUSH2 0x1C1 SWAP1 PUSH2 0xA14 JUMP JUMPDEST PUSH1 0x3 PUSH2 0x1D6 DUP3 DUP3 PUSH2 0xABC JUMP JUMPDEST PUSH4 0x4E487B71 PUSH1 0xE0 SHL PUSH0 MSTORE PUSH1 0x41 PUSH1 0x4 MSTORE PUSH1 0x24 PUSH0 REVERT JUMPDEST PUSH0 DUP3 PUSH1 0x1F DUP4 ADD SLT PUSH2 0x7A6 JUMPI PUSH0 DUP1 REVERT JUMPDEST DUP2 CALLDATALOAD PUSH8 0xFFFFFFFFFFFFFFFF DUP2 GT ISZERO PUSH2 0x7C0 JUMPI PUSH2 0x7C0 PUSH2 0x783 JUMP JUMPDEST PUSH1 0x40 MLOAD PUSH1 0x1F DUP3 ADD PUSH1 0x1F NOT SWAP1 DUP2 AND PUSH1 0x3F ADD AND DUP2 ADD PUSH8 0xFFFFFFFFFFFFFFFF DUP2 GT DUP3 DUP3 LT OR ISZERO PUSH2 0x7EF JUMPI PUSH2 0x7EF PUSH2 0x783 JUMP JUMPDEST PUSH1 0x40 MSTORE DUP2 DUP2 MSTORE DUP4 DUP3 ADD PUSH1 0x20 ADD DUP6 LT ISZERO PUSH2 0x806 JUMPI PUSH0 DUP1 REVERT JUMPDEST DUP2 PUSH1 0x20 DUP6 ADD PUSH1 0x20 DUP4 ADD CALLDATACOPY PUSH0 SWAP2 DUP2 ADD PUSH1 0x20 ADD SWAP2 SWAP1 SWAP2 MSTORE SWAP4 SWAP3 POP POP POP JUMP JUMPDEST PUSH0 PUSH1 0x20 DUP3 DUP5 SUB SLT ISZERO PUSH2 0x832 JUMPI PUSH0 DUP1 REVERT JUMPDEST DUP2 CALLDATALOAD PUSH8 0xFFFFFFFFFFFFFFFF DUP2 GT ISZERO PUSH2 0x848 JUMPI PUSH0 DUP1 REVERT JUMPDEST PUSH2 0x854 DUP5 DUP3 DUP6 ADD PUSH2 0x797 JUMP JUMPDEST SWAP5 SWAP4 POP POP POP POP JUMP JUMPDEST PUSH0 PUSH1 0x20 DUP3 DUP5 SUB SLT ISZERO PUSH2 0x86C JUMPI PUSH0 DUP1 REVERT JUMPDEST DUP2 CALLDATALOAD PUSH1 0x1 PUSH1 0x1 PUSH1 0xA0 SHL SUB DUP2 AND DUP2 EQ PUSH2 0x882 JUMPI PUSH0 DUP1 REVERT JUMPDEST SWAP4 SWAP3 POP POP POP JUMP JUMPDEST PUSH1 0x20 DUP2 ADD PUSH1 0x3 DUP4 LT PUSH2 0x8A9 JUMPI PUSH4 0x4E487B71 PUSH1 0xE0 SHL PUSH0 MSTORE PUSH1 0x21 PUSH1 0x4 MSTORE PUSH1 0x24 PUSH0 REVERT JUMPDEST SWAP2 SWAP1 MSTORE SWAP1 JUMP JUMPDEST DUP1 CALLDATALOAD PUSH2 0xFFFF DUP2 AND DUP2 EQ PUSH2 0x8C0 JUMPI PUSH0 DUP1 REVERT JUMPDEST SWAP2 SWAP1 POP JUMP JUMPDEST PUSH0 PUSH1 0x20 DUP3 DUP5 SUB SLT ISZERO PUSH2 0x8D5 JUMPI PUSH0 DUP1 REVERT JUMPDEST PUSH2 0x882 DUP3 PUSH2 0x8AF JUMP JUMPDEST PUSH0 DUP1 PUSH0 DUP1 PUSH0 PUSH1 0xA0 DUP7 DUP9 SUB SLT ISZERO PUSH2 0x8F2 JUMPI PUSH0 DUP1 REVERT JUMPDEST DUP6 CALLDATALOAD PUSH8 0xFFFFFFFFFFFFFFFF DUP2 GT ISZERO PUSH2 0x908 JUMPI PUSH0 DUP1 REVERT JUMPDEST PUSH2 0x914 DUP9 DUP3 DUP10 ADD PUSH2 0x797 JUMP JUMPDEST SWAP6 POP POP PUSH1 0x20 DUP7 ADD CALLDATALOAD PUSH8 0xFFFFFFFFFFFFFFFF DUP2 GT ISZERO PUSH2 0x930 JUMPI PUSH0 DUP1 REVERT JUMPDEST PUSH2 0x93C DUP9 DUP3 DUP10 ADD PUSH2 0x797 JUMP JUMPDEST SWAP5 POP POP PUSH1 0x40 DUP7 ADD CALLDATALOAD PUSH8 0xFFFFFFFFFFFFFFFF DUP2 GT ISZERO PUSH2 0x958 JUMPI PUSH0 DUP1 REVERT JUMPDEST PUSH2 0x964 DUP9 DUP3 DUP10 ADD PUSH2 0x797 JUMP JUMPDEST SWAP4 POP POP PUSH2 0x973 PUSH1 0x60 DUP8 ADD PUSH2 0x8AF JUMP JUMPDEST SWAP2 POP PUSH2 0x981 PUSH1 0x80 DUP8 ADD PUSH2 0x8AF JUMP JUMPDEST SWAP1 POP SWAP3 SWAP6 POP SWAP3 SWAP6 SWAP1 SWAP4 POP JUMP JUMPDEST PUSH0 DUP2 MLOAD DUP1 DUP5 MSTORE DUP1 PUSH1 0x20 DUP5 ADD PUSH1 0x20 DUP7 ADD MCOPY PUSH0 PUSH1 0x20 DUP3 DUP7 ADD ADD MSTORE PUSH1 0x20 PUSH1 0x1F NOT PUSH1 0x1F DUP4 ADD AND DUP6 ADD ADD SWAP2 POP POP SWAP3 SWAP2 POP POP JUMP JUMPDEST PUSH1 0xA0 DUP2 MSTORE PUSH0 PUSH2 0x9CD PUSH1 0xA0 DUP4 ADD DUP9 PUSH2 0x98D JUMP JUMPDEST DUP3 DUP2 SUB PUSH1 0x20 DUP5 ADD MSTORE PUSH2 0x9DF DUP2 DUP9 PUSH2 0x98D JUMP JUMPDEST SWAP1 POP DUP3 DUP2 SUB PUSH1 0x40 DUP5 ADD MSTORE PUSH2 0x9F3 DUP2 DUP8 PUSH2 0x98D JUMP JUMPDEST SWAP2 POP POP PUSH2 0xFFFF DUP5 AND PUSH1 0x60 DUP4 ADD MSTORE PUSH2 0xFFFF DUP4 AND PUSH1 0x80 DUP4 ADD MSTORE SWAP7 SWAP6 POP POP POP POP POP POP JUMP JUMPDEST PUSH1 0x20 DUP1 DUP3 MSTORE PUSH1 0xA SWAP1 DUP3 ADD MSTORE PUSH10 0x27B7363C9037BBB732B9 PUSH1 0xB1 SHL PUSH1 0x40 DUP3 ADD MSTORE PUSH1 0x60 ADD SWAP1 JUMP JUMPDEST PUSH1 0x1 DUP2 DUP2 SHR SWAP1 DUP3 AND DUP1 PUSH2 0xA4C JUMPI PUSH1 0x7F DUP3 AND SWAP2 POP JUMPDEST PUSH1 0x20 DUP3 LT DUP2 SUB PUSH2 0xA6A JUMPI PUSH4 0x4E487B71 PUSH1 0xE0 SHL PUSH0 MSTORE PUSH1 0x22 PUSH1 0x4 MSTORE PUSH1 0x24 PUSH0 REVERT JUMPDEST POP SWAP2 SWAP1 POP JUMP JUMPDEST PUSH1 0x1F DUP3 GT ISZERO PUSH2 0xAB7 JUMPI DUP1 PUSH0 MSTORE PUSH1 0x20 PUSH0 KECCAK256 PUSH1 0x1F DUP5 ADD PUSH1 0x5 SHR DUP2 ADD PUSH1 0x20 DUP6 LT ISZERO PUSH2 0xA95 JUMPI POP DUP1 JUMPDEST PUSH1 0x1F DUP5 ADD PUSH1 0x5 SHR DUP3 ADD SWAP2 POP JUMPDEST DUP2 DUP2 LT ISZERO PUSH2 0xAB4 JUMPI PUSH0 DUP2 SSTORE PUSH1 0x1 ADD PUSH2 0xAA1 JUMP JUMPDEST POP POP JUMPDEST POP POP POP JUMP JUMPDEST DUP2 MLOAD PUSH8 0xFFFFFFFFFFFFFFFF DUP2 GT ISZERO PUSH2 0xAD6 JUMPI PUSH2 0xAD6 PUSH2 0x783 JUMP JUMPDEST PUSH2 0xAEA DUP2 PUSH2 0xAE4 DUP5 SLOAD PUSH2 0xA38 JUMP JUMPDEST DUP5 PUSH2 0xA70 JUMP JUMPDEST PUSH1 0x20 PUSH1 0x1F DUP3 GT PUSH1 0x1 DUP2 EQ PUSH2 0xB1C JUMPI PUSH0 DUP4 ISZERO PUSH2 0xB05 JUMPI POP DUP5 DUP3 ADD MLOAD JUMPDEST PUSH0 NOT PUSH1 0x3 DUP6 SWAP1 SHL SHR NOT AND PUSH1 0x1 DUP5 SWAP1 SHL OR DUP5 SSTORE PUSH2 0xAB4 JUMP JUMPDEST PUSH0 DUP5 DUP2 MSTORE PUSH1 0x20 DUP2 KECCAK256 PUSH1 0x1F NOT DUP6 AND SWAP2 JUMPDEST DUP3 DUP2 LT ISZERO PUSH2 0xB4B JUMPI DUP8 DUP6 ADD MLOAD DUP3 SSTORE PUSH1 0x20 SWAP5 DUP6 ADD SWAP5 PUSH1 0x1 SWAP1 SWAP3 ADD SWAP2 ADD PUSH2 0xB2B JUMP JUMPDEST POP DUP5 DUP3 LT ISZERO PUSH2 0xB68 JUMPI DUP7 DUP5 ADD MLOAD PUSH0 NOT PUSH1 0x3 DUP8 SWAP1 SHL PUSH1 0xF8 AND SHR NOT AND DUP2 SSTORE JUMPDEST POP POP POP POP PUSH1 0x1 SWAP1 DUP2 SHL ADD SWAP1 SSTORE POP JUMP INVALID 0xE0 0xD LOG2 OR DUP9 MOD RETURN PUSH32 0x69815E9ED5ED3072EC1D55206D60916D99B469C7DAA421E4A264697066735822 SLT KECCAK256 NUMBER 0xE SLOAD 0xB5 SGT SWAP4 CALLDATACOPY CODESIZE 0xEB 0xA5 0x27 0xE3 PUSH5 0x38A9262382 0xA9 0xC1 0x4C MLOAD CALLDATASIZE DUP3 LT LOG1 PUSH26 0x1BE6B262F664736F6C634300081A003300000000000000000000 "
				},
				"gasEstimates": {
					"creation": {
						"codeDepositCost": "604200",
						"executionCost": "infinite",
						"totalCost": "infinite"
					},
					"external": {
						"expose()": "infinite",
						"getItemType()": "6707",
						"getParent()": "6648",
						"setCardId(string)": "infinite",
						"setCvv(uint16)": "infinite",
						"setExpireAt(uint16)": "infinite",
						"setItem(string,string,string,uint16,uint16)": "infinite",
						"setName(string)": "infinite",
						"setNameOnCard(string)": "infinite",
						"setParent(address)": "infinite"
					}
				},
				"methodIdentifiers": {
					"expose()": "ba379e86",
					"getItemType()": "2858d3c8",
					"getParent()": "80f76021",
					"setCardId(string)": "efd8af9f",
					"setCvv(uint16)": "c40da770",
					"setExpireAt(uint16)": "40aa5c71",
					"setItem(string,string,string,uint16,uint16)": "478e5cb3",
					"setName(string)": "c47f0027",
					"setNameOnCard(string)": "0dbef92c",
					"setParent(address)": "1499c592"
				}
			},
			"storageLayout": {
				"storage": [
					{
						"astId": 242,
						"contract": "Items/DebitCard.sol:DebitCard",
						"label": "name",
						"offset": 0,
						"slot": "0",
						"type": "t_string_storage"
					},
					{
						"astId": 245,
						"contract": "Items/DebitCard.sol:DebitCard",
						"label": "item_type",
						"offset": 0,
						"slot": "1",
						"type": "t_enum(ItemType)357"
					},
					{
						"astId": 247,
						"contract": "Items/DebitCard.sol:DebitCard",
						"label": "owner",
						"offset": 1,
						"slot": "1",
						"type": "t_address"
					},
					{
						"astId": 249,
						"contract": "Items/DebitCard.sol:DebitCard",
						"label": "parent",
						"offset": 0,
						"slot": "2",
						"type": "t_address"
					},
					{
						"astId": 48,
						"contract": "Items/DebitCard.sol:DebitCard",
						"label": "card_id",
						"offset": 0,
						"slot": "3",
						"type": "t_string_storage"
					},
					{
						"astId": 50,
						"contract": "Items/DebitCard.sol:DebitCard",
						"label": "name_on_card",
						"offset": 0,
						"slot": "4",
						"type": "t_string_storage"
					},
					{
						"astId": 52,
						"contract": "Items/DebitCard.sol:DebitCard",
						"label": "expire_at",
						"offset": 0,
						"slot": "5",
						"type": "t_uint16"
					},
					{
						"astId": 54,
						"contract": "Items/DebitCard.sol:DebitCard",
						"label": "cvv",
						"offset": 2,
						"slot": "5",
						"type": "t_uint16"
					}
				],
				"types": {
					"t_address": {
						"encoding": "inplace",
						"label": "address",
						"numberOfBytes": "20"
					},
					"t_enum(ItemType)357": {
						"encoding": "inplace",
						"label": "enum Constants.ItemType",
						"numberOfBytes": "1"
					},
					"t_string_storage": {
						"encoding": "bytes",
						"label": "string",
						"numberOfBytes": "32"
					},
					"t_uint16": {
						"encoding": "inplace",
						"label": "uint16",
						"numberOfBytes": "2"
					}
				}
			},
			"userdoc": {
				"kind": "user",
				"methods": {},
				"version": 1
			}
		}
	}
}