{
	"data": {
		"bytecode": {
			"linkReferences": {},
			"object": "608060405234801561000f575f80fd5b506040516114a93803806114a983398101604081905261002e916101b3565b5f6001819055878383836100428482610307565b50600280546001600160a01b039384166001600160a01b03199182161790915560038054929093169116179055506005905061007e8782610307565b50600661008b8682610307565b506007805461ffff858116620100000263ffffffff19909216908716171790556040513381527f1449abf21e49fd025f33495e77f7b1461caefdd3d4bb646424a3f445c4576a5b9060200160405180910390a1505050505050506103c1565b634e487b7160e01b5f52604160045260245ffd5b5f82601f83011261010d575f80fd5b81516001600160401b03811115610126576101266100ea565b604051601f8201601f19908116603f011681016001600160401b0381118282101715610154576101546100ea565b60405281815283820160200185101561016b575f80fd5b8160208501602083015e5f918101602001919091529392505050565b805161ffff81168114610198575f80fd5b919050565b80516001600160a01b0381168114610198575f80fd5b5f805f805f805f60e0888a0312156101c9575f80fd5b87516001600160401b038111156101de575f80fd5b6101ea8a828b016100fe565b60208a015190985090506001600160401b03811115610207575f80fd5b6102138a828b016100fe565b60408a015190975090506001600160401b03811115610230575f80fd5b61023c8a828b016100fe565b95505061024b60608901610187565b935061025960808901610187565b925061026760a0890161019d565b915061027560c0890161019d565b905092959891949750929550565b600181811c9082168061029757607f821691505b6020821081036102b557634e487b7160e01b5f52602260045260245ffd5b50919050565b601f82111561030257805f5260205f20601f840160051c810160208510156102e05750805b601f840160051c820191505b818110156102ff575f81556001016102ec565b50505b505050565b81516001600160401b03811115610320576103206100ea565b6103348161032e8454610283565b846102bb565b6020601f821160018114610366575f831561034f5750848201515b5f19600385901b1c1916600184901b1784556102ff565b5f84815260208120601f198516915b828110156103955787850151825560209485019460019092019101610375565b50848210156103b257868401515f19600387901b60f8161c191681555b50505050600190811b01905550565b6110db806103ce5f395ff3fe608060405234801561000f575f80fd5b50600436106100b8575f3560e01c80630dbef92c146100bc57806326c7b327146100d157806340aa5c71146100ed578063478e5cb3146101005780634ba83374146101135780635da6ef8d1461012b57806380f760211461013e578063a95264d014610153578063b9daf3e214610168578063ba379e8614610170578063c40da77014610189578063c47f00271461019c578063ded92dac146101af578063efd8af9f146101c2575b5f80fd5b6100cf6100ca366004610c84565b6101d5565b005b6100da60015481565b6040519081526020015b60405180910390f35b6100cf6100fb366004610cd3565b610251565b6100cf61010e366004610cf3565b6102be565b61011b61036e565b60405190151581526020016100e4565b6100cf610139366004610d9f565b6103da565b610146610517565b6040516100e49190610dc5565b61015b610568565b6040516100e49190610dd9565b61011b610608565b610178610632565b6040516100e4959493929190610e52565b6100cf610197366004610cd3565b61089e565b6100cf6101aa366004610c84565b610912565b6100cf6101bd366004610d9f565b61095c565b6100cf6101d0366004610c84565b610a52565b6002546001600160a01b03163314806101f857506003546001600160a01b031633145b61021d5760405162461bcd60e51b815260040161021490610eab565b60405180910390fd5b60066102298282610f4c565b505f80516020611086833981519152336040516102469190610dc5565b60405180910390a150565b6002546001600160a01b031633148061027457506003546001600160a01b031633145b6102905760405162461bcd60e51b815260040161021490610eab565b6007805461ffff191661ffff83161790556040515f8051602061108683398151915290610246903390610dc5565b6002546001600160a01b03163314806102e157506003546001600160a01b031633145b6102fd5760405162461bcd60e51b815260040161021490610eab565b5f6103088682610f4c565b5060056103158582610f4c565b5060066103228482610f4c565b506007805461ffff838116620100000263ffffffff19909216908516171790556040515f805160206110868339815191529061035f903390610dc5565b60405180910390a15050505050565b5f6103d13360048054806020026020016040519081016040528092919081815260200182805480156103c757602002820191905f5260205f20905b81546001600160a01b031681526001909101906020018083116103a9575b5050505050610a9d565b5f191415905090565b6002546001600160a01b03163314806103fd57506003546001600160a01b031633145b6104195760405162461bcd60e51b815260040161021490610eab565b6002546001600160a01b0382811691161480159061043f57506001600160a01b03811615155b80156104aa57506104a68160048054806020026020016040519081016040528092919081815260200182805480156103c757602002820191905f5260205f209081546001600160a01b031681526001909101906020018083116103a9575050505050610a9d565b5f19145b6104c65760405162461bcd60e51b815260040161021490610eab565b600480546001810182555f919091527f8a35acfbc15ff81a39ae7d344fd709f28e8600b4aa8c65c6b64bfe7fe36bd19b0180546001600160a01b0319166001600160a01b0392909216919091179055565b6002545f906001600160a01b031633148061053c57506003546001600160a01b031633145b6105585760405162461bcd60e51b815260040161021490610eab565b506003546001600160a01b031690565b6002546060906001600160a01b031633148061058e57506003546001600160a01b031633145b6105aa5760405162461bcd60e51b815260040161021490610eab565b60048054806020026020016040519081016040528092919081815260200182805480156105fe57602002820191905f5260205f20905b81546001600160a01b031681526001909101906020018083116105e0575b5050505050905090565b6002545f906001600160a01b031633148061062d57506003546001600160a01b031633145b905090565b600254606090819081905f9081906001600160a01b03163314806106b657506106b13360048054806020026020016040519081016040528092919081815260200182805480156103c757602002820191905f5260205f209081546001600160a01b031681526001909101906020018083116103a9575050505050610a9d565b5f1914155b6106d25760405162461bcd60e51b815260040161021490610eab565b6007545f8054909160059160069161ffff8082169262010000909204169085906106fb90610ec8565b80601f016020809104026020016040519081016040528092919081815260200182805461072790610ec8565b80156107725780601f1061074957610100808354040283529160200191610772565b820191905f5260205f20905b81548152906001019060200180831161075557829003601f168201915b5050505050945083805461078590610ec8565b80601f01602080910402602001604051908101604052809291908181526020018280546107b190610ec8565b80156107fc5780601f106107d3576101008083540402835291602001916107fc565b820191905f5260205f20905b8154815290600101906020018083116107df57829003601f168201915b5050505050935082805461080f90610ec8565b80601f016020809104026020016040519081016040528092919081815260200182805461083b90610ec8565b80156108865780601f1061085d57610100808354040283529160200191610886565b820191905f5260205f20905b81548152906001019060200180831161086957829003601f168201915b50505050509250945094509450945094509091929394565b6002546001600160a01b03163314806108c157506003546001600160a01b031633145b6108dd5760405162461bcd60e51b815260040161021490610eab565b6007805463ffff000019166201000061ffff8416021790556040515f8051602061108683398151915290610246903390610dc5565b6002546001600160a01b031633148061093557506003546001600160a01b031633145b6109515760405162461bcd60e51b815260040161021490610eab565b5f6102298282610f4c565b6001600160a01b0381161515806109a457506003546001600160a01b031633148061099157506002546001600160a01b031633145b806109a45750336001600160a01b038216145b6109c05760405162461bcd60e51b815260040161021490610eab565b5f610a218260048054806020026020016040519081016040528092919081815260200182805480156103c757602002820191905f5260205f209081546001600160a01b031681526001909101906020018083116103a9575050505050610a9d565b90505f198113610a435760405162461bcd60e51b815260040161021490611006565b610a4e816004610af6565b5050565b6002546001600160a01b0316331480610a7557506003546001600160a01b031633145b610a915760405162461bcd60e51b815260040161021490610eab565b60056102298282610f4c565b5f805b8251811015610aea57836001600160a01b0316838281518110610ac557610ac5611023565b60200260200101516001600160a01b031603610ae2579050610af0565b600101610aa0565b505f1990505b92915050565b5f8212158015610b065750805482105b610b225760405162461bcd60e51b815260040161021490611006565b815b8154610b329060019061104b565b811015610bb25781610b4582600161105e565b81548110610b5557610b55611023565b905f5260205f20015f9054906101000a90046001600160a01b0316828281548110610b8257610b82611023565b5f91825260209091200180546001600160a01b0319166001600160a01b0392909216919091179055600101610b24565b5080805480610bc357610bc3611071565b5f8281526020902081015f1990810180546001600160a01b03191690550190555050565b634e487b7160e01b5f52604160045260245ffd5b5f82601f830112610c0a575f80fd5b81356001600160401b03811115610c2357610c23610be7565b604051601f8201601f19908116603f011681016001600160401b0381118282101715610c5157610c51610be7565b604052818152838201602001851015610c68575f80fd5b816020850160208301375f918101602001919091529392505050565b5f60208284031215610c94575f80fd5b81356001600160401b03811115610ca9575f80fd5b610cb584828501610bfb565b949350505050565b803561ffff81168114610cce575f80fd5b919050565b5f60208284031215610ce3575f80fd5b610cec82610cbd565b9392505050565b5f805f805f60a08688031215610d07575f80fd5b85356001600160401b03811115610d1c575f80fd5b610d2888828901610bfb565b95505060208601356001600160401b03811115610d43575f80fd5b610d4f88828901610bfb565b94505060408601356001600160401b03811115610d6a575f80fd5b610d7688828901610bfb565b935050610d8560608701610cbd565b9150610d9360808701610cbd565b90509295509295909350565b5f60208284031215610daf575f80fd5b81356001600160a01b0381168114610cec575f80fd5b6001600160a01b0391909116815260200190565b602080825282518282018190525f918401906040840190835b81811015610e195783516001600160a01b0316835260209384019390920191600101610df2565b509095945050505050565b5f81518084528060208401602086015e5f602082860101526020601f19601f83011685010191505092915050565b60a081525f610e6460a0830188610e24565b8281036020840152610e768188610e24565b90508281036040840152610e8a8187610e24565b91505061ffff8416606083015261ffff831660808301529695505050505050565b60208082526003908201526234303360e81b604082015260600190565b600181811c90821680610edc57607f821691505b602082108103610efa57634e487b7160e01b5f52602260045260245ffd5b50919050565b601f821115610f4757805f5260205f20601f840160051c81016020851015610f255750805b601f840160051c820191505b81811015610f44575f8155600101610f31565b50505b505050565b81516001600160401b03811115610f6557610f65610be7565b610f7981610f738454610ec8565b84610f00565b6020601f821160018114610fab575f8315610f945750848201515b5f19600385901b1c1916600184901b178455610f44565b5f84815260208120601f198516915b82811015610fda5787850151825560209485019460019092019101610fba565b5084821015610ff757868401515f19600387901b60f8161c191681555b50505050600190811b01905550565b6020808252600390820152620d0c0d60ea1b604082015260600190565b634e487b7160e01b5f52603260045260245ffd5b634e487b7160e01b5f52601160045260245ffd5b81810381811115610af057610af0611037565b80820180821115610af057610af0611037565b634e487b7160e01b5f52603160045260245ffdfee00da2178806f37f69815e9ed5ed3072ec1d55206d60916d99b469c7daa421e4a26469706673582212206999e53b8a564efbf4add36eb4f82d471c4dbc14260dd7c09cda1c3181a0172c64736f6c634300081a0033",
			"opcodes": "PUSH1 0x80 PUSH1 0x40 MSTORE CALLVALUE DUP1 ISZERO PUSH2 0xF JUMPI PUSH0 DUP1 REVERT JUMPDEST POP PUSH1 0x40 MLOAD PUSH2 0x14A9 CODESIZE SUB DUP1 PUSH2 0x14A9 DUP4 CODECOPY DUP2 ADD PUSH1 0x40 DUP2 SWAP1 MSTORE PUSH2 0x2E SWAP2 PUSH2 0x1B3 JUMP JUMPDEST PUSH0 PUSH1 0x1 DUP2 SWAP1 SSTORE DUP8 DUP4 DUP4 DUP4 PUSH2 0x42 DUP5 DUP3 PUSH2 0x307 JUMP JUMPDEST POP PUSH1 0x2 DUP1 SLOAD PUSH1 0x1 PUSH1 0x1 PUSH1 0xA0 SHL SUB SWAP4 DUP5 AND PUSH1 0x1 PUSH1 0x1 PUSH1 0xA0 SHL SUB NOT SWAP2 DUP3 AND OR SWAP1 SWAP2 SSTORE PUSH1 0x3 DUP1 SLOAD SWAP3 SWAP1 SWAP4 AND SWAP2 AND OR SWAP1 SSTORE POP PUSH1 0x5 SWAP1 POP PUSH2 0x7E DUP8 DUP3 PUSH2 0x307 JUMP JUMPDEST POP PUSH1 0x6 PUSH2 0x8B DUP7 DUP3 PUSH2 0x307 JUMP JUMPDEST POP PUSH1 0x7 DUP1 SLOAD PUSH2 0xFFFF DUP6 DUP2 AND PUSH3 0x10000 MUL PUSH4 0xFFFFFFFF NOT SWAP1 SWAP3 AND SWAP1 DUP8 AND OR OR SWAP1 SSTORE PUSH1 0x40 MLOAD CALLER DUP2 MSTORE PUSH32 0x1449ABF21E49FD025F33495E77F7B1461CAEFDD3D4BB646424A3F445C4576A5B SWAP1 PUSH1 0x20 ADD PUSH1 0x40 MLOAD DUP1 SWAP2 SUB SWAP1 LOG1 POP POP POP POP POP POP POP PUSH2 0x3C1 JUMP JUMPDEST PUSH4 0x4E487B71 PUSH1 0xE0 SHL PUSH0 MSTORE PUSH1 0x41 PUSH1 0x4 MSTORE PUSH1 0x24 PUSH0 REVERT JUMPDEST PUSH0 DUP3 PUSH1 0x1F DUP4 ADD SLT PUSH2 0x10D JUMPI PUSH0 DUP1 REVERT JUMPDEST DUP2 MLOAD PUSH1 0x1 PUSH1 0x1 PUSH1 0x40 SHL SUB DUP2 GT ISZERO PUSH2 0x126 JUMPI PUSH2 0x126 PUSH2 0xEA JUMP JUMPDEST PUSH1 0x40 MLOAD PUSH1 0x1F DUP3 ADD PUSH1 0x1F NOT SWAP1 DUP2 AND PUSH1 0x3F ADD AND DUP2 ADD PUSH1 0x1 PUSH1 0x1 PUSH1 0x40 SHL SUB DUP2 GT DUP3 DUP3 LT OR ISZERO PUSH2 0x154 JUMPI PUSH2 0x154 PUSH2 0xEA JUMP JUMPDEST PUSH1 0x40 MSTORE DUP2 DUP2 MSTORE DUP4 DUP3 ADD PUSH1 0x20 ADD DUP6 LT ISZERO PUSH2 0x16B JUMPI PUSH0 DUP1 REVERT JUMPDEST DUP2 PUSH1 0x20 DUP6 ADD PUSH1 0x20 DUP4 ADD MCOPY PUSH0 SWAP2 DUP2 ADD PUSH1 0x20 ADD SWAP2 SWAP1 SWAP2 MSTORE SWAP4 SWAP3 POP POP POP JUMP JUMPDEST DUP1 MLOAD PUSH2 0xFFFF DUP2 AND DUP2 EQ PUSH2 0x198 JUMPI PUSH0 DUP1 REVERT JUMPDEST SWAP2 SWAP1 POP JUMP JUMPDEST DUP1 MLOAD PUSH1 0x1 PUSH1 0x1 PUSH1 0xA0 SHL SUB DUP2 AND DUP2 EQ PUSH2 0x198 JUMPI PUSH0 DUP1 REVERT JUMPDEST PUSH0 DUP1 PUSH0 DUP1 PUSH0 DUP1 PUSH0 PUSH1 0xE0 DUP9 DUP11 SUB SLT ISZERO PUSH2 0x1C9 JUMPI PUSH0 DUP1 REVERT JUMPDEST DUP8 MLOAD PUSH1 0x1 PUSH1 0x1 PUSH1 0x40 SHL SUB DUP2 GT ISZERO PUSH2 0x1DE JUMPI PUSH0 DUP1 REVERT JUMPDEST PUSH2 0x1EA DUP11 DUP3 DUP12 ADD PUSH2 0xFE JUMP JUMPDEST PUSH1 0x20 DUP11 ADD MLOAD SWAP1 SWAP9 POP SWAP1 POP PUSH1 0x1 PUSH1 0x1 PUSH1 0x40 SHL SUB DUP2 GT ISZERO PUSH2 0x207 JUMPI PUSH0 DUP1 REVERT JUMPDEST PUSH2 0x213 DUP11 DUP3 DUP12 ADD PUSH2 0xFE JUMP JUMPDEST PUSH1 0x40 DUP11 ADD MLOAD SWAP1 SWAP8 POP SWAP1 POP PUSH1 0x1 PUSH1 0x1 PUSH1 0x40 SHL SUB DUP2 GT ISZERO PUSH2 0x230 JUMPI PUSH0 DUP1 REVERT JUMPDEST PUSH2 0x23C DUP11 DUP3 DUP12 ADD PUSH2 0xFE JUMP JUMPDEST SWAP6 POP POP PUSH2 0x24B PUSH1 0x60 DUP10 ADD PUSH2 0x187 JUMP JUMPDEST SWAP4 POP PUSH2 0x259 PUSH1 0x80 DUP10 ADD PUSH2 0x187 JUMP JUMPDEST SWAP3 POP PUSH2 0x267 PUSH1 0xA0 DUP10 ADD PUSH2 0x19D JUMP JUMPDEST SWAP2 POP PUSH2 0x275 PUSH1 0xC0 DUP10 ADD PUSH2 0x19D JUMP JUMPDEST SWAP1 POP SWAP3 SWAP6 SWAP9 SWAP2 SWAP5 SWAP8 POP SWAP3 SWAP6 POP JUMP JUMPDEST PUSH1 0x1 DUP2 DUP2 SHR SWAP1 DUP3 AND DUP1 PUSH2 0x297 JUMPI PUSH1 0x7F DUP3 AND SWAP2 POP JUMPDEST PUSH1 0x20 DUP3 LT DUP2 SUB PUSH2 0x2B5 JUMPI PUSH4 0x4E487B71 PUSH1 0xE0 SHL PUSH0 MSTORE PUSH1 0x22 PUSH1 0x4 MSTORE PUSH1 0x24 PUSH0 REVERT JUMPDEST POP SWAP2 SWAP1 POP JUMP JUMPDEST PUSH1 0x1F DUP3 GT ISZERO PUSH2 0x302 JUMPI DUP1 PUSH0 MSTORE PUSH1 0x20 PUSH0 KECCAK256 PUSH1 0x1F DUP5 ADD PUSH1 0x5 SHR DUP2 ADD PUSH1 0x20 DUP6 LT ISZERO PUSH2 0x2E0 JUMPI POP DUP1 JUMPDEST PUSH1 0x1F DUP5 ADD PUSH1 0x5 SHR DUP3 ADD SWAP2 POP JUMPDEST DUP2 DUP2 LT ISZERO PUSH2 0x2FF JUMPI PUSH0 DUP2 SSTORE PUSH1 0x1 ADD PUSH2 0x2EC JUMP JUMPDEST POP POP JUMPDEST POP POP POP JUMP JUMPDEST DUP2 MLOAD PUSH1 0x1 PUSH1 0x1 PUSH1 0x40 SHL SUB DUP2 GT ISZERO PUSH2 0x320 JUMPI PUSH2 0x320 PUSH2 0xEA JUMP JUMPDEST PUSH2 0x334 DUP2 PUSH2 0x32E DUP5 SLOAD PUSH2 0x283 JUMP JUMPDEST DUP5 PUSH2 0x2BB JUMP JUMPDEST PUSH1 0x20 PUSH1 0x1F DUP3 GT PUSH1 0x1 DUP2 EQ PUSH2 0x366 JUMPI PUSH0 DUP4 ISZERO PUSH2 0x34F JUMPI POP DUP5 DUP3 ADD MLOAD JUMPDEST PUSH0 NOT PUSH1 0x3 DUP6 SWAP1 SHL SHR NOT AND PUSH1 0x1 DUP5 SWAP1 SHL OR DUP5 SSTORE PUSH2 0x2FF JUMP JUMPDEST PUSH0 DUP5 DUP2 MSTORE PUSH1 0x20 DUP2 KECCAK256 PUSH1 0x1F NOT DUP6 AND SWAP2 JUMPDEST DUP3 DUP2 LT ISZERO PUSH2 0x395 JUMPI DUP8 DUP6 ADD MLOAD DUP3 SSTORE PUSH1 0x20 SWAP5 DUP6 ADD SWAP5 PUSH1 0x1 SWAP1 SWAP3 ADD SWAP2 ADD PUSH2 0x375 JUMP JUMPDEST POP DUP5 DUP3 LT ISZERO PUSH2 0x3B2 JUMPI DUP7 DUP5 ADD MLOAD PUSH0 NOT PUSH1 0x3 DUP8 SWAP1 SHL PUSH1 0xF8 AND SHR NOT AND DUP2 SSTORE JUMPDEST POP POP POP POP PUSH1 0x1 SWAP1 DUP2 SHL ADD SWAP1 SSTORE POP JUMP JUMPDEST PUSH2 0x10DB DUP1 PUSH2 0x3CE PUSH0 CODECOPY PUSH0 RETURN INVALID PUSH1 0x80 PUSH1 0x40 MSTORE CALLVALUE DUP1 ISZERO PUSH2 0xF JUMPI PUSH0 DUP1 REVERT JUMPDEST POP PUSH1 0x4 CALLDATASIZE LT PUSH2 0xB8 JUMPI PUSH0 CALLDATALOAD PUSH1 0xE0 SHR DUP1 PUSH4 0xDBEF92C EQ PUSH2 0xBC JUMPI DUP1 PUSH4 0x26C7B327 EQ PUSH2 0xD1 JUMPI DUP1 PUSH4 0x40AA5C71 EQ PUSH2 0xED JUMPI DUP1 PUSH4 0x478E5CB3 EQ PUSH2 0x100 JUMPI DUP1 PUSH4 0x4BA83374 EQ PUSH2 0x113 JUMPI DUP1 PUSH4 0x5DA6EF8D EQ PUSH2 0x12B JUMPI DUP1 PUSH4 0x80F76021 EQ PUSH2 0x13E JUMPI DUP1 PUSH4 0xA95264D0 EQ PUSH2 0x153 JUMPI DUP1 PUSH4 0xB9DAF3E2 EQ PUSH2 0x168 JUMPI DUP1 PUSH4 0xBA379E86 EQ PUSH2 0x170 JUMPI DUP1 PUSH4 0xC40DA770 EQ PUSH2 0x189 JUMPI DUP1 PUSH4 0xC47F0027 EQ PUSH2 0x19C JUMPI DUP1 PUSH4 0xDED92DAC EQ PUSH2 0x1AF JUMPI DUP1 PUSH4 0xEFD8AF9F EQ PUSH2 0x1C2 JUMPI JUMPDEST PUSH0 DUP1 REVERT JUMPDEST PUSH2 0xCF PUSH2 0xCA CALLDATASIZE PUSH1 0x4 PUSH2 0xC84 JUMP JUMPDEST PUSH2 0x1D5 JUMP JUMPDEST STOP JUMPDEST PUSH2 0xDA PUSH1 0x1 SLOAD DUP2 JUMP JUMPDEST PUSH1 0x40 MLOAD SWAP1 DUP2 MSTORE PUSH1 0x20 ADD JUMPDEST PUSH1 0x40 MLOAD DUP1 SWAP2 SUB SWAP1 RETURN JUMPDEST PUSH2 0xCF PUSH2 0xFB CALLDATASIZE PUSH1 0x4 PUSH2 0xCD3 JUMP JUMPDEST PUSH2 0x251 JUMP JUMPDEST PUSH2 0xCF PUSH2 0x10E CALLDATASIZE PUSH1 0x4 PUSH2 0xCF3 JUMP JUMPDEST PUSH2 0x2BE JUMP JUMPDEST PUSH2 0x11B PUSH2 0x36E JUMP JUMPDEST PUSH1 0x40 MLOAD SWAP1 ISZERO ISZERO DUP2 MSTORE PUSH1 0x20 ADD PUSH2 0xE4 JUMP JUMPDEST PUSH2 0xCF PUSH2 0x139 CALLDATASIZE PUSH1 0x4 PUSH2 0xD9F JUMP JUMPDEST PUSH2 0x3DA JUMP JUMPDEST PUSH2 0x146 PUSH2 0x517 JUMP JUMPDEST PUSH1 0x40 MLOAD PUSH2 0xE4 SWAP2 SWAP1 PUSH2 0xDC5 JUMP JUMPDEST PUSH2 0x15B PUSH2 0x568 JUMP JUMPDEST PUSH1 0x40 MLOAD PUSH2 0xE4 SWAP2 SWAP1 PUSH2 0xDD9 JUMP JUMPDEST PUSH2 0x11B PUSH2 0x608 JUMP JUMPDEST PUSH2 0x178 PUSH2 0x632 JUMP JUMPDEST PUSH1 0x40 MLOAD PUSH2 0xE4 SWAP6 SWAP5 SWAP4 SWAP3 SWAP2 SWAP1 PUSH2 0xE52 JUMP JUMPDEST PUSH2 0xCF PUSH2 0x197 CALLDATASIZE PUSH1 0x4 PUSH2 0xCD3 JUMP JUMPDEST PUSH2 0x89E JUMP JUMPDEST PUSH2 0xCF PUSH2 0x1AA CALLDATASIZE PUSH1 0x4 PUSH2 0xC84 JUMP JUMPDEST PUSH2 0x912 JUMP JUMPDEST PUSH2 0xCF PUSH2 0x1BD CALLDATASIZE PUSH1 0x4 PUSH2 0xD9F JUMP JUMPDEST PUSH2 0x95C JUMP JUMPDEST PUSH2 0xCF PUSH2 0x1D0 CALLDATASIZE PUSH1 0x4 PUSH2 0xC84 JUMP JUMPDEST PUSH2 0xA52 JUMP JUMPDEST PUSH1 0x2 SLOAD PUSH1 0x1 PUSH1 0x1 PUSH1 0xA0 SHL SUB AND CALLER EQ DUP1 PUSH2 0x1F8 JUMPI POP PUSH1 0x3 SLOAD PUSH1 0x1 PUSH1 0x1 PUSH1 0xA0 SHL SUB AND CALLER EQ JUMPDEST PUSH2 0x21D JUMPI PUSH1 0x40 MLOAD PUSH3 0x461BCD PUSH1 0xE5 SHL DUP2 MSTORE PUSH1 0x4 ADD PUSH2 0x214 SWAP1 PUSH2 0xEAB JUMP JUMPDEST PUSH1 0x40 MLOAD DUP1 SWAP2 SUB SWAP1 REVERT JUMPDEST PUSH1 0x6 PUSH2 0x229 DUP3 DUP3 PUSH2 0xF4C JUMP JUMPDEST POP PUSH0 DUP1 MLOAD PUSH1 0x20 PUSH2 0x1086 DUP4 CODECOPY DUP2 MLOAD SWAP2 MSTORE CALLER PUSH1 0x40 MLOAD PUSH2 0x246 SWAP2 SWAP1 PUSH2 0xDC5 JUMP JUMPDEST PUSH1 0x40 MLOAD DUP1 SWAP2 SUB SWAP1 LOG1 POP JUMP JUMPDEST PUSH1 0x2 SLOAD PUSH1 0x1 PUSH1 0x1 PUSH1 0xA0 SHL SUB AND CALLER EQ DUP1 PUSH2 0x274 JUMPI POP PUSH1 0x3 SLOAD PUSH1 0x1 PUSH1 0x1 PUSH1 0xA0 SHL SUB AND CALLER EQ JUMPDEST PUSH2 0x290 JUMPI PUSH1 0x40 MLOAD PUSH3 0x461BCD PUSH1 0xE5 SHL DUP2 MSTORE PUSH1 0x4 ADD PUSH2 0x214 SWAP1 PUSH2 0xEAB JUMP JUMPDEST PUSH1 0x7 DUP1 SLOAD PUSH2 0xFFFF NOT AND PUSH2 0xFFFF DUP4 AND OR SWAP1 SSTORE PUSH1 0x40 MLOAD PUSH0 DUP1 MLOAD PUSH1 0x20 PUSH2 0x1086 DUP4 CODECOPY DUP2 MLOAD SWAP2 MSTORE SWAP1 PUSH2 0x246 SWAP1 CALLER SWAP1 PUSH2 0xDC5 JUMP JUMPDEST PUSH1 0x2 SLOAD PUSH1 0x1 PUSH1 0x1 PUSH1 0xA0 SHL SUB AND CALLER EQ DUP1 PUSH2 0x2E1 JUMPI POP PUSH1 0x3 SLOAD PUSH1 0x1 PUSH1 0x1 PUSH1 0xA0 SHL SUB AND CALLER EQ JUMPDEST PUSH2 0x2FD JUMPI PUSH1 0x40 MLOAD PUSH3 0x461BCD PUSH1 0xE5 SHL DUP2 MSTORE PUSH1 0x4 ADD PUSH2 0x214 SWAP1 PUSH2 0xEAB JUMP JUMPDEST PUSH0 PUSH2 0x308 DUP7 DUP3 PUSH2 0xF4C JUMP JUMPDEST POP PUSH1 0x5 PUSH2 0x315 DUP6 DUP3 PUSH2 0xF4C JUMP JUMPDEST POP PUSH1 0x6 PUSH2 0x322 DUP5 DUP3 PUSH2 0xF4C JUMP JUMPDEST POP PUSH1 0x7 DUP1 SLOAD PUSH2 0xFFFF DUP4 DUP2 AND PUSH3 0x10000 MUL PUSH4 0xFFFFFFFF NOT SWAP1 SWAP3 AND SWAP1 DUP6 AND OR OR SWAP1 SSTORE PUSH1 0x40 MLOAD PUSH0 DUP1 MLOAD PUSH1 0x20 PUSH2 0x1086 DUP4 CODECOPY DUP2 MLOAD SWAP2 MSTORE SWAP1 PUSH2 0x35F SWAP1 CALLER SWAP1 PUSH2 0xDC5 JUMP JUMPDEST PUSH1 0x40 MLOAD DUP1 SWAP2 SUB SWAP1 LOG1 POP POP POP POP POP JUMP JUMPDEST PUSH0 PUSH2 0x3D1 CALLER PUSH1 0x4 DUP1 SLOAD DUP1 PUSH1 0x20 MUL PUSH1 0x20 ADD PUSH1 0x40 MLOAD SWAP1 DUP2 ADD PUSH1 0x40 MSTORE DUP1 SWAP3 SWAP2 SWAP1 DUP2 DUP2 MSTORE PUSH1 0x20 ADD DUP3 DUP1 SLOAD DUP1 ISZERO PUSH2 0x3C7 JUMPI PUSH1 0x20 MUL DUP3 ADD SWAP2 SWAP1 PUSH0 MSTORE PUSH1 0x20 PUSH0 KECCAK256 SWAP1 JUMPDEST DUP2 SLOAD PUSH1 0x1 PUSH1 0x1 PUSH1 0xA0 SHL SUB AND DUP2 MSTORE PUSH1 0x1 SWAP1 SWAP2 ADD SWAP1 PUSH1 0x20 ADD DUP1 DUP4 GT PUSH2 0x3A9 JUMPI JUMPDEST POP POP POP POP POP PUSH2 0xA9D JUMP JUMPDEST PUSH0 NOT EQ ISZERO SWAP1 POP SWAP1 JUMP JUMPDEST PUSH1 0x2 SLOAD PUSH1 0x1 PUSH1 0x1 PUSH1 0xA0 SHL SUB AND CALLER EQ DUP1 PUSH2 0x3FD JUMPI POP PUSH1 0x3 SLOAD PUSH1 0x1 PUSH1 0x1 PUSH1 0xA0 SHL SUB AND CALLER EQ JUMPDEST PUSH2 0x419 JUMPI PUSH1 0x40 MLOAD PUSH3 0x461BCD PUSH1 0xE5 SHL DUP2 MSTORE PUSH1 0x4 ADD PUSH2 0x214 SWAP1 PUSH2 0xEAB JUMP JUMPDEST PUSH1 0x2 SLOAD PUSH1 0x1 PUSH1 0x1 PUSH1 0xA0 SHL SUB DUP3 DUP2 AND SWAP2 AND EQ DUP1 ISZERO SWAP1 PUSH2 0x43F JUMPI POP PUSH1 0x1 PUSH1 0x1 PUSH1 0xA0 SHL SUB DUP2 AND ISZERO ISZERO JUMPDEST DUP1 ISZERO PUSH2 0x4AA JUMPI POP PUSH2 0x4A6 DUP2 PUSH1 0x4 DUP1 SLOAD DUP1 PUSH1 0x20 MUL PUSH1 0x20 ADD PUSH1 0x40 MLOAD SWAP1 DUP2 ADD PUSH1 0x40 MSTORE DUP1 SWAP3 SWAP2 SWAP1 DUP2 DUP2 MSTORE PUSH1 0x20 ADD DUP3 DUP1 SLOAD DUP1 ISZERO PUSH2 0x3C7 JUMPI PUSH1 0x20 MUL DUP3 ADD SWAP2 SWAP1 PUSH0 MSTORE PUSH1 0x20 PUSH0 KECCAK256 SWAP1 DUP2 SLOAD PUSH1 0x1 PUSH1 0x1 PUSH1 0xA0 SHL SUB AND DUP2 MSTORE PUSH1 0x1 SWAP1 SWAP2 ADD SWAP1 PUSH1 0x20 ADD DUP1 DUP4 GT PUSH2 0x3A9 JUMPI POP POP POP POP POP PUSH2 0xA9D JUMP JUMPDEST PUSH0 NOT EQ JUMPDEST PUSH2 0x4C6 JUMPI PUSH1 0x40 MLOAD PUSH3 0x461BCD PUSH1 0xE5 SHL DUP2 MSTORE PUSH1 0x4 ADD PUSH2 0x214 SWAP1 PUSH2 0xEAB JUMP JUMPDEST PUSH1 0x4 DUP1 SLOAD PUSH1 0x1 DUP2 ADD DUP3 SSTORE PUSH0 SWAP2 SWAP1 SWAP2 MSTORE PUSH32 0x8A35ACFBC15FF81A39AE7D344FD709F28E8600B4AA8C65C6B64BFE7FE36BD19B ADD DUP1 SLOAD PUSH1 0x1 PUSH1 0x1 PUSH1 0xA0 SHL SUB NOT AND PUSH1 0x1 PUSH1 0x1 PUSH1 0xA0 SHL SUB SWAP3 SWAP1 SWAP3 AND SWAP2 SWAP1 SWAP2 OR SWAP1 SSTORE JUMP JUMPDEST PUSH1 0x2 SLOAD PUSH0 SWAP1 PUSH1 0x1 PUSH1 0x1 PUSH1 0xA0 SHL SUB AND CALLER EQ DUP1 PUSH2 0x53C JUMPI POP PUSH1 0x3 SLOAD PUSH1 0x1 PUSH1 0x1 PUSH1 0xA0 SHL SUB AND CALLER EQ JUMPDEST PUSH2 0x558 JUMPI PUSH1 0x40 MLOAD PUSH3 0x461BCD PUSH1 0xE5 SHL DUP2 MSTORE PUSH1 0x4 ADD PUSH2 0x214 SWAP1 PUSH2 0xEAB JUMP JUMPDEST POP PUSH1 0x3 SLOAD PUSH1 0x1 PUSH1 0x1 PUSH1 0xA0 SHL SUB AND SWAP1 JUMP JUMPDEST PUSH1 0x2 SLOAD PUSH1 0x60 SWAP1 PUSH1 0x1 PUSH1 0x1 PUSH1 0xA0 SHL SUB AND CALLER EQ DUP1 PUSH2 0x58E JUMPI POP PUSH1 0x3 SLOAD PUSH1 0x1 PUSH1 0x1 PUSH1 0xA0 SHL SUB AND CALLER EQ JUMPDEST PUSH2 0x5AA JUMPI PUSH1 0x40 MLOAD PUSH3 0x461BCD PUSH1 0xE5 SHL DUP2 MSTORE PUSH1 0x4 ADD PUSH2 0x214 SWAP1 PUSH2 0xEAB JUMP JUMPDEST PUSH1 0x4 DUP1 SLOAD DUP1 PUSH1 0x20 MUL PUSH1 0x20 ADD PUSH1 0x40 MLOAD SWAP1 DUP2 ADD PUSH1 0x40 MSTORE DUP1 SWAP3 SWAP2 SWAP1 DUP2 DUP2 MSTORE PUSH1 0x20 ADD DUP3 DUP1 SLOAD DUP1 ISZERO PUSH2 0x5FE JUMPI PUSH1 0x20 MUL DUP3 ADD SWAP2 SWAP1 PUSH0 MSTORE PUSH1 0x20 PUSH0 KECCAK256 SWAP1 JUMPDEST DUP2 SLOAD PUSH1 0x1 PUSH1 0x1 PUSH1 0xA0 SHL SUB AND DUP2 MSTORE PUSH1 0x1 SWAP1 SWAP2 ADD SWAP1 PUSH1 0x20 ADD DUP1 DUP4 GT PUSH2 0x5E0 JUMPI JUMPDEST POP POP POP POP POP SWAP1 POP SWAP1 JUMP JUMPDEST PUSH1 0x2 SLOAD PUSH0 SWAP1 PUSH1 0x1 PUSH1 0x1 PUSH1 0xA0 SHL SUB AND CALLER EQ DUP1 PUSH2 0x62D JUMPI POP PUSH1 0x3 SLOAD PUSH1 0x1 PUSH1 0x1 PUSH1 0xA0 SHL SUB AND CALLER EQ JUMPDEST SWAP1 POP SWAP1 JUMP JUMPDEST PUSH1 0x2 SLOAD PUSH1 0x60 SWAP1 DUP2 SWAP1 DUP2 SWAP1 PUSH0 SWAP1 DUP2 SWAP1 PUSH1 0x1 PUSH1 0x1 PUSH1 0xA0 SHL SUB AND CALLER EQ DUP1 PUSH2 0x6B6 JUMPI POP PUSH2 0x6B1 CALLER PUSH1 0x4 DUP1 SLOAD DUP1 PUSH1 0x20 MUL PUSH1 0x20 ADD PUSH1 0x40 MLOAD SWAP1 DUP2 ADD PUSH1 0x40 MSTORE DUP1 SWAP3 SWAP2 SWAP1 DUP2 DUP2 MSTORE PUSH1 0x20 ADD DUP3 DUP1 SLOAD DUP1 ISZERO PUSH2 0x3C7 JUMPI PUSH1 0x20 MUL DUP3 ADD SWAP2 SWAP1 PUSH0 MSTORE PUSH1 0x20 PUSH0 KECCAK256 SWAP1 DUP2 SLOAD PUSH1 0x1 PUSH1 0x1 PUSH1 0xA0 SHL SUB AND DUP2 MSTORE PUSH1 0x1 SWAP1 SWAP2 ADD SWAP1 PUSH1 0x20 ADD DUP1 DUP4 GT PUSH2 0x3A9 JUMPI POP POP POP POP POP PUSH2 0xA9D JUMP JUMPDEST PUSH0 NOT EQ ISZERO JUMPDEST PUSH2 0x6D2 JUMPI PUSH1 0x40 MLOAD PUSH3 0x461BCD PUSH1 0xE5 SHL DUP2 MSTORE PUSH1 0x4 ADD PUSH2 0x214 SWAP1 PUSH2 0xEAB JUMP JUMPDEST PUSH1 0x7 SLOAD PUSH0 DUP1 SLOAD SWAP1 SWAP2 PUSH1 0x5 SWAP2 PUSH1 0x6 SWAP2 PUSH2 0xFFFF DUP1 DUP3 AND SWAP3 PUSH3 0x10000 SWAP1 SWAP3 DIV AND SWAP1 DUP6 SWAP1 PUSH2 0x6FB SWAP1 PUSH2 0xEC8 JUMP JUMPDEST DUP1 PUSH1 0x1F ADD PUSH1 0x20 DUP1 SWAP2 DIV MUL PUSH1 0x20 ADD PUSH1 0x40 MLOAD SWAP1 DUP2 ADD PUSH1 0x40 MSTORE DUP1 SWAP3 SWAP2 SWAP1 DUP2 DUP2 MSTORE PUSH1 0x20 ADD DUP3 DUP1 SLOAD PUSH2 0x727 SWAP1 PUSH2 0xEC8 JUMP JUMPDEST DUP1 ISZERO PUSH2 0x772 JUMPI DUP1 PUSH1 0x1F LT PUSH2 0x749 JUMPI PUSH2 0x100 DUP1 DUP4 SLOAD DIV MUL DUP4 MSTORE SWAP2 PUSH1 0x20 ADD SWAP2 PUSH2 0x772 JUMP JUMPDEST DUP3 ADD SWAP2 SWAP1 PUSH0 MSTORE PUSH1 0x20 PUSH0 KECCAK256 SWAP1 JUMPDEST DUP2 SLOAD DUP2 MSTORE SWAP1 PUSH1 0x1 ADD SWAP1 PUSH1 0x20 ADD DUP1 DUP4 GT PUSH2 0x755 JUMPI DUP3 SWAP1 SUB PUSH1 0x1F AND DUP3 ADD SWAP2 JUMPDEST POP POP POP POP POP SWAP5 POP DUP4 DUP1 SLOAD PUSH2 0x785 SWAP1 PUSH2 0xEC8 JUMP JUMPDEST DUP1 PUSH1 0x1F ADD PUSH1 0x20 DUP1 SWAP2 DIV MUL PUSH1 0x20 ADD PUSH1 0x40 MLOAD SWAP1 DUP2 ADD PUSH1 0x40 MSTORE DUP1 SWAP3 SWAP2 SWAP1 DUP2 DUP2 MSTORE PUSH1 0x20 ADD DUP3 DUP1 SLOAD PUSH2 0x7B1 SWAP1 PUSH2 0xEC8 JUMP JUMPDEST DUP1 ISZERO PUSH2 0x7FC JUMPI DUP1 PUSH1 0x1F LT PUSH2 0x7D3 JUMPI PUSH2 0x100 DUP1 DUP4 SLOAD DIV MUL DUP4 MSTORE SWAP2 PUSH1 0x20 ADD SWAP2 PUSH2 0x7FC JUMP JUMPDEST DUP3 ADD SWAP2 SWAP1 PUSH0 MSTORE PUSH1 0x20 PUSH0 KECCAK256 SWAP1 JUMPDEST DUP2 SLOAD DUP2 MSTORE SWAP1 PUSH1 0x1 ADD SWAP1 PUSH1 0x20 ADD DUP1 DUP4 GT PUSH2 0x7DF JUMPI DUP3 SWAP1 SUB PUSH1 0x1F AND DUP3 ADD SWAP2 JUMPDEST POP POP POP POP POP SWAP4 POP DUP3 DUP1 SLOAD PUSH2 0x80F SWAP1 PUSH2 0xEC8 JUMP JUMPDEST DUP1 PUSH1 0x1F ADD PUSH1 0x20 DUP1 SWAP2 DIV MUL PUSH1 0x20 ADD PUSH1 0x40 MLOAD SWAP1 DUP2 ADD PUSH1 0x40 MSTORE DUP1 SWAP3 SWAP2 SWAP1 DUP2 DUP2 MSTORE PUSH1 0x20 ADD DUP3 DUP1 SLOAD PUSH2 0x83B SWAP1 PUSH2 0xEC8 JUMP JUMPDEST DUP1 ISZERO PUSH2 0x886 JUMPI DUP1 PUSH1 0x1F LT PUSH2 0x85D JUMPI PUSH2 0x100 DUP1 DUP4 SLOAD DIV MUL DUP4 MSTORE SWAP2 PUSH1 0x20 ADD SWAP2 PUSH2 0x886 JUMP JUMPDEST DUP3 ADD SWAP2 SWAP1 PUSH0 MSTORE PUSH1 0x20 PUSH0 KECCAK256 SWAP1 JUMPDEST DUP2 SLOAD DUP2 MSTORE SWAP1 PUSH1 0x1 ADD SWAP1 PUSH1 0x20 ADD DUP1 DUP4 GT PUSH2 0x869 JUMPI DUP3 SWAP1 SUB PUSH1 0x1F AND DUP3 ADD SWAP2 JUMPDEST POP POP POP POP POP SWAP3 POP SWAP5 POP SWAP5 POP SWAP5 POP SWAP5 POP SWAP5 POP SWAP1 SWAP2 SWAP3 SWAP4 SWAP5 JUMP JUMPDEST PUSH1 0x2 SLOAD PUSH1 0x1 PUSH1 0x1 PUSH1 0xA0 SHL SUB AND CALLER EQ DUP1 PUSH2 0x8C1 JUMPI POP PUSH1 0x3 SLOAD PUSH1 0x1 PUSH1 0x1 PUSH1 0xA0 SHL SUB AND CALLER EQ JUMPDEST PUSH2 0x8DD JUMPI PUSH1 0x40 MLOAD PUSH3 0x461BCD PUSH1 0xE5 SHL DUP2 MSTORE PUSH1 0x4 ADD PUSH2 0x214 SWAP1 PUSH2 0xEAB JUMP JUMPDEST PUSH1 0x7 DUP1 SLOAD PUSH4 0xFFFF0000 NOT AND PUSH3 0x10000 PUSH2 0xFFFF DUP5 AND MUL OR SWAP1 SSTORE PUSH1 0x40 MLOAD PUSH0 DUP1 MLOAD PUSH1 0x20 PUSH2 0x1086 DUP4 CODECOPY DUP2 MLOAD SWAP2 MSTORE SWAP1 PUSH2 0x246 SWAP1 CALLER SWAP1 PUSH2 0xDC5 JUMP JUMPDEST PUSH1 0x2 SLOAD PUSH1 0x1 PUSH1 0x1 PUSH1 0xA0 SHL SUB AND CALLER EQ DUP1 PUSH2 0x935 JUMPI POP PUSH1 0x3 SLOAD PUSH1 0x1 PUSH1 0x1 PUSH1 0xA0 SHL SUB AND CALLER EQ JUMPDEST PUSH2 0x951 JUMPI PUSH1 0x40 MLOAD PUSH3 0x461BCD PUSH1 0xE5 SHL DUP2 MSTORE PUSH1 0x4 ADD PUSH2 0x214 SWAP1 PUSH2 0xEAB JUMP JUMPDEST PUSH0 PUSH2 0x229 DUP3 DUP3 PUSH2 0xF4C JUMP JUMPDEST PUSH1 0x1 PUSH1 0x1 PUSH1 0xA0 SHL SUB DUP2 AND ISZERO ISZERO DUP1 PUSH2 0x9A4 JUMPI POP PUSH1 0x3 SLOAD PUSH1 0x1 PUSH1 0x1 PUSH1 0xA0 SHL SUB AND CALLER EQ DUP1 PUSH2 0x991 JUMPI POP PUSH1 0x2 SLOAD PUSH1 0x1 PUSH1 0x1 PUSH1 0xA0 SHL SUB AND CALLER EQ JUMPDEST DUP1 PUSH2 0x9A4 JUMPI POP CALLER PUSH1 0x1 PUSH1 0x1 PUSH1 0xA0 SHL SUB DUP3 AND EQ JUMPDEST PUSH2 0x9C0 JUMPI PUSH1 0x40 MLOAD PUSH3 0x461BCD PUSH1 0xE5 SHL DUP2 MSTORE PUSH1 0x4 ADD PUSH2 0x214 SWAP1 PUSH2 0xEAB JUMP JUMPDEST PUSH0 PUSH2 0xA21 DUP3 PUSH1 0x4 DUP1 SLOAD DUP1 PUSH1 0x20 MUL PUSH1 0x20 ADD PUSH1 0x40 MLOAD SWAP1 DUP2 ADD PUSH1 0x40 MSTORE DUP1 SWAP3 SWAP2 SWAP1 DUP2 DUP2 MSTORE PUSH1 0x20 ADD DUP3 DUP1 SLOAD DUP1 ISZERO PUSH2 0x3C7 JUMPI PUSH1 0x20 MUL DUP3 ADD SWAP2 SWAP1 PUSH0 MSTORE PUSH1 0x20 PUSH0 KECCAK256 SWAP1 DUP2 SLOAD PUSH1 0x1 PUSH1 0x1 PUSH1 0xA0 SHL SUB AND DUP2 MSTORE PUSH1 0x1 SWAP1 SWAP2 ADD SWAP1 PUSH1 0x20 ADD DUP1 DUP4 GT PUSH2 0x3A9 JUMPI POP POP POP POP POP PUSH2 0xA9D JUMP JUMPDEST SWAP1 POP PUSH0 NOT DUP2 SGT PUSH2 0xA43 JUMPI PUSH1 0x40 MLOAD PUSH3 0x461BCD PUSH1 0xE5 SHL DUP2 MSTORE PUSH1 0x4 ADD PUSH2 0x214 SWAP1 PUSH2 0x1006 JUMP JUMPDEST PUSH2 0xA4E DUP2 PUSH1 0x4 PUSH2 0xAF6 JUMP JUMPDEST POP POP JUMP JUMPDEST PUSH1 0x2 SLOAD PUSH1 0x1 PUSH1 0x1 PUSH1 0xA0 SHL SUB AND CALLER EQ DUP1 PUSH2 0xA75 JUMPI POP PUSH1 0x3 SLOAD PUSH1 0x1 PUSH1 0x1 PUSH1 0xA0 SHL SUB AND CALLER EQ JUMPDEST PUSH2 0xA91 JUMPI PUSH1 0x40 MLOAD PUSH3 0x461BCD PUSH1 0xE5 SHL DUP2 MSTORE PUSH1 0x4 ADD PUSH2 0x214 SWAP1 PUSH2 0xEAB JUMP JUMPDEST PUSH1 0x5 PUSH2 0x229 DUP3 DUP3 PUSH2 0xF4C JUMP JUMPDEST PUSH0 DUP1 JUMPDEST DUP3 MLOAD DUP2 LT ISZERO PUSH2 0xAEA JUMPI DUP4 PUSH1 0x1 PUSH1 0x1 PUSH1 0xA0 SHL SUB AND DUP4 DUP3 DUP2 MLOAD DUP2 LT PUSH2 0xAC5 JUMPI PUSH2 0xAC5 PUSH2 0x1023 JUMP JUMPDEST PUSH1 0x20 MUL PUSH1 0x20 ADD ADD MLOAD PUSH1 0x1 PUSH1 0x1 PUSH1 0xA0 SHL SUB AND SUB PUSH2 0xAE2 JUMPI SWAP1 POP PUSH2 0xAF0 JUMP JUMPDEST PUSH1 0x1 ADD PUSH2 0xAA0 JUMP JUMPDEST POP PUSH0 NOT SWAP1 POP JUMPDEST SWAP3 SWAP2 POP POP JUMP JUMPDEST PUSH0 DUP3 SLT ISZERO DUP1 ISZERO PUSH2 0xB06 JUMPI POP DUP1 SLOAD DUP3 LT JUMPDEST PUSH2 0xB22 JUMPI PUSH1 0x40 MLOAD PUSH3 0x461BCD PUSH1 0xE5 SHL DUP2 MSTORE PUSH1 0x4 ADD PUSH2 0x214 SWAP1 PUSH2 0x1006 JUMP JUMPDEST DUP2 JUMPDEST DUP2 SLOAD PUSH2 0xB32 SWAP1 PUSH1 0x1 SWAP1 PUSH2 0x104B JUMP JUMPDEST DUP2 LT ISZERO PUSH2 0xBB2 JUMPI DUP2 PUSH2 0xB45 DUP3 PUSH1 0x1 PUSH2 0x105E JUMP JUMPDEST DUP2 SLOAD DUP2 LT PUSH2 0xB55 JUMPI PUSH2 0xB55 PUSH2 0x1023 JUMP JUMPDEST SWAP1 PUSH0 MSTORE PUSH1 0x20 PUSH0 KECCAK256 ADD PUSH0 SWAP1 SLOAD SWAP1 PUSH2 0x100 EXP SWAP1 DIV PUSH1 0x1 PUSH1 0x1 PUSH1 0xA0 SHL SUB AND DUP3 DUP3 DUP2 SLOAD DUP2 LT PUSH2 0xB82 JUMPI PUSH2 0xB82 PUSH2 0x1023 JUMP JUMPDEST PUSH0 SWAP2 DUP3 MSTORE PUSH1 0x20 SWAP1 SWAP2 KECCAK256 ADD DUP1 SLOAD PUSH1 0x1 PUSH1 0x1 PUSH1 0xA0 SHL SUB NOT AND PUSH1 0x1 PUSH1 0x1 PUSH1 0xA0 SHL SUB SWAP3 SWAP1 SWAP3 AND SWAP2 SWAP1 SWAP2 OR SWAP1 SSTORE PUSH1 0x1 ADD PUSH2 0xB24 JUMP JUMPDEST POP DUP1 DUP1 SLOAD DUP1 PUSH2 0xBC3 JUMPI PUSH2 0xBC3 PUSH2 0x1071 JUMP JUMPDEST PUSH0 DUP3 DUP2 MSTORE PUSH1 0x20 SWAP1 KECCAK256 DUP2 ADD PUSH0 NOT SWAP1 DUP2 ADD DUP1 SLOAD PUSH1 0x1 PUSH1 0x1 PUSH1 0xA0 SHL SUB NOT AND SWAP1 SSTORE ADD SWAP1 SSTORE POP POP JUMP JUMPDEST PUSH4 0x4E487B71 PUSH1 0xE0 SHL PUSH0 MSTORE PUSH1 0x41 PUSH1 0x4 MSTORE PUSH1 0x24 PUSH0 REVERT JUMPDEST PUSH0 DUP3 PUSH1 0x1F DUP4 ADD SLT PUSH2 0xC0A JUMPI PUSH0 DUP1 REVERT JUMPDEST DUP2 CALLDATALOAD PUSH1 0x1 PUSH1 0x1 PUSH1 0x40 SHL SUB DUP2 GT ISZERO PUSH2 0xC23 JUMPI PUSH2 0xC23 PUSH2 0xBE7 JUMP JUMPDEST PUSH1 0x40 MLOAD PUSH1 0x1F DUP3 ADD PUSH1 0x1F NOT SWAP1 DUP2 AND PUSH1 0x3F ADD AND DUP2 ADD PUSH1 0x1 PUSH1 0x1 PUSH1 0x40 SHL SUB DUP2 GT DUP3 DUP3 LT OR ISZERO PUSH2 0xC51 JUMPI PUSH2 0xC51 PUSH2 0xBE7 JUMP JUMPDEST PUSH1 0x40 MSTORE DUP2 DUP2 MSTORE DUP4 DUP3 ADD PUSH1 0x20 ADD DUP6 LT ISZERO PUSH2 0xC68 JUMPI PUSH0 DUP1 REVERT JUMPDEST DUP2 PUSH1 0x20 DUP6 ADD PUSH1 0x20 DUP4 ADD CALLDATACOPY PUSH0 SWAP2 DUP2 ADD PUSH1 0x20 ADD SWAP2 SWAP1 SWAP2 MSTORE SWAP4 SWAP3 POP POP POP JUMP JUMPDEST PUSH0 PUSH1 0x20 DUP3 DUP5 SUB SLT ISZERO PUSH2 0xC94 JUMPI PUSH0 DUP1 REVERT JUMPDEST DUP2 CALLDATALOAD PUSH1 0x1 PUSH1 0x1 PUSH1 0x40 SHL SUB DUP2 GT ISZERO PUSH2 0xCA9 JUMPI PUSH0 DUP1 REVERT JUMPDEST PUSH2 0xCB5 DUP5 DUP3 DUP6 ADD PUSH2 0xBFB JUMP JUMPDEST SWAP5 SWAP4 POP POP POP POP JUMP JUMPDEST DUP1 CALLDATALOAD PUSH2 0xFFFF DUP2 AND DUP2 EQ PUSH2 0xCCE JUMPI PUSH0 DUP1 REVERT JUMPDEST SWAP2 SWAP1 POP JUMP JUMPDEST PUSH0 PUSH1 0x20 DUP3 DUP5 SUB SLT ISZERO PUSH2 0xCE3 JUMPI PUSH0 DUP1 REVERT JUMPDEST PUSH2 0xCEC DUP3 PUSH2 0xCBD JUMP JUMPDEST SWAP4 SWAP3 POP POP POP JUMP JUMPDEST PUSH0 DUP1 PUSH0 DUP1 PUSH0 PUSH1 0xA0 DUP7 DUP9 SUB SLT ISZERO PUSH2 0xD07 JUMPI PUSH0 DUP1 REVERT JUMPDEST DUP6 CALLDATALOAD PUSH1 0x1 PUSH1 0x1 PUSH1 0x40 SHL SUB DUP2 GT ISZERO PUSH2 0xD1C JUMPI PUSH0 DUP1 REVERT JUMPDEST PUSH2 0xD28 DUP9 DUP3 DUP10 ADD PUSH2 0xBFB JUMP JUMPDEST SWAP6 POP POP PUSH1 0x20 DUP7 ADD CALLDATALOAD PUSH1 0x1 PUSH1 0x1 PUSH1 0x40 SHL SUB DUP2 GT ISZERO PUSH2 0xD43 JUMPI PUSH0 DUP1 REVERT JUMPDEST PUSH2 0xD4F DUP9 DUP3 DUP10 ADD PUSH2 0xBFB JUMP JUMPDEST SWAP5 POP POP PUSH1 0x40 DUP7 ADD CALLDATALOAD PUSH1 0x1 PUSH1 0x1 PUSH1 0x40 SHL SUB DUP2 GT ISZERO PUSH2 0xD6A JUMPI PUSH0 DUP1 REVERT JUMPDEST PUSH2 0xD76 DUP9 DUP3 DUP10 ADD PUSH2 0xBFB JUMP JUMPDEST SWAP4 POP POP PUSH2 0xD85 PUSH1 0x60 DUP8 ADD PUSH2 0xCBD JUMP JUMPDEST SWAP2 POP PUSH2 0xD93 PUSH1 0x80 DUP8 ADD PUSH2 0xCBD JUMP JUMPDEST SWAP1 POP SWAP3 SWAP6 POP SWAP3 SWAP6 SWAP1 SWAP4 POP JUMP JUMPDEST PUSH0 PUSH1 0x20 DUP3 DUP5 SUB SLT ISZERO PUSH2 0xDAF JUMPI PUSH0 DUP1 REVERT JUMPDEST DUP2 CALLDATALOAD PUSH1 0x1 PUSH1 0x1 PUSH1 0xA0 SHL SUB DUP2 AND DUP2 EQ PUSH2 0xCEC JUMPI PUSH0 DUP1 REVERT JUMPDEST PUSH1 0x1 PUSH1 0x1 PUSH1 0xA0 SHL SUB SWAP2 SWAP1 SWAP2 AND DUP2 MSTORE PUSH1 0x20 ADD SWAP1 JUMP JUMPDEST PUSH1 0x20 DUP1 DUP3 MSTORE DUP3 MLOAD DUP3 DUP3 ADD DUP2 SWAP1 MSTORE PUSH0 SWAP2 DUP5 ADD SWAP1 PUSH1 0x40 DUP5 ADD SWAP1 DUP4 JUMPDEST DUP2 DUP2 LT ISZERO PUSH2 0xE19 JUMPI DUP4 MLOAD PUSH1 0x1 PUSH1 0x1 PUSH1 0xA0 SHL SUB AND DUP4 MSTORE PUSH1 0x20 SWAP4 DUP5 ADD SWAP4 SWAP1 SWAP3 ADD SWAP2 PUSH1 0x1 ADD PUSH2 0xDF2 JUMP JUMPDEST POP SWAP1 SWAP6 SWAP5 POP POP POP POP POP JUMP JUMPDEST PUSH0 DUP2 MLOAD DUP1 DUP5 MSTORE DUP1 PUSH1 0x20 DUP5 ADD PUSH1 0x20 DUP7 ADD MCOPY PUSH0 PUSH1 0x20 DUP3 DUP7 ADD ADD MSTORE PUSH1 0x20 PUSH1 0x1F NOT PUSH1 0x1F DUP4 ADD AND DUP6 ADD ADD SWAP2 POP POP SWAP3 SWAP2 POP POP JUMP JUMPDEST PUSH1 0xA0 DUP2 MSTORE PUSH0 PUSH2 0xE64 PUSH1 0xA0 DUP4 ADD DUP9 PUSH2 0xE24 JUMP JUMPDEST DUP3 DUP2 SUB PUSH1 0x20 DUP5 ADD MSTORE PUSH2 0xE76 DUP2 DUP9 PUSH2 0xE24 JUMP JUMPDEST SWAP1 POP DUP3 DUP2 SUB PUSH1 0x40 DUP5 ADD MSTORE PUSH2 0xE8A DUP2 DUP8 PUSH2 0xE24 JUMP JUMPDEST SWAP2 POP POP PUSH2 0xFFFF DUP5 AND PUSH1 0x60 DUP4 ADD MSTORE PUSH2 0xFFFF DUP4 AND PUSH1 0x80 DUP4 ADD MSTORE SWAP7 SWAP6 POP POP POP POP POP POP JUMP JUMPDEST PUSH1 0x20 DUP1 DUP3 MSTORE PUSH1 0x3 SWAP1 DUP3 ADD MSTORE PUSH3 0x343033 PUSH1 0xE8 SHL PUSH1 0x40 DUP3 ADD MSTORE PUSH1 0x60 ADD SWAP1 JUMP JUMPDEST PUSH1 0x1 DUP2 DUP2 SHR SWAP1 DUP3 AND DUP1 PUSH2 0xEDC JUMPI PUSH1 0x7F DUP3 AND SWAP2 POP JUMPDEST PUSH1 0x20 DUP3 LT DUP2 SUB PUSH2 0xEFA JUMPI PUSH4 0x4E487B71 PUSH1 0xE0 SHL PUSH0 MSTORE PUSH1 0x22 PUSH1 0x4 MSTORE PUSH1 0x24 PUSH0 REVERT JUMPDEST POP SWAP2 SWAP1 POP JUMP JUMPDEST PUSH1 0x1F DUP3 GT ISZERO PUSH2 0xF47 JUMPI DUP1 PUSH0 MSTORE PUSH1 0x20 PUSH0 KECCAK256 PUSH1 0x1F DUP5 ADD PUSH1 0x5 SHR DUP2 ADD PUSH1 0x20 DUP6 LT ISZERO PUSH2 0xF25 JUMPI POP DUP1 JUMPDEST PUSH1 0x1F DUP5 ADD PUSH1 0x5 SHR DUP3 ADD SWAP2 POP JUMPDEST DUP2 DUP2 LT ISZERO PUSH2 0xF44 JUMPI PUSH0 DUP2 SSTORE PUSH1 0x1 ADD PUSH2 0xF31 JUMP JUMPDEST POP POP JUMPDEST POP POP POP JUMP JUMPDEST DUP2 MLOAD PUSH1 0x1 PUSH1 0x1 PUSH1 0x40 SHL SUB DUP2 GT ISZERO PUSH2 0xF65 JUMPI PUSH2 0xF65 PUSH2 0xBE7 JUMP JUMPDEST PUSH2 0xF79 DUP2 PUSH2 0xF73 DUP5 SLOAD PUSH2 0xEC8 JUMP JUMPDEST DUP5 PUSH2 0xF00 JUMP JUMPDEST PUSH1 0x20 PUSH1 0x1F DUP3 GT PUSH1 0x1 DUP2 EQ PUSH2 0xFAB JUMPI PUSH0 DUP4 ISZERO PUSH2 0xF94 JUMPI POP DUP5 DUP3 ADD MLOAD JUMPDEST PUSH0 NOT PUSH1 0x3 DUP6 SWAP1 SHL SHR NOT AND PUSH1 0x1 DUP5 SWAP1 SHL OR DUP5 SSTORE PUSH2 0xF44 JUMP JUMPDEST PUSH0 DUP5 DUP2 MSTORE PUSH1 0x20 DUP2 KECCAK256 PUSH1 0x1F NOT DUP6 AND SWAP2 JUMPDEST DUP3 DUP2 LT ISZERO PUSH2 0xFDA JUMPI DUP8 DUP6 ADD MLOAD DUP3 SSTORE PUSH1 0x20 SWAP5 DUP6 ADD SWAP5 PUSH1 0x1 SWAP1 SWAP3 ADD SWAP2 ADD PUSH2 0xFBA JUMP JUMPDEST POP DUP5 DUP3 LT ISZERO PUSH2 0xFF7 JUMPI DUP7 DUP5 ADD MLOAD PUSH0 NOT PUSH1 0x3 DUP8 SWAP1 SHL PUSH1 0xF8 AND SHR NOT AND DUP2 SSTORE JUMPDEST POP POP POP POP PUSH1 0x1 SWAP1 DUP2 SHL ADD SWAP1 SSTORE POP JUMP JUMPDEST PUSH1 0x20 DUP1 DUP3 MSTORE PUSH1 0x3 SWAP1 DUP3 ADD MSTORE PUSH3 0xD0C0D PUSH1 0xEA SHL PUSH1 0x40 DUP3 ADD MSTORE PUSH1 0x60 ADD SWAP1 JUMP JUMPDEST PUSH4 0x4E487B71 PUSH1 0xE0 SHL PUSH0 MSTORE PUSH1 0x32 PUSH1 0x4 MSTORE PUSH1 0x24 PUSH0 REVERT JUMPDEST PUSH4 0x4E487B71 PUSH1 0xE0 SHL PUSH0 MSTORE PUSH1 0x11 PUSH1 0x4 MSTORE PUSH1 0x24 PUSH0 REVERT JUMPDEST DUP2 DUP2 SUB DUP2 DUP2 GT ISZERO PUSH2 0xAF0 JUMPI PUSH2 0xAF0 PUSH2 0x1037 JUMP JUMPDEST DUP1 DUP3 ADD DUP1 DUP3 GT ISZERO PUSH2 0xAF0 JUMPI PUSH2 0xAF0 PUSH2 0x1037 JUMP JUMPDEST PUSH4 0x4E487B71 PUSH1 0xE0 SHL PUSH0 MSTORE PUSH1 0x31 PUSH1 0x4 MSTORE PUSH1 0x24 PUSH0 REVERT INVALID 0xE0 0xD LOG2 OR DUP9 MOD RETURN PUSH32 0x69815E9ED5ED3072EC1D55206D60916D99B469C7DAA421E4A264697066735822 SLT KECCAK256 PUSH10 0x99E53B8A564EFBF4ADD3 PUSH15 0xB4F82D471C4DBC14260DD7C09CDA1C BALANCE DUP2 LOG0 OR 0x2C PUSH5 0x736F6C6343 STOP ADDMOD BYTE STOP CALLER "
		},
		"gasEstimates": {
			"creation": {
				"codeDepositCost": "863000",
				"executionCost": "infinite",
				"totalCost": "infinite"
			},
			"external": {
				"expose()": "infinite",
				"getParent()": "6771",
				"getSharedWith()": "infinite",
				"isOwn()": "4644",
				"isSharedWith()": "infinite",
				"item_type()": "2283",
				"restictFrom(address)": "infinite",
				"setCardId(string)": "infinite",
				"setCvv(uint16)": "infinite",
				"setExpireAt(uint16)": "infinite",
				"setItem(string,string,string,uint16,uint16)": "infinite",
				"setName(string)": "infinite",
				"setNameOnCard(string)": "infinite",
				"shareWith(address)": "infinite"
			}
		},
		"methodIdentifiers": {
			"expose()": "ba379e86",
			"getParent()": "80f76021",
			"getSharedWith()": "a95264d0",
			"isOwn()": "b9daf3e2",
			"isSharedWith()": "4ba83374",
			"item_type()": "26c7b327",
			"restictFrom(address)": "ded92dac",
			"setCardId(string)": "efd8af9f",
			"setCvv(uint16)": "c40da770",
			"setExpireAt(uint16)": "40aa5c71",
			"setItem(string,string,string,uint16,uint16)": "478e5cb3",
			"setName(string)": "c47f0027",
			"setNameOnCard(string)": "0dbef92c",
			"shareWith(address)": "5da6ef8d"
		}
	},
	"abi": [
		{
			"inputs": [
				{
					"internalType": "string",
					"name": "_name",
					"type": "string"
				},
				{
					"internalType": "string",
					"name": "_card_id",
					"type": "string"
				},
				{
					"internalType": "string",
					"name": "_name_on_card",
					"type": "string"
				},
				{
					"internalType": "uint16",
					"name": "_expire_at",
					"type": "uint16"
				},
				{
					"internalType": "uint16",
					"name": "_cvv",
					"type": "uint16"
				},
				{
					"internalType": "address",
					"name": "_owner",
					"type": "address"
				},
				{
					"internalType": "address",
					"name": "_parent",
					"type": "address"
				}
			],
			"stateMutability": "nonpayable",
			"type": "constructor"
		},
		{
			"anonymous": false,
			"inputs": [
				{
					"indexed": false,
					"internalType": "address",
					"name": "",
					"type": "address"
				}
			],
			"name": "Created",
			"type": "event"
		},
		{
			"anonymous": false,
			"inputs": [
				{
					"indexed": false,
					"internalType": "address",
					"name": "",
					"type": "address"
				}
			],
			"name": "Updated",
			"type": "event"
		},
		{
			"inputs": [],
			"name": "expose",
			"outputs": [
				{
					"internalType": "string",
					"name": "",
					"type": "string"
				},
				{
					"internalType": "string",
					"name": "",
					"type": "string"
				},
				{
					"internalType": "string",
					"name": "",
					"type": "string"
				},
				{
					"internalType": "uint16",
					"name": "",
					"type": "uint16"
				},
				{
					"internalType": "uint16",
					"name": "",
					"type": "uint16"
				}
			],
			"stateMutability": "view",
			"type": "function"
		},
		{
			"inputs": [],
			"name": "getParent",
			"outputs": [
				{
					"internalType": "address",
					"name": "",
					"type": "address"
				}
			],
			"stateMutability": "view",
			"type": "function"
		},
		{
			"inputs": [],
			"name": "getSharedWith",
			"outputs": [
				{
					"internalType": "address[]",
					"name": "",
					"type": "address[]"
				}
			],
			"stateMutability": "view",
			"type": "function"
		},
		{
			"inputs": [],
			"name": "isOwn",
			"outputs": [
				{
					"internalType": "bool",
					"name": "",
					"type": "bool"
				}
			],
			"stateMutability": "view",
			"type": "function"
		},
		{
			"inputs": [],
			"name": "isSharedWith",
			"outputs": [
				{
					"internalType": "bool",
					"name": "",
					"type": "bool"
				}
			],
			"stateMutability": "view",
			"type": "function"
		},
		{
			"inputs": [],
			"name": "item_type",
			"outputs": [
				{
					"internalType": "uint256",
					"name": "",
					"type": "uint256"
				}
			],
			"stateMutability": "view",
			"type": "function"
		},
		{
			"inputs": [
				{
					"internalType": "address",
					"name": "_f",
					"type": "address"
				}
			],
			"name": "restictFrom",
			"outputs": [],
			"stateMutability": "nonpayable",
			"type": "function"
		},
		{
			"inputs": [
				{
					"internalType": "string",
					"name": "_card_id",
					"type": "string"
				}
			],
			"name": "setCardId",
			"outputs": [],
			"stateMutability": "nonpayable",
			"type": "function"
		},
		{
			"inputs": [
				{
					"internalType": "uint16",
					"name": "_cvv",
					"type": "uint16"
				}
			],
			"name": "setCvv",
			"outputs": [],
			"stateMutability": "nonpayable",
			"type": "function"
		},
		{
			"inputs": [
				{
					"internalType": "uint16",
					"name": "_expire_at",
					"type": "uint16"
				}
			],
			"name": "setExpireAt",
			"outputs": [],
			"stateMutability": "nonpayable",
			"type": "function"
		},
		{
			"inputs": [
				{
					"internalType": "string",
					"name": "_n",
					"type": "string"
				},
				{
					"internalType": "string",
					"name": "_c_id",
					"type": "string"
				},
				{
					"internalType": "string",
					"name": "_noc",
					"type": "string"
				},
				{
					"internalType": "uint16",
					"name": "_e_at",
					"type": "uint16"
				},
				{
					"internalType": "uint16",
					"name": "_cvv",
					"type": "uint16"
				}
			],
			"name": "setItem",
			"outputs": [],
			"stateMutability": "nonpayable",
			"type": "function"
		},
		{
			"inputs": [
				{
					"internalType": "string",
					"name": "_n",
					"type": "string"
				}
			],
			"name": "setName",
			"outputs": [],
			"stateMutability": "nonpayable",
			"type": "function"
		},
		{
			"inputs": [
				{
					"internalType": "string",
					"name": "_name_on_card",
					"type": "string"
				}
			],
			"name": "setNameOnCard",
			"outputs": [],
			"stateMutability": "nonpayable",
			"type": "function"
		},
		{
			"inputs": [
				{
					"internalType": "address",
					"name": "_w",
					"type": "address"
				}
			],
			"name": "shareWith",
			"outputs": [],
			"stateMutability": "nonpayable",
			"type": "function"
		}
	]
}