{
	"data": {
		"bytecode": {
			"linkReferences": {},
			"object": "608060405234801561000f575f80fd5b5060405161278838038061278883398181016040528101906100319190610368565b835f8383835f90816100439190610611565b508260015f6101000a81548160ff02191690836003811115610068576100676106e0565b5b0217905550816001806101000a81548173ffffffffffffffffffffffffffffffffffffffff021916908373ffffffffffffffffffffffffffffffffffffffff1602179055508060025f6101000a81548173ffffffffffffffffffffffffffffffffffffffff021916908373ffffffffffffffffffffffffffffffffffffffff1602179055505050505082600490816101009190610611565b50816001806101000a81548173ffffffffffffffffffffffffffffffffffffffff021916908373ffffffffffffffffffffffffffffffffffffffff1602179055508060025f6101000a81548173ffffffffffffffffffffffffffffffffffffffff021916908373ffffffffffffffffffffffffffffffffffffffff1602179055507f1449abf21e49fd025f33495e77f7b1461caefdd3d4bb646424a3f445c4576a5b336040516101b0919061071c565b60405180910390a150505050610735565b5f604051905090565b5f80fd5b5f80fd5b5f80fd5b5f80fd5b5f601f19601f8301169050919050565b7f4e487b71000000000000000000000000000000000000000000000000000000005f52604160045260245ffd5b610220826101da565b810181811067ffffffffffffffff8211171561023f5761023e6101ea565b5b80604052505050565b5f6102516101c1565b905061025d8282610217565b919050565b5f67ffffffffffffffff82111561027c5761027b6101ea565b5b610285826101da565b9050602081019050919050565b8281835e5f83830152505050565b5f6102b26102ad84610262565b610248565b9050828152602081018484840111156102ce576102cd6101d6565b5b6102d9848285610292565b509392505050565b5f82601f8301126102f5576102f46101d2565b5b81516103058482602086016102a0565b91505092915050565b5f73ffffffffffffffffffffffffffffffffffffffff82169050919050565b5f6103378261030e565b9050919050565b6103478161032d565b8114610351575f80fd5b50565b5f815190506103628161033e565b92915050565b5f805f80608085870312156103805761037f6101ca565b5b5f85015167ffffffffffffffff81111561039d5761039c6101ce565b5b6103a9878288016102e1565b945050602085015167ffffffffffffffff8111156103ca576103c96101ce565b5b6103d6878288016102e1565b93505060406103e787828801610354565b92505060606103f887828801610354565b91505092959194509250565b5f81519050919050565b7f4e487b71000000000000000000000000000000000000000000000000000000005f52602260045260245ffd5b5f600282049050600182168061045257607f821691505b6020821081036104655761046461040e565b5b50919050565b5f819050815f5260205f209050919050565b5f6020601f8301049050919050565b5f82821b905092915050565b5f600883026104c77fffffffffffffffffffffffffffffffffffffffffffffffffffffffffffffffff8261048c565b6104d1868361048c565b95508019841693508086168417925050509392505050565b5f819050919050565b5f819050919050565b5f61051561051061050b846104e9565b6104f2565b6104e9565b9050919050565b5f819050919050565b61052e836104fb565b61054261053a8261051c565b848454610498565b825550505050565b5f90565b61055661054a565b610561818484610525565b505050565b5b81811015610584576105795f8261054e565b600181019050610567565b5050565b601f8211156105c95761059a8161046b565b6105a38461047d565b810160208510156105b2578190505b6105c66105be8561047d565b830182610566565b50505b505050565b5f82821c905092915050565b5f6105e95f19846008026105ce565b1980831691505092915050565b5f61060183836105da565b9150826002028217905092915050565b61061a82610404565b67ffffffffffffffff811115610633576106326101ea565b5b61063d825461043b565b610648828285610588565b5f60209050601f831160018114610679575f8415610667578287015190505b61067185826105f6565b8655506106d8565b601f1984166106878661046b565b5f5b828110156106ae57848901518255600182019150602085019450602081019050610689565b868310156106cb57848901516106c7601f8916826105da565b8355505b6001600288020188555050505b505050505050565b7f4e487b71000000000000000000000000000000000000000000000000000000005f52602160045260245ffd5b6107168161032d565b82525050565b5f60208201905061072f5f83018461070d565b92915050565b612046806107425f395ff3fe608060405234801561000f575f80fd5b50600436106100b2575f3560e01c8063a95264d01161006f578063a95264d014610164578063b9daf3e214610182578063ba379e86146101a0578063c47f0027146101bf578063ded92dac146101db578063efd8af9f146101f7576100b2565b80631499c592146100b65780632858d3c8146100d25780634ba83374146100f05780635da6ef8d1461010e5780637a4c982e1461012a57806380f7602114610146575b5f80fd5b6100d060048036038101906100cb91906115d2565b610213565b005b6100da610372565b6040516100e79190611670565b60405180910390f35b6100f861046c565b60405161010591906116a3565b60405180910390f35b610128600480360381019061012391906115d2565b610522565b005b610144600480360381019061013f91906117f8565b6107e8565b005b61014e610927565b60405161015b919061187d565b60405180910390f35b61016c610a34565b604051610179919061194d565b60405180910390f35b61018a610ba4565b60405161019791906116a3565b60405180910390f35b6101a8610c50565b6040516101b69291906119cd565b60405180910390f35b6101d960048036038101906101d49190611a02565b610eb7565b005b6101f560048036038101906101f091906115d2565b610fe5565b005b610211600480360381019061020c9190611a02565b611238565b005b60018054906101000a900473ffffffffffffffffffffffffffffffffffffffff1673ffffffffffffffffffffffffffffffffffffffff163373ffffffffffffffffffffffffffffffffffffffff1614806102b9575060025f9054906101000a900473ffffffffffffffffffffffffffffffffffffffff1673ffffffffffffffffffffffffffffffffffffffff163373ffffffffffffffffffffffffffffffffffffffff16145b6102f8576040517f08c379a00000000000000000000000000000000000000000000000000000000081526004016102ef90611a93565b60405180910390fd5b8060025f6101000a81548173ffffffffffffffffffffffffffffffffffffffff021916908373ffffffffffffffffffffffffffffffffffffffff1602179055507fe00da2178806f37f69815e9ed5ed3072ec1d55206d60916d99b469c7daa421e433604051610367919061187d565b60405180910390a150565b5f60018054906101000a900473ffffffffffffffffffffffffffffffffffffffff1673ffffffffffffffffffffffffffffffffffffffff163373ffffffffffffffffffffffffffffffffffffffff161480610419575060025f9054906101000a900473ffffffffffffffffffffffffffffffffffffffff1673ffffffffffffffffffffffffffffffffffffffff163373ffffffffffffffffffffffffffffffffffffffff16145b610458576040517f08c379a000000000000000000000000000000000000000000000000000000000815260040161044f90611a93565b60405180910390fd5b60015f9054906101000a900460ff16905090565b5f7fffffffffffffffffffffffffffffffffffffffffffffffffffffffffffffffff61051b33600380548060200260200160405190810160405280929190818152602001828054801561051157602002820191905f5260205f20905b815f9054906101000a900473ffffffffffffffffffffffffffffffffffffffff1673ffffffffffffffffffffffffffffffffffffffff16815260200190600101908083116104c8575b5050505050611367565b1415905090565b60018054906101000a900473ffffffffffffffffffffffffffffffffffffffff1673ffffffffffffffffffffffffffffffffffffffff163373ffffffffffffffffffffffffffffffffffffffff1614806105c8575060025f9054906101000a900473ffffffffffffffffffffffffffffffffffffffff1673ffffffffffffffffffffffffffffffffffffffff163373ffffffffffffffffffffffffffffffffffffffff16145b610607576040517f08c379a00000000000000000000000000000000000000000000000000000000081526004016105fe90611a93565b60405180910390fd5b60018054906101000a900473ffffffffffffffffffffffffffffffffffffffff1673ffffffffffffffffffffffffffffffffffffffff168173ffffffffffffffffffffffffffffffffffffffff161415801561068f57505f73ffffffffffffffffffffffffffffffffffffffff168173ffffffffffffffffffffffffffffffffffffffff1614155b801561074657507fffffffffffffffffffffffffffffffffffffffffffffffffffffffffffffffff61074482600380548060200260200160405190810160405280929190818152602001828054801561073a57602002820191905f5260205f20905b815f9054906101000a900473ffffffffffffffffffffffffffffffffffffffff1673ffffffffffffffffffffffffffffffffffffffff16815260200190600101908083116106f1575b5050505050611367565b145b610785576040517f08c379a000000000000000000000000000000000000000000000000000000000815260040161077c90611afb565b60405180910390fd5b600381908060018154018082558091505060019003905f5260205f20015f9091909190916101000a81548173ffffffffffffffffffffffffffffffffffffffff021916908373ffffffffffffffffffffffffffffffffffffffff16021790555050565b60018054906101000a900473ffffffffffffffffffffffffffffffffffffffff1673ffffffffffffffffffffffffffffffffffffffff163373ffffffffffffffffffffffffffffffffffffffff16148061088e575060025f9054906101000a900473ffffffffffffffffffffffffffffffffffffffff1673ffffffffffffffffffffffffffffffffffffffff163373ffffffffffffffffffffffffffffffffffffffff16145b6108cd576040517f08c379a00000000000000000000000000000000000000000000000000000000081526004016108c490611a93565b60405180910390fd5b815f90816108db9190611d1c565b5080600490816108eb9190611d1c565b507fe00da2178806f37f69815e9ed5ed3072ec1d55206d60916d99b469c7daa421e43360405161091b919061187d565b60405180910390a15050565b5f60018054906101000a900473ffffffffffffffffffffffffffffffffffffffff1673ffffffffffffffffffffffffffffffffffffffff163373ffffffffffffffffffffffffffffffffffffffff1614806109ce575060025f9054906101000a900473ffffffffffffffffffffffffffffffffffffffff1673ffffffffffffffffffffffffffffffffffffffff163373ffffffffffffffffffffffffffffffffffffffff16145b610a0d576040517f08c379a0000000000000000000000000000000000000000000000000000000008152600401610a0490611a93565b60405180910390fd5b60025f9054906101000a900473ffffffffffffffffffffffffffffffffffffffff16905090565b606060018054906101000a900473ffffffffffffffffffffffffffffffffffffffff1673ffffffffffffffffffffffffffffffffffffffff163373ffffffffffffffffffffffffffffffffffffffff161480610adc575060025f9054906101000a900473ffffffffffffffffffffffffffffffffffffffff1673ffffffffffffffffffffffffffffffffffffffff163373ffffffffffffffffffffffffffffffffffffffff16145b610b1b576040517f08c379a0000000000000000000000000000000000000000000000000000000008152600401610b1290611a93565b60405180910390fd5b6003805480602002602001604051908101604052809291908181526020018280548015610b9a57602002820191905f5260205f20905b815f9054906101000a900473ffffffffffffffffffffffffffffffffffffffff1673ffffffffffffffffffffffffffffffffffffffff1681526020019060010190808311610b51575b5050505050905090565b5f60018054906101000a900473ffffffffffffffffffffffffffffffffffffffff1673ffffffffffffffffffffffffffffffffffffffff163373ffffffffffffffffffffffffffffffffffffffff161480610c4b575060025f9054906101000a900473ffffffffffffffffffffffffffffffffffffffff1673ffffffffffffffffffffffffffffffffffffffff163373ffffffffffffffffffffffffffffffffffffffff16145b905090565b60608060018054906101000a900473ffffffffffffffffffffffffffffffffffffffff1673ffffffffffffffffffffffffffffffffffffffff163373ffffffffffffffffffffffffffffffffffffffff161480610d5957507fffffffffffffffffffffffffffffffffffffffffffffffffffffffffffffffff610d56336003805480602002602001604051908101604052809291908181526020018280548015610d4c57602002820191905f5260205f20905b815f9054906101000a900473ffffffffffffffffffffffffffffffffffffffff1673ffffffffffffffffffffffffffffffffffffffff1681526020019060010190808311610d03575b5050505050611367565b14155b610d98576040517f08c379a0000000000000000000000000000000000000000000000000000000008152600401610d8f90611e35565b60405180910390fd5b5f6004818054610da790611b46565b80601f0160208091040260200160405190810160405280929190818152602001828054610dd390611b46565b8015610e1e5780601f10610df557610100808354040283529160200191610e1e565b820191905f5260205f20905b815481529060010190602001808311610e0157829003601f168201915b50505050509150808054610e3190611b46565b80601f0160208091040260200160405190810160405280929190818152602001828054610e5d90611b46565b8015610ea85780601f10610e7f57610100808354040283529160200191610ea8565b820191905f5260205f20905b815481529060010190602001808311610e8b57829003601f168201915b50505050509050915091509091565b60018054906101000a900473ffffffffffffffffffffffffffffffffffffffff1673ffffffffffffffffffffffffffffffffffffffff163373ffffffffffffffffffffffffffffffffffffffff161480610f5d575060025f9054906101000a900473ffffffffffffffffffffffffffffffffffffffff1673ffffffffffffffffffffffffffffffffffffffff163373ffffffffffffffffffffffffffffffffffffffff16145b610f9c576040517f08c379a0000000000000000000000000000000000000000000000000000000008152600401610f9390611a93565b60405180910390fd5b805f9081610faa9190611d1c565b507fe00da2178806f37f69815e9ed5ed3072ec1d55206d60916d99b469c7daa421e433604051610fda919061187d565b60405180910390a150565b5f73ffffffffffffffffffffffffffffffffffffffff168173ffffffffffffffffffffffffffffffffffffffff161415806110f8575060025f9054906101000a900473ffffffffffffffffffffffffffffffffffffffff1673ffffffffffffffffffffffffffffffffffffffff163373ffffffffffffffffffffffffffffffffffffffff1614806110c1575060018054906101000a900473ffffffffffffffffffffffffffffffffffffffff1673ffffffffffffffffffffffffffffffffffffffff163373ffffffffffffffffffffffffffffffffffffffff16145b806110f757508073ffffffffffffffffffffffffffffffffffffffff163373ffffffffffffffffffffffffffffffffffffffff16145b5b611137576040517f08c379a000000000000000000000000000000000000000000000000000000000815260040161112e90611afb565b60405180910390fd5b5f6111c58260038054806020026020016040519081016040528092919081815260200182805480156111bb57602002820191905f5260205f20905b815f9054906101000a900473ffffffffffffffffffffffffffffffffffffffff1673ffffffffffffffffffffffffffffffffffffffff1681526020019060010190808311611172575b5050505050611367565b90507fffffffffffffffffffffffffffffffffffffffffffffffffffffffffffffffff8113611229576040517f08c379a000000000000000000000000000000000000000000000000000000000815260040161122090611e9d565b60405180910390fd5b611234816003611404565b5050565b60018054906101000a900473ffffffffffffffffffffffffffffffffffffffff1673ffffffffffffffffffffffffffffffffffffffff163373ffffffffffffffffffffffffffffffffffffffff1614806112de575060025f9054906101000a900473ffffffffffffffffffffffffffffffffffffffff1673ffffffffffffffffffffffffffffffffffffffff163373ffffffffffffffffffffffffffffffffffffffff16145b61131d576040517f08c379a000000000000000000000000000000000000000000000000000000000815260040161131490611a93565b60405180910390fd5b806004908161132c9190611d1c565b507fe00da2178806f37f69815e9ed5ed3072ec1d55206d60916d99b469c7daa421e43360405161135c919061187d565b60405180910390a150565b5f805f90505b82518110156113d9578373ffffffffffffffffffffffffffffffffffffffff168382815181106113a05761139f611ebb565b5b602002602001015173ffffffffffffffffffffffffffffffffffffffff16036113cc57809150506113fe565b808060010191505061136d565b507fffffffffffffffffffffffffffffffffffffffffffffffffffffffffffffffff90505b92915050565b5f82121580156114175750808054905082105b611456576040517f08c379a000000000000000000000000000000000000000000000000000000000815260040161144d90611f32565b60405180910390fd5b5f8290505b6001828054905061146c9190611f7d565b81101561151f57816001826114819190611fb0565b8154811061149257611491611ebb565b5b905f5260205f20015f9054906101000a900473ffffffffffffffffffffffffffffffffffffffff168282815481106114cd576114cc611ebb565b5b905f5260205f20015f6101000a81548173ffffffffffffffffffffffffffffffffffffffff021916908373ffffffffffffffffffffffffffffffffffffffff160217905550808060010191505061145b565b508080548061153157611530611fe3565b5b600190038181905f5260205f20015f6101000a81549073ffffffffffffffffffffffffffffffffffffffff021916905590555050565b5f604051905090565b5f80fd5b5f80fd5b5f73ffffffffffffffffffffffffffffffffffffffff82169050919050565b5f6115a182611578565b9050919050565b6115b181611597565b81146115bb575f80fd5b50565b5f813590506115cc816115a8565b92915050565b5f602082840312156115e7576115e6611570565b5b5f6115f4848285016115be565b91505092915050565b7f4e487b71000000000000000000000000000000000000000000000000000000005f52602160045260245ffd5b6004811061163b5761163a6115fd565b5b50565b5f81905061164b8261162a565b919050565b5f61165a8261163e565b9050919050565b61166a81611650565b82525050565b5f6020820190506116835f830184611661565b92915050565b5f8115159050919050565b61169d81611689565b82525050565b5f6020820190506116b65f830184611694565b92915050565b5f80fd5b5f80fd5b5f601f19601f8301169050919050565b7f4e487b71000000000000000000000000000000000000000000000000000000005f52604160045260245ffd5b61170a826116c4565b810181811067ffffffffffffffff82111715611729576117286116d4565b5b80604052505050565b5f61173b611567565b90506117478282611701565b919050565b5f67ffffffffffffffff821115611766576117656116d4565b5b61176f826116c4565b9050602081019050919050565b828183375f83830152505050565b5f61179c6117978461174c565b611732565b9050828152602081018484840111156117b8576117b76116c0565b5b6117c384828561177c565b509392505050565b5f82601f8301126117df576117de6116bc565b5b81356117ef84826020860161178a565b91505092915050565b5f806040838503121561180e5761180d611570565b5b5f83013567ffffffffffffffff81111561182b5761182a611574565b5b611837858286016117cb565b925050602083013567ffffffffffffffff81111561185857611857611574565b5b611864858286016117cb565b9150509250929050565b61187781611597565b82525050565b5f6020820190506118905f83018461186e565b92915050565b5f81519050919050565b5f82825260208201905092915050565b5f819050602082019050919050565b6118c881611597565b82525050565b5f6118d983836118bf565b60208301905092915050565b5f602082019050919050565b5f6118fb82611896565b61190581856118a0565b9350611910836118b0565b805f5b8381101561194057815161192788826118ce565b9750611932836118e5565b925050600181019050611913565b5085935050505092915050565b5f6020820190508181035f83015261196581846118f1565b905092915050565b5f81519050919050565b5f82825260208201905092915050565b8281835e5f83830152505050565b5f61199f8261196d565b6119a98185611977565b93506119b9818560208601611987565b6119c2816116c4565b840191505092915050565b5f6040820190508181035f8301526119e58185611995565b905081810360208301526119f98184611995565b90509392505050565b5f60208284031215611a1757611a16611570565b5b5f82013567ffffffffffffffff811115611a3457611a33611574565b5b611a40848285016117cb565b91505092915050565b7f4f6e6c79206f776e6572000000000000000000000000000000000000000000005f82015250565b5f611a7d600a83611977565b9150611a8882611a49565b602082019050919050565b5f6020820190508181035f830152611aaa81611a71565b9050919050565b7f466f7262696464656e00000000000000000000000000000000000000000000005f82015250565b5f611ae5600983611977565b9150611af082611ab1565b602082019050919050565b5f6020820190508181035f830152611b1281611ad9565b9050919050565b7f4e487b71000000000000000000000000000000000000000000000000000000005f52602260045260245ffd5b5f6002820490506001821680611b5d57607f821691505b602082108103611b7057611b6f611b19565b5b50919050565b5f819050815f5260205f209050919050565b5f6020601f8301049050919050565b5f82821b905092915050565b5f60088302611bd27fffffffffffffffffffffffffffffffffffffffffffffffffffffffffffffffff82611b97565b611bdc8683611b97565b95508019841693508086168417925050509392505050565b5f819050919050565b5f819050919050565b5f611c20611c1b611c1684611bf4565b611bfd565b611bf4565b9050919050565b5f819050919050565b611c3983611c06565b611c4d611c4582611c27565b848454611ba3565b825550505050565b5f90565b611c61611c55565b611c6c818484611c30565b505050565b5b81811015611c8f57611c845f82611c59565b600181019050611c72565b5050565b601f821115611cd457611ca581611b76565b611cae84611b88565b81016020851015611cbd578190505b611cd1611cc985611b88565b830182611c71565b50505b505050565b5f82821c905092915050565b5f611cf45f1984600802611cd9565b1980831691505092915050565b5f611d0c8383611ce5565b9150826002028217905092915050565b611d258261196d565b67ffffffffffffffff811115611d3e57611d3d6116d4565b5b611d488254611b46565b611d53828285611c93565b5f60209050601f831160018114611d84575f8415611d72578287015190505b611d7c8582611d01565b865550611de3565b601f198416611d9286611b76565b5f5b82811015611db957848901518255600182019150602085019450602081019050611d94565b86831015611dd65784890151611dd2601f891682611ce5565b8355505b6001600288020188555050505b505050505050565b7f52657374726963740000000000000000000000000000000000000000000000005f82015250565b5f611e1f600883611977565b9150611e2a82611deb565b602082019050919050565b5f6020820190508181035f830152611e4c81611e13565b9050919050565b7f4e6f7420666f756e6400000000000000000000000000000000000000000000005f82015250565b5f611e87600983611977565b9150611e9282611e53565b602082019050919050565b5f6020820190508181035f830152611eb481611e7b565b9050919050565b7f4e487b71000000000000000000000000000000000000000000000000000000005f52603260045260245ffd5b7f4e6f2069647800000000000000000000000000000000000000000000000000005f82015250565b5f611f1c600683611977565b9150611f2782611ee8565b602082019050919050565b5f6020820190508181035f830152611f4981611f10565b9050919050565b7f4e487b71000000000000000000000000000000000000000000000000000000005f52601160045260245ffd5b5f611f8782611bf4565b9150611f9283611bf4565b9250828203905081811115611faa57611fa9611f50565b5b92915050565b5f611fba82611bf4565b9150611fc583611bf4565b9250828201905080821115611fdd57611fdc611f50565b5b92915050565b7f4e487b71000000000000000000000000000000000000000000000000000000005f52603160045260245ffdfea2646970667358221220518ebc44193fa0da5b31446da1f189cbbfdae4eb56a762d849335541202385fc64736f6c634300081a0033",
			"opcodes": "PUSH1 0x80 PUSH1 0x40 MSTORE CALLVALUE DUP1 ISZERO PUSH2 0xF JUMPI PUSH0 DUP1 REVERT JUMPDEST POP PUSH1 0x40 MLOAD PUSH2 0x2788 CODESIZE SUB DUP1 PUSH2 0x2788 DUP4 CODECOPY DUP2 DUP2 ADD PUSH1 0x40 MSTORE DUP2 ADD SWAP1 PUSH2 0x31 SWAP2 SWAP1 PUSH2 0x368 JUMP JUMPDEST DUP4 PUSH0 DUP4 DUP4 DUP4 PUSH0 SWAP1 DUP2 PUSH2 0x43 SWAP2 SWAP1 PUSH2 0x611 JUMP JUMPDEST POP DUP3 PUSH1 0x1 PUSH0 PUSH2 0x100 EXP DUP2 SLOAD DUP2 PUSH1 0xFF MUL NOT AND SWAP1 DUP4 PUSH1 0x3 DUP2 GT ISZERO PUSH2 0x68 JUMPI PUSH2 0x67 PUSH2 0x6E0 JUMP JUMPDEST JUMPDEST MUL OR SWAP1 SSTORE POP DUP2 PUSH1 0x1 DUP1 PUSH2 0x100 EXP DUP2 SLOAD DUP2 PUSH20 0xFFFFFFFFFFFFFFFFFFFFFFFFFFFFFFFFFFFFFFFF MUL NOT AND SWAP1 DUP4 PUSH20 0xFFFFFFFFFFFFFFFFFFFFFFFFFFFFFFFFFFFFFFFF AND MUL OR SWAP1 SSTORE POP DUP1 PUSH1 0x2 PUSH0 PUSH2 0x100 EXP DUP2 SLOAD DUP2 PUSH20 0xFFFFFFFFFFFFFFFFFFFFFFFFFFFFFFFFFFFFFFFF MUL NOT AND SWAP1 DUP4 PUSH20 0xFFFFFFFFFFFFFFFFFFFFFFFFFFFFFFFFFFFFFFFF AND MUL OR SWAP1 SSTORE POP POP POP POP POP DUP3 PUSH1 0x4 SWAP1 DUP2 PUSH2 0x100 SWAP2 SWAP1 PUSH2 0x611 JUMP JUMPDEST POP DUP2 PUSH1 0x1 DUP1 PUSH2 0x100 EXP DUP2 SLOAD DUP2 PUSH20 0xFFFFFFFFFFFFFFFFFFFFFFFFFFFFFFFFFFFFFFFF MUL NOT AND SWAP1 DUP4 PUSH20 0xFFFFFFFFFFFFFFFFFFFFFFFFFFFFFFFFFFFFFFFF AND MUL OR SWAP1 SSTORE POP DUP1 PUSH1 0x2 PUSH0 PUSH2 0x100 EXP DUP2 SLOAD DUP2 PUSH20 0xFFFFFFFFFFFFFFFFFFFFFFFFFFFFFFFFFFFFFFFF MUL NOT AND SWAP1 DUP4 PUSH20 0xFFFFFFFFFFFFFFFFFFFFFFFFFFFFFFFFFFFFFFFF AND MUL OR SWAP1 SSTORE POP PUSH32 0x1449ABF21E49FD025F33495E77F7B1461CAEFDD3D4BB646424A3F445C4576A5B CALLER PUSH1 0x40 MLOAD PUSH2 0x1B0 SWAP2 SWAP1 PUSH2 0x71C JUMP JUMPDEST PUSH1 0x40 MLOAD DUP1 SWAP2 SUB SWAP1 LOG1 POP POP POP POP PUSH2 0x735 JUMP JUMPDEST PUSH0 PUSH1 0x40 MLOAD SWAP1 POP SWAP1 JUMP JUMPDEST PUSH0 DUP1 REVERT JUMPDEST PUSH0 DUP1 REVERT JUMPDEST PUSH0 DUP1 REVERT JUMPDEST PUSH0 DUP1 REVERT JUMPDEST PUSH0 PUSH1 0x1F NOT PUSH1 0x1F DUP4 ADD AND SWAP1 POP SWAP2 SWAP1 POP JUMP JUMPDEST PUSH32 0x4E487B7100000000000000000000000000000000000000000000000000000000 PUSH0 MSTORE PUSH1 0x41 PUSH1 0x4 MSTORE PUSH1 0x24 PUSH0 REVERT JUMPDEST PUSH2 0x220 DUP3 PUSH2 0x1DA JUMP JUMPDEST DUP2 ADD DUP2 DUP2 LT PUSH8 0xFFFFFFFFFFFFFFFF DUP3 GT OR ISZERO PUSH2 0x23F JUMPI PUSH2 0x23E PUSH2 0x1EA JUMP JUMPDEST JUMPDEST DUP1 PUSH1 0x40 MSTORE POP POP POP JUMP JUMPDEST PUSH0 PUSH2 0x251 PUSH2 0x1C1 JUMP JUMPDEST SWAP1 POP PUSH2 0x25D DUP3 DUP3 PUSH2 0x217 JUMP JUMPDEST SWAP2 SWAP1 POP JUMP JUMPDEST PUSH0 PUSH8 0xFFFFFFFFFFFFFFFF DUP3 GT ISZERO PUSH2 0x27C JUMPI PUSH2 0x27B PUSH2 0x1EA JUMP JUMPDEST JUMPDEST PUSH2 0x285 DUP3 PUSH2 0x1DA JUMP JUMPDEST SWAP1 POP PUSH1 0x20 DUP2 ADD SWAP1 POP SWAP2 SWAP1 POP JUMP JUMPDEST DUP3 DUP2 DUP4 MCOPY PUSH0 DUP4 DUP4 ADD MSTORE POP POP POP JUMP JUMPDEST PUSH0 PUSH2 0x2B2 PUSH2 0x2AD DUP5 PUSH2 0x262 JUMP JUMPDEST PUSH2 0x248 JUMP JUMPDEST SWAP1 POP DUP3 DUP2 MSTORE PUSH1 0x20 DUP2 ADD DUP5 DUP5 DUP5 ADD GT ISZERO PUSH2 0x2CE JUMPI PUSH2 0x2CD PUSH2 0x1D6 JUMP JUMPDEST JUMPDEST PUSH2 0x2D9 DUP5 DUP3 DUP6 PUSH2 0x292 JUMP JUMPDEST POP SWAP4 SWAP3 POP POP POP JUMP JUMPDEST PUSH0 DUP3 PUSH1 0x1F DUP4 ADD SLT PUSH2 0x2F5 JUMPI PUSH2 0x2F4 PUSH2 0x1D2 JUMP JUMPDEST JUMPDEST DUP2 MLOAD PUSH2 0x305 DUP5 DUP3 PUSH1 0x20 DUP7 ADD PUSH2 0x2A0 JUMP JUMPDEST SWAP2 POP POP SWAP3 SWAP2 POP POP JUMP JUMPDEST PUSH0 PUSH20 0xFFFFFFFFFFFFFFFFFFFFFFFFFFFFFFFFFFFFFFFF DUP3 AND SWAP1 POP SWAP2 SWAP1 POP JUMP JUMPDEST PUSH0 PUSH2 0x337 DUP3 PUSH2 0x30E JUMP JUMPDEST SWAP1 POP SWAP2 SWAP1 POP JUMP JUMPDEST PUSH2 0x347 DUP2 PUSH2 0x32D JUMP JUMPDEST DUP2 EQ PUSH2 0x351 JUMPI PUSH0 DUP1 REVERT JUMPDEST POP JUMP JUMPDEST PUSH0 DUP2 MLOAD SWAP1 POP PUSH2 0x362 DUP2 PUSH2 0x33E JUMP JUMPDEST SWAP3 SWAP2 POP POP JUMP JUMPDEST PUSH0 DUP1 PUSH0 DUP1 PUSH1 0x80 DUP6 DUP8 SUB SLT ISZERO PUSH2 0x380 JUMPI PUSH2 0x37F PUSH2 0x1CA JUMP JUMPDEST JUMPDEST PUSH0 DUP6 ADD MLOAD PUSH8 0xFFFFFFFFFFFFFFFF DUP2 GT ISZERO PUSH2 0x39D JUMPI PUSH2 0x39C PUSH2 0x1CE JUMP JUMPDEST JUMPDEST PUSH2 0x3A9 DUP8 DUP3 DUP9 ADD PUSH2 0x2E1 JUMP JUMPDEST SWAP5 POP POP PUSH1 0x20 DUP6 ADD MLOAD PUSH8 0xFFFFFFFFFFFFFFFF DUP2 GT ISZERO PUSH2 0x3CA JUMPI PUSH2 0x3C9 PUSH2 0x1CE JUMP JUMPDEST JUMPDEST PUSH2 0x3D6 DUP8 DUP3 DUP9 ADD PUSH2 0x2E1 JUMP JUMPDEST SWAP4 POP POP PUSH1 0x40 PUSH2 0x3E7 DUP8 DUP3 DUP9 ADD PUSH2 0x354 JUMP JUMPDEST SWAP3 POP POP PUSH1 0x60 PUSH2 0x3F8 DUP8 DUP3 DUP9 ADD PUSH2 0x354 JUMP JUMPDEST SWAP2 POP POP SWAP3 SWAP6 SWAP2 SWAP5 POP SWAP3 POP JUMP JUMPDEST PUSH0 DUP2 MLOAD SWAP1 POP SWAP2 SWAP1 POP JUMP JUMPDEST PUSH32 0x4E487B7100000000000000000000000000000000000000000000000000000000 PUSH0 MSTORE PUSH1 0x22 PUSH1 0x4 MSTORE PUSH1 0x24 PUSH0 REVERT JUMPDEST PUSH0 PUSH1 0x2 DUP3 DIV SWAP1 POP PUSH1 0x1 DUP3 AND DUP1 PUSH2 0x452 JUMPI PUSH1 0x7F DUP3 AND SWAP2 POP JUMPDEST PUSH1 0x20 DUP3 LT DUP2 SUB PUSH2 0x465 JUMPI PUSH2 0x464 PUSH2 0x40E JUMP JUMPDEST JUMPDEST POP SWAP2 SWAP1 POP JUMP JUMPDEST PUSH0 DUP2 SWAP1 POP DUP2 PUSH0 MSTORE PUSH1 0x20 PUSH0 KECCAK256 SWAP1 POP SWAP2 SWAP1 POP JUMP JUMPDEST PUSH0 PUSH1 0x20 PUSH1 0x1F DUP4 ADD DIV SWAP1 POP SWAP2 SWAP1 POP JUMP JUMPDEST PUSH0 DUP3 DUP3 SHL SWAP1 POP SWAP3 SWAP2 POP POP JUMP JUMPDEST PUSH0 PUSH1 0x8 DUP4 MUL PUSH2 0x4C7 PUSH32 0xFFFFFFFFFFFFFFFFFFFFFFFFFFFFFFFFFFFFFFFFFFFFFFFFFFFFFFFFFFFFFFFF DUP3 PUSH2 0x48C JUMP JUMPDEST PUSH2 0x4D1 DUP7 DUP4 PUSH2 0x48C JUMP JUMPDEST SWAP6 POP DUP1 NOT DUP5 AND SWAP4 POP DUP1 DUP7 AND DUP5 OR SWAP3 POP POP POP SWAP4 SWAP3 POP POP POP JUMP JUMPDEST PUSH0 DUP2 SWAP1 POP SWAP2 SWAP1 POP JUMP JUMPDEST PUSH0 DUP2 SWAP1 POP SWAP2 SWAP1 POP JUMP JUMPDEST PUSH0 PUSH2 0x515 PUSH2 0x510 PUSH2 0x50B DUP5 PUSH2 0x4E9 JUMP JUMPDEST PUSH2 0x4F2 JUMP JUMPDEST PUSH2 0x4E9 JUMP JUMPDEST SWAP1 POP SWAP2 SWAP1 POP JUMP JUMPDEST PUSH0 DUP2 SWAP1 POP SWAP2 SWAP1 POP JUMP JUMPDEST PUSH2 0x52E DUP4 PUSH2 0x4FB JUMP JUMPDEST PUSH2 0x542 PUSH2 0x53A DUP3 PUSH2 0x51C JUMP JUMPDEST DUP5 DUP5 SLOAD PUSH2 0x498 JUMP JUMPDEST DUP3 SSTORE POP POP POP POP JUMP JUMPDEST PUSH0 SWAP1 JUMP JUMPDEST PUSH2 0x556 PUSH2 0x54A JUMP JUMPDEST PUSH2 0x561 DUP2 DUP5 DUP5 PUSH2 0x525 JUMP JUMPDEST POP POP POP JUMP JUMPDEST JUMPDEST DUP2 DUP2 LT ISZERO PUSH2 0x584 JUMPI PUSH2 0x579 PUSH0 DUP3 PUSH2 0x54E JUMP JUMPDEST PUSH1 0x1 DUP2 ADD SWAP1 POP PUSH2 0x567 JUMP JUMPDEST POP POP JUMP JUMPDEST PUSH1 0x1F DUP3 GT ISZERO PUSH2 0x5C9 JUMPI PUSH2 0x59A DUP2 PUSH2 0x46B JUMP JUMPDEST PUSH2 0x5A3 DUP5 PUSH2 0x47D JUMP JUMPDEST DUP2 ADD PUSH1 0x20 DUP6 LT ISZERO PUSH2 0x5B2 JUMPI DUP2 SWAP1 POP JUMPDEST PUSH2 0x5C6 PUSH2 0x5BE DUP6 PUSH2 0x47D JUMP JUMPDEST DUP4 ADD DUP3 PUSH2 0x566 JUMP JUMPDEST POP POP JUMPDEST POP POP POP JUMP JUMPDEST PUSH0 DUP3 DUP3 SHR SWAP1 POP SWAP3 SWAP2 POP POP JUMP JUMPDEST PUSH0 PUSH2 0x5E9 PUSH0 NOT DUP5 PUSH1 0x8 MUL PUSH2 0x5CE JUMP JUMPDEST NOT DUP1 DUP4 AND SWAP2 POP POP SWAP3 SWAP2 POP POP JUMP JUMPDEST PUSH0 PUSH2 0x601 DUP4 DUP4 PUSH2 0x5DA JUMP JUMPDEST SWAP2 POP DUP3 PUSH1 0x2 MUL DUP3 OR SWAP1 POP SWAP3 SWAP2 POP POP JUMP JUMPDEST PUSH2 0x61A DUP3 PUSH2 0x404 JUMP JUMPDEST PUSH8 0xFFFFFFFFFFFFFFFF DUP2 GT ISZERO PUSH2 0x633 JUMPI PUSH2 0x632 PUSH2 0x1EA JUMP JUMPDEST JUMPDEST PUSH2 0x63D DUP3 SLOAD PUSH2 0x43B JUMP JUMPDEST PUSH2 0x648 DUP3 DUP3 DUP6 PUSH2 0x588 JUMP JUMPDEST PUSH0 PUSH1 0x20 SWAP1 POP PUSH1 0x1F DUP4 GT PUSH1 0x1 DUP2 EQ PUSH2 0x679 JUMPI PUSH0 DUP5 ISZERO PUSH2 0x667 JUMPI DUP3 DUP8 ADD MLOAD SWAP1 POP JUMPDEST PUSH2 0x671 DUP6 DUP3 PUSH2 0x5F6 JUMP JUMPDEST DUP7 SSTORE POP PUSH2 0x6D8 JUMP JUMPDEST PUSH1 0x1F NOT DUP5 AND PUSH2 0x687 DUP7 PUSH2 0x46B JUMP JUMPDEST PUSH0 JUMPDEST DUP3 DUP2 LT ISZERO PUSH2 0x6AE JUMPI DUP5 DUP10 ADD MLOAD DUP3 SSTORE PUSH1 0x1 DUP3 ADD SWAP2 POP PUSH1 0x20 DUP6 ADD SWAP5 POP PUSH1 0x20 DUP2 ADD SWAP1 POP PUSH2 0x689 JUMP JUMPDEST DUP7 DUP4 LT ISZERO PUSH2 0x6CB JUMPI DUP5 DUP10 ADD MLOAD PUSH2 0x6C7 PUSH1 0x1F DUP10 AND DUP3 PUSH2 0x5DA JUMP JUMPDEST DUP4 SSTORE POP JUMPDEST PUSH1 0x1 PUSH1 0x2 DUP9 MUL ADD DUP9 SSTORE POP POP POP JUMPDEST POP POP POP POP POP POP JUMP JUMPDEST PUSH32 0x4E487B7100000000000000000000000000000000000000000000000000000000 PUSH0 MSTORE PUSH1 0x21 PUSH1 0x4 MSTORE PUSH1 0x24 PUSH0 REVERT JUMPDEST PUSH2 0x716 DUP2 PUSH2 0x32D JUMP JUMPDEST DUP3 MSTORE POP POP JUMP JUMPDEST PUSH0 PUSH1 0x20 DUP3 ADD SWAP1 POP PUSH2 0x72F PUSH0 DUP4 ADD DUP5 PUSH2 0x70D JUMP JUMPDEST SWAP3 SWAP2 POP POP JUMP JUMPDEST PUSH2 0x2046 DUP1 PUSH2 0x742 PUSH0 CODECOPY PUSH0 RETURN INVALID PUSH1 0x80 PUSH1 0x40 MSTORE CALLVALUE DUP1 ISZERO PUSH2 0xF JUMPI PUSH0 DUP1 REVERT JUMPDEST POP PUSH1 0x4 CALLDATASIZE LT PUSH2 0xB2 JUMPI PUSH0 CALLDATALOAD PUSH1 0xE0 SHR DUP1 PUSH4 0xA95264D0 GT PUSH2 0x6F JUMPI DUP1 PUSH4 0xA95264D0 EQ PUSH2 0x164 JUMPI DUP1 PUSH4 0xB9DAF3E2 EQ PUSH2 0x182 JUMPI DUP1 PUSH4 0xBA379E86 EQ PUSH2 0x1A0 JUMPI DUP1 PUSH4 0xC47F0027 EQ PUSH2 0x1BF JUMPI DUP1 PUSH4 0xDED92DAC EQ PUSH2 0x1DB JUMPI DUP1 PUSH4 0xEFD8AF9F EQ PUSH2 0x1F7 JUMPI PUSH2 0xB2 JUMP JUMPDEST DUP1 PUSH4 0x1499C592 EQ PUSH2 0xB6 JUMPI DUP1 PUSH4 0x2858D3C8 EQ PUSH2 0xD2 JUMPI DUP1 PUSH4 0x4BA83374 EQ PUSH2 0xF0 JUMPI DUP1 PUSH4 0x5DA6EF8D EQ PUSH2 0x10E JUMPI DUP1 PUSH4 0x7A4C982E EQ PUSH2 0x12A JUMPI DUP1 PUSH4 0x80F76021 EQ PUSH2 0x146 JUMPI JUMPDEST PUSH0 DUP1 REVERT JUMPDEST PUSH2 0xD0 PUSH1 0x4 DUP1 CALLDATASIZE SUB DUP2 ADD SWAP1 PUSH2 0xCB SWAP2 SWAP1 PUSH2 0x15D2 JUMP JUMPDEST PUSH2 0x213 JUMP JUMPDEST STOP JUMPDEST PUSH2 0xDA PUSH2 0x372 JUMP JUMPDEST PUSH1 0x40 MLOAD PUSH2 0xE7 SWAP2 SWAP1 PUSH2 0x1670 JUMP JUMPDEST PUSH1 0x40 MLOAD DUP1 SWAP2 SUB SWAP1 RETURN JUMPDEST PUSH2 0xF8 PUSH2 0x46C JUMP JUMPDEST PUSH1 0x40 MLOAD PUSH2 0x105 SWAP2 SWAP1 PUSH2 0x16A3 JUMP JUMPDEST PUSH1 0x40 MLOAD DUP1 SWAP2 SUB SWAP1 RETURN JUMPDEST PUSH2 0x128 PUSH1 0x4 DUP1 CALLDATASIZE SUB DUP2 ADD SWAP1 PUSH2 0x123 SWAP2 SWAP1 PUSH2 0x15D2 JUMP JUMPDEST PUSH2 0x522 JUMP JUMPDEST STOP JUMPDEST PUSH2 0x144 PUSH1 0x4 DUP1 CALLDATASIZE SUB DUP2 ADD SWAP1 PUSH2 0x13F SWAP2 SWAP1 PUSH2 0x17F8 JUMP JUMPDEST PUSH2 0x7E8 JUMP JUMPDEST STOP JUMPDEST PUSH2 0x14E PUSH2 0x927 JUMP JUMPDEST PUSH1 0x40 MLOAD PUSH2 0x15B SWAP2 SWAP1 PUSH2 0x187D JUMP JUMPDEST PUSH1 0x40 MLOAD DUP1 SWAP2 SUB SWAP1 RETURN JUMPDEST PUSH2 0x16C PUSH2 0xA34 JUMP JUMPDEST PUSH1 0x40 MLOAD PUSH2 0x179 SWAP2 SWAP1 PUSH2 0x194D JUMP JUMPDEST PUSH1 0x40 MLOAD DUP1 SWAP2 SUB SWAP1 RETURN JUMPDEST PUSH2 0x18A PUSH2 0xBA4 JUMP JUMPDEST PUSH1 0x40 MLOAD PUSH2 0x197 SWAP2 SWAP1 PUSH2 0x16A3 JUMP JUMPDEST PUSH1 0x40 MLOAD DUP1 SWAP2 SUB SWAP1 RETURN JUMPDEST PUSH2 0x1A8 PUSH2 0xC50 JUMP JUMPDEST PUSH1 0x40 MLOAD PUSH2 0x1B6 SWAP3 SWAP2 SWAP1 PUSH2 0x19CD JUMP JUMPDEST PUSH1 0x40 MLOAD DUP1 SWAP2 SUB SWAP1 RETURN JUMPDEST PUSH2 0x1D9 PUSH1 0x4 DUP1 CALLDATASIZE SUB DUP2 ADD SWAP1 PUSH2 0x1D4 SWAP2 SWAP1 PUSH2 0x1A02 JUMP JUMPDEST PUSH2 0xEB7 JUMP JUMPDEST STOP JUMPDEST PUSH2 0x1F5 PUSH1 0x4 DUP1 CALLDATASIZE SUB DUP2 ADD SWAP1 PUSH2 0x1F0 SWAP2 SWAP1 PUSH2 0x15D2 JUMP JUMPDEST PUSH2 0xFE5 JUMP JUMPDEST STOP JUMPDEST PUSH2 0x211 PUSH1 0x4 DUP1 CALLDATASIZE SUB DUP2 ADD SWAP1 PUSH2 0x20C SWAP2 SWAP1 PUSH2 0x1A02 JUMP JUMPDEST PUSH2 0x1238 JUMP JUMPDEST STOP JUMPDEST PUSH1 0x1 DUP1 SLOAD SWAP1 PUSH2 0x100 EXP SWAP1 DIV PUSH20 0xFFFFFFFFFFFFFFFFFFFFFFFFFFFFFFFFFFFFFFFF AND PUSH20 0xFFFFFFFFFFFFFFFFFFFFFFFFFFFFFFFFFFFFFFFF AND CALLER PUSH20 0xFFFFFFFFFFFFFFFFFFFFFFFFFFFFFFFFFFFFFFFF AND EQ DUP1 PUSH2 0x2B9 JUMPI POP PUSH1 0x2 PUSH0 SWAP1 SLOAD SWAP1 PUSH2 0x100 EXP SWAP1 DIV PUSH20 0xFFFFFFFFFFFFFFFFFFFFFFFFFFFFFFFFFFFFFFFF AND PUSH20 0xFFFFFFFFFFFFFFFFFFFFFFFFFFFFFFFFFFFFFFFF AND CALLER PUSH20 0xFFFFFFFFFFFFFFFFFFFFFFFFFFFFFFFFFFFFFFFF AND EQ JUMPDEST PUSH2 0x2F8 JUMPI PUSH1 0x40 MLOAD PUSH32 0x8C379A000000000000000000000000000000000000000000000000000000000 DUP2 MSTORE PUSH1 0x4 ADD PUSH2 0x2EF SWAP1 PUSH2 0x1A93 JUMP JUMPDEST PUSH1 0x40 MLOAD DUP1 SWAP2 SUB SWAP1 REVERT JUMPDEST DUP1 PUSH1 0x2 PUSH0 PUSH2 0x100 EXP DUP2 SLOAD DUP2 PUSH20 0xFFFFFFFFFFFFFFFFFFFFFFFFFFFFFFFFFFFFFFFF MUL NOT AND SWAP1 DUP4 PUSH20 0xFFFFFFFFFFFFFFFFFFFFFFFFFFFFFFFFFFFFFFFF AND MUL OR SWAP1 SSTORE POP PUSH32 0xE00DA2178806F37F69815E9ED5ED3072EC1D55206D60916D99B469C7DAA421E4 CALLER PUSH1 0x40 MLOAD PUSH2 0x367 SWAP2 SWAP1 PUSH2 0x187D JUMP JUMPDEST PUSH1 0x40 MLOAD DUP1 SWAP2 SUB SWAP1 LOG1 POP JUMP JUMPDEST PUSH0 PUSH1 0x1 DUP1 SLOAD SWAP1 PUSH2 0x100 EXP SWAP1 DIV PUSH20 0xFFFFFFFFFFFFFFFFFFFFFFFFFFFFFFFFFFFFFFFF AND PUSH20 0xFFFFFFFFFFFFFFFFFFFFFFFFFFFFFFFFFFFFFFFF AND CALLER PUSH20 0xFFFFFFFFFFFFFFFFFFFFFFFFFFFFFFFFFFFFFFFF AND EQ DUP1 PUSH2 0x419 JUMPI POP PUSH1 0x2 PUSH0 SWAP1 SLOAD SWAP1 PUSH2 0x100 EXP SWAP1 DIV PUSH20 0xFFFFFFFFFFFFFFFFFFFFFFFFFFFFFFFFFFFFFFFF AND PUSH20 0xFFFFFFFFFFFFFFFFFFFFFFFFFFFFFFFFFFFFFFFF AND CALLER PUSH20 0xFFFFFFFFFFFFFFFFFFFFFFFFFFFFFFFFFFFFFFFF AND EQ JUMPDEST PUSH2 0x458 JUMPI PUSH1 0x40 MLOAD PUSH32 0x8C379A000000000000000000000000000000000000000000000000000000000 DUP2 MSTORE PUSH1 0x4 ADD PUSH2 0x44F SWAP1 PUSH2 0x1A93 JUMP JUMPDEST PUSH1 0x40 MLOAD DUP1 SWAP2 SUB SWAP1 REVERT JUMPDEST PUSH1 0x1 PUSH0 SWAP1 SLOAD SWAP1 PUSH2 0x100 EXP SWAP1 DIV PUSH1 0xFF AND SWAP1 POP SWAP1 JUMP JUMPDEST PUSH0 PUSH32 0xFFFFFFFFFFFFFFFFFFFFFFFFFFFFFFFFFFFFFFFFFFFFFFFFFFFFFFFFFFFFFFFF PUSH2 0x51B CALLER PUSH1 0x3 DUP1 SLOAD DUP1 PUSH1 0x20 MUL PUSH1 0x20 ADD PUSH1 0x40 MLOAD SWAP1 DUP2 ADD PUSH1 0x40 MSTORE DUP1 SWAP3 SWAP2 SWAP1 DUP2 DUP2 MSTORE PUSH1 0x20 ADD DUP3 DUP1 SLOAD DUP1 ISZERO PUSH2 0x511 JUMPI PUSH1 0x20 MUL DUP3 ADD SWAP2 SWAP1 PUSH0 MSTORE PUSH1 0x20 PUSH0 KECCAK256 SWAP1 JUMPDEST DUP2 PUSH0 SWAP1 SLOAD SWAP1 PUSH2 0x100 EXP SWAP1 DIV PUSH20 0xFFFFFFFFFFFFFFFFFFFFFFFFFFFFFFFFFFFFFFFF AND PUSH20 0xFFFFFFFFFFFFFFFFFFFFFFFFFFFFFFFFFFFFFFFF AND DUP2 MSTORE PUSH1 0x20 ADD SWAP1 PUSH1 0x1 ADD SWAP1 DUP1 DUP4 GT PUSH2 0x4C8 JUMPI JUMPDEST POP POP POP POP POP PUSH2 0x1367 JUMP JUMPDEST EQ ISZERO SWAP1 POP SWAP1 JUMP JUMPDEST PUSH1 0x1 DUP1 SLOAD SWAP1 PUSH2 0x100 EXP SWAP1 DIV PUSH20 0xFFFFFFFFFFFFFFFFFFFFFFFFFFFFFFFFFFFFFFFF AND PUSH20 0xFFFFFFFFFFFFFFFFFFFFFFFFFFFFFFFFFFFFFFFF AND CALLER PUSH20 0xFFFFFFFFFFFFFFFFFFFFFFFFFFFFFFFFFFFFFFFF AND EQ DUP1 PUSH2 0x5C8 JUMPI POP PUSH1 0x2 PUSH0 SWAP1 SLOAD SWAP1 PUSH2 0x100 EXP SWAP1 DIV PUSH20 0xFFFFFFFFFFFFFFFFFFFFFFFFFFFFFFFFFFFFFFFF AND PUSH20 0xFFFFFFFFFFFFFFFFFFFFFFFFFFFFFFFFFFFFFFFF AND CALLER PUSH20 0xFFFFFFFFFFFFFFFFFFFFFFFFFFFFFFFFFFFFFFFF AND EQ JUMPDEST PUSH2 0x607 JUMPI PUSH1 0x40 MLOAD PUSH32 0x8C379A000000000000000000000000000000000000000000000000000000000 DUP2 MSTORE PUSH1 0x4 ADD PUSH2 0x5FE SWAP1 PUSH2 0x1A93 JUMP JUMPDEST PUSH1 0x40 MLOAD DUP1 SWAP2 SUB SWAP1 REVERT JUMPDEST PUSH1 0x1 DUP1 SLOAD SWAP1 PUSH2 0x100 EXP SWAP1 DIV PUSH20 0xFFFFFFFFFFFFFFFFFFFFFFFFFFFFFFFFFFFFFFFF AND PUSH20 0xFFFFFFFFFFFFFFFFFFFFFFFFFFFFFFFFFFFFFFFF AND DUP2 PUSH20 0xFFFFFFFFFFFFFFFFFFFFFFFFFFFFFFFFFFFFFFFF AND EQ ISZERO DUP1 ISZERO PUSH2 0x68F JUMPI POP PUSH0 PUSH20 0xFFFFFFFFFFFFFFFFFFFFFFFFFFFFFFFFFFFFFFFF AND DUP2 PUSH20 0xFFFFFFFFFFFFFFFFFFFFFFFFFFFFFFFFFFFFFFFF AND EQ ISZERO JUMPDEST DUP1 ISZERO PUSH2 0x746 JUMPI POP PUSH32 0xFFFFFFFFFFFFFFFFFFFFFFFFFFFFFFFFFFFFFFFFFFFFFFFFFFFFFFFFFFFFFFFF PUSH2 0x744 DUP3 PUSH1 0x3 DUP1 SLOAD DUP1 PUSH1 0x20 MUL PUSH1 0x20 ADD PUSH1 0x40 MLOAD SWAP1 DUP2 ADD PUSH1 0x40 MSTORE DUP1 SWAP3 SWAP2 SWAP1 DUP2 DUP2 MSTORE PUSH1 0x20 ADD DUP3 DUP1 SLOAD DUP1 ISZERO PUSH2 0x73A JUMPI PUSH1 0x20 MUL DUP3 ADD SWAP2 SWAP1 PUSH0 MSTORE PUSH1 0x20 PUSH0 KECCAK256 SWAP1 JUMPDEST DUP2 PUSH0 SWAP1 SLOAD SWAP1 PUSH2 0x100 EXP SWAP1 DIV PUSH20 0xFFFFFFFFFFFFFFFFFFFFFFFFFFFFFFFFFFFFFFFF AND PUSH20 0xFFFFFFFFFFFFFFFFFFFFFFFFFFFFFFFFFFFFFFFF AND DUP2 MSTORE PUSH1 0x20 ADD SWAP1 PUSH1 0x1 ADD SWAP1 DUP1 DUP4 GT PUSH2 0x6F1 JUMPI JUMPDEST POP POP POP POP POP PUSH2 0x1367 JUMP JUMPDEST EQ JUMPDEST PUSH2 0x785 JUMPI PUSH1 0x40 MLOAD PUSH32 0x8C379A000000000000000000000000000000000000000000000000000000000 DUP2 MSTORE PUSH1 0x4 ADD PUSH2 0x77C SWAP1 PUSH2 0x1AFB JUMP JUMPDEST PUSH1 0x40 MLOAD DUP1 SWAP2 SUB SWAP1 REVERT JUMPDEST PUSH1 0x3 DUP2 SWAP1 DUP1 PUSH1 0x1 DUP2 SLOAD ADD DUP1 DUP3 SSTORE DUP1 SWAP2 POP POP PUSH1 0x1 SWAP1 SUB SWAP1 PUSH0 MSTORE PUSH1 0x20 PUSH0 KECCAK256 ADD PUSH0 SWAP1 SWAP2 SWAP1 SWAP2 SWAP1 SWAP2 PUSH2 0x100 EXP DUP2 SLOAD DUP2 PUSH20 0xFFFFFFFFFFFFFFFFFFFFFFFFFFFFFFFFFFFFFFFF MUL NOT AND SWAP1 DUP4 PUSH20 0xFFFFFFFFFFFFFFFFFFFFFFFFFFFFFFFFFFFFFFFF AND MUL OR SWAP1 SSTORE POP POP JUMP JUMPDEST PUSH1 0x1 DUP1 SLOAD SWAP1 PUSH2 0x100 EXP SWAP1 DIV PUSH20 0xFFFFFFFFFFFFFFFFFFFFFFFFFFFFFFFFFFFFFFFF AND PUSH20 0xFFFFFFFFFFFFFFFFFFFFFFFFFFFFFFFFFFFFFFFF AND CALLER PUSH20 0xFFFFFFFFFFFFFFFFFFFFFFFFFFFFFFFFFFFFFFFF AND EQ DUP1 PUSH2 0x88E JUMPI POP PUSH1 0x2 PUSH0 SWAP1 SLOAD SWAP1 PUSH2 0x100 EXP SWAP1 DIV PUSH20 0xFFFFFFFFFFFFFFFFFFFFFFFFFFFFFFFFFFFFFFFF AND PUSH20 0xFFFFFFFFFFFFFFFFFFFFFFFFFFFFFFFFFFFFFFFF AND CALLER PUSH20 0xFFFFFFFFFFFFFFFFFFFFFFFFFFFFFFFFFFFFFFFF AND EQ JUMPDEST PUSH2 0x8CD JUMPI PUSH1 0x40 MLOAD PUSH32 0x8C379A000000000000000000000000000000000000000000000000000000000 DUP2 MSTORE PUSH1 0x4 ADD PUSH2 0x8C4 SWAP1 PUSH2 0x1A93 JUMP JUMPDEST PUSH1 0x40 MLOAD DUP1 SWAP2 SUB SWAP1 REVERT JUMPDEST DUP2 PUSH0 SWAP1 DUP2 PUSH2 0x8DB SWAP2 SWAP1 PUSH2 0x1D1C JUMP JUMPDEST POP DUP1 PUSH1 0x4 SWAP1 DUP2 PUSH2 0x8EB SWAP2 SWAP1 PUSH2 0x1D1C JUMP JUMPDEST POP PUSH32 0xE00DA2178806F37F69815E9ED5ED3072EC1D55206D60916D99B469C7DAA421E4 CALLER PUSH1 0x40 MLOAD PUSH2 0x91B SWAP2 SWAP1 PUSH2 0x187D JUMP JUMPDEST PUSH1 0x40 MLOAD DUP1 SWAP2 SUB SWAP1 LOG1 POP POP JUMP JUMPDEST PUSH0 PUSH1 0x1 DUP1 SLOAD SWAP1 PUSH2 0x100 EXP SWAP1 DIV PUSH20 0xFFFFFFFFFFFFFFFFFFFFFFFFFFFFFFFFFFFFFFFF AND PUSH20 0xFFFFFFFFFFFFFFFFFFFFFFFFFFFFFFFFFFFFFFFF AND CALLER PUSH20 0xFFFFFFFFFFFFFFFFFFFFFFFFFFFFFFFFFFFFFFFF AND EQ DUP1 PUSH2 0x9CE JUMPI POP PUSH1 0x2 PUSH0 SWAP1 SLOAD SWAP1 PUSH2 0x100 EXP SWAP1 DIV PUSH20 0xFFFFFFFFFFFFFFFFFFFFFFFFFFFFFFFFFFFFFFFF AND PUSH20 0xFFFFFFFFFFFFFFFFFFFFFFFFFFFFFFFFFFFFFFFF AND CALLER PUSH20 0xFFFFFFFFFFFFFFFFFFFFFFFFFFFFFFFFFFFFFFFF AND EQ JUMPDEST PUSH2 0xA0D JUMPI PUSH1 0x40 MLOAD PUSH32 0x8C379A000000000000000000000000000000000000000000000000000000000 DUP2 MSTORE PUSH1 0x4 ADD PUSH2 0xA04 SWAP1 PUSH2 0x1A93 JUMP JUMPDEST PUSH1 0x40 MLOAD DUP1 SWAP2 SUB SWAP1 REVERT JUMPDEST PUSH1 0x2 PUSH0 SWAP1 SLOAD SWAP1 PUSH2 0x100 EXP SWAP1 DIV PUSH20 0xFFFFFFFFFFFFFFFFFFFFFFFFFFFFFFFFFFFFFFFF AND SWAP1 POP SWAP1 JUMP JUMPDEST PUSH1 0x60 PUSH1 0x1 DUP1 SLOAD SWAP1 PUSH2 0x100 EXP SWAP1 DIV PUSH20 0xFFFFFFFFFFFFFFFFFFFFFFFFFFFFFFFFFFFFFFFF AND PUSH20 0xFFFFFFFFFFFFFFFFFFFFFFFFFFFFFFFFFFFFFFFF AND CALLER PUSH20 0xFFFFFFFFFFFFFFFFFFFFFFFFFFFFFFFFFFFFFFFF AND EQ DUP1 PUSH2 0xADC JUMPI POP PUSH1 0x2 PUSH0 SWAP1 SLOAD SWAP1 PUSH2 0x100 EXP SWAP1 DIV PUSH20 0xFFFFFFFFFFFFFFFFFFFFFFFFFFFFFFFFFFFFFFFF AND PUSH20 0xFFFFFFFFFFFFFFFFFFFFFFFFFFFFFFFFFFFFFFFF AND CALLER PUSH20 0xFFFFFFFFFFFFFFFFFFFFFFFFFFFFFFFFFFFFFFFF AND EQ JUMPDEST PUSH2 0xB1B JUMPI PUSH1 0x40 MLOAD PUSH32 0x8C379A000000000000000000000000000000000000000000000000000000000 DUP2 MSTORE PUSH1 0x4 ADD PUSH2 0xB12 SWAP1 PUSH2 0x1A93 JUMP JUMPDEST PUSH1 0x40 MLOAD DUP1 SWAP2 SUB SWAP1 REVERT JUMPDEST PUSH1 0x3 DUP1 SLOAD DUP1 PUSH1 0x20 MUL PUSH1 0x20 ADD PUSH1 0x40 MLOAD SWAP1 DUP2 ADD PUSH1 0x40 MSTORE DUP1 SWAP3 SWAP2 SWAP1 DUP2 DUP2 MSTORE PUSH1 0x20 ADD DUP3 DUP1 SLOAD DUP1 ISZERO PUSH2 0xB9A JUMPI PUSH1 0x20 MUL DUP3 ADD SWAP2 SWAP1 PUSH0 MSTORE PUSH1 0x20 PUSH0 KECCAK256 SWAP1 JUMPDEST DUP2 PUSH0 SWAP1 SLOAD SWAP1 PUSH2 0x100 EXP SWAP1 DIV PUSH20 0xFFFFFFFFFFFFFFFFFFFFFFFFFFFFFFFFFFFFFFFF AND PUSH20 0xFFFFFFFFFFFFFFFFFFFFFFFFFFFFFFFFFFFFFFFF AND DUP2 MSTORE PUSH1 0x20 ADD SWAP1 PUSH1 0x1 ADD SWAP1 DUP1 DUP4 GT PUSH2 0xB51 JUMPI JUMPDEST POP POP POP POP POP SWAP1 POP SWAP1 JUMP JUMPDEST PUSH0 PUSH1 0x1 DUP1 SLOAD SWAP1 PUSH2 0x100 EXP SWAP1 DIV PUSH20 0xFFFFFFFFFFFFFFFFFFFFFFFFFFFFFFFFFFFFFFFF AND PUSH20 0xFFFFFFFFFFFFFFFFFFFFFFFFFFFFFFFFFFFFFFFF AND CALLER PUSH20 0xFFFFFFFFFFFFFFFFFFFFFFFFFFFFFFFFFFFFFFFF AND EQ DUP1 PUSH2 0xC4B JUMPI POP PUSH1 0x2 PUSH0 SWAP1 SLOAD SWAP1 PUSH2 0x100 EXP SWAP1 DIV PUSH20 0xFFFFFFFFFFFFFFFFFFFFFFFFFFFFFFFFFFFFFFFF AND PUSH20 0xFFFFFFFFFFFFFFFFFFFFFFFFFFFFFFFFFFFFFFFF AND CALLER PUSH20 0xFFFFFFFFFFFFFFFFFFFFFFFFFFFFFFFFFFFFFFFF AND EQ JUMPDEST SWAP1 POP SWAP1 JUMP JUMPDEST PUSH1 0x60 DUP1 PUSH1 0x1 DUP1 SLOAD SWAP1 PUSH2 0x100 EXP SWAP1 DIV PUSH20 0xFFFFFFFFFFFFFFFFFFFFFFFFFFFFFFFFFFFFFFFF AND PUSH20 0xFFFFFFFFFFFFFFFFFFFFFFFFFFFFFFFFFFFFFFFF AND CALLER PUSH20 0xFFFFFFFFFFFFFFFFFFFFFFFFFFFFFFFFFFFFFFFF AND EQ DUP1 PUSH2 0xD59 JUMPI POP PUSH32 0xFFFFFFFFFFFFFFFFFFFFFFFFFFFFFFFFFFFFFFFFFFFFFFFFFFFFFFFFFFFFFFFF PUSH2 0xD56 CALLER PUSH1 0x3 DUP1 SLOAD DUP1 PUSH1 0x20 MUL PUSH1 0x20 ADD PUSH1 0x40 MLOAD SWAP1 DUP2 ADD PUSH1 0x40 MSTORE DUP1 SWAP3 SWAP2 SWAP1 DUP2 DUP2 MSTORE PUSH1 0x20 ADD DUP3 DUP1 SLOAD DUP1 ISZERO PUSH2 0xD4C JUMPI PUSH1 0x20 MUL DUP3 ADD SWAP2 SWAP1 PUSH0 MSTORE PUSH1 0x20 PUSH0 KECCAK256 SWAP1 JUMPDEST DUP2 PUSH0 SWAP1 SLOAD SWAP1 PUSH2 0x100 EXP SWAP1 DIV PUSH20 0xFFFFFFFFFFFFFFFFFFFFFFFFFFFFFFFFFFFFFFFF AND PUSH20 0xFFFFFFFFFFFFFFFFFFFFFFFFFFFFFFFFFFFFFFFF AND DUP2 MSTORE PUSH1 0x20 ADD SWAP1 PUSH1 0x1 ADD SWAP1 DUP1 DUP4 GT PUSH2 0xD03 JUMPI JUMPDEST POP POP POP POP POP PUSH2 0x1367 JUMP JUMPDEST EQ ISZERO JUMPDEST PUSH2 0xD98 JUMPI PUSH1 0x40 MLOAD PUSH32 0x8C379A000000000000000000000000000000000000000000000000000000000 DUP2 MSTORE PUSH1 0x4 ADD PUSH2 0xD8F SWAP1 PUSH2 0x1E35 JUMP JUMPDEST PUSH1 0x40 MLOAD DUP1 SWAP2 SUB SWAP1 REVERT JUMPDEST PUSH0 PUSH1 0x4 DUP2 DUP1 SLOAD PUSH2 0xDA7 SWAP1 PUSH2 0x1B46 JUMP JUMPDEST DUP1 PUSH1 0x1F ADD PUSH1 0x20 DUP1 SWAP2 DIV MUL PUSH1 0x20 ADD PUSH1 0x40 MLOAD SWAP1 DUP2 ADD PUSH1 0x40 MSTORE DUP1 SWAP3 SWAP2 SWAP1 DUP2 DUP2 MSTORE PUSH1 0x20 ADD DUP3 DUP1 SLOAD PUSH2 0xDD3 SWAP1 PUSH2 0x1B46 JUMP JUMPDEST DUP1 ISZERO PUSH2 0xE1E JUMPI DUP1 PUSH1 0x1F LT PUSH2 0xDF5 JUMPI PUSH2 0x100 DUP1 DUP4 SLOAD DIV MUL DUP4 MSTORE SWAP2 PUSH1 0x20 ADD SWAP2 PUSH2 0xE1E JUMP JUMPDEST DUP3 ADD SWAP2 SWAP1 PUSH0 MSTORE PUSH1 0x20 PUSH0 KECCAK256 SWAP1 JUMPDEST DUP2 SLOAD DUP2 MSTORE SWAP1 PUSH1 0x1 ADD SWAP1 PUSH1 0x20 ADD DUP1 DUP4 GT PUSH2 0xE01 JUMPI DUP3 SWAP1 SUB PUSH1 0x1F AND DUP3 ADD SWAP2 JUMPDEST POP POP POP POP POP SWAP2 POP DUP1 DUP1 SLOAD PUSH2 0xE31 SWAP1 PUSH2 0x1B46 JUMP JUMPDEST DUP1 PUSH1 0x1F ADD PUSH1 0x20 DUP1 SWAP2 DIV MUL PUSH1 0x20 ADD PUSH1 0x40 MLOAD SWAP1 DUP2 ADD PUSH1 0x40 MSTORE DUP1 SWAP3 SWAP2 SWAP1 DUP2 DUP2 MSTORE PUSH1 0x20 ADD DUP3 DUP1 SLOAD PUSH2 0xE5D SWAP1 PUSH2 0x1B46 JUMP JUMPDEST DUP1 ISZERO PUSH2 0xEA8 JUMPI DUP1 PUSH1 0x1F LT PUSH2 0xE7F JUMPI PUSH2 0x100 DUP1 DUP4 SLOAD DIV MUL DUP4 MSTORE SWAP2 PUSH1 0x20 ADD SWAP2 PUSH2 0xEA8 JUMP JUMPDEST DUP3 ADD SWAP2 SWAP1 PUSH0 MSTORE PUSH1 0x20 PUSH0 KECCAK256 SWAP1 JUMPDEST DUP2 SLOAD DUP2 MSTORE SWAP1 PUSH1 0x1 ADD SWAP1 PUSH1 0x20 ADD DUP1 DUP4 GT PUSH2 0xE8B JUMPI DUP3 SWAP1 SUB PUSH1 0x1F AND DUP3 ADD SWAP2 JUMPDEST POP POP POP POP POP SWAP1 POP SWAP2 POP SWAP2 POP SWAP1 SWAP2 JUMP JUMPDEST PUSH1 0x1 DUP1 SLOAD SWAP1 PUSH2 0x100 EXP SWAP1 DIV PUSH20 0xFFFFFFFFFFFFFFFFFFFFFFFFFFFFFFFFFFFFFFFF AND PUSH20 0xFFFFFFFFFFFFFFFFFFFFFFFFFFFFFFFFFFFFFFFF AND CALLER PUSH20 0xFFFFFFFFFFFFFFFFFFFFFFFFFFFFFFFFFFFFFFFF AND EQ DUP1 PUSH2 0xF5D JUMPI POP PUSH1 0x2 PUSH0 SWAP1 SLOAD SWAP1 PUSH2 0x100 EXP SWAP1 DIV PUSH20 0xFFFFFFFFFFFFFFFFFFFFFFFFFFFFFFFFFFFFFFFF AND PUSH20 0xFFFFFFFFFFFFFFFFFFFFFFFFFFFFFFFFFFFFFFFF AND CALLER PUSH20 0xFFFFFFFFFFFFFFFFFFFFFFFFFFFFFFFFFFFFFFFF AND EQ JUMPDEST PUSH2 0xF9C JUMPI PUSH1 0x40 MLOAD PUSH32 0x8C379A000000000000000000000000000000000000000000000000000000000 DUP2 MSTORE PUSH1 0x4 ADD PUSH2 0xF93 SWAP1 PUSH2 0x1A93 JUMP JUMPDEST PUSH1 0x40 MLOAD DUP1 SWAP2 SUB SWAP1 REVERT JUMPDEST DUP1 PUSH0 SWAP1 DUP2 PUSH2 0xFAA SWAP2 SWAP1 PUSH2 0x1D1C JUMP JUMPDEST POP PUSH32 0xE00DA2178806F37F69815E9ED5ED3072EC1D55206D60916D99B469C7DAA421E4 CALLER PUSH1 0x40 MLOAD PUSH2 0xFDA SWAP2 SWAP1 PUSH2 0x187D JUMP JUMPDEST PUSH1 0x40 MLOAD DUP1 SWAP2 SUB SWAP1 LOG1 POP JUMP JUMPDEST PUSH0 PUSH20 0xFFFFFFFFFFFFFFFFFFFFFFFFFFFFFFFFFFFFFFFF AND DUP2 PUSH20 0xFFFFFFFFFFFFFFFFFFFFFFFFFFFFFFFFFFFFFFFF AND EQ ISZERO DUP1 PUSH2 0x10F8 JUMPI POP PUSH1 0x2 PUSH0 SWAP1 SLOAD SWAP1 PUSH2 0x100 EXP SWAP1 DIV PUSH20 0xFFFFFFFFFFFFFFFFFFFFFFFFFFFFFFFFFFFFFFFF AND PUSH20 0xFFFFFFFFFFFFFFFFFFFFFFFFFFFFFFFFFFFFFFFF AND CALLER PUSH20 0xFFFFFFFFFFFFFFFFFFFFFFFFFFFFFFFFFFFFFFFF AND EQ DUP1 PUSH2 0x10C1 JUMPI POP PUSH1 0x1 DUP1 SLOAD SWAP1 PUSH2 0x100 EXP SWAP1 DIV PUSH20 0xFFFFFFFFFFFFFFFFFFFFFFFFFFFFFFFFFFFFFFFF AND PUSH20 0xFFFFFFFFFFFFFFFFFFFFFFFFFFFFFFFFFFFFFFFF AND CALLER PUSH20 0xFFFFFFFFFFFFFFFFFFFFFFFFFFFFFFFFFFFFFFFF AND EQ JUMPDEST DUP1 PUSH2 0x10F7 JUMPI POP DUP1 PUSH20 0xFFFFFFFFFFFFFFFFFFFFFFFFFFFFFFFFFFFFFFFF AND CALLER PUSH20 0xFFFFFFFFFFFFFFFFFFFFFFFFFFFFFFFFFFFFFFFF AND EQ JUMPDEST JUMPDEST PUSH2 0x1137 JUMPI PUSH1 0x40 MLOAD PUSH32 0x8C379A000000000000000000000000000000000000000000000000000000000 DUP2 MSTORE PUSH1 0x4 ADD PUSH2 0x112E SWAP1 PUSH2 0x1AFB JUMP JUMPDEST PUSH1 0x40 MLOAD DUP1 SWAP2 SUB SWAP1 REVERT JUMPDEST PUSH0 PUSH2 0x11C5 DUP3 PUSH1 0x3 DUP1 SLOAD DUP1 PUSH1 0x20 MUL PUSH1 0x20 ADD PUSH1 0x40 MLOAD SWAP1 DUP2 ADD PUSH1 0x40 MSTORE DUP1 SWAP3 SWAP2 SWAP1 DUP2 DUP2 MSTORE PUSH1 0x20 ADD DUP3 DUP1 SLOAD DUP1 ISZERO PUSH2 0x11BB JUMPI PUSH1 0x20 MUL DUP3 ADD SWAP2 SWAP1 PUSH0 MSTORE PUSH1 0x20 PUSH0 KECCAK256 SWAP1 JUMPDEST DUP2 PUSH0 SWAP1 SLOAD SWAP1 PUSH2 0x100 EXP SWAP1 DIV PUSH20 0xFFFFFFFFFFFFFFFFFFFFFFFFFFFFFFFFFFFFFFFF AND PUSH20 0xFFFFFFFFFFFFFFFFFFFFFFFFFFFFFFFFFFFFFFFF AND DUP2 MSTORE PUSH1 0x20 ADD SWAP1 PUSH1 0x1 ADD SWAP1 DUP1 DUP4 GT PUSH2 0x1172 JUMPI JUMPDEST POP POP POP POP POP PUSH2 0x1367 JUMP JUMPDEST SWAP1 POP PUSH32 0xFFFFFFFFFFFFFFFFFFFFFFFFFFFFFFFFFFFFFFFFFFFFFFFFFFFFFFFFFFFFFFFF DUP2 SGT PUSH2 0x1229 JUMPI PUSH1 0x40 MLOAD PUSH32 0x8C379A000000000000000000000000000000000000000000000000000000000 DUP2 MSTORE PUSH1 0x4 ADD PUSH2 0x1220 SWAP1 PUSH2 0x1E9D JUMP JUMPDEST PUSH1 0x40 MLOAD DUP1 SWAP2 SUB SWAP1 REVERT JUMPDEST PUSH2 0x1234 DUP2 PUSH1 0x3 PUSH2 0x1404 JUMP JUMPDEST POP POP JUMP JUMPDEST PUSH1 0x1 DUP1 SLOAD SWAP1 PUSH2 0x100 EXP SWAP1 DIV PUSH20 0xFFFFFFFFFFFFFFFFFFFFFFFFFFFFFFFFFFFFFFFF AND PUSH20 0xFFFFFFFFFFFFFFFFFFFFFFFFFFFFFFFFFFFFFFFF AND CALLER PUSH20 0xFFFFFFFFFFFFFFFFFFFFFFFFFFFFFFFFFFFFFFFF AND EQ DUP1 PUSH2 0x12DE JUMPI POP PUSH1 0x2 PUSH0 SWAP1 SLOAD SWAP1 PUSH2 0x100 EXP SWAP1 DIV PUSH20 0xFFFFFFFFFFFFFFFFFFFFFFFFFFFFFFFFFFFFFFFF AND PUSH20 0xFFFFFFFFFFFFFFFFFFFFFFFFFFFFFFFFFFFFFFFF AND CALLER PUSH20 0xFFFFFFFFFFFFFFFFFFFFFFFFFFFFFFFFFFFFFFFF AND EQ JUMPDEST PUSH2 0x131D JUMPI PUSH1 0x40 MLOAD PUSH32 0x8C379A000000000000000000000000000000000000000000000000000000000 DUP2 MSTORE PUSH1 0x4 ADD PUSH2 0x1314 SWAP1 PUSH2 0x1A93 JUMP JUMPDEST PUSH1 0x40 MLOAD DUP1 SWAP2 SUB SWAP1 REVERT JUMPDEST DUP1 PUSH1 0x4 SWAP1 DUP2 PUSH2 0x132C SWAP2 SWAP1 PUSH2 0x1D1C JUMP JUMPDEST POP PUSH32 0xE00DA2178806F37F69815E9ED5ED3072EC1D55206D60916D99B469C7DAA421E4 CALLER PUSH1 0x40 MLOAD PUSH2 0x135C SWAP2 SWAP1 PUSH2 0x187D JUMP JUMPDEST PUSH1 0x40 MLOAD DUP1 SWAP2 SUB SWAP1 LOG1 POP JUMP JUMPDEST PUSH0 DUP1 PUSH0 SWAP1 POP JUMPDEST DUP3 MLOAD DUP2 LT ISZERO PUSH2 0x13D9 JUMPI DUP4 PUSH20 0xFFFFFFFFFFFFFFFFFFFFFFFFFFFFFFFFFFFFFFFF AND DUP4 DUP3 DUP2 MLOAD DUP2 LT PUSH2 0x13A0 JUMPI PUSH2 0x139F PUSH2 0x1EBB JUMP JUMPDEST JUMPDEST PUSH1 0x20 MUL PUSH1 0x20 ADD ADD MLOAD PUSH20 0xFFFFFFFFFFFFFFFFFFFFFFFFFFFFFFFFFFFFFFFF AND SUB PUSH2 0x13CC JUMPI DUP1 SWAP2 POP POP PUSH2 0x13FE JUMP JUMPDEST DUP1 DUP1 PUSH1 0x1 ADD SWAP2 POP POP PUSH2 0x136D JUMP JUMPDEST POP PUSH32 0xFFFFFFFFFFFFFFFFFFFFFFFFFFFFFFFFFFFFFFFFFFFFFFFFFFFFFFFFFFFFFFFF SWAP1 POP JUMPDEST SWAP3 SWAP2 POP POP JUMP JUMPDEST PUSH0 DUP3 SLT ISZERO DUP1 ISZERO PUSH2 0x1417 JUMPI POP DUP1 DUP1 SLOAD SWAP1 POP DUP3 LT JUMPDEST PUSH2 0x1456 JUMPI PUSH1 0x40 MLOAD PUSH32 0x8C379A000000000000000000000000000000000000000000000000000000000 DUP2 MSTORE PUSH1 0x4 ADD PUSH2 0x144D SWAP1 PUSH2 0x1F32 JUMP JUMPDEST PUSH1 0x40 MLOAD DUP1 SWAP2 SUB SWAP1 REVERT JUMPDEST PUSH0 DUP3 SWAP1 POP JUMPDEST PUSH1 0x1 DUP3 DUP1 SLOAD SWAP1 POP PUSH2 0x146C SWAP2 SWAP1 PUSH2 0x1F7D JUMP JUMPDEST DUP2 LT ISZERO PUSH2 0x151F JUMPI DUP2 PUSH1 0x1 DUP3 PUSH2 0x1481 SWAP2 SWAP1 PUSH2 0x1FB0 JUMP JUMPDEST DUP2 SLOAD DUP2 LT PUSH2 0x1492 JUMPI PUSH2 0x1491 PUSH2 0x1EBB JUMP JUMPDEST JUMPDEST SWAP1 PUSH0 MSTORE PUSH1 0x20 PUSH0 KECCAK256 ADD PUSH0 SWAP1 SLOAD SWAP1 PUSH2 0x100 EXP SWAP1 DIV PUSH20 0xFFFFFFFFFFFFFFFFFFFFFFFFFFFFFFFFFFFFFFFF AND DUP3 DUP3 DUP2 SLOAD DUP2 LT PUSH2 0x14CD JUMPI PUSH2 0x14CC PUSH2 0x1EBB JUMP JUMPDEST JUMPDEST SWAP1 PUSH0 MSTORE PUSH1 0x20 PUSH0 KECCAK256 ADD PUSH0 PUSH2 0x100 EXP DUP2 SLOAD DUP2 PUSH20 0xFFFFFFFFFFFFFFFFFFFFFFFFFFFFFFFFFFFFFFFF MUL NOT AND SWAP1 DUP4 PUSH20 0xFFFFFFFFFFFFFFFFFFFFFFFFFFFFFFFFFFFFFFFF AND MUL OR SWAP1 SSTORE POP DUP1 DUP1 PUSH1 0x1 ADD SWAP2 POP POP PUSH2 0x145B JUMP JUMPDEST POP DUP1 DUP1 SLOAD DUP1 PUSH2 0x1531 JUMPI PUSH2 0x1530 PUSH2 0x1FE3 JUMP JUMPDEST JUMPDEST PUSH1 0x1 SWAP1 SUB DUP2 DUP2 SWAP1 PUSH0 MSTORE PUSH1 0x20 PUSH0 KECCAK256 ADD PUSH0 PUSH2 0x100 EXP DUP2 SLOAD SWAP1 PUSH20 0xFFFFFFFFFFFFFFFFFFFFFFFFFFFFFFFFFFFFFFFF MUL NOT AND SWAP1 SSTORE SWAP1 SSTORE POP POP JUMP JUMPDEST PUSH0 PUSH1 0x40 MLOAD SWAP1 POP SWAP1 JUMP JUMPDEST PUSH0 DUP1 REVERT JUMPDEST PUSH0 DUP1 REVERT JUMPDEST PUSH0 PUSH20 0xFFFFFFFFFFFFFFFFFFFFFFFFFFFFFFFFFFFFFFFF DUP3 AND SWAP1 POP SWAP2 SWAP1 POP JUMP JUMPDEST PUSH0 PUSH2 0x15A1 DUP3 PUSH2 0x1578 JUMP JUMPDEST SWAP1 POP SWAP2 SWAP1 POP JUMP JUMPDEST PUSH2 0x15B1 DUP2 PUSH2 0x1597 JUMP JUMPDEST DUP2 EQ PUSH2 0x15BB JUMPI PUSH0 DUP1 REVERT JUMPDEST POP JUMP JUMPDEST PUSH0 DUP2 CALLDATALOAD SWAP1 POP PUSH2 0x15CC DUP2 PUSH2 0x15A8 JUMP JUMPDEST SWAP3 SWAP2 POP POP JUMP JUMPDEST PUSH0 PUSH1 0x20 DUP3 DUP5 SUB SLT ISZERO PUSH2 0x15E7 JUMPI PUSH2 0x15E6 PUSH2 0x1570 JUMP JUMPDEST JUMPDEST PUSH0 PUSH2 0x15F4 DUP5 DUP3 DUP6 ADD PUSH2 0x15BE JUMP JUMPDEST SWAP2 POP POP SWAP3 SWAP2 POP POP JUMP JUMPDEST PUSH32 0x4E487B7100000000000000000000000000000000000000000000000000000000 PUSH0 MSTORE PUSH1 0x21 PUSH1 0x4 MSTORE PUSH1 0x24 PUSH0 REVERT JUMPDEST PUSH1 0x4 DUP2 LT PUSH2 0x163B JUMPI PUSH2 0x163A PUSH2 0x15FD JUMP JUMPDEST JUMPDEST POP JUMP JUMPDEST PUSH0 DUP2 SWAP1 POP PUSH2 0x164B DUP3 PUSH2 0x162A JUMP JUMPDEST SWAP2 SWAP1 POP JUMP JUMPDEST PUSH0 PUSH2 0x165A DUP3 PUSH2 0x163E JUMP JUMPDEST SWAP1 POP SWAP2 SWAP1 POP JUMP JUMPDEST PUSH2 0x166A DUP2 PUSH2 0x1650 JUMP JUMPDEST DUP3 MSTORE POP POP JUMP JUMPDEST PUSH0 PUSH1 0x20 DUP3 ADD SWAP1 POP PUSH2 0x1683 PUSH0 DUP4 ADD DUP5 PUSH2 0x1661 JUMP JUMPDEST SWAP3 SWAP2 POP POP JUMP JUMPDEST PUSH0 DUP2 ISZERO ISZERO SWAP1 POP SWAP2 SWAP1 POP JUMP JUMPDEST PUSH2 0x169D DUP2 PUSH2 0x1689 JUMP JUMPDEST DUP3 MSTORE POP POP JUMP JUMPDEST PUSH0 PUSH1 0x20 DUP3 ADD SWAP1 POP PUSH2 0x16B6 PUSH0 DUP4 ADD DUP5 PUSH2 0x1694 JUMP JUMPDEST SWAP3 SWAP2 POP POP JUMP JUMPDEST PUSH0 DUP1 REVERT JUMPDEST PUSH0 DUP1 REVERT JUMPDEST PUSH0 PUSH1 0x1F NOT PUSH1 0x1F DUP4 ADD AND SWAP1 POP SWAP2 SWAP1 POP JUMP JUMPDEST PUSH32 0x4E487B7100000000000000000000000000000000000000000000000000000000 PUSH0 MSTORE PUSH1 0x41 PUSH1 0x4 MSTORE PUSH1 0x24 PUSH0 REVERT JUMPDEST PUSH2 0x170A DUP3 PUSH2 0x16C4 JUMP JUMPDEST DUP2 ADD DUP2 DUP2 LT PUSH8 0xFFFFFFFFFFFFFFFF DUP3 GT OR ISZERO PUSH2 0x1729 JUMPI PUSH2 0x1728 PUSH2 0x16D4 JUMP JUMPDEST JUMPDEST DUP1 PUSH1 0x40 MSTORE POP POP POP JUMP JUMPDEST PUSH0 PUSH2 0x173B PUSH2 0x1567 JUMP JUMPDEST SWAP1 POP PUSH2 0x1747 DUP3 DUP3 PUSH2 0x1701 JUMP JUMPDEST SWAP2 SWAP1 POP JUMP JUMPDEST PUSH0 PUSH8 0xFFFFFFFFFFFFFFFF DUP3 GT ISZERO PUSH2 0x1766 JUMPI PUSH2 0x1765 PUSH2 0x16D4 JUMP JUMPDEST JUMPDEST PUSH2 0x176F DUP3 PUSH2 0x16C4 JUMP JUMPDEST SWAP1 POP PUSH1 0x20 DUP2 ADD SWAP1 POP SWAP2 SWAP1 POP JUMP JUMPDEST DUP3 DUP2 DUP4 CALLDATACOPY PUSH0 DUP4 DUP4 ADD MSTORE POP POP POP JUMP JUMPDEST PUSH0 PUSH2 0x179C PUSH2 0x1797 DUP5 PUSH2 0x174C JUMP JUMPDEST PUSH2 0x1732 JUMP JUMPDEST SWAP1 POP DUP3 DUP2 MSTORE PUSH1 0x20 DUP2 ADD DUP5 DUP5 DUP5 ADD GT ISZERO PUSH2 0x17B8 JUMPI PUSH2 0x17B7 PUSH2 0x16C0 JUMP JUMPDEST JUMPDEST PUSH2 0x17C3 DUP5 DUP3 DUP6 PUSH2 0x177C JUMP JUMPDEST POP SWAP4 SWAP3 POP POP POP JUMP JUMPDEST PUSH0 DUP3 PUSH1 0x1F DUP4 ADD SLT PUSH2 0x17DF JUMPI PUSH2 0x17DE PUSH2 0x16BC JUMP JUMPDEST JUMPDEST DUP2 CALLDATALOAD PUSH2 0x17EF DUP5 DUP3 PUSH1 0x20 DUP7 ADD PUSH2 0x178A JUMP JUMPDEST SWAP2 POP POP SWAP3 SWAP2 POP POP JUMP JUMPDEST PUSH0 DUP1 PUSH1 0x40 DUP4 DUP6 SUB SLT ISZERO PUSH2 0x180E JUMPI PUSH2 0x180D PUSH2 0x1570 JUMP JUMPDEST JUMPDEST PUSH0 DUP4 ADD CALLDATALOAD PUSH8 0xFFFFFFFFFFFFFFFF DUP2 GT ISZERO PUSH2 0x182B JUMPI PUSH2 0x182A PUSH2 0x1574 JUMP JUMPDEST JUMPDEST PUSH2 0x1837 DUP6 DUP3 DUP7 ADD PUSH2 0x17CB JUMP JUMPDEST SWAP3 POP POP PUSH1 0x20 DUP4 ADD CALLDATALOAD PUSH8 0xFFFFFFFFFFFFFFFF DUP2 GT ISZERO PUSH2 0x1858 JUMPI PUSH2 0x1857 PUSH2 0x1574 JUMP JUMPDEST JUMPDEST PUSH2 0x1864 DUP6 DUP3 DUP7 ADD PUSH2 0x17CB JUMP JUMPDEST SWAP2 POP POP SWAP3 POP SWAP3 SWAP1 POP JUMP JUMPDEST PUSH2 0x1877 DUP2 PUSH2 0x1597 JUMP JUMPDEST DUP3 MSTORE POP POP JUMP JUMPDEST PUSH0 PUSH1 0x20 DUP3 ADD SWAP1 POP PUSH2 0x1890 PUSH0 DUP4 ADD DUP5 PUSH2 0x186E JUMP JUMPDEST SWAP3 SWAP2 POP POP JUMP JUMPDEST PUSH0 DUP2 MLOAD SWAP1 POP SWAP2 SWAP1 POP JUMP JUMPDEST PUSH0 DUP3 DUP3 MSTORE PUSH1 0x20 DUP3 ADD SWAP1 POP SWAP3 SWAP2 POP POP JUMP JUMPDEST PUSH0 DUP2 SWAP1 POP PUSH1 0x20 DUP3 ADD SWAP1 POP SWAP2 SWAP1 POP JUMP JUMPDEST PUSH2 0x18C8 DUP2 PUSH2 0x1597 JUMP JUMPDEST DUP3 MSTORE POP POP JUMP JUMPDEST PUSH0 PUSH2 0x18D9 DUP4 DUP4 PUSH2 0x18BF JUMP JUMPDEST PUSH1 0x20 DUP4 ADD SWAP1 POP SWAP3 SWAP2 POP POP JUMP JUMPDEST PUSH0 PUSH1 0x20 DUP3 ADD SWAP1 POP SWAP2 SWAP1 POP JUMP JUMPDEST PUSH0 PUSH2 0x18FB DUP3 PUSH2 0x1896 JUMP JUMPDEST PUSH2 0x1905 DUP2 DUP6 PUSH2 0x18A0 JUMP JUMPDEST SWAP4 POP PUSH2 0x1910 DUP4 PUSH2 0x18B0 JUMP JUMPDEST DUP1 PUSH0 JUMPDEST DUP4 DUP2 LT ISZERO PUSH2 0x1940 JUMPI DUP2 MLOAD PUSH2 0x1927 DUP9 DUP3 PUSH2 0x18CE JUMP JUMPDEST SWAP8 POP PUSH2 0x1932 DUP4 PUSH2 0x18E5 JUMP JUMPDEST SWAP3 POP POP PUSH1 0x1 DUP2 ADD SWAP1 POP PUSH2 0x1913 JUMP JUMPDEST POP DUP6 SWAP4 POP POP POP POP SWAP3 SWAP2 POP POP JUMP JUMPDEST PUSH0 PUSH1 0x20 DUP3 ADD SWAP1 POP DUP2 DUP2 SUB PUSH0 DUP4 ADD MSTORE PUSH2 0x1965 DUP2 DUP5 PUSH2 0x18F1 JUMP JUMPDEST SWAP1 POP SWAP3 SWAP2 POP POP JUMP JUMPDEST PUSH0 DUP2 MLOAD SWAP1 POP SWAP2 SWAP1 POP JUMP JUMPDEST PUSH0 DUP3 DUP3 MSTORE PUSH1 0x20 DUP3 ADD SWAP1 POP SWAP3 SWAP2 POP POP JUMP JUMPDEST DUP3 DUP2 DUP4 MCOPY PUSH0 DUP4 DUP4 ADD MSTORE POP POP POP JUMP JUMPDEST PUSH0 PUSH2 0x199F DUP3 PUSH2 0x196D JUMP JUMPDEST PUSH2 0x19A9 DUP2 DUP6 PUSH2 0x1977 JUMP JUMPDEST SWAP4 POP PUSH2 0x19B9 DUP2 DUP6 PUSH1 0x20 DUP7 ADD PUSH2 0x1987 JUMP JUMPDEST PUSH2 0x19C2 DUP2 PUSH2 0x16C4 JUMP JUMPDEST DUP5 ADD SWAP2 POP POP SWAP3 SWAP2 POP POP JUMP JUMPDEST PUSH0 PUSH1 0x40 DUP3 ADD SWAP1 POP DUP2 DUP2 SUB PUSH0 DUP4 ADD MSTORE PUSH2 0x19E5 DUP2 DUP6 PUSH2 0x1995 JUMP JUMPDEST SWAP1 POP DUP2 DUP2 SUB PUSH1 0x20 DUP4 ADD MSTORE PUSH2 0x19F9 DUP2 DUP5 PUSH2 0x1995 JUMP JUMPDEST SWAP1 POP SWAP4 SWAP3 POP POP POP JUMP JUMPDEST PUSH0 PUSH1 0x20 DUP3 DUP5 SUB SLT ISZERO PUSH2 0x1A17 JUMPI PUSH2 0x1A16 PUSH2 0x1570 JUMP JUMPDEST JUMPDEST PUSH0 DUP3 ADD CALLDATALOAD PUSH8 0xFFFFFFFFFFFFFFFF DUP2 GT ISZERO PUSH2 0x1A34 JUMPI PUSH2 0x1A33 PUSH2 0x1574 JUMP JUMPDEST JUMPDEST PUSH2 0x1A40 DUP5 DUP3 DUP6 ADD PUSH2 0x17CB JUMP JUMPDEST SWAP2 POP POP SWAP3 SWAP2 POP POP JUMP JUMPDEST PUSH32 0x4F6E6C79206F776E657200000000000000000000000000000000000000000000 PUSH0 DUP3 ADD MSTORE POP JUMP JUMPDEST PUSH0 PUSH2 0x1A7D PUSH1 0xA DUP4 PUSH2 0x1977 JUMP JUMPDEST SWAP2 POP PUSH2 0x1A88 DUP3 PUSH2 0x1A49 JUMP JUMPDEST PUSH1 0x20 DUP3 ADD SWAP1 POP SWAP2 SWAP1 POP JUMP JUMPDEST PUSH0 PUSH1 0x20 DUP3 ADD SWAP1 POP DUP2 DUP2 SUB PUSH0 DUP4 ADD MSTORE PUSH2 0x1AAA DUP2 PUSH2 0x1A71 JUMP JUMPDEST SWAP1 POP SWAP2 SWAP1 POP JUMP JUMPDEST PUSH32 0x466F7262696464656E0000000000000000000000000000000000000000000000 PUSH0 DUP3 ADD MSTORE POP JUMP JUMPDEST PUSH0 PUSH2 0x1AE5 PUSH1 0x9 DUP4 PUSH2 0x1977 JUMP JUMPDEST SWAP2 POP PUSH2 0x1AF0 DUP3 PUSH2 0x1AB1 JUMP JUMPDEST PUSH1 0x20 DUP3 ADD SWAP1 POP SWAP2 SWAP1 POP JUMP JUMPDEST PUSH0 PUSH1 0x20 DUP3 ADD SWAP1 POP DUP2 DUP2 SUB PUSH0 DUP4 ADD MSTORE PUSH2 0x1B12 DUP2 PUSH2 0x1AD9 JUMP JUMPDEST SWAP1 POP SWAP2 SWAP1 POP JUMP JUMPDEST PUSH32 0x4E487B7100000000000000000000000000000000000000000000000000000000 PUSH0 MSTORE PUSH1 0x22 PUSH1 0x4 MSTORE PUSH1 0x24 PUSH0 REVERT JUMPDEST PUSH0 PUSH1 0x2 DUP3 DIV SWAP1 POP PUSH1 0x1 DUP3 AND DUP1 PUSH2 0x1B5D JUMPI PUSH1 0x7F DUP3 AND SWAP2 POP JUMPDEST PUSH1 0x20 DUP3 LT DUP2 SUB PUSH2 0x1B70 JUMPI PUSH2 0x1B6F PUSH2 0x1B19 JUMP JUMPDEST JUMPDEST POP SWAP2 SWAP1 POP JUMP JUMPDEST PUSH0 DUP2 SWAP1 POP DUP2 PUSH0 MSTORE PUSH1 0x20 PUSH0 KECCAK256 SWAP1 POP SWAP2 SWAP1 POP JUMP JUMPDEST PUSH0 PUSH1 0x20 PUSH1 0x1F DUP4 ADD DIV SWAP1 POP SWAP2 SWAP1 POP JUMP JUMPDEST PUSH0 DUP3 DUP3 SHL SWAP1 POP SWAP3 SWAP2 POP POP JUMP JUMPDEST PUSH0 PUSH1 0x8 DUP4 MUL PUSH2 0x1BD2 PUSH32 0xFFFFFFFFFFFFFFFFFFFFFFFFFFFFFFFFFFFFFFFFFFFFFFFFFFFFFFFFFFFFFFFF DUP3 PUSH2 0x1B97 JUMP JUMPDEST PUSH2 0x1BDC DUP7 DUP4 PUSH2 0x1B97 JUMP JUMPDEST SWAP6 POP DUP1 NOT DUP5 AND SWAP4 POP DUP1 DUP7 AND DUP5 OR SWAP3 POP POP POP SWAP4 SWAP3 POP POP POP JUMP JUMPDEST PUSH0 DUP2 SWAP1 POP SWAP2 SWAP1 POP JUMP JUMPDEST PUSH0 DUP2 SWAP1 POP SWAP2 SWAP1 POP JUMP JUMPDEST PUSH0 PUSH2 0x1C20 PUSH2 0x1C1B PUSH2 0x1C16 DUP5 PUSH2 0x1BF4 JUMP JUMPDEST PUSH2 0x1BFD JUMP JUMPDEST PUSH2 0x1BF4 JUMP JUMPDEST SWAP1 POP SWAP2 SWAP1 POP JUMP JUMPDEST PUSH0 DUP2 SWAP1 POP SWAP2 SWAP1 POP JUMP JUMPDEST PUSH2 0x1C39 DUP4 PUSH2 0x1C06 JUMP JUMPDEST PUSH2 0x1C4D PUSH2 0x1C45 DUP3 PUSH2 0x1C27 JUMP JUMPDEST DUP5 DUP5 SLOAD PUSH2 0x1BA3 JUMP JUMPDEST DUP3 SSTORE POP POP POP POP JUMP JUMPDEST PUSH0 SWAP1 JUMP JUMPDEST PUSH2 0x1C61 PUSH2 0x1C55 JUMP JUMPDEST PUSH2 0x1C6C DUP2 DUP5 DUP5 PUSH2 0x1C30 JUMP JUMPDEST POP POP POP JUMP JUMPDEST JUMPDEST DUP2 DUP2 LT ISZERO PUSH2 0x1C8F JUMPI PUSH2 0x1C84 PUSH0 DUP3 PUSH2 0x1C59 JUMP JUMPDEST PUSH1 0x1 DUP2 ADD SWAP1 POP PUSH2 0x1C72 JUMP JUMPDEST POP POP JUMP JUMPDEST PUSH1 0x1F DUP3 GT ISZERO PUSH2 0x1CD4 JUMPI PUSH2 0x1CA5 DUP2 PUSH2 0x1B76 JUMP JUMPDEST PUSH2 0x1CAE DUP5 PUSH2 0x1B88 JUMP JUMPDEST DUP2 ADD PUSH1 0x20 DUP6 LT ISZERO PUSH2 0x1CBD JUMPI DUP2 SWAP1 POP JUMPDEST PUSH2 0x1CD1 PUSH2 0x1CC9 DUP6 PUSH2 0x1B88 JUMP JUMPDEST DUP4 ADD DUP3 PUSH2 0x1C71 JUMP JUMPDEST POP POP JUMPDEST POP POP POP JUMP JUMPDEST PUSH0 DUP3 DUP3 SHR SWAP1 POP SWAP3 SWAP2 POP POP JUMP JUMPDEST PUSH0 PUSH2 0x1CF4 PUSH0 NOT DUP5 PUSH1 0x8 MUL PUSH2 0x1CD9 JUMP JUMPDEST NOT DUP1 DUP4 AND SWAP2 POP POP SWAP3 SWAP2 POP POP JUMP JUMPDEST PUSH0 PUSH2 0x1D0C DUP4 DUP4 PUSH2 0x1CE5 JUMP JUMPDEST SWAP2 POP DUP3 PUSH1 0x2 MUL DUP3 OR SWAP1 POP SWAP3 SWAP2 POP POP JUMP JUMPDEST PUSH2 0x1D25 DUP3 PUSH2 0x196D JUMP JUMPDEST PUSH8 0xFFFFFFFFFFFFFFFF DUP2 GT ISZERO PUSH2 0x1D3E JUMPI PUSH2 0x1D3D PUSH2 0x16D4 JUMP JUMPDEST JUMPDEST PUSH2 0x1D48 DUP3 SLOAD PUSH2 0x1B46 JUMP JUMPDEST PUSH2 0x1D53 DUP3 DUP3 DUP6 PUSH2 0x1C93 JUMP JUMPDEST PUSH0 PUSH1 0x20 SWAP1 POP PUSH1 0x1F DUP4 GT PUSH1 0x1 DUP2 EQ PUSH2 0x1D84 JUMPI PUSH0 DUP5 ISZERO PUSH2 0x1D72 JUMPI DUP3 DUP8 ADD MLOAD SWAP1 POP JUMPDEST PUSH2 0x1D7C DUP6 DUP3 PUSH2 0x1D01 JUMP JUMPDEST DUP7 SSTORE POP PUSH2 0x1DE3 JUMP JUMPDEST PUSH1 0x1F NOT DUP5 AND PUSH2 0x1D92 DUP7 PUSH2 0x1B76 JUMP JUMPDEST PUSH0 JUMPDEST DUP3 DUP2 LT ISZERO PUSH2 0x1DB9 JUMPI DUP5 DUP10 ADD MLOAD DUP3 SSTORE PUSH1 0x1 DUP3 ADD SWAP2 POP PUSH1 0x20 DUP6 ADD SWAP5 POP PUSH1 0x20 DUP2 ADD SWAP1 POP PUSH2 0x1D94 JUMP JUMPDEST DUP7 DUP4 LT ISZERO PUSH2 0x1DD6 JUMPI DUP5 DUP10 ADD MLOAD PUSH2 0x1DD2 PUSH1 0x1F DUP10 AND DUP3 PUSH2 0x1CE5 JUMP JUMPDEST DUP4 SSTORE POP JUMPDEST PUSH1 0x1 PUSH1 0x2 DUP9 MUL ADD DUP9 SSTORE POP POP POP JUMPDEST POP POP POP POP POP POP JUMP JUMPDEST PUSH32 0x5265737472696374000000000000000000000000000000000000000000000000 PUSH0 DUP3 ADD MSTORE POP JUMP JUMPDEST PUSH0 PUSH2 0x1E1F PUSH1 0x8 DUP4 PUSH2 0x1977 JUMP JUMPDEST SWAP2 POP PUSH2 0x1E2A DUP3 PUSH2 0x1DEB JUMP JUMPDEST PUSH1 0x20 DUP3 ADD SWAP1 POP SWAP2 SWAP1 POP JUMP JUMPDEST PUSH0 PUSH1 0x20 DUP3 ADD SWAP1 POP DUP2 DUP2 SUB PUSH0 DUP4 ADD MSTORE PUSH2 0x1E4C DUP2 PUSH2 0x1E13 JUMP JUMPDEST SWAP1 POP SWAP2 SWAP1 POP JUMP JUMPDEST PUSH32 0x4E6F7420666F756E640000000000000000000000000000000000000000000000 PUSH0 DUP3 ADD MSTORE POP JUMP JUMPDEST PUSH0 PUSH2 0x1E87 PUSH1 0x9 DUP4 PUSH2 0x1977 JUMP JUMPDEST SWAP2 POP PUSH2 0x1E92 DUP3 PUSH2 0x1E53 JUMP JUMPDEST PUSH1 0x20 DUP3 ADD SWAP1 POP SWAP2 SWAP1 POP JUMP JUMPDEST PUSH0 PUSH1 0x20 DUP3 ADD SWAP1 POP DUP2 DUP2 SUB PUSH0 DUP4 ADD MSTORE PUSH2 0x1EB4 DUP2 PUSH2 0x1E7B JUMP JUMPDEST SWAP1 POP SWAP2 SWAP1 POP JUMP JUMPDEST PUSH32 0x4E487B7100000000000000000000000000000000000000000000000000000000 PUSH0 MSTORE PUSH1 0x32 PUSH1 0x4 MSTORE PUSH1 0x24 PUSH0 REVERT JUMPDEST PUSH32 0x4E6F206964780000000000000000000000000000000000000000000000000000 PUSH0 DUP3 ADD MSTORE POP JUMP JUMPDEST PUSH0 PUSH2 0x1F1C PUSH1 0x6 DUP4 PUSH2 0x1977 JUMP JUMPDEST SWAP2 POP PUSH2 0x1F27 DUP3 PUSH2 0x1EE8 JUMP JUMPDEST PUSH1 0x20 DUP3 ADD SWAP1 POP SWAP2 SWAP1 POP JUMP JUMPDEST PUSH0 PUSH1 0x20 DUP3 ADD SWAP1 POP DUP2 DUP2 SUB PUSH0 DUP4 ADD MSTORE PUSH2 0x1F49 DUP2 PUSH2 0x1F10 JUMP JUMPDEST SWAP1 POP SWAP2 SWAP1 POP JUMP JUMPDEST PUSH32 0x4E487B7100000000000000000000000000000000000000000000000000000000 PUSH0 MSTORE PUSH1 0x11 PUSH1 0x4 MSTORE PUSH1 0x24 PUSH0 REVERT JUMPDEST PUSH0 PUSH2 0x1F87 DUP3 PUSH2 0x1BF4 JUMP JUMPDEST SWAP2 POP PUSH2 0x1F92 DUP4 PUSH2 0x1BF4 JUMP JUMPDEST SWAP3 POP DUP3 DUP3 SUB SWAP1 POP DUP2 DUP2 GT ISZERO PUSH2 0x1FAA JUMPI PUSH2 0x1FA9 PUSH2 0x1F50 JUMP JUMPDEST JUMPDEST SWAP3 SWAP2 POP POP JUMP JUMPDEST PUSH0 PUSH2 0x1FBA DUP3 PUSH2 0x1BF4 JUMP JUMPDEST SWAP2 POP PUSH2 0x1FC5 DUP4 PUSH2 0x1BF4 JUMP JUMPDEST SWAP3 POP DUP3 DUP3 ADD SWAP1 POP DUP1 DUP3 GT ISZERO PUSH2 0x1FDD JUMPI PUSH2 0x1FDC PUSH2 0x1F50 JUMP JUMPDEST JUMPDEST SWAP3 SWAP2 POP POP JUMP JUMPDEST PUSH32 0x4E487B7100000000000000000000000000000000000000000000000000000000 PUSH0 MSTORE PUSH1 0x31 PUSH1 0x4 MSTORE PUSH1 0x24 PUSH0 REVERT INVALID LOG2 PUSH5 0x6970667358 0x22 SLT KECCAK256 MLOAD DUP15 0xBC PREVRANDAO NOT EXTCODEHASH LOG0 0xDA JUMPDEST BALANCE PREVRANDAO PUSH14 0xA1F189CBBFDAE4EB56A762D84933 SSTORE COINBASE KECCAK256 0x23 DUP6 0xFC PUSH5 0x736F6C6343 STOP ADDMOD BYTE STOP CALLER "
		},
		"gasEstimates": {
			"creation": {
				"codeDepositCost": "1652400",
				"executionCost": "infinite",
				"totalCost": "infinite"
			},
			"external": {
				"expose()": "infinite",
				"getItemType()": "6975",
				"getParent()": "7017",
				"getSharedWith()": "infinite",
				"isOwn()": "4734",
				"isSharedWith()": "infinite",
				"restictFrom(address)": "infinite",
				"setCardId(string)": "infinite",
				"setItem(string,string)": "infinite",
				"setName(string)": "infinite",
				"setParent(address)": "infinite",
				"shareWith(address)": "infinite"
			}
		},
		"methodIdentifiers": {
			"expose()": "ba379e86",
			"getItemType()": "2858d3c8",
			"getParent()": "80f76021",
			"getSharedWith()": "a95264d0",
			"isOwn()": "b9daf3e2",
			"isSharedWith()": "4ba83374",
			"restictFrom(address)": "ded92dac",
			"setCardId(string)": "efd8af9f",
			"setItem(string,string)": "7a4c982e",
			"setName(string)": "c47f0027",
			"setParent(address)": "1499c592",
			"shareWith(address)": "5da6ef8d"
		}
	},
	"abi": [
		{
			"inputs": [
				{
					"internalType": "string",
					"name": "_name",
					"type": "string"
				},
				{
					"internalType": "string",
					"name": "_card_id",
					"type": "string"
				},
				{
					"internalType": "address",
					"name": "_owner",
					"type": "address"
				},
				{
					"internalType": "address",
					"name": "_parent",
					"type": "address"
				}
			],
			"stateMutability": "nonpayable",
			"type": "constructor"
		},
		{
			"anonymous": false,
			"inputs": [
				{
					"indexed": false,
					"internalType": "address",
					"name": "",
					"type": "address"
				}
			],
			"name": "AddedToOrganisation",
			"type": "event"
		},
		{
			"anonymous": false,
			"inputs": [
				{
					"indexed": false,
					"internalType": "address",
					"name": "",
					"type": "address"
				}
			],
			"name": "Created",
			"type": "event"
		},
		{
			"anonymous": false,
			"inputs": [
				{
					"indexed": false,
					"internalType": "address",
					"name": "",
					"type": "address"
				}
			],
			"name": "RemovedFromOrganisation",
			"type": "event"
		},
		{
			"anonymous": false,
			"inputs": [
				{
					"indexed": false,
					"internalType": "address",
					"name": "",
					"type": "address"
				}
			],
			"name": "Updated",
			"type": "event"
		},
		{
			"inputs": [],
			"name": "expose",
			"outputs": [
				{
					"internalType": "string",
					"name": "",
					"type": "string"
				},
				{
					"internalType": "string",
					"name": "",
					"type": "string"
				}
			],
			"stateMutability": "view",
			"type": "function"
		},
		{
			"inputs": [],
			"name": "getItemType",
			"outputs": [
				{
					"internalType": "enum Constants.ItemType",
					"name": "",
					"type": "uint8"
				}
			],
			"stateMutability": "view",
			"type": "function"
		},
		{
			"inputs": [],
			"name": "getParent",
			"outputs": [
				{
					"internalType": "address",
					"name": "",
					"type": "address"
				}
			],
			"stateMutability": "view",
			"type": "function"
		},
		{
			"inputs": [],
			"name": "getSharedWith",
			"outputs": [
				{
					"internalType": "address[]",
					"name": "",
					"type": "address[]"
				}
			],
			"stateMutability": "view",
			"type": "function"
		},
		{
			"inputs": [],
			"name": "isOwn",
			"outputs": [
				{
					"internalType": "bool",
					"name": "",
					"type": "bool"
				}
			],
			"stateMutability": "view",
			"type": "function"
		},
		{
			"inputs": [],
			"name": "isSharedWith",
			"outputs": [
				{
					"internalType": "bool",
					"name": "",
					"type": "bool"
				}
			],
			"stateMutability": "view",
			"type": "function"
		},
		{
			"inputs": [
				{
					"internalType": "address",
					"name": "_f",
					"type": "address"
				}
			],
			"name": "restictFrom",
			"outputs": [],
			"stateMutability": "nonpayable",
			"type": "function"
		},
		{
			"inputs": [
				{
					"internalType": "string",
					"name": "_c_id",
					"type": "string"
				}
			],
			"name": "setCardId",
			"outputs": [],
			"stateMutability": "nonpayable",
			"type": "function"
		},
		{
			"inputs": [
				{
					"internalType": "string",
					"name": "_n",
					"type": "string"
				},
				{
					"internalType": "string",
					"name": "_c_id",
					"type": "string"
				}
			],
			"name": "setItem",
			"outputs": [],
			"stateMutability": "nonpayable",
			"type": "function"
		},
		{
			"inputs": [
				{
					"internalType": "string",
					"name": "_n",
					"type": "string"
				}
			],
			"name": "setName",
			"outputs": [],
			"stateMutability": "nonpayable",
			"type": "function"
		},
		{
			"inputs": [
				{
					"internalType": "address",
					"name": "_p",
					"type": "address"
				}
			],
			"name": "setParent",
			"outputs": [],
			"stateMutability": "nonpayable",
			"type": "function"
		},
		{
			"inputs": [
				{
					"internalType": "address",
					"name": "_w",
					"type": "address"
				}
			],
			"name": "shareWith",
			"outputs": [],
			"stateMutability": "nonpayable",
			"type": "function"
		}
	]
}