{
	"data": {
		"bytecode": {
			"linkReferences": {},
			"object": "608060405234801561000f575f80fd5b50604051610f53380380610f5383398101604081905261002e916101b8565b85600283835f61003e8582610316565b506001805484919060ff19168183600281111561005d5761005d6103d0565b021790555060018054610100600160a81b0319166101006001600160a01b0394851602179055600280546001600160a01b0319169190921617905550600390506100a78682610316565b5060046100b48582610316565b5060056100c18482610316565b506040513381527f1449abf21e49fd025f33495e77f7b1461caefdd3d4bb646424a3f445c4576a5b9060200160405180910390a15050505050506103e4565b634e487b7160e01b5f52604160045260245ffd5b5f82601f830112610123575f80fd5b81516001600160401b0381111561013c5761013c610100565b604051601f8201601f19908116603f011681016001600160401b038111828210171561016a5761016a610100565b604052818152838201602001851015610181575f80fd5b8160208501602083015e5f918101602001919091529392505050565b80516001600160a01b03811681146101b3575f80fd5b919050565b5f805f805f8060c087890312156101cd575f80fd5b86516001600160401b038111156101e2575f80fd5b6101ee89828a01610114565b602089015190975090506001600160401b0381111561020b575f80fd5b61021789828a01610114565b604089015190965090506001600160401b03811115610234575f80fd5b61024089828a01610114565b606089015190955090506001600160401b0381111561025d575f80fd5b61026989828a01610114565b9350506102786080880161019d565b915061028660a0880161019d565b90509295509295509295565b600181811c908216806102a657607f821691505b6020821081036102c457634e487b7160e01b5f52602260045260245ffd5b50919050565b601f82111561031157805f5260205f20601f840160051c810160208510156102ef5750805b601f840160051c820191505b8181101561030e575f81556001016102fb565b50505b505050565b81516001600160401b0381111561032f5761032f610100565b6103438161033d8454610292565b846102ca565b6020601f821160018114610375575f831561035e5750848201515b5f19600385901b1c1916600184901b17845561030e565b5f84815260208120601f198516915b828110156103a45787850151825560209485019460019092019101610384565b50848210156103c157868401515f19600387901b60f8161c191681555b50505050600190811b01905550565b634e487b7160e01b5f52602160045260245ffd5b610b62806103f15f395ff3fe608060405234801561000f575f80fd5b5060043610610090575f3560e01c80632b5914fe116100635780632b5914fe146100ed57806380f7602114610100578063ac0344e614610120578063ba379e8614610133578063c47f00271461014b575f80fd5b80631499c59214610094578063252498a2146100a95780632858d3c8146100bc578063290bb453146100da575b5f80fd5b6100a76100a236600461075f565b61015e565b005b6100a76100b736600461082b565b6101fd565b6100c461027e565b6040516100d19190610865565b60405180910390f35b6100a76100e836600461082b565b6102ce565b6100a76100fb36600461082b565b61031e565b61010861036e565b6040516001600160a01b0390911681526020016100d1565b6100a761012e36600461088b565b6103c4565b61013b610474565b6040516100d19493929190610972565b6100a761015936600461082b565b610710565b60015461010090046001600160a01b031633148061018657506002546001600160a01b031633145b6101ab5760405162461bcd60e51b81526004016101a2906109c9565b60405180910390fd5b600280546001600160a01b0319166001600160a01b0383161790556040513381527fe00da2178806f37f69815e9ed5ed3072ec1d55206d60916d99b469c7daa421e4906020015b60405180910390a150565b60015461010090046001600160a01b031633148061022557506002546001600160a01b031633145b6102415760405162461bcd60e51b81526004016101a2906109c9565b600361024d8282610a71565b506040513381527fe00da2178806f37f69815e9ed5ed3072ec1d55206d60916d99b469c7daa421e4906020016101f2565b6001545f9061010090046001600160a01b03163314806102a857506002546001600160a01b031633145b6102c45760405162461bcd60e51b81526004016101a2906109c9565b5060015460ff1690565b60015461010090046001600160a01b03163314806102f657506002546001600160a01b031633145b6103125760405162461bcd60e51b81526004016101a2906109c9565b600561024d8282610a71565b60015461010090046001600160a01b031633148061034657506002546001600160a01b031633145b6103625760405162461bcd60e51b81526004016101a2906109c9565b600461024d8282610a71565b6001545f9061010090046001600160a01b031633148061039857506002546001600160a01b031633145b6103b45760405162461bcd60e51b81526004016101a2906109c9565b506002546001600160a01b031690565b60015461010090046001600160a01b03163314806103ec57506002546001600160a01b031633145b6104085760405162461bcd60e51b81526004016101a2906109c9565b5f6104138582610a71565b5060036104208482610a71565b50600461042d8382610a71565b50600561043a8282610a71565b506040513381527fe00da2178806f37f69815e9ed5ed3072ec1d55206d60916d99b469c7daa421e49060200160405180910390a150505050565b60608060608060018054906101000a90046001600160a01b03166001600160a01b0316336001600160a01b031614806104b757506002546001600160a01b031633145b6104d35760405162461bcd60e51b81526004016101a2906109c9565b5f6003600460058380546104e6906109ed565b80601f0160208091040260200160405190810160405280929190818152602001828054610512906109ed565b801561055d5780601f106105345761010080835404028352916020019161055d565b820191905f5260205f20905b81548152906001019060200180831161054057829003601f168201915b50505050509350828054610570906109ed565b80601f016020809104026020016040519081016040528092919081815260200182805461059c906109ed565b80156105e75780601f106105be576101008083540402835291602001916105e7565b820191905f5260205f20905b8154815290600101906020018083116105ca57829003601f168201915b505050505092508180546105fa906109ed565b80601f0160208091040260200160405190810160405280929190818152602001828054610626906109ed565b80156106715780601f1061064857610100808354040283529160200191610671565b820191905f5260205f20905b81548152906001019060200180831161065457829003601f168201915b50505050509150808054610684906109ed565b80601f01602080910402602001604051908101604052809291908181526020018280546106b0906109ed565b80156106fb5780601f106106d2576101008083540402835291602001916106fb565b820191905f5260205f20905b8154815290600101906020018083116106de57829003601f168201915b50505050509050935093509350935090919293565b60015461010090046001600160a01b031633148061073857506002546001600160a01b031633145b6107545760405162461bcd60e51b81526004016101a2906109c9565b5f61024d8282610a71565b5f6020828403121561076f575f80fd5b81356001600160a01b0381168114610785575f80fd5b9392505050565b634e487b7160e01b5f52604160045260245ffd5b5f82601f8301126107af575f80fd5b813567ffffffffffffffff8111156107c9576107c961078c565b604051601f8201601f19908116603f0116810167ffffffffffffffff811182821017156107f8576107f861078c565b60405281815283820160200185101561080f575f80fd5b816020850160208301375f918101602001919091529392505050565b5f6020828403121561083b575f80fd5b813567ffffffffffffffff811115610851575f80fd5b61085d848285016107a0565b949350505050565b602081016003831061088557634e487b7160e01b5f52602160045260245ffd5b91905290565b5f805f806080858703121561089e575f80fd5b843567ffffffffffffffff8111156108b4575f80fd5b6108c0878288016107a0565b945050602085013567ffffffffffffffff8111156108dc575f80fd5b6108e8878288016107a0565b935050604085013567ffffffffffffffff811115610904575f80fd5b610910878288016107a0565b925050606085013567ffffffffffffffff81111561092c575f80fd5b610938878288016107a0565b91505092959194509250565b5f81518084528060208401602086015e5f602082860101526020601f19601f83011685010191505092915050565b608081525f6109846080830187610944565b82810360208401526109968187610944565b905082810360408401526109aa8186610944565b905082810360608401526109be8185610944565b979650505050505050565b6020808252600a908201526927b7363c9037bbb732b960b11b604082015260600190565b600181811c90821680610a0157607f821691505b602082108103610a1f57634e487b7160e01b5f52602260045260245ffd5b50919050565b601f821115610a6c57805f5260205f20601f840160051c81016020851015610a4a5750805b601f840160051c820191505b81811015610a69575f8155600101610a56565b50505b505050565b815167ffffffffffffffff811115610a8b57610a8b61078c565b610a9f81610a9984546109ed565b84610a25565b6020601f821160018114610ad1575f8315610aba5750848201515b5f19600385901b1c1916600184901b178455610a69565b5f84815260208120601f198516915b82811015610b005787850151825560209485019460019092019101610ae0565b5084821015610b1d57868401515f19600387901b60f8161c191681555b50505050600190811b0190555056fea264697066735822122089b0d56be9f9726de8b9a64ecbd3e616b7d396f52c7d588f80bc27a659e8729d64736f6c634300081a0033",
			"opcodes": "PUSH1 0x80 PUSH1 0x40 MSTORE CALLVALUE DUP1 ISZERO PUSH2 0xF JUMPI PUSH0 DUP1 REVERT JUMPDEST POP PUSH1 0x40 MLOAD PUSH2 0xF53 CODESIZE SUB DUP1 PUSH2 0xF53 DUP4 CODECOPY DUP2 ADD PUSH1 0x40 DUP2 SWAP1 MSTORE PUSH2 0x2E SWAP2 PUSH2 0x1B8 JUMP JUMPDEST DUP6 PUSH1 0x2 DUP4 DUP4 PUSH0 PUSH2 0x3E DUP6 DUP3 PUSH2 0x316 JUMP JUMPDEST POP PUSH1 0x1 DUP1 SLOAD DUP5 SWAP2 SWAP1 PUSH1 0xFF NOT AND DUP2 DUP4 PUSH1 0x2 DUP2 GT ISZERO PUSH2 0x5D JUMPI PUSH2 0x5D PUSH2 0x3D0 JUMP JUMPDEST MUL OR SWAP1 SSTORE POP PUSH1 0x1 DUP1 SLOAD PUSH2 0x100 PUSH1 0x1 PUSH1 0xA8 SHL SUB NOT AND PUSH2 0x100 PUSH1 0x1 PUSH1 0x1 PUSH1 0xA0 SHL SUB SWAP5 DUP6 AND MUL OR SWAP1 SSTORE PUSH1 0x2 DUP1 SLOAD PUSH1 0x1 PUSH1 0x1 PUSH1 0xA0 SHL SUB NOT AND SWAP2 SWAP1 SWAP3 AND OR SWAP1 SSTORE POP PUSH1 0x3 SWAP1 POP PUSH2 0xA7 DUP7 DUP3 PUSH2 0x316 JUMP JUMPDEST POP PUSH1 0x4 PUSH2 0xB4 DUP6 DUP3 PUSH2 0x316 JUMP JUMPDEST POP PUSH1 0x5 PUSH2 0xC1 DUP5 DUP3 PUSH2 0x316 JUMP JUMPDEST POP PUSH1 0x40 MLOAD CALLER DUP2 MSTORE PUSH32 0x1449ABF21E49FD025F33495E77F7B1461CAEFDD3D4BB646424A3F445C4576A5B SWAP1 PUSH1 0x20 ADD PUSH1 0x40 MLOAD DUP1 SWAP2 SUB SWAP1 LOG1 POP POP POP POP POP POP PUSH2 0x3E4 JUMP JUMPDEST PUSH4 0x4E487B71 PUSH1 0xE0 SHL PUSH0 MSTORE PUSH1 0x41 PUSH1 0x4 MSTORE PUSH1 0x24 PUSH0 REVERT JUMPDEST PUSH0 DUP3 PUSH1 0x1F DUP4 ADD SLT PUSH2 0x123 JUMPI PUSH0 DUP1 REVERT JUMPDEST DUP2 MLOAD PUSH1 0x1 PUSH1 0x1 PUSH1 0x40 SHL SUB DUP2 GT ISZERO PUSH2 0x13C JUMPI PUSH2 0x13C PUSH2 0x100 JUMP JUMPDEST PUSH1 0x40 MLOAD PUSH1 0x1F DUP3 ADD PUSH1 0x1F NOT SWAP1 DUP2 AND PUSH1 0x3F ADD AND DUP2 ADD PUSH1 0x1 PUSH1 0x1 PUSH1 0x40 SHL SUB DUP2 GT DUP3 DUP3 LT OR ISZERO PUSH2 0x16A JUMPI PUSH2 0x16A PUSH2 0x100 JUMP JUMPDEST PUSH1 0x40 MSTORE DUP2 DUP2 MSTORE DUP4 DUP3 ADD PUSH1 0x20 ADD DUP6 LT ISZERO PUSH2 0x181 JUMPI PUSH0 DUP1 REVERT JUMPDEST DUP2 PUSH1 0x20 DUP6 ADD PUSH1 0x20 DUP4 ADD MCOPY PUSH0 SWAP2 DUP2 ADD PUSH1 0x20 ADD SWAP2 SWAP1 SWAP2 MSTORE SWAP4 SWAP3 POP POP POP JUMP JUMPDEST DUP1 MLOAD PUSH1 0x1 PUSH1 0x1 PUSH1 0xA0 SHL SUB DUP2 AND DUP2 EQ PUSH2 0x1B3 JUMPI PUSH0 DUP1 REVERT JUMPDEST SWAP2 SWAP1 POP JUMP JUMPDEST PUSH0 DUP1 PUSH0 DUP1 PUSH0 DUP1 PUSH1 0xC0 DUP8 DUP10 SUB SLT ISZERO PUSH2 0x1CD JUMPI PUSH0 DUP1 REVERT JUMPDEST DUP7 MLOAD PUSH1 0x1 PUSH1 0x1 PUSH1 0x40 SHL SUB DUP2 GT ISZERO PUSH2 0x1E2 JUMPI PUSH0 DUP1 REVERT JUMPDEST PUSH2 0x1EE DUP10 DUP3 DUP11 ADD PUSH2 0x114 JUMP JUMPDEST PUSH1 0x20 DUP10 ADD MLOAD SWAP1 SWAP8 POP SWAP1 POP PUSH1 0x1 PUSH1 0x1 PUSH1 0x40 SHL SUB DUP2 GT ISZERO PUSH2 0x20B JUMPI PUSH0 DUP1 REVERT JUMPDEST PUSH2 0x217 DUP10 DUP3 DUP11 ADD PUSH2 0x114 JUMP JUMPDEST PUSH1 0x40 DUP10 ADD MLOAD SWAP1 SWAP7 POP SWAP1 POP PUSH1 0x1 PUSH1 0x1 PUSH1 0x40 SHL SUB DUP2 GT ISZERO PUSH2 0x234 JUMPI PUSH0 DUP1 REVERT JUMPDEST PUSH2 0x240 DUP10 DUP3 DUP11 ADD PUSH2 0x114 JUMP JUMPDEST PUSH1 0x60 DUP10 ADD MLOAD SWAP1 SWAP6 POP SWAP1 POP PUSH1 0x1 PUSH1 0x1 PUSH1 0x40 SHL SUB DUP2 GT ISZERO PUSH2 0x25D JUMPI PUSH0 DUP1 REVERT JUMPDEST PUSH2 0x269 DUP10 DUP3 DUP11 ADD PUSH2 0x114 JUMP JUMPDEST SWAP4 POP POP PUSH2 0x278 PUSH1 0x80 DUP9 ADD PUSH2 0x19D JUMP JUMPDEST SWAP2 POP PUSH2 0x286 PUSH1 0xA0 DUP9 ADD PUSH2 0x19D JUMP JUMPDEST SWAP1 POP SWAP3 SWAP6 POP SWAP3 SWAP6 POP SWAP3 SWAP6 JUMP JUMPDEST PUSH1 0x1 DUP2 DUP2 SHR SWAP1 DUP3 AND DUP1 PUSH2 0x2A6 JUMPI PUSH1 0x7F DUP3 AND SWAP2 POP JUMPDEST PUSH1 0x20 DUP3 LT DUP2 SUB PUSH2 0x2C4 JUMPI PUSH4 0x4E487B71 PUSH1 0xE0 SHL PUSH0 MSTORE PUSH1 0x22 PUSH1 0x4 MSTORE PUSH1 0x24 PUSH0 REVERT JUMPDEST POP SWAP2 SWAP1 POP JUMP JUMPDEST PUSH1 0x1F DUP3 GT ISZERO PUSH2 0x311 JUMPI DUP1 PUSH0 MSTORE PUSH1 0x20 PUSH0 KECCAK256 PUSH1 0x1F DUP5 ADD PUSH1 0x5 SHR DUP2 ADD PUSH1 0x20 DUP6 LT ISZERO PUSH2 0x2EF JUMPI POP DUP1 JUMPDEST PUSH1 0x1F DUP5 ADD PUSH1 0x5 SHR DUP3 ADD SWAP2 POP JUMPDEST DUP2 DUP2 LT ISZERO PUSH2 0x30E JUMPI PUSH0 DUP2 SSTORE PUSH1 0x1 ADD PUSH2 0x2FB JUMP JUMPDEST POP POP JUMPDEST POP POP POP JUMP JUMPDEST DUP2 MLOAD PUSH1 0x1 PUSH1 0x1 PUSH1 0x40 SHL SUB DUP2 GT ISZERO PUSH2 0x32F JUMPI PUSH2 0x32F PUSH2 0x100 JUMP JUMPDEST PUSH2 0x343 DUP2 PUSH2 0x33D DUP5 SLOAD PUSH2 0x292 JUMP JUMPDEST DUP5 PUSH2 0x2CA JUMP JUMPDEST PUSH1 0x20 PUSH1 0x1F DUP3 GT PUSH1 0x1 DUP2 EQ PUSH2 0x375 JUMPI PUSH0 DUP4 ISZERO PUSH2 0x35E JUMPI POP DUP5 DUP3 ADD MLOAD JUMPDEST PUSH0 NOT PUSH1 0x3 DUP6 SWAP1 SHL SHR NOT AND PUSH1 0x1 DUP5 SWAP1 SHL OR DUP5 SSTORE PUSH2 0x30E JUMP JUMPDEST PUSH0 DUP5 DUP2 MSTORE PUSH1 0x20 DUP2 KECCAK256 PUSH1 0x1F NOT DUP6 AND SWAP2 JUMPDEST DUP3 DUP2 LT ISZERO PUSH2 0x3A4 JUMPI DUP8 DUP6 ADD MLOAD DUP3 SSTORE PUSH1 0x20 SWAP5 DUP6 ADD SWAP5 PUSH1 0x1 SWAP1 SWAP3 ADD SWAP2 ADD PUSH2 0x384 JUMP JUMPDEST POP DUP5 DUP3 LT ISZERO PUSH2 0x3C1 JUMPI DUP7 DUP5 ADD MLOAD PUSH0 NOT PUSH1 0x3 DUP8 SWAP1 SHL PUSH1 0xF8 AND SHR NOT AND DUP2 SSTORE JUMPDEST POP POP POP POP PUSH1 0x1 SWAP1 DUP2 SHL ADD SWAP1 SSTORE POP JUMP JUMPDEST PUSH4 0x4E487B71 PUSH1 0xE0 SHL PUSH0 MSTORE PUSH1 0x21 PUSH1 0x4 MSTORE PUSH1 0x24 PUSH0 REVERT JUMPDEST PUSH2 0xB62 DUP1 PUSH2 0x3F1 PUSH0 CODECOPY PUSH0 RETURN INVALID PUSH1 0x80 PUSH1 0x40 MSTORE CALLVALUE DUP1 ISZERO PUSH2 0xF JUMPI PUSH0 DUP1 REVERT JUMPDEST POP PUSH1 0x4 CALLDATASIZE LT PUSH2 0x90 JUMPI PUSH0 CALLDATALOAD PUSH1 0xE0 SHR DUP1 PUSH4 0x2B5914FE GT PUSH2 0x63 JUMPI DUP1 PUSH4 0x2B5914FE EQ PUSH2 0xED JUMPI DUP1 PUSH4 0x80F76021 EQ PUSH2 0x100 JUMPI DUP1 PUSH4 0xAC0344E6 EQ PUSH2 0x120 JUMPI DUP1 PUSH4 0xBA379E86 EQ PUSH2 0x133 JUMPI DUP1 PUSH4 0xC47F0027 EQ PUSH2 0x14B JUMPI PUSH0 DUP1 REVERT JUMPDEST DUP1 PUSH4 0x1499C592 EQ PUSH2 0x94 JUMPI DUP1 PUSH4 0x252498A2 EQ PUSH2 0xA9 JUMPI DUP1 PUSH4 0x2858D3C8 EQ PUSH2 0xBC JUMPI DUP1 PUSH4 0x290BB453 EQ PUSH2 0xDA JUMPI JUMPDEST PUSH0 DUP1 REVERT JUMPDEST PUSH2 0xA7 PUSH2 0xA2 CALLDATASIZE PUSH1 0x4 PUSH2 0x75F JUMP JUMPDEST PUSH2 0x15E JUMP JUMPDEST STOP JUMPDEST PUSH2 0xA7 PUSH2 0xB7 CALLDATASIZE PUSH1 0x4 PUSH2 0x82B JUMP JUMPDEST PUSH2 0x1FD JUMP JUMPDEST PUSH2 0xC4 PUSH2 0x27E JUMP JUMPDEST PUSH1 0x40 MLOAD PUSH2 0xD1 SWAP2 SWAP1 PUSH2 0x865 JUMP JUMPDEST PUSH1 0x40 MLOAD DUP1 SWAP2 SUB SWAP1 RETURN JUMPDEST PUSH2 0xA7 PUSH2 0xE8 CALLDATASIZE PUSH1 0x4 PUSH2 0x82B JUMP JUMPDEST PUSH2 0x2CE JUMP JUMPDEST PUSH2 0xA7 PUSH2 0xFB CALLDATASIZE PUSH1 0x4 PUSH2 0x82B JUMP JUMPDEST PUSH2 0x31E JUMP JUMPDEST PUSH2 0x108 PUSH2 0x36E JUMP JUMPDEST PUSH1 0x40 MLOAD PUSH1 0x1 PUSH1 0x1 PUSH1 0xA0 SHL SUB SWAP1 SWAP2 AND DUP2 MSTORE PUSH1 0x20 ADD PUSH2 0xD1 JUMP JUMPDEST PUSH2 0xA7 PUSH2 0x12E CALLDATASIZE PUSH1 0x4 PUSH2 0x88B JUMP JUMPDEST PUSH2 0x3C4 JUMP JUMPDEST PUSH2 0x13B PUSH2 0x474 JUMP JUMPDEST PUSH1 0x40 MLOAD PUSH2 0xD1 SWAP5 SWAP4 SWAP3 SWAP2 SWAP1 PUSH2 0x972 JUMP JUMPDEST PUSH2 0xA7 PUSH2 0x159 CALLDATASIZE PUSH1 0x4 PUSH2 0x82B JUMP JUMPDEST PUSH2 0x710 JUMP JUMPDEST PUSH1 0x1 SLOAD PUSH2 0x100 SWAP1 DIV PUSH1 0x1 PUSH1 0x1 PUSH1 0xA0 SHL SUB AND CALLER EQ DUP1 PUSH2 0x186 JUMPI POP PUSH1 0x2 SLOAD PUSH1 0x1 PUSH1 0x1 PUSH1 0xA0 SHL SUB AND CALLER EQ JUMPDEST PUSH2 0x1AB JUMPI PUSH1 0x40 MLOAD PUSH3 0x461BCD PUSH1 0xE5 SHL DUP2 MSTORE PUSH1 0x4 ADD PUSH2 0x1A2 SWAP1 PUSH2 0x9C9 JUMP JUMPDEST PUSH1 0x40 MLOAD DUP1 SWAP2 SUB SWAP1 REVERT JUMPDEST PUSH1 0x2 DUP1 SLOAD PUSH1 0x1 PUSH1 0x1 PUSH1 0xA0 SHL SUB NOT AND PUSH1 0x1 PUSH1 0x1 PUSH1 0xA0 SHL SUB DUP4 AND OR SWAP1 SSTORE PUSH1 0x40 MLOAD CALLER DUP2 MSTORE PUSH32 0xE00DA2178806F37F69815E9ED5ED3072EC1D55206D60916D99B469C7DAA421E4 SWAP1 PUSH1 0x20 ADD JUMPDEST PUSH1 0x40 MLOAD DUP1 SWAP2 SUB SWAP1 LOG1 POP JUMP JUMPDEST PUSH1 0x1 SLOAD PUSH2 0x100 SWAP1 DIV PUSH1 0x1 PUSH1 0x1 PUSH1 0xA0 SHL SUB AND CALLER EQ DUP1 PUSH2 0x225 JUMPI POP PUSH1 0x2 SLOAD PUSH1 0x1 PUSH1 0x1 PUSH1 0xA0 SHL SUB AND CALLER EQ JUMPDEST PUSH2 0x241 JUMPI PUSH1 0x40 MLOAD PUSH3 0x461BCD PUSH1 0xE5 SHL DUP2 MSTORE PUSH1 0x4 ADD PUSH2 0x1A2 SWAP1 PUSH2 0x9C9 JUMP JUMPDEST PUSH1 0x3 PUSH2 0x24D DUP3 DUP3 PUSH2 0xA71 JUMP JUMPDEST POP PUSH1 0x40 MLOAD CALLER DUP2 MSTORE PUSH32 0xE00DA2178806F37F69815E9ED5ED3072EC1D55206D60916D99B469C7DAA421E4 SWAP1 PUSH1 0x20 ADD PUSH2 0x1F2 JUMP JUMPDEST PUSH1 0x1 SLOAD PUSH0 SWAP1 PUSH2 0x100 SWAP1 DIV PUSH1 0x1 PUSH1 0x1 PUSH1 0xA0 SHL SUB AND CALLER EQ DUP1 PUSH2 0x2A8 JUMPI POP PUSH1 0x2 SLOAD PUSH1 0x1 PUSH1 0x1 PUSH1 0xA0 SHL SUB AND CALLER EQ JUMPDEST PUSH2 0x2C4 JUMPI PUSH1 0x40 MLOAD PUSH3 0x461BCD PUSH1 0xE5 SHL DUP2 MSTORE PUSH1 0x4 ADD PUSH2 0x1A2 SWAP1 PUSH2 0x9C9 JUMP JUMPDEST POP PUSH1 0x1 SLOAD PUSH1 0xFF AND SWAP1 JUMP JUMPDEST PUSH1 0x1 SLOAD PUSH2 0x100 SWAP1 DIV PUSH1 0x1 PUSH1 0x1 PUSH1 0xA0 SHL SUB AND CALLER EQ DUP1 PUSH2 0x2F6 JUMPI POP PUSH1 0x2 SLOAD PUSH1 0x1 PUSH1 0x1 PUSH1 0xA0 SHL SUB AND CALLER EQ JUMPDEST PUSH2 0x312 JUMPI PUSH1 0x40 MLOAD PUSH3 0x461BCD PUSH1 0xE5 SHL DUP2 MSTORE PUSH1 0x4 ADD PUSH2 0x1A2 SWAP1 PUSH2 0x9C9 JUMP JUMPDEST PUSH1 0x5 PUSH2 0x24D DUP3 DUP3 PUSH2 0xA71 JUMP JUMPDEST PUSH1 0x1 SLOAD PUSH2 0x100 SWAP1 DIV PUSH1 0x1 PUSH1 0x1 PUSH1 0xA0 SHL SUB AND CALLER EQ DUP1 PUSH2 0x346 JUMPI POP PUSH1 0x2 SLOAD PUSH1 0x1 PUSH1 0x1 PUSH1 0xA0 SHL SUB AND CALLER EQ JUMPDEST PUSH2 0x362 JUMPI PUSH1 0x40 MLOAD PUSH3 0x461BCD PUSH1 0xE5 SHL DUP2 MSTORE PUSH1 0x4 ADD PUSH2 0x1A2 SWAP1 PUSH2 0x9C9 JUMP JUMPDEST PUSH1 0x4 PUSH2 0x24D DUP3 DUP3 PUSH2 0xA71 JUMP JUMPDEST PUSH1 0x1 SLOAD PUSH0 SWAP1 PUSH2 0x100 SWAP1 DIV PUSH1 0x1 PUSH1 0x1 PUSH1 0xA0 SHL SUB AND CALLER EQ DUP1 PUSH2 0x398 JUMPI POP PUSH1 0x2 SLOAD PUSH1 0x1 PUSH1 0x1 PUSH1 0xA0 SHL SUB AND CALLER EQ JUMPDEST PUSH2 0x3B4 JUMPI PUSH1 0x40 MLOAD PUSH3 0x461BCD PUSH1 0xE5 SHL DUP2 MSTORE PUSH1 0x4 ADD PUSH2 0x1A2 SWAP1 PUSH2 0x9C9 JUMP JUMPDEST POP PUSH1 0x2 SLOAD PUSH1 0x1 PUSH1 0x1 PUSH1 0xA0 SHL SUB AND SWAP1 JUMP JUMPDEST PUSH1 0x1 SLOAD PUSH2 0x100 SWAP1 DIV PUSH1 0x1 PUSH1 0x1 PUSH1 0xA0 SHL SUB AND CALLER EQ DUP1 PUSH2 0x3EC JUMPI POP PUSH1 0x2 SLOAD PUSH1 0x1 PUSH1 0x1 PUSH1 0xA0 SHL SUB AND CALLER EQ JUMPDEST PUSH2 0x408 JUMPI PUSH1 0x40 MLOAD PUSH3 0x461BCD PUSH1 0xE5 SHL DUP2 MSTORE PUSH1 0x4 ADD PUSH2 0x1A2 SWAP1 PUSH2 0x9C9 JUMP JUMPDEST PUSH0 PUSH2 0x413 DUP6 DUP3 PUSH2 0xA71 JUMP JUMPDEST POP PUSH1 0x3 PUSH2 0x420 DUP5 DUP3 PUSH2 0xA71 JUMP JUMPDEST POP PUSH1 0x4 PUSH2 0x42D DUP4 DUP3 PUSH2 0xA71 JUMP JUMPDEST POP PUSH1 0x5 PUSH2 0x43A DUP3 DUP3 PUSH2 0xA71 JUMP JUMPDEST POP PUSH1 0x40 MLOAD CALLER DUP2 MSTORE PUSH32 0xE00DA2178806F37F69815E9ED5ED3072EC1D55206D60916D99B469C7DAA421E4 SWAP1 PUSH1 0x20 ADD PUSH1 0x40 MLOAD DUP1 SWAP2 SUB SWAP1 LOG1 POP POP POP POP JUMP JUMPDEST PUSH1 0x60 DUP1 PUSH1 0x60 DUP1 PUSH1 0x1 DUP1 SLOAD SWAP1 PUSH2 0x100 EXP SWAP1 DIV PUSH1 0x1 PUSH1 0x1 PUSH1 0xA0 SHL SUB AND PUSH1 0x1 PUSH1 0x1 PUSH1 0xA0 SHL SUB AND CALLER PUSH1 0x1 PUSH1 0x1 PUSH1 0xA0 SHL SUB AND EQ DUP1 PUSH2 0x4B7 JUMPI POP PUSH1 0x2 SLOAD PUSH1 0x1 PUSH1 0x1 PUSH1 0xA0 SHL SUB AND CALLER EQ JUMPDEST PUSH2 0x4D3 JUMPI PUSH1 0x40 MLOAD PUSH3 0x461BCD PUSH1 0xE5 SHL DUP2 MSTORE PUSH1 0x4 ADD PUSH2 0x1A2 SWAP1 PUSH2 0x9C9 JUMP JUMPDEST PUSH0 PUSH1 0x3 PUSH1 0x4 PUSH1 0x5 DUP4 DUP1 SLOAD PUSH2 0x4E6 SWAP1 PUSH2 0x9ED JUMP JUMPDEST DUP1 PUSH1 0x1F ADD PUSH1 0x20 DUP1 SWAP2 DIV MUL PUSH1 0x20 ADD PUSH1 0x40 MLOAD SWAP1 DUP2 ADD PUSH1 0x40 MSTORE DUP1 SWAP3 SWAP2 SWAP1 DUP2 DUP2 MSTORE PUSH1 0x20 ADD DUP3 DUP1 SLOAD PUSH2 0x512 SWAP1 PUSH2 0x9ED JUMP JUMPDEST DUP1 ISZERO PUSH2 0x55D JUMPI DUP1 PUSH1 0x1F LT PUSH2 0x534 JUMPI PUSH2 0x100 DUP1 DUP4 SLOAD DIV MUL DUP4 MSTORE SWAP2 PUSH1 0x20 ADD SWAP2 PUSH2 0x55D JUMP JUMPDEST DUP3 ADD SWAP2 SWAP1 PUSH0 MSTORE PUSH1 0x20 PUSH0 KECCAK256 SWAP1 JUMPDEST DUP2 SLOAD DUP2 MSTORE SWAP1 PUSH1 0x1 ADD SWAP1 PUSH1 0x20 ADD DUP1 DUP4 GT PUSH2 0x540 JUMPI DUP3 SWAP1 SUB PUSH1 0x1F AND DUP3 ADD SWAP2 JUMPDEST POP POP POP POP POP SWAP4 POP DUP3 DUP1 SLOAD PUSH2 0x570 SWAP1 PUSH2 0x9ED JUMP JUMPDEST DUP1 PUSH1 0x1F ADD PUSH1 0x20 DUP1 SWAP2 DIV MUL PUSH1 0x20 ADD PUSH1 0x40 MLOAD SWAP1 DUP2 ADD PUSH1 0x40 MSTORE DUP1 SWAP3 SWAP2 SWAP1 DUP2 DUP2 MSTORE PUSH1 0x20 ADD DUP3 DUP1 SLOAD PUSH2 0x59C SWAP1 PUSH2 0x9ED JUMP JUMPDEST DUP1 ISZERO PUSH2 0x5E7 JUMPI DUP1 PUSH1 0x1F LT PUSH2 0x5BE JUMPI PUSH2 0x100 DUP1 DUP4 SLOAD DIV MUL DUP4 MSTORE SWAP2 PUSH1 0x20 ADD SWAP2 PUSH2 0x5E7 JUMP JUMPDEST DUP3 ADD SWAP2 SWAP1 PUSH0 MSTORE PUSH1 0x20 PUSH0 KECCAK256 SWAP1 JUMPDEST DUP2 SLOAD DUP2 MSTORE SWAP1 PUSH1 0x1 ADD SWAP1 PUSH1 0x20 ADD DUP1 DUP4 GT PUSH2 0x5CA JUMPI DUP3 SWAP1 SUB PUSH1 0x1F AND DUP3 ADD SWAP2 JUMPDEST POP POP POP POP POP SWAP3 POP DUP2 DUP1 SLOAD PUSH2 0x5FA SWAP1 PUSH2 0x9ED JUMP JUMPDEST DUP1 PUSH1 0x1F ADD PUSH1 0x20 DUP1 SWAP2 DIV MUL PUSH1 0x20 ADD PUSH1 0x40 MLOAD SWAP1 DUP2 ADD PUSH1 0x40 MSTORE DUP1 SWAP3 SWAP2 SWAP1 DUP2 DUP2 MSTORE PUSH1 0x20 ADD DUP3 DUP1 SLOAD PUSH2 0x626 SWAP1 PUSH2 0x9ED JUMP JUMPDEST DUP1 ISZERO PUSH2 0x671 JUMPI DUP1 PUSH1 0x1F LT PUSH2 0x648 JUMPI PUSH2 0x100 DUP1 DUP4 SLOAD DIV MUL DUP4 MSTORE SWAP2 PUSH1 0x20 ADD SWAP2 PUSH2 0x671 JUMP JUMPDEST DUP3 ADD SWAP2 SWAP1 PUSH0 MSTORE PUSH1 0x20 PUSH0 KECCAK256 SWAP1 JUMPDEST DUP2 SLOAD DUP2 MSTORE SWAP1 PUSH1 0x1 ADD SWAP1 PUSH1 0x20 ADD DUP1 DUP4 GT PUSH2 0x654 JUMPI DUP3 SWAP1 SUB PUSH1 0x1F AND DUP3 ADD SWAP2 JUMPDEST POP POP POP POP POP SWAP2 POP DUP1 DUP1 SLOAD PUSH2 0x684 SWAP1 PUSH2 0x9ED JUMP JUMPDEST DUP1 PUSH1 0x1F ADD PUSH1 0x20 DUP1 SWAP2 DIV MUL PUSH1 0x20 ADD PUSH1 0x40 MLOAD SWAP1 DUP2 ADD PUSH1 0x40 MSTORE DUP1 SWAP3 SWAP2 SWAP1 DUP2 DUP2 MSTORE PUSH1 0x20 ADD DUP3 DUP1 SLOAD PUSH2 0x6B0 SWAP1 PUSH2 0x9ED JUMP JUMPDEST DUP1 ISZERO PUSH2 0x6FB JUMPI DUP1 PUSH1 0x1F LT PUSH2 0x6D2 JUMPI PUSH2 0x100 DUP1 DUP4 SLOAD DIV MUL DUP4 MSTORE SWAP2 PUSH1 0x20 ADD SWAP2 PUSH2 0x6FB JUMP JUMPDEST DUP3 ADD SWAP2 SWAP1 PUSH0 MSTORE PUSH1 0x20 PUSH0 KECCAK256 SWAP1 JUMPDEST DUP2 SLOAD DUP2 MSTORE SWAP1 PUSH1 0x1 ADD SWAP1 PUSH1 0x20 ADD DUP1 DUP4 GT PUSH2 0x6DE JUMPI DUP3 SWAP1 SUB PUSH1 0x1F AND DUP3 ADD SWAP2 JUMPDEST POP POP POP POP POP SWAP1 POP SWAP4 POP SWAP4 POP SWAP4 POP SWAP4 POP SWAP1 SWAP2 SWAP3 SWAP4 JUMP JUMPDEST PUSH1 0x1 SLOAD PUSH2 0x100 SWAP1 DIV PUSH1 0x1 PUSH1 0x1 PUSH1 0xA0 SHL SUB AND CALLER EQ DUP1 PUSH2 0x738 JUMPI POP PUSH1 0x2 SLOAD PUSH1 0x1 PUSH1 0x1 PUSH1 0xA0 SHL SUB AND CALLER EQ JUMPDEST PUSH2 0x754 JUMPI PUSH1 0x40 MLOAD PUSH3 0x461BCD PUSH1 0xE5 SHL DUP2 MSTORE PUSH1 0x4 ADD PUSH2 0x1A2 SWAP1 PUSH2 0x9C9 JUMP JUMPDEST PUSH0 PUSH2 0x24D DUP3 DUP3 PUSH2 0xA71 JUMP JUMPDEST PUSH0 PUSH1 0x20 DUP3 DUP5 SUB SLT ISZERO PUSH2 0x76F JUMPI PUSH0 DUP1 REVERT JUMPDEST DUP2 CALLDATALOAD PUSH1 0x1 PUSH1 0x1 PUSH1 0xA0 SHL SUB DUP2 AND DUP2 EQ PUSH2 0x785 JUMPI PUSH0 DUP1 REVERT JUMPDEST SWAP4 SWAP3 POP POP POP JUMP JUMPDEST PUSH4 0x4E487B71 PUSH1 0xE0 SHL PUSH0 MSTORE PUSH1 0x41 PUSH1 0x4 MSTORE PUSH1 0x24 PUSH0 REVERT JUMPDEST PUSH0 DUP3 PUSH1 0x1F DUP4 ADD SLT PUSH2 0x7AF JUMPI PUSH0 DUP1 REVERT JUMPDEST DUP2 CALLDATALOAD PUSH8 0xFFFFFFFFFFFFFFFF DUP2 GT ISZERO PUSH2 0x7C9 JUMPI PUSH2 0x7C9 PUSH2 0x78C JUMP JUMPDEST PUSH1 0x40 MLOAD PUSH1 0x1F DUP3 ADD PUSH1 0x1F NOT SWAP1 DUP2 AND PUSH1 0x3F ADD AND DUP2 ADD PUSH8 0xFFFFFFFFFFFFFFFF DUP2 GT DUP3 DUP3 LT OR ISZERO PUSH2 0x7F8 JUMPI PUSH2 0x7F8 PUSH2 0x78C JUMP JUMPDEST PUSH1 0x40 MSTORE DUP2 DUP2 MSTORE DUP4 DUP3 ADD PUSH1 0x20 ADD DUP6 LT ISZERO PUSH2 0x80F JUMPI PUSH0 DUP1 REVERT JUMPDEST DUP2 PUSH1 0x20 DUP6 ADD PUSH1 0x20 DUP4 ADD CALLDATACOPY PUSH0 SWAP2 DUP2 ADD PUSH1 0x20 ADD SWAP2 SWAP1 SWAP2 MSTORE SWAP4 SWAP3 POP POP POP JUMP JUMPDEST PUSH0 PUSH1 0x20 DUP3 DUP5 SUB SLT ISZERO PUSH2 0x83B JUMPI PUSH0 DUP1 REVERT JUMPDEST DUP2 CALLDATALOAD PUSH8 0xFFFFFFFFFFFFFFFF DUP2 GT ISZERO PUSH2 0x851 JUMPI PUSH0 DUP1 REVERT JUMPDEST PUSH2 0x85D DUP5 DUP3 DUP6 ADD PUSH2 0x7A0 JUMP JUMPDEST SWAP5 SWAP4 POP POP POP POP JUMP JUMPDEST PUSH1 0x20 DUP2 ADD PUSH1 0x3 DUP4 LT PUSH2 0x885 JUMPI PUSH4 0x4E487B71 PUSH1 0xE0 SHL PUSH0 MSTORE PUSH1 0x21 PUSH1 0x4 MSTORE PUSH1 0x24 PUSH0 REVERT JUMPDEST SWAP2 SWAP1 MSTORE SWAP1 JUMP JUMPDEST PUSH0 DUP1 PUSH0 DUP1 PUSH1 0x80 DUP6 DUP8 SUB SLT ISZERO PUSH2 0x89E JUMPI PUSH0 DUP1 REVERT JUMPDEST DUP5 CALLDATALOAD PUSH8 0xFFFFFFFFFFFFFFFF DUP2 GT ISZERO PUSH2 0x8B4 JUMPI PUSH0 DUP1 REVERT JUMPDEST PUSH2 0x8C0 DUP8 DUP3 DUP9 ADD PUSH2 0x7A0 JUMP JUMPDEST SWAP5 POP POP PUSH1 0x20 DUP6 ADD CALLDATALOAD PUSH8 0xFFFFFFFFFFFFFFFF DUP2 GT ISZERO PUSH2 0x8DC JUMPI PUSH0 DUP1 REVERT JUMPDEST PUSH2 0x8E8 DUP8 DUP3 DUP9 ADD PUSH2 0x7A0 JUMP JUMPDEST SWAP4 POP POP PUSH1 0x40 DUP6 ADD CALLDATALOAD PUSH8 0xFFFFFFFFFFFFFFFF DUP2 GT ISZERO PUSH2 0x904 JUMPI PUSH0 DUP1 REVERT JUMPDEST PUSH2 0x910 DUP8 DUP3 DUP9 ADD PUSH2 0x7A0 JUMP JUMPDEST SWAP3 POP POP PUSH1 0x60 DUP6 ADD CALLDATALOAD PUSH8 0xFFFFFFFFFFFFFFFF DUP2 GT ISZERO PUSH2 0x92C JUMPI PUSH0 DUP1 REVERT JUMPDEST PUSH2 0x938 DUP8 DUP3 DUP9 ADD PUSH2 0x7A0 JUMP JUMPDEST SWAP2 POP POP SWAP3 SWAP6 SWAP2 SWAP5 POP SWAP3 POP JUMP JUMPDEST PUSH0 DUP2 MLOAD DUP1 DUP5 MSTORE DUP1 PUSH1 0x20 DUP5 ADD PUSH1 0x20 DUP7 ADD MCOPY PUSH0 PUSH1 0x20 DUP3 DUP7 ADD ADD MSTORE PUSH1 0x20 PUSH1 0x1F NOT PUSH1 0x1F DUP4 ADD AND DUP6 ADD ADD SWAP2 POP POP SWAP3 SWAP2 POP POP JUMP JUMPDEST PUSH1 0x80 DUP2 MSTORE PUSH0 PUSH2 0x984 PUSH1 0x80 DUP4 ADD DUP8 PUSH2 0x944 JUMP JUMPDEST DUP3 DUP2 SUB PUSH1 0x20 DUP5 ADD MSTORE PUSH2 0x996 DUP2 DUP8 PUSH2 0x944 JUMP JUMPDEST SWAP1 POP DUP3 DUP2 SUB PUSH1 0x40 DUP5 ADD MSTORE PUSH2 0x9AA DUP2 DUP7 PUSH2 0x944 JUMP JUMPDEST SWAP1 POP DUP3 DUP2 SUB PUSH1 0x60 DUP5 ADD MSTORE PUSH2 0x9BE DUP2 DUP6 PUSH2 0x944 JUMP JUMPDEST SWAP8 SWAP7 POP POP POP POP POP POP POP JUMP JUMPDEST PUSH1 0x20 DUP1 DUP3 MSTORE PUSH1 0xA SWAP1 DUP3 ADD MSTORE PUSH10 0x27B7363C9037BBB732B9 PUSH1 0xB1 SHL PUSH1 0x40 DUP3 ADD MSTORE PUSH1 0x60 ADD SWAP1 JUMP JUMPDEST PUSH1 0x1 DUP2 DUP2 SHR SWAP1 DUP3 AND DUP1 PUSH2 0xA01 JUMPI PUSH1 0x7F DUP3 AND SWAP2 POP JUMPDEST PUSH1 0x20 DUP3 LT DUP2 SUB PUSH2 0xA1F JUMPI PUSH4 0x4E487B71 PUSH1 0xE0 SHL PUSH0 MSTORE PUSH1 0x22 PUSH1 0x4 MSTORE PUSH1 0x24 PUSH0 REVERT JUMPDEST POP SWAP2 SWAP1 POP JUMP JUMPDEST PUSH1 0x1F DUP3 GT ISZERO PUSH2 0xA6C JUMPI DUP1 PUSH0 MSTORE PUSH1 0x20 PUSH0 KECCAK256 PUSH1 0x1F DUP5 ADD PUSH1 0x5 SHR DUP2 ADD PUSH1 0x20 DUP6 LT ISZERO PUSH2 0xA4A JUMPI POP DUP1 JUMPDEST PUSH1 0x1F DUP5 ADD PUSH1 0x5 SHR DUP3 ADD SWAP2 POP JUMPDEST DUP2 DUP2 LT ISZERO PUSH2 0xA69 JUMPI PUSH0 DUP2 SSTORE PUSH1 0x1 ADD PUSH2 0xA56 JUMP JUMPDEST POP POP JUMPDEST POP POP POP JUMP JUMPDEST DUP2 MLOAD PUSH8 0xFFFFFFFFFFFFFFFF DUP2 GT ISZERO PUSH2 0xA8B JUMPI PUSH2 0xA8B PUSH2 0x78C JUMP JUMPDEST PUSH2 0xA9F DUP2 PUSH2 0xA99 DUP5 SLOAD PUSH2 0x9ED JUMP JUMPDEST DUP5 PUSH2 0xA25 JUMP JUMPDEST PUSH1 0x20 PUSH1 0x1F DUP3 GT PUSH1 0x1 DUP2 EQ PUSH2 0xAD1 JUMPI PUSH0 DUP4 ISZERO PUSH2 0xABA JUMPI POP DUP5 DUP3 ADD MLOAD JUMPDEST PUSH0 NOT PUSH1 0x3 DUP6 SWAP1 SHL SHR NOT AND PUSH1 0x1 DUP5 SWAP1 SHL OR DUP5 SSTORE PUSH2 0xA69 JUMP JUMPDEST PUSH0 DUP5 DUP2 MSTORE PUSH1 0x20 DUP2 KECCAK256 PUSH1 0x1F NOT DUP6 AND SWAP2 JUMPDEST DUP3 DUP2 LT ISZERO PUSH2 0xB00 JUMPI DUP8 DUP6 ADD MLOAD DUP3 SSTORE PUSH1 0x20 SWAP5 DUP6 ADD SWAP5 PUSH1 0x1 SWAP1 SWAP3 ADD SWAP2 ADD PUSH2 0xAE0 JUMP JUMPDEST POP DUP5 DUP3 LT ISZERO PUSH2 0xB1D JUMPI DUP7 DUP5 ADD MLOAD PUSH0 NOT PUSH1 0x3 DUP8 SWAP1 SHL PUSH1 0xF8 AND SHR NOT AND DUP2 SSTORE JUMPDEST POP POP POP POP PUSH1 0x1 SWAP1 DUP2 SHL ADD SWAP1 SSTORE POP JUMP INVALID LOG2 PUSH5 0x6970667358 0x22 SLT KECCAK256 DUP10 0xB0 0xD5 PUSH12 0xE9F9726DE8B9A64ECBD3E616 0xB7 0xD3 SWAP7 CREATE2 0x2C PUSH30 0x588F80BC27A659E8729D64736F6C634300081A0033000000000000000000 "
		},
		"gasEstimates": {
			"creation": {
				"codeDepositCost": "582800",
				"executionCost": "infinite",
				"totalCost": "infinite"
			},
			"external": {
				"expose()": "infinite",
				"getItemType()": "6707",
				"getParent()": "6670",
				"setItem(string,string,string,string)": "infinite",
				"setName(string)": "infinite",
				"setParent(address)": "29875",
				"setPassword(string)": "infinite",
				"setUrl(string)": "infinite",
				"setUserName(string)": "infinite"
			}
		},
		"methodIdentifiers": {
			"expose()": "ba379e86",
			"getItemType()": "2858d3c8",
			"getParent()": "80f76021",
			"setItem(string,string,string,string)": "ac0344e6",
			"setName(string)": "c47f0027",
			"setParent(address)": "1499c592",
			"setPassword(string)": "290bb453",
			"setUrl(string)": "252498a2",
			"setUserName(string)": "2b5914fe"
		}
	},
	"abi": [
		{
			"inputs": [
				{
					"internalType": "string",
					"name": "_name",
					"type": "string"
				},
				{
					"internalType": "string",
					"name": "_url",
					"type": "string"
				},
				{
					"internalType": "string",
					"name": "_user_name",
					"type": "string"
				},
				{
					"internalType": "string",
					"name": "_password",
					"type": "string"
				},
				{
					"internalType": "address",
					"name": "_owner",
					"type": "address"
				},
				{
					"internalType": "address",
					"name": "_parent",
					"type": "address"
				}
			],
			"stateMutability": "nonpayable",
			"type": "constructor"
		},
		{
			"anonymous": false,
			"inputs": [
				{
					"indexed": false,
					"internalType": "address",
					"name": "",
					"type": "address"
				}
			],
			"name": "AddedToOrganisation",
			"type": "event"
		},
		{
			"anonymous": false,
			"inputs": [
				{
					"indexed": false,
					"internalType": "address",
					"name": "",
					"type": "address"
				}
			],
			"name": "Created",
			"type": "event"
		},
		{
			"anonymous": false,
			"inputs": [
				{
					"indexed": false,
					"internalType": "address",
					"name": "",
					"type": "address"
				}
			],
			"name": "RemovedFromOrganisation",
			"type": "event"
		},
		{
			"anonymous": false,
			"inputs": [
				{
					"indexed": false,
					"internalType": "address",
					"name": "",
					"type": "address"
				}
			],
			"name": "Updated",
			"type": "event"
		},
		{
			"inputs": [],
			"name": "expose",
			"outputs": [
				{
					"internalType": "string",
					"name": "",
					"type": "string"
				},
				{
					"internalType": "string",
					"name": "",
					"type": "string"
				},
				{
					"internalType": "string",
					"name": "",
					"type": "string"
				},
				{
					"internalType": "string",
					"name": "",
					"type": "string"
				}
			],
			"stateMutability": "view",
			"type": "function"
		},
		{
			"inputs": [],
			"name": "getItemType",
			"outputs": [
				{
					"internalType": "enum Constants.ItemType",
					"name": "",
					"type": "uint8"
				}
			],
			"stateMutability": "view",
			"type": "function"
		},
		{
			"inputs": [],
			"name": "getParent",
			"outputs": [
				{
					"internalType": "address",
					"name": "",
					"type": "address"
				}
			],
			"stateMutability": "view",
			"type": "function"
		},
		{
			"inputs": [
				{
					"internalType": "string",
					"name": "_name",
					"type": "string"
				},
				{
					"internalType": "string",
					"name": "_url",
					"type": "string"
				},
				{
					"internalType": "string",
					"name": "_user_name",
					"type": "string"
				},
				{
					"internalType": "string",
					"name": "_password",
					"type": "string"
				}
			],
			"name": "setItem",
			"outputs": [],
			"stateMutability": "nonpayable",
			"type": "function"
		},
		{
			"inputs": [
				{
					"internalType": "string",
					"name": "_name",
					"type": "string"
				}
			],
			"name": "setName",
			"outputs": [],
			"stateMutability": "nonpayable",
			"type": "function"
		},
		{
			"inputs": [
				{
					"internalType": "address",
					"name": "_parnet",
					"type": "address"
				}
			],
			"name": "setParent",
			"outputs": [],
			"stateMutability": "nonpayable",
			"type": "function"
		},
		{
			"inputs": [
				{
					"internalType": "string",
					"name": "_password",
					"type": "string"
				}
			],
			"name": "setPassword",
			"outputs": [],
			"stateMutability": "nonpayable",
			"type": "function"
		},
		{
			"inputs": [
				{
					"internalType": "string",
					"name": "_url",
					"type": "string"
				}
			],
			"name": "setUrl",
			"outputs": [],
			"stateMutability": "nonpayable",
			"type": "function"
		},
		{
			"inputs": [
				{
					"internalType": "string",
					"name": "_user_name",
					"type": "string"
				}
			],
			"name": "setUserName",
			"outputs": [],
			"stateMutability": "nonpayable",
			"type": "function"
		}
	]
}