{
	"data": {
		"bytecode": {
			"linkReferences": {},
			"object": "608060405234801561000f575f80fd5b50604051612c21380380612c218339818101604052810190610031919061030b565b8560028383835f90816100449190610611565b508260015f6101000a81548160ff02191690836003811115610069576100686106e0565b5b0217905550816001806101000a81548173ffffffffffffffffffffffffffffffffffffffff021916908373ffffffffffffffffffffffffffffffffffffffff1602179055508060025f6101000a81548173ffffffffffffffffffffffffffffffffffffffff021916908373ffffffffffffffffffffffffffffffffffffffff1602179055505050505084600490816101019190610611565b5083600590816101119190610611565b5082600690816101219190610611565b507f1449abf21e49fd025f33495e77f7b1461caefdd3d4bb646424a3f445c4576a5b33604051610151919061071c565b60405180910390a1505050505050610735565b5f604051905090565b5f80fd5b5f80fd5b5f80fd5b5f80fd5b5f601f19601f8301169050919050565b7f4e487b71000000000000000000000000000000000000000000000000000000005f52604160045260245ffd5b6101c38261017d565b810181811067ffffffffffffffff821117156101e2576101e161018d565b5b80604052505050565b5f6101f4610164565b905061020082826101ba565b919050565b5f67ffffffffffffffff82111561021f5761021e61018d565b5b6102288261017d565b9050602081019050919050565b8281835e5f83830152505050565b5f61025561025084610205565b6101eb565b90508281526020810184848401111561027157610270610179565b5b61027c848285610235565b509392505050565b5f82601f83011261029857610297610175565b5b81516102a8848260208601610243565b91505092915050565b5f73ffffffffffffffffffffffffffffffffffffffff82169050919050565b5f6102da826102b1565b9050919050565b6102ea816102d0565b81146102f4575f80fd5b50565b5f81519050610305816102e1565b92915050565b5f805f805f8060c087890312156103255761032461016d565b5b5f87015167ffffffffffffffff81111561034257610341610171565b5b61034e89828a01610284565b965050602087015167ffffffffffffffff81111561036f5761036e610171565b5b61037b89828a01610284565b955050604087015167ffffffffffffffff81111561039c5761039b610171565b5b6103a889828a01610284565b945050606087015167ffffffffffffffff8111156103c9576103c8610171565b5b6103d589828a01610284565b93505060806103e689828a016102f7565b92505060a06103f789828a016102f7565b9150509295509295509295565b5f81519050919050565b7f4e487b71000000000000000000000000000000000000000000000000000000005f52602260045260245ffd5b5f600282049050600182168061045257607f821691505b6020821081036104655761046461040e565b5b50919050565b5f819050815f5260205f209050919050565b5f6020601f8301049050919050565b5f82821b905092915050565b5f600883026104c77fffffffffffffffffffffffffffffffffffffffffffffffffffffffffffffffff8261048c565b6104d1868361048c565b95508019841693508086168417925050509392505050565b5f819050919050565b5f819050919050565b5f61051561051061050b846104e9565b6104f2565b6104e9565b9050919050565b5f819050919050565b61052e836104fb565b61054261053a8261051c565b848454610498565b825550505050565b5f90565b61055661054a565b610561818484610525565b505050565b5b81811015610584576105795f8261054e565b600181019050610567565b5050565b601f8211156105c95761059a8161046b565b6105a38461047d565b810160208510156105b2578190505b6105c66105be8561047d565b830182610566565b50505b505050565b5f82821c905092915050565b5f6105e95f19846008026105ce565b1980831691505092915050565b5f61060183836105da565b9150826002028217905092915050565b61061a82610404565b67ffffffffffffffff8111156106335761063261018d565b5b61063d825461043b565b610648828285610588565b5f60209050601f831160018114610679575f8415610667578287015190505b61067185826105f6565b8655506106d8565b601f1984166106878661046b565b5f5b828110156106ae57848901518255600182019150602085019450602081019050610689565b868310156106cb57848901516106c7601f8916826105da565b8355505b6001600288020188555050505b505050505050565b7f4e487b71000000000000000000000000000000000000000000000000000000005f52602160045260245ffd5b610716816102d0565b82525050565b5f60208201905061072f5f83018461070d565b92915050565b6124df806107425f395ff3fe608060405234801561000f575f80fd5b50600436106100e8575f3560e01c806380f760211161008a578063b9daf3e211610064578063b9daf3e21461020c578063ba379e861461022a578063c47f00271461024b578063ded92dac14610267576100e8565b806380f76021146101b4578063a95264d0146101d2578063ac0344e6146101f0576100e8565b8063290bb453116100c6578063290bb453146101425780632b5914fe1461015e5780634ba833741461017a5780635da6ef8d14610198576100e8565b80631499c592146100ec578063252498a2146101085780632858d3c814610124575b5f80fd5b610106600480360381019061010191906119e3565b610283565b005b610122600480360381019061011d9190611b4a565b6103e2565b005b61012c610511565b6040516101399190611c04565b60405180910390f35b61015c60048036038101906101579190611b4a565b61060b565b005b61017860048036038101906101739190611b4a565b61073a565b005b610182610869565b60405161018f9190611c37565b60405180910390f35b6101b260048036038101906101ad91906119e3565b61091f565b005b6101bc610be5565b6040516101c99190611c5f565b60405180910390f35b6101da610cf2565b6040516101e79190611d2f565b60405180910390f35b61020a60048036038101906102059190611d4f565b610e62565b005b610214610fc3565b6040516102219190611c37565b60405180910390f35b61023261106f565b6040516102429493929190611e83565b60405180910390f35b61026560048036038101906102609190611b4a565b6113f7565b005b610281600480360381019061027c91906119e3565b611525565b005b60018054906101000a900473ffffffffffffffffffffffffffffffffffffffff1673ffffffffffffffffffffffffffffffffffffffff163373ffffffffffffffffffffffffffffffffffffffff161480610329575060025f9054906101000a900473ffffffffffffffffffffffffffffffffffffffff1673ffffffffffffffffffffffffffffffffffffffff163373ffffffffffffffffffffffffffffffffffffffff16145b610368576040517f08c379a000000000000000000000000000000000000000000000000000000000815260040161035f90611f2c565b60405180910390fd5b8060025f6101000a81548173ffffffffffffffffffffffffffffffffffffffff021916908373ffffffffffffffffffffffffffffffffffffffff1602179055507fe00da2178806f37f69815e9ed5ed3072ec1d55206d60916d99b469c7daa421e4336040516103d79190611c5f565b60405180910390a150565b60018054906101000a900473ffffffffffffffffffffffffffffffffffffffff1673ffffffffffffffffffffffffffffffffffffffff163373ffffffffffffffffffffffffffffffffffffffff161480610488575060025f9054906101000a900473ffffffffffffffffffffffffffffffffffffffff1673ffffffffffffffffffffffffffffffffffffffff163373ffffffffffffffffffffffffffffffffffffffff16145b6104c7576040517f08c379a00000000000000000000000000000000000000000000000000000000081526004016104be90611f2c565b60405180910390fd5b80600490816104d6919061214d565b507fe00da2178806f37f69815e9ed5ed3072ec1d55206d60916d99b469c7daa421e4336040516105069190611c5f565b60405180910390a150565b5f60018054906101000a900473ffffffffffffffffffffffffffffffffffffffff1673ffffffffffffffffffffffffffffffffffffffff163373ffffffffffffffffffffffffffffffffffffffff1614806105b8575060025f9054906101000a900473ffffffffffffffffffffffffffffffffffffffff1673ffffffffffffffffffffffffffffffffffffffff163373ffffffffffffffffffffffffffffffffffffffff16145b6105f7576040517f08c379a00000000000000000000000000000000000000000000000000000000081526004016105ee90611f2c565b60405180910390fd5b60015f9054906101000a900460ff16905090565b60018054906101000a900473ffffffffffffffffffffffffffffffffffffffff1673ffffffffffffffffffffffffffffffffffffffff163373ffffffffffffffffffffffffffffffffffffffff1614806106b1575060025f9054906101000a900473ffffffffffffffffffffffffffffffffffffffff1673ffffffffffffffffffffffffffffffffffffffff163373ffffffffffffffffffffffffffffffffffffffff16145b6106f0576040517f08c379a00000000000000000000000000000000000000000000000000000000081526004016106e790611f2c565b60405180910390fd5b80600690816106ff919061214d565b507fe00da2178806f37f69815e9ed5ed3072ec1d55206d60916d99b469c7daa421e43360405161072f9190611c5f565b60405180910390a150565b60018054906101000a900473ffffffffffffffffffffffffffffffffffffffff1673ffffffffffffffffffffffffffffffffffffffff163373ffffffffffffffffffffffffffffffffffffffff1614806107e0575060025f9054906101000a900473ffffffffffffffffffffffffffffffffffffffff1673ffffffffffffffffffffffffffffffffffffffff163373ffffffffffffffffffffffffffffffffffffffff16145b61081f576040517f08c379a000000000000000000000000000000000000000000000000000000000815260040161081690611f2c565b60405180910390fd5b806005908161082e919061214d565b507fe00da2178806f37f69815e9ed5ed3072ec1d55206d60916d99b469c7daa421e43360405161085e9190611c5f565b60405180910390a150565b5f7fffffffffffffffffffffffffffffffffffffffffffffffffffffffffffffffff61091833600380548060200260200160405190810160405280929190818152602001828054801561090e57602002820191905f5260205f20905b815f9054906101000a900473ffffffffffffffffffffffffffffffffffffffff1673ffffffffffffffffffffffffffffffffffffffff16815260200190600101908083116108c5575b5050505050611778565b1415905090565b60018054906101000a900473ffffffffffffffffffffffffffffffffffffffff1673ffffffffffffffffffffffffffffffffffffffff163373ffffffffffffffffffffffffffffffffffffffff1614806109c5575060025f9054906101000a900473ffffffffffffffffffffffffffffffffffffffff1673ffffffffffffffffffffffffffffffffffffffff163373ffffffffffffffffffffffffffffffffffffffff16145b610a04576040517f08c379a00000000000000000000000000000000000000000000000000000000081526004016109fb90611f2c565b60405180910390fd5b60018054906101000a900473ffffffffffffffffffffffffffffffffffffffff1673ffffffffffffffffffffffffffffffffffffffff168173ffffffffffffffffffffffffffffffffffffffff1614158015610a8c57505f73ffffffffffffffffffffffffffffffffffffffff168173ffffffffffffffffffffffffffffffffffffffff1614155b8015610b4357507fffffffffffffffffffffffffffffffffffffffffffffffffffffffffffffffff610b41826003805480602002602001604051908101604052809291908181526020018280548015610b3757602002820191905f5260205f20905b815f9054906101000a900473ffffffffffffffffffffffffffffffffffffffff1673ffffffffffffffffffffffffffffffffffffffff1681526020019060010190808311610aee575b5050505050611778565b145b610b82576040517f08c379a0000000000000000000000000000000000000000000000000000000008152600401610b7990612266565b60405180910390fd5b600381908060018154018082558091505060019003905f5260205f20015f9091909190916101000a81548173ffffffffffffffffffffffffffffffffffffffff021916908373ffffffffffffffffffffffffffffffffffffffff16021790555050565b5f60018054906101000a900473ffffffffffffffffffffffffffffffffffffffff1673ffffffffffffffffffffffffffffffffffffffff163373ffffffffffffffffffffffffffffffffffffffff161480610c8c575060025f9054906101000a900473ffffffffffffffffffffffffffffffffffffffff1673ffffffffffffffffffffffffffffffffffffffff163373ffffffffffffffffffffffffffffffffffffffff16145b610ccb576040517f08c379a0000000000000000000000000000000000000000000000000000000008152600401610cc290611f2c565b60405180910390fd5b60025f9054906101000a900473ffffffffffffffffffffffffffffffffffffffff16905090565b606060018054906101000a900473ffffffffffffffffffffffffffffffffffffffff1673ffffffffffffffffffffffffffffffffffffffff163373ffffffffffffffffffffffffffffffffffffffff161480610d9a575060025f9054906101000a900473ffffffffffffffffffffffffffffffffffffffff1673ffffffffffffffffffffffffffffffffffffffff163373ffffffffffffffffffffffffffffffffffffffff16145b610dd9576040517f08c379a0000000000000000000000000000000000000000000000000000000008152600401610dd090611f2c565b60405180910390fd5b6003805480602002602001604051908101604052809291908181526020018280548015610e5857602002820191905f5260205f20905b815f9054906101000a900473ffffffffffffffffffffffffffffffffffffffff1673ffffffffffffffffffffffffffffffffffffffff1681526020019060010190808311610e0f575b5050505050905090565b60018054906101000a900473ffffffffffffffffffffffffffffffffffffffff1673ffffffffffffffffffffffffffffffffffffffff163373ffffffffffffffffffffffffffffffffffffffff161480610f08575060025f9054906101000a900473ffffffffffffffffffffffffffffffffffffffff1673ffffffffffffffffffffffffffffffffffffffff163373ffffffffffffffffffffffffffffffffffffffff16145b610f47576040517f08c379a0000000000000000000000000000000000000000000000000000000008152600401610f3e90611f2c565b60405180910390fd5b835f9081610f55919061214d565b508260049081610f65919061214d565b508160059081610f75919061214d565b508060069081610f85919061214d565b507fe00da2178806f37f69815e9ed5ed3072ec1d55206d60916d99b469c7daa421e433604051610fb59190611c5f565b60405180910390a150505050565b5f60018054906101000a900473ffffffffffffffffffffffffffffffffffffffff1673ffffffffffffffffffffffffffffffffffffffff163373ffffffffffffffffffffffffffffffffffffffff16148061106a575060025f9054906101000a900473ffffffffffffffffffffffffffffffffffffffff1673ffffffffffffffffffffffffffffffffffffffff163373ffffffffffffffffffffffffffffffffffffffff16145b905090565b60608060608060018054906101000a900473ffffffffffffffffffffffffffffffffffffffff1673ffffffffffffffffffffffffffffffffffffffff163373ffffffffffffffffffffffffffffffffffffffff16148061117b57507fffffffffffffffffffffffffffffffffffffffffffffffffffffffffffffffff61117833600380548060200260200160405190810160405280929190818152602001828054801561116e57602002820191905f5260205f20905b815f9054906101000a900473ffffffffffffffffffffffffffffffffffffffff1673ffffffffffffffffffffffffffffffffffffffff1681526020019060010190808311611125575b5050505050611778565b14155b6111ba576040517f08c379a00000000000000000000000000000000000000000000000000000000081526004016111b1906122ce565b60405180910390fd5b5f6004600560068380546111cd90611f77565b80601f01602080910402602001604051908101604052809291908181526020018280546111f990611f77565b80156112445780601f1061121b57610100808354040283529160200191611244565b820191905f5260205f20905b81548152906001019060200180831161122757829003601f168201915b5050505050935082805461125790611f77565b80601f016020809104026020016040519081016040528092919081815260200182805461128390611f77565b80156112ce5780601f106112a5576101008083540402835291602001916112ce565b820191905f5260205f20905b8154815290600101906020018083116112b157829003601f168201915b505050505092508180546112e190611f77565b80601f016020809104026020016040519081016040528092919081815260200182805461130d90611f77565b80156113585780601f1061132f57610100808354040283529160200191611358565b820191905f5260205f20905b81548152906001019060200180831161133b57829003601f168201915b5050505050915080805461136b90611f77565b80601f016020809104026020016040519081016040528092919081815260200182805461139790611f77565b80156113e25780601f106113b9576101008083540402835291602001916113e2565b820191905f5260205f20905b8154815290600101906020018083116113c557829003601f168201915b50505050509050935093509350935090919293565b60018054906101000a900473ffffffffffffffffffffffffffffffffffffffff1673ffffffffffffffffffffffffffffffffffffffff163373ffffffffffffffffffffffffffffffffffffffff16148061149d575060025f9054906101000a900473ffffffffffffffffffffffffffffffffffffffff1673ffffffffffffffffffffffffffffffffffffffff163373ffffffffffffffffffffffffffffffffffffffff16145b6114dc576040517f08c379a00000000000000000000000000000000000000000000000000000000081526004016114d390611f2c565b60405180910390fd5b805f90816114ea919061214d565b507fe00da2178806f37f69815e9ed5ed3072ec1d55206d60916d99b469c7daa421e43360405161151a9190611c5f565b60405180910390a150565b5f73ffffffffffffffffffffffffffffffffffffffff168173ffffffffffffffffffffffffffffffffffffffff16141580611638575060025f9054906101000a900473ffffffffffffffffffffffffffffffffffffffff1673ffffffffffffffffffffffffffffffffffffffff163373ffffffffffffffffffffffffffffffffffffffff161480611601575060018054906101000a900473ffffffffffffffffffffffffffffffffffffffff1673ffffffffffffffffffffffffffffffffffffffff163373ffffffffffffffffffffffffffffffffffffffff16145b8061163757508073ffffffffffffffffffffffffffffffffffffffff163373ffffffffffffffffffffffffffffffffffffffff16145b5b611677576040517f08c379a000000000000000000000000000000000000000000000000000000000815260040161166e90612266565b60405180910390fd5b5f6117058260038054806020026020016040519081016040528092919081815260200182805480156116fb57602002820191905f5260205f20905b815f9054906101000a900473ffffffffffffffffffffffffffffffffffffffff1673ffffffffffffffffffffffffffffffffffffffff16815260200190600101908083116116b2575b5050505050611778565b90507fffffffffffffffffffffffffffffffffffffffffffffffffffffffffffffffff8113611769576040517f08c379a000000000000000000000000000000000000000000000000000000000815260040161176090612336565b60405180910390fd5b611774816003611815565b5050565b5f805f90505b82518110156117ea578373ffffffffffffffffffffffffffffffffffffffff168382815181106117b1576117b0612354565b5b602002602001015173ffffffffffffffffffffffffffffffffffffffff16036117dd578091505061180f565b808060010191505061177e565b507fffffffffffffffffffffffffffffffffffffffffffffffffffffffffffffffff90505b92915050565b5f82121580156118285750808054905082105b611867576040517f08c379a000000000000000000000000000000000000000000000000000000000815260040161185e906123cb565b60405180910390fd5b5f8290505b6001828054905061187d9190612416565b81101561193057816001826118929190612449565b815481106118a3576118a2612354565b5b905f5260205f20015f9054906101000a900473ffffffffffffffffffffffffffffffffffffffff168282815481106118de576118dd612354565b5b905f5260205f20015f6101000a81548173ffffffffffffffffffffffffffffffffffffffff021916908373ffffffffffffffffffffffffffffffffffffffff160217905550808060010191505061186c565b50808054806119425761194161247c565b5b600190038181905f5260205f20015f6101000a81549073ffffffffffffffffffffffffffffffffffffffff021916905590555050565b5f604051905090565b5f80fd5b5f80fd5b5f73ffffffffffffffffffffffffffffffffffffffff82169050919050565b5f6119b282611989565b9050919050565b6119c2816119a8565b81146119cc575f80fd5b50565b5f813590506119dd816119b9565b92915050565b5f602082840312156119f8576119f7611981565b5b5f611a05848285016119cf565b91505092915050565b5f80fd5b5f80fd5b5f601f19601f8301169050919050565b7f4e487b71000000000000000000000000000000000000000000000000000000005f52604160045260245ffd5b611a5c82611a16565b810181811067ffffffffffffffff82111715611a7b57611a7a611a26565b5b80604052505050565b5f611a8d611978565b9050611a998282611a53565b919050565b5f67ffffffffffffffff821115611ab857611ab7611a26565b5b611ac182611a16565b9050602081019050919050565b828183375f83830152505050565b5f611aee611ae984611a9e565b611a84565b905082815260208101848484011115611b0a57611b09611a12565b5b611b15848285611ace565b509392505050565b5f82601f830112611b3157611b30611a0e565b5b8135611b41848260208601611adc565b91505092915050565b5f60208284031215611b5f57611b5e611981565b5b5f82013567ffffffffffffffff811115611b7c57611b7b611985565b5b611b8884828501611b1d565b91505092915050565b7f4e487b71000000000000000000000000000000000000000000000000000000005f52602160045260245ffd5b60048110611bcf57611bce611b91565b5b50565b5f819050611bdf82611bbe565b919050565b5f611bee82611bd2565b9050919050565b611bfe81611be4565b82525050565b5f602082019050611c175f830184611bf5565b92915050565b5f8115159050919050565b611c3181611c1d565b82525050565b5f602082019050611c4a5f830184611c28565b92915050565b611c59816119a8565b82525050565b5f602082019050611c725f830184611c50565b92915050565b5f81519050919050565b5f82825260208201905092915050565b5f819050602082019050919050565b611caa816119a8565b82525050565b5f611cbb8383611ca1565b60208301905092915050565b5f602082019050919050565b5f611cdd82611c78565b611ce78185611c82565b9350611cf283611c92565b805f5b83811015611d22578151611d098882611cb0565b9750611d1483611cc7565b925050600181019050611cf5565b5085935050505092915050565b5f6020820190508181035f830152611d478184611cd3565b905092915050565b5f805f8060808587031215611d6757611d66611981565b5b5f85013567ffffffffffffffff811115611d8457611d83611985565b5b611d9087828801611b1d565b945050602085013567ffffffffffffffff811115611db157611db0611985565b5b611dbd87828801611b1d565b935050604085013567ffffffffffffffff811115611dde57611ddd611985565b5b611dea87828801611b1d565b925050606085013567ffffffffffffffff811115611e0b57611e0a611985565b5b611e1787828801611b1d565b91505092959194509250565b5f81519050919050565b5f82825260208201905092915050565b8281835e5f83830152505050565b5f611e5582611e23565b611e5f8185611e2d565b9350611e6f818560208601611e3d565b611e7881611a16565b840191505092915050565b5f6080820190508181035f830152611e9b8187611e4b565b90508181036020830152611eaf8186611e4b565b90508181036040830152611ec38185611e4b565b90508181036060830152611ed78184611e4b565b905095945050505050565b7f4f6e6c79206f776e6572000000000000000000000000000000000000000000005f82015250565b5f611f16600a83611e2d565b9150611f2182611ee2565b602082019050919050565b5f6020820190508181035f830152611f4381611f0a565b9050919050565b7f4e487b71000000000000000000000000000000000000000000000000000000005f52602260045260245ffd5b5f6002820490506001821680611f8e57607f821691505b602082108103611fa157611fa0611f4a565b5b50919050565b5f819050815f5260205f209050919050565b5f6020601f8301049050919050565b5f82821b905092915050565b5f600883026120037fffffffffffffffffffffffffffffffffffffffffffffffffffffffffffffffff82611fc8565b61200d8683611fc8565b95508019841693508086168417925050509392505050565b5f819050919050565b5f819050919050565b5f61205161204c61204784612025565b61202e565b612025565b9050919050565b5f819050919050565b61206a83612037565b61207e61207682612058565b848454611fd4565b825550505050565b5f90565b612092612086565b61209d818484612061565b505050565b5b818110156120c0576120b55f8261208a565b6001810190506120a3565b5050565b601f821115612105576120d681611fa7565b6120df84611fb9565b810160208510156120ee578190505b6121026120fa85611fb9565b8301826120a2565b50505b505050565b5f82821c905092915050565b5f6121255f198460080261210a565b1980831691505092915050565b5f61213d8383612116565b9150826002028217905092915050565b61215682611e23565b67ffffffffffffffff81111561216f5761216e611a26565b5b6121798254611f77565b6121848282856120c4565b5f60209050601f8311600181146121b5575f84156121a3578287015190505b6121ad8582612132565b865550612214565b601f1984166121c386611fa7565b5f5b828110156121ea578489015182556001820191506020850194506020810190506121c5565b868310156122075784890151612203601f891682612116565b8355505b6001600288020188555050505b505050505050565b7f466f7262696464656e00000000000000000000000000000000000000000000005f82015250565b5f612250600983611e2d565b915061225b8261221c565b602082019050919050565b5f6020820190508181035f83015261227d81612244565b9050919050565b7f52657374726963740000000000000000000000000000000000000000000000005f82015250565b5f6122b8600883611e2d565b91506122c382612284565b602082019050919050565b5f6020820190508181035f8301526122e5816122ac565b9050919050565b7f4e6f7420666f756e6400000000000000000000000000000000000000000000005f82015250565b5f612320600983611e2d565b915061232b826122ec565b602082019050919050565b5f6020820190508181035f83015261234d81612314565b9050919050565b7f4e487b71000000000000000000000000000000000000000000000000000000005f52603260045260245ffd5b7f4e6f2069647800000000000000000000000000000000000000000000000000005f82015250565b5f6123b5600683611e2d565b91506123c082612381565b602082019050919050565b5f6020820190508181035f8301526123e2816123a9565b9050919050565b7f4e487b71000000000000000000000000000000000000000000000000000000005f52601160045260245ffd5b5f61242082612025565b915061242b83612025565b9250828203905081811115612443576124426123e9565b5b92915050565b5f61245382612025565b915061245e83612025565b9250828201905080821115612476576124756123e9565b5b92915050565b7f4e487b71000000000000000000000000000000000000000000000000000000005f52603160045260245ffdfea2646970667358221220a11d9862f920133c898ff9c8dd037300cd90d0d4c21b722f5fe15bfe47bb2bb864736f6c634300081a0033",
			"opcodes": "PUSH1 0x80 PUSH1 0x40 MSTORE CALLVALUE DUP1 ISZERO PUSH2 0xF JUMPI PUSH0 DUP1 REVERT JUMPDEST POP PUSH1 0x40 MLOAD PUSH2 0x2C21 CODESIZE SUB DUP1 PUSH2 0x2C21 DUP4 CODECOPY DUP2 DUP2 ADD PUSH1 0x40 MSTORE DUP2 ADD SWAP1 PUSH2 0x31 SWAP2 SWAP1 PUSH2 0x30B JUMP JUMPDEST DUP6 PUSH1 0x2 DUP4 DUP4 DUP4 PUSH0 SWAP1 DUP2 PUSH2 0x44 SWAP2 SWAP1 PUSH2 0x611 JUMP JUMPDEST POP DUP3 PUSH1 0x1 PUSH0 PUSH2 0x100 EXP DUP2 SLOAD DUP2 PUSH1 0xFF MUL NOT AND SWAP1 DUP4 PUSH1 0x3 DUP2 GT ISZERO PUSH2 0x69 JUMPI PUSH2 0x68 PUSH2 0x6E0 JUMP JUMPDEST JUMPDEST MUL OR SWAP1 SSTORE POP DUP2 PUSH1 0x1 DUP1 PUSH2 0x100 EXP DUP2 SLOAD DUP2 PUSH20 0xFFFFFFFFFFFFFFFFFFFFFFFFFFFFFFFFFFFFFFFF MUL NOT AND SWAP1 DUP4 PUSH20 0xFFFFFFFFFFFFFFFFFFFFFFFFFFFFFFFFFFFFFFFF AND MUL OR SWAP1 SSTORE POP DUP1 PUSH1 0x2 PUSH0 PUSH2 0x100 EXP DUP2 SLOAD DUP2 PUSH20 0xFFFFFFFFFFFFFFFFFFFFFFFFFFFFFFFFFFFFFFFF MUL NOT AND SWAP1 DUP4 PUSH20 0xFFFFFFFFFFFFFFFFFFFFFFFFFFFFFFFFFFFFFFFF AND MUL OR SWAP1 SSTORE POP POP POP POP POP DUP5 PUSH1 0x4 SWAP1 DUP2 PUSH2 0x101 SWAP2 SWAP1 PUSH2 0x611 JUMP JUMPDEST POP DUP4 PUSH1 0x5 SWAP1 DUP2 PUSH2 0x111 SWAP2 SWAP1 PUSH2 0x611 JUMP JUMPDEST POP DUP3 PUSH1 0x6 SWAP1 DUP2 PUSH2 0x121 SWAP2 SWAP1 PUSH2 0x611 JUMP JUMPDEST POP PUSH32 0x1449ABF21E49FD025F33495E77F7B1461CAEFDD3D4BB646424A3F445C4576A5B CALLER PUSH1 0x40 MLOAD PUSH2 0x151 SWAP2 SWAP1 PUSH2 0x71C JUMP JUMPDEST PUSH1 0x40 MLOAD DUP1 SWAP2 SUB SWAP1 LOG1 POP POP POP POP POP POP PUSH2 0x735 JUMP JUMPDEST PUSH0 PUSH1 0x40 MLOAD SWAP1 POP SWAP1 JUMP JUMPDEST PUSH0 DUP1 REVERT JUMPDEST PUSH0 DUP1 REVERT JUMPDEST PUSH0 DUP1 REVERT JUMPDEST PUSH0 DUP1 REVERT JUMPDEST PUSH0 PUSH1 0x1F NOT PUSH1 0x1F DUP4 ADD AND SWAP1 POP SWAP2 SWAP1 POP JUMP JUMPDEST PUSH32 0x4E487B7100000000000000000000000000000000000000000000000000000000 PUSH0 MSTORE PUSH1 0x41 PUSH1 0x4 MSTORE PUSH1 0x24 PUSH0 REVERT JUMPDEST PUSH2 0x1C3 DUP3 PUSH2 0x17D JUMP JUMPDEST DUP2 ADD DUP2 DUP2 LT PUSH8 0xFFFFFFFFFFFFFFFF DUP3 GT OR ISZERO PUSH2 0x1E2 JUMPI PUSH2 0x1E1 PUSH2 0x18D JUMP JUMPDEST JUMPDEST DUP1 PUSH1 0x40 MSTORE POP POP POP JUMP JUMPDEST PUSH0 PUSH2 0x1F4 PUSH2 0x164 JUMP JUMPDEST SWAP1 POP PUSH2 0x200 DUP3 DUP3 PUSH2 0x1BA JUMP JUMPDEST SWAP2 SWAP1 POP JUMP JUMPDEST PUSH0 PUSH8 0xFFFFFFFFFFFFFFFF DUP3 GT ISZERO PUSH2 0x21F JUMPI PUSH2 0x21E PUSH2 0x18D JUMP JUMPDEST JUMPDEST PUSH2 0x228 DUP3 PUSH2 0x17D JUMP JUMPDEST SWAP1 POP PUSH1 0x20 DUP2 ADD SWAP1 POP SWAP2 SWAP1 POP JUMP JUMPDEST DUP3 DUP2 DUP4 MCOPY PUSH0 DUP4 DUP4 ADD MSTORE POP POP POP JUMP JUMPDEST PUSH0 PUSH2 0x255 PUSH2 0x250 DUP5 PUSH2 0x205 JUMP JUMPDEST PUSH2 0x1EB JUMP JUMPDEST SWAP1 POP DUP3 DUP2 MSTORE PUSH1 0x20 DUP2 ADD DUP5 DUP5 DUP5 ADD GT ISZERO PUSH2 0x271 JUMPI PUSH2 0x270 PUSH2 0x179 JUMP JUMPDEST JUMPDEST PUSH2 0x27C DUP5 DUP3 DUP6 PUSH2 0x235 JUMP JUMPDEST POP SWAP4 SWAP3 POP POP POP JUMP JUMPDEST PUSH0 DUP3 PUSH1 0x1F DUP4 ADD SLT PUSH2 0x298 JUMPI PUSH2 0x297 PUSH2 0x175 JUMP JUMPDEST JUMPDEST DUP2 MLOAD PUSH2 0x2A8 DUP5 DUP3 PUSH1 0x20 DUP7 ADD PUSH2 0x243 JUMP JUMPDEST SWAP2 POP POP SWAP3 SWAP2 POP POP JUMP JUMPDEST PUSH0 PUSH20 0xFFFFFFFFFFFFFFFFFFFFFFFFFFFFFFFFFFFFFFFF DUP3 AND SWAP1 POP SWAP2 SWAP1 POP JUMP JUMPDEST PUSH0 PUSH2 0x2DA DUP3 PUSH2 0x2B1 JUMP JUMPDEST SWAP1 POP SWAP2 SWAP1 POP JUMP JUMPDEST PUSH2 0x2EA DUP2 PUSH2 0x2D0 JUMP JUMPDEST DUP2 EQ PUSH2 0x2F4 JUMPI PUSH0 DUP1 REVERT JUMPDEST POP JUMP JUMPDEST PUSH0 DUP2 MLOAD SWAP1 POP PUSH2 0x305 DUP2 PUSH2 0x2E1 JUMP JUMPDEST SWAP3 SWAP2 POP POP JUMP JUMPDEST PUSH0 DUP1 PUSH0 DUP1 PUSH0 DUP1 PUSH1 0xC0 DUP8 DUP10 SUB SLT ISZERO PUSH2 0x325 JUMPI PUSH2 0x324 PUSH2 0x16D JUMP JUMPDEST JUMPDEST PUSH0 DUP8 ADD MLOAD PUSH8 0xFFFFFFFFFFFFFFFF DUP2 GT ISZERO PUSH2 0x342 JUMPI PUSH2 0x341 PUSH2 0x171 JUMP JUMPDEST JUMPDEST PUSH2 0x34E DUP10 DUP3 DUP11 ADD PUSH2 0x284 JUMP JUMPDEST SWAP7 POP POP PUSH1 0x20 DUP8 ADD MLOAD PUSH8 0xFFFFFFFFFFFFFFFF DUP2 GT ISZERO PUSH2 0x36F JUMPI PUSH2 0x36E PUSH2 0x171 JUMP JUMPDEST JUMPDEST PUSH2 0x37B DUP10 DUP3 DUP11 ADD PUSH2 0x284 JUMP JUMPDEST SWAP6 POP POP PUSH1 0x40 DUP8 ADD MLOAD PUSH8 0xFFFFFFFFFFFFFFFF DUP2 GT ISZERO PUSH2 0x39C JUMPI PUSH2 0x39B PUSH2 0x171 JUMP JUMPDEST JUMPDEST PUSH2 0x3A8 DUP10 DUP3 DUP11 ADD PUSH2 0x284 JUMP JUMPDEST SWAP5 POP POP PUSH1 0x60 DUP8 ADD MLOAD PUSH8 0xFFFFFFFFFFFFFFFF DUP2 GT ISZERO PUSH2 0x3C9 JUMPI PUSH2 0x3C8 PUSH2 0x171 JUMP JUMPDEST JUMPDEST PUSH2 0x3D5 DUP10 DUP3 DUP11 ADD PUSH2 0x284 JUMP JUMPDEST SWAP4 POP POP PUSH1 0x80 PUSH2 0x3E6 DUP10 DUP3 DUP11 ADD PUSH2 0x2F7 JUMP JUMPDEST SWAP3 POP POP PUSH1 0xA0 PUSH2 0x3F7 DUP10 DUP3 DUP11 ADD PUSH2 0x2F7 JUMP JUMPDEST SWAP2 POP POP SWAP3 SWAP6 POP SWAP3 SWAP6 POP SWAP3 SWAP6 JUMP JUMPDEST PUSH0 DUP2 MLOAD SWAP1 POP SWAP2 SWAP1 POP JUMP JUMPDEST PUSH32 0x4E487B7100000000000000000000000000000000000000000000000000000000 PUSH0 MSTORE PUSH1 0x22 PUSH1 0x4 MSTORE PUSH1 0x24 PUSH0 REVERT JUMPDEST PUSH0 PUSH1 0x2 DUP3 DIV SWAP1 POP PUSH1 0x1 DUP3 AND DUP1 PUSH2 0x452 JUMPI PUSH1 0x7F DUP3 AND SWAP2 POP JUMPDEST PUSH1 0x20 DUP3 LT DUP2 SUB PUSH2 0x465 JUMPI PUSH2 0x464 PUSH2 0x40E JUMP JUMPDEST JUMPDEST POP SWAP2 SWAP1 POP JUMP JUMPDEST PUSH0 DUP2 SWAP1 POP DUP2 PUSH0 MSTORE PUSH1 0x20 PUSH0 KECCAK256 SWAP1 POP SWAP2 SWAP1 POP JUMP JUMPDEST PUSH0 PUSH1 0x20 PUSH1 0x1F DUP4 ADD DIV SWAP1 POP SWAP2 SWAP1 POP JUMP JUMPDEST PUSH0 DUP3 DUP3 SHL SWAP1 POP SWAP3 SWAP2 POP POP JUMP JUMPDEST PUSH0 PUSH1 0x8 DUP4 MUL PUSH2 0x4C7 PUSH32 0xFFFFFFFFFFFFFFFFFFFFFFFFFFFFFFFFFFFFFFFFFFFFFFFFFFFFFFFFFFFFFFFF DUP3 PUSH2 0x48C JUMP JUMPDEST PUSH2 0x4D1 DUP7 DUP4 PUSH2 0x48C JUMP JUMPDEST SWAP6 POP DUP1 NOT DUP5 AND SWAP4 POP DUP1 DUP7 AND DUP5 OR SWAP3 POP POP POP SWAP4 SWAP3 POP POP POP JUMP JUMPDEST PUSH0 DUP2 SWAP1 POP SWAP2 SWAP1 POP JUMP JUMPDEST PUSH0 DUP2 SWAP1 POP SWAP2 SWAP1 POP JUMP JUMPDEST PUSH0 PUSH2 0x515 PUSH2 0x510 PUSH2 0x50B DUP5 PUSH2 0x4E9 JUMP JUMPDEST PUSH2 0x4F2 JUMP JUMPDEST PUSH2 0x4E9 JUMP JUMPDEST SWAP1 POP SWAP2 SWAP1 POP JUMP JUMPDEST PUSH0 DUP2 SWAP1 POP SWAP2 SWAP1 POP JUMP JUMPDEST PUSH2 0x52E DUP4 PUSH2 0x4FB JUMP JUMPDEST PUSH2 0x542 PUSH2 0x53A DUP3 PUSH2 0x51C JUMP JUMPDEST DUP5 DUP5 SLOAD PUSH2 0x498 JUMP JUMPDEST DUP3 SSTORE POP POP POP POP JUMP JUMPDEST PUSH0 SWAP1 JUMP JUMPDEST PUSH2 0x556 PUSH2 0x54A JUMP JUMPDEST PUSH2 0x561 DUP2 DUP5 DUP5 PUSH2 0x525 JUMP JUMPDEST POP POP POP JUMP JUMPDEST JUMPDEST DUP2 DUP2 LT ISZERO PUSH2 0x584 JUMPI PUSH2 0x579 PUSH0 DUP3 PUSH2 0x54E JUMP JUMPDEST PUSH1 0x1 DUP2 ADD SWAP1 POP PUSH2 0x567 JUMP JUMPDEST POP POP JUMP JUMPDEST PUSH1 0x1F DUP3 GT ISZERO PUSH2 0x5C9 JUMPI PUSH2 0x59A DUP2 PUSH2 0x46B JUMP JUMPDEST PUSH2 0x5A3 DUP5 PUSH2 0x47D JUMP JUMPDEST DUP2 ADD PUSH1 0x20 DUP6 LT ISZERO PUSH2 0x5B2 JUMPI DUP2 SWAP1 POP JUMPDEST PUSH2 0x5C6 PUSH2 0x5BE DUP6 PUSH2 0x47D JUMP JUMPDEST DUP4 ADD DUP3 PUSH2 0x566 JUMP JUMPDEST POP POP JUMPDEST POP POP POP JUMP JUMPDEST PUSH0 DUP3 DUP3 SHR SWAP1 POP SWAP3 SWAP2 POP POP JUMP JUMPDEST PUSH0 PUSH2 0x5E9 PUSH0 NOT DUP5 PUSH1 0x8 MUL PUSH2 0x5CE JUMP JUMPDEST NOT DUP1 DUP4 AND SWAP2 POP POP SWAP3 SWAP2 POP POP JUMP JUMPDEST PUSH0 PUSH2 0x601 DUP4 DUP4 PUSH2 0x5DA JUMP JUMPDEST SWAP2 POP DUP3 PUSH1 0x2 MUL DUP3 OR SWAP1 POP SWAP3 SWAP2 POP POP JUMP JUMPDEST PUSH2 0x61A DUP3 PUSH2 0x404 JUMP JUMPDEST PUSH8 0xFFFFFFFFFFFFFFFF DUP2 GT ISZERO PUSH2 0x633 JUMPI PUSH2 0x632 PUSH2 0x18D JUMP JUMPDEST JUMPDEST PUSH2 0x63D DUP3 SLOAD PUSH2 0x43B JUMP JUMPDEST PUSH2 0x648 DUP3 DUP3 DUP6 PUSH2 0x588 JUMP JUMPDEST PUSH0 PUSH1 0x20 SWAP1 POP PUSH1 0x1F DUP4 GT PUSH1 0x1 DUP2 EQ PUSH2 0x679 JUMPI PUSH0 DUP5 ISZERO PUSH2 0x667 JUMPI DUP3 DUP8 ADD MLOAD SWAP1 POP JUMPDEST PUSH2 0x671 DUP6 DUP3 PUSH2 0x5F6 JUMP JUMPDEST DUP7 SSTORE POP PUSH2 0x6D8 JUMP JUMPDEST PUSH1 0x1F NOT DUP5 AND PUSH2 0x687 DUP7 PUSH2 0x46B JUMP JUMPDEST PUSH0 JUMPDEST DUP3 DUP2 LT ISZERO PUSH2 0x6AE JUMPI DUP5 DUP10 ADD MLOAD DUP3 SSTORE PUSH1 0x1 DUP3 ADD SWAP2 POP PUSH1 0x20 DUP6 ADD SWAP5 POP PUSH1 0x20 DUP2 ADD SWAP1 POP PUSH2 0x689 JUMP JUMPDEST DUP7 DUP4 LT ISZERO PUSH2 0x6CB JUMPI DUP5 DUP10 ADD MLOAD PUSH2 0x6C7 PUSH1 0x1F DUP10 AND DUP3 PUSH2 0x5DA JUMP JUMPDEST DUP4 SSTORE POP JUMPDEST PUSH1 0x1 PUSH1 0x2 DUP9 MUL ADD DUP9 SSTORE POP POP POP JUMPDEST POP POP POP POP POP POP JUMP JUMPDEST PUSH32 0x4E487B7100000000000000000000000000000000000000000000000000000000 PUSH0 MSTORE PUSH1 0x21 PUSH1 0x4 MSTORE PUSH1 0x24 PUSH0 REVERT JUMPDEST PUSH2 0x716 DUP2 PUSH2 0x2D0 JUMP JUMPDEST DUP3 MSTORE POP POP JUMP JUMPDEST PUSH0 PUSH1 0x20 DUP3 ADD SWAP1 POP PUSH2 0x72F PUSH0 DUP4 ADD DUP5 PUSH2 0x70D JUMP JUMPDEST SWAP3 SWAP2 POP POP JUMP JUMPDEST PUSH2 0x24DF DUP1 PUSH2 0x742 PUSH0 CODECOPY PUSH0 RETURN INVALID PUSH1 0x80 PUSH1 0x40 MSTORE CALLVALUE DUP1 ISZERO PUSH2 0xF JUMPI PUSH0 DUP1 REVERT JUMPDEST POP PUSH1 0x4 CALLDATASIZE LT PUSH2 0xE8 JUMPI PUSH0 CALLDATALOAD PUSH1 0xE0 SHR DUP1 PUSH4 0x80F76021 GT PUSH2 0x8A JUMPI DUP1 PUSH4 0xB9DAF3E2 GT PUSH2 0x64 JUMPI DUP1 PUSH4 0xB9DAF3E2 EQ PUSH2 0x20C JUMPI DUP1 PUSH4 0xBA379E86 EQ PUSH2 0x22A JUMPI DUP1 PUSH4 0xC47F0027 EQ PUSH2 0x24B JUMPI DUP1 PUSH4 0xDED92DAC EQ PUSH2 0x267 JUMPI PUSH2 0xE8 JUMP JUMPDEST DUP1 PUSH4 0x80F76021 EQ PUSH2 0x1B4 JUMPI DUP1 PUSH4 0xA95264D0 EQ PUSH2 0x1D2 JUMPI DUP1 PUSH4 0xAC0344E6 EQ PUSH2 0x1F0 JUMPI PUSH2 0xE8 JUMP JUMPDEST DUP1 PUSH4 0x290BB453 GT PUSH2 0xC6 JUMPI DUP1 PUSH4 0x290BB453 EQ PUSH2 0x142 JUMPI DUP1 PUSH4 0x2B5914FE EQ PUSH2 0x15E JUMPI DUP1 PUSH4 0x4BA83374 EQ PUSH2 0x17A JUMPI DUP1 PUSH4 0x5DA6EF8D EQ PUSH2 0x198 JUMPI PUSH2 0xE8 JUMP JUMPDEST DUP1 PUSH4 0x1499C592 EQ PUSH2 0xEC JUMPI DUP1 PUSH4 0x252498A2 EQ PUSH2 0x108 JUMPI DUP1 PUSH4 0x2858D3C8 EQ PUSH2 0x124 JUMPI JUMPDEST PUSH0 DUP1 REVERT JUMPDEST PUSH2 0x106 PUSH1 0x4 DUP1 CALLDATASIZE SUB DUP2 ADD SWAP1 PUSH2 0x101 SWAP2 SWAP1 PUSH2 0x19E3 JUMP JUMPDEST PUSH2 0x283 JUMP JUMPDEST STOP JUMPDEST PUSH2 0x122 PUSH1 0x4 DUP1 CALLDATASIZE SUB DUP2 ADD SWAP1 PUSH2 0x11D SWAP2 SWAP1 PUSH2 0x1B4A JUMP JUMPDEST PUSH2 0x3E2 JUMP JUMPDEST STOP JUMPDEST PUSH2 0x12C PUSH2 0x511 JUMP JUMPDEST PUSH1 0x40 MLOAD PUSH2 0x139 SWAP2 SWAP1 PUSH2 0x1C04 JUMP JUMPDEST PUSH1 0x40 MLOAD DUP1 SWAP2 SUB SWAP1 RETURN JUMPDEST PUSH2 0x15C PUSH1 0x4 DUP1 CALLDATASIZE SUB DUP2 ADD SWAP1 PUSH2 0x157 SWAP2 SWAP1 PUSH2 0x1B4A JUMP JUMPDEST PUSH2 0x60B JUMP JUMPDEST STOP JUMPDEST PUSH2 0x178 PUSH1 0x4 DUP1 CALLDATASIZE SUB DUP2 ADD SWAP1 PUSH2 0x173 SWAP2 SWAP1 PUSH2 0x1B4A JUMP JUMPDEST PUSH2 0x73A JUMP JUMPDEST STOP JUMPDEST PUSH2 0x182 PUSH2 0x869 JUMP JUMPDEST PUSH1 0x40 MLOAD PUSH2 0x18F SWAP2 SWAP1 PUSH2 0x1C37 JUMP JUMPDEST PUSH1 0x40 MLOAD DUP1 SWAP2 SUB SWAP1 RETURN JUMPDEST PUSH2 0x1B2 PUSH1 0x4 DUP1 CALLDATASIZE SUB DUP2 ADD SWAP1 PUSH2 0x1AD SWAP2 SWAP1 PUSH2 0x19E3 JUMP JUMPDEST PUSH2 0x91F JUMP JUMPDEST STOP JUMPDEST PUSH2 0x1BC PUSH2 0xBE5 JUMP JUMPDEST PUSH1 0x40 MLOAD PUSH2 0x1C9 SWAP2 SWAP1 PUSH2 0x1C5F JUMP JUMPDEST PUSH1 0x40 MLOAD DUP1 SWAP2 SUB SWAP1 RETURN JUMPDEST PUSH2 0x1DA PUSH2 0xCF2 JUMP JUMPDEST PUSH1 0x40 MLOAD PUSH2 0x1E7 SWAP2 SWAP1 PUSH2 0x1D2F JUMP JUMPDEST PUSH1 0x40 MLOAD DUP1 SWAP2 SUB SWAP1 RETURN JUMPDEST PUSH2 0x20A PUSH1 0x4 DUP1 CALLDATASIZE SUB DUP2 ADD SWAP1 PUSH2 0x205 SWAP2 SWAP1 PUSH2 0x1D4F JUMP JUMPDEST PUSH2 0xE62 JUMP JUMPDEST STOP JUMPDEST PUSH2 0x214 PUSH2 0xFC3 JUMP JUMPDEST PUSH1 0x40 MLOAD PUSH2 0x221 SWAP2 SWAP1 PUSH2 0x1C37 JUMP JUMPDEST PUSH1 0x40 MLOAD DUP1 SWAP2 SUB SWAP1 RETURN JUMPDEST PUSH2 0x232 PUSH2 0x106F JUMP JUMPDEST PUSH1 0x40 MLOAD PUSH2 0x242 SWAP5 SWAP4 SWAP3 SWAP2 SWAP1 PUSH2 0x1E83 JUMP JUMPDEST PUSH1 0x40 MLOAD DUP1 SWAP2 SUB SWAP1 RETURN JUMPDEST PUSH2 0x265 PUSH1 0x4 DUP1 CALLDATASIZE SUB DUP2 ADD SWAP1 PUSH2 0x260 SWAP2 SWAP1 PUSH2 0x1B4A JUMP JUMPDEST PUSH2 0x13F7 JUMP JUMPDEST STOP JUMPDEST PUSH2 0x281 PUSH1 0x4 DUP1 CALLDATASIZE SUB DUP2 ADD SWAP1 PUSH2 0x27C SWAP2 SWAP1 PUSH2 0x19E3 JUMP JUMPDEST PUSH2 0x1525 JUMP JUMPDEST STOP JUMPDEST PUSH1 0x1 DUP1 SLOAD SWAP1 PUSH2 0x100 EXP SWAP1 DIV PUSH20 0xFFFFFFFFFFFFFFFFFFFFFFFFFFFFFFFFFFFFFFFF AND PUSH20 0xFFFFFFFFFFFFFFFFFFFFFFFFFFFFFFFFFFFFFFFF AND CALLER PUSH20 0xFFFFFFFFFFFFFFFFFFFFFFFFFFFFFFFFFFFFFFFF AND EQ DUP1 PUSH2 0x329 JUMPI POP PUSH1 0x2 PUSH0 SWAP1 SLOAD SWAP1 PUSH2 0x100 EXP SWAP1 DIV PUSH20 0xFFFFFFFFFFFFFFFFFFFFFFFFFFFFFFFFFFFFFFFF AND PUSH20 0xFFFFFFFFFFFFFFFFFFFFFFFFFFFFFFFFFFFFFFFF AND CALLER PUSH20 0xFFFFFFFFFFFFFFFFFFFFFFFFFFFFFFFFFFFFFFFF AND EQ JUMPDEST PUSH2 0x368 JUMPI PUSH1 0x40 MLOAD PUSH32 0x8C379A000000000000000000000000000000000000000000000000000000000 DUP2 MSTORE PUSH1 0x4 ADD PUSH2 0x35F SWAP1 PUSH2 0x1F2C JUMP JUMPDEST PUSH1 0x40 MLOAD DUP1 SWAP2 SUB SWAP1 REVERT JUMPDEST DUP1 PUSH1 0x2 PUSH0 PUSH2 0x100 EXP DUP2 SLOAD DUP2 PUSH20 0xFFFFFFFFFFFFFFFFFFFFFFFFFFFFFFFFFFFFFFFF MUL NOT AND SWAP1 DUP4 PUSH20 0xFFFFFFFFFFFFFFFFFFFFFFFFFFFFFFFFFFFFFFFF AND MUL OR SWAP1 SSTORE POP PUSH32 0xE00DA2178806F37F69815E9ED5ED3072EC1D55206D60916D99B469C7DAA421E4 CALLER PUSH1 0x40 MLOAD PUSH2 0x3D7 SWAP2 SWAP1 PUSH2 0x1C5F JUMP JUMPDEST PUSH1 0x40 MLOAD DUP1 SWAP2 SUB SWAP1 LOG1 POP JUMP JUMPDEST PUSH1 0x1 DUP1 SLOAD SWAP1 PUSH2 0x100 EXP SWAP1 DIV PUSH20 0xFFFFFFFFFFFFFFFFFFFFFFFFFFFFFFFFFFFFFFFF AND PUSH20 0xFFFFFFFFFFFFFFFFFFFFFFFFFFFFFFFFFFFFFFFF AND CALLER PUSH20 0xFFFFFFFFFFFFFFFFFFFFFFFFFFFFFFFFFFFFFFFF AND EQ DUP1 PUSH2 0x488 JUMPI POP PUSH1 0x2 PUSH0 SWAP1 SLOAD SWAP1 PUSH2 0x100 EXP SWAP1 DIV PUSH20 0xFFFFFFFFFFFFFFFFFFFFFFFFFFFFFFFFFFFFFFFF AND PUSH20 0xFFFFFFFFFFFFFFFFFFFFFFFFFFFFFFFFFFFFFFFF AND CALLER PUSH20 0xFFFFFFFFFFFFFFFFFFFFFFFFFFFFFFFFFFFFFFFF AND EQ JUMPDEST PUSH2 0x4C7 JUMPI PUSH1 0x40 MLOAD PUSH32 0x8C379A000000000000000000000000000000000000000000000000000000000 DUP2 MSTORE PUSH1 0x4 ADD PUSH2 0x4BE SWAP1 PUSH2 0x1F2C JUMP JUMPDEST PUSH1 0x40 MLOAD DUP1 SWAP2 SUB SWAP1 REVERT JUMPDEST DUP1 PUSH1 0x4 SWAP1 DUP2 PUSH2 0x4D6 SWAP2 SWAP1 PUSH2 0x214D JUMP JUMPDEST POP PUSH32 0xE00DA2178806F37F69815E9ED5ED3072EC1D55206D60916D99B469C7DAA421E4 CALLER PUSH1 0x40 MLOAD PUSH2 0x506 SWAP2 SWAP1 PUSH2 0x1C5F JUMP JUMPDEST PUSH1 0x40 MLOAD DUP1 SWAP2 SUB SWAP1 LOG1 POP JUMP JUMPDEST PUSH0 PUSH1 0x1 DUP1 SLOAD SWAP1 PUSH2 0x100 EXP SWAP1 DIV PUSH20 0xFFFFFFFFFFFFFFFFFFFFFFFFFFFFFFFFFFFFFFFF AND PUSH20 0xFFFFFFFFFFFFFFFFFFFFFFFFFFFFFFFFFFFFFFFF AND CALLER PUSH20 0xFFFFFFFFFFFFFFFFFFFFFFFFFFFFFFFFFFFFFFFF AND EQ DUP1 PUSH2 0x5B8 JUMPI POP PUSH1 0x2 PUSH0 SWAP1 SLOAD SWAP1 PUSH2 0x100 EXP SWAP1 DIV PUSH20 0xFFFFFFFFFFFFFFFFFFFFFFFFFFFFFFFFFFFFFFFF AND PUSH20 0xFFFFFFFFFFFFFFFFFFFFFFFFFFFFFFFFFFFFFFFF AND CALLER PUSH20 0xFFFFFFFFFFFFFFFFFFFFFFFFFFFFFFFFFFFFFFFF AND EQ JUMPDEST PUSH2 0x5F7 JUMPI PUSH1 0x40 MLOAD PUSH32 0x8C379A000000000000000000000000000000000000000000000000000000000 DUP2 MSTORE PUSH1 0x4 ADD PUSH2 0x5EE SWAP1 PUSH2 0x1F2C JUMP JUMPDEST PUSH1 0x40 MLOAD DUP1 SWAP2 SUB SWAP1 REVERT JUMPDEST PUSH1 0x1 PUSH0 SWAP1 SLOAD SWAP1 PUSH2 0x100 EXP SWAP1 DIV PUSH1 0xFF AND SWAP1 POP SWAP1 JUMP JUMPDEST PUSH1 0x1 DUP1 SLOAD SWAP1 PUSH2 0x100 EXP SWAP1 DIV PUSH20 0xFFFFFFFFFFFFFFFFFFFFFFFFFFFFFFFFFFFFFFFF AND PUSH20 0xFFFFFFFFFFFFFFFFFFFFFFFFFFFFFFFFFFFFFFFF AND CALLER PUSH20 0xFFFFFFFFFFFFFFFFFFFFFFFFFFFFFFFFFFFFFFFF AND EQ DUP1 PUSH2 0x6B1 JUMPI POP PUSH1 0x2 PUSH0 SWAP1 SLOAD SWAP1 PUSH2 0x100 EXP SWAP1 DIV PUSH20 0xFFFFFFFFFFFFFFFFFFFFFFFFFFFFFFFFFFFFFFFF AND PUSH20 0xFFFFFFFFFFFFFFFFFFFFFFFFFFFFFFFFFFFFFFFF AND CALLER PUSH20 0xFFFFFFFFFFFFFFFFFFFFFFFFFFFFFFFFFFFFFFFF AND EQ JUMPDEST PUSH2 0x6F0 JUMPI PUSH1 0x40 MLOAD PUSH32 0x8C379A000000000000000000000000000000000000000000000000000000000 DUP2 MSTORE PUSH1 0x4 ADD PUSH2 0x6E7 SWAP1 PUSH2 0x1F2C JUMP JUMPDEST PUSH1 0x40 MLOAD DUP1 SWAP2 SUB SWAP1 REVERT JUMPDEST DUP1 PUSH1 0x6 SWAP1 DUP2 PUSH2 0x6FF SWAP2 SWAP1 PUSH2 0x214D JUMP JUMPDEST POP PUSH32 0xE00DA2178806F37F69815E9ED5ED3072EC1D55206D60916D99B469C7DAA421E4 CALLER PUSH1 0x40 MLOAD PUSH2 0x72F SWAP2 SWAP1 PUSH2 0x1C5F JUMP JUMPDEST PUSH1 0x40 MLOAD DUP1 SWAP2 SUB SWAP1 LOG1 POP JUMP JUMPDEST PUSH1 0x1 DUP1 SLOAD SWAP1 PUSH2 0x100 EXP SWAP1 DIV PUSH20 0xFFFFFFFFFFFFFFFFFFFFFFFFFFFFFFFFFFFFFFFF AND PUSH20 0xFFFFFFFFFFFFFFFFFFFFFFFFFFFFFFFFFFFFFFFF AND CALLER PUSH20 0xFFFFFFFFFFFFFFFFFFFFFFFFFFFFFFFFFFFFFFFF AND EQ DUP1 PUSH2 0x7E0 JUMPI POP PUSH1 0x2 PUSH0 SWAP1 SLOAD SWAP1 PUSH2 0x100 EXP SWAP1 DIV PUSH20 0xFFFFFFFFFFFFFFFFFFFFFFFFFFFFFFFFFFFFFFFF AND PUSH20 0xFFFFFFFFFFFFFFFFFFFFFFFFFFFFFFFFFFFFFFFF AND CALLER PUSH20 0xFFFFFFFFFFFFFFFFFFFFFFFFFFFFFFFFFFFFFFFF AND EQ JUMPDEST PUSH2 0x81F JUMPI PUSH1 0x40 MLOAD PUSH32 0x8C379A000000000000000000000000000000000000000000000000000000000 DUP2 MSTORE PUSH1 0x4 ADD PUSH2 0x816 SWAP1 PUSH2 0x1F2C JUMP JUMPDEST PUSH1 0x40 MLOAD DUP1 SWAP2 SUB SWAP1 REVERT JUMPDEST DUP1 PUSH1 0x5 SWAP1 DUP2 PUSH2 0x82E SWAP2 SWAP1 PUSH2 0x214D JUMP JUMPDEST POP PUSH32 0xE00DA2178806F37F69815E9ED5ED3072EC1D55206D60916D99B469C7DAA421E4 CALLER PUSH1 0x40 MLOAD PUSH2 0x85E SWAP2 SWAP1 PUSH2 0x1C5F JUMP JUMPDEST PUSH1 0x40 MLOAD DUP1 SWAP2 SUB SWAP1 LOG1 POP JUMP JUMPDEST PUSH0 PUSH32 0xFFFFFFFFFFFFFFFFFFFFFFFFFFFFFFFFFFFFFFFFFFFFFFFFFFFFFFFFFFFFFFFF PUSH2 0x918 CALLER PUSH1 0x3 DUP1 SLOAD DUP1 PUSH1 0x20 MUL PUSH1 0x20 ADD PUSH1 0x40 MLOAD SWAP1 DUP2 ADD PUSH1 0x40 MSTORE DUP1 SWAP3 SWAP2 SWAP1 DUP2 DUP2 MSTORE PUSH1 0x20 ADD DUP3 DUP1 SLOAD DUP1 ISZERO PUSH2 0x90E JUMPI PUSH1 0x20 MUL DUP3 ADD SWAP2 SWAP1 PUSH0 MSTORE PUSH1 0x20 PUSH0 KECCAK256 SWAP1 JUMPDEST DUP2 PUSH0 SWAP1 SLOAD SWAP1 PUSH2 0x100 EXP SWAP1 DIV PUSH20 0xFFFFFFFFFFFFFFFFFFFFFFFFFFFFFFFFFFFFFFFF AND PUSH20 0xFFFFFFFFFFFFFFFFFFFFFFFFFFFFFFFFFFFFFFFF AND DUP2 MSTORE PUSH1 0x20 ADD SWAP1 PUSH1 0x1 ADD SWAP1 DUP1 DUP4 GT PUSH2 0x8C5 JUMPI JUMPDEST POP POP POP POP POP PUSH2 0x1778 JUMP JUMPDEST EQ ISZERO SWAP1 POP SWAP1 JUMP JUMPDEST PUSH1 0x1 DUP1 SLOAD SWAP1 PUSH2 0x100 EXP SWAP1 DIV PUSH20 0xFFFFFFFFFFFFFFFFFFFFFFFFFFFFFFFFFFFFFFFF AND PUSH20 0xFFFFFFFFFFFFFFFFFFFFFFFFFFFFFFFFFFFFFFFF AND CALLER PUSH20 0xFFFFFFFFFFFFFFFFFFFFFFFFFFFFFFFFFFFFFFFF AND EQ DUP1 PUSH2 0x9C5 JUMPI POP PUSH1 0x2 PUSH0 SWAP1 SLOAD SWAP1 PUSH2 0x100 EXP SWAP1 DIV PUSH20 0xFFFFFFFFFFFFFFFFFFFFFFFFFFFFFFFFFFFFFFFF AND PUSH20 0xFFFFFFFFFFFFFFFFFFFFFFFFFFFFFFFFFFFFFFFF AND CALLER PUSH20 0xFFFFFFFFFFFFFFFFFFFFFFFFFFFFFFFFFFFFFFFF AND EQ JUMPDEST PUSH2 0xA04 JUMPI PUSH1 0x40 MLOAD PUSH32 0x8C379A000000000000000000000000000000000000000000000000000000000 DUP2 MSTORE PUSH1 0x4 ADD PUSH2 0x9FB SWAP1 PUSH2 0x1F2C JUMP JUMPDEST PUSH1 0x40 MLOAD DUP1 SWAP2 SUB SWAP1 REVERT JUMPDEST PUSH1 0x1 DUP1 SLOAD SWAP1 PUSH2 0x100 EXP SWAP1 DIV PUSH20 0xFFFFFFFFFFFFFFFFFFFFFFFFFFFFFFFFFFFFFFFF AND PUSH20 0xFFFFFFFFFFFFFFFFFFFFFFFFFFFFFFFFFFFFFFFF AND DUP2 PUSH20 0xFFFFFFFFFFFFFFFFFFFFFFFFFFFFFFFFFFFFFFFF AND EQ ISZERO DUP1 ISZERO PUSH2 0xA8C JUMPI POP PUSH0 PUSH20 0xFFFFFFFFFFFFFFFFFFFFFFFFFFFFFFFFFFFFFFFF AND DUP2 PUSH20 0xFFFFFFFFFFFFFFFFFFFFFFFFFFFFFFFFFFFFFFFF AND EQ ISZERO JUMPDEST DUP1 ISZERO PUSH2 0xB43 JUMPI POP PUSH32 0xFFFFFFFFFFFFFFFFFFFFFFFFFFFFFFFFFFFFFFFFFFFFFFFFFFFFFFFFFFFFFFFF PUSH2 0xB41 DUP3 PUSH1 0x3 DUP1 SLOAD DUP1 PUSH1 0x20 MUL PUSH1 0x20 ADD PUSH1 0x40 MLOAD SWAP1 DUP2 ADD PUSH1 0x40 MSTORE DUP1 SWAP3 SWAP2 SWAP1 DUP2 DUP2 MSTORE PUSH1 0x20 ADD DUP3 DUP1 SLOAD DUP1 ISZERO PUSH2 0xB37 JUMPI PUSH1 0x20 MUL DUP3 ADD SWAP2 SWAP1 PUSH0 MSTORE PUSH1 0x20 PUSH0 KECCAK256 SWAP1 JUMPDEST DUP2 PUSH0 SWAP1 SLOAD SWAP1 PUSH2 0x100 EXP SWAP1 DIV PUSH20 0xFFFFFFFFFFFFFFFFFFFFFFFFFFFFFFFFFFFFFFFF AND PUSH20 0xFFFFFFFFFFFFFFFFFFFFFFFFFFFFFFFFFFFFFFFF AND DUP2 MSTORE PUSH1 0x20 ADD SWAP1 PUSH1 0x1 ADD SWAP1 DUP1 DUP4 GT PUSH2 0xAEE JUMPI JUMPDEST POP POP POP POP POP PUSH2 0x1778 JUMP JUMPDEST EQ JUMPDEST PUSH2 0xB82 JUMPI PUSH1 0x40 MLOAD PUSH32 0x8C379A000000000000000000000000000000000000000000000000000000000 DUP2 MSTORE PUSH1 0x4 ADD PUSH2 0xB79 SWAP1 PUSH2 0x2266 JUMP JUMPDEST PUSH1 0x40 MLOAD DUP1 SWAP2 SUB SWAP1 REVERT JUMPDEST PUSH1 0x3 DUP2 SWAP1 DUP1 PUSH1 0x1 DUP2 SLOAD ADD DUP1 DUP3 SSTORE DUP1 SWAP2 POP POP PUSH1 0x1 SWAP1 SUB SWAP1 PUSH0 MSTORE PUSH1 0x20 PUSH0 KECCAK256 ADD PUSH0 SWAP1 SWAP2 SWAP1 SWAP2 SWAP1 SWAP2 PUSH2 0x100 EXP DUP2 SLOAD DUP2 PUSH20 0xFFFFFFFFFFFFFFFFFFFFFFFFFFFFFFFFFFFFFFFF MUL NOT AND SWAP1 DUP4 PUSH20 0xFFFFFFFFFFFFFFFFFFFFFFFFFFFFFFFFFFFFFFFF AND MUL OR SWAP1 SSTORE POP POP JUMP JUMPDEST PUSH0 PUSH1 0x1 DUP1 SLOAD SWAP1 PUSH2 0x100 EXP SWAP1 DIV PUSH20 0xFFFFFFFFFFFFFFFFFFFFFFFFFFFFFFFFFFFFFFFF AND PUSH20 0xFFFFFFFFFFFFFFFFFFFFFFFFFFFFFFFFFFFFFFFF AND CALLER PUSH20 0xFFFFFFFFFFFFFFFFFFFFFFFFFFFFFFFFFFFFFFFF AND EQ DUP1 PUSH2 0xC8C JUMPI POP PUSH1 0x2 PUSH0 SWAP1 SLOAD SWAP1 PUSH2 0x100 EXP SWAP1 DIV PUSH20 0xFFFFFFFFFFFFFFFFFFFFFFFFFFFFFFFFFFFFFFFF AND PUSH20 0xFFFFFFFFFFFFFFFFFFFFFFFFFFFFFFFFFFFFFFFF AND CALLER PUSH20 0xFFFFFFFFFFFFFFFFFFFFFFFFFFFFFFFFFFFFFFFF AND EQ JUMPDEST PUSH2 0xCCB JUMPI PUSH1 0x40 MLOAD PUSH32 0x8C379A000000000000000000000000000000000000000000000000000000000 DUP2 MSTORE PUSH1 0x4 ADD PUSH2 0xCC2 SWAP1 PUSH2 0x1F2C JUMP JUMPDEST PUSH1 0x40 MLOAD DUP1 SWAP2 SUB SWAP1 REVERT JUMPDEST PUSH1 0x2 PUSH0 SWAP1 SLOAD SWAP1 PUSH2 0x100 EXP SWAP1 DIV PUSH20 0xFFFFFFFFFFFFFFFFFFFFFFFFFFFFFFFFFFFFFFFF AND SWAP1 POP SWAP1 JUMP JUMPDEST PUSH1 0x60 PUSH1 0x1 DUP1 SLOAD SWAP1 PUSH2 0x100 EXP SWAP1 DIV PUSH20 0xFFFFFFFFFFFFFFFFFFFFFFFFFFFFFFFFFFFFFFFF AND PUSH20 0xFFFFFFFFFFFFFFFFFFFFFFFFFFFFFFFFFFFFFFFF AND CALLER PUSH20 0xFFFFFFFFFFFFFFFFFFFFFFFFFFFFFFFFFFFFFFFF AND EQ DUP1 PUSH2 0xD9A JUMPI POP PUSH1 0x2 PUSH0 SWAP1 SLOAD SWAP1 PUSH2 0x100 EXP SWAP1 DIV PUSH20 0xFFFFFFFFFFFFFFFFFFFFFFFFFFFFFFFFFFFFFFFF AND PUSH20 0xFFFFFFFFFFFFFFFFFFFFFFFFFFFFFFFFFFFFFFFF AND CALLER PUSH20 0xFFFFFFFFFFFFFFFFFFFFFFFFFFFFFFFFFFFFFFFF AND EQ JUMPDEST PUSH2 0xDD9 JUMPI PUSH1 0x40 MLOAD PUSH32 0x8C379A000000000000000000000000000000000000000000000000000000000 DUP2 MSTORE PUSH1 0x4 ADD PUSH2 0xDD0 SWAP1 PUSH2 0x1F2C JUMP JUMPDEST PUSH1 0x40 MLOAD DUP1 SWAP2 SUB SWAP1 REVERT JUMPDEST PUSH1 0x3 DUP1 SLOAD DUP1 PUSH1 0x20 MUL PUSH1 0x20 ADD PUSH1 0x40 MLOAD SWAP1 DUP2 ADD PUSH1 0x40 MSTORE DUP1 SWAP3 SWAP2 SWAP1 DUP2 DUP2 MSTORE PUSH1 0x20 ADD DUP3 DUP1 SLOAD DUP1 ISZERO PUSH2 0xE58 JUMPI PUSH1 0x20 MUL DUP3 ADD SWAP2 SWAP1 PUSH0 MSTORE PUSH1 0x20 PUSH0 KECCAK256 SWAP1 JUMPDEST DUP2 PUSH0 SWAP1 SLOAD SWAP1 PUSH2 0x100 EXP SWAP1 DIV PUSH20 0xFFFFFFFFFFFFFFFFFFFFFFFFFFFFFFFFFFFFFFFF AND PUSH20 0xFFFFFFFFFFFFFFFFFFFFFFFFFFFFFFFFFFFFFFFF AND DUP2 MSTORE PUSH1 0x20 ADD SWAP1 PUSH1 0x1 ADD SWAP1 DUP1 DUP4 GT PUSH2 0xE0F JUMPI JUMPDEST POP POP POP POP POP SWAP1 POP SWAP1 JUMP JUMPDEST PUSH1 0x1 DUP1 SLOAD SWAP1 PUSH2 0x100 EXP SWAP1 DIV PUSH20 0xFFFFFFFFFFFFFFFFFFFFFFFFFFFFFFFFFFFFFFFF AND PUSH20 0xFFFFFFFFFFFFFFFFFFFFFFFFFFFFFFFFFFFFFFFF AND CALLER PUSH20 0xFFFFFFFFFFFFFFFFFFFFFFFFFFFFFFFFFFFFFFFF AND EQ DUP1 PUSH2 0xF08 JUMPI POP PUSH1 0x2 PUSH0 SWAP1 SLOAD SWAP1 PUSH2 0x100 EXP SWAP1 DIV PUSH20 0xFFFFFFFFFFFFFFFFFFFFFFFFFFFFFFFFFFFFFFFF AND PUSH20 0xFFFFFFFFFFFFFFFFFFFFFFFFFFFFFFFFFFFFFFFF AND CALLER PUSH20 0xFFFFFFFFFFFFFFFFFFFFFFFFFFFFFFFFFFFFFFFF AND EQ JUMPDEST PUSH2 0xF47 JUMPI PUSH1 0x40 MLOAD PUSH32 0x8C379A000000000000000000000000000000000000000000000000000000000 DUP2 MSTORE PUSH1 0x4 ADD PUSH2 0xF3E SWAP1 PUSH2 0x1F2C JUMP JUMPDEST PUSH1 0x40 MLOAD DUP1 SWAP2 SUB SWAP1 REVERT JUMPDEST DUP4 PUSH0 SWAP1 DUP2 PUSH2 0xF55 SWAP2 SWAP1 PUSH2 0x214D JUMP JUMPDEST POP DUP3 PUSH1 0x4 SWAP1 DUP2 PUSH2 0xF65 SWAP2 SWAP1 PUSH2 0x214D JUMP JUMPDEST POP DUP2 PUSH1 0x5 SWAP1 DUP2 PUSH2 0xF75 SWAP2 SWAP1 PUSH2 0x214D JUMP JUMPDEST POP DUP1 PUSH1 0x6 SWAP1 DUP2 PUSH2 0xF85 SWAP2 SWAP1 PUSH2 0x214D JUMP JUMPDEST POP PUSH32 0xE00DA2178806F37F69815E9ED5ED3072EC1D55206D60916D99B469C7DAA421E4 CALLER PUSH1 0x40 MLOAD PUSH2 0xFB5 SWAP2 SWAP1 PUSH2 0x1C5F JUMP JUMPDEST PUSH1 0x40 MLOAD DUP1 SWAP2 SUB SWAP1 LOG1 POP POP POP POP JUMP JUMPDEST PUSH0 PUSH1 0x1 DUP1 SLOAD SWAP1 PUSH2 0x100 EXP SWAP1 DIV PUSH20 0xFFFFFFFFFFFFFFFFFFFFFFFFFFFFFFFFFFFFFFFF AND PUSH20 0xFFFFFFFFFFFFFFFFFFFFFFFFFFFFFFFFFFFFFFFF AND CALLER PUSH20 0xFFFFFFFFFFFFFFFFFFFFFFFFFFFFFFFFFFFFFFFF AND EQ DUP1 PUSH2 0x106A JUMPI POP PUSH1 0x2 PUSH0 SWAP1 SLOAD SWAP1 PUSH2 0x100 EXP SWAP1 DIV PUSH20 0xFFFFFFFFFFFFFFFFFFFFFFFFFFFFFFFFFFFFFFFF AND PUSH20 0xFFFFFFFFFFFFFFFFFFFFFFFFFFFFFFFFFFFFFFFF AND CALLER PUSH20 0xFFFFFFFFFFFFFFFFFFFFFFFFFFFFFFFFFFFFFFFF AND EQ JUMPDEST SWAP1 POP SWAP1 JUMP JUMPDEST PUSH1 0x60 DUP1 PUSH1 0x60 DUP1 PUSH1 0x1 DUP1 SLOAD SWAP1 PUSH2 0x100 EXP SWAP1 DIV PUSH20 0xFFFFFFFFFFFFFFFFFFFFFFFFFFFFFFFFFFFFFFFF AND PUSH20 0xFFFFFFFFFFFFFFFFFFFFFFFFFFFFFFFFFFFFFFFF AND CALLER PUSH20 0xFFFFFFFFFFFFFFFFFFFFFFFFFFFFFFFFFFFFFFFF AND EQ DUP1 PUSH2 0x117B JUMPI POP PUSH32 0xFFFFFFFFFFFFFFFFFFFFFFFFFFFFFFFFFFFFFFFFFFFFFFFFFFFFFFFFFFFFFFFF PUSH2 0x1178 CALLER PUSH1 0x3 DUP1 SLOAD DUP1 PUSH1 0x20 MUL PUSH1 0x20 ADD PUSH1 0x40 MLOAD SWAP1 DUP2 ADD PUSH1 0x40 MSTORE DUP1 SWAP3 SWAP2 SWAP1 DUP2 DUP2 MSTORE PUSH1 0x20 ADD DUP3 DUP1 SLOAD DUP1 ISZERO PUSH2 0x116E JUMPI PUSH1 0x20 MUL DUP3 ADD SWAP2 SWAP1 PUSH0 MSTORE PUSH1 0x20 PUSH0 KECCAK256 SWAP1 JUMPDEST DUP2 PUSH0 SWAP1 SLOAD SWAP1 PUSH2 0x100 EXP SWAP1 DIV PUSH20 0xFFFFFFFFFFFFFFFFFFFFFFFFFFFFFFFFFFFFFFFF AND PUSH20 0xFFFFFFFFFFFFFFFFFFFFFFFFFFFFFFFFFFFFFFFF AND DUP2 MSTORE PUSH1 0x20 ADD SWAP1 PUSH1 0x1 ADD SWAP1 DUP1 DUP4 GT PUSH2 0x1125 JUMPI JUMPDEST POP POP POP POP POP PUSH2 0x1778 JUMP JUMPDEST EQ ISZERO JUMPDEST PUSH2 0x11BA JUMPI PUSH1 0x40 MLOAD PUSH32 0x8C379A000000000000000000000000000000000000000000000000000000000 DUP2 MSTORE PUSH1 0x4 ADD PUSH2 0x11B1 SWAP1 PUSH2 0x22CE JUMP JUMPDEST PUSH1 0x40 MLOAD DUP1 SWAP2 SUB SWAP1 REVERT JUMPDEST PUSH0 PUSH1 0x4 PUSH1 0x5 PUSH1 0x6 DUP4 DUP1 SLOAD PUSH2 0x11CD SWAP1 PUSH2 0x1F77 JUMP JUMPDEST DUP1 PUSH1 0x1F ADD PUSH1 0x20 DUP1 SWAP2 DIV MUL PUSH1 0x20 ADD PUSH1 0x40 MLOAD SWAP1 DUP2 ADD PUSH1 0x40 MSTORE DUP1 SWAP3 SWAP2 SWAP1 DUP2 DUP2 MSTORE PUSH1 0x20 ADD DUP3 DUP1 SLOAD PUSH2 0x11F9 SWAP1 PUSH2 0x1F77 JUMP JUMPDEST DUP1 ISZERO PUSH2 0x1244 JUMPI DUP1 PUSH1 0x1F LT PUSH2 0x121B JUMPI PUSH2 0x100 DUP1 DUP4 SLOAD DIV MUL DUP4 MSTORE SWAP2 PUSH1 0x20 ADD SWAP2 PUSH2 0x1244 JUMP JUMPDEST DUP3 ADD SWAP2 SWAP1 PUSH0 MSTORE PUSH1 0x20 PUSH0 KECCAK256 SWAP1 JUMPDEST DUP2 SLOAD DUP2 MSTORE SWAP1 PUSH1 0x1 ADD SWAP1 PUSH1 0x20 ADD DUP1 DUP4 GT PUSH2 0x1227 JUMPI DUP3 SWAP1 SUB PUSH1 0x1F AND DUP3 ADD SWAP2 JUMPDEST POP POP POP POP POP SWAP4 POP DUP3 DUP1 SLOAD PUSH2 0x1257 SWAP1 PUSH2 0x1F77 JUMP JUMPDEST DUP1 PUSH1 0x1F ADD PUSH1 0x20 DUP1 SWAP2 DIV MUL PUSH1 0x20 ADD PUSH1 0x40 MLOAD SWAP1 DUP2 ADD PUSH1 0x40 MSTORE DUP1 SWAP3 SWAP2 SWAP1 DUP2 DUP2 MSTORE PUSH1 0x20 ADD DUP3 DUP1 SLOAD PUSH2 0x1283 SWAP1 PUSH2 0x1F77 JUMP JUMPDEST DUP1 ISZERO PUSH2 0x12CE JUMPI DUP1 PUSH1 0x1F LT PUSH2 0x12A5 JUMPI PUSH2 0x100 DUP1 DUP4 SLOAD DIV MUL DUP4 MSTORE SWAP2 PUSH1 0x20 ADD SWAP2 PUSH2 0x12CE JUMP JUMPDEST DUP3 ADD SWAP2 SWAP1 PUSH0 MSTORE PUSH1 0x20 PUSH0 KECCAK256 SWAP1 JUMPDEST DUP2 SLOAD DUP2 MSTORE SWAP1 PUSH1 0x1 ADD SWAP1 PUSH1 0x20 ADD DUP1 DUP4 GT PUSH2 0x12B1 JUMPI DUP3 SWAP1 SUB PUSH1 0x1F AND DUP3 ADD SWAP2 JUMPDEST POP POP POP POP POP SWAP3 POP DUP2 DUP1 SLOAD PUSH2 0x12E1 SWAP1 PUSH2 0x1F77 JUMP JUMPDEST DUP1 PUSH1 0x1F ADD PUSH1 0x20 DUP1 SWAP2 DIV MUL PUSH1 0x20 ADD PUSH1 0x40 MLOAD SWAP1 DUP2 ADD PUSH1 0x40 MSTORE DUP1 SWAP3 SWAP2 SWAP1 DUP2 DUP2 MSTORE PUSH1 0x20 ADD DUP3 DUP1 SLOAD PUSH2 0x130D SWAP1 PUSH2 0x1F77 JUMP JUMPDEST DUP1 ISZERO PUSH2 0x1358 JUMPI DUP1 PUSH1 0x1F LT PUSH2 0x132F JUMPI PUSH2 0x100 DUP1 DUP4 SLOAD DIV MUL DUP4 MSTORE SWAP2 PUSH1 0x20 ADD SWAP2 PUSH2 0x1358 JUMP JUMPDEST DUP3 ADD SWAP2 SWAP1 PUSH0 MSTORE PUSH1 0x20 PUSH0 KECCAK256 SWAP1 JUMPDEST DUP2 SLOAD DUP2 MSTORE SWAP1 PUSH1 0x1 ADD SWAP1 PUSH1 0x20 ADD DUP1 DUP4 GT PUSH2 0x133B JUMPI DUP3 SWAP1 SUB PUSH1 0x1F AND DUP3 ADD SWAP2 JUMPDEST POP POP POP POP POP SWAP2 POP DUP1 DUP1 SLOAD PUSH2 0x136B SWAP1 PUSH2 0x1F77 JUMP JUMPDEST DUP1 PUSH1 0x1F ADD PUSH1 0x20 DUP1 SWAP2 DIV MUL PUSH1 0x20 ADD PUSH1 0x40 MLOAD SWAP1 DUP2 ADD PUSH1 0x40 MSTORE DUP1 SWAP3 SWAP2 SWAP1 DUP2 DUP2 MSTORE PUSH1 0x20 ADD DUP3 DUP1 SLOAD PUSH2 0x1397 SWAP1 PUSH2 0x1F77 JUMP JUMPDEST DUP1 ISZERO PUSH2 0x13E2 JUMPI DUP1 PUSH1 0x1F LT PUSH2 0x13B9 JUMPI PUSH2 0x100 DUP1 DUP4 SLOAD DIV MUL DUP4 MSTORE SWAP2 PUSH1 0x20 ADD SWAP2 PUSH2 0x13E2 JUMP JUMPDEST DUP3 ADD SWAP2 SWAP1 PUSH0 MSTORE PUSH1 0x20 PUSH0 KECCAK256 SWAP1 JUMPDEST DUP2 SLOAD DUP2 MSTORE SWAP1 PUSH1 0x1 ADD SWAP1 PUSH1 0x20 ADD DUP1 DUP4 GT PUSH2 0x13C5 JUMPI DUP3 SWAP1 SUB PUSH1 0x1F AND DUP3 ADD SWAP2 JUMPDEST POP POP POP POP POP SWAP1 POP SWAP4 POP SWAP4 POP SWAP4 POP SWAP4 POP SWAP1 SWAP2 SWAP3 SWAP4 JUMP JUMPDEST PUSH1 0x1 DUP1 SLOAD SWAP1 PUSH2 0x100 EXP SWAP1 DIV PUSH20 0xFFFFFFFFFFFFFFFFFFFFFFFFFFFFFFFFFFFFFFFF AND PUSH20 0xFFFFFFFFFFFFFFFFFFFFFFFFFFFFFFFFFFFFFFFF AND CALLER PUSH20 0xFFFFFFFFFFFFFFFFFFFFFFFFFFFFFFFFFFFFFFFF AND EQ DUP1 PUSH2 0x149D JUMPI POP PUSH1 0x2 PUSH0 SWAP1 SLOAD SWAP1 PUSH2 0x100 EXP SWAP1 DIV PUSH20 0xFFFFFFFFFFFFFFFFFFFFFFFFFFFFFFFFFFFFFFFF AND PUSH20 0xFFFFFFFFFFFFFFFFFFFFFFFFFFFFFFFFFFFFFFFF AND CALLER PUSH20 0xFFFFFFFFFFFFFFFFFFFFFFFFFFFFFFFFFFFFFFFF AND EQ JUMPDEST PUSH2 0x14DC JUMPI PUSH1 0x40 MLOAD PUSH32 0x8C379A000000000000000000000000000000000000000000000000000000000 DUP2 MSTORE PUSH1 0x4 ADD PUSH2 0x14D3 SWAP1 PUSH2 0x1F2C JUMP JUMPDEST PUSH1 0x40 MLOAD DUP1 SWAP2 SUB SWAP1 REVERT JUMPDEST DUP1 PUSH0 SWAP1 DUP2 PUSH2 0x14EA SWAP2 SWAP1 PUSH2 0x214D JUMP JUMPDEST POP PUSH32 0xE00DA2178806F37F69815E9ED5ED3072EC1D55206D60916D99B469C7DAA421E4 CALLER PUSH1 0x40 MLOAD PUSH2 0x151A SWAP2 SWAP1 PUSH2 0x1C5F JUMP JUMPDEST PUSH1 0x40 MLOAD DUP1 SWAP2 SUB SWAP1 LOG1 POP JUMP JUMPDEST PUSH0 PUSH20 0xFFFFFFFFFFFFFFFFFFFFFFFFFFFFFFFFFFFFFFFF AND DUP2 PUSH20 0xFFFFFFFFFFFFFFFFFFFFFFFFFFFFFFFFFFFFFFFF AND EQ ISZERO DUP1 PUSH2 0x1638 JUMPI POP PUSH1 0x2 PUSH0 SWAP1 SLOAD SWAP1 PUSH2 0x100 EXP SWAP1 DIV PUSH20 0xFFFFFFFFFFFFFFFFFFFFFFFFFFFFFFFFFFFFFFFF AND PUSH20 0xFFFFFFFFFFFFFFFFFFFFFFFFFFFFFFFFFFFFFFFF AND CALLER PUSH20 0xFFFFFFFFFFFFFFFFFFFFFFFFFFFFFFFFFFFFFFFF AND EQ DUP1 PUSH2 0x1601 JUMPI POP PUSH1 0x1 DUP1 SLOAD SWAP1 PUSH2 0x100 EXP SWAP1 DIV PUSH20 0xFFFFFFFFFFFFFFFFFFFFFFFFFFFFFFFFFFFFFFFF AND PUSH20 0xFFFFFFFFFFFFFFFFFFFFFFFFFFFFFFFFFFFFFFFF AND CALLER PUSH20 0xFFFFFFFFFFFFFFFFFFFFFFFFFFFFFFFFFFFFFFFF AND EQ JUMPDEST DUP1 PUSH2 0x1637 JUMPI POP DUP1 PUSH20 0xFFFFFFFFFFFFFFFFFFFFFFFFFFFFFFFFFFFFFFFF AND CALLER PUSH20 0xFFFFFFFFFFFFFFFFFFFFFFFFFFFFFFFFFFFFFFFF AND EQ JUMPDEST JUMPDEST PUSH2 0x1677 JUMPI PUSH1 0x40 MLOAD PUSH32 0x8C379A000000000000000000000000000000000000000000000000000000000 DUP2 MSTORE PUSH1 0x4 ADD PUSH2 0x166E SWAP1 PUSH2 0x2266 JUMP JUMPDEST PUSH1 0x40 MLOAD DUP1 SWAP2 SUB SWAP1 REVERT JUMPDEST PUSH0 PUSH2 0x1705 DUP3 PUSH1 0x3 DUP1 SLOAD DUP1 PUSH1 0x20 MUL PUSH1 0x20 ADD PUSH1 0x40 MLOAD SWAP1 DUP2 ADD PUSH1 0x40 MSTORE DUP1 SWAP3 SWAP2 SWAP1 DUP2 DUP2 MSTORE PUSH1 0x20 ADD DUP3 DUP1 SLOAD DUP1 ISZERO PUSH2 0x16FB JUMPI PUSH1 0x20 MUL DUP3 ADD SWAP2 SWAP1 PUSH0 MSTORE PUSH1 0x20 PUSH0 KECCAK256 SWAP1 JUMPDEST DUP2 PUSH0 SWAP1 SLOAD SWAP1 PUSH2 0x100 EXP SWAP1 DIV PUSH20 0xFFFFFFFFFFFFFFFFFFFFFFFFFFFFFFFFFFFFFFFF AND PUSH20 0xFFFFFFFFFFFFFFFFFFFFFFFFFFFFFFFFFFFFFFFF AND DUP2 MSTORE PUSH1 0x20 ADD SWAP1 PUSH1 0x1 ADD SWAP1 DUP1 DUP4 GT PUSH2 0x16B2 JUMPI JUMPDEST POP POP POP POP POP PUSH2 0x1778 JUMP JUMPDEST SWAP1 POP PUSH32 0xFFFFFFFFFFFFFFFFFFFFFFFFFFFFFFFFFFFFFFFFFFFFFFFFFFFFFFFFFFFFFFFF DUP2 SGT PUSH2 0x1769 JUMPI PUSH1 0x40 MLOAD PUSH32 0x8C379A000000000000000000000000000000000000000000000000000000000 DUP2 MSTORE PUSH1 0x4 ADD PUSH2 0x1760 SWAP1 PUSH2 0x2336 JUMP JUMPDEST PUSH1 0x40 MLOAD DUP1 SWAP2 SUB SWAP1 REVERT JUMPDEST PUSH2 0x1774 DUP2 PUSH1 0x3 PUSH2 0x1815 JUMP JUMPDEST POP POP JUMP JUMPDEST PUSH0 DUP1 PUSH0 SWAP1 POP JUMPDEST DUP3 MLOAD DUP2 LT ISZERO PUSH2 0x17EA JUMPI DUP4 PUSH20 0xFFFFFFFFFFFFFFFFFFFFFFFFFFFFFFFFFFFFFFFF AND DUP4 DUP3 DUP2 MLOAD DUP2 LT PUSH2 0x17B1 JUMPI PUSH2 0x17B0 PUSH2 0x2354 JUMP JUMPDEST JUMPDEST PUSH1 0x20 MUL PUSH1 0x20 ADD ADD MLOAD PUSH20 0xFFFFFFFFFFFFFFFFFFFFFFFFFFFFFFFFFFFFFFFF AND SUB PUSH2 0x17DD JUMPI DUP1 SWAP2 POP POP PUSH2 0x180F JUMP JUMPDEST DUP1 DUP1 PUSH1 0x1 ADD SWAP2 POP POP PUSH2 0x177E JUMP JUMPDEST POP PUSH32 0xFFFFFFFFFFFFFFFFFFFFFFFFFFFFFFFFFFFFFFFFFFFFFFFFFFFFFFFFFFFFFFFF SWAP1 POP JUMPDEST SWAP3 SWAP2 POP POP JUMP JUMPDEST PUSH0 DUP3 SLT ISZERO DUP1 ISZERO PUSH2 0x1828 JUMPI POP DUP1 DUP1 SLOAD SWAP1 POP DUP3 LT JUMPDEST PUSH2 0x1867 JUMPI PUSH1 0x40 MLOAD PUSH32 0x8C379A000000000000000000000000000000000000000000000000000000000 DUP2 MSTORE PUSH1 0x4 ADD PUSH2 0x185E SWAP1 PUSH2 0x23CB JUMP JUMPDEST PUSH1 0x40 MLOAD DUP1 SWAP2 SUB SWAP1 REVERT JUMPDEST PUSH0 DUP3 SWAP1 POP JUMPDEST PUSH1 0x1 DUP3 DUP1 SLOAD SWAP1 POP PUSH2 0x187D SWAP2 SWAP1 PUSH2 0x2416 JUMP JUMPDEST DUP2 LT ISZERO PUSH2 0x1930 JUMPI DUP2 PUSH1 0x1 DUP3 PUSH2 0x1892 SWAP2 SWAP1 PUSH2 0x2449 JUMP JUMPDEST DUP2 SLOAD DUP2 LT PUSH2 0x18A3 JUMPI PUSH2 0x18A2 PUSH2 0x2354 JUMP JUMPDEST JUMPDEST SWAP1 PUSH0 MSTORE PUSH1 0x20 PUSH0 KECCAK256 ADD PUSH0 SWAP1 SLOAD SWAP1 PUSH2 0x100 EXP SWAP1 DIV PUSH20 0xFFFFFFFFFFFFFFFFFFFFFFFFFFFFFFFFFFFFFFFF AND DUP3 DUP3 DUP2 SLOAD DUP2 LT PUSH2 0x18DE JUMPI PUSH2 0x18DD PUSH2 0x2354 JUMP JUMPDEST JUMPDEST SWAP1 PUSH0 MSTORE PUSH1 0x20 PUSH0 KECCAK256 ADD PUSH0 PUSH2 0x100 EXP DUP2 SLOAD DUP2 PUSH20 0xFFFFFFFFFFFFFFFFFFFFFFFFFFFFFFFFFFFFFFFF MUL NOT AND SWAP1 DUP4 PUSH20 0xFFFFFFFFFFFFFFFFFFFFFFFFFFFFFFFFFFFFFFFF AND MUL OR SWAP1 SSTORE POP DUP1 DUP1 PUSH1 0x1 ADD SWAP2 POP POP PUSH2 0x186C JUMP JUMPDEST POP DUP1 DUP1 SLOAD DUP1 PUSH2 0x1942 JUMPI PUSH2 0x1941 PUSH2 0x247C JUMP JUMPDEST JUMPDEST PUSH1 0x1 SWAP1 SUB DUP2 DUP2 SWAP1 PUSH0 MSTORE PUSH1 0x20 PUSH0 KECCAK256 ADD PUSH0 PUSH2 0x100 EXP DUP2 SLOAD SWAP1 PUSH20 0xFFFFFFFFFFFFFFFFFFFFFFFFFFFFFFFFFFFFFFFF MUL NOT AND SWAP1 SSTORE SWAP1 SSTORE POP POP JUMP JUMPDEST PUSH0 PUSH1 0x40 MLOAD SWAP1 POP SWAP1 JUMP JUMPDEST PUSH0 DUP1 REVERT JUMPDEST PUSH0 DUP1 REVERT JUMPDEST PUSH0 PUSH20 0xFFFFFFFFFFFFFFFFFFFFFFFFFFFFFFFFFFFFFFFF DUP3 AND SWAP1 POP SWAP2 SWAP1 POP JUMP JUMPDEST PUSH0 PUSH2 0x19B2 DUP3 PUSH2 0x1989 JUMP JUMPDEST SWAP1 POP SWAP2 SWAP1 POP JUMP JUMPDEST PUSH2 0x19C2 DUP2 PUSH2 0x19A8 JUMP JUMPDEST DUP2 EQ PUSH2 0x19CC JUMPI PUSH0 DUP1 REVERT JUMPDEST POP JUMP JUMPDEST PUSH0 DUP2 CALLDATALOAD SWAP1 POP PUSH2 0x19DD DUP2 PUSH2 0x19B9 JUMP JUMPDEST SWAP3 SWAP2 POP POP JUMP JUMPDEST PUSH0 PUSH1 0x20 DUP3 DUP5 SUB SLT ISZERO PUSH2 0x19F8 JUMPI PUSH2 0x19F7 PUSH2 0x1981 JUMP JUMPDEST JUMPDEST PUSH0 PUSH2 0x1A05 DUP5 DUP3 DUP6 ADD PUSH2 0x19CF JUMP JUMPDEST SWAP2 POP POP SWAP3 SWAP2 POP POP JUMP JUMPDEST PUSH0 DUP1 REVERT JUMPDEST PUSH0 DUP1 REVERT JUMPDEST PUSH0 PUSH1 0x1F NOT PUSH1 0x1F DUP4 ADD AND SWAP1 POP SWAP2 SWAP1 POP JUMP JUMPDEST PUSH32 0x4E487B7100000000000000000000000000000000000000000000000000000000 PUSH0 MSTORE PUSH1 0x41 PUSH1 0x4 MSTORE PUSH1 0x24 PUSH0 REVERT JUMPDEST PUSH2 0x1A5C DUP3 PUSH2 0x1A16 JUMP JUMPDEST DUP2 ADD DUP2 DUP2 LT PUSH8 0xFFFFFFFFFFFFFFFF DUP3 GT OR ISZERO PUSH2 0x1A7B JUMPI PUSH2 0x1A7A PUSH2 0x1A26 JUMP JUMPDEST JUMPDEST DUP1 PUSH1 0x40 MSTORE POP POP POP JUMP JUMPDEST PUSH0 PUSH2 0x1A8D PUSH2 0x1978 JUMP JUMPDEST SWAP1 POP PUSH2 0x1A99 DUP3 DUP3 PUSH2 0x1A53 JUMP JUMPDEST SWAP2 SWAP1 POP JUMP JUMPDEST PUSH0 PUSH8 0xFFFFFFFFFFFFFFFF DUP3 GT ISZERO PUSH2 0x1AB8 JUMPI PUSH2 0x1AB7 PUSH2 0x1A26 JUMP JUMPDEST JUMPDEST PUSH2 0x1AC1 DUP3 PUSH2 0x1A16 JUMP JUMPDEST SWAP1 POP PUSH1 0x20 DUP2 ADD SWAP1 POP SWAP2 SWAP1 POP JUMP JUMPDEST DUP3 DUP2 DUP4 CALLDATACOPY PUSH0 DUP4 DUP4 ADD MSTORE POP POP POP JUMP JUMPDEST PUSH0 PUSH2 0x1AEE PUSH2 0x1AE9 DUP5 PUSH2 0x1A9E JUMP JUMPDEST PUSH2 0x1A84 JUMP JUMPDEST SWAP1 POP DUP3 DUP2 MSTORE PUSH1 0x20 DUP2 ADD DUP5 DUP5 DUP5 ADD GT ISZERO PUSH2 0x1B0A JUMPI PUSH2 0x1B09 PUSH2 0x1A12 JUMP JUMPDEST JUMPDEST PUSH2 0x1B15 DUP5 DUP3 DUP6 PUSH2 0x1ACE JUMP JUMPDEST POP SWAP4 SWAP3 POP POP POP JUMP JUMPDEST PUSH0 DUP3 PUSH1 0x1F DUP4 ADD SLT PUSH2 0x1B31 JUMPI PUSH2 0x1B30 PUSH2 0x1A0E JUMP JUMPDEST JUMPDEST DUP2 CALLDATALOAD PUSH2 0x1B41 DUP5 DUP3 PUSH1 0x20 DUP7 ADD PUSH2 0x1ADC JUMP JUMPDEST SWAP2 POP POP SWAP3 SWAP2 POP POP JUMP JUMPDEST PUSH0 PUSH1 0x20 DUP3 DUP5 SUB SLT ISZERO PUSH2 0x1B5F JUMPI PUSH2 0x1B5E PUSH2 0x1981 JUMP JUMPDEST JUMPDEST PUSH0 DUP3 ADD CALLDATALOAD PUSH8 0xFFFFFFFFFFFFFFFF DUP2 GT ISZERO PUSH2 0x1B7C JUMPI PUSH2 0x1B7B PUSH2 0x1985 JUMP JUMPDEST JUMPDEST PUSH2 0x1B88 DUP5 DUP3 DUP6 ADD PUSH2 0x1B1D JUMP JUMPDEST SWAP2 POP POP SWAP3 SWAP2 POP POP JUMP JUMPDEST PUSH32 0x4E487B7100000000000000000000000000000000000000000000000000000000 PUSH0 MSTORE PUSH1 0x21 PUSH1 0x4 MSTORE PUSH1 0x24 PUSH0 REVERT JUMPDEST PUSH1 0x4 DUP2 LT PUSH2 0x1BCF JUMPI PUSH2 0x1BCE PUSH2 0x1B91 JUMP JUMPDEST JUMPDEST POP JUMP JUMPDEST PUSH0 DUP2 SWAP1 POP PUSH2 0x1BDF DUP3 PUSH2 0x1BBE JUMP JUMPDEST SWAP2 SWAP1 POP JUMP JUMPDEST PUSH0 PUSH2 0x1BEE DUP3 PUSH2 0x1BD2 JUMP JUMPDEST SWAP1 POP SWAP2 SWAP1 POP JUMP JUMPDEST PUSH2 0x1BFE DUP2 PUSH2 0x1BE4 JUMP JUMPDEST DUP3 MSTORE POP POP JUMP JUMPDEST PUSH0 PUSH1 0x20 DUP3 ADD SWAP1 POP PUSH2 0x1C17 PUSH0 DUP4 ADD DUP5 PUSH2 0x1BF5 JUMP JUMPDEST SWAP3 SWAP2 POP POP JUMP JUMPDEST PUSH0 DUP2 ISZERO ISZERO SWAP1 POP SWAP2 SWAP1 POP JUMP JUMPDEST PUSH2 0x1C31 DUP2 PUSH2 0x1C1D JUMP JUMPDEST DUP3 MSTORE POP POP JUMP JUMPDEST PUSH0 PUSH1 0x20 DUP3 ADD SWAP1 POP PUSH2 0x1C4A PUSH0 DUP4 ADD DUP5 PUSH2 0x1C28 JUMP JUMPDEST SWAP3 SWAP2 POP POP JUMP JUMPDEST PUSH2 0x1C59 DUP2 PUSH2 0x19A8 JUMP JUMPDEST DUP3 MSTORE POP POP JUMP JUMPDEST PUSH0 PUSH1 0x20 DUP3 ADD SWAP1 POP PUSH2 0x1C72 PUSH0 DUP4 ADD DUP5 PUSH2 0x1C50 JUMP JUMPDEST SWAP3 SWAP2 POP POP JUMP JUMPDEST PUSH0 DUP2 MLOAD SWAP1 POP SWAP2 SWAP1 POP JUMP JUMPDEST PUSH0 DUP3 DUP3 MSTORE PUSH1 0x20 DUP3 ADD SWAP1 POP SWAP3 SWAP2 POP POP JUMP JUMPDEST PUSH0 DUP2 SWAP1 POP PUSH1 0x20 DUP3 ADD SWAP1 POP SWAP2 SWAP1 POP JUMP JUMPDEST PUSH2 0x1CAA DUP2 PUSH2 0x19A8 JUMP JUMPDEST DUP3 MSTORE POP POP JUMP JUMPDEST PUSH0 PUSH2 0x1CBB DUP4 DUP4 PUSH2 0x1CA1 JUMP JUMPDEST PUSH1 0x20 DUP4 ADD SWAP1 POP SWAP3 SWAP2 POP POP JUMP JUMPDEST PUSH0 PUSH1 0x20 DUP3 ADD SWAP1 POP SWAP2 SWAP1 POP JUMP JUMPDEST PUSH0 PUSH2 0x1CDD DUP3 PUSH2 0x1C78 JUMP JUMPDEST PUSH2 0x1CE7 DUP2 DUP6 PUSH2 0x1C82 JUMP JUMPDEST SWAP4 POP PUSH2 0x1CF2 DUP4 PUSH2 0x1C92 JUMP JUMPDEST DUP1 PUSH0 JUMPDEST DUP4 DUP2 LT ISZERO PUSH2 0x1D22 JUMPI DUP2 MLOAD PUSH2 0x1D09 DUP9 DUP3 PUSH2 0x1CB0 JUMP JUMPDEST SWAP8 POP PUSH2 0x1D14 DUP4 PUSH2 0x1CC7 JUMP JUMPDEST SWAP3 POP POP PUSH1 0x1 DUP2 ADD SWAP1 POP PUSH2 0x1CF5 JUMP JUMPDEST POP DUP6 SWAP4 POP POP POP POP SWAP3 SWAP2 POP POP JUMP JUMPDEST PUSH0 PUSH1 0x20 DUP3 ADD SWAP1 POP DUP2 DUP2 SUB PUSH0 DUP4 ADD MSTORE PUSH2 0x1D47 DUP2 DUP5 PUSH2 0x1CD3 JUMP JUMPDEST SWAP1 POP SWAP3 SWAP2 POP POP JUMP JUMPDEST PUSH0 DUP1 PUSH0 DUP1 PUSH1 0x80 DUP6 DUP8 SUB SLT ISZERO PUSH2 0x1D67 JUMPI PUSH2 0x1D66 PUSH2 0x1981 JUMP JUMPDEST JUMPDEST PUSH0 DUP6 ADD CALLDATALOAD PUSH8 0xFFFFFFFFFFFFFFFF DUP2 GT ISZERO PUSH2 0x1D84 JUMPI PUSH2 0x1D83 PUSH2 0x1985 JUMP JUMPDEST JUMPDEST PUSH2 0x1D90 DUP8 DUP3 DUP9 ADD PUSH2 0x1B1D JUMP JUMPDEST SWAP5 POP POP PUSH1 0x20 DUP6 ADD CALLDATALOAD PUSH8 0xFFFFFFFFFFFFFFFF DUP2 GT ISZERO PUSH2 0x1DB1 JUMPI PUSH2 0x1DB0 PUSH2 0x1985 JUMP JUMPDEST JUMPDEST PUSH2 0x1DBD DUP8 DUP3 DUP9 ADD PUSH2 0x1B1D JUMP JUMPDEST SWAP4 POP POP PUSH1 0x40 DUP6 ADD CALLDATALOAD PUSH8 0xFFFFFFFFFFFFFFFF DUP2 GT ISZERO PUSH2 0x1DDE JUMPI PUSH2 0x1DDD PUSH2 0x1985 JUMP JUMPDEST JUMPDEST PUSH2 0x1DEA DUP8 DUP3 DUP9 ADD PUSH2 0x1B1D JUMP JUMPDEST SWAP3 POP POP PUSH1 0x60 DUP6 ADD CALLDATALOAD PUSH8 0xFFFFFFFFFFFFFFFF DUP2 GT ISZERO PUSH2 0x1E0B JUMPI PUSH2 0x1E0A PUSH2 0x1985 JUMP JUMPDEST JUMPDEST PUSH2 0x1E17 DUP8 DUP3 DUP9 ADD PUSH2 0x1B1D JUMP JUMPDEST SWAP2 POP POP SWAP3 SWAP6 SWAP2 SWAP5 POP SWAP3 POP JUMP JUMPDEST PUSH0 DUP2 MLOAD SWAP1 POP SWAP2 SWAP1 POP JUMP JUMPDEST PUSH0 DUP3 DUP3 MSTORE PUSH1 0x20 DUP3 ADD SWAP1 POP SWAP3 SWAP2 POP POP JUMP JUMPDEST DUP3 DUP2 DUP4 MCOPY PUSH0 DUP4 DUP4 ADD MSTORE POP POP POP JUMP JUMPDEST PUSH0 PUSH2 0x1E55 DUP3 PUSH2 0x1E23 JUMP JUMPDEST PUSH2 0x1E5F DUP2 DUP6 PUSH2 0x1E2D JUMP JUMPDEST SWAP4 POP PUSH2 0x1E6F DUP2 DUP6 PUSH1 0x20 DUP7 ADD PUSH2 0x1E3D JUMP JUMPDEST PUSH2 0x1E78 DUP2 PUSH2 0x1A16 JUMP JUMPDEST DUP5 ADD SWAP2 POP POP SWAP3 SWAP2 POP POP JUMP JUMPDEST PUSH0 PUSH1 0x80 DUP3 ADD SWAP1 POP DUP2 DUP2 SUB PUSH0 DUP4 ADD MSTORE PUSH2 0x1E9B DUP2 DUP8 PUSH2 0x1E4B JUMP JUMPDEST SWAP1 POP DUP2 DUP2 SUB PUSH1 0x20 DUP4 ADD MSTORE PUSH2 0x1EAF DUP2 DUP7 PUSH2 0x1E4B JUMP JUMPDEST SWAP1 POP DUP2 DUP2 SUB PUSH1 0x40 DUP4 ADD MSTORE PUSH2 0x1EC3 DUP2 DUP6 PUSH2 0x1E4B JUMP JUMPDEST SWAP1 POP DUP2 DUP2 SUB PUSH1 0x60 DUP4 ADD MSTORE PUSH2 0x1ED7 DUP2 DUP5 PUSH2 0x1E4B JUMP JUMPDEST SWAP1 POP SWAP6 SWAP5 POP POP POP POP POP JUMP JUMPDEST PUSH32 0x4F6E6C79206F776E657200000000000000000000000000000000000000000000 PUSH0 DUP3 ADD MSTORE POP JUMP JUMPDEST PUSH0 PUSH2 0x1F16 PUSH1 0xA DUP4 PUSH2 0x1E2D JUMP JUMPDEST SWAP2 POP PUSH2 0x1F21 DUP3 PUSH2 0x1EE2 JUMP JUMPDEST PUSH1 0x20 DUP3 ADD SWAP1 POP SWAP2 SWAP1 POP JUMP JUMPDEST PUSH0 PUSH1 0x20 DUP3 ADD SWAP1 POP DUP2 DUP2 SUB PUSH0 DUP4 ADD MSTORE PUSH2 0x1F43 DUP2 PUSH2 0x1F0A JUMP JUMPDEST SWAP1 POP SWAP2 SWAP1 POP JUMP JUMPDEST PUSH32 0x4E487B7100000000000000000000000000000000000000000000000000000000 PUSH0 MSTORE PUSH1 0x22 PUSH1 0x4 MSTORE PUSH1 0x24 PUSH0 REVERT JUMPDEST PUSH0 PUSH1 0x2 DUP3 DIV SWAP1 POP PUSH1 0x1 DUP3 AND DUP1 PUSH2 0x1F8E JUMPI PUSH1 0x7F DUP3 AND SWAP2 POP JUMPDEST PUSH1 0x20 DUP3 LT DUP2 SUB PUSH2 0x1FA1 JUMPI PUSH2 0x1FA0 PUSH2 0x1F4A JUMP JUMPDEST JUMPDEST POP SWAP2 SWAP1 POP JUMP JUMPDEST PUSH0 DUP2 SWAP1 POP DUP2 PUSH0 MSTORE PUSH1 0x20 PUSH0 KECCAK256 SWAP1 POP SWAP2 SWAP1 POP JUMP JUMPDEST PUSH0 PUSH1 0x20 PUSH1 0x1F DUP4 ADD DIV SWAP1 POP SWAP2 SWAP1 POP JUMP JUMPDEST PUSH0 DUP3 DUP3 SHL SWAP1 POP SWAP3 SWAP2 POP POP JUMP JUMPDEST PUSH0 PUSH1 0x8 DUP4 MUL PUSH2 0x2003 PUSH32 0xFFFFFFFFFFFFFFFFFFFFFFFFFFFFFFFFFFFFFFFFFFFFFFFFFFFFFFFFFFFFFFFF DUP3 PUSH2 0x1FC8 JUMP JUMPDEST PUSH2 0x200D DUP7 DUP4 PUSH2 0x1FC8 JUMP JUMPDEST SWAP6 POP DUP1 NOT DUP5 AND SWAP4 POP DUP1 DUP7 AND DUP5 OR SWAP3 POP POP POP SWAP4 SWAP3 POP POP POP JUMP JUMPDEST PUSH0 DUP2 SWAP1 POP SWAP2 SWAP1 POP JUMP JUMPDEST PUSH0 DUP2 SWAP1 POP SWAP2 SWAP1 POP JUMP JUMPDEST PUSH0 PUSH2 0x2051 PUSH2 0x204C PUSH2 0x2047 DUP5 PUSH2 0x2025 JUMP JUMPDEST PUSH2 0x202E JUMP JUMPDEST PUSH2 0x2025 JUMP JUMPDEST SWAP1 POP SWAP2 SWAP1 POP JUMP JUMPDEST PUSH0 DUP2 SWAP1 POP SWAP2 SWAP1 POP JUMP JUMPDEST PUSH2 0x206A DUP4 PUSH2 0x2037 JUMP JUMPDEST PUSH2 0x207E PUSH2 0x2076 DUP3 PUSH2 0x2058 JUMP JUMPDEST DUP5 DUP5 SLOAD PUSH2 0x1FD4 JUMP JUMPDEST DUP3 SSTORE POP POP POP POP JUMP JUMPDEST PUSH0 SWAP1 JUMP JUMPDEST PUSH2 0x2092 PUSH2 0x2086 JUMP JUMPDEST PUSH2 0x209D DUP2 DUP5 DUP5 PUSH2 0x2061 JUMP JUMPDEST POP POP POP JUMP JUMPDEST JUMPDEST DUP2 DUP2 LT ISZERO PUSH2 0x20C0 JUMPI PUSH2 0x20B5 PUSH0 DUP3 PUSH2 0x208A JUMP JUMPDEST PUSH1 0x1 DUP2 ADD SWAP1 POP PUSH2 0x20A3 JUMP JUMPDEST POP POP JUMP JUMPDEST PUSH1 0x1F DUP3 GT ISZERO PUSH2 0x2105 JUMPI PUSH2 0x20D6 DUP2 PUSH2 0x1FA7 JUMP JUMPDEST PUSH2 0x20DF DUP5 PUSH2 0x1FB9 JUMP JUMPDEST DUP2 ADD PUSH1 0x20 DUP6 LT ISZERO PUSH2 0x20EE JUMPI DUP2 SWAP1 POP JUMPDEST PUSH2 0x2102 PUSH2 0x20FA DUP6 PUSH2 0x1FB9 JUMP JUMPDEST DUP4 ADD DUP3 PUSH2 0x20A2 JUMP JUMPDEST POP POP JUMPDEST POP POP POP JUMP JUMPDEST PUSH0 DUP3 DUP3 SHR SWAP1 POP SWAP3 SWAP2 POP POP JUMP JUMPDEST PUSH0 PUSH2 0x2125 PUSH0 NOT DUP5 PUSH1 0x8 MUL PUSH2 0x210A JUMP JUMPDEST NOT DUP1 DUP4 AND SWAP2 POP POP SWAP3 SWAP2 POP POP JUMP JUMPDEST PUSH0 PUSH2 0x213D DUP4 DUP4 PUSH2 0x2116 JUMP JUMPDEST SWAP2 POP DUP3 PUSH1 0x2 MUL DUP3 OR SWAP1 POP SWAP3 SWAP2 POP POP JUMP JUMPDEST PUSH2 0x2156 DUP3 PUSH2 0x1E23 JUMP JUMPDEST PUSH8 0xFFFFFFFFFFFFFFFF DUP2 GT ISZERO PUSH2 0x216F JUMPI PUSH2 0x216E PUSH2 0x1A26 JUMP JUMPDEST JUMPDEST PUSH2 0x2179 DUP3 SLOAD PUSH2 0x1F77 JUMP JUMPDEST PUSH2 0x2184 DUP3 DUP3 DUP6 PUSH2 0x20C4 JUMP JUMPDEST PUSH0 PUSH1 0x20 SWAP1 POP PUSH1 0x1F DUP4 GT PUSH1 0x1 DUP2 EQ PUSH2 0x21B5 JUMPI PUSH0 DUP5 ISZERO PUSH2 0x21A3 JUMPI DUP3 DUP8 ADD MLOAD SWAP1 POP JUMPDEST PUSH2 0x21AD DUP6 DUP3 PUSH2 0x2132 JUMP JUMPDEST DUP7 SSTORE POP PUSH2 0x2214 JUMP JUMPDEST PUSH1 0x1F NOT DUP5 AND PUSH2 0x21C3 DUP7 PUSH2 0x1FA7 JUMP JUMPDEST PUSH0 JUMPDEST DUP3 DUP2 LT ISZERO PUSH2 0x21EA JUMPI DUP5 DUP10 ADD MLOAD DUP3 SSTORE PUSH1 0x1 DUP3 ADD SWAP2 POP PUSH1 0x20 DUP6 ADD SWAP5 POP PUSH1 0x20 DUP2 ADD SWAP1 POP PUSH2 0x21C5 JUMP JUMPDEST DUP7 DUP4 LT ISZERO PUSH2 0x2207 JUMPI DUP5 DUP10 ADD MLOAD PUSH2 0x2203 PUSH1 0x1F DUP10 AND DUP3 PUSH2 0x2116 JUMP JUMPDEST DUP4 SSTORE POP JUMPDEST PUSH1 0x1 PUSH1 0x2 DUP9 MUL ADD DUP9 SSTORE POP POP POP JUMPDEST POP POP POP POP POP POP JUMP JUMPDEST PUSH32 0x466F7262696464656E0000000000000000000000000000000000000000000000 PUSH0 DUP3 ADD MSTORE POP JUMP JUMPDEST PUSH0 PUSH2 0x2250 PUSH1 0x9 DUP4 PUSH2 0x1E2D JUMP JUMPDEST SWAP2 POP PUSH2 0x225B DUP3 PUSH2 0x221C JUMP JUMPDEST PUSH1 0x20 DUP3 ADD SWAP1 POP SWAP2 SWAP1 POP JUMP JUMPDEST PUSH0 PUSH1 0x20 DUP3 ADD SWAP1 POP DUP2 DUP2 SUB PUSH0 DUP4 ADD MSTORE PUSH2 0x227D DUP2 PUSH2 0x2244 JUMP JUMPDEST SWAP1 POP SWAP2 SWAP1 POP JUMP JUMPDEST PUSH32 0x5265737472696374000000000000000000000000000000000000000000000000 PUSH0 DUP3 ADD MSTORE POP JUMP JUMPDEST PUSH0 PUSH2 0x22B8 PUSH1 0x8 DUP4 PUSH2 0x1E2D JUMP JUMPDEST SWAP2 POP PUSH2 0x22C3 DUP3 PUSH2 0x2284 JUMP JUMPDEST PUSH1 0x20 DUP3 ADD SWAP1 POP SWAP2 SWAP1 POP JUMP JUMPDEST PUSH0 PUSH1 0x20 DUP3 ADD SWAP1 POP DUP2 DUP2 SUB PUSH0 DUP4 ADD MSTORE PUSH2 0x22E5 DUP2 PUSH2 0x22AC JUMP JUMPDEST SWAP1 POP SWAP2 SWAP1 POP JUMP JUMPDEST PUSH32 0x4E6F7420666F756E640000000000000000000000000000000000000000000000 PUSH0 DUP3 ADD MSTORE POP JUMP JUMPDEST PUSH0 PUSH2 0x2320 PUSH1 0x9 DUP4 PUSH2 0x1E2D JUMP JUMPDEST SWAP2 POP PUSH2 0x232B DUP3 PUSH2 0x22EC JUMP JUMPDEST PUSH1 0x20 DUP3 ADD SWAP1 POP SWAP2 SWAP1 POP JUMP JUMPDEST PUSH0 PUSH1 0x20 DUP3 ADD SWAP1 POP DUP2 DUP2 SUB PUSH0 DUP4 ADD MSTORE PUSH2 0x234D DUP2 PUSH2 0x2314 JUMP JUMPDEST SWAP1 POP SWAP2 SWAP1 POP JUMP JUMPDEST PUSH32 0x4E487B7100000000000000000000000000000000000000000000000000000000 PUSH0 MSTORE PUSH1 0x32 PUSH1 0x4 MSTORE PUSH1 0x24 PUSH0 REVERT JUMPDEST PUSH32 0x4E6F206964780000000000000000000000000000000000000000000000000000 PUSH0 DUP3 ADD MSTORE POP JUMP JUMPDEST PUSH0 PUSH2 0x23B5 PUSH1 0x6 DUP4 PUSH2 0x1E2D JUMP JUMPDEST SWAP2 POP PUSH2 0x23C0 DUP3 PUSH2 0x2381 JUMP JUMPDEST PUSH1 0x20 DUP3 ADD SWAP1 POP SWAP2 SWAP1 POP JUMP JUMPDEST PUSH0 PUSH1 0x20 DUP3 ADD SWAP1 POP DUP2 DUP2 SUB PUSH0 DUP4 ADD MSTORE PUSH2 0x23E2 DUP2 PUSH2 0x23A9 JUMP JUMPDEST SWAP1 POP SWAP2 SWAP1 POP JUMP JUMPDEST PUSH32 0x4E487B7100000000000000000000000000000000000000000000000000000000 PUSH0 MSTORE PUSH1 0x11 PUSH1 0x4 MSTORE PUSH1 0x24 PUSH0 REVERT JUMPDEST PUSH0 PUSH2 0x2420 DUP3 PUSH2 0x2025 JUMP JUMPDEST SWAP2 POP PUSH2 0x242B DUP4 PUSH2 0x2025 JUMP JUMPDEST SWAP3 POP DUP3 DUP3 SUB SWAP1 POP DUP2 DUP2 GT ISZERO PUSH2 0x2443 JUMPI PUSH2 0x2442 PUSH2 0x23E9 JUMP JUMPDEST JUMPDEST SWAP3 SWAP2 POP POP JUMP JUMPDEST PUSH0 PUSH2 0x2453 DUP3 PUSH2 0x2025 JUMP JUMPDEST SWAP2 POP PUSH2 0x245E DUP4 PUSH2 0x2025 JUMP JUMPDEST SWAP3 POP DUP3 DUP3 ADD SWAP1 POP DUP1 DUP3 GT ISZERO PUSH2 0x2476 JUMPI PUSH2 0x2475 PUSH2 0x23E9 JUMP JUMPDEST JUMPDEST SWAP3 SWAP2 POP POP JUMP JUMPDEST PUSH32 0x4E487B7100000000000000000000000000000000000000000000000000000000 PUSH0 MSTORE PUSH1 0x31 PUSH1 0x4 MSTORE PUSH1 0x24 PUSH0 REVERT INVALID LOG2 PUSH5 0x6970667358 0x22 SLT KECCAK256 LOG1 SAR SWAP9 PUSH3 0xF92013 EXTCODECOPY DUP10 DUP16 0xF9 0xC8 0xDD SUB PUSH20 0xCD90D0D4C21B722F5FE15BFE47BB2BB864736F PUSH13 0x634300081A0033000000000000 "
		},
		"gasEstimates": {
			"creation": {
				"codeDepositCost": "1887800",
				"executionCost": "infinite",
				"totalCost": "infinite"
			},
			"external": {
				"expose()": "infinite",
				"getItemType()": "7020",
				"getParent()": "6929",
				"getSharedWith()": "infinite",
				"isOwn()": "4734",
				"isSharedWith()": "infinite",
				"restictFrom(address)": "infinite",
				"setItem(string,string,string,string)": "infinite",
				"setName(string)": "infinite",
				"setParent(address)": "infinite",
				"setPassword(string)": "infinite",
				"setUrl(string)": "infinite",
				"setUserName(string)": "infinite",
				"shareWith(address)": "infinite"
			}
		},
		"methodIdentifiers": {
			"expose()": "ba379e86",
			"getItemType()": "2858d3c8",
			"getParent()": "80f76021",
			"getSharedWith()": "a95264d0",
			"isOwn()": "b9daf3e2",
			"isSharedWith()": "4ba83374",
			"restictFrom(address)": "ded92dac",
			"setItem(string,string,string,string)": "ac0344e6",
			"setName(string)": "c47f0027",
			"setParent(address)": "1499c592",
			"setPassword(string)": "290bb453",
			"setUrl(string)": "252498a2",
			"setUserName(string)": "2b5914fe",
			"shareWith(address)": "5da6ef8d"
		}
	},
	"abi": [
		{
			"inputs": [
				{
					"internalType": "string",
					"name": "_name",
					"type": "string"
				},
				{
					"internalType": "string",
					"name": "_url",
					"type": "string"
				},
				{
					"internalType": "string",
					"name": "_user_name",
					"type": "string"
				},
				{
					"internalType": "string",
					"name": "_password",
					"type": "string"
				},
				{
					"internalType": "address",
					"name": "_owner",
					"type": "address"
				},
				{
					"internalType": "address",
					"name": "_parent",
					"type": "address"
				}
			],
			"stateMutability": "nonpayable",
			"type": "constructor"
		},
		{
			"anonymous": false,
			"inputs": [
				{
					"indexed": false,
					"internalType": "address",
					"name": "",
					"type": "address"
				}
			],
			"name": "AddedToOrganisation",
			"type": "event"
		},
		{
			"anonymous": false,
			"inputs": [
				{
					"indexed": false,
					"internalType": "address",
					"name": "",
					"type": "address"
				}
			],
			"name": "Created",
			"type": "event"
		},
		{
			"anonymous": false,
			"inputs": [
				{
					"indexed": false,
					"internalType": "address",
					"name": "",
					"type": "address"
				}
			],
			"name": "RemovedFromOrganisation",
			"type": "event"
		},
		{
			"anonymous": false,
			"inputs": [
				{
					"indexed": false,
					"internalType": "address",
					"name": "",
					"type": "address"
				}
			],
			"name": "Updated",
			"type": "event"
		},
		{
			"inputs": [],
			"name": "expose",
			"outputs": [
				{
					"internalType": "string",
					"name": "",
					"type": "string"
				},
				{
					"internalType": "string",
					"name": "",
					"type": "string"
				},
				{
					"internalType": "string",
					"name": "",
					"type": "string"
				},
				{
					"internalType": "string",
					"name": "",
					"type": "string"
				}
			],
			"stateMutability": "view",
			"type": "function"
		},
		{
			"inputs": [],
			"name": "getItemType",
			"outputs": [
				{
					"internalType": "enum Constants.ItemType",
					"name": "",
					"type": "uint8"
				}
			],
			"stateMutability": "view",
			"type": "function"
		},
		{
			"inputs": [],
			"name": "getParent",
			"outputs": [
				{
					"internalType": "address",
					"name": "",
					"type": "address"
				}
			],
			"stateMutability": "view",
			"type": "function"
		},
		{
			"inputs": [],
			"name": "getSharedWith",
			"outputs": [
				{
					"internalType": "address[]",
					"name": "",
					"type": "address[]"
				}
			],
			"stateMutability": "view",
			"type": "function"
		},
		{
			"inputs": [],
			"name": "isOwn",
			"outputs": [
				{
					"internalType": "bool",
					"name": "",
					"type": "bool"
				}
			],
			"stateMutability": "view",
			"type": "function"
		},
		{
			"inputs": [],
			"name": "isSharedWith",
			"outputs": [
				{
					"internalType": "bool",
					"name": "",
					"type": "bool"
				}
			],
			"stateMutability": "view",
			"type": "function"
		},
		{
			"inputs": [
				{
					"internalType": "address",
					"name": "_f",
					"type": "address"
				}
			],
			"name": "restictFrom",
			"outputs": [],
			"stateMutability": "nonpayable",
			"type": "function"
		},
		{
			"inputs": [
				{
					"internalType": "string",
					"name": "_n",
					"type": "string"
				},
				{
					"internalType": "string",
					"name": "_u",
					"type": "string"
				},
				{
					"internalType": "string",
					"name": "_un",
					"type": "string"
				},
				{
					"internalType": "string",
					"name": "_p",
					"type": "string"
				}
			],
			"name": "setItem",
			"outputs": [],
			"stateMutability": "nonpayable",
			"type": "function"
		},
		{
			"inputs": [
				{
					"internalType": "string",
					"name": "_n",
					"type": "string"
				}
			],
			"name": "setName",
			"outputs": [],
			"stateMutability": "nonpayable",
			"type": "function"
		},
		{
			"inputs": [
				{
					"internalType": "address",
					"name": "_p",
					"type": "address"
				}
			],
			"name": "setParent",
			"outputs": [],
			"stateMutability": "nonpayable",
			"type": "function"
		},
		{
			"inputs": [
				{
					"internalType": "string",
					"name": "_p",
					"type": "string"
				}
			],
			"name": "setPassword",
			"outputs": [],
			"stateMutability": "nonpayable",
			"type": "function"
		},
		{
			"inputs": [
				{
					"internalType": "string",
					"name": "_u",
					"type": "string"
				}
			],
			"name": "setUrl",
			"outputs": [],
			"stateMutability": "nonpayable",
			"type": "function"
		},
		{
			"inputs": [
				{
					"internalType": "string",
					"name": "_un",
					"type": "string"
				}
			],
			"name": "setUserName",
			"outputs": [],
			"stateMutability": "nonpayable",
			"type": "function"
		},
		{
			"inputs": [
				{
					"internalType": "address",
					"name": "_w",
					"type": "address"
				}
			],
			"name": "shareWith",
			"outputs": [],
			"stateMutability": "nonpayable",
			"type": "function"
		}
	]
}