{
	"data": {
		"bytecode": {
			"linkReferences": {},
			"object": "60806040526004805460ff60a01b1916600160a01b179055348015610022575f80fd5b50604051611055380380611055833981016040819052610041916101d1565b5f61004c8882610325565b5060016100598782610325565b5060026100668682610325565b50600380546001600160a01b0384811664010000000002600160201b600160c01b031961ffff888116620100000263ffffffff19909516908a1617939093179290921691909117909155600480549183166001600160a01b03199092169190911790556040513381527f1449abf21e49fd025f33495e77f7b1461caefdd3d4bb646424a3f445c4576a5b9060200160405180910390a1505050505050506103df565b634e487b7160e01b5f52604160045260245ffd5b5f82601f83011261012b575f80fd5b81516001600160401b0381111561014457610144610108565b604051601f8201601f19908116603f011681016001600160401b038111828210171561017257610172610108565b604052818152838201602001851015610189575f80fd5b8160208501602083015e5f918101602001919091529392505050565b805161ffff811681146101b6575f80fd5b919050565b80516001600160a01b03811681146101b6575f80fd5b5f805f805f805f60e0888a0312156101e7575f80fd5b87516001600160401b038111156101fc575f80fd5b6102088a828b0161011c565b60208a015190985090506001600160401b03811115610225575f80fd5b6102318a828b0161011c565b60408a015190975090506001600160401b0381111561024e575f80fd5b61025a8a828b0161011c565b955050610269606089016101a5565b9350610277608089016101a5565b925061028560a089016101bb565b915061029360c089016101bb565b905092959891949750929550565b600181811c908216806102b557607f821691505b6020821081036102d357634e487b7160e01b5f52602260045260245ffd5b50919050565b601f82111561032057805f5260205f20601f840160051c810160208510156102fe5750805b601f840160051c820191505b8181101561031d575f815560010161030a565b50505b505050565b81516001600160401b0381111561033e5761033e610108565b6103528161034c84546102a1565b846102d9565b6020601f821160018114610384575f831561036d5750848201515b5f19600385901b1c1916600184901b17845561031d565b5f84815260208120601f198516915b828110156103b35787850151825560209485019460019092019101610393565b50848210156103d057868401515f19600387901b60f8161c191681555b50505050600190811b01905550565b610c69806103ec5f395ff3fe608060405234801561000f575f80fd5b50600436106100a6575f3560e01c8063478e5cb31161006e578063478e5cb31461012357806380f7602114610136578063ba379e861461013e578063c40da77014610157578063c47f00271461016a578063efd8af9f1461017d575f80fd5b80630dbef92c146100aa5780631499c592146100bf5780632858d3c8146100d257806338cc4831146100f057806340aa5c7114610110575b5f80fd5b6100bd6100b836600461089d565b610190565b005b6100bd6100cd3660046108d7565b610210565b6100da61028e565b6040516100e79190610904565b60405180910390f35b6100f86102e7565b6040516001600160a01b0390911681526020016100e7565b6100bd61011e366004610940565b610334565b6100bd610131366004610959565b6103a8565b6100f861045a565b6101466104b2565b6040516100e7959493929190610a36565b6100bd610165366004610940565b6106e0565b6100bd61017836600461089d565b61075b565b6100bd61018b36600461089d565b6107ac565b600354600160201b90046001600160a01b03163314806101ba57506004546001600160a01b031633145b6101df5760405162461bcd60e51b81526004016101d690610a8f565b60405180910390fd5b60026101eb8282610b58565b506040513381525f80516020610c14833981519152906020015b60405180910390a150565b600354600160201b90046001600160a01b031633148061023a57506004546001600160a01b031633145b6102565760405162461bcd60e51b81526004016101d690610a8f565b600480546001600160a01b0319166001600160a01b0383161790556040513381525f80516020610c1483398151915290602001610205565b6003545f90600160201b90046001600160a01b03163314806102ba57506004546001600160a01b031633145b6102d65760405162461bcd60e51b81526004016101d690610a8f565b50600454600160a01b900460ff1690565b6003545f90600160201b90046001600160a01b031633148061031357506004546001600160a01b031633145b61032f5760405162461bcd60e51b81526004016101d690610a8f565b503090565b600354600160201b90046001600160a01b031633148061035e57506004546001600160a01b031633145b61037a5760405162461bcd60e51b81526004016101d690610a8f565b6003805461ffff191661ffff83161790556040513381525f80516020610c1483398151915290602001610205565b600354600160201b90046001600160a01b03163314806103d257506004546001600160a01b031633145b6103ee5760405162461bcd60e51b81526004016101d690610a8f565b5f6103f98682610b58565b5060016104068582610b58565b5060026104138482610b58565b506003805461ffff838116620100000263ffffffff19909216908516171790556040513381525f80516020610c148339815191529060200160405180910390a15050505050565b6003545f90600160201b90046001600160a01b031633148061048657506004546001600160a01b031633145b6104a25760405162461bcd60e51b81526004016101d690610a8f565b506004546001600160a01b031690565b60608060605f80600360049054906101000a90046001600160a01b03166001600160a01b0316336001600160a01b031614806104f857506004546001600160a01b031633145b6105145760405162461bcd60e51b81526004016101d690610a8f565b6003545f8054909160019160029161ffff80821692620100009092041690859061053d90610ad4565b80601f016020809104026020016040519081016040528092919081815260200182805461056990610ad4565b80156105b45780601f1061058b576101008083540402835291602001916105b4565b820191905f5260205f20905b81548152906001019060200180831161059757829003601f168201915b505050505094508380546105c790610ad4565b80601f01602080910402602001604051908101604052809291908181526020018280546105f390610ad4565b801561063e5780601f106106155761010080835404028352916020019161063e565b820191905f5260205f20905b81548152906001019060200180831161062157829003601f168201915b5050505050935082805461065190610ad4565b80601f016020809104026020016040519081016040528092919081815260200182805461067d90610ad4565b80156106c85780601f1061069f576101008083540402835291602001916106c8565b820191905f5260205f20905b8154815290600101906020018083116106ab57829003601f168201915b50505050509250945094509450945094509091929394565b600354600160201b90046001600160a01b031633148061070a57506004546001600160a01b031633145b6107265760405162461bcd60e51b81526004016101d690610a8f565b6003805463ffff000019166201000061ffff8416021790556040513381525f80516020610c1483398151915290602001610205565b600354600160201b90046001600160a01b031633148061078557506004546001600160a01b031633145b6107a15760405162461bcd60e51b81526004016101d690610a8f565b5f6101eb8282610b58565b600354600160201b90046001600160a01b03163314806107d657506004546001600160a01b031633145b6107f25760405162461bcd60e51b81526004016101d690610a8f565b60016101eb8282610b58565b634e487b7160e01b5f52604160045260245ffd5b5f82601f830112610821575f80fd5b813567ffffffffffffffff81111561083b5761083b6107fe565b604051601f8201601f19908116603f0116810167ffffffffffffffff8111828210171561086a5761086a6107fe565b604052818152838201602001851015610881575f80fd5b816020850160208301375f918101602001919091529392505050565b5f602082840312156108ad575f80fd5b813567ffffffffffffffff8111156108c3575f80fd5b6108cf84828501610812565b949350505050565b5f602082840312156108e7575f80fd5b81356001600160a01b03811681146108fd575f80fd5b9392505050565b602081016003831061092457634e487b7160e01b5f52602160045260245ffd5b91905290565b803561ffff8116811461093b575f80fd5b919050565b5f60208284031215610950575f80fd5b6108fd8261092a565b5f805f805f60a0868803121561096d575f80fd5b853567ffffffffffffffff811115610983575f80fd5b61098f88828901610812565b955050602086013567ffffffffffffffff8111156109ab575f80fd5b6109b788828901610812565b945050604086013567ffffffffffffffff8111156109d3575f80fd5b6109df88828901610812565b9350506109ee6060870161092a565b91506109fc6080870161092a565b90509295509295909350565b5f81518084528060208401602086015e5f602082860101526020601f19601f83011685010191505092915050565b60a081525f610a4860a0830188610a08565b8281036020840152610a5a8188610a08565b90508281036040840152610a6e8187610a08565b91505061ffff8416606083015261ffff831660808301529695505050505050565b60208082526025908201527f4f6e6c7920746865206f776e65722063616e2063616c6c20746869732066756e60408201526431ba34b7b760d91b606082015260800190565b600181811c90821680610ae857607f821691505b602082108103610b0657634e487b7160e01b5f52602260045260245ffd5b50919050565b601f821115610b5357805f5260205f20601f840160051c81016020851015610b315750805b601f840160051c820191505b81811015610b50575f8155600101610b3d565b50505b505050565b815167ffffffffffffffff811115610b7257610b726107fe565b610b8681610b808454610ad4565b84610b0c565b6020601f821160018114610bb8575f8315610ba15750848201515b5f19600385901b1c1916600184901b178455610b50565b5f84815260208120601f198516915b82811015610be75787850151825560209485019460019092019101610bc7565b5084821015610c0457868401515f19600387901b60f8161c191681555b50505050600190811b0190555056fee00da2178806f37f69815e9ed5ed3072ec1d55206d60916d99b469c7daa421e4a264697066735822122018dd019791b8a47e08c6de7f1e5febcbfb476147f3f1643c1b285e5387b7eca664736f6c634300081a0033",
			"opcodes": "PUSH1 0x80 PUSH1 0x40 MSTORE PUSH1 0x4 DUP1 SLOAD PUSH1 0xFF PUSH1 0xA0 SHL NOT AND PUSH1 0x1 PUSH1 0xA0 SHL OR SWAP1 SSTORE CALLVALUE DUP1 ISZERO PUSH2 0x22 JUMPI PUSH0 DUP1 REVERT JUMPDEST POP PUSH1 0x40 MLOAD PUSH2 0x1055 CODESIZE SUB DUP1 PUSH2 0x1055 DUP4 CODECOPY DUP2 ADD PUSH1 0x40 DUP2 SWAP1 MSTORE PUSH2 0x41 SWAP2 PUSH2 0x1D1 JUMP JUMPDEST PUSH0 PUSH2 0x4C DUP9 DUP3 PUSH2 0x325 JUMP JUMPDEST POP PUSH1 0x1 PUSH2 0x59 DUP8 DUP3 PUSH2 0x325 JUMP JUMPDEST POP PUSH1 0x2 PUSH2 0x66 DUP7 DUP3 PUSH2 0x325 JUMP JUMPDEST POP PUSH1 0x3 DUP1 SLOAD PUSH1 0x1 PUSH1 0x1 PUSH1 0xA0 SHL SUB DUP5 DUP2 AND PUSH5 0x100000000 MUL PUSH1 0x1 PUSH1 0x20 SHL PUSH1 0x1 PUSH1 0xC0 SHL SUB NOT PUSH2 0xFFFF DUP9 DUP2 AND PUSH3 0x10000 MUL PUSH4 0xFFFFFFFF NOT SWAP1 SWAP6 AND SWAP1 DUP11 AND OR SWAP4 SWAP1 SWAP4 OR SWAP3 SWAP1 SWAP3 AND SWAP2 SWAP1 SWAP2 OR SWAP1 SWAP2 SSTORE PUSH1 0x4 DUP1 SLOAD SWAP2 DUP4 AND PUSH1 0x1 PUSH1 0x1 PUSH1 0xA0 SHL SUB NOT SWAP1 SWAP3 AND SWAP2 SWAP1 SWAP2 OR SWAP1 SSTORE PUSH1 0x40 MLOAD CALLER DUP2 MSTORE PUSH32 0x1449ABF21E49FD025F33495E77F7B1461CAEFDD3D4BB646424A3F445C4576A5B SWAP1 PUSH1 0x20 ADD PUSH1 0x40 MLOAD DUP1 SWAP2 SUB SWAP1 LOG1 POP POP POP POP POP POP POP PUSH2 0x3DF JUMP JUMPDEST PUSH4 0x4E487B71 PUSH1 0xE0 SHL PUSH0 MSTORE PUSH1 0x41 PUSH1 0x4 MSTORE PUSH1 0x24 PUSH0 REVERT JUMPDEST PUSH0 DUP3 PUSH1 0x1F DUP4 ADD SLT PUSH2 0x12B JUMPI PUSH0 DUP1 REVERT JUMPDEST DUP2 MLOAD PUSH1 0x1 PUSH1 0x1 PUSH1 0x40 SHL SUB DUP2 GT ISZERO PUSH2 0x144 JUMPI PUSH2 0x144 PUSH2 0x108 JUMP JUMPDEST PUSH1 0x40 MLOAD PUSH1 0x1F DUP3 ADD PUSH1 0x1F NOT SWAP1 DUP2 AND PUSH1 0x3F ADD AND DUP2 ADD PUSH1 0x1 PUSH1 0x1 PUSH1 0x40 SHL SUB DUP2 GT DUP3 DUP3 LT OR ISZERO PUSH2 0x172 JUMPI PUSH2 0x172 PUSH2 0x108 JUMP JUMPDEST PUSH1 0x40 MSTORE DUP2 DUP2 MSTORE DUP4 DUP3 ADD PUSH1 0x20 ADD DUP6 LT ISZERO PUSH2 0x189 JUMPI PUSH0 DUP1 REVERT JUMPDEST DUP2 PUSH1 0x20 DUP6 ADD PUSH1 0x20 DUP4 ADD MCOPY PUSH0 SWAP2 DUP2 ADD PUSH1 0x20 ADD SWAP2 SWAP1 SWAP2 MSTORE SWAP4 SWAP3 POP POP POP JUMP JUMPDEST DUP1 MLOAD PUSH2 0xFFFF DUP2 AND DUP2 EQ PUSH2 0x1B6 JUMPI PUSH0 DUP1 REVERT JUMPDEST SWAP2 SWAP1 POP JUMP JUMPDEST DUP1 MLOAD PUSH1 0x1 PUSH1 0x1 PUSH1 0xA0 SHL SUB DUP2 AND DUP2 EQ PUSH2 0x1B6 JUMPI PUSH0 DUP1 REVERT JUMPDEST PUSH0 DUP1 PUSH0 DUP1 PUSH0 DUP1 PUSH0 PUSH1 0xE0 DUP9 DUP11 SUB SLT ISZERO PUSH2 0x1E7 JUMPI PUSH0 DUP1 REVERT JUMPDEST DUP8 MLOAD PUSH1 0x1 PUSH1 0x1 PUSH1 0x40 SHL SUB DUP2 GT ISZERO PUSH2 0x1FC JUMPI PUSH0 DUP1 REVERT JUMPDEST PUSH2 0x208 DUP11 DUP3 DUP12 ADD PUSH2 0x11C JUMP JUMPDEST PUSH1 0x20 DUP11 ADD MLOAD SWAP1 SWAP9 POP SWAP1 POP PUSH1 0x1 PUSH1 0x1 PUSH1 0x40 SHL SUB DUP2 GT ISZERO PUSH2 0x225 JUMPI PUSH0 DUP1 REVERT JUMPDEST PUSH2 0x231 DUP11 DUP3 DUP12 ADD PUSH2 0x11C JUMP JUMPDEST PUSH1 0x40 DUP11 ADD MLOAD SWAP1 SWAP8 POP SWAP1 POP PUSH1 0x1 PUSH1 0x1 PUSH1 0x40 SHL SUB DUP2 GT ISZERO PUSH2 0x24E JUMPI PUSH0 DUP1 REVERT JUMPDEST PUSH2 0x25A DUP11 DUP3 DUP12 ADD PUSH2 0x11C JUMP JUMPDEST SWAP6 POP POP PUSH2 0x269 PUSH1 0x60 DUP10 ADD PUSH2 0x1A5 JUMP JUMPDEST SWAP4 POP PUSH2 0x277 PUSH1 0x80 DUP10 ADD PUSH2 0x1A5 JUMP JUMPDEST SWAP3 POP PUSH2 0x285 PUSH1 0xA0 DUP10 ADD PUSH2 0x1BB JUMP JUMPDEST SWAP2 POP PUSH2 0x293 PUSH1 0xC0 DUP10 ADD PUSH2 0x1BB JUMP JUMPDEST SWAP1 POP SWAP3 SWAP6 SWAP9 SWAP2 SWAP5 SWAP8 POP SWAP3 SWAP6 POP JUMP JUMPDEST PUSH1 0x1 DUP2 DUP2 SHR SWAP1 DUP3 AND DUP1 PUSH2 0x2B5 JUMPI PUSH1 0x7F DUP3 AND SWAP2 POP JUMPDEST PUSH1 0x20 DUP3 LT DUP2 SUB PUSH2 0x2D3 JUMPI PUSH4 0x4E487B71 PUSH1 0xE0 SHL PUSH0 MSTORE PUSH1 0x22 PUSH1 0x4 MSTORE PUSH1 0x24 PUSH0 REVERT JUMPDEST POP SWAP2 SWAP1 POP JUMP JUMPDEST PUSH1 0x1F DUP3 GT ISZERO PUSH2 0x320 JUMPI DUP1 PUSH0 MSTORE PUSH1 0x20 PUSH0 KECCAK256 PUSH1 0x1F DUP5 ADD PUSH1 0x5 SHR DUP2 ADD PUSH1 0x20 DUP6 LT ISZERO PUSH2 0x2FE JUMPI POP DUP1 JUMPDEST PUSH1 0x1F DUP5 ADD PUSH1 0x5 SHR DUP3 ADD SWAP2 POP JUMPDEST DUP2 DUP2 LT ISZERO PUSH2 0x31D JUMPI PUSH0 DUP2 SSTORE PUSH1 0x1 ADD PUSH2 0x30A JUMP JUMPDEST POP POP JUMPDEST POP POP POP JUMP JUMPDEST DUP2 MLOAD PUSH1 0x1 PUSH1 0x1 PUSH1 0x40 SHL SUB DUP2 GT ISZERO PUSH2 0x33E JUMPI PUSH2 0x33E PUSH2 0x108 JUMP JUMPDEST PUSH2 0x352 DUP2 PUSH2 0x34C DUP5 SLOAD PUSH2 0x2A1 JUMP JUMPDEST DUP5 PUSH2 0x2D9 JUMP JUMPDEST PUSH1 0x20 PUSH1 0x1F DUP3 GT PUSH1 0x1 DUP2 EQ PUSH2 0x384 JUMPI PUSH0 DUP4 ISZERO PUSH2 0x36D JUMPI POP DUP5 DUP3 ADD MLOAD JUMPDEST PUSH0 NOT PUSH1 0x3 DUP6 SWAP1 SHL SHR NOT AND PUSH1 0x1 DUP5 SWAP1 SHL OR DUP5 SSTORE PUSH2 0x31D JUMP JUMPDEST PUSH0 DUP5 DUP2 MSTORE PUSH1 0x20 DUP2 KECCAK256 PUSH1 0x1F NOT DUP6 AND SWAP2 JUMPDEST DUP3 DUP2 LT ISZERO PUSH2 0x3B3 JUMPI DUP8 DUP6 ADD MLOAD DUP3 SSTORE PUSH1 0x20 SWAP5 DUP6 ADD SWAP5 PUSH1 0x1 SWAP1 SWAP3 ADD SWAP2 ADD PUSH2 0x393 JUMP JUMPDEST POP DUP5 DUP3 LT ISZERO PUSH2 0x3D0 JUMPI DUP7 DUP5 ADD MLOAD PUSH0 NOT PUSH1 0x3 DUP8 SWAP1 SHL PUSH1 0xF8 AND SHR NOT AND DUP2 SSTORE JUMPDEST POP POP POP POP PUSH1 0x1 SWAP1 DUP2 SHL ADD SWAP1 SSTORE POP JUMP JUMPDEST PUSH2 0xC69 DUP1 PUSH2 0x3EC PUSH0 CODECOPY PUSH0 RETURN INVALID PUSH1 0x80 PUSH1 0x40 MSTORE CALLVALUE DUP1 ISZERO PUSH2 0xF JUMPI PUSH0 DUP1 REVERT JUMPDEST POP PUSH1 0x4 CALLDATASIZE LT PUSH2 0xA6 JUMPI PUSH0 CALLDATALOAD PUSH1 0xE0 SHR DUP1 PUSH4 0x478E5CB3 GT PUSH2 0x6E JUMPI DUP1 PUSH4 0x478E5CB3 EQ PUSH2 0x123 JUMPI DUP1 PUSH4 0x80F76021 EQ PUSH2 0x136 JUMPI DUP1 PUSH4 0xBA379E86 EQ PUSH2 0x13E JUMPI DUP1 PUSH4 0xC40DA770 EQ PUSH2 0x157 JUMPI DUP1 PUSH4 0xC47F0027 EQ PUSH2 0x16A JUMPI DUP1 PUSH4 0xEFD8AF9F EQ PUSH2 0x17D JUMPI PUSH0 DUP1 REVERT JUMPDEST DUP1 PUSH4 0xDBEF92C EQ PUSH2 0xAA JUMPI DUP1 PUSH4 0x1499C592 EQ PUSH2 0xBF JUMPI DUP1 PUSH4 0x2858D3C8 EQ PUSH2 0xD2 JUMPI DUP1 PUSH4 0x38CC4831 EQ PUSH2 0xF0 JUMPI DUP1 PUSH4 0x40AA5C71 EQ PUSH2 0x110 JUMPI JUMPDEST PUSH0 DUP1 REVERT JUMPDEST PUSH2 0xBD PUSH2 0xB8 CALLDATASIZE PUSH1 0x4 PUSH2 0x89D JUMP JUMPDEST PUSH2 0x190 JUMP JUMPDEST STOP JUMPDEST PUSH2 0xBD PUSH2 0xCD CALLDATASIZE PUSH1 0x4 PUSH2 0x8D7 JUMP JUMPDEST PUSH2 0x210 JUMP JUMPDEST PUSH2 0xDA PUSH2 0x28E JUMP JUMPDEST PUSH1 0x40 MLOAD PUSH2 0xE7 SWAP2 SWAP1 PUSH2 0x904 JUMP JUMPDEST PUSH1 0x40 MLOAD DUP1 SWAP2 SUB SWAP1 RETURN JUMPDEST PUSH2 0xF8 PUSH2 0x2E7 JUMP JUMPDEST PUSH1 0x40 MLOAD PUSH1 0x1 PUSH1 0x1 PUSH1 0xA0 SHL SUB SWAP1 SWAP2 AND DUP2 MSTORE PUSH1 0x20 ADD PUSH2 0xE7 JUMP JUMPDEST PUSH2 0xBD PUSH2 0x11E CALLDATASIZE PUSH1 0x4 PUSH2 0x940 JUMP JUMPDEST PUSH2 0x334 JUMP JUMPDEST PUSH2 0xBD PUSH2 0x131 CALLDATASIZE PUSH1 0x4 PUSH2 0x959 JUMP JUMPDEST PUSH2 0x3A8 JUMP JUMPDEST PUSH2 0xF8 PUSH2 0x45A JUMP JUMPDEST PUSH2 0x146 PUSH2 0x4B2 JUMP JUMPDEST PUSH1 0x40 MLOAD PUSH2 0xE7 SWAP6 SWAP5 SWAP4 SWAP3 SWAP2 SWAP1 PUSH2 0xA36 JUMP JUMPDEST PUSH2 0xBD PUSH2 0x165 CALLDATASIZE PUSH1 0x4 PUSH2 0x940 JUMP JUMPDEST PUSH2 0x6E0 JUMP JUMPDEST PUSH2 0xBD PUSH2 0x178 CALLDATASIZE PUSH1 0x4 PUSH2 0x89D JUMP JUMPDEST PUSH2 0x75B JUMP JUMPDEST PUSH2 0xBD PUSH2 0x18B CALLDATASIZE PUSH1 0x4 PUSH2 0x89D JUMP JUMPDEST PUSH2 0x7AC JUMP JUMPDEST PUSH1 0x3 SLOAD PUSH1 0x1 PUSH1 0x20 SHL SWAP1 DIV PUSH1 0x1 PUSH1 0x1 PUSH1 0xA0 SHL SUB AND CALLER EQ DUP1 PUSH2 0x1BA JUMPI POP PUSH1 0x4 SLOAD PUSH1 0x1 PUSH1 0x1 PUSH1 0xA0 SHL SUB AND CALLER EQ JUMPDEST PUSH2 0x1DF JUMPI PUSH1 0x40 MLOAD PUSH3 0x461BCD PUSH1 0xE5 SHL DUP2 MSTORE PUSH1 0x4 ADD PUSH2 0x1D6 SWAP1 PUSH2 0xA8F JUMP JUMPDEST PUSH1 0x40 MLOAD DUP1 SWAP2 SUB SWAP1 REVERT JUMPDEST PUSH1 0x2 PUSH2 0x1EB DUP3 DUP3 PUSH2 0xB58 JUMP JUMPDEST POP PUSH1 0x40 MLOAD CALLER DUP2 MSTORE PUSH0 DUP1 MLOAD PUSH1 0x20 PUSH2 0xC14 DUP4 CODECOPY DUP2 MLOAD SWAP2 MSTORE SWAP1 PUSH1 0x20 ADD JUMPDEST PUSH1 0x40 MLOAD DUP1 SWAP2 SUB SWAP1 LOG1 POP JUMP JUMPDEST PUSH1 0x3 SLOAD PUSH1 0x1 PUSH1 0x20 SHL SWAP1 DIV PUSH1 0x1 PUSH1 0x1 PUSH1 0xA0 SHL SUB AND CALLER EQ DUP1 PUSH2 0x23A JUMPI POP PUSH1 0x4 SLOAD PUSH1 0x1 PUSH1 0x1 PUSH1 0xA0 SHL SUB AND CALLER EQ JUMPDEST PUSH2 0x256 JUMPI PUSH1 0x40 MLOAD PUSH3 0x461BCD PUSH1 0xE5 SHL DUP2 MSTORE PUSH1 0x4 ADD PUSH2 0x1D6 SWAP1 PUSH2 0xA8F JUMP JUMPDEST PUSH1 0x4 DUP1 SLOAD PUSH1 0x1 PUSH1 0x1 PUSH1 0xA0 SHL SUB NOT AND PUSH1 0x1 PUSH1 0x1 PUSH1 0xA0 SHL SUB DUP4 AND OR SWAP1 SSTORE PUSH1 0x40 MLOAD CALLER DUP2 MSTORE PUSH0 DUP1 MLOAD PUSH1 0x20 PUSH2 0xC14 DUP4 CODECOPY DUP2 MLOAD SWAP2 MSTORE SWAP1 PUSH1 0x20 ADD PUSH2 0x205 JUMP JUMPDEST PUSH1 0x3 SLOAD PUSH0 SWAP1 PUSH1 0x1 PUSH1 0x20 SHL SWAP1 DIV PUSH1 0x1 PUSH1 0x1 PUSH1 0xA0 SHL SUB AND CALLER EQ DUP1 PUSH2 0x2BA JUMPI POP PUSH1 0x4 SLOAD PUSH1 0x1 PUSH1 0x1 PUSH1 0xA0 SHL SUB AND CALLER EQ JUMPDEST PUSH2 0x2D6 JUMPI PUSH1 0x40 MLOAD PUSH3 0x461BCD PUSH1 0xE5 SHL DUP2 MSTORE PUSH1 0x4 ADD PUSH2 0x1D6 SWAP1 PUSH2 0xA8F JUMP JUMPDEST POP PUSH1 0x4 SLOAD PUSH1 0x1 PUSH1 0xA0 SHL SWAP1 DIV PUSH1 0xFF AND SWAP1 JUMP JUMPDEST PUSH1 0x3 SLOAD PUSH0 SWAP1 PUSH1 0x1 PUSH1 0x20 SHL SWAP1 DIV PUSH1 0x1 PUSH1 0x1 PUSH1 0xA0 SHL SUB AND CALLER EQ DUP1 PUSH2 0x313 JUMPI POP PUSH1 0x4 SLOAD PUSH1 0x1 PUSH1 0x1 PUSH1 0xA0 SHL SUB AND CALLER EQ JUMPDEST PUSH2 0x32F JUMPI PUSH1 0x40 MLOAD PUSH3 0x461BCD PUSH1 0xE5 SHL DUP2 MSTORE PUSH1 0x4 ADD PUSH2 0x1D6 SWAP1 PUSH2 0xA8F JUMP JUMPDEST POP ADDRESS SWAP1 JUMP JUMPDEST PUSH1 0x3 SLOAD PUSH1 0x1 PUSH1 0x20 SHL SWAP1 DIV PUSH1 0x1 PUSH1 0x1 PUSH1 0xA0 SHL SUB AND CALLER EQ DUP1 PUSH2 0x35E JUMPI POP PUSH1 0x4 SLOAD PUSH1 0x1 PUSH1 0x1 PUSH1 0xA0 SHL SUB AND CALLER EQ JUMPDEST PUSH2 0x37A JUMPI PUSH1 0x40 MLOAD PUSH3 0x461BCD PUSH1 0xE5 SHL DUP2 MSTORE PUSH1 0x4 ADD PUSH2 0x1D6 SWAP1 PUSH2 0xA8F JUMP JUMPDEST PUSH1 0x3 DUP1 SLOAD PUSH2 0xFFFF NOT AND PUSH2 0xFFFF DUP4 AND OR SWAP1 SSTORE PUSH1 0x40 MLOAD CALLER DUP2 MSTORE PUSH0 DUP1 MLOAD PUSH1 0x20 PUSH2 0xC14 DUP4 CODECOPY DUP2 MLOAD SWAP2 MSTORE SWAP1 PUSH1 0x20 ADD PUSH2 0x205 JUMP JUMPDEST PUSH1 0x3 SLOAD PUSH1 0x1 PUSH1 0x20 SHL SWAP1 DIV PUSH1 0x1 PUSH1 0x1 PUSH1 0xA0 SHL SUB AND CALLER EQ DUP1 PUSH2 0x3D2 JUMPI POP PUSH1 0x4 SLOAD PUSH1 0x1 PUSH1 0x1 PUSH1 0xA0 SHL SUB AND CALLER EQ JUMPDEST PUSH2 0x3EE JUMPI PUSH1 0x40 MLOAD PUSH3 0x461BCD PUSH1 0xE5 SHL DUP2 MSTORE PUSH1 0x4 ADD PUSH2 0x1D6 SWAP1 PUSH2 0xA8F JUMP JUMPDEST PUSH0 PUSH2 0x3F9 DUP7 DUP3 PUSH2 0xB58 JUMP JUMPDEST POP PUSH1 0x1 PUSH2 0x406 DUP6 DUP3 PUSH2 0xB58 JUMP JUMPDEST POP PUSH1 0x2 PUSH2 0x413 DUP5 DUP3 PUSH2 0xB58 JUMP JUMPDEST POP PUSH1 0x3 DUP1 SLOAD PUSH2 0xFFFF DUP4 DUP2 AND PUSH3 0x10000 MUL PUSH4 0xFFFFFFFF NOT SWAP1 SWAP3 AND SWAP1 DUP6 AND OR OR SWAP1 SSTORE PUSH1 0x40 MLOAD CALLER DUP2 MSTORE PUSH0 DUP1 MLOAD PUSH1 0x20 PUSH2 0xC14 DUP4 CODECOPY DUP2 MLOAD SWAP2 MSTORE SWAP1 PUSH1 0x20 ADD PUSH1 0x40 MLOAD DUP1 SWAP2 SUB SWAP1 LOG1 POP POP POP POP POP JUMP JUMPDEST PUSH1 0x3 SLOAD PUSH0 SWAP1 PUSH1 0x1 PUSH1 0x20 SHL SWAP1 DIV PUSH1 0x1 PUSH1 0x1 PUSH1 0xA0 SHL SUB AND CALLER EQ DUP1 PUSH2 0x486 JUMPI POP PUSH1 0x4 SLOAD PUSH1 0x1 PUSH1 0x1 PUSH1 0xA0 SHL SUB AND CALLER EQ JUMPDEST PUSH2 0x4A2 JUMPI PUSH1 0x40 MLOAD PUSH3 0x461BCD PUSH1 0xE5 SHL DUP2 MSTORE PUSH1 0x4 ADD PUSH2 0x1D6 SWAP1 PUSH2 0xA8F JUMP JUMPDEST POP PUSH1 0x4 SLOAD PUSH1 0x1 PUSH1 0x1 PUSH1 0xA0 SHL SUB AND SWAP1 JUMP JUMPDEST PUSH1 0x60 DUP1 PUSH1 0x60 PUSH0 DUP1 PUSH1 0x3 PUSH1 0x4 SWAP1 SLOAD SWAP1 PUSH2 0x100 EXP SWAP1 DIV PUSH1 0x1 PUSH1 0x1 PUSH1 0xA0 SHL SUB AND PUSH1 0x1 PUSH1 0x1 PUSH1 0xA0 SHL SUB AND CALLER PUSH1 0x1 PUSH1 0x1 PUSH1 0xA0 SHL SUB AND EQ DUP1 PUSH2 0x4F8 JUMPI POP PUSH1 0x4 SLOAD PUSH1 0x1 PUSH1 0x1 PUSH1 0xA0 SHL SUB AND CALLER EQ JUMPDEST PUSH2 0x514 JUMPI PUSH1 0x40 MLOAD PUSH3 0x461BCD PUSH1 0xE5 SHL DUP2 MSTORE PUSH1 0x4 ADD PUSH2 0x1D6 SWAP1 PUSH2 0xA8F JUMP JUMPDEST PUSH1 0x3 SLOAD PUSH0 DUP1 SLOAD SWAP1 SWAP2 PUSH1 0x1 SWAP2 PUSH1 0x2 SWAP2 PUSH2 0xFFFF DUP1 DUP3 AND SWAP3 PUSH3 0x10000 SWAP1 SWAP3 DIV AND SWAP1 DUP6 SWAP1 PUSH2 0x53D SWAP1 PUSH2 0xAD4 JUMP JUMPDEST DUP1 PUSH1 0x1F ADD PUSH1 0x20 DUP1 SWAP2 DIV MUL PUSH1 0x20 ADD PUSH1 0x40 MLOAD SWAP1 DUP2 ADD PUSH1 0x40 MSTORE DUP1 SWAP3 SWAP2 SWAP1 DUP2 DUP2 MSTORE PUSH1 0x20 ADD DUP3 DUP1 SLOAD PUSH2 0x569 SWAP1 PUSH2 0xAD4 JUMP JUMPDEST DUP1 ISZERO PUSH2 0x5B4 JUMPI DUP1 PUSH1 0x1F LT PUSH2 0x58B JUMPI PUSH2 0x100 DUP1 DUP4 SLOAD DIV MUL DUP4 MSTORE SWAP2 PUSH1 0x20 ADD SWAP2 PUSH2 0x5B4 JUMP JUMPDEST DUP3 ADD SWAP2 SWAP1 PUSH0 MSTORE PUSH1 0x20 PUSH0 KECCAK256 SWAP1 JUMPDEST DUP2 SLOAD DUP2 MSTORE SWAP1 PUSH1 0x1 ADD SWAP1 PUSH1 0x20 ADD DUP1 DUP4 GT PUSH2 0x597 JUMPI DUP3 SWAP1 SUB PUSH1 0x1F AND DUP3 ADD SWAP2 JUMPDEST POP POP POP POP POP SWAP5 POP DUP4 DUP1 SLOAD PUSH2 0x5C7 SWAP1 PUSH2 0xAD4 JUMP JUMPDEST DUP1 PUSH1 0x1F ADD PUSH1 0x20 DUP1 SWAP2 DIV MUL PUSH1 0x20 ADD PUSH1 0x40 MLOAD SWAP1 DUP2 ADD PUSH1 0x40 MSTORE DUP1 SWAP3 SWAP2 SWAP1 DUP2 DUP2 MSTORE PUSH1 0x20 ADD DUP3 DUP1 SLOAD PUSH2 0x5F3 SWAP1 PUSH2 0xAD4 JUMP JUMPDEST DUP1 ISZERO PUSH2 0x63E JUMPI DUP1 PUSH1 0x1F LT PUSH2 0x615 JUMPI PUSH2 0x100 DUP1 DUP4 SLOAD DIV MUL DUP4 MSTORE SWAP2 PUSH1 0x20 ADD SWAP2 PUSH2 0x63E JUMP JUMPDEST DUP3 ADD SWAP2 SWAP1 PUSH0 MSTORE PUSH1 0x20 PUSH0 KECCAK256 SWAP1 JUMPDEST DUP2 SLOAD DUP2 MSTORE SWAP1 PUSH1 0x1 ADD SWAP1 PUSH1 0x20 ADD DUP1 DUP4 GT PUSH2 0x621 JUMPI DUP3 SWAP1 SUB PUSH1 0x1F AND DUP3 ADD SWAP2 JUMPDEST POP POP POP POP POP SWAP4 POP DUP3 DUP1 SLOAD PUSH2 0x651 SWAP1 PUSH2 0xAD4 JUMP JUMPDEST DUP1 PUSH1 0x1F ADD PUSH1 0x20 DUP1 SWAP2 DIV MUL PUSH1 0x20 ADD PUSH1 0x40 MLOAD SWAP1 DUP2 ADD PUSH1 0x40 MSTORE DUP1 SWAP3 SWAP2 SWAP1 DUP2 DUP2 MSTORE PUSH1 0x20 ADD DUP3 DUP1 SLOAD PUSH2 0x67D SWAP1 PUSH2 0xAD4 JUMP JUMPDEST DUP1 ISZERO PUSH2 0x6C8 JUMPI DUP1 PUSH1 0x1F LT PUSH2 0x69F JUMPI PUSH2 0x100 DUP1 DUP4 SLOAD DIV MUL DUP4 MSTORE SWAP2 PUSH1 0x20 ADD SWAP2 PUSH2 0x6C8 JUMP JUMPDEST DUP3 ADD SWAP2 SWAP1 PUSH0 MSTORE PUSH1 0x20 PUSH0 KECCAK256 SWAP1 JUMPDEST DUP2 SLOAD DUP2 MSTORE SWAP1 PUSH1 0x1 ADD SWAP1 PUSH1 0x20 ADD DUP1 DUP4 GT PUSH2 0x6AB JUMPI DUP3 SWAP1 SUB PUSH1 0x1F AND DUP3 ADD SWAP2 JUMPDEST POP POP POP POP POP SWAP3 POP SWAP5 POP SWAP5 POP SWAP5 POP SWAP5 POP SWAP5 POP SWAP1 SWAP2 SWAP3 SWAP4 SWAP5 JUMP JUMPDEST PUSH1 0x3 SLOAD PUSH1 0x1 PUSH1 0x20 SHL SWAP1 DIV PUSH1 0x1 PUSH1 0x1 PUSH1 0xA0 SHL SUB AND CALLER EQ DUP1 PUSH2 0x70A JUMPI POP PUSH1 0x4 SLOAD PUSH1 0x1 PUSH1 0x1 PUSH1 0xA0 SHL SUB AND CALLER EQ JUMPDEST PUSH2 0x726 JUMPI PUSH1 0x40 MLOAD PUSH3 0x461BCD PUSH1 0xE5 SHL DUP2 MSTORE PUSH1 0x4 ADD PUSH2 0x1D6 SWAP1 PUSH2 0xA8F JUMP JUMPDEST PUSH1 0x3 DUP1 SLOAD PUSH4 0xFFFF0000 NOT AND PUSH3 0x10000 PUSH2 0xFFFF DUP5 AND MUL OR SWAP1 SSTORE PUSH1 0x40 MLOAD CALLER DUP2 MSTORE PUSH0 DUP1 MLOAD PUSH1 0x20 PUSH2 0xC14 DUP4 CODECOPY DUP2 MLOAD SWAP2 MSTORE SWAP1 PUSH1 0x20 ADD PUSH2 0x205 JUMP JUMPDEST PUSH1 0x3 SLOAD PUSH1 0x1 PUSH1 0x20 SHL SWAP1 DIV PUSH1 0x1 PUSH1 0x1 PUSH1 0xA0 SHL SUB AND CALLER EQ DUP1 PUSH2 0x785 JUMPI POP PUSH1 0x4 SLOAD PUSH1 0x1 PUSH1 0x1 PUSH1 0xA0 SHL SUB AND CALLER EQ JUMPDEST PUSH2 0x7A1 JUMPI PUSH1 0x40 MLOAD PUSH3 0x461BCD PUSH1 0xE5 SHL DUP2 MSTORE PUSH1 0x4 ADD PUSH2 0x1D6 SWAP1 PUSH2 0xA8F JUMP JUMPDEST PUSH0 PUSH2 0x1EB DUP3 DUP3 PUSH2 0xB58 JUMP JUMPDEST PUSH1 0x3 SLOAD PUSH1 0x1 PUSH1 0x20 SHL SWAP1 DIV PUSH1 0x1 PUSH1 0x1 PUSH1 0xA0 SHL SUB AND CALLER EQ DUP1 PUSH2 0x7D6 JUMPI POP PUSH1 0x4 SLOAD PUSH1 0x1 PUSH1 0x1 PUSH1 0xA0 SHL SUB AND CALLER EQ JUMPDEST PUSH2 0x7F2 JUMPI PUSH1 0x40 MLOAD PUSH3 0x461BCD PUSH1 0xE5 SHL DUP2 MSTORE PUSH1 0x4 ADD PUSH2 0x1D6 SWAP1 PUSH2 0xA8F JUMP JUMPDEST PUSH1 0x1 PUSH2 0x1EB DUP3 DUP3 PUSH2 0xB58 JUMP JUMPDEST PUSH4 0x4E487B71 PUSH1 0xE0 SHL PUSH0 MSTORE PUSH1 0x41 PUSH1 0x4 MSTORE PUSH1 0x24 PUSH0 REVERT JUMPDEST PUSH0 DUP3 PUSH1 0x1F DUP4 ADD SLT PUSH2 0x821 JUMPI PUSH0 DUP1 REVERT JUMPDEST DUP2 CALLDATALOAD PUSH8 0xFFFFFFFFFFFFFFFF DUP2 GT ISZERO PUSH2 0x83B JUMPI PUSH2 0x83B PUSH2 0x7FE JUMP JUMPDEST PUSH1 0x40 MLOAD PUSH1 0x1F DUP3 ADD PUSH1 0x1F NOT SWAP1 DUP2 AND PUSH1 0x3F ADD AND DUP2 ADD PUSH8 0xFFFFFFFFFFFFFFFF DUP2 GT DUP3 DUP3 LT OR ISZERO PUSH2 0x86A JUMPI PUSH2 0x86A PUSH2 0x7FE JUMP JUMPDEST PUSH1 0x40 MSTORE DUP2 DUP2 MSTORE DUP4 DUP3 ADD PUSH1 0x20 ADD DUP6 LT ISZERO PUSH2 0x881 JUMPI PUSH0 DUP1 REVERT JUMPDEST DUP2 PUSH1 0x20 DUP6 ADD PUSH1 0x20 DUP4 ADD CALLDATACOPY PUSH0 SWAP2 DUP2 ADD PUSH1 0x20 ADD SWAP2 SWAP1 SWAP2 MSTORE SWAP4 SWAP3 POP POP POP JUMP JUMPDEST PUSH0 PUSH1 0x20 DUP3 DUP5 SUB SLT ISZERO PUSH2 0x8AD JUMPI PUSH0 DUP1 REVERT JUMPDEST DUP2 CALLDATALOAD PUSH8 0xFFFFFFFFFFFFFFFF DUP2 GT ISZERO PUSH2 0x8C3 JUMPI PUSH0 DUP1 REVERT JUMPDEST PUSH2 0x8CF DUP5 DUP3 DUP6 ADD PUSH2 0x812 JUMP JUMPDEST SWAP5 SWAP4 POP POP POP POP JUMP JUMPDEST PUSH0 PUSH1 0x20 DUP3 DUP5 SUB SLT ISZERO PUSH2 0x8E7 JUMPI PUSH0 DUP1 REVERT JUMPDEST DUP2 CALLDATALOAD PUSH1 0x1 PUSH1 0x1 PUSH1 0xA0 SHL SUB DUP2 AND DUP2 EQ PUSH2 0x8FD JUMPI PUSH0 DUP1 REVERT JUMPDEST SWAP4 SWAP3 POP POP POP JUMP JUMPDEST PUSH1 0x20 DUP2 ADD PUSH1 0x3 DUP4 LT PUSH2 0x924 JUMPI PUSH4 0x4E487B71 PUSH1 0xE0 SHL PUSH0 MSTORE PUSH1 0x21 PUSH1 0x4 MSTORE PUSH1 0x24 PUSH0 REVERT JUMPDEST SWAP2 SWAP1 MSTORE SWAP1 JUMP JUMPDEST DUP1 CALLDATALOAD PUSH2 0xFFFF DUP2 AND DUP2 EQ PUSH2 0x93B JUMPI PUSH0 DUP1 REVERT JUMPDEST SWAP2 SWAP1 POP JUMP JUMPDEST PUSH0 PUSH1 0x20 DUP3 DUP5 SUB SLT ISZERO PUSH2 0x950 JUMPI PUSH0 DUP1 REVERT JUMPDEST PUSH2 0x8FD DUP3 PUSH2 0x92A JUMP JUMPDEST PUSH0 DUP1 PUSH0 DUP1 PUSH0 PUSH1 0xA0 DUP7 DUP9 SUB SLT ISZERO PUSH2 0x96D JUMPI PUSH0 DUP1 REVERT JUMPDEST DUP6 CALLDATALOAD PUSH8 0xFFFFFFFFFFFFFFFF DUP2 GT ISZERO PUSH2 0x983 JUMPI PUSH0 DUP1 REVERT JUMPDEST PUSH2 0x98F DUP9 DUP3 DUP10 ADD PUSH2 0x812 JUMP JUMPDEST SWAP6 POP POP PUSH1 0x20 DUP7 ADD CALLDATALOAD PUSH8 0xFFFFFFFFFFFFFFFF DUP2 GT ISZERO PUSH2 0x9AB JUMPI PUSH0 DUP1 REVERT JUMPDEST PUSH2 0x9B7 DUP9 DUP3 DUP10 ADD PUSH2 0x812 JUMP JUMPDEST SWAP5 POP POP PUSH1 0x40 DUP7 ADD CALLDATALOAD PUSH8 0xFFFFFFFFFFFFFFFF DUP2 GT ISZERO PUSH2 0x9D3 JUMPI PUSH0 DUP1 REVERT JUMPDEST PUSH2 0x9DF DUP9 DUP3 DUP10 ADD PUSH2 0x812 JUMP JUMPDEST SWAP4 POP POP PUSH2 0x9EE PUSH1 0x60 DUP8 ADD PUSH2 0x92A JUMP JUMPDEST SWAP2 POP PUSH2 0x9FC PUSH1 0x80 DUP8 ADD PUSH2 0x92A JUMP JUMPDEST SWAP1 POP SWAP3 SWAP6 POP SWAP3 SWAP6 SWAP1 SWAP4 POP JUMP JUMPDEST PUSH0 DUP2 MLOAD DUP1 DUP5 MSTORE DUP1 PUSH1 0x20 DUP5 ADD PUSH1 0x20 DUP7 ADD MCOPY PUSH0 PUSH1 0x20 DUP3 DUP7 ADD ADD MSTORE PUSH1 0x20 PUSH1 0x1F NOT PUSH1 0x1F DUP4 ADD AND DUP6 ADD ADD SWAP2 POP POP SWAP3 SWAP2 POP POP JUMP JUMPDEST PUSH1 0xA0 DUP2 MSTORE PUSH0 PUSH2 0xA48 PUSH1 0xA0 DUP4 ADD DUP9 PUSH2 0xA08 JUMP JUMPDEST DUP3 DUP2 SUB PUSH1 0x20 DUP5 ADD MSTORE PUSH2 0xA5A DUP2 DUP9 PUSH2 0xA08 JUMP JUMPDEST SWAP1 POP DUP3 DUP2 SUB PUSH1 0x40 DUP5 ADD MSTORE PUSH2 0xA6E DUP2 DUP8 PUSH2 0xA08 JUMP JUMPDEST SWAP2 POP POP PUSH2 0xFFFF DUP5 AND PUSH1 0x60 DUP4 ADD MSTORE PUSH2 0xFFFF DUP4 AND PUSH1 0x80 DUP4 ADD MSTORE SWAP7 SWAP6 POP POP POP POP POP POP JUMP JUMPDEST PUSH1 0x20 DUP1 DUP3 MSTORE PUSH1 0x25 SWAP1 DUP3 ADD MSTORE PUSH32 0x4F6E6C7920746865206F776E65722063616E2063616C6C20746869732066756E PUSH1 0x40 DUP3 ADD MSTORE PUSH5 0x31BA34B7B7 PUSH1 0xD9 SHL PUSH1 0x60 DUP3 ADD MSTORE PUSH1 0x80 ADD SWAP1 JUMP JUMPDEST PUSH1 0x1 DUP2 DUP2 SHR SWAP1 DUP3 AND DUP1 PUSH2 0xAE8 JUMPI PUSH1 0x7F DUP3 AND SWAP2 POP JUMPDEST PUSH1 0x20 DUP3 LT DUP2 SUB PUSH2 0xB06 JUMPI PUSH4 0x4E487B71 PUSH1 0xE0 SHL PUSH0 MSTORE PUSH1 0x22 PUSH1 0x4 MSTORE PUSH1 0x24 PUSH0 REVERT JUMPDEST POP SWAP2 SWAP1 POP JUMP JUMPDEST PUSH1 0x1F DUP3 GT ISZERO PUSH2 0xB53 JUMPI DUP1 PUSH0 MSTORE PUSH1 0x20 PUSH0 KECCAK256 PUSH1 0x1F DUP5 ADD PUSH1 0x5 SHR DUP2 ADD PUSH1 0x20 DUP6 LT ISZERO PUSH2 0xB31 JUMPI POP DUP1 JUMPDEST PUSH1 0x1F DUP5 ADD PUSH1 0x5 SHR DUP3 ADD SWAP2 POP JUMPDEST DUP2 DUP2 LT ISZERO PUSH2 0xB50 JUMPI PUSH0 DUP2 SSTORE PUSH1 0x1 ADD PUSH2 0xB3D JUMP JUMPDEST POP POP JUMPDEST POP POP POP JUMP JUMPDEST DUP2 MLOAD PUSH8 0xFFFFFFFFFFFFFFFF DUP2 GT ISZERO PUSH2 0xB72 JUMPI PUSH2 0xB72 PUSH2 0x7FE JUMP JUMPDEST PUSH2 0xB86 DUP2 PUSH2 0xB80 DUP5 SLOAD PUSH2 0xAD4 JUMP JUMPDEST DUP5 PUSH2 0xB0C JUMP JUMPDEST PUSH1 0x20 PUSH1 0x1F DUP3 GT PUSH1 0x1 DUP2 EQ PUSH2 0xBB8 JUMPI PUSH0 DUP4 ISZERO PUSH2 0xBA1 JUMPI POP DUP5 DUP3 ADD MLOAD JUMPDEST PUSH0 NOT PUSH1 0x3 DUP6 SWAP1 SHL SHR NOT AND PUSH1 0x1 DUP5 SWAP1 SHL OR DUP5 SSTORE PUSH2 0xB50 JUMP JUMPDEST PUSH0 DUP5 DUP2 MSTORE PUSH1 0x20 DUP2 KECCAK256 PUSH1 0x1F NOT DUP6 AND SWAP2 JUMPDEST DUP3 DUP2 LT ISZERO PUSH2 0xBE7 JUMPI DUP8 DUP6 ADD MLOAD DUP3 SSTORE PUSH1 0x20 SWAP5 DUP6 ADD SWAP5 PUSH1 0x1 SWAP1 SWAP3 ADD SWAP2 ADD PUSH2 0xBC7 JUMP JUMPDEST POP DUP5 DUP3 LT ISZERO PUSH2 0xC04 JUMPI DUP7 DUP5 ADD MLOAD PUSH0 NOT PUSH1 0x3 DUP8 SWAP1 SHL PUSH1 0xF8 AND SHR NOT AND DUP2 SSTORE JUMPDEST POP POP POP POP PUSH1 0x1 SWAP1 DUP2 SHL ADD SWAP1 SSTORE POP JUMP INVALID 0xE0 0xD LOG2 OR DUP9 MOD RETURN PUSH32 0x69815E9ED5ED3072EC1D55206D60916D99B469C7DAA421E4A264697066735822 SLT KECCAK256 XOR 0xDD ADD SWAP8 SWAP2 0xB8 LOG4 PUSH31 0x8C6DE7F1E5FEBCBFB476147F3F1643C1B285E5387B7ECA664736F6C634300 ADDMOD BYTE STOP CALLER "
		},
		"gasEstimates": {
			"creation": {
				"codeDepositCost": "635400",
				"executionCost": "infinite",
				"totalCost": "infinite"
			},
			"external": {
				"expose()": "infinite",
				"getAddress()": "4669",
				"getItemType()": "6730",
				"getParent()": "6676",
				"setCardId(string)": "infinite",
				"setCvv(uint16)": "infinite",
				"setExpireAt(uint16)": "infinite",
				"setItem(string,string,string,uint16,uint16)": "infinite",
				"setName(string)": "infinite",
				"setNameOnCard(string)": "infinite",
				"setParent(address)": "infinite"
			}
		},
		"methodIdentifiers": {
			"expose()": "ba379e86",
			"getAddress()": "38cc4831",
			"getItemType()": "2858d3c8",
			"getParent()": "80f76021",
			"setCardId(string)": "efd8af9f",
			"setCvv(uint16)": "c40da770",
			"setExpireAt(uint16)": "40aa5c71",
			"setItem(string,string,string,uint16,uint16)": "478e5cb3",
			"setName(string)": "c47f0027",
			"setNameOnCard(string)": "0dbef92c",
			"setParent(address)": "1499c592"
		}
	},
	"abi": [
		{
			"inputs": [
				{
					"internalType": "string",
					"name": "_name",
					"type": "string"
				},
				{
					"internalType": "string",
					"name": "_card_id",
					"type": "string"
				},
				{
					"internalType": "string",
					"name": "_name_on_card",
					"type": "string"
				},
				{
					"internalType": "uint16",
					"name": "_expire_at",
					"type": "uint16"
				},
				{
					"internalType": "uint16",
					"name": "_cvv",
					"type": "uint16"
				},
				{
					"internalType": "address",
					"name": "_owner",
					"type": "address"
				},
				{
					"internalType": "address",
					"name": "_parent",
					"type": "address"
				}
			],
			"stateMutability": "nonpayable",
			"type": "constructor"
		},
		{
			"anonymous": false,
			"inputs": [
				{
					"indexed": false,
					"internalType": "address",
					"name": "",
					"type": "address"
				}
			],
			"name": "Created",
			"type": "event"
		},
		{
			"anonymous": false,
			"inputs": [
				{
					"indexed": false,
					"internalType": "address",
					"name": "",
					"type": "address"
				}
			],
			"name": "Updated",
			"type": "event"
		},
		{
			"inputs": [],
			"name": "expose",
			"outputs": [
				{
					"internalType": "string",
					"name": "",
					"type": "string"
				},
				{
					"internalType": "string",
					"name": "",
					"type": "string"
				},
				{
					"internalType": "string",
					"name": "",
					"type": "string"
				},
				{
					"internalType": "uint16",
					"name": "",
					"type": "uint16"
				},
				{
					"internalType": "uint16",
					"name": "",
					"type": "uint16"
				}
			],
			"stateMutability": "view",
			"type": "function"
		},
		{
			"inputs": [],
			"name": "getAddress",
			"outputs": [
				{
					"internalType": "address",
					"name": "",
					"type": "address"
				}
			],
			"stateMutability": "view",
			"type": "function"
		},
		{
			"inputs": [],
			"name": "getItemType",
			"outputs": [
				{
					"internalType": "enum Utils.ItemType",
					"name": "",
					"type": "uint8"
				}
			],
			"stateMutability": "view",
			"type": "function"
		},
		{
			"inputs": [],
			"name": "getParent",
			"outputs": [
				{
					"internalType": "address",
					"name": "",
					"type": "address"
				}
			],
			"stateMutability": "view",
			"type": "function"
		},
		{
			"inputs": [
				{
					"internalType": "string",
					"name": "_card_id",
					"type": "string"
				}
			],
			"name": "setCardId",
			"outputs": [],
			"stateMutability": "nonpayable",
			"type": "function"
		},
		{
			"inputs": [
				{
					"internalType": "uint16",
					"name": "_cvv",
					"type": "uint16"
				}
			],
			"name": "setCvv",
			"outputs": [],
			"stateMutability": "nonpayable",
			"type": "function"
		},
		{
			"inputs": [
				{
					"internalType": "uint16",
					"name": "_expire_at",
					"type": "uint16"
				}
			],
			"name": "setExpireAt",
			"outputs": [],
			"stateMutability": "nonpayable",
			"type": "function"
		},
		{
			"inputs": [
				{
					"internalType": "string",
					"name": "_name",
					"type": "string"
				},
				{
					"internalType": "string",
					"name": "_card_id",
					"type": "string"
				},
				{
					"internalType": "string",
					"name": "_name_on_card",
					"type": "string"
				},
				{
					"internalType": "uint16",
					"name": "_expire_at",
					"type": "uint16"
				},
				{
					"internalType": "uint16",
					"name": "_cvv",
					"type": "uint16"
				}
			],
			"name": "setItem",
			"outputs": [],
			"stateMutability": "nonpayable",
			"type": "function"
		},
		{
			"inputs": [
				{
					"internalType": "string",
					"name": "_name",
					"type": "string"
				}
			],
			"name": "setName",
			"outputs": [],
			"stateMutability": "nonpayable",
			"type": "function"
		},
		{
			"inputs": [
				{
					"internalType": "string",
					"name": "_name_on_card",
					"type": "string"
				}
			],
			"name": "setNameOnCard",
			"outputs": [],
			"stateMutability": "nonpayable",
			"type": "function"
		},
		{
			"inputs": [
				{
					"internalType": "address",
					"name": "_parent",
					"type": "address"
				}
			],
			"name": "setParent",
			"outputs": [],
			"stateMutability": "nonpayable",
			"type": "function"
		}
	]
}