{
	"data": {
		"bytecode": {
			"linkReferences": {},
			"object": "608060405234801561000f575f80fd5b506040516118bd3803806118bd833981810160405281019061003191906102a2565b855f908161003f91906105a8565b50846001908161004f91906105a8565b50836002908161005f91906105a8565b50826003908161006f91906105a8565b508160045f6101000a81548173ffffffffffffffffffffffffffffffffffffffff021916908373ffffffffffffffffffffffffffffffffffffffff1602179055508060055f6101000a81548173ffffffffffffffffffffffffffffffffffffffff021916908373ffffffffffffffffffffffffffffffffffffffff160217905550505050505050610677565b5f604051905090565b5f80fd5b5f80fd5b5f80fd5b5f80fd5b5f601f19601f8301169050919050565b7f4e487b71000000000000000000000000000000000000000000000000000000005f52604160045260245ffd5b61015a82610114565b810181811067ffffffffffffffff8211171561017957610178610124565b5b80604052505050565b5f61018b6100fb565b90506101978282610151565b919050565b5f67ffffffffffffffff8211156101b6576101b5610124565b5b6101bf82610114565b9050602081019050919050565b8281835e5f83830152505050565b5f6101ec6101e78461019c565b610182565b90508281526020810184848401111561020857610207610110565b5b6102138482856101cc565b509392505050565b5f82601f83011261022f5761022e61010c565b5b815161023f8482602086016101da565b91505092915050565b5f73ffffffffffffffffffffffffffffffffffffffff82169050919050565b5f61027182610248565b9050919050565b61028181610267565b811461028b575f80fd5b50565b5f8151905061029c81610278565b92915050565b5f805f805f8060c087890312156102bc576102bb610104565b5b5f87015167ffffffffffffffff8111156102d9576102d8610108565b5b6102e589828a0161021b565b965050602087015167ffffffffffffffff81111561030657610305610108565b5b61031289828a0161021b565b955050604087015167ffffffffffffffff81111561033357610332610108565b5b61033f89828a0161021b565b945050606087015167ffffffffffffffff8111156103605761035f610108565b5b61036c89828a0161021b565b935050608061037d89828a0161028e565b92505060a061038e89828a0161028e565b9150509295509295509295565b5f81519050919050565b7f4e487b71000000000000000000000000000000000000000000000000000000005f52602260045260245ffd5b5f60028204905060018216806103e957607f821691505b6020821081036103fc576103fb6103a5565b5b50919050565b5f819050815f5260205f209050919050565b5f6020601f8301049050919050565b5f82821b905092915050565b5f6008830261045e7fffffffffffffffffffffffffffffffffffffffffffffffffffffffffffffffff82610423565b6104688683610423565b95508019841693508086168417925050509392505050565b5f819050919050565b5f819050919050565b5f6104ac6104a76104a284610480565b610489565b610480565b9050919050565b5f819050919050565b6104c583610492565b6104d96104d1826104b3565b84845461042f565b825550505050565b5f90565b6104ed6104e1565b6104f88184846104bc565b505050565b5b8181101561051b576105105f826104e5565b6001810190506104fe565b5050565b601f8211156105605761053181610402565b61053a84610414565b81016020851015610549578190505b61055d61055585610414565b8301826104fd565b50505b505050565b5f82821c905092915050565b5f6105805f1984600802610565565b1980831691505092915050565b5f6105988383610571565b9150826002028217905092915050565b6105b18261039b565b67ffffffffffffffff8111156105ca576105c9610124565b5b6105d482546103d2565b6105df82828561051f565b5f60209050601f831160018114610610575f84156105fe578287015190505b610608858261058d565b86555061066f565b601f19841661061e86610402565b5f5b8281101561064557848901518255600182019150602085019450602081019050610620565b86831015610662578489015161065e601f891682610571565b8355505b6001600288020188555050505b505050505050565b611239806106845f395ff3fe608060405234801561000f575f80fd5b5060043610610086575f3560e01c806380f760211161005957806380f76021146100fc578063ba379e861461011a578063c47f00271461013b578063df21bf931461015757610086565b80631499c5921461008a578063252498a2146100a65780632b5914fe146100c257806338cc4831146100de575b5f80fd5b6100a4600480360381019061009f9190610c0e565b610173565b005b6100c060048036038101906100bb9190610d75565b61029c565b005b6100dc60048036038101906100d79190610d75565b610395565b005b6100e661048e565b6040516100f39190610dcb565b60405180910390f35b61010461057b565b6040516101119190610dcb565b60405180910390f35b610122610689565b6040516101329493929190610e44565b60405180910390f35b61015560048036038101906101509190610d75565b6109b2565b005b610171600480360381019061016c9190610d75565b610aaa565b005b60045f9054906101000a900473ffffffffffffffffffffffffffffffffffffffff1673ffffffffffffffffffffffffffffffffffffffff163373ffffffffffffffffffffffffffffffffffffffff16148061021a575060055f9054906101000a900473ffffffffffffffffffffffffffffffffffffffff1673ffffffffffffffffffffffffffffffffffffffff163373ffffffffffffffffffffffffffffffffffffffff16145b610259576040517f08c379a000000000000000000000000000000000000000000000000000000000815260040161025090610f13565b60405180910390fd5b8060055f6101000a81548173ffffffffffffffffffffffffffffffffffffffff021916908373ffffffffffffffffffffffffffffffffffffffff16021790555050565b60045f9054906101000a900473ffffffffffffffffffffffffffffffffffffffff1673ffffffffffffffffffffffffffffffffffffffff163373ffffffffffffffffffffffffffffffffffffffff161480610343575060055f9054906101000a900473ffffffffffffffffffffffffffffffffffffffff1673ffffffffffffffffffffffffffffffffffffffff163373ffffffffffffffffffffffffffffffffffffffff16145b610382576040517f08c379a000000000000000000000000000000000000000000000000000000000815260040161037990610f13565b60405180910390fd5b80600190816103919190611134565b5050565b60045f9054906101000a900473ffffffffffffffffffffffffffffffffffffffff1673ffffffffffffffffffffffffffffffffffffffff163373ffffffffffffffffffffffffffffffffffffffff16148061043c575060055f9054906101000a900473ffffffffffffffffffffffffffffffffffffffff1673ffffffffffffffffffffffffffffffffffffffff163373ffffffffffffffffffffffffffffffffffffffff16145b61047b576040517f08c379a000000000000000000000000000000000000000000000000000000000815260040161047290610f13565b60405180910390fd5b806002908161048a9190611134565b5050565b5f60045f9054906101000a900473ffffffffffffffffffffffffffffffffffffffff1673ffffffffffffffffffffffffffffffffffffffff163373ffffffffffffffffffffffffffffffffffffffff161480610536575060055f9054906101000a900473ffffffffffffffffffffffffffffffffffffffff1673ffffffffffffffffffffffffffffffffffffffff163373ffffffffffffffffffffffffffffffffffffffff16145b610575576040517f08c379a000000000000000000000000000000000000000000000000000000000815260040161056c90610f13565b60405180910390fd5b30905090565b5f60045f9054906101000a900473ffffffffffffffffffffffffffffffffffffffff1673ffffffffffffffffffffffffffffffffffffffff163373ffffffffffffffffffffffffffffffffffffffff161480610623575060055f9054906101000a900473ffffffffffffffffffffffffffffffffffffffff1673ffffffffffffffffffffffffffffffffffffffff163373ffffffffffffffffffffffffffffffffffffffff16145b610662576040517f08c379a000000000000000000000000000000000000000000000000000000000815260040161065990610f13565b60405180910390fd5b60055f9054906101000a900473ffffffffffffffffffffffffffffffffffffffff16905090565b60608060608060045f9054906101000a900473ffffffffffffffffffffffffffffffffffffffff1673ffffffffffffffffffffffffffffffffffffffff163373ffffffffffffffffffffffffffffffffffffffff161480610736575060055f9054906101000a900473ffffffffffffffffffffffffffffffffffffffff1673ffffffffffffffffffffffffffffffffffffffff163373ffffffffffffffffffffffffffffffffffffffff16145b610775576040517f08c379a000000000000000000000000000000000000000000000000000000000815260040161076c90610f13565b60405180910390fd5b5f60016002600383805461078890610f5e565b80601f01602080910402602001604051908101604052809291908181526020018280546107b490610f5e565b80156107ff5780601f106107d6576101008083540402835291602001916107ff565b820191905f5260205f20905b8154815290600101906020018083116107e257829003601f168201915b5050505050935082805461081290610f5e565b80601f016020809104026020016040519081016040528092919081815260200182805461083e90610f5e565b80156108895780601f1061086057610100808354040283529160200191610889565b820191905f5260205f20905b81548152906001019060200180831161086c57829003601f168201915b5050505050925081805461089c90610f5e565b80601f01602080910402602001604051908101604052809291908181526020018280546108c890610f5e565b80156109135780601f106108ea57610100808354040283529160200191610913565b820191905f5260205f20905b8154815290600101906020018083116108f657829003601f168201915b5050505050915080805461092690610f5e565b80601f016020809104026020016040519081016040528092919081815260200182805461095290610f5e565b801561099d5780601f106109745761010080835404028352916020019161099d565b820191905f5260205f20905b81548152906001019060200180831161098057829003601f168201915b50505050509050935093509350935090919293565b60045f9054906101000a900473ffffffffffffffffffffffffffffffffffffffff1673ffffffffffffffffffffffffffffffffffffffff163373ffffffffffffffffffffffffffffffffffffffff161480610a59575060055f9054906101000a900473ffffffffffffffffffffffffffffffffffffffff1673ffffffffffffffffffffffffffffffffffffffff163373ffffffffffffffffffffffffffffffffffffffff16145b610a98576040517f08c379a0000000000000000000000000000000000000000000000000000000008152600401610a8f90610f13565b60405180910390fd5b805f9081610aa69190611134565b5050565b60045f9054906101000a900473ffffffffffffffffffffffffffffffffffffffff1673ffffffffffffffffffffffffffffffffffffffff163373ffffffffffffffffffffffffffffffffffffffff161480610b51575060055f9054906101000a900473ffffffffffffffffffffffffffffffffffffffff1673ffffffffffffffffffffffffffffffffffffffff163373ffffffffffffffffffffffffffffffffffffffff16145b610b90576040517f08c379a0000000000000000000000000000000000000000000000000000000008152600401610b8790610f13565b60405180910390fd5b8060039081610b9f9190611134565b5050565b5f604051905090565b5f80fd5b5f80fd5b5f73ffffffffffffffffffffffffffffffffffffffff82169050919050565b5f610bdd82610bb4565b9050919050565b610bed81610bd3565b8114610bf7575f80fd5b50565b5f81359050610c0881610be4565b92915050565b5f60208284031215610c2357610c22610bac565b5b5f610c3084828501610bfa565b91505092915050565b5f80fd5b5f80fd5b5f601f19601f8301169050919050565b7f4e487b71000000000000000000000000000000000000000000000000000000005f52604160045260245ffd5b610c8782610c41565b810181811067ffffffffffffffff82111715610ca657610ca5610c51565b5b80604052505050565b5f610cb8610ba3565b9050610cc48282610c7e565b919050565b5f67ffffffffffffffff821115610ce357610ce2610c51565b5b610cec82610c41565b9050602081019050919050565b828183375f83830152505050565b5f610d19610d1484610cc9565b610caf565b905082815260208101848484011115610d3557610d34610c3d565b5b610d40848285610cf9565b509392505050565b5f82601f830112610d5c57610d5b610c39565b5b8135610d6c848260208601610d07565b91505092915050565b5f60208284031215610d8a57610d89610bac565b5b5f82013567ffffffffffffffff811115610da757610da6610bb0565b5b610db384828501610d48565b91505092915050565b610dc581610bd3565b82525050565b5f602082019050610dde5f830184610dbc565b92915050565b5f81519050919050565b5f82825260208201905092915050565b8281835e5f83830152505050565b5f610e1682610de4565b610e208185610dee565b9350610e30818560208601610dfe565b610e3981610c41565b840191505092915050565b5f6080820190508181035f830152610e5c8187610e0c565b90508181036020830152610e708186610e0c565b90508181036040830152610e848185610e0c565b90508181036060830152610e988184610e0c565b905095945050505050565b7f4f6e6c7920746865206f776e65722063616e2063616c6c20746869732066756e5f8201527f6374696f6e000000000000000000000000000000000000000000000000000000602082015250565b5f610efd602583610dee565b9150610f0882610ea3565b604082019050919050565b5f6020820190508181035f830152610f2a81610ef1565b9050919050565b7f4e487b71000000000000000000000000000000000000000000000000000000005f52602260045260245ffd5b5f6002820490506001821680610f7557607f821691505b602082108103610f8857610f87610f31565b5b50919050565b5f819050815f5260205f209050919050565b5f6020601f8301049050919050565b5f82821b905092915050565b5f60088302610fea7fffffffffffffffffffffffffffffffffffffffffffffffffffffffffffffffff82610faf565b610ff48683610faf565b95508019841693508086168417925050509392505050565b5f819050919050565b5f819050919050565b5f61103861103361102e8461100c565b611015565b61100c565b9050919050565b5f819050919050565b6110518361101e565b61106561105d8261103f565b848454610fbb565b825550505050565b5f90565b61107961106d565b611084818484611048565b505050565b5b818110156110a75761109c5f82611071565b60018101905061108a565b5050565b601f8211156110ec576110bd81610f8e565b6110c684610fa0565b810160208510156110d5578190505b6110e96110e185610fa0565b830182611089565b50505b505050565b5f82821c905092915050565b5f61110c5f19846008026110f1565b1980831691505092915050565b5f61112483836110fd565b9150826002028217905092915050565b61113d82610de4565b67ffffffffffffffff81111561115657611155610c51565b5b6111608254610f5e565b61116b8282856110ab565b5f60209050601f83116001811461119c575f841561118a578287015190505b6111948582611119565b8655506111fb565b601f1984166111aa86610f8e565b5f5b828110156111d1578489015182556001820191506020850194506020810190506111ac565b868310156111ee57848901516111ea601f8916826110fd565b8355505b6001600288020188555050505b50505050505056fea26469706673582212203ceac73cc648857bce08befdb5cc719684562f791b2e85f960e326838f018c1264736f6c634300081a0033",
			"opcodes": "PUSH1 0x80 PUSH1 0x40 MSTORE CALLVALUE DUP1 ISZERO PUSH2 0xF JUMPI PUSH0 DUP1 REVERT JUMPDEST POP PUSH1 0x40 MLOAD PUSH2 0x18BD CODESIZE SUB DUP1 PUSH2 0x18BD DUP4 CODECOPY DUP2 DUP2 ADD PUSH1 0x40 MSTORE DUP2 ADD SWAP1 PUSH2 0x31 SWAP2 SWAP1 PUSH2 0x2A2 JUMP JUMPDEST DUP6 PUSH0 SWAP1 DUP2 PUSH2 0x3F SWAP2 SWAP1 PUSH2 0x5A8 JUMP JUMPDEST POP DUP5 PUSH1 0x1 SWAP1 DUP2 PUSH2 0x4F SWAP2 SWAP1 PUSH2 0x5A8 JUMP JUMPDEST POP DUP4 PUSH1 0x2 SWAP1 DUP2 PUSH2 0x5F SWAP2 SWAP1 PUSH2 0x5A8 JUMP JUMPDEST POP DUP3 PUSH1 0x3 SWAP1 DUP2 PUSH2 0x6F SWAP2 SWAP1 PUSH2 0x5A8 JUMP JUMPDEST POP DUP2 PUSH1 0x4 PUSH0 PUSH2 0x100 EXP DUP2 SLOAD DUP2 PUSH20 0xFFFFFFFFFFFFFFFFFFFFFFFFFFFFFFFFFFFFFFFF MUL NOT AND SWAP1 DUP4 PUSH20 0xFFFFFFFFFFFFFFFFFFFFFFFFFFFFFFFFFFFFFFFF AND MUL OR SWAP1 SSTORE POP DUP1 PUSH1 0x5 PUSH0 PUSH2 0x100 EXP DUP2 SLOAD DUP2 PUSH20 0xFFFFFFFFFFFFFFFFFFFFFFFFFFFFFFFFFFFFFFFF MUL NOT AND SWAP1 DUP4 PUSH20 0xFFFFFFFFFFFFFFFFFFFFFFFFFFFFFFFFFFFFFFFF AND MUL OR SWAP1 SSTORE POP POP POP POP POP POP POP PUSH2 0x677 JUMP JUMPDEST PUSH0 PUSH1 0x40 MLOAD SWAP1 POP SWAP1 JUMP JUMPDEST PUSH0 DUP1 REVERT JUMPDEST PUSH0 DUP1 REVERT JUMPDEST PUSH0 DUP1 REVERT JUMPDEST PUSH0 DUP1 REVERT JUMPDEST PUSH0 PUSH1 0x1F NOT PUSH1 0x1F DUP4 ADD AND SWAP1 POP SWAP2 SWAP1 POP JUMP JUMPDEST PUSH32 0x4E487B7100000000000000000000000000000000000000000000000000000000 PUSH0 MSTORE PUSH1 0x41 PUSH1 0x4 MSTORE PUSH1 0x24 PUSH0 REVERT JUMPDEST PUSH2 0x15A DUP3 PUSH2 0x114 JUMP JUMPDEST DUP2 ADD DUP2 DUP2 LT PUSH8 0xFFFFFFFFFFFFFFFF DUP3 GT OR ISZERO PUSH2 0x179 JUMPI PUSH2 0x178 PUSH2 0x124 JUMP JUMPDEST JUMPDEST DUP1 PUSH1 0x40 MSTORE POP POP POP JUMP JUMPDEST PUSH0 PUSH2 0x18B PUSH2 0xFB JUMP JUMPDEST SWAP1 POP PUSH2 0x197 DUP3 DUP3 PUSH2 0x151 JUMP JUMPDEST SWAP2 SWAP1 POP JUMP JUMPDEST PUSH0 PUSH8 0xFFFFFFFFFFFFFFFF DUP3 GT ISZERO PUSH2 0x1B6 JUMPI PUSH2 0x1B5 PUSH2 0x124 JUMP JUMPDEST JUMPDEST PUSH2 0x1BF DUP3 PUSH2 0x114 JUMP JUMPDEST SWAP1 POP PUSH1 0x20 DUP2 ADD SWAP1 POP SWAP2 SWAP1 POP JUMP JUMPDEST DUP3 DUP2 DUP4 MCOPY PUSH0 DUP4 DUP4 ADD MSTORE POP POP POP JUMP JUMPDEST PUSH0 PUSH2 0x1EC PUSH2 0x1E7 DUP5 PUSH2 0x19C JUMP JUMPDEST PUSH2 0x182 JUMP JUMPDEST SWAP1 POP DUP3 DUP2 MSTORE PUSH1 0x20 DUP2 ADD DUP5 DUP5 DUP5 ADD GT ISZERO PUSH2 0x208 JUMPI PUSH2 0x207 PUSH2 0x110 JUMP JUMPDEST JUMPDEST PUSH2 0x213 DUP5 DUP3 DUP6 PUSH2 0x1CC JUMP JUMPDEST POP SWAP4 SWAP3 POP POP POP JUMP JUMPDEST PUSH0 DUP3 PUSH1 0x1F DUP4 ADD SLT PUSH2 0x22F JUMPI PUSH2 0x22E PUSH2 0x10C JUMP JUMPDEST JUMPDEST DUP2 MLOAD PUSH2 0x23F DUP5 DUP3 PUSH1 0x20 DUP7 ADD PUSH2 0x1DA JUMP JUMPDEST SWAP2 POP POP SWAP3 SWAP2 POP POP JUMP JUMPDEST PUSH0 PUSH20 0xFFFFFFFFFFFFFFFFFFFFFFFFFFFFFFFFFFFFFFFF DUP3 AND SWAP1 POP SWAP2 SWAP1 POP JUMP JUMPDEST PUSH0 PUSH2 0x271 DUP3 PUSH2 0x248 JUMP JUMPDEST SWAP1 POP SWAP2 SWAP1 POP JUMP JUMPDEST PUSH2 0x281 DUP2 PUSH2 0x267 JUMP JUMPDEST DUP2 EQ PUSH2 0x28B JUMPI PUSH0 DUP1 REVERT JUMPDEST POP JUMP JUMPDEST PUSH0 DUP2 MLOAD SWAP1 POP PUSH2 0x29C DUP2 PUSH2 0x278 JUMP JUMPDEST SWAP3 SWAP2 POP POP JUMP JUMPDEST PUSH0 DUP1 PUSH0 DUP1 PUSH0 DUP1 PUSH1 0xC0 DUP8 DUP10 SUB SLT ISZERO PUSH2 0x2BC JUMPI PUSH2 0x2BB PUSH2 0x104 JUMP JUMPDEST JUMPDEST PUSH0 DUP8 ADD MLOAD PUSH8 0xFFFFFFFFFFFFFFFF DUP2 GT ISZERO PUSH2 0x2D9 JUMPI PUSH2 0x2D8 PUSH2 0x108 JUMP JUMPDEST JUMPDEST PUSH2 0x2E5 DUP10 DUP3 DUP11 ADD PUSH2 0x21B JUMP JUMPDEST SWAP7 POP POP PUSH1 0x20 DUP8 ADD MLOAD PUSH8 0xFFFFFFFFFFFFFFFF DUP2 GT ISZERO PUSH2 0x306 JUMPI PUSH2 0x305 PUSH2 0x108 JUMP JUMPDEST JUMPDEST PUSH2 0x312 DUP10 DUP3 DUP11 ADD PUSH2 0x21B JUMP JUMPDEST SWAP6 POP POP PUSH1 0x40 DUP8 ADD MLOAD PUSH8 0xFFFFFFFFFFFFFFFF DUP2 GT ISZERO PUSH2 0x333 JUMPI PUSH2 0x332 PUSH2 0x108 JUMP JUMPDEST JUMPDEST PUSH2 0x33F DUP10 DUP3 DUP11 ADD PUSH2 0x21B JUMP JUMPDEST SWAP5 POP POP PUSH1 0x60 DUP8 ADD MLOAD PUSH8 0xFFFFFFFFFFFFFFFF DUP2 GT ISZERO PUSH2 0x360 JUMPI PUSH2 0x35F PUSH2 0x108 JUMP JUMPDEST JUMPDEST PUSH2 0x36C DUP10 DUP3 DUP11 ADD PUSH2 0x21B JUMP JUMPDEST SWAP4 POP POP PUSH1 0x80 PUSH2 0x37D DUP10 DUP3 DUP11 ADD PUSH2 0x28E JUMP JUMPDEST SWAP3 POP POP PUSH1 0xA0 PUSH2 0x38E DUP10 DUP3 DUP11 ADD PUSH2 0x28E JUMP JUMPDEST SWAP2 POP POP SWAP3 SWAP6 POP SWAP3 SWAP6 POP SWAP3 SWAP6 JUMP JUMPDEST PUSH0 DUP2 MLOAD SWAP1 POP SWAP2 SWAP1 POP JUMP JUMPDEST PUSH32 0x4E487B7100000000000000000000000000000000000000000000000000000000 PUSH0 MSTORE PUSH1 0x22 PUSH1 0x4 MSTORE PUSH1 0x24 PUSH0 REVERT JUMPDEST PUSH0 PUSH1 0x2 DUP3 DIV SWAP1 POP PUSH1 0x1 DUP3 AND DUP1 PUSH2 0x3E9 JUMPI PUSH1 0x7F DUP3 AND SWAP2 POP JUMPDEST PUSH1 0x20 DUP3 LT DUP2 SUB PUSH2 0x3FC JUMPI PUSH2 0x3FB PUSH2 0x3A5 JUMP JUMPDEST JUMPDEST POP SWAP2 SWAP1 POP JUMP JUMPDEST PUSH0 DUP2 SWAP1 POP DUP2 PUSH0 MSTORE PUSH1 0x20 PUSH0 KECCAK256 SWAP1 POP SWAP2 SWAP1 POP JUMP JUMPDEST PUSH0 PUSH1 0x20 PUSH1 0x1F DUP4 ADD DIV SWAP1 POP SWAP2 SWAP1 POP JUMP JUMPDEST PUSH0 DUP3 DUP3 SHL SWAP1 POP SWAP3 SWAP2 POP POP JUMP JUMPDEST PUSH0 PUSH1 0x8 DUP4 MUL PUSH2 0x45E PUSH32 0xFFFFFFFFFFFFFFFFFFFFFFFFFFFFFFFFFFFFFFFFFFFFFFFFFFFFFFFFFFFFFFFF DUP3 PUSH2 0x423 JUMP JUMPDEST PUSH2 0x468 DUP7 DUP4 PUSH2 0x423 JUMP JUMPDEST SWAP6 POP DUP1 NOT DUP5 AND SWAP4 POP DUP1 DUP7 AND DUP5 OR SWAP3 POP POP POP SWAP4 SWAP3 POP POP POP JUMP JUMPDEST PUSH0 DUP2 SWAP1 POP SWAP2 SWAP1 POP JUMP JUMPDEST PUSH0 DUP2 SWAP1 POP SWAP2 SWAP1 POP JUMP JUMPDEST PUSH0 PUSH2 0x4AC PUSH2 0x4A7 PUSH2 0x4A2 DUP5 PUSH2 0x480 JUMP JUMPDEST PUSH2 0x489 JUMP JUMPDEST PUSH2 0x480 JUMP JUMPDEST SWAP1 POP SWAP2 SWAP1 POP JUMP JUMPDEST PUSH0 DUP2 SWAP1 POP SWAP2 SWAP1 POP JUMP JUMPDEST PUSH2 0x4C5 DUP4 PUSH2 0x492 JUMP JUMPDEST PUSH2 0x4D9 PUSH2 0x4D1 DUP3 PUSH2 0x4B3 JUMP JUMPDEST DUP5 DUP5 SLOAD PUSH2 0x42F JUMP JUMPDEST DUP3 SSTORE POP POP POP POP JUMP JUMPDEST PUSH0 SWAP1 JUMP JUMPDEST PUSH2 0x4ED PUSH2 0x4E1 JUMP JUMPDEST PUSH2 0x4F8 DUP2 DUP5 DUP5 PUSH2 0x4BC JUMP JUMPDEST POP POP POP JUMP JUMPDEST JUMPDEST DUP2 DUP2 LT ISZERO PUSH2 0x51B JUMPI PUSH2 0x510 PUSH0 DUP3 PUSH2 0x4E5 JUMP JUMPDEST PUSH1 0x1 DUP2 ADD SWAP1 POP PUSH2 0x4FE JUMP JUMPDEST POP POP JUMP JUMPDEST PUSH1 0x1F DUP3 GT ISZERO PUSH2 0x560 JUMPI PUSH2 0x531 DUP2 PUSH2 0x402 JUMP JUMPDEST PUSH2 0x53A DUP5 PUSH2 0x414 JUMP JUMPDEST DUP2 ADD PUSH1 0x20 DUP6 LT ISZERO PUSH2 0x549 JUMPI DUP2 SWAP1 POP JUMPDEST PUSH2 0x55D PUSH2 0x555 DUP6 PUSH2 0x414 JUMP JUMPDEST DUP4 ADD DUP3 PUSH2 0x4FD JUMP JUMPDEST POP POP JUMPDEST POP POP POP JUMP JUMPDEST PUSH0 DUP3 DUP3 SHR SWAP1 POP SWAP3 SWAP2 POP POP JUMP JUMPDEST PUSH0 PUSH2 0x580 PUSH0 NOT DUP5 PUSH1 0x8 MUL PUSH2 0x565 JUMP JUMPDEST NOT DUP1 DUP4 AND SWAP2 POP POP SWAP3 SWAP2 POP POP JUMP JUMPDEST PUSH0 PUSH2 0x598 DUP4 DUP4 PUSH2 0x571 JUMP JUMPDEST SWAP2 POP DUP3 PUSH1 0x2 MUL DUP3 OR SWAP1 POP SWAP3 SWAP2 POP POP JUMP JUMPDEST PUSH2 0x5B1 DUP3 PUSH2 0x39B JUMP JUMPDEST PUSH8 0xFFFFFFFFFFFFFFFF DUP2 GT ISZERO PUSH2 0x5CA JUMPI PUSH2 0x5C9 PUSH2 0x124 JUMP JUMPDEST JUMPDEST PUSH2 0x5D4 DUP3 SLOAD PUSH2 0x3D2 JUMP JUMPDEST PUSH2 0x5DF DUP3 DUP3 DUP6 PUSH2 0x51F JUMP JUMPDEST PUSH0 PUSH1 0x20 SWAP1 POP PUSH1 0x1F DUP4 GT PUSH1 0x1 DUP2 EQ PUSH2 0x610 JUMPI PUSH0 DUP5 ISZERO PUSH2 0x5FE JUMPI DUP3 DUP8 ADD MLOAD SWAP1 POP JUMPDEST PUSH2 0x608 DUP6 DUP3 PUSH2 0x58D JUMP JUMPDEST DUP7 SSTORE POP PUSH2 0x66F JUMP JUMPDEST PUSH1 0x1F NOT DUP5 AND PUSH2 0x61E DUP7 PUSH2 0x402 JUMP JUMPDEST PUSH0 JUMPDEST DUP3 DUP2 LT ISZERO PUSH2 0x645 JUMPI DUP5 DUP10 ADD MLOAD DUP3 SSTORE PUSH1 0x1 DUP3 ADD SWAP2 POP PUSH1 0x20 DUP6 ADD SWAP5 POP PUSH1 0x20 DUP2 ADD SWAP1 POP PUSH2 0x620 JUMP JUMPDEST DUP7 DUP4 LT ISZERO PUSH2 0x662 JUMPI DUP5 DUP10 ADD MLOAD PUSH2 0x65E PUSH1 0x1F DUP10 AND DUP3 PUSH2 0x571 JUMP JUMPDEST DUP4 SSTORE POP JUMPDEST PUSH1 0x1 PUSH1 0x2 DUP9 MUL ADD DUP9 SSTORE POP POP POP JUMPDEST POP POP POP POP POP POP JUMP JUMPDEST PUSH2 0x1239 DUP1 PUSH2 0x684 PUSH0 CODECOPY PUSH0 RETURN INVALID PUSH1 0x80 PUSH1 0x40 MSTORE CALLVALUE DUP1 ISZERO PUSH2 0xF JUMPI PUSH0 DUP1 REVERT JUMPDEST POP PUSH1 0x4 CALLDATASIZE LT PUSH2 0x86 JUMPI PUSH0 CALLDATALOAD PUSH1 0xE0 SHR DUP1 PUSH4 0x80F76021 GT PUSH2 0x59 JUMPI DUP1 PUSH4 0x80F76021 EQ PUSH2 0xFC JUMPI DUP1 PUSH4 0xBA379E86 EQ PUSH2 0x11A JUMPI DUP1 PUSH4 0xC47F0027 EQ PUSH2 0x13B JUMPI DUP1 PUSH4 0xDF21BF93 EQ PUSH2 0x157 JUMPI PUSH2 0x86 JUMP JUMPDEST DUP1 PUSH4 0x1499C592 EQ PUSH2 0x8A JUMPI DUP1 PUSH4 0x252498A2 EQ PUSH2 0xA6 JUMPI DUP1 PUSH4 0x2B5914FE EQ PUSH2 0xC2 JUMPI DUP1 PUSH4 0x38CC4831 EQ PUSH2 0xDE JUMPI JUMPDEST PUSH0 DUP1 REVERT JUMPDEST PUSH2 0xA4 PUSH1 0x4 DUP1 CALLDATASIZE SUB DUP2 ADD SWAP1 PUSH2 0x9F SWAP2 SWAP1 PUSH2 0xC0E JUMP JUMPDEST PUSH2 0x173 JUMP JUMPDEST STOP JUMPDEST PUSH2 0xC0 PUSH1 0x4 DUP1 CALLDATASIZE SUB DUP2 ADD SWAP1 PUSH2 0xBB SWAP2 SWAP1 PUSH2 0xD75 JUMP JUMPDEST PUSH2 0x29C JUMP JUMPDEST STOP JUMPDEST PUSH2 0xDC PUSH1 0x4 DUP1 CALLDATASIZE SUB DUP2 ADD SWAP1 PUSH2 0xD7 SWAP2 SWAP1 PUSH2 0xD75 JUMP JUMPDEST PUSH2 0x395 JUMP JUMPDEST STOP JUMPDEST PUSH2 0xE6 PUSH2 0x48E JUMP JUMPDEST PUSH1 0x40 MLOAD PUSH2 0xF3 SWAP2 SWAP1 PUSH2 0xDCB JUMP JUMPDEST PUSH1 0x40 MLOAD DUP1 SWAP2 SUB SWAP1 RETURN JUMPDEST PUSH2 0x104 PUSH2 0x57B JUMP JUMPDEST PUSH1 0x40 MLOAD PUSH2 0x111 SWAP2 SWAP1 PUSH2 0xDCB JUMP JUMPDEST PUSH1 0x40 MLOAD DUP1 SWAP2 SUB SWAP1 RETURN JUMPDEST PUSH2 0x122 PUSH2 0x689 JUMP JUMPDEST PUSH1 0x40 MLOAD PUSH2 0x132 SWAP5 SWAP4 SWAP3 SWAP2 SWAP1 PUSH2 0xE44 JUMP JUMPDEST PUSH1 0x40 MLOAD DUP1 SWAP2 SUB SWAP1 RETURN JUMPDEST PUSH2 0x155 PUSH1 0x4 DUP1 CALLDATASIZE SUB DUP2 ADD SWAP1 PUSH2 0x150 SWAP2 SWAP1 PUSH2 0xD75 JUMP JUMPDEST PUSH2 0x9B2 JUMP JUMPDEST STOP JUMPDEST PUSH2 0x171 PUSH1 0x4 DUP1 CALLDATASIZE SUB DUP2 ADD SWAP1 PUSH2 0x16C SWAP2 SWAP1 PUSH2 0xD75 JUMP JUMPDEST PUSH2 0xAAA JUMP JUMPDEST STOP JUMPDEST PUSH1 0x4 PUSH0 SWAP1 SLOAD SWAP1 PUSH2 0x100 EXP SWAP1 DIV PUSH20 0xFFFFFFFFFFFFFFFFFFFFFFFFFFFFFFFFFFFFFFFF AND PUSH20 0xFFFFFFFFFFFFFFFFFFFFFFFFFFFFFFFFFFFFFFFF AND CALLER PUSH20 0xFFFFFFFFFFFFFFFFFFFFFFFFFFFFFFFFFFFFFFFF AND EQ DUP1 PUSH2 0x21A JUMPI POP PUSH1 0x5 PUSH0 SWAP1 SLOAD SWAP1 PUSH2 0x100 EXP SWAP1 DIV PUSH20 0xFFFFFFFFFFFFFFFFFFFFFFFFFFFFFFFFFFFFFFFF AND PUSH20 0xFFFFFFFFFFFFFFFFFFFFFFFFFFFFFFFFFFFFFFFF AND CALLER PUSH20 0xFFFFFFFFFFFFFFFFFFFFFFFFFFFFFFFFFFFFFFFF AND EQ JUMPDEST PUSH2 0x259 JUMPI PUSH1 0x40 MLOAD PUSH32 0x8C379A000000000000000000000000000000000000000000000000000000000 DUP2 MSTORE PUSH1 0x4 ADD PUSH2 0x250 SWAP1 PUSH2 0xF13 JUMP JUMPDEST PUSH1 0x40 MLOAD DUP1 SWAP2 SUB SWAP1 REVERT JUMPDEST DUP1 PUSH1 0x5 PUSH0 PUSH2 0x100 EXP DUP2 SLOAD DUP2 PUSH20 0xFFFFFFFFFFFFFFFFFFFFFFFFFFFFFFFFFFFFFFFF MUL NOT AND SWAP1 DUP4 PUSH20 0xFFFFFFFFFFFFFFFFFFFFFFFFFFFFFFFFFFFFFFFF AND MUL OR SWAP1 SSTORE POP POP JUMP JUMPDEST PUSH1 0x4 PUSH0 SWAP1 SLOAD SWAP1 PUSH2 0x100 EXP SWAP1 DIV PUSH20 0xFFFFFFFFFFFFFFFFFFFFFFFFFFFFFFFFFFFFFFFF AND PUSH20 0xFFFFFFFFFFFFFFFFFFFFFFFFFFFFFFFFFFFFFFFF AND CALLER PUSH20 0xFFFFFFFFFFFFFFFFFFFFFFFFFFFFFFFFFFFFFFFF AND EQ DUP1 PUSH2 0x343 JUMPI POP PUSH1 0x5 PUSH0 SWAP1 SLOAD SWAP1 PUSH2 0x100 EXP SWAP1 DIV PUSH20 0xFFFFFFFFFFFFFFFFFFFFFFFFFFFFFFFFFFFFFFFF AND PUSH20 0xFFFFFFFFFFFFFFFFFFFFFFFFFFFFFFFFFFFFFFFF AND CALLER PUSH20 0xFFFFFFFFFFFFFFFFFFFFFFFFFFFFFFFFFFFFFFFF AND EQ JUMPDEST PUSH2 0x382 JUMPI PUSH1 0x40 MLOAD PUSH32 0x8C379A000000000000000000000000000000000000000000000000000000000 DUP2 MSTORE PUSH1 0x4 ADD PUSH2 0x379 SWAP1 PUSH2 0xF13 JUMP JUMPDEST PUSH1 0x40 MLOAD DUP1 SWAP2 SUB SWAP1 REVERT JUMPDEST DUP1 PUSH1 0x1 SWAP1 DUP2 PUSH2 0x391 SWAP2 SWAP1 PUSH2 0x1134 JUMP JUMPDEST POP POP JUMP JUMPDEST PUSH1 0x4 PUSH0 SWAP1 SLOAD SWAP1 PUSH2 0x100 EXP SWAP1 DIV PUSH20 0xFFFFFFFFFFFFFFFFFFFFFFFFFFFFFFFFFFFFFFFF AND PUSH20 0xFFFFFFFFFFFFFFFFFFFFFFFFFFFFFFFFFFFFFFFF AND CALLER PUSH20 0xFFFFFFFFFFFFFFFFFFFFFFFFFFFFFFFFFFFFFFFF AND EQ DUP1 PUSH2 0x43C JUMPI POP PUSH1 0x5 PUSH0 SWAP1 SLOAD SWAP1 PUSH2 0x100 EXP SWAP1 DIV PUSH20 0xFFFFFFFFFFFFFFFFFFFFFFFFFFFFFFFFFFFFFFFF AND PUSH20 0xFFFFFFFFFFFFFFFFFFFFFFFFFFFFFFFFFFFFFFFF AND CALLER PUSH20 0xFFFFFFFFFFFFFFFFFFFFFFFFFFFFFFFFFFFFFFFF AND EQ JUMPDEST PUSH2 0x47B JUMPI PUSH1 0x40 MLOAD PUSH32 0x8C379A000000000000000000000000000000000000000000000000000000000 DUP2 MSTORE PUSH1 0x4 ADD PUSH2 0x472 SWAP1 PUSH2 0xF13 JUMP JUMPDEST PUSH1 0x40 MLOAD DUP1 SWAP2 SUB SWAP1 REVERT JUMPDEST DUP1 PUSH1 0x2 SWAP1 DUP2 PUSH2 0x48A SWAP2 SWAP1 PUSH2 0x1134 JUMP JUMPDEST POP POP JUMP JUMPDEST PUSH0 PUSH1 0x4 PUSH0 SWAP1 SLOAD SWAP1 PUSH2 0x100 EXP SWAP1 DIV PUSH20 0xFFFFFFFFFFFFFFFFFFFFFFFFFFFFFFFFFFFFFFFF AND PUSH20 0xFFFFFFFFFFFFFFFFFFFFFFFFFFFFFFFFFFFFFFFF AND CALLER PUSH20 0xFFFFFFFFFFFFFFFFFFFFFFFFFFFFFFFFFFFFFFFF AND EQ DUP1 PUSH2 0x536 JUMPI POP PUSH1 0x5 PUSH0 SWAP1 SLOAD SWAP1 PUSH2 0x100 EXP SWAP1 DIV PUSH20 0xFFFFFFFFFFFFFFFFFFFFFFFFFFFFFFFFFFFFFFFF AND PUSH20 0xFFFFFFFFFFFFFFFFFFFFFFFFFFFFFFFFFFFFFFFF AND CALLER PUSH20 0xFFFFFFFFFFFFFFFFFFFFFFFFFFFFFFFFFFFFFFFF AND EQ JUMPDEST PUSH2 0x575 JUMPI PUSH1 0x40 MLOAD PUSH32 0x8C379A000000000000000000000000000000000000000000000000000000000 DUP2 MSTORE PUSH1 0x4 ADD PUSH2 0x56C SWAP1 PUSH2 0xF13 JUMP JUMPDEST PUSH1 0x40 MLOAD DUP1 SWAP2 SUB SWAP1 REVERT JUMPDEST ADDRESS SWAP1 POP SWAP1 JUMP JUMPDEST PUSH0 PUSH1 0x4 PUSH0 SWAP1 SLOAD SWAP1 PUSH2 0x100 EXP SWAP1 DIV PUSH20 0xFFFFFFFFFFFFFFFFFFFFFFFFFFFFFFFFFFFFFFFF AND PUSH20 0xFFFFFFFFFFFFFFFFFFFFFFFFFFFFFFFFFFFFFFFF AND CALLER PUSH20 0xFFFFFFFFFFFFFFFFFFFFFFFFFFFFFFFFFFFFFFFF AND EQ DUP1 PUSH2 0x623 JUMPI POP PUSH1 0x5 PUSH0 SWAP1 SLOAD SWAP1 PUSH2 0x100 EXP SWAP1 DIV PUSH20 0xFFFFFFFFFFFFFFFFFFFFFFFFFFFFFFFFFFFFFFFF AND PUSH20 0xFFFFFFFFFFFFFFFFFFFFFFFFFFFFFFFFFFFFFFFF AND CALLER PUSH20 0xFFFFFFFFFFFFFFFFFFFFFFFFFFFFFFFFFFFFFFFF AND EQ JUMPDEST PUSH2 0x662 JUMPI PUSH1 0x40 MLOAD PUSH32 0x8C379A000000000000000000000000000000000000000000000000000000000 DUP2 MSTORE PUSH1 0x4 ADD PUSH2 0x659 SWAP1 PUSH2 0xF13 JUMP JUMPDEST PUSH1 0x40 MLOAD DUP1 SWAP2 SUB SWAP1 REVERT JUMPDEST PUSH1 0x5 PUSH0 SWAP1 SLOAD SWAP1 PUSH2 0x100 EXP SWAP1 DIV PUSH20 0xFFFFFFFFFFFFFFFFFFFFFFFFFFFFFFFFFFFFFFFF AND SWAP1 POP SWAP1 JUMP JUMPDEST PUSH1 0x60 DUP1 PUSH1 0x60 DUP1 PUSH1 0x4 PUSH0 SWAP1 SLOAD SWAP1 PUSH2 0x100 EXP SWAP1 DIV PUSH20 0xFFFFFFFFFFFFFFFFFFFFFFFFFFFFFFFFFFFFFFFF AND PUSH20 0xFFFFFFFFFFFFFFFFFFFFFFFFFFFFFFFFFFFFFFFF AND CALLER PUSH20 0xFFFFFFFFFFFFFFFFFFFFFFFFFFFFFFFFFFFFFFFF AND EQ DUP1 PUSH2 0x736 JUMPI POP PUSH1 0x5 PUSH0 SWAP1 SLOAD SWAP1 PUSH2 0x100 EXP SWAP1 DIV PUSH20 0xFFFFFFFFFFFFFFFFFFFFFFFFFFFFFFFFFFFFFFFF AND PUSH20 0xFFFFFFFFFFFFFFFFFFFFFFFFFFFFFFFFFFFFFFFF AND CALLER PUSH20 0xFFFFFFFFFFFFFFFFFFFFFFFFFFFFFFFFFFFFFFFF AND EQ JUMPDEST PUSH2 0x775 JUMPI PUSH1 0x40 MLOAD PUSH32 0x8C379A000000000000000000000000000000000000000000000000000000000 DUP2 MSTORE PUSH1 0x4 ADD PUSH2 0x76C SWAP1 PUSH2 0xF13 JUMP JUMPDEST PUSH1 0x40 MLOAD DUP1 SWAP2 SUB SWAP1 REVERT JUMPDEST PUSH0 PUSH1 0x1 PUSH1 0x2 PUSH1 0x3 DUP4 DUP1 SLOAD PUSH2 0x788 SWAP1 PUSH2 0xF5E JUMP JUMPDEST DUP1 PUSH1 0x1F ADD PUSH1 0x20 DUP1 SWAP2 DIV MUL PUSH1 0x20 ADD PUSH1 0x40 MLOAD SWAP1 DUP2 ADD PUSH1 0x40 MSTORE DUP1 SWAP3 SWAP2 SWAP1 DUP2 DUP2 MSTORE PUSH1 0x20 ADD DUP3 DUP1 SLOAD PUSH2 0x7B4 SWAP1 PUSH2 0xF5E JUMP JUMPDEST DUP1 ISZERO PUSH2 0x7FF JUMPI DUP1 PUSH1 0x1F LT PUSH2 0x7D6 JUMPI PUSH2 0x100 DUP1 DUP4 SLOAD DIV MUL DUP4 MSTORE SWAP2 PUSH1 0x20 ADD SWAP2 PUSH2 0x7FF JUMP JUMPDEST DUP3 ADD SWAP2 SWAP1 PUSH0 MSTORE PUSH1 0x20 PUSH0 KECCAK256 SWAP1 JUMPDEST DUP2 SLOAD DUP2 MSTORE SWAP1 PUSH1 0x1 ADD SWAP1 PUSH1 0x20 ADD DUP1 DUP4 GT PUSH2 0x7E2 JUMPI DUP3 SWAP1 SUB PUSH1 0x1F AND DUP3 ADD SWAP2 JUMPDEST POP POP POP POP POP SWAP4 POP DUP3 DUP1 SLOAD PUSH2 0x812 SWAP1 PUSH2 0xF5E JUMP JUMPDEST DUP1 PUSH1 0x1F ADD PUSH1 0x20 DUP1 SWAP2 DIV MUL PUSH1 0x20 ADD PUSH1 0x40 MLOAD SWAP1 DUP2 ADD PUSH1 0x40 MSTORE DUP1 SWAP3 SWAP2 SWAP1 DUP2 DUP2 MSTORE PUSH1 0x20 ADD DUP3 DUP1 SLOAD PUSH2 0x83E SWAP1 PUSH2 0xF5E JUMP JUMPDEST DUP1 ISZERO PUSH2 0x889 JUMPI DUP1 PUSH1 0x1F LT PUSH2 0x860 JUMPI PUSH2 0x100 DUP1 DUP4 SLOAD DIV MUL DUP4 MSTORE SWAP2 PUSH1 0x20 ADD SWAP2 PUSH2 0x889 JUMP JUMPDEST DUP3 ADD SWAP2 SWAP1 PUSH0 MSTORE PUSH1 0x20 PUSH0 KECCAK256 SWAP1 JUMPDEST DUP2 SLOAD DUP2 MSTORE SWAP1 PUSH1 0x1 ADD SWAP1 PUSH1 0x20 ADD DUP1 DUP4 GT PUSH2 0x86C JUMPI DUP3 SWAP1 SUB PUSH1 0x1F AND DUP3 ADD SWAP2 JUMPDEST POP POP POP POP POP SWAP3 POP DUP2 DUP1 SLOAD PUSH2 0x89C SWAP1 PUSH2 0xF5E JUMP JUMPDEST DUP1 PUSH1 0x1F ADD PUSH1 0x20 DUP1 SWAP2 DIV MUL PUSH1 0x20 ADD PUSH1 0x40 MLOAD SWAP1 DUP2 ADD PUSH1 0x40 MSTORE DUP1 SWAP3 SWAP2 SWAP1 DUP2 DUP2 MSTORE PUSH1 0x20 ADD DUP3 DUP1 SLOAD PUSH2 0x8C8 SWAP1 PUSH2 0xF5E JUMP JUMPDEST DUP1 ISZERO PUSH2 0x913 JUMPI DUP1 PUSH1 0x1F LT PUSH2 0x8EA JUMPI PUSH2 0x100 DUP1 DUP4 SLOAD DIV MUL DUP4 MSTORE SWAP2 PUSH1 0x20 ADD SWAP2 PUSH2 0x913 JUMP JUMPDEST DUP3 ADD SWAP2 SWAP1 PUSH0 MSTORE PUSH1 0x20 PUSH0 KECCAK256 SWAP1 JUMPDEST DUP2 SLOAD DUP2 MSTORE SWAP1 PUSH1 0x1 ADD SWAP1 PUSH1 0x20 ADD DUP1 DUP4 GT PUSH2 0x8F6 JUMPI DUP3 SWAP1 SUB PUSH1 0x1F AND DUP3 ADD SWAP2 JUMPDEST POP POP POP POP POP SWAP2 POP DUP1 DUP1 SLOAD PUSH2 0x926 SWAP1 PUSH2 0xF5E JUMP JUMPDEST DUP1 PUSH1 0x1F ADD PUSH1 0x20 DUP1 SWAP2 DIV MUL PUSH1 0x20 ADD PUSH1 0x40 MLOAD SWAP1 DUP2 ADD PUSH1 0x40 MSTORE DUP1 SWAP3 SWAP2 SWAP1 DUP2 DUP2 MSTORE PUSH1 0x20 ADD DUP3 DUP1 SLOAD PUSH2 0x952 SWAP1 PUSH2 0xF5E JUMP JUMPDEST DUP1 ISZERO PUSH2 0x99D JUMPI DUP1 PUSH1 0x1F LT PUSH2 0x974 JUMPI PUSH2 0x100 DUP1 DUP4 SLOAD DIV MUL DUP4 MSTORE SWAP2 PUSH1 0x20 ADD SWAP2 PUSH2 0x99D JUMP JUMPDEST DUP3 ADD SWAP2 SWAP1 PUSH0 MSTORE PUSH1 0x20 PUSH0 KECCAK256 SWAP1 JUMPDEST DUP2 SLOAD DUP2 MSTORE SWAP1 PUSH1 0x1 ADD SWAP1 PUSH1 0x20 ADD DUP1 DUP4 GT PUSH2 0x980 JUMPI DUP3 SWAP1 SUB PUSH1 0x1F AND DUP3 ADD SWAP2 JUMPDEST POP POP POP POP POP SWAP1 POP SWAP4 POP SWAP4 POP SWAP4 POP SWAP4 POP SWAP1 SWAP2 SWAP3 SWAP4 JUMP JUMPDEST PUSH1 0x4 PUSH0 SWAP1 SLOAD SWAP1 PUSH2 0x100 EXP SWAP1 DIV PUSH20 0xFFFFFFFFFFFFFFFFFFFFFFFFFFFFFFFFFFFFFFFF AND PUSH20 0xFFFFFFFFFFFFFFFFFFFFFFFFFFFFFFFFFFFFFFFF AND CALLER PUSH20 0xFFFFFFFFFFFFFFFFFFFFFFFFFFFFFFFFFFFFFFFF AND EQ DUP1 PUSH2 0xA59 JUMPI POP PUSH1 0x5 PUSH0 SWAP1 SLOAD SWAP1 PUSH2 0x100 EXP SWAP1 DIV PUSH20 0xFFFFFFFFFFFFFFFFFFFFFFFFFFFFFFFFFFFFFFFF AND PUSH20 0xFFFFFFFFFFFFFFFFFFFFFFFFFFFFFFFFFFFFFFFF AND CALLER PUSH20 0xFFFFFFFFFFFFFFFFFFFFFFFFFFFFFFFFFFFFFFFF AND EQ JUMPDEST PUSH2 0xA98 JUMPI PUSH1 0x40 MLOAD PUSH32 0x8C379A000000000000000000000000000000000000000000000000000000000 DUP2 MSTORE PUSH1 0x4 ADD PUSH2 0xA8F SWAP1 PUSH2 0xF13 JUMP JUMPDEST PUSH1 0x40 MLOAD DUP1 SWAP2 SUB SWAP1 REVERT JUMPDEST DUP1 PUSH0 SWAP1 DUP2 PUSH2 0xAA6 SWAP2 SWAP1 PUSH2 0x1134 JUMP JUMPDEST POP POP JUMP JUMPDEST PUSH1 0x4 PUSH0 SWAP1 SLOAD SWAP1 PUSH2 0x100 EXP SWAP1 DIV PUSH20 0xFFFFFFFFFFFFFFFFFFFFFFFFFFFFFFFFFFFFFFFF AND PUSH20 0xFFFFFFFFFFFFFFFFFFFFFFFFFFFFFFFFFFFFFFFF AND CALLER PUSH20 0xFFFFFFFFFFFFFFFFFFFFFFFFFFFFFFFFFFFFFFFF AND EQ DUP1 PUSH2 0xB51 JUMPI POP PUSH1 0x5 PUSH0 SWAP1 SLOAD SWAP1 PUSH2 0x100 EXP SWAP1 DIV PUSH20 0xFFFFFFFFFFFFFFFFFFFFFFFFFFFFFFFFFFFFFFFF AND PUSH20 0xFFFFFFFFFFFFFFFFFFFFFFFFFFFFFFFFFFFFFFFF AND CALLER PUSH20 0xFFFFFFFFFFFFFFFFFFFFFFFFFFFFFFFFFFFFFFFF AND EQ JUMPDEST PUSH2 0xB90 JUMPI PUSH1 0x40 MLOAD PUSH32 0x8C379A000000000000000000000000000000000000000000000000000000000 DUP2 MSTORE PUSH1 0x4 ADD PUSH2 0xB87 SWAP1 PUSH2 0xF13 JUMP JUMPDEST PUSH1 0x40 MLOAD DUP1 SWAP2 SUB SWAP1 REVERT JUMPDEST DUP1 PUSH1 0x3 SWAP1 DUP2 PUSH2 0xB9F SWAP2 SWAP1 PUSH2 0x1134 JUMP JUMPDEST POP POP JUMP JUMPDEST PUSH0 PUSH1 0x40 MLOAD SWAP1 POP SWAP1 JUMP JUMPDEST PUSH0 DUP1 REVERT JUMPDEST PUSH0 DUP1 REVERT JUMPDEST PUSH0 PUSH20 0xFFFFFFFFFFFFFFFFFFFFFFFFFFFFFFFFFFFFFFFF DUP3 AND SWAP1 POP SWAP2 SWAP1 POP JUMP JUMPDEST PUSH0 PUSH2 0xBDD DUP3 PUSH2 0xBB4 JUMP JUMPDEST SWAP1 POP SWAP2 SWAP1 POP JUMP JUMPDEST PUSH2 0xBED DUP2 PUSH2 0xBD3 JUMP JUMPDEST DUP2 EQ PUSH2 0xBF7 JUMPI PUSH0 DUP1 REVERT JUMPDEST POP JUMP JUMPDEST PUSH0 DUP2 CALLDATALOAD SWAP1 POP PUSH2 0xC08 DUP2 PUSH2 0xBE4 JUMP JUMPDEST SWAP3 SWAP2 POP POP JUMP JUMPDEST PUSH0 PUSH1 0x20 DUP3 DUP5 SUB SLT ISZERO PUSH2 0xC23 JUMPI PUSH2 0xC22 PUSH2 0xBAC JUMP JUMPDEST JUMPDEST PUSH0 PUSH2 0xC30 DUP5 DUP3 DUP6 ADD PUSH2 0xBFA JUMP JUMPDEST SWAP2 POP POP SWAP3 SWAP2 POP POP JUMP JUMPDEST PUSH0 DUP1 REVERT JUMPDEST PUSH0 DUP1 REVERT JUMPDEST PUSH0 PUSH1 0x1F NOT PUSH1 0x1F DUP4 ADD AND SWAP1 POP SWAP2 SWAP1 POP JUMP JUMPDEST PUSH32 0x4E487B7100000000000000000000000000000000000000000000000000000000 PUSH0 MSTORE PUSH1 0x41 PUSH1 0x4 MSTORE PUSH1 0x24 PUSH0 REVERT JUMPDEST PUSH2 0xC87 DUP3 PUSH2 0xC41 JUMP JUMPDEST DUP2 ADD DUP2 DUP2 LT PUSH8 0xFFFFFFFFFFFFFFFF DUP3 GT OR ISZERO PUSH2 0xCA6 JUMPI PUSH2 0xCA5 PUSH2 0xC51 JUMP JUMPDEST JUMPDEST DUP1 PUSH1 0x40 MSTORE POP POP POP JUMP JUMPDEST PUSH0 PUSH2 0xCB8 PUSH2 0xBA3 JUMP JUMPDEST SWAP1 POP PUSH2 0xCC4 DUP3 DUP3 PUSH2 0xC7E JUMP JUMPDEST SWAP2 SWAP1 POP JUMP JUMPDEST PUSH0 PUSH8 0xFFFFFFFFFFFFFFFF DUP3 GT ISZERO PUSH2 0xCE3 JUMPI PUSH2 0xCE2 PUSH2 0xC51 JUMP JUMPDEST JUMPDEST PUSH2 0xCEC DUP3 PUSH2 0xC41 JUMP JUMPDEST SWAP1 POP PUSH1 0x20 DUP2 ADD SWAP1 POP SWAP2 SWAP1 POP JUMP JUMPDEST DUP3 DUP2 DUP4 CALLDATACOPY PUSH0 DUP4 DUP4 ADD MSTORE POP POP POP JUMP JUMPDEST PUSH0 PUSH2 0xD19 PUSH2 0xD14 DUP5 PUSH2 0xCC9 JUMP JUMPDEST PUSH2 0xCAF JUMP JUMPDEST SWAP1 POP DUP3 DUP2 MSTORE PUSH1 0x20 DUP2 ADD DUP5 DUP5 DUP5 ADD GT ISZERO PUSH2 0xD35 JUMPI PUSH2 0xD34 PUSH2 0xC3D JUMP JUMPDEST JUMPDEST PUSH2 0xD40 DUP5 DUP3 DUP6 PUSH2 0xCF9 JUMP JUMPDEST POP SWAP4 SWAP3 POP POP POP JUMP JUMPDEST PUSH0 DUP3 PUSH1 0x1F DUP4 ADD SLT PUSH2 0xD5C JUMPI PUSH2 0xD5B PUSH2 0xC39 JUMP JUMPDEST JUMPDEST DUP2 CALLDATALOAD PUSH2 0xD6C DUP5 DUP3 PUSH1 0x20 DUP7 ADD PUSH2 0xD07 JUMP JUMPDEST SWAP2 POP POP SWAP3 SWAP2 POP POP JUMP JUMPDEST PUSH0 PUSH1 0x20 DUP3 DUP5 SUB SLT ISZERO PUSH2 0xD8A JUMPI PUSH2 0xD89 PUSH2 0xBAC JUMP JUMPDEST JUMPDEST PUSH0 DUP3 ADD CALLDATALOAD PUSH8 0xFFFFFFFFFFFFFFFF DUP2 GT ISZERO PUSH2 0xDA7 JUMPI PUSH2 0xDA6 PUSH2 0xBB0 JUMP JUMPDEST JUMPDEST PUSH2 0xDB3 DUP5 DUP3 DUP6 ADD PUSH2 0xD48 JUMP JUMPDEST SWAP2 POP POP SWAP3 SWAP2 POP POP JUMP JUMPDEST PUSH2 0xDC5 DUP2 PUSH2 0xBD3 JUMP JUMPDEST DUP3 MSTORE POP POP JUMP JUMPDEST PUSH0 PUSH1 0x20 DUP3 ADD SWAP1 POP PUSH2 0xDDE PUSH0 DUP4 ADD DUP5 PUSH2 0xDBC JUMP JUMPDEST SWAP3 SWAP2 POP POP JUMP JUMPDEST PUSH0 DUP2 MLOAD SWAP1 POP SWAP2 SWAP1 POP JUMP JUMPDEST PUSH0 DUP3 DUP3 MSTORE PUSH1 0x20 DUP3 ADD SWAP1 POP SWAP3 SWAP2 POP POP JUMP JUMPDEST DUP3 DUP2 DUP4 MCOPY PUSH0 DUP4 DUP4 ADD MSTORE POP POP POP JUMP JUMPDEST PUSH0 PUSH2 0xE16 DUP3 PUSH2 0xDE4 JUMP JUMPDEST PUSH2 0xE20 DUP2 DUP6 PUSH2 0xDEE JUMP JUMPDEST SWAP4 POP PUSH2 0xE30 DUP2 DUP6 PUSH1 0x20 DUP7 ADD PUSH2 0xDFE JUMP JUMPDEST PUSH2 0xE39 DUP2 PUSH2 0xC41 JUMP JUMPDEST DUP5 ADD SWAP2 POP POP SWAP3 SWAP2 POP POP JUMP JUMPDEST PUSH0 PUSH1 0x80 DUP3 ADD SWAP1 POP DUP2 DUP2 SUB PUSH0 DUP4 ADD MSTORE PUSH2 0xE5C DUP2 DUP8 PUSH2 0xE0C JUMP JUMPDEST SWAP1 POP DUP2 DUP2 SUB PUSH1 0x20 DUP4 ADD MSTORE PUSH2 0xE70 DUP2 DUP7 PUSH2 0xE0C JUMP JUMPDEST SWAP1 POP DUP2 DUP2 SUB PUSH1 0x40 DUP4 ADD MSTORE PUSH2 0xE84 DUP2 DUP6 PUSH2 0xE0C JUMP JUMPDEST SWAP1 POP DUP2 DUP2 SUB PUSH1 0x60 DUP4 ADD MSTORE PUSH2 0xE98 DUP2 DUP5 PUSH2 0xE0C JUMP JUMPDEST SWAP1 POP SWAP6 SWAP5 POP POP POP POP POP JUMP JUMPDEST PUSH32 0x4F6E6C7920746865206F776E65722063616E2063616C6C20746869732066756E PUSH0 DUP3 ADD MSTORE PUSH32 0x6374696F6E000000000000000000000000000000000000000000000000000000 PUSH1 0x20 DUP3 ADD MSTORE POP JUMP JUMPDEST PUSH0 PUSH2 0xEFD PUSH1 0x25 DUP4 PUSH2 0xDEE JUMP JUMPDEST SWAP2 POP PUSH2 0xF08 DUP3 PUSH2 0xEA3 JUMP JUMPDEST PUSH1 0x40 DUP3 ADD SWAP1 POP SWAP2 SWAP1 POP JUMP JUMPDEST PUSH0 PUSH1 0x20 DUP3 ADD SWAP1 POP DUP2 DUP2 SUB PUSH0 DUP4 ADD MSTORE PUSH2 0xF2A DUP2 PUSH2 0xEF1 JUMP JUMPDEST SWAP1 POP SWAP2 SWAP1 POP JUMP JUMPDEST PUSH32 0x4E487B7100000000000000000000000000000000000000000000000000000000 PUSH0 MSTORE PUSH1 0x22 PUSH1 0x4 MSTORE PUSH1 0x24 PUSH0 REVERT JUMPDEST PUSH0 PUSH1 0x2 DUP3 DIV SWAP1 POP PUSH1 0x1 DUP3 AND DUP1 PUSH2 0xF75 JUMPI PUSH1 0x7F DUP3 AND SWAP2 POP JUMPDEST PUSH1 0x20 DUP3 LT DUP2 SUB PUSH2 0xF88 JUMPI PUSH2 0xF87 PUSH2 0xF31 JUMP JUMPDEST JUMPDEST POP SWAP2 SWAP1 POP JUMP JUMPDEST PUSH0 DUP2 SWAP1 POP DUP2 PUSH0 MSTORE PUSH1 0x20 PUSH0 KECCAK256 SWAP1 POP SWAP2 SWAP1 POP JUMP JUMPDEST PUSH0 PUSH1 0x20 PUSH1 0x1F DUP4 ADD DIV SWAP1 POP SWAP2 SWAP1 POP JUMP JUMPDEST PUSH0 DUP3 DUP3 SHL SWAP1 POP SWAP3 SWAP2 POP POP JUMP JUMPDEST PUSH0 PUSH1 0x8 DUP4 MUL PUSH2 0xFEA PUSH32 0xFFFFFFFFFFFFFFFFFFFFFFFFFFFFFFFFFFFFFFFFFFFFFFFFFFFFFFFFFFFFFFFF DUP3 PUSH2 0xFAF JUMP JUMPDEST PUSH2 0xFF4 DUP7 DUP4 PUSH2 0xFAF JUMP JUMPDEST SWAP6 POP DUP1 NOT DUP5 AND SWAP4 POP DUP1 DUP7 AND DUP5 OR SWAP3 POP POP POP SWAP4 SWAP3 POP POP POP JUMP JUMPDEST PUSH0 DUP2 SWAP1 POP SWAP2 SWAP1 POP JUMP JUMPDEST PUSH0 DUP2 SWAP1 POP SWAP2 SWAP1 POP JUMP JUMPDEST PUSH0 PUSH2 0x1038 PUSH2 0x1033 PUSH2 0x102E DUP5 PUSH2 0x100C JUMP JUMPDEST PUSH2 0x1015 JUMP JUMPDEST PUSH2 0x100C JUMP JUMPDEST SWAP1 POP SWAP2 SWAP1 POP JUMP JUMPDEST PUSH0 DUP2 SWAP1 POP SWAP2 SWAP1 POP JUMP JUMPDEST PUSH2 0x1051 DUP4 PUSH2 0x101E JUMP JUMPDEST PUSH2 0x1065 PUSH2 0x105D DUP3 PUSH2 0x103F JUMP JUMPDEST DUP5 DUP5 SLOAD PUSH2 0xFBB JUMP JUMPDEST DUP3 SSTORE POP POP POP POP JUMP JUMPDEST PUSH0 SWAP1 JUMP JUMPDEST PUSH2 0x1079 PUSH2 0x106D JUMP JUMPDEST PUSH2 0x1084 DUP2 DUP5 DUP5 PUSH2 0x1048 JUMP JUMPDEST POP POP POP JUMP JUMPDEST JUMPDEST DUP2 DUP2 LT ISZERO PUSH2 0x10A7 JUMPI PUSH2 0x109C PUSH0 DUP3 PUSH2 0x1071 JUMP JUMPDEST PUSH1 0x1 DUP2 ADD SWAP1 POP PUSH2 0x108A JUMP JUMPDEST POP POP JUMP JUMPDEST PUSH1 0x1F DUP3 GT ISZERO PUSH2 0x10EC JUMPI PUSH2 0x10BD DUP2 PUSH2 0xF8E JUMP JUMPDEST PUSH2 0x10C6 DUP5 PUSH2 0xFA0 JUMP JUMPDEST DUP2 ADD PUSH1 0x20 DUP6 LT ISZERO PUSH2 0x10D5 JUMPI DUP2 SWAP1 POP JUMPDEST PUSH2 0x10E9 PUSH2 0x10E1 DUP6 PUSH2 0xFA0 JUMP JUMPDEST DUP4 ADD DUP3 PUSH2 0x1089 JUMP JUMPDEST POP POP JUMPDEST POP POP POP JUMP JUMPDEST PUSH0 DUP3 DUP3 SHR SWAP1 POP SWAP3 SWAP2 POP POP JUMP JUMPDEST PUSH0 PUSH2 0x110C PUSH0 NOT DUP5 PUSH1 0x8 MUL PUSH2 0x10F1 JUMP JUMPDEST NOT DUP1 DUP4 AND SWAP2 POP POP SWAP3 SWAP2 POP POP JUMP JUMPDEST PUSH0 PUSH2 0x1124 DUP4 DUP4 PUSH2 0x10FD JUMP JUMPDEST SWAP2 POP DUP3 PUSH1 0x2 MUL DUP3 OR SWAP1 POP SWAP3 SWAP2 POP POP JUMP JUMPDEST PUSH2 0x113D DUP3 PUSH2 0xDE4 JUMP JUMPDEST PUSH8 0xFFFFFFFFFFFFFFFF DUP2 GT ISZERO PUSH2 0x1156 JUMPI PUSH2 0x1155 PUSH2 0xC51 JUMP JUMPDEST JUMPDEST PUSH2 0x1160 DUP3 SLOAD PUSH2 0xF5E JUMP JUMPDEST PUSH2 0x116B DUP3 DUP3 DUP6 PUSH2 0x10AB JUMP JUMPDEST PUSH0 PUSH1 0x20 SWAP1 POP PUSH1 0x1F DUP4 GT PUSH1 0x1 DUP2 EQ PUSH2 0x119C JUMPI PUSH0 DUP5 ISZERO PUSH2 0x118A JUMPI DUP3 DUP8 ADD MLOAD SWAP1 POP JUMPDEST PUSH2 0x1194 DUP6 DUP3 PUSH2 0x1119 JUMP JUMPDEST DUP7 SSTORE POP PUSH2 0x11FB JUMP JUMPDEST PUSH1 0x1F NOT DUP5 AND PUSH2 0x11AA DUP7 PUSH2 0xF8E JUMP JUMPDEST PUSH0 JUMPDEST DUP3 DUP2 LT ISZERO PUSH2 0x11D1 JUMPI DUP5 DUP10 ADD MLOAD DUP3 SSTORE PUSH1 0x1 DUP3 ADD SWAP2 POP PUSH1 0x20 DUP6 ADD SWAP5 POP PUSH1 0x20 DUP2 ADD SWAP1 POP PUSH2 0x11AC JUMP JUMPDEST DUP7 DUP4 LT ISZERO PUSH2 0x11EE JUMPI DUP5 DUP10 ADD MLOAD PUSH2 0x11EA PUSH1 0x1F DUP10 AND DUP3 PUSH2 0x10FD JUMP JUMPDEST DUP4 SSTORE POP JUMPDEST PUSH1 0x1 PUSH1 0x2 DUP9 MUL ADD DUP9 SSTORE POP POP POP JUMPDEST POP POP POP POP POP POP JUMP INVALID LOG2 PUSH5 0x6970667358 0x22 SLT KECCAK256 EXTCODECOPY 0xEA 0xC7 EXTCODECOPY 0xC6 BASEFEE DUP6 PUSH28 0xCE08BEFDB5CC719684562F791B2E85F960E326838F018C1264736F6C PUSH4 0x4300081A STOP CALLER "
		},
		"gasEstimates": {
			"creation": {
				"codeDepositCost": "933000",
				"executionCost": "infinite",
				"totalCost": "infinite"
			},
			"external": {
				"expose()": "infinite",
				"getAddress()": "4857",
				"getParent()": "6858",
				"setName(string)": "infinite",
				"setParent(address)": "29059",
				"setPassworde(string)": "infinite",
				"setUrl(string)": "infinite",
				"setUserName(string)": "infinite"
			}
		},
		"methodIdentifiers": {
			"expose()": "ba379e86",
			"getAddress()": "38cc4831",
			"getParent()": "80f76021",
			"setName(string)": "c47f0027",
			"setParent(address)": "1499c592",
			"setPassworde(string)": "df21bf93",
			"setUrl(string)": "252498a2",
			"setUserName(string)": "2b5914fe"
		}
	},
	"abi": [
		{
			"inputs": [
				{
					"internalType": "string",
					"name": "_name",
					"type": "string"
				},
				{
					"internalType": "string",
					"name": "_url",
					"type": "string"
				},
				{
					"internalType": "string",
					"name": "_user_name",
					"type": "string"
				},
				{
					"internalType": "string",
					"name": "_password",
					"type": "string"
				},
				{
					"internalType": "address",
					"name": "_owner",
					"type": "address"
				},
				{
					"internalType": "address",
					"name": "_parent",
					"type": "address"
				}
			],
			"stateMutability": "nonpayable",
			"type": "constructor"
		},
		{
			"inputs": [],
			"name": "expose",
			"outputs": [
				{
					"internalType": "string",
					"name": "",
					"type": "string"
				},
				{
					"internalType": "string",
					"name": "",
					"type": "string"
				},
				{
					"internalType": "string",
					"name": "",
					"type": "string"
				},
				{
					"internalType": "string",
					"name": "",
					"type": "string"
				}
			],
			"stateMutability": "view",
			"type": "function"
		},
		{
			"inputs": [],
			"name": "getAddress",
			"outputs": [
				{
					"internalType": "address",
					"name": "",
					"type": "address"
				}
			],
			"stateMutability": "view",
			"type": "function"
		},
		{
			"inputs": [],
			"name": "getParent",
			"outputs": [
				{
					"internalType": "address",
					"name": "",
					"type": "address"
				}
			],
			"stateMutability": "view",
			"type": "function"
		},
		{
			"inputs": [
				{
					"internalType": "string",
					"name": "_name",
					"type": "string"
				}
			],
			"name": "setName",
			"outputs": [],
			"stateMutability": "nonpayable",
			"type": "function"
		},
		{
			"inputs": [
				{
					"internalType": "address",
					"name": "_parnet",
					"type": "address"
				}
			],
			"name": "setParent",
			"outputs": [],
			"stateMutability": "nonpayable",
			"type": "function"
		},
		{
			"inputs": [
				{
					"internalType": "string",
					"name": "_password",
					"type": "string"
				}
			],
			"name": "setPassworde",
			"outputs": [],
			"stateMutability": "nonpayable",
			"type": "function"
		},
		{
			"inputs": [
				{
					"internalType": "string",
					"name": "_url",
					"type": "string"
				}
			],
			"name": "setUrl",
			"outputs": [],
			"stateMutability": "nonpayable",
			"type": "function"
		},
		{
			"inputs": [
				{
					"internalType": "string",
					"name": "_user_name",
					"type": "string"
				}
			],
			"name": "setUserName",
			"outputs": [],
			"stateMutability": "nonpayable",
			"type": "function"
		}
	]
}