{
	"data": {
		"bytecode": {
			"linkReferences": {},
			"object": "608060405234801561000f575f80fd5b506040516152a93803806152a983398181016040528101906100319190610150565b815f806101000a81548173ffffffffffffffffffffffffffffffffffffffff021916908373ffffffffffffffffffffffffffffffffffffffff1602179055508060015f6101000a81548173ffffffffffffffffffffffffffffffffffffffff021916908373ffffffffffffffffffffffffffffffffffffffff160217905550505061018e565b5f80fd5b5f73ffffffffffffffffffffffffffffffffffffffff82169050919050565b5f6100e4826100bb565b9050919050565b6100f4816100da565b81146100fe575f80fd5b50565b5f8151905061010f816100eb565b92915050565b5f61011f826100bb565b9050919050565b61012f81610115565b8114610139575f80fd5b50565b5f8151905061014a81610126565b92915050565b5f8060408385031215610166576101656100b7565b5b5f61017385828601610101565b92505060206101848582860161013c565b9150509250929050565b61510e8061019b5f395ff3fe60806040526004361061009f575f3560e01c80636c27b22d116100635780636c27b22d1461016a5780636d980093146101925780639ae6e63e146101ba5780639dbbc8a2146101e25780639e1a00aa1461020a578063afe828a814610226576100a6565b806312065fe0146100a85780632e1a7d4d146100d25780633046e41b146100ee57806338cc483114610116578063410d59cc14610140576100a6565b366100a657005b005b3480156100b3575f80fd5b506100bc61024e565b6040516100c99190611a09565b60405180910390f35b6100ec60048036038101906100e79190611a5d565b61033a565b005b3480156100f9575f80fd5b50610114600480360381019061010f9190611bc4565b61052d565b005b348015610121575f80fd5b5061012a61073d565b6040516101379190611c79565b60405180910390f35b34801561014b575f80fd5b50610154610829565b6040516101619190611d8a565b60405180910390f35b348015610175575f80fd5b50610190600480360381019061018b9190611dd4565b610a3c565b005b34801561019d575f80fd5b506101b860048036038101906101b39190611dd4565b610d49565b005b3480156101c5575f80fd5b506101e060048036038101906101db9190611dd4565b610f82565b005b3480156101ed575f80fd5b5061020860048036038101906102039190611dff565b6111bd565b005b610224600480360381019061021f9190611f21565b6113d7565b005b348015610231575f80fd5b5061024c60048036038101906102479190611dd4565b611619565b005b5f805f9054906101000a900473ffffffffffffffffffffffffffffffffffffffff1673ffffffffffffffffffffffffffffffffffffffff163373ffffffffffffffffffffffffffffffffffffffff1614806102f5575060015f9054906101000a900473ffffffffffffffffffffffffffffffffffffffff1673ffffffffffffffffffffffffffffffffffffffff163373ffffffffffffffffffffffffffffffffffffffff16145b610334576040517f08c379a000000000000000000000000000000000000000000000000000000000815260040161032b90611fdf565b60405180910390fd5b47905090565b5f8054906101000a900473ffffffffffffffffffffffffffffffffffffffff1673ffffffffffffffffffffffffffffffffffffffff163373ffffffffffffffffffffffffffffffffffffffff1614806103df575060015f9054906101000a900473ffffffffffffffffffffffffffffffffffffffff1673ffffffffffffffffffffffffffffffffffffffff163373ffffffffffffffffffffffffffffffffffffffff16145b61041e576040517f08c379a000000000000000000000000000000000000000000000000000000000815260040161041590611fdf565b60405180910390fd5b80471015610461576040517f08c379a000000000000000000000000000000000000000000000000000000000815260040161045890612047565b60405180910390fd5b5f805f9054906101000a900473ffffffffffffffffffffffffffffffffffffffff1673ffffffffffffffffffffffffffffffffffffffff16826040516104a690612092565b5f6040518083038185875af1925050503d805f81146104e0576040519150601f19603f3d011682016040523d82523d5f602084013e6104e5565b606091505b5050905080610529576040517f08c379a0000000000000000000000000000000000000000000000000000000008152600401610520906120f0565b60405180910390fd5b5050565b5f8054906101000a900473ffffffffffffffffffffffffffffffffffffffff1673ffffffffffffffffffffffffffffffffffffffff163373ffffffffffffffffffffffffffffffffffffffff1614806105d2575060015f9054906101000a900473ffffffffffffffffffffffffffffffffffffffff1673ffffffffffffffffffffffffffffffffffffffff163373ffffffffffffffffffffffffffffffffffffffff16145b610611576040517f08c379a000000000000000000000000000000000000000000000000000000000815260040161060890611fdf565b60405180910390fd5b5f82825f8054906101000a900473ffffffffffffffffffffffffffffffffffffffff1630604051610641906119bd565b61064e94939291906121b9565b604051809103905ff080158015610667573d5f803e3d5ffd5b50905060025f018173ffffffffffffffffffffffffffffffffffffffff166338cc48316040518163ffffffff1660e01b8152600401602060405180830381865afa1580156106b7573d5f803e3d5ffd5b505050506040513d601f19601f820116820180604052508101906106db919061221e565b908060018154018082558091505060019003905f5260205f20015f9091909190916101000a81548173ffffffffffffffffffffffffffffffffffffffff021916908373ffffffffffffffffffffffffffffffffffffffff160217905550505050565b5f805f9054906101000a900473ffffffffffffffffffffffffffffffffffffffff1673ffffffffffffffffffffffffffffffffffffffff163373ffffffffffffffffffffffffffffffffffffffff1614806107e4575060015f9054906101000a900473ffffffffffffffffffffffffffffffffffffffff1673ffffffffffffffffffffffffffffffffffffffff163373ffffffffffffffffffffffffffffffffffffffff16145b610823576040517f08c379a000000000000000000000000000000000000000000000000000000000815260040161081a90611fdf565b60405180910390fd5b30905090565b6108316119ca565b5f8054906101000a900473ffffffffffffffffffffffffffffffffffffffff1673ffffffffffffffffffffffffffffffffffffffff163373ffffffffffffffffffffffffffffffffffffffff1614806108d6575060015f9054906101000a900473ffffffffffffffffffffffffffffffffffffffff1673ffffffffffffffffffffffffffffffffffffffff163373ffffffffffffffffffffffffffffffffffffffff16145b610915576040517f08c379a000000000000000000000000000000000000000000000000000000000815260040161090c90611fdf565b60405180910390fd5b60026040518060400160405290815f82018054806020026020016040519081016040528092919081815260200182805480156109a357602002820191905f5260205f20905b815f9054906101000a900473ffffffffffffffffffffffffffffffffffffffff1673ffffffffffffffffffffffffffffffffffffffff168152602001906001019080831161095a575b5050505050815260200160018201805480602002602001604051908101604052809291908181526020018280548015610a2e57602002820191905f5260205f20905b815f9054906101000a900473ffffffffffffffffffffffffffffffffffffffff1673ffffffffffffffffffffffffffffffffffffffff16815260200190600101908083116109e5575b505050505081525050905090565b5f8054906101000a900473ffffffffffffffffffffffffffffffffffffffff1673ffffffffffffffffffffffffffffffffffffffff163373ffffffffffffffffffffffffffffffffffffffff161480610ae1575060015f9054906101000a900473ffffffffffffffffffffffffffffffffffffffff1673ffffffffffffffffffffffffffffffffffffffff163373ffffffffffffffffffffffffffffffffffffffff16145b610b20576040517f08c379a0000000000000000000000000000000000000000000000000000000008152600401610b1790611fdf565b60405180910390fd5b5f610bb1826002600101805480602002602001604051908101604052809291908181526020018280548015610ba757602002820191905f5260205f20905b815f9054906101000a900473ffffffffffffffffffffffffffffffffffffffff1673ffffffffffffffffffffffffffffffffffffffff1681526020019060010190808311610b5e575b5050505050611920565b90507fffffffffffffffffffffffffffffffffffffffffffffffffffffffffffffffff81138015610be9575060026001018054905081125b610c28576040517f08c379a0000000000000000000000000000000000000000000000000000000008152600401610c1f90612293565b60405180910390fd5b5f8190505b6001600260010180549050610c4291906122de565b811015610cfd576002600101600182610c5b9190612311565b81548110610c6c57610c6b612344565b5b905f5260205f20015f9054906101000a900473ffffffffffffffffffffffffffffffffffffffff1660026001018281548110610cab57610caa612344565b5b905f5260205f20015f6101000a81548173ffffffffffffffffffffffffffffffffffffffff021916908373ffffffffffffffffffffffffffffffffffffffff1602179055508080600101915050610c2d565b506002600101805480610d1357610d12612371565b5b600190038181905f5260205f20015f6101000a81549073ffffffffffffffffffffffffffffffffffffffff021916905590555050565b5f8054906101000a900473ffffffffffffffffffffffffffffffffffffffff1673ffffffffffffffffffffffffffffffffffffffff163373ffffffffffffffffffffffffffffffffffffffff161480610dee575060015f9054906101000a900473ffffffffffffffffffffffffffffffffffffffff1673ffffffffffffffffffffffffffffffffffffffff163373ffffffffffffffffffffffffffffffffffffffff16145b610e2d576040517f08c379a0000000000000000000000000000000000000000000000000000000008152600401610e2490611fdf565b60405180910390fd5b7fffffffffffffffffffffffffffffffffffffffffffffffffffffffffffffffff610edd8260025f01805480602002602001604051908101604052809291908181526020018280548015610ed357602002820191905f5260205f20905b815f9054906101000a900473ffffffffffffffffffffffffffffffffffffffff1673ffffffffffffffffffffffffffffffffffffffff1681526020019060010190808311610e8a575b5050505050611920565b13610f1d576040517f08c379a0000000000000000000000000000000000000000000000000000000008152600401610f14906123e8565b60405180910390fd5b60025f0181908060018154018082558091505060019003905f5260205f20015f9091909190916101000a81548173ffffffffffffffffffffffffffffffffffffffff021916908373ffffffffffffffffffffffffffffffffffffffff16021790555050565b5f8054906101000a900473ffffffffffffffffffffffffffffffffffffffff1673ffffffffffffffffffffffffffffffffffffffff163373ffffffffffffffffffffffffffffffffffffffff161480611027575060015f9054906101000a900473ffffffffffffffffffffffffffffffffffffffff1673ffffffffffffffffffffffffffffffffffffffff163373ffffffffffffffffffffffffffffffffffffffff16145b611066576040517f08c379a000000000000000000000000000000000000000000000000000000000815260040161105d90611fdf565b60405180910390fd5b7fffffffffffffffffffffffffffffffffffffffffffffffffffffffffffffffff61111782600260010180548060200260200160405190810160405280929190818152602001828054801561110d57602002820191905f5260205f20905b815f9054906101000a900473ffffffffffffffffffffffffffffffffffffffff1673ffffffffffffffffffffffffffffffffffffffff16815260200190600101908083116110c4575b5050505050611920565b13611157576040517f08c379a000000000000000000000000000000000000000000000000000000000815260040161114e906123e8565b60405180910390fd5b600260010181908060018154018082558091505060019003905f5260205f20015f9091909190916101000a81548173ffffffffffffffffffffffffffffffffffffffff021916908373ffffffffffffffffffffffffffffffffffffffff16021790555050565b5f8054906101000a900473ffffffffffffffffffffffffffffffffffffffff1673ffffffffffffffffffffffffffffffffffffffff163373ffffffffffffffffffffffffffffffffffffffff161480611262575060015f9054906101000a900473ffffffffffffffffffffffffffffffffffffffff1673ffffffffffffffffffffffffffffffffffffffff163373ffffffffffffffffffffffffffffffffffffffff16145b6112a1576040517f08c379a000000000000000000000000000000000000000000000000000000000815260040161129890611fdf565b60405180910390fd5b5f85858585855f8054906101000a900473ffffffffffffffffffffffffffffffffffffffff16306040516112d4906119e4565b6112e49796959493929190612406565b604051809103905ff0801580156112fd573d5f803e3d5ffd5b50905060026001018173ffffffffffffffffffffffffffffffffffffffff166338cc48316040518163ffffffff1660e01b8152600401602060405180830381865afa15801561134e573d5f803e3d5ffd5b505050506040513d601f19601f82011682018060405250810190611372919061221e565b908060018154018082558091505060019003905f5260205f20015f9091909190916101000a81548173ffffffffffffffffffffffffffffffffffffffff021916908373ffffffffffffffffffffffffffffffffffffffff160217905550505050505050565b5f8054906101000a900473ffffffffffffffffffffffffffffffffffffffff1673ffffffffffffffffffffffffffffffffffffffff163373ffffffffffffffffffffffffffffffffffffffff16148061147c575060015f9054906101000a900473ffffffffffffffffffffffffffffffffffffffff1673ffffffffffffffffffffffffffffffffffffffff163373ffffffffffffffffffffffffffffffffffffffff16145b6114bb576040517f08c379a00000000000000000000000000000000000000000000000000000000081526004016114b290611fdf565b60405180910390fd5b5f73ffffffffffffffffffffffffffffffffffffffff168273ffffffffffffffffffffffffffffffffffffffff1603611529576040517f08c379a0000000000000000000000000000000000000000000000000000000008152600401611520906124d9565b60405180910390fd5b8047101561156c576040517f08c379a000000000000000000000000000000000000000000000000000000000815260040161156390612047565b60405180910390fd5b5f8273ffffffffffffffffffffffffffffffffffffffff168260405161159190612092565b5f6040518083038185875af1925050503d805f81146115cb576040519150601f19603f3d011682016040523d82523d5f602084013e6115d0565b606091505b5050905080611614576040517f08c379a000000000000000000000000000000000000000000000000000000000815260040161160b906120f0565b60405180910390fd5b505050565b5f8054906101000a900473ffffffffffffffffffffffffffffffffffffffff1673ffffffffffffffffffffffffffffffffffffffff163373ffffffffffffffffffffffffffffffffffffffff1614806116be575060015f9054906101000a900473ffffffffffffffffffffffffffffffffffffffff1673ffffffffffffffffffffffffffffffffffffffff163373ffffffffffffffffffffffffffffffffffffffff16145b6116fd576040517f08c379a00000000000000000000000000000000000000000000000000000000081526004016116f490611fdf565b60405180910390fd5b5f61178d8260025f0180548060200260200160405190810160405280929190818152602001828054801561178357602002820191905f5260205f20905b815f9054906101000a900473ffffffffffffffffffffffffffffffffffffffff1673ffffffffffffffffffffffffffffffffffffffff168152602001906001019080831161173a575b5050505050611920565b90507fffffffffffffffffffffffffffffffffffffffffffffffffffffffffffffffff811380156117c4575060025f018054905081125b611803576040517f08c379a00000000000000000000000000000000000000000000000000000000081526004016117fa90612541565b60405180910390fd5b5f8190505b600160025f018054905061181c91906122de565b8110156118d55760025f016001826118349190612311565b8154811061184557611844612344565b5b905f5260205f20015f9054906101000a900473ffffffffffffffffffffffffffffffffffffffff1660025f01828154811061188357611882612344565b5b905f5260205f20015f6101000a81548173ffffffffffffffffffffffffffffffffffffffff021916908373ffffffffffffffffffffffffffffffffffffffff1602179055508080600101915050611808565b5060025f018054806118ea576118e9612371565b5b600190038181905f5260205f20015f6101000a81549073ffffffffffffffffffffffffffffffffffffffff021916905590555050565b5f805f90505b8251811015611992578373ffffffffffffffffffffffffffffffffffffffff1683828151811061195957611958612344565b5b602002602001015173ffffffffffffffffffffffffffffffffffffffff160361198557809150506119b7565b8080600101915050611926565b507fffffffffffffffffffffffffffffffffffffffffffffffffffffffffffffffff90505b92915050565b6114a18061256083390190565b604051806040016040528060608152602001606081525090565b6116d880613a0183390190565b5f819050919050565b611a03816119f1565b82525050565b5f602082019050611a1c5f8301846119fa565b92915050565b5f604051905090565b5f80fd5b5f80fd5b611a3c816119f1565b8114611a46575f80fd5b50565b5f81359050611a5781611a33565b92915050565b5f60208284031215611a7257611a71611a2b565b5b5f611a7f84828501611a49565b91505092915050565b5f80fd5b5f80fd5b5f601f19601f8301169050919050565b7f4e487b71000000000000000000000000000000000000000000000000000000005f52604160045260245ffd5b611ad682611a90565b810181811067ffffffffffffffff82111715611af557611af4611aa0565b5b80604052505050565b5f611b07611a22565b9050611b138282611acd565b919050565b5f67ffffffffffffffff821115611b3257611b31611aa0565b5b611b3b82611a90565b9050602081019050919050565b828183375f83830152505050565b5f611b68611b6384611b18565b611afe565b905082815260208101848484011115611b8457611b83611a8c565b5b611b8f848285611b48565b509392505050565b5f82601f830112611bab57611baa611a88565b5b8135611bbb848260208601611b56565b91505092915050565b5f8060408385031215611bda57611bd9611a2b565b5b5f83013567ffffffffffffffff811115611bf757611bf6611a2f565b5b611c0385828601611b97565b925050602083013567ffffffffffffffff811115611c2457611c23611a2f565b5b611c3085828601611b97565b9150509250929050565b5f73ffffffffffffffffffffffffffffffffffffffff82169050919050565b5f611c6382611c3a565b9050919050565b611c7381611c59565b82525050565b5f602082019050611c8c5f830184611c6a565b92915050565b5f81519050919050565b5f82825260208201905092915050565b5f819050602082019050919050565b611cc481611c59565b82525050565b5f611cd58383611cbb565b60208301905092915050565b5f602082019050919050565b5f611cf782611c92565b611d018185611c9c565b9350611d0c83611cac565b805f5b83811015611d3c578151611d238882611cca565b9750611d2e83611ce1565b925050600181019050611d0f565b5085935050505092915050565b5f604083015f8301518482035f860152611d638282611ced565b91505060208301518482036020860152611d7d8282611ced565b9150508091505092915050565b5f6020820190508181035f830152611da28184611d49565b905092915050565b611db381611c59565b8114611dbd575f80fd5b50565b5f81359050611dce81611daa565b92915050565b5f60208284031215611de957611de8611a2b565b5b5f611df684828501611dc0565b91505092915050565b5f805f805f60a08688031215611e1857611e17611a2b565b5b5f86013567ffffffffffffffff811115611e3557611e34611a2f565b5b611e4188828901611b97565b955050602086013567ffffffffffffffff811115611e6257611e61611a2f565b5b611e6e88828901611b97565b945050604086013567ffffffffffffffff811115611e8f57611e8e611a2f565b5b611e9b88828901611b97565b935050606086013567ffffffffffffffff811115611ebc57611ebb611a2f565b5b611ec888828901611b97565b9250506080611ed988828901611a49565b9150509295509295909350565b5f611ef082611c3a565b9050919050565b611f0081611ee6565b8114611f0a575f80fd5b50565b5f81359050611f1b81611ef7565b92915050565b5f8060408385031215611f3757611f36611a2b565b5b5f611f4485828601611f0d565b9250506020611f5585828601611a49565b9150509250929050565b5f82825260208201905092915050565b7f4f6e6c7920746865206f776e6572206f7220746865206d616e616765722063615f8201527f6e2063616c6c20746869732066756e6374696f6e000000000000000000000000602082015250565b5f611fc9603483611f5f565b9150611fd482611f6f565b604082019050919050565b5f6020820190508181035f830152611ff681611fbd565b9050919050565b7f496e73756666696369656e742066756e647300000000000000000000000000005f82015250565b5f612031601283611f5f565b915061203c82611ffd565b602082019050919050565b5f6020820190508181035f83015261205e81612025565b9050919050565b5f81905092915050565b50565b5f61207d5f83612065565b91506120888261206f565b5f82019050919050565b5f61209c82612072565b9150819050919050565b7f4661696c656420746f2073656e642045746865720000000000000000000000005f82015250565b5f6120da601483611f5f565b91506120e5826120a6565b602082019050919050565b5f6020820190508181035f830152612107816120ce565b9050919050565b5f81519050919050565b8281835e5f83830152505050565b5f6121308261210e565b61213a8185611f5f565b935061214a818560208601612118565b61215381611a90565b840191505092915050565b5f819050919050565b5f61218161217c61217784611c3a565b61215e565b611c3a565b9050919050565b5f61219282612167565b9050919050565b5f6121a382612188565b9050919050565b6121b381612199565b82525050565b5f6080820190508181035f8301526121d18187612126565b905081810360208301526121e58186612126565b90506121f460408301856121aa565b6122016060830184611c6a565b95945050505050565b5f8151905061221881611daa565b92915050565b5f6020828403121561223357612232611a2b565b5b5f6122408482850161220a565b91505092915050565b7f56616c7565206e6f7420666f756e6420696e20617272617900000000000000005f82015250565b5f61227d601883611f5f565b915061228882612249565b602082019050919050565b5f6020820190508181035f8301526122aa81612271565b9050919050565b7f4e487b71000000000000000000000000000000000000000000000000000000005f52601160045260245ffd5b5f6122e8826119f1565b91506122f3836119f1565b925082820390508181111561230b5761230a6122b1565b5b92915050565b5f61231b826119f1565b9150612326836119f1565b925082820190508082111561233e5761233d6122b1565b5b92915050565b7f4e487b71000000000000000000000000000000000000000000000000000000005f52603260045260245ffd5b7f4e487b71000000000000000000000000000000000000000000000000000000005f52603160045260245ffd5b7f45786973747300000000000000000000000000000000000000000000000000005f82015250565b5f6123d2600683611f5f565b91506123dd8261239e565b602082019050919050565b5f6020820190508181035f8301526123ff816123c6565b9050919050565b5f60e0820190508181035f83015261241e818a612126565b905081810360208301526124328189612126565b905081810360408301526124468188612126565b9050818103606083015261245a8187612126565b905061246960808301866119fa565b61247660a08301856121aa565b61248360c0830184611c6a565b98975050505050505050565b7f496e76616c6964206164647265737300000000000000000000000000000000005f82015250565b5f6124c3600f83611f5f565b91506124ce8261248f565b602082019050919050565b5f6020820190508181035f8301526124f0816124b7565b9050919050565b7f4974656d206e6f7420666f756e6420696e2061727261790000000000000000005f82015250565b5f61252b601783611f5f565b9150612536826124f7565b602082019050919050565b5f6020820190508181035f8301526125588161251f565b905091905056fe608060405234801561000f575f80fd5b506040516114a13803806114a183398181016040528101906100319190610280565b835f908161003f9190610529565b50826001908161004f9190610529565b508160025f6101000a81548173ffffffffffffffffffffffffffffffffffffffff021916908373ffffffffffffffffffffffffffffffffffffffff1602179055508060035f6101000a81548173ffffffffffffffffffffffffffffffffffffffff021916908373ffffffffffffffffffffffffffffffffffffffff160217905550505050506105f8565b5f604051905090565b5f80fd5b5f80fd5b5f80fd5b5f80fd5b5f601f19601f8301169050919050565b7f4e487b71000000000000000000000000000000000000000000000000000000005f52604160045260245ffd5b610138826100f2565b810181811067ffffffffffffffff8211171561015757610156610102565b5b80604052505050565b5f6101696100d9565b9050610175828261012f565b919050565b5f67ffffffffffffffff82111561019457610193610102565b5b61019d826100f2565b9050602081019050919050565b8281835e5f83830152505050565b5f6101ca6101c58461017a565b610160565b9050828152602081018484840111156101e6576101e56100ee565b5b6101f18482856101aa565b509392505050565b5f82601f83011261020d5761020c6100ea565b5b815161021d8482602086016101b8565b91505092915050565b5f73ffffffffffffffffffffffffffffffffffffffff82169050919050565b5f61024f82610226565b9050919050565b61025f81610245565b8114610269575f80fd5b50565b5f8151905061027a81610256565b92915050565b5f805f8060808587031215610298576102976100e2565b5b5f85015167ffffffffffffffff8111156102b5576102b46100e6565b5b6102c1878288016101f9565b945050602085015167ffffffffffffffff8111156102e2576102e16100e6565b5b6102ee878288016101f9565b93505060406102ff8782880161026c565b92505060606103108782880161026c565b91505092959194509250565b5f81519050919050565b7f4e487b71000000000000000000000000000000000000000000000000000000005f52602260045260245ffd5b5f600282049050600182168061036a57607f821691505b60208210810361037d5761037c610326565b5b50919050565b5f819050815f5260205f209050919050565b5f6020601f8301049050919050565b5f82821b905092915050565b5f600883026103df7fffffffffffffffffffffffffffffffffffffffffffffffffffffffffffffffff826103a4565b6103e986836103a4565b95508019841693508086168417925050509392505050565b5f819050919050565b5f819050919050565b5f61042d61042861042384610401565b61040a565b610401565b9050919050565b5f819050919050565b61044683610413565b61045a61045282610434565b8484546103b0565b825550505050565b5f90565b61046e610462565b61047981848461043d565b505050565b5b8181101561049c576104915f82610466565b60018101905061047f565b5050565b601f8211156104e1576104b281610383565b6104bb84610395565b810160208510156104ca578190505b6104de6104d685610395565b83018261047e565b50505b505050565b5f82821c905092915050565b5f6105015f19846008026104e6565b1980831691505092915050565b5f61051983836104f2565b9150826002028217905092915050565b6105328261031c565b67ffffffffffffffff81111561054b5761054a610102565b5b6105558254610353565b6105608282856104a0565b5f60209050601f831160018114610591575f841561057f578287015190505b610589858261050e565b8655506105f0565b601f19841661059f86610383565b5f5b828110156105c6578489015182556001820191506020850194506020810190506105a1565b868310156105e357848901516105df601f8916826104f2565b8355505b6001600288020188555050505b505050505050565b610e9c806106055f395ff3fe608060405234801561000f575f80fd5b5060043610610060575f3560e01c80631499c5921461006457806338cc4831146100805780635112f02c1461009e57806380f76021146100bd578063c47f0027146100db578063efd8af9f146100f7575b5f80fd5b61007e6004803603810190610079919061089b565b610113565b005b61008861023c565b60405161009591906108d5565b60405180910390f35b6100a6610329565b6040516100b492919061095e565b60405180910390f35b6100c5610531565b6040516100d291906108d5565b60405180910390f35b6100f560048036038101906100f09190610abf565b61063f565b005b610111600480360381019061010c9190610abf565b610737565b005b60025f9054906101000a900473ffffffffffffffffffffffffffffffffffffffff1673ffffffffffffffffffffffffffffffffffffffff163373ffffffffffffffffffffffffffffffffffffffff1614806101ba575060035f9054906101000a900473ffffffffffffffffffffffffffffffffffffffff1673ffffffffffffffffffffffffffffffffffffffff163373ffffffffffffffffffffffffffffffffffffffff16145b6101f9576040517f08c379a00000000000000000000000000000000000000000000000000000000081526004016101f090610b76565b60405180910390fd5b8060035f6101000a81548173ffffffffffffffffffffffffffffffffffffffff021916908373ffffffffffffffffffffffffffffffffffffffff16021790555050565b5f60025f9054906101000a900473ffffffffffffffffffffffffffffffffffffffff1673ffffffffffffffffffffffffffffffffffffffff163373ffffffffffffffffffffffffffffffffffffffff1614806102e4575060035f9054906101000a900473ffffffffffffffffffffffffffffffffffffffff1673ffffffffffffffffffffffffffffffffffffffff163373ffffffffffffffffffffffffffffffffffffffff16145b610323576040517f08c379a000000000000000000000000000000000000000000000000000000000815260040161031a90610b76565b60405180910390fd5b30905090565b60608060025f9054906101000a900473ffffffffffffffffffffffffffffffffffffffff1673ffffffffffffffffffffffffffffffffffffffff163373ffffffffffffffffffffffffffffffffffffffff1614806103d3575060035f9054906101000a900473ffffffffffffffffffffffffffffffffffffffff1673ffffffffffffffffffffffffffffffffffffffff163373ffffffffffffffffffffffffffffffffffffffff16145b610412576040517f08c379a000000000000000000000000000000000000000000000000000000000815260040161040990610b76565b60405180910390fd5b5f600181805461042190610bc1565b80601f016020809104026020016040519081016040528092919081815260200182805461044d90610bc1565b80156104985780601f1061046f57610100808354040283529160200191610498565b820191905f5260205f20905b81548152906001019060200180831161047b57829003601f168201915b505050505091508080546104ab90610bc1565b80601f01602080910402602001604051908101604052809291908181526020018280546104d790610bc1565b80156105225780601f106104f957610100808354040283529160200191610522565b820191905f5260205f20905b81548152906001019060200180831161050557829003601f168201915b50505050509050915091509091565b5f60025f9054906101000a900473ffffffffffffffffffffffffffffffffffffffff1673ffffffffffffffffffffffffffffffffffffffff163373ffffffffffffffffffffffffffffffffffffffff1614806105d9575060035f9054906101000a900473ffffffffffffffffffffffffffffffffffffffff1673ffffffffffffffffffffffffffffffffffffffff163373ffffffffffffffffffffffffffffffffffffffff16145b610618576040517f08c379a000000000000000000000000000000000000000000000000000000000815260040161060f90610b76565b60405180910390fd5b60035f9054906101000a900473ffffffffffffffffffffffffffffffffffffffff16905090565b60025f9054906101000a900473ffffffffffffffffffffffffffffffffffffffff1673ffffffffffffffffffffffffffffffffffffffff163373ffffffffffffffffffffffffffffffffffffffff1614806106e6575060035f9054906101000a900473ffffffffffffffffffffffffffffffffffffffff1673ffffffffffffffffffffffffffffffffffffffff163373ffffffffffffffffffffffffffffffffffffffff16145b610725576040517f08c379a000000000000000000000000000000000000000000000000000000000815260040161071c90610b76565b60405180910390fd5b805f90816107339190610d97565b5050565b60025f9054906101000a900473ffffffffffffffffffffffffffffffffffffffff1673ffffffffffffffffffffffffffffffffffffffff163373ffffffffffffffffffffffffffffffffffffffff1614806107de575060035f9054906101000a900473ffffffffffffffffffffffffffffffffffffffff1673ffffffffffffffffffffffffffffffffffffffff163373ffffffffffffffffffffffffffffffffffffffff16145b61081d576040517f08c379a000000000000000000000000000000000000000000000000000000000815260040161081490610b76565b60405180910390fd5b806001908161082c9190610d97565b5050565b5f604051905090565b5f80fd5b5f80fd5b5f73ffffffffffffffffffffffffffffffffffffffff82169050919050565b5f61086a82610841565b9050919050565b61087a81610860565b8114610884575f80fd5b50565b5f8135905061089581610871565b92915050565b5f602082840312156108b0576108af610839565b5b5f6108bd84828501610887565b91505092915050565b6108cf81610860565b82525050565b5f6020820190506108e85f8301846108c6565b92915050565b5f81519050919050565b5f82825260208201905092915050565b8281835e5f83830152505050565b5f601f19601f8301169050919050565b5f610930826108ee565b61093a81856108f8565b935061094a818560208601610908565b61095381610916565b840191505092915050565b5f6040820190508181035f8301526109768185610926565b9050818103602083015261098a8184610926565b90509392505050565b5f80fd5b5f80fd5b7f4e487b71000000000000000000000000000000000000000000000000000000005f52604160045260245ffd5b6109d182610916565b810181811067ffffffffffffffff821117156109f0576109ef61099b565b5b80604052505050565b5f610a02610830565b9050610a0e82826109c8565b919050565b5f67ffffffffffffffff821115610a2d57610a2c61099b565b5b610a3682610916565b9050602081019050919050565b828183375f83830152505050565b5f610a63610a5e84610a13565b6109f9565b905082815260208101848484011115610a7f57610a7e610997565b5b610a8a848285610a43565b509392505050565b5f82601f830112610aa657610aa5610993565b5b8135610ab6848260208601610a51565b91505092915050565b5f60208284031215610ad457610ad3610839565b5b5f82013567ffffffffffffffff811115610af157610af061083d565b5b610afd84828501610a92565b91505092915050565b7f4f6e6c7920746865206f776e65722063616e2063616c6c20746869732066756e5f8201527f6374696f6e000000000000000000000000000000000000000000000000000000602082015250565b5f610b606025836108f8565b9150610b6b82610b06565b604082019050919050565b5f6020820190508181035f830152610b8d81610b54565b9050919050565b7f4e487b71000000000000000000000000000000000000000000000000000000005f52602260045260245ffd5b5f6002820490506001821680610bd857607f821691505b602082108103610beb57610bea610b94565b5b50919050565b5f819050815f5260205f209050919050565b5f6020601f8301049050919050565b5f82821b905092915050565b5f60088302610c4d7fffffffffffffffffffffffffffffffffffffffffffffffffffffffffffffffff82610c12565b610c578683610c12565b95508019841693508086168417925050509392505050565b5f819050919050565b5f819050919050565b5f610c9b610c96610c9184610c6f565b610c78565b610c6f565b9050919050565b5f819050919050565b610cb483610c81565b610cc8610cc082610ca2565b848454610c1e565b825550505050565b5f90565b610cdc610cd0565b610ce7818484610cab565b505050565b5b81811015610d0a57610cff5f82610cd4565b600181019050610ced565b5050565b601f821115610d4f57610d2081610bf1565b610d2984610c03565b81016020851015610d38578190505b610d4c610d4485610c03565b830182610cec565b50505b505050565b5f82821c905092915050565b5f610d6f5f1984600802610d54565b1980831691505092915050565b5f610d878383610d60565b9150826002028217905092915050565b610da0826108ee565b67ffffffffffffffff811115610db957610db861099b565b5b610dc38254610bc1565b610dce828285610d0e565b5f60209050601f831160018114610dff575f8415610ded578287015190505b610df78582610d7c565b865550610e5e565b601f198416610e0d86610bf1565b5f5b82811015610e3457848901518255600182019150602085019450602081019050610e0f565b86831015610e515784890151610e4d601f891682610d60565b8355505b6001600288020188555050505b50505050505056fea2646970667358221220c6a79ed9ea2858f1357e30b2a167186a7b796db79c779f87a742badb11c5639264736f6c634300081a0033608060405234801561000f575f80fd5b506040516116d83803806116d8833981810160405281019061003191906102dd565b865f908161003f91906105ee565b50856001908161004f91906105ee565b50846002908161005f91906105ee565b50836003908161006f91906105ee565b50826004819055508160055f6101000a81548173ffffffffffffffffffffffffffffffffffffffff021916908373ffffffffffffffffffffffffffffffffffffffff1602179055508060065f6101000a81548173ffffffffffffffffffffffffffffffffffffffff021916908373ffffffffffffffffffffffffffffffffffffffff160217905550505050505050506106bd565b5f604051905090565b5f80fd5b5f80fd5b5f80fd5b5f80fd5b5f601f19601f8301169050919050565b7f4e487b71000000000000000000000000000000000000000000000000000000005f52604160045260245ffd5b6101628261011c565b810181811067ffffffffffffffff821117156101815761018061012c565b5b80604052505050565b5f610193610103565b905061019f8282610159565b919050565b5f67ffffffffffffffff8211156101be576101bd61012c565b5b6101c78261011c565b9050602081019050919050565b8281835e5f83830152505050565b5f6101f46101ef846101a4565b61018a565b9050828152602081018484840111156102105761020f610118565b5b61021b8482856101d4565b509392505050565b5f82601f83011261023757610236610114565b5b81516102478482602086016101e2565b91505092915050565b5f819050919050565b61026281610250565b811461026c575f80fd5b50565b5f8151905061027d81610259565b92915050565b5f73ffffffffffffffffffffffffffffffffffffffff82169050919050565b5f6102ac82610283565b9050919050565b6102bc816102a2565b81146102c6575f80fd5b50565b5f815190506102d7816102b3565b92915050565b5f805f805f805f60e0888a0312156102f8576102f761010c565b5b5f88015167ffffffffffffffff81111561031557610314610110565b5b6103218a828b01610223565b975050602088015167ffffffffffffffff81111561034257610341610110565b5b61034e8a828b01610223565b965050604088015167ffffffffffffffff81111561036f5761036e610110565b5b61037b8a828b01610223565b955050606088015167ffffffffffffffff81111561039c5761039b610110565b5b6103a88a828b01610223565b94505060806103b98a828b0161026f565b93505060a06103ca8a828b016102c9565b92505060c06103db8a828b016102c9565b91505092959891949750929550565b5f81519050919050565b7f4e487b71000000000000000000000000000000000000000000000000000000005f52602260045260245ffd5b5f600282049050600182168061043857607f821691505b60208210810361044b5761044a6103f4565b5b50919050565b5f819050815f5260205f209050919050565b5f6020601f8301049050919050565b5f82821b905092915050565b5f600883026104ad7fffffffffffffffffffffffffffffffffffffffffffffffffffffffffffffffff82610472565b6104b78683610472565b95508019841693508086168417925050509392505050565b5f819050919050565b5f6104f26104ed6104e884610250565b6104cf565b610250565b9050919050565b5f819050919050565b61050b836104d8565b61051f610517826104f9565b84845461047e565b825550505050565b5f90565b610533610527565b61053e818484610502565b505050565b5b81811015610561576105565f8261052b565b600181019050610544565b5050565b601f8211156105a65761057781610451565b61058084610463565b8101602085101561058f578190505b6105a361059b85610463565b830182610543565b50505b505050565b5f82821c905092915050565b5f6105c65f19846008026105ab565b1980831691505092915050565b5f6105de83836105b7565b9150826002028217905092915050565b6105f7826103ea565b67ffffffffffffffff8111156106105761060f61012c565b5b61061a8254610421565b610625828285610565565b5f60209050601f831160018114610656575f8415610644578287015190505b61064e85826105d3565b8655506106b5565b601f19841661066486610451565b5f5b8281101561068b57848901518255600182019150602085019450602081019050610666565b868310156106a857848901516106a4601f8916826105b7565b8355505b6001600288020188555050505b505050505050565b61100e806106ca5f395ff3fe608060405234801561000f575f80fd5b5060043610610060575f3560e01c80631499c5921461006457806338cc4831146100805780635112f02c1461009e57806380f76021146100c0578063c47f0027146100de578063efd8af9f146100fa575b5f80fd5b61007e600480360381019061007991906109c6565b610116565b005b61008861023f565b6040516100959190610a00565b60405180910390f35b6100a661032c565b6040516100b7959493929190610aa1565b60405180910390f35b6100c861065c565b6040516100d59190610a00565b60405180910390f35b6100f860048036038101906100f39190610c3a565b61076a565b005b610114600480360381019061010f9190610c3a565b610862565b005b60055f9054906101000a900473ffffffffffffffffffffffffffffffffffffffff1673ffffffffffffffffffffffffffffffffffffffff163373ffffffffffffffffffffffffffffffffffffffff1614806101bd575060065f9054906101000a900473ffffffffffffffffffffffffffffffffffffffff1673ffffffffffffffffffffffffffffffffffffffff163373ffffffffffffffffffffffffffffffffffffffff16145b6101fc576040517f08c379a00000000000000000000000000000000000000000000000000000000081526004016101f390610cf1565b60405180910390fd5b8060065f6101000a81548173ffffffffffffffffffffffffffffffffffffffff021916908373ffffffffffffffffffffffffffffffffffffffff16021790555050565b5f60055f9054906101000a900473ffffffffffffffffffffffffffffffffffffffff1673ffffffffffffffffffffffffffffffffffffffff163373ffffffffffffffffffffffffffffffffffffffff1614806102e7575060065f9054906101000a900473ffffffffffffffffffffffffffffffffffffffff1673ffffffffffffffffffffffffffffffffffffffff163373ffffffffffffffffffffffffffffffffffffffff16145b610326576040517f08c379a000000000000000000000000000000000000000000000000000000000815260040161031d90610cf1565b60405180910390fd5b30905090565b6060806060805f60055f9054906101000a900473ffffffffffffffffffffffffffffffffffffffff1673ffffffffffffffffffffffffffffffffffffffff163373ffffffffffffffffffffffffffffffffffffffff1614806103da575060065f9054906101000a900473ffffffffffffffffffffffffffffffffffffffff1673ffffffffffffffffffffffffffffffffffffffff163373ffffffffffffffffffffffffffffffffffffffff16145b610419576040517f08c379a000000000000000000000000000000000000000000000000000000000815260040161041090610cf1565b60405180910390fd5b5f60016002600360045484805461042f90610d3c565b80601f016020809104026020016040519081016040528092919081815260200182805461045b90610d3c565b80156104a65780601f1061047d576101008083540402835291602001916104a6565b820191905f5260205f20905b81548152906001019060200180831161048957829003601f168201915b505050505094508380546104b990610d3c565b80601f01602080910402602001604051908101604052809291908181526020018280546104e590610d3c565b80156105305780601f1061050757610100808354040283529160200191610530565b820191905f5260205f20905b81548152906001019060200180831161051357829003601f168201915b5050505050935082805461054390610d3c565b80601f016020809104026020016040519081016040528092919081815260200182805461056f90610d3c565b80156105ba5780601f10610591576101008083540402835291602001916105ba565b820191905f5260205f20905b81548152906001019060200180831161059d57829003601f168201915b505050505092508180546105cd90610d3c565b80601f01602080910402602001604051908101604052809291908181526020018280546105f990610d3c565b80156106445780601f1061061b57610100808354040283529160200191610644565b820191905f5260205f20905b81548152906001019060200180831161062757829003601f168201915b50505050509150945094509450945094509091929394565b5f60055f9054906101000a900473ffffffffffffffffffffffffffffffffffffffff1673ffffffffffffffffffffffffffffffffffffffff163373ffffffffffffffffffffffffffffffffffffffff161480610704575060065f9054906101000a900473ffffffffffffffffffffffffffffffffffffffff1673ffffffffffffffffffffffffffffffffffffffff163373ffffffffffffffffffffffffffffffffffffffff16145b610743576040517f08c379a000000000000000000000000000000000000000000000000000000000815260040161073a90610cf1565b60405180910390fd5b60065f9054906101000a900473ffffffffffffffffffffffffffffffffffffffff16905090565b60055f9054906101000a900473ffffffffffffffffffffffffffffffffffffffff1673ffffffffffffffffffffffffffffffffffffffff163373ffffffffffffffffffffffffffffffffffffffff161480610811575060065f9054906101000a900473ffffffffffffffffffffffffffffffffffffffff1673ffffffffffffffffffffffffffffffffffffffff163373ffffffffffffffffffffffffffffffffffffffff16145b610850576040517f08c379a000000000000000000000000000000000000000000000000000000000815260040161084790610cf1565b60405180910390fd5b805f908161085e9190610f09565b5050565b60055f9054906101000a900473ffffffffffffffffffffffffffffffffffffffff1673ffffffffffffffffffffffffffffffffffffffff163373ffffffffffffffffffffffffffffffffffffffff161480610909575060065f9054906101000a900473ffffffffffffffffffffffffffffffffffffffff1673ffffffffffffffffffffffffffffffffffffffff163373ffffffffffffffffffffffffffffffffffffffff16145b610948576040517f08c379a000000000000000000000000000000000000000000000000000000000815260040161093f90610cf1565b60405180910390fd5b80600190816109579190610f09565b5050565b5f604051905090565b5f80fd5b5f80fd5b5f73ffffffffffffffffffffffffffffffffffffffff82169050919050565b5f6109958261096c565b9050919050565b6109a58161098b565b81146109af575f80fd5b50565b5f813590506109c08161099c565b92915050565b5f602082840312156109db576109da610964565b5b5f6109e8848285016109b2565b91505092915050565b6109fa8161098b565b82525050565b5f602082019050610a135f8301846109f1565b92915050565b5f81519050919050565b5f82825260208201905092915050565b8281835e5f83830152505050565b5f601f19601f8301169050919050565b5f610a5b82610a19565b610a658185610a23565b9350610a75818560208601610a33565b610a7e81610a41565b840191505092915050565b5f819050919050565b610a9b81610a89565b82525050565b5f60a0820190508181035f830152610ab98188610a51565b90508181036020830152610acd8187610a51565b90508181036040830152610ae18186610a51565b90508181036060830152610af58185610a51565b9050610b046080830184610a92565b9695505050505050565b5f80fd5b5f80fd5b7f4e487b71000000000000000000000000000000000000000000000000000000005f52604160045260245ffd5b610b4c82610a41565b810181811067ffffffffffffffff82111715610b6b57610b6a610b16565b5b80604052505050565b5f610b7d61095b565b9050610b898282610b43565b919050565b5f67ffffffffffffffff821115610ba857610ba7610b16565b5b610bb182610a41565b9050602081019050919050565b828183375f83830152505050565b5f610bde610bd984610b8e565b610b74565b905082815260208101848484011115610bfa57610bf9610b12565b5b610c05848285610bbe565b509392505050565b5f82601f830112610c2157610c20610b0e565b5b8135610c31848260208601610bcc565b91505092915050565b5f60208284031215610c4f57610c4e610964565b5b5f82013567ffffffffffffffff811115610c6c57610c6b610968565b5b610c7884828501610c0d565b91505092915050565b7f4f6e6c7920746865206f776e65722063616e2063616c6c20746869732066756e5f8201527f6374696f6e000000000000000000000000000000000000000000000000000000602082015250565b5f610cdb602583610a23565b9150610ce682610c81565b604082019050919050565b5f6020820190508181035f830152610d0881610ccf565b9050919050565b7f4e487b71000000000000000000000000000000000000000000000000000000005f52602260045260245ffd5b5f6002820490506001821680610d5357607f821691505b602082108103610d6657610d65610d0f565b5b50919050565b5f819050815f5260205f209050919050565b5f6020601f8301049050919050565b5f82821b905092915050565b5f60088302610dc87fffffffffffffffffffffffffffffffffffffffffffffffffffffffffffffffff82610d8d565b610dd28683610d8d565b95508019841693508086168417925050509392505050565b5f819050919050565b5f610e0d610e08610e0384610a89565b610dea565b610a89565b9050919050565b5f819050919050565b610e2683610df3565b610e3a610e3282610e14565b848454610d99565b825550505050565b5f90565b610e4e610e42565b610e59818484610e1d565b505050565b5b81811015610e7c57610e715f82610e46565b600181019050610e5f565b5050565b601f821115610ec157610e9281610d6c565b610e9b84610d7e565b81016020851015610eaa578190505b610ebe610eb685610d7e565b830182610e5e565b50505b505050565b5f82821c905092915050565b5f610ee15f1984600802610ec6565b1980831691505092915050565b5f610ef98383610ed2565b9150826002028217905092915050565b610f1282610a19565b67ffffffffffffffff811115610f2b57610f2a610b16565b5b610f358254610d3c565b610f40828285610e80565b5f60209050601f831160018114610f71575f8415610f5f578287015190505b610f698582610eee565b865550610fd0565b601f198416610f7f86610d6c565b5f5b82811015610fa657848901518255600182019150602085019450602081019050610f81565b86831015610fc35784890151610fbf601f891682610ed2565b8355505b6001600288020188555050505b50505050505056fea26469706673582212205d40096e61330da2fa743dab4415b6330990bbdc6d663506d814d9735ff24db064736f6c634300081a0033a2646970667358221220887475bb2e69d099777b7e0751623e06f7553b0eff827a4820b4dccabe927bcc64736f6c634300081a0033",
			"opcodes": "PUSH1 0x80 PUSH1 0x40 MSTORE CALLVALUE DUP1 ISZERO PUSH2 0xF JUMPI PUSH0 DUP1 REVERT JUMPDEST POP PUSH1 0x40 MLOAD PUSH2 0x52A9 CODESIZE SUB DUP1 PUSH2 0x52A9 DUP4 CODECOPY DUP2 DUP2 ADD PUSH1 0x40 MSTORE DUP2 ADD SWAP1 PUSH2 0x31 SWAP2 SWAP1 PUSH2 0x150 JUMP JUMPDEST DUP2 PUSH0 DUP1 PUSH2 0x100 EXP DUP2 SLOAD DUP2 PUSH20 0xFFFFFFFFFFFFFFFFFFFFFFFFFFFFFFFFFFFFFFFF MUL NOT AND SWAP1 DUP4 PUSH20 0xFFFFFFFFFFFFFFFFFFFFFFFFFFFFFFFFFFFFFFFF AND MUL OR SWAP1 SSTORE POP DUP1 PUSH1 0x1 PUSH0 PUSH2 0x100 EXP DUP2 SLOAD DUP2 PUSH20 0xFFFFFFFFFFFFFFFFFFFFFFFFFFFFFFFFFFFFFFFF MUL NOT AND SWAP1 DUP4 PUSH20 0xFFFFFFFFFFFFFFFFFFFFFFFFFFFFFFFFFFFFFFFF AND MUL OR SWAP1 SSTORE POP POP POP PUSH2 0x18E JUMP JUMPDEST PUSH0 DUP1 REVERT JUMPDEST PUSH0 PUSH20 0xFFFFFFFFFFFFFFFFFFFFFFFFFFFFFFFFFFFFFFFF DUP3 AND SWAP1 POP SWAP2 SWAP1 POP JUMP JUMPDEST PUSH0 PUSH2 0xE4 DUP3 PUSH2 0xBB JUMP JUMPDEST SWAP1 POP SWAP2 SWAP1 POP JUMP JUMPDEST PUSH2 0xF4 DUP2 PUSH2 0xDA JUMP JUMPDEST DUP2 EQ PUSH2 0xFE JUMPI PUSH0 DUP1 REVERT JUMPDEST POP JUMP JUMPDEST PUSH0 DUP2 MLOAD SWAP1 POP PUSH2 0x10F DUP2 PUSH2 0xEB JUMP JUMPDEST SWAP3 SWAP2 POP POP JUMP JUMPDEST PUSH0 PUSH2 0x11F DUP3 PUSH2 0xBB JUMP JUMPDEST SWAP1 POP SWAP2 SWAP1 POP JUMP JUMPDEST PUSH2 0x12F DUP2 PUSH2 0x115 JUMP JUMPDEST DUP2 EQ PUSH2 0x139 JUMPI PUSH0 DUP1 REVERT JUMPDEST POP JUMP JUMPDEST PUSH0 DUP2 MLOAD SWAP1 POP PUSH2 0x14A DUP2 PUSH2 0x126 JUMP JUMPDEST SWAP3 SWAP2 POP POP JUMP JUMPDEST PUSH0 DUP1 PUSH1 0x40 DUP4 DUP6 SUB SLT ISZERO PUSH2 0x166 JUMPI PUSH2 0x165 PUSH2 0xB7 JUMP JUMPDEST JUMPDEST PUSH0 PUSH2 0x173 DUP6 DUP3 DUP7 ADD PUSH2 0x101 JUMP JUMPDEST SWAP3 POP POP PUSH1 0x20 PUSH2 0x184 DUP6 DUP3 DUP7 ADD PUSH2 0x13C JUMP JUMPDEST SWAP2 POP POP SWAP3 POP SWAP3 SWAP1 POP JUMP JUMPDEST PUSH2 0x510E DUP1 PUSH2 0x19B PUSH0 CODECOPY PUSH0 RETURN INVALID PUSH1 0x80 PUSH1 0x40 MSTORE PUSH1 0x4 CALLDATASIZE LT PUSH2 0x9F JUMPI PUSH0 CALLDATALOAD PUSH1 0xE0 SHR DUP1 PUSH4 0x6C27B22D GT PUSH2 0x63 JUMPI DUP1 PUSH4 0x6C27B22D EQ PUSH2 0x16A JUMPI DUP1 PUSH4 0x6D980093 EQ PUSH2 0x192 JUMPI DUP1 PUSH4 0x9AE6E63E EQ PUSH2 0x1BA JUMPI DUP1 PUSH4 0x9DBBC8A2 EQ PUSH2 0x1E2 JUMPI DUP1 PUSH4 0x9E1A00AA EQ PUSH2 0x20A JUMPI DUP1 PUSH4 0xAFE828A8 EQ PUSH2 0x226 JUMPI PUSH2 0xA6 JUMP JUMPDEST DUP1 PUSH4 0x12065FE0 EQ PUSH2 0xA8 JUMPI DUP1 PUSH4 0x2E1A7D4D EQ PUSH2 0xD2 JUMPI DUP1 PUSH4 0x3046E41B EQ PUSH2 0xEE JUMPI DUP1 PUSH4 0x38CC4831 EQ PUSH2 0x116 JUMPI DUP1 PUSH4 0x410D59CC EQ PUSH2 0x140 JUMPI PUSH2 0xA6 JUMP JUMPDEST CALLDATASIZE PUSH2 0xA6 JUMPI STOP JUMPDEST STOP JUMPDEST CALLVALUE DUP1 ISZERO PUSH2 0xB3 JUMPI PUSH0 DUP1 REVERT JUMPDEST POP PUSH2 0xBC PUSH2 0x24E JUMP JUMPDEST PUSH1 0x40 MLOAD PUSH2 0xC9 SWAP2 SWAP1 PUSH2 0x1A09 JUMP JUMPDEST PUSH1 0x40 MLOAD DUP1 SWAP2 SUB SWAP1 RETURN JUMPDEST PUSH2 0xEC PUSH1 0x4 DUP1 CALLDATASIZE SUB DUP2 ADD SWAP1 PUSH2 0xE7 SWAP2 SWAP1 PUSH2 0x1A5D JUMP JUMPDEST PUSH2 0x33A JUMP JUMPDEST STOP JUMPDEST CALLVALUE DUP1 ISZERO PUSH2 0xF9 JUMPI PUSH0 DUP1 REVERT JUMPDEST POP PUSH2 0x114 PUSH1 0x4 DUP1 CALLDATASIZE SUB DUP2 ADD SWAP1 PUSH2 0x10F SWAP2 SWAP1 PUSH2 0x1BC4 JUMP JUMPDEST PUSH2 0x52D JUMP JUMPDEST STOP JUMPDEST CALLVALUE DUP1 ISZERO PUSH2 0x121 JUMPI PUSH0 DUP1 REVERT JUMPDEST POP PUSH2 0x12A PUSH2 0x73D JUMP JUMPDEST PUSH1 0x40 MLOAD PUSH2 0x137 SWAP2 SWAP1 PUSH2 0x1C79 JUMP JUMPDEST PUSH1 0x40 MLOAD DUP1 SWAP2 SUB SWAP1 RETURN JUMPDEST CALLVALUE DUP1 ISZERO PUSH2 0x14B JUMPI PUSH0 DUP1 REVERT JUMPDEST POP PUSH2 0x154 PUSH2 0x829 JUMP JUMPDEST PUSH1 0x40 MLOAD PUSH2 0x161 SWAP2 SWAP1 PUSH2 0x1D8A JUMP JUMPDEST PUSH1 0x40 MLOAD DUP1 SWAP2 SUB SWAP1 RETURN JUMPDEST CALLVALUE DUP1 ISZERO PUSH2 0x175 JUMPI PUSH0 DUP1 REVERT JUMPDEST POP PUSH2 0x190 PUSH1 0x4 DUP1 CALLDATASIZE SUB DUP2 ADD SWAP1 PUSH2 0x18B SWAP2 SWAP1 PUSH2 0x1DD4 JUMP JUMPDEST PUSH2 0xA3C JUMP JUMPDEST STOP JUMPDEST CALLVALUE DUP1 ISZERO PUSH2 0x19D JUMPI PUSH0 DUP1 REVERT JUMPDEST POP PUSH2 0x1B8 PUSH1 0x4 DUP1 CALLDATASIZE SUB DUP2 ADD SWAP1 PUSH2 0x1B3 SWAP2 SWAP1 PUSH2 0x1DD4 JUMP JUMPDEST PUSH2 0xD49 JUMP JUMPDEST STOP JUMPDEST CALLVALUE DUP1 ISZERO PUSH2 0x1C5 JUMPI PUSH0 DUP1 REVERT JUMPDEST POP PUSH2 0x1E0 PUSH1 0x4 DUP1 CALLDATASIZE SUB DUP2 ADD SWAP1 PUSH2 0x1DB SWAP2 SWAP1 PUSH2 0x1DD4 JUMP JUMPDEST PUSH2 0xF82 JUMP JUMPDEST STOP JUMPDEST CALLVALUE DUP1 ISZERO PUSH2 0x1ED JUMPI PUSH0 DUP1 REVERT JUMPDEST POP PUSH2 0x208 PUSH1 0x4 DUP1 CALLDATASIZE SUB DUP2 ADD SWAP1 PUSH2 0x203 SWAP2 SWAP1 PUSH2 0x1DFF JUMP JUMPDEST PUSH2 0x11BD JUMP JUMPDEST STOP JUMPDEST PUSH2 0x224 PUSH1 0x4 DUP1 CALLDATASIZE SUB DUP2 ADD SWAP1 PUSH2 0x21F SWAP2 SWAP1 PUSH2 0x1F21 JUMP JUMPDEST PUSH2 0x13D7 JUMP JUMPDEST STOP JUMPDEST CALLVALUE DUP1 ISZERO PUSH2 0x231 JUMPI PUSH0 DUP1 REVERT JUMPDEST POP PUSH2 0x24C PUSH1 0x4 DUP1 CALLDATASIZE SUB DUP2 ADD SWAP1 PUSH2 0x247 SWAP2 SWAP1 PUSH2 0x1DD4 JUMP JUMPDEST PUSH2 0x1619 JUMP JUMPDEST STOP JUMPDEST PUSH0 DUP1 PUSH0 SWAP1 SLOAD SWAP1 PUSH2 0x100 EXP SWAP1 DIV PUSH20 0xFFFFFFFFFFFFFFFFFFFFFFFFFFFFFFFFFFFFFFFF AND PUSH20 0xFFFFFFFFFFFFFFFFFFFFFFFFFFFFFFFFFFFFFFFF AND CALLER PUSH20 0xFFFFFFFFFFFFFFFFFFFFFFFFFFFFFFFFFFFFFFFF AND EQ DUP1 PUSH2 0x2F5 JUMPI POP PUSH1 0x1 PUSH0 SWAP1 SLOAD SWAP1 PUSH2 0x100 EXP SWAP1 DIV PUSH20 0xFFFFFFFFFFFFFFFFFFFFFFFFFFFFFFFFFFFFFFFF AND PUSH20 0xFFFFFFFFFFFFFFFFFFFFFFFFFFFFFFFFFFFFFFFF AND CALLER PUSH20 0xFFFFFFFFFFFFFFFFFFFFFFFFFFFFFFFFFFFFFFFF AND EQ JUMPDEST PUSH2 0x334 JUMPI PUSH1 0x40 MLOAD PUSH32 0x8C379A000000000000000000000000000000000000000000000000000000000 DUP2 MSTORE PUSH1 0x4 ADD PUSH2 0x32B SWAP1 PUSH2 0x1FDF JUMP JUMPDEST PUSH1 0x40 MLOAD DUP1 SWAP2 SUB SWAP1 REVERT JUMPDEST SELFBALANCE SWAP1 POP SWAP1 JUMP JUMPDEST PUSH0 DUP1 SLOAD SWAP1 PUSH2 0x100 EXP SWAP1 DIV PUSH20 0xFFFFFFFFFFFFFFFFFFFFFFFFFFFFFFFFFFFFFFFF AND PUSH20 0xFFFFFFFFFFFFFFFFFFFFFFFFFFFFFFFFFFFFFFFF AND CALLER PUSH20 0xFFFFFFFFFFFFFFFFFFFFFFFFFFFFFFFFFFFFFFFF AND EQ DUP1 PUSH2 0x3DF JUMPI POP PUSH1 0x1 PUSH0 SWAP1 SLOAD SWAP1 PUSH2 0x100 EXP SWAP1 DIV PUSH20 0xFFFFFFFFFFFFFFFFFFFFFFFFFFFFFFFFFFFFFFFF AND PUSH20 0xFFFFFFFFFFFFFFFFFFFFFFFFFFFFFFFFFFFFFFFF AND CALLER PUSH20 0xFFFFFFFFFFFFFFFFFFFFFFFFFFFFFFFFFFFFFFFF AND EQ JUMPDEST PUSH2 0x41E JUMPI PUSH1 0x40 MLOAD PUSH32 0x8C379A000000000000000000000000000000000000000000000000000000000 DUP2 MSTORE PUSH1 0x4 ADD PUSH2 0x415 SWAP1 PUSH2 0x1FDF JUMP JUMPDEST PUSH1 0x40 MLOAD DUP1 SWAP2 SUB SWAP1 REVERT JUMPDEST DUP1 SELFBALANCE LT ISZERO PUSH2 0x461 JUMPI PUSH1 0x40 MLOAD PUSH32 0x8C379A000000000000000000000000000000000000000000000000000000000 DUP2 MSTORE PUSH1 0x4 ADD PUSH2 0x458 SWAP1 PUSH2 0x2047 JUMP JUMPDEST PUSH1 0x40 MLOAD DUP1 SWAP2 SUB SWAP1 REVERT JUMPDEST PUSH0 DUP1 PUSH0 SWAP1 SLOAD SWAP1 PUSH2 0x100 EXP SWAP1 DIV PUSH20 0xFFFFFFFFFFFFFFFFFFFFFFFFFFFFFFFFFFFFFFFF AND PUSH20 0xFFFFFFFFFFFFFFFFFFFFFFFFFFFFFFFFFFFFFFFF AND DUP3 PUSH1 0x40 MLOAD PUSH2 0x4A6 SWAP1 PUSH2 0x2092 JUMP JUMPDEST PUSH0 PUSH1 0x40 MLOAD DUP1 DUP4 SUB DUP2 DUP6 DUP8 GAS CALL SWAP3 POP POP POP RETURNDATASIZE DUP1 PUSH0 DUP2 EQ PUSH2 0x4E0 JUMPI PUSH1 0x40 MLOAD SWAP2 POP PUSH1 0x1F NOT PUSH1 0x3F RETURNDATASIZE ADD AND DUP3 ADD PUSH1 0x40 MSTORE RETURNDATASIZE DUP3 MSTORE RETURNDATASIZE PUSH0 PUSH1 0x20 DUP5 ADD RETURNDATACOPY PUSH2 0x4E5 JUMP JUMPDEST PUSH1 0x60 SWAP2 POP JUMPDEST POP POP SWAP1 POP DUP1 PUSH2 0x529 JUMPI PUSH1 0x40 MLOAD PUSH32 0x8C379A000000000000000000000000000000000000000000000000000000000 DUP2 MSTORE PUSH1 0x4 ADD PUSH2 0x520 SWAP1 PUSH2 0x20F0 JUMP JUMPDEST PUSH1 0x40 MLOAD DUP1 SWAP2 SUB SWAP1 REVERT JUMPDEST POP POP JUMP JUMPDEST PUSH0 DUP1 SLOAD SWAP1 PUSH2 0x100 EXP SWAP1 DIV PUSH20 0xFFFFFFFFFFFFFFFFFFFFFFFFFFFFFFFFFFFFFFFF AND PUSH20 0xFFFFFFFFFFFFFFFFFFFFFFFFFFFFFFFFFFFFFFFF AND CALLER PUSH20 0xFFFFFFFFFFFFFFFFFFFFFFFFFFFFFFFFFFFFFFFF AND EQ DUP1 PUSH2 0x5D2 JUMPI POP PUSH1 0x1 PUSH0 SWAP1 SLOAD SWAP1 PUSH2 0x100 EXP SWAP1 DIV PUSH20 0xFFFFFFFFFFFFFFFFFFFFFFFFFFFFFFFFFFFFFFFF AND PUSH20 0xFFFFFFFFFFFFFFFFFFFFFFFFFFFFFFFFFFFFFFFF AND CALLER PUSH20 0xFFFFFFFFFFFFFFFFFFFFFFFFFFFFFFFFFFFFFFFF AND EQ JUMPDEST PUSH2 0x611 JUMPI PUSH1 0x40 MLOAD PUSH32 0x8C379A000000000000000000000000000000000000000000000000000000000 DUP2 MSTORE PUSH1 0x4 ADD PUSH2 0x608 SWAP1 PUSH2 0x1FDF JUMP JUMPDEST PUSH1 0x40 MLOAD DUP1 SWAP2 SUB SWAP1 REVERT JUMPDEST PUSH0 DUP3 DUP3 PUSH0 DUP1 SLOAD SWAP1 PUSH2 0x100 EXP SWAP1 DIV PUSH20 0xFFFFFFFFFFFFFFFFFFFFFFFFFFFFFFFFFFFFFFFF AND ADDRESS PUSH1 0x40 MLOAD PUSH2 0x641 SWAP1 PUSH2 0x19BD JUMP JUMPDEST PUSH2 0x64E SWAP5 SWAP4 SWAP3 SWAP2 SWAP1 PUSH2 0x21B9 JUMP JUMPDEST PUSH1 0x40 MLOAD DUP1 SWAP2 SUB SWAP1 PUSH0 CREATE DUP1 ISZERO DUP1 ISZERO PUSH2 0x667 JUMPI RETURNDATASIZE PUSH0 DUP1 RETURNDATACOPY RETURNDATASIZE PUSH0 REVERT JUMPDEST POP SWAP1 POP PUSH1 0x2 PUSH0 ADD DUP2 PUSH20 0xFFFFFFFFFFFFFFFFFFFFFFFFFFFFFFFFFFFFFFFF AND PUSH4 0x38CC4831 PUSH1 0x40 MLOAD DUP2 PUSH4 0xFFFFFFFF AND PUSH1 0xE0 SHL DUP2 MSTORE PUSH1 0x4 ADD PUSH1 0x20 PUSH1 0x40 MLOAD DUP1 DUP4 SUB DUP2 DUP7 GAS STATICCALL ISZERO DUP1 ISZERO PUSH2 0x6B7 JUMPI RETURNDATASIZE PUSH0 DUP1 RETURNDATACOPY RETURNDATASIZE PUSH0 REVERT JUMPDEST POP POP POP POP PUSH1 0x40 MLOAD RETURNDATASIZE PUSH1 0x1F NOT PUSH1 0x1F DUP3 ADD AND DUP3 ADD DUP1 PUSH1 0x40 MSTORE POP DUP2 ADD SWAP1 PUSH2 0x6DB SWAP2 SWAP1 PUSH2 0x221E JUMP JUMPDEST SWAP1 DUP1 PUSH1 0x1 DUP2 SLOAD ADD DUP1 DUP3 SSTORE DUP1 SWAP2 POP POP PUSH1 0x1 SWAP1 SUB SWAP1 PUSH0 MSTORE PUSH1 0x20 PUSH0 KECCAK256 ADD PUSH0 SWAP1 SWAP2 SWAP1 SWAP2 SWAP1 SWAP2 PUSH2 0x100 EXP DUP2 SLOAD DUP2 PUSH20 0xFFFFFFFFFFFFFFFFFFFFFFFFFFFFFFFFFFFFFFFF MUL NOT AND SWAP1 DUP4 PUSH20 0xFFFFFFFFFFFFFFFFFFFFFFFFFFFFFFFFFFFFFFFF AND MUL OR SWAP1 SSTORE POP POP POP POP JUMP JUMPDEST PUSH0 DUP1 PUSH0 SWAP1 SLOAD SWAP1 PUSH2 0x100 EXP SWAP1 DIV PUSH20 0xFFFFFFFFFFFFFFFFFFFFFFFFFFFFFFFFFFFFFFFF AND PUSH20 0xFFFFFFFFFFFFFFFFFFFFFFFFFFFFFFFFFFFFFFFF AND CALLER PUSH20 0xFFFFFFFFFFFFFFFFFFFFFFFFFFFFFFFFFFFFFFFF AND EQ DUP1 PUSH2 0x7E4 JUMPI POP PUSH1 0x1 PUSH0 SWAP1 SLOAD SWAP1 PUSH2 0x100 EXP SWAP1 DIV PUSH20 0xFFFFFFFFFFFFFFFFFFFFFFFFFFFFFFFFFFFFFFFF AND PUSH20 0xFFFFFFFFFFFFFFFFFFFFFFFFFFFFFFFFFFFFFFFF AND CALLER PUSH20 0xFFFFFFFFFFFFFFFFFFFFFFFFFFFFFFFFFFFFFFFF AND EQ JUMPDEST PUSH2 0x823 JUMPI PUSH1 0x40 MLOAD PUSH32 0x8C379A000000000000000000000000000000000000000000000000000000000 DUP2 MSTORE PUSH1 0x4 ADD PUSH2 0x81A SWAP1 PUSH2 0x1FDF JUMP JUMPDEST PUSH1 0x40 MLOAD DUP1 SWAP2 SUB SWAP1 REVERT JUMPDEST ADDRESS SWAP1 POP SWAP1 JUMP JUMPDEST PUSH2 0x831 PUSH2 0x19CA JUMP JUMPDEST PUSH0 DUP1 SLOAD SWAP1 PUSH2 0x100 EXP SWAP1 DIV PUSH20 0xFFFFFFFFFFFFFFFFFFFFFFFFFFFFFFFFFFFFFFFF AND PUSH20 0xFFFFFFFFFFFFFFFFFFFFFFFFFFFFFFFFFFFFFFFF AND CALLER PUSH20 0xFFFFFFFFFFFFFFFFFFFFFFFFFFFFFFFFFFFFFFFF AND EQ DUP1 PUSH2 0x8D6 JUMPI POP PUSH1 0x1 PUSH0 SWAP1 SLOAD SWAP1 PUSH2 0x100 EXP SWAP1 DIV PUSH20 0xFFFFFFFFFFFFFFFFFFFFFFFFFFFFFFFFFFFFFFFF AND PUSH20 0xFFFFFFFFFFFFFFFFFFFFFFFFFFFFFFFFFFFFFFFF AND CALLER PUSH20 0xFFFFFFFFFFFFFFFFFFFFFFFFFFFFFFFFFFFFFFFF AND EQ JUMPDEST PUSH2 0x915 JUMPI PUSH1 0x40 MLOAD PUSH32 0x8C379A000000000000000000000000000000000000000000000000000000000 DUP2 MSTORE PUSH1 0x4 ADD PUSH2 0x90C SWAP1 PUSH2 0x1FDF JUMP JUMPDEST PUSH1 0x40 MLOAD DUP1 SWAP2 SUB SWAP1 REVERT JUMPDEST PUSH1 0x2 PUSH1 0x40 MLOAD DUP1 PUSH1 0x40 ADD PUSH1 0x40 MSTORE SWAP1 DUP2 PUSH0 DUP3 ADD DUP1 SLOAD DUP1 PUSH1 0x20 MUL PUSH1 0x20 ADD PUSH1 0x40 MLOAD SWAP1 DUP2 ADD PUSH1 0x40 MSTORE DUP1 SWAP3 SWAP2 SWAP1 DUP2 DUP2 MSTORE PUSH1 0x20 ADD DUP3 DUP1 SLOAD DUP1 ISZERO PUSH2 0x9A3 JUMPI PUSH1 0x20 MUL DUP3 ADD SWAP2 SWAP1 PUSH0 MSTORE PUSH1 0x20 PUSH0 KECCAK256 SWAP1 JUMPDEST DUP2 PUSH0 SWAP1 SLOAD SWAP1 PUSH2 0x100 EXP SWAP1 DIV PUSH20 0xFFFFFFFFFFFFFFFFFFFFFFFFFFFFFFFFFFFFFFFF AND PUSH20 0xFFFFFFFFFFFFFFFFFFFFFFFFFFFFFFFFFFFFFFFF AND DUP2 MSTORE PUSH1 0x20 ADD SWAP1 PUSH1 0x1 ADD SWAP1 DUP1 DUP4 GT PUSH2 0x95A JUMPI JUMPDEST POP POP POP POP POP DUP2 MSTORE PUSH1 0x20 ADD PUSH1 0x1 DUP3 ADD DUP1 SLOAD DUP1 PUSH1 0x20 MUL PUSH1 0x20 ADD PUSH1 0x40 MLOAD SWAP1 DUP2 ADD PUSH1 0x40 MSTORE DUP1 SWAP3 SWAP2 SWAP1 DUP2 DUP2 MSTORE PUSH1 0x20 ADD DUP3 DUP1 SLOAD DUP1 ISZERO PUSH2 0xA2E JUMPI PUSH1 0x20 MUL DUP3 ADD SWAP2 SWAP1 PUSH0 MSTORE PUSH1 0x20 PUSH0 KECCAK256 SWAP1 JUMPDEST DUP2 PUSH0 SWAP1 SLOAD SWAP1 PUSH2 0x100 EXP SWAP1 DIV PUSH20 0xFFFFFFFFFFFFFFFFFFFFFFFFFFFFFFFFFFFFFFFF AND PUSH20 0xFFFFFFFFFFFFFFFFFFFFFFFFFFFFFFFFFFFFFFFF AND DUP2 MSTORE PUSH1 0x20 ADD SWAP1 PUSH1 0x1 ADD SWAP1 DUP1 DUP4 GT PUSH2 0x9E5 JUMPI JUMPDEST POP POP POP POP POP DUP2 MSTORE POP POP SWAP1 POP SWAP1 JUMP JUMPDEST PUSH0 DUP1 SLOAD SWAP1 PUSH2 0x100 EXP SWAP1 DIV PUSH20 0xFFFFFFFFFFFFFFFFFFFFFFFFFFFFFFFFFFFFFFFF AND PUSH20 0xFFFFFFFFFFFFFFFFFFFFFFFFFFFFFFFFFFFFFFFF AND CALLER PUSH20 0xFFFFFFFFFFFFFFFFFFFFFFFFFFFFFFFFFFFFFFFF AND EQ DUP1 PUSH2 0xAE1 JUMPI POP PUSH1 0x1 PUSH0 SWAP1 SLOAD SWAP1 PUSH2 0x100 EXP SWAP1 DIV PUSH20 0xFFFFFFFFFFFFFFFFFFFFFFFFFFFFFFFFFFFFFFFF AND PUSH20 0xFFFFFFFFFFFFFFFFFFFFFFFFFFFFFFFFFFFFFFFF AND CALLER PUSH20 0xFFFFFFFFFFFFFFFFFFFFFFFFFFFFFFFFFFFFFFFF AND EQ JUMPDEST PUSH2 0xB20 JUMPI PUSH1 0x40 MLOAD PUSH32 0x8C379A000000000000000000000000000000000000000000000000000000000 DUP2 MSTORE PUSH1 0x4 ADD PUSH2 0xB17 SWAP1 PUSH2 0x1FDF JUMP JUMPDEST PUSH1 0x40 MLOAD DUP1 SWAP2 SUB SWAP1 REVERT JUMPDEST PUSH0 PUSH2 0xBB1 DUP3 PUSH1 0x2 PUSH1 0x1 ADD DUP1 SLOAD DUP1 PUSH1 0x20 MUL PUSH1 0x20 ADD PUSH1 0x40 MLOAD SWAP1 DUP2 ADD PUSH1 0x40 MSTORE DUP1 SWAP3 SWAP2 SWAP1 DUP2 DUP2 MSTORE PUSH1 0x20 ADD DUP3 DUP1 SLOAD DUP1 ISZERO PUSH2 0xBA7 JUMPI PUSH1 0x20 MUL DUP3 ADD SWAP2 SWAP1 PUSH0 MSTORE PUSH1 0x20 PUSH0 KECCAK256 SWAP1 JUMPDEST DUP2 PUSH0 SWAP1 SLOAD SWAP1 PUSH2 0x100 EXP SWAP1 DIV PUSH20 0xFFFFFFFFFFFFFFFFFFFFFFFFFFFFFFFFFFFFFFFF AND PUSH20 0xFFFFFFFFFFFFFFFFFFFFFFFFFFFFFFFFFFFFFFFF AND DUP2 MSTORE PUSH1 0x20 ADD SWAP1 PUSH1 0x1 ADD SWAP1 DUP1 DUP4 GT PUSH2 0xB5E JUMPI JUMPDEST POP POP POP POP POP PUSH2 0x1920 JUMP JUMPDEST SWAP1 POP PUSH32 0xFFFFFFFFFFFFFFFFFFFFFFFFFFFFFFFFFFFFFFFFFFFFFFFFFFFFFFFFFFFFFFFF DUP2 SGT DUP1 ISZERO PUSH2 0xBE9 JUMPI POP PUSH1 0x2 PUSH1 0x1 ADD DUP1 SLOAD SWAP1 POP DUP2 SLT JUMPDEST PUSH2 0xC28 JUMPI PUSH1 0x40 MLOAD PUSH32 0x8C379A000000000000000000000000000000000000000000000000000000000 DUP2 MSTORE PUSH1 0x4 ADD PUSH2 0xC1F SWAP1 PUSH2 0x2293 JUMP JUMPDEST PUSH1 0x40 MLOAD DUP1 SWAP2 SUB SWAP1 REVERT JUMPDEST PUSH0 DUP2 SWAP1 POP JUMPDEST PUSH1 0x1 PUSH1 0x2 PUSH1 0x1 ADD DUP1 SLOAD SWAP1 POP PUSH2 0xC42 SWAP2 SWAP1 PUSH2 0x22DE JUMP JUMPDEST DUP2 LT ISZERO PUSH2 0xCFD JUMPI PUSH1 0x2 PUSH1 0x1 ADD PUSH1 0x1 DUP3 PUSH2 0xC5B SWAP2 SWAP1 PUSH2 0x2311 JUMP JUMPDEST DUP2 SLOAD DUP2 LT PUSH2 0xC6C JUMPI PUSH2 0xC6B PUSH2 0x2344 JUMP JUMPDEST JUMPDEST SWAP1 PUSH0 MSTORE PUSH1 0x20 PUSH0 KECCAK256 ADD PUSH0 SWAP1 SLOAD SWAP1 PUSH2 0x100 EXP SWAP1 DIV PUSH20 0xFFFFFFFFFFFFFFFFFFFFFFFFFFFFFFFFFFFFFFFF AND PUSH1 0x2 PUSH1 0x1 ADD DUP3 DUP2 SLOAD DUP2 LT PUSH2 0xCAB JUMPI PUSH2 0xCAA PUSH2 0x2344 JUMP JUMPDEST JUMPDEST SWAP1 PUSH0 MSTORE PUSH1 0x20 PUSH0 KECCAK256 ADD PUSH0 PUSH2 0x100 EXP DUP2 SLOAD DUP2 PUSH20 0xFFFFFFFFFFFFFFFFFFFFFFFFFFFFFFFFFFFFFFFF MUL NOT AND SWAP1 DUP4 PUSH20 0xFFFFFFFFFFFFFFFFFFFFFFFFFFFFFFFFFFFFFFFF AND MUL OR SWAP1 SSTORE POP DUP1 DUP1 PUSH1 0x1 ADD SWAP2 POP POP PUSH2 0xC2D JUMP JUMPDEST POP PUSH1 0x2 PUSH1 0x1 ADD DUP1 SLOAD DUP1 PUSH2 0xD13 JUMPI PUSH2 0xD12 PUSH2 0x2371 JUMP JUMPDEST JUMPDEST PUSH1 0x1 SWAP1 SUB DUP2 DUP2 SWAP1 PUSH0 MSTORE PUSH1 0x20 PUSH0 KECCAK256 ADD PUSH0 PUSH2 0x100 EXP DUP2 SLOAD SWAP1 PUSH20 0xFFFFFFFFFFFFFFFFFFFFFFFFFFFFFFFFFFFFFFFF MUL NOT AND SWAP1 SSTORE SWAP1 SSTORE POP POP JUMP JUMPDEST PUSH0 DUP1 SLOAD SWAP1 PUSH2 0x100 EXP SWAP1 DIV PUSH20 0xFFFFFFFFFFFFFFFFFFFFFFFFFFFFFFFFFFFFFFFF AND PUSH20 0xFFFFFFFFFFFFFFFFFFFFFFFFFFFFFFFFFFFFFFFF AND CALLER PUSH20 0xFFFFFFFFFFFFFFFFFFFFFFFFFFFFFFFFFFFFFFFF AND EQ DUP1 PUSH2 0xDEE JUMPI POP PUSH1 0x1 PUSH0 SWAP1 SLOAD SWAP1 PUSH2 0x100 EXP SWAP1 DIV PUSH20 0xFFFFFFFFFFFFFFFFFFFFFFFFFFFFFFFFFFFFFFFF AND PUSH20 0xFFFFFFFFFFFFFFFFFFFFFFFFFFFFFFFFFFFFFFFF AND CALLER PUSH20 0xFFFFFFFFFFFFFFFFFFFFFFFFFFFFFFFFFFFFFFFF AND EQ JUMPDEST PUSH2 0xE2D JUMPI PUSH1 0x40 MLOAD PUSH32 0x8C379A000000000000000000000000000000000000000000000000000000000 DUP2 MSTORE PUSH1 0x4 ADD PUSH2 0xE24 SWAP1 PUSH2 0x1FDF JUMP JUMPDEST PUSH1 0x40 MLOAD DUP1 SWAP2 SUB SWAP1 REVERT JUMPDEST PUSH32 0xFFFFFFFFFFFFFFFFFFFFFFFFFFFFFFFFFFFFFFFFFFFFFFFFFFFFFFFFFFFFFFFF PUSH2 0xEDD DUP3 PUSH1 0x2 PUSH0 ADD DUP1 SLOAD DUP1 PUSH1 0x20 MUL PUSH1 0x20 ADD PUSH1 0x40 MLOAD SWAP1 DUP2 ADD PUSH1 0x40 MSTORE DUP1 SWAP3 SWAP2 SWAP1 DUP2 DUP2 MSTORE PUSH1 0x20 ADD DUP3 DUP1 SLOAD DUP1 ISZERO PUSH2 0xED3 JUMPI PUSH1 0x20 MUL DUP3 ADD SWAP2 SWAP1 PUSH0 MSTORE PUSH1 0x20 PUSH0 KECCAK256 SWAP1 JUMPDEST DUP2 PUSH0 SWAP1 SLOAD SWAP1 PUSH2 0x100 EXP SWAP1 DIV PUSH20 0xFFFFFFFFFFFFFFFFFFFFFFFFFFFFFFFFFFFFFFFF AND PUSH20 0xFFFFFFFFFFFFFFFFFFFFFFFFFFFFFFFFFFFFFFFF AND DUP2 MSTORE PUSH1 0x20 ADD SWAP1 PUSH1 0x1 ADD SWAP1 DUP1 DUP4 GT PUSH2 0xE8A JUMPI JUMPDEST POP POP POP POP POP PUSH2 0x1920 JUMP JUMPDEST SGT PUSH2 0xF1D JUMPI PUSH1 0x40 MLOAD PUSH32 0x8C379A000000000000000000000000000000000000000000000000000000000 DUP2 MSTORE PUSH1 0x4 ADD PUSH2 0xF14 SWAP1 PUSH2 0x23E8 JUMP JUMPDEST PUSH1 0x40 MLOAD DUP1 SWAP2 SUB SWAP1 REVERT JUMPDEST PUSH1 0x2 PUSH0 ADD DUP2 SWAP1 DUP1 PUSH1 0x1 DUP2 SLOAD ADD DUP1 DUP3 SSTORE DUP1 SWAP2 POP POP PUSH1 0x1 SWAP1 SUB SWAP1 PUSH0 MSTORE PUSH1 0x20 PUSH0 KECCAK256 ADD PUSH0 SWAP1 SWAP2 SWAP1 SWAP2 SWAP1 SWAP2 PUSH2 0x100 EXP DUP2 SLOAD DUP2 PUSH20 0xFFFFFFFFFFFFFFFFFFFFFFFFFFFFFFFFFFFFFFFF MUL NOT AND SWAP1 DUP4 PUSH20 0xFFFFFFFFFFFFFFFFFFFFFFFFFFFFFFFFFFFFFFFF AND MUL OR SWAP1 SSTORE POP POP JUMP JUMPDEST PUSH0 DUP1 SLOAD SWAP1 PUSH2 0x100 EXP SWAP1 DIV PUSH20 0xFFFFFFFFFFFFFFFFFFFFFFFFFFFFFFFFFFFFFFFF AND PUSH20 0xFFFFFFFFFFFFFFFFFFFFFFFFFFFFFFFFFFFFFFFF AND CALLER PUSH20 0xFFFFFFFFFFFFFFFFFFFFFFFFFFFFFFFFFFFFFFFF AND EQ DUP1 PUSH2 0x1027 JUMPI POP PUSH1 0x1 PUSH0 SWAP1 SLOAD SWAP1 PUSH2 0x100 EXP SWAP1 DIV PUSH20 0xFFFFFFFFFFFFFFFFFFFFFFFFFFFFFFFFFFFFFFFF AND PUSH20 0xFFFFFFFFFFFFFFFFFFFFFFFFFFFFFFFFFFFFFFFF AND CALLER PUSH20 0xFFFFFFFFFFFFFFFFFFFFFFFFFFFFFFFFFFFFFFFF AND EQ JUMPDEST PUSH2 0x1066 JUMPI PUSH1 0x40 MLOAD PUSH32 0x8C379A000000000000000000000000000000000000000000000000000000000 DUP2 MSTORE PUSH1 0x4 ADD PUSH2 0x105D SWAP1 PUSH2 0x1FDF JUMP JUMPDEST PUSH1 0x40 MLOAD DUP1 SWAP2 SUB SWAP1 REVERT JUMPDEST PUSH32 0xFFFFFFFFFFFFFFFFFFFFFFFFFFFFFFFFFFFFFFFFFFFFFFFFFFFFFFFFFFFFFFFF PUSH2 0x1117 DUP3 PUSH1 0x2 PUSH1 0x1 ADD DUP1 SLOAD DUP1 PUSH1 0x20 MUL PUSH1 0x20 ADD PUSH1 0x40 MLOAD SWAP1 DUP2 ADD PUSH1 0x40 MSTORE DUP1 SWAP3 SWAP2 SWAP1 DUP2 DUP2 MSTORE PUSH1 0x20 ADD DUP3 DUP1 SLOAD DUP1 ISZERO PUSH2 0x110D JUMPI PUSH1 0x20 MUL DUP3 ADD SWAP2 SWAP1 PUSH0 MSTORE PUSH1 0x20 PUSH0 KECCAK256 SWAP1 JUMPDEST DUP2 PUSH0 SWAP1 SLOAD SWAP1 PUSH2 0x100 EXP SWAP1 DIV PUSH20 0xFFFFFFFFFFFFFFFFFFFFFFFFFFFFFFFFFFFFFFFF AND PUSH20 0xFFFFFFFFFFFFFFFFFFFFFFFFFFFFFFFFFFFFFFFF AND DUP2 MSTORE PUSH1 0x20 ADD SWAP1 PUSH1 0x1 ADD SWAP1 DUP1 DUP4 GT PUSH2 0x10C4 JUMPI JUMPDEST POP POP POP POP POP PUSH2 0x1920 JUMP JUMPDEST SGT PUSH2 0x1157 JUMPI PUSH1 0x40 MLOAD PUSH32 0x8C379A000000000000000000000000000000000000000000000000000000000 DUP2 MSTORE PUSH1 0x4 ADD PUSH2 0x114E SWAP1 PUSH2 0x23E8 JUMP JUMPDEST PUSH1 0x40 MLOAD DUP1 SWAP2 SUB SWAP1 REVERT JUMPDEST PUSH1 0x2 PUSH1 0x1 ADD DUP2 SWAP1 DUP1 PUSH1 0x1 DUP2 SLOAD ADD DUP1 DUP3 SSTORE DUP1 SWAP2 POP POP PUSH1 0x1 SWAP1 SUB SWAP1 PUSH0 MSTORE PUSH1 0x20 PUSH0 KECCAK256 ADD PUSH0 SWAP1 SWAP2 SWAP1 SWAP2 SWAP1 SWAP2 PUSH2 0x100 EXP DUP2 SLOAD DUP2 PUSH20 0xFFFFFFFFFFFFFFFFFFFFFFFFFFFFFFFFFFFFFFFF MUL NOT AND SWAP1 DUP4 PUSH20 0xFFFFFFFFFFFFFFFFFFFFFFFFFFFFFFFFFFFFFFFF AND MUL OR SWAP1 SSTORE POP POP JUMP JUMPDEST PUSH0 DUP1 SLOAD SWAP1 PUSH2 0x100 EXP SWAP1 DIV PUSH20 0xFFFFFFFFFFFFFFFFFFFFFFFFFFFFFFFFFFFFFFFF AND PUSH20 0xFFFFFFFFFFFFFFFFFFFFFFFFFFFFFFFFFFFFFFFF AND CALLER PUSH20 0xFFFFFFFFFFFFFFFFFFFFFFFFFFFFFFFFFFFFFFFF AND EQ DUP1 PUSH2 0x1262 JUMPI POP PUSH1 0x1 PUSH0 SWAP1 SLOAD SWAP1 PUSH2 0x100 EXP SWAP1 DIV PUSH20 0xFFFFFFFFFFFFFFFFFFFFFFFFFFFFFFFFFFFFFFFF AND PUSH20 0xFFFFFFFFFFFFFFFFFFFFFFFFFFFFFFFFFFFFFFFF AND CALLER PUSH20 0xFFFFFFFFFFFFFFFFFFFFFFFFFFFFFFFFFFFFFFFF AND EQ JUMPDEST PUSH2 0x12A1 JUMPI PUSH1 0x40 MLOAD PUSH32 0x8C379A000000000000000000000000000000000000000000000000000000000 DUP2 MSTORE PUSH1 0x4 ADD PUSH2 0x1298 SWAP1 PUSH2 0x1FDF JUMP JUMPDEST PUSH1 0x40 MLOAD DUP1 SWAP2 SUB SWAP1 REVERT JUMPDEST PUSH0 DUP6 DUP6 DUP6 DUP6 DUP6 PUSH0 DUP1 SLOAD SWAP1 PUSH2 0x100 EXP SWAP1 DIV PUSH20 0xFFFFFFFFFFFFFFFFFFFFFFFFFFFFFFFFFFFFFFFF AND ADDRESS PUSH1 0x40 MLOAD PUSH2 0x12D4 SWAP1 PUSH2 0x19E4 JUMP JUMPDEST PUSH2 0x12E4 SWAP8 SWAP7 SWAP6 SWAP5 SWAP4 SWAP3 SWAP2 SWAP1 PUSH2 0x2406 JUMP JUMPDEST PUSH1 0x40 MLOAD DUP1 SWAP2 SUB SWAP1 PUSH0 CREATE DUP1 ISZERO DUP1 ISZERO PUSH2 0x12FD JUMPI RETURNDATASIZE PUSH0 DUP1 RETURNDATACOPY RETURNDATASIZE PUSH0 REVERT JUMPDEST POP SWAP1 POP PUSH1 0x2 PUSH1 0x1 ADD DUP2 PUSH20 0xFFFFFFFFFFFFFFFFFFFFFFFFFFFFFFFFFFFFFFFF AND PUSH4 0x38CC4831 PUSH1 0x40 MLOAD DUP2 PUSH4 0xFFFFFFFF AND PUSH1 0xE0 SHL DUP2 MSTORE PUSH1 0x4 ADD PUSH1 0x20 PUSH1 0x40 MLOAD DUP1 DUP4 SUB DUP2 DUP7 GAS STATICCALL ISZERO DUP1 ISZERO PUSH2 0x134E JUMPI RETURNDATASIZE PUSH0 DUP1 RETURNDATACOPY RETURNDATASIZE PUSH0 REVERT JUMPDEST POP POP POP POP PUSH1 0x40 MLOAD RETURNDATASIZE PUSH1 0x1F NOT PUSH1 0x1F DUP3 ADD AND DUP3 ADD DUP1 PUSH1 0x40 MSTORE POP DUP2 ADD SWAP1 PUSH2 0x1372 SWAP2 SWAP1 PUSH2 0x221E JUMP JUMPDEST SWAP1 DUP1 PUSH1 0x1 DUP2 SLOAD ADD DUP1 DUP3 SSTORE DUP1 SWAP2 POP POP PUSH1 0x1 SWAP1 SUB SWAP1 PUSH0 MSTORE PUSH1 0x20 PUSH0 KECCAK256 ADD PUSH0 SWAP1 SWAP2 SWAP1 SWAP2 SWAP1 SWAP2 PUSH2 0x100 EXP DUP2 SLOAD DUP2 PUSH20 0xFFFFFFFFFFFFFFFFFFFFFFFFFFFFFFFFFFFFFFFF MUL NOT AND SWAP1 DUP4 PUSH20 0xFFFFFFFFFFFFFFFFFFFFFFFFFFFFFFFFFFFFFFFF AND MUL OR SWAP1 SSTORE POP POP POP POP POP POP POP JUMP JUMPDEST PUSH0 DUP1 SLOAD SWAP1 PUSH2 0x100 EXP SWAP1 DIV PUSH20 0xFFFFFFFFFFFFFFFFFFFFFFFFFFFFFFFFFFFFFFFF AND PUSH20 0xFFFFFFFFFFFFFFFFFFFFFFFFFFFFFFFFFFFFFFFF AND CALLER PUSH20 0xFFFFFFFFFFFFFFFFFFFFFFFFFFFFFFFFFFFFFFFF AND EQ DUP1 PUSH2 0x147C JUMPI POP PUSH1 0x1 PUSH0 SWAP1 SLOAD SWAP1 PUSH2 0x100 EXP SWAP1 DIV PUSH20 0xFFFFFFFFFFFFFFFFFFFFFFFFFFFFFFFFFFFFFFFF AND PUSH20 0xFFFFFFFFFFFFFFFFFFFFFFFFFFFFFFFFFFFFFFFF AND CALLER PUSH20 0xFFFFFFFFFFFFFFFFFFFFFFFFFFFFFFFFFFFFFFFF AND EQ JUMPDEST PUSH2 0x14BB JUMPI PUSH1 0x40 MLOAD PUSH32 0x8C379A000000000000000000000000000000000000000000000000000000000 DUP2 MSTORE PUSH1 0x4 ADD PUSH2 0x14B2 SWAP1 PUSH2 0x1FDF JUMP JUMPDEST PUSH1 0x40 MLOAD DUP1 SWAP2 SUB SWAP1 REVERT JUMPDEST PUSH0 PUSH20 0xFFFFFFFFFFFFFFFFFFFFFFFFFFFFFFFFFFFFFFFF AND DUP3 PUSH20 0xFFFFFFFFFFFFFFFFFFFFFFFFFFFFFFFFFFFFFFFF AND SUB PUSH2 0x1529 JUMPI PUSH1 0x40 MLOAD PUSH32 0x8C379A000000000000000000000000000000000000000000000000000000000 DUP2 MSTORE PUSH1 0x4 ADD PUSH2 0x1520 SWAP1 PUSH2 0x24D9 JUMP JUMPDEST PUSH1 0x40 MLOAD DUP1 SWAP2 SUB SWAP1 REVERT JUMPDEST DUP1 SELFBALANCE LT ISZERO PUSH2 0x156C JUMPI PUSH1 0x40 MLOAD PUSH32 0x8C379A000000000000000000000000000000000000000000000000000000000 DUP2 MSTORE PUSH1 0x4 ADD PUSH2 0x1563 SWAP1 PUSH2 0x2047 JUMP JUMPDEST PUSH1 0x40 MLOAD DUP1 SWAP2 SUB SWAP1 REVERT JUMPDEST PUSH0 DUP3 PUSH20 0xFFFFFFFFFFFFFFFFFFFFFFFFFFFFFFFFFFFFFFFF AND DUP3 PUSH1 0x40 MLOAD PUSH2 0x1591 SWAP1 PUSH2 0x2092 JUMP JUMPDEST PUSH0 PUSH1 0x40 MLOAD DUP1 DUP4 SUB DUP2 DUP6 DUP8 GAS CALL SWAP3 POP POP POP RETURNDATASIZE DUP1 PUSH0 DUP2 EQ PUSH2 0x15CB JUMPI PUSH1 0x40 MLOAD SWAP2 POP PUSH1 0x1F NOT PUSH1 0x3F RETURNDATASIZE ADD AND DUP3 ADD PUSH1 0x40 MSTORE RETURNDATASIZE DUP3 MSTORE RETURNDATASIZE PUSH0 PUSH1 0x20 DUP5 ADD RETURNDATACOPY PUSH2 0x15D0 JUMP JUMPDEST PUSH1 0x60 SWAP2 POP JUMPDEST POP POP SWAP1 POP DUP1 PUSH2 0x1614 JUMPI PUSH1 0x40 MLOAD PUSH32 0x8C379A000000000000000000000000000000000000000000000000000000000 DUP2 MSTORE PUSH1 0x4 ADD PUSH2 0x160B SWAP1 PUSH2 0x20F0 JUMP JUMPDEST PUSH1 0x40 MLOAD DUP1 SWAP2 SUB SWAP1 REVERT JUMPDEST POP POP POP JUMP JUMPDEST PUSH0 DUP1 SLOAD SWAP1 PUSH2 0x100 EXP SWAP1 DIV PUSH20 0xFFFFFFFFFFFFFFFFFFFFFFFFFFFFFFFFFFFFFFFF AND PUSH20 0xFFFFFFFFFFFFFFFFFFFFFFFFFFFFFFFFFFFFFFFF AND CALLER PUSH20 0xFFFFFFFFFFFFFFFFFFFFFFFFFFFFFFFFFFFFFFFF AND EQ DUP1 PUSH2 0x16BE JUMPI POP PUSH1 0x1 PUSH0 SWAP1 SLOAD SWAP1 PUSH2 0x100 EXP SWAP1 DIV PUSH20 0xFFFFFFFFFFFFFFFFFFFFFFFFFFFFFFFFFFFFFFFF AND PUSH20 0xFFFFFFFFFFFFFFFFFFFFFFFFFFFFFFFFFFFFFFFF AND CALLER PUSH20 0xFFFFFFFFFFFFFFFFFFFFFFFFFFFFFFFFFFFFFFFF AND EQ JUMPDEST PUSH2 0x16FD JUMPI PUSH1 0x40 MLOAD PUSH32 0x8C379A000000000000000000000000000000000000000000000000000000000 DUP2 MSTORE PUSH1 0x4 ADD PUSH2 0x16F4 SWAP1 PUSH2 0x1FDF JUMP JUMPDEST PUSH1 0x40 MLOAD DUP1 SWAP2 SUB SWAP1 REVERT JUMPDEST PUSH0 PUSH2 0x178D DUP3 PUSH1 0x2 PUSH0 ADD DUP1 SLOAD DUP1 PUSH1 0x20 MUL PUSH1 0x20 ADD PUSH1 0x40 MLOAD SWAP1 DUP2 ADD PUSH1 0x40 MSTORE DUP1 SWAP3 SWAP2 SWAP1 DUP2 DUP2 MSTORE PUSH1 0x20 ADD DUP3 DUP1 SLOAD DUP1 ISZERO PUSH2 0x1783 JUMPI PUSH1 0x20 MUL DUP3 ADD SWAP2 SWAP1 PUSH0 MSTORE PUSH1 0x20 PUSH0 KECCAK256 SWAP1 JUMPDEST DUP2 PUSH0 SWAP1 SLOAD SWAP1 PUSH2 0x100 EXP SWAP1 DIV PUSH20 0xFFFFFFFFFFFFFFFFFFFFFFFFFFFFFFFFFFFFFFFF AND PUSH20 0xFFFFFFFFFFFFFFFFFFFFFFFFFFFFFFFFFFFFFFFF AND DUP2 MSTORE PUSH1 0x20 ADD SWAP1 PUSH1 0x1 ADD SWAP1 DUP1 DUP4 GT PUSH2 0x173A JUMPI JUMPDEST POP POP POP POP POP PUSH2 0x1920 JUMP JUMPDEST SWAP1 POP PUSH32 0xFFFFFFFFFFFFFFFFFFFFFFFFFFFFFFFFFFFFFFFFFFFFFFFFFFFFFFFFFFFFFFFF DUP2 SGT DUP1 ISZERO PUSH2 0x17C4 JUMPI POP PUSH1 0x2 PUSH0 ADD DUP1 SLOAD SWAP1 POP DUP2 SLT JUMPDEST PUSH2 0x1803 JUMPI PUSH1 0x40 MLOAD PUSH32 0x8C379A000000000000000000000000000000000000000000000000000000000 DUP2 MSTORE PUSH1 0x4 ADD PUSH2 0x17FA SWAP1 PUSH2 0x2541 JUMP JUMPDEST PUSH1 0x40 MLOAD DUP1 SWAP2 SUB SWAP1 REVERT JUMPDEST PUSH0 DUP2 SWAP1 POP JUMPDEST PUSH1 0x1 PUSH1 0x2 PUSH0 ADD DUP1 SLOAD SWAP1 POP PUSH2 0x181C SWAP2 SWAP1 PUSH2 0x22DE JUMP JUMPDEST DUP2 LT ISZERO PUSH2 0x18D5 JUMPI PUSH1 0x2 PUSH0 ADD PUSH1 0x1 DUP3 PUSH2 0x1834 SWAP2 SWAP1 PUSH2 0x2311 JUMP JUMPDEST DUP2 SLOAD DUP2 LT PUSH2 0x1845 JUMPI PUSH2 0x1844 PUSH2 0x2344 JUMP JUMPDEST JUMPDEST SWAP1 PUSH0 MSTORE PUSH1 0x20 PUSH0 KECCAK256 ADD PUSH0 SWAP1 SLOAD SWAP1 PUSH2 0x100 EXP SWAP1 DIV PUSH20 0xFFFFFFFFFFFFFFFFFFFFFFFFFFFFFFFFFFFFFFFF AND PUSH1 0x2 PUSH0 ADD DUP3 DUP2 SLOAD DUP2 LT PUSH2 0x1883 JUMPI PUSH2 0x1882 PUSH2 0x2344 JUMP JUMPDEST JUMPDEST SWAP1 PUSH0 MSTORE PUSH1 0x20 PUSH0 KECCAK256 ADD PUSH0 PUSH2 0x100 EXP DUP2 SLOAD DUP2 PUSH20 0xFFFFFFFFFFFFFFFFFFFFFFFFFFFFFFFFFFFFFFFF MUL NOT AND SWAP1 DUP4 PUSH20 0xFFFFFFFFFFFFFFFFFFFFFFFFFFFFFFFFFFFFFFFF AND MUL OR SWAP1 SSTORE POP DUP1 DUP1 PUSH1 0x1 ADD SWAP2 POP POP PUSH2 0x1808 JUMP JUMPDEST POP PUSH1 0x2 PUSH0 ADD DUP1 SLOAD DUP1 PUSH2 0x18EA JUMPI PUSH2 0x18E9 PUSH2 0x2371 JUMP JUMPDEST JUMPDEST PUSH1 0x1 SWAP1 SUB DUP2 DUP2 SWAP1 PUSH0 MSTORE PUSH1 0x20 PUSH0 KECCAK256 ADD PUSH0 PUSH2 0x100 EXP DUP2 SLOAD SWAP1 PUSH20 0xFFFFFFFFFFFFFFFFFFFFFFFFFFFFFFFFFFFFFFFF MUL NOT AND SWAP1 SSTORE SWAP1 SSTORE POP POP JUMP JUMPDEST PUSH0 DUP1 PUSH0 SWAP1 POP JUMPDEST DUP3 MLOAD DUP2 LT ISZERO PUSH2 0x1992 JUMPI DUP4 PUSH20 0xFFFFFFFFFFFFFFFFFFFFFFFFFFFFFFFFFFFFFFFF AND DUP4 DUP3 DUP2 MLOAD DUP2 LT PUSH2 0x1959 JUMPI PUSH2 0x1958 PUSH2 0x2344 JUMP JUMPDEST JUMPDEST PUSH1 0x20 MUL PUSH1 0x20 ADD ADD MLOAD PUSH20 0xFFFFFFFFFFFFFFFFFFFFFFFFFFFFFFFFFFFFFFFF AND SUB PUSH2 0x1985 JUMPI DUP1 SWAP2 POP POP PUSH2 0x19B7 JUMP JUMPDEST DUP1 DUP1 PUSH1 0x1 ADD SWAP2 POP POP PUSH2 0x1926 JUMP JUMPDEST POP PUSH32 0xFFFFFFFFFFFFFFFFFFFFFFFFFFFFFFFFFFFFFFFFFFFFFFFFFFFFFFFFFFFFFFFF SWAP1 POP JUMPDEST SWAP3 SWAP2 POP POP JUMP JUMPDEST PUSH2 0x14A1 DUP1 PUSH2 0x2560 DUP4 CODECOPY ADD SWAP1 JUMP JUMPDEST PUSH1 0x40 MLOAD DUP1 PUSH1 0x40 ADD PUSH1 0x40 MSTORE DUP1 PUSH1 0x60 DUP2 MSTORE PUSH1 0x20 ADD PUSH1 0x60 DUP2 MSTORE POP SWAP1 JUMP JUMPDEST PUSH2 0x16D8 DUP1 PUSH2 0x3A01 DUP4 CODECOPY ADD SWAP1 JUMP JUMPDEST PUSH0 DUP2 SWAP1 POP SWAP2 SWAP1 POP JUMP JUMPDEST PUSH2 0x1A03 DUP2 PUSH2 0x19F1 JUMP JUMPDEST DUP3 MSTORE POP POP JUMP JUMPDEST PUSH0 PUSH1 0x20 DUP3 ADD SWAP1 POP PUSH2 0x1A1C PUSH0 DUP4 ADD DUP5 PUSH2 0x19FA JUMP JUMPDEST SWAP3 SWAP2 POP POP JUMP JUMPDEST PUSH0 PUSH1 0x40 MLOAD SWAP1 POP SWAP1 JUMP JUMPDEST PUSH0 DUP1 REVERT JUMPDEST PUSH0 DUP1 REVERT JUMPDEST PUSH2 0x1A3C DUP2 PUSH2 0x19F1 JUMP JUMPDEST DUP2 EQ PUSH2 0x1A46 JUMPI PUSH0 DUP1 REVERT JUMPDEST POP JUMP JUMPDEST PUSH0 DUP2 CALLDATALOAD SWAP1 POP PUSH2 0x1A57 DUP2 PUSH2 0x1A33 JUMP JUMPDEST SWAP3 SWAP2 POP POP JUMP JUMPDEST PUSH0 PUSH1 0x20 DUP3 DUP5 SUB SLT ISZERO PUSH2 0x1A72 JUMPI PUSH2 0x1A71 PUSH2 0x1A2B JUMP JUMPDEST JUMPDEST PUSH0 PUSH2 0x1A7F DUP5 DUP3 DUP6 ADD PUSH2 0x1A49 JUMP JUMPDEST SWAP2 POP POP SWAP3 SWAP2 POP POP JUMP JUMPDEST PUSH0 DUP1 REVERT JUMPDEST PUSH0 DUP1 REVERT JUMPDEST PUSH0 PUSH1 0x1F NOT PUSH1 0x1F DUP4 ADD AND SWAP1 POP SWAP2 SWAP1 POP JUMP JUMPDEST PUSH32 0x4E487B7100000000000000000000000000000000000000000000000000000000 PUSH0 MSTORE PUSH1 0x41 PUSH1 0x4 MSTORE PUSH1 0x24 PUSH0 REVERT JUMPDEST PUSH2 0x1AD6 DUP3 PUSH2 0x1A90 JUMP JUMPDEST DUP2 ADD DUP2 DUP2 LT PUSH8 0xFFFFFFFFFFFFFFFF DUP3 GT OR ISZERO PUSH2 0x1AF5 JUMPI PUSH2 0x1AF4 PUSH2 0x1AA0 JUMP JUMPDEST JUMPDEST DUP1 PUSH1 0x40 MSTORE POP POP POP JUMP JUMPDEST PUSH0 PUSH2 0x1B07 PUSH2 0x1A22 JUMP JUMPDEST SWAP1 POP PUSH2 0x1B13 DUP3 DUP3 PUSH2 0x1ACD JUMP JUMPDEST SWAP2 SWAP1 POP JUMP JUMPDEST PUSH0 PUSH8 0xFFFFFFFFFFFFFFFF DUP3 GT ISZERO PUSH2 0x1B32 JUMPI PUSH2 0x1B31 PUSH2 0x1AA0 JUMP JUMPDEST JUMPDEST PUSH2 0x1B3B DUP3 PUSH2 0x1A90 JUMP JUMPDEST SWAP1 POP PUSH1 0x20 DUP2 ADD SWAP1 POP SWAP2 SWAP1 POP JUMP JUMPDEST DUP3 DUP2 DUP4 CALLDATACOPY PUSH0 DUP4 DUP4 ADD MSTORE POP POP POP JUMP JUMPDEST PUSH0 PUSH2 0x1B68 PUSH2 0x1B63 DUP5 PUSH2 0x1B18 JUMP JUMPDEST PUSH2 0x1AFE JUMP JUMPDEST SWAP1 POP DUP3 DUP2 MSTORE PUSH1 0x20 DUP2 ADD DUP5 DUP5 DUP5 ADD GT ISZERO PUSH2 0x1B84 JUMPI PUSH2 0x1B83 PUSH2 0x1A8C JUMP JUMPDEST JUMPDEST PUSH2 0x1B8F DUP5 DUP3 DUP6 PUSH2 0x1B48 JUMP JUMPDEST POP SWAP4 SWAP3 POP POP POP JUMP JUMPDEST PUSH0 DUP3 PUSH1 0x1F DUP4 ADD SLT PUSH2 0x1BAB JUMPI PUSH2 0x1BAA PUSH2 0x1A88 JUMP JUMPDEST JUMPDEST DUP2 CALLDATALOAD PUSH2 0x1BBB DUP5 DUP3 PUSH1 0x20 DUP7 ADD PUSH2 0x1B56 JUMP JUMPDEST SWAP2 POP POP SWAP3 SWAP2 POP POP JUMP JUMPDEST PUSH0 DUP1 PUSH1 0x40 DUP4 DUP6 SUB SLT ISZERO PUSH2 0x1BDA JUMPI PUSH2 0x1BD9 PUSH2 0x1A2B JUMP JUMPDEST JUMPDEST PUSH0 DUP4 ADD CALLDATALOAD PUSH8 0xFFFFFFFFFFFFFFFF DUP2 GT ISZERO PUSH2 0x1BF7 JUMPI PUSH2 0x1BF6 PUSH2 0x1A2F JUMP JUMPDEST JUMPDEST PUSH2 0x1C03 DUP6 DUP3 DUP7 ADD PUSH2 0x1B97 JUMP JUMPDEST SWAP3 POP POP PUSH1 0x20 DUP4 ADD CALLDATALOAD PUSH8 0xFFFFFFFFFFFFFFFF DUP2 GT ISZERO PUSH2 0x1C24 JUMPI PUSH2 0x1C23 PUSH2 0x1A2F JUMP JUMPDEST JUMPDEST PUSH2 0x1C30 DUP6 DUP3 DUP7 ADD PUSH2 0x1B97 JUMP JUMPDEST SWAP2 POP POP SWAP3 POP SWAP3 SWAP1 POP JUMP JUMPDEST PUSH0 PUSH20 0xFFFFFFFFFFFFFFFFFFFFFFFFFFFFFFFFFFFFFFFF DUP3 AND SWAP1 POP SWAP2 SWAP1 POP JUMP JUMPDEST PUSH0 PUSH2 0x1C63 DUP3 PUSH2 0x1C3A JUMP JUMPDEST SWAP1 POP SWAP2 SWAP1 POP JUMP JUMPDEST PUSH2 0x1C73 DUP2 PUSH2 0x1C59 JUMP JUMPDEST DUP3 MSTORE POP POP JUMP JUMPDEST PUSH0 PUSH1 0x20 DUP3 ADD SWAP1 POP PUSH2 0x1C8C PUSH0 DUP4 ADD DUP5 PUSH2 0x1C6A JUMP JUMPDEST SWAP3 SWAP2 POP POP JUMP JUMPDEST PUSH0 DUP2 MLOAD SWAP1 POP SWAP2 SWAP1 POP JUMP JUMPDEST PUSH0 DUP3 DUP3 MSTORE PUSH1 0x20 DUP3 ADD SWAP1 POP SWAP3 SWAP2 POP POP JUMP JUMPDEST PUSH0 DUP2 SWAP1 POP PUSH1 0x20 DUP3 ADD SWAP1 POP SWAP2 SWAP1 POP JUMP JUMPDEST PUSH2 0x1CC4 DUP2 PUSH2 0x1C59 JUMP JUMPDEST DUP3 MSTORE POP POP JUMP JUMPDEST PUSH0 PUSH2 0x1CD5 DUP4 DUP4 PUSH2 0x1CBB JUMP JUMPDEST PUSH1 0x20 DUP4 ADD SWAP1 POP SWAP3 SWAP2 POP POP JUMP JUMPDEST PUSH0 PUSH1 0x20 DUP3 ADD SWAP1 POP SWAP2 SWAP1 POP JUMP JUMPDEST PUSH0 PUSH2 0x1CF7 DUP3 PUSH2 0x1C92 JUMP JUMPDEST PUSH2 0x1D01 DUP2 DUP6 PUSH2 0x1C9C JUMP JUMPDEST SWAP4 POP PUSH2 0x1D0C DUP4 PUSH2 0x1CAC JUMP JUMPDEST DUP1 PUSH0 JUMPDEST DUP4 DUP2 LT ISZERO PUSH2 0x1D3C JUMPI DUP2 MLOAD PUSH2 0x1D23 DUP9 DUP3 PUSH2 0x1CCA JUMP JUMPDEST SWAP8 POP PUSH2 0x1D2E DUP4 PUSH2 0x1CE1 JUMP JUMPDEST SWAP3 POP POP PUSH1 0x1 DUP2 ADD SWAP1 POP PUSH2 0x1D0F JUMP JUMPDEST POP DUP6 SWAP4 POP POP POP POP SWAP3 SWAP2 POP POP JUMP JUMPDEST PUSH0 PUSH1 0x40 DUP4 ADD PUSH0 DUP4 ADD MLOAD DUP5 DUP3 SUB PUSH0 DUP7 ADD MSTORE PUSH2 0x1D63 DUP3 DUP3 PUSH2 0x1CED JUMP JUMPDEST SWAP2 POP POP PUSH1 0x20 DUP4 ADD MLOAD DUP5 DUP3 SUB PUSH1 0x20 DUP7 ADD MSTORE PUSH2 0x1D7D DUP3 DUP3 PUSH2 0x1CED JUMP JUMPDEST SWAP2 POP POP DUP1 SWAP2 POP POP SWAP3 SWAP2 POP POP JUMP JUMPDEST PUSH0 PUSH1 0x20 DUP3 ADD SWAP1 POP DUP2 DUP2 SUB PUSH0 DUP4 ADD MSTORE PUSH2 0x1DA2 DUP2 DUP5 PUSH2 0x1D49 JUMP JUMPDEST SWAP1 POP SWAP3 SWAP2 POP POP JUMP JUMPDEST PUSH2 0x1DB3 DUP2 PUSH2 0x1C59 JUMP JUMPDEST DUP2 EQ PUSH2 0x1DBD JUMPI PUSH0 DUP1 REVERT JUMPDEST POP JUMP JUMPDEST PUSH0 DUP2 CALLDATALOAD SWAP1 POP PUSH2 0x1DCE DUP2 PUSH2 0x1DAA JUMP JUMPDEST SWAP3 SWAP2 POP POP JUMP JUMPDEST PUSH0 PUSH1 0x20 DUP3 DUP5 SUB SLT ISZERO PUSH2 0x1DE9 JUMPI PUSH2 0x1DE8 PUSH2 0x1A2B JUMP JUMPDEST JUMPDEST PUSH0 PUSH2 0x1DF6 DUP5 DUP3 DUP6 ADD PUSH2 0x1DC0 JUMP JUMPDEST SWAP2 POP POP SWAP3 SWAP2 POP POP JUMP JUMPDEST PUSH0 DUP1 PUSH0 DUP1 PUSH0 PUSH1 0xA0 DUP7 DUP9 SUB SLT ISZERO PUSH2 0x1E18 JUMPI PUSH2 0x1E17 PUSH2 0x1A2B JUMP JUMPDEST JUMPDEST PUSH0 DUP7 ADD CALLDATALOAD PUSH8 0xFFFFFFFFFFFFFFFF DUP2 GT ISZERO PUSH2 0x1E35 JUMPI PUSH2 0x1E34 PUSH2 0x1A2F JUMP JUMPDEST JUMPDEST PUSH2 0x1E41 DUP9 DUP3 DUP10 ADD PUSH2 0x1B97 JUMP JUMPDEST SWAP6 POP POP PUSH1 0x20 DUP7 ADD CALLDATALOAD PUSH8 0xFFFFFFFFFFFFFFFF DUP2 GT ISZERO PUSH2 0x1E62 JUMPI PUSH2 0x1E61 PUSH2 0x1A2F JUMP JUMPDEST JUMPDEST PUSH2 0x1E6E DUP9 DUP3 DUP10 ADD PUSH2 0x1B97 JUMP JUMPDEST SWAP5 POP POP PUSH1 0x40 DUP7 ADD CALLDATALOAD PUSH8 0xFFFFFFFFFFFFFFFF DUP2 GT ISZERO PUSH2 0x1E8F JUMPI PUSH2 0x1E8E PUSH2 0x1A2F JUMP JUMPDEST JUMPDEST PUSH2 0x1E9B DUP9 DUP3 DUP10 ADD PUSH2 0x1B97 JUMP JUMPDEST SWAP4 POP POP PUSH1 0x60 DUP7 ADD CALLDATALOAD PUSH8 0xFFFFFFFFFFFFFFFF DUP2 GT ISZERO PUSH2 0x1EBC JUMPI PUSH2 0x1EBB PUSH2 0x1A2F JUMP JUMPDEST JUMPDEST PUSH2 0x1EC8 DUP9 DUP3 DUP10 ADD PUSH2 0x1B97 JUMP JUMPDEST SWAP3 POP POP PUSH1 0x80 PUSH2 0x1ED9 DUP9 DUP3 DUP10 ADD PUSH2 0x1A49 JUMP JUMPDEST SWAP2 POP POP SWAP3 SWAP6 POP SWAP3 SWAP6 SWAP1 SWAP4 POP JUMP JUMPDEST PUSH0 PUSH2 0x1EF0 DUP3 PUSH2 0x1C3A JUMP JUMPDEST SWAP1 POP SWAP2 SWAP1 POP JUMP JUMPDEST PUSH2 0x1F00 DUP2 PUSH2 0x1EE6 JUMP JUMPDEST DUP2 EQ PUSH2 0x1F0A JUMPI PUSH0 DUP1 REVERT JUMPDEST POP JUMP JUMPDEST PUSH0 DUP2 CALLDATALOAD SWAP1 POP PUSH2 0x1F1B DUP2 PUSH2 0x1EF7 JUMP JUMPDEST SWAP3 SWAP2 POP POP JUMP JUMPDEST PUSH0 DUP1 PUSH1 0x40 DUP4 DUP6 SUB SLT ISZERO PUSH2 0x1F37 JUMPI PUSH2 0x1F36 PUSH2 0x1A2B JUMP JUMPDEST JUMPDEST PUSH0 PUSH2 0x1F44 DUP6 DUP3 DUP7 ADD PUSH2 0x1F0D JUMP JUMPDEST SWAP3 POP POP PUSH1 0x20 PUSH2 0x1F55 DUP6 DUP3 DUP7 ADD PUSH2 0x1A49 JUMP JUMPDEST SWAP2 POP POP SWAP3 POP SWAP3 SWAP1 POP JUMP JUMPDEST PUSH0 DUP3 DUP3 MSTORE PUSH1 0x20 DUP3 ADD SWAP1 POP SWAP3 SWAP2 POP POP JUMP JUMPDEST PUSH32 0x4F6E6C7920746865206F776E6572206F7220746865206D616E61676572206361 PUSH0 DUP3 ADD MSTORE PUSH32 0x6E2063616C6C20746869732066756E6374696F6E000000000000000000000000 PUSH1 0x20 DUP3 ADD MSTORE POP JUMP JUMPDEST PUSH0 PUSH2 0x1FC9 PUSH1 0x34 DUP4 PUSH2 0x1F5F JUMP JUMPDEST SWAP2 POP PUSH2 0x1FD4 DUP3 PUSH2 0x1F6F JUMP JUMPDEST PUSH1 0x40 DUP3 ADD SWAP1 POP SWAP2 SWAP1 POP JUMP JUMPDEST PUSH0 PUSH1 0x20 DUP3 ADD SWAP1 POP DUP2 DUP2 SUB PUSH0 DUP4 ADD MSTORE PUSH2 0x1FF6 DUP2 PUSH2 0x1FBD JUMP JUMPDEST SWAP1 POP SWAP2 SWAP1 POP JUMP JUMPDEST PUSH32 0x496E73756666696369656E742066756E64730000000000000000000000000000 PUSH0 DUP3 ADD MSTORE POP JUMP JUMPDEST PUSH0 PUSH2 0x2031 PUSH1 0x12 DUP4 PUSH2 0x1F5F JUMP JUMPDEST SWAP2 POP PUSH2 0x203C DUP3 PUSH2 0x1FFD JUMP JUMPDEST PUSH1 0x20 DUP3 ADD SWAP1 POP SWAP2 SWAP1 POP JUMP JUMPDEST PUSH0 PUSH1 0x20 DUP3 ADD SWAP1 POP DUP2 DUP2 SUB PUSH0 DUP4 ADD MSTORE PUSH2 0x205E DUP2 PUSH2 0x2025 JUMP JUMPDEST SWAP1 POP SWAP2 SWAP1 POP JUMP JUMPDEST PUSH0 DUP2 SWAP1 POP SWAP3 SWAP2 POP POP JUMP JUMPDEST POP JUMP JUMPDEST PUSH0 PUSH2 0x207D PUSH0 DUP4 PUSH2 0x2065 JUMP JUMPDEST SWAP2 POP PUSH2 0x2088 DUP3 PUSH2 0x206F JUMP JUMPDEST PUSH0 DUP3 ADD SWAP1 POP SWAP2 SWAP1 POP JUMP JUMPDEST PUSH0 PUSH2 0x209C DUP3 PUSH2 0x2072 JUMP JUMPDEST SWAP2 POP DUP2 SWAP1 POP SWAP2 SWAP1 POP JUMP JUMPDEST PUSH32 0x4661696C656420746F2073656E64204574686572000000000000000000000000 PUSH0 DUP3 ADD MSTORE POP JUMP JUMPDEST PUSH0 PUSH2 0x20DA PUSH1 0x14 DUP4 PUSH2 0x1F5F JUMP JUMPDEST SWAP2 POP PUSH2 0x20E5 DUP3 PUSH2 0x20A6 JUMP JUMPDEST PUSH1 0x20 DUP3 ADD SWAP1 POP SWAP2 SWAP1 POP JUMP JUMPDEST PUSH0 PUSH1 0x20 DUP3 ADD SWAP1 POP DUP2 DUP2 SUB PUSH0 DUP4 ADD MSTORE PUSH2 0x2107 DUP2 PUSH2 0x20CE JUMP JUMPDEST SWAP1 POP SWAP2 SWAP1 POP JUMP JUMPDEST PUSH0 DUP2 MLOAD SWAP1 POP SWAP2 SWAP1 POP JUMP JUMPDEST DUP3 DUP2 DUP4 MCOPY PUSH0 DUP4 DUP4 ADD MSTORE POP POP POP JUMP JUMPDEST PUSH0 PUSH2 0x2130 DUP3 PUSH2 0x210E JUMP JUMPDEST PUSH2 0x213A DUP2 DUP6 PUSH2 0x1F5F JUMP JUMPDEST SWAP4 POP PUSH2 0x214A DUP2 DUP6 PUSH1 0x20 DUP7 ADD PUSH2 0x2118 JUMP JUMPDEST PUSH2 0x2153 DUP2 PUSH2 0x1A90 JUMP JUMPDEST DUP5 ADD SWAP2 POP POP SWAP3 SWAP2 POP POP JUMP JUMPDEST PUSH0 DUP2 SWAP1 POP SWAP2 SWAP1 POP JUMP JUMPDEST PUSH0 PUSH2 0x2181 PUSH2 0x217C PUSH2 0x2177 DUP5 PUSH2 0x1C3A JUMP JUMPDEST PUSH2 0x215E JUMP JUMPDEST PUSH2 0x1C3A JUMP JUMPDEST SWAP1 POP SWAP2 SWAP1 POP JUMP JUMPDEST PUSH0 PUSH2 0x2192 DUP3 PUSH2 0x2167 JUMP JUMPDEST SWAP1 POP SWAP2 SWAP1 POP JUMP JUMPDEST PUSH0 PUSH2 0x21A3 DUP3 PUSH2 0x2188 JUMP JUMPDEST SWAP1 POP SWAP2 SWAP1 POP JUMP JUMPDEST PUSH2 0x21B3 DUP2 PUSH2 0x2199 JUMP JUMPDEST DUP3 MSTORE POP POP JUMP JUMPDEST PUSH0 PUSH1 0x80 DUP3 ADD SWAP1 POP DUP2 DUP2 SUB PUSH0 DUP4 ADD MSTORE PUSH2 0x21D1 DUP2 DUP8 PUSH2 0x2126 JUMP JUMPDEST SWAP1 POP DUP2 DUP2 SUB PUSH1 0x20 DUP4 ADD MSTORE PUSH2 0x21E5 DUP2 DUP7 PUSH2 0x2126 JUMP JUMPDEST SWAP1 POP PUSH2 0x21F4 PUSH1 0x40 DUP4 ADD DUP6 PUSH2 0x21AA JUMP JUMPDEST PUSH2 0x2201 PUSH1 0x60 DUP4 ADD DUP5 PUSH2 0x1C6A JUMP JUMPDEST SWAP6 SWAP5 POP POP POP POP POP JUMP JUMPDEST PUSH0 DUP2 MLOAD SWAP1 POP PUSH2 0x2218 DUP2 PUSH2 0x1DAA JUMP JUMPDEST SWAP3 SWAP2 POP POP JUMP JUMPDEST PUSH0 PUSH1 0x20 DUP3 DUP5 SUB SLT ISZERO PUSH2 0x2233 JUMPI PUSH2 0x2232 PUSH2 0x1A2B JUMP JUMPDEST JUMPDEST PUSH0 PUSH2 0x2240 DUP5 DUP3 DUP6 ADD PUSH2 0x220A JUMP JUMPDEST SWAP2 POP POP SWAP3 SWAP2 POP POP JUMP JUMPDEST PUSH32 0x56616C7565206E6F7420666F756E6420696E2061727261790000000000000000 PUSH0 DUP3 ADD MSTORE POP JUMP JUMPDEST PUSH0 PUSH2 0x227D PUSH1 0x18 DUP4 PUSH2 0x1F5F JUMP JUMPDEST SWAP2 POP PUSH2 0x2288 DUP3 PUSH2 0x2249 JUMP JUMPDEST PUSH1 0x20 DUP3 ADD SWAP1 POP SWAP2 SWAP1 POP JUMP JUMPDEST PUSH0 PUSH1 0x20 DUP3 ADD SWAP1 POP DUP2 DUP2 SUB PUSH0 DUP4 ADD MSTORE PUSH2 0x22AA DUP2 PUSH2 0x2271 JUMP JUMPDEST SWAP1 POP SWAP2 SWAP1 POP JUMP JUMPDEST PUSH32 0x4E487B7100000000000000000000000000000000000000000000000000000000 PUSH0 MSTORE PUSH1 0x11 PUSH1 0x4 MSTORE PUSH1 0x24 PUSH0 REVERT JUMPDEST PUSH0 PUSH2 0x22E8 DUP3 PUSH2 0x19F1 JUMP JUMPDEST SWAP2 POP PUSH2 0x22F3 DUP4 PUSH2 0x19F1 JUMP JUMPDEST SWAP3 POP DUP3 DUP3 SUB SWAP1 POP DUP2 DUP2 GT ISZERO PUSH2 0x230B JUMPI PUSH2 0x230A PUSH2 0x22B1 JUMP JUMPDEST JUMPDEST SWAP3 SWAP2 POP POP JUMP JUMPDEST PUSH0 PUSH2 0x231B DUP3 PUSH2 0x19F1 JUMP JUMPDEST SWAP2 POP PUSH2 0x2326 DUP4 PUSH2 0x19F1 JUMP JUMPDEST SWAP3 POP DUP3 DUP3 ADD SWAP1 POP DUP1 DUP3 GT ISZERO PUSH2 0x233E JUMPI PUSH2 0x233D PUSH2 0x22B1 JUMP JUMPDEST JUMPDEST SWAP3 SWAP2 POP POP JUMP JUMPDEST PUSH32 0x4E487B7100000000000000000000000000000000000000000000000000000000 PUSH0 MSTORE PUSH1 0x32 PUSH1 0x4 MSTORE PUSH1 0x24 PUSH0 REVERT JUMPDEST PUSH32 0x4E487B7100000000000000000000000000000000000000000000000000000000 PUSH0 MSTORE PUSH1 0x31 PUSH1 0x4 MSTORE PUSH1 0x24 PUSH0 REVERT JUMPDEST PUSH32 0x4578697374730000000000000000000000000000000000000000000000000000 PUSH0 DUP3 ADD MSTORE POP JUMP JUMPDEST PUSH0 PUSH2 0x23D2 PUSH1 0x6 DUP4 PUSH2 0x1F5F JUMP JUMPDEST SWAP2 POP PUSH2 0x23DD DUP3 PUSH2 0x239E JUMP JUMPDEST PUSH1 0x20 DUP3 ADD SWAP1 POP SWAP2 SWAP1 POP JUMP JUMPDEST PUSH0 PUSH1 0x20 DUP3 ADD SWAP1 POP DUP2 DUP2 SUB PUSH0 DUP4 ADD MSTORE PUSH2 0x23FF DUP2 PUSH2 0x23C6 JUMP JUMPDEST SWAP1 POP SWAP2 SWAP1 POP JUMP JUMPDEST PUSH0 PUSH1 0xE0 DUP3 ADD SWAP1 POP DUP2 DUP2 SUB PUSH0 DUP4 ADD MSTORE PUSH2 0x241E DUP2 DUP11 PUSH2 0x2126 JUMP JUMPDEST SWAP1 POP DUP2 DUP2 SUB PUSH1 0x20 DUP4 ADD MSTORE PUSH2 0x2432 DUP2 DUP10 PUSH2 0x2126 JUMP JUMPDEST SWAP1 POP DUP2 DUP2 SUB PUSH1 0x40 DUP4 ADD MSTORE PUSH2 0x2446 DUP2 DUP9 PUSH2 0x2126 JUMP JUMPDEST SWAP1 POP DUP2 DUP2 SUB PUSH1 0x60 DUP4 ADD MSTORE PUSH2 0x245A DUP2 DUP8 PUSH2 0x2126 JUMP JUMPDEST SWAP1 POP PUSH2 0x2469 PUSH1 0x80 DUP4 ADD DUP7 PUSH2 0x19FA JUMP JUMPDEST PUSH2 0x2476 PUSH1 0xA0 DUP4 ADD DUP6 PUSH2 0x21AA JUMP JUMPDEST PUSH2 0x2483 PUSH1 0xC0 DUP4 ADD DUP5 PUSH2 0x1C6A JUMP JUMPDEST SWAP9 SWAP8 POP POP POP POP POP POP POP POP JUMP JUMPDEST PUSH32 0x496E76616C696420616464726573730000000000000000000000000000000000 PUSH0 DUP3 ADD MSTORE POP JUMP JUMPDEST PUSH0 PUSH2 0x24C3 PUSH1 0xF DUP4 PUSH2 0x1F5F JUMP JUMPDEST SWAP2 POP PUSH2 0x24CE DUP3 PUSH2 0x248F JUMP JUMPDEST PUSH1 0x20 DUP3 ADD SWAP1 POP SWAP2 SWAP1 POP JUMP JUMPDEST PUSH0 PUSH1 0x20 DUP3 ADD SWAP1 POP DUP2 DUP2 SUB PUSH0 DUP4 ADD MSTORE PUSH2 0x24F0 DUP2 PUSH2 0x24B7 JUMP JUMPDEST SWAP1 POP SWAP2 SWAP1 POP JUMP JUMPDEST PUSH32 0x4974656D206E6F7420666F756E6420696E206172726179000000000000000000 PUSH0 DUP3 ADD MSTORE POP JUMP JUMPDEST PUSH0 PUSH2 0x252B PUSH1 0x17 DUP4 PUSH2 0x1F5F JUMP JUMPDEST SWAP2 POP PUSH2 0x2536 DUP3 PUSH2 0x24F7 JUMP JUMPDEST PUSH1 0x20 DUP3 ADD SWAP1 POP SWAP2 SWAP1 POP JUMP JUMPDEST PUSH0 PUSH1 0x20 DUP3 ADD SWAP1 POP DUP2 DUP2 SUB PUSH0 DUP4 ADD MSTORE PUSH2 0x2558 DUP2 PUSH2 0x251F JUMP JUMPDEST SWAP1 POP SWAP2 SWAP1 POP JUMP INVALID PUSH1 0x80 PUSH1 0x40 MSTORE CALLVALUE DUP1 ISZERO PUSH2 0xF JUMPI PUSH0 DUP1 REVERT JUMPDEST POP PUSH1 0x40 MLOAD PUSH2 0x14A1 CODESIZE SUB DUP1 PUSH2 0x14A1 DUP4 CODECOPY DUP2 DUP2 ADD PUSH1 0x40 MSTORE DUP2 ADD SWAP1 PUSH2 0x31 SWAP2 SWAP1 PUSH2 0x280 JUMP JUMPDEST DUP4 PUSH0 SWAP1 DUP2 PUSH2 0x3F SWAP2 SWAP1 PUSH2 0x529 JUMP JUMPDEST POP DUP3 PUSH1 0x1 SWAP1 DUP2 PUSH2 0x4F SWAP2 SWAP1 PUSH2 0x529 JUMP JUMPDEST POP DUP2 PUSH1 0x2 PUSH0 PUSH2 0x100 EXP DUP2 SLOAD DUP2 PUSH20 0xFFFFFFFFFFFFFFFFFFFFFFFFFFFFFFFFFFFFFFFF MUL NOT AND SWAP1 DUP4 PUSH20 0xFFFFFFFFFFFFFFFFFFFFFFFFFFFFFFFFFFFFFFFF AND MUL OR SWAP1 SSTORE POP DUP1 PUSH1 0x3 PUSH0 PUSH2 0x100 EXP DUP2 SLOAD DUP2 PUSH20 0xFFFFFFFFFFFFFFFFFFFFFFFFFFFFFFFFFFFFFFFF MUL NOT AND SWAP1 DUP4 PUSH20 0xFFFFFFFFFFFFFFFFFFFFFFFFFFFFFFFFFFFFFFFF AND MUL OR SWAP1 SSTORE POP POP POP POP POP PUSH2 0x5F8 JUMP JUMPDEST PUSH0 PUSH1 0x40 MLOAD SWAP1 POP SWAP1 JUMP JUMPDEST PUSH0 DUP1 REVERT JUMPDEST PUSH0 DUP1 REVERT JUMPDEST PUSH0 DUP1 REVERT JUMPDEST PUSH0 DUP1 REVERT JUMPDEST PUSH0 PUSH1 0x1F NOT PUSH1 0x1F DUP4 ADD AND SWAP1 POP SWAP2 SWAP1 POP JUMP JUMPDEST PUSH32 0x4E487B7100000000000000000000000000000000000000000000000000000000 PUSH0 MSTORE PUSH1 0x41 PUSH1 0x4 MSTORE PUSH1 0x24 PUSH0 REVERT JUMPDEST PUSH2 0x138 DUP3 PUSH2 0xF2 JUMP JUMPDEST DUP2 ADD DUP2 DUP2 LT PUSH8 0xFFFFFFFFFFFFFFFF DUP3 GT OR ISZERO PUSH2 0x157 JUMPI PUSH2 0x156 PUSH2 0x102 JUMP JUMPDEST JUMPDEST DUP1 PUSH1 0x40 MSTORE POP POP POP JUMP JUMPDEST PUSH0 PUSH2 0x169 PUSH2 0xD9 JUMP JUMPDEST SWAP1 POP PUSH2 0x175 DUP3 DUP3 PUSH2 0x12F JUMP JUMPDEST SWAP2 SWAP1 POP JUMP JUMPDEST PUSH0 PUSH8 0xFFFFFFFFFFFFFFFF DUP3 GT ISZERO PUSH2 0x194 JUMPI PUSH2 0x193 PUSH2 0x102 JUMP JUMPDEST JUMPDEST PUSH2 0x19D DUP3 PUSH2 0xF2 JUMP JUMPDEST SWAP1 POP PUSH1 0x20 DUP2 ADD SWAP1 POP SWAP2 SWAP1 POP JUMP JUMPDEST DUP3 DUP2 DUP4 MCOPY PUSH0 DUP4 DUP4 ADD MSTORE POP POP POP JUMP JUMPDEST PUSH0 PUSH2 0x1CA PUSH2 0x1C5 DUP5 PUSH2 0x17A JUMP JUMPDEST PUSH2 0x160 JUMP JUMPDEST SWAP1 POP DUP3 DUP2 MSTORE PUSH1 0x20 DUP2 ADD DUP5 DUP5 DUP5 ADD GT ISZERO PUSH2 0x1E6 JUMPI PUSH2 0x1E5 PUSH2 0xEE JUMP JUMPDEST JUMPDEST PUSH2 0x1F1 DUP5 DUP3 DUP6 PUSH2 0x1AA JUMP JUMPDEST POP SWAP4 SWAP3 POP POP POP JUMP JUMPDEST PUSH0 DUP3 PUSH1 0x1F DUP4 ADD SLT PUSH2 0x20D JUMPI PUSH2 0x20C PUSH2 0xEA JUMP JUMPDEST JUMPDEST DUP2 MLOAD PUSH2 0x21D DUP5 DUP3 PUSH1 0x20 DUP7 ADD PUSH2 0x1B8 JUMP JUMPDEST SWAP2 POP POP SWAP3 SWAP2 POP POP JUMP JUMPDEST PUSH0 PUSH20 0xFFFFFFFFFFFFFFFFFFFFFFFFFFFFFFFFFFFFFFFF DUP3 AND SWAP1 POP SWAP2 SWAP1 POP JUMP JUMPDEST PUSH0 PUSH2 0x24F DUP3 PUSH2 0x226 JUMP JUMPDEST SWAP1 POP SWAP2 SWAP1 POP JUMP JUMPDEST PUSH2 0x25F DUP2 PUSH2 0x245 JUMP JUMPDEST DUP2 EQ PUSH2 0x269 JUMPI PUSH0 DUP1 REVERT JUMPDEST POP JUMP JUMPDEST PUSH0 DUP2 MLOAD SWAP1 POP PUSH2 0x27A DUP2 PUSH2 0x256 JUMP JUMPDEST SWAP3 SWAP2 POP POP JUMP JUMPDEST PUSH0 DUP1 PUSH0 DUP1 PUSH1 0x80 DUP6 DUP8 SUB SLT ISZERO PUSH2 0x298 JUMPI PUSH2 0x297 PUSH2 0xE2 JUMP JUMPDEST JUMPDEST PUSH0 DUP6 ADD MLOAD PUSH8 0xFFFFFFFFFFFFFFFF DUP2 GT ISZERO PUSH2 0x2B5 JUMPI PUSH2 0x2B4 PUSH2 0xE6 JUMP JUMPDEST JUMPDEST PUSH2 0x2C1 DUP8 DUP3 DUP9 ADD PUSH2 0x1F9 JUMP JUMPDEST SWAP5 POP POP PUSH1 0x20 DUP6 ADD MLOAD PUSH8 0xFFFFFFFFFFFFFFFF DUP2 GT ISZERO PUSH2 0x2E2 JUMPI PUSH2 0x2E1 PUSH2 0xE6 JUMP JUMPDEST JUMPDEST PUSH2 0x2EE DUP8 DUP3 DUP9 ADD PUSH2 0x1F9 JUMP JUMPDEST SWAP4 POP POP PUSH1 0x40 PUSH2 0x2FF DUP8 DUP3 DUP9 ADD PUSH2 0x26C JUMP JUMPDEST SWAP3 POP POP PUSH1 0x60 PUSH2 0x310 DUP8 DUP3 DUP9 ADD PUSH2 0x26C JUMP JUMPDEST SWAP2 POP POP SWAP3 SWAP6 SWAP2 SWAP5 POP SWAP3 POP JUMP JUMPDEST PUSH0 DUP2 MLOAD SWAP1 POP SWAP2 SWAP1 POP JUMP JUMPDEST PUSH32 0x4E487B7100000000000000000000000000000000000000000000000000000000 PUSH0 MSTORE PUSH1 0x22 PUSH1 0x4 MSTORE PUSH1 0x24 PUSH0 REVERT JUMPDEST PUSH0 PUSH1 0x2 DUP3 DIV SWAP1 POP PUSH1 0x1 DUP3 AND DUP1 PUSH2 0x36A JUMPI PUSH1 0x7F DUP3 AND SWAP2 POP JUMPDEST PUSH1 0x20 DUP3 LT DUP2 SUB PUSH2 0x37D JUMPI PUSH2 0x37C PUSH2 0x326 JUMP JUMPDEST JUMPDEST POP SWAP2 SWAP1 POP JUMP JUMPDEST PUSH0 DUP2 SWAP1 POP DUP2 PUSH0 MSTORE PUSH1 0x20 PUSH0 KECCAK256 SWAP1 POP SWAP2 SWAP1 POP JUMP JUMPDEST PUSH0 PUSH1 0x20 PUSH1 0x1F DUP4 ADD DIV SWAP1 POP SWAP2 SWAP1 POP JUMP JUMPDEST PUSH0 DUP3 DUP3 SHL SWAP1 POP SWAP3 SWAP2 POP POP JUMP JUMPDEST PUSH0 PUSH1 0x8 DUP4 MUL PUSH2 0x3DF PUSH32 0xFFFFFFFFFFFFFFFFFFFFFFFFFFFFFFFFFFFFFFFFFFFFFFFFFFFFFFFFFFFFFFFF DUP3 PUSH2 0x3A4 JUMP JUMPDEST PUSH2 0x3E9 DUP7 DUP4 PUSH2 0x3A4 JUMP JUMPDEST SWAP6 POP DUP1 NOT DUP5 AND SWAP4 POP DUP1 DUP7 AND DUP5 OR SWAP3 POP POP POP SWAP4 SWAP3 POP POP POP JUMP JUMPDEST PUSH0 DUP2 SWAP1 POP SWAP2 SWAP1 POP JUMP JUMPDEST PUSH0 DUP2 SWAP1 POP SWAP2 SWAP1 POP JUMP JUMPDEST PUSH0 PUSH2 0x42D PUSH2 0x428 PUSH2 0x423 DUP5 PUSH2 0x401 JUMP JUMPDEST PUSH2 0x40A JUMP JUMPDEST PUSH2 0x401 JUMP JUMPDEST SWAP1 POP SWAP2 SWAP1 POP JUMP JUMPDEST PUSH0 DUP2 SWAP1 POP SWAP2 SWAP1 POP JUMP JUMPDEST PUSH2 0x446 DUP4 PUSH2 0x413 JUMP JUMPDEST PUSH2 0x45A PUSH2 0x452 DUP3 PUSH2 0x434 JUMP JUMPDEST DUP5 DUP5 SLOAD PUSH2 0x3B0 JUMP JUMPDEST DUP3 SSTORE POP POP POP POP JUMP JUMPDEST PUSH0 SWAP1 JUMP JUMPDEST PUSH2 0x46E PUSH2 0x462 JUMP JUMPDEST PUSH2 0x479 DUP2 DUP5 DUP5 PUSH2 0x43D JUMP JUMPDEST POP POP POP JUMP JUMPDEST JUMPDEST DUP2 DUP2 LT ISZERO PUSH2 0x49C JUMPI PUSH2 0x491 PUSH0 DUP3 PUSH2 0x466 JUMP JUMPDEST PUSH1 0x1 DUP2 ADD SWAP1 POP PUSH2 0x47F JUMP JUMPDEST POP POP JUMP JUMPDEST PUSH1 0x1F DUP3 GT ISZERO PUSH2 0x4E1 JUMPI PUSH2 0x4B2 DUP2 PUSH2 0x383 JUMP JUMPDEST PUSH2 0x4BB DUP5 PUSH2 0x395 JUMP JUMPDEST DUP2 ADD PUSH1 0x20 DUP6 LT ISZERO PUSH2 0x4CA JUMPI DUP2 SWAP1 POP JUMPDEST PUSH2 0x4DE PUSH2 0x4D6 DUP6 PUSH2 0x395 JUMP JUMPDEST DUP4 ADD DUP3 PUSH2 0x47E JUMP JUMPDEST POP POP JUMPDEST POP POP POP JUMP JUMPDEST PUSH0 DUP3 DUP3 SHR SWAP1 POP SWAP3 SWAP2 POP POP JUMP JUMPDEST PUSH0 PUSH2 0x501 PUSH0 NOT DUP5 PUSH1 0x8 MUL PUSH2 0x4E6 JUMP JUMPDEST NOT DUP1 DUP4 AND SWAP2 POP POP SWAP3 SWAP2 POP POP JUMP JUMPDEST PUSH0 PUSH2 0x519 DUP4 DUP4 PUSH2 0x4F2 JUMP JUMPDEST SWAP2 POP DUP3 PUSH1 0x2 MUL DUP3 OR SWAP1 POP SWAP3 SWAP2 POP POP JUMP JUMPDEST PUSH2 0x532 DUP3 PUSH2 0x31C JUMP JUMPDEST PUSH8 0xFFFFFFFFFFFFFFFF DUP2 GT ISZERO PUSH2 0x54B JUMPI PUSH2 0x54A PUSH2 0x102 JUMP JUMPDEST JUMPDEST PUSH2 0x555 DUP3 SLOAD PUSH2 0x353 JUMP JUMPDEST PUSH2 0x560 DUP3 DUP3 DUP6 PUSH2 0x4A0 JUMP JUMPDEST PUSH0 PUSH1 0x20 SWAP1 POP PUSH1 0x1F DUP4 GT PUSH1 0x1 DUP2 EQ PUSH2 0x591 JUMPI PUSH0 DUP5 ISZERO PUSH2 0x57F JUMPI DUP3 DUP8 ADD MLOAD SWAP1 POP JUMPDEST PUSH2 0x589 DUP6 DUP3 PUSH2 0x50E JUMP JUMPDEST DUP7 SSTORE POP PUSH2 0x5F0 JUMP JUMPDEST PUSH1 0x1F NOT DUP5 AND PUSH2 0x59F DUP7 PUSH2 0x383 JUMP JUMPDEST PUSH0 JUMPDEST DUP3 DUP2 LT ISZERO PUSH2 0x5C6 JUMPI DUP5 DUP10 ADD MLOAD DUP3 SSTORE PUSH1 0x1 DUP3 ADD SWAP2 POP PUSH1 0x20 DUP6 ADD SWAP5 POP PUSH1 0x20 DUP2 ADD SWAP1 POP PUSH2 0x5A1 JUMP JUMPDEST DUP7 DUP4 LT ISZERO PUSH2 0x5E3 JUMPI DUP5 DUP10 ADD MLOAD PUSH2 0x5DF PUSH1 0x1F DUP10 AND DUP3 PUSH2 0x4F2 JUMP JUMPDEST DUP4 SSTORE POP JUMPDEST PUSH1 0x1 PUSH1 0x2 DUP9 MUL ADD DUP9 SSTORE POP POP POP JUMPDEST POP POP POP POP POP POP JUMP JUMPDEST PUSH2 0xE9C DUP1 PUSH2 0x605 PUSH0 CODECOPY PUSH0 RETURN INVALID PUSH1 0x80 PUSH1 0x40 MSTORE CALLVALUE DUP1 ISZERO PUSH2 0xF JUMPI PUSH0 DUP1 REVERT JUMPDEST POP PUSH1 0x4 CALLDATASIZE LT PUSH2 0x60 JUMPI PUSH0 CALLDATALOAD PUSH1 0xE0 SHR DUP1 PUSH4 0x1499C592 EQ PUSH2 0x64 JUMPI DUP1 PUSH4 0x38CC4831 EQ PUSH2 0x80 JUMPI DUP1 PUSH4 0x5112F02C EQ PUSH2 0x9E JUMPI DUP1 PUSH4 0x80F76021 EQ PUSH2 0xBD JUMPI DUP1 PUSH4 0xC47F0027 EQ PUSH2 0xDB JUMPI DUP1 PUSH4 0xEFD8AF9F EQ PUSH2 0xF7 JUMPI JUMPDEST PUSH0 DUP1 REVERT JUMPDEST PUSH2 0x7E PUSH1 0x4 DUP1 CALLDATASIZE SUB DUP2 ADD SWAP1 PUSH2 0x79 SWAP2 SWAP1 PUSH2 0x89B JUMP JUMPDEST PUSH2 0x113 JUMP JUMPDEST STOP JUMPDEST PUSH2 0x88 PUSH2 0x23C JUMP JUMPDEST PUSH1 0x40 MLOAD PUSH2 0x95 SWAP2 SWAP1 PUSH2 0x8D5 JUMP JUMPDEST PUSH1 0x40 MLOAD DUP1 SWAP2 SUB SWAP1 RETURN JUMPDEST PUSH2 0xA6 PUSH2 0x329 JUMP JUMPDEST PUSH1 0x40 MLOAD PUSH2 0xB4 SWAP3 SWAP2 SWAP1 PUSH2 0x95E JUMP JUMPDEST PUSH1 0x40 MLOAD DUP1 SWAP2 SUB SWAP1 RETURN JUMPDEST PUSH2 0xC5 PUSH2 0x531 JUMP JUMPDEST PUSH1 0x40 MLOAD PUSH2 0xD2 SWAP2 SWAP1 PUSH2 0x8D5 JUMP JUMPDEST PUSH1 0x40 MLOAD DUP1 SWAP2 SUB SWAP1 RETURN JUMPDEST PUSH2 0xF5 PUSH1 0x4 DUP1 CALLDATASIZE SUB DUP2 ADD SWAP1 PUSH2 0xF0 SWAP2 SWAP1 PUSH2 0xABF JUMP JUMPDEST PUSH2 0x63F JUMP JUMPDEST STOP JUMPDEST PUSH2 0x111 PUSH1 0x4 DUP1 CALLDATASIZE SUB DUP2 ADD SWAP1 PUSH2 0x10C SWAP2 SWAP1 PUSH2 0xABF JUMP JUMPDEST PUSH2 0x737 JUMP JUMPDEST STOP JUMPDEST PUSH1 0x2 PUSH0 SWAP1 SLOAD SWAP1 PUSH2 0x100 EXP SWAP1 DIV PUSH20 0xFFFFFFFFFFFFFFFFFFFFFFFFFFFFFFFFFFFFFFFF AND PUSH20 0xFFFFFFFFFFFFFFFFFFFFFFFFFFFFFFFFFFFFFFFF AND CALLER PUSH20 0xFFFFFFFFFFFFFFFFFFFFFFFFFFFFFFFFFFFFFFFF AND EQ DUP1 PUSH2 0x1BA JUMPI POP PUSH1 0x3 PUSH0 SWAP1 SLOAD SWAP1 PUSH2 0x100 EXP SWAP1 DIV PUSH20 0xFFFFFFFFFFFFFFFFFFFFFFFFFFFFFFFFFFFFFFFF AND PUSH20 0xFFFFFFFFFFFFFFFFFFFFFFFFFFFFFFFFFFFFFFFF AND CALLER PUSH20 0xFFFFFFFFFFFFFFFFFFFFFFFFFFFFFFFFFFFFFFFF AND EQ JUMPDEST PUSH2 0x1F9 JUMPI PUSH1 0x40 MLOAD PUSH32 0x8C379A000000000000000000000000000000000000000000000000000000000 DUP2 MSTORE PUSH1 0x4 ADD PUSH2 0x1F0 SWAP1 PUSH2 0xB76 JUMP JUMPDEST PUSH1 0x40 MLOAD DUP1 SWAP2 SUB SWAP1 REVERT JUMPDEST DUP1 PUSH1 0x3 PUSH0 PUSH2 0x100 EXP DUP2 SLOAD DUP2 PUSH20 0xFFFFFFFFFFFFFFFFFFFFFFFFFFFFFFFFFFFFFFFF MUL NOT AND SWAP1 DUP4 PUSH20 0xFFFFFFFFFFFFFFFFFFFFFFFFFFFFFFFFFFFFFFFF AND MUL OR SWAP1 SSTORE POP POP JUMP JUMPDEST PUSH0 PUSH1 0x2 PUSH0 SWAP1 SLOAD SWAP1 PUSH2 0x100 EXP SWAP1 DIV PUSH20 0xFFFFFFFFFFFFFFFFFFFFFFFFFFFFFFFFFFFFFFFF AND PUSH20 0xFFFFFFFFFFFFFFFFFFFFFFFFFFFFFFFFFFFFFFFF AND CALLER PUSH20 0xFFFFFFFFFFFFFFFFFFFFFFFFFFFFFFFFFFFFFFFF AND EQ DUP1 PUSH2 0x2E4 JUMPI POP PUSH1 0x3 PUSH0 SWAP1 SLOAD SWAP1 PUSH2 0x100 EXP SWAP1 DIV PUSH20 0xFFFFFFFFFFFFFFFFFFFFFFFFFFFFFFFFFFFFFFFF AND PUSH20 0xFFFFFFFFFFFFFFFFFFFFFFFFFFFFFFFFFFFFFFFF AND CALLER PUSH20 0xFFFFFFFFFFFFFFFFFFFFFFFFFFFFFFFFFFFFFFFF AND EQ JUMPDEST PUSH2 0x323 JUMPI PUSH1 0x40 MLOAD PUSH32 0x8C379A000000000000000000000000000000000000000000000000000000000 DUP2 MSTORE PUSH1 0x4 ADD PUSH2 0x31A SWAP1 PUSH2 0xB76 JUMP JUMPDEST PUSH1 0x40 MLOAD DUP1 SWAP2 SUB SWAP1 REVERT JUMPDEST ADDRESS SWAP1 POP SWAP1 JUMP JUMPDEST PUSH1 0x60 DUP1 PUSH1 0x2 PUSH0 SWAP1 SLOAD SWAP1 PUSH2 0x100 EXP SWAP1 DIV PUSH20 0xFFFFFFFFFFFFFFFFFFFFFFFFFFFFFFFFFFFFFFFF AND PUSH20 0xFFFFFFFFFFFFFFFFFFFFFFFFFFFFFFFFFFFFFFFF AND CALLER PUSH20 0xFFFFFFFFFFFFFFFFFFFFFFFFFFFFFFFFFFFFFFFF AND EQ DUP1 PUSH2 0x3D3 JUMPI POP PUSH1 0x3 PUSH0 SWAP1 SLOAD SWAP1 PUSH2 0x100 EXP SWAP1 DIV PUSH20 0xFFFFFFFFFFFFFFFFFFFFFFFFFFFFFFFFFFFFFFFF AND PUSH20 0xFFFFFFFFFFFFFFFFFFFFFFFFFFFFFFFFFFFFFFFF AND CALLER PUSH20 0xFFFFFFFFFFFFFFFFFFFFFFFFFFFFFFFFFFFFFFFF AND EQ JUMPDEST PUSH2 0x412 JUMPI PUSH1 0x40 MLOAD PUSH32 0x8C379A000000000000000000000000000000000000000000000000000000000 DUP2 MSTORE PUSH1 0x4 ADD PUSH2 0x409 SWAP1 PUSH2 0xB76 JUMP JUMPDEST PUSH1 0x40 MLOAD DUP1 SWAP2 SUB SWAP1 REVERT JUMPDEST PUSH0 PUSH1 0x1 DUP2 DUP1 SLOAD PUSH2 0x421 SWAP1 PUSH2 0xBC1 JUMP JUMPDEST DUP1 PUSH1 0x1F ADD PUSH1 0x20 DUP1 SWAP2 DIV MUL PUSH1 0x20 ADD PUSH1 0x40 MLOAD SWAP1 DUP2 ADD PUSH1 0x40 MSTORE DUP1 SWAP3 SWAP2 SWAP1 DUP2 DUP2 MSTORE PUSH1 0x20 ADD DUP3 DUP1 SLOAD PUSH2 0x44D SWAP1 PUSH2 0xBC1 JUMP JUMPDEST DUP1 ISZERO PUSH2 0x498 JUMPI DUP1 PUSH1 0x1F LT PUSH2 0x46F JUMPI PUSH2 0x100 DUP1 DUP4 SLOAD DIV MUL DUP4 MSTORE SWAP2 PUSH1 0x20 ADD SWAP2 PUSH2 0x498 JUMP JUMPDEST DUP3 ADD SWAP2 SWAP1 PUSH0 MSTORE PUSH1 0x20 PUSH0 KECCAK256 SWAP1 JUMPDEST DUP2 SLOAD DUP2 MSTORE SWAP1 PUSH1 0x1 ADD SWAP1 PUSH1 0x20 ADD DUP1 DUP4 GT PUSH2 0x47B JUMPI DUP3 SWAP1 SUB PUSH1 0x1F AND DUP3 ADD SWAP2 JUMPDEST POP POP POP POP POP SWAP2 POP DUP1 DUP1 SLOAD PUSH2 0x4AB SWAP1 PUSH2 0xBC1 JUMP JUMPDEST DUP1 PUSH1 0x1F ADD PUSH1 0x20 DUP1 SWAP2 DIV MUL PUSH1 0x20 ADD PUSH1 0x40 MLOAD SWAP1 DUP2 ADD PUSH1 0x40 MSTORE DUP1 SWAP3 SWAP2 SWAP1 DUP2 DUP2 MSTORE PUSH1 0x20 ADD DUP3 DUP1 SLOAD PUSH2 0x4D7 SWAP1 PUSH2 0xBC1 JUMP JUMPDEST DUP1 ISZERO PUSH2 0x522 JUMPI DUP1 PUSH1 0x1F LT PUSH2 0x4F9 JUMPI PUSH2 0x100 DUP1 DUP4 SLOAD DIV MUL DUP4 MSTORE SWAP2 PUSH1 0x20 ADD SWAP2 PUSH2 0x522 JUMP JUMPDEST DUP3 ADD SWAP2 SWAP1 PUSH0 MSTORE PUSH1 0x20 PUSH0 KECCAK256 SWAP1 JUMPDEST DUP2 SLOAD DUP2 MSTORE SWAP1 PUSH1 0x1 ADD SWAP1 PUSH1 0x20 ADD DUP1 DUP4 GT PUSH2 0x505 JUMPI DUP3 SWAP1 SUB PUSH1 0x1F AND DUP3 ADD SWAP2 JUMPDEST POP POP POP POP POP SWAP1 POP SWAP2 POP SWAP2 POP SWAP1 SWAP2 JUMP JUMPDEST PUSH0 PUSH1 0x2 PUSH0 SWAP1 SLOAD SWAP1 PUSH2 0x100 EXP SWAP1 DIV PUSH20 0xFFFFFFFFFFFFFFFFFFFFFFFFFFFFFFFFFFFFFFFF AND PUSH20 0xFFFFFFFFFFFFFFFFFFFFFFFFFFFFFFFFFFFFFFFF AND CALLER PUSH20 0xFFFFFFFFFFFFFFFFFFFFFFFFFFFFFFFFFFFFFFFF AND EQ DUP1 PUSH2 0x5D9 JUMPI POP PUSH1 0x3 PUSH0 SWAP1 SLOAD SWAP1 PUSH2 0x100 EXP SWAP1 DIV PUSH20 0xFFFFFFFFFFFFFFFFFFFFFFFFFFFFFFFFFFFFFFFF AND PUSH20 0xFFFFFFFFFFFFFFFFFFFFFFFFFFFFFFFFFFFFFFFF AND CALLER PUSH20 0xFFFFFFFFFFFFFFFFFFFFFFFFFFFFFFFFFFFFFFFF AND EQ JUMPDEST PUSH2 0x618 JUMPI PUSH1 0x40 MLOAD PUSH32 0x8C379A000000000000000000000000000000000000000000000000000000000 DUP2 MSTORE PUSH1 0x4 ADD PUSH2 0x60F SWAP1 PUSH2 0xB76 JUMP JUMPDEST PUSH1 0x40 MLOAD DUP1 SWAP2 SUB SWAP1 REVERT JUMPDEST PUSH1 0x3 PUSH0 SWAP1 SLOAD SWAP1 PUSH2 0x100 EXP SWAP1 DIV PUSH20 0xFFFFFFFFFFFFFFFFFFFFFFFFFFFFFFFFFFFFFFFF AND SWAP1 POP SWAP1 JUMP JUMPDEST PUSH1 0x2 PUSH0 SWAP1 SLOAD SWAP1 PUSH2 0x100 EXP SWAP1 DIV PUSH20 0xFFFFFFFFFFFFFFFFFFFFFFFFFFFFFFFFFFFFFFFF AND PUSH20 0xFFFFFFFFFFFFFFFFFFFFFFFFFFFFFFFFFFFFFFFF AND CALLER PUSH20 0xFFFFFFFFFFFFFFFFFFFFFFFFFFFFFFFFFFFFFFFF AND EQ DUP1 PUSH2 0x6E6 JUMPI POP PUSH1 0x3 PUSH0 SWAP1 SLOAD SWAP1 PUSH2 0x100 EXP SWAP1 DIV PUSH20 0xFFFFFFFFFFFFFFFFFFFFFFFFFFFFFFFFFFFFFFFF AND PUSH20 0xFFFFFFFFFFFFFFFFFFFFFFFFFFFFFFFFFFFFFFFF AND CALLER PUSH20 0xFFFFFFFFFFFFFFFFFFFFFFFFFFFFFFFFFFFFFFFF AND EQ JUMPDEST PUSH2 0x725 JUMPI PUSH1 0x40 MLOAD PUSH32 0x8C379A000000000000000000000000000000000000000000000000000000000 DUP2 MSTORE PUSH1 0x4 ADD PUSH2 0x71C SWAP1 PUSH2 0xB76 JUMP JUMPDEST PUSH1 0x40 MLOAD DUP1 SWAP2 SUB SWAP1 REVERT JUMPDEST DUP1 PUSH0 SWAP1 DUP2 PUSH2 0x733 SWAP2 SWAP1 PUSH2 0xD97 JUMP JUMPDEST POP POP JUMP JUMPDEST PUSH1 0x2 PUSH0 SWAP1 SLOAD SWAP1 PUSH2 0x100 EXP SWAP1 DIV PUSH20 0xFFFFFFFFFFFFFFFFFFFFFFFFFFFFFFFFFFFFFFFF AND PUSH20 0xFFFFFFFFFFFFFFFFFFFFFFFFFFFFFFFFFFFFFFFF AND CALLER PUSH20 0xFFFFFFFFFFFFFFFFFFFFFFFFFFFFFFFFFFFFFFFF AND EQ DUP1 PUSH2 0x7DE JUMPI POP PUSH1 0x3 PUSH0 SWAP1 SLOAD SWAP1 PUSH2 0x100 EXP SWAP1 DIV PUSH20 0xFFFFFFFFFFFFFFFFFFFFFFFFFFFFFFFFFFFFFFFF AND PUSH20 0xFFFFFFFFFFFFFFFFFFFFFFFFFFFFFFFFFFFFFFFF AND CALLER PUSH20 0xFFFFFFFFFFFFFFFFFFFFFFFFFFFFFFFFFFFFFFFF AND EQ JUMPDEST PUSH2 0x81D JUMPI PUSH1 0x40 MLOAD PUSH32 0x8C379A000000000000000000000000000000000000000000000000000000000 DUP2 MSTORE PUSH1 0x4 ADD PUSH2 0x814 SWAP1 PUSH2 0xB76 JUMP JUMPDEST PUSH1 0x40 MLOAD DUP1 SWAP2 SUB SWAP1 REVERT JUMPDEST DUP1 PUSH1 0x1 SWAP1 DUP2 PUSH2 0x82C SWAP2 SWAP1 PUSH2 0xD97 JUMP JUMPDEST POP POP JUMP JUMPDEST PUSH0 PUSH1 0x40 MLOAD SWAP1 POP SWAP1 JUMP JUMPDEST PUSH0 DUP1 REVERT JUMPDEST PUSH0 DUP1 REVERT JUMPDEST PUSH0 PUSH20 0xFFFFFFFFFFFFFFFFFFFFFFFFFFFFFFFFFFFFFFFF DUP3 AND SWAP1 POP SWAP2 SWAP1 POP JUMP JUMPDEST PUSH0 PUSH2 0x86A DUP3 PUSH2 0x841 JUMP JUMPDEST SWAP1 POP SWAP2 SWAP1 POP JUMP JUMPDEST PUSH2 0x87A DUP2 PUSH2 0x860 JUMP JUMPDEST DUP2 EQ PUSH2 0x884 JUMPI PUSH0 DUP1 REVERT JUMPDEST POP JUMP JUMPDEST PUSH0 DUP2 CALLDATALOAD SWAP1 POP PUSH2 0x895 DUP2 PUSH2 0x871 JUMP JUMPDEST SWAP3 SWAP2 POP POP JUMP JUMPDEST PUSH0 PUSH1 0x20 DUP3 DUP5 SUB SLT ISZERO PUSH2 0x8B0 JUMPI PUSH2 0x8AF PUSH2 0x839 JUMP JUMPDEST JUMPDEST PUSH0 PUSH2 0x8BD DUP5 DUP3 DUP6 ADD PUSH2 0x887 JUMP JUMPDEST SWAP2 POP POP SWAP3 SWAP2 POP POP JUMP JUMPDEST PUSH2 0x8CF DUP2 PUSH2 0x860 JUMP JUMPDEST DUP3 MSTORE POP POP JUMP JUMPDEST PUSH0 PUSH1 0x20 DUP3 ADD SWAP1 POP PUSH2 0x8E8 PUSH0 DUP4 ADD DUP5 PUSH2 0x8C6 JUMP JUMPDEST SWAP3 SWAP2 POP POP JUMP JUMPDEST PUSH0 DUP2 MLOAD SWAP1 POP SWAP2 SWAP1 POP JUMP JUMPDEST PUSH0 DUP3 DUP3 MSTORE PUSH1 0x20 DUP3 ADD SWAP1 POP SWAP3 SWAP2 POP POP JUMP JUMPDEST DUP3 DUP2 DUP4 MCOPY PUSH0 DUP4 DUP4 ADD MSTORE POP POP POP JUMP JUMPDEST PUSH0 PUSH1 0x1F NOT PUSH1 0x1F DUP4 ADD AND SWAP1 POP SWAP2 SWAP1 POP JUMP JUMPDEST PUSH0 PUSH2 0x930 DUP3 PUSH2 0x8EE JUMP JUMPDEST PUSH2 0x93A DUP2 DUP6 PUSH2 0x8F8 JUMP JUMPDEST SWAP4 POP PUSH2 0x94A DUP2 DUP6 PUSH1 0x20 DUP7 ADD PUSH2 0x908 JUMP JUMPDEST PUSH2 0x953 DUP2 PUSH2 0x916 JUMP JUMPDEST DUP5 ADD SWAP2 POP POP SWAP3 SWAP2 POP POP JUMP JUMPDEST PUSH0 PUSH1 0x40 DUP3 ADD SWAP1 POP DUP2 DUP2 SUB PUSH0 DUP4 ADD MSTORE PUSH2 0x976 DUP2 DUP6 PUSH2 0x926 JUMP JUMPDEST SWAP1 POP DUP2 DUP2 SUB PUSH1 0x20 DUP4 ADD MSTORE PUSH2 0x98A DUP2 DUP5 PUSH2 0x926 JUMP JUMPDEST SWAP1 POP SWAP4 SWAP3 POP POP POP JUMP JUMPDEST PUSH0 DUP1 REVERT JUMPDEST PUSH0 DUP1 REVERT JUMPDEST PUSH32 0x4E487B7100000000000000000000000000000000000000000000000000000000 PUSH0 MSTORE PUSH1 0x41 PUSH1 0x4 MSTORE PUSH1 0x24 PUSH0 REVERT JUMPDEST PUSH2 0x9D1 DUP3 PUSH2 0x916 JUMP JUMPDEST DUP2 ADD DUP2 DUP2 LT PUSH8 0xFFFFFFFFFFFFFFFF DUP3 GT OR ISZERO PUSH2 0x9F0 JUMPI PUSH2 0x9EF PUSH2 0x99B JUMP JUMPDEST JUMPDEST DUP1 PUSH1 0x40 MSTORE POP POP POP JUMP JUMPDEST PUSH0 PUSH2 0xA02 PUSH2 0x830 JUMP JUMPDEST SWAP1 POP PUSH2 0xA0E DUP3 DUP3 PUSH2 0x9C8 JUMP JUMPDEST SWAP2 SWAP1 POP JUMP JUMPDEST PUSH0 PUSH8 0xFFFFFFFFFFFFFFFF DUP3 GT ISZERO PUSH2 0xA2D JUMPI PUSH2 0xA2C PUSH2 0x99B JUMP JUMPDEST JUMPDEST PUSH2 0xA36 DUP3 PUSH2 0x916 JUMP JUMPDEST SWAP1 POP PUSH1 0x20 DUP2 ADD SWAP1 POP SWAP2 SWAP1 POP JUMP JUMPDEST DUP3 DUP2 DUP4 CALLDATACOPY PUSH0 DUP4 DUP4 ADD MSTORE POP POP POP JUMP JUMPDEST PUSH0 PUSH2 0xA63 PUSH2 0xA5E DUP5 PUSH2 0xA13 JUMP JUMPDEST PUSH2 0x9F9 JUMP JUMPDEST SWAP1 POP DUP3 DUP2 MSTORE PUSH1 0x20 DUP2 ADD DUP5 DUP5 DUP5 ADD GT ISZERO PUSH2 0xA7F JUMPI PUSH2 0xA7E PUSH2 0x997 JUMP JUMPDEST JUMPDEST PUSH2 0xA8A DUP5 DUP3 DUP6 PUSH2 0xA43 JUMP JUMPDEST POP SWAP4 SWAP3 POP POP POP JUMP JUMPDEST PUSH0 DUP3 PUSH1 0x1F DUP4 ADD SLT PUSH2 0xAA6 JUMPI PUSH2 0xAA5 PUSH2 0x993 JUMP JUMPDEST JUMPDEST DUP2 CALLDATALOAD PUSH2 0xAB6 DUP5 DUP3 PUSH1 0x20 DUP7 ADD PUSH2 0xA51 JUMP JUMPDEST SWAP2 POP POP SWAP3 SWAP2 POP POP JUMP JUMPDEST PUSH0 PUSH1 0x20 DUP3 DUP5 SUB SLT ISZERO PUSH2 0xAD4 JUMPI PUSH2 0xAD3 PUSH2 0x839 JUMP JUMPDEST JUMPDEST PUSH0 DUP3 ADD CALLDATALOAD PUSH8 0xFFFFFFFFFFFFFFFF DUP2 GT ISZERO PUSH2 0xAF1 JUMPI PUSH2 0xAF0 PUSH2 0x83D JUMP JUMPDEST JUMPDEST PUSH2 0xAFD DUP5 DUP3 DUP6 ADD PUSH2 0xA92 JUMP JUMPDEST SWAP2 POP POP SWAP3 SWAP2 POP POP JUMP JUMPDEST PUSH32 0x4F6E6C7920746865206F776E65722063616E2063616C6C20746869732066756E PUSH0 DUP3 ADD MSTORE PUSH32 0x6374696F6E000000000000000000000000000000000000000000000000000000 PUSH1 0x20 DUP3 ADD MSTORE POP JUMP JUMPDEST PUSH0 PUSH2 0xB60 PUSH1 0x25 DUP4 PUSH2 0x8F8 JUMP JUMPDEST SWAP2 POP PUSH2 0xB6B DUP3 PUSH2 0xB06 JUMP JUMPDEST PUSH1 0x40 DUP3 ADD SWAP1 POP SWAP2 SWAP1 POP JUMP JUMPDEST PUSH0 PUSH1 0x20 DUP3 ADD SWAP1 POP DUP2 DUP2 SUB PUSH0 DUP4 ADD MSTORE PUSH2 0xB8D DUP2 PUSH2 0xB54 JUMP JUMPDEST SWAP1 POP SWAP2 SWAP1 POP JUMP JUMPDEST PUSH32 0x4E487B7100000000000000000000000000000000000000000000000000000000 PUSH0 MSTORE PUSH1 0x22 PUSH1 0x4 MSTORE PUSH1 0x24 PUSH0 REVERT JUMPDEST PUSH0 PUSH1 0x2 DUP3 DIV SWAP1 POP PUSH1 0x1 DUP3 AND DUP1 PUSH2 0xBD8 JUMPI PUSH1 0x7F DUP3 AND SWAP2 POP JUMPDEST PUSH1 0x20 DUP3 LT DUP2 SUB PUSH2 0xBEB JUMPI PUSH2 0xBEA PUSH2 0xB94 JUMP JUMPDEST JUMPDEST POP SWAP2 SWAP1 POP JUMP JUMPDEST PUSH0 DUP2 SWAP1 POP DUP2 PUSH0 MSTORE PUSH1 0x20 PUSH0 KECCAK256 SWAP1 POP SWAP2 SWAP1 POP JUMP JUMPDEST PUSH0 PUSH1 0x20 PUSH1 0x1F DUP4 ADD DIV SWAP1 POP SWAP2 SWAP1 POP JUMP JUMPDEST PUSH0 DUP3 DUP3 SHL SWAP1 POP SWAP3 SWAP2 POP POP JUMP JUMPDEST PUSH0 PUSH1 0x8 DUP4 MUL PUSH2 0xC4D PUSH32 0xFFFFFFFFFFFFFFFFFFFFFFFFFFFFFFFFFFFFFFFFFFFFFFFFFFFFFFFFFFFFFFFF DUP3 PUSH2 0xC12 JUMP JUMPDEST PUSH2 0xC57 DUP7 DUP4 PUSH2 0xC12 JUMP JUMPDEST SWAP6 POP DUP1 NOT DUP5 AND SWAP4 POP DUP1 DUP7 AND DUP5 OR SWAP3 POP POP POP SWAP4 SWAP3 POP POP POP JUMP JUMPDEST PUSH0 DUP2 SWAP1 POP SWAP2 SWAP1 POP JUMP JUMPDEST PUSH0 DUP2 SWAP1 POP SWAP2 SWAP1 POP JUMP JUMPDEST PUSH0 PUSH2 0xC9B PUSH2 0xC96 PUSH2 0xC91 DUP5 PUSH2 0xC6F JUMP JUMPDEST PUSH2 0xC78 JUMP JUMPDEST PUSH2 0xC6F JUMP JUMPDEST SWAP1 POP SWAP2 SWAP1 POP JUMP JUMPDEST PUSH0 DUP2 SWAP1 POP SWAP2 SWAP1 POP JUMP JUMPDEST PUSH2 0xCB4 DUP4 PUSH2 0xC81 JUMP JUMPDEST PUSH2 0xCC8 PUSH2 0xCC0 DUP3 PUSH2 0xCA2 JUMP JUMPDEST DUP5 DUP5 SLOAD PUSH2 0xC1E JUMP JUMPDEST DUP3 SSTORE POP POP POP POP JUMP JUMPDEST PUSH0 SWAP1 JUMP JUMPDEST PUSH2 0xCDC PUSH2 0xCD0 JUMP JUMPDEST PUSH2 0xCE7 DUP2 DUP5 DUP5 PUSH2 0xCAB JUMP JUMPDEST POP POP POP JUMP JUMPDEST JUMPDEST DUP2 DUP2 LT ISZERO PUSH2 0xD0A JUMPI PUSH2 0xCFF PUSH0 DUP3 PUSH2 0xCD4 JUMP JUMPDEST PUSH1 0x1 DUP2 ADD SWAP1 POP PUSH2 0xCED JUMP JUMPDEST POP POP JUMP JUMPDEST PUSH1 0x1F DUP3 GT ISZERO PUSH2 0xD4F JUMPI PUSH2 0xD20 DUP2 PUSH2 0xBF1 JUMP JUMPDEST PUSH2 0xD29 DUP5 PUSH2 0xC03 JUMP JUMPDEST DUP2 ADD PUSH1 0x20 DUP6 LT ISZERO PUSH2 0xD38 JUMPI DUP2 SWAP1 POP JUMPDEST PUSH2 0xD4C PUSH2 0xD44 DUP6 PUSH2 0xC03 JUMP JUMPDEST DUP4 ADD DUP3 PUSH2 0xCEC JUMP JUMPDEST POP POP JUMPDEST POP POP POP JUMP JUMPDEST PUSH0 DUP3 DUP3 SHR SWAP1 POP SWAP3 SWAP2 POP POP JUMP JUMPDEST PUSH0 PUSH2 0xD6F PUSH0 NOT DUP5 PUSH1 0x8 MUL PUSH2 0xD54 JUMP JUMPDEST NOT DUP1 DUP4 AND SWAP2 POP POP SWAP3 SWAP2 POP POP JUMP JUMPDEST PUSH0 PUSH2 0xD87 DUP4 DUP4 PUSH2 0xD60 JUMP JUMPDEST SWAP2 POP DUP3 PUSH1 0x2 MUL DUP3 OR SWAP1 POP SWAP3 SWAP2 POP POP JUMP JUMPDEST PUSH2 0xDA0 DUP3 PUSH2 0x8EE JUMP JUMPDEST PUSH8 0xFFFFFFFFFFFFFFFF DUP2 GT ISZERO PUSH2 0xDB9 JUMPI PUSH2 0xDB8 PUSH2 0x99B JUMP JUMPDEST JUMPDEST PUSH2 0xDC3 DUP3 SLOAD PUSH2 0xBC1 JUMP JUMPDEST PUSH2 0xDCE DUP3 DUP3 DUP6 PUSH2 0xD0E JUMP JUMPDEST PUSH0 PUSH1 0x20 SWAP1 POP PUSH1 0x1F DUP4 GT PUSH1 0x1 DUP2 EQ PUSH2 0xDFF JUMPI PUSH0 DUP5 ISZERO PUSH2 0xDED JUMPI DUP3 DUP8 ADD MLOAD SWAP1 POP JUMPDEST PUSH2 0xDF7 DUP6 DUP3 PUSH2 0xD7C JUMP JUMPDEST DUP7 SSTORE POP PUSH2 0xE5E JUMP JUMPDEST PUSH1 0x1F NOT DUP5 AND PUSH2 0xE0D DUP7 PUSH2 0xBF1 JUMP JUMPDEST PUSH0 JUMPDEST DUP3 DUP2 LT ISZERO PUSH2 0xE34 JUMPI DUP5 DUP10 ADD MLOAD DUP3 SSTORE PUSH1 0x1 DUP3 ADD SWAP2 POP PUSH1 0x20 DUP6 ADD SWAP5 POP PUSH1 0x20 DUP2 ADD SWAP1 POP PUSH2 0xE0F JUMP JUMPDEST DUP7 DUP4 LT ISZERO PUSH2 0xE51 JUMPI DUP5 DUP10 ADD MLOAD PUSH2 0xE4D PUSH1 0x1F DUP10 AND DUP3 PUSH2 0xD60 JUMP JUMPDEST DUP4 SSTORE POP JUMPDEST PUSH1 0x1 PUSH1 0x2 DUP9 MUL ADD DUP9 SSTORE POP POP POP JUMPDEST POP POP POP POP POP POP JUMP INVALID LOG2 PUSH5 0x6970667358 0x22 SLT KECCAK256 0xC6 0xA7 SWAP15 0xD9 0xEA 0x28 PC CALL CALLDATALOAD PUSH31 0x30B2A167186A7B796DB79C779F87A742BADB11C5639264736F6C634300081A STOP CALLER PUSH1 0x80 PUSH1 0x40 MSTORE CALLVALUE DUP1 ISZERO PUSH2 0xF JUMPI PUSH0 DUP1 REVERT JUMPDEST POP PUSH1 0x40 MLOAD PUSH2 0x16D8 CODESIZE SUB DUP1 PUSH2 0x16D8 DUP4 CODECOPY DUP2 DUP2 ADD PUSH1 0x40 MSTORE DUP2 ADD SWAP1 PUSH2 0x31 SWAP2 SWAP1 PUSH2 0x2DD JUMP JUMPDEST DUP7 PUSH0 SWAP1 DUP2 PUSH2 0x3F SWAP2 SWAP1 PUSH2 0x5EE JUMP JUMPDEST POP DUP6 PUSH1 0x1 SWAP1 DUP2 PUSH2 0x4F SWAP2 SWAP1 PUSH2 0x5EE JUMP JUMPDEST POP DUP5 PUSH1 0x2 SWAP1 DUP2 PUSH2 0x5F SWAP2 SWAP1 PUSH2 0x5EE JUMP JUMPDEST POP DUP4 PUSH1 0x3 SWAP1 DUP2 PUSH2 0x6F SWAP2 SWAP1 PUSH2 0x5EE JUMP JUMPDEST POP DUP3 PUSH1 0x4 DUP2 SWAP1 SSTORE POP DUP2 PUSH1 0x5 PUSH0 PUSH2 0x100 EXP DUP2 SLOAD DUP2 PUSH20 0xFFFFFFFFFFFFFFFFFFFFFFFFFFFFFFFFFFFFFFFF MUL NOT AND SWAP1 DUP4 PUSH20 0xFFFFFFFFFFFFFFFFFFFFFFFFFFFFFFFFFFFFFFFF AND MUL OR SWAP1 SSTORE POP DUP1 PUSH1 0x6 PUSH0 PUSH2 0x100 EXP DUP2 SLOAD DUP2 PUSH20 0xFFFFFFFFFFFFFFFFFFFFFFFFFFFFFFFFFFFFFFFF MUL NOT AND SWAP1 DUP4 PUSH20 0xFFFFFFFFFFFFFFFFFFFFFFFFFFFFFFFFFFFFFFFF AND MUL OR SWAP1 SSTORE POP POP POP POP POP POP POP POP PUSH2 0x6BD JUMP JUMPDEST PUSH0 PUSH1 0x40 MLOAD SWAP1 POP SWAP1 JUMP JUMPDEST PUSH0 DUP1 REVERT JUMPDEST PUSH0 DUP1 REVERT JUMPDEST PUSH0 DUP1 REVERT JUMPDEST PUSH0 DUP1 REVERT JUMPDEST PUSH0 PUSH1 0x1F NOT PUSH1 0x1F DUP4 ADD AND SWAP1 POP SWAP2 SWAP1 POP JUMP JUMPDEST PUSH32 0x4E487B7100000000000000000000000000000000000000000000000000000000 PUSH0 MSTORE PUSH1 0x41 PUSH1 0x4 MSTORE PUSH1 0x24 PUSH0 REVERT JUMPDEST PUSH2 0x162 DUP3 PUSH2 0x11C JUMP JUMPDEST DUP2 ADD DUP2 DUP2 LT PUSH8 0xFFFFFFFFFFFFFFFF DUP3 GT OR ISZERO PUSH2 0x181 JUMPI PUSH2 0x180 PUSH2 0x12C JUMP JUMPDEST JUMPDEST DUP1 PUSH1 0x40 MSTORE POP POP POP JUMP JUMPDEST PUSH0 PUSH2 0x193 PUSH2 0x103 JUMP JUMPDEST SWAP1 POP PUSH2 0x19F DUP3 DUP3 PUSH2 0x159 JUMP JUMPDEST SWAP2 SWAP1 POP JUMP JUMPDEST PUSH0 PUSH8 0xFFFFFFFFFFFFFFFF DUP3 GT ISZERO PUSH2 0x1BE JUMPI PUSH2 0x1BD PUSH2 0x12C JUMP JUMPDEST JUMPDEST PUSH2 0x1C7 DUP3 PUSH2 0x11C JUMP JUMPDEST SWAP1 POP PUSH1 0x20 DUP2 ADD SWAP1 POP SWAP2 SWAP1 POP JUMP JUMPDEST DUP3 DUP2 DUP4 MCOPY PUSH0 DUP4 DUP4 ADD MSTORE POP POP POP JUMP JUMPDEST PUSH0 PUSH2 0x1F4 PUSH2 0x1EF DUP5 PUSH2 0x1A4 JUMP JUMPDEST PUSH2 0x18A JUMP JUMPDEST SWAP1 POP DUP3 DUP2 MSTORE PUSH1 0x20 DUP2 ADD DUP5 DUP5 DUP5 ADD GT ISZERO PUSH2 0x210 JUMPI PUSH2 0x20F PUSH2 0x118 JUMP JUMPDEST JUMPDEST PUSH2 0x21B DUP5 DUP3 DUP6 PUSH2 0x1D4 JUMP JUMPDEST POP SWAP4 SWAP3 POP POP POP JUMP JUMPDEST PUSH0 DUP3 PUSH1 0x1F DUP4 ADD SLT PUSH2 0x237 JUMPI PUSH2 0x236 PUSH2 0x114 JUMP JUMPDEST JUMPDEST DUP2 MLOAD PUSH2 0x247 DUP5 DUP3 PUSH1 0x20 DUP7 ADD PUSH2 0x1E2 JUMP JUMPDEST SWAP2 POP POP SWAP3 SWAP2 POP POP JUMP JUMPDEST PUSH0 DUP2 SWAP1 POP SWAP2 SWAP1 POP JUMP JUMPDEST PUSH2 0x262 DUP2 PUSH2 0x250 JUMP JUMPDEST DUP2 EQ PUSH2 0x26C JUMPI PUSH0 DUP1 REVERT JUMPDEST POP JUMP JUMPDEST PUSH0 DUP2 MLOAD SWAP1 POP PUSH2 0x27D DUP2 PUSH2 0x259 JUMP JUMPDEST SWAP3 SWAP2 POP POP JUMP JUMPDEST PUSH0 PUSH20 0xFFFFFFFFFFFFFFFFFFFFFFFFFFFFFFFFFFFFFFFF DUP3 AND SWAP1 POP SWAP2 SWAP1 POP JUMP JUMPDEST PUSH0 PUSH2 0x2AC DUP3 PUSH2 0x283 JUMP JUMPDEST SWAP1 POP SWAP2 SWAP1 POP JUMP JUMPDEST PUSH2 0x2BC DUP2 PUSH2 0x2A2 JUMP JUMPDEST DUP2 EQ PUSH2 0x2C6 JUMPI PUSH0 DUP1 REVERT JUMPDEST POP JUMP JUMPDEST PUSH0 DUP2 MLOAD SWAP1 POP PUSH2 0x2D7 DUP2 PUSH2 0x2B3 JUMP JUMPDEST SWAP3 SWAP2 POP POP JUMP JUMPDEST PUSH0 DUP1 PUSH0 DUP1 PUSH0 DUP1 PUSH0 PUSH1 0xE0 DUP9 DUP11 SUB SLT ISZERO PUSH2 0x2F8 JUMPI PUSH2 0x2F7 PUSH2 0x10C JUMP JUMPDEST JUMPDEST PUSH0 DUP9 ADD MLOAD PUSH8 0xFFFFFFFFFFFFFFFF DUP2 GT ISZERO PUSH2 0x315 JUMPI PUSH2 0x314 PUSH2 0x110 JUMP JUMPDEST JUMPDEST PUSH2 0x321 DUP11 DUP3 DUP12 ADD PUSH2 0x223 JUMP JUMPDEST SWAP8 POP POP PUSH1 0x20 DUP9 ADD MLOAD PUSH8 0xFFFFFFFFFFFFFFFF DUP2 GT ISZERO PUSH2 0x342 JUMPI PUSH2 0x341 PUSH2 0x110 JUMP JUMPDEST JUMPDEST PUSH2 0x34E DUP11 DUP3 DUP12 ADD PUSH2 0x223 JUMP JUMPDEST SWAP7 POP POP PUSH1 0x40 DUP9 ADD MLOAD PUSH8 0xFFFFFFFFFFFFFFFF DUP2 GT ISZERO PUSH2 0x36F JUMPI PUSH2 0x36E PUSH2 0x110 JUMP JUMPDEST JUMPDEST PUSH2 0x37B DUP11 DUP3 DUP12 ADD PUSH2 0x223 JUMP JUMPDEST SWAP6 POP POP PUSH1 0x60 DUP9 ADD MLOAD PUSH8 0xFFFFFFFFFFFFFFFF DUP2 GT ISZERO PUSH2 0x39C JUMPI PUSH2 0x39B PUSH2 0x110 JUMP JUMPDEST JUMPDEST PUSH2 0x3A8 DUP11 DUP3 DUP12 ADD PUSH2 0x223 JUMP JUMPDEST SWAP5 POP POP PUSH1 0x80 PUSH2 0x3B9 DUP11 DUP3 DUP12 ADD PUSH2 0x26F JUMP JUMPDEST SWAP4 POP POP PUSH1 0xA0 PUSH2 0x3CA DUP11 DUP3 DUP12 ADD PUSH2 0x2C9 JUMP JUMPDEST SWAP3 POP POP PUSH1 0xC0 PUSH2 0x3DB DUP11 DUP3 DUP12 ADD PUSH2 0x2C9 JUMP JUMPDEST SWAP2 POP POP SWAP3 SWAP6 SWAP9 SWAP2 SWAP5 SWAP8 POP SWAP3 SWAP6 POP JUMP JUMPDEST PUSH0 DUP2 MLOAD SWAP1 POP SWAP2 SWAP1 POP JUMP JUMPDEST PUSH32 0x4E487B7100000000000000000000000000000000000000000000000000000000 PUSH0 MSTORE PUSH1 0x22 PUSH1 0x4 MSTORE PUSH1 0x24 PUSH0 REVERT JUMPDEST PUSH0 PUSH1 0x2 DUP3 DIV SWAP1 POP PUSH1 0x1 DUP3 AND DUP1 PUSH2 0x438 JUMPI PUSH1 0x7F DUP3 AND SWAP2 POP JUMPDEST PUSH1 0x20 DUP3 LT DUP2 SUB PUSH2 0x44B JUMPI PUSH2 0x44A PUSH2 0x3F4 JUMP JUMPDEST JUMPDEST POP SWAP2 SWAP1 POP JUMP JUMPDEST PUSH0 DUP2 SWAP1 POP DUP2 PUSH0 MSTORE PUSH1 0x20 PUSH0 KECCAK256 SWAP1 POP SWAP2 SWAP1 POP JUMP JUMPDEST PUSH0 PUSH1 0x20 PUSH1 0x1F DUP4 ADD DIV SWAP1 POP SWAP2 SWAP1 POP JUMP JUMPDEST PUSH0 DUP3 DUP3 SHL SWAP1 POP SWAP3 SWAP2 POP POP JUMP JUMPDEST PUSH0 PUSH1 0x8 DUP4 MUL PUSH2 0x4AD PUSH32 0xFFFFFFFFFFFFFFFFFFFFFFFFFFFFFFFFFFFFFFFFFFFFFFFFFFFFFFFFFFFFFFFF DUP3 PUSH2 0x472 JUMP JUMPDEST PUSH2 0x4B7 DUP7 DUP4 PUSH2 0x472 JUMP JUMPDEST SWAP6 POP DUP1 NOT DUP5 AND SWAP4 POP DUP1 DUP7 AND DUP5 OR SWAP3 POP POP POP SWAP4 SWAP3 POP POP POP JUMP JUMPDEST PUSH0 DUP2 SWAP1 POP SWAP2 SWAP1 POP JUMP JUMPDEST PUSH0 PUSH2 0x4F2 PUSH2 0x4ED PUSH2 0x4E8 DUP5 PUSH2 0x250 JUMP JUMPDEST PUSH2 0x4CF JUMP JUMPDEST PUSH2 0x250 JUMP JUMPDEST SWAP1 POP SWAP2 SWAP1 POP JUMP JUMPDEST PUSH0 DUP2 SWAP1 POP SWAP2 SWAP1 POP JUMP JUMPDEST PUSH2 0x50B DUP4 PUSH2 0x4D8 JUMP JUMPDEST PUSH2 0x51F PUSH2 0x517 DUP3 PUSH2 0x4F9 JUMP JUMPDEST DUP5 DUP5 SLOAD PUSH2 0x47E JUMP JUMPDEST DUP3 SSTORE POP POP POP POP JUMP JUMPDEST PUSH0 SWAP1 JUMP JUMPDEST PUSH2 0x533 PUSH2 0x527 JUMP JUMPDEST PUSH2 0x53E DUP2 DUP5 DUP5 PUSH2 0x502 JUMP JUMPDEST POP POP POP JUMP JUMPDEST JUMPDEST DUP2 DUP2 LT ISZERO PUSH2 0x561 JUMPI PUSH2 0x556 PUSH0 DUP3 PUSH2 0x52B JUMP JUMPDEST PUSH1 0x1 DUP2 ADD SWAP1 POP PUSH2 0x544 JUMP JUMPDEST POP POP JUMP JUMPDEST PUSH1 0x1F DUP3 GT ISZERO PUSH2 0x5A6 JUMPI PUSH2 0x577 DUP2 PUSH2 0x451 JUMP JUMPDEST PUSH2 0x580 DUP5 PUSH2 0x463 JUMP JUMPDEST DUP2 ADD PUSH1 0x20 DUP6 LT ISZERO PUSH2 0x58F JUMPI DUP2 SWAP1 POP JUMPDEST PUSH2 0x5A3 PUSH2 0x59B DUP6 PUSH2 0x463 JUMP JUMPDEST DUP4 ADD DUP3 PUSH2 0x543 JUMP JUMPDEST POP POP JUMPDEST POP POP POP JUMP JUMPDEST PUSH0 DUP3 DUP3 SHR SWAP1 POP SWAP3 SWAP2 POP POP JUMP JUMPDEST PUSH0 PUSH2 0x5C6 PUSH0 NOT DUP5 PUSH1 0x8 MUL PUSH2 0x5AB JUMP JUMPDEST NOT DUP1 DUP4 AND SWAP2 POP POP SWAP3 SWAP2 POP POP JUMP JUMPDEST PUSH0 PUSH2 0x5DE DUP4 DUP4 PUSH2 0x5B7 JUMP JUMPDEST SWAP2 POP DUP3 PUSH1 0x2 MUL DUP3 OR SWAP1 POP SWAP3 SWAP2 POP POP JUMP JUMPDEST PUSH2 0x5F7 DUP3 PUSH2 0x3EA JUMP JUMPDEST PUSH8 0xFFFFFFFFFFFFFFFF DUP2 GT ISZERO PUSH2 0x610 JUMPI PUSH2 0x60F PUSH2 0x12C JUMP JUMPDEST JUMPDEST PUSH2 0x61A DUP3 SLOAD PUSH2 0x421 JUMP JUMPDEST PUSH2 0x625 DUP3 DUP3 DUP6 PUSH2 0x565 JUMP JUMPDEST PUSH0 PUSH1 0x20 SWAP1 POP PUSH1 0x1F DUP4 GT PUSH1 0x1 DUP2 EQ PUSH2 0x656 JUMPI PUSH0 DUP5 ISZERO PUSH2 0x644 JUMPI DUP3 DUP8 ADD MLOAD SWAP1 POP JUMPDEST PUSH2 0x64E DUP6 DUP3 PUSH2 0x5D3 JUMP JUMPDEST DUP7 SSTORE POP PUSH2 0x6B5 JUMP JUMPDEST PUSH1 0x1F NOT DUP5 AND PUSH2 0x664 DUP7 PUSH2 0x451 JUMP JUMPDEST PUSH0 JUMPDEST DUP3 DUP2 LT ISZERO PUSH2 0x68B JUMPI DUP5 DUP10 ADD MLOAD DUP3 SSTORE PUSH1 0x1 DUP3 ADD SWAP2 POP PUSH1 0x20 DUP6 ADD SWAP5 POP PUSH1 0x20 DUP2 ADD SWAP1 POP PUSH2 0x666 JUMP JUMPDEST DUP7 DUP4 LT ISZERO PUSH2 0x6A8 JUMPI DUP5 DUP10 ADD MLOAD PUSH2 0x6A4 PUSH1 0x1F DUP10 AND DUP3 PUSH2 0x5B7 JUMP JUMPDEST DUP4 SSTORE POP JUMPDEST PUSH1 0x1 PUSH1 0x2 DUP9 MUL ADD DUP9 SSTORE POP POP POP JUMPDEST POP POP POP POP POP POP JUMP JUMPDEST PUSH2 0x100E DUP1 PUSH2 0x6CA PUSH0 CODECOPY PUSH0 RETURN INVALID PUSH1 0x80 PUSH1 0x40 MSTORE CALLVALUE DUP1 ISZERO PUSH2 0xF JUMPI PUSH0 DUP1 REVERT JUMPDEST POP PUSH1 0x4 CALLDATASIZE LT PUSH2 0x60 JUMPI PUSH0 CALLDATALOAD PUSH1 0xE0 SHR DUP1 PUSH4 0x1499C592 EQ PUSH2 0x64 JUMPI DUP1 PUSH4 0x38CC4831 EQ PUSH2 0x80 JUMPI DUP1 PUSH4 0x5112F02C EQ PUSH2 0x9E JUMPI DUP1 PUSH4 0x80F76021 EQ PUSH2 0xC0 JUMPI DUP1 PUSH4 0xC47F0027 EQ PUSH2 0xDE JUMPI DUP1 PUSH4 0xEFD8AF9F EQ PUSH2 0xFA JUMPI JUMPDEST PUSH0 DUP1 REVERT JUMPDEST PUSH2 0x7E PUSH1 0x4 DUP1 CALLDATASIZE SUB DUP2 ADD SWAP1 PUSH2 0x79 SWAP2 SWAP1 PUSH2 0x9C6 JUMP JUMPDEST PUSH2 0x116 JUMP JUMPDEST STOP JUMPDEST PUSH2 0x88 PUSH2 0x23F JUMP JUMPDEST PUSH1 0x40 MLOAD PUSH2 0x95 SWAP2 SWAP1 PUSH2 0xA00 JUMP JUMPDEST PUSH1 0x40 MLOAD DUP1 SWAP2 SUB SWAP1 RETURN JUMPDEST PUSH2 0xA6 PUSH2 0x32C JUMP JUMPDEST PUSH1 0x40 MLOAD PUSH2 0xB7 SWAP6 SWAP5 SWAP4 SWAP3 SWAP2 SWAP1 PUSH2 0xAA1 JUMP JUMPDEST PUSH1 0x40 MLOAD DUP1 SWAP2 SUB SWAP1 RETURN JUMPDEST PUSH2 0xC8 PUSH2 0x65C JUMP JUMPDEST PUSH1 0x40 MLOAD PUSH2 0xD5 SWAP2 SWAP1 PUSH2 0xA00 JUMP JUMPDEST PUSH1 0x40 MLOAD DUP1 SWAP2 SUB SWAP1 RETURN JUMPDEST PUSH2 0xF8 PUSH1 0x4 DUP1 CALLDATASIZE SUB DUP2 ADD SWAP1 PUSH2 0xF3 SWAP2 SWAP1 PUSH2 0xC3A JUMP JUMPDEST PUSH2 0x76A JUMP JUMPDEST STOP JUMPDEST PUSH2 0x114 PUSH1 0x4 DUP1 CALLDATASIZE SUB DUP2 ADD SWAP1 PUSH2 0x10F SWAP2 SWAP1 PUSH2 0xC3A JUMP JUMPDEST PUSH2 0x862 JUMP JUMPDEST STOP JUMPDEST PUSH1 0x5 PUSH0 SWAP1 SLOAD SWAP1 PUSH2 0x100 EXP SWAP1 DIV PUSH20 0xFFFFFFFFFFFFFFFFFFFFFFFFFFFFFFFFFFFFFFFF AND PUSH20 0xFFFFFFFFFFFFFFFFFFFFFFFFFFFFFFFFFFFFFFFF AND CALLER PUSH20 0xFFFFFFFFFFFFFFFFFFFFFFFFFFFFFFFFFFFFFFFF AND EQ DUP1 PUSH2 0x1BD JUMPI POP PUSH1 0x6 PUSH0 SWAP1 SLOAD SWAP1 PUSH2 0x100 EXP SWAP1 DIV PUSH20 0xFFFFFFFFFFFFFFFFFFFFFFFFFFFFFFFFFFFFFFFF AND PUSH20 0xFFFFFFFFFFFFFFFFFFFFFFFFFFFFFFFFFFFFFFFF AND CALLER PUSH20 0xFFFFFFFFFFFFFFFFFFFFFFFFFFFFFFFFFFFFFFFF AND EQ JUMPDEST PUSH2 0x1FC JUMPI PUSH1 0x40 MLOAD PUSH32 0x8C379A000000000000000000000000000000000000000000000000000000000 DUP2 MSTORE PUSH1 0x4 ADD PUSH2 0x1F3 SWAP1 PUSH2 0xCF1 JUMP JUMPDEST PUSH1 0x40 MLOAD DUP1 SWAP2 SUB SWAP1 REVERT JUMPDEST DUP1 PUSH1 0x6 PUSH0 PUSH2 0x100 EXP DUP2 SLOAD DUP2 PUSH20 0xFFFFFFFFFFFFFFFFFFFFFFFFFFFFFFFFFFFFFFFF MUL NOT AND SWAP1 DUP4 PUSH20 0xFFFFFFFFFFFFFFFFFFFFFFFFFFFFFFFFFFFFFFFF AND MUL OR SWAP1 SSTORE POP POP JUMP JUMPDEST PUSH0 PUSH1 0x5 PUSH0 SWAP1 SLOAD SWAP1 PUSH2 0x100 EXP SWAP1 DIV PUSH20 0xFFFFFFFFFFFFFFFFFFFFFFFFFFFFFFFFFFFFFFFF AND PUSH20 0xFFFFFFFFFFFFFFFFFFFFFFFFFFFFFFFFFFFFFFFF AND CALLER PUSH20 0xFFFFFFFFFFFFFFFFFFFFFFFFFFFFFFFFFFFFFFFF AND EQ DUP1 PUSH2 0x2E7 JUMPI POP PUSH1 0x6 PUSH0 SWAP1 SLOAD SWAP1 PUSH2 0x100 EXP SWAP1 DIV PUSH20 0xFFFFFFFFFFFFFFFFFFFFFFFFFFFFFFFFFFFFFFFF AND PUSH20 0xFFFFFFFFFFFFFFFFFFFFFFFFFFFFFFFFFFFFFFFF AND CALLER PUSH20 0xFFFFFFFFFFFFFFFFFFFFFFFFFFFFFFFFFFFFFFFF AND EQ JUMPDEST PUSH2 0x326 JUMPI PUSH1 0x40 MLOAD PUSH32 0x8C379A000000000000000000000000000000000000000000000000000000000 DUP2 MSTORE PUSH1 0x4 ADD PUSH2 0x31D SWAP1 PUSH2 0xCF1 JUMP JUMPDEST PUSH1 0x40 MLOAD DUP1 SWAP2 SUB SWAP1 REVERT JUMPDEST ADDRESS SWAP1 POP SWAP1 JUMP JUMPDEST PUSH1 0x60 DUP1 PUSH1 0x60 DUP1 PUSH0 PUSH1 0x5 PUSH0 SWAP1 SLOAD SWAP1 PUSH2 0x100 EXP SWAP1 DIV PUSH20 0xFFFFFFFFFFFFFFFFFFFFFFFFFFFFFFFFFFFFFFFF AND PUSH20 0xFFFFFFFFFFFFFFFFFFFFFFFFFFFFFFFFFFFFFFFF AND CALLER PUSH20 0xFFFFFFFFFFFFFFFFFFFFFFFFFFFFFFFFFFFFFFFF AND EQ DUP1 PUSH2 0x3DA JUMPI POP PUSH1 0x6 PUSH0 SWAP1 SLOAD SWAP1 PUSH2 0x100 EXP SWAP1 DIV PUSH20 0xFFFFFFFFFFFFFFFFFFFFFFFFFFFFFFFFFFFFFFFF AND PUSH20 0xFFFFFFFFFFFFFFFFFFFFFFFFFFFFFFFFFFFFFFFF AND CALLER PUSH20 0xFFFFFFFFFFFFFFFFFFFFFFFFFFFFFFFFFFFFFFFF AND EQ JUMPDEST PUSH2 0x419 JUMPI PUSH1 0x40 MLOAD PUSH32 0x8C379A000000000000000000000000000000000000000000000000000000000 DUP2 MSTORE PUSH1 0x4 ADD PUSH2 0x410 SWAP1 PUSH2 0xCF1 JUMP JUMPDEST PUSH1 0x40 MLOAD DUP1 SWAP2 SUB SWAP1 REVERT JUMPDEST PUSH0 PUSH1 0x1 PUSH1 0x2 PUSH1 0x3 PUSH1 0x4 SLOAD DUP5 DUP1 SLOAD PUSH2 0x42F SWAP1 PUSH2 0xD3C JUMP JUMPDEST DUP1 PUSH1 0x1F ADD PUSH1 0x20 DUP1 SWAP2 DIV MUL PUSH1 0x20 ADD PUSH1 0x40 MLOAD SWAP1 DUP2 ADD PUSH1 0x40 MSTORE DUP1 SWAP3 SWAP2 SWAP1 DUP2 DUP2 MSTORE PUSH1 0x20 ADD DUP3 DUP1 SLOAD PUSH2 0x45B SWAP1 PUSH2 0xD3C JUMP JUMPDEST DUP1 ISZERO PUSH2 0x4A6 JUMPI DUP1 PUSH1 0x1F LT PUSH2 0x47D JUMPI PUSH2 0x100 DUP1 DUP4 SLOAD DIV MUL DUP4 MSTORE SWAP2 PUSH1 0x20 ADD SWAP2 PUSH2 0x4A6 JUMP JUMPDEST DUP3 ADD SWAP2 SWAP1 PUSH0 MSTORE PUSH1 0x20 PUSH0 KECCAK256 SWAP1 JUMPDEST DUP2 SLOAD DUP2 MSTORE SWAP1 PUSH1 0x1 ADD SWAP1 PUSH1 0x20 ADD DUP1 DUP4 GT PUSH2 0x489 JUMPI DUP3 SWAP1 SUB PUSH1 0x1F AND DUP3 ADD SWAP2 JUMPDEST POP POP POP POP POP SWAP5 POP DUP4 DUP1 SLOAD PUSH2 0x4B9 SWAP1 PUSH2 0xD3C JUMP JUMPDEST DUP1 PUSH1 0x1F ADD PUSH1 0x20 DUP1 SWAP2 DIV MUL PUSH1 0x20 ADD PUSH1 0x40 MLOAD SWAP1 DUP2 ADD PUSH1 0x40 MSTORE DUP1 SWAP3 SWAP2 SWAP1 DUP2 DUP2 MSTORE PUSH1 0x20 ADD DUP3 DUP1 SLOAD PUSH2 0x4E5 SWAP1 PUSH2 0xD3C JUMP JUMPDEST DUP1 ISZERO PUSH2 0x530 JUMPI DUP1 PUSH1 0x1F LT PUSH2 0x507 JUMPI PUSH2 0x100 DUP1 DUP4 SLOAD DIV MUL DUP4 MSTORE SWAP2 PUSH1 0x20 ADD SWAP2 PUSH2 0x530 JUMP JUMPDEST DUP3 ADD SWAP2 SWAP1 PUSH0 MSTORE PUSH1 0x20 PUSH0 KECCAK256 SWAP1 JUMPDEST DUP2 SLOAD DUP2 MSTORE SWAP1 PUSH1 0x1 ADD SWAP1 PUSH1 0x20 ADD DUP1 DUP4 GT PUSH2 0x513 JUMPI DUP3 SWAP1 SUB PUSH1 0x1F AND DUP3 ADD SWAP2 JUMPDEST POP POP POP POP POP SWAP4 POP DUP3 DUP1 SLOAD PUSH2 0x543 SWAP1 PUSH2 0xD3C JUMP JUMPDEST DUP1 PUSH1 0x1F ADD PUSH1 0x20 DUP1 SWAP2 DIV MUL PUSH1 0x20 ADD PUSH1 0x40 MLOAD SWAP1 DUP2 ADD PUSH1 0x40 MSTORE DUP1 SWAP3 SWAP2 SWAP1 DUP2 DUP2 MSTORE PUSH1 0x20 ADD DUP3 DUP1 SLOAD PUSH2 0x56F SWAP1 PUSH2 0xD3C JUMP JUMPDEST DUP1 ISZERO PUSH2 0x5BA JUMPI DUP1 PUSH1 0x1F LT PUSH2 0x591 JUMPI PUSH2 0x100 DUP1 DUP4 SLOAD DIV MUL DUP4 MSTORE SWAP2 PUSH1 0x20 ADD SWAP2 PUSH2 0x5BA JUMP JUMPDEST DUP3 ADD SWAP2 SWAP1 PUSH0 MSTORE PUSH1 0x20 PUSH0 KECCAK256 SWAP1 JUMPDEST DUP2 SLOAD DUP2 MSTORE SWAP1 PUSH1 0x1 ADD SWAP1 PUSH1 0x20 ADD DUP1 DUP4 GT PUSH2 0x59D JUMPI DUP3 SWAP1 SUB PUSH1 0x1F AND DUP3 ADD SWAP2 JUMPDEST POP POP POP POP POP SWAP3 POP DUP2 DUP1 SLOAD PUSH2 0x5CD SWAP1 PUSH2 0xD3C JUMP JUMPDEST DUP1 PUSH1 0x1F ADD PUSH1 0x20 DUP1 SWAP2 DIV MUL PUSH1 0x20 ADD PUSH1 0x40 MLOAD SWAP1 DUP2 ADD PUSH1 0x40 MSTORE DUP1 SWAP3 SWAP2 SWAP1 DUP2 DUP2 MSTORE PUSH1 0x20 ADD DUP3 DUP1 SLOAD PUSH2 0x5F9 SWAP1 PUSH2 0xD3C JUMP JUMPDEST DUP1 ISZERO PUSH2 0x644 JUMPI DUP1 PUSH1 0x1F LT PUSH2 0x61B JUMPI PUSH2 0x100 DUP1 DUP4 SLOAD DIV MUL DUP4 MSTORE SWAP2 PUSH1 0x20 ADD SWAP2 PUSH2 0x644 JUMP JUMPDEST DUP3 ADD SWAP2 SWAP1 PUSH0 MSTORE PUSH1 0x20 PUSH0 KECCAK256 SWAP1 JUMPDEST DUP2 SLOAD DUP2 MSTORE SWAP1 PUSH1 0x1 ADD SWAP1 PUSH1 0x20 ADD DUP1 DUP4 GT PUSH2 0x627 JUMPI DUP3 SWAP1 SUB PUSH1 0x1F AND DUP3 ADD SWAP2 JUMPDEST POP POP POP POP POP SWAP2 POP SWAP5 POP SWAP5 POP SWAP5 POP SWAP5 POP SWAP5 POP SWAP1 SWAP2 SWAP3 SWAP4 SWAP5 JUMP JUMPDEST PUSH0 PUSH1 0x5 PUSH0 SWAP1 SLOAD SWAP1 PUSH2 0x100 EXP SWAP1 DIV PUSH20 0xFFFFFFFFFFFFFFFFFFFFFFFFFFFFFFFFFFFFFFFF AND PUSH20 0xFFFFFFFFFFFFFFFFFFFFFFFFFFFFFFFFFFFFFFFF AND CALLER PUSH20 0xFFFFFFFFFFFFFFFFFFFFFFFFFFFFFFFFFFFFFFFF AND EQ DUP1 PUSH2 0x704 JUMPI POP PUSH1 0x6 PUSH0 SWAP1 SLOAD SWAP1 PUSH2 0x100 EXP SWAP1 DIV PUSH20 0xFFFFFFFFFFFFFFFFFFFFFFFFFFFFFFFFFFFFFFFF AND PUSH20 0xFFFFFFFFFFFFFFFFFFFFFFFFFFFFFFFFFFFFFFFF AND CALLER PUSH20 0xFFFFFFFFFFFFFFFFFFFFFFFFFFFFFFFFFFFFFFFF AND EQ JUMPDEST PUSH2 0x743 JUMPI PUSH1 0x40 MLOAD PUSH32 0x8C379A000000000000000000000000000000000000000000000000000000000 DUP2 MSTORE PUSH1 0x4 ADD PUSH2 0x73A SWAP1 PUSH2 0xCF1 JUMP JUMPDEST PUSH1 0x40 MLOAD DUP1 SWAP2 SUB SWAP1 REVERT JUMPDEST PUSH1 0x6 PUSH0 SWAP1 SLOAD SWAP1 PUSH2 0x100 EXP SWAP1 DIV PUSH20 0xFFFFFFFFFFFFFFFFFFFFFFFFFFFFFFFFFFFFFFFF AND SWAP1 POP SWAP1 JUMP JUMPDEST PUSH1 0x5 PUSH0 SWAP1 SLOAD SWAP1 PUSH2 0x100 EXP SWAP1 DIV PUSH20 0xFFFFFFFFFFFFFFFFFFFFFFFFFFFFFFFFFFFFFFFF AND PUSH20 0xFFFFFFFFFFFFFFFFFFFFFFFFFFFFFFFFFFFFFFFF AND CALLER PUSH20 0xFFFFFFFFFFFFFFFFFFFFFFFFFFFFFFFFFFFFFFFF AND EQ DUP1 PUSH2 0x811 JUMPI POP PUSH1 0x6 PUSH0 SWAP1 SLOAD SWAP1 PUSH2 0x100 EXP SWAP1 DIV PUSH20 0xFFFFFFFFFFFFFFFFFFFFFFFFFFFFFFFFFFFFFFFF AND PUSH20 0xFFFFFFFFFFFFFFFFFFFFFFFFFFFFFFFFFFFFFFFF AND CALLER PUSH20 0xFFFFFFFFFFFFFFFFFFFFFFFFFFFFFFFFFFFFFFFF AND EQ JUMPDEST PUSH2 0x850 JUMPI PUSH1 0x40 MLOAD PUSH32 0x8C379A000000000000000000000000000000000000000000000000000000000 DUP2 MSTORE PUSH1 0x4 ADD PUSH2 0x847 SWAP1 PUSH2 0xCF1 JUMP JUMPDEST PUSH1 0x40 MLOAD DUP1 SWAP2 SUB SWAP1 REVERT JUMPDEST DUP1 PUSH0 SWAP1 DUP2 PUSH2 0x85E SWAP2 SWAP1 PUSH2 0xF09 JUMP JUMPDEST POP POP JUMP JUMPDEST PUSH1 0x5 PUSH0 SWAP1 SLOAD SWAP1 PUSH2 0x100 EXP SWAP1 DIV PUSH20 0xFFFFFFFFFFFFFFFFFFFFFFFFFFFFFFFFFFFFFFFF AND PUSH20 0xFFFFFFFFFFFFFFFFFFFFFFFFFFFFFFFFFFFFFFFF AND CALLER PUSH20 0xFFFFFFFFFFFFFFFFFFFFFFFFFFFFFFFFFFFFFFFF AND EQ DUP1 PUSH2 0x909 JUMPI POP PUSH1 0x6 PUSH0 SWAP1 SLOAD SWAP1 PUSH2 0x100 EXP SWAP1 DIV PUSH20 0xFFFFFFFFFFFFFFFFFFFFFFFFFFFFFFFFFFFFFFFF AND PUSH20 0xFFFFFFFFFFFFFFFFFFFFFFFFFFFFFFFFFFFFFFFF AND CALLER PUSH20 0xFFFFFFFFFFFFFFFFFFFFFFFFFFFFFFFFFFFFFFFF AND EQ JUMPDEST PUSH2 0x948 JUMPI PUSH1 0x40 MLOAD PUSH32 0x8C379A000000000000000000000000000000000000000000000000000000000 DUP2 MSTORE PUSH1 0x4 ADD PUSH2 0x93F SWAP1 PUSH2 0xCF1 JUMP JUMPDEST PUSH1 0x40 MLOAD DUP1 SWAP2 SUB SWAP1 REVERT JUMPDEST DUP1 PUSH1 0x1 SWAP1 DUP2 PUSH2 0x957 SWAP2 SWAP1 PUSH2 0xF09 JUMP JUMPDEST POP POP JUMP JUMPDEST PUSH0 PUSH1 0x40 MLOAD SWAP1 POP SWAP1 JUMP JUMPDEST PUSH0 DUP1 REVERT JUMPDEST PUSH0 DUP1 REVERT JUMPDEST PUSH0 PUSH20 0xFFFFFFFFFFFFFFFFFFFFFFFFFFFFFFFFFFFFFFFF DUP3 AND SWAP1 POP SWAP2 SWAP1 POP JUMP JUMPDEST PUSH0 PUSH2 0x995 DUP3 PUSH2 0x96C JUMP JUMPDEST SWAP1 POP SWAP2 SWAP1 POP JUMP JUMPDEST PUSH2 0x9A5 DUP2 PUSH2 0x98B JUMP JUMPDEST DUP2 EQ PUSH2 0x9AF JUMPI PUSH0 DUP1 REVERT JUMPDEST POP JUMP JUMPDEST PUSH0 DUP2 CALLDATALOAD SWAP1 POP PUSH2 0x9C0 DUP2 PUSH2 0x99C JUMP JUMPDEST SWAP3 SWAP2 POP POP JUMP JUMPDEST PUSH0 PUSH1 0x20 DUP3 DUP5 SUB SLT ISZERO PUSH2 0x9DB JUMPI PUSH2 0x9DA PUSH2 0x964 JUMP JUMPDEST JUMPDEST PUSH0 PUSH2 0x9E8 DUP5 DUP3 DUP6 ADD PUSH2 0x9B2 JUMP JUMPDEST SWAP2 POP POP SWAP3 SWAP2 POP POP JUMP JUMPDEST PUSH2 0x9FA DUP2 PUSH2 0x98B JUMP JUMPDEST DUP3 MSTORE POP POP JUMP JUMPDEST PUSH0 PUSH1 0x20 DUP3 ADD SWAP1 POP PUSH2 0xA13 PUSH0 DUP4 ADD DUP5 PUSH2 0x9F1 JUMP JUMPDEST SWAP3 SWAP2 POP POP JUMP JUMPDEST PUSH0 DUP2 MLOAD SWAP1 POP SWAP2 SWAP1 POP JUMP JUMPDEST PUSH0 DUP3 DUP3 MSTORE PUSH1 0x20 DUP3 ADD SWAP1 POP SWAP3 SWAP2 POP POP JUMP JUMPDEST DUP3 DUP2 DUP4 MCOPY PUSH0 DUP4 DUP4 ADD MSTORE POP POP POP JUMP JUMPDEST PUSH0 PUSH1 0x1F NOT PUSH1 0x1F DUP4 ADD AND SWAP1 POP SWAP2 SWAP1 POP JUMP JUMPDEST PUSH0 PUSH2 0xA5B DUP3 PUSH2 0xA19 JUMP JUMPDEST PUSH2 0xA65 DUP2 DUP6 PUSH2 0xA23 JUMP JUMPDEST SWAP4 POP PUSH2 0xA75 DUP2 DUP6 PUSH1 0x20 DUP7 ADD PUSH2 0xA33 JUMP JUMPDEST PUSH2 0xA7E DUP2 PUSH2 0xA41 JUMP JUMPDEST DUP5 ADD SWAP2 POP POP SWAP3 SWAP2 POP POP JUMP JUMPDEST PUSH0 DUP2 SWAP1 POP SWAP2 SWAP1 POP JUMP JUMPDEST PUSH2 0xA9B DUP2 PUSH2 0xA89 JUMP JUMPDEST DUP3 MSTORE POP POP JUMP JUMPDEST PUSH0 PUSH1 0xA0 DUP3 ADD SWAP1 POP DUP2 DUP2 SUB PUSH0 DUP4 ADD MSTORE PUSH2 0xAB9 DUP2 DUP9 PUSH2 0xA51 JUMP JUMPDEST SWAP1 POP DUP2 DUP2 SUB PUSH1 0x20 DUP4 ADD MSTORE PUSH2 0xACD DUP2 DUP8 PUSH2 0xA51 JUMP JUMPDEST SWAP1 POP DUP2 DUP2 SUB PUSH1 0x40 DUP4 ADD MSTORE PUSH2 0xAE1 DUP2 DUP7 PUSH2 0xA51 JUMP JUMPDEST SWAP1 POP DUP2 DUP2 SUB PUSH1 0x60 DUP4 ADD MSTORE PUSH2 0xAF5 DUP2 DUP6 PUSH2 0xA51 JUMP JUMPDEST SWAP1 POP PUSH2 0xB04 PUSH1 0x80 DUP4 ADD DUP5 PUSH2 0xA92 JUMP JUMPDEST SWAP7 SWAP6 POP POP POP POP POP POP JUMP JUMPDEST PUSH0 DUP1 REVERT JUMPDEST PUSH0 DUP1 REVERT JUMPDEST PUSH32 0x4E487B7100000000000000000000000000000000000000000000000000000000 PUSH0 MSTORE PUSH1 0x41 PUSH1 0x4 MSTORE PUSH1 0x24 PUSH0 REVERT JUMPDEST PUSH2 0xB4C DUP3 PUSH2 0xA41 JUMP JUMPDEST DUP2 ADD DUP2 DUP2 LT PUSH8 0xFFFFFFFFFFFFFFFF DUP3 GT OR ISZERO PUSH2 0xB6B JUMPI PUSH2 0xB6A PUSH2 0xB16 JUMP JUMPDEST JUMPDEST DUP1 PUSH1 0x40 MSTORE POP POP POP JUMP JUMPDEST PUSH0 PUSH2 0xB7D PUSH2 0x95B JUMP JUMPDEST SWAP1 POP PUSH2 0xB89 DUP3 DUP3 PUSH2 0xB43 JUMP JUMPDEST SWAP2 SWAP1 POP JUMP JUMPDEST PUSH0 PUSH8 0xFFFFFFFFFFFFFFFF DUP3 GT ISZERO PUSH2 0xBA8 JUMPI PUSH2 0xBA7 PUSH2 0xB16 JUMP JUMPDEST JUMPDEST PUSH2 0xBB1 DUP3 PUSH2 0xA41 JUMP JUMPDEST SWAP1 POP PUSH1 0x20 DUP2 ADD SWAP1 POP SWAP2 SWAP1 POP JUMP JUMPDEST DUP3 DUP2 DUP4 CALLDATACOPY PUSH0 DUP4 DUP4 ADD MSTORE POP POP POP JUMP JUMPDEST PUSH0 PUSH2 0xBDE PUSH2 0xBD9 DUP5 PUSH2 0xB8E JUMP JUMPDEST PUSH2 0xB74 JUMP JUMPDEST SWAP1 POP DUP3 DUP2 MSTORE PUSH1 0x20 DUP2 ADD DUP5 DUP5 DUP5 ADD GT ISZERO PUSH2 0xBFA JUMPI PUSH2 0xBF9 PUSH2 0xB12 JUMP JUMPDEST JUMPDEST PUSH2 0xC05 DUP5 DUP3 DUP6 PUSH2 0xBBE JUMP JUMPDEST POP SWAP4 SWAP3 POP POP POP JUMP JUMPDEST PUSH0 DUP3 PUSH1 0x1F DUP4 ADD SLT PUSH2 0xC21 JUMPI PUSH2 0xC20 PUSH2 0xB0E JUMP JUMPDEST JUMPDEST DUP2 CALLDATALOAD PUSH2 0xC31 DUP5 DUP3 PUSH1 0x20 DUP7 ADD PUSH2 0xBCC JUMP JUMPDEST SWAP2 POP POP SWAP3 SWAP2 POP POP JUMP JUMPDEST PUSH0 PUSH1 0x20 DUP3 DUP5 SUB SLT ISZERO PUSH2 0xC4F JUMPI PUSH2 0xC4E PUSH2 0x964 JUMP JUMPDEST JUMPDEST PUSH0 DUP3 ADD CALLDATALOAD PUSH8 0xFFFFFFFFFFFFFFFF DUP2 GT ISZERO PUSH2 0xC6C JUMPI PUSH2 0xC6B PUSH2 0x968 JUMP JUMPDEST JUMPDEST PUSH2 0xC78 DUP5 DUP3 DUP6 ADD PUSH2 0xC0D JUMP JUMPDEST SWAP2 POP POP SWAP3 SWAP2 POP POP JUMP JUMPDEST PUSH32 0x4F6E6C7920746865206F776E65722063616E2063616C6C20746869732066756E PUSH0 DUP3 ADD MSTORE PUSH32 0x6374696F6E000000000000000000000000000000000000000000000000000000 PUSH1 0x20 DUP3 ADD MSTORE POP JUMP JUMPDEST PUSH0 PUSH2 0xCDB PUSH1 0x25 DUP4 PUSH2 0xA23 JUMP JUMPDEST SWAP2 POP PUSH2 0xCE6 DUP3 PUSH2 0xC81 JUMP JUMPDEST PUSH1 0x40 DUP3 ADD SWAP1 POP SWAP2 SWAP1 POP JUMP JUMPDEST PUSH0 PUSH1 0x20 DUP3 ADD SWAP1 POP DUP2 DUP2 SUB PUSH0 DUP4 ADD MSTORE PUSH2 0xD08 DUP2 PUSH2 0xCCF JUMP JUMPDEST SWAP1 POP SWAP2 SWAP1 POP JUMP JUMPDEST PUSH32 0x4E487B7100000000000000000000000000000000000000000000000000000000 PUSH0 MSTORE PUSH1 0x22 PUSH1 0x4 MSTORE PUSH1 0x24 PUSH0 REVERT JUMPDEST PUSH0 PUSH1 0x2 DUP3 DIV SWAP1 POP PUSH1 0x1 DUP3 AND DUP1 PUSH2 0xD53 JUMPI PUSH1 0x7F DUP3 AND SWAP2 POP JUMPDEST PUSH1 0x20 DUP3 LT DUP2 SUB PUSH2 0xD66 JUMPI PUSH2 0xD65 PUSH2 0xD0F JUMP JUMPDEST JUMPDEST POP SWAP2 SWAP1 POP JUMP JUMPDEST PUSH0 DUP2 SWAP1 POP DUP2 PUSH0 MSTORE PUSH1 0x20 PUSH0 KECCAK256 SWAP1 POP SWAP2 SWAP1 POP JUMP JUMPDEST PUSH0 PUSH1 0x20 PUSH1 0x1F DUP4 ADD DIV SWAP1 POP SWAP2 SWAP1 POP JUMP JUMPDEST PUSH0 DUP3 DUP3 SHL SWAP1 POP SWAP3 SWAP2 POP POP JUMP JUMPDEST PUSH0 PUSH1 0x8 DUP4 MUL PUSH2 0xDC8 PUSH32 0xFFFFFFFFFFFFFFFFFFFFFFFFFFFFFFFFFFFFFFFFFFFFFFFFFFFFFFFFFFFFFFFF DUP3 PUSH2 0xD8D JUMP JUMPDEST PUSH2 0xDD2 DUP7 DUP4 PUSH2 0xD8D JUMP JUMPDEST SWAP6 POP DUP1 NOT DUP5 AND SWAP4 POP DUP1 DUP7 AND DUP5 OR SWAP3 POP POP POP SWAP4 SWAP3 POP POP POP JUMP JUMPDEST PUSH0 DUP2 SWAP1 POP SWAP2 SWAP1 POP JUMP JUMPDEST PUSH0 PUSH2 0xE0D PUSH2 0xE08 PUSH2 0xE03 DUP5 PUSH2 0xA89 JUMP JUMPDEST PUSH2 0xDEA JUMP JUMPDEST PUSH2 0xA89 JUMP JUMPDEST SWAP1 POP SWAP2 SWAP1 POP JUMP JUMPDEST PUSH0 DUP2 SWAP1 POP SWAP2 SWAP1 POP JUMP JUMPDEST PUSH2 0xE26 DUP4 PUSH2 0xDF3 JUMP JUMPDEST PUSH2 0xE3A PUSH2 0xE32 DUP3 PUSH2 0xE14 JUMP JUMPDEST DUP5 DUP5 SLOAD PUSH2 0xD99 JUMP JUMPDEST DUP3 SSTORE POP POP POP POP JUMP JUMPDEST PUSH0 SWAP1 JUMP JUMPDEST PUSH2 0xE4E PUSH2 0xE42 JUMP JUMPDEST PUSH2 0xE59 DUP2 DUP5 DUP5 PUSH2 0xE1D JUMP JUMPDEST POP POP POP JUMP JUMPDEST JUMPDEST DUP2 DUP2 LT ISZERO PUSH2 0xE7C JUMPI PUSH2 0xE71 PUSH0 DUP3 PUSH2 0xE46 JUMP JUMPDEST PUSH1 0x1 DUP2 ADD SWAP1 POP PUSH2 0xE5F JUMP JUMPDEST POP POP JUMP JUMPDEST PUSH1 0x1F DUP3 GT ISZERO PUSH2 0xEC1 JUMPI PUSH2 0xE92 DUP2 PUSH2 0xD6C JUMP JUMPDEST PUSH2 0xE9B DUP5 PUSH2 0xD7E JUMP JUMPDEST DUP2 ADD PUSH1 0x20 DUP6 LT ISZERO PUSH2 0xEAA JUMPI DUP2 SWAP1 POP JUMPDEST PUSH2 0xEBE PUSH2 0xEB6 DUP6 PUSH2 0xD7E JUMP JUMPDEST DUP4 ADD DUP3 PUSH2 0xE5E JUMP JUMPDEST POP POP JUMPDEST POP POP POP JUMP JUMPDEST PUSH0 DUP3 DUP3 SHR SWAP1 POP SWAP3 SWAP2 POP POP JUMP JUMPDEST PUSH0 PUSH2 0xEE1 PUSH0 NOT DUP5 PUSH1 0x8 MUL PUSH2 0xEC6 JUMP JUMPDEST NOT DUP1 DUP4 AND SWAP2 POP POP SWAP3 SWAP2 POP POP JUMP JUMPDEST PUSH0 PUSH2 0xEF9 DUP4 DUP4 PUSH2 0xED2 JUMP JUMPDEST SWAP2 POP DUP3 PUSH1 0x2 MUL DUP3 OR SWAP1 POP SWAP3 SWAP2 POP POP JUMP JUMPDEST PUSH2 0xF12 DUP3 PUSH2 0xA19 JUMP JUMPDEST PUSH8 0xFFFFFFFFFFFFFFFF DUP2 GT ISZERO PUSH2 0xF2B JUMPI PUSH2 0xF2A PUSH2 0xB16 JUMP JUMPDEST JUMPDEST PUSH2 0xF35 DUP3 SLOAD PUSH2 0xD3C JUMP JUMPDEST PUSH2 0xF40 DUP3 DUP3 DUP6 PUSH2 0xE80 JUMP JUMPDEST PUSH0 PUSH1 0x20 SWAP1 POP PUSH1 0x1F DUP4 GT PUSH1 0x1 DUP2 EQ PUSH2 0xF71 JUMPI PUSH0 DUP5 ISZERO PUSH2 0xF5F JUMPI DUP3 DUP8 ADD MLOAD SWAP1 POP JUMPDEST PUSH2 0xF69 DUP6 DUP3 PUSH2 0xEEE JUMP JUMPDEST DUP7 SSTORE POP PUSH2 0xFD0 JUMP JUMPDEST PUSH1 0x1F NOT DUP5 AND PUSH2 0xF7F DUP7 PUSH2 0xD6C JUMP JUMPDEST PUSH0 JUMPDEST DUP3 DUP2 LT ISZERO PUSH2 0xFA6 JUMPI DUP5 DUP10 ADD MLOAD DUP3 SSTORE PUSH1 0x1 DUP3 ADD SWAP2 POP PUSH1 0x20 DUP6 ADD SWAP5 POP PUSH1 0x20 DUP2 ADD SWAP1 POP PUSH2 0xF81 JUMP JUMPDEST DUP7 DUP4 LT ISZERO PUSH2 0xFC3 JUMPI DUP5 DUP10 ADD MLOAD PUSH2 0xFBF PUSH1 0x1F DUP10 AND DUP3 PUSH2 0xED2 JUMP JUMPDEST DUP4 SSTORE POP JUMPDEST PUSH1 0x1 PUSH1 0x2 DUP9 MUL ADD DUP9 SSTORE POP POP POP JUMPDEST POP POP POP POP POP POP JUMP INVALID LOG2 PUSH5 0x6970667358 0x22 SLT KECCAK256 TSTORE BLOCKHASH MULMOD PUSH15 0x61330DA2FA743DAB4415B6330990BB 0xDC PUSH14 0x663506D814D9735FF24DB064736F PUSH13 0x634300081A0033A26469706673 PC 0x22 SLT KECCAK256 DUP9 PUSH21 0x75BB2E69D099777B7E0751623E06F7553B0EFF827A BASEFEE KECCAK256 0xB4 0xDC 0xCA 0xBE SWAP3 PUSH28 0xCC64736F6C634300081A003300000000000000000000000000000000 "
		},
		"gasEstimates": {
			"creation": {
				"codeDepositCost": "4150000",
				"executionCost": "infinite",
				"totalCost": "infinite"
			},
			"external": {
				"": "195",
				"createDebitCard(string,string,string,string,uint256)": "infinite",
				"createLoyalityCard(string,string)": "infinite",
				"deleteDebitItem(address)": "infinite",
				"deleteLoyalityItem(address)": "infinite",
				"getAddress()": "4857",
				"getBalance()": "4791",
				"getItems()": "infinite",
				"putDebitItem(address)": "infinite",
				"putLoyalityItem(address)": "infinite",
				"sendTo(address,uint256)": "infinite",
				"withdraw(uint256)": "infinite"
			},
			"internal": {
				"findIndex(address,address[] memory)": "infinite"
			}
		},
		"methodIdentifiers": {
			"createDebitCard(string,string,string,string,uint256)": "9dbbc8a2",
			"createLoyalityCard(string,string)": "3046e41b",
			"deleteDebitItem(address)": "6c27b22d",
			"deleteLoyalityItem(address)": "afe828a8",
			"getAddress()": "38cc4831",
			"getBalance()": "12065fe0",
			"getItems()": "410d59cc",
			"putDebitItem(address)": "9ae6e63e",
			"putLoyalityItem(address)": "6d980093",
			"sendTo(address,uint256)": "9e1a00aa",
			"withdraw(uint256)": "2e1a7d4d"
		}
	},
	"abi": [
		{
			"inputs": [
				{
					"internalType": "address payable",
					"name": "_owner",
					"type": "address"
				},
				{
					"internalType": "address",
					"name": "_manager",
					"type": "address"
				}
			],
			"stateMutability": "nonpayable",
			"type": "constructor"
		},
		{
			"stateMutability": "payable",
			"type": "fallback"
		},
		{
			"inputs": [
				{
					"internalType": "string",
					"name": "_name",
					"type": "string"
				},
				{
					"internalType": "string",
					"name": "_card_id",
					"type": "string"
				},
				{
					"internalType": "string",
					"name": "_name_on_card",
					"type": "string"
				},
				{
					"internalType": "string",
					"name": "_expire_at",
					"type": "string"
				},
				{
					"internalType": "uint256",
					"name": "_cvv",
					"type": "uint256"
				}
			],
			"name": "createDebitCard",
			"outputs": [],
			"stateMutability": "nonpayable",
			"type": "function"
		},
		{
			"inputs": [
				{
					"internalType": "string",
					"name": "_name",
					"type": "string"
				},
				{
					"internalType": "string",
					"name": "_card_id",
					"type": "string"
				}
			],
			"name": "createLoyalityCard",
			"outputs": [],
			"stateMutability": "nonpayable",
			"type": "function"
		},
		{
			"inputs": [
				{
					"internalType": "address",
					"name": "_item",
					"type": "address"
				}
			],
			"name": "deleteDebitItem",
			"outputs": [],
			"stateMutability": "nonpayable",
			"type": "function"
		},
		{
			"inputs": [
				{
					"internalType": "address",
					"name": "_item",
					"type": "address"
				}
			],
			"name": "deleteLoyalityItem",
			"outputs": [],
			"stateMutability": "nonpayable",
			"type": "function"
		},
		{
			"inputs": [],
			"name": "getAddress",
			"outputs": [
				{
					"internalType": "address",
					"name": "",
					"type": "address"
				}
			],
			"stateMutability": "view",
			"type": "function"
		},
		{
			"inputs": [],
			"name": "getBalance",
			"outputs": [
				{
					"internalType": "uint256",
					"name": "",
					"type": "uint256"
				}
			],
			"stateMutability": "view",
			"type": "function"
		},
		{
			"inputs": [],
			"name": "getItems",
			"outputs": [
				{
					"components": [
						{
							"internalType": "address[]",
							"name": "loyalityCards",
							"type": "address[]"
						},
						{
							"internalType": "address[]",
							"name": "debitCards",
							"type": "address[]"
						}
					],
					"internalType": "struct UserVault.Items",
					"name": "",
					"type": "tuple"
				}
			],
			"stateMutability": "view",
			"type": "function"
		},
		{
			"inputs": [
				{
					"internalType": "address",
					"name": "_item",
					"type": "address"
				}
			],
			"name": "putDebitItem",
			"outputs": [],
			"stateMutability": "nonpayable",
			"type": "function"
		},
		{
			"inputs": [
				{
					"internalType": "address",
					"name": "_item",
					"type": "address"
				}
			],
			"name": "putLoyalityItem",
			"outputs": [],
			"stateMutability": "nonpayable",
			"type": "function"
		},
		{
			"inputs": [
				{
					"internalType": "address payable",
					"name": "_to",
					"type": "address"
				},
				{
					"internalType": "uint256",
					"name": "_amount",
					"type": "uint256"
				}
			],
			"name": "sendTo",
			"outputs": [],
			"stateMutability": "payable",
			"type": "function"
		},
		{
			"inputs": [
				{
					"internalType": "uint256",
					"name": "_amount",
					"type": "uint256"
				}
			],
			"name": "withdraw",
			"outputs": [],
			"stateMutability": "payable",
			"type": "function"
		},
		{
			"stateMutability": "payable",
			"type": "receive"
		}
	]
}