{
	"data": {
		"bytecode": {
			"linkReferences": {
				"Libs/VaultUtils.sol": {
					"VaultUtils": [
						{
							"length": 20,
							"start": 1030
						},
						{
							"length": 20,
							"start": 1695
						}
					]
				}
			},
			"object": "6080604052348015600e575f80fd5b50604051615a07380380615a07833981016040819052602b916070565b5f80546001600160a01b039384166001600160a01b0319918216179091556001805492909316911617905560a3565b6001600160a01b0381168114606d575f80fd5b50565b5f80604083850312156080575f80fd5b8251608981605a565b6020840151909250609881605a565b809150509250929050565b615957806100b05f395ff3fe608060405260043610610099575f3560e01c806378bd52021161006057806378bd52021461013957806397d27cd51461016557806398529dc5146101845780639e1a00aa146101a3578063d0e30db0146100a0578063eaffd429146101b657005b806312065fe0146100a257806314deffc1146100c957806326e3bc4e146100e85780632e1a7d4d146101075780633046e41b1461011a57005b366100a057005b005b3480156100ad575f80fd5b506100b66101ca565b6040519081526020015b60405180910390f35b3480156100d4575f80fd5b506100a06100e3366004610af0565b610217565b3480156100f3575f80fd5b506100a0610102366004610bc1565b610309565b6100a0610115366004610bf6565b6103b3565b348015610125575f80fd5b506100a0610134366004610c0d565b6104bd565b348015610144575f80fd5b50610158610153366004610c70565b61059f565b6040516100c09190610c90565b348015610170575f80fd5b506100a061017f366004610cdb565b610663565b34801561018f575f80fd5b506100a061019e366004610d90565b610750565b6100a06101b1366004610dc9565b61080b565b3480156101c1575f80fd5b5061015861095d565b5f80546001600160a01b03163314806101ed57506001546001600160a01b031633145b6102125760405162461bcd60e51b815260040161020990610df3565b60405180910390fd5b504790565b5f546001600160a01b031633148061023957506001546001600160a01b031633145b6102555760405162461bcd60e51b815260040161020990610df3565b60015f9081526002602052546040517fe90b7bceb6e7df5418fb78d8ee546e97c83a08bbccc01a0644d599ccd2a7c2e091879187918791879187916001600160a01b039091169030906102a7906109fc565b6102b79796959493929190610e45565b604051809103905ff0801580156102d0573d5f803e3d5ffd5b5081546001810183555f928352602090922090910180546001600160a01b0319166001600160a01b039092169190911790555050505050565b5f546001600160a01b031633148061032b57506001546001600160a01b031633145b6103475760405162461bcd60e51b815260040161020990610df3565b604051633e5c981560e01b815273__$78443458a87e7690b5ebc0b8f4cece6a49$__90633e5c9815906103839060029086908690600401610ed2565b5f6040518083038186803b158015610399575f80fd5b505af41580156103ab573d5f803e3d5ffd5b505050505050565b5f546001600160a01b03163314806103d557506001546001600160a01b031633145b6103f15760405162461bcd60e51b815260040161020990610df3565b804710156104305760405162461bcd60e51b815260206004820152600c60248201526b125b9cdd59999a58da595b9d60a21b6044820152606401610209565b5f80546040516001600160a01b039091169083908381818185875af1925050503d805f811461047a576040519150601f19603f3d011682016040523d82523d5f602084013e61047f565b606091505b50509050806104b95760405162461bcd60e51b815260206004820152600660248201526511985a5b195960d21b6044820152606401610209565b5050565b5f546001600160a01b03163314806104df57506001546001600160a01b031633145b6104fb5760405162461bcd60e51b815260040161020990610df3565b5f8080526002602052546040517fac33ff75c19e70fe83507db0d683fd3465c996598dc972688b7ace676c89077b91849184916001600160a01b031690309061054390610a09565b6105509493929190610eff565b604051809103905ff080158015610569573d5f803e3d5ffd5b5081546001810183555f928352602090922090910180546001600160a01b0319166001600160a01b039092169190911790555050565b5f546060906001600160a01b03163314806105c457506001546001600160a01b031633145b6105e05760405162461bcd60e51b815260040161020990610df3565b604051636d7cc8c960e11b815273__$78443458a87e7690b5ebc0b8f4cece6a49$__9063daf991929061061a908590600290600401610f48565b5f60405180830381865af4158015610634573d5f803e3d5ffd5b505050506040513d5f823e601f3d908101601f1916820160405261065b9190810190610f63565b90505b919050565b5f546001600160a01b031633148061068557506001546001600160a01b031633145b6106a15760405162461bcd60e51b815260040161020990610df3565b60025f818152602091909152546040517f679795a0195a1b76cdebb7c51d74e058aee92919b8c3389af86ef24535e8a28c9186918691869186916001600160a01b03169030906106f090610a16565b6106ff96959493929190611015565b604051809103905ff080158015610718573d5f803e3d5ffd5b5081546001810183555f928352602090922090910180546001600160a01b0319166001600160a01b0390921691909117905550505050565b5f546001600160a01b031633148061077257506001546001600160a01b031633145b61078e5760405162461bcd60e51b815260040161020990610df3565b6003815f8054906101000a90046001600160a01b0316306040516107b190610a23565b6107bd93929190611088565b604051809103905ff0801580156107d6573d5f803e3d5ffd5b5081546001810183555f928352602090922090910180546001600160a01b0319166001600160a01b0390921691909117905550565b5f546001600160a01b031633148061082d57506001546001600160a01b031633145b6108495760405162461bcd60e51b815260040161020990610df3565b6001600160a01b0382166108915760405162461bcd60e51b815260206004820152600f60248201526e496e76616c6964206164647265737360881b6044820152606401610209565b804710156108d05760405162461bcd60e51b815260206004820152600c60248201526b125b9cdd59999a58da595b9d60a21b6044820152606401610209565b5f826001600160a01b0316826040515f6040518083038185875af1925050503d805f8114610919576040519150601f19603f3d011682016040523d82523d5f602084013e61091e565b606091505b50509050806109585760405162461bcd60e51b815260206004820152600660248201526511985a5b195960d21b6044820152606401610209565b505050565b5f546060906001600160a01b031633148061098257506001546001600160a01b031633145b61099e5760405162461bcd60e51b815260040161020990610df3565b60038054806020026020016040519081016040528092919081815260200182805480156109f257602002820191905f5260205f20905b81546001600160a01b031681526001909101906020018083116109d4575b5050505050905090565b610fd8806110bb83390190565b610c748061209383390190565b610f5380612d0783390190565b611cc880613c5a83390190565b634e487b7160e01b5f52604160045260245ffd5b604051601f8201601f191681016001600160401b0381118282101715610a6c57610a6c610a30565b604052919050565b5f82601f830112610a83575f80fd5b81356001600160401b03811115610a9c57610a9c610a30565b610aaf601f8201601f1916602001610a44565b818152846020838601011115610ac3575f80fd5b816020850160208301375f918101602001919091529392505050565b803561ffff8116811461065e575f80fd5b5f805f805f60a08688031215610b04575f80fd5b85356001600160401b03811115610b19575f80fd5b610b2588828901610a74565b95505060208601356001600160401b03811115610b40575f80fd5b610b4c88828901610a74565b94505060408601356001600160401b03811115610b67575f80fd5b610b7388828901610a74565b935050610b8260608701610adf565b9150610b9060808701610adf565b90509295509295909350565b80356003811061065e575f80fd5b6001600160a01b0381168114610bbe575f80fd5b50565b5f8060408385031215610bd2575f80fd5b610bdb83610b9c565b91506020830135610beb81610baa565b809150509250929050565b5f60208284031215610c06575f80fd5b5035919050565b5f8060408385031215610c1e575f80fd5b82356001600160401b03811115610c33575f80fd5b610c3f85828601610a74565b92505060208301356001600160401b03811115610c5a575f80fd5b610c6685828601610a74565b9150509250929050565b5f60208284031215610c80575f80fd5b610c8982610b9c565b9392505050565b602080825282518282018190525f918401906040840190835b81811015610cd05783516001600160a01b0316835260209384019390920191600101610ca9565b509095945050505050565b5f805f8060808587031215610cee575f80fd5b84356001600160401b03811115610d03575f80fd5b610d0f87828801610a74565b94505060208501356001600160401b03811115610d2a575f80fd5b610d3687828801610a74565b93505060408501356001600160401b03811115610d51575f80fd5b610d5d87828801610a74565b92505060608501356001600160401b03811115610d78575f80fd5b610d8487828801610a74565b91505092959194509250565b5f60208284031215610da0575f80fd5b81356001600160401b03811115610db5575f80fd5b610dc184828501610a74565b949350505050565b5f8060408385031215610dda575f80fd5b8235610de581610baa565b946020939093013593505050565b6020808252600a908201526927b7363c9037bbb732b960b11b604082015260600190565b5f81518084528060208401602086015e5f602082860101526020601f19601f83011685010191505092915050565b60e081525f610e5760e083018a610e17565b8281036020840152610e69818a610e17565b90508281036040840152610e7d8189610e17565b61ffff9788166060850152959096166080830152506001600160a01b0392831660a0820152911660c090910152949350505050565b60038110610ece57634e487b7160e01b5f52602160045260245ffd5b9052565b83815260608101610ee66020830185610eb2565b6001600160a01b03929092166040919091015292915050565b608081525f610f116080830187610e17565b8281036020840152610f238187610e17565b6001600160a01b03958616604085015293909416606090920191909152509392505050565b60408101610f568285610eb2565b8260208301529392505050565b5f60208284031215610f73575f80fd5b81516001600160401b03811115610f88575f80fd5b8201601f81018413610f98575f80fd5b80516001600160401b03811115610fb157610fb1610a30565b8060051b610fc160208201610a44565b91825260208184018101929081019087841115610fdc575f80fd5b6020850194505b8385101561100a5784519250610ff883610baa565b82825260209485019490910190610fe3565b979650505050505050565b60c081525f61102760c0830189610e17565b82810360208401526110398189610e17565b9050828103604084015261104d8188610e17565b905082810360608401526110618187610e17565b6001600160a01b0395861660808501529390941660a0909201919091525095945050505050565b606081525f61109a6060830186610e17565b6001600160a01b039485166020840152929093166040909101529291505056fe608060405234801561000f575f80fd5b50604051610fd8380380610fd883398101604081905261002e916101dc565b86600183835f61003e8582610330565b506001805484919060ff19168183600281111561005d5761005d6103ea565b021790555060018054610100600160a81b0319166101006001600160a01b0394851602179055600280546001600160a01b0319169190921617905550600390506100a78782610330565b5060046100b48682610330565b506005805461ffff858116620100000263ffffffff19909216908716171790556040513381527f1449abf21e49fd025f33495e77f7b1461caefdd3d4bb646424a3f445c4576a5b9060200160405180910390a1505050505050506103fe565b634e487b7160e01b5f52604160045260245ffd5b5f82601f830112610136575f80fd5b81516001600160401b0381111561014f5761014f610113565b604051601f8201601f19908116603f011681016001600160401b038111828210171561017d5761017d610113565b604052818152838201602001851015610194575f80fd5b8160208501602083015e5f918101602001919091529392505050565b805161ffff811681146101c1575f80fd5b919050565b80516001600160a01b03811681146101c1575f80fd5b5f805f805f805f60e0888a0312156101f2575f80fd5b87516001600160401b03811115610207575f80fd5b6102138a828b01610127565b60208a015190985090506001600160401b03811115610230575f80fd5b61023c8a828b01610127565b60408a015190975090506001600160401b03811115610259575f80fd5b6102658a828b01610127565b955050610274606089016101b0565b9350610282608089016101b0565b925061029060a089016101c6565b915061029e60c089016101c6565b905092959891949750929550565b600181811c908216806102c057607f821691505b6020821081036102de57634e487b7160e01b5f52602260045260245ffd5b50919050565b601f82111561032b57805f5260205f20601f840160051c810160208510156103095750805b601f840160051c820191505b81811015610328575f8155600101610315565b50505b505050565b81516001600160401b0381111561034957610349610113565b61035d8161035784546102ac565b846102e4565b6020601f82116001811461038f575f83156103785750848201515b5f19600385901b1c1916600184901b178455610328565b5f84815260208120601f198516915b828110156103be578785015182556020948501946001909201910161039e565b50848210156103db57868401515f19600387901b60f8161c191681555b50505050600190811b01905550565b634e487b7160e01b5f52602160045260245ffd5b610bcd8061040b5f395ff3fe608060405234801561000f575f80fd5b506004361061009b575f3560e01c806380f760211161006357806380f760211461010b578063ba379e861461012b578063c40da77014610144578063c47f002714610157578063efd8af9f1461016a575f80fd5b80630dbef92c1461009f5780631499c592146100b45780632858d3c8146100c757806340aa5c71146100e5578063478e5cb3146100f8575b5f80fd5b6100b26100ad366004610822565b61017d565b005b6100b26100c236600461085c565b6101fb565b6100cf610277565b6040516100dc9190610889565b60405180910390f35b6100b26100f33660046108c5565b6102c7565b6100b26101063660046108de565b610339565b6101136103e9565b6040516001600160a01b0390911681526020016100dc565b61013361043f565b6040516100dc9594939291906109bb565b6100b26101523660046108c5565b61066b565b6100b2610165366004610822565b6106e4565b6100b2610178366004610822565b610733565b60015461010090046001600160a01b03163314806101a557506002546001600160a01b031633145b6101ca5760405162461bcd60e51b81526004016101c190610a14565b60405180910390fd5b60046101d68282610abc565b506040513381525f80516020610b78833981519152906020015b60405180910390a150565b60015461010090046001600160a01b031633148061022357506002546001600160a01b031633145b61023f5760405162461bcd60e51b81526004016101c190610a14565b600280546001600160a01b0319166001600160a01b0383161790556040513381525f80516020610b78833981519152906020016101f0565b6001545f9061010090046001600160a01b03163314806102a157506002546001600160a01b031633145b6102bd5760405162461bcd60e51b81526004016101c190610a14565b5060015460ff1690565b60015461010090046001600160a01b03163314806102ef57506002546001600160a01b031633145b61030b5760405162461bcd60e51b81526004016101c190610a14565b6005805461ffff191661ffff83161790556040513381525f80516020610b78833981519152906020016101f0565b60015461010090046001600160a01b031633148061036157506002546001600160a01b031633145b61037d5760405162461bcd60e51b81526004016101c190610a14565b5f6103888682610abc565b5060036103958582610abc565b5060046103a28482610abc565b506005805461ffff838116620100000263ffffffff19909216908516171790556040513381525f80516020610b788339815191529060200160405180910390a15050505050565b6001545f9061010090046001600160a01b031633148061041357506002546001600160a01b031633145b61042f5760405162461bcd60e51b81526004016101c190610a14565b506002546001600160a01b031690565b60608060605f8060018054906101000a90046001600160a01b03166001600160a01b0316336001600160a01b0316148061048357506002546001600160a01b031633145b61049f5760405162461bcd60e51b81526004016101c190610a14565b6005545f8054909160039160049161ffff8082169262010000909204169085906104c890610a38565b80601f01602080910402602001604051908101604052809291908181526020018280546104f490610a38565b801561053f5780601f106105165761010080835404028352916020019161053f565b820191905f5260205f20905b81548152906001019060200180831161052257829003601f168201915b5050505050945083805461055290610a38565b80601f016020809104026020016040519081016040528092919081815260200182805461057e90610a38565b80156105c95780601f106105a0576101008083540402835291602001916105c9565b820191905f5260205f20905b8154815290600101906020018083116105ac57829003601f168201915b505050505093508280546105dc90610a38565b80601f016020809104026020016040519081016040528092919081815260200182805461060890610a38565b80156106535780601f1061062a57610100808354040283529160200191610653565b820191905f5260205f20905b81548152906001019060200180831161063657829003601f168201915b50505050509250945094509450945094509091929394565b60015461010090046001600160a01b031633148061069357506002546001600160a01b031633145b6106af5760405162461bcd60e51b81526004016101c190610a14565b6005805463ffff000019166201000061ffff8416021790556040513381525f80516020610b78833981519152906020016101f0565b60015461010090046001600160a01b031633148061070c57506002546001600160a01b031633145b6107285760405162461bcd60e51b81526004016101c190610a14565b5f6101d68282610abc565b60015461010090046001600160a01b031633148061075b57506002546001600160a01b031633145b6107775760405162461bcd60e51b81526004016101c190610a14565b60036101d68282610abc565b634e487b7160e01b5f52604160045260245ffd5b5f82601f8301126107a6575f80fd5b813567ffffffffffffffff8111156107c0576107c0610783565b604051601f8201601f19908116603f0116810167ffffffffffffffff811182821017156107ef576107ef610783565b604052818152838201602001851015610806575f80fd5b816020850160208301375f918101602001919091529392505050565b5f60208284031215610832575f80fd5b813567ffffffffffffffff811115610848575f80fd5b61085484828501610797565b949350505050565b5f6020828403121561086c575f80fd5b81356001600160a01b0381168114610882575f80fd5b9392505050565b60208101600383106108a957634e487b7160e01b5f52602160045260245ffd5b91905290565b803561ffff811681146108c0575f80fd5b919050565b5f602082840312156108d5575f80fd5b610882826108af565b5f805f805f60a086880312156108f2575f80fd5b853567ffffffffffffffff811115610908575f80fd5b61091488828901610797565b955050602086013567ffffffffffffffff811115610930575f80fd5b61093c88828901610797565b945050604086013567ffffffffffffffff811115610958575f80fd5b61096488828901610797565b935050610973606087016108af565b9150610981608087016108af565b90509295509295909350565b5f81518084528060208401602086015e5f602082860101526020601f19601f83011685010191505092915050565b60a081525f6109cd60a083018861098d565b82810360208401526109df818861098d565b905082810360408401526109f3818761098d565b91505061ffff8416606083015261ffff831660808301529695505050505050565b6020808252600a908201526927b7363c9037bbb732b960b11b604082015260600190565b600181811c90821680610a4c57607f821691505b602082108103610a6a57634e487b7160e01b5f52602260045260245ffd5b50919050565b601f821115610ab757805f5260205f20601f840160051c81016020851015610a955750805b601f840160051c820191505b81811015610ab4575f8155600101610aa1565b50505b505050565b815167ffffffffffffffff811115610ad657610ad6610783565b610aea81610ae48454610a38565b84610a70565b6020601f821160018114610b1c575f8315610b055750848201515b5f19600385901b1c1916600184901b178455610ab4565b5f84815260208120601f198516915b82811015610b4b5787850151825560209485019460019092019101610b2b565b5084821015610b6857868401515f19600387901b60f8161c191681555b50505050600190811b0190555056fee00da2178806f37f69815e9ed5ed3072ec1d55206d60916d99b469c7daa421e4a2646970667358221220430e54b513933738eba527e36438a9262382a9c14c51368210a1791be6b262f664736f6c634300081a0033608060405234801561000f575f80fd5b50604051610c74380380610c7483398101604081905261002e916101da565b835f83838261003d85826102e3565b506001805484919060ff19168183600281111561005c5761005c61039d565b021790555060018054610100600160a81b0319166101006001600160a01b0394851602179055600280546001600160a01b0319169190921617905550600390506100a684826102e3565b5060018054610100600160a81b0319166101006001600160a01b038581169190910291909117909155600280546001600160a01b0319169183169190911790556040513381527f1449abf21e49fd025f33495e77f7b1461caefdd3d4bb646424a3f445c4576a5b9060200160405180910390a1505050506103b1565b634e487b7160e01b5f52604160045260245ffd5b5f82601f830112610145575f80fd5b81516001600160401b0381111561015e5761015e610122565b604051601f8201601f19908116603f011681016001600160401b038111828210171561018c5761018c610122565b6040528181528382016020018510156101a3575f80fd5b8160208501602083015e5f918101602001919091529392505050565b80516001600160a01b03811681146101d5575f80fd5b919050565b5f805f80608085870312156101ed575f80fd5b84516001600160401b03811115610202575f80fd5b61020e87828801610136565b602087015190955090506001600160401b0381111561022b575f80fd5b61023787828801610136565b935050610246604086016101bf565b9150610254606086016101bf565b905092959194509250565b600181811c9082168061027357607f821691505b60208210810361029157634e487b7160e01b5f52602260045260245ffd5b50919050565b601f8211156102de57805f5260205f20601f840160051c810160208510156102bc5750805b601f840160051c820191505b818110156102db575f81556001016102c8565b50505b505050565b81516001600160401b038111156102fc576102fc610122565b6103108161030a845461025f565b84610297565b6020601f821160018114610342575f831561032b5750848201515b5f19600385901b1c1916600184901b1784556102db565b5f84815260208120601f198516915b828110156103715787850151825560209485019460019092019101610351565b508482101561038e57868401515f19600387901b60f8161c191681555b50505050600190811b01905550565b634e487b7160e01b5f52602160045260245ffd5b6108b6806103be5f395ff3fe608060405234801561000f575f80fd5b506004361061007a575f3560e01c806380f760211161005857806380f76021146100c4578063ba379e86146100e4578063c47f0027146100fa578063efd8af9f1461010d575f80fd5b80631499c5921461007e5780632858d3c8146100935780637a4c982e146100b1575b5f80fd5b61009161008c366004610531565b610120565b005b61009b6101bf565b6040516100a8919061055e565b60405180910390f35b6100916100bf366004610623565b61020f565b6100cc6102a3565b6040516001600160a01b0390911681526020016100a8565b6100ec6102f9565b6040516100a89291906106b6565b6100916101083660046106e3565b610461565b61009161011b3660046106e3565b6104e1565b60015461010090046001600160a01b031633148061014857506002546001600160a01b031633145b61016d5760405162461bcd60e51b81526004016101649061071d565b60405180910390fd5b600280546001600160a01b0319166001600160a01b0383161790556040513381527fe00da2178806f37f69815e9ed5ed3072ec1d55206d60916d99b469c7daa421e4906020015b60405180910390a150565b6001545f9061010090046001600160a01b03163314806101e957506002546001600160a01b031633145b6102055760405162461bcd60e51b81526004016101649061071d565b5060015460ff1690565b60015461010090046001600160a01b031633148061023757506002546001600160a01b031633145b6102535760405162461bcd60e51b81526004016101649061071d565b5f61025e83826107c5565b50600361026b82826107c5565b506040513381527fe00da2178806f37f69815e9ed5ed3072ec1d55206d60916d99b469c7daa421e49060200160405180910390a15050565b6001545f9061010090046001600160a01b03163314806102cd57506002546001600160a01b031633145b6102e95760405162461bcd60e51b81526004016101649061071d565b506002546001600160a01b031690565b600154606090819061010090046001600160a01b031633148061032657506002546001600160a01b031633145b6103425760405162461bcd60e51b81526004016101649061071d565b5f600381805461035190610741565b80601f016020809104026020016040519081016040528092919081815260200182805461037d90610741565b80156103c85780601f1061039f576101008083540402835291602001916103c8565b820191905f5260205f20905b8154815290600101906020018083116103ab57829003601f168201915b505050505091508080546103db90610741565b80601f016020809104026020016040519081016040528092919081815260200182805461040790610741565b80156104525780601f1061042957610100808354040283529160200191610452565b820191905f5260205f20905b81548152906001019060200180831161043557829003601f168201915b50505050509050915091509091565b60015461010090046001600160a01b031633148061048957506002546001600160a01b031633145b6104a55760405162461bcd60e51b81526004016101649061071d565b5f6104b082826107c5565b506040513381527fe00da2178806f37f69815e9ed5ed3072ec1d55206d60916d99b469c7daa421e4906020016101b4565b60015461010090046001600160a01b031633148061050957506002546001600160a01b031633145b6105255760405162461bcd60e51b81526004016101649061071d565b60036104b082826107c5565b5f60208284031215610541575f80fd5b81356001600160a01b0381168114610557575f80fd5b9392505050565b602081016003831061057e57634e487b7160e01b5f52602160045260245ffd5b91905290565b634e487b7160e01b5f52604160045260245ffd5b5f82601f8301126105a7575f80fd5b813567ffffffffffffffff8111156105c1576105c1610584565b604051601f8201601f19908116603f0116810167ffffffffffffffff811182821017156105f0576105f0610584565b604052818152838201602001851015610607575f80fd5b816020850160208301375f918101602001919091529392505050565b5f8060408385031215610634575f80fd5b823567ffffffffffffffff81111561064a575f80fd5b61065685828601610598565b925050602083013567ffffffffffffffff811115610672575f80fd5b61067e85828601610598565b9150509250929050565b5f81518084528060208401602086015e5f602082860101526020601f19601f83011685010191505092915050565b604081525f6106c86040830185610688565b82810360208401526106da8185610688565b95945050505050565b5f602082840312156106f3575f80fd5b813567ffffffffffffffff811115610709575f80fd5b61071584828501610598565b949350505050565b6020808252600a908201526927b7363c9037bbb732b960b11b604082015260600190565b600181811c9082168061075557607f821691505b60208210810361077357634e487b7160e01b5f52602260045260245ffd5b50919050565b601f8211156107c057805f5260205f20601f840160051c8101602085101561079e5750805b601f840160051c820191505b818110156107bd575f81556001016107aa565b50505b505050565b815167ffffffffffffffff8111156107df576107df610584565b6107f3816107ed8454610741565b84610779565b6020601f821160018114610825575f831561080e5750848201515b5f19600385901b1c1916600184901b1784556107bd565b5f84815260208120601f198516915b828110156108545787850151825560209485019460019092019101610834565b508482101561087157868401515f19600387901b60f8161c191681555b50505050600190811b0190555056fea2646970667358221220fc60a4aec4d63e99fc593468e8823dc8feece997b4745650f3be8b1adde17ca964736f6c634300081a0033608060405234801561000f575f80fd5b50604051610f53380380610f5383398101604081905261002e916101b8565b85600283835f61003e8582610316565b506001805484919060ff19168183600281111561005d5761005d6103d0565b021790555060018054610100600160a81b0319166101006001600160a01b0394851602179055600280546001600160a01b0319169190921617905550600390506100a78682610316565b5060046100b48582610316565b5060056100c18482610316565b506040513381527f1449abf21e49fd025f33495e77f7b1461caefdd3d4bb646424a3f445c4576a5b9060200160405180910390a15050505050506103e4565b634e487b7160e01b5f52604160045260245ffd5b5f82601f830112610123575f80fd5b81516001600160401b0381111561013c5761013c610100565b604051601f8201601f19908116603f011681016001600160401b038111828210171561016a5761016a610100565b604052818152838201602001851015610181575f80fd5b8160208501602083015e5f918101602001919091529392505050565b80516001600160a01b03811681146101b3575f80fd5b919050565b5f805f805f8060c087890312156101cd575f80fd5b86516001600160401b038111156101e2575f80fd5b6101ee89828a01610114565b602089015190975090506001600160401b0381111561020b575f80fd5b61021789828a01610114565b604089015190965090506001600160401b03811115610234575f80fd5b61024089828a01610114565b606089015190955090506001600160401b0381111561025d575f80fd5b61026989828a01610114565b9350506102786080880161019d565b915061028660a0880161019d565b90509295509295509295565b600181811c908216806102a657607f821691505b6020821081036102c457634e487b7160e01b5f52602260045260245ffd5b50919050565b601f82111561031157805f5260205f20601f840160051c810160208510156102ef5750805b601f840160051c820191505b8181101561030e575f81556001016102fb565b50505b505050565b81516001600160401b0381111561032f5761032f610100565b6103438161033d8454610292565b846102ca565b6020601f821160018114610375575f831561035e5750848201515b5f19600385901b1c1916600184901b17845561030e565b5f84815260208120601f198516915b828110156103a45787850151825560209485019460019092019101610384565b50848210156103c157868401515f19600387901b60f8161c191681555b50505050600190811b01905550565b634e487b7160e01b5f52602160045260245ffd5b610b62806103f15f395ff3fe608060405234801561000f575f80fd5b5060043610610090575f3560e01c80632b5914fe116100635780632b5914fe146100ed57806380f7602114610100578063ac0344e614610120578063ba379e8614610133578063c47f00271461014b575f80fd5b80631499c59214610094578063252498a2146100a95780632858d3c8146100bc578063290bb453146100da575b5f80fd5b6100a76100a236600461075f565b61015e565b005b6100a76100b736600461082b565b6101fd565b6100c461027e565b6040516100d19190610865565b60405180910390f35b6100a76100e836600461082b565b6102ce565b6100a76100fb36600461082b565b61031e565b61010861036e565b6040516001600160a01b0390911681526020016100d1565b6100a761012e36600461088b565b6103c4565b61013b610474565b6040516100d19493929190610972565b6100a761015936600461082b565b610710565b60015461010090046001600160a01b031633148061018657506002546001600160a01b031633145b6101ab5760405162461bcd60e51b81526004016101a2906109c9565b60405180910390fd5b600280546001600160a01b0319166001600160a01b0383161790556040513381527fe00da2178806f37f69815e9ed5ed3072ec1d55206d60916d99b469c7daa421e4906020015b60405180910390a150565b60015461010090046001600160a01b031633148061022557506002546001600160a01b031633145b6102415760405162461bcd60e51b81526004016101a2906109c9565b600361024d8282610a71565b506040513381527fe00da2178806f37f69815e9ed5ed3072ec1d55206d60916d99b469c7daa421e4906020016101f2565b6001545f9061010090046001600160a01b03163314806102a857506002546001600160a01b031633145b6102c45760405162461bcd60e51b81526004016101a2906109c9565b5060015460ff1690565b60015461010090046001600160a01b03163314806102f657506002546001600160a01b031633145b6103125760405162461bcd60e51b81526004016101a2906109c9565b600561024d8282610a71565b60015461010090046001600160a01b031633148061034657506002546001600160a01b031633145b6103625760405162461bcd60e51b81526004016101a2906109c9565b600461024d8282610a71565b6001545f9061010090046001600160a01b031633148061039857506002546001600160a01b031633145b6103b45760405162461bcd60e51b81526004016101a2906109c9565b506002546001600160a01b031690565b60015461010090046001600160a01b03163314806103ec57506002546001600160a01b031633145b6104085760405162461bcd60e51b81526004016101a2906109c9565b5f6104138582610a71565b5060036104208482610a71565b50600461042d8382610a71565b50600561043a8282610a71565b506040513381527fe00da2178806f37f69815e9ed5ed3072ec1d55206d60916d99b469c7daa421e49060200160405180910390a150505050565b60608060608060018054906101000a90046001600160a01b03166001600160a01b0316336001600160a01b031614806104b757506002546001600160a01b031633145b6104d35760405162461bcd60e51b81526004016101a2906109c9565b5f6003600460058380546104e6906109ed565b80601f0160208091040260200160405190810160405280929190818152602001828054610512906109ed565b801561055d5780601f106105345761010080835404028352916020019161055d565b820191905f5260205f20905b81548152906001019060200180831161054057829003601f168201915b50505050509350828054610570906109ed565b80601f016020809104026020016040519081016040528092919081815260200182805461059c906109ed565b80156105e75780601f106105be576101008083540402835291602001916105e7565b820191905f5260205f20905b8154815290600101906020018083116105ca57829003601f168201915b505050505092508180546105fa906109ed565b80601f0160208091040260200160405190810160405280929190818152602001828054610626906109ed565b80156106715780601f1061064857610100808354040283529160200191610671565b820191905f5260205f20905b81548152906001019060200180831161065457829003601f168201915b50505050509150808054610684906109ed565b80601f01602080910402602001604051908101604052809291908181526020018280546106b0906109ed565b80156106fb5780601f106106d2576101008083540402835291602001916106fb565b820191905f5260205f20905b8154815290600101906020018083116106de57829003601f168201915b50505050509050935093509350935090919293565b60015461010090046001600160a01b031633148061073857506002546001600160a01b031633145b6107545760405162461bcd60e51b81526004016101a2906109c9565b5f61024d8282610a71565b5f6020828403121561076f575f80fd5b81356001600160a01b0381168114610785575f80fd5b9392505050565b634e487b7160e01b5f52604160045260245ffd5b5f82601f8301126107af575f80fd5b813567ffffffffffffffff8111156107c9576107c961078c565b604051601f8201601f19908116603f0116810167ffffffffffffffff811182821017156107f8576107f861078c565b60405281815283820160200185101561080f575f80fd5b816020850160208301375f918101602001919091529392505050565b5f6020828403121561083b575f80fd5b813567ffffffffffffffff811115610851575f80fd5b61085d848285016107a0565b949350505050565b602081016003831061088557634e487b7160e01b5f52602160045260245ffd5b91905290565b5f805f806080858703121561089e575f80fd5b843567ffffffffffffffff8111156108b4575f80fd5b6108c0878288016107a0565b945050602085013567ffffffffffffffff8111156108dc575f80fd5b6108e8878288016107a0565b935050604085013567ffffffffffffffff811115610904575f80fd5b610910878288016107a0565b925050606085013567ffffffffffffffff81111561092c575f80fd5b610938878288016107a0565b91505092959194509250565b5f81518084528060208401602086015e5f602082860101526020601f19601f83011685010191505092915050565b608081525f6109846080830187610944565b82810360208401526109968187610944565b905082810360408401526109aa8186610944565b905082810360608401526109be8185610944565b979650505050505050565b6020808252600a908201526927b7363c9037bbb732b960b11b604082015260600190565b600181811c90821680610a0157607f821691505b602082108103610a1f57634e487b7160e01b5f52602260045260245ffd5b50919050565b601f821115610a6c57805f5260205f20601f840160051c81016020851015610a4a5750805b601f840160051c820191505b81811015610a69575f8155600101610a56565b50505b505050565b815167ffffffffffffffff811115610a8b57610a8b61078c565b610a9f81610a9984546109ed565b84610a25565b6020601f821160018114610ad1575f8315610aba5750848201515b5f19600385901b1c1916600184901b178455610a69565b5f84815260208120601f198516915b82811015610b005787850151825560209485019460019092019101610ae0565b5084821015610b1d57868401515f19600387901b60f8161c191681555b50505050600190811b0190555056fea264697066735822122089b0d56be9f9726de8b9a64ecbd3e616b7d396f52c7d588f80bc27a659e8729d64736f6c634300081a0033608060405234801561000f575f80fd5b50604051611cc8380380611cc883398101604081905261002e9161016a565b5f61003984826102be565b50600380546001600160a01b038085166001600160a01b031992831681179093556004805491851691909216179055604080516080810182526001918101828152601560f91b606083015281526020810192909252805480820182555f91909152815160029091027fb10e2d527612073b26eecdfd717e6a320cf44b4afac2b0732d9fcbe2b7fa0cf6019081906100d090826102be565b50602091820151600190910180546001600160a01b0319166001600160a01b039092169190911790556040805133815230928101929092527f587ece4cd19692c5be1a4184503d607d45542d2aca0698c0068f52e09ccb541c910160405180910390a1505050610378565b634e487b7160e01b5f52604160045260245ffd5b80516001600160a01b0381168114610165575f80fd5b919050565b5f805f6060848603121561017c575f80fd5b83516001600160401b03811115610191575f80fd5b8401601f810186136101a1575f80fd5b80516001600160401b038111156101ba576101ba61013b565b604051601f8201601f19908116603f011681016001600160401b03811182821017156101e8576101e861013b565b6040528181528282016020018810156101ff575f80fd5b8160208401602083015e5f602083830101528095505050506102236020850161014f565b91506102316040850161014f565b90509250925092565b600181811c9082168061024e57607f821691505b60208210810361026c57634e487b7160e01b5f52602260045260245ffd5b50919050565b601f8211156102b957805f5260205f20601f840160051c810160208510156102975750805b601f840160051c820191505b818110156102b6575f81556001016102a3565b50505b505050565b81516001600160401b038111156102d7576102d761013b565b6102eb816102e5845461023a565b84610272565b6020601f82116001811461031d575f83156103065750848201515b5f19600385901b1c1916600184901b1784556102b6565b5f84815260208120601f198516915b8281101561034c578785015182556020948501946001909201910161032c565b508482101561036957868401515f19600387901b60f8161c191681555b50505050600190811b01905550565b611943806103855f395ff3fe608060405234801561000f575f80fd5b5060043610610085575f3560e01c806345e397051161005857806345e39705146100e25780639eab5253146100f5578063b9daf3e21461010a578063d7c4310f14610122575f80fd5b80630b1ca49a1461008957806317d7de7c1461009e57806326e3bc4e146100bc578063369080e7146100cf575b5f80fd5b61009c61009736600461142c565b610142565b005b6100a66104ac565b6040516100b3919061147a565b60405180910390f35b61009c6100ca36600461149a565b610651565b61009c6100dd36600461149a565b610a7b565b61009c6100f03660046114df565b610c7f565b6100fd610e9d565b6040516100b3919061159a565b610112610ff8565b60405190151581526020016100b3565b61013561013036600461161a565b611121565b6040516100b39190611633565b60035481906001600160a01b031633148061026f57505f1961025a336001805480602002602001604051908101604052809291908181526020015f905b82821015610251578382905f5260205f2090600202016040518060400160405290815f820180546101af9061167e565b80601f01602080910402602001604051908101604052809291908181526020018280546101db9061167e565b80156102265780601f106101fd57610100808354040283529160200191610226565b820191905f5260205f20905b81548152906001019060200180831161020957829003601f168201915b50505091835250506001918201546001600160a01b031660209182015291835292909201910161017f565b50505050611317565b13801561026f5750336001600160a01b038216145b6102b25760405162461bcd60e51b815260206004820152600f60248201526e27b7363c9037bbb732b93e39b2b63360891b60448201526064015b60405180910390fd5b5f6103aa836001805480602002602001604051908101604052809291908181526020015f905b82821015610251578382905f5260205f2090600202016040518060400160405290815f820180546103089061167e565b80601f01602080910402602001604051908101604052809291908181526020018280546103349061167e565b801561037f5780601f106103565761010080835404028352916020019161037f565b820191905f5260205f20905b81548152906001019060200180831161036257829003601f168201915b50505091835250506001918201546001600160a01b03166020918201529183529290920191016102d8565b9050805f19146103e75760405162461bcd60e51b815260206004820152600860248201526709cde40d2dcc8caf60c31b60448201526064016102a9565b600180546103f69082906116b6565b81548110610406576104066116d5565b905f5260205f20906002020160018281548110610425576104256116d5565b5f91825260209091206002909102018061043f8382611735565b5060019182015490820180546001600160a01b0319166001600160a01b039092169190911790558054806104755761047561180d565b5f828152602081205f199092019160028302019061049382826113c4565b5060010180546001600160a01b03191690559055505050565b60605f196105a7336001805480602002602001604051908101604052809291908181526020015f905b82821015610251578382905f5260205f2090600202016040518060400160405290815f820180546105059061167e565b80601f01602080910402602001604051908101604052809291908181526020018280546105319061167e565b801561057c5780601f106105535761010080835404028352916020019161057c565b820191905f5260205f20905b81548152906001019060200180831161055f57829003601f168201915b50505091835250506001918201546001600160a01b03166020918201529183529290920191016104d5565b136105c45760405162461bcd60e51b81526004016102a990611821565b5f80546105d09061167e565b80601f01602080910402602001604051908101604052809291908181526020018280546105fc9061167e565b80156106475780601f1061061e57610100808354040283529160200191610647565b820191905f5260205f20905b81548152906001019060200180831161062a57829003601f168201915b5050505050905090565b5f1961074a336001805480602002602001604051908101604052809291908181526020015f905b82821015610251578382905f5260205f2090600202016040518060400160405290815f820180546106a89061167e565b80601f01602080910402602001604051908101604052809291908181526020018280546106d49061167e565b801561071f5780601f106106f65761010080835404028352916020019161071f565b820191905f5260205f20905b81548152906001019060200180831161070257829003601f168201915b50505091835250506001918201546001600160a01b0316602091820152918352929092019101610678565b136107675760405162461bcd60e51b81526004016102a990611821565b5f6108118260025f86600281111561078157610781611846565b600281111561079257610792611846565b81526020019081526020015f20805480602002602001604051908101604052809291908181526020015f905b82821015610808575f848152602090819020604080518082019091526002850290910180546001600160a01b039081168352600191820154168284015290835290920191016107be565b50505050611374565b90505f81121561084e5760405162461bcd60e51b815260206004820152600860248201526709cde40d2dcc8caf60c31b60448201526064016102a9565b3360025f858281111561086357610863611846565b600281111561087457610874611846565b81526020019081526020015f208281548110610892576108926116d5565b5f9182526020909120600160029092020101546001600160a01b0316146108ea5760405162461bcd60e51b815260206004820152600c60248201526b27b7363c9031b932b0ba37b960a11b60448201526064016102a9565b60025f8460028111156108ff576108ff611846565b600281111561091057610910611846565b81526020019081526020015f20600160025f86600281111561093457610934611846565b600281111561094557610945611846565b815260208101919091526040015f205461095f91906116b6565b8154811061096f5761096f6116d5565b905f5260205f20906002020160025f85600281111561099057610990611846565b60028111156109a1576109a1611846565b81526020019081526020015f2082815481106109bf576109bf6116d5565b5f918252602082208354600292830290910180546001600160a01b039283166001600160a01b0319918216178255600195860154959091018054959092169416939093179092558482811115610a1757610a17611846565b6002811115610a2857610a28611846565b81526020019081526020015f20805480610a4457610a4461180d565b5f8281526020902060025f199092019182020180546001600160a01b03199081168255600191909101805490911690559055505050565b5f19610b74336001805480602002602001604051908101604052809291908181526020015f905b82821015610251578382905f5260205f2090600202016040518060400160405290815f82018054610ad29061167e565b80601f0160208091040260200160405190810160405280929190818152602001828054610afe9061167e565b8015610b495780601f10610b2057610100808354040283529160200191610b49565b820191905f5260205f20905b815481529060010190602001808311610b2c57829003601f168201915b50505091835250506001918201546001600160a01b0316602091820152918352929092019101610aa2565b13610b915760405162461bcd60e51b81526004016102a990611821565b5f610bab8260025f86600281111561078157610781611846565b90505f19811315610be75760405162461bcd60e51b815260206004820152600660248201526545786973747360d01b60448201526064016102a9565b60025f846002811115610bfc57610bfc611846565b6002811115610c0d57610c0d611846565b815260208082019290925260409081015f90812082518084019093526001600160a01b03958616835233838501908152815460018181018455928452949092209251600290940290920180549386166001600160a01b0319948516178155905191018054919094169116179091555050565b6003546001600160a01b0316331480610ca257506004546001600160a01b031633145b610cdb5760405162461bcd60e51b815260206004820152600a60248201526927b7363c9037bbb732b960b11b60448201526064016102a9565b5f610dd3826001805480602002602001604051908101604052809291908181526020015f905b82821015610251578382905f5260205f2090600202016040518060400160405290815f82018054610d319061167e565b80601f0160208091040260200160405190810160405280929190818152602001828054610d5d9061167e565b8015610da85780601f10610d7f57610100808354040283529160200191610da8565b820191905f5260205f20905b815481529060010190602001808311610d8b57829003601f168201915b50505091835250506001918201546001600160a01b0316602091820152918352929092019101610d01565b9050805f1914610e0e5760405162461bcd60e51b815260206004820152600660248201526545786973747360d01b60448201526064016102a9565b604080518082019091528381526001600160a01b03831660208201526001805480820182555f91909152815160029091027fb10e2d527612073b26eecdfd717e6a320cf44b4afac2b0732d9fcbe2b7fa0cf601908190610e6e908261185a565b5060209190910151600190910180546001600160a01b0319166001600160a01b03909216919091179055505050565b6003546060906001600160a01b0316331480610ec357506004546001600160a01b031633145b610efc5760405162461bcd60e51b815260206004820152600a60248201526927b7363c9037bbb732b960b11b60448201526064016102a9565b6001805480602002602001604051908101604052809291908181526020015f905b82821015610fef578382905f5260205f2090600202016040518060400160405290815f82018054610f4d9061167e565b80601f0160208091040260200160405190810160405280929190818152602001828054610f799061167e565b8015610fc45780601f10610f9b57610100808354040283529160200191610fc4565b820191905f5260205f20905b815481529060010190602001808311610fa757829003601f168201915b50505091835250506001918201546001600160a01b0316602091820152918352929092019101610f1d565b50505050905090565b5f5f196110f2336001805480602002602001604051908101604052809291908181526020015f905b82821015610251578382905f5260205f2090600202016040518060400160405290815f820180546110509061167e565b80601f016020809104026020016040519081016040528092919081815260200182805461107c9061167e565b80156110c75780601f1061109e576101008083540402835291602001916110c7565b820191905f5260205f20905b8154815290600101906020018083116110aa57829003601f168201915b50505091835250506001918201546001600160a01b0316602091820152918352929092019101611020565b1361110f5760405162461bcd60e51b81526004016102a990611821565b506003546001600160a01b0316331490565b60605f1961121c336001805480602002602001604051908101604052809291908181526020015f905b82821015610251578382905f5260205f2090600202016040518060400160405290815f8201805461117a9061167e565b80601f01602080910402602001604051908101604052809291908181526020018280546111a69061167e565b80156111f15780601f106111c8576101008083540402835291602001916111f1565b820191905f5260205f20905b8154815290600101906020018083116111d457829003601f168201915b50505091835250506001918201546001600160a01b031660209182015291835292909201910161114a565b136112395760405162461bcd60e51b81526004016102a990611821565b60605f5b60025f85600281111561125257611252611846565b600281111561126357611263611846565b815260208101919091526040015f205481101561130e5760025f85600281111561128f5761128f611846565b60028111156112a0576112a0611846565b81526020019081526020015f2081815481106112be576112be6116d5565b5f91825260209091206002909102015482516001600160a01b03909116908390839081106112ee576112ee6116d5565b6001600160a01b039092166020928302919091019091015260010161123d565b5090505b919050565b5f805b825181101561136857836001600160a01b031683828151811061133f5761133f6116d5565b6020026020010151602001516001600160a01b03160361136057905061136e565b60010161131a565b505f1990505b92915050565b5f805b825181101561136857836001600160a01b031683828151811061139c5761139c6116d5565b60200260200101515f01516001600160a01b0316036113bc57905061136e565b600101611377565b5080546113d09061167e565b5f825580601f106113df575050565b601f0160209004905f5260205f20908101906113fb91906113fe565b50565b5b80821115611412575f81556001016113ff565b5090565b80356001600160a01b0381168114611312575f80fd5b5f6020828403121561143c575f80fd5b61144582611416565b9392505050565b5f81518084528060208401602086015e5f602082860101526020601f19601f83011685010191505092915050565b602081525f611445602083018461144c565b803560038110611312575f80fd5b5f80604083850312156114ab575f80fd5b6114b48361148c565b91506114c260208401611416565b90509250929050565b634e487b7160e01b5f52604160045260245ffd5b5f80604083850312156114f0575f80fd5b823567ffffffffffffffff811115611506575f80fd5b8301601f81018513611516575f80fd5b803567ffffffffffffffff811115611530576115306114cb565b604051601f8201601f19908116603f0116810167ffffffffffffffff8111828210171561155f5761155f6114cb565b604052818152828201602001871015611576575f80fd5b816020840160208301375f602083830101528094505050506114c260208401611416565b5f602082016020835280845180835260408501915060408160051b8601019250602086015f5b8281101561160e57603f1987860301845281518051604087526115e6604088018261144c565b6020928301516001600160a01b031697830197909752509384019391909101906001016115c0565b50929695505050505050565b5f6020828403121561162a575f80fd5b6114458261148c565b602080825282518282018190525f918401906040840190835b818110156116735783516001600160a01b031683526020938401939092019160010161164c565b509095945050505050565b600181811c9082168061169257607f821691505b6020821081036116b057634e487b7160e01b5f52602260045260245ffd5b50919050565b8181038181111561136e57634e487b7160e01b5f52601160045260245ffd5b634e487b7160e01b5f52603260045260245ffd5b601f82111561173057805f5260205f20601f840160051c8101602085101561170e5750805b601f840160051c820191505b8181101561172d575f815560010161171a565b50505b505050565b818103611740575050565b61174a825461167e565b67ffffffffffffffff811115611762576117626114cb565b61177681611770845461167e565b846116e9565b5f601f8211600181146117aa575f83156117905750848201545b600184901b5f19600386901b1c198216175b85555061172d565b5f8581526020808220868352908220601f198616925b838110156117e057828601548255600195860195909101906020016117c0565b50858310156117fd57818501545f19600388901b60f8161c191681555b5050505050600190811b01905550565b634e487b7160e01b5f52603160045260245ffd5b6020808252600b908201526a27b7363c9036b2b6b132b960a91b604082015260600190565b634e487b7160e01b5f52602160045260245ffd5b815167ffffffffffffffff811115611874576118746114cb565b61188281611770845461167e565b6020601f8211600181146118b2575f8315611790575081850151600184901b5f19600386901b1c198216176117a2565b5f84815260208120601f198516915b828110156118e157878501518255602094850194600190920191016118c1565b50848210156118fe57868401515f19600387901b60f8161c191681555b50505050600190811b0190555056fea26469706673582212201fa3a340b7df1092587697386f883531b102ec37d7a9c5d6ab162c0ceb5ee6e964736f6c634300081a0033a2646970667358221220cee557c2ac6be156f531b032d71657ff65b5a9cf9c300c99fd810c797257f08864736f6c634300081a0033",
			"opcodes": "PUSH1 0x80 PUSH1 0x40 MSTORE CALLVALUE DUP1 ISZERO PUSH1 0xE JUMPI PUSH0 DUP1 REVERT JUMPDEST POP PUSH1 0x40 MLOAD PUSH2 0x5A07 CODESIZE SUB DUP1 PUSH2 0x5A07 DUP4 CODECOPY DUP2 ADD PUSH1 0x40 DUP2 SWAP1 MSTORE PUSH1 0x2B SWAP2 PUSH1 0x70 JUMP JUMPDEST PUSH0 DUP1 SLOAD PUSH1 0x1 PUSH1 0x1 PUSH1 0xA0 SHL SUB SWAP4 DUP5 AND PUSH1 0x1 PUSH1 0x1 PUSH1 0xA0 SHL SUB NOT SWAP2 DUP3 AND OR SWAP1 SWAP2 SSTORE PUSH1 0x1 DUP1 SLOAD SWAP3 SWAP1 SWAP4 AND SWAP2 AND OR SWAP1 SSTORE PUSH1 0xA3 JUMP JUMPDEST PUSH1 0x1 PUSH1 0x1 PUSH1 0xA0 SHL SUB DUP2 AND DUP2 EQ PUSH1 0x6D JUMPI PUSH0 DUP1 REVERT JUMPDEST POP JUMP JUMPDEST PUSH0 DUP1 PUSH1 0x40 DUP4 DUP6 SUB SLT ISZERO PUSH1 0x80 JUMPI PUSH0 DUP1 REVERT JUMPDEST DUP3 MLOAD PUSH1 0x89 DUP2 PUSH1 0x5A JUMP JUMPDEST PUSH1 0x20 DUP5 ADD MLOAD SWAP1 SWAP3 POP PUSH1 0x98 DUP2 PUSH1 0x5A JUMP JUMPDEST DUP1 SWAP2 POP POP SWAP3 POP SWAP3 SWAP1 POP JUMP JUMPDEST PUSH2 0x5957 DUP1 PUSH2 0xB0 PUSH0 CODECOPY PUSH0 RETURN INVALID PUSH1 0x80 PUSH1 0x40 MSTORE PUSH1 0x4 CALLDATASIZE LT PUSH2 0x99 JUMPI PUSH0 CALLDATALOAD PUSH1 0xE0 SHR DUP1 PUSH4 0x78BD5202 GT PUSH2 0x60 JUMPI DUP1 PUSH4 0x78BD5202 EQ PUSH2 0x139 JUMPI DUP1 PUSH4 0x97D27CD5 EQ PUSH2 0x165 JUMPI DUP1 PUSH4 0x98529DC5 EQ PUSH2 0x184 JUMPI DUP1 PUSH4 0x9E1A00AA EQ PUSH2 0x1A3 JUMPI DUP1 PUSH4 0xD0E30DB0 EQ PUSH2 0xA0 JUMPI DUP1 PUSH4 0xEAFFD429 EQ PUSH2 0x1B6 JUMPI STOP JUMPDEST DUP1 PUSH4 0x12065FE0 EQ PUSH2 0xA2 JUMPI DUP1 PUSH4 0x14DEFFC1 EQ PUSH2 0xC9 JUMPI DUP1 PUSH4 0x26E3BC4E EQ PUSH2 0xE8 JUMPI DUP1 PUSH4 0x2E1A7D4D EQ PUSH2 0x107 JUMPI DUP1 PUSH4 0x3046E41B EQ PUSH2 0x11A JUMPI STOP JUMPDEST CALLDATASIZE PUSH2 0xA0 JUMPI STOP JUMPDEST STOP JUMPDEST CALLVALUE DUP1 ISZERO PUSH2 0xAD JUMPI PUSH0 DUP1 REVERT JUMPDEST POP PUSH2 0xB6 PUSH2 0x1CA JUMP JUMPDEST PUSH1 0x40 MLOAD SWAP1 DUP2 MSTORE PUSH1 0x20 ADD JUMPDEST PUSH1 0x40 MLOAD DUP1 SWAP2 SUB SWAP1 RETURN JUMPDEST CALLVALUE DUP1 ISZERO PUSH2 0xD4 JUMPI PUSH0 DUP1 REVERT JUMPDEST POP PUSH2 0xA0 PUSH2 0xE3 CALLDATASIZE PUSH1 0x4 PUSH2 0xAF0 JUMP JUMPDEST PUSH2 0x217 JUMP JUMPDEST CALLVALUE DUP1 ISZERO PUSH2 0xF3 JUMPI PUSH0 DUP1 REVERT JUMPDEST POP PUSH2 0xA0 PUSH2 0x102 CALLDATASIZE PUSH1 0x4 PUSH2 0xBC1 JUMP JUMPDEST PUSH2 0x309 JUMP JUMPDEST PUSH2 0xA0 PUSH2 0x115 CALLDATASIZE PUSH1 0x4 PUSH2 0xBF6 JUMP JUMPDEST PUSH2 0x3B3 JUMP JUMPDEST CALLVALUE DUP1 ISZERO PUSH2 0x125 JUMPI PUSH0 DUP1 REVERT JUMPDEST POP PUSH2 0xA0 PUSH2 0x134 CALLDATASIZE PUSH1 0x4 PUSH2 0xC0D JUMP JUMPDEST PUSH2 0x4BD JUMP JUMPDEST CALLVALUE DUP1 ISZERO PUSH2 0x144 JUMPI PUSH0 DUP1 REVERT JUMPDEST POP PUSH2 0x158 PUSH2 0x153 CALLDATASIZE PUSH1 0x4 PUSH2 0xC70 JUMP JUMPDEST PUSH2 0x59F JUMP JUMPDEST PUSH1 0x40 MLOAD PUSH2 0xC0 SWAP2 SWAP1 PUSH2 0xC90 JUMP JUMPDEST CALLVALUE DUP1 ISZERO PUSH2 0x170 JUMPI PUSH0 DUP1 REVERT JUMPDEST POP PUSH2 0xA0 PUSH2 0x17F CALLDATASIZE PUSH1 0x4 PUSH2 0xCDB JUMP JUMPDEST PUSH2 0x663 JUMP JUMPDEST CALLVALUE DUP1 ISZERO PUSH2 0x18F JUMPI PUSH0 DUP1 REVERT JUMPDEST POP PUSH2 0xA0 PUSH2 0x19E CALLDATASIZE PUSH1 0x4 PUSH2 0xD90 JUMP JUMPDEST PUSH2 0x750 JUMP JUMPDEST PUSH2 0xA0 PUSH2 0x1B1 CALLDATASIZE PUSH1 0x4 PUSH2 0xDC9 JUMP JUMPDEST PUSH2 0x80B JUMP JUMPDEST CALLVALUE DUP1 ISZERO PUSH2 0x1C1 JUMPI PUSH0 DUP1 REVERT JUMPDEST POP PUSH2 0x158 PUSH2 0x95D JUMP JUMPDEST PUSH0 DUP1 SLOAD PUSH1 0x1 PUSH1 0x1 PUSH1 0xA0 SHL SUB AND CALLER EQ DUP1 PUSH2 0x1ED JUMPI POP PUSH1 0x1 SLOAD PUSH1 0x1 PUSH1 0x1 PUSH1 0xA0 SHL SUB AND CALLER EQ JUMPDEST PUSH2 0x212 JUMPI PUSH1 0x40 MLOAD PUSH3 0x461BCD PUSH1 0xE5 SHL DUP2 MSTORE PUSH1 0x4 ADD PUSH2 0x209 SWAP1 PUSH2 0xDF3 JUMP JUMPDEST PUSH1 0x40 MLOAD DUP1 SWAP2 SUB SWAP1 REVERT JUMPDEST POP SELFBALANCE SWAP1 JUMP JUMPDEST PUSH0 SLOAD PUSH1 0x1 PUSH1 0x1 PUSH1 0xA0 SHL SUB AND CALLER EQ DUP1 PUSH2 0x239 JUMPI POP PUSH1 0x1 SLOAD PUSH1 0x1 PUSH1 0x1 PUSH1 0xA0 SHL SUB AND CALLER EQ JUMPDEST PUSH2 0x255 JUMPI PUSH1 0x40 MLOAD PUSH3 0x461BCD PUSH1 0xE5 SHL DUP2 MSTORE PUSH1 0x4 ADD PUSH2 0x209 SWAP1 PUSH2 0xDF3 JUMP JUMPDEST PUSH1 0x1 PUSH0 SWAP1 DUP2 MSTORE PUSH1 0x2 PUSH1 0x20 MSTORE SLOAD PUSH1 0x40 MLOAD PUSH32 0xE90B7BCEB6E7DF5418FB78D8EE546E97C83A08BBCCC01A0644D599CCD2A7C2E0 SWAP2 DUP8 SWAP2 DUP8 SWAP2 DUP8 SWAP2 DUP8 SWAP2 DUP8 SWAP2 PUSH1 0x1 PUSH1 0x1 PUSH1 0xA0 SHL SUB SWAP1 SWAP2 AND SWAP1 ADDRESS SWAP1 PUSH2 0x2A7 SWAP1 PUSH2 0x9FC JUMP JUMPDEST PUSH2 0x2B7 SWAP8 SWAP7 SWAP6 SWAP5 SWAP4 SWAP3 SWAP2 SWAP1 PUSH2 0xE45 JUMP JUMPDEST PUSH1 0x40 MLOAD DUP1 SWAP2 SUB SWAP1 PUSH0 CREATE DUP1 ISZERO DUP1 ISZERO PUSH2 0x2D0 JUMPI RETURNDATASIZE PUSH0 DUP1 RETURNDATACOPY RETURNDATASIZE PUSH0 REVERT JUMPDEST POP DUP2 SLOAD PUSH1 0x1 DUP2 ADD DUP4 SSTORE PUSH0 SWAP3 DUP4 MSTORE PUSH1 0x20 SWAP1 SWAP3 KECCAK256 SWAP1 SWAP2 ADD DUP1 SLOAD PUSH1 0x1 PUSH1 0x1 PUSH1 0xA0 SHL SUB NOT AND PUSH1 0x1 PUSH1 0x1 PUSH1 0xA0 SHL SUB SWAP1 SWAP3 AND SWAP2 SWAP1 SWAP2 OR SWAP1 SSTORE POP POP POP POP POP JUMP JUMPDEST PUSH0 SLOAD PUSH1 0x1 PUSH1 0x1 PUSH1 0xA0 SHL SUB AND CALLER EQ DUP1 PUSH2 0x32B JUMPI POP PUSH1 0x1 SLOAD PUSH1 0x1 PUSH1 0x1 PUSH1 0xA0 SHL SUB AND CALLER EQ JUMPDEST PUSH2 0x347 JUMPI PUSH1 0x40 MLOAD PUSH3 0x461BCD PUSH1 0xE5 SHL DUP2 MSTORE PUSH1 0x4 ADD PUSH2 0x209 SWAP1 PUSH2 0xDF3 JUMP JUMPDEST PUSH1 0x40 MLOAD PUSH4 0x3E5C9815 PUSH1 0xE0 SHL DUP2 MSTORE PUSH20 0x0 SWAP1 PUSH4 0x3E5C9815 SWAP1 PUSH2 0x383 SWAP1 PUSH1 0x2 SWAP1 DUP7 SWAP1 DUP7 SWAP1 PUSH1 0x4 ADD PUSH2 0xED2 JUMP JUMPDEST PUSH0 PUSH1 0x40 MLOAD DUP1 DUP4 SUB DUP2 DUP7 DUP1 EXTCODESIZE ISZERO DUP1 ISZERO PUSH2 0x399 JUMPI PUSH0 DUP1 REVERT JUMPDEST POP GAS DELEGATECALL ISZERO DUP1 ISZERO PUSH2 0x3AB JUMPI RETURNDATASIZE PUSH0 DUP1 RETURNDATACOPY RETURNDATASIZE PUSH0 REVERT JUMPDEST POP POP POP POP POP POP JUMP JUMPDEST PUSH0 SLOAD PUSH1 0x1 PUSH1 0x1 PUSH1 0xA0 SHL SUB AND CALLER EQ DUP1 PUSH2 0x3D5 JUMPI POP PUSH1 0x1 SLOAD PUSH1 0x1 PUSH1 0x1 PUSH1 0xA0 SHL SUB AND CALLER EQ JUMPDEST PUSH2 0x3F1 JUMPI PUSH1 0x40 MLOAD PUSH3 0x461BCD PUSH1 0xE5 SHL DUP2 MSTORE PUSH1 0x4 ADD PUSH2 0x209 SWAP1 PUSH2 0xDF3 JUMP JUMPDEST DUP1 SELFBALANCE LT ISZERO PUSH2 0x430 JUMPI PUSH1 0x40 MLOAD PUSH3 0x461BCD PUSH1 0xE5 SHL DUP2 MSTORE PUSH1 0x20 PUSH1 0x4 DUP3 ADD MSTORE PUSH1 0xC PUSH1 0x24 DUP3 ADD MSTORE PUSH12 0x125B9CDD59999A58DA595B9D PUSH1 0xA2 SHL PUSH1 0x44 DUP3 ADD MSTORE PUSH1 0x64 ADD PUSH2 0x209 JUMP JUMPDEST PUSH0 DUP1 SLOAD PUSH1 0x40 MLOAD PUSH1 0x1 PUSH1 0x1 PUSH1 0xA0 SHL SUB SWAP1 SWAP2 AND SWAP1 DUP4 SWAP1 DUP4 DUP2 DUP2 DUP2 DUP6 DUP8 GAS CALL SWAP3 POP POP POP RETURNDATASIZE DUP1 PUSH0 DUP2 EQ PUSH2 0x47A JUMPI PUSH1 0x40 MLOAD SWAP2 POP PUSH1 0x1F NOT PUSH1 0x3F RETURNDATASIZE ADD AND DUP3 ADD PUSH1 0x40 MSTORE RETURNDATASIZE DUP3 MSTORE RETURNDATASIZE PUSH0 PUSH1 0x20 DUP5 ADD RETURNDATACOPY PUSH2 0x47F JUMP JUMPDEST PUSH1 0x60 SWAP2 POP JUMPDEST POP POP SWAP1 POP DUP1 PUSH2 0x4B9 JUMPI PUSH1 0x40 MLOAD PUSH3 0x461BCD PUSH1 0xE5 SHL DUP2 MSTORE PUSH1 0x20 PUSH1 0x4 DUP3 ADD MSTORE PUSH1 0x6 PUSH1 0x24 DUP3 ADD MSTORE PUSH6 0x11985A5B1959 PUSH1 0xD2 SHL PUSH1 0x44 DUP3 ADD MSTORE PUSH1 0x64 ADD PUSH2 0x209 JUMP JUMPDEST POP POP JUMP JUMPDEST PUSH0 SLOAD PUSH1 0x1 PUSH1 0x1 PUSH1 0xA0 SHL SUB AND CALLER EQ DUP1 PUSH2 0x4DF JUMPI POP PUSH1 0x1 SLOAD PUSH1 0x1 PUSH1 0x1 PUSH1 0xA0 SHL SUB AND CALLER EQ JUMPDEST PUSH2 0x4FB JUMPI PUSH1 0x40 MLOAD PUSH3 0x461BCD PUSH1 0xE5 SHL DUP2 MSTORE PUSH1 0x4 ADD PUSH2 0x209 SWAP1 PUSH2 0xDF3 JUMP JUMPDEST PUSH0 DUP1 DUP1 MSTORE PUSH1 0x2 PUSH1 0x20 MSTORE SLOAD PUSH1 0x40 MLOAD PUSH32 0xAC33FF75C19E70FE83507DB0D683FD3465C996598DC972688B7ACE676C89077B SWAP2 DUP5 SWAP2 DUP5 SWAP2 PUSH1 0x1 PUSH1 0x1 PUSH1 0xA0 SHL SUB AND SWAP1 ADDRESS SWAP1 PUSH2 0x543 SWAP1 PUSH2 0xA09 JUMP JUMPDEST PUSH2 0x550 SWAP5 SWAP4 SWAP3 SWAP2 SWAP1 PUSH2 0xEFF JUMP JUMPDEST PUSH1 0x40 MLOAD DUP1 SWAP2 SUB SWAP1 PUSH0 CREATE DUP1 ISZERO DUP1 ISZERO PUSH2 0x569 JUMPI RETURNDATASIZE PUSH0 DUP1 RETURNDATACOPY RETURNDATASIZE PUSH0 REVERT JUMPDEST POP DUP2 SLOAD PUSH1 0x1 DUP2 ADD DUP4 SSTORE PUSH0 SWAP3 DUP4 MSTORE PUSH1 0x20 SWAP1 SWAP3 KECCAK256 SWAP1 SWAP2 ADD DUP1 SLOAD PUSH1 0x1 PUSH1 0x1 PUSH1 0xA0 SHL SUB NOT AND PUSH1 0x1 PUSH1 0x1 PUSH1 0xA0 SHL SUB SWAP1 SWAP3 AND SWAP2 SWAP1 SWAP2 OR SWAP1 SSTORE POP POP JUMP JUMPDEST PUSH0 SLOAD PUSH1 0x60 SWAP1 PUSH1 0x1 PUSH1 0x1 PUSH1 0xA0 SHL SUB AND CALLER EQ DUP1 PUSH2 0x5C4 JUMPI POP PUSH1 0x1 SLOAD PUSH1 0x1 PUSH1 0x1 PUSH1 0xA0 SHL SUB AND CALLER EQ JUMPDEST PUSH2 0x5E0 JUMPI PUSH1 0x40 MLOAD PUSH3 0x461BCD PUSH1 0xE5 SHL DUP2 MSTORE PUSH1 0x4 ADD PUSH2 0x209 SWAP1 PUSH2 0xDF3 JUMP JUMPDEST PUSH1 0x40 MLOAD PUSH4 0x6D7CC8C9 PUSH1 0xE1 SHL DUP2 MSTORE PUSH20 0x0 SWAP1 PUSH4 0xDAF99192 SWAP1 PUSH2 0x61A SWAP1 DUP6 SWAP1 PUSH1 0x2 SWAP1 PUSH1 0x4 ADD PUSH2 0xF48 JUMP JUMPDEST PUSH0 PUSH1 0x40 MLOAD DUP1 DUP4 SUB DUP2 DUP7 GAS DELEGATECALL ISZERO DUP1 ISZERO PUSH2 0x634 JUMPI RETURNDATASIZE PUSH0 DUP1 RETURNDATACOPY RETURNDATASIZE PUSH0 REVERT JUMPDEST POP POP POP POP PUSH1 0x40 MLOAD RETURNDATASIZE PUSH0 DUP3 RETURNDATACOPY PUSH1 0x1F RETURNDATASIZE SWAP1 DUP2 ADD PUSH1 0x1F NOT AND DUP3 ADD PUSH1 0x40 MSTORE PUSH2 0x65B SWAP2 SWAP1 DUP2 ADD SWAP1 PUSH2 0xF63 JUMP JUMPDEST SWAP1 POP JUMPDEST SWAP2 SWAP1 POP JUMP JUMPDEST PUSH0 SLOAD PUSH1 0x1 PUSH1 0x1 PUSH1 0xA0 SHL SUB AND CALLER EQ DUP1 PUSH2 0x685 JUMPI POP PUSH1 0x1 SLOAD PUSH1 0x1 PUSH1 0x1 PUSH1 0xA0 SHL SUB AND CALLER EQ JUMPDEST PUSH2 0x6A1 JUMPI PUSH1 0x40 MLOAD PUSH3 0x461BCD PUSH1 0xE5 SHL DUP2 MSTORE PUSH1 0x4 ADD PUSH2 0x209 SWAP1 PUSH2 0xDF3 JUMP JUMPDEST PUSH1 0x2 PUSH0 DUP2 DUP2 MSTORE PUSH1 0x20 SWAP2 SWAP1 SWAP2 MSTORE SLOAD PUSH1 0x40 MLOAD PUSH32 0x679795A0195A1B76CDEBB7C51D74E058AEE92919B8C3389AF86EF24535E8A28C SWAP2 DUP7 SWAP2 DUP7 SWAP2 DUP7 SWAP2 DUP7 SWAP2 PUSH1 0x1 PUSH1 0x1 PUSH1 0xA0 SHL SUB AND SWAP1 ADDRESS SWAP1 PUSH2 0x6F0 SWAP1 PUSH2 0xA16 JUMP JUMPDEST PUSH2 0x6FF SWAP7 SWAP6 SWAP5 SWAP4 SWAP3 SWAP2 SWAP1 PUSH2 0x1015 JUMP JUMPDEST PUSH1 0x40 MLOAD DUP1 SWAP2 SUB SWAP1 PUSH0 CREATE DUP1 ISZERO DUP1 ISZERO PUSH2 0x718 JUMPI RETURNDATASIZE PUSH0 DUP1 RETURNDATACOPY RETURNDATASIZE PUSH0 REVERT JUMPDEST POP DUP2 SLOAD PUSH1 0x1 DUP2 ADD DUP4 SSTORE PUSH0 SWAP3 DUP4 MSTORE PUSH1 0x20 SWAP1 SWAP3 KECCAK256 SWAP1 SWAP2 ADD DUP1 SLOAD PUSH1 0x1 PUSH1 0x1 PUSH1 0xA0 SHL SUB NOT AND PUSH1 0x1 PUSH1 0x1 PUSH1 0xA0 SHL SUB SWAP1 SWAP3 AND SWAP2 SWAP1 SWAP2 OR SWAP1 SSTORE POP POP POP POP JUMP JUMPDEST PUSH0 SLOAD PUSH1 0x1 PUSH1 0x1 PUSH1 0xA0 SHL SUB AND CALLER EQ DUP1 PUSH2 0x772 JUMPI POP PUSH1 0x1 SLOAD PUSH1 0x1 PUSH1 0x1 PUSH1 0xA0 SHL SUB AND CALLER EQ JUMPDEST PUSH2 0x78E JUMPI PUSH1 0x40 MLOAD PUSH3 0x461BCD PUSH1 0xE5 SHL DUP2 MSTORE PUSH1 0x4 ADD PUSH2 0x209 SWAP1 PUSH2 0xDF3 JUMP JUMPDEST PUSH1 0x3 DUP2 PUSH0 DUP1 SLOAD SWAP1 PUSH2 0x100 EXP SWAP1 DIV PUSH1 0x1 PUSH1 0x1 PUSH1 0xA0 SHL SUB AND ADDRESS PUSH1 0x40 MLOAD PUSH2 0x7B1 SWAP1 PUSH2 0xA23 JUMP JUMPDEST PUSH2 0x7BD SWAP4 SWAP3 SWAP2 SWAP1 PUSH2 0x1088 JUMP JUMPDEST PUSH1 0x40 MLOAD DUP1 SWAP2 SUB SWAP1 PUSH0 CREATE DUP1 ISZERO DUP1 ISZERO PUSH2 0x7D6 JUMPI RETURNDATASIZE PUSH0 DUP1 RETURNDATACOPY RETURNDATASIZE PUSH0 REVERT JUMPDEST POP DUP2 SLOAD PUSH1 0x1 DUP2 ADD DUP4 SSTORE PUSH0 SWAP3 DUP4 MSTORE PUSH1 0x20 SWAP1 SWAP3 KECCAK256 SWAP1 SWAP2 ADD DUP1 SLOAD PUSH1 0x1 PUSH1 0x1 PUSH1 0xA0 SHL SUB NOT AND PUSH1 0x1 PUSH1 0x1 PUSH1 0xA0 SHL SUB SWAP1 SWAP3 AND SWAP2 SWAP1 SWAP2 OR SWAP1 SSTORE POP JUMP JUMPDEST PUSH0 SLOAD PUSH1 0x1 PUSH1 0x1 PUSH1 0xA0 SHL SUB AND CALLER EQ DUP1 PUSH2 0x82D JUMPI POP PUSH1 0x1 SLOAD PUSH1 0x1 PUSH1 0x1 PUSH1 0xA0 SHL SUB AND CALLER EQ JUMPDEST PUSH2 0x849 JUMPI PUSH1 0x40 MLOAD PUSH3 0x461BCD PUSH1 0xE5 SHL DUP2 MSTORE PUSH1 0x4 ADD PUSH2 0x209 SWAP1 PUSH2 0xDF3 JUMP JUMPDEST PUSH1 0x1 PUSH1 0x1 PUSH1 0xA0 SHL SUB DUP3 AND PUSH2 0x891 JUMPI PUSH1 0x40 MLOAD PUSH3 0x461BCD PUSH1 0xE5 SHL DUP2 MSTORE PUSH1 0x20 PUSH1 0x4 DUP3 ADD MSTORE PUSH1 0xF PUSH1 0x24 DUP3 ADD MSTORE PUSH15 0x496E76616C69642061646472657373 PUSH1 0x88 SHL PUSH1 0x44 DUP3 ADD MSTORE PUSH1 0x64 ADD PUSH2 0x209 JUMP JUMPDEST DUP1 SELFBALANCE LT ISZERO PUSH2 0x8D0 JUMPI PUSH1 0x40 MLOAD PUSH3 0x461BCD PUSH1 0xE5 SHL DUP2 MSTORE PUSH1 0x20 PUSH1 0x4 DUP3 ADD MSTORE PUSH1 0xC PUSH1 0x24 DUP3 ADD MSTORE PUSH12 0x125B9CDD59999A58DA595B9D PUSH1 0xA2 SHL PUSH1 0x44 DUP3 ADD MSTORE PUSH1 0x64 ADD PUSH2 0x209 JUMP JUMPDEST PUSH0 DUP3 PUSH1 0x1 PUSH1 0x1 PUSH1 0xA0 SHL SUB AND DUP3 PUSH1 0x40 MLOAD PUSH0 PUSH1 0x40 MLOAD DUP1 DUP4 SUB DUP2 DUP6 DUP8 GAS CALL SWAP3 POP POP POP RETURNDATASIZE DUP1 PUSH0 DUP2 EQ PUSH2 0x919 JUMPI PUSH1 0x40 MLOAD SWAP2 POP PUSH1 0x1F NOT PUSH1 0x3F RETURNDATASIZE ADD AND DUP3 ADD PUSH1 0x40 MSTORE RETURNDATASIZE DUP3 MSTORE RETURNDATASIZE PUSH0 PUSH1 0x20 DUP5 ADD RETURNDATACOPY PUSH2 0x91E JUMP JUMPDEST PUSH1 0x60 SWAP2 POP JUMPDEST POP POP SWAP1 POP DUP1 PUSH2 0x958 JUMPI PUSH1 0x40 MLOAD PUSH3 0x461BCD PUSH1 0xE5 SHL DUP2 MSTORE PUSH1 0x20 PUSH1 0x4 DUP3 ADD MSTORE PUSH1 0x6 PUSH1 0x24 DUP3 ADD MSTORE PUSH6 0x11985A5B1959 PUSH1 0xD2 SHL PUSH1 0x44 DUP3 ADD MSTORE PUSH1 0x64 ADD PUSH2 0x209 JUMP JUMPDEST POP POP POP JUMP JUMPDEST PUSH0 SLOAD PUSH1 0x60 SWAP1 PUSH1 0x1 PUSH1 0x1 PUSH1 0xA0 SHL SUB AND CALLER EQ DUP1 PUSH2 0x982 JUMPI POP PUSH1 0x1 SLOAD PUSH1 0x1 PUSH1 0x1 PUSH1 0xA0 SHL SUB AND CALLER EQ JUMPDEST PUSH2 0x99E JUMPI PUSH1 0x40 MLOAD PUSH3 0x461BCD PUSH1 0xE5 SHL DUP2 MSTORE PUSH1 0x4 ADD PUSH2 0x209 SWAP1 PUSH2 0xDF3 JUMP JUMPDEST PUSH1 0x3 DUP1 SLOAD DUP1 PUSH1 0x20 MUL PUSH1 0x20 ADD PUSH1 0x40 MLOAD SWAP1 DUP2 ADD PUSH1 0x40 MSTORE DUP1 SWAP3 SWAP2 SWAP1 DUP2 DUP2 MSTORE PUSH1 0x20 ADD DUP3 DUP1 SLOAD DUP1 ISZERO PUSH2 0x9F2 JUMPI PUSH1 0x20 MUL DUP3 ADD SWAP2 SWAP1 PUSH0 MSTORE PUSH1 0x20 PUSH0 KECCAK256 SWAP1 JUMPDEST DUP2 SLOAD PUSH1 0x1 PUSH1 0x1 PUSH1 0xA0 SHL SUB AND DUP2 MSTORE PUSH1 0x1 SWAP1 SWAP2 ADD SWAP1 PUSH1 0x20 ADD DUP1 DUP4 GT PUSH2 0x9D4 JUMPI JUMPDEST POP POP POP POP POP SWAP1 POP SWAP1 JUMP JUMPDEST PUSH2 0xFD8 DUP1 PUSH2 0x10BB DUP4 CODECOPY ADD SWAP1 JUMP JUMPDEST PUSH2 0xC74 DUP1 PUSH2 0x2093 DUP4 CODECOPY ADD SWAP1 JUMP JUMPDEST PUSH2 0xF53 DUP1 PUSH2 0x2D07 DUP4 CODECOPY ADD SWAP1 JUMP JUMPDEST PUSH2 0x1CC8 DUP1 PUSH2 0x3C5A DUP4 CODECOPY ADD SWAP1 JUMP JUMPDEST PUSH4 0x4E487B71 PUSH1 0xE0 SHL PUSH0 MSTORE PUSH1 0x41 PUSH1 0x4 MSTORE PUSH1 0x24 PUSH0 REVERT JUMPDEST PUSH1 0x40 MLOAD PUSH1 0x1F DUP3 ADD PUSH1 0x1F NOT AND DUP2 ADD PUSH1 0x1 PUSH1 0x1 PUSH1 0x40 SHL SUB DUP2 GT DUP3 DUP3 LT OR ISZERO PUSH2 0xA6C JUMPI PUSH2 0xA6C PUSH2 0xA30 JUMP JUMPDEST PUSH1 0x40 MSTORE SWAP2 SWAP1 POP JUMP JUMPDEST PUSH0 DUP3 PUSH1 0x1F DUP4 ADD SLT PUSH2 0xA83 JUMPI PUSH0 DUP1 REVERT JUMPDEST DUP2 CALLDATALOAD PUSH1 0x1 PUSH1 0x1 PUSH1 0x40 SHL SUB DUP2 GT ISZERO PUSH2 0xA9C JUMPI PUSH2 0xA9C PUSH2 0xA30 JUMP JUMPDEST PUSH2 0xAAF PUSH1 0x1F DUP3 ADD PUSH1 0x1F NOT AND PUSH1 0x20 ADD PUSH2 0xA44 JUMP JUMPDEST DUP2 DUP2 MSTORE DUP5 PUSH1 0x20 DUP4 DUP7 ADD ADD GT ISZERO PUSH2 0xAC3 JUMPI PUSH0 DUP1 REVERT JUMPDEST DUP2 PUSH1 0x20 DUP6 ADD PUSH1 0x20 DUP4 ADD CALLDATACOPY PUSH0 SWAP2 DUP2 ADD PUSH1 0x20 ADD SWAP2 SWAP1 SWAP2 MSTORE SWAP4 SWAP3 POP POP POP JUMP JUMPDEST DUP1 CALLDATALOAD PUSH2 0xFFFF DUP2 AND DUP2 EQ PUSH2 0x65E JUMPI PUSH0 DUP1 REVERT JUMPDEST PUSH0 DUP1 PUSH0 DUP1 PUSH0 PUSH1 0xA0 DUP7 DUP9 SUB SLT ISZERO PUSH2 0xB04 JUMPI PUSH0 DUP1 REVERT JUMPDEST DUP6 CALLDATALOAD PUSH1 0x1 PUSH1 0x1 PUSH1 0x40 SHL SUB DUP2 GT ISZERO PUSH2 0xB19 JUMPI PUSH0 DUP1 REVERT JUMPDEST PUSH2 0xB25 DUP9 DUP3 DUP10 ADD PUSH2 0xA74 JUMP JUMPDEST SWAP6 POP POP PUSH1 0x20 DUP7 ADD CALLDATALOAD PUSH1 0x1 PUSH1 0x1 PUSH1 0x40 SHL SUB DUP2 GT ISZERO PUSH2 0xB40 JUMPI PUSH0 DUP1 REVERT JUMPDEST PUSH2 0xB4C DUP9 DUP3 DUP10 ADD PUSH2 0xA74 JUMP JUMPDEST SWAP5 POP POP PUSH1 0x40 DUP7 ADD CALLDATALOAD PUSH1 0x1 PUSH1 0x1 PUSH1 0x40 SHL SUB DUP2 GT ISZERO PUSH2 0xB67 JUMPI PUSH0 DUP1 REVERT JUMPDEST PUSH2 0xB73 DUP9 DUP3 DUP10 ADD PUSH2 0xA74 JUMP JUMPDEST SWAP4 POP POP PUSH2 0xB82 PUSH1 0x60 DUP8 ADD PUSH2 0xADF JUMP JUMPDEST SWAP2 POP PUSH2 0xB90 PUSH1 0x80 DUP8 ADD PUSH2 0xADF JUMP JUMPDEST SWAP1 POP SWAP3 SWAP6 POP SWAP3 SWAP6 SWAP1 SWAP4 POP JUMP JUMPDEST DUP1 CALLDATALOAD PUSH1 0x3 DUP2 LT PUSH2 0x65E JUMPI PUSH0 DUP1 REVERT JUMPDEST PUSH1 0x1 PUSH1 0x1 PUSH1 0xA0 SHL SUB DUP2 AND DUP2 EQ PUSH2 0xBBE JUMPI PUSH0 DUP1 REVERT JUMPDEST POP JUMP JUMPDEST PUSH0 DUP1 PUSH1 0x40 DUP4 DUP6 SUB SLT ISZERO PUSH2 0xBD2 JUMPI PUSH0 DUP1 REVERT JUMPDEST PUSH2 0xBDB DUP4 PUSH2 0xB9C JUMP JUMPDEST SWAP2 POP PUSH1 0x20 DUP4 ADD CALLDATALOAD PUSH2 0xBEB DUP2 PUSH2 0xBAA JUMP JUMPDEST DUP1 SWAP2 POP POP SWAP3 POP SWAP3 SWAP1 POP JUMP JUMPDEST PUSH0 PUSH1 0x20 DUP3 DUP5 SUB SLT ISZERO PUSH2 0xC06 JUMPI PUSH0 DUP1 REVERT JUMPDEST POP CALLDATALOAD SWAP2 SWAP1 POP JUMP JUMPDEST PUSH0 DUP1 PUSH1 0x40 DUP4 DUP6 SUB SLT ISZERO PUSH2 0xC1E JUMPI PUSH0 DUP1 REVERT JUMPDEST DUP3 CALLDATALOAD PUSH1 0x1 PUSH1 0x1 PUSH1 0x40 SHL SUB DUP2 GT ISZERO PUSH2 0xC33 JUMPI PUSH0 DUP1 REVERT JUMPDEST PUSH2 0xC3F DUP6 DUP3 DUP7 ADD PUSH2 0xA74 JUMP JUMPDEST SWAP3 POP POP PUSH1 0x20 DUP4 ADD CALLDATALOAD PUSH1 0x1 PUSH1 0x1 PUSH1 0x40 SHL SUB DUP2 GT ISZERO PUSH2 0xC5A JUMPI PUSH0 DUP1 REVERT JUMPDEST PUSH2 0xC66 DUP6 DUP3 DUP7 ADD PUSH2 0xA74 JUMP JUMPDEST SWAP2 POP POP SWAP3 POP SWAP3 SWAP1 POP JUMP JUMPDEST PUSH0 PUSH1 0x20 DUP3 DUP5 SUB SLT ISZERO PUSH2 0xC80 JUMPI PUSH0 DUP1 REVERT JUMPDEST PUSH2 0xC89 DUP3 PUSH2 0xB9C JUMP JUMPDEST SWAP4 SWAP3 POP POP POP JUMP JUMPDEST PUSH1 0x20 DUP1 DUP3 MSTORE DUP3 MLOAD DUP3 DUP3 ADD DUP2 SWAP1 MSTORE PUSH0 SWAP2 DUP5 ADD SWAP1 PUSH1 0x40 DUP5 ADD SWAP1 DUP4 JUMPDEST DUP2 DUP2 LT ISZERO PUSH2 0xCD0 JUMPI DUP4 MLOAD PUSH1 0x1 PUSH1 0x1 PUSH1 0xA0 SHL SUB AND DUP4 MSTORE PUSH1 0x20 SWAP4 DUP5 ADD SWAP4 SWAP1 SWAP3 ADD SWAP2 PUSH1 0x1 ADD PUSH2 0xCA9 JUMP JUMPDEST POP SWAP1 SWAP6 SWAP5 POP POP POP POP POP JUMP JUMPDEST PUSH0 DUP1 PUSH0 DUP1 PUSH1 0x80 DUP6 DUP8 SUB SLT ISZERO PUSH2 0xCEE JUMPI PUSH0 DUP1 REVERT JUMPDEST DUP5 CALLDATALOAD PUSH1 0x1 PUSH1 0x1 PUSH1 0x40 SHL SUB DUP2 GT ISZERO PUSH2 0xD03 JUMPI PUSH0 DUP1 REVERT JUMPDEST PUSH2 0xD0F DUP8 DUP3 DUP9 ADD PUSH2 0xA74 JUMP JUMPDEST SWAP5 POP POP PUSH1 0x20 DUP6 ADD CALLDATALOAD PUSH1 0x1 PUSH1 0x1 PUSH1 0x40 SHL SUB DUP2 GT ISZERO PUSH2 0xD2A JUMPI PUSH0 DUP1 REVERT JUMPDEST PUSH2 0xD36 DUP8 DUP3 DUP9 ADD PUSH2 0xA74 JUMP JUMPDEST SWAP4 POP POP PUSH1 0x40 DUP6 ADD CALLDATALOAD PUSH1 0x1 PUSH1 0x1 PUSH1 0x40 SHL SUB DUP2 GT ISZERO PUSH2 0xD51 JUMPI PUSH0 DUP1 REVERT JUMPDEST PUSH2 0xD5D DUP8 DUP3 DUP9 ADD PUSH2 0xA74 JUMP JUMPDEST SWAP3 POP POP PUSH1 0x60 DUP6 ADD CALLDATALOAD PUSH1 0x1 PUSH1 0x1 PUSH1 0x40 SHL SUB DUP2 GT ISZERO PUSH2 0xD78 JUMPI PUSH0 DUP1 REVERT JUMPDEST PUSH2 0xD84 DUP8 DUP3 DUP9 ADD PUSH2 0xA74 JUMP JUMPDEST SWAP2 POP POP SWAP3 SWAP6 SWAP2 SWAP5 POP SWAP3 POP JUMP JUMPDEST PUSH0 PUSH1 0x20 DUP3 DUP5 SUB SLT ISZERO PUSH2 0xDA0 JUMPI PUSH0 DUP1 REVERT JUMPDEST DUP2 CALLDATALOAD PUSH1 0x1 PUSH1 0x1 PUSH1 0x40 SHL SUB DUP2 GT ISZERO PUSH2 0xDB5 JUMPI PUSH0 DUP1 REVERT JUMPDEST PUSH2 0xDC1 DUP5 DUP3 DUP6 ADD PUSH2 0xA74 JUMP JUMPDEST SWAP5 SWAP4 POP POP POP POP JUMP JUMPDEST PUSH0 DUP1 PUSH1 0x40 DUP4 DUP6 SUB SLT ISZERO PUSH2 0xDDA JUMPI PUSH0 DUP1 REVERT JUMPDEST DUP3 CALLDATALOAD PUSH2 0xDE5 DUP2 PUSH2 0xBAA JUMP JUMPDEST SWAP5 PUSH1 0x20 SWAP4 SWAP1 SWAP4 ADD CALLDATALOAD SWAP4 POP POP POP JUMP JUMPDEST PUSH1 0x20 DUP1 DUP3 MSTORE PUSH1 0xA SWAP1 DUP3 ADD MSTORE PUSH10 0x27B7363C9037BBB732B9 PUSH1 0xB1 SHL PUSH1 0x40 DUP3 ADD MSTORE PUSH1 0x60 ADD SWAP1 JUMP JUMPDEST PUSH0 DUP2 MLOAD DUP1 DUP5 MSTORE DUP1 PUSH1 0x20 DUP5 ADD PUSH1 0x20 DUP7 ADD MCOPY PUSH0 PUSH1 0x20 DUP3 DUP7 ADD ADD MSTORE PUSH1 0x20 PUSH1 0x1F NOT PUSH1 0x1F DUP4 ADD AND DUP6 ADD ADD SWAP2 POP POP SWAP3 SWAP2 POP POP JUMP JUMPDEST PUSH1 0xE0 DUP2 MSTORE PUSH0 PUSH2 0xE57 PUSH1 0xE0 DUP4 ADD DUP11 PUSH2 0xE17 JUMP JUMPDEST DUP3 DUP2 SUB PUSH1 0x20 DUP5 ADD MSTORE PUSH2 0xE69 DUP2 DUP11 PUSH2 0xE17 JUMP JUMPDEST SWAP1 POP DUP3 DUP2 SUB PUSH1 0x40 DUP5 ADD MSTORE PUSH2 0xE7D DUP2 DUP10 PUSH2 0xE17 JUMP JUMPDEST PUSH2 0xFFFF SWAP8 DUP9 AND PUSH1 0x60 DUP6 ADD MSTORE SWAP6 SWAP1 SWAP7 AND PUSH1 0x80 DUP4 ADD MSTORE POP PUSH1 0x1 PUSH1 0x1 PUSH1 0xA0 SHL SUB SWAP3 DUP4 AND PUSH1 0xA0 DUP3 ADD MSTORE SWAP2 AND PUSH1 0xC0 SWAP1 SWAP2 ADD MSTORE SWAP5 SWAP4 POP POP POP POP JUMP JUMPDEST PUSH1 0x3 DUP2 LT PUSH2 0xECE JUMPI PUSH4 0x4E487B71 PUSH1 0xE0 SHL PUSH0 MSTORE PUSH1 0x21 PUSH1 0x4 MSTORE PUSH1 0x24 PUSH0 REVERT JUMPDEST SWAP1 MSTORE JUMP JUMPDEST DUP4 DUP2 MSTORE PUSH1 0x60 DUP2 ADD PUSH2 0xEE6 PUSH1 0x20 DUP4 ADD DUP6 PUSH2 0xEB2 JUMP JUMPDEST PUSH1 0x1 PUSH1 0x1 PUSH1 0xA0 SHL SUB SWAP3 SWAP1 SWAP3 AND PUSH1 0x40 SWAP2 SWAP1 SWAP2 ADD MSTORE SWAP3 SWAP2 POP POP JUMP JUMPDEST PUSH1 0x80 DUP2 MSTORE PUSH0 PUSH2 0xF11 PUSH1 0x80 DUP4 ADD DUP8 PUSH2 0xE17 JUMP JUMPDEST DUP3 DUP2 SUB PUSH1 0x20 DUP5 ADD MSTORE PUSH2 0xF23 DUP2 DUP8 PUSH2 0xE17 JUMP JUMPDEST PUSH1 0x1 PUSH1 0x1 PUSH1 0xA0 SHL SUB SWAP6 DUP7 AND PUSH1 0x40 DUP6 ADD MSTORE SWAP4 SWAP1 SWAP5 AND PUSH1 0x60 SWAP1 SWAP3 ADD SWAP2 SWAP1 SWAP2 MSTORE POP SWAP4 SWAP3 POP POP POP JUMP JUMPDEST PUSH1 0x40 DUP2 ADD PUSH2 0xF56 DUP3 DUP6 PUSH2 0xEB2 JUMP JUMPDEST DUP3 PUSH1 0x20 DUP4 ADD MSTORE SWAP4 SWAP3 POP POP POP JUMP JUMPDEST PUSH0 PUSH1 0x20 DUP3 DUP5 SUB SLT ISZERO PUSH2 0xF73 JUMPI PUSH0 DUP1 REVERT JUMPDEST DUP2 MLOAD PUSH1 0x1 PUSH1 0x1 PUSH1 0x40 SHL SUB DUP2 GT ISZERO PUSH2 0xF88 JUMPI PUSH0 DUP1 REVERT JUMPDEST DUP3 ADD PUSH1 0x1F DUP2 ADD DUP5 SGT PUSH2 0xF98 JUMPI PUSH0 DUP1 REVERT JUMPDEST DUP1 MLOAD PUSH1 0x1 PUSH1 0x1 PUSH1 0x40 SHL SUB DUP2 GT ISZERO PUSH2 0xFB1 JUMPI PUSH2 0xFB1 PUSH2 0xA30 JUMP JUMPDEST DUP1 PUSH1 0x5 SHL PUSH2 0xFC1 PUSH1 0x20 DUP3 ADD PUSH2 0xA44 JUMP JUMPDEST SWAP2 DUP3 MSTORE PUSH1 0x20 DUP2 DUP5 ADD DUP2 ADD SWAP3 SWAP1 DUP2 ADD SWAP1 DUP8 DUP5 GT ISZERO PUSH2 0xFDC JUMPI PUSH0 DUP1 REVERT JUMPDEST PUSH1 0x20 DUP6 ADD SWAP5 POP JUMPDEST DUP4 DUP6 LT ISZERO PUSH2 0x100A JUMPI DUP5 MLOAD SWAP3 POP PUSH2 0xFF8 DUP4 PUSH2 0xBAA JUMP JUMPDEST DUP3 DUP3 MSTORE PUSH1 0x20 SWAP5 DUP6 ADD SWAP5 SWAP1 SWAP2 ADD SWAP1 PUSH2 0xFE3 JUMP JUMPDEST SWAP8 SWAP7 POP POP POP POP POP POP POP JUMP JUMPDEST PUSH1 0xC0 DUP2 MSTORE PUSH0 PUSH2 0x1027 PUSH1 0xC0 DUP4 ADD DUP10 PUSH2 0xE17 JUMP JUMPDEST DUP3 DUP2 SUB PUSH1 0x20 DUP5 ADD MSTORE PUSH2 0x1039 DUP2 DUP10 PUSH2 0xE17 JUMP JUMPDEST SWAP1 POP DUP3 DUP2 SUB PUSH1 0x40 DUP5 ADD MSTORE PUSH2 0x104D DUP2 DUP9 PUSH2 0xE17 JUMP JUMPDEST SWAP1 POP DUP3 DUP2 SUB PUSH1 0x60 DUP5 ADD MSTORE PUSH2 0x1061 DUP2 DUP8 PUSH2 0xE17 JUMP JUMPDEST PUSH1 0x1 PUSH1 0x1 PUSH1 0xA0 SHL SUB SWAP6 DUP7 AND PUSH1 0x80 DUP6 ADD MSTORE SWAP4 SWAP1 SWAP5 AND PUSH1 0xA0 SWAP1 SWAP3 ADD SWAP2 SWAP1 SWAP2 MSTORE POP SWAP6 SWAP5 POP POP POP POP POP JUMP JUMPDEST PUSH1 0x60 DUP2 MSTORE PUSH0 PUSH2 0x109A PUSH1 0x60 DUP4 ADD DUP7 PUSH2 0xE17 JUMP JUMPDEST PUSH1 0x1 PUSH1 0x1 PUSH1 0xA0 SHL SUB SWAP5 DUP6 AND PUSH1 0x20 DUP5 ADD MSTORE SWAP3 SWAP1 SWAP4 AND PUSH1 0x40 SWAP1 SWAP2 ADD MSTORE SWAP3 SWAP2 POP POP JUMP INVALID PUSH1 0x80 PUSH1 0x40 MSTORE CALLVALUE DUP1 ISZERO PUSH2 0xF JUMPI PUSH0 DUP1 REVERT JUMPDEST POP PUSH1 0x40 MLOAD PUSH2 0xFD8 CODESIZE SUB DUP1 PUSH2 0xFD8 DUP4 CODECOPY DUP2 ADD PUSH1 0x40 DUP2 SWAP1 MSTORE PUSH2 0x2E SWAP2 PUSH2 0x1DC JUMP JUMPDEST DUP7 PUSH1 0x1 DUP4 DUP4 PUSH0 PUSH2 0x3E DUP6 DUP3 PUSH2 0x330 JUMP JUMPDEST POP PUSH1 0x1 DUP1 SLOAD DUP5 SWAP2 SWAP1 PUSH1 0xFF NOT AND DUP2 DUP4 PUSH1 0x2 DUP2 GT ISZERO PUSH2 0x5D JUMPI PUSH2 0x5D PUSH2 0x3EA JUMP JUMPDEST MUL OR SWAP1 SSTORE POP PUSH1 0x1 DUP1 SLOAD PUSH2 0x100 PUSH1 0x1 PUSH1 0xA8 SHL SUB NOT AND PUSH2 0x100 PUSH1 0x1 PUSH1 0x1 PUSH1 0xA0 SHL SUB SWAP5 DUP6 AND MUL OR SWAP1 SSTORE PUSH1 0x2 DUP1 SLOAD PUSH1 0x1 PUSH1 0x1 PUSH1 0xA0 SHL SUB NOT AND SWAP2 SWAP1 SWAP3 AND OR SWAP1 SSTORE POP PUSH1 0x3 SWAP1 POP PUSH2 0xA7 DUP8 DUP3 PUSH2 0x330 JUMP JUMPDEST POP PUSH1 0x4 PUSH2 0xB4 DUP7 DUP3 PUSH2 0x330 JUMP JUMPDEST POP PUSH1 0x5 DUP1 SLOAD PUSH2 0xFFFF DUP6 DUP2 AND PUSH3 0x10000 MUL PUSH4 0xFFFFFFFF NOT SWAP1 SWAP3 AND SWAP1 DUP8 AND OR OR SWAP1 SSTORE PUSH1 0x40 MLOAD CALLER DUP2 MSTORE PUSH32 0x1449ABF21E49FD025F33495E77F7B1461CAEFDD3D4BB646424A3F445C4576A5B SWAP1 PUSH1 0x20 ADD PUSH1 0x40 MLOAD DUP1 SWAP2 SUB SWAP1 LOG1 POP POP POP POP POP POP POP PUSH2 0x3FE JUMP JUMPDEST PUSH4 0x4E487B71 PUSH1 0xE0 SHL PUSH0 MSTORE PUSH1 0x41 PUSH1 0x4 MSTORE PUSH1 0x24 PUSH0 REVERT JUMPDEST PUSH0 DUP3 PUSH1 0x1F DUP4 ADD SLT PUSH2 0x136 JUMPI PUSH0 DUP1 REVERT JUMPDEST DUP2 MLOAD PUSH1 0x1 PUSH1 0x1 PUSH1 0x40 SHL SUB DUP2 GT ISZERO PUSH2 0x14F JUMPI PUSH2 0x14F PUSH2 0x113 JUMP JUMPDEST PUSH1 0x40 MLOAD PUSH1 0x1F DUP3 ADD PUSH1 0x1F NOT SWAP1 DUP2 AND PUSH1 0x3F ADD AND DUP2 ADD PUSH1 0x1 PUSH1 0x1 PUSH1 0x40 SHL SUB DUP2 GT DUP3 DUP3 LT OR ISZERO PUSH2 0x17D JUMPI PUSH2 0x17D PUSH2 0x113 JUMP JUMPDEST PUSH1 0x40 MSTORE DUP2 DUP2 MSTORE DUP4 DUP3 ADD PUSH1 0x20 ADD DUP6 LT ISZERO PUSH2 0x194 JUMPI PUSH0 DUP1 REVERT JUMPDEST DUP2 PUSH1 0x20 DUP6 ADD PUSH1 0x20 DUP4 ADD MCOPY PUSH0 SWAP2 DUP2 ADD PUSH1 0x20 ADD SWAP2 SWAP1 SWAP2 MSTORE SWAP4 SWAP3 POP POP POP JUMP JUMPDEST DUP1 MLOAD PUSH2 0xFFFF DUP2 AND DUP2 EQ PUSH2 0x1C1 JUMPI PUSH0 DUP1 REVERT JUMPDEST SWAP2 SWAP1 POP JUMP JUMPDEST DUP1 MLOAD PUSH1 0x1 PUSH1 0x1 PUSH1 0xA0 SHL SUB DUP2 AND DUP2 EQ PUSH2 0x1C1 JUMPI PUSH0 DUP1 REVERT JUMPDEST PUSH0 DUP1 PUSH0 DUP1 PUSH0 DUP1 PUSH0 PUSH1 0xE0 DUP9 DUP11 SUB SLT ISZERO PUSH2 0x1F2 JUMPI PUSH0 DUP1 REVERT JUMPDEST DUP8 MLOAD PUSH1 0x1 PUSH1 0x1 PUSH1 0x40 SHL SUB DUP2 GT ISZERO PUSH2 0x207 JUMPI PUSH0 DUP1 REVERT JUMPDEST PUSH2 0x213 DUP11 DUP3 DUP12 ADD PUSH2 0x127 JUMP JUMPDEST PUSH1 0x20 DUP11 ADD MLOAD SWAP1 SWAP9 POP SWAP1 POP PUSH1 0x1 PUSH1 0x1 PUSH1 0x40 SHL SUB DUP2 GT ISZERO PUSH2 0x230 JUMPI PUSH0 DUP1 REVERT JUMPDEST PUSH2 0x23C DUP11 DUP3 DUP12 ADD PUSH2 0x127 JUMP JUMPDEST PUSH1 0x40 DUP11 ADD MLOAD SWAP1 SWAP8 POP SWAP1 POP PUSH1 0x1 PUSH1 0x1 PUSH1 0x40 SHL SUB DUP2 GT ISZERO PUSH2 0x259 JUMPI PUSH0 DUP1 REVERT JUMPDEST PUSH2 0x265 DUP11 DUP3 DUP12 ADD PUSH2 0x127 JUMP JUMPDEST SWAP6 POP POP PUSH2 0x274 PUSH1 0x60 DUP10 ADD PUSH2 0x1B0 JUMP JUMPDEST SWAP4 POP PUSH2 0x282 PUSH1 0x80 DUP10 ADD PUSH2 0x1B0 JUMP JUMPDEST SWAP3 POP PUSH2 0x290 PUSH1 0xA0 DUP10 ADD PUSH2 0x1C6 JUMP JUMPDEST SWAP2 POP PUSH2 0x29E PUSH1 0xC0 DUP10 ADD PUSH2 0x1C6 JUMP JUMPDEST SWAP1 POP SWAP3 SWAP6 SWAP9 SWAP2 SWAP5 SWAP8 POP SWAP3 SWAP6 POP JUMP JUMPDEST PUSH1 0x1 DUP2 DUP2 SHR SWAP1 DUP3 AND DUP1 PUSH2 0x2C0 JUMPI PUSH1 0x7F DUP3 AND SWAP2 POP JUMPDEST PUSH1 0x20 DUP3 LT DUP2 SUB PUSH2 0x2DE JUMPI PUSH4 0x4E487B71 PUSH1 0xE0 SHL PUSH0 MSTORE PUSH1 0x22 PUSH1 0x4 MSTORE PUSH1 0x24 PUSH0 REVERT JUMPDEST POP SWAP2 SWAP1 POP JUMP JUMPDEST PUSH1 0x1F DUP3 GT ISZERO PUSH2 0x32B JUMPI DUP1 PUSH0 MSTORE PUSH1 0x20 PUSH0 KECCAK256 PUSH1 0x1F DUP5 ADD PUSH1 0x5 SHR DUP2 ADD PUSH1 0x20 DUP6 LT ISZERO PUSH2 0x309 JUMPI POP DUP1 JUMPDEST PUSH1 0x1F DUP5 ADD PUSH1 0x5 SHR DUP3 ADD SWAP2 POP JUMPDEST DUP2 DUP2 LT ISZERO PUSH2 0x328 JUMPI PUSH0 DUP2 SSTORE PUSH1 0x1 ADD PUSH2 0x315 JUMP JUMPDEST POP POP JUMPDEST POP POP POP JUMP JUMPDEST DUP2 MLOAD PUSH1 0x1 PUSH1 0x1 PUSH1 0x40 SHL SUB DUP2 GT ISZERO PUSH2 0x349 JUMPI PUSH2 0x349 PUSH2 0x113 JUMP JUMPDEST PUSH2 0x35D DUP2 PUSH2 0x357 DUP5 SLOAD PUSH2 0x2AC JUMP JUMPDEST DUP5 PUSH2 0x2E4 JUMP JUMPDEST PUSH1 0x20 PUSH1 0x1F DUP3 GT PUSH1 0x1 DUP2 EQ PUSH2 0x38F JUMPI PUSH0 DUP4 ISZERO PUSH2 0x378 JUMPI POP DUP5 DUP3 ADD MLOAD JUMPDEST PUSH0 NOT PUSH1 0x3 DUP6 SWAP1 SHL SHR NOT AND PUSH1 0x1 DUP5 SWAP1 SHL OR DUP5 SSTORE PUSH2 0x328 JUMP JUMPDEST PUSH0 DUP5 DUP2 MSTORE PUSH1 0x20 DUP2 KECCAK256 PUSH1 0x1F NOT DUP6 AND SWAP2 JUMPDEST DUP3 DUP2 LT ISZERO PUSH2 0x3BE JUMPI DUP8 DUP6 ADD MLOAD DUP3 SSTORE PUSH1 0x20 SWAP5 DUP6 ADD SWAP5 PUSH1 0x1 SWAP1 SWAP3 ADD SWAP2 ADD PUSH2 0x39E JUMP JUMPDEST POP DUP5 DUP3 LT ISZERO PUSH2 0x3DB JUMPI DUP7 DUP5 ADD MLOAD PUSH0 NOT PUSH1 0x3 DUP8 SWAP1 SHL PUSH1 0xF8 AND SHR NOT AND DUP2 SSTORE JUMPDEST POP POP POP POP PUSH1 0x1 SWAP1 DUP2 SHL ADD SWAP1 SSTORE POP JUMP JUMPDEST PUSH4 0x4E487B71 PUSH1 0xE0 SHL PUSH0 MSTORE PUSH1 0x21 PUSH1 0x4 MSTORE PUSH1 0x24 PUSH0 REVERT JUMPDEST PUSH2 0xBCD DUP1 PUSH2 0x40B PUSH0 CODECOPY PUSH0 RETURN INVALID PUSH1 0x80 PUSH1 0x40 MSTORE CALLVALUE DUP1 ISZERO PUSH2 0xF JUMPI PUSH0 DUP1 REVERT JUMPDEST POP PUSH1 0x4 CALLDATASIZE LT PUSH2 0x9B JUMPI PUSH0 CALLDATALOAD PUSH1 0xE0 SHR DUP1 PUSH4 0x80F76021 GT PUSH2 0x63 JUMPI DUP1 PUSH4 0x80F76021 EQ PUSH2 0x10B JUMPI DUP1 PUSH4 0xBA379E86 EQ PUSH2 0x12B JUMPI DUP1 PUSH4 0xC40DA770 EQ PUSH2 0x144 JUMPI DUP1 PUSH4 0xC47F0027 EQ PUSH2 0x157 JUMPI DUP1 PUSH4 0xEFD8AF9F EQ PUSH2 0x16A JUMPI PUSH0 DUP1 REVERT JUMPDEST DUP1 PUSH4 0xDBEF92C EQ PUSH2 0x9F JUMPI DUP1 PUSH4 0x1499C592 EQ PUSH2 0xB4 JUMPI DUP1 PUSH4 0x2858D3C8 EQ PUSH2 0xC7 JUMPI DUP1 PUSH4 0x40AA5C71 EQ PUSH2 0xE5 JUMPI DUP1 PUSH4 0x478E5CB3 EQ PUSH2 0xF8 JUMPI JUMPDEST PUSH0 DUP1 REVERT JUMPDEST PUSH2 0xB2 PUSH2 0xAD CALLDATASIZE PUSH1 0x4 PUSH2 0x822 JUMP JUMPDEST PUSH2 0x17D JUMP JUMPDEST STOP JUMPDEST PUSH2 0xB2 PUSH2 0xC2 CALLDATASIZE PUSH1 0x4 PUSH2 0x85C JUMP JUMPDEST PUSH2 0x1FB JUMP JUMPDEST PUSH2 0xCF PUSH2 0x277 JUMP JUMPDEST PUSH1 0x40 MLOAD PUSH2 0xDC SWAP2 SWAP1 PUSH2 0x889 JUMP JUMPDEST PUSH1 0x40 MLOAD DUP1 SWAP2 SUB SWAP1 RETURN JUMPDEST PUSH2 0xB2 PUSH2 0xF3 CALLDATASIZE PUSH1 0x4 PUSH2 0x8C5 JUMP JUMPDEST PUSH2 0x2C7 JUMP JUMPDEST PUSH2 0xB2 PUSH2 0x106 CALLDATASIZE PUSH1 0x4 PUSH2 0x8DE JUMP JUMPDEST PUSH2 0x339 JUMP JUMPDEST PUSH2 0x113 PUSH2 0x3E9 JUMP JUMPDEST PUSH1 0x40 MLOAD PUSH1 0x1 PUSH1 0x1 PUSH1 0xA0 SHL SUB SWAP1 SWAP2 AND DUP2 MSTORE PUSH1 0x20 ADD PUSH2 0xDC JUMP JUMPDEST PUSH2 0x133 PUSH2 0x43F JUMP JUMPDEST PUSH1 0x40 MLOAD PUSH2 0xDC SWAP6 SWAP5 SWAP4 SWAP3 SWAP2 SWAP1 PUSH2 0x9BB JUMP JUMPDEST PUSH2 0xB2 PUSH2 0x152 CALLDATASIZE PUSH1 0x4 PUSH2 0x8C5 JUMP JUMPDEST PUSH2 0x66B JUMP JUMPDEST PUSH2 0xB2 PUSH2 0x165 CALLDATASIZE PUSH1 0x4 PUSH2 0x822 JUMP JUMPDEST PUSH2 0x6E4 JUMP JUMPDEST PUSH2 0xB2 PUSH2 0x178 CALLDATASIZE PUSH1 0x4 PUSH2 0x822 JUMP JUMPDEST PUSH2 0x733 JUMP JUMPDEST PUSH1 0x1 SLOAD PUSH2 0x100 SWAP1 DIV PUSH1 0x1 PUSH1 0x1 PUSH1 0xA0 SHL SUB AND CALLER EQ DUP1 PUSH2 0x1A5 JUMPI POP PUSH1 0x2 SLOAD PUSH1 0x1 PUSH1 0x1 PUSH1 0xA0 SHL SUB AND CALLER EQ JUMPDEST PUSH2 0x1CA JUMPI PUSH1 0x40 MLOAD PUSH3 0x461BCD PUSH1 0xE5 SHL DUP2 MSTORE PUSH1 0x4 ADD PUSH2 0x1C1 SWAP1 PUSH2 0xA14 JUMP JUMPDEST PUSH1 0x40 MLOAD DUP1 SWAP2 SUB SWAP1 REVERT JUMPDEST PUSH1 0x4 PUSH2 0x1D6 DUP3 DUP3 PUSH2 0xABC JUMP JUMPDEST POP PUSH1 0x40 MLOAD CALLER DUP2 MSTORE PUSH0 DUP1 MLOAD PUSH1 0x20 PUSH2 0xB78 DUP4 CODECOPY DUP2 MLOAD SWAP2 MSTORE SWAP1 PUSH1 0x20 ADD JUMPDEST PUSH1 0x40 MLOAD DUP1 SWAP2 SUB SWAP1 LOG1 POP JUMP JUMPDEST PUSH1 0x1 SLOAD PUSH2 0x100 SWAP1 DIV PUSH1 0x1 PUSH1 0x1 PUSH1 0xA0 SHL SUB AND CALLER EQ DUP1 PUSH2 0x223 JUMPI POP PUSH1 0x2 SLOAD PUSH1 0x1 PUSH1 0x1 PUSH1 0xA0 SHL SUB AND CALLER EQ JUMPDEST PUSH2 0x23F JUMPI PUSH1 0x40 MLOAD PUSH3 0x461BCD PUSH1 0xE5 SHL DUP2 MSTORE PUSH1 0x4 ADD PUSH2 0x1C1 SWAP1 PUSH2 0xA14 JUMP JUMPDEST PUSH1 0x2 DUP1 SLOAD PUSH1 0x1 PUSH1 0x1 PUSH1 0xA0 SHL SUB NOT AND PUSH1 0x1 PUSH1 0x1 PUSH1 0xA0 SHL SUB DUP4 AND OR SWAP1 SSTORE PUSH1 0x40 MLOAD CALLER DUP2 MSTORE PUSH0 DUP1 MLOAD PUSH1 0x20 PUSH2 0xB78 DUP4 CODECOPY DUP2 MLOAD SWAP2 MSTORE SWAP1 PUSH1 0x20 ADD PUSH2 0x1F0 JUMP JUMPDEST PUSH1 0x1 SLOAD PUSH0 SWAP1 PUSH2 0x100 SWAP1 DIV PUSH1 0x1 PUSH1 0x1 PUSH1 0xA0 SHL SUB AND CALLER EQ DUP1 PUSH2 0x2A1 JUMPI POP PUSH1 0x2 SLOAD PUSH1 0x1 PUSH1 0x1 PUSH1 0xA0 SHL SUB AND CALLER EQ JUMPDEST PUSH2 0x2BD JUMPI PUSH1 0x40 MLOAD PUSH3 0x461BCD PUSH1 0xE5 SHL DUP2 MSTORE PUSH1 0x4 ADD PUSH2 0x1C1 SWAP1 PUSH2 0xA14 JUMP JUMPDEST POP PUSH1 0x1 SLOAD PUSH1 0xFF AND SWAP1 JUMP JUMPDEST PUSH1 0x1 SLOAD PUSH2 0x100 SWAP1 DIV PUSH1 0x1 PUSH1 0x1 PUSH1 0xA0 SHL SUB AND CALLER EQ DUP1 PUSH2 0x2EF JUMPI POP PUSH1 0x2 SLOAD PUSH1 0x1 PUSH1 0x1 PUSH1 0xA0 SHL SUB AND CALLER EQ JUMPDEST PUSH2 0x30B JUMPI PUSH1 0x40 MLOAD PUSH3 0x461BCD PUSH1 0xE5 SHL DUP2 MSTORE PUSH1 0x4 ADD PUSH2 0x1C1 SWAP1 PUSH2 0xA14 JUMP JUMPDEST PUSH1 0x5 DUP1 SLOAD PUSH2 0xFFFF NOT AND PUSH2 0xFFFF DUP4 AND OR SWAP1 SSTORE PUSH1 0x40 MLOAD CALLER DUP2 MSTORE PUSH0 DUP1 MLOAD PUSH1 0x20 PUSH2 0xB78 DUP4 CODECOPY DUP2 MLOAD SWAP2 MSTORE SWAP1 PUSH1 0x20 ADD PUSH2 0x1F0 JUMP JUMPDEST PUSH1 0x1 SLOAD PUSH2 0x100 SWAP1 DIV PUSH1 0x1 PUSH1 0x1 PUSH1 0xA0 SHL SUB AND CALLER EQ DUP1 PUSH2 0x361 JUMPI POP PUSH1 0x2 SLOAD PUSH1 0x1 PUSH1 0x1 PUSH1 0xA0 SHL SUB AND CALLER EQ JUMPDEST PUSH2 0x37D JUMPI PUSH1 0x40 MLOAD PUSH3 0x461BCD PUSH1 0xE5 SHL DUP2 MSTORE PUSH1 0x4 ADD PUSH2 0x1C1 SWAP1 PUSH2 0xA14 JUMP JUMPDEST PUSH0 PUSH2 0x388 DUP7 DUP3 PUSH2 0xABC JUMP JUMPDEST POP PUSH1 0x3 PUSH2 0x395 DUP6 DUP3 PUSH2 0xABC JUMP JUMPDEST POP PUSH1 0x4 PUSH2 0x3A2 DUP5 DUP3 PUSH2 0xABC JUMP JUMPDEST POP PUSH1 0x5 DUP1 SLOAD PUSH2 0xFFFF DUP4 DUP2 AND PUSH3 0x10000 MUL PUSH4 0xFFFFFFFF NOT SWAP1 SWAP3 AND SWAP1 DUP6 AND OR OR SWAP1 SSTORE PUSH1 0x40 MLOAD CALLER DUP2 MSTORE PUSH0 DUP1 MLOAD PUSH1 0x20 PUSH2 0xB78 DUP4 CODECOPY DUP2 MLOAD SWAP2 MSTORE SWAP1 PUSH1 0x20 ADD PUSH1 0x40 MLOAD DUP1 SWAP2 SUB SWAP1 LOG1 POP POP POP POP POP JUMP JUMPDEST PUSH1 0x1 SLOAD PUSH0 SWAP1 PUSH2 0x100 SWAP1 DIV PUSH1 0x1 PUSH1 0x1 PUSH1 0xA0 SHL SUB AND CALLER EQ DUP1 PUSH2 0x413 JUMPI POP PUSH1 0x2 SLOAD PUSH1 0x1 PUSH1 0x1 PUSH1 0xA0 SHL SUB AND CALLER EQ JUMPDEST PUSH2 0x42F JUMPI PUSH1 0x40 MLOAD PUSH3 0x461BCD PUSH1 0xE5 SHL DUP2 MSTORE PUSH1 0x4 ADD PUSH2 0x1C1 SWAP1 PUSH2 0xA14 JUMP JUMPDEST POP PUSH1 0x2 SLOAD PUSH1 0x1 PUSH1 0x1 PUSH1 0xA0 SHL SUB AND SWAP1 JUMP JUMPDEST PUSH1 0x60 DUP1 PUSH1 0x60 PUSH0 DUP1 PUSH1 0x1 DUP1 SLOAD SWAP1 PUSH2 0x100 EXP SWAP1 DIV PUSH1 0x1 PUSH1 0x1 PUSH1 0xA0 SHL SUB AND PUSH1 0x1 PUSH1 0x1 PUSH1 0xA0 SHL SUB AND CALLER PUSH1 0x1 PUSH1 0x1 PUSH1 0xA0 SHL SUB AND EQ DUP1 PUSH2 0x483 JUMPI POP PUSH1 0x2 SLOAD PUSH1 0x1 PUSH1 0x1 PUSH1 0xA0 SHL SUB AND CALLER EQ JUMPDEST PUSH2 0x49F JUMPI PUSH1 0x40 MLOAD PUSH3 0x461BCD PUSH1 0xE5 SHL DUP2 MSTORE PUSH1 0x4 ADD PUSH2 0x1C1 SWAP1 PUSH2 0xA14 JUMP JUMPDEST PUSH1 0x5 SLOAD PUSH0 DUP1 SLOAD SWAP1 SWAP2 PUSH1 0x3 SWAP2 PUSH1 0x4 SWAP2 PUSH2 0xFFFF DUP1 DUP3 AND SWAP3 PUSH3 0x10000 SWAP1 SWAP3 DIV AND SWAP1 DUP6 SWAP1 PUSH2 0x4C8 SWAP1 PUSH2 0xA38 JUMP JUMPDEST DUP1 PUSH1 0x1F ADD PUSH1 0x20 DUP1 SWAP2 DIV MUL PUSH1 0x20 ADD PUSH1 0x40 MLOAD SWAP1 DUP2 ADD PUSH1 0x40 MSTORE DUP1 SWAP3 SWAP2 SWAP1 DUP2 DUP2 MSTORE PUSH1 0x20 ADD DUP3 DUP1 SLOAD PUSH2 0x4F4 SWAP1 PUSH2 0xA38 JUMP JUMPDEST DUP1 ISZERO PUSH2 0x53F JUMPI DUP1 PUSH1 0x1F LT PUSH2 0x516 JUMPI PUSH2 0x100 DUP1 DUP4 SLOAD DIV MUL DUP4 MSTORE SWAP2 PUSH1 0x20 ADD SWAP2 PUSH2 0x53F JUMP JUMPDEST DUP3 ADD SWAP2 SWAP1 PUSH0 MSTORE PUSH1 0x20 PUSH0 KECCAK256 SWAP1 JUMPDEST DUP2 SLOAD DUP2 MSTORE SWAP1 PUSH1 0x1 ADD SWAP1 PUSH1 0x20 ADD DUP1 DUP4 GT PUSH2 0x522 JUMPI DUP3 SWAP1 SUB PUSH1 0x1F AND DUP3 ADD SWAP2 JUMPDEST POP POP POP POP POP SWAP5 POP DUP4 DUP1 SLOAD PUSH2 0x552 SWAP1 PUSH2 0xA38 JUMP JUMPDEST DUP1 PUSH1 0x1F ADD PUSH1 0x20 DUP1 SWAP2 DIV MUL PUSH1 0x20 ADD PUSH1 0x40 MLOAD SWAP1 DUP2 ADD PUSH1 0x40 MSTORE DUP1 SWAP3 SWAP2 SWAP1 DUP2 DUP2 MSTORE PUSH1 0x20 ADD DUP3 DUP1 SLOAD PUSH2 0x57E SWAP1 PUSH2 0xA38 JUMP JUMPDEST DUP1 ISZERO PUSH2 0x5C9 JUMPI DUP1 PUSH1 0x1F LT PUSH2 0x5A0 JUMPI PUSH2 0x100 DUP1 DUP4 SLOAD DIV MUL DUP4 MSTORE SWAP2 PUSH1 0x20 ADD SWAP2 PUSH2 0x5C9 JUMP JUMPDEST DUP3 ADD SWAP2 SWAP1 PUSH0 MSTORE PUSH1 0x20 PUSH0 KECCAK256 SWAP1 JUMPDEST DUP2 SLOAD DUP2 MSTORE SWAP1 PUSH1 0x1 ADD SWAP1 PUSH1 0x20 ADD DUP1 DUP4 GT PUSH2 0x5AC JUMPI DUP3 SWAP1 SUB PUSH1 0x1F AND DUP3 ADD SWAP2 JUMPDEST POP POP POP POP POP SWAP4 POP DUP3 DUP1 SLOAD PUSH2 0x5DC SWAP1 PUSH2 0xA38 JUMP JUMPDEST DUP1 PUSH1 0x1F ADD PUSH1 0x20 DUP1 SWAP2 DIV MUL PUSH1 0x20 ADD PUSH1 0x40 MLOAD SWAP1 DUP2 ADD PUSH1 0x40 MSTORE DUP1 SWAP3 SWAP2 SWAP1 DUP2 DUP2 MSTORE PUSH1 0x20 ADD DUP3 DUP1 SLOAD PUSH2 0x608 SWAP1 PUSH2 0xA38 JUMP JUMPDEST DUP1 ISZERO PUSH2 0x653 JUMPI DUP1 PUSH1 0x1F LT PUSH2 0x62A JUMPI PUSH2 0x100 DUP1 DUP4 SLOAD DIV MUL DUP4 MSTORE SWAP2 PUSH1 0x20 ADD SWAP2 PUSH2 0x653 JUMP JUMPDEST DUP3 ADD SWAP2 SWAP1 PUSH0 MSTORE PUSH1 0x20 PUSH0 KECCAK256 SWAP1 JUMPDEST DUP2 SLOAD DUP2 MSTORE SWAP1 PUSH1 0x1 ADD SWAP1 PUSH1 0x20 ADD DUP1 DUP4 GT PUSH2 0x636 JUMPI DUP3 SWAP1 SUB PUSH1 0x1F AND DUP3 ADD SWAP2 JUMPDEST POP POP POP POP POP SWAP3 POP SWAP5 POP SWAP5 POP SWAP5 POP SWAP5 POP SWAP5 POP SWAP1 SWAP2 SWAP3 SWAP4 SWAP5 JUMP JUMPDEST PUSH1 0x1 SLOAD PUSH2 0x100 SWAP1 DIV PUSH1 0x1 PUSH1 0x1 PUSH1 0xA0 SHL SUB AND CALLER EQ DUP1 PUSH2 0x693 JUMPI POP PUSH1 0x2 SLOAD PUSH1 0x1 PUSH1 0x1 PUSH1 0xA0 SHL SUB AND CALLER EQ JUMPDEST PUSH2 0x6AF JUMPI PUSH1 0x40 MLOAD PUSH3 0x461BCD PUSH1 0xE5 SHL DUP2 MSTORE PUSH1 0x4 ADD PUSH2 0x1C1 SWAP1 PUSH2 0xA14 JUMP JUMPDEST PUSH1 0x5 DUP1 SLOAD PUSH4 0xFFFF0000 NOT AND PUSH3 0x10000 PUSH2 0xFFFF DUP5 AND MUL OR SWAP1 SSTORE PUSH1 0x40 MLOAD CALLER DUP2 MSTORE PUSH0 DUP1 MLOAD PUSH1 0x20 PUSH2 0xB78 DUP4 CODECOPY DUP2 MLOAD SWAP2 MSTORE SWAP1 PUSH1 0x20 ADD PUSH2 0x1F0 JUMP JUMPDEST PUSH1 0x1 SLOAD PUSH2 0x100 SWAP1 DIV PUSH1 0x1 PUSH1 0x1 PUSH1 0xA0 SHL SUB AND CALLER EQ DUP1 PUSH2 0x70C JUMPI POP PUSH1 0x2 SLOAD PUSH1 0x1 PUSH1 0x1 PUSH1 0xA0 SHL SUB AND CALLER EQ JUMPDEST PUSH2 0x728 JUMPI PUSH1 0x40 MLOAD PUSH3 0x461BCD PUSH1 0xE5 SHL DUP2 MSTORE PUSH1 0x4 ADD PUSH2 0x1C1 SWAP1 PUSH2 0xA14 JUMP JUMPDEST PUSH0 PUSH2 0x1D6 DUP3 DUP3 PUSH2 0xABC JUMP JUMPDEST PUSH1 0x1 SLOAD PUSH2 0x100 SWAP1 DIV PUSH1 0x1 PUSH1 0x1 PUSH1 0xA0 SHL SUB AND CALLER EQ DUP1 PUSH2 0x75B JUMPI POP PUSH1 0x2 SLOAD PUSH1 0x1 PUSH1 0x1 PUSH1 0xA0 SHL SUB AND CALLER EQ JUMPDEST PUSH2 0x777 JUMPI PUSH1 0x40 MLOAD PUSH3 0x461BCD PUSH1 0xE5 SHL DUP2 MSTORE PUSH1 0x4 ADD PUSH2 0x1C1 SWAP1 PUSH2 0xA14 JUMP JUMPDEST PUSH1 0x3 PUSH2 0x1D6 DUP3 DUP3 PUSH2 0xABC JUMP JUMPDEST PUSH4 0x4E487B71 PUSH1 0xE0 SHL PUSH0 MSTORE PUSH1 0x41 PUSH1 0x4 MSTORE PUSH1 0x24 PUSH0 REVERT JUMPDEST PUSH0 DUP3 PUSH1 0x1F DUP4 ADD SLT PUSH2 0x7A6 JUMPI PUSH0 DUP1 REVERT JUMPDEST DUP2 CALLDATALOAD PUSH8 0xFFFFFFFFFFFFFFFF DUP2 GT ISZERO PUSH2 0x7C0 JUMPI PUSH2 0x7C0 PUSH2 0x783 JUMP JUMPDEST PUSH1 0x40 MLOAD PUSH1 0x1F DUP3 ADD PUSH1 0x1F NOT SWAP1 DUP2 AND PUSH1 0x3F ADD AND DUP2 ADD PUSH8 0xFFFFFFFFFFFFFFFF DUP2 GT DUP3 DUP3 LT OR ISZERO PUSH2 0x7EF JUMPI PUSH2 0x7EF PUSH2 0x783 JUMP JUMPDEST PUSH1 0x40 MSTORE DUP2 DUP2 MSTORE DUP4 DUP3 ADD PUSH1 0x20 ADD DUP6 LT ISZERO PUSH2 0x806 JUMPI PUSH0 DUP1 REVERT JUMPDEST DUP2 PUSH1 0x20 DUP6 ADD PUSH1 0x20 DUP4 ADD CALLDATACOPY PUSH0 SWAP2 DUP2 ADD PUSH1 0x20 ADD SWAP2 SWAP1 SWAP2 MSTORE SWAP4 SWAP3 POP POP POP JUMP JUMPDEST PUSH0 PUSH1 0x20 DUP3 DUP5 SUB SLT ISZERO PUSH2 0x832 JUMPI PUSH0 DUP1 REVERT JUMPDEST DUP2 CALLDATALOAD PUSH8 0xFFFFFFFFFFFFFFFF DUP2 GT ISZERO PUSH2 0x848 JUMPI PUSH0 DUP1 REVERT JUMPDEST PUSH2 0x854 DUP5 DUP3 DUP6 ADD PUSH2 0x797 JUMP JUMPDEST SWAP5 SWAP4 POP POP POP POP JUMP JUMPDEST PUSH0 PUSH1 0x20 DUP3 DUP5 SUB SLT ISZERO PUSH2 0x86C JUMPI PUSH0 DUP1 REVERT JUMPDEST DUP2 CALLDATALOAD PUSH1 0x1 PUSH1 0x1 PUSH1 0xA0 SHL SUB DUP2 AND DUP2 EQ PUSH2 0x882 JUMPI PUSH0 DUP1 REVERT JUMPDEST SWAP4 SWAP3 POP POP POP JUMP JUMPDEST PUSH1 0x20 DUP2 ADD PUSH1 0x3 DUP4 LT PUSH2 0x8A9 JUMPI PUSH4 0x4E487B71 PUSH1 0xE0 SHL PUSH0 MSTORE PUSH1 0x21 PUSH1 0x4 MSTORE PUSH1 0x24 PUSH0 REVERT JUMPDEST SWAP2 SWAP1 MSTORE SWAP1 JUMP JUMPDEST DUP1 CALLDATALOAD PUSH2 0xFFFF DUP2 AND DUP2 EQ PUSH2 0x8C0 JUMPI PUSH0 DUP1 REVERT JUMPDEST SWAP2 SWAP1 POP JUMP JUMPDEST PUSH0 PUSH1 0x20 DUP3 DUP5 SUB SLT ISZERO PUSH2 0x8D5 JUMPI PUSH0 DUP1 REVERT JUMPDEST PUSH2 0x882 DUP3 PUSH2 0x8AF JUMP JUMPDEST PUSH0 DUP1 PUSH0 DUP1 PUSH0 PUSH1 0xA0 DUP7 DUP9 SUB SLT ISZERO PUSH2 0x8F2 JUMPI PUSH0 DUP1 REVERT JUMPDEST DUP6 CALLDATALOAD PUSH8 0xFFFFFFFFFFFFFFFF DUP2 GT ISZERO PUSH2 0x908 JUMPI PUSH0 DUP1 REVERT JUMPDEST PUSH2 0x914 DUP9 DUP3 DUP10 ADD PUSH2 0x797 JUMP JUMPDEST SWAP6 POP POP PUSH1 0x20 DUP7 ADD CALLDATALOAD PUSH8 0xFFFFFFFFFFFFFFFF DUP2 GT ISZERO PUSH2 0x930 JUMPI PUSH0 DUP1 REVERT JUMPDEST PUSH2 0x93C DUP9 DUP3 DUP10 ADD PUSH2 0x797 JUMP JUMPDEST SWAP5 POP POP PUSH1 0x40 DUP7 ADD CALLDATALOAD PUSH8 0xFFFFFFFFFFFFFFFF DUP2 GT ISZERO PUSH2 0x958 JUMPI PUSH0 DUP1 REVERT JUMPDEST PUSH2 0x964 DUP9 DUP3 DUP10 ADD PUSH2 0x797 JUMP JUMPDEST SWAP4 POP POP PUSH2 0x973 PUSH1 0x60 DUP8 ADD PUSH2 0x8AF JUMP JUMPDEST SWAP2 POP PUSH2 0x981 PUSH1 0x80 DUP8 ADD PUSH2 0x8AF JUMP JUMPDEST SWAP1 POP SWAP3 SWAP6 POP SWAP3 SWAP6 SWAP1 SWAP4 POP JUMP JUMPDEST PUSH0 DUP2 MLOAD DUP1 DUP5 MSTORE DUP1 PUSH1 0x20 DUP5 ADD PUSH1 0x20 DUP7 ADD MCOPY PUSH0 PUSH1 0x20 DUP3 DUP7 ADD ADD MSTORE PUSH1 0x20 PUSH1 0x1F NOT PUSH1 0x1F DUP4 ADD AND DUP6 ADD ADD SWAP2 POP POP SWAP3 SWAP2 POP POP JUMP JUMPDEST PUSH1 0xA0 DUP2 MSTORE PUSH0 PUSH2 0x9CD PUSH1 0xA0 DUP4 ADD DUP9 PUSH2 0x98D JUMP JUMPDEST DUP3 DUP2 SUB PUSH1 0x20 DUP5 ADD MSTORE PUSH2 0x9DF DUP2 DUP9 PUSH2 0x98D JUMP JUMPDEST SWAP1 POP DUP3 DUP2 SUB PUSH1 0x40 DUP5 ADD MSTORE PUSH2 0x9F3 DUP2 DUP8 PUSH2 0x98D JUMP JUMPDEST SWAP2 POP POP PUSH2 0xFFFF DUP5 AND PUSH1 0x60 DUP4 ADD MSTORE PUSH2 0xFFFF DUP4 AND PUSH1 0x80 DUP4 ADD MSTORE SWAP7 SWAP6 POP POP POP POP POP POP JUMP JUMPDEST PUSH1 0x20 DUP1 DUP3 MSTORE PUSH1 0xA SWAP1 DUP3 ADD MSTORE PUSH10 0x27B7363C9037BBB732B9 PUSH1 0xB1 SHL PUSH1 0x40 DUP3 ADD MSTORE PUSH1 0x60 ADD SWAP1 JUMP JUMPDEST PUSH1 0x1 DUP2 DUP2 SHR SWAP1 DUP3 AND DUP1 PUSH2 0xA4C JUMPI PUSH1 0x7F DUP3 AND SWAP2 POP JUMPDEST PUSH1 0x20 DUP3 LT DUP2 SUB PUSH2 0xA6A JUMPI PUSH4 0x4E487B71 PUSH1 0xE0 SHL PUSH0 MSTORE PUSH1 0x22 PUSH1 0x4 MSTORE PUSH1 0x24 PUSH0 REVERT JUMPDEST POP SWAP2 SWAP1 POP JUMP JUMPDEST PUSH1 0x1F DUP3 GT ISZERO PUSH2 0xAB7 JUMPI DUP1 PUSH0 MSTORE PUSH1 0x20 PUSH0 KECCAK256 PUSH1 0x1F DUP5 ADD PUSH1 0x5 SHR DUP2 ADD PUSH1 0x20 DUP6 LT ISZERO PUSH2 0xA95 JUMPI POP DUP1 JUMPDEST PUSH1 0x1F DUP5 ADD PUSH1 0x5 SHR DUP3 ADD SWAP2 POP JUMPDEST DUP2 DUP2 LT ISZERO PUSH2 0xAB4 JUMPI PUSH0 DUP2 SSTORE PUSH1 0x1 ADD PUSH2 0xAA1 JUMP JUMPDEST POP POP JUMPDEST POP POP POP JUMP JUMPDEST DUP2 MLOAD PUSH8 0xFFFFFFFFFFFFFFFF DUP2 GT ISZERO PUSH2 0xAD6 JUMPI PUSH2 0xAD6 PUSH2 0x783 JUMP JUMPDEST PUSH2 0xAEA DUP2 PUSH2 0xAE4 DUP5 SLOAD PUSH2 0xA38 JUMP JUMPDEST DUP5 PUSH2 0xA70 JUMP JUMPDEST PUSH1 0x20 PUSH1 0x1F DUP3 GT PUSH1 0x1 DUP2 EQ PUSH2 0xB1C JUMPI PUSH0 DUP4 ISZERO PUSH2 0xB05 JUMPI POP DUP5 DUP3 ADD MLOAD JUMPDEST PUSH0 NOT PUSH1 0x3 DUP6 SWAP1 SHL SHR NOT AND PUSH1 0x1 DUP5 SWAP1 SHL OR DUP5 SSTORE PUSH2 0xAB4 JUMP JUMPDEST PUSH0 DUP5 DUP2 MSTORE PUSH1 0x20 DUP2 KECCAK256 PUSH1 0x1F NOT DUP6 AND SWAP2 JUMPDEST DUP3 DUP2 LT ISZERO PUSH2 0xB4B JUMPI DUP8 DUP6 ADD MLOAD DUP3 SSTORE PUSH1 0x20 SWAP5 DUP6 ADD SWAP5 PUSH1 0x1 SWAP1 SWAP3 ADD SWAP2 ADD PUSH2 0xB2B JUMP JUMPDEST POP DUP5 DUP3 LT ISZERO PUSH2 0xB68 JUMPI DUP7 DUP5 ADD MLOAD PUSH0 NOT PUSH1 0x3 DUP8 SWAP1 SHL PUSH1 0xF8 AND SHR NOT AND DUP2 SSTORE JUMPDEST POP POP POP POP PUSH1 0x1 SWAP1 DUP2 SHL ADD SWAP1 SSTORE POP JUMP INVALID 0xE0 0xD LOG2 OR DUP9 MOD RETURN PUSH32 0x69815E9ED5ED3072EC1D55206D60916D99B469C7DAA421E4A264697066735822 SLT KECCAK256 NUMBER 0xE SLOAD 0xB5 SGT SWAP4 CALLDATACOPY CODESIZE 0xEB 0xA5 0x27 0xE3 PUSH5 0x38A9262382 0xA9 0xC1 0x4C MLOAD CALLDATASIZE DUP3 LT LOG1 PUSH26 0x1BE6B262F664736F6C634300081A003360806040523480156100 0xF JUMPI PUSH0 DUP1 REVERT JUMPDEST POP PUSH1 0x40 MLOAD PUSH2 0xC74 CODESIZE SUB DUP1 PUSH2 0xC74 DUP4 CODECOPY DUP2 ADD PUSH1 0x40 DUP2 SWAP1 MSTORE PUSH2 0x2E SWAP2 PUSH2 0x1DA JUMP JUMPDEST DUP4 PUSH0 DUP4 DUP4 DUP3 PUSH2 0x3D DUP6 DUP3 PUSH2 0x2E3 JUMP JUMPDEST POP PUSH1 0x1 DUP1 SLOAD DUP5 SWAP2 SWAP1 PUSH1 0xFF NOT AND DUP2 DUP4 PUSH1 0x2 DUP2 GT ISZERO PUSH2 0x5C JUMPI PUSH2 0x5C PUSH2 0x39D JUMP JUMPDEST MUL OR SWAP1 SSTORE POP PUSH1 0x1 DUP1 SLOAD PUSH2 0x100 PUSH1 0x1 PUSH1 0xA8 SHL SUB NOT AND PUSH2 0x100 PUSH1 0x1 PUSH1 0x1 PUSH1 0xA0 SHL SUB SWAP5 DUP6 AND MUL OR SWAP1 SSTORE PUSH1 0x2 DUP1 SLOAD PUSH1 0x1 PUSH1 0x1 PUSH1 0xA0 SHL SUB NOT AND SWAP2 SWAP1 SWAP3 AND OR SWAP1 SSTORE POP PUSH1 0x3 SWAP1 POP PUSH2 0xA6 DUP5 DUP3 PUSH2 0x2E3 JUMP JUMPDEST POP PUSH1 0x1 DUP1 SLOAD PUSH2 0x100 PUSH1 0x1 PUSH1 0xA8 SHL SUB NOT AND PUSH2 0x100 PUSH1 0x1 PUSH1 0x1 PUSH1 0xA0 SHL SUB DUP6 DUP2 AND SWAP2 SWAP1 SWAP2 MUL SWAP2 SWAP1 SWAP2 OR SWAP1 SWAP2 SSTORE PUSH1 0x2 DUP1 SLOAD PUSH1 0x1 PUSH1 0x1 PUSH1 0xA0 SHL SUB NOT AND SWAP2 DUP4 AND SWAP2 SWAP1 SWAP2 OR SWAP1 SSTORE PUSH1 0x40 MLOAD CALLER DUP2 MSTORE PUSH32 0x1449ABF21E49FD025F33495E77F7B1461CAEFDD3D4BB646424A3F445C4576A5B SWAP1 PUSH1 0x20 ADD PUSH1 0x40 MLOAD DUP1 SWAP2 SUB SWAP1 LOG1 POP POP POP POP PUSH2 0x3B1 JUMP JUMPDEST PUSH4 0x4E487B71 PUSH1 0xE0 SHL PUSH0 MSTORE PUSH1 0x41 PUSH1 0x4 MSTORE PUSH1 0x24 PUSH0 REVERT JUMPDEST PUSH0 DUP3 PUSH1 0x1F DUP4 ADD SLT PUSH2 0x145 JUMPI PUSH0 DUP1 REVERT JUMPDEST DUP2 MLOAD PUSH1 0x1 PUSH1 0x1 PUSH1 0x40 SHL SUB DUP2 GT ISZERO PUSH2 0x15E JUMPI PUSH2 0x15E PUSH2 0x122 JUMP JUMPDEST PUSH1 0x40 MLOAD PUSH1 0x1F DUP3 ADD PUSH1 0x1F NOT SWAP1 DUP2 AND PUSH1 0x3F ADD AND DUP2 ADD PUSH1 0x1 PUSH1 0x1 PUSH1 0x40 SHL SUB DUP2 GT DUP3 DUP3 LT OR ISZERO PUSH2 0x18C JUMPI PUSH2 0x18C PUSH2 0x122 JUMP JUMPDEST PUSH1 0x40 MSTORE DUP2 DUP2 MSTORE DUP4 DUP3 ADD PUSH1 0x20 ADD DUP6 LT ISZERO PUSH2 0x1A3 JUMPI PUSH0 DUP1 REVERT JUMPDEST DUP2 PUSH1 0x20 DUP6 ADD PUSH1 0x20 DUP4 ADD MCOPY PUSH0 SWAP2 DUP2 ADD PUSH1 0x20 ADD SWAP2 SWAP1 SWAP2 MSTORE SWAP4 SWAP3 POP POP POP JUMP JUMPDEST DUP1 MLOAD PUSH1 0x1 PUSH1 0x1 PUSH1 0xA0 SHL SUB DUP2 AND DUP2 EQ PUSH2 0x1D5 JUMPI PUSH0 DUP1 REVERT JUMPDEST SWAP2 SWAP1 POP JUMP JUMPDEST PUSH0 DUP1 PUSH0 DUP1 PUSH1 0x80 DUP6 DUP8 SUB SLT ISZERO PUSH2 0x1ED JUMPI PUSH0 DUP1 REVERT JUMPDEST DUP5 MLOAD PUSH1 0x1 PUSH1 0x1 PUSH1 0x40 SHL SUB DUP2 GT ISZERO PUSH2 0x202 JUMPI PUSH0 DUP1 REVERT JUMPDEST PUSH2 0x20E DUP8 DUP3 DUP9 ADD PUSH2 0x136 JUMP JUMPDEST PUSH1 0x20 DUP8 ADD MLOAD SWAP1 SWAP6 POP SWAP1 POP PUSH1 0x1 PUSH1 0x1 PUSH1 0x40 SHL SUB DUP2 GT ISZERO PUSH2 0x22B JUMPI PUSH0 DUP1 REVERT JUMPDEST PUSH2 0x237 DUP8 DUP3 DUP9 ADD PUSH2 0x136 JUMP JUMPDEST SWAP4 POP POP PUSH2 0x246 PUSH1 0x40 DUP7 ADD PUSH2 0x1BF JUMP JUMPDEST SWAP2 POP PUSH2 0x254 PUSH1 0x60 DUP7 ADD PUSH2 0x1BF JUMP JUMPDEST SWAP1 POP SWAP3 SWAP6 SWAP2 SWAP5 POP SWAP3 POP JUMP JUMPDEST PUSH1 0x1 DUP2 DUP2 SHR SWAP1 DUP3 AND DUP1 PUSH2 0x273 JUMPI PUSH1 0x7F DUP3 AND SWAP2 POP JUMPDEST PUSH1 0x20 DUP3 LT DUP2 SUB PUSH2 0x291 JUMPI PUSH4 0x4E487B71 PUSH1 0xE0 SHL PUSH0 MSTORE PUSH1 0x22 PUSH1 0x4 MSTORE PUSH1 0x24 PUSH0 REVERT JUMPDEST POP SWAP2 SWAP1 POP JUMP JUMPDEST PUSH1 0x1F DUP3 GT ISZERO PUSH2 0x2DE JUMPI DUP1 PUSH0 MSTORE PUSH1 0x20 PUSH0 KECCAK256 PUSH1 0x1F DUP5 ADD PUSH1 0x5 SHR DUP2 ADD PUSH1 0x20 DUP6 LT ISZERO PUSH2 0x2BC JUMPI POP DUP1 JUMPDEST PUSH1 0x1F DUP5 ADD PUSH1 0x5 SHR DUP3 ADD SWAP2 POP JUMPDEST DUP2 DUP2 LT ISZERO PUSH2 0x2DB JUMPI PUSH0 DUP2 SSTORE PUSH1 0x1 ADD PUSH2 0x2C8 JUMP JUMPDEST POP POP JUMPDEST POP POP POP JUMP JUMPDEST DUP2 MLOAD PUSH1 0x1 PUSH1 0x1 PUSH1 0x40 SHL SUB DUP2 GT ISZERO PUSH2 0x2FC JUMPI PUSH2 0x2FC PUSH2 0x122 JUMP JUMPDEST PUSH2 0x310 DUP2 PUSH2 0x30A DUP5 SLOAD PUSH2 0x25F JUMP JUMPDEST DUP5 PUSH2 0x297 JUMP JUMPDEST PUSH1 0x20 PUSH1 0x1F DUP3 GT PUSH1 0x1 DUP2 EQ PUSH2 0x342 JUMPI PUSH0 DUP4 ISZERO PUSH2 0x32B JUMPI POP DUP5 DUP3 ADD MLOAD JUMPDEST PUSH0 NOT PUSH1 0x3 DUP6 SWAP1 SHL SHR NOT AND PUSH1 0x1 DUP5 SWAP1 SHL OR DUP5 SSTORE PUSH2 0x2DB JUMP JUMPDEST PUSH0 DUP5 DUP2 MSTORE PUSH1 0x20 DUP2 KECCAK256 PUSH1 0x1F NOT DUP6 AND SWAP2 JUMPDEST DUP3 DUP2 LT ISZERO PUSH2 0x371 JUMPI DUP8 DUP6 ADD MLOAD DUP3 SSTORE PUSH1 0x20 SWAP5 DUP6 ADD SWAP5 PUSH1 0x1 SWAP1 SWAP3 ADD SWAP2 ADD PUSH2 0x351 JUMP JUMPDEST POP DUP5 DUP3 LT ISZERO PUSH2 0x38E JUMPI DUP7 DUP5 ADD MLOAD PUSH0 NOT PUSH1 0x3 DUP8 SWAP1 SHL PUSH1 0xF8 AND SHR NOT AND DUP2 SSTORE JUMPDEST POP POP POP POP PUSH1 0x1 SWAP1 DUP2 SHL ADD SWAP1 SSTORE POP JUMP JUMPDEST PUSH4 0x4E487B71 PUSH1 0xE0 SHL PUSH0 MSTORE PUSH1 0x21 PUSH1 0x4 MSTORE PUSH1 0x24 PUSH0 REVERT JUMPDEST PUSH2 0x8B6 DUP1 PUSH2 0x3BE PUSH0 CODECOPY PUSH0 RETURN INVALID PUSH1 0x80 PUSH1 0x40 MSTORE CALLVALUE DUP1 ISZERO PUSH2 0xF JUMPI PUSH0 DUP1 REVERT JUMPDEST POP PUSH1 0x4 CALLDATASIZE LT PUSH2 0x7A JUMPI PUSH0 CALLDATALOAD PUSH1 0xE0 SHR DUP1 PUSH4 0x80F76021 GT PUSH2 0x58 JUMPI DUP1 PUSH4 0x80F76021 EQ PUSH2 0xC4 JUMPI DUP1 PUSH4 0xBA379E86 EQ PUSH2 0xE4 JUMPI DUP1 PUSH4 0xC47F0027 EQ PUSH2 0xFA JUMPI DUP1 PUSH4 0xEFD8AF9F EQ PUSH2 0x10D JUMPI PUSH0 DUP1 REVERT JUMPDEST DUP1 PUSH4 0x1499C592 EQ PUSH2 0x7E JUMPI DUP1 PUSH4 0x2858D3C8 EQ PUSH2 0x93 JUMPI DUP1 PUSH4 0x7A4C982E EQ PUSH2 0xB1 JUMPI JUMPDEST PUSH0 DUP1 REVERT JUMPDEST PUSH2 0x91 PUSH2 0x8C CALLDATASIZE PUSH1 0x4 PUSH2 0x531 JUMP JUMPDEST PUSH2 0x120 JUMP JUMPDEST STOP JUMPDEST PUSH2 0x9B PUSH2 0x1BF JUMP JUMPDEST PUSH1 0x40 MLOAD PUSH2 0xA8 SWAP2 SWAP1 PUSH2 0x55E JUMP JUMPDEST PUSH1 0x40 MLOAD DUP1 SWAP2 SUB SWAP1 RETURN JUMPDEST PUSH2 0x91 PUSH2 0xBF CALLDATASIZE PUSH1 0x4 PUSH2 0x623 JUMP JUMPDEST PUSH2 0x20F JUMP JUMPDEST PUSH2 0xCC PUSH2 0x2A3 JUMP JUMPDEST PUSH1 0x40 MLOAD PUSH1 0x1 PUSH1 0x1 PUSH1 0xA0 SHL SUB SWAP1 SWAP2 AND DUP2 MSTORE PUSH1 0x20 ADD PUSH2 0xA8 JUMP JUMPDEST PUSH2 0xEC PUSH2 0x2F9 JUMP JUMPDEST PUSH1 0x40 MLOAD PUSH2 0xA8 SWAP3 SWAP2 SWAP1 PUSH2 0x6B6 JUMP JUMPDEST PUSH2 0x91 PUSH2 0x108 CALLDATASIZE PUSH1 0x4 PUSH2 0x6E3 JUMP JUMPDEST PUSH2 0x461 JUMP JUMPDEST PUSH2 0x91 PUSH2 0x11B CALLDATASIZE PUSH1 0x4 PUSH2 0x6E3 JUMP JUMPDEST PUSH2 0x4E1 JUMP JUMPDEST PUSH1 0x1 SLOAD PUSH2 0x100 SWAP1 DIV PUSH1 0x1 PUSH1 0x1 PUSH1 0xA0 SHL SUB AND CALLER EQ DUP1 PUSH2 0x148 JUMPI POP PUSH1 0x2 SLOAD PUSH1 0x1 PUSH1 0x1 PUSH1 0xA0 SHL SUB AND CALLER EQ JUMPDEST PUSH2 0x16D JUMPI PUSH1 0x40 MLOAD PUSH3 0x461BCD PUSH1 0xE5 SHL DUP2 MSTORE PUSH1 0x4 ADD PUSH2 0x164 SWAP1 PUSH2 0x71D JUMP JUMPDEST PUSH1 0x40 MLOAD DUP1 SWAP2 SUB SWAP1 REVERT JUMPDEST PUSH1 0x2 DUP1 SLOAD PUSH1 0x1 PUSH1 0x1 PUSH1 0xA0 SHL SUB NOT AND PUSH1 0x1 PUSH1 0x1 PUSH1 0xA0 SHL SUB DUP4 AND OR SWAP1 SSTORE PUSH1 0x40 MLOAD CALLER DUP2 MSTORE PUSH32 0xE00DA2178806F37F69815E9ED5ED3072EC1D55206D60916D99B469C7DAA421E4 SWAP1 PUSH1 0x20 ADD JUMPDEST PUSH1 0x40 MLOAD DUP1 SWAP2 SUB SWAP1 LOG1 POP JUMP JUMPDEST PUSH1 0x1 SLOAD PUSH0 SWAP1 PUSH2 0x100 SWAP1 DIV PUSH1 0x1 PUSH1 0x1 PUSH1 0xA0 SHL SUB AND CALLER EQ DUP1 PUSH2 0x1E9 JUMPI POP PUSH1 0x2 SLOAD PUSH1 0x1 PUSH1 0x1 PUSH1 0xA0 SHL SUB AND CALLER EQ JUMPDEST PUSH2 0x205 JUMPI PUSH1 0x40 MLOAD PUSH3 0x461BCD PUSH1 0xE5 SHL DUP2 MSTORE PUSH1 0x4 ADD PUSH2 0x164 SWAP1 PUSH2 0x71D JUMP JUMPDEST POP PUSH1 0x1 SLOAD PUSH1 0xFF AND SWAP1 JUMP JUMPDEST PUSH1 0x1 SLOAD PUSH2 0x100 SWAP1 DIV PUSH1 0x1 PUSH1 0x1 PUSH1 0xA0 SHL SUB AND CALLER EQ DUP1 PUSH2 0x237 JUMPI POP PUSH1 0x2 SLOAD PUSH1 0x1 PUSH1 0x1 PUSH1 0xA0 SHL SUB AND CALLER EQ JUMPDEST PUSH2 0x253 JUMPI PUSH1 0x40 MLOAD PUSH3 0x461BCD PUSH1 0xE5 SHL DUP2 MSTORE PUSH1 0x4 ADD PUSH2 0x164 SWAP1 PUSH2 0x71D JUMP JUMPDEST PUSH0 PUSH2 0x25E DUP4 DUP3 PUSH2 0x7C5 JUMP JUMPDEST POP PUSH1 0x3 PUSH2 0x26B DUP3 DUP3 PUSH2 0x7C5 JUMP JUMPDEST POP PUSH1 0x40 MLOAD CALLER DUP2 MSTORE PUSH32 0xE00DA2178806F37F69815E9ED5ED3072EC1D55206D60916D99B469C7DAA421E4 SWAP1 PUSH1 0x20 ADD PUSH1 0x40 MLOAD DUP1 SWAP2 SUB SWAP1 LOG1 POP POP JUMP JUMPDEST PUSH1 0x1 SLOAD PUSH0 SWAP1 PUSH2 0x100 SWAP1 DIV PUSH1 0x1 PUSH1 0x1 PUSH1 0xA0 SHL SUB AND CALLER EQ DUP1 PUSH2 0x2CD JUMPI POP PUSH1 0x2 SLOAD PUSH1 0x1 PUSH1 0x1 PUSH1 0xA0 SHL SUB AND CALLER EQ JUMPDEST PUSH2 0x2E9 JUMPI PUSH1 0x40 MLOAD PUSH3 0x461BCD PUSH1 0xE5 SHL DUP2 MSTORE PUSH1 0x4 ADD PUSH2 0x164 SWAP1 PUSH2 0x71D JUMP JUMPDEST POP PUSH1 0x2 SLOAD PUSH1 0x1 PUSH1 0x1 PUSH1 0xA0 SHL SUB AND SWAP1 JUMP JUMPDEST PUSH1 0x1 SLOAD PUSH1 0x60 SWAP1 DUP2 SWAP1 PUSH2 0x100 SWAP1 DIV PUSH1 0x1 PUSH1 0x1 PUSH1 0xA0 SHL SUB AND CALLER EQ DUP1 PUSH2 0x326 JUMPI POP PUSH1 0x2 SLOAD PUSH1 0x1 PUSH1 0x1 PUSH1 0xA0 SHL SUB AND CALLER EQ JUMPDEST PUSH2 0x342 JUMPI PUSH1 0x40 MLOAD PUSH3 0x461BCD PUSH1 0xE5 SHL DUP2 MSTORE PUSH1 0x4 ADD PUSH2 0x164 SWAP1 PUSH2 0x71D JUMP JUMPDEST PUSH0 PUSH1 0x3 DUP2 DUP1 SLOAD PUSH2 0x351 SWAP1 PUSH2 0x741 JUMP JUMPDEST DUP1 PUSH1 0x1F ADD PUSH1 0x20 DUP1 SWAP2 DIV MUL PUSH1 0x20 ADD PUSH1 0x40 MLOAD SWAP1 DUP2 ADD PUSH1 0x40 MSTORE DUP1 SWAP3 SWAP2 SWAP1 DUP2 DUP2 MSTORE PUSH1 0x20 ADD DUP3 DUP1 SLOAD PUSH2 0x37D SWAP1 PUSH2 0x741 JUMP JUMPDEST DUP1 ISZERO PUSH2 0x3C8 JUMPI DUP1 PUSH1 0x1F LT PUSH2 0x39F JUMPI PUSH2 0x100 DUP1 DUP4 SLOAD DIV MUL DUP4 MSTORE SWAP2 PUSH1 0x20 ADD SWAP2 PUSH2 0x3C8 JUMP JUMPDEST DUP3 ADD SWAP2 SWAP1 PUSH0 MSTORE PUSH1 0x20 PUSH0 KECCAK256 SWAP1 JUMPDEST DUP2 SLOAD DUP2 MSTORE SWAP1 PUSH1 0x1 ADD SWAP1 PUSH1 0x20 ADD DUP1 DUP4 GT PUSH2 0x3AB JUMPI DUP3 SWAP1 SUB PUSH1 0x1F AND DUP3 ADD SWAP2 JUMPDEST POP POP POP POP POP SWAP2 POP DUP1 DUP1 SLOAD PUSH2 0x3DB SWAP1 PUSH2 0x741 JUMP JUMPDEST DUP1 PUSH1 0x1F ADD PUSH1 0x20 DUP1 SWAP2 DIV MUL PUSH1 0x20 ADD PUSH1 0x40 MLOAD SWAP1 DUP2 ADD PUSH1 0x40 MSTORE DUP1 SWAP3 SWAP2 SWAP1 DUP2 DUP2 MSTORE PUSH1 0x20 ADD DUP3 DUP1 SLOAD PUSH2 0x407 SWAP1 PUSH2 0x741 JUMP JUMPDEST DUP1 ISZERO PUSH2 0x452 JUMPI DUP1 PUSH1 0x1F LT PUSH2 0x429 JUMPI PUSH2 0x100 DUP1 DUP4 SLOAD DIV MUL DUP4 MSTORE SWAP2 PUSH1 0x20 ADD SWAP2 PUSH2 0x452 JUMP JUMPDEST DUP3 ADD SWAP2 SWAP1 PUSH0 MSTORE PUSH1 0x20 PUSH0 KECCAK256 SWAP1 JUMPDEST DUP2 SLOAD DUP2 MSTORE SWAP1 PUSH1 0x1 ADD SWAP1 PUSH1 0x20 ADD DUP1 DUP4 GT PUSH2 0x435 JUMPI DUP3 SWAP1 SUB PUSH1 0x1F AND DUP3 ADD SWAP2 JUMPDEST POP POP POP POP POP SWAP1 POP SWAP2 POP SWAP2 POP SWAP1 SWAP2 JUMP JUMPDEST PUSH1 0x1 SLOAD PUSH2 0x100 SWAP1 DIV PUSH1 0x1 PUSH1 0x1 PUSH1 0xA0 SHL SUB AND CALLER EQ DUP1 PUSH2 0x489 JUMPI POP PUSH1 0x2 SLOAD PUSH1 0x1 PUSH1 0x1 PUSH1 0xA0 SHL SUB AND CALLER EQ JUMPDEST PUSH2 0x4A5 JUMPI PUSH1 0x40 MLOAD PUSH3 0x461BCD PUSH1 0xE5 SHL DUP2 MSTORE PUSH1 0x4 ADD PUSH2 0x164 SWAP1 PUSH2 0x71D JUMP JUMPDEST PUSH0 PUSH2 0x4B0 DUP3 DUP3 PUSH2 0x7C5 JUMP JUMPDEST POP PUSH1 0x40 MLOAD CALLER DUP2 MSTORE PUSH32 0xE00DA2178806F37F69815E9ED5ED3072EC1D55206D60916D99B469C7DAA421E4 SWAP1 PUSH1 0x20 ADD PUSH2 0x1B4 JUMP JUMPDEST PUSH1 0x1 SLOAD PUSH2 0x100 SWAP1 DIV PUSH1 0x1 PUSH1 0x1 PUSH1 0xA0 SHL SUB AND CALLER EQ DUP1 PUSH2 0x509 JUMPI POP PUSH1 0x2 SLOAD PUSH1 0x1 PUSH1 0x1 PUSH1 0xA0 SHL SUB AND CALLER EQ JUMPDEST PUSH2 0x525 JUMPI PUSH1 0x40 MLOAD PUSH3 0x461BCD PUSH1 0xE5 SHL DUP2 MSTORE PUSH1 0x4 ADD PUSH2 0x164 SWAP1 PUSH2 0x71D JUMP JUMPDEST PUSH1 0x3 PUSH2 0x4B0 DUP3 DUP3 PUSH2 0x7C5 JUMP JUMPDEST PUSH0 PUSH1 0x20 DUP3 DUP5 SUB SLT ISZERO PUSH2 0x541 JUMPI PUSH0 DUP1 REVERT JUMPDEST DUP2 CALLDATALOAD PUSH1 0x1 PUSH1 0x1 PUSH1 0xA0 SHL SUB DUP2 AND DUP2 EQ PUSH2 0x557 JUMPI PUSH0 DUP1 REVERT JUMPDEST SWAP4 SWAP3 POP POP POP JUMP JUMPDEST PUSH1 0x20 DUP2 ADD PUSH1 0x3 DUP4 LT PUSH2 0x57E JUMPI PUSH4 0x4E487B71 PUSH1 0xE0 SHL PUSH0 MSTORE PUSH1 0x21 PUSH1 0x4 MSTORE PUSH1 0x24 PUSH0 REVERT JUMPDEST SWAP2 SWAP1 MSTORE SWAP1 JUMP JUMPDEST PUSH4 0x4E487B71 PUSH1 0xE0 SHL PUSH0 MSTORE PUSH1 0x41 PUSH1 0x4 MSTORE PUSH1 0x24 PUSH0 REVERT JUMPDEST PUSH0 DUP3 PUSH1 0x1F DUP4 ADD SLT PUSH2 0x5A7 JUMPI PUSH0 DUP1 REVERT JUMPDEST DUP2 CALLDATALOAD PUSH8 0xFFFFFFFFFFFFFFFF DUP2 GT ISZERO PUSH2 0x5C1 JUMPI PUSH2 0x5C1 PUSH2 0x584 JUMP JUMPDEST PUSH1 0x40 MLOAD PUSH1 0x1F DUP3 ADD PUSH1 0x1F NOT SWAP1 DUP2 AND PUSH1 0x3F ADD AND DUP2 ADD PUSH8 0xFFFFFFFFFFFFFFFF DUP2 GT DUP3 DUP3 LT OR ISZERO PUSH2 0x5F0 JUMPI PUSH2 0x5F0 PUSH2 0x584 JUMP JUMPDEST PUSH1 0x40 MSTORE DUP2 DUP2 MSTORE DUP4 DUP3 ADD PUSH1 0x20 ADD DUP6 LT ISZERO PUSH2 0x607 JUMPI PUSH0 DUP1 REVERT JUMPDEST DUP2 PUSH1 0x20 DUP6 ADD PUSH1 0x20 DUP4 ADD CALLDATACOPY PUSH0 SWAP2 DUP2 ADD PUSH1 0x20 ADD SWAP2 SWAP1 SWAP2 MSTORE SWAP4 SWAP3 POP POP POP JUMP JUMPDEST PUSH0 DUP1 PUSH1 0x40 DUP4 DUP6 SUB SLT ISZERO PUSH2 0x634 JUMPI PUSH0 DUP1 REVERT JUMPDEST DUP3 CALLDATALOAD PUSH8 0xFFFFFFFFFFFFFFFF DUP2 GT ISZERO PUSH2 0x64A JUMPI PUSH0 DUP1 REVERT JUMPDEST PUSH2 0x656 DUP6 DUP3 DUP7 ADD PUSH2 0x598 JUMP JUMPDEST SWAP3 POP POP PUSH1 0x20 DUP4 ADD CALLDATALOAD PUSH8 0xFFFFFFFFFFFFFFFF DUP2 GT ISZERO PUSH2 0x672 JUMPI PUSH0 DUP1 REVERT JUMPDEST PUSH2 0x67E DUP6 DUP3 DUP7 ADD PUSH2 0x598 JUMP JUMPDEST SWAP2 POP POP SWAP3 POP SWAP3 SWAP1 POP JUMP JUMPDEST PUSH0 DUP2 MLOAD DUP1 DUP5 MSTORE DUP1 PUSH1 0x20 DUP5 ADD PUSH1 0x20 DUP7 ADD MCOPY PUSH0 PUSH1 0x20 DUP3 DUP7 ADD ADD MSTORE PUSH1 0x20 PUSH1 0x1F NOT PUSH1 0x1F DUP4 ADD AND DUP6 ADD ADD SWAP2 POP POP SWAP3 SWAP2 POP POP JUMP JUMPDEST PUSH1 0x40 DUP2 MSTORE PUSH0 PUSH2 0x6C8 PUSH1 0x40 DUP4 ADD DUP6 PUSH2 0x688 JUMP JUMPDEST DUP3 DUP2 SUB PUSH1 0x20 DUP5 ADD MSTORE PUSH2 0x6DA DUP2 DUP6 PUSH2 0x688 JUMP JUMPDEST SWAP6 SWAP5 POP POP POP POP POP JUMP JUMPDEST PUSH0 PUSH1 0x20 DUP3 DUP5 SUB SLT ISZERO PUSH2 0x6F3 JUMPI PUSH0 DUP1 REVERT JUMPDEST DUP2 CALLDATALOAD PUSH8 0xFFFFFFFFFFFFFFFF DUP2 GT ISZERO PUSH2 0x709 JUMPI PUSH0 DUP1 REVERT JUMPDEST PUSH2 0x715 DUP5 DUP3 DUP6 ADD PUSH2 0x598 JUMP JUMPDEST SWAP5 SWAP4 POP POP POP POP JUMP JUMPDEST PUSH1 0x20 DUP1 DUP3 MSTORE PUSH1 0xA SWAP1 DUP3 ADD MSTORE PUSH10 0x27B7363C9037BBB732B9 PUSH1 0xB1 SHL PUSH1 0x40 DUP3 ADD MSTORE PUSH1 0x60 ADD SWAP1 JUMP JUMPDEST PUSH1 0x1 DUP2 DUP2 SHR SWAP1 DUP3 AND DUP1 PUSH2 0x755 JUMPI PUSH1 0x7F DUP3 AND SWAP2 POP JUMPDEST PUSH1 0x20 DUP3 LT DUP2 SUB PUSH2 0x773 JUMPI PUSH4 0x4E487B71 PUSH1 0xE0 SHL PUSH0 MSTORE PUSH1 0x22 PUSH1 0x4 MSTORE PUSH1 0x24 PUSH0 REVERT JUMPDEST POP SWAP2 SWAP1 POP JUMP JUMPDEST PUSH1 0x1F DUP3 GT ISZERO PUSH2 0x7C0 JUMPI DUP1 PUSH0 MSTORE PUSH1 0x20 PUSH0 KECCAK256 PUSH1 0x1F DUP5 ADD PUSH1 0x5 SHR DUP2 ADD PUSH1 0x20 DUP6 LT ISZERO PUSH2 0x79E JUMPI POP DUP1 JUMPDEST PUSH1 0x1F DUP5 ADD PUSH1 0x5 SHR DUP3 ADD SWAP2 POP JUMPDEST DUP2 DUP2 LT ISZERO PUSH2 0x7BD JUMPI PUSH0 DUP2 SSTORE PUSH1 0x1 ADD PUSH2 0x7AA JUMP JUMPDEST POP POP JUMPDEST POP POP POP JUMP JUMPDEST DUP2 MLOAD PUSH8 0xFFFFFFFFFFFFFFFF DUP2 GT ISZERO PUSH2 0x7DF JUMPI PUSH2 0x7DF PUSH2 0x584 JUMP JUMPDEST PUSH2 0x7F3 DUP2 PUSH2 0x7ED DUP5 SLOAD PUSH2 0x741 JUMP JUMPDEST DUP5 PUSH2 0x779 JUMP JUMPDEST PUSH1 0x20 PUSH1 0x1F DUP3 GT PUSH1 0x1 DUP2 EQ PUSH2 0x825 JUMPI PUSH0 DUP4 ISZERO PUSH2 0x80E JUMPI POP DUP5 DUP3 ADD MLOAD JUMPDEST PUSH0 NOT PUSH1 0x3 DUP6 SWAP1 SHL SHR NOT AND PUSH1 0x1 DUP5 SWAP1 SHL OR DUP5 SSTORE PUSH2 0x7BD JUMP JUMPDEST PUSH0 DUP5 DUP2 MSTORE PUSH1 0x20 DUP2 KECCAK256 PUSH1 0x1F NOT DUP6 AND SWAP2 JUMPDEST DUP3 DUP2 LT ISZERO PUSH2 0x854 JUMPI DUP8 DUP6 ADD MLOAD DUP3 SSTORE PUSH1 0x20 SWAP5 DUP6 ADD SWAP5 PUSH1 0x1 SWAP1 SWAP3 ADD SWAP2 ADD PUSH2 0x834 JUMP JUMPDEST POP DUP5 DUP3 LT ISZERO PUSH2 0x871 JUMPI DUP7 DUP5 ADD MLOAD PUSH0 NOT PUSH1 0x3 DUP8 SWAP1 SHL PUSH1 0xF8 AND SHR NOT AND DUP2 SSTORE JUMPDEST POP POP POP POP PUSH1 0x1 SWAP1 DUP2 SHL ADD SWAP1 SSTORE POP JUMP INVALID LOG2 PUSH5 0x6970667358 0x22 SLT KECCAK256 0xFC PUSH1 0xA4 0xAE 0xC4 0xD6 RETURNDATACOPY SWAP10 0xFC MSIZE CALLVALUE PUSH9 0xE8823DC8FEECE997B4 PUSH21 0x5650F3BE8B1ADDE17CA964736F6C634300081A0033 PUSH1 0x80 PUSH1 0x40 MSTORE CALLVALUE DUP1 ISZERO PUSH2 0xF JUMPI PUSH0 DUP1 REVERT JUMPDEST POP PUSH1 0x40 MLOAD PUSH2 0xF53 CODESIZE SUB DUP1 PUSH2 0xF53 DUP4 CODECOPY DUP2 ADD PUSH1 0x40 DUP2 SWAP1 MSTORE PUSH2 0x2E SWAP2 PUSH2 0x1B8 JUMP JUMPDEST DUP6 PUSH1 0x2 DUP4 DUP4 PUSH0 PUSH2 0x3E DUP6 DUP3 PUSH2 0x316 JUMP JUMPDEST POP PUSH1 0x1 DUP1 SLOAD DUP5 SWAP2 SWAP1 PUSH1 0xFF NOT AND DUP2 DUP4 PUSH1 0x2 DUP2 GT ISZERO PUSH2 0x5D JUMPI PUSH2 0x5D PUSH2 0x3D0 JUMP JUMPDEST MUL OR SWAP1 SSTORE POP PUSH1 0x1 DUP1 SLOAD PUSH2 0x100 PUSH1 0x1 PUSH1 0xA8 SHL SUB NOT AND PUSH2 0x100 PUSH1 0x1 PUSH1 0x1 PUSH1 0xA0 SHL SUB SWAP5 DUP6 AND MUL OR SWAP1 SSTORE PUSH1 0x2 DUP1 SLOAD PUSH1 0x1 PUSH1 0x1 PUSH1 0xA0 SHL SUB NOT AND SWAP2 SWAP1 SWAP3 AND OR SWAP1 SSTORE POP PUSH1 0x3 SWAP1 POP PUSH2 0xA7 DUP7 DUP3 PUSH2 0x316 JUMP JUMPDEST POP PUSH1 0x4 PUSH2 0xB4 DUP6 DUP3 PUSH2 0x316 JUMP JUMPDEST POP PUSH1 0x5 PUSH2 0xC1 DUP5 DUP3 PUSH2 0x316 JUMP JUMPDEST POP PUSH1 0x40 MLOAD CALLER DUP2 MSTORE PUSH32 0x1449ABF21E49FD025F33495E77F7B1461CAEFDD3D4BB646424A3F445C4576A5B SWAP1 PUSH1 0x20 ADD PUSH1 0x40 MLOAD DUP1 SWAP2 SUB SWAP1 LOG1 POP POP POP POP POP POP PUSH2 0x3E4 JUMP JUMPDEST PUSH4 0x4E487B71 PUSH1 0xE0 SHL PUSH0 MSTORE PUSH1 0x41 PUSH1 0x4 MSTORE PUSH1 0x24 PUSH0 REVERT JUMPDEST PUSH0 DUP3 PUSH1 0x1F DUP4 ADD SLT PUSH2 0x123 JUMPI PUSH0 DUP1 REVERT JUMPDEST DUP2 MLOAD PUSH1 0x1 PUSH1 0x1 PUSH1 0x40 SHL SUB DUP2 GT ISZERO PUSH2 0x13C JUMPI PUSH2 0x13C PUSH2 0x100 JUMP JUMPDEST PUSH1 0x40 MLOAD PUSH1 0x1F DUP3 ADD PUSH1 0x1F NOT SWAP1 DUP2 AND PUSH1 0x3F ADD AND DUP2 ADD PUSH1 0x1 PUSH1 0x1 PUSH1 0x40 SHL SUB DUP2 GT DUP3 DUP3 LT OR ISZERO PUSH2 0x16A JUMPI PUSH2 0x16A PUSH2 0x100 JUMP JUMPDEST PUSH1 0x40 MSTORE DUP2 DUP2 MSTORE DUP4 DUP3 ADD PUSH1 0x20 ADD DUP6 LT ISZERO PUSH2 0x181 JUMPI PUSH0 DUP1 REVERT JUMPDEST DUP2 PUSH1 0x20 DUP6 ADD PUSH1 0x20 DUP4 ADD MCOPY PUSH0 SWAP2 DUP2 ADD PUSH1 0x20 ADD SWAP2 SWAP1 SWAP2 MSTORE SWAP4 SWAP3 POP POP POP JUMP JUMPDEST DUP1 MLOAD PUSH1 0x1 PUSH1 0x1 PUSH1 0xA0 SHL SUB DUP2 AND DUP2 EQ PUSH2 0x1B3 JUMPI PUSH0 DUP1 REVERT JUMPDEST SWAP2 SWAP1 POP JUMP JUMPDEST PUSH0 DUP1 PUSH0 DUP1 PUSH0 DUP1 PUSH1 0xC0 DUP8 DUP10 SUB SLT ISZERO PUSH2 0x1CD JUMPI PUSH0 DUP1 REVERT JUMPDEST DUP7 MLOAD PUSH1 0x1 PUSH1 0x1 PUSH1 0x40 SHL SUB DUP2 GT ISZERO PUSH2 0x1E2 JUMPI PUSH0 DUP1 REVERT JUMPDEST PUSH2 0x1EE DUP10 DUP3 DUP11 ADD PUSH2 0x114 JUMP JUMPDEST PUSH1 0x20 DUP10 ADD MLOAD SWAP1 SWAP8 POP SWAP1 POP PUSH1 0x1 PUSH1 0x1 PUSH1 0x40 SHL SUB DUP2 GT ISZERO PUSH2 0x20B JUMPI PUSH0 DUP1 REVERT JUMPDEST PUSH2 0x217 DUP10 DUP3 DUP11 ADD PUSH2 0x114 JUMP JUMPDEST PUSH1 0x40 DUP10 ADD MLOAD SWAP1 SWAP7 POP SWAP1 POP PUSH1 0x1 PUSH1 0x1 PUSH1 0x40 SHL SUB DUP2 GT ISZERO PUSH2 0x234 JUMPI PUSH0 DUP1 REVERT JUMPDEST PUSH2 0x240 DUP10 DUP3 DUP11 ADD PUSH2 0x114 JUMP JUMPDEST PUSH1 0x60 DUP10 ADD MLOAD SWAP1 SWAP6 POP SWAP1 POP PUSH1 0x1 PUSH1 0x1 PUSH1 0x40 SHL SUB DUP2 GT ISZERO PUSH2 0x25D JUMPI PUSH0 DUP1 REVERT JUMPDEST PUSH2 0x269 DUP10 DUP3 DUP11 ADD PUSH2 0x114 JUMP JUMPDEST SWAP4 POP POP PUSH2 0x278 PUSH1 0x80 DUP9 ADD PUSH2 0x19D JUMP JUMPDEST SWAP2 POP PUSH2 0x286 PUSH1 0xA0 DUP9 ADD PUSH2 0x19D JUMP JUMPDEST SWAP1 POP SWAP3 SWAP6 POP SWAP3 SWAP6 POP SWAP3 SWAP6 JUMP JUMPDEST PUSH1 0x1 DUP2 DUP2 SHR SWAP1 DUP3 AND DUP1 PUSH2 0x2A6 JUMPI PUSH1 0x7F DUP3 AND SWAP2 POP JUMPDEST PUSH1 0x20 DUP3 LT DUP2 SUB PUSH2 0x2C4 JUMPI PUSH4 0x4E487B71 PUSH1 0xE0 SHL PUSH0 MSTORE PUSH1 0x22 PUSH1 0x4 MSTORE PUSH1 0x24 PUSH0 REVERT JUMPDEST POP SWAP2 SWAP1 POP JUMP JUMPDEST PUSH1 0x1F DUP3 GT ISZERO PUSH2 0x311 JUMPI DUP1 PUSH0 MSTORE PUSH1 0x20 PUSH0 KECCAK256 PUSH1 0x1F DUP5 ADD PUSH1 0x5 SHR DUP2 ADD PUSH1 0x20 DUP6 LT ISZERO PUSH2 0x2EF JUMPI POP DUP1 JUMPDEST PUSH1 0x1F DUP5 ADD PUSH1 0x5 SHR DUP3 ADD SWAP2 POP JUMPDEST DUP2 DUP2 LT ISZERO PUSH2 0x30E JUMPI PUSH0 DUP2 SSTORE PUSH1 0x1 ADD PUSH2 0x2FB JUMP JUMPDEST POP POP JUMPDEST POP POP POP JUMP JUMPDEST DUP2 MLOAD PUSH1 0x1 PUSH1 0x1 PUSH1 0x40 SHL SUB DUP2 GT ISZERO PUSH2 0x32F JUMPI PUSH2 0x32F PUSH2 0x100 JUMP JUMPDEST PUSH2 0x343 DUP2 PUSH2 0x33D DUP5 SLOAD PUSH2 0x292 JUMP JUMPDEST DUP5 PUSH2 0x2CA JUMP JUMPDEST PUSH1 0x20 PUSH1 0x1F DUP3 GT PUSH1 0x1 DUP2 EQ PUSH2 0x375 JUMPI PUSH0 DUP4 ISZERO PUSH2 0x35E JUMPI POP DUP5 DUP3 ADD MLOAD JUMPDEST PUSH0 NOT PUSH1 0x3 DUP6 SWAP1 SHL SHR NOT AND PUSH1 0x1 DUP5 SWAP1 SHL OR DUP5 SSTORE PUSH2 0x30E JUMP JUMPDEST PUSH0 DUP5 DUP2 MSTORE PUSH1 0x20 DUP2 KECCAK256 PUSH1 0x1F NOT DUP6 AND SWAP2 JUMPDEST DUP3 DUP2 LT ISZERO PUSH2 0x3A4 JUMPI DUP8 DUP6 ADD MLOAD DUP3 SSTORE PUSH1 0x20 SWAP5 DUP6 ADD SWAP5 PUSH1 0x1 SWAP1 SWAP3 ADD SWAP2 ADD PUSH2 0x384 JUMP JUMPDEST POP DUP5 DUP3 LT ISZERO PUSH2 0x3C1 JUMPI DUP7 DUP5 ADD MLOAD PUSH0 NOT PUSH1 0x3 DUP8 SWAP1 SHL PUSH1 0xF8 AND SHR NOT AND DUP2 SSTORE JUMPDEST POP POP POP POP PUSH1 0x1 SWAP1 DUP2 SHL ADD SWAP1 SSTORE POP JUMP JUMPDEST PUSH4 0x4E487B71 PUSH1 0xE0 SHL PUSH0 MSTORE PUSH1 0x21 PUSH1 0x4 MSTORE PUSH1 0x24 PUSH0 REVERT JUMPDEST PUSH2 0xB62 DUP1 PUSH2 0x3F1 PUSH0 CODECOPY PUSH0 RETURN INVALID PUSH1 0x80 PUSH1 0x40 MSTORE CALLVALUE DUP1 ISZERO PUSH2 0xF JUMPI PUSH0 DUP1 REVERT JUMPDEST POP PUSH1 0x4 CALLDATASIZE LT PUSH2 0x90 JUMPI PUSH0 CALLDATALOAD PUSH1 0xE0 SHR DUP1 PUSH4 0x2B5914FE GT PUSH2 0x63 JUMPI DUP1 PUSH4 0x2B5914FE EQ PUSH2 0xED JUMPI DUP1 PUSH4 0x80F76021 EQ PUSH2 0x100 JUMPI DUP1 PUSH4 0xAC0344E6 EQ PUSH2 0x120 JUMPI DUP1 PUSH4 0xBA379E86 EQ PUSH2 0x133 JUMPI DUP1 PUSH4 0xC47F0027 EQ PUSH2 0x14B JUMPI PUSH0 DUP1 REVERT JUMPDEST DUP1 PUSH4 0x1499C592 EQ PUSH2 0x94 JUMPI DUP1 PUSH4 0x252498A2 EQ PUSH2 0xA9 JUMPI DUP1 PUSH4 0x2858D3C8 EQ PUSH2 0xBC JUMPI DUP1 PUSH4 0x290BB453 EQ PUSH2 0xDA JUMPI JUMPDEST PUSH0 DUP1 REVERT JUMPDEST PUSH2 0xA7 PUSH2 0xA2 CALLDATASIZE PUSH1 0x4 PUSH2 0x75F JUMP JUMPDEST PUSH2 0x15E JUMP JUMPDEST STOP JUMPDEST PUSH2 0xA7 PUSH2 0xB7 CALLDATASIZE PUSH1 0x4 PUSH2 0x82B JUMP JUMPDEST PUSH2 0x1FD JUMP JUMPDEST PUSH2 0xC4 PUSH2 0x27E JUMP JUMPDEST PUSH1 0x40 MLOAD PUSH2 0xD1 SWAP2 SWAP1 PUSH2 0x865 JUMP JUMPDEST PUSH1 0x40 MLOAD DUP1 SWAP2 SUB SWAP1 RETURN JUMPDEST PUSH2 0xA7 PUSH2 0xE8 CALLDATASIZE PUSH1 0x4 PUSH2 0x82B JUMP JUMPDEST PUSH2 0x2CE JUMP JUMPDEST PUSH2 0xA7 PUSH2 0xFB CALLDATASIZE PUSH1 0x4 PUSH2 0x82B JUMP JUMPDEST PUSH2 0x31E JUMP JUMPDEST PUSH2 0x108 PUSH2 0x36E JUMP JUMPDEST PUSH1 0x40 MLOAD PUSH1 0x1 PUSH1 0x1 PUSH1 0xA0 SHL SUB SWAP1 SWAP2 AND DUP2 MSTORE PUSH1 0x20 ADD PUSH2 0xD1 JUMP JUMPDEST PUSH2 0xA7 PUSH2 0x12E CALLDATASIZE PUSH1 0x4 PUSH2 0x88B JUMP JUMPDEST PUSH2 0x3C4 JUMP JUMPDEST PUSH2 0x13B PUSH2 0x474 JUMP JUMPDEST PUSH1 0x40 MLOAD PUSH2 0xD1 SWAP5 SWAP4 SWAP3 SWAP2 SWAP1 PUSH2 0x972 JUMP JUMPDEST PUSH2 0xA7 PUSH2 0x159 CALLDATASIZE PUSH1 0x4 PUSH2 0x82B JUMP JUMPDEST PUSH2 0x710 JUMP JUMPDEST PUSH1 0x1 SLOAD PUSH2 0x100 SWAP1 DIV PUSH1 0x1 PUSH1 0x1 PUSH1 0xA0 SHL SUB AND CALLER EQ DUP1 PUSH2 0x186 JUMPI POP PUSH1 0x2 SLOAD PUSH1 0x1 PUSH1 0x1 PUSH1 0xA0 SHL SUB AND CALLER EQ JUMPDEST PUSH2 0x1AB JUMPI PUSH1 0x40 MLOAD PUSH3 0x461BCD PUSH1 0xE5 SHL DUP2 MSTORE PUSH1 0x4 ADD PUSH2 0x1A2 SWAP1 PUSH2 0x9C9 JUMP JUMPDEST PUSH1 0x40 MLOAD DUP1 SWAP2 SUB SWAP1 REVERT JUMPDEST PUSH1 0x2 DUP1 SLOAD PUSH1 0x1 PUSH1 0x1 PUSH1 0xA0 SHL SUB NOT AND PUSH1 0x1 PUSH1 0x1 PUSH1 0xA0 SHL SUB DUP4 AND OR SWAP1 SSTORE PUSH1 0x40 MLOAD CALLER DUP2 MSTORE PUSH32 0xE00DA2178806F37F69815E9ED5ED3072EC1D55206D60916D99B469C7DAA421E4 SWAP1 PUSH1 0x20 ADD JUMPDEST PUSH1 0x40 MLOAD DUP1 SWAP2 SUB SWAP1 LOG1 POP JUMP JUMPDEST PUSH1 0x1 SLOAD PUSH2 0x100 SWAP1 DIV PUSH1 0x1 PUSH1 0x1 PUSH1 0xA0 SHL SUB AND CALLER EQ DUP1 PUSH2 0x225 JUMPI POP PUSH1 0x2 SLOAD PUSH1 0x1 PUSH1 0x1 PUSH1 0xA0 SHL SUB AND CALLER EQ JUMPDEST PUSH2 0x241 JUMPI PUSH1 0x40 MLOAD PUSH3 0x461BCD PUSH1 0xE5 SHL DUP2 MSTORE PUSH1 0x4 ADD PUSH2 0x1A2 SWAP1 PUSH2 0x9C9 JUMP JUMPDEST PUSH1 0x3 PUSH2 0x24D DUP3 DUP3 PUSH2 0xA71 JUMP JUMPDEST POP PUSH1 0x40 MLOAD CALLER DUP2 MSTORE PUSH32 0xE00DA2178806F37F69815E9ED5ED3072EC1D55206D60916D99B469C7DAA421E4 SWAP1 PUSH1 0x20 ADD PUSH2 0x1F2 JUMP JUMPDEST PUSH1 0x1 SLOAD PUSH0 SWAP1 PUSH2 0x100 SWAP1 DIV PUSH1 0x1 PUSH1 0x1 PUSH1 0xA0 SHL SUB AND CALLER EQ DUP1 PUSH2 0x2A8 JUMPI POP PUSH1 0x2 SLOAD PUSH1 0x1 PUSH1 0x1 PUSH1 0xA0 SHL SUB AND CALLER EQ JUMPDEST PUSH2 0x2C4 JUMPI PUSH1 0x40 MLOAD PUSH3 0x461BCD PUSH1 0xE5 SHL DUP2 MSTORE PUSH1 0x4 ADD PUSH2 0x1A2 SWAP1 PUSH2 0x9C9 JUMP JUMPDEST POP PUSH1 0x1 SLOAD PUSH1 0xFF AND SWAP1 JUMP JUMPDEST PUSH1 0x1 SLOAD PUSH2 0x100 SWAP1 DIV PUSH1 0x1 PUSH1 0x1 PUSH1 0xA0 SHL SUB AND CALLER EQ DUP1 PUSH2 0x2F6 JUMPI POP PUSH1 0x2 SLOAD PUSH1 0x1 PUSH1 0x1 PUSH1 0xA0 SHL SUB AND CALLER EQ JUMPDEST PUSH2 0x312 JUMPI PUSH1 0x40 MLOAD PUSH3 0x461BCD PUSH1 0xE5 SHL DUP2 MSTORE PUSH1 0x4 ADD PUSH2 0x1A2 SWAP1 PUSH2 0x9C9 JUMP JUMPDEST PUSH1 0x5 PUSH2 0x24D DUP3 DUP3 PUSH2 0xA71 JUMP JUMPDEST PUSH1 0x1 SLOAD PUSH2 0x100 SWAP1 DIV PUSH1 0x1 PUSH1 0x1 PUSH1 0xA0 SHL SUB AND CALLER EQ DUP1 PUSH2 0x346 JUMPI POP PUSH1 0x2 SLOAD PUSH1 0x1 PUSH1 0x1 PUSH1 0xA0 SHL SUB AND CALLER EQ JUMPDEST PUSH2 0x362 JUMPI PUSH1 0x40 MLOAD PUSH3 0x461BCD PUSH1 0xE5 SHL DUP2 MSTORE PUSH1 0x4 ADD PUSH2 0x1A2 SWAP1 PUSH2 0x9C9 JUMP JUMPDEST PUSH1 0x4 PUSH2 0x24D DUP3 DUP3 PUSH2 0xA71 JUMP JUMPDEST PUSH1 0x1 SLOAD PUSH0 SWAP1 PUSH2 0x100 SWAP1 DIV PUSH1 0x1 PUSH1 0x1 PUSH1 0xA0 SHL SUB AND CALLER EQ DUP1 PUSH2 0x398 JUMPI POP PUSH1 0x2 SLOAD PUSH1 0x1 PUSH1 0x1 PUSH1 0xA0 SHL SUB AND CALLER EQ JUMPDEST PUSH2 0x3B4 JUMPI PUSH1 0x40 MLOAD PUSH3 0x461BCD PUSH1 0xE5 SHL DUP2 MSTORE PUSH1 0x4 ADD PUSH2 0x1A2 SWAP1 PUSH2 0x9C9 JUMP JUMPDEST POP PUSH1 0x2 SLOAD PUSH1 0x1 PUSH1 0x1 PUSH1 0xA0 SHL SUB AND SWAP1 JUMP JUMPDEST PUSH1 0x1 SLOAD PUSH2 0x100 SWAP1 DIV PUSH1 0x1 PUSH1 0x1 PUSH1 0xA0 SHL SUB AND CALLER EQ DUP1 PUSH2 0x3EC JUMPI POP PUSH1 0x2 SLOAD PUSH1 0x1 PUSH1 0x1 PUSH1 0xA0 SHL SUB AND CALLER EQ JUMPDEST PUSH2 0x408 JUMPI PUSH1 0x40 MLOAD PUSH3 0x461BCD PUSH1 0xE5 SHL DUP2 MSTORE PUSH1 0x4 ADD PUSH2 0x1A2 SWAP1 PUSH2 0x9C9 JUMP JUMPDEST PUSH0 PUSH2 0x413 DUP6 DUP3 PUSH2 0xA71 JUMP JUMPDEST POP PUSH1 0x3 PUSH2 0x420 DUP5 DUP3 PUSH2 0xA71 JUMP JUMPDEST POP PUSH1 0x4 PUSH2 0x42D DUP4 DUP3 PUSH2 0xA71 JUMP JUMPDEST POP PUSH1 0x5 PUSH2 0x43A DUP3 DUP3 PUSH2 0xA71 JUMP JUMPDEST POP PUSH1 0x40 MLOAD CALLER DUP2 MSTORE PUSH32 0xE00DA2178806F37F69815E9ED5ED3072EC1D55206D60916D99B469C7DAA421E4 SWAP1 PUSH1 0x20 ADD PUSH1 0x40 MLOAD DUP1 SWAP2 SUB SWAP1 LOG1 POP POP POP POP JUMP JUMPDEST PUSH1 0x60 DUP1 PUSH1 0x60 DUP1 PUSH1 0x1 DUP1 SLOAD SWAP1 PUSH2 0x100 EXP SWAP1 DIV PUSH1 0x1 PUSH1 0x1 PUSH1 0xA0 SHL SUB AND PUSH1 0x1 PUSH1 0x1 PUSH1 0xA0 SHL SUB AND CALLER PUSH1 0x1 PUSH1 0x1 PUSH1 0xA0 SHL SUB AND EQ DUP1 PUSH2 0x4B7 JUMPI POP PUSH1 0x2 SLOAD PUSH1 0x1 PUSH1 0x1 PUSH1 0xA0 SHL SUB AND CALLER EQ JUMPDEST PUSH2 0x4D3 JUMPI PUSH1 0x40 MLOAD PUSH3 0x461BCD PUSH1 0xE5 SHL DUP2 MSTORE PUSH1 0x4 ADD PUSH2 0x1A2 SWAP1 PUSH2 0x9C9 JUMP JUMPDEST PUSH0 PUSH1 0x3 PUSH1 0x4 PUSH1 0x5 DUP4 DUP1 SLOAD PUSH2 0x4E6 SWAP1 PUSH2 0x9ED JUMP JUMPDEST DUP1 PUSH1 0x1F ADD PUSH1 0x20 DUP1 SWAP2 DIV MUL PUSH1 0x20 ADD PUSH1 0x40 MLOAD SWAP1 DUP2 ADD PUSH1 0x40 MSTORE DUP1 SWAP3 SWAP2 SWAP1 DUP2 DUP2 MSTORE PUSH1 0x20 ADD DUP3 DUP1 SLOAD PUSH2 0x512 SWAP1 PUSH2 0x9ED JUMP JUMPDEST DUP1 ISZERO PUSH2 0x55D JUMPI DUP1 PUSH1 0x1F LT PUSH2 0x534 JUMPI PUSH2 0x100 DUP1 DUP4 SLOAD DIV MUL DUP4 MSTORE SWAP2 PUSH1 0x20 ADD SWAP2 PUSH2 0x55D JUMP JUMPDEST DUP3 ADD SWAP2 SWAP1 PUSH0 MSTORE PUSH1 0x20 PUSH0 KECCAK256 SWAP1 JUMPDEST DUP2 SLOAD DUP2 MSTORE SWAP1 PUSH1 0x1 ADD SWAP1 PUSH1 0x20 ADD DUP1 DUP4 GT PUSH2 0x540 JUMPI DUP3 SWAP1 SUB PUSH1 0x1F AND DUP3 ADD SWAP2 JUMPDEST POP POP POP POP POP SWAP4 POP DUP3 DUP1 SLOAD PUSH2 0x570 SWAP1 PUSH2 0x9ED JUMP JUMPDEST DUP1 PUSH1 0x1F ADD PUSH1 0x20 DUP1 SWAP2 DIV MUL PUSH1 0x20 ADD PUSH1 0x40 MLOAD SWAP1 DUP2 ADD PUSH1 0x40 MSTORE DUP1 SWAP3 SWAP2 SWAP1 DUP2 DUP2 MSTORE PUSH1 0x20 ADD DUP3 DUP1 SLOAD PUSH2 0x59C SWAP1 PUSH2 0x9ED JUMP JUMPDEST DUP1 ISZERO PUSH2 0x5E7 JUMPI DUP1 PUSH1 0x1F LT PUSH2 0x5BE JUMPI PUSH2 0x100 DUP1 DUP4 SLOAD DIV MUL DUP4 MSTORE SWAP2 PUSH1 0x20 ADD SWAP2 PUSH2 0x5E7 JUMP JUMPDEST DUP3 ADD SWAP2 SWAP1 PUSH0 MSTORE PUSH1 0x20 PUSH0 KECCAK256 SWAP1 JUMPDEST DUP2 SLOAD DUP2 MSTORE SWAP1 PUSH1 0x1 ADD SWAP1 PUSH1 0x20 ADD DUP1 DUP4 GT PUSH2 0x5CA JUMPI DUP3 SWAP1 SUB PUSH1 0x1F AND DUP3 ADD SWAP2 JUMPDEST POP POP POP POP POP SWAP3 POP DUP2 DUP1 SLOAD PUSH2 0x5FA SWAP1 PUSH2 0x9ED JUMP JUMPDEST DUP1 PUSH1 0x1F ADD PUSH1 0x20 DUP1 SWAP2 DIV MUL PUSH1 0x20 ADD PUSH1 0x40 MLOAD SWAP1 DUP2 ADD PUSH1 0x40 MSTORE DUP1 SWAP3 SWAP2 SWAP1 DUP2 DUP2 MSTORE PUSH1 0x20 ADD DUP3 DUP1 SLOAD PUSH2 0x626 SWAP1 PUSH2 0x9ED JUMP JUMPDEST DUP1 ISZERO PUSH2 0x671 JUMPI DUP1 PUSH1 0x1F LT PUSH2 0x648 JUMPI PUSH2 0x100 DUP1 DUP4 SLOAD DIV MUL DUP4 MSTORE SWAP2 PUSH1 0x20 ADD SWAP2 PUSH2 0x671 JUMP JUMPDEST DUP3 ADD SWAP2 SWAP1 PUSH0 MSTORE PUSH1 0x20 PUSH0 KECCAK256 SWAP1 JUMPDEST DUP2 SLOAD DUP2 MSTORE SWAP1 PUSH1 0x1 ADD SWAP1 PUSH1 0x20 ADD DUP1 DUP4 GT PUSH2 0x654 JUMPI DUP3 SWAP1 SUB PUSH1 0x1F AND DUP3 ADD SWAP2 JUMPDEST POP POP POP POP POP SWAP2 POP DUP1 DUP1 SLOAD PUSH2 0x684 SWAP1 PUSH2 0x9ED JUMP JUMPDEST DUP1 PUSH1 0x1F ADD PUSH1 0x20 DUP1 SWAP2 DIV MUL PUSH1 0x20 ADD PUSH1 0x40 MLOAD SWAP1 DUP2 ADD PUSH1 0x40 MSTORE DUP1 SWAP3 SWAP2 SWAP1 DUP2 DUP2 MSTORE PUSH1 0x20 ADD DUP3 DUP1 SLOAD PUSH2 0x6B0 SWAP1 PUSH2 0x9ED JUMP JUMPDEST DUP1 ISZERO PUSH2 0x6FB JUMPI DUP1 PUSH1 0x1F LT PUSH2 0x6D2 JUMPI PUSH2 0x100 DUP1 DUP4 SLOAD DIV MUL DUP4 MSTORE SWAP2 PUSH1 0x20 ADD SWAP2 PUSH2 0x6FB JUMP JUMPDEST DUP3 ADD SWAP2 SWAP1 PUSH0 MSTORE PUSH1 0x20 PUSH0 KECCAK256 SWAP1 JUMPDEST DUP2 SLOAD DUP2 MSTORE SWAP1 PUSH1 0x1 ADD SWAP1 PUSH1 0x20 ADD DUP1 DUP4 GT PUSH2 0x6DE JUMPI DUP3 SWAP1 SUB PUSH1 0x1F AND DUP3 ADD SWAP2 JUMPDEST POP POP POP POP POP SWAP1 POP SWAP4 POP SWAP4 POP SWAP4 POP SWAP4 POP SWAP1 SWAP2 SWAP3 SWAP4 JUMP JUMPDEST PUSH1 0x1 SLOAD PUSH2 0x100 SWAP1 DIV PUSH1 0x1 PUSH1 0x1 PUSH1 0xA0 SHL SUB AND CALLER EQ DUP1 PUSH2 0x738 JUMPI POP PUSH1 0x2 SLOAD PUSH1 0x1 PUSH1 0x1 PUSH1 0xA0 SHL SUB AND CALLER EQ JUMPDEST PUSH2 0x754 JUMPI PUSH1 0x40 MLOAD PUSH3 0x461BCD PUSH1 0xE5 SHL DUP2 MSTORE PUSH1 0x4 ADD PUSH2 0x1A2 SWAP1 PUSH2 0x9C9 JUMP JUMPDEST PUSH0 PUSH2 0x24D DUP3 DUP3 PUSH2 0xA71 JUMP JUMPDEST PUSH0 PUSH1 0x20 DUP3 DUP5 SUB SLT ISZERO PUSH2 0x76F JUMPI PUSH0 DUP1 REVERT JUMPDEST DUP2 CALLDATALOAD PUSH1 0x1 PUSH1 0x1 PUSH1 0xA0 SHL SUB DUP2 AND DUP2 EQ PUSH2 0x785 JUMPI PUSH0 DUP1 REVERT JUMPDEST SWAP4 SWAP3 POP POP POP JUMP JUMPDEST PUSH4 0x4E487B71 PUSH1 0xE0 SHL PUSH0 MSTORE PUSH1 0x41 PUSH1 0x4 MSTORE PUSH1 0x24 PUSH0 REVERT JUMPDEST PUSH0 DUP3 PUSH1 0x1F DUP4 ADD SLT PUSH2 0x7AF JUMPI PUSH0 DUP1 REVERT JUMPDEST DUP2 CALLDATALOAD PUSH8 0xFFFFFFFFFFFFFFFF DUP2 GT ISZERO PUSH2 0x7C9 JUMPI PUSH2 0x7C9 PUSH2 0x78C JUMP JUMPDEST PUSH1 0x40 MLOAD PUSH1 0x1F DUP3 ADD PUSH1 0x1F NOT SWAP1 DUP2 AND PUSH1 0x3F ADD AND DUP2 ADD PUSH8 0xFFFFFFFFFFFFFFFF DUP2 GT DUP3 DUP3 LT OR ISZERO PUSH2 0x7F8 JUMPI PUSH2 0x7F8 PUSH2 0x78C JUMP JUMPDEST PUSH1 0x40 MSTORE DUP2 DUP2 MSTORE DUP4 DUP3 ADD PUSH1 0x20 ADD DUP6 LT ISZERO PUSH2 0x80F JUMPI PUSH0 DUP1 REVERT JUMPDEST DUP2 PUSH1 0x20 DUP6 ADD PUSH1 0x20 DUP4 ADD CALLDATACOPY PUSH0 SWAP2 DUP2 ADD PUSH1 0x20 ADD SWAP2 SWAP1 SWAP2 MSTORE SWAP4 SWAP3 POP POP POP JUMP JUMPDEST PUSH0 PUSH1 0x20 DUP3 DUP5 SUB SLT ISZERO PUSH2 0x83B JUMPI PUSH0 DUP1 REVERT JUMPDEST DUP2 CALLDATALOAD PUSH8 0xFFFFFFFFFFFFFFFF DUP2 GT ISZERO PUSH2 0x851 JUMPI PUSH0 DUP1 REVERT JUMPDEST PUSH2 0x85D DUP5 DUP3 DUP6 ADD PUSH2 0x7A0 JUMP JUMPDEST SWAP5 SWAP4 POP POP POP POP JUMP JUMPDEST PUSH1 0x20 DUP2 ADD PUSH1 0x3 DUP4 LT PUSH2 0x885 JUMPI PUSH4 0x4E487B71 PUSH1 0xE0 SHL PUSH0 MSTORE PUSH1 0x21 PUSH1 0x4 MSTORE PUSH1 0x24 PUSH0 REVERT JUMPDEST SWAP2 SWAP1 MSTORE SWAP1 JUMP JUMPDEST PUSH0 DUP1 PUSH0 DUP1 PUSH1 0x80 DUP6 DUP8 SUB SLT ISZERO PUSH2 0x89E JUMPI PUSH0 DUP1 REVERT JUMPDEST DUP5 CALLDATALOAD PUSH8 0xFFFFFFFFFFFFFFFF DUP2 GT ISZERO PUSH2 0x8B4 JUMPI PUSH0 DUP1 REVERT JUMPDEST PUSH2 0x8C0 DUP8 DUP3 DUP9 ADD PUSH2 0x7A0 JUMP JUMPDEST SWAP5 POP POP PUSH1 0x20 DUP6 ADD CALLDATALOAD PUSH8 0xFFFFFFFFFFFFFFFF DUP2 GT ISZERO PUSH2 0x8DC JUMPI PUSH0 DUP1 REVERT JUMPDEST PUSH2 0x8E8 DUP8 DUP3 DUP9 ADD PUSH2 0x7A0 JUMP JUMPDEST SWAP4 POP POP PUSH1 0x40 DUP6 ADD CALLDATALOAD PUSH8 0xFFFFFFFFFFFFFFFF DUP2 GT ISZERO PUSH2 0x904 JUMPI PUSH0 DUP1 REVERT JUMPDEST PUSH2 0x910 DUP8 DUP3 DUP9 ADD PUSH2 0x7A0 JUMP JUMPDEST SWAP3 POP POP PUSH1 0x60 DUP6 ADD CALLDATALOAD PUSH8 0xFFFFFFFFFFFFFFFF DUP2 GT ISZERO PUSH2 0x92C JUMPI PUSH0 DUP1 REVERT JUMPDEST PUSH2 0x938 DUP8 DUP3 DUP9 ADD PUSH2 0x7A0 JUMP JUMPDEST SWAP2 POP POP SWAP3 SWAP6 SWAP2 SWAP5 POP SWAP3 POP JUMP JUMPDEST PUSH0 DUP2 MLOAD DUP1 DUP5 MSTORE DUP1 PUSH1 0x20 DUP5 ADD PUSH1 0x20 DUP7 ADD MCOPY PUSH0 PUSH1 0x20 DUP3 DUP7 ADD ADD MSTORE PUSH1 0x20 PUSH1 0x1F NOT PUSH1 0x1F DUP4 ADD AND DUP6 ADD ADD SWAP2 POP POP SWAP3 SWAP2 POP POP JUMP JUMPDEST PUSH1 0x80 DUP2 MSTORE PUSH0 PUSH2 0x984 PUSH1 0x80 DUP4 ADD DUP8 PUSH2 0x944 JUMP JUMPDEST DUP3 DUP2 SUB PUSH1 0x20 DUP5 ADD MSTORE PUSH2 0x996 DUP2 DUP8 PUSH2 0x944 JUMP JUMPDEST SWAP1 POP DUP3 DUP2 SUB PUSH1 0x40 DUP5 ADD MSTORE PUSH2 0x9AA DUP2 DUP7 PUSH2 0x944 JUMP JUMPDEST SWAP1 POP DUP3 DUP2 SUB PUSH1 0x60 DUP5 ADD MSTORE PUSH2 0x9BE DUP2 DUP6 PUSH2 0x944 JUMP JUMPDEST SWAP8 SWAP7 POP POP POP POP POP POP POP JUMP JUMPDEST PUSH1 0x20 DUP1 DUP3 MSTORE PUSH1 0xA SWAP1 DUP3 ADD MSTORE PUSH10 0x27B7363C9037BBB732B9 PUSH1 0xB1 SHL PUSH1 0x40 DUP3 ADD MSTORE PUSH1 0x60 ADD SWAP1 JUMP JUMPDEST PUSH1 0x1 DUP2 DUP2 SHR SWAP1 DUP3 AND DUP1 PUSH2 0xA01 JUMPI PUSH1 0x7F DUP3 AND SWAP2 POP JUMPDEST PUSH1 0x20 DUP3 LT DUP2 SUB PUSH2 0xA1F JUMPI PUSH4 0x4E487B71 PUSH1 0xE0 SHL PUSH0 MSTORE PUSH1 0x22 PUSH1 0x4 MSTORE PUSH1 0x24 PUSH0 REVERT JUMPDEST POP SWAP2 SWAP1 POP JUMP JUMPDEST PUSH1 0x1F DUP3 GT ISZERO PUSH2 0xA6C JUMPI DUP1 PUSH0 MSTORE PUSH1 0x20 PUSH0 KECCAK256 PUSH1 0x1F DUP5 ADD PUSH1 0x5 SHR DUP2 ADD PUSH1 0x20 DUP6 LT ISZERO PUSH2 0xA4A JUMPI POP DUP1 JUMPDEST PUSH1 0x1F DUP5 ADD PUSH1 0x5 SHR DUP3 ADD SWAP2 POP JUMPDEST DUP2 DUP2 LT ISZERO PUSH2 0xA69 JUMPI PUSH0 DUP2 SSTORE PUSH1 0x1 ADD PUSH2 0xA56 JUMP JUMPDEST POP POP JUMPDEST POP POP POP JUMP JUMPDEST DUP2 MLOAD PUSH8 0xFFFFFFFFFFFFFFFF DUP2 GT ISZERO PUSH2 0xA8B JUMPI PUSH2 0xA8B PUSH2 0x78C JUMP JUMPDEST PUSH2 0xA9F DUP2 PUSH2 0xA99 DUP5 SLOAD PUSH2 0x9ED JUMP JUMPDEST DUP5 PUSH2 0xA25 JUMP JUMPDEST PUSH1 0x20 PUSH1 0x1F DUP3 GT PUSH1 0x1 DUP2 EQ PUSH2 0xAD1 JUMPI PUSH0 DUP4 ISZERO PUSH2 0xABA JUMPI POP DUP5 DUP3 ADD MLOAD JUMPDEST PUSH0 NOT PUSH1 0x3 DUP6 SWAP1 SHL SHR NOT AND PUSH1 0x1 DUP5 SWAP1 SHL OR DUP5 SSTORE PUSH2 0xA69 JUMP JUMPDEST PUSH0 DUP5 DUP2 MSTORE PUSH1 0x20 DUP2 KECCAK256 PUSH1 0x1F NOT DUP6 AND SWAP2 JUMPDEST DUP3 DUP2 LT ISZERO PUSH2 0xB00 JUMPI DUP8 DUP6 ADD MLOAD DUP3 SSTORE PUSH1 0x20 SWAP5 DUP6 ADD SWAP5 PUSH1 0x1 SWAP1 SWAP3 ADD SWAP2 ADD PUSH2 0xAE0 JUMP JUMPDEST POP DUP5 DUP3 LT ISZERO PUSH2 0xB1D JUMPI DUP7 DUP5 ADD MLOAD PUSH0 NOT PUSH1 0x3 DUP8 SWAP1 SHL PUSH1 0xF8 AND SHR NOT AND DUP2 SSTORE JUMPDEST POP POP POP POP PUSH1 0x1 SWAP1 DUP2 SHL ADD SWAP1 SSTORE POP JUMP INVALID LOG2 PUSH5 0x6970667358 0x22 SLT KECCAK256 DUP10 0xB0 0xD5 PUSH12 0xE9F9726DE8B9A64ECBD3E616 0xB7 0xD3 SWAP7 CREATE2 0x2C PUSH30 0x588F80BC27A659E8729D64736F6C634300081A0033608060405234801561 STOP 0xF JUMPI PUSH0 DUP1 REVERT JUMPDEST POP PUSH1 0x40 MLOAD PUSH2 0x1CC8 CODESIZE SUB DUP1 PUSH2 0x1CC8 DUP4 CODECOPY DUP2 ADD PUSH1 0x40 DUP2 SWAP1 MSTORE PUSH2 0x2E SWAP2 PUSH2 0x16A JUMP JUMPDEST PUSH0 PUSH2 0x39 DUP5 DUP3 PUSH2 0x2BE JUMP JUMPDEST POP PUSH1 0x3 DUP1 SLOAD PUSH1 0x1 PUSH1 0x1 PUSH1 0xA0 SHL SUB DUP1 DUP6 AND PUSH1 0x1 PUSH1 0x1 PUSH1 0xA0 SHL SUB NOT SWAP3 DUP4 AND DUP2 OR SWAP1 SWAP4 SSTORE PUSH1 0x4 DUP1 SLOAD SWAP2 DUP6 AND SWAP2 SWAP1 SWAP3 AND OR SWAP1 SSTORE PUSH1 0x40 DUP1 MLOAD PUSH1 0x80 DUP2 ADD DUP3 MSTORE PUSH1 0x1 SWAP2 DUP2 ADD DUP3 DUP2 MSTORE PUSH1 0x15 PUSH1 0xF9 SHL PUSH1 0x60 DUP4 ADD MSTORE DUP2 MSTORE PUSH1 0x20 DUP2 ADD SWAP3 SWAP1 SWAP3 MSTORE DUP1 SLOAD DUP1 DUP3 ADD DUP3 SSTORE PUSH0 SWAP2 SWAP1 SWAP2 MSTORE DUP2 MLOAD PUSH1 0x2 SWAP1 SWAP2 MUL PUSH32 0xB10E2D527612073B26EECDFD717E6A320CF44B4AFAC2B0732D9FCBE2B7FA0CF6 ADD SWAP1 DUP2 SWAP1 PUSH2 0xD0 SWAP1 DUP3 PUSH2 0x2BE JUMP JUMPDEST POP PUSH1 0x20 SWAP2 DUP3 ADD MLOAD PUSH1 0x1 SWAP1 SWAP2 ADD DUP1 SLOAD PUSH1 0x1 PUSH1 0x1 PUSH1 0xA0 SHL SUB NOT AND PUSH1 0x1 PUSH1 0x1 PUSH1 0xA0 SHL SUB SWAP1 SWAP3 AND SWAP2 SWAP1 SWAP2 OR SWAP1 SSTORE PUSH1 0x40 DUP1 MLOAD CALLER DUP2 MSTORE ADDRESS SWAP3 DUP2 ADD SWAP3 SWAP1 SWAP3 MSTORE PUSH32 0x587ECE4CD19692C5BE1A4184503D607D45542D2ACA0698C0068F52E09CCB541C SWAP2 ADD PUSH1 0x40 MLOAD DUP1 SWAP2 SUB SWAP1 LOG1 POP POP POP PUSH2 0x378 JUMP JUMPDEST PUSH4 0x4E487B71 PUSH1 0xE0 SHL PUSH0 MSTORE PUSH1 0x41 PUSH1 0x4 MSTORE PUSH1 0x24 PUSH0 REVERT JUMPDEST DUP1 MLOAD PUSH1 0x1 PUSH1 0x1 PUSH1 0xA0 SHL SUB DUP2 AND DUP2 EQ PUSH2 0x165 JUMPI PUSH0 DUP1 REVERT JUMPDEST SWAP2 SWAP1 POP JUMP JUMPDEST PUSH0 DUP1 PUSH0 PUSH1 0x60 DUP5 DUP7 SUB SLT ISZERO PUSH2 0x17C JUMPI PUSH0 DUP1 REVERT JUMPDEST DUP4 MLOAD PUSH1 0x1 PUSH1 0x1 PUSH1 0x40 SHL SUB DUP2 GT ISZERO PUSH2 0x191 JUMPI PUSH0 DUP1 REVERT JUMPDEST DUP5 ADD PUSH1 0x1F DUP2 ADD DUP7 SGT PUSH2 0x1A1 JUMPI PUSH0 DUP1 REVERT JUMPDEST DUP1 MLOAD PUSH1 0x1 PUSH1 0x1 PUSH1 0x40 SHL SUB DUP2 GT ISZERO PUSH2 0x1BA JUMPI PUSH2 0x1BA PUSH2 0x13B JUMP JUMPDEST PUSH1 0x40 MLOAD PUSH1 0x1F DUP3 ADD PUSH1 0x1F NOT SWAP1 DUP2 AND PUSH1 0x3F ADD AND DUP2 ADD PUSH1 0x1 PUSH1 0x1 PUSH1 0x40 SHL SUB DUP2 GT DUP3 DUP3 LT OR ISZERO PUSH2 0x1E8 JUMPI PUSH2 0x1E8 PUSH2 0x13B JUMP JUMPDEST PUSH1 0x40 MSTORE DUP2 DUP2 MSTORE DUP3 DUP3 ADD PUSH1 0x20 ADD DUP9 LT ISZERO PUSH2 0x1FF JUMPI PUSH0 DUP1 REVERT JUMPDEST DUP2 PUSH1 0x20 DUP5 ADD PUSH1 0x20 DUP4 ADD MCOPY PUSH0 PUSH1 0x20 DUP4 DUP4 ADD ADD MSTORE DUP1 SWAP6 POP POP POP POP PUSH2 0x223 PUSH1 0x20 DUP6 ADD PUSH2 0x14F JUMP JUMPDEST SWAP2 POP PUSH2 0x231 PUSH1 0x40 DUP6 ADD PUSH2 0x14F JUMP JUMPDEST SWAP1 POP SWAP3 POP SWAP3 POP SWAP3 JUMP JUMPDEST PUSH1 0x1 DUP2 DUP2 SHR SWAP1 DUP3 AND DUP1 PUSH2 0x24E JUMPI PUSH1 0x7F DUP3 AND SWAP2 POP JUMPDEST PUSH1 0x20 DUP3 LT DUP2 SUB PUSH2 0x26C JUMPI PUSH4 0x4E487B71 PUSH1 0xE0 SHL PUSH0 MSTORE PUSH1 0x22 PUSH1 0x4 MSTORE PUSH1 0x24 PUSH0 REVERT JUMPDEST POP SWAP2 SWAP1 POP JUMP JUMPDEST PUSH1 0x1F DUP3 GT ISZERO PUSH2 0x2B9 JUMPI DUP1 PUSH0 MSTORE PUSH1 0x20 PUSH0 KECCAK256 PUSH1 0x1F DUP5 ADD PUSH1 0x5 SHR DUP2 ADD PUSH1 0x20 DUP6 LT ISZERO PUSH2 0x297 JUMPI POP DUP1 JUMPDEST PUSH1 0x1F DUP5 ADD PUSH1 0x5 SHR DUP3 ADD SWAP2 POP JUMPDEST DUP2 DUP2 LT ISZERO PUSH2 0x2B6 JUMPI PUSH0 DUP2 SSTORE PUSH1 0x1 ADD PUSH2 0x2A3 JUMP JUMPDEST POP POP JUMPDEST POP POP POP JUMP JUMPDEST DUP2 MLOAD PUSH1 0x1 PUSH1 0x1 PUSH1 0x40 SHL SUB DUP2 GT ISZERO PUSH2 0x2D7 JUMPI PUSH2 0x2D7 PUSH2 0x13B JUMP JUMPDEST PUSH2 0x2EB DUP2 PUSH2 0x2E5 DUP5 SLOAD PUSH2 0x23A JUMP JUMPDEST DUP5 PUSH2 0x272 JUMP JUMPDEST PUSH1 0x20 PUSH1 0x1F DUP3 GT PUSH1 0x1 DUP2 EQ PUSH2 0x31D JUMPI PUSH0 DUP4 ISZERO PUSH2 0x306 JUMPI POP DUP5 DUP3 ADD MLOAD JUMPDEST PUSH0 NOT PUSH1 0x3 DUP6 SWAP1 SHL SHR NOT AND PUSH1 0x1 DUP5 SWAP1 SHL OR DUP5 SSTORE PUSH2 0x2B6 JUMP JUMPDEST PUSH0 DUP5 DUP2 MSTORE PUSH1 0x20 DUP2 KECCAK256 PUSH1 0x1F NOT DUP6 AND SWAP2 JUMPDEST DUP3 DUP2 LT ISZERO PUSH2 0x34C JUMPI DUP8 DUP6 ADD MLOAD DUP3 SSTORE PUSH1 0x20 SWAP5 DUP6 ADD SWAP5 PUSH1 0x1 SWAP1 SWAP3 ADD SWAP2 ADD PUSH2 0x32C JUMP JUMPDEST POP DUP5 DUP3 LT ISZERO PUSH2 0x369 JUMPI DUP7 DUP5 ADD MLOAD PUSH0 NOT PUSH1 0x3 DUP8 SWAP1 SHL PUSH1 0xF8 AND SHR NOT AND DUP2 SSTORE JUMPDEST POP POP POP POP PUSH1 0x1 SWAP1 DUP2 SHL ADD SWAP1 SSTORE POP JUMP JUMPDEST PUSH2 0x1943 DUP1 PUSH2 0x385 PUSH0 CODECOPY PUSH0 RETURN INVALID PUSH1 0x80 PUSH1 0x40 MSTORE CALLVALUE DUP1 ISZERO PUSH2 0xF JUMPI PUSH0 DUP1 REVERT JUMPDEST POP PUSH1 0x4 CALLDATASIZE LT PUSH2 0x85 JUMPI PUSH0 CALLDATALOAD PUSH1 0xE0 SHR DUP1 PUSH4 0x45E39705 GT PUSH2 0x58 JUMPI DUP1 PUSH4 0x45E39705 EQ PUSH2 0xE2 JUMPI DUP1 PUSH4 0x9EAB5253 EQ PUSH2 0xF5 JUMPI DUP1 PUSH4 0xB9DAF3E2 EQ PUSH2 0x10A JUMPI DUP1 PUSH4 0xD7C4310F EQ PUSH2 0x122 JUMPI PUSH0 DUP1 REVERT JUMPDEST DUP1 PUSH4 0xB1CA49A EQ PUSH2 0x89 JUMPI DUP1 PUSH4 0x17D7DE7C EQ PUSH2 0x9E JUMPI DUP1 PUSH4 0x26E3BC4E EQ PUSH2 0xBC JUMPI DUP1 PUSH4 0x369080E7 EQ PUSH2 0xCF JUMPI JUMPDEST PUSH0 DUP1 REVERT JUMPDEST PUSH2 0x9C PUSH2 0x97 CALLDATASIZE PUSH1 0x4 PUSH2 0x142C JUMP JUMPDEST PUSH2 0x142 JUMP JUMPDEST STOP JUMPDEST PUSH2 0xA6 PUSH2 0x4AC JUMP JUMPDEST PUSH1 0x40 MLOAD PUSH2 0xB3 SWAP2 SWAP1 PUSH2 0x147A JUMP JUMPDEST PUSH1 0x40 MLOAD DUP1 SWAP2 SUB SWAP1 RETURN JUMPDEST PUSH2 0x9C PUSH2 0xCA CALLDATASIZE PUSH1 0x4 PUSH2 0x149A JUMP JUMPDEST PUSH2 0x651 JUMP JUMPDEST PUSH2 0x9C PUSH2 0xDD CALLDATASIZE PUSH1 0x4 PUSH2 0x149A JUMP JUMPDEST PUSH2 0xA7B JUMP JUMPDEST PUSH2 0x9C PUSH2 0xF0 CALLDATASIZE PUSH1 0x4 PUSH2 0x14DF JUMP JUMPDEST PUSH2 0xC7F JUMP JUMPDEST PUSH2 0xFD PUSH2 0xE9D JUMP JUMPDEST PUSH1 0x40 MLOAD PUSH2 0xB3 SWAP2 SWAP1 PUSH2 0x159A JUMP JUMPDEST PUSH2 0x112 PUSH2 0xFF8 JUMP JUMPDEST PUSH1 0x40 MLOAD SWAP1 ISZERO ISZERO DUP2 MSTORE PUSH1 0x20 ADD PUSH2 0xB3 JUMP JUMPDEST PUSH2 0x135 PUSH2 0x130 CALLDATASIZE PUSH1 0x4 PUSH2 0x161A JUMP JUMPDEST PUSH2 0x1121 JUMP JUMPDEST PUSH1 0x40 MLOAD PUSH2 0xB3 SWAP2 SWAP1 PUSH2 0x1633 JUMP JUMPDEST PUSH1 0x3 SLOAD DUP2 SWAP1 PUSH1 0x1 PUSH1 0x1 PUSH1 0xA0 SHL SUB AND CALLER EQ DUP1 PUSH2 0x26F JUMPI POP PUSH0 NOT PUSH2 0x25A CALLER PUSH1 0x1 DUP1 SLOAD DUP1 PUSH1 0x20 MUL PUSH1 0x20 ADD PUSH1 0x40 MLOAD SWAP1 DUP2 ADD PUSH1 0x40 MSTORE DUP1 SWAP3 SWAP2 SWAP1 DUP2 DUP2 MSTORE PUSH1 0x20 ADD PUSH0 SWAP1 JUMPDEST DUP3 DUP3 LT ISZERO PUSH2 0x251 JUMPI DUP4 DUP3 SWAP1 PUSH0 MSTORE PUSH1 0x20 PUSH0 KECCAK256 SWAP1 PUSH1 0x2 MUL ADD PUSH1 0x40 MLOAD DUP1 PUSH1 0x40 ADD PUSH1 0x40 MSTORE SWAP1 DUP2 PUSH0 DUP3 ADD DUP1 SLOAD PUSH2 0x1AF SWAP1 PUSH2 0x167E JUMP JUMPDEST DUP1 PUSH1 0x1F ADD PUSH1 0x20 DUP1 SWAP2 DIV MUL PUSH1 0x20 ADD PUSH1 0x40 MLOAD SWAP1 DUP2 ADD PUSH1 0x40 MSTORE DUP1 SWAP3 SWAP2 SWAP1 DUP2 DUP2 MSTORE PUSH1 0x20 ADD DUP3 DUP1 SLOAD PUSH2 0x1DB SWAP1 PUSH2 0x167E JUMP JUMPDEST DUP1 ISZERO PUSH2 0x226 JUMPI DUP1 PUSH1 0x1F LT PUSH2 0x1FD JUMPI PUSH2 0x100 DUP1 DUP4 SLOAD DIV MUL DUP4 MSTORE SWAP2 PUSH1 0x20 ADD SWAP2 PUSH2 0x226 JUMP JUMPDEST DUP3 ADD SWAP2 SWAP1 PUSH0 MSTORE PUSH1 0x20 PUSH0 KECCAK256 SWAP1 JUMPDEST DUP2 SLOAD DUP2 MSTORE SWAP1 PUSH1 0x1 ADD SWAP1 PUSH1 0x20 ADD DUP1 DUP4 GT PUSH2 0x209 JUMPI DUP3 SWAP1 SUB PUSH1 0x1F AND DUP3 ADD SWAP2 JUMPDEST POP POP POP SWAP2 DUP4 MSTORE POP POP PUSH1 0x1 SWAP2 DUP3 ADD SLOAD PUSH1 0x1 PUSH1 0x1 PUSH1 0xA0 SHL SUB AND PUSH1 0x20 SWAP2 DUP3 ADD MSTORE SWAP2 DUP4 MSTORE SWAP3 SWAP1 SWAP3 ADD SWAP2 ADD PUSH2 0x17F JUMP JUMPDEST POP POP POP POP PUSH2 0x1317 JUMP JUMPDEST SGT DUP1 ISZERO PUSH2 0x26F JUMPI POP CALLER PUSH1 0x1 PUSH1 0x1 PUSH1 0xA0 SHL SUB DUP3 AND EQ JUMPDEST PUSH2 0x2B2 JUMPI PUSH1 0x40 MLOAD PUSH3 0x461BCD PUSH1 0xE5 SHL DUP2 MSTORE PUSH1 0x20 PUSH1 0x4 DUP3 ADD MSTORE PUSH1 0xF PUSH1 0x24 DUP3 ADD MSTORE PUSH15 0x27B7363C9037BBB732B93E39B2B633 PUSH1 0x89 SHL PUSH1 0x44 DUP3 ADD MSTORE PUSH1 0x64 ADD JUMPDEST PUSH1 0x40 MLOAD DUP1 SWAP2 SUB SWAP1 REVERT JUMPDEST PUSH0 PUSH2 0x3AA DUP4 PUSH1 0x1 DUP1 SLOAD DUP1 PUSH1 0x20 MUL PUSH1 0x20 ADD PUSH1 0x40 MLOAD SWAP1 DUP2 ADD PUSH1 0x40 MSTORE DUP1 SWAP3 SWAP2 SWAP1 DUP2 DUP2 MSTORE PUSH1 0x20 ADD PUSH0 SWAP1 JUMPDEST DUP3 DUP3 LT ISZERO PUSH2 0x251 JUMPI DUP4 DUP3 SWAP1 PUSH0 MSTORE PUSH1 0x20 PUSH0 KECCAK256 SWAP1 PUSH1 0x2 MUL ADD PUSH1 0x40 MLOAD DUP1 PUSH1 0x40 ADD PUSH1 0x40 MSTORE SWAP1 DUP2 PUSH0 DUP3 ADD DUP1 SLOAD PUSH2 0x308 SWAP1 PUSH2 0x167E JUMP JUMPDEST DUP1 PUSH1 0x1F ADD PUSH1 0x20 DUP1 SWAP2 DIV MUL PUSH1 0x20 ADD PUSH1 0x40 MLOAD SWAP1 DUP2 ADD PUSH1 0x40 MSTORE DUP1 SWAP3 SWAP2 SWAP1 DUP2 DUP2 MSTORE PUSH1 0x20 ADD DUP3 DUP1 SLOAD PUSH2 0x334 SWAP1 PUSH2 0x167E JUMP JUMPDEST DUP1 ISZERO PUSH2 0x37F JUMPI DUP1 PUSH1 0x1F LT PUSH2 0x356 JUMPI PUSH2 0x100 DUP1 DUP4 SLOAD DIV MUL DUP4 MSTORE SWAP2 PUSH1 0x20 ADD SWAP2 PUSH2 0x37F JUMP JUMPDEST DUP3 ADD SWAP2 SWAP1 PUSH0 MSTORE PUSH1 0x20 PUSH0 KECCAK256 SWAP1 JUMPDEST DUP2 SLOAD DUP2 MSTORE SWAP1 PUSH1 0x1 ADD SWAP1 PUSH1 0x20 ADD DUP1 DUP4 GT PUSH2 0x362 JUMPI DUP3 SWAP1 SUB PUSH1 0x1F AND DUP3 ADD SWAP2 JUMPDEST POP POP POP SWAP2 DUP4 MSTORE POP POP PUSH1 0x1 SWAP2 DUP3 ADD SLOAD PUSH1 0x1 PUSH1 0x1 PUSH1 0xA0 SHL SUB AND PUSH1 0x20 SWAP2 DUP3 ADD MSTORE SWAP2 DUP4 MSTORE SWAP3 SWAP1 SWAP3 ADD SWAP2 ADD PUSH2 0x2D8 JUMP JUMPDEST SWAP1 POP DUP1 PUSH0 NOT EQ PUSH2 0x3E7 JUMPI PUSH1 0x40 MLOAD PUSH3 0x461BCD PUSH1 0xE5 SHL DUP2 MSTORE PUSH1 0x20 PUSH1 0x4 DUP3 ADD MSTORE PUSH1 0x8 PUSH1 0x24 DUP3 ADD MSTORE PUSH8 0x9CDE40D2DCC8CAF PUSH1 0xC3 SHL PUSH1 0x44 DUP3 ADD MSTORE PUSH1 0x64 ADD PUSH2 0x2A9 JUMP JUMPDEST PUSH1 0x1 DUP1 SLOAD PUSH2 0x3F6 SWAP1 DUP3 SWAP1 PUSH2 0x16B6 JUMP JUMPDEST DUP2 SLOAD DUP2 LT PUSH2 0x406 JUMPI PUSH2 0x406 PUSH2 0x16D5 JUMP JUMPDEST SWAP1 PUSH0 MSTORE PUSH1 0x20 PUSH0 KECCAK256 SWAP1 PUSH1 0x2 MUL ADD PUSH1 0x1 DUP3 DUP2 SLOAD DUP2 LT PUSH2 0x425 JUMPI PUSH2 0x425 PUSH2 0x16D5 JUMP JUMPDEST PUSH0 SWAP2 DUP3 MSTORE PUSH1 0x20 SWAP1 SWAP2 KECCAK256 PUSH1 0x2 SWAP1 SWAP2 MUL ADD DUP1 PUSH2 0x43F DUP4 DUP3 PUSH2 0x1735 JUMP JUMPDEST POP PUSH1 0x1 SWAP2 DUP3 ADD SLOAD SWAP1 DUP3 ADD DUP1 SLOAD PUSH1 0x1 PUSH1 0x1 PUSH1 0xA0 SHL SUB NOT AND PUSH1 0x1 PUSH1 0x1 PUSH1 0xA0 SHL SUB SWAP1 SWAP3 AND SWAP2 SWAP1 SWAP2 OR SWAP1 SSTORE DUP1 SLOAD DUP1 PUSH2 0x475 JUMPI PUSH2 0x475 PUSH2 0x180D JUMP JUMPDEST PUSH0 DUP3 DUP2 MSTORE PUSH1 0x20 DUP2 KECCAK256 PUSH0 NOT SWAP1 SWAP3 ADD SWAP2 PUSH1 0x2 DUP4 MUL ADD SWAP1 PUSH2 0x493 DUP3 DUP3 PUSH2 0x13C4 JUMP JUMPDEST POP PUSH1 0x1 ADD DUP1 SLOAD PUSH1 0x1 PUSH1 0x1 PUSH1 0xA0 SHL SUB NOT AND SWAP1 SSTORE SWAP1 SSTORE POP POP POP JUMP JUMPDEST PUSH1 0x60 PUSH0 NOT PUSH2 0x5A7 CALLER PUSH1 0x1 DUP1 SLOAD DUP1 PUSH1 0x20 MUL PUSH1 0x20 ADD PUSH1 0x40 MLOAD SWAP1 DUP2 ADD PUSH1 0x40 MSTORE DUP1 SWAP3 SWAP2 SWAP1 DUP2 DUP2 MSTORE PUSH1 0x20 ADD PUSH0 SWAP1 JUMPDEST DUP3 DUP3 LT ISZERO PUSH2 0x251 JUMPI DUP4 DUP3 SWAP1 PUSH0 MSTORE PUSH1 0x20 PUSH0 KECCAK256 SWAP1 PUSH1 0x2 MUL ADD PUSH1 0x40 MLOAD DUP1 PUSH1 0x40 ADD PUSH1 0x40 MSTORE SWAP1 DUP2 PUSH0 DUP3 ADD DUP1 SLOAD PUSH2 0x505 SWAP1 PUSH2 0x167E JUMP JUMPDEST DUP1 PUSH1 0x1F ADD PUSH1 0x20 DUP1 SWAP2 DIV MUL PUSH1 0x20 ADD PUSH1 0x40 MLOAD SWAP1 DUP2 ADD PUSH1 0x40 MSTORE DUP1 SWAP3 SWAP2 SWAP1 DUP2 DUP2 MSTORE PUSH1 0x20 ADD DUP3 DUP1 SLOAD PUSH2 0x531 SWAP1 PUSH2 0x167E JUMP JUMPDEST DUP1 ISZERO PUSH2 0x57C JUMPI DUP1 PUSH1 0x1F LT PUSH2 0x553 JUMPI PUSH2 0x100 DUP1 DUP4 SLOAD DIV MUL DUP4 MSTORE SWAP2 PUSH1 0x20 ADD SWAP2 PUSH2 0x57C JUMP JUMPDEST DUP3 ADD SWAP2 SWAP1 PUSH0 MSTORE PUSH1 0x20 PUSH0 KECCAK256 SWAP1 JUMPDEST DUP2 SLOAD DUP2 MSTORE SWAP1 PUSH1 0x1 ADD SWAP1 PUSH1 0x20 ADD DUP1 DUP4 GT PUSH2 0x55F JUMPI DUP3 SWAP1 SUB PUSH1 0x1F AND DUP3 ADD SWAP2 JUMPDEST POP POP POP SWAP2 DUP4 MSTORE POP POP PUSH1 0x1 SWAP2 DUP3 ADD SLOAD PUSH1 0x1 PUSH1 0x1 PUSH1 0xA0 SHL SUB AND PUSH1 0x20 SWAP2 DUP3 ADD MSTORE SWAP2 DUP4 MSTORE SWAP3 SWAP1 SWAP3 ADD SWAP2 ADD PUSH2 0x4D5 JUMP JUMPDEST SGT PUSH2 0x5C4 JUMPI PUSH1 0x40 MLOAD PUSH3 0x461BCD PUSH1 0xE5 SHL DUP2 MSTORE PUSH1 0x4 ADD PUSH2 0x2A9 SWAP1 PUSH2 0x1821 JUMP JUMPDEST PUSH0 DUP1 SLOAD PUSH2 0x5D0 SWAP1 PUSH2 0x167E JUMP JUMPDEST DUP1 PUSH1 0x1F ADD PUSH1 0x20 DUP1 SWAP2 DIV MUL PUSH1 0x20 ADD PUSH1 0x40 MLOAD SWAP1 DUP2 ADD PUSH1 0x40 MSTORE DUP1 SWAP3 SWAP2 SWAP1 DUP2 DUP2 MSTORE PUSH1 0x20 ADD DUP3 DUP1 SLOAD PUSH2 0x5FC SWAP1 PUSH2 0x167E JUMP JUMPDEST DUP1 ISZERO PUSH2 0x647 JUMPI DUP1 PUSH1 0x1F LT PUSH2 0x61E JUMPI PUSH2 0x100 DUP1 DUP4 SLOAD DIV MUL DUP4 MSTORE SWAP2 PUSH1 0x20 ADD SWAP2 PUSH2 0x647 JUMP JUMPDEST DUP3 ADD SWAP2 SWAP1 PUSH0 MSTORE PUSH1 0x20 PUSH0 KECCAK256 SWAP1 JUMPDEST DUP2 SLOAD DUP2 MSTORE SWAP1 PUSH1 0x1 ADD SWAP1 PUSH1 0x20 ADD DUP1 DUP4 GT PUSH2 0x62A JUMPI DUP3 SWAP1 SUB PUSH1 0x1F AND DUP3 ADD SWAP2 JUMPDEST POP POP POP POP POP SWAP1 POP SWAP1 JUMP JUMPDEST PUSH0 NOT PUSH2 0x74A CALLER PUSH1 0x1 DUP1 SLOAD DUP1 PUSH1 0x20 MUL PUSH1 0x20 ADD PUSH1 0x40 MLOAD SWAP1 DUP2 ADD PUSH1 0x40 MSTORE DUP1 SWAP3 SWAP2 SWAP1 DUP2 DUP2 MSTORE PUSH1 0x20 ADD PUSH0 SWAP1 JUMPDEST DUP3 DUP3 LT ISZERO PUSH2 0x251 JUMPI DUP4 DUP3 SWAP1 PUSH0 MSTORE PUSH1 0x20 PUSH0 KECCAK256 SWAP1 PUSH1 0x2 MUL ADD PUSH1 0x40 MLOAD DUP1 PUSH1 0x40 ADD PUSH1 0x40 MSTORE SWAP1 DUP2 PUSH0 DUP3 ADD DUP1 SLOAD PUSH2 0x6A8 SWAP1 PUSH2 0x167E JUMP JUMPDEST DUP1 PUSH1 0x1F ADD PUSH1 0x20 DUP1 SWAP2 DIV MUL PUSH1 0x20 ADD PUSH1 0x40 MLOAD SWAP1 DUP2 ADD PUSH1 0x40 MSTORE DUP1 SWAP3 SWAP2 SWAP1 DUP2 DUP2 MSTORE PUSH1 0x20 ADD DUP3 DUP1 SLOAD PUSH2 0x6D4 SWAP1 PUSH2 0x167E JUMP JUMPDEST DUP1 ISZERO PUSH2 0x71F JUMPI DUP1 PUSH1 0x1F LT PUSH2 0x6F6 JUMPI PUSH2 0x100 DUP1 DUP4 SLOAD DIV MUL DUP4 MSTORE SWAP2 PUSH1 0x20 ADD SWAP2 PUSH2 0x71F JUMP JUMPDEST DUP3 ADD SWAP2 SWAP1 PUSH0 MSTORE PUSH1 0x20 PUSH0 KECCAK256 SWAP1 JUMPDEST DUP2 SLOAD DUP2 MSTORE SWAP1 PUSH1 0x1 ADD SWAP1 PUSH1 0x20 ADD DUP1 DUP4 GT PUSH2 0x702 JUMPI DUP3 SWAP1 SUB PUSH1 0x1F AND DUP3 ADD SWAP2 JUMPDEST POP POP POP SWAP2 DUP4 MSTORE POP POP PUSH1 0x1 SWAP2 DUP3 ADD SLOAD PUSH1 0x1 PUSH1 0x1 PUSH1 0xA0 SHL SUB AND PUSH1 0x20 SWAP2 DUP3 ADD MSTORE SWAP2 DUP4 MSTORE SWAP3 SWAP1 SWAP3 ADD SWAP2 ADD PUSH2 0x678 JUMP JUMPDEST SGT PUSH2 0x767 JUMPI PUSH1 0x40 MLOAD PUSH3 0x461BCD PUSH1 0xE5 SHL DUP2 MSTORE PUSH1 0x4 ADD PUSH2 0x2A9 SWAP1 PUSH2 0x1821 JUMP JUMPDEST PUSH0 PUSH2 0x811 DUP3 PUSH1 0x2 PUSH0 DUP7 PUSH1 0x2 DUP2 GT ISZERO PUSH2 0x781 JUMPI PUSH2 0x781 PUSH2 0x1846 JUMP JUMPDEST PUSH1 0x2 DUP2 GT ISZERO PUSH2 0x792 JUMPI PUSH2 0x792 PUSH2 0x1846 JUMP JUMPDEST DUP2 MSTORE PUSH1 0x20 ADD SWAP1 DUP2 MSTORE PUSH1 0x20 ADD PUSH0 KECCAK256 DUP1 SLOAD DUP1 PUSH1 0x20 MUL PUSH1 0x20 ADD PUSH1 0x40 MLOAD SWAP1 DUP2 ADD PUSH1 0x40 MSTORE DUP1 SWAP3 SWAP2 SWAP1 DUP2 DUP2 MSTORE PUSH1 0x20 ADD PUSH0 SWAP1 JUMPDEST DUP3 DUP3 LT ISZERO PUSH2 0x808 JUMPI PUSH0 DUP5 DUP2 MSTORE PUSH1 0x20 SWAP1 DUP2 SWAP1 KECCAK256 PUSH1 0x40 DUP1 MLOAD DUP1 DUP3 ADD SWAP1 SWAP2 MSTORE PUSH1 0x2 DUP6 MUL SWAP1 SWAP2 ADD DUP1 SLOAD PUSH1 0x1 PUSH1 0x1 PUSH1 0xA0 SHL SUB SWAP1 DUP2 AND DUP4 MSTORE PUSH1 0x1 SWAP2 DUP3 ADD SLOAD AND DUP3 DUP5 ADD MSTORE SWAP1 DUP4 MSTORE SWAP1 SWAP3 ADD SWAP2 ADD PUSH2 0x7BE JUMP JUMPDEST POP POP POP POP PUSH2 0x1374 JUMP JUMPDEST SWAP1 POP PUSH0 DUP2 SLT ISZERO PUSH2 0x84E JUMPI PUSH1 0x40 MLOAD PUSH3 0x461BCD PUSH1 0xE5 SHL DUP2 MSTORE PUSH1 0x20 PUSH1 0x4 DUP3 ADD MSTORE PUSH1 0x8 PUSH1 0x24 DUP3 ADD MSTORE PUSH8 0x9CDE40D2DCC8CAF PUSH1 0xC3 SHL PUSH1 0x44 DUP3 ADD MSTORE PUSH1 0x64 ADD PUSH2 0x2A9 JUMP JUMPDEST CALLER PUSH1 0x2 PUSH0 DUP6 DUP3 DUP2 GT ISZERO PUSH2 0x863 JUMPI PUSH2 0x863 PUSH2 0x1846 JUMP JUMPDEST PUSH1 0x2 DUP2 GT ISZERO PUSH2 0x874 JUMPI PUSH2 0x874 PUSH2 0x1846 JUMP JUMPDEST DUP2 MSTORE PUSH1 0x20 ADD SWAP1 DUP2 MSTORE PUSH1 0x20 ADD PUSH0 KECCAK256 DUP3 DUP2 SLOAD DUP2 LT PUSH2 0x892 JUMPI PUSH2 0x892 PUSH2 0x16D5 JUMP JUMPDEST PUSH0 SWAP2 DUP3 MSTORE PUSH1 0x20 SWAP1 SWAP2 KECCAK256 PUSH1 0x1 PUSH1 0x2 SWAP1 SWAP3 MUL ADD ADD SLOAD PUSH1 0x1 PUSH1 0x1 PUSH1 0xA0 SHL SUB AND EQ PUSH2 0x8EA JUMPI PUSH1 0x40 MLOAD PUSH3 0x461BCD PUSH1 0xE5 SHL DUP2 MSTORE PUSH1 0x20 PUSH1 0x4 DUP3 ADD MSTORE PUSH1 0xC PUSH1 0x24 DUP3 ADD MSTORE PUSH12 0x27B7363C9031B932B0BA37B9 PUSH1 0xA1 SHL PUSH1 0x44 DUP3 ADD MSTORE PUSH1 0x64 ADD PUSH2 0x2A9 JUMP JUMPDEST PUSH1 0x2 PUSH0 DUP5 PUSH1 0x2 DUP2 GT ISZERO PUSH2 0x8FF JUMPI PUSH2 0x8FF PUSH2 0x1846 JUMP JUMPDEST PUSH1 0x2 DUP2 GT ISZERO PUSH2 0x910 JUMPI PUSH2 0x910 PUSH2 0x1846 JUMP JUMPDEST DUP2 MSTORE PUSH1 0x20 ADD SWAP1 DUP2 MSTORE PUSH1 0x20 ADD PUSH0 KECCAK256 PUSH1 0x1 PUSH1 0x2 PUSH0 DUP7 PUSH1 0x2 DUP2 GT ISZERO PUSH2 0x934 JUMPI PUSH2 0x934 PUSH2 0x1846 JUMP JUMPDEST PUSH1 0x2 DUP2 GT ISZERO PUSH2 0x945 JUMPI PUSH2 0x945 PUSH2 0x1846 JUMP JUMPDEST DUP2 MSTORE PUSH1 0x20 DUP2 ADD SWAP2 SWAP1 SWAP2 MSTORE PUSH1 0x40 ADD PUSH0 KECCAK256 SLOAD PUSH2 0x95F SWAP2 SWAP1 PUSH2 0x16B6 JUMP JUMPDEST DUP2 SLOAD DUP2 LT PUSH2 0x96F JUMPI PUSH2 0x96F PUSH2 0x16D5 JUMP JUMPDEST SWAP1 PUSH0 MSTORE PUSH1 0x20 PUSH0 KECCAK256 SWAP1 PUSH1 0x2 MUL ADD PUSH1 0x2 PUSH0 DUP6 PUSH1 0x2 DUP2 GT ISZERO PUSH2 0x990 JUMPI PUSH2 0x990 PUSH2 0x1846 JUMP JUMPDEST PUSH1 0x2 DUP2 GT ISZERO PUSH2 0x9A1 JUMPI PUSH2 0x9A1 PUSH2 0x1846 JUMP JUMPDEST DUP2 MSTORE PUSH1 0x20 ADD SWAP1 DUP2 MSTORE PUSH1 0x20 ADD PUSH0 KECCAK256 DUP3 DUP2 SLOAD DUP2 LT PUSH2 0x9BF JUMPI PUSH2 0x9BF PUSH2 0x16D5 JUMP JUMPDEST PUSH0 SWAP2 DUP3 MSTORE PUSH1 0x20 DUP3 KECCAK256 DUP4 SLOAD PUSH1 0x2 SWAP3 DUP4 MUL SWAP1 SWAP2 ADD DUP1 SLOAD PUSH1 0x1 PUSH1 0x1 PUSH1 0xA0 SHL SUB SWAP3 DUP4 AND PUSH1 0x1 PUSH1 0x1 PUSH1 0xA0 SHL SUB NOT SWAP2 DUP3 AND OR DUP3 SSTORE PUSH1 0x1 SWAP6 DUP7 ADD SLOAD SWAP6 SWAP1 SWAP2 ADD DUP1 SLOAD SWAP6 SWAP1 SWAP3 AND SWAP5 AND SWAP4 SWAP1 SWAP4 OR SWAP1 SWAP3 SSTORE DUP5 DUP3 DUP2 GT ISZERO PUSH2 0xA17 JUMPI PUSH2 0xA17 PUSH2 0x1846 JUMP JUMPDEST PUSH1 0x2 DUP2 GT ISZERO PUSH2 0xA28 JUMPI PUSH2 0xA28 PUSH2 0x1846 JUMP JUMPDEST DUP2 MSTORE PUSH1 0x20 ADD SWAP1 DUP2 MSTORE PUSH1 0x20 ADD PUSH0 KECCAK256 DUP1 SLOAD DUP1 PUSH2 0xA44 JUMPI PUSH2 0xA44 PUSH2 0x180D JUMP JUMPDEST PUSH0 DUP3 DUP2 MSTORE PUSH1 0x20 SWAP1 KECCAK256 PUSH1 0x2 PUSH0 NOT SWAP1 SWAP3 ADD SWAP2 DUP3 MUL ADD DUP1 SLOAD PUSH1 0x1 PUSH1 0x1 PUSH1 0xA0 SHL SUB NOT SWAP1 DUP2 AND DUP3 SSTORE PUSH1 0x1 SWAP2 SWAP1 SWAP2 ADD DUP1 SLOAD SWAP1 SWAP2 AND SWAP1 SSTORE SWAP1 SSTORE POP POP POP JUMP JUMPDEST PUSH0 NOT PUSH2 0xB74 CALLER PUSH1 0x1 DUP1 SLOAD DUP1 PUSH1 0x20 MUL PUSH1 0x20 ADD PUSH1 0x40 MLOAD SWAP1 DUP2 ADD PUSH1 0x40 MSTORE DUP1 SWAP3 SWAP2 SWAP1 DUP2 DUP2 MSTORE PUSH1 0x20 ADD PUSH0 SWAP1 JUMPDEST DUP3 DUP3 LT ISZERO PUSH2 0x251 JUMPI DUP4 DUP3 SWAP1 PUSH0 MSTORE PUSH1 0x20 PUSH0 KECCAK256 SWAP1 PUSH1 0x2 MUL ADD PUSH1 0x40 MLOAD DUP1 PUSH1 0x40 ADD PUSH1 0x40 MSTORE SWAP1 DUP2 PUSH0 DUP3 ADD DUP1 SLOAD PUSH2 0xAD2 SWAP1 PUSH2 0x167E JUMP JUMPDEST DUP1 PUSH1 0x1F ADD PUSH1 0x20 DUP1 SWAP2 DIV MUL PUSH1 0x20 ADD PUSH1 0x40 MLOAD SWAP1 DUP2 ADD PUSH1 0x40 MSTORE DUP1 SWAP3 SWAP2 SWAP1 DUP2 DUP2 MSTORE PUSH1 0x20 ADD DUP3 DUP1 SLOAD PUSH2 0xAFE SWAP1 PUSH2 0x167E JUMP JUMPDEST DUP1 ISZERO PUSH2 0xB49 JUMPI DUP1 PUSH1 0x1F LT PUSH2 0xB20 JUMPI PUSH2 0x100 DUP1 DUP4 SLOAD DIV MUL DUP4 MSTORE SWAP2 PUSH1 0x20 ADD SWAP2 PUSH2 0xB49 JUMP JUMPDEST DUP3 ADD SWAP2 SWAP1 PUSH0 MSTORE PUSH1 0x20 PUSH0 KECCAK256 SWAP1 JUMPDEST DUP2 SLOAD DUP2 MSTORE SWAP1 PUSH1 0x1 ADD SWAP1 PUSH1 0x20 ADD DUP1 DUP4 GT PUSH2 0xB2C JUMPI DUP3 SWAP1 SUB PUSH1 0x1F AND DUP3 ADD SWAP2 JUMPDEST POP POP POP SWAP2 DUP4 MSTORE POP POP PUSH1 0x1 SWAP2 DUP3 ADD SLOAD PUSH1 0x1 PUSH1 0x1 PUSH1 0xA0 SHL SUB AND PUSH1 0x20 SWAP2 DUP3 ADD MSTORE SWAP2 DUP4 MSTORE SWAP3 SWAP1 SWAP3 ADD SWAP2 ADD PUSH2 0xAA2 JUMP JUMPDEST SGT PUSH2 0xB91 JUMPI PUSH1 0x40 MLOAD PUSH3 0x461BCD PUSH1 0xE5 SHL DUP2 MSTORE PUSH1 0x4 ADD PUSH2 0x2A9 SWAP1 PUSH2 0x1821 JUMP JUMPDEST PUSH0 PUSH2 0xBAB DUP3 PUSH1 0x2 PUSH0 DUP7 PUSH1 0x2 DUP2 GT ISZERO PUSH2 0x781 JUMPI PUSH2 0x781 PUSH2 0x1846 JUMP JUMPDEST SWAP1 POP PUSH0 NOT DUP2 SGT ISZERO PUSH2 0xBE7 JUMPI PUSH1 0x40 MLOAD PUSH3 0x461BCD PUSH1 0xE5 SHL DUP2 MSTORE PUSH1 0x20 PUSH1 0x4 DUP3 ADD MSTORE PUSH1 0x6 PUSH1 0x24 DUP3 ADD MSTORE PUSH6 0x457869737473 PUSH1 0xD0 SHL PUSH1 0x44 DUP3 ADD MSTORE PUSH1 0x64 ADD PUSH2 0x2A9 JUMP JUMPDEST PUSH1 0x2 PUSH0 DUP5 PUSH1 0x2 DUP2 GT ISZERO PUSH2 0xBFC JUMPI PUSH2 0xBFC PUSH2 0x1846 JUMP JUMPDEST PUSH1 0x2 DUP2 GT ISZERO PUSH2 0xC0D JUMPI PUSH2 0xC0D PUSH2 0x1846 JUMP JUMPDEST DUP2 MSTORE PUSH1 0x20 DUP1 DUP3 ADD SWAP3 SWAP1 SWAP3 MSTORE PUSH1 0x40 SWAP1 DUP2 ADD PUSH0 SWAP1 DUP2 KECCAK256 DUP3 MLOAD DUP1 DUP5 ADD SWAP1 SWAP4 MSTORE PUSH1 0x1 PUSH1 0x1 PUSH1 0xA0 SHL SUB SWAP6 DUP7 AND DUP4 MSTORE CALLER DUP4 DUP6 ADD SWAP1 DUP2 MSTORE DUP2 SLOAD PUSH1 0x1 DUP2 DUP2 ADD DUP5 SSTORE SWAP3 DUP5 MSTORE SWAP5 SWAP1 SWAP3 KECCAK256 SWAP3 MLOAD PUSH1 0x2 SWAP1 SWAP5 MUL SWAP1 SWAP3 ADD DUP1 SLOAD SWAP4 DUP7 AND PUSH1 0x1 PUSH1 0x1 PUSH1 0xA0 SHL SUB NOT SWAP5 DUP6 AND OR DUP2 SSTORE SWAP1 MLOAD SWAP2 ADD DUP1 SLOAD SWAP2 SWAP1 SWAP5 AND SWAP2 AND OR SWAP1 SWAP2 SSTORE POP POP JUMP JUMPDEST PUSH1 0x3 SLOAD PUSH1 0x1 PUSH1 0x1 PUSH1 0xA0 SHL SUB AND CALLER EQ DUP1 PUSH2 0xCA2 JUMPI POP PUSH1 0x4 SLOAD PUSH1 0x1 PUSH1 0x1 PUSH1 0xA0 SHL SUB AND CALLER EQ JUMPDEST PUSH2 0xCDB JUMPI PUSH1 0x40 MLOAD PUSH3 0x461BCD PUSH1 0xE5 SHL DUP2 MSTORE PUSH1 0x20 PUSH1 0x4 DUP3 ADD MSTORE PUSH1 0xA PUSH1 0x24 DUP3 ADD MSTORE PUSH10 0x27B7363C9037BBB732B9 PUSH1 0xB1 SHL PUSH1 0x44 DUP3 ADD MSTORE PUSH1 0x64 ADD PUSH2 0x2A9 JUMP JUMPDEST PUSH0 PUSH2 0xDD3 DUP3 PUSH1 0x1 DUP1 SLOAD DUP1 PUSH1 0x20 MUL PUSH1 0x20 ADD PUSH1 0x40 MLOAD SWAP1 DUP2 ADD PUSH1 0x40 MSTORE DUP1 SWAP3 SWAP2 SWAP1 DUP2 DUP2 MSTORE PUSH1 0x20 ADD PUSH0 SWAP1 JUMPDEST DUP3 DUP3 LT ISZERO PUSH2 0x251 JUMPI DUP4 DUP3 SWAP1 PUSH0 MSTORE PUSH1 0x20 PUSH0 KECCAK256 SWAP1 PUSH1 0x2 MUL ADD PUSH1 0x40 MLOAD DUP1 PUSH1 0x40 ADD PUSH1 0x40 MSTORE SWAP1 DUP2 PUSH0 DUP3 ADD DUP1 SLOAD PUSH2 0xD31 SWAP1 PUSH2 0x167E JUMP JUMPDEST DUP1 PUSH1 0x1F ADD PUSH1 0x20 DUP1 SWAP2 DIV MUL PUSH1 0x20 ADD PUSH1 0x40 MLOAD SWAP1 DUP2 ADD PUSH1 0x40 MSTORE DUP1 SWAP3 SWAP2 SWAP1 DUP2 DUP2 MSTORE PUSH1 0x20 ADD DUP3 DUP1 SLOAD PUSH2 0xD5D SWAP1 PUSH2 0x167E JUMP JUMPDEST DUP1 ISZERO PUSH2 0xDA8 JUMPI DUP1 PUSH1 0x1F LT PUSH2 0xD7F JUMPI PUSH2 0x100 DUP1 DUP4 SLOAD DIV MUL DUP4 MSTORE SWAP2 PUSH1 0x20 ADD SWAP2 PUSH2 0xDA8 JUMP JUMPDEST DUP3 ADD SWAP2 SWAP1 PUSH0 MSTORE PUSH1 0x20 PUSH0 KECCAK256 SWAP1 JUMPDEST DUP2 SLOAD DUP2 MSTORE SWAP1 PUSH1 0x1 ADD SWAP1 PUSH1 0x20 ADD DUP1 DUP4 GT PUSH2 0xD8B JUMPI DUP3 SWAP1 SUB PUSH1 0x1F AND DUP3 ADD SWAP2 JUMPDEST POP POP POP SWAP2 DUP4 MSTORE POP POP PUSH1 0x1 SWAP2 DUP3 ADD SLOAD PUSH1 0x1 PUSH1 0x1 PUSH1 0xA0 SHL SUB AND PUSH1 0x20 SWAP2 DUP3 ADD MSTORE SWAP2 DUP4 MSTORE SWAP3 SWAP1 SWAP3 ADD SWAP2 ADD PUSH2 0xD01 JUMP JUMPDEST SWAP1 POP DUP1 PUSH0 NOT EQ PUSH2 0xE0E JUMPI PUSH1 0x40 MLOAD PUSH3 0x461BCD PUSH1 0xE5 SHL DUP2 MSTORE PUSH1 0x20 PUSH1 0x4 DUP3 ADD MSTORE PUSH1 0x6 PUSH1 0x24 DUP3 ADD MSTORE PUSH6 0x457869737473 PUSH1 0xD0 SHL PUSH1 0x44 DUP3 ADD MSTORE PUSH1 0x64 ADD PUSH2 0x2A9 JUMP JUMPDEST PUSH1 0x40 DUP1 MLOAD DUP1 DUP3 ADD SWAP1 SWAP2 MSTORE DUP4 DUP2 MSTORE PUSH1 0x1 PUSH1 0x1 PUSH1 0xA0 SHL SUB DUP4 AND PUSH1 0x20 DUP3 ADD MSTORE PUSH1 0x1 DUP1 SLOAD DUP1 DUP3 ADD DUP3 SSTORE PUSH0 SWAP2 SWAP1 SWAP2 MSTORE DUP2 MLOAD PUSH1 0x2 SWAP1 SWAP2 MUL PUSH32 0xB10E2D527612073B26EECDFD717E6A320CF44B4AFAC2B0732D9FCBE2B7FA0CF6 ADD SWAP1 DUP2 SWAP1 PUSH2 0xE6E SWAP1 DUP3 PUSH2 0x185A JUMP JUMPDEST POP PUSH1 0x20 SWAP2 SWAP1 SWAP2 ADD MLOAD PUSH1 0x1 SWAP1 SWAP2 ADD DUP1 SLOAD PUSH1 0x1 PUSH1 0x1 PUSH1 0xA0 SHL SUB NOT AND PUSH1 0x1 PUSH1 0x1 PUSH1 0xA0 SHL SUB SWAP1 SWAP3 AND SWAP2 SWAP1 SWAP2 OR SWAP1 SSTORE POP POP POP JUMP JUMPDEST PUSH1 0x3 SLOAD PUSH1 0x60 SWAP1 PUSH1 0x1 PUSH1 0x1 PUSH1 0xA0 SHL SUB AND CALLER EQ DUP1 PUSH2 0xEC3 JUMPI POP PUSH1 0x4 SLOAD PUSH1 0x1 PUSH1 0x1 PUSH1 0xA0 SHL SUB AND CALLER EQ JUMPDEST PUSH2 0xEFC JUMPI PUSH1 0x40 MLOAD PUSH3 0x461BCD PUSH1 0xE5 SHL DUP2 MSTORE PUSH1 0x20 PUSH1 0x4 DUP3 ADD MSTORE PUSH1 0xA PUSH1 0x24 DUP3 ADD MSTORE PUSH10 0x27B7363C9037BBB732B9 PUSH1 0xB1 SHL PUSH1 0x44 DUP3 ADD MSTORE PUSH1 0x64 ADD PUSH2 0x2A9 JUMP JUMPDEST PUSH1 0x1 DUP1 SLOAD DUP1 PUSH1 0x20 MUL PUSH1 0x20 ADD PUSH1 0x40 MLOAD SWAP1 DUP2 ADD PUSH1 0x40 MSTORE DUP1 SWAP3 SWAP2 SWAP1 DUP2 DUP2 MSTORE PUSH1 0x20 ADD PUSH0 SWAP1 JUMPDEST DUP3 DUP3 LT ISZERO PUSH2 0xFEF JUMPI DUP4 DUP3 SWAP1 PUSH0 MSTORE PUSH1 0x20 PUSH0 KECCAK256 SWAP1 PUSH1 0x2 MUL ADD PUSH1 0x40 MLOAD DUP1 PUSH1 0x40 ADD PUSH1 0x40 MSTORE SWAP1 DUP2 PUSH0 DUP3 ADD DUP1 SLOAD PUSH2 0xF4D SWAP1 PUSH2 0x167E JUMP JUMPDEST DUP1 PUSH1 0x1F ADD PUSH1 0x20 DUP1 SWAP2 DIV MUL PUSH1 0x20 ADD PUSH1 0x40 MLOAD SWAP1 DUP2 ADD PUSH1 0x40 MSTORE DUP1 SWAP3 SWAP2 SWAP1 DUP2 DUP2 MSTORE PUSH1 0x20 ADD DUP3 DUP1 SLOAD PUSH2 0xF79 SWAP1 PUSH2 0x167E JUMP JUMPDEST DUP1 ISZERO PUSH2 0xFC4 JUMPI DUP1 PUSH1 0x1F LT PUSH2 0xF9B JUMPI PUSH2 0x100 DUP1 DUP4 SLOAD DIV MUL DUP4 MSTORE SWAP2 PUSH1 0x20 ADD SWAP2 PUSH2 0xFC4 JUMP JUMPDEST DUP3 ADD SWAP2 SWAP1 PUSH0 MSTORE PUSH1 0x20 PUSH0 KECCAK256 SWAP1 JUMPDEST DUP2 SLOAD DUP2 MSTORE SWAP1 PUSH1 0x1 ADD SWAP1 PUSH1 0x20 ADD DUP1 DUP4 GT PUSH2 0xFA7 JUMPI DUP3 SWAP1 SUB PUSH1 0x1F AND DUP3 ADD SWAP2 JUMPDEST POP POP POP SWAP2 DUP4 MSTORE POP POP PUSH1 0x1 SWAP2 DUP3 ADD SLOAD PUSH1 0x1 PUSH1 0x1 PUSH1 0xA0 SHL SUB AND PUSH1 0x20 SWAP2 DUP3 ADD MSTORE SWAP2 DUP4 MSTORE SWAP3 SWAP1 SWAP3 ADD SWAP2 ADD PUSH2 0xF1D JUMP JUMPDEST POP POP POP POP SWAP1 POP SWAP1 JUMP JUMPDEST PUSH0 PUSH0 NOT PUSH2 0x10F2 CALLER PUSH1 0x1 DUP1 SLOAD DUP1 PUSH1 0x20 MUL PUSH1 0x20 ADD PUSH1 0x40 MLOAD SWAP1 DUP2 ADD PUSH1 0x40 MSTORE DUP1 SWAP3 SWAP2 SWAP1 DUP2 DUP2 MSTORE PUSH1 0x20 ADD PUSH0 SWAP1 JUMPDEST DUP3 DUP3 LT ISZERO PUSH2 0x251 JUMPI DUP4 DUP3 SWAP1 PUSH0 MSTORE PUSH1 0x20 PUSH0 KECCAK256 SWAP1 PUSH1 0x2 MUL ADD PUSH1 0x40 MLOAD DUP1 PUSH1 0x40 ADD PUSH1 0x40 MSTORE SWAP1 DUP2 PUSH0 DUP3 ADD DUP1 SLOAD PUSH2 0x1050 SWAP1 PUSH2 0x167E JUMP JUMPDEST DUP1 PUSH1 0x1F ADD PUSH1 0x20 DUP1 SWAP2 DIV MUL PUSH1 0x20 ADD PUSH1 0x40 MLOAD SWAP1 DUP2 ADD PUSH1 0x40 MSTORE DUP1 SWAP3 SWAP2 SWAP1 DUP2 DUP2 MSTORE PUSH1 0x20 ADD DUP3 DUP1 SLOAD PUSH2 0x107C SWAP1 PUSH2 0x167E JUMP JUMPDEST DUP1 ISZERO PUSH2 0x10C7 JUMPI DUP1 PUSH1 0x1F LT PUSH2 0x109E JUMPI PUSH2 0x100 DUP1 DUP4 SLOAD DIV MUL DUP4 MSTORE SWAP2 PUSH1 0x20 ADD SWAP2 PUSH2 0x10C7 JUMP JUMPDEST DUP3 ADD SWAP2 SWAP1 PUSH0 MSTORE PUSH1 0x20 PUSH0 KECCAK256 SWAP1 JUMPDEST DUP2 SLOAD DUP2 MSTORE SWAP1 PUSH1 0x1 ADD SWAP1 PUSH1 0x20 ADD DUP1 DUP4 GT PUSH2 0x10AA JUMPI DUP3 SWAP1 SUB PUSH1 0x1F AND DUP3 ADD SWAP2 JUMPDEST POP POP POP SWAP2 DUP4 MSTORE POP POP PUSH1 0x1 SWAP2 DUP3 ADD SLOAD PUSH1 0x1 PUSH1 0x1 PUSH1 0xA0 SHL SUB AND PUSH1 0x20 SWAP2 DUP3 ADD MSTORE SWAP2 DUP4 MSTORE SWAP3 SWAP1 SWAP3 ADD SWAP2 ADD PUSH2 0x1020 JUMP JUMPDEST SGT PUSH2 0x110F JUMPI PUSH1 0x40 MLOAD PUSH3 0x461BCD PUSH1 0xE5 SHL DUP2 MSTORE PUSH1 0x4 ADD PUSH2 0x2A9 SWAP1 PUSH2 0x1821 JUMP JUMPDEST POP PUSH1 0x3 SLOAD PUSH1 0x1 PUSH1 0x1 PUSH1 0xA0 SHL SUB AND CALLER EQ SWAP1 JUMP JUMPDEST PUSH1 0x60 PUSH0 NOT PUSH2 0x121C CALLER PUSH1 0x1 DUP1 SLOAD DUP1 PUSH1 0x20 MUL PUSH1 0x20 ADD PUSH1 0x40 MLOAD SWAP1 DUP2 ADD PUSH1 0x40 MSTORE DUP1 SWAP3 SWAP2 SWAP1 DUP2 DUP2 MSTORE PUSH1 0x20 ADD PUSH0 SWAP1 JUMPDEST DUP3 DUP3 LT ISZERO PUSH2 0x251 JUMPI DUP4 DUP3 SWAP1 PUSH0 MSTORE PUSH1 0x20 PUSH0 KECCAK256 SWAP1 PUSH1 0x2 MUL ADD PUSH1 0x40 MLOAD DUP1 PUSH1 0x40 ADD PUSH1 0x40 MSTORE SWAP1 DUP2 PUSH0 DUP3 ADD DUP1 SLOAD PUSH2 0x117A SWAP1 PUSH2 0x167E JUMP JUMPDEST DUP1 PUSH1 0x1F ADD PUSH1 0x20 DUP1 SWAP2 DIV MUL PUSH1 0x20 ADD PUSH1 0x40 MLOAD SWAP1 DUP2 ADD PUSH1 0x40 MSTORE DUP1 SWAP3 SWAP2 SWAP1 DUP2 DUP2 MSTORE PUSH1 0x20 ADD DUP3 DUP1 SLOAD PUSH2 0x11A6 SWAP1 PUSH2 0x167E JUMP JUMPDEST DUP1 ISZERO PUSH2 0x11F1 JUMPI DUP1 PUSH1 0x1F LT PUSH2 0x11C8 JUMPI PUSH2 0x100 DUP1 DUP4 SLOAD DIV MUL DUP4 MSTORE SWAP2 PUSH1 0x20 ADD SWAP2 PUSH2 0x11F1 JUMP JUMPDEST DUP3 ADD SWAP2 SWAP1 PUSH0 MSTORE PUSH1 0x20 PUSH0 KECCAK256 SWAP1 JUMPDEST DUP2 SLOAD DUP2 MSTORE SWAP1 PUSH1 0x1 ADD SWAP1 PUSH1 0x20 ADD DUP1 DUP4 GT PUSH2 0x11D4 JUMPI DUP3 SWAP1 SUB PUSH1 0x1F AND DUP3 ADD SWAP2 JUMPDEST POP POP POP SWAP2 DUP4 MSTORE POP POP PUSH1 0x1 SWAP2 DUP3 ADD SLOAD PUSH1 0x1 PUSH1 0x1 PUSH1 0xA0 SHL SUB AND PUSH1 0x20 SWAP2 DUP3 ADD MSTORE SWAP2 DUP4 MSTORE SWAP3 SWAP1 SWAP3 ADD SWAP2 ADD PUSH2 0x114A JUMP JUMPDEST SGT PUSH2 0x1239 JUMPI PUSH1 0x40 MLOAD PUSH3 0x461BCD PUSH1 0xE5 SHL DUP2 MSTORE PUSH1 0x4 ADD PUSH2 0x2A9 SWAP1 PUSH2 0x1821 JUMP JUMPDEST PUSH1 0x60 PUSH0 JUMPDEST PUSH1 0x2 PUSH0 DUP6 PUSH1 0x2 DUP2 GT ISZERO PUSH2 0x1252 JUMPI PUSH2 0x1252 PUSH2 0x1846 JUMP JUMPDEST PUSH1 0x2 DUP2 GT ISZERO PUSH2 0x1263 JUMPI PUSH2 0x1263 PUSH2 0x1846 JUMP JUMPDEST DUP2 MSTORE PUSH1 0x20 DUP2 ADD SWAP2 SWAP1 SWAP2 MSTORE PUSH1 0x40 ADD PUSH0 KECCAK256 SLOAD DUP2 LT ISZERO PUSH2 0x130E JUMPI PUSH1 0x2 PUSH0 DUP6 PUSH1 0x2 DUP2 GT ISZERO PUSH2 0x128F JUMPI PUSH2 0x128F PUSH2 0x1846 JUMP JUMPDEST PUSH1 0x2 DUP2 GT ISZERO PUSH2 0x12A0 JUMPI PUSH2 0x12A0 PUSH2 0x1846 JUMP JUMPDEST DUP2 MSTORE PUSH1 0x20 ADD SWAP1 DUP2 MSTORE PUSH1 0x20 ADD PUSH0 KECCAK256 DUP2 DUP2 SLOAD DUP2 LT PUSH2 0x12BE JUMPI PUSH2 0x12BE PUSH2 0x16D5 JUMP JUMPDEST PUSH0 SWAP2 DUP3 MSTORE PUSH1 0x20 SWAP1 SWAP2 KECCAK256 PUSH1 0x2 SWAP1 SWAP2 MUL ADD SLOAD DUP3 MLOAD PUSH1 0x1 PUSH1 0x1 PUSH1 0xA0 SHL SUB SWAP1 SWAP2 AND SWAP1 DUP4 SWAP1 DUP4 SWAP1 DUP2 LT PUSH2 0x12EE JUMPI PUSH2 0x12EE PUSH2 0x16D5 JUMP JUMPDEST PUSH1 0x1 PUSH1 0x1 PUSH1 0xA0 SHL SUB SWAP1 SWAP3 AND PUSH1 0x20 SWAP3 DUP4 MUL SWAP2 SWAP1 SWAP2 ADD SWAP1 SWAP2 ADD MSTORE PUSH1 0x1 ADD PUSH2 0x123D JUMP JUMPDEST POP SWAP1 POP JUMPDEST SWAP2 SWAP1 POP JUMP JUMPDEST PUSH0 DUP1 JUMPDEST DUP3 MLOAD DUP2 LT ISZERO PUSH2 0x1368 JUMPI DUP4 PUSH1 0x1 PUSH1 0x1 PUSH1 0xA0 SHL SUB AND DUP4 DUP3 DUP2 MLOAD DUP2 LT PUSH2 0x133F JUMPI PUSH2 0x133F PUSH2 0x16D5 JUMP JUMPDEST PUSH1 0x20 MUL PUSH1 0x20 ADD ADD MLOAD PUSH1 0x20 ADD MLOAD PUSH1 0x1 PUSH1 0x1 PUSH1 0xA0 SHL SUB AND SUB PUSH2 0x1360 JUMPI SWAP1 POP PUSH2 0x136E JUMP JUMPDEST PUSH1 0x1 ADD PUSH2 0x131A JUMP JUMPDEST POP PUSH0 NOT SWAP1 POP JUMPDEST SWAP3 SWAP2 POP POP JUMP JUMPDEST PUSH0 DUP1 JUMPDEST DUP3 MLOAD DUP2 LT ISZERO PUSH2 0x1368 JUMPI DUP4 PUSH1 0x1 PUSH1 0x1 PUSH1 0xA0 SHL SUB AND DUP4 DUP3 DUP2 MLOAD DUP2 LT PUSH2 0x139C JUMPI PUSH2 0x139C PUSH2 0x16D5 JUMP JUMPDEST PUSH1 0x20 MUL PUSH1 0x20 ADD ADD MLOAD PUSH0 ADD MLOAD PUSH1 0x1 PUSH1 0x1 PUSH1 0xA0 SHL SUB AND SUB PUSH2 0x13BC JUMPI SWAP1 POP PUSH2 0x136E JUMP JUMPDEST PUSH1 0x1 ADD PUSH2 0x1377 JUMP JUMPDEST POP DUP1 SLOAD PUSH2 0x13D0 SWAP1 PUSH2 0x167E JUMP JUMPDEST PUSH0 DUP3 SSTORE DUP1 PUSH1 0x1F LT PUSH2 0x13DF JUMPI POP POP JUMP JUMPDEST PUSH1 0x1F ADD PUSH1 0x20 SWAP1 DIV SWAP1 PUSH0 MSTORE PUSH1 0x20 PUSH0 KECCAK256 SWAP1 DUP2 ADD SWAP1 PUSH2 0x13FB SWAP2 SWAP1 PUSH2 0x13FE JUMP JUMPDEST POP JUMP JUMPDEST JUMPDEST DUP1 DUP3 GT ISZERO PUSH2 0x1412 JUMPI PUSH0 DUP2 SSTORE PUSH1 0x1 ADD PUSH2 0x13FF JUMP JUMPDEST POP SWAP1 JUMP JUMPDEST DUP1 CALLDATALOAD PUSH1 0x1 PUSH1 0x1 PUSH1 0xA0 SHL SUB DUP2 AND DUP2 EQ PUSH2 0x1312 JUMPI PUSH0 DUP1 REVERT JUMPDEST PUSH0 PUSH1 0x20 DUP3 DUP5 SUB SLT ISZERO PUSH2 0x143C JUMPI PUSH0 DUP1 REVERT JUMPDEST PUSH2 0x1445 DUP3 PUSH2 0x1416 JUMP JUMPDEST SWAP4 SWAP3 POP POP POP JUMP JUMPDEST PUSH0 DUP2 MLOAD DUP1 DUP5 MSTORE DUP1 PUSH1 0x20 DUP5 ADD PUSH1 0x20 DUP7 ADD MCOPY PUSH0 PUSH1 0x20 DUP3 DUP7 ADD ADD MSTORE PUSH1 0x20 PUSH1 0x1F NOT PUSH1 0x1F DUP4 ADD AND DUP6 ADD ADD SWAP2 POP POP SWAP3 SWAP2 POP POP JUMP JUMPDEST PUSH1 0x20 DUP2 MSTORE PUSH0 PUSH2 0x1445 PUSH1 0x20 DUP4 ADD DUP5 PUSH2 0x144C JUMP JUMPDEST DUP1 CALLDATALOAD PUSH1 0x3 DUP2 LT PUSH2 0x1312 JUMPI PUSH0 DUP1 REVERT JUMPDEST PUSH0 DUP1 PUSH1 0x40 DUP4 DUP6 SUB SLT ISZERO PUSH2 0x14AB JUMPI PUSH0 DUP1 REVERT JUMPDEST PUSH2 0x14B4 DUP4 PUSH2 0x148C JUMP JUMPDEST SWAP2 POP PUSH2 0x14C2 PUSH1 0x20 DUP5 ADD PUSH2 0x1416 JUMP JUMPDEST SWAP1 POP SWAP3 POP SWAP3 SWAP1 POP JUMP JUMPDEST PUSH4 0x4E487B71 PUSH1 0xE0 SHL PUSH0 MSTORE PUSH1 0x41 PUSH1 0x4 MSTORE PUSH1 0x24 PUSH0 REVERT JUMPDEST PUSH0 DUP1 PUSH1 0x40 DUP4 DUP6 SUB SLT ISZERO PUSH2 0x14F0 JUMPI PUSH0 DUP1 REVERT JUMPDEST DUP3 CALLDATALOAD PUSH8 0xFFFFFFFFFFFFFFFF DUP2 GT ISZERO PUSH2 0x1506 JUMPI PUSH0 DUP1 REVERT JUMPDEST DUP4 ADD PUSH1 0x1F DUP2 ADD DUP6 SGT PUSH2 0x1516 JUMPI PUSH0 DUP1 REVERT JUMPDEST DUP1 CALLDATALOAD PUSH8 0xFFFFFFFFFFFFFFFF DUP2 GT ISZERO PUSH2 0x1530 JUMPI PUSH2 0x1530 PUSH2 0x14CB JUMP JUMPDEST PUSH1 0x40 MLOAD PUSH1 0x1F DUP3 ADD PUSH1 0x1F NOT SWAP1 DUP2 AND PUSH1 0x3F ADD AND DUP2 ADD PUSH8 0xFFFFFFFFFFFFFFFF DUP2 GT DUP3 DUP3 LT OR ISZERO PUSH2 0x155F JUMPI PUSH2 0x155F PUSH2 0x14CB JUMP JUMPDEST PUSH1 0x40 MSTORE DUP2 DUP2 MSTORE DUP3 DUP3 ADD PUSH1 0x20 ADD DUP8 LT ISZERO PUSH2 0x1576 JUMPI PUSH0 DUP1 REVERT JUMPDEST DUP2 PUSH1 0x20 DUP5 ADD PUSH1 0x20 DUP4 ADD CALLDATACOPY PUSH0 PUSH1 0x20 DUP4 DUP4 ADD ADD MSTORE DUP1 SWAP5 POP POP POP POP PUSH2 0x14C2 PUSH1 0x20 DUP5 ADD PUSH2 0x1416 JUMP JUMPDEST PUSH0 PUSH1 0x20 DUP3 ADD PUSH1 0x20 DUP4 MSTORE DUP1 DUP5 MLOAD DUP1 DUP4 MSTORE PUSH1 0x40 DUP6 ADD SWAP2 POP PUSH1 0x40 DUP2 PUSH1 0x5 SHL DUP7 ADD ADD SWAP3 POP PUSH1 0x20 DUP7 ADD PUSH0 JUMPDEST DUP3 DUP2 LT ISZERO PUSH2 0x160E JUMPI PUSH1 0x3F NOT DUP8 DUP7 SUB ADD DUP5 MSTORE DUP2 MLOAD DUP1 MLOAD PUSH1 0x40 DUP8 MSTORE PUSH2 0x15E6 PUSH1 0x40 DUP9 ADD DUP3 PUSH2 0x144C JUMP JUMPDEST PUSH1 0x20 SWAP3 DUP4 ADD MLOAD PUSH1 0x1 PUSH1 0x1 PUSH1 0xA0 SHL SUB AND SWAP8 DUP4 ADD SWAP8 SWAP1 SWAP8 MSTORE POP SWAP4 DUP5 ADD SWAP4 SWAP2 SWAP1 SWAP2 ADD SWAP1 PUSH1 0x1 ADD PUSH2 0x15C0 JUMP JUMPDEST POP SWAP3 SWAP7 SWAP6 POP POP POP POP POP POP JUMP JUMPDEST PUSH0 PUSH1 0x20 DUP3 DUP5 SUB SLT ISZERO PUSH2 0x162A JUMPI PUSH0 DUP1 REVERT JUMPDEST PUSH2 0x1445 DUP3 PUSH2 0x148C JUMP JUMPDEST PUSH1 0x20 DUP1 DUP3 MSTORE DUP3 MLOAD DUP3 DUP3 ADD DUP2 SWAP1 MSTORE PUSH0 SWAP2 DUP5 ADD SWAP1 PUSH1 0x40 DUP5 ADD SWAP1 DUP4 JUMPDEST DUP2 DUP2 LT ISZERO PUSH2 0x1673 JUMPI DUP4 MLOAD PUSH1 0x1 PUSH1 0x1 PUSH1 0xA0 SHL SUB AND DUP4 MSTORE PUSH1 0x20 SWAP4 DUP5 ADD SWAP4 SWAP1 SWAP3 ADD SWAP2 PUSH1 0x1 ADD PUSH2 0x164C JUMP JUMPDEST POP SWAP1 SWAP6 SWAP5 POP POP POP POP POP JUMP JUMPDEST PUSH1 0x1 DUP2 DUP2 SHR SWAP1 DUP3 AND DUP1 PUSH2 0x1692 JUMPI PUSH1 0x7F DUP3 AND SWAP2 POP JUMPDEST PUSH1 0x20 DUP3 LT DUP2 SUB PUSH2 0x16B0 JUMPI PUSH4 0x4E487B71 PUSH1 0xE0 SHL PUSH0 MSTORE PUSH1 0x22 PUSH1 0x4 MSTORE PUSH1 0x24 PUSH0 REVERT JUMPDEST POP SWAP2 SWAP1 POP JUMP JUMPDEST DUP2 DUP2 SUB DUP2 DUP2 GT ISZERO PUSH2 0x136E JUMPI PUSH4 0x4E487B71 PUSH1 0xE0 SHL PUSH0 MSTORE PUSH1 0x11 PUSH1 0x4 MSTORE PUSH1 0x24 PUSH0 REVERT JUMPDEST PUSH4 0x4E487B71 PUSH1 0xE0 SHL PUSH0 MSTORE PUSH1 0x32 PUSH1 0x4 MSTORE PUSH1 0x24 PUSH0 REVERT JUMPDEST PUSH1 0x1F DUP3 GT ISZERO PUSH2 0x1730 JUMPI DUP1 PUSH0 MSTORE PUSH1 0x20 PUSH0 KECCAK256 PUSH1 0x1F DUP5 ADD PUSH1 0x5 SHR DUP2 ADD PUSH1 0x20 DUP6 LT ISZERO PUSH2 0x170E JUMPI POP DUP1 JUMPDEST PUSH1 0x1F DUP5 ADD PUSH1 0x5 SHR DUP3 ADD SWAP2 POP JUMPDEST DUP2 DUP2 LT ISZERO PUSH2 0x172D JUMPI PUSH0 DUP2 SSTORE PUSH1 0x1 ADD PUSH2 0x171A JUMP JUMPDEST POP POP JUMPDEST POP POP POP JUMP JUMPDEST DUP2 DUP2 SUB PUSH2 0x1740 JUMPI POP POP JUMP JUMPDEST PUSH2 0x174A DUP3 SLOAD PUSH2 0x167E JUMP JUMPDEST PUSH8 0xFFFFFFFFFFFFFFFF DUP2 GT ISZERO PUSH2 0x1762 JUMPI PUSH2 0x1762 PUSH2 0x14CB JUMP JUMPDEST PUSH2 0x1776 DUP2 PUSH2 0x1770 DUP5 SLOAD PUSH2 0x167E JUMP JUMPDEST DUP5 PUSH2 0x16E9 JUMP JUMPDEST PUSH0 PUSH1 0x1F DUP3 GT PUSH1 0x1 DUP2 EQ PUSH2 0x17AA JUMPI PUSH0 DUP4 ISZERO PUSH2 0x1790 JUMPI POP DUP5 DUP3 ADD SLOAD JUMPDEST PUSH1 0x1 DUP5 SWAP1 SHL PUSH0 NOT PUSH1 0x3 DUP7 SWAP1 SHL SHR NOT DUP3 AND OR JUMPDEST DUP6 SSTORE POP PUSH2 0x172D JUMP JUMPDEST PUSH0 DUP6 DUP2 MSTORE PUSH1 0x20 DUP1 DUP3 KECCAK256 DUP7 DUP4 MSTORE SWAP1 DUP3 KECCAK256 PUSH1 0x1F NOT DUP7 AND SWAP3 JUMPDEST DUP4 DUP2 LT ISZERO PUSH2 0x17E0 JUMPI DUP3 DUP7 ADD SLOAD DUP3 SSTORE PUSH1 0x1 SWAP6 DUP7 ADD SWAP6 SWAP1 SWAP2 ADD SWAP1 PUSH1 0x20 ADD PUSH2 0x17C0 JUMP JUMPDEST POP DUP6 DUP4 LT ISZERO PUSH2 0x17FD JUMPI DUP2 DUP6 ADD SLOAD PUSH0 NOT PUSH1 0x3 DUP9 SWAP1 SHL PUSH1 0xF8 AND SHR NOT AND DUP2 SSTORE JUMPDEST POP POP POP POP POP PUSH1 0x1 SWAP1 DUP2 SHL ADD SWAP1 SSTORE POP JUMP JUMPDEST PUSH4 0x4E487B71 PUSH1 0xE0 SHL PUSH0 MSTORE PUSH1 0x31 PUSH1 0x4 MSTORE PUSH1 0x24 PUSH0 REVERT JUMPDEST PUSH1 0x20 DUP1 DUP3 MSTORE PUSH1 0xB SWAP1 DUP3 ADD MSTORE PUSH11 0x27B7363C9036B2B6B132B9 PUSH1 0xA9 SHL PUSH1 0x40 DUP3 ADD MSTORE PUSH1 0x60 ADD SWAP1 JUMP JUMPDEST PUSH4 0x4E487B71 PUSH1 0xE0 SHL PUSH0 MSTORE PUSH1 0x21 PUSH1 0x4 MSTORE PUSH1 0x24 PUSH0 REVERT JUMPDEST DUP2 MLOAD PUSH8 0xFFFFFFFFFFFFFFFF DUP2 GT ISZERO PUSH2 0x1874 JUMPI PUSH2 0x1874 PUSH2 0x14CB JUMP JUMPDEST PUSH2 0x1882 DUP2 PUSH2 0x1770 DUP5 SLOAD PUSH2 0x167E JUMP JUMPDEST PUSH1 0x20 PUSH1 0x1F DUP3 GT PUSH1 0x1 DUP2 EQ PUSH2 0x18B2 JUMPI PUSH0 DUP4 ISZERO PUSH2 0x1790 JUMPI POP DUP2 DUP6 ADD MLOAD PUSH1 0x1 DUP5 SWAP1 SHL PUSH0 NOT PUSH1 0x3 DUP7 SWAP1 SHL SHR NOT DUP3 AND OR PUSH2 0x17A2 JUMP JUMPDEST PUSH0 DUP5 DUP2 MSTORE PUSH1 0x20 DUP2 KECCAK256 PUSH1 0x1F NOT DUP6 AND SWAP2 JUMPDEST DUP3 DUP2 LT ISZERO PUSH2 0x18E1 JUMPI DUP8 DUP6 ADD MLOAD DUP3 SSTORE PUSH1 0x20 SWAP5 DUP6 ADD SWAP5 PUSH1 0x1 SWAP1 SWAP3 ADD SWAP2 ADD PUSH2 0x18C1 JUMP JUMPDEST POP DUP5 DUP3 LT ISZERO PUSH2 0x18FE JUMPI DUP7 DUP5 ADD MLOAD PUSH0 NOT PUSH1 0x3 DUP8 SWAP1 SHL PUSH1 0xF8 AND SHR NOT AND DUP2 SSTORE JUMPDEST POP POP POP POP PUSH1 0x1 SWAP1 DUP2 SHL ADD SWAP1 SSTORE POP JUMP INVALID LOG2 PUSH5 0x6970667358 0x22 SLT KECCAK256 0x1F LOG3 LOG3 BLOCKHASH 0xB7 0xDF LT SWAP3 PC PUSH23 0x97386F883531B102EC37D7A9C5D6AB162C0CEB5EE6E964 PUSH20 0x6F6C634300081A0033A2646970667358221220CE 0xE5 JUMPI 0xC2 0xAC PUSH12 0xE156F531B032D71657FF65B5 0xA9 0xCF SWAP13 ADDRESS 0xC SWAP10 REVERT DUP2 0xC PUSH26 0x7257F08864736F6C634300081A00330000000000000000000000 "
		},
		"gasEstimates": {
			"creation": {
				"codeDepositCost": "4574200",
				"executionCost": "infinite",
				"totalCost": "infinite"
			},
			"external": {
				"": "183",
				"createDebitCard(string,string,string,uint16,uint16)": "infinite",
				"createLoyalityCard(string,string)": "infinite",
				"createOrganisation(string)": "infinite",
				"createPassword(string,string,string,string)": "infinite",
				"deleteItem(uint8,address)": "infinite",
				"deposit()": "183",
				"getBalance()": "4565",
				"getItem(uint8)": "infinite",
				"getOrganisations()": "infinite",
				"sendTo(address,uint256)": "infinite",
				"withdraw(uint256)": "infinite"
			}
		},
		"methodIdentifiers": {
			"createDebitCard(string,string,string,uint16,uint16)": "14deffc1",
			"createLoyalityCard(string,string)": "3046e41b",
			"createOrganisation(string)": "98529dc5",
			"createPassword(string,string,string,string)": "97d27cd5",
			"deleteItem(uint8,address)": "26e3bc4e",
			"deposit()": "d0e30db0",
			"getBalance()": "12065fe0",
			"getItem(uint8)": "78bd5202",
			"getOrganisations()": "eaffd429",
			"sendTo(address,uint256)": "9e1a00aa",
			"withdraw(uint256)": "2e1a7d4d"
		}
	},
	"abi": [
		{
			"inputs": [
				{
					"internalType": "address payable",
					"name": "_owner",
					"type": "address"
				},
				{
					"internalType": "address",
					"name": "_manager",
					"type": "address"
				}
			],
			"stateMutability": "nonpayable",
			"type": "constructor"
		},
		{
			"stateMutability": "payable",
			"type": "fallback"
		},
		{
			"inputs": [
				{
					"internalType": "string",
					"name": "_name",
					"type": "string"
				},
				{
					"internalType": "string",
					"name": "_card_id",
					"type": "string"
				},
				{
					"internalType": "string",
					"name": "_name_on_card",
					"type": "string"
				},
				{
					"internalType": "uint16",
					"name": "_expire_at",
					"type": "uint16"
				},
				{
					"internalType": "uint16",
					"name": "_cvv",
					"type": "uint16"
				}
			],
			"name": "createDebitCard",
			"outputs": [],
			"stateMutability": "nonpayable",
			"type": "function"
		},
		{
			"inputs": [
				{
					"internalType": "string",
					"name": "_name",
					"type": "string"
				},
				{
					"internalType": "string",
					"name": "_card_id",
					"type": "string"
				}
			],
			"name": "createLoyalityCard",
			"outputs": [],
			"stateMutability": "nonpayable",
			"type": "function"
		},
		{
			"inputs": [
				{
					"internalType": "string",
					"name": "_name",
					"type": "string"
				}
			],
			"name": "createOrganisation",
			"outputs": [],
			"stateMutability": "nonpayable",
			"type": "function"
		},
		{
			"inputs": [
				{
					"internalType": "string",
					"name": "_name",
					"type": "string"
				},
				{
					"internalType": "string",
					"name": "_url",
					"type": "string"
				},
				{
					"internalType": "string",
					"name": "_user_name",
					"type": "string"
				},
				{
					"internalType": "string",
					"name": "_password",
					"type": "string"
				}
			],
			"name": "createPassword",
			"outputs": [],
			"stateMutability": "nonpayable",
			"type": "function"
		},
		{
			"inputs": [
				{
					"internalType": "enum Constants.ItemType",
					"name": "_type",
					"type": "uint8"
				},
				{
					"internalType": "address",
					"name": "_addr",
					"type": "address"
				}
			],
			"name": "deleteItem",
			"outputs": [],
			"stateMutability": "nonpayable",
			"type": "function"
		},
		{
			"inputs": [],
			"name": "deposit",
			"outputs": [],
			"stateMutability": "payable",
			"type": "function"
		},
		{
			"inputs": [],
			"name": "getBalance",
			"outputs": [
				{
					"internalType": "uint256",
					"name": "",
					"type": "uint256"
				}
			],
			"stateMutability": "view",
			"type": "function"
		},
		{
			"inputs": [
				{
					"internalType": "enum Constants.ItemType",
					"name": "_type",
					"type": "uint8"
				}
			],
			"name": "getItem",
			"outputs": [
				{
					"internalType": "address[]",
					"name": "",
					"type": "address[]"
				}
			],
			"stateMutability": "view",
			"type": "function"
		},
		{
			"inputs": [],
			"name": "getOrganisations",
			"outputs": [
				{
					"internalType": "address[]",
					"name": "",
					"type": "address[]"
				}
			],
			"stateMutability": "view",
			"type": "function"
		},
		{
			"inputs": [
				{
					"internalType": "address payable",
					"name": "_to",
					"type": "address"
				},
				{
					"internalType": "uint256",
					"name": "_amount",
					"type": "uint256"
				}
			],
			"name": "sendTo",
			"outputs": [],
			"stateMutability": "payable",
			"type": "function"
		},
		{
			"inputs": [
				{
					"internalType": "uint256",
					"name": "_amount",
					"type": "uint256"
				}
			],
			"name": "withdraw",
			"outputs": [],
			"stateMutability": "payable",
			"type": "function"
		},
		{
			"stateMutability": "payable",
			"type": "receive"
		}
	]
}