{
	"data": {
		"bytecode": {
			"linkReferences": {},
			"object": "6080604052348015600e575f80fd5b50604051616fba380380616fba833981016040819052602b916070565b5f80546001600160a01b039384166001600160a01b0319918216179091556001805492909316911617905560a3565b6001600160a01b0381168114606d575f80fd5b50565b5f80604083850312156080575f80fd5b8251608981605a565b6020840151909250609881605a565b809150509250929050565b616f0a806100b05f395ff3fe6080604052600436106100ad575f3560e01c806312065fe0146100b657806314deffc1146100dd5780632e1a7d4d146100fc5780633046e41b1461010f5780633129e7731461012e578063597f56111461015a5780637e71790e1461017957806397d27cd5146101985780639e1a00aa146101b75780639f91786f146101ca578063bfb24897146101e9578063ca79ec2c14610208578063d0e30db0146100b4578063d5747b321461022757005b366100b457005b005b3480156100c1575f80fd5b506100ca610246565b6040519081526020015b60405180910390f35b3480156100e8575f80fd5b506100b46100f7366004610f36565b610293565b6100b461010a366004610fe2565b610385565b34801561011a575f80fd5b506100b4610129366004610ff9565b610457565b348015610139575f80fd5b5061014d610148366004610fe2565b610539565b6040516100d4919061105c565b348015610165575f80fd5b5061014d610174366004610fe2565b61058d565b348015610184575f80fd5b506100b46101933660046110a7565b6105d9565b3480156101a3575f80fd5b506100b46101b2366004611113565b6106c3565b6100b46101c53660046111df565b6107b0565b3480156101d5575f80fd5b506100b46101e4366004611209565b6108ca565b3480156101f4575f80fd5b506100b4610203366004611257565b61095f565b348015610213575f80fd5b506100b4610222366004611257565b6109a9565b348015610232575f80fd5b506100b4610241366004611257565b6109f3565b5f80546001600160a01b031633148061026957506001546001600160a01b031633145b61028e5760405162461bcd60e51b81526004016102859061127a565b60405180910390fd5b504790565b5f546001600160a01b03163314806102b557506001546001600160a01b031633145b6102d15760405162461bcd60e51b81526004016102859061127a565b60015f9081526002602052546040517fe90b7bceb6e7df5418fb78d8ee546e97c83a08bbccc01a0644d599ccd2a7c2e091879187918791879187916001600160a01b0390911690309061032390610e47565b61033397969594939291906112cc565b604051809103905ff08015801561034c573d5f803e3d5ffd5b5081546001810183555f928352602090922090910180546001600160a01b0319166001600160a01b039092169190911790555050505050565b5f546001600160a01b03163314806103a757506001546001600160a01b031633145b6103c35760405162461bcd60e51b81526004016102859061127a565b804710156103e35760405162461bcd60e51b815260040161028590611339565b5f80546040516001600160a01b039091169083908381818185875af1925050503d805f811461042d576040519150601f19603f3d011682016040523d82523d5f602084013e610432565b606091505b50509050806104535760405162461bcd60e51b81526004016102859061135f565b5050565b5f546001600160a01b031633148061047957506001546001600160a01b031633145b6104955760405162461bcd60e51b81526004016102859061127a565b5f8080526002602052546040517fac33ff75c19e70fe83507db0d683fd3465c996598dc972688b7ace676c89077b91849184916001600160a01b03169030906104dd90610e54565b6104ea949392919061137f565b604051809103905ff080158015610503573d5f803e3d5ffd5b5081546001810183555f928352602090922090910180546001600160a01b0319166001600160a01b039092169190911790555050565b5f546060906001600160a01b031633148061055e57506001546001600160a01b031633145b61057a5760405162461bcd60e51b81526004016102859061127a565b610585826002610a3d565b90505b919050565b5f546060906001600160a01b03163314806105b257506001546001600160a01b031633145b6105ce5760405162461bcd60e51b81526004016102859061127a565b610585826003610a3d565b5f546001600160a01b03163314806105fb57506001546001600160a01b031633145b6106175760405162461bcd60e51b81526004016102859061127a565b60045f9081526002602052546040517fee60d0579bcffd98e668647d59fec1ff86a7fb340ce572e844f234ae73a6918f918591859185916001600160a01b0390911690309061066590610e61565b6106739594939291906113c8565b604051809103905ff08015801561068c573d5f803e3d5ffd5b5081546001810183555f928352602090922090910180546001600160a01b0319166001600160a01b03909216919091179055505050565b5f546001600160a01b03163314806106e557506001546001600160a01b031633145b6107015760405162461bcd60e51b81526004016102859061127a565b60025f818152602091909152546040517f679795a0195a1b76cdebb7c51d74e058aee92919b8c3389af86ef24535e8a28c9186918691869186916001600160a01b031690309061075090610e6e565b61075f96959493929190611414565b604051809103905ff080158015610778573d5f803e3d5ffd5b5081546001810183555f928352602090922090910180546001600160a01b0319166001600160a01b0390921691909117905550505050565b5f546001600160a01b03163314806107d257506001546001600160a01b031633145b6107ee5760405162461bcd60e51b81526004016102859061127a565b6001600160a01b0382166108365760405162461bcd60e51b815260206004820152600f60248201526e496e76616c6964206164647265737360881b6044820152606401610285565b804710156108565760405162461bcd60e51b815260040161028590611339565b5f826001600160a01b0316826040515f6040518083038185875af1925050503d805f811461089f576040519150601f19603f3d011682016040523d82523d5f602084013e6108a4565b606091505b50509050806108c55760405162461bcd60e51b81526004016102859061135f565b505050565b5f546001600160a01b03163314806108ec57506001546001600160a01b031633145b6109085760405162461bcd60e51b81526004016102859061127a565b60035f9081526002602052546040517f88601476d11616a71c5be67555bd1dff4b1cbf21533d2669b768b61518cfe1c391849184916001600160a01b031690309061095290610e7b565b6104ea9493929190611487565b5f546001600160a01b031633148061098157506001546001600160a01b031633145b61099d5760405162461bcd60e51b81526004016102859061127a565b61045382600383610aa6565b5f546001600160a01b03163314806109cb57506001546001600160a01b031633145b6109e75760405162461bcd60e51b81526004016102859061127a565b61045360028383610b67565b5f546001600160a01b0316331480610a1557506001546001600160a01b031633145b610a315760405162461bcd60e51b81526004016102859061127a565b61045382600383610c20565b5f8281526020828152604091829020805483518184028101840190945280845260609392830182828015610a9857602002820191905f5260205f20905b81546001600160a01b03168152600190910190602001808311610a7a575b505050505090505b92915050565b5f838152602083815260408083208054825181850281018501909352808352610b0f938693929190830182828015610b0557602002820191905f5260205f20905b81546001600160a01b03168152600190910190602001808311610ae7575b5050505050610cff565b90505f1981138015610b2d57505f8481526020849052604090205481125b610b495760405162461bcd60e51b8152600401610285906114c2565b5f848152602084905260409020610b61908290610d56565b50505050565b5f828152602084815260408083208054825181850281018501909352808352610bce938693929190830182828015610b0557602002820191905f5260205f209081546001600160a01b03168152600190910190602001808311610ae7575050505050610cff565b90505f1981138015610bec57505f8381526020859052604090205481125b610c085760405162461bcd60e51b8152600401610285906114c2565b5f838152602085905260409020610b61908290610d56565b610c8e81835f8681526020019081526020015f20805480602002602001604051908101604052809291908181526020018280548015610b0557602002820191905f5260205f209081546001600160a01b03168152600190910190602001808311610ae7575050505050610cff565b5f1914610cc35760405162461bcd60e51b815260206004820152600360248201526234303960e81b6044820152606401610285565b5f9283526020918252604083208054600181018255908452919092200180546001600160a01b0319166001600160a01b03909216919091179055565b5f805b8251811015610d4c57836001600160a01b0316838281518110610d2757610d276114df565b60200260200101516001600160a01b031603610d44579050610aa0565b600101610d02565b505f199392505050565b5f8212158015610d665750805482105b610d825760405162461bcd60e51b8152600401610285906114c2565b815b8154610d9290600190611507565b811015610e125781610da582600161151a565b81548110610db557610db56114df565b905f5260205f20015f9054906101000a90046001600160a01b0316828281548110610de257610de26114df565b5f91825260209091200180546001600160a01b0319166001600160a01b0392909216919091179055600101610d84565b5080805480610e2357610e2361152d565b5f8281526020902081015f1990810180546001600160a01b03191690550190555050565b6114a98061154283390190565b61113e806129eb83390190565b610f1d80613b2983390190565b61140e80614a4683390190565b61108180615e5483390190565b634e487b7160e01b5f52604160045260245ffd5b5f82601f830112610eab575f80fd5b81356001600160401b03811115610ec457610ec4610e88565b604051601f8201601f19908116603f011681016001600160401b0381118282101715610ef257610ef2610e88565b604052818152838201602001851015610f09575f80fd5b816020850160208301375f918101602001919091529392505050565b803561ffff81168114610588575f80fd5b5f805f805f60a08688031215610f4a575f80fd5b85356001600160401b03811115610f5f575f80fd5b610f6b88828901610e9c565b95505060208601356001600160401b03811115610f86575f80fd5b610f9288828901610e9c565b94505060408601356001600160401b03811115610fad575f80fd5b610fb988828901610e9c565b935050610fc860608701610f25565b9150610fd660808701610f25565b90509295509295909350565b5f60208284031215610ff2575f80fd5b5035919050565b5f806040838503121561100a575f80fd5b82356001600160401b0381111561101f575f80fd5b61102b85828601610e9c565b92505060208301356001600160401b03811115611046575f80fd5b61105285828601610e9c565b9150509250929050565b602080825282518282018190525f918401906040840190835b8181101561109c5783516001600160a01b0316835260209384019390920191600101611075565b509095945050505050565b5f805f606084860312156110b9575f80fd5b83356001600160401b038111156110ce575f80fd5b6110da86828701610e9c565b93505060208401356001600160401b038111156110f5575f80fd5b61110186828701610e9c565b93969395505050506040919091013590565b5f805f8060808587031215611126575f80fd5b84356001600160401b0381111561113b575f80fd5b61114787828801610e9c565b94505060208501356001600160401b03811115611162575f80fd5b61116e87828801610e9c565b93505060408501356001600160401b03811115611189575f80fd5b61119587828801610e9c565b92505060608501356001600160401b038111156111b0575f80fd5b6111bc87828801610e9c565b91505092959194509250565b6001600160a01b03811681146111dc575f80fd5b50565b5f80604083850312156111f0575f80fd5b82356111fb816111c8565b946020939093013593505050565b5f806040838503121561121a575f80fd5b82356001600160401b0381111561122f575f80fd5b61123b85828601610e9c565b925050602083013561124c816111c8565b809150509250929050565b5f8060408385031215611268575f80fd5b82359150602083013561124c816111c8565b6020808252600a908201526927b7363c9037bbb732b960b11b604082015260600190565b5f81518084528060208401602086015e5f602082860101526020601f19601f83011685010191505092915050565b60e081525f6112de60e083018a61129e565b82810360208401526112f0818a61129e565b90508281036040840152611304818961129e565b61ffff9788166060850152959096166080830152506001600160a01b0392831660a0820152911660c090910152949350505050565b6020808252600c908201526b125b9cdd59999a58da595b9d60a21b604082015260600190565b60208082526006908201526511985a5b195960d21b604082015260600190565b608081525f611391608083018761129e565b82810360208401526113a3818761129e565b6001600160a01b03958616604085015293909416606090920191909152509392505050565b60a081525f6113da60a083018861129e565b82810360208401526113ec818861129e565b604084019690965250506001600160a01b039283166060820152911660809091015292915050565b60c081525f61142660c083018961129e565b8281036020840152611438818961129e565b9050828103604084015261144c818861129e565b90508281036060840152611460818761129e565b6001600160a01b0395861660808501529390941660a0909201919091525095945050505050565b608081525f611499608083018761129e565b6001600160a01b0395861660208401529385166040830152509216606090920191909152919050565b6020808252600390820152620d0c0d60ea1b604082015260600190565b634e487b7160e01b5f52603260045260245ffd5b634e487b7160e01b5f52601160045260245ffd5b81810381811115610aa057610aa06114f3565b80820180821115610aa057610aa06114f3565b634e487b7160e01b5f52603160045260245ffdfe608060405234801561000f575f80fd5b506040516114a93803806114a983398101604081905261002e916101b3565b5f6001819055878383836100428482610307565b50600280546001600160a01b039384166001600160a01b03199182161790915560038054929093169116179055506005905061007e8782610307565b50600661008b8682610307565b506007805461ffff858116620100000263ffffffff19909216908716171790556040513381527f1449abf21e49fd025f33495e77f7b1461caefdd3d4bb646424a3f445c4576a5b9060200160405180910390a1505050505050506103c1565b634e487b7160e01b5f52604160045260245ffd5b5f82601f83011261010d575f80fd5b81516001600160401b03811115610126576101266100ea565b604051601f8201601f19908116603f011681016001600160401b0381118282101715610154576101546100ea565b60405281815283820160200185101561016b575f80fd5b8160208501602083015e5f918101602001919091529392505050565b805161ffff81168114610198575f80fd5b919050565b80516001600160a01b0381168114610198575f80fd5b5f805f805f805f60e0888a0312156101c9575f80fd5b87516001600160401b038111156101de575f80fd5b6101ea8a828b016100fe565b60208a015190985090506001600160401b03811115610207575f80fd5b6102138a828b016100fe565b60408a015190975090506001600160401b03811115610230575f80fd5b61023c8a828b016100fe565b95505061024b60608901610187565b935061025960808901610187565b925061026760a0890161019d565b915061027560c0890161019d565b905092959891949750929550565b600181811c9082168061029757607f821691505b6020821081036102b557634e487b7160e01b5f52602260045260245ffd5b50919050565b601f82111561030257805f5260205f20601f840160051c810160208510156102e05750805b601f840160051c820191505b818110156102ff575f81556001016102ec565b50505b505050565b81516001600160401b03811115610320576103206100ea565b6103348161032e8454610283565b846102bb565b6020601f821160018114610366575f831561034f5750848201515b5f19600385901b1c1916600184901b1784556102ff565b5f84815260208120601f198516915b828110156103955787850151825560209485019460019092019101610375565b50848210156103b257868401515f19600387901b60f8161c191681555b50505050600190811b01905550565b6110db806103ce5f395ff3fe608060405234801561000f575f80fd5b50600436106100b8575f3560e01c80630dbef92c146100bc57806326c7b327146100d157806340aa5c71146100ed578063478e5cb3146101005780634ba83374146101135780635da6ef8d1461012b57806380f760211461013e578063a95264d014610153578063b9daf3e214610168578063ba379e8614610170578063c40da77014610189578063c47f00271461019c578063ded92dac146101af578063efd8af9f146101c2575b5f80fd5b6100cf6100ca366004610c84565b6101d5565b005b6100da60015481565b6040519081526020015b60405180910390f35b6100cf6100fb366004610cd3565b610251565b6100cf61010e366004610cf3565b6102be565b61011b61036e565b60405190151581526020016100e4565b6100cf610139366004610d9f565b6103da565b610146610517565b6040516100e49190610dc5565b61015b610568565b6040516100e49190610dd9565b61011b610608565b610178610632565b6040516100e4959493929190610e52565b6100cf610197366004610cd3565b61089e565b6100cf6101aa366004610c84565b610912565b6100cf6101bd366004610d9f565b61095c565b6100cf6101d0366004610c84565b610a52565b6002546001600160a01b03163314806101f857506003546001600160a01b031633145b61021d5760405162461bcd60e51b815260040161021490610eab565b60405180910390fd5b60066102298282610f4c565b505f80516020611086833981519152336040516102469190610dc5565b60405180910390a150565b6002546001600160a01b031633148061027457506003546001600160a01b031633145b6102905760405162461bcd60e51b815260040161021490610eab565b6007805461ffff191661ffff83161790556040515f8051602061108683398151915290610246903390610dc5565b6002546001600160a01b03163314806102e157506003546001600160a01b031633145b6102fd5760405162461bcd60e51b815260040161021490610eab565b5f6103088682610f4c565b5060056103158582610f4c565b5060066103228482610f4c565b506007805461ffff838116620100000263ffffffff19909216908516171790556040515f805160206110868339815191529061035f903390610dc5565b60405180910390a15050505050565b5f6103d13360048054806020026020016040519081016040528092919081815260200182805480156103c757602002820191905f5260205f20905b81546001600160a01b031681526001909101906020018083116103a9575b5050505050610a9d565b5f191415905090565b6002546001600160a01b03163314806103fd57506003546001600160a01b031633145b6104195760405162461bcd60e51b815260040161021490610eab565b6002546001600160a01b0382811691161480159061043f57506001600160a01b03811615155b80156104aa57506104a68160048054806020026020016040519081016040528092919081815260200182805480156103c757602002820191905f5260205f209081546001600160a01b031681526001909101906020018083116103a9575050505050610a9d565b5f19145b6104c65760405162461bcd60e51b815260040161021490610eab565b600480546001810182555f919091527f8a35acfbc15ff81a39ae7d344fd709f28e8600b4aa8c65c6b64bfe7fe36bd19b0180546001600160a01b0319166001600160a01b0392909216919091179055565b6002545f906001600160a01b031633148061053c57506003546001600160a01b031633145b6105585760405162461bcd60e51b815260040161021490610eab565b506003546001600160a01b031690565b6002546060906001600160a01b031633148061058e57506003546001600160a01b031633145b6105aa5760405162461bcd60e51b815260040161021490610eab565b60048054806020026020016040519081016040528092919081815260200182805480156105fe57602002820191905f5260205f20905b81546001600160a01b031681526001909101906020018083116105e0575b5050505050905090565b6002545f906001600160a01b031633148061062d57506003546001600160a01b031633145b905090565b600254606090819081905f9081906001600160a01b03163314806106b657506106b13360048054806020026020016040519081016040528092919081815260200182805480156103c757602002820191905f5260205f209081546001600160a01b031681526001909101906020018083116103a9575050505050610a9d565b5f1914155b6106d25760405162461bcd60e51b815260040161021490610eab565b6007545f8054909160059160069161ffff8082169262010000909204169085906106fb90610ec8565b80601f016020809104026020016040519081016040528092919081815260200182805461072790610ec8565b80156107725780601f1061074957610100808354040283529160200191610772565b820191905f5260205f20905b81548152906001019060200180831161075557829003601f168201915b5050505050945083805461078590610ec8565b80601f01602080910402602001604051908101604052809291908181526020018280546107b190610ec8565b80156107fc5780601f106107d3576101008083540402835291602001916107fc565b820191905f5260205f20905b8154815290600101906020018083116107df57829003601f168201915b5050505050935082805461080f90610ec8565b80601f016020809104026020016040519081016040528092919081815260200182805461083b90610ec8565b80156108865780601f1061085d57610100808354040283529160200191610886565b820191905f5260205f20905b81548152906001019060200180831161086957829003601f168201915b50505050509250945094509450945094509091929394565b6002546001600160a01b03163314806108c157506003546001600160a01b031633145b6108dd5760405162461bcd60e51b815260040161021490610eab565b6007805463ffff000019166201000061ffff8416021790556040515f8051602061108683398151915290610246903390610dc5565b6002546001600160a01b031633148061093557506003546001600160a01b031633145b6109515760405162461bcd60e51b815260040161021490610eab565b5f6102298282610f4c565b6001600160a01b0381161515806109a457506003546001600160a01b031633148061099157506002546001600160a01b031633145b806109a45750336001600160a01b038216145b6109c05760405162461bcd60e51b815260040161021490610eab565b5f610a218260048054806020026020016040519081016040528092919081815260200182805480156103c757602002820191905f5260205f209081546001600160a01b031681526001909101906020018083116103a9575050505050610a9d565b90505f198113610a435760405162461bcd60e51b815260040161021490611006565b610a4e816004610af6565b5050565b6002546001600160a01b0316331480610a7557506003546001600160a01b031633145b610a915760405162461bcd60e51b815260040161021490610eab565b60056102298282610f4c565b5f805b8251811015610aea57836001600160a01b0316838281518110610ac557610ac5611023565b60200260200101516001600160a01b031603610ae2579050610af0565b600101610aa0565b505f1990505b92915050565b5f8212158015610b065750805482105b610b225760405162461bcd60e51b815260040161021490611006565b815b8154610b329060019061104b565b811015610bb25781610b4582600161105e565b81548110610b5557610b55611023565b905f5260205f20015f9054906101000a90046001600160a01b0316828281548110610b8257610b82611023565b5f91825260209091200180546001600160a01b0319166001600160a01b0392909216919091179055600101610b24565b5080805480610bc357610bc3611071565b5f8281526020902081015f1990810180546001600160a01b03191690550190555050565b634e487b7160e01b5f52604160045260245ffd5b5f82601f830112610c0a575f80fd5b81356001600160401b03811115610c2357610c23610be7565b604051601f8201601f19908116603f011681016001600160401b0381118282101715610c5157610c51610be7565b604052818152838201602001851015610c68575f80fd5b816020850160208301375f918101602001919091529392505050565b5f60208284031215610c94575f80fd5b81356001600160401b03811115610ca9575f80fd5b610cb584828501610bfb565b949350505050565b803561ffff81168114610cce575f80fd5b919050565b5f60208284031215610ce3575f80fd5b610cec82610cbd565b9392505050565b5f805f805f60a08688031215610d07575f80fd5b85356001600160401b03811115610d1c575f80fd5b610d2888828901610bfb565b95505060208601356001600160401b03811115610d43575f80fd5b610d4f88828901610bfb565b94505060408601356001600160401b03811115610d6a575f80fd5b610d7688828901610bfb565b935050610d8560608701610cbd565b9150610d9360808701610cbd565b90509295509295909350565b5f60208284031215610daf575f80fd5b81356001600160a01b0381168114610cec575f80fd5b6001600160a01b0391909116815260200190565b602080825282518282018190525f918401906040840190835b81811015610e195783516001600160a01b0316835260209384019390920191600101610df2565b509095945050505050565b5f81518084528060208401602086015e5f602082860101526020601f19601f83011685010191505092915050565b60a081525f610e6460a0830188610e24565b8281036020840152610e768188610e24565b90508281036040840152610e8a8187610e24565b91505061ffff8416606083015261ffff831660808301529695505050505050565b60208082526003908201526234303360e81b604082015260600190565b600181811c90821680610edc57607f821691505b602082108103610efa57634e487b7160e01b5f52602260045260245ffd5b50919050565b601f821115610f4757805f5260205f20601f840160051c81016020851015610f255750805b601f840160051c820191505b81811015610f44575f8155600101610f31565b50505b505050565b81516001600160401b03811115610f6557610f65610be7565b610f7981610f738454610ec8565b84610f00565b6020601f821160018114610fab575f8315610f945750848201515b5f19600385901b1c1916600184901b178455610f44565b5f84815260208120601f198516915b82811015610fda5787850151825560209485019460019092019101610fba565b5084821015610ff757868401515f19600387901b60f8161c191681555b50505050600190811b01905550565b6020808252600390820152620d0c0d60ea1b604082015260600190565b634e487b7160e01b5f52603260045260245ffd5b634e487b7160e01b5f52601160045260245ffd5b81810381811115610af057610af0611037565b80820180821115610af057610af0611037565b634e487b7160e01b5f52603160045260245ffdfee00da2178806f37f69815e9ed5ed3072ec1d55206d60916d99b469c7daa421e4a26469706673582212206999e53b8a564efbf4add36eb4f82d471c4dbc14260dd7c09cda1c3181a0172c64736f6c634300081a0033608060405234801561000f575f80fd5b5060405161113e38038061113e83398101604081905261002e916101a3565b5f60018190558483838361004284826102ac565b50600280546001600160a01b039384166001600160a01b03199182161790915560038054929093169116179055506005905061007e84826102ac565b50600280546001600160a01b038481166001600160a01b03199283161790925560038054928416929091169190911790556040513381527f1449abf21e49fd025f33495e77f7b1461caefdd3d4bb646424a3f445c4576a5b9060200160405180910390a150505050610366565b634e487b7160e01b5f52604160045260245ffd5b5f82601f83011261010e575f80fd5b81516001600160401b03811115610127576101276100eb565b604051601f8201601f19908116603f011681016001600160401b0381118282101715610155576101556100eb565b60405281815283820160200185101561016c575f80fd5b8160208501602083015e5f918101602001919091529392505050565b80516001600160a01b038116811461019e575f80fd5b919050565b5f805f80608085870312156101b6575f80fd5b84516001600160401b038111156101cb575f80fd5b6101d7878288016100ff565b602087015190955090506001600160401b038111156101f4575f80fd5b610200878288016100ff565b93505061020f60408601610188565b915061021d60608601610188565b905092959194509250565b600181811c9082168061023c57607f821691505b60208210810361025a57634e487b7160e01b5f52602260045260245ffd5b50919050565b601f8211156102a757805f5260205f20601f840160051c810160208510156102855750805b601f840160051c820191505b818110156102a4575f8155600101610291565b50505b505050565b81516001600160401b038111156102c5576102c56100eb565b6102d9816102d38454610228565b84610260565b6020601f82116001811461030b575f83156102f45750848201515b5f19600385901b1c1916600184901b1784556102a4565b5f84815260208120601f198516915b8281101561033a578785015182556020948501946001909201910161031a565b508482101561035757868401515f19600387901b60f8161c191681555b50505050600190811b01905550565b610dcb806103735f395ff3fe608060405234801561000f575f80fd5b5060043610610097575f3560e01c806326c7b3271461009b5780634ba83374146100b75780635da6ef8d146100cf5780637a4c982e146100e457806380f76021146100f7578063a95264d01461010c578063b9daf3e214610121578063ba379e8614610129578063c47f00271461013f578063ded92dac14610152578063efd8af9f14610165575b5f80fd5b6100a460015481565b6040519081526020015b60405180910390f35b6100bf610178565b60405190151581526020016100ae565b6100e26100dd36600461097b565b6101e4565b005b6100e26100f2366004610a45565b61032a565b6100ff6103aa565b6040516100ae9190610aa8565b6101146103fb565b6040516100ae9190610abc565b6100bf61049b565b6101316104c5565b6040516100ae929190610b35565b6100e261014d366004610b62565b61067e565b6100e261016036600461097b565b6106f0565b6100e2610173366004610b62565b6107e6565b5f6101db3360048054806020026020016040519081016040528092919081815260200182805480156101d157602002820191905f5260205f20905b81546001600160a01b031681526001909101906020018083116101b3575b5050505050610831565b5f191415905090565b6002546001600160a01b031633148061020757506003546001600160a01b031633145b61022c5760405162461bcd60e51b815260040161022390610b9b565b60405180910390fd5b6002546001600160a01b0382811691161480159061025257506001600160a01b03811615155b80156102bd57506102b98160048054806020026020016040519081016040528092919081815260200182805480156101d157602002820191905f5260205f209081546001600160a01b031681526001909101906020018083116101b3575050505050610831565b5f19145b6102d95760405162461bcd60e51b815260040161022390610b9b565b600480546001810182555f919091527f8a35acfbc15ff81a39ae7d344fd709f28e8600b4aa8c65c6b64bfe7fe36bd19b0180546001600160a01b0319166001600160a01b0392909216919091179055565b6002546001600160a01b031633148061034d57506003546001600160a01b031633145b6103695760405162461bcd60e51b815260040161022390610b9b565b5f6103748382610c3c565b5060056103818282610c3c565b505f80516020610d768339815191523360405161039e9190610aa8565b60405180910390a15050565b6002545f906001600160a01b03163314806103cf57506003546001600160a01b031633145b6103eb5760405162461bcd60e51b815260040161022390610b9b565b506003546001600160a01b031690565b6002546060906001600160a01b031633148061042157506003546001600160a01b031633145b61043d5760405162461bcd60e51b815260040161022390610b9b565b600480548060200260200160405190810160405280929190818152602001828054801561049157602002820191905f5260205f20905b81546001600160a01b03168152600190910190602001808311610473575b5050505050905090565b6002545f906001600160a01b03163314806104c057506003546001600160a01b031633145b905090565b60025460609081906001600160a01b0316331480610543575061053e3360048054806020026020016040519081016040528092919081815260200182805480156101d157602002820191905f5260205f209081546001600160a01b031681526001909101906020018083116101b3575050505050610831565b5f1914155b61055f5760405162461bcd60e51b815260040161022390610b9b565b5f600581805461056e90610bb8565b80601f016020809104026020016040519081016040528092919081815260200182805461059a90610bb8565b80156105e55780601f106105bc576101008083540402835291602001916105e5565b820191905f5260205f20905b8154815290600101906020018083116105c857829003601f168201915b505050505091508080546105f890610bb8565b80601f016020809104026020016040519081016040528092919081815260200182805461062490610bb8565b801561066f5780601f106106465761010080835404028352916020019161066f565b820191905f5260205f20905b81548152906001019060200180831161065257829003601f168201915b50505050509050915091509091565b6002546001600160a01b03163314806106a157506003546001600160a01b031633145b6106bd5760405162461bcd60e51b815260040161022390610b9b565b5f6106c88282610c3c565b505f80516020610d76833981519152336040516106e59190610aa8565b60405180910390a150565b6001600160a01b03811615158061073857506003546001600160a01b031633148061072557506002546001600160a01b031633145b806107385750336001600160a01b038216145b6107545760405162461bcd60e51b815260040161022390610b9b565b5f6107b58260048054806020026020016040519081016040528092919081815260200182805480156101d157602002820191905f5260205f209081546001600160a01b031681526001909101906020018083116101b3575050505050610831565b90505f1981136107d75760405162461bcd60e51b815260040161022390610cf6565b6107e281600461088a565b5050565b6002546001600160a01b031633148061080957506003546001600160a01b031633145b6108255760405162461bcd60e51b815260040161022390610b9b565b60056106c88282610c3c565b5f805b825181101561087e57836001600160a01b031683828151811061085957610859610d13565b60200260200101516001600160a01b031603610876579050610884565b600101610834565b505f1990505b92915050565b5f821215801561089a5750805482105b6108b65760405162461bcd60e51b815260040161022390610cf6565b815b81546108c690600190610d3b565b81101561094657816108d9826001610d4e565b815481106108e9576108e9610d13565b905f5260205f20015f9054906101000a90046001600160a01b031682828154811061091657610916610d13565b5f91825260209091200180546001600160a01b0319166001600160a01b03929092169190911790556001016108b8565b508080548061095757610957610d61565b5f8281526020902081015f1990810180546001600160a01b03191690550190555050565b5f6020828403121561098b575f80fd5b81356001600160a01b03811681146109a1575f80fd5b9392505050565b634e487b7160e01b5f52604160045260245ffd5b5f82601f8301126109cb575f80fd5b81356001600160401b038111156109e4576109e46109a8565b604051601f8201601f19908116603f011681016001600160401b0381118282101715610a1257610a126109a8565b604052818152838201602001851015610a29575f80fd5b816020850160208301375f918101602001919091529392505050565b5f8060408385031215610a56575f80fd5b82356001600160401b03811115610a6b575f80fd5b610a77858286016109bc565b92505060208301356001600160401b03811115610a92575f80fd5b610a9e858286016109bc565b9150509250929050565b6001600160a01b0391909116815260200190565b602080825282518282018190525f918401906040840190835b81811015610afc5783516001600160a01b0316835260209384019390920191600101610ad5565b509095945050505050565b5f81518084528060208401602086015e5f602082860101526020601f19601f83011685010191505092915050565b604081525f610b476040830185610b07565b8281036020840152610b598185610b07565b95945050505050565b5f60208284031215610b72575f80fd5b81356001600160401b03811115610b87575f80fd5b610b93848285016109bc565b949350505050565b60208082526003908201526234303360e81b604082015260600190565b600181811c90821680610bcc57607f821691505b602082108103610bea57634e487b7160e01b5f52602260045260245ffd5b50919050565b601f821115610c3757805f5260205f20601f840160051c81016020851015610c155750805b601f840160051c820191505b81811015610c34575f8155600101610c21565b50505b505050565b81516001600160401b03811115610c5557610c556109a8565b610c6981610c638454610bb8565b84610bf0565b6020601f821160018114610c9b575f8315610c845750848201515b5f19600385901b1c1916600184901b178455610c34565b5f84815260208120601f198516915b82811015610cca5787850151825560209485019460019092019101610caa565b5084821015610ce757868401515f19600387901b60f8161c191681555b50505050600190811b01905550565b6020808252600390820152620d0c0d60ea1b604082015260600190565b634e487b7160e01b5f52603260045260245ffd5b634e487b7160e01b5f52601160045260245ffd5b8181038181111561088457610884610d27565b8082018082111561088457610884610d27565b634e487b7160e01b5f52603160045260245ffdfee00da2178806f37f69815e9ed5ed3072ec1d55206d60916d99b469c7daa421e4a2646970667358221220d8cdb8847f5deee7c900ef1fcaf4419652b659fba908421937fb1f4debd86b9064736f6c634300081a0033608060405234801561000f575f80fd5b50604051610f1d380380610f1d83398101604081905261002e9161017a565b600460018190558583835f610043848261028c565b50600280546001600160a01b039384166001600160a01b03199182161790915560038054929093169116179055506005905061007f858261028c565b5060068390556040513381527f1449abf21e49fd025f33495e77f7b1461caefdd3d4bb646424a3f445c4576a5b9060200160405180910390a15050505050610346565b634e487b7160e01b5f52604160045260245ffd5b5f82601f8301126100e5575f80fd5b81516001600160401b038111156100fe576100fe6100c2565b604051601f8201601f19908116603f011681016001600160401b038111828210171561012c5761012c6100c2565b604052818152838201602001851015610143575f80fd5b8160208501602083015e5f918101602001919091529392505050565b80516001600160a01b0381168114610175575f80fd5b919050565b5f805f805f60a0868803121561018e575f80fd5b85516001600160401b038111156101a3575f80fd5b6101af888289016100d6565b602088015190965090506001600160401b038111156101cc575f80fd5b6101d8888289016100d6565b945050604086015192506101ee6060870161015f565b91506101fc6080870161015f565b90509295509295909350565b600181811c9082168061021c57607f821691505b60208210810361023a57634e487b7160e01b5f52602260045260245ffd5b50919050565b601f82111561028757805f5260205f20601f840160051c810160208510156102655750805b601f840160051c820191505b81811015610284575f8155600101610271565b50505b505050565b81516001600160401b038111156102a5576102a56100c2565b6102b9816102b38454610208565b84610240565b6020601f8211600181146102eb575f83156102d45750848201515b5f19600385901b1c1916600184901b178455610284565b5f84815260208120601f198516915b8281101561031a57878501518255602094850194600190920191016102fa565b508482101561033757868401515f19600387901b60f8161c191681555b50505050600190811b01905550565b610bca806103535f395ff3fe608060405234801561000f575f80fd5b506004361061008c575f3560e01c806316ada5471461009057806326c7b327146100ac5780634ba83374146100b55780635da6ef8d146100cd57806380f76021146100e2578063a95264d0146100f7578063b9daf3e21461010c578063ba379e8614610114578063c47f002714610129578063ded92dac1461013c575b5f80fd5b61009960065481565b6040519081526020015b60405180910390f35b61009960015481565b6100bd61014f565b60405190151581526020016100a3565b6100e06100db366004610835565b6101bb565b005b6100ea610301565b6040516100a39190610862565b6100ff610352565b6040516100a39190610876565b6100bd6103f2565b61011c61041c565b6040516100a391906108c1565b6100e061013736600461090a565b610570565b6100e061014a366004610835565b6105f5565b5f6101b23360048054806020026020016040519081016040528092919081815260200182805480156101a857602002820191905f5260205f20905b81546001600160a01b0316815260019091019060200180831161018a575b50505050506106eb565b5f191415905090565b6002546001600160a01b03163314806101de57506003546001600160a01b031633145b6102035760405162461bcd60e51b81526004016101fa906109ba565b60405180910390fd5b6002546001600160a01b0382811691161480159061022957506001600160a01b03811615155b801561029457506102908160048054806020026020016040519081016040528092919081815260200182805480156101a857602002820191905f5260205f209081546001600160a01b0316815260019091019060200180831161018a5750505050506106eb565b5f19145b6102b05760405162461bcd60e51b81526004016101fa906109ba565b600480546001810182555f919091527f8a35acfbc15ff81a39ae7d344fd709f28e8600b4aa8c65c6b64bfe7fe36bd19b0180546001600160a01b0319166001600160a01b0392909216919091179055565b6002545f906001600160a01b031633148061032657506003546001600160a01b031633145b6103425760405162461bcd60e51b81526004016101fa906109ba565b506003546001600160a01b031690565b6002546060906001600160a01b031633148061037857506003546001600160a01b031633145b6103945760405162461bcd60e51b81526004016101fa906109ba565b60048054806020026020016040519081016040528092919081815260200182805480156103e857602002820191905f5260205f20905b81546001600160a01b031681526001909101906020018083116103ca575b5050505050905090565b6002545f906001600160a01b031633148061041757506003546001600160a01b031633145b905090565b6002546060906001600160a01b031633148061049857506104933360048054806020026020016040519081016040528092919081815260200182805480156101a857602002820191905f5260205f209081546001600160a01b0316815260019091019060200180831161018a5750505050506106eb565b5f1914155b6104b45760405162461bcd60e51b81526004016101fa906109ba565b42600654106104eb5760405162461bcd60e51b815260206004820152600360248201526234323560e81b60448201526064016101fa565b600580546104f8906109d7565b80601f0160208091040260200160405190810160405280929190818152602001828054610524906109d7565b80156103e85780601f10610546576101008083540402835291602001916103e8565b820191905f5260205f20905b81548152906001019060200180831161055257509395945050505050565b6002546001600160a01b031633148061059357506003546001600160a01b031633145b6105af5760405162461bcd60e51b81526004016101fa906109ba565b5f6105ba8282610a5b565b507fe00da2178806f37f69815e9ed5ed3072ec1d55206d60916d99b469c7daa421e4336040516105ea9190610862565b60405180910390a150565b6001600160a01b03811615158061063d57506003546001600160a01b031633148061062a57506002546001600160a01b031633145b8061063d5750336001600160a01b038216145b6106595760405162461bcd60e51b81526004016101fa906109ba565b5f6106ba8260048054806020026020016040519081016040528092919081815260200182805480156101a857602002820191905f5260205f209081546001600160a01b0316815260019091019060200180831161018a5750505050506106eb565b90505f1981136106dc5760405162461bcd60e51b81526004016101fa90610b15565b6106e7816004610744565b5050565b5f805b825181101561073857836001600160a01b031683828151811061071357610713610b32565b60200260200101516001600160a01b03160361073057905061073e565b6001016106ee565b505f1990505b92915050565b5f82121580156107545750805482105b6107705760405162461bcd60e51b81526004016101fa90610b15565b815b815461078090600190610b5a565b8110156108005781610793826001610b6d565b815481106107a3576107a3610b32565b905f5260205f20015f9054906101000a90046001600160a01b03168282815481106107d0576107d0610b32565b5f91825260209091200180546001600160a01b0319166001600160a01b0392909216919091179055600101610772565b508080548061081157610811610b80565b5f8281526020902081015f1990810180546001600160a01b03191690550190555050565b5f60208284031215610845575f80fd5b81356001600160a01b038116811461085b575f80fd5b9392505050565b6001600160a01b0391909116815260200190565b602080825282518282018190525f918401906040840190835b818110156108b65783516001600160a01b031683526020938401939092019160010161088f565b509095945050505050565b602081525f82518060208401528060208501604085015e5f604082850101526040601f19601f83011684010191505092915050565b634e487b7160e01b5f52604160045260245ffd5b5f6020828403121561091a575f80fd5b81356001600160401b0381111561092f575f80fd5b8201601f8101841361093f575f80fd5b80356001600160401b03811115610958576109586108f6565b604051601f8201601f19908116603f011681016001600160401b0381118282101715610986576109866108f6565b60405281815282820160200186101561099d575f80fd5b816020840160208301375f91810160200191909152949350505050565b60208082526003908201526234303360e81b604082015260600190565b600181811c908216806109eb57607f821691505b602082108103610a0957634e487b7160e01b5f52602260045260245ffd5b50919050565b601f821115610a5657805f5260205f20601f840160051c81016020851015610a345750805b601f840160051c820191505b81811015610a53575f8155600101610a40565b50505b505050565b81516001600160401b03811115610a7457610a746108f6565b610a8881610a8284546109d7565b84610a0f565b6020601f821160018114610aba575f8315610aa35750848201515b5f19600385901b1c1916600184901b178455610a53565b5f84815260208120601f198516915b82811015610ae95787850151825560209485019460019092019101610ac9565b5084821015610b0657868401515f19600387901b60f8161c191681555b50505050600190811b01905550565b6020808252600390820152620d0c0d60ea1b604082015260600190565b634e487b7160e01b5f52603260045260245ffd5b634e487b7160e01b5f52601160045260245ffd5b8181038181111561073e5761073e610b46565b8082018082111561073e5761073e610b46565b634e487b7160e01b5f52603160045260245ffdfea26469706673582212207fccc497e64626b21720cc73b0bb28babaff151213d0c89cb82c1740b00e5bf664736f6c634300081a0033608060405234801561000f575f80fd5b5060405161140e38038061140e83398101604081905261002e91610190565b600260018190558683835f61004384826102ee565b50600280546001600160a01b039384166001600160a01b03199182161790915560038054929093169116179055506005905061007f86826102ee565b50600661008c85826102ee565b50600761009984826102ee565b506040513381527f1449abf21e49fd025f33495e77f7b1461caefdd3d4bb646424a3f445c4576a5b9060200160405180910390a15050505050506103a8565b634e487b7160e01b5f52604160045260245ffd5b5f82601f8301126100fb575f80fd5b81516001600160401b03811115610114576101146100d8565b604051601f8201601f19908116603f011681016001600160401b0381118282101715610142576101426100d8565b604052818152838201602001851015610159575f80fd5b8160208501602083015e5f918101602001919091529392505050565b80516001600160a01b038116811461018b575f80fd5b919050565b5f805f805f8060c087890312156101a5575f80fd5b86516001600160401b038111156101ba575f80fd5b6101c689828a016100ec565b602089015190975090506001600160401b038111156101e3575f80fd5b6101ef89828a016100ec565b604089015190965090506001600160401b0381111561020c575f80fd5b61021889828a016100ec565b606089015190955090506001600160401b03811115610235575f80fd5b61024189828a016100ec565b93505061025060808801610175565b915061025e60a08801610175565b90509295509295509295565b600181811c9082168061027e57607f821691505b60208210810361029c57634e487b7160e01b5f52602260045260245ffd5b50919050565b601f8211156102e957805f5260205f20601f840160051c810160208510156102c75750805b601f840160051c820191505b818110156102e6575f81556001016102d3565b50505b505050565b81516001600160401b03811115610307576103076100d8565b61031b81610315845461026a565b846102a2565b6020601f82116001811461034d575f83156103365750848201515b5f19600385901b1c1916600184901b1784556102e6565b5f84815260208120601f198516915b8281101561037c578785015182556020948501946001909201910161035c565b508482101561039957868401515f19600387901b60f8161c191681555b50505050600190811b01905550565b611059806103b55f395ff3fe608060405234801561000f575f80fd5b50600436106100ad575f3560e01c8063252498a2146100b157806326c7b327146100c6578063290bb453146100e25780632b5914fe146100f55780634ba83374146101085780635da6ef8d1461012057806380f7602114610133578063a95264d014610148578063ac0344e61461015d578063b9daf3e214610170578063ba379e8614610178578063c47f002714610190578063ded92dac146101a3575b5f80fd5b6100c46100bf366004610c2a565b6101b6565b005b6100cf60015481565b6040519081526020015b60405180910390f35b6100c46100f0366004610c2a565b610232565b6100c4610103366004610c2a565b61027d565b6101106102c8565b60405190151581526020016100d9565b6100c461012e366004610c63565b610334565b61013b610471565b6040516100d99190610c90565b6101506104c2565b6040516100d99190610ca4565b6100c461016b366004610cef565b610562565b6101106105fe565b610180610628565b6040516100d99493929190610dd2565b6100c461019e366004610c2a565b610903565b6100c46101b1366004610c63565b61094d565b6002546001600160a01b03163314806101d957506003546001600160a01b031633145b6101fe5760405162461bcd60e51b81526004016101f590610e29565b60405180910390fd5b600561020a8282610eca565b505f80516020611004833981519152336040516102279190610c90565b60405180910390a150565b6002546001600160a01b031633148061025557506003546001600160a01b031633145b6102715760405162461bcd60e51b81526004016101f590610e29565b600761020a8282610eca565b6002546001600160a01b03163314806102a057506003546001600160a01b031633145b6102bc5760405162461bcd60e51b81526004016101f590610e29565b600661020a8282610eca565b5f61032b33600480548060200260200160405190810160405280929190818152602001828054801561032157602002820191905f5260205f20905b81546001600160a01b03168152600190910190602001808311610303575b5050505050610a43565b5f191415905090565b6002546001600160a01b031633148061035757506003546001600160a01b031633145b6103735760405162461bcd60e51b81526004016101f590610e29565b6002546001600160a01b0382811691161480159061039957506001600160a01b03811615155b8015610404575061040081600480548060200260200160405190810160405280929190818152602001828054801561032157602002820191905f5260205f209081546001600160a01b03168152600190910190602001808311610303575050505050610a43565b5f19145b6104205760405162461bcd60e51b81526004016101f590610e29565b600480546001810182555f919091527f8a35acfbc15ff81a39ae7d344fd709f28e8600b4aa8c65c6b64bfe7fe36bd19b0180546001600160a01b0319166001600160a01b0392909216919091179055565b6002545f906001600160a01b031633148061049657506003546001600160a01b031633145b6104b25760405162461bcd60e51b81526004016101f590610e29565b506003546001600160a01b031690565b6002546060906001600160a01b03163314806104e857506003546001600160a01b031633145b6105045760405162461bcd60e51b81526004016101f590610e29565b600480548060200260200160405190810160405280929190818152602001828054801561055857602002820191905f5260205f20905b81546001600160a01b0316815260019091019060200180831161053a575b5050505050905090565b6002546001600160a01b031633148061058557506003546001600160a01b031633145b6105a15760405162461bcd60e51b81526004016101f590610e29565b5f6105ac8582610eca565b5060056105b98482610eca565b5060066105c68382610eca565b5060076105d38282610eca565b505f80516020611004833981519152336040516105f09190610c90565b60405180910390a150505050565b6002545f906001600160a01b031633148061062357506003546001600160a01b031633145b905090565b6002546060908190819081906001600160a01b03163314806106aa57506106a533600480548060200260200160405190810160405280929190818152602001828054801561032157602002820191905f5260205f209081546001600160a01b03168152600190910190602001808311610303575050505050610a43565b5f1914155b6106c65760405162461bcd60e51b81526004016101f590610e29565b5f6005600660078380546106d990610e46565b80601f016020809104026020016040519081016040528092919081815260200182805461070590610e46565b80156107505780601f1061072757610100808354040283529160200191610750565b820191905f5260205f20905b81548152906001019060200180831161073357829003601f168201915b5050505050935082805461076390610e46565b80601f016020809104026020016040519081016040528092919081815260200182805461078f90610e46565b80156107da5780601f106107b1576101008083540402835291602001916107da565b820191905f5260205f20905b8154815290600101906020018083116107bd57829003601f168201915b505050505092508180546107ed90610e46565b80601f016020809104026020016040519081016040528092919081815260200182805461081990610e46565b80156108645780601f1061083b57610100808354040283529160200191610864565b820191905f5260205f20905b81548152906001019060200180831161084757829003601f168201915b5050505050915080805461087790610e46565b80601f01602080910402602001604051908101604052809291908181526020018280546108a390610e46565b80156108ee5780601f106108c5576101008083540402835291602001916108ee565b820191905f5260205f20905b8154815290600101906020018083116108d157829003601f168201915b50505050509050935093509350935090919293565b6002546001600160a01b031633148061092657506003546001600160a01b031633145b6109425760405162461bcd60e51b81526004016101f590610e29565b5f61020a8282610eca565b6001600160a01b03811615158061099557506003546001600160a01b031633148061098257506002546001600160a01b031633145b806109955750336001600160a01b038216145b6109b15760405162461bcd60e51b81526004016101f590610e29565b5f610a1282600480548060200260200160405190810160405280929190818152602001828054801561032157602002820191905f5260205f209081546001600160a01b03168152600190910190602001808311610303575050505050610a43565b90505f198113610a345760405162461bcd60e51b81526004016101f590610f84565b610a3f816004610a9c565b5050565b5f805b8251811015610a9057836001600160a01b0316838281518110610a6b57610a6b610fa1565b60200260200101516001600160a01b031603610a88579050610a96565b600101610a46565b505f1990505b92915050565b5f8212158015610aac5750805482105b610ac85760405162461bcd60e51b81526004016101f590610f84565b815b8154610ad890600190610fc9565b811015610b585781610aeb826001610fdc565b81548110610afb57610afb610fa1565b905f5260205f20015f9054906101000a90046001600160a01b0316828281548110610b2857610b28610fa1565b5f91825260209091200180546001600160a01b0319166001600160a01b0392909216919091179055600101610aca565b5080805480610b6957610b69610fef565b5f8281526020902081015f1990810180546001600160a01b03191690550190555050565b634e487b7160e01b5f52604160045260245ffd5b5f82601f830112610bb0575f80fd5b81356001600160401b03811115610bc957610bc9610b8d565b604051601f8201601f19908116603f011681016001600160401b0381118282101715610bf757610bf7610b8d565b604052818152838201602001851015610c0e575f80fd5b816020850160208301375f918101602001919091529392505050565b5f60208284031215610c3a575f80fd5b81356001600160401b03811115610c4f575f80fd5b610c5b84828501610ba1565b949350505050565b5f60208284031215610c73575f80fd5b81356001600160a01b0381168114610c89575f80fd5b9392505050565b6001600160a01b0391909116815260200190565b602080825282518282018190525f918401906040840190835b81811015610ce45783516001600160a01b0316835260209384019390920191600101610cbd565b509095945050505050565b5f805f8060808587031215610d02575f80fd5b84356001600160401b03811115610d17575f80fd5b610d2387828801610ba1565b94505060208501356001600160401b03811115610d3e575f80fd5b610d4a87828801610ba1565b93505060408501356001600160401b03811115610d65575f80fd5b610d7187828801610ba1565b92505060608501356001600160401b03811115610d8c575f80fd5b610d9887828801610ba1565b91505092959194509250565b5f81518084528060208401602086015e5f602082860101526020601f19601f83011685010191505092915050565b608081525f610de46080830187610da4565b8281036020840152610df68187610da4565b90508281036040840152610e0a8186610da4565b90508281036060840152610e1e8185610da4565b979650505050505050565b60208082526003908201526234303360e81b604082015260600190565b600181811c90821680610e5a57607f821691505b602082108103610e7857634e487b7160e01b5f52602260045260245ffd5b50919050565b601f821115610ec557805f5260205f20601f840160051c81016020851015610ea35750805b601f840160051c820191505b81811015610ec2575f8155600101610eaf565b50505b505050565b81516001600160401b03811115610ee357610ee3610b8d565b610ef781610ef18454610e46565b84610e7e565b6020601f821160018114610f29575f8315610f125750848201515b5f19600385901b1c1916600184901b178455610ec2565b5f84815260208120601f198516915b82811015610f585787850151825560209485019460019092019101610f38565b5084821015610f7557868401515f19600387901b60f8161c191681555b50505050600190811b01905550565b6020808252600390820152620d0c0d60ea1b604082015260600190565b634e487b7160e01b5f52603260045260245ffd5b634e487b7160e01b5f52601160045260245ffd5b81810381811115610a9657610a96610fb5565b80820180821115610a9657610a96610fb5565b634e487b7160e01b5f52603160045260245ffdfee00da2178806f37f69815e9ed5ed3072ec1d55206d60916d99b469c7daa421e4a264697066735822122017d511c8ef6c0c80d7746f8ec70a7f8fa236cd7616f1d0d0b5076b5ab8213add64736f6c634300081a0033608060405234801561000f575f80fd5b5060405161108138038061108183398101604081905261002e916100f0565b600360018190558483835f6100438482610255565b50600280546001600160a01b03199081166001600160a01b0394851617909155600380548216928416929092179091556005805490911691871691909117905550506040513381527f1449abf21e49fd025f33495e77f7b1461caefdd3d4bb646424a3f445c4576a5b9060200160405180910390a15050505061030f565b634e487b7160e01b5f52604160045260245ffd5b80516001600160a01b03811681146100eb575f80fd5b919050565b5f805f8060808587031215610103575f80fd5b84516001600160401b03811115610118575f80fd5b8501601f81018713610128575f80fd5b80516001600160401b03811115610141576101416100c1565b604051601f8201601f19908116603f011681016001600160401b038111828210171561016f5761016f6100c1565b604052818152828201602001891015610186575f80fd5b8160208401602083015e5f602083830101528096505050506101aa602086016100d5565b92506101b8604086016100d5565b91506101c6606086016100d5565b905092959194509250565b600181811c908216806101e557607f821691505b60208210810361020357634e487b7160e01b5f52602260045260245ffd5b50919050565b601f82111561025057805f5260205f20601f840160051c8101602085101561022e5750805b601f840160051c820191505b8181101561024d575f815560010161023a565b50505b505050565b81516001600160401b0381111561026e5761026e6100c1565b6102828161027c84546101d1565b84610209565b6020601f8211600181146102b4575f831561029d5750848201515b5f19600385901b1c1916600184901b17845561024d565b5f84815260208120601f198516915b828110156102e357878501518255602094850194600190920191016102c3565b508482101561030057868401515f19600387901b60f8161c191681555b50505050600190811b01905550565b610d658061031c5f395ff3fe608060405234801561000f575f80fd5b506004361061008c575f3560e01c806326c7b32714610090578063469c8110146100ac5780634ba83374146100c15780635da6ef8d146100d95780635ff6cbf3146100ec57806380f7602114610101578063a95264d014610116578063b9daf3e21461012b578063c47f002714610133578063ded92dac14610146575b5f80fd5b61009960015481565b6040519081526020015b60405180910390f35b6100bf6100ba36600461096f565b610159565b005b6100c9610292565b60405190151581526020016100a3565b6100bf6100e7366004610a1f565b6102fe565b6100f461043b565b6040516100a39190610a4c565b610109610586565b6040516100a39190610af6565b61011e6105d7565b6040516100a39190610b0a565b6100c9610677565b6100bf61014136600461096f565b6106a1565b6100bf610154366004610a1f565b61071b565b6002546001600160a01b031633148061017c57506005546001600160a01b031633145b6101a15760405162461bcd60e51b815260040161019890610b55565b60405180910390fd5b60408051606081018252428152602081018381523392820192909252600680546001810182555f91909152815160039091027ff652222313e28459528d920b65115c16c04f3efc82aaedc97be59f3f377c0d3f81019182559251919290917ff652222313e28459528d920b65115c16c04f3efc82aaedc97be59f3f377c0d409091019061022e9082610bf6565b5060409182015160029190910180546001600160a01b0319166001600160a01b0390921691909117905580513381524260208201527f0951e0ca7381a5c665ef8d64c982968ea7b66aaf3d6c667a004bc9926d2959b091015b60405180910390a150565b5f6102f53360048054806020026020016040519081016040528092919081815260200182805480156102eb57602002820191905f5260205f20905b81546001600160a01b031681526001909101906020018083116102cd575b5050505050610811565b5f191415905090565b6002546001600160a01b031633148061032157506003546001600160a01b031633145b61033d5760405162461bcd60e51b815260040161019890610b55565b6002546001600160a01b0382811691161480159061036357506001600160a01b03811615155b80156103ce57506103ca8160048054806020026020016040519081016040528092919081815260200182805480156102eb57602002820191905f5260205f209081546001600160a01b031681526001909101906020018083116102cd575050505050610811565b5f19145b6103ea5760405162461bcd60e51b815260040161019890610b55565b600480546001810182555f919091527f8a35acfbc15ff81a39ae7d344fd709f28e8600b4aa8c65c6b64bfe7fe36bd19b0180546001600160a01b0319166001600160a01b0392909216919091179055565b6002546060906001600160a01b031633148061046157506005546001600160a01b031633145b61047d5760405162461bcd60e51b815260040161019890610b55565b6006805480602002602001604051908101604052809291908181526020015f905b8282101561057d578382905f5260205f2090600302016040518060600160405290815f82015481526020016001820180546104d890610b72565b80601f016020809104026020016040519081016040528092919081815260200182805461050490610b72565b801561054f5780601f106105265761010080835404028352916020019161054f565b820191905f5260205f20905b81548152906001019060200180831161053257829003601f168201915b5050509183525050600291909101546001600160a01b0316602091820152908252600192909201910161049e565b50505050905090565b6002545f906001600160a01b03163314806105ab57506003546001600160a01b031633145b6105c75760405162461bcd60e51b815260040161019890610b55565b506003546001600160a01b031690565b6002546060906001600160a01b03163314806105fd57506003546001600160a01b031633145b6106195760405162461bcd60e51b815260040161019890610b55565b600480548060200260200160405190810160405280929190818152602001828054801561066d57602002820191905f5260205f20905b81546001600160a01b0316815260019091019060200180831161064f575b5050505050905090565b6002545f906001600160a01b031633148061069c57506003546001600160a01b031633145b905090565b6002546001600160a01b03163314806106c457506003546001600160a01b031633145b6106e05760405162461bcd60e51b815260040161019890610b55565b5f6106eb8282610bf6565b507fe00da2178806f37f69815e9ed5ed3072ec1d55206d60916d99b469c7daa421e4336040516102879190610af6565b6001600160a01b03811615158061076357506003546001600160a01b031633148061075057506002546001600160a01b031633145b806107635750336001600160a01b038216145b61077f5760405162461bcd60e51b815260040161019890610b55565b5f6107e08260048054806020026020016040519081016040528092919081815260200182805480156102eb57602002820191905f5260205f209081546001600160a01b031681526001909101906020018083116102cd575050505050610811565b90505f1981136108025760405162461bcd60e51b815260040161019890610cb0565b61080d81600461086a565b5050565b5f805b825181101561085e57836001600160a01b031683828151811061083957610839610ccd565b60200260200101516001600160a01b031603610856579050610864565b600101610814565b505f1990505b92915050565b5f821215801561087a5750805482105b6108965760405162461bcd60e51b815260040161019890610cb0565b815b81546108a690600190610cf5565b81101561092657816108b9826001610d08565b815481106108c9576108c9610ccd565b905f5260205f20015f9054906101000a90046001600160a01b03168282815481106108f6576108f6610ccd565b5f91825260209091200180546001600160a01b0319166001600160a01b0392909216919091179055600101610898565b508080548061093757610937610d1b565b5f8281526020902081015f1990810180546001600160a01b03191690550190555050565b634e487b7160e01b5f52604160045260245ffd5b5f6020828403121561097f575f80fd5b81356001600160401b03811115610994575f80fd5b8201601f810184136109a4575f80fd5b80356001600160401b038111156109bd576109bd61095b565b604051601f8201601f19908116603f011681016001600160401b03811182821017156109eb576109eb61095b565b604052818152828201602001861015610a02575f80fd5b816020840160208301375f91810160200191909152949350505050565b5f60208284031215610a2f575f80fd5b81356001600160a01b0381168114610a45575f80fd5b9392505050565b5f602082016020835280845180835260408501915060408160051b8601019250602086015f5b82811015610aea57603f198786030184528151805186526020810151606060208801528051806060890152806020830160808a015e5f8882016080908101919091526040938401516001600160a01b031693890193909352601f01601f19169096010194506020938401939190910190600101610a72565b50929695505050505050565b6001600160a01b0391909116815260200190565b602080825282518282018190525f918401906040840190835b81811015610b4a5783516001600160a01b0316835260209384019390920191600101610b23565b509095945050505050565b60208082526003908201526234303360e81b604082015260600190565b600181811c90821680610b8657607f821691505b602082108103610ba457634e487b7160e01b5f52602260045260245ffd5b50919050565b601f821115610bf157805f5260205f20601f840160051c81016020851015610bcf5750805b601f840160051c820191505b81811015610bee575f8155600101610bdb565b50505b505050565b81516001600160401b03811115610c0f57610c0f61095b565b610c2381610c1d8454610b72565b84610baa565b6020601f821160018114610c55575f8315610c3e5750848201515b5f19600385901b1c1916600184901b178455610bee565b5f84815260208120601f198516915b82811015610c845787850151825560209485019460019092019101610c64565b5084821015610ca157868401515f19600387901b60f8161c191681555b50505050600190811b01905550565b6020808252600390820152620d0c0d60ea1b604082015260600190565b634e487b7160e01b5f52603260045260245ffd5b634e487b7160e01b5f52601160045260245ffd5b8181038181111561086457610864610ce1565b8082018082111561086457610864610ce1565b634e487b7160e01b5f52603160045260245ffdfea264697066735822122017a21bddb7707d8bdffe840f19c21c92fb24d0327e328910934cd54deba1d11a64736f6c634300081a0033a2646970667358221220e70d8998725e88346b2fae2d3b62d291c4ed1af5156039a9a1835f8f090fd98264736f6c634300081a0033",
			"opcodes": "PUSH1 0x80 PUSH1 0x40 MSTORE CALLVALUE DUP1 ISZERO PUSH1 0xE JUMPI PUSH0 DUP1 REVERT JUMPDEST POP PUSH1 0x40 MLOAD PUSH2 0x6FBA CODESIZE SUB DUP1 PUSH2 0x6FBA DUP4 CODECOPY DUP2 ADD PUSH1 0x40 DUP2 SWAP1 MSTORE PUSH1 0x2B SWAP2 PUSH1 0x70 JUMP JUMPDEST PUSH0 DUP1 SLOAD PUSH1 0x1 PUSH1 0x1 PUSH1 0xA0 SHL SUB SWAP4 DUP5 AND PUSH1 0x1 PUSH1 0x1 PUSH1 0xA0 SHL SUB NOT SWAP2 DUP3 AND OR SWAP1 SWAP2 SSTORE PUSH1 0x1 DUP1 SLOAD SWAP3 SWAP1 SWAP4 AND SWAP2 AND OR SWAP1 SSTORE PUSH1 0xA3 JUMP JUMPDEST PUSH1 0x1 PUSH1 0x1 PUSH1 0xA0 SHL SUB DUP2 AND DUP2 EQ PUSH1 0x6D JUMPI PUSH0 DUP1 REVERT JUMPDEST POP JUMP JUMPDEST PUSH0 DUP1 PUSH1 0x40 DUP4 DUP6 SUB SLT ISZERO PUSH1 0x80 JUMPI PUSH0 DUP1 REVERT JUMPDEST DUP3 MLOAD PUSH1 0x89 DUP2 PUSH1 0x5A JUMP JUMPDEST PUSH1 0x20 DUP5 ADD MLOAD SWAP1 SWAP3 POP PUSH1 0x98 DUP2 PUSH1 0x5A JUMP JUMPDEST DUP1 SWAP2 POP POP SWAP3 POP SWAP3 SWAP1 POP JUMP JUMPDEST PUSH2 0x6F0A DUP1 PUSH2 0xB0 PUSH0 CODECOPY PUSH0 RETURN INVALID PUSH1 0x80 PUSH1 0x40 MSTORE PUSH1 0x4 CALLDATASIZE LT PUSH2 0xAD JUMPI PUSH0 CALLDATALOAD PUSH1 0xE0 SHR DUP1 PUSH4 0x12065FE0 EQ PUSH2 0xB6 JUMPI DUP1 PUSH4 0x14DEFFC1 EQ PUSH2 0xDD JUMPI DUP1 PUSH4 0x2E1A7D4D EQ PUSH2 0xFC JUMPI DUP1 PUSH4 0x3046E41B EQ PUSH2 0x10F JUMPI DUP1 PUSH4 0x3129E773 EQ PUSH2 0x12E JUMPI DUP1 PUSH4 0x597F5611 EQ PUSH2 0x15A JUMPI DUP1 PUSH4 0x7E71790E EQ PUSH2 0x179 JUMPI DUP1 PUSH4 0x97D27CD5 EQ PUSH2 0x198 JUMPI DUP1 PUSH4 0x9E1A00AA EQ PUSH2 0x1B7 JUMPI DUP1 PUSH4 0x9F91786F EQ PUSH2 0x1CA JUMPI DUP1 PUSH4 0xBFB24897 EQ PUSH2 0x1E9 JUMPI DUP1 PUSH4 0xCA79EC2C EQ PUSH2 0x208 JUMPI DUP1 PUSH4 0xD0E30DB0 EQ PUSH2 0xB4 JUMPI DUP1 PUSH4 0xD5747B32 EQ PUSH2 0x227 JUMPI STOP JUMPDEST CALLDATASIZE PUSH2 0xB4 JUMPI STOP JUMPDEST STOP JUMPDEST CALLVALUE DUP1 ISZERO PUSH2 0xC1 JUMPI PUSH0 DUP1 REVERT JUMPDEST POP PUSH2 0xCA PUSH2 0x246 JUMP JUMPDEST PUSH1 0x40 MLOAD SWAP1 DUP2 MSTORE PUSH1 0x20 ADD JUMPDEST PUSH1 0x40 MLOAD DUP1 SWAP2 SUB SWAP1 RETURN JUMPDEST CALLVALUE DUP1 ISZERO PUSH2 0xE8 JUMPI PUSH0 DUP1 REVERT JUMPDEST POP PUSH2 0xB4 PUSH2 0xF7 CALLDATASIZE PUSH1 0x4 PUSH2 0xF36 JUMP JUMPDEST PUSH2 0x293 JUMP JUMPDEST PUSH2 0xB4 PUSH2 0x10A CALLDATASIZE PUSH1 0x4 PUSH2 0xFE2 JUMP JUMPDEST PUSH2 0x385 JUMP JUMPDEST CALLVALUE DUP1 ISZERO PUSH2 0x11A JUMPI PUSH0 DUP1 REVERT JUMPDEST POP PUSH2 0xB4 PUSH2 0x129 CALLDATASIZE PUSH1 0x4 PUSH2 0xFF9 JUMP JUMPDEST PUSH2 0x457 JUMP JUMPDEST CALLVALUE DUP1 ISZERO PUSH2 0x139 JUMPI PUSH0 DUP1 REVERT JUMPDEST POP PUSH2 0x14D PUSH2 0x148 CALLDATASIZE PUSH1 0x4 PUSH2 0xFE2 JUMP JUMPDEST PUSH2 0x539 JUMP JUMPDEST PUSH1 0x40 MLOAD PUSH2 0xD4 SWAP2 SWAP1 PUSH2 0x105C JUMP JUMPDEST CALLVALUE DUP1 ISZERO PUSH2 0x165 JUMPI PUSH0 DUP1 REVERT JUMPDEST POP PUSH2 0x14D PUSH2 0x174 CALLDATASIZE PUSH1 0x4 PUSH2 0xFE2 JUMP JUMPDEST PUSH2 0x58D JUMP JUMPDEST CALLVALUE DUP1 ISZERO PUSH2 0x184 JUMPI PUSH0 DUP1 REVERT JUMPDEST POP PUSH2 0xB4 PUSH2 0x193 CALLDATASIZE PUSH1 0x4 PUSH2 0x10A7 JUMP JUMPDEST PUSH2 0x5D9 JUMP JUMPDEST CALLVALUE DUP1 ISZERO PUSH2 0x1A3 JUMPI PUSH0 DUP1 REVERT JUMPDEST POP PUSH2 0xB4 PUSH2 0x1B2 CALLDATASIZE PUSH1 0x4 PUSH2 0x1113 JUMP JUMPDEST PUSH2 0x6C3 JUMP JUMPDEST PUSH2 0xB4 PUSH2 0x1C5 CALLDATASIZE PUSH1 0x4 PUSH2 0x11DF JUMP JUMPDEST PUSH2 0x7B0 JUMP JUMPDEST CALLVALUE DUP1 ISZERO PUSH2 0x1D5 JUMPI PUSH0 DUP1 REVERT JUMPDEST POP PUSH2 0xB4 PUSH2 0x1E4 CALLDATASIZE PUSH1 0x4 PUSH2 0x1209 JUMP JUMPDEST PUSH2 0x8CA JUMP JUMPDEST CALLVALUE DUP1 ISZERO PUSH2 0x1F4 JUMPI PUSH0 DUP1 REVERT JUMPDEST POP PUSH2 0xB4 PUSH2 0x203 CALLDATASIZE PUSH1 0x4 PUSH2 0x1257 JUMP JUMPDEST PUSH2 0x95F JUMP JUMPDEST CALLVALUE DUP1 ISZERO PUSH2 0x213 JUMPI PUSH0 DUP1 REVERT JUMPDEST POP PUSH2 0xB4 PUSH2 0x222 CALLDATASIZE PUSH1 0x4 PUSH2 0x1257 JUMP JUMPDEST PUSH2 0x9A9 JUMP JUMPDEST CALLVALUE DUP1 ISZERO PUSH2 0x232 JUMPI PUSH0 DUP1 REVERT JUMPDEST POP PUSH2 0xB4 PUSH2 0x241 CALLDATASIZE PUSH1 0x4 PUSH2 0x1257 JUMP JUMPDEST PUSH2 0x9F3 JUMP JUMPDEST PUSH0 DUP1 SLOAD PUSH1 0x1 PUSH1 0x1 PUSH1 0xA0 SHL SUB AND CALLER EQ DUP1 PUSH2 0x269 JUMPI POP PUSH1 0x1 SLOAD PUSH1 0x1 PUSH1 0x1 PUSH1 0xA0 SHL SUB AND CALLER EQ JUMPDEST PUSH2 0x28E JUMPI PUSH1 0x40 MLOAD PUSH3 0x461BCD PUSH1 0xE5 SHL DUP2 MSTORE PUSH1 0x4 ADD PUSH2 0x285 SWAP1 PUSH2 0x127A JUMP JUMPDEST PUSH1 0x40 MLOAD DUP1 SWAP2 SUB SWAP1 REVERT JUMPDEST POP SELFBALANCE SWAP1 JUMP JUMPDEST PUSH0 SLOAD PUSH1 0x1 PUSH1 0x1 PUSH1 0xA0 SHL SUB AND CALLER EQ DUP1 PUSH2 0x2B5 JUMPI POP PUSH1 0x1 SLOAD PUSH1 0x1 PUSH1 0x1 PUSH1 0xA0 SHL SUB AND CALLER EQ JUMPDEST PUSH2 0x2D1 JUMPI PUSH1 0x40 MLOAD PUSH3 0x461BCD PUSH1 0xE5 SHL DUP2 MSTORE PUSH1 0x4 ADD PUSH2 0x285 SWAP1 PUSH2 0x127A JUMP JUMPDEST PUSH1 0x1 PUSH0 SWAP1 DUP2 MSTORE PUSH1 0x2 PUSH1 0x20 MSTORE SLOAD PUSH1 0x40 MLOAD PUSH32 0xE90B7BCEB6E7DF5418FB78D8EE546E97C83A08BBCCC01A0644D599CCD2A7C2E0 SWAP2 DUP8 SWAP2 DUP8 SWAP2 DUP8 SWAP2 DUP8 SWAP2 DUP8 SWAP2 PUSH1 0x1 PUSH1 0x1 PUSH1 0xA0 SHL SUB SWAP1 SWAP2 AND SWAP1 ADDRESS SWAP1 PUSH2 0x323 SWAP1 PUSH2 0xE47 JUMP JUMPDEST PUSH2 0x333 SWAP8 SWAP7 SWAP6 SWAP5 SWAP4 SWAP3 SWAP2 SWAP1 PUSH2 0x12CC JUMP JUMPDEST PUSH1 0x40 MLOAD DUP1 SWAP2 SUB SWAP1 PUSH0 CREATE DUP1 ISZERO DUP1 ISZERO PUSH2 0x34C JUMPI RETURNDATASIZE PUSH0 DUP1 RETURNDATACOPY RETURNDATASIZE PUSH0 REVERT JUMPDEST POP DUP2 SLOAD PUSH1 0x1 DUP2 ADD DUP4 SSTORE PUSH0 SWAP3 DUP4 MSTORE PUSH1 0x20 SWAP1 SWAP3 KECCAK256 SWAP1 SWAP2 ADD DUP1 SLOAD PUSH1 0x1 PUSH1 0x1 PUSH1 0xA0 SHL SUB NOT AND PUSH1 0x1 PUSH1 0x1 PUSH1 0xA0 SHL SUB SWAP1 SWAP3 AND SWAP2 SWAP1 SWAP2 OR SWAP1 SSTORE POP POP POP POP POP JUMP JUMPDEST PUSH0 SLOAD PUSH1 0x1 PUSH1 0x1 PUSH1 0xA0 SHL SUB AND CALLER EQ DUP1 PUSH2 0x3A7 JUMPI POP PUSH1 0x1 SLOAD PUSH1 0x1 PUSH1 0x1 PUSH1 0xA0 SHL SUB AND CALLER EQ JUMPDEST PUSH2 0x3C3 JUMPI PUSH1 0x40 MLOAD PUSH3 0x461BCD PUSH1 0xE5 SHL DUP2 MSTORE PUSH1 0x4 ADD PUSH2 0x285 SWAP1 PUSH2 0x127A JUMP JUMPDEST DUP1 SELFBALANCE LT ISZERO PUSH2 0x3E3 JUMPI PUSH1 0x40 MLOAD PUSH3 0x461BCD PUSH1 0xE5 SHL DUP2 MSTORE PUSH1 0x4 ADD PUSH2 0x285 SWAP1 PUSH2 0x1339 JUMP JUMPDEST PUSH0 DUP1 SLOAD PUSH1 0x40 MLOAD PUSH1 0x1 PUSH1 0x1 PUSH1 0xA0 SHL SUB SWAP1 SWAP2 AND SWAP1 DUP4 SWAP1 DUP4 DUP2 DUP2 DUP2 DUP6 DUP8 GAS CALL SWAP3 POP POP POP RETURNDATASIZE DUP1 PUSH0 DUP2 EQ PUSH2 0x42D JUMPI PUSH1 0x40 MLOAD SWAP2 POP PUSH1 0x1F NOT PUSH1 0x3F RETURNDATASIZE ADD AND DUP3 ADD PUSH1 0x40 MSTORE RETURNDATASIZE DUP3 MSTORE RETURNDATASIZE PUSH0 PUSH1 0x20 DUP5 ADD RETURNDATACOPY PUSH2 0x432 JUMP JUMPDEST PUSH1 0x60 SWAP2 POP JUMPDEST POP POP SWAP1 POP DUP1 PUSH2 0x453 JUMPI PUSH1 0x40 MLOAD PUSH3 0x461BCD PUSH1 0xE5 SHL DUP2 MSTORE PUSH1 0x4 ADD PUSH2 0x285 SWAP1 PUSH2 0x135F JUMP JUMPDEST POP POP JUMP JUMPDEST PUSH0 SLOAD PUSH1 0x1 PUSH1 0x1 PUSH1 0xA0 SHL SUB AND CALLER EQ DUP1 PUSH2 0x479 JUMPI POP PUSH1 0x1 SLOAD PUSH1 0x1 PUSH1 0x1 PUSH1 0xA0 SHL SUB AND CALLER EQ JUMPDEST PUSH2 0x495 JUMPI PUSH1 0x40 MLOAD PUSH3 0x461BCD PUSH1 0xE5 SHL DUP2 MSTORE PUSH1 0x4 ADD PUSH2 0x285 SWAP1 PUSH2 0x127A JUMP JUMPDEST PUSH0 DUP1 DUP1 MSTORE PUSH1 0x2 PUSH1 0x20 MSTORE SLOAD PUSH1 0x40 MLOAD PUSH32 0xAC33FF75C19E70FE83507DB0D683FD3465C996598DC972688B7ACE676C89077B SWAP2 DUP5 SWAP2 DUP5 SWAP2 PUSH1 0x1 PUSH1 0x1 PUSH1 0xA0 SHL SUB AND SWAP1 ADDRESS SWAP1 PUSH2 0x4DD SWAP1 PUSH2 0xE54 JUMP JUMPDEST PUSH2 0x4EA SWAP5 SWAP4 SWAP3 SWAP2 SWAP1 PUSH2 0x137F JUMP JUMPDEST PUSH1 0x40 MLOAD DUP1 SWAP2 SUB SWAP1 PUSH0 CREATE DUP1 ISZERO DUP1 ISZERO PUSH2 0x503 JUMPI RETURNDATASIZE PUSH0 DUP1 RETURNDATACOPY RETURNDATASIZE PUSH0 REVERT JUMPDEST POP DUP2 SLOAD PUSH1 0x1 DUP2 ADD DUP4 SSTORE PUSH0 SWAP3 DUP4 MSTORE PUSH1 0x20 SWAP1 SWAP3 KECCAK256 SWAP1 SWAP2 ADD DUP1 SLOAD PUSH1 0x1 PUSH1 0x1 PUSH1 0xA0 SHL SUB NOT AND PUSH1 0x1 PUSH1 0x1 PUSH1 0xA0 SHL SUB SWAP1 SWAP3 AND SWAP2 SWAP1 SWAP2 OR SWAP1 SSTORE POP POP JUMP JUMPDEST PUSH0 SLOAD PUSH1 0x60 SWAP1 PUSH1 0x1 PUSH1 0x1 PUSH1 0xA0 SHL SUB AND CALLER EQ DUP1 PUSH2 0x55E JUMPI POP PUSH1 0x1 SLOAD PUSH1 0x1 PUSH1 0x1 PUSH1 0xA0 SHL SUB AND CALLER EQ JUMPDEST PUSH2 0x57A JUMPI PUSH1 0x40 MLOAD PUSH3 0x461BCD PUSH1 0xE5 SHL DUP2 MSTORE PUSH1 0x4 ADD PUSH2 0x285 SWAP1 PUSH2 0x127A JUMP JUMPDEST PUSH2 0x585 DUP3 PUSH1 0x2 PUSH2 0xA3D JUMP JUMPDEST SWAP1 POP JUMPDEST SWAP2 SWAP1 POP JUMP JUMPDEST PUSH0 SLOAD PUSH1 0x60 SWAP1 PUSH1 0x1 PUSH1 0x1 PUSH1 0xA0 SHL SUB AND CALLER EQ DUP1 PUSH2 0x5B2 JUMPI POP PUSH1 0x1 SLOAD PUSH1 0x1 PUSH1 0x1 PUSH1 0xA0 SHL SUB AND CALLER EQ JUMPDEST PUSH2 0x5CE JUMPI PUSH1 0x40 MLOAD PUSH3 0x461BCD PUSH1 0xE5 SHL DUP2 MSTORE PUSH1 0x4 ADD PUSH2 0x285 SWAP1 PUSH2 0x127A JUMP JUMPDEST PUSH2 0x585 DUP3 PUSH1 0x3 PUSH2 0xA3D JUMP JUMPDEST PUSH0 SLOAD PUSH1 0x1 PUSH1 0x1 PUSH1 0xA0 SHL SUB AND CALLER EQ DUP1 PUSH2 0x5FB JUMPI POP PUSH1 0x1 SLOAD PUSH1 0x1 PUSH1 0x1 PUSH1 0xA0 SHL SUB AND CALLER EQ JUMPDEST PUSH2 0x617 JUMPI PUSH1 0x40 MLOAD PUSH3 0x461BCD PUSH1 0xE5 SHL DUP2 MSTORE PUSH1 0x4 ADD PUSH2 0x285 SWAP1 PUSH2 0x127A JUMP JUMPDEST PUSH1 0x4 PUSH0 SWAP1 DUP2 MSTORE PUSH1 0x2 PUSH1 0x20 MSTORE SLOAD PUSH1 0x40 MLOAD PUSH32 0xEE60D0579BCFFD98E668647D59FEC1FF86A7FB340CE572E844F234AE73A6918F SWAP2 DUP6 SWAP2 DUP6 SWAP2 DUP6 SWAP2 PUSH1 0x1 PUSH1 0x1 PUSH1 0xA0 SHL SUB SWAP1 SWAP2 AND SWAP1 ADDRESS SWAP1 PUSH2 0x665 SWAP1 PUSH2 0xE61 JUMP JUMPDEST PUSH2 0x673 SWAP6 SWAP5 SWAP4 SWAP3 SWAP2 SWAP1 PUSH2 0x13C8 JUMP JUMPDEST PUSH1 0x40 MLOAD DUP1 SWAP2 SUB SWAP1 PUSH0 CREATE DUP1 ISZERO DUP1 ISZERO PUSH2 0x68C JUMPI RETURNDATASIZE PUSH0 DUP1 RETURNDATACOPY RETURNDATASIZE PUSH0 REVERT JUMPDEST POP DUP2 SLOAD PUSH1 0x1 DUP2 ADD DUP4 SSTORE PUSH0 SWAP3 DUP4 MSTORE PUSH1 0x20 SWAP1 SWAP3 KECCAK256 SWAP1 SWAP2 ADD DUP1 SLOAD PUSH1 0x1 PUSH1 0x1 PUSH1 0xA0 SHL SUB NOT AND PUSH1 0x1 PUSH1 0x1 PUSH1 0xA0 SHL SUB SWAP1 SWAP3 AND SWAP2 SWAP1 SWAP2 OR SWAP1 SSTORE POP POP POP JUMP JUMPDEST PUSH0 SLOAD PUSH1 0x1 PUSH1 0x1 PUSH1 0xA0 SHL SUB AND CALLER EQ DUP1 PUSH2 0x6E5 JUMPI POP PUSH1 0x1 SLOAD PUSH1 0x1 PUSH1 0x1 PUSH1 0xA0 SHL SUB AND CALLER EQ JUMPDEST PUSH2 0x701 JUMPI PUSH1 0x40 MLOAD PUSH3 0x461BCD PUSH1 0xE5 SHL DUP2 MSTORE PUSH1 0x4 ADD PUSH2 0x285 SWAP1 PUSH2 0x127A JUMP JUMPDEST PUSH1 0x2 PUSH0 DUP2 DUP2 MSTORE PUSH1 0x20 SWAP2 SWAP1 SWAP2 MSTORE SLOAD PUSH1 0x40 MLOAD PUSH32 0x679795A0195A1B76CDEBB7C51D74E058AEE92919B8C3389AF86EF24535E8A28C SWAP2 DUP7 SWAP2 DUP7 SWAP2 DUP7 SWAP2 DUP7 SWAP2 PUSH1 0x1 PUSH1 0x1 PUSH1 0xA0 SHL SUB AND SWAP1 ADDRESS SWAP1 PUSH2 0x750 SWAP1 PUSH2 0xE6E JUMP JUMPDEST PUSH2 0x75F SWAP7 SWAP6 SWAP5 SWAP4 SWAP3 SWAP2 SWAP1 PUSH2 0x1414 JUMP JUMPDEST PUSH1 0x40 MLOAD DUP1 SWAP2 SUB SWAP1 PUSH0 CREATE DUP1 ISZERO DUP1 ISZERO PUSH2 0x778 JUMPI RETURNDATASIZE PUSH0 DUP1 RETURNDATACOPY RETURNDATASIZE PUSH0 REVERT JUMPDEST POP DUP2 SLOAD PUSH1 0x1 DUP2 ADD DUP4 SSTORE PUSH0 SWAP3 DUP4 MSTORE PUSH1 0x20 SWAP1 SWAP3 KECCAK256 SWAP1 SWAP2 ADD DUP1 SLOAD PUSH1 0x1 PUSH1 0x1 PUSH1 0xA0 SHL SUB NOT AND PUSH1 0x1 PUSH1 0x1 PUSH1 0xA0 SHL SUB SWAP1 SWAP3 AND SWAP2 SWAP1 SWAP2 OR SWAP1 SSTORE POP POP POP POP JUMP JUMPDEST PUSH0 SLOAD PUSH1 0x1 PUSH1 0x1 PUSH1 0xA0 SHL SUB AND CALLER EQ DUP1 PUSH2 0x7D2 JUMPI POP PUSH1 0x1 SLOAD PUSH1 0x1 PUSH1 0x1 PUSH1 0xA0 SHL SUB AND CALLER EQ JUMPDEST PUSH2 0x7EE JUMPI PUSH1 0x40 MLOAD PUSH3 0x461BCD PUSH1 0xE5 SHL DUP2 MSTORE PUSH1 0x4 ADD PUSH2 0x285 SWAP1 PUSH2 0x127A JUMP JUMPDEST PUSH1 0x1 PUSH1 0x1 PUSH1 0xA0 SHL SUB DUP3 AND PUSH2 0x836 JUMPI PUSH1 0x40 MLOAD PUSH3 0x461BCD PUSH1 0xE5 SHL DUP2 MSTORE PUSH1 0x20 PUSH1 0x4 DUP3 ADD MSTORE PUSH1 0xF PUSH1 0x24 DUP3 ADD MSTORE PUSH15 0x496E76616C69642061646472657373 PUSH1 0x88 SHL PUSH1 0x44 DUP3 ADD MSTORE PUSH1 0x64 ADD PUSH2 0x285 JUMP JUMPDEST DUP1 SELFBALANCE LT ISZERO PUSH2 0x856 JUMPI PUSH1 0x40 MLOAD PUSH3 0x461BCD PUSH1 0xE5 SHL DUP2 MSTORE PUSH1 0x4 ADD PUSH2 0x285 SWAP1 PUSH2 0x1339 JUMP JUMPDEST PUSH0 DUP3 PUSH1 0x1 PUSH1 0x1 PUSH1 0xA0 SHL SUB AND DUP3 PUSH1 0x40 MLOAD PUSH0 PUSH1 0x40 MLOAD DUP1 DUP4 SUB DUP2 DUP6 DUP8 GAS CALL SWAP3 POP POP POP RETURNDATASIZE DUP1 PUSH0 DUP2 EQ PUSH2 0x89F JUMPI PUSH1 0x40 MLOAD SWAP2 POP PUSH1 0x1F NOT PUSH1 0x3F RETURNDATASIZE ADD AND DUP3 ADD PUSH1 0x40 MSTORE RETURNDATASIZE DUP3 MSTORE RETURNDATASIZE PUSH0 PUSH1 0x20 DUP5 ADD RETURNDATACOPY PUSH2 0x8A4 JUMP JUMPDEST PUSH1 0x60 SWAP2 POP JUMPDEST POP POP SWAP1 POP DUP1 PUSH2 0x8C5 JUMPI PUSH1 0x40 MLOAD PUSH3 0x461BCD PUSH1 0xE5 SHL DUP2 MSTORE PUSH1 0x4 ADD PUSH2 0x285 SWAP1 PUSH2 0x135F JUMP JUMPDEST POP POP POP JUMP JUMPDEST PUSH0 SLOAD PUSH1 0x1 PUSH1 0x1 PUSH1 0xA0 SHL SUB AND CALLER EQ DUP1 PUSH2 0x8EC JUMPI POP PUSH1 0x1 SLOAD PUSH1 0x1 PUSH1 0x1 PUSH1 0xA0 SHL SUB AND CALLER EQ JUMPDEST PUSH2 0x908 JUMPI PUSH1 0x40 MLOAD PUSH3 0x461BCD PUSH1 0xE5 SHL DUP2 MSTORE PUSH1 0x4 ADD PUSH2 0x285 SWAP1 PUSH2 0x127A JUMP JUMPDEST PUSH1 0x3 PUSH0 SWAP1 DUP2 MSTORE PUSH1 0x2 PUSH1 0x20 MSTORE SLOAD PUSH1 0x40 MLOAD PUSH32 0x88601476D11616A71C5BE67555BD1DFF4B1CBF21533D2669B768B61518CFE1C3 SWAP2 DUP5 SWAP2 DUP5 SWAP2 PUSH1 0x1 PUSH1 0x1 PUSH1 0xA0 SHL SUB AND SWAP1 ADDRESS SWAP1 PUSH2 0x952 SWAP1 PUSH2 0xE7B JUMP JUMPDEST PUSH2 0x4EA SWAP5 SWAP4 SWAP3 SWAP2 SWAP1 PUSH2 0x1487 JUMP JUMPDEST PUSH0 SLOAD PUSH1 0x1 PUSH1 0x1 PUSH1 0xA0 SHL SUB AND CALLER EQ DUP1 PUSH2 0x981 JUMPI POP PUSH1 0x1 SLOAD PUSH1 0x1 PUSH1 0x1 PUSH1 0xA0 SHL SUB AND CALLER EQ JUMPDEST PUSH2 0x99D JUMPI PUSH1 0x40 MLOAD PUSH3 0x461BCD PUSH1 0xE5 SHL DUP2 MSTORE PUSH1 0x4 ADD PUSH2 0x285 SWAP1 PUSH2 0x127A JUMP JUMPDEST PUSH2 0x453 DUP3 PUSH1 0x3 DUP4 PUSH2 0xAA6 JUMP JUMPDEST PUSH0 SLOAD PUSH1 0x1 PUSH1 0x1 PUSH1 0xA0 SHL SUB AND CALLER EQ DUP1 PUSH2 0x9CB JUMPI POP PUSH1 0x1 SLOAD PUSH1 0x1 PUSH1 0x1 PUSH1 0xA0 SHL SUB AND CALLER EQ JUMPDEST PUSH2 0x9E7 JUMPI PUSH1 0x40 MLOAD PUSH3 0x461BCD PUSH1 0xE5 SHL DUP2 MSTORE PUSH1 0x4 ADD PUSH2 0x285 SWAP1 PUSH2 0x127A JUMP JUMPDEST PUSH2 0x453 PUSH1 0x2 DUP4 DUP4 PUSH2 0xB67 JUMP JUMPDEST PUSH0 SLOAD PUSH1 0x1 PUSH1 0x1 PUSH1 0xA0 SHL SUB AND CALLER EQ DUP1 PUSH2 0xA15 JUMPI POP PUSH1 0x1 SLOAD PUSH1 0x1 PUSH1 0x1 PUSH1 0xA0 SHL SUB AND CALLER EQ JUMPDEST PUSH2 0xA31 JUMPI PUSH1 0x40 MLOAD PUSH3 0x461BCD PUSH1 0xE5 SHL DUP2 MSTORE PUSH1 0x4 ADD PUSH2 0x285 SWAP1 PUSH2 0x127A JUMP JUMPDEST PUSH2 0x453 DUP3 PUSH1 0x3 DUP4 PUSH2 0xC20 JUMP JUMPDEST PUSH0 DUP3 DUP2 MSTORE PUSH1 0x20 DUP3 DUP2 MSTORE PUSH1 0x40 SWAP2 DUP3 SWAP1 KECCAK256 DUP1 SLOAD DUP4 MLOAD DUP2 DUP5 MUL DUP2 ADD DUP5 ADD SWAP1 SWAP5 MSTORE DUP1 DUP5 MSTORE PUSH1 0x60 SWAP4 SWAP3 DUP4 ADD DUP3 DUP3 DUP1 ISZERO PUSH2 0xA98 JUMPI PUSH1 0x20 MUL DUP3 ADD SWAP2 SWAP1 PUSH0 MSTORE PUSH1 0x20 PUSH0 KECCAK256 SWAP1 JUMPDEST DUP2 SLOAD PUSH1 0x1 PUSH1 0x1 PUSH1 0xA0 SHL SUB AND DUP2 MSTORE PUSH1 0x1 SWAP1 SWAP2 ADD SWAP1 PUSH1 0x20 ADD DUP1 DUP4 GT PUSH2 0xA7A JUMPI JUMPDEST POP POP POP POP POP SWAP1 POP JUMPDEST SWAP3 SWAP2 POP POP JUMP JUMPDEST PUSH0 DUP4 DUP2 MSTORE PUSH1 0x20 DUP4 DUP2 MSTORE PUSH1 0x40 DUP1 DUP4 KECCAK256 DUP1 SLOAD DUP3 MLOAD DUP2 DUP6 MUL DUP2 ADD DUP6 ADD SWAP1 SWAP4 MSTORE DUP1 DUP4 MSTORE PUSH2 0xB0F SWAP4 DUP7 SWAP4 SWAP3 SWAP2 SWAP1 DUP4 ADD DUP3 DUP3 DUP1 ISZERO PUSH2 0xB05 JUMPI PUSH1 0x20 MUL DUP3 ADD SWAP2 SWAP1 PUSH0 MSTORE PUSH1 0x20 PUSH0 KECCAK256 SWAP1 JUMPDEST DUP2 SLOAD PUSH1 0x1 PUSH1 0x1 PUSH1 0xA0 SHL SUB AND DUP2 MSTORE PUSH1 0x1 SWAP1 SWAP2 ADD SWAP1 PUSH1 0x20 ADD DUP1 DUP4 GT PUSH2 0xAE7 JUMPI JUMPDEST POP POP POP POP POP PUSH2 0xCFF JUMP JUMPDEST SWAP1 POP PUSH0 NOT DUP2 SGT DUP1 ISZERO PUSH2 0xB2D JUMPI POP PUSH0 DUP5 DUP2 MSTORE PUSH1 0x20 DUP5 SWAP1 MSTORE PUSH1 0x40 SWAP1 KECCAK256 SLOAD DUP2 SLT JUMPDEST PUSH2 0xB49 JUMPI PUSH1 0x40 MLOAD PUSH3 0x461BCD PUSH1 0xE5 SHL DUP2 MSTORE PUSH1 0x4 ADD PUSH2 0x285 SWAP1 PUSH2 0x14C2 JUMP JUMPDEST PUSH0 DUP5 DUP2 MSTORE PUSH1 0x20 DUP5 SWAP1 MSTORE PUSH1 0x40 SWAP1 KECCAK256 PUSH2 0xB61 SWAP1 DUP3 SWAP1 PUSH2 0xD56 JUMP JUMPDEST POP POP POP POP JUMP JUMPDEST PUSH0 DUP3 DUP2 MSTORE PUSH1 0x20 DUP5 DUP2 MSTORE PUSH1 0x40 DUP1 DUP4 KECCAK256 DUP1 SLOAD DUP3 MLOAD DUP2 DUP6 MUL DUP2 ADD DUP6 ADD SWAP1 SWAP4 MSTORE DUP1 DUP4 MSTORE PUSH2 0xBCE SWAP4 DUP7 SWAP4 SWAP3 SWAP2 SWAP1 DUP4 ADD DUP3 DUP3 DUP1 ISZERO PUSH2 0xB05 JUMPI PUSH1 0x20 MUL DUP3 ADD SWAP2 SWAP1 PUSH0 MSTORE PUSH1 0x20 PUSH0 KECCAK256 SWAP1 DUP2 SLOAD PUSH1 0x1 PUSH1 0x1 PUSH1 0xA0 SHL SUB AND DUP2 MSTORE PUSH1 0x1 SWAP1 SWAP2 ADD SWAP1 PUSH1 0x20 ADD DUP1 DUP4 GT PUSH2 0xAE7 JUMPI POP POP POP POP POP PUSH2 0xCFF JUMP JUMPDEST SWAP1 POP PUSH0 NOT DUP2 SGT DUP1 ISZERO PUSH2 0xBEC JUMPI POP PUSH0 DUP4 DUP2 MSTORE PUSH1 0x20 DUP6 SWAP1 MSTORE PUSH1 0x40 SWAP1 KECCAK256 SLOAD DUP2 SLT JUMPDEST PUSH2 0xC08 JUMPI PUSH1 0x40 MLOAD PUSH3 0x461BCD PUSH1 0xE5 SHL DUP2 MSTORE PUSH1 0x4 ADD PUSH2 0x285 SWAP1 PUSH2 0x14C2 JUMP JUMPDEST PUSH0 DUP4 DUP2 MSTORE PUSH1 0x20 DUP6 SWAP1 MSTORE PUSH1 0x40 SWAP1 KECCAK256 PUSH2 0xB61 SWAP1 DUP3 SWAP1 PUSH2 0xD56 JUMP JUMPDEST PUSH2 0xC8E DUP2 DUP4 PUSH0 DUP7 DUP2 MSTORE PUSH1 0x20 ADD SWAP1 DUP2 MSTORE PUSH1 0x20 ADD PUSH0 KECCAK256 DUP1 SLOAD DUP1 PUSH1 0x20 MUL PUSH1 0x20 ADD PUSH1 0x40 MLOAD SWAP1 DUP2 ADD PUSH1 0x40 MSTORE DUP1 SWAP3 SWAP2 SWAP1 DUP2 DUP2 MSTORE PUSH1 0x20 ADD DUP3 DUP1 SLOAD DUP1 ISZERO PUSH2 0xB05 JUMPI PUSH1 0x20 MUL DUP3 ADD SWAP2 SWAP1 PUSH0 MSTORE PUSH1 0x20 PUSH0 KECCAK256 SWAP1 DUP2 SLOAD PUSH1 0x1 PUSH1 0x1 PUSH1 0xA0 SHL SUB AND DUP2 MSTORE PUSH1 0x1 SWAP1 SWAP2 ADD SWAP1 PUSH1 0x20 ADD DUP1 DUP4 GT PUSH2 0xAE7 JUMPI POP POP POP POP POP PUSH2 0xCFF JUMP JUMPDEST PUSH0 NOT EQ PUSH2 0xCC3 JUMPI PUSH1 0x40 MLOAD PUSH3 0x461BCD PUSH1 0xE5 SHL DUP2 MSTORE PUSH1 0x20 PUSH1 0x4 DUP3 ADD MSTORE PUSH1 0x3 PUSH1 0x24 DUP3 ADD MSTORE PUSH3 0x343039 PUSH1 0xE8 SHL PUSH1 0x44 DUP3 ADD MSTORE PUSH1 0x64 ADD PUSH2 0x285 JUMP JUMPDEST PUSH0 SWAP3 DUP4 MSTORE PUSH1 0x20 SWAP2 DUP3 MSTORE PUSH1 0x40 DUP4 KECCAK256 DUP1 SLOAD PUSH1 0x1 DUP2 ADD DUP3 SSTORE SWAP1 DUP5 MSTORE SWAP2 SWAP1 SWAP3 KECCAK256 ADD DUP1 SLOAD PUSH1 0x1 PUSH1 0x1 PUSH1 0xA0 SHL SUB NOT AND PUSH1 0x1 PUSH1 0x1 PUSH1 0xA0 SHL SUB SWAP1 SWAP3 AND SWAP2 SWAP1 SWAP2 OR SWAP1 SSTORE JUMP JUMPDEST PUSH0 DUP1 JUMPDEST DUP3 MLOAD DUP2 LT ISZERO PUSH2 0xD4C JUMPI DUP4 PUSH1 0x1 PUSH1 0x1 PUSH1 0xA0 SHL SUB AND DUP4 DUP3 DUP2 MLOAD DUP2 LT PUSH2 0xD27 JUMPI PUSH2 0xD27 PUSH2 0x14DF JUMP JUMPDEST PUSH1 0x20 MUL PUSH1 0x20 ADD ADD MLOAD PUSH1 0x1 PUSH1 0x1 PUSH1 0xA0 SHL SUB AND SUB PUSH2 0xD44 JUMPI SWAP1 POP PUSH2 0xAA0 JUMP JUMPDEST PUSH1 0x1 ADD PUSH2 0xD02 JUMP JUMPDEST POP PUSH0 NOT SWAP4 SWAP3 POP POP POP JUMP JUMPDEST PUSH0 DUP3 SLT ISZERO DUP1 ISZERO PUSH2 0xD66 JUMPI POP DUP1 SLOAD DUP3 LT JUMPDEST PUSH2 0xD82 JUMPI PUSH1 0x40 MLOAD PUSH3 0x461BCD PUSH1 0xE5 SHL DUP2 MSTORE PUSH1 0x4 ADD PUSH2 0x285 SWAP1 PUSH2 0x14C2 JUMP JUMPDEST DUP2 JUMPDEST DUP2 SLOAD PUSH2 0xD92 SWAP1 PUSH1 0x1 SWAP1 PUSH2 0x1507 JUMP JUMPDEST DUP2 LT ISZERO PUSH2 0xE12 JUMPI DUP2 PUSH2 0xDA5 DUP3 PUSH1 0x1 PUSH2 0x151A JUMP JUMPDEST DUP2 SLOAD DUP2 LT PUSH2 0xDB5 JUMPI PUSH2 0xDB5 PUSH2 0x14DF JUMP JUMPDEST SWAP1 PUSH0 MSTORE PUSH1 0x20 PUSH0 KECCAK256 ADD PUSH0 SWAP1 SLOAD SWAP1 PUSH2 0x100 EXP SWAP1 DIV PUSH1 0x1 PUSH1 0x1 PUSH1 0xA0 SHL SUB AND DUP3 DUP3 DUP2 SLOAD DUP2 LT PUSH2 0xDE2 JUMPI PUSH2 0xDE2 PUSH2 0x14DF JUMP JUMPDEST PUSH0 SWAP2 DUP3 MSTORE PUSH1 0x20 SWAP1 SWAP2 KECCAK256 ADD DUP1 SLOAD PUSH1 0x1 PUSH1 0x1 PUSH1 0xA0 SHL SUB NOT AND PUSH1 0x1 PUSH1 0x1 PUSH1 0xA0 SHL SUB SWAP3 SWAP1 SWAP3 AND SWAP2 SWAP1 SWAP2 OR SWAP1 SSTORE PUSH1 0x1 ADD PUSH2 0xD84 JUMP JUMPDEST POP DUP1 DUP1 SLOAD DUP1 PUSH2 0xE23 JUMPI PUSH2 0xE23 PUSH2 0x152D JUMP JUMPDEST PUSH0 DUP3 DUP2 MSTORE PUSH1 0x20 SWAP1 KECCAK256 DUP2 ADD PUSH0 NOT SWAP1 DUP2 ADD DUP1 SLOAD PUSH1 0x1 PUSH1 0x1 PUSH1 0xA0 SHL SUB NOT AND SWAP1 SSTORE ADD SWAP1 SSTORE POP POP JUMP JUMPDEST PUSH2 0x14A9 DUP1 PUSH2 0x1542 DUP4 CODECOPY ADD SWAP1 JUMP JUMPDEST PUSH2 0x113E DUP1 PUSH2 0x29EB DUP4 CODECOPY ADD SWAP1 JUMP JUMPDEST PUSH2 0xF1D DUP1 PUSH2 0x3B29 DUP4 CODECOPY ADD SWAP1 JUMP JUMPDEST PUSH2 0x140E DUP1 PUSH2 0x4A46 DUP4 CODECOPY ADD SWAP1 JUMP JUMPDEST PUSH2 0x1081 DUP1 PUSH2 0x5E54 DUP4 CODECOPY ADD SWAP1 JUMP JUMPDEST PUSH4 0x4E487B71 PUSH1 0xE0 SHL PUSH0 MSTORE PUSH1 0x41 PUSH1 0x4 MSTORE PUSH1 0x24 PUSH0 REVERT JUMPDEST PUSH0 DUP3 PUSH1 0x1F DUP4 ADD SLT PUSH2 0xEAB JUMPI PUSH0 DUP1 REVERT JUMPDEST DUP2 CALLDATALOAD PUSH1 0x1 PUSH1 0x1 PUSH1 0x40 SHL SUB DUP2 GT ISZERO PUSH2 0xEC4 JUMPI PUSH2 0xEC4 PUSH2 0xE88 JUMP JUMPDEST PUSH1 0x40 MLOAD PUSH1 0x1F DUP3 ADD PUSH1 0x1F NOT SWAP1 DUP2 AND PUSH1 0x3F ADD AND DUP2 ADD PUSH1 0x1 PUSH1 0x1 PUSH1 0x40 SHL SUB DUP2 GT DUP3 DUP3 LT OR ISZERO PUSH2 0xEF2 JUMPI PUSH2 0xEF2 PUSH2 0xE88 JUMP JUMPDEST PUSH1 0x40 MSTORE DUP2 DUP2 MSTORE DUP4 DUP3 ADD PUSH1 0x20 ADD DUP6 LT ISZERO PUSH2 0xF09 JUMPI PUSH0 DUP1 REVERT JUMPDEST DUP2 PUSH1 0x20 DUP6 ADD PUSH1 0x20 DUP4 ADD CALLDATACOPY PUSH0 SWAP2 DUP2 ADD PUSH1 0x20 ADD SWAP2 SWAP1 SWAP2 MSTORE SWAP4 SWAP3 POP POP POP JUMP JUMPDEST DUP1 CALLDATALOAD PUSH2 0xFFFF DUP2 AND DUP2 EQ PUSH2 0x588 JUMPI PUSH0 DUP1 REVERT JUMPDEST PUSH0 DUP1 PUSH0 DUP1 PUSH0 PUSH1 0xA0 DUP7 DUP9 SUB SLT ISZERO PUSH2 0xF4A JUMPI PUSH0 DUP1 REVERT JUMPDEST DUP6 CALLDATALOAD PUSH1 0x1 PUSH1 0x1 PUSH1 0x40 SHL SUB DUP2 GT ISZERO PUSH2 0xF5F JUMPI PUSH0 DUP1 REVERT JUMPDEST PUSH2 0xF6B DUP9 DUP3 DUP10 ADD PUSH2 0xE9C JUMP JUMPDEST SWAP6 POP POP PUSH1 0x20 DUP7 ADD CALLDATALOAD PUSH1 0x1 PUSH1 0x1 PUSH1 0x40 SHL SUB DUP2 GT ISZERO PUSH2 0xF86 JUMPI PUSH0 DUP1 REVERT JUMPDEST PUSH2 0xF92 DUP9 DUP3 DUP10 ADD PUSH2 0xE9C JUMP JUMPDEST SWAP5 POP POP PUSH1 0x40 DUP7 ADD CALLDATALOAD PUSH1 0x1 PUSH1 0x1 PUSH1 0x40 SHL SUB DUP2 GT ISZERO PUSH2 0xFAD JUMPI PUSH0 DUP1 REVERT JUMPDEST PUSH2 0xFB9 DUP9 DUP3 DUP10 ADD PUSH2 0xE9C JUMP JUMPDEST SWAP4 POP POP PUSH2 0xFC8 PUSH1 0x60 DUP8 ADD PUSH2 0xF25 JUMP JUMPDEST SWAP2 POP PUSH2 0xFD6 PUSH1 0x80 DUP8 ADD PUSH2 0xF25 JUMP JUMPDEST SWAP1 POP SWAP3 SWAP6 POP SWAP3 SWAP6 SWAP1 SWAP4 POP JUMP JUMPDEST PUSH0 PUSH1 0x20 DUP3 DUP5 SUB SLT ISZERO PUSH2 0xFF2 JUMPI PUSH0 DUP1 REVERT JUMPDEST POP CALLDATALOAD SWAP2 SWAP1 POP JUMP JUMPDEST PUSH0 DUP1 PUSH1 0x40 DUP4 DUP6 SUB SLT ISZERO PUSH2 0x100A JUMPI PUSH0 DUP1 REVERT JUMPDEST DUP3 CALLDATALOAD PUSH1 0x1 PUSH1 0x1 PUSH1 0x40 SHL SUB DUP2 GT ISZERO PUSH2 0x101F JUMPI PUSH0 DUP1 REVERT JUMPDEST PUSH2 0x102B DUP6 DUP3 DUP7 ADD PUSH2 0xE9C JUMP JUMPDEST SWAP3 POP POP PUSH1 0x20 DUP4 ADD CALLDATALOAD PUSH1 0x1 PUSH1 0x1 PUSH1 0x40 SHL SUB DUP2 GT ISZERO PUSH2 0x1046 JUMPI PUSH0 DUP1 REVERT JUMPDEST PUSH2 0x1052 DUP6 DUP3 DUP7 ADD PUSH2 0xE9C JUMP JUMPDEST SWAP2 POP POP SWAP3 POP SWAP3 SWAP1 POP JUMP JUMPDEST PUSH1 0x20 DUP1 DUP3 MSTORE DUP3 MLOAD DUP3 DUP3 ADD DUP2 SWAP1 MSTORE PUSH0 SWAP2 DUP5 ADD SWAP1 PUSH1 0x40 DUP5 ADD SWAP1 DUP4 JUMPDEST DUP2 DUP2 LT ISZERO PUSH2 0x109C JUMPI DUP4 MLOAD PUSH1 0x1 PUSH1 0x1 PUSH1 0xA0 SHL SUB AND DUP4 MSTORE PUSH1 0x20 SWAP4 DUP5 ADD SWAP4 SWAP1 SWAP3 ADD SWAP2 PUSH1 0x1 ADD PUSH2 0x1075 JUMP JUMPDEST POP SWAP1 SWAP6 SWAP5 POP POP POP POP POP JUMP JUMPDEST PUSH0 DUP1 PUSH0 PUSH1 0x60 DUP5 DUP7 SUB SLT ISZERO PUSH2 0x10B9 JUMPI PUSH0 DUP1 REVERT JUMPDEST DUP4 CALLDATALOAD PUSH1 0x1 PUSH1 0x1 PUSH1 0x40 SHL SUB DUP2 GT ISZERO PUSH2 0x10CE JUMPI PUSH0 DUP1 REVERT JUMPDEST PUSH2 0x10DA DUP7 DUP3 DUP8 ADD PUSH2 0xE9C JUMP JUMPDEST SWAP4 POP POP PUSH1 0x20 DUP5 ADD CALLDATALOAD PUSH1 0x1 PUSH1 0x1 PUSH1 0x40 SHL SUB DUP2 GT ISZERO PUSH2 0x10F5 JUMPI PUSH0 DUP1 REVERT JUMPDEST PUSH2 0x1101 DUP7 DUP3 DUP8 ADD PUSH2 0xE9C JUMP JUMPDEST SWAP4 SWAP7 SWAP4 SWAP6 POP POP POP POP PUSH1 0x40 SWAP2 SWAP1 SWAP2 ADD CALLDATALOAD SWAP1 JUMP JUMPDEST PUSH0 DUP1 PUSH0 DUP1 PUSH1 0x80 DUP6 DUP8 SUB SLT ISZERO PUSH2 0x1126 JUMPI PUSH0 DUP1 REVERT JUMPDEST DUP5 CALLDATALOAD PUSH1 0x1 PUSH1 0x1 PUSH1 0x40 SHL SUB DUP2 GT ISZERO PUSH2 0x113B JUMPI PUSH0 DUP1 REVERT JUMPDEST PUSH2 0x1147 DUP8 DUP3 DUP9 ADD PUSH2 0xE9C JUMP JUMPDEST SWAP5 POP POP PUSH1 0x20 DUP6 ADD CALLDATALOAD PUSH1 0x1 PUSH1 0x1 PUSH1 0x40 SHL SUB DUP2 GT ISZERO PUSH2 0x1162 JUMPI PUSH0 DUP1 REVERT JUMPDEST PUSH2 0x116E DUP8 DUP3 DUP9 ADD PUSH2 0xE9C JUMP JUMPDEST SWAP4 POP POP PUSH1 0x40 DUP6 ADD CALLDATALOAD PUSH1 0x1 PUSH1 0x1 PUSH1 0x40 SHL SUB DUP2 GT ISZERO PUSH2 0x1189 JUMPI PUSH0 DUP1 REVERT JUMPDEST PUSH2 0x1195 DUP8 DUP3 DUP9 ADD PUSH2 0xE9C JUMP JUMPDEST SWAP3 POP POP PUSH1 0x60 DUP6 ADD CALLDATALOAD PUSH1 0x1 PUSH1 0x1 PUSH1 0x40 SHL SUB DUP2 GT ISZERO PUSH2 0x11B0 JUMPI PUSH0 DUP1 REVERT JUMPDEST PUSH2 0x11BC DUP8 DUP3 DUP9 ADD PUSH2 0xE9C JUMP JUMPDEST SWAP2 POP POP SWAP3 SWAP6 SWAP2 SWAP5 POP SWAP3 POP JUMP JUMPDEST PUSH1 0x1 PUSH1 0x1 PUSH1 0xA0 SHL SUB DUP2 AND DUP2 EQ PUSH2 0x11DC JUMPI PUSH0 DUP1 REVERT JUMPDEST POP JUMP JUMPDEST PUSH0 DUP1 PUSH1 0x40 DUP4 DUP6 SUB SLT ISZERO PUSH2 0x11F0 JUMPI PUSH0 DUP1 REVERT JUMPDEST DUP3 CALLDATALOAD PUSH2 0x11FB DUP2 PUSH2 0x11C8 JUMP JUMPDEST SWAP5 PUSH1 0x20 SWAP4 SWAP1 SWAP4 ADD CALLDATALOAD SWAP4 POP POP POP JUMP JUMPDEST PUSH0 DUP1 PUSH1 0x40 DUP4 DUP6 SUB SLT ISZERO PUSH2 0x121A JUMPI PUSH0 DUP1 REVERT JUMPDEST DUP3 CALLDATALOAD PUSH1 0x1 PUSH1 0x1 PUSH1 0x40 SHL SUB DUP2 GT ISZERO PUSH2 0x122F JUMPI PUSH0 DUP1 REVERT JUMPDEST PUSH2 0x123B DUP6 DUP3 DUP7 ADD PUSH2 0xE9C JUMP JUMPDEST SWAP3 POP POP PUSH1 0x20 DUP4 ADD CALLDATALOAD PUSH2 0x124C DUP2 PUSH2 0x11C8 JUMP JUMPDEST DUP1 SWAP2 POP POP SWAP3 POP SWAP3 SWAP1 POP JUMP JUMPDEST PUSH0 DUP1 PUSH1 0x40 DUP4 DUP6 SUB SLT ISZERO PUSH2 0x1268 JUMPI PUSH0 DUP1 REVERT JUMPDEST DUP3 CALLDATALOAD SWAP2 POP PUSH1 0x20 DUP4 ADD CALLDATALOAD PUSH2 0x124C DUP2 PUSH2 0x11C8 JUMP JUMPDEST PUSH1 0x20 DUP1 DUP3 MSTORE PUSH1 0xA SWAP1 DUP3 ADD MSTORE PUSH10 0x27B7363C9037BBB732B9 PUSH1 0xB1 SHL PUSH1 0x40 DUP3 ADD MSTORE PUSH1 0x60 ADD SWAP1 JUMP JUMPDEST PUSH0 DUP2 MLOAD DUP1 DUP5 MSTORE DUP1 PUSH1 0x20 DUP5 ADD PUSH1 0x20 DUP7 ADD MCOPY PUSH0 PUSH1 0x20 DUP3 DUP7 ADD ADD MSTORE PUSH1 0x20 PUSH1 0x1F NOT PUSH1 0x1F DUP4 ADD AND DUP6 ADD ADD SWAP2 POP POP SWAP3 SWAP2 POP POP JUMP JUMPDEST PUSH1 0xE0 DUP2 MSTORE PUSH0 PUSH2 0x12DE PUSH1 0xE0 DUP4 ADD DUP11 PUSH2 0x129E JUMP JUMPDEST DUP3 DUP2 SUB PUSH1 0x20 DUP5 ADD MSTORE PUSH2 0x12F0 DUP2 DUP11 PUSH2 0x129E JUMP JUMPDEST SWAP1 POP DUP3 DUP2 SUB PUSH1 0x40 DUP5 ADD MSTORE PUSH2 0x1304 DUP2 DUP10 PUSH2 0x129E JUMP JUMPDEST PUSH2 0xFFFF SWAP8 DUP9 AND PUSH1 0x60 DUP6 ADD MSTORE SWAP6 SWAP1 SWAP7 AND PUSH1 0x80 DUP4 ADD MSTORE POP PUSH1 0x1 PUSH1 0x1 PUSH1 0xA0 SHL SUB SWAP3 DUP4 AND PUSH1 0xA0 DUP3 ADD MSTORE SWAP2 AND PUSH1 0xC0 SWAP1 SWAP2 ADD MSTORE SWAP5 SWAP4 POP POP POP POP JUMP JUMPDEST PUSH1 0x20 DUP1 DUP3 MSTORE PUSH1 0xC SWAP1 DUP3 ADD MSTORE PUSH12 0x125B9CDD59999A58DA595B9D PUSH1 0xA2 SHL PUSH1 0x40 DUP3 ADD MSTORE PUSH1 0x60 ADD SWAP1 JUMP JUMPDEST PUSH1 0x20 DUP1 DUP3 MSTORE PUSH1 0x6 SWAP1 DUP3 ADD MSTORE PUSH6 0x11985A5B1959 PUSH1 0xD2 SHL PUSH1 0x40 DUP3 ADD MSTORE PUSH1 0x60 ADD SWAP1 JUMP JUMPDEST PUSH1 0x80 DUP2 MSTORE PUSH0 PUSH2 0x1391 PUSH1 0x80 DUP4 ADD DUP8 PUSH2 0x129E JUMP JUMPDEST DUP3 DUP2 SUB PUSH1 0x20 DUP5 ADD MSTORE PUSH2 0x13A3 DUP2 DUP8 PUSH2 0x129E JUMP JUMPDEST PUSH1 0x1 PUSH1 0x1 PUSH1 0xA0 SHL SUB SWAP6 DUP7 AND PUSH1 0x40 DUP6 ADD MSTORE SWAP4 SWAP1 SWAP5 AND PUSH1 0x60 SWAP1 SWAP3 ADD SWAP2 SWAP1 SWAP2 MSTORE POP SWAP4 SWAP3 POP POP POP JUMP JUMPDEST PUSH1 0xA0 DUP2 MSTORE PUSH0 PUSH2 0x13DA PUSH1 0xA0 DUP4 ADD DUP9 PUSH2 0x129E JUMP JUMPDEST DUP3 DUP2 SUB PUSH1 0x20 DUP5 ADD MSTORE PUSH2 0x13EC DUP2 DUP9 PUSH2 0x129E JUMP JUMPDEST PUSH1 0x40 DUP5 ADD SWAP7 SWAP1 SWAP7 MSTORE POP POP PUSH1 0x1 PUSH1 0x1 PUSH1 0xA0 SHL SUB SWAP3 DUP4 AND PUSH1 0x60 DUP3 ADD MSTORE SWAP2 AND PUSH1 0x80 SWAP1 SWAP2 ADD MSTORE SWAP3 SWAP2 POP POP JUMP JUMPDEST PUSH1 0xC0 DUP2 MSTORE PUSH0 PUSH2 0x1426 PUSH1 0xC0 DUP4 ADD DUP10 PUSH2 0x129E JUMP JUMPDEST DUP3 DUP2 SUB PUSH1 0x20 DUP5 ADD MSTORE PUSH2 0x1438 DUP2 DUP10 PUSH2 0x129E JUMP JUMPDEST SWAP1 POP DUP3 DUP2 SUB PUSH1 0x40 DUP5 ADD MSTORE PUSH2 0x144C DUP2 DUP9 PUSH2 0x129E JUMP JUMPDEST SWAP1 POP DUP3 DUP2 SUB PUSH1 0x60 DUP5 ADD MSTORE PUSH2 0x1460 DUP2 DUP8 PUSH2 0x129E JUMP JUMPDEST PUSH1 0x1 PUSH1 0x1 PUSH1 0xA0 SHL SUB SWAP6 DUP7 AND PUSH1 0x80 DUP6 ADD MSTORE SWAP4 SWAP1 SWAP5 AND PUSH1 0xA0 SWAP1 SWAP3 ADD SWAP2 SWAP1 SWAP2 MSTORE POP SWAP6 SWAP5 POP POP POP POP POP JUMP JUMPDEST PUSH1 0x80 DUP2 MSTORE PUSH0 PUSH2 0x1499 PUSH1 0x80 DUP4 ADD DUP8 PUSH2 0x129E JUMP JUMPDEST PUSH1 0x1 PUSH1 0x1 PUSH1 0xA0 SHL SUB SWAP6 DUP7 AND PUSH1 0x20 DUP5 ADD MSTORE SWAP4 DUP6 AND PUSH1 0x40 DUP4 ADD MSTORE POP SWAP3 AND PUSH1 0x60 SWAP1 SWAP3 ADD SWAP2 SWAP1 SWAP2 MSTORE SWAP2 SWAP1 POP JUMP JUMPDEST PUSH1 0x20 DUP1 DUP3 MSTORE PUSH1 0x3 SWAP1 DUP3 ADD MSTORE PUSH3 0xD0C0D PUSH1 0xEA SHL PUSH1 0x40 DUP3 ADD MSTORE PUSH1 0x60 ADD SWAP1 JUMP JUMPDEST PUSH4 0x4E487B71 PUSH1 0xE0 SHL PUSH0 MSTORE PUSH1 0x32 PUSH1 0x4 MSTORE PUSH1 0x24 PUSH0 REVERT JUMPDEST PUSH4 0x4E487B71 PUSH1 0xE0 SHL PUSH0 MSTORE PUSH1 0x11 PUSH1 0x4 MSTORE PUSH1 0x24 PUSH0 REVERT JUMPDEST DUP2 DUP2 SUB DUP2 DUP2 GT ISZERO PUSH2 0xAA0 JUMPI PUSH2 0xAA0 PUSH2 0x14F3 JUMP JUMPDEST DUP1 DUP3 ADD DUP1 DUP3 GT ISZERO PUSH2 0xAA0 JUMPI PUSH2 0xAA0 PUSH2 0x14F3 JUMP JUMPDEST PUSH4 0x4E487B71 PUSH1 0xE0 SHL PUSH0 MSTORE PUSH1 0x31 PUSH1 0x4 MSTORE PUSH1 0x24 PUSH0 REVERT INVALID PUSH1 0x80 PUSH1 0x40 MSTORE CALLVALUE DUP1 ISZERO PUSH2 0xF JUMPI PUSH0 DUP1 REVERT JUMPDEST POP PUSH1 0x40 MLOAD PUSH2 0x14A9 CODESIZE SUB DUP1 PUSH2 0x14A9 DUP4 CODECOPY DUP2 ADD PUSH1 0x40 DUP2 SWAP1 MSTORE PUSH2 0x2E SWAP2 PUSH2 0x1B3 JUMP JUMPDEST PUSH0 PUSH1 0x1 DUP2 SWAP1 SSTORE DUP8 DUP4 DUP4 DUP4 PUSH2 0x42 DUP5 DUP3 PUSH2 0x307 JUMP JUMPDEST POP PUSH1 0x2 DUP1 SLOAD PUSH1 0x1 PUSH1 0x1 PUSH1 0xA0 SHL SUB SWAP4 DUP5 AND PUSH1 0x1 PUSH1 0x1 PUSH1 0xA0 SHL SUB NOT SWAP2 DUP3 AND OR SWAP1 SWAP2 SSTORE PUSH1 0x3 DUP1 SLOAD SWAP3 SWAP1 SWAP4 AND SWAP2 AND OR SWAP1 SSTORE POP PUSH1 0x5 SWAP1 POP PUSH2 0x7E DUP8 DUP3 PUSH2 0x307 JUMP JUMPDEST POP PUSH1 0x6 PUSH2 0x8B DUP7 DUP3 PUSH2 0x307 JUMP JUMPDEST POP PUSH1 0x7 DUP1 SLOAD PUSH2 0xFFFF DUP6 DUP2 AND PUSH3 0x10000 MUL PUSH4 0xFFFFFFFF NOT SWAP1 SWAP3 AND SWAP1 DUP8 AND OR OR SWAP1 SSTORE PUSH1 0x40 MLOAD CALLER DUP2 MSTORE PUSH32 0x1449ABF21E49FD025F33495E77F7B1461CAEFDD3D4BB646424A3F445C4576A5B SWAP1 PUSH1 0x20 ADD PUSH1 0x40 MLOAD DUP1 SWAP2 SUB SWAP1 LOG1 POP POP POP POP POP POP POP PUSH2 0x3C1 JUMP JUMPDEST PUSH4 0x4E487B71 PUSH1 0xE0 SHL PUSH0 MSTORE PUSH1 0x41 PUSH1 0x4 MSTORE PUSH1 0x24 PUSH0 REVERT JUMPDEST PUSH0 DUP3 PUSH1 0x1F DUP4 ADD SLT PUSH2 0x10D JUMPI PUSH0 DUP1 REVERT JUMPDEST DUP2 MLOAD PUSH1 0x1 PUSH1 0x1 PUSH1 0x40 SHL SUB DUP2 GT ISZERO PUSH2 0x126 JUMPI PUSH2 0x126 PUSH2 0xEA JUMP JUMPDEST PUSH1 0x40 MLOAD PUSH1 0x1F DUP3 ADD PUSH1 0x1F NOT SWAP1 DUP2 AND PUSH1 0x3F ADD AND DUP2 ADD PUSH1 0x1 PUSH1 0x1 PUSH1 0x40 SHL SUB DUP2 GT DUP3 DUP3 LT OR ISZERO PUSH2 0x154 JUMPI PUSH2 0x154 PUSH2 0xEA JUMP JUMPDEST PUSH1 0x40 MSTORE DUP2 DUP2 MSTORE DUP4 DUP3 ADD PUSH1 0x20 ADD DUP6 LT ISZERO PUSH2 0x16B JUMPI PUSH0 DUP1 REVERT JUMPDEST DUP2 PUSH1 0x20 DUP6 ADD PUSH1 0x20 DUP4 ADD MCOPY PUSH0 SWAP2 DUP2 ADD PUSH1 0x20 ADD SWAP2 SWAP1 SWAP2 MSTORE SWAP4 SWAP3 POP POP POP JUMP JUMPDEST DUP1 MLOAD PUSH2 0xFFFF DUP2 AND DUP2 EQ PUSH2 0x198 JUMPI PUSH0 DUP1 REVERT JUMPDEST SWAP2 SWAP1 POP JUMP JUMPDEST DUP1 MLOAD PUSH1 0x1 PUSH1 0x1 PUSH1 0xA0 SHL SUB DUP2 AND DUP2 EQ PUSH2 0x198 JUMPI PUSH0 DUP1 REVERT JUMPDEST PUSH0 DUP1 PUSH0 DUP1 PUSH0 DUP1 PUSH0 PUSH1 0xE0 DUP9 DUP11 SUB SLT ISZERO PUSH2 0x1C9 JUMPI PUSH0 DUP1 REVERT JUMPDEST DUP8 MLOAD PUSH1 0x1 PUSH1 0x1 PUSH1 0x40 SHL SUB DUP2 GT ISZERO PUSH2 0x1DE JUMPI PUSH0 DUP1 REVERT JUMPDEST PUSH2 0x1EA DUP11 DUP3 DUP12 ADD PUSH2 0xFE JUMP JUMPDEST PUSH1 0x20 DUP11 ADD MLOAD SWAP1 SWAP9 POP SWAP1 POP PUSH1 0x1 PUSH1 0x1 PUSH1 0x40 SHL SUB DUP2 GT ISZERO PUSH2 0x207 JUMPI PUSH0 DUP1 REVERT JUMPDEST PUSH2 0x213 DUP11 DUP3 DUP12 ADD PUSH2 0xFE JUMP JUMPDEST PUSH1 0x40 DUP11 ADD MLOAD SWAP1 SWAP8 POP SWAP1 POP PUSH1 0x1 PUSH1 0x1 PUSH1 0x40 SHL SUB DUP2 GT ISZERO PUSH2 0x230 JUMPI PUSH0 DUP1 REVERT JUMPDEST PUSH2 0x23C DUP11 DUP3 DUP12 ADD PUSH2 0xFE JUMP JUMPDEST SWAP6 POP POP PUSH2 0x24B PUSH1 0x60 DUP10 ADD PUSH2 0x187 JUMP JUMPDEST SWAP4 POP PUSH2 0x259 PUSH1 0x80 DUP10 ADD PUSH2 0x187 JUMP JUMPDEST SWAP3 POP PUSH2 0x267 PUSH1 0xA0 DUP10 ADD PUSH2 0x19D JUMP JUMPDEST SWAP2 POP PUSH2 0x275 PUSH1 0xC0 DUP10 ADD PUSH2 0x19D JUMP JUMPDEST SWAP1 POP SWAP3 SWAP6 SWAP9 SWAP2 SWAP5 SWAP8 POP SWAP3 SWAP6 POP JUMP JUMPDEST PUSH1 0x1 DUP2 DUP2 SHR SWAP1 DUP3 AND DUP1 PUSH2 0x297 JUMPI PUSH1 0x7F DUP3 AND SWAP2 POP JUMPDEST PUSH1 0x20 DUP3 LT DUP2 SUB PUSH2 0x2B5 JUMPI PUSH4 0x4E487B71 PUSH1 0xE0 SHL PUSH0 MSTORE PUSH1 0x22 PUSH1 0x4 MSTORE PUSH1 0x24 PUSH0 REVERT JUMPDEST POP SWAP2 SWAP1 POP JUMP JUMPDEST PUSH1 0x1F DUP3 GT ISZERO PUSH2 0x302 JUMPI DUP1 PUSH0 MSTORE PUSH1 0x20 PUSH0 KECCAK256 PUSH1 0x1F DUP5 ADD PUSH1 0x5 SHR DUP2 ADD PUSH1 0x20 DUP6 LT ISZERO PUSH2 0x2E0 JUMPI POP DUP1 JUMPDEST PUSH1 0x1F DUP5 ADD PUSH1 0x5 SHR DUP3 ADD SWAP2 POP JUMPDEST DUP2 DUP2 LT ISZERO PUSH2 0x2FF JUMPI PUSH0 DUP2 SSTORE PUSH1 0x1 ADD PUSH2 0x2EC JUMP JUMPDEST POP POP JUMPDEST POP POP POP JUMP JUMPDEST DUP2 MLOAD PUSH1 0x1 PUSH1 0x1 PUSH1 0x40 SHL SUB DUP2 GT ISZERO PUSH2 0x320 JUMPI PUSH2 0x320 PUSH2 0xEA JUMP JUMPDEST PUSH2 0x334 DUP2 PUSH2 0x32E DUP5 SLOAD PUSH2 0x283 JUMP JUMPDEST DUP5 PUSH2 0x2BB JUMP JUMPDEST PUSH1 0x20 PUSH1 0x1F DUP3 GT PUSH1 0x1 DUP2 EQ PUSH2 0x366 JUMPI PUSH0 DUP4 ISZERO PUSH2 0x34F JUMPI POP DUP5 DUP3 ADD MLOAD JUMPDEST PUSH0 NOT PUSH1 0x3 DUP6 SWAP1 SHL SHR NOT AND PUSH1 0x1 DUP5 SWAP1 SHL OR DUP5 SSTORE PUSH2 0x2FF JUMP JUMPDEST PUSH0 DUP5 DUP2 MSTORE PUSH1 0x20 DUP2 KECCAK256 PUSH1 0x1F NOT DUP6 AND SWAP2 JUMPDEST DUP3 DUP2 LT ISZERO PUSH2 0x395 JUMPI DUP8 DUP6 ADD MLOAD DUP3 SSTORE PUSH1 0x20 SWAP5 DUP6 ADD SWAP5 PUSH1 0x1 SWAP1 SWAP3 ADD SWAP2 ADD PUSH2 0x375 JUMP JUMPDEST POP DUP5 DUP3 LT ISZERO PUSH2 0x3B2 JUMPI DUP7 DUP5 ADD MLOAD PUSH0 NOT PUSH1 0x3 DUP8 SWAP1 SHL PUSH1 0xF8 AND SHR NOT AND DUP2 SSTORE JUMPDEST POP POP POP POP PUSH1 0x1 SWAP1 DUP2 SHL ADD SWAP1 SSTORE POP JUMP JUMPDEST PUSH2 0x10DB DUP1 PUSH2 0x3CE PUSH0 CODECOPY PUSH0 RETURN INVALID PUSH1 0x80 PUSH1 0x40 MSTORE CALLVALUE DUP1 ISZERO PUSH2 0xF JUMPI PUSH0 DUP1 REVERT JUMPDEST POP PUSH1 0x4 CALLDATASIZE LT PUSH2 0xB8 JUMPI PUSH0 CALLDATALOAD PUSH1 0xE0 SHR DUP1 PUSH4 0xDBEF92C EQ PUSH2 0xBC JUMPI DUP1 PUSH4 0x26C7B327 EQ PUSH2 0xD1 JUMPI DUP1 PUSH4 0x40AA5C71 EQ PUSH2 0xED JUMPI DUP1 PUSH4 0x478E5CB3 EQ PUSH2 0x100 JUMPI DUP1 PUSH4 0x4BA83374 EQ PUSH2 0x113 JUMPI DUP1 PUSH4 0x5DA6EF8D EQ PUSH2 0x12B JUMPI DUP1 PUSH4 0x80F76021 EQ PUSH2 0x13E JUMPI DUP1 PUSH4 0xA95264D0 EQ PUSH2 0x153 JUMPI DUP1 PUSH4 0xB9DAF3E2 EQ PUSH2 0x168 JUMPI DUP1 PUSH4 0xBA379E86 EQ PUSH2 0x170 JUMPI DUP1 PUSH4 0xC40DA770 EQ PUSH2 0x189 JUMPI DUP1 PUSH4 0xC47F0027 EQ PUSH2 0x19C JUMPI DUP1 PUSH4 0xDED92DAC EQ PUSH2 0x1AF JUMPI DUP1 PUSH4 0xEFD8AF9F EQ PUSH2 0x1C2 JUMPI JUMPDEST PUSH0 DUP1 REVERT JUMPDEST PUSH2 0xCF PUSH2 0xCA CALLDATASIZE PUSH1 0x4 PUSH2 0xC84 JUMP JUMPDEST PUSH2 0x1D5 JUMP JUMPDEST STOP JUMPDEST PUSH2 0xDA PUSH1 0x1 SLOAD DUP2 JUMP JUMPDEST PUSH1 0x40 MLOAD SWAP1 DUP2 MSTORE PUSH1 0x20 ADD JUMPDEST PUSH1 0x40 MLOAD DUP1 SWAP2 SUB SWAP1 RETURN JUMPDEST PUSH2 0xCF PUSH2 0xFB CALLDATASIZE PUSH1 0x4 PUSH2 0xCD3 JUMP JUMPDEST PUSH2 0x251 JUMP JUMPDEST PUSH2 0xCF PUSH2 0x10E CALLDATASIZE PUSH1 0x4 PUSH2 0xCF3 JUMP JUMPDEST PUSH2 0x2BE JUMP JUMPDEST PUSH2 0x11B PUSH2 0x36E JUMP JUMPDEST PUSH1 0x40 MLOAD SWAP1 ISZERO ISZERO DUP2 MSTORE PUSH1 0x20 ADD PUSH2 0xE4 JUMP JUMPDEST PUSH2 0xCF PUSH2 0x139 CALLDATASIZE PUSH1 0x4 PUSH2 0xD9F JUMP JUMPDEST PUSH2 0x3DA JUMP JUMPDEST PUSH2 0x146 PUSH2 0x517 JUMP JUMPDEST PUSH1 0x40 MLOAD PUSH2 0xE4 SWAP2 SWAP1 PUSH2 0xDC5 JUMP JUMPDEST PUSH2 0x15B PUSH2 0x568 JUMP JUMPDEST PUSH1 0x40 MLOAD PUSH2 0xE4 SWAP2 SWAP1 PUSH2 0xDD9 JUMP JUMPDEST PUSH2 0x11B PUSH2 0x608 JUMP JUMPDEST PUSH2 0x178 PUSH2 0x632 JUMP JUMPDEST PUSH1 0x40 MLOAD PUSH2 0xE4 SWAP6 SWAP5 SWAP4 SWAP3 SWAP2 SWAP1 PUSH2 0xE52 JUMP JUMPDEST PUSH2 0xCF PUSH2 0x197 CALLDATASIZE PUSH1 0x4 PUSH2 0xCD3 JUMP JUMPDEST PUSH2 0x89E JUMP JUMPDEST PUSH2 0xCF PUSH2 0x1AA CALLDATASIZE PUSH1 0x4 PUSH2 0xC84 JUMP JUMPDEST PUSH2 0x912 JUMP JUMPDEST PUSH2 0xCF PUSH2 0x1BD CALLDATASIZE PUSH1 0x4 PUSH2 0xD9F JUMP JUMPDEST PUSH2 0x95C JUMP JUMPDEST PUSH2 0xCF PUSH2 0x1D0 CALLDATASIZE PUSH1 0x4 PUSH2 0xC84 JUMP JUMPDEST PUSH2 0xA52 JUMP JUMPDEST PUSH1 0x2 SLOAD PUSH1 0x1 PUSH1 0x1 PUSH1 0xA0 SHL SUB AND CALLER EQ DUP1 PUSH2 0x1F8 JUMPI POP PUSH1 0x3 SLOAD PUSH1 0x1 PUSH1 0x1 PUSH1 0xA0 SHL SUB AND CALLER EQ JUMPDEST PUSH2 0x21D JUMPI PUSH1 0x40 MLOAD PUSH3 0x461BCD PUSH1 0xE5 SHL DUP2 MSTORE PUSH1 0x4 ADD PUSH2 0x214 SWAP1 PUSH2 0xEAB JUMP JUMPDEST PUSH1 0x40 MLOAD DUP1 SWAP2 SUB SWAP1 REVERT JUMPDEST PUSH1 0x6 PUSH2 0x229 DUP3 DUP3 PUSH2 0xF4C JUMP JUMPDEST POP PUSH0 DUP1 MLOAD PUSH1 0x20 PUSH2 0x1086 DUP4 CODECOPY DUP2 MLOAD SWAP2 MSTORE CALLER PUSH1 0x40 MLOAD PUSH2 0x246 SWAP2 SWAP1 PUSH2 0xDC5 JUMP JUMPDEST PUSH1 0x40 MLOAD DUP1 SWAP2 SUB SWAP1 LOG1 POP JUMP JUMPDEST PUSH1 0x2 SLOAD PUSH1 0x1 PUSH1 0x1 PUSH1 0xA0 SHL SUB AND CALLER EQ DUP1 PUSH2 0x274 JUMPI POP PUSH1 0x3 SLOAD PUSH1 0x1 PUSH1 0x1 PUSH1 0xA0 SHL SUB AND CALLER EQ JUMPDEST PUSH2 0x290 JUMPI PUSH1 0x40 MLOAD PUSH3 0x461BCD PUSH1 0xE5 SHL DUP2 MSTORE PUSH1 0x4 ADD PUSH2 0x214 SWAP1 PUSH2 0xEAB JUMP JUMPDEST PUSH1 0x7 DUP1 SLOAD PUSH2 0xFFFF NOT AND PUSH2 0xFFFF DUP4 AND OR SWAP1 SSTORE PUSH1 0x40 MLOAD PUSH0 DUP1 MLOAD PUSH1 0x20 PUSH2 0x1086 DUP4 CODECOPY DUP2 MLOAD SWAP2 MSTORE SWAP1 PUSH2 0x246 SWAP1 CALLER SWAP1 PUSH2 0xDC5 JUMP JUMPDEST PUSH1 0x2 SLOAD PUSH1 0x1 PUSH1 0x1 PUSH1 0xA0 SHL SUB AND CALLER EQ DUP1 PUSH2 0x2E1 JUMPI POP PUSH1 0x3 SLOAD PUSH1 0x1 PUSH1 0x1 PUSH1 0xA0 SHL SUB AND CALLER EQ JUMPDEST PUSH2 0x2FD JUMPI PUSH1 0x40 MLOAD PUSH3 0x461BCD PUSH1 0xE5 SHL DUP2 MSTORE PUSH1 0x4 ADD PUSH2 0x214 SWAP1 PUSH2 0xEAB JUMP JUMPDEST PUSH0 PUSH2 0x308 DUP7 DUP3 PUSH2 0xF4C JUMP JUMPDEST POP PUSH1 0x5 PUSH2 0x315 DUP6 DUP3 PUSH2 0xF4C JUMP JUMPDEST POP PUSH1 0x6 PUSH2 0x322 DUP5 DUP3 PUSH2 0xF4C JUMP JUMPDEST POP PUSH1 0x7 DUP1 SLOAD PUSH2 0xFFFF DUP4 DUP2 AND PUSH3 0x10000 MUL PUSH4 0xFFFFFFFF NOT SWAP1 SWAP3 AND SWAP1 DUP6 AND OR OR SWAP1 SSTORE PUSH1 0x40 MLOAD PUSH0 DUP1 MLOAD PUSH1 0x20 PUSH2 0x1086 DUP4 CODECOPY DUP2 MLOAD SWAP2 MSTORE SWAP1 PUSH2 0x35F SWAP1 CALLER SWAP1 PUSH2 0xDC5 JUMP JUMPDEST PUSH1 0x40 MLOAD DUP1 SWAP2 SUB SWAP1 LOG1 POP POP POP POP POP JUMP JUMPDEST PUSH0 PUSH2 0x3D1 CALLER PUSH1 0x4 DUP1 SLOAD DUP1 PUSH1 0x20 MUL PUSH1 0x20 ADD PUSH1 0x40 MLOAD SWAP1 DUP2 ADD PUSH1 0x40 MSTORE DUP1 SWAP3 SWAP2 SWAP1 DUP2 DUP2 MSTORE PUSH1 0x20 ADD DUP3 DUP1 SLOAD DUP1 ISZERO PUSH2 0x3C7 JUMPI PUSH1 0x20 MUL DUP3 ADD SWAP2 SWAP1 PUSH0 MSTORE PUSH1 0x20 PUSH0 KECCAK256 SWAP1 JUMPDEST DUP2 SLOAD PUSH1 0x1 PUSH1 0x1 PUSH1 0xA0 SHL SUB AND DUP2 MSTORE PUSH1 0x1 SWAP1 SWAP2 ADD SWAP1 PUSH1 0x20 ADD DUP1 DUP4 GT PUSH2 0x3A9 JUMPI JUMPDEST POP POP POP POP POP PUSH2 0xA9D JUMP JUMPDEST PUSH0 NOT EQ ISZERO SWAP1 POP SWAP1 JUMP JUMPDEST PUSH1 0x2 SLOAD PUSH1 0x1 PUSH1 0x1 PUSH1 0xA0 SHL SUB AND CALLER EQ DUP1 PUSH2 0x3FD JUMPI POP PUSH1 0x3 SLOAD PUSH1 0x1 PUSH1 0x1 PUSH1 0xA0 SHL SUB AND CALLER EQ JUMPDEST PUSH2 0x419 JUMPI PUSH1 0x40 MLOAD PUSH3 0x461BCD PUSH1 0xE5 SHL DUP2 MSTORE PUSH1 0x4 ADD PUSH2 0x214 SWAP1 PUSH2 0xEAB JUMP JUMPDEST PUSH1 0x2 SLOAD PUSH1 0x1 PUSH1 0x1 PUSH1 0xA0 SHL SUB DUP3 DUP2 AND SWAP2 AND EQ DUP1 ISZERO SWAP1 PUSH2 0x43F JUMPI POP PUSH1 0x1 PUSH1 0x1 PUSH1 0xA0 SHL SUB DUP2 AND ISZERO ISZERO JUMPDEST DUP1 ISZERO PUSH2 0x4AA JUMPI POP PUSH2 0x4A6 DUP2 PUSH1 0x4 DUP1 SLOAD DUP1 PUSH1 0x20 MUL PUSH1 0x20 ADD PUSH1 0x40 MLOAD SWAP1 DUP2 ADD PUSH1 0x40 MSTORE DUP1 SWAP3 SWAP2 SWAP1 DUP2 DUP2 MSTORE PUSH1 0x20 ADD DUP3 DUP1 SLOAD DUP1 ISZERO PUSH2 0x3C7 JUMPI PUSH1 0x20 MUL DUP3 ADD SWAP2 SWAP1 PUSH0 MSTORE PUSH1 0x20 PUSH0 KECCAK256 SWAP1 DUP2 SLOAD PUSH1 0x1 PUSH1 0x1 PUSH1 0xA0 SHL SUB AND DUP2 MSTORE PUSH1 0x1 SWAP1 SWAP2 ADD SWAP1 PUSH1 0x20 ADD DUP1 DUP4 GT PUSH2 0x3A9 JUMPI POP POP POP POP POP PUSH2 0xA9D JUMP JUMPDEST PUSH0 NOT EQ JUMPDEST PUSH2 0x4C6 JUMPI PUSH1 0x40 MLOAD PUSH3 0x461BCD PUSH1 0xE5 SHL DUP2 MSTORE PUSH1 0x4 ADD PUSH2 0x214 SWAP1 PUSH2 0xEAB JUMP JUMPDEST PUSH1 0x4 DUP1 SLOAD PUSH1 0x1 DUP2 ADD DUP3 SSTORE PUSH0 SWAP2 SWAP1 SWAP2 MSTORE PUSH32 0x8A35ACFBC15FF81A39AE7D344FD709F28E8600B4AA8C65C6B64BFE7FE36BD19B ADD DUP1 SLOAD PUSH1 0x1 PUSH1 0x1 PUSH1 0xA0 SHL SUB NOT AND PUSH1 0x1 PUSH1 0x1 PUSH1 0xA0 SHL SUB SWAP3 SWAP1 SWAP3 AND SWAP2 SWAP1 SWAP2 OR SWAP1 SSTORE JUMP JUMPDEST PUSH1 0x2 SLOAD PUSH0 SWAP1 PUSH1 0x1 PUSH1 0x1 PUSH1 0xA0 SHL SUB AND CALLER EQ DUP1 PUSH2 0x53C JUMPI POP PUSH1 0x3 SLOAD PUSH1 0x1 PUSH1 0x1 PUSH1 0xA0 SHL SUB AND CALLER EQ JUMPDEST PUSH2 0x558 JUMPI PUSH1 0x40 MLOAD PUSH3 0x461BCD PUSH1 0xE5 SHL DUP2 MSTORE PUSH1 0x4 ADD PUSH2 0x214 SWAP1 PUSH2 0xEAB JUMP JUMPDEST POP PUSH1 0x3 SLOAD PUSH1 0x1 PUSH1 0x1 PUSH1 0xA0 SHL SUB AND SWAP1 JUMP JUMPDEST PUSH1 0x2 SLOAD PUSH1 0x60 SWAP1 PUSH1 0x1 PUSH1 0x1 PUSH1 0xA0 SHL SUB AND CALLER EQ DUP1 PUSH2 0x58E JUMPI POP PUSH1 0x3 SLOAD PUSH1 0x1 PUSH1 0x1 PUSH1 0xA0 SHL SUB AND CALLER EQ JUMPDEST PUSH2 0x5AA JUMPI PUSH1 0x40 MLOAD PUSH3 0x461BCD PUSH1 0xE5 SHL DUP2 MSTORE PUSH1 0x4 ADD PUSH2 0x214 SWAP1 PUSH2 0xEAB JUMP JUMPDEST PUSH1 0x4 DUP1 SLOAD DUP1 PUSH1 0x20 MUL PUSH1 0x20 ADD PUSH1 0x40 MLOAD SWAP1 DUP2 ADD PUSH1 0x40 MSTORE DUP1 SWAP3 SWAP2 SWAP1 DUP2 DUP2 MSTORE PUSH1 0x20 ADD DUP3 DUP1 SLOAD DUP1 ISZERO PUSH2 0x5FE JUMPI PUSH1 0x20 MUL DUP3 ADD SWAP2 SWAP1 PUSH0 MSTORE PUSH1 0x20 PUSH0 KECCAK256 SWAP1 JUMPDEST DUP2 SLOAD PUSH1 0x1 PUSH1 0x1 PUSH1 0xA0 SHL SUB AND DUP2 MSTORE PUSH1 0x1 SWAP1 SWAP2 ADD SWAP1 PUSH1 0x20 ADD DUP1 DUP4 GT PUSH2 0x5E0 JUMPI JUMPDEST POP POP POP POP POP SWAP1 POP SWAP1 JUMP JUMPDEST PUSH1 0x2 SLOAD PUSH0 SWAP1 PUSH1 0x1 PUSH1 0x1 PUSH1 0xA0 SHL SUB AND CALLER EQ DUP1 PUSH2 0x62D JUMPI POP PUSH1 0x3 SLOAD PUSH1 0x1 PUSH1 0x1 PUSH1 0xA0 SHL SUB AND CALLER EQ JUMPDEST SWAP1 POP SWAP1 JUMP JUMPDEST PUSH1 0x2 SLOAD PUSH1 0x60 SWAP1 DUP2 SWAP1 DUP2 SWAP1 PUSH0 SWAP1 DUP2 SWAP1 PUSH1 0x1 PUSH1 0x1 PUSH1 0xA0 SHL SUB AND CALLER EQ DUP1 PUSH2 0x6B6 JUMPI POP PUSH2 0x6B1 CALLER PUSH1 0x4 DUP1 SLOAD DUP1 PUSH1 0x20 MUL PUSH1 0x20 ADD PUSH1 0x40 MLOAD SWAP1 DUP2 ADD PUSH1 0x40 MSTORE DUP1 SWAP3 SWAP2 SWAP1 DUP2 DUP2 MSTORE PUSH1 0x20 ADD DUP3 DUP1 SLOAD DUP1 ISZERO PUSH2 0x3C7 JUMPI PUSH1 0x20 MUL DUP3 ADD SWAP2 SWAP1 PUSH0 MSTORE PUSH1 0x20 PUSH0 KECCAK256 SWAP1 DUP2 SLOAD PUSH1 0x1 PUSH1 0x1 PUSH1 0xA0 SHL SUB AND DUP2 MSTORE PUSH1 0x1 SWAP1 SWAP2 ADD SWAP1 PUSH1 0x20 ADD DUP1 DUP4 GT PUSH2 0x3A9 JUMPI POP POP POP POP POP PUSH2 0xA9D JUMP JUMPDEST PUSH0 NOT EQ ISZERO JUMPDEST PUSH2 0x6D2 JUMPI PUSH1 0x40 MLOAD PUSH3 0x461BCD PUSH1 0xE5 SHL DUP2 MSTORE PUSH1 0x4 ADD PUSH2 0x214 SWAP1 PUSH2 0xEAB JUMP JUMPDEST PUSH1 0x7 SLOAD PUSH0 DUP1 SLOAD SWAP1 SWAP2 PUSH1 0x5 SWAP2 PUSH1 0x6 SWAP2 PUSH2 0xFFFF DUP1 DUP3 AND SWAP3 PUSH3 0x10000 SWAP1 SWAP3 DIV AND SWAP1 DUP6 SWAP1 PUSH2 0x6FB SWAP1 PUSH2 0xEC8 JUMP JUMPDEST DUP1 PUSH1 0x1F ADD PUSH1 0x20 DUP1 SWAP2 DIV MUL PUSH1 0x20 ADD PUSH1 0x40 MLOAD SWAP1 DUP2 ADD PUSH1 0x40 MSTORE DUP1 SWAP3 SWAP2 SWAP1 DUP2 DUP2 MSTORE PUSH1 0x20 ADD DUP3 DUP1 SLOAD PUSH2 0x727 SWAP1 PUSH2 0xEC8 JUMP JUMPDEST DUP1 ISZERO PUSH2 0x772 JUMPI DUP1 PUSH1 0x1F LT PUSH2 0x749 JUMPI PUSH2 0x100 DUP1 DUP4 SLOAD DIV MUL DUP4 MSTORE SWAP2 PUSH1 0x20 ADD SWAP2 PUSH2 0x772 JUMP JUMPDEST DUP3 ADD SWAP2 SWAP1 PUSH0 MSTORE PUSH1 0x20 PUSH0 KECCAK256 SWAP1 JUMPDEST DUP2 SLOAD DUP2 MSTORE SWAP1 PUSH1 0x1 ADD SWAP1 PUSH1 0x20 ADD DUP1 DUP4 GT PUSH2 0x755 JUMPI DUP3 SWAP1 SUB PUSH1 0x1F AND DUP3 ADD SWAP2 JUMPDEST POP POP POP POP POP SWAP5 POP DUP4 DUP1 SLOAD PUSH2 0x785 SWAP1 PUSH2 0xEC8 JUMP JUMPDEST DUP1 PUSH1 0x1F ADD PUSH1 0x20 DUP1 SWAP2 DIV MUL PUSH1 0x20 ADD PUSH1 0x40 MLOAD SWAP1 DUP2 ADD PUSH1 0x40 MSTORE DUP1 SWAP3 SWAP2 SWAP1 DUP2 DUP2 MSTORE PUSH1 0x20 ADD DUP3 DUP1 SLOAD PUSH2 0x7B1 SWAP1 PUSH2 0xEC8 JUMP JUMPDEST DUP1 ISZERO PUSH2 0x7FC JUMPI DUP1 PUSH1 0x1F LT PUSH2 0x7D3 JUMPI PUSH2 0x100 DUP1 DUP4 SLOAD DIV MUL DUP4 MSTORE SWAP2 PUSH1 0x20 ADD SWAP2 PUSH2 0x7FC JUMP JUMPDEST DUP3 ADD SWAP2 SWAP1 PUSH0 MSTORE PUSH1 0x20 PUSH0 KECCAK256 SWAP1 JUMPDEST DUP2 SLOAD DUP2 MSTORE SWAP1 PUSH1 0x1 ADD SWAP1 PUSH1 0x20 ADD DUP1 DUP4 GT PUSH2 0x7DF JUMPI DUP3 SWAP1 SUB PUSH1 0x1F AND DUP3 ADD SWAP2 JUMPDEST POP POP POP POP POP SWAP4 POP DUP3 DUP1 SLOAD PUSH2 0x80F SWAP1 PUSH2 0xEC8 JUMP JUMPDEST DUP1 PUSH1 0x1F ADD PUSH1 0x20 DUP1 SWAP2 DIV MUL PUSH1 0x20 ADD PUSH1 0x40 MLOAD SWAP1 DUP2 ADD PUSH1 0x40 MSTORE DUP1 SWAP3 SWAP2 SWAP1 DUP2 DUP2 MSTORE PUSH1 0x20 ADD DUP3 DUP1 SLOAD PUSH2 0x83B SWAP1 PUSH2 0xEC8 JUMP JUMPDEST DUP1 ISZERO PUSH2 0x886 JUMPI DUP1 PUSH1 0x1F LT PUSH2 0x85D JUMPI PUSH2 0x100 DUP1 DUP4 SLOAD DIV MUL DUP4 MSTORE SWAP2 PUSH1 0x20 ADD SWAP2 PUSH2 0x886 JUMP JUMPDEST DUP3 ADD SWAP2 SWAP1 PUSH0 MSTORE PUSH1 0x20 PUSH0 KECCAK256 SWAP1 JUMPDEST DUP2 SLOAD DUP2 MSTORE SWAP1 PUSH1 0x1 ADD SWAP1 PUSH1 0x20 ADD DUP1 DUP4 GT PUSH2 0x869 JUMPI DUP3 SWAP1 SUB PUSH1 0x1F AND DUP3 ADD SWAP2 JUMPDEST POP POP POP POP POP SWAP3 POP SWAP5 POP SWAP5 POP SWAP5 POP SWAP5 POP SWAP5 POP SWAP1 SWAP2 SWAP3 SWAP4 SWAP5 JUMP JUMPDEST PUSH1 0x2 SLOAD PUSH1 0x1 PUSH1 0x1 PUSH1 0xA0 SHL SUB AND CALLER EQ DUP1 PUSH2 0x8C1 JUMPI POP PUSH1 0x3 SLOAD PUSH1 0x1 PUSH1 0x1 PUSH1 0xA0 SHL SUB AND CALLER EQ JUMPDEST PUSH2 0x8DD JUMPI PUSH1 0x40 MLOAD PUSH3 0x461BCD PUSH1 0xE5 SHL DUP2 MSTORE PUSH1 0x4 ADD PUSH2 0x214 SWAP1 PUSH2 0xEAB JUMP JUMPDEST PUSH1 0x7 DUP1 SLOAD PUSH4 0xFFFF0000 NOT AND PUSH3 0x10000 PUSH2 0xFFFF DUP5 AND MUL OR SWAP1 SSTORE PUSH1 0x40 MLOAD PUSH0 DUP1 MLOAD PUSH1 0x20 PUSH2 0x1086 DUP4 CODECOPY DUP2 MLOAD SWAP2 MSTORE SWAP1 PUSH2 0x246 SWAP1 CALLER SWAP1 PUSH2 0xDC5 JUMP JUMPDEST PUSH1 0x2 SLOAD PUSH1 0x1 PUSH1 0x1 PUSH1 0xA0 SHL SUB AND CALLER EQ DUP1 PUSH2 0x935 JUMPI POP PUSH1 0x3 SLOAD PUSH1 0x1 PUSH1 0x1 PUSH1 0xA0 SHL SUB AND CALLER EQ JUMPDEST PUSH2 0x951 JUMPI PUSH1 0x40 MLOAD PUSH3 0x461BCD PUSH1 0xE5 SHL DUP2 MSTORE PUSH1 0x4 ADD PUSH2 0x214 SWAP1 PUSH2 0xEAB JUMP JUMPDEST PUSH0 PUSH2 0x229 DUP3 DUP3 PUSH2 0xF4C JUMP JUMPDEST PUSH1 0x1 PUSH1 0x1 PUSH1 0xA0 SHL SUB DUP2 AND ISZERO ISZERO DUP1 PUSH2 0x9A4 JUMPI POP PUSH1 0x3 SLOAD PUSH1 0x1 PUSH1 0x1 PUSH1 0xA0 SHL SUB AND CALLER EQ DUP1 PUSH2 0x991 JUMPI POP PUSH1 0x2 SLOAD PUSH1 0x1 PUSH1 0x1 PUSH1 0xA0 SHL SUB AND CALLER EQ JUMPDEST DUP1 PUSH2 0x9A4 JUMPI POP CALLER PUSH1 0x1 PUSH1 0x1 PUSH1 0xA0 SHL SUB DUP3 AND EQ JUMPDEST PUSH2 0x9C0 JUMPI PUSH1 0x40 MLOAD PUSH3 0x461BCD PUSH1 0xE5 SHL DUP2 MSTORE PUSH1 0x4 ADD PUSH2 0x214 SWAP1 PUSH2 0xEAB JUMP JUMPDEST PUSH0 PUSH2 0xA21 DUP3 PUSH1 0x4 DUP1 SLOAD DUP1 PUSH1 0x20 MUL PUSH1 0x20 ADD PUSH1 0x40 MLOAD SWAP1 DUP2 ADD PUSH1 0x40 MSTORE DUP1 SWAP3 SWAP2 SWAP1 DUP2 DUP2 MSTORE PUSH1 0x20 ADD DUP3 DUP1 SLOAD DUP1 ISZERO PUSH2 0x3C7 JUMPI PUSH1 0x20 MUL DUP3 ADD SWAP2 SWAP1 PUSH0 MSTORE PUSH1 0x20 PUSH0 KECCAK256 SWAP1 DUP2 SLOAD PUSH1 0x1 PUSH1 0x1 PUSH1 0xA0 SHL SUB AND DUP2 MSTORE PUSH1 0x1 SWAP1 SWAP2 ADD SWAP1 PUSH1 0x20 ADD DUP1 DUP4 GT PUSH2 0x3A9 JUMPI POP POP POP POP POP PUSH2 0xA9D JUMP JUMPDEST SWAP1 POP PUSH0 NOT DUP2 SGT PUSH2 0xA43 JUMPI PUSH1 0x40 MLOAD PUSH3 0x461BCD PUSH1 0xE5 SHL DUP2 MSTORE PUSH1 0x4 ADD PUSH2 0x214 SWAP1 PUSH2 0x1006 JUMP JUMPDEST PUSH2 0xA4E DUP2 PUSH1 0x4 PUSH2 0xAF6 JUMP JUMPDEST POP POP JUMP JUMPDEST PUSH1 0x2 SLOAD PUSH1 0x1 PUSH1 0x1 PUSH1 0xA0 SHL SUB AND CALLER EQ DUP1 PUSH2 0xA75 JUMPI POP PUSH1 0x3 SLOAD PUSH1 0x1 PUSH1 0x1 PUSH1 0xA0 SHL SUB AND CALLER EQ JUMPDEST PUSH2 0xA91 JUMPI PUSH1 0x40 MLOAD PUSH3 0x461BCD PUSH1 0xE5 SHL DUP2 MSTORE PUSH1 0x4 ADD PUSH2 0x214 SWAP1 PUSH2 0xEAB JUMP JUMPDEST PUSH1 0x5 PUSH2 0x229 DUP3 DUP3 PUSH2 0xF4C JUMP JUMPDEST PUSH0 DUP1 JUMPDEST DUP3 MLOAD DUP2 LT ISZERO PUSH2 0xAEA JUMPI DUP4 PUSH1 0x1 PUSH1 0x1 PUSH1 0xA0 SHL SUB AND DUP4 DUP3 DUP2 MLOAD DUP2 LT PUSH2 0xAC5 JUMPI PUSH2 0xAC5 PUSH2 0x1023 JUMP JUMPDEST PUSH1 0x20 MUL PUSH1 0x20 ADD ADD MLOAD PUSH1 0x1 PUSH1 0x1 PUSH1 0xA0 SHL SUB AND SUB PUSH2 0xAE2 JUMPI SWAP1 POP PUSH2 0xAF0 JUMP JUMPDEST PUSH1 0x1 ADD PUSH2 0xAA0 JUMP JUMPDEST POP PUSH0 NOT SWAP1 POP JUMPDEST SWAP3 SWAP2 POP POP JUMP JUMPDEST PUSH0 DUP3 SLT ISZERO DUP1 ISZERO PUSH2 0xB06 JUMPI POP DUP1 SLOAD DUP3 LT JUMPDEST PUSH2 0xB22 JUMPI PUSH1 0x40 MLOAD PUSH3 0x461BCD PUSH1 0xE5 SHL DUP2 MSTORE PUSH1 0x4 ADD PUSH2 0x214 SWAP1 PUSH2 0x1006 JUMP JUMPDEST DUP2 JUMPDEST DUP2 SLOAD PUSH2 0xB32 SWAP1 PUSH1 0x1 SWAP1 PUSH2 0x104B JUMP JUMPDEST DUP2 LT ISZERO PUSH2 0xBB2 JUMPI DUP2 PUSH2 0xB45 DUP3 PUSH1 0x1 PUSH2 0x105E JUMP JUMPDEST DUP2 SLOAD DUP2 LT PUSH2 0xB55 JUMPI PUSH2 0xB55 PUSH2 0x1023 JUMP JUMPDEST SWAP1 PUSH0 MSTORE PUSH1 0x20 PUSH0 KECCAK256 ADD PUSH0 SWAP1 SLOAD SWAP1 PUSH2 0x100 EXP SWAP1 DIV PUSH1 0x1 PUSH1 0x1 PUSH1 0xA0 SHL SUB AND DUP3 DUP3 DUP2 SLOAD DUP2 LT PUSH2 0xB82 JUMPI PUSH2 0xB82 PUSH2 0x1023 JUMP JUMPDEST PUSH0 SWAP2 DUP3 MSTORE PUSH1 0x20 SWAP1 SWAP2 KECCAK256 ADD DUP1 SLOAD PUSH1 0x1 PUSH1 0x1 PUSH1 0xA0 SHL SUB NOT AND PUSH1 0x1 PUSH1 0x1 PUSH1 0xA0 SHL SUB SWAP3 SWAP1 SWAP3 AND SWAP2 SWAP1 SWAP2 OR SWAP1 SSTORE PUSH1 0x1 ADD PUSH2 0xB24 JUMP JUMPDEST POP DUP1 DUP1 SLOAD DUP1 PUSH2 0xBC3 JUMPI PUSH2 0xBC3 PUSH2 0x1071 JUMP JUMPDEST PUSH0 DUP3 DUP2 MSTORE PUSH1 0x20 SWAP1 KECCAK256 DUP2 ADD PUSH0 NOT SWAP1 DUP2 ADD DUP1 SLOAD PUSH1 0x1 PUSH1 0x1 PUSH1 0xA0 SHL SUB NOT AND SWAP1 SSTORE ADD SWAP1 SSTORE POP POP JUMP JUMPDEST PUSH4 0x4E487B71 PUSH1 0xE0 SHL PUSH0 MSTORE PUSH1 0x41 PUSH1 0x4 MSTORE PUSH1 0x24 PUSH0 REVERT JUMPDEST PUSH0 DUP3 PUSH1 0x1F DUP4 ADD SLT PUSH2 0xC0A JUMPI PUSH0 DUP1 REVERT JUMPDEST DUP2 CALLDATALOAD PUSH1 0x1 PUSH1 0x1 PUSH1 0x40 SHL SUB DUP2 GT ISZERO PUSH2 0xC23 JUMPI PUSH2 0xC23 PUSH2 0xBE7 JUMP JUMPDEST PUSH1 0x40 MLOAD PUSH1 0x1F DUP3 ADD PUSH1 0x1F NOT SWAP1 DUP2 AND PUSH1 0x3F ADD AND DUP2 ADD PUSH1 0x1 PUSH1 0x1 PUSH1 0x40 SHL SUB DUP2 GT DUP3 DUP3 LT OR ISZERO PUSH2 0xC51 JUMPI PUSH2 0xC51 PUSH2 0xBE7 JUMP JUMPDEST PUSH1 0x40 MSTORE DUP2 DUP2 MSTORE DUP4 DUP3 ADD PUSH1 0x20 ADD DUP6 LT ISZERO PUSH2 0xC68 JUMPI PUSH0 DUP1 REVERT JUMPDEST DUP2 PUSH1 0x20 DUP6 ADD PUSH1 0x20 DUP4 ADD CALLDATACOPY PUSH0 SWAP2 DUP2 ADD PUSH1 0x20 ADD SWAP2 SWAP1 SWAP2 MSTORE SWAP4 SWAP3 POP POP POP JUMP JUMPDEST PUSH0 PUSH1 0x20 DUP3 DUP5 SUB SLT ISZERO PUSH2 0xC94 JUMPI PUSH0 DUP1 REVERT JUMPDEST DUP2 CALLDATALOAD PUSH1 0x1 PUSH1 0x1 PUSH1 0x40 SHL SUB DUP2 GT ISZERO PUSH2 0xCA9 JUMPI PUSH0 DUP1 REVERT JUMPDEST PUSH2 0xCB5 DUP5 DUP3 DUP6 ADD PUSH2 0xBFB JUMP JUMPDEST SWAP5 SWAP4 POP POP POP POP JUMP JUMPDEST DUP1 CALLDATALOAD PUSH2 0xFFFF DUP2 AND DUP2 EQ PUSH2 0xCCE JUMPI PUSH0 DUP1 REVERT JUMPDEST SWAP2 SWAP1 POP JUMP JUMPDEST PUSH0 PUSH1 0x20 DUP3 DUP5 SUB SLT ISZERO PUSH2 0xCE3 JUMPI PUSH0 DUP1 REVERT JUMPDEST PUSH2 0xCEC DUP3 PUSH2 0xCBD JUMP JUMPDEST SWAP4 SWAP3 POP POP POP JUMP JUMPDEST PUSH0 DUP1 PUSH0 DUP1 PUSH0 PUSH1 0xA0 DUP7 DUP9 SUB SLT ISZERO PUSH2 0xD07 JUMPI PUSH0 DUP1 REVERT JUMPDEST DUP6 CALLDATALOAD PUSH1 0x1 PUSH1 0x1 PUSH1 0x40 SHL SUB DUP2 GT ISZERO PUSH2 0xD1C JUMPI PUSH0 DUP1 REVERT JUMPDEST PUSH2 0xD28 DUP9 DUP3 DUP10 ADD PUSH2 0xBFB JUMP JUMPDEST SWAP6 POP POP PUSH1 0x20 DUP7 ADD CALLDATALOAD PUSH1 0x1 PUSH1 0x1 PUSH1 0x40 SHL SUB DUP2 GT ISZERO PUSH2 0xD43 JUMPI PUSH0 DUP1 REVERT JUMPDEST PUSH2 0xD4F DUP9 DUP3 DUP10 ADD PUSH2 0xBFB JUMP JUMPDEST SWAP5 POP POP PUSH1 0x40 DUP7 ADD CALLDATALOAD PUSH1 0x1 PUSH1 0x1 PUSH1 0x40 SHL SUB DUP2 GT ISZERO PUSH2 0xD6A JUMPI PUSH0 DUP1 REVERT JUMPDEST PUSH2 0xD76 DUP9 DUP3 DUP10 ADD PUSH2 0xBFB JUMP JUMPDEST SWAP4 POP POP PUSH2 0xD85 PUSH1 0x60 DUP8 ADD PUSH2 0xCBD JUMP JUMPDEST SWAP2 POP PUSH2 0xD93 PUSH1 0x80 DUP8 ADD PUSH2 0xCBD JUMP JUMPDEST SWAP1 POP SWAP3 SWAP6 POP SWAP3 SWAP6 SWAP1 SWAP4 POP JUMP JUMPDEST PUSH0 PUSH1 0x20 DUP3 DUP5 SUB SLT ISZERO PUSH2 0xDAF JUMPI PUSH0 DUP1 REVERT JUMPDEST DUP2 CALLDATALOAD PUSH1 0x1 PUSH1 0x1 PUSH1 0xA0 SHL SUB DUP2 AND DUP2 EQ PUSH2 0xCEC JUMPI PUSH0 DUP1 REVERT JUMPDEST PUSH1 0x1 PUSH1 0x1 PUSH1 0xA0 SHL SUB SWAP2 SWAP1 SWAP2 AND DUP2 MSTORE PUSH1 0x20 ADD SWAP1 JUMP JUMPDEST PUSH1 0x20 DUP1 DUP3 MSTORE DUP3 MLOAD DUP3 DUP3 ADD DUP2 SWAP1 MSTORE PUSH0 SWAP2 DUP5 ADD SWAP1 PUSH1 0x40 DUP5 ADD SWAP1 DUP4 JUMPDEST DUP2 DUP2 LT ISZERO PUSH2 0xE19 JUMPI DUP4 MLOAD PUSH1 0x1 PUSH1 0x1 PUSH1 0xA0 SHL SUB AND DUP4 MSTORE PUSH1 0x20 SWAP4 DUP5 ADD SWAP4 SWAP1 SWAP3 ADD SWAP2 PUSH1 0x1 ADD PUSH2 0xDF2 JUMP JUMPDEST POP SWAP1 SWAP6 SWAP5 POP POP POP POP POP JUMP JUMPDEST PUSH0 DUP2 MLOAD DUP1 DUP5 MSTORE DUP1 PUSH1 0x20 DUP5 ADD PUSH1 0x20 DUP7 ADD MCOPY PUSH0 PUSH1 0x20 DUP3 DUP7 ADD ADD MSTORE PUSH1 0x20 PUSH1 0x1F NOT PUSH1 0x1F DUP4 ADD AND DUP6 ADD ADD SWAP2 POP POP SWAP3 SWAP2 POP POP JUMP JUMPDEST PUSH1 0xA0 DUP2 MSTORE PUSH0 PUSH2 0xE64 PUSH1 0xA0 DUP4 ADD DUP9 PUSH2 0xE24 JUMP JUMPDEST DUP3 DUP2 SUB PUSH1 0x20 DUP5 ADD MSTORE PUSH2 0xE76 DUP2 DUP9 PUSH2 0xE24 JUMP JUMPDEST SWAP1 POP DUP3 DUP2 SUB PUSH1 0x40 DUP5 ADD MSTORE PUSH2 0xE8A DUP2 DUP8 PUSH2 0xE24 JUMP JUMPDEST SWAP2 POP POP PUSH2 0xFFFF DUP5 AND PUSH1 0x60 DUP4 ADD MSTORE PUSH2 0xFFFF DUP4 AND PUSH1 0x80 DUP4 ADD MSTORE SWAP7 SWAP6 POP POP POP POP POP POP JUMP JUMPDEST PUSH1 0x20 DUP1 DUP3 MSTORE PUSH1 0x3 SWAP1 DUP3 ADD MSTORE PUSH3 0x343033 PUSH1 0xE8 SHL PUSH1 0x40 DUP3 ADD MSTORE PUSH1 0x60 ADD SWAP1 JUMP JUMPDEST PUSH1 0x1 DUP2 DUP2 SHR SWAP1 DUP3 AND DUP1 PUSH2 0xEDC JUMPI PUSH1 0x7F DUP3 AND SWAP2 POP JUMPDEST PUSH1 0x20 DUP3 LT DUP2 SUB PUSH2 0xEFA JUMPI PUSH4 0x4E487B71 PUSH1 0xE0 SHL PUSH0 MSTORE PUSH1 0x22 PUSH1 0x4 MSTORE PUSH1 0x24 PUSH0 REVERT JUMPDEST POP SWAP2 SWAP1 POP JUMP JUMPDEST PUSH1 0x1F DUP3 GT ISZERO PUSH2 0xF47 JUMPI DUP1 PUSH0 MSTORE PUSH1 0x20 PUSH0 KECCAK256 PUSH1 0x1F DUP5 ADD PUSH1 0x5 SHR DUP2 ADD PUSH1 0x20 DUP6 LT ISZERO PUSH2 0xF25 JUMPI POP DUP1 JUMPDEST PUSH1 0x1F DUP5 ADD PUSH1 0x5 SHR DUP3 ADD SWAP2 POP JUMPDEST DUP2 DUP2 LT ISZERO PUSH2 0xF44 JUMPI PUSH0 DUP2 SSTORE PUSH1 0x1 ADD PUSH2 0xF31 JUMP JUMPDEST POP POP JUMPDEST POP POP POP JUMP JUMPDEST DUP2 MLOAD PUSH1 0x1 PUSH1 0x1 PUSH1 0x40 SHL SUB DUP2 GT ISZERO PUSH2 0xF65 JUMPI PUSH2 0xF65 PUSH2 0xBE7 JUMP JUMPDEST PUSH2 0xF79 DUP2 PUSH2 0xF73 DUP5 SLOAD PUSH2 0xEC8 JUMP JUMPDEST DUP5 PUSH2 0xF00 JUMP JUMPDEST PUSH1 0x20 PUSH1 0x1F DUP3 GT PUSH1 0x1 DUP2 EQ PUSH2 0xFAB JUMPI PUSH0 DUP4 ISZERO PUSH2 0xF94 JUMPI POP DUP5 DUP3 ADD MLOAD JUMPDEST PUSH0 NOT PUSH1 0x3 DUP6 SWAP1 SHL SHR NOT AND PUSH1 0x1 DUP5 SWAP1 SHL OR DUP5 SSTORE PUSH2 0xF44 JUMP JUMPDEST PUSH0 DUP5 DUP2 MSTORE PUSH1 0x20 DUP2 KECCAK256 PUSH1 0x1F NOT DUP6 AND SWAP2 JUMPDEST DUP3 DUP2 LT ISZERO PUSH2 0xFDA JUMPI DUP8 DUP6 ADD MLOAD DUP3 SSTORE PUSH1 0x20 SWAP5 DUP6 ADD SWAP5 PUSH1 0x1 SWAP1 SWAP3 ADD SWAP2 ADD PUSH2 0xFBA JUMP JUMPDEST POP DUP5 DUP3 LT ISZERO PUSH2 0xFF7 JUMPI DUP7 DUP5 ADD MLOAD PUSH0 NOT PUSH1 0x3 DUP8 SWAP1 SHL PUSH1 0xF8 AND SHR NOT AND DUP2 SSTORE JUMPDEST POP POP POP POP PUSH1 0x1 SWAP1 DUP2 SHL ADD SWAP1 SSTORE POP JUMP JUMPDEST PUSH1 0x20 DUP1 DUP3 MSTORE PUSH1 0x3 SWAP1 DUP3 ADD MSTORE PUSH3 0xD0C0D PUSH1 0xEA SHL PUSH1 0x40 DUP3 ADD MSTORE PUSH1 0x60 ADD SWAP1 JUMP JUMPDEST PUSH4 0x4E487B71 PUSH1 0xE0 SHL PUSH0 MSTORE PUSH1 0x32 PUSH1 0x4 MSTORE PUSH1 0x24 PUSH0 REVERT JUMPDEST PUSH4 0x4E487B71 PUSH1 0xE0 SHL PUSH0 MSTORE PUSH1 0x11 PUSH1 0x4 MSTORE PUSH1 0x24 PUSH0 REVERT JUMPDEST DUP2 DUP2 SUB DUP2 DUP2 GT ISZERO PUSH2 0xAF0 JUMPI PUSH2 0xAF0 PUSH2 0x1037 JUMP JUMPDEST DUP1 DUP3 ADD DUP1 DUP3 GT ISZERO PUSH2 0xAF0 JUMPI PUSH2 0xAF0 PUSH2 0x1037 JUMP JUMPDEST PUSH4 0x4E487B71 PUSH1 0xE0 SHL PUSH0 MSTORE PUSH1 0x31 PUSH1 0x4 MSTORE PUSH1 0x24 PUSH0 REVERT INVALID 0xE0 0xD LOG2 OR DUP9 MOD RETURN PUSH32 0x69815E9ED5ED3072EC1D55206D60916D99B469C7DAA421E4A264697066735822 SLT KECCAK256 PUSH10 0x99E53B8A564EFBF4ADD3 PUSH15 0xB4F82D471C4DBC14260DD7C09CDA1C BALANCE DUP2 LOG0 OR 0x2C PUSH5 0x736F6C6343 STOP ADDMOD BYTE STOP CALLER PUSH1 0x80 PUSH1 0x40 MSTORE CALLVALUE DUP1 ISZERO PUSH2 0xF JUMPI PUSH0 DUP1 REVERT JUMPDEST POP PUSH1 0x40 MLOAD PUSH2 0x113E CODESIZE SUB DUP1 PUSH2 0x113E DUP4 CODECOPY DUP2 ADD PUSH1 0x40 DUP2 SWAP1 MSTORE PUSH2 0x2E SWAP2 PUSH2 0x1A3 JUMP JUMPDEST PUSH0 PUSH1 0x1 DUP2 SWAP1 SSTORE DUP5 DUP4 DUP4 DUP4 PUSH2 0x42 DUP5 DUP3 PUSH2 0x2AC JUMP JUMPDEST POP PUSH1 0x2 DUP1 SLOAD PUSH1 0x1 PUSH1 0x1 PUSH1 0xA0 SHL SUB SWAP4 DUP5 AND PUSH1 0x1 PUSH1 0x1 PUSH1 0xA0 SHL SUB NOT SWAP2 DUP3 AND OR SWAP1 SWAP2 SSTORE PUSH1 0x3 DUP1 SLOAD SWAP3 SWAP1 SWAP4 AND SWAP2 AND OR SWAP1 SSTORE POP PUSH1 0x5 SWAP1 POP PUSH2 0x7E DUP5 DUP3 PUSH2 0x2AC JUMP JUMPDEST POP PUSH1 0x2 DUP1 SLOAD PUSH1 0x1 PUSH1 0x1 PUSH1 0xA0 SHL SUB DUP5 DUP2 AND PUSH1 0x1 PUSH1 0x1 PUSH1 0xA0 SHL SUB NOT SWAP3 DUP4 AND OR SWAP1 SWAP3 SSTORE PUSH1 0x3 DUP1 SLOAD SWAP3 DUP5 AND SWAP3 SWAP1 SWAP2 AND SWAP2 SWAP1 SWAP2 OR SWAP1 SSTORE PUSH1 0x40 MLOAD CALLER DUP2 MSTORE PUSH32 0x1449ABF21E49FD025F33495E77F7B1461CAEFDD3D4BB646424A3F445C4576A5B SWAP1 PUSH1 0x20 ADD PUSH1 0x40 MLOAD DUP1 SWAP2 SUB SWAP1 LOG1 POP POP POP POP PUSH2 0x366 JUMP JUMPDEST PUSH4 0x4E487B71 PUSH1 0xE0 SHL PUSH0 MSTORE PUSH1 0x41 PUSH1 0x4 MSTORE PUSH1 0x24 PUSH0 REVERT JUMPDEST PUSH0 DUP3 PUSH1 0x1F DUP4 ADD SLT PUSH2 0x10E JUMPI PUSH0 DUP1 REVERT JUMPDEST DUP2 MLOAD PUSH1 0x1 PUSH1 0x1 PUSH1 0x40 SHL SUB DUP2 GT ISZERO PUSH2 0x127 JUMPI PUSH2 0x127 PUSH2 0xEB JUMP JUMPDEST PUSH1 0x40 MLOAD PUSH1 0x1F DUP3 ADD PUSH1 0x1F NOT SWAP1 DUP2 AND PUSH1 0x3F ADD AND DUP2 ADD PUSH1 0x1 PUSH1 0x1 PUSH1 0x40 SHL SUB DUP2 GT DUP3 DUP3 LT OR ISZERO PUSH2 0x155 JUMPI PUSH2 0x155 PUSH2 0xEB JUMP JUMPDEST PUSH1 0x40 MSTORE DUP2 DUP2 MSTORE DUP4 DUP3 ADD PUSH1 0x20 ADD DUP6 LT ISZERO PUSH2 0x16C JUMPI PUSH0 DUP1 REVERT JUMPDEST DUP2 PUSH1 0x20 DUP6 ADD PUSH1 0x20 DUP4 ADD MCOPY PUSH0 SWAP2 DUP2 ADD PUSH1 0x20 ADD SWAP2 SWAP1 SWAP2 MSTORE SWAP4 SWAP3 POP POP POP JUMP JUMPDEST DUP1 MLOAD PUSH1 0x1 PUSH1 0x1 PUSH1 0xA0 SHL SUB DUP2 AND DUP2 EQ PUSH2 0x19E JUMPI PUSH0 DUP1 REVERT JUMPDEST SWAP2 SWAP1 POP JUMP JUMPDEST PUSH0 DUP1 PUSH0 DUP1 PUSH1 0x80 DUP6 DUP8 SUB SLT ISZERO PUSH2 0x1B6 JUMPI PUSH0 DUP1 REVERT JUMPDEST DUP5 MLOAD PUSH1 0x1 PUSH1 0x1 PUSH1 0x40 SHL SUB DUP2 GT ISZERO PUSH2 0x1CB JUMPI PUSH0 DUP1 REVERT JUMPDEST PUSH2 0x1D7 DUP8 DUP3 DUP9 ADD PUSH2 0xFF JUMP JUMPDEST PUSH1 0x20 DUP8 ADD MLOAD SWAP1 SWAP6 POP SWAP1 POP PUSH1 0x1 PUSH1 0x1 PUSH1 0x40 SHL SUB DUP2 GT ISZERO PUSH2 0x1F4 JUMPI PUSH0 DUP1 REVERT JUMPDEST PUSH2 0x200 DUP8 DUP3 DUP9 ADD PUSH2 0xFF JUMP JUMPDEST SWAP4 POP POP PUSH2 0x20F PUSH1 0x40 DUP7 ADD PUSH2 0x188 JUMP JUMPDEST SWAP2 POP PUSH2 0x21D PUSH1 0x60 DUP7 ADD PUSH2 0x188 JUMP JUMPDEST SWAP1 POP SWAP3 SWAP6 SWAP2 SWAP5 POP SWAP3 POP JUMP JUMPDEST PUSH1 0x1 DUP2 DUP2 SHR SWAP1 DUP3 AND DUP1 PUSH2 0x23C JUMPI PUSH1 0x7F DUP3 AND SWAP2 POP JUMPDEST PUSH1 0x20 DUP3 LT DUP2 SUB PUSH2 0x25A JUMPI PUSH4 0x4E487B71 PUSH1 0xE0 SHL PUSH0 MSTORE PUSH1 0x22 PUSH1 0x4 MSTORE PUSH1 0x24 PUSH0 REVERT JUMPDEST POP SWAP2 SWAP1 POP JUMP JUMPDEST PUSH1 0x1F DUP3 GT ISZERO PUSH2 0x2A7 JUMPI DUP1 PUSH0 MSTORE PUSH1 0x20 PUSH0 KECCAK256 PUSH1 0x1F DUP5 ADD PUSH1 0x5 SHR DUP2 ADD PUSH1 0x20 DUP6 LT ISZERO PUSH2 0x285 JUMPI POP DUP1 JUMPDEST PUSH1 0x1F DUP5 ADD PUSH1 0x5 SHR DUP3 ADD SWAP2 POP JUMPDEST DUP2 DUP2 LT ISZERO PUSH2 0x2A4 JUMPI PUSH0 DUP2 SSTORE PUSH1 0x1 ADD PUSH2 0x291 JUMP JUMPDEST POP POP JUMPDEST POP POP POP JUMP JUMPDEST DUP2 MLOAD PUSH1 0x1 PUSH1 0x1 PUSH1 0x40 SHL SUB DUP2 GT ISZERO PUSH2 0x2C5 JUMPI PUSH2 0x2C5 PUSH2 0xEB JUMP JUMPDEST PUSH2 0x2D9 DUP2 PUSH2 0x2D3 DUP5 SLOAD PUSH2 0x228 JUMP JUMPDEST DUP5 PUSH2 0x260 JUMP JUMPDEST PUSH1 0x20 PUSH1 0x1F DUP3 GT PUSH1 0x1 DUP2 EQ PUSH2 0x30B JUMPI PUSH0 DUP4 ISZERO PUSH2 0x2F4 JUMPI POP DUP5 DUP3 ADD MLOAD JUMPDEST PUSH0 NOT PUSH1 0x3 DUP6 SWAP1 SHL SHR NOT AND PUSH1 0x1 DUP5 SWAP1 SHL OR DUP5 SSTORE PUSH2 0x2A4 JUMP JUMPDEST PUSH0 DUP5 DUP2 MSTORE PUSH1 0x20 DUP2 KECCAK256 PUSH1 0x1F NOT DUP6 AND SWAP2 JUMPDEST DUP3 DUP2 LT ISZERO PUSH2 0x33A JUMPI DUP8 DUP6 ADD MLOAD DUP3 SSTORE PUSH1 0x20 SWAP5 DUP6 ADD SWAP5 PUSH1 0x1 SWAP1 SWAP3 ADD SWAP2 ADD PUSH2 0x31A JUMP JUMPDEST POP DUP5 DUP3 LT ISZERO PUSH2 0x357 JUMPI DUP7 DUP5 ADD MLOAD PUSH0 NOT PUSH1 0x3 DUP8 SWAP1 SHL PUSH1 0xF8 AND SHR NOT AND DUP2 SSTORE JUMPDEST POP POP POP POP PUSH1 0x1 SWAP1 DUP2 SHL ADD SWAP1 SSTORE POP JUMP JUMPDEST PUSH2 0xDCB DUP1 PUSH2 0x373 PUSH0 CODECOPY PUSH0 RETURN INVALID PUSH1 0x80 PUSH1 0x40 MSTORE CALLVALUE DUP1 ISZERO PUSH2 0xF JUMPI PUSH0 DUP1 REVERT JUMPDEST POP PUSH1 0x4 CALLDATASIZE LT PUSH2 0x97 JUMPI PUSH0 CALLDATALOAD PUSH1 0xE0 SHR DUP1 PUSH4 0x26C7B327 EQ PUSH2 0x9B JUMPI DUP1 PUSH4 0x4BA83374 EQ PUSH2 0xB7 JUMPI DUP1 PUSH4 0x5DA6EF8D EQ PUSH2 0xCF JUMPI DUP1 PUSH4 0x7A4C982E EQ PUSH2 0xE4 JUMPI DUP1 PUSH4 0x80F76021 EQ PUSH2 0xF7 JUMPI DUP1 PUSH4 0xA95264D0 EQ PUSH2 0x10C JUMPI DUP1 PUSH4 0xB9DAF3E2 EQ PUSH2 0x121 JUMPI DUP1 PUSH4 0xBA379E86 EQ PUSH2 0x129 JUMPI DUP1 PUSH4 0xC47F0027 EQ PUSH2 0x13F JUMPI DUP1 PUSH4 0xDED92DAC EQ PUSH2 0x152 JUMPI DUP1 PUSH4 0xEFD8AF9F EQ PUSH2 0x165 JUMPI JUMPDEST PUSH0 DUP1 REVERT JUMPDEST PUSH2 0xA4 PUSH1 0x1 SLOAD DUP2 JUMP JUMPDEST PUSH1 0x40 MLOAD SWAP1 DUP2 MSTORE PUSH1 0x20 ADD JUMPDEST PUSH1 0x40 MLOAD DUP1 SWAP2 SUB SWAP1 RETURN JUMPDEST PUSH2 0xBF PUSH2 0x178 JUMP JUMPDEST PUSH1 0x40 MLOAD SWAP1 ISZERO ISZERO DUP2 MSTORE PUSH1 0x20 ADD PUSH2 0xAE JUMP JUMPDEST PUSH2 0xE2 PUSH2 0xDD CALLDATASIZE PUSH1 0x4 PUSH2 0x97B JUMP JUMPDEST PUSH2 0x1E4 JUMP JUMPDEST STOP JUMPDEST PUSH2 0xE2 PUSH2 0xF2 CALLDATASIZE PUSH1 0x4 PUSH2 0xA45 JUMP JUMPDEST PUSH2 0x32A JUMP JUMPDEST PUSH2 0xFF PUSH2 0x3AA JUMP JUMPDEST PUSH1 0x40 MLOAD PUSH2 0xAE SWAP2 SWAP1 PUSH2 0xAA8 JUMP JUMPDEST PUSH2 0x114 PUSH2 0x3FB JUMP JUMPDEST PUSH1 0x40 MLOAD PUSH2 0xAE SWAP2 SWAP1 PUSH2 0xABC JUMP JUMPDEST PUSH2 0xBF PUSH2 0x49B JUMP JUMPDEST PUSH2 0x131 PUSH2 0x4C5 JUMP JUMPDEST PUSH1 0x40 MLOAD PUSH2 0xAE SWAP3 SWAP2 SWAP1 PUSH2 0xB35 JUMP JUMPDEST PUSH2 0xE2 PUSH2 0x14D CALLDATASIZE PUSH1 0x4 PUSH2 0xB62 JUMP JUMPDEST PUSH2 0x67E JUMP JUMPDEST PUSH2 0xE2 PUSH2 0x160 CALLDATASIZE PUSH1 0x4 PUSH2 0x97B JUMP JUMPDEST PUSH2 0x6F0 JUMP JUMPDEST PUSH2 0xE2 PUSH2 0x173 CALLDATASIZE PUSH1 0x4 PUSH2 0xB62 JUMP JUMPDEST PUSH2 0x7E6 JUMP JUMPDEST PUSH0 PUSH2 0x1DB CALLER PUSH1 0x4 DUP1 SLOAD DUP1 PUSH1 0x20 MUL PUSH1 0x20 ADD PUSH1 0x40 MLOAD SWAP1 DUP2 ADD PUSH1 0x40 MSTORE DUP1 SWAP3 SWAP2 SWAP1 DUP2 DUP2 MSTORE PUSH1 0x20 ADD DUP3 DUP1 SLOAD DUP1 ISZERO PUSH2 0x1D1 JUMPI PUSH1 0x20 MUL DUP3 ADD SWAP2 SWAP1 PUSH0 MSTORE PUSH1 0x20 PUSH0 KECCAK256 SWAP1 JUMPDEST DUP2 SLOAD PUSH1 0x1 PUSH1 0x1 PUSH1 0xA0 SHL SUB AND DUP2 MSTORE PUSH1 0x1 SWAP1 SWAP2 ADD SWAP1 PUSH1 0x20 ADD DUP1 DUP4 GT PUSH2 0x1B3 JUMPI JUMPDEST POP POP POP POP POP PUSH2 0x831 JUMP JUMPDEST PUSH0 NOT EQ ISZERO SWAP1 POP SWAP1 JUMP JUMPDEST PUSH1 0x2 SLOAD PUSH1 0x1 PUSH1 0x1 PUSH1 0xA0 SHL SUB AND CALLER EQ DUP1 PUSH2 0x207 JUMPI POP PUSH1 0x3 SLOAD PUSH1 0x1 PUSH1 0x1 PUSH1 0xA0 SHL SUB AND CALLER EQ JUMPDEST PUSH2 0x22C JUMPI PUSH1 0x40 MLOAD PUSH3 0x461BCD PUSH1 0xE5 SHL DUP2 MSTORE PUSH1 0x4 ADD PUSH2 0x223 SWAP1 PUSH2 0xB9B JUMP JUMPDEST PUSH1 0x40 MLOAD DUP1 SWAP2 SUB SWAP1 REVERT JUMPDEST PUSH1 0x2 SLOAD PUSH1 0x1 PUSH1 0x1 PUSH1 0xA0 SHL SUB DUP3 DUP2 AND SWAP2 AND EQ DUP1 ISZERO SWAP1 PUSH2 0x252 JUMPI POP PUSH1 0x1 PUSH1 0x1 PUSH1 0xA0 SHL SUB DUP2 AND ISZERO ISZERO JUMPDEST DUP1 ISZERO PUSH2 0x2BD JUMPI POP PUSH2 0x2B9 DUP2 PUSH1 0x4 DUP1 SLOAD DUP1 PUSH1 0x20 MUL PUSH1 0x20 ADD PUSH1 0x40 MLOAD SWAP1 DUP2 ADD PUSH1 0x40 MSTORE DUP1 SWAP3 SWAP2 SWAP1 DUP2 DUP2 MSTORE PUSH1 0x20 ADD DUP3 DUP1 SLOAD DUP1 ISZERO PUSH2 0x1D1 JUMPI PUSH1 0x20 MUL DUP3 ADD SWAP2 SWAP1 PUSH0 MSTORE PUSH1 0x20 PUSH0 KECCAK256 SWAP1 DUP2 SLOAD PUSH1 0x1 PUSH1 0x1 PUSH1 0xA0 SHL SUB AND DUP2 MSTORE PUSH1 0x1 SWAP1 SWAP2 ADD SWAP1 PUSH1 0x20 ADD DUP1 DUP4 GT PUSH2 0x1B3 JUMPI POP POP POP POP POP PUSH2 0x831 JUMP JUMPDEST PUSH0 NOT EQ JUMPDEST PUSH2 0x2D9 JUMPI PUSH1 0x40 MLOAD PUSH3 0x461BCD PUSH1 0xE5 SHL DUP2 MSTORE PUSH1 0x4 ADD PUSH2 0x223 SWAP1 PUSH2 0xB9B JUMP JUMPDEST PUSH1 0x4 DUP1 SLOAD PUSH1 0x1 DUP2 ADD DUP3 SSTORE PUSH0 SWAP2 SWAP1 SWAP2 MSTORE PUSH32 0x8A35ACFBC15FF81A39AE7D344FD709F28E8600B4AA8C65C6B64BFE7FE36BD19B ADD DUP1 SLOAD PUSH1 0x1 PUSH1 0x1 PUSH1 0xA0 SHL SUB NOT AND PUSH1 0x1 PUSH1 0x1 PUSH1 0xA0 SHL SUB SWAP3 SWAP1 SWAP3 AND SWAP2 SWAP1 SWAP2 OR SWAP1 SSTORE JUMP JUMPDEST PUSH1 0x2 SLOAD PUSH1 0x1 PUSH1 0x1 PUSH1 0xA0 SHL SUB AND CALLER EQ DUP1 PUSH2 0x34D JUMPI POP PUSH1 0x3 SLOAD PUSH1 0x1 PUSH1 0x1 PUSH1 0xA0 SHL SUB AND CALLER EQ JUMPDEST PUSH2 0x369 JUMPI PUSH1 0x40 MLOAD PUSH3 0x461BCD PUSH1 0xE5 SHL DUP2 MSTORE PUSH1 0x4 ADD PUSH2 0x223 SWAP1 PUSH2 0xB9B JUMP JUMPDEST PUSH0 PUSH2 0x374 DUP4 DUP3 PUSH2 0xC3C JUMP JUMPDEST POP PUSH1 0x5 PUSH2 0x381 DUP3 DUP3 PUSH2 0xC3C JUMP JUMPDEST POP PUSH0 DUP1 MLOAD PUSH1 0x20 PUSH2 0xD76 DUP4 CODECOPY DUP2 MLOAD SWAP2 MSTORE CALLER PUSH1 0x40 MLOAD PUSH2 0x39E SWAP2 SWAP1 PUSH2 0xAA8 JUMP JUMPDEST PUSH1 0x40 MLOAD DUP1 SWAP2 SUB SWAP1 LOG1 POP POP JUMP JUMPDEST PUSH1 0x2 SLOAD PUSH0 SWAP1 PUSH1 0x1 PUSH1 0x1 PUSH1 0xA0 SHL SUB AND CALLER EQ DUP1 PUSH2 0x3CF JUMPI POP PUSH1 0x3 SLOAD PUSH1 0x1 PUSH1 0x1 PUSH1 0xA0 SHL SUB AND CALLER EQ JUMPDEST PUSH2 0x3EB JUMPI PUSH1 0x40 MLOAD PUSH3 0x461BCD PUSH1 0xE5 SHL DUP2 MSTORE PUSH1 0x4 ADD PUSH2 0x223 SWAP1 PUSH2 0xB9B JUMP JUMPDEST POP PUSH1 0x3 SLOAD PUSH1 0x1 PUSH1 0x1 PUSH1 0xA0 SHL SUB AND SWAP1 JUMP JUMPDEST PUSH1 0x2 SLOAD PUSH1 0x60 SWAP1 PUSH1 0x1 PUSH1 0x1 PUSH1 0xA0 SHL SUB AND CALLER EQ DUP1 PUSH2 0x421 JUMPI POP PUSH1 0x3 SLOAD PUSH1 0x1 PUSH1 0x1 PUSH1 0xA0 SHL SUB AND CALLER EQ JUMPDEST PUSH2 0x43D JUMPI PUSH1 0x40 MLOAD PUSH3 0x461BCD PUSH1 0xE5 SHL DUP2 MSTORE PUSH1 0x4 ADD PUSH2 0x223 SWAP1 PUSH2 0xB9B JUMP JUMPDEST PUSH1 0x4 DUP1 SLOAD DUP1 PUSH1 0x20 MUL PUSH1 0x20 ADD PUSH1 0x40 MLOAD SWAP1 DUP2 ADD PUSH1 0x40 MSTORE DUP1 SWAP3 SWAP2 SWAP1 DUP2 DUP2 MSTORE PUSH1 0x20 ADD DUP3 DUP1 SLOAD DUP1 ISZERO PUSH2 0x491 JUMPI PUSH1 0x20 MUL DUP3 ADD SWAP2 SWAP1 PUSH0 MSTORE PUSH1 0x20 PUSH0 KECCAK256 SWAP1 JUMPDEST DUP2 SLOAD PUSH1 0x1 PUSH1 0x1 PUSH1 0xA0 SHL SUB AND DUP2 MSTORE PUSH1 0x1 SWAP1 SWAP2 ADD SWAP1 PUSH1 0x20 ADD DUP1 DUP4 GT PUSH2 0x473 JUMPI JUMPDEST POP POP POP POP POP SWAP1 POP SWAP1 JUMP JUMPDEST PUSH1 0x2 SLOAD PUSH0 SWAP1 PUSH1 0x1 PUSH1 0x1 PUSH1 0xA0 SHL SUB AND CALLER EQ DUP1 PUSH2 0x4C0 JUMPI POP PUSH1 0x3 SLOAD PUSH1 0x1 PUSH1 0x1 PUSH1 0xA0 SHL SUB AND CALLER EQ JUMPDEST SWAP1 POP SWAP1 JUMP JUMPDEST PUSH1 0x2 SLOAD PUSH1 0x60 SWAP1 DUP2 SWAP1 PUSH1 0x1 PUSH1 0x1 PUSH1 0xA0 SHL SUB AND CALLER EQ DUP1 PUSH2 0x543 JUMPI POP PUSH2 0x53E CALLER PUSH1 0x4 DUP1 SLOAD DUP1 PUSH1 0x20 MUL PUSH1 0x20 ADD PUSH1 0x40 MLOAD SWAP1 DUP2 ADD PUSH1 0x40 MSTORE DUP1 SWAP3 SWAP2 SWAP1 DUP2 DUP2 MSTORE PUSH1 0x20 ADD DUP3 DUP1 SLOAD DUP1 ISZERO PUSH2 0x1D1 JUMPI PUSH1 0x20 MUL DUP3 ADD SWAP2 SWAP1 PUSH0 MSTORE PUSH1 0x20 PUSH0 KECCAK256 SWAP1 DUP2 SLOAD PUSH1 0x1 PUSH1 0x1 PUSH1 0xA0 SHL SUB AND DUP2 MSTORE PUSH1 0x1 SWAP1 SWAP2 ADD SWAP1 PUSH1 0x20 ADD DUP1 DUP4 GT PUSH2 0x1B3 JUMPI POP POP POP POP POP PUSH2 0x831 JUMP JUMPDEST PUSH0 NOT EQ ISZERO JUMPDEST PUSH2 0x55F JUMPI PUSH1 0x40 MLOAD PUSH3 0x461BCD PUSH1 0xE5 SHL DUP2 MSTORE PUSH1 0x4 ADD PUSH2 0x223 SWAP1 PUSH2 0xB9B JUMP JUMPDEST PUSH0 PUSH1 0x5 DUP2 DUP1 SLOAD PUSH2 0x56E SWAP1 PUSH2 0xBB8 JUMP JUMPDEST DUP1 PUSH1 0x1F ADD PUSH1 0x20 DUP1 SWAP2 DIV MUL PUSH1 0x20 ADD PUSH1 0x40 MLOAD SWAP1 DUP2 ADD PUSH1 0x40 MSTORE DUP1 SWAP3 SWAP2 SWAP1 DUP2 DUP2 MSTORE PUSH1 0x20 ADD DUP3 DUP1 SLOAD PUSH2 0x59A SWAP1 PUSH2 0xBB8 JUMP JUMPDEST DUP1 ISZERO PUSH2 0x5E5 JUMPI DUP1 PUSH1 0x1F LT PUSH2 0x5BC JUMPI PUSH2 0x100 DUP1 DUP4 SLOAD DIV MUL DUP4 MSTORE SWAP2 PUSH1 0x20 ADD SWAP2 PUSH2 0x5E5 JUMP JUMPDEST DUP3 ADD SWAP2 SWAP1 PUSH0 MSTORE PUSH1 0x20 PUSH0 KECCAK256 SWAP1 JUMPDEST DUP2 SLOAD DUP2 MSTORE SWAP1 PUSH1 0x1 ADD SWAP1 PUSH1 0x20 ADD DUP1 DUP4 GT PUSH2 0x5C8 JUMPI DUP3 SWAP1 SUB PUSH1 0x1F AND DUP3 ADD SWAP2 JUMPDEST POP POP POP POP POP SWAP2 POP DUP1 DUP1 SLOAD PUSH2 0x5F8 SWAP1 PUSH2 0xBB8 JUMP JUMPDEST DUP1 PUSH1 0x1F ADD PUSH1 0x20 DUP1 SWAP2 DIV MUL PUSH1 0x20 ADD PUSH1 0x40 MLOAD SWAP1 DUP2 ADD PUSH1 0x40 MSTORE DUP1 SWAP3 SWAP2 SWAP1 DUP2 DUP2 MSTORE PUSH1 0x20 ADD DUP3 DUP1 SLOAD PUSH2 0x624 SWAP1 PUSH2 0xBB8 JUMP JUMPDEST DUP1 ISZERO PUSH2 0x66F JUMPI DUP1 PUSH1 0x1F LT PUSH2 0x646 JUMPI PUSH2 0x100 DUP1 DUP4 SLOAD DIV MUL DUP4 MSTORE SWAP2 PUSH1 0x20 ADD SWAP2 PUSH2 0x66F JUMP JUMPDEST DUP3 ADD SWAP2 SWAP1 PUSH0 MSTORE PUSH1 0x20 PUSH0 KECCAK256 SWAP1 JUMPDEST DUP2 SLOAD DUP2 MSTORE SWAP1 PUSH1 0x1 ADD SWAP1 PUSH1 0x20 ADD DUP1 DUP4 GT PUSH2 0x652 JUMPI DUP3 SWAP1 SUB PUSH1 0x1F AND DUP3 ADD SWAP2 JUMPDEST POP POP POP POP POP SWAP1 POP SWAP2 POP SWAP2 POP SWAP1 SWAP2 JUMP JUMPDEST PUSH1 0x2 SLOAD PUSH1 0x1 PUSH1 0x1 PUSH1 0xA0 SHL SUB AND CALLER EQ DUP1 PUSH2 0x6A1 JUMPI POP PUSH1 0x3 SLOAD PUSH1 0x1 PUSH1 0x1 PUSH1 0xA0 SHL SUB AND CALLER EQ JUMPDEST PUSH2 0x6BD JUMPI PUSH1 0x40 MLOAD PUSH3 0x461BCD PUSH1 0xE5 SHL DUP2 MSTORE PUSH1 0x4 ADD PUSH2 0x223 SWAP1 PUSH2 0xB9B JUMP JUMPDEST PUSH0 PUSH2 0x6C8 DUP3 DUP3 PUSH2 0xC3C JUMP JUMPDEST POP PUSH0 DUP1 MLOAD PUSH1 0x20 PUSH2 0xD76 DUP4 CODECOPY DUP2 MLOAD SWAP2 MSTORE CALLER PUSH1 0x40 MLOAD PUSH2 0x6E5 SWAP2 SWAP1 PUSH2 0xAA8 JUMP JUMPDEST PUSH1 0x40 MLOAD DUP1 SWAP2 SUB SWAP1 LOG1 POP JUMP JUMPDEST PUSH1 0x1 PUSH1 0x1 PUSH1 0xA0 SHL SUB DUP2 AND ISZERO ISZERO DUP1 PUSH2 0x738 JUMPI POP PUSH1 0x3 SLOAD PUSH1 0x1 PUSH1 0x1 PUSH1 0xA0 SHL SUB AND CALLER EQ DUP1 PUSH2 0x725 JUMPI POP PUSH1 0x2 SLOAD PUSH1 0x1 PUSH1 0x1 PUSH1 0xA0 SHL SUB AND CALLER EQ JUMPDEST DUP1 PUSH2 0x738 JUMPI POP CALLER PUSH1 0x1 PUSH1 0x1 PUSH1 0xA0 SHL SUB DUP3 AND EQ JUMPDEST PUSH2 0x754 JUMPI PUSH1 0x40 MLOAD PUSH3 0x461BCD PUSH1 0xE5 SHL DUP2 MSTORE PUSH1 0x4 ADD PUSH2 0x223 SWAP1 PUSH2 0xB9B JUMP JUMPDEST PUSH0 PUSH2 0x7B5 DUP3 PUSH1 0x4 DUP1 SLOAD DUP1 PUSH1 0x20 MUL PUSH1 0x20 ADD PUSH1 0x40 MLOAD SWAP1 DUP2 ADD PUSH1 0x40 MSTORE DUP1 SWAP3 SWAP2 SWAP1 DUP2 DUP2 MSTORE PUSH1 0x20 ADD DUP3 DUP1 SLOAD DUP1 ISZERO PUSH2 0x1D1 JUMPI PUSH1 0x20 MUL DUP3 ADD SWAP2 SWAP1 PUSH0 MSTORE PUSH1 0x20 PUSH0 KECCAK256 SWAP1 DUP2 SLOAD PUSH1 0x1 PUSH1 0x1 PUSH1 0xA0 SHL SUB AND DUP2 MSTORE PUSH1 0x1 SWAP1 SWAP2 ADD SWAP1 PUSH1 0x20 ADD DUP1 DUP4 GT PUSH2 0x1B3 JUMPI POP POP POP POP POP PUSH2 0x831 JUMP JUMPDEST SWAP1 POP PUSH0 NOT DUP2 SGT PUSH2 0x7D7 JUMPI PUSH1 0x40 MLOAD PUSH3 0x461BCD PUSH1 0xE5 SHL DUP2 MSTORE PUSH1 0x4 ADD PUSH2 0x223 SWAP1 PUSH2 0xCF6 JUMP JUMPDEST PUSH2 0x7E2 DUP2 PUSH1 0x4 PUSH2 0x88A JUMP JUMPDEST POP POP JUMP JUMPDEST PUSH1 0x2 SLOAD PUSH1 0x1 PUSH1 0x1 PUSH1 0xA0 SHL SUB AND CALLER EQ DUP1 PUSH2 0x809 JUMPI POP PUSH1 0x3 SLOAD PUSH1 0x1 PUSH1 0x1 PUSH1 0xA0 SHL SUB AND CALLER EQ JUMPDEST PUSH2 0x825 JUMPI PUSH1 0x40 MLOAD PUSH3 0x461BCD PUSH1 0xE5 SHL DUP2 MSTORE PUSH1 0x4 ADD PUSH2 0x223 SWAP1 PUSH2 0xB9B JUMP JUMPDEST PUSH1 0x5 PUSH2 0x6C8 DUP3 DUP3 PUSH2 0xC3C JUMP JUMPDEST PUSH0 DUP1 JUMPDEST DUP3 MLOAD DUP2 LT ISZERO PUSH2 0x87E JUMPI DUP4 PUSH1 0x1 PUSH1 0x1 PUSH1 0xA0 SHL SUB AND DUP4 DUP3 DUP2 MLOAD DUP2 LT PUSH2 0x859 JUMPI PUSH2 0x859 PUSH2 0xD13 JUMP JUMPDEST PUSH1 0x20 MUL PUSH1 0x20 ADD ADD MLOAD PUSH1 0x1 PUSH1 0x1 PUSH1 0xA0 SHL SUB AND SUB PUSH2 0x876 JUMPI SWAP1 POP PUSH2 0x884 JUMP JUMPDEST PUSH1 0x1 ADD PUSH2 0x834 JUMP JUMPDEST POP PUSH0 NOT SWAP1 POP JUMPDEST SWAP3 SWAP2 POP POP JUMP JUMPDEST PUSH0 DUP3 SLT ISZERO DUP1 ISZERO PUSH2 0x89A JUMPI POP DUP1 SLOAD DUP3 LT JUMPDEST PUSH2 0x8B6 JUMPI PUSH1 0x40 MLOAD PUSH3 0x461BCD PUSH1 0xE5 SHL DUP2 MSTORE PUSH1 0x4 ADD PUSH2 0x223 SWAP1 PUSH2 0xCF6 JUMP JUMPDEST DUP2 JUMPDEST DUP2 SLOAD PUSH2 0x8C6 SWAP1 PUSH1 0x1 SWAP1 PUSH2 0xD3B JUMP JUMPDEST DUP2 LT ISZERO PUSH2 0x946 JUMPI DUP2 PUSH2 0x8D9 DUP3 PUSH1 0x1 PUSH2 0xD4E JUMP JUMPDEST DUP2 SLOAD DUP2 LT PUSH2 0x8E9 JUMPI PUSH2 0x8E9 PUSH2 0xD13 JUMP JUMPDEST SWAP1 PUSH0 MSTORE PUSH1 0x20 PUSH0 KECCAK256 ADD PUSH0 SWAP1 SLOAD SWAP1 PUSH2 0x100 EXP SWAP1 DIV PUSH1 0x1 PUSH1 0x1 PUSH1 0xA0 SHL SUB AND DUP3 DUP3 DUP2 SLOAD DUP2 LT PUSH2 0x916 JUMPI PUSH2 0x916 PUSH2 0xD13 JUMP JUMPDEST PUSH0 SWAP2 DUP3 MSTORE PUSH1 0x20 SWAP1 SWAP2 KECCAK256 ADD DUP1 SLOAD PUSH1 0x1 PUSH1 0x1 PUSH1 0xA0 SHL SUB NOT AND PUSH1 0x1 PUSH1 0x1 PUSH1 0xA0 SHL SUB SWAP3 SWAP1 SWAP3 AND SWAP2 SWAP1 SWAP2 OR SWAP1 SSTORE PUSH1 0x1 ADD PUSH2 0x8B8 JUMP JUMPDEST POP DUP1 DUP1 SLOAD DUP1 PUSH2 0x957 JUMPI PUSH2 0x957 PUSH2 0xD61 JUMP JUMPDEST PUSH0 DUP3 DUP2 MSTORE PUSH1 0x20 SWAP1 KECCAK256 DUP2 ADD PUSH0 NOT SWAP1 DUP2 ADD DUP1 SLOAD PUSH1 0x1 PUSH1 0x1 PUSH1 0xA0 SHL SUB NOT AND SWAP1 SSTORE ADD SWAP1 SSTORE POP POP JUMP JUMPDEST PUSH0 PUSH1 0x20 DUP3 DUP5 SUB SLT ISZERO PUSH2 0x98B JUMPI PUSH0 DUP1 REVERT JUMPDEST DUP2 CALLDATALOAD PUSH1 0x1 PUSH1 0x1 PUSH1 0xA0 SHL SUB DUP2 AND DUP2 EQ PUSH2 0x9A1 JUMPI PUSH0 DUP1 REVERT JUMPDEST SWAP4 SWAP3 POP POP POP JUMP JUMPDEST PUSH4 0x4E487B71 PUSH1 0xE0 SHL PUSH0 MSTORE PUSH1 0x41 PUSH1 0x4 MSTORE PUSH1 0x24 PUSH0 REVERT JUMPDEST PUSH0 DUP3 PUSH1 0x1F DUP4 ADD SLT PUSH2 0x9CB JUMPI PUSH0 DUP1 REVERT JUMPDEST DUP2 CALLDATALOAD PUSH1 0x1 PUSH1 0x1 PUSH1 0x40 SHL SUB DUP2 GT ISZERO PUSH2 0x9E4 JUMPI PUSH2 0x9E4 PUSH2 0x9A8 JUMP JUMPDEST PUSH1 0x40 MLOAD PUSH1 0x1F DUP3 ADD PUSH1 0x1F NOT SWAP1 DUP2 AND PUSH1 0x3F ADD AND DUP2 ADD PUSH1 0x1 PUSH1 0x1 PUSH1 0x40 SHL SUB DUP2 GT DUP3 DUP3 LT OR ISZERO PUSH2 0xA12 JUMPI PUSH2 0xA12 PUSH2 0x9A8 JUMP JUMPDEST PUSH1 0x40 MSTORE DUP2 DUP2 MSTORE DUP4 DUP3 ADD PUSH1 0x20 ADD DUP6 LT ISZERO PUSH2 0xA29 JUMPI PUSH0 DUP1 REVERT JUMPDEST DUP2 PUSH1 0x20 DUP6 ADD PUSH1 0x20 DUP4 ADD CALLDATACOPY PUSH0 SWAP2 DUP2 ADD PUSH1 0x20 ADD SWAP2 SWAP1 SWAP2 MSTORE SWAP4 SWAP3 POP POP POP JUMP JUMPDEST PUSH0 DUP1 PUSH1 0x40 DUP4 DUP6 SUB SLT ISZERO PUSH2 0xA56 JUMPI PUSH0 DUP1 REVERT JUMPDEST DUP3 CALLDATALOAD PUSH1 0x1 PUSH1 0x1 PUSH1 0x40 SHL SUB DUP2 GT ISZERO PUSH2 0xA6B JUMPI PUSH0 DUP1 REVERT JUMPDEST PUSH2 0xA77 DUP6 DUP3 DUP7 ADD PUSH2 0x9BC JUMP JUMPDEST SWAP3 POP POP PUSH1 0x20 DUP4 ADD CALLDATALOAD PUSH1 0x1 PUSH1 0x1 PUSH1 0x40 SHL SUB DUP2 GT ISZERO PUSH2 0xA92 JUMPI PUSH0 DUP1 REVERT JUMPDEST PUSH2 0xA9E DUP6 DUP3 DUP7 ADD PUSH2 0x9BC JUMP JUMPDEST SWAP2 POP POP SWAP3 POP SWAP3 SWAP1 POP JUMP JUMPDEST PUSH1 0x1 PUSH1 0x1 PUSH1 0xA0 SHL SUB SWAP2 SWAP1 SWAP2 AND DUP2 MSTORE PUSH1 0x20 ADD SWAP1 JUMP JUMPDEST PUSH1 0x20 DUP1 DUP3 MSTORE DUP3 MLOAD DUP3 DUP3 ADD DUP2 SWAP1 MSTORE PUSH0 SWAP2 DUP5 ADD SWAP1 PUSH1 0x40 DUP5 ADD SWAP1 DUP4 JUMPDEST DUP2 DUP2 LT ISZERO PUSH2 0xAFC JUMPI DUP4 MLOAD PUSH1 0x1 PUSH1 0x1 PUSH1 0xA0 SHL SUB AND DUP4 MSTORE PUSH1 0x20 SWAP4 DUP5 ADD SWAP4 SWAP1 SWAP3 ADD SWAP2 PUSH1 0x1 ADD PUSH2 0xAD5 JUMP JUMPDEST POP SWAP1 SWAP6 SWAP5 POP POP POP POP POP JUMP JUMPDEST PUSH0 DUP2 MLOAD DUP1 DUP5 MSTORE DUP1 PUSH1 0x20 DUP5 ADD PUSH1 0x20 DUP7 ADD MCOPY PUSH0 PUSH1 0x20 DUP3 DUP7 ADD ADD MSTORE PUSH1 0x20 PUSH1 0x1F NOT PUSH1 0x1F DUP4 ADD AND DUP6 ADD ADD SWAP2 POP POP SWAP3 SWAP2 POP POP JUMP JUMPDEST PUSH1 0x40 DUP2 MSTORE PUSH0 PUSH2 0xB47 PUSH1 0x40 DUP4 ADD DUP6 PUSH2 0xB07 JUMP JUMPDEST DUP3 DUP2 SUB PUSH1 0x20 DUP5 ADD MSTORE PUSH2 0xB59 DUP2 DUP6 PUSH2 0xB07 JUMP JUMPDEST SWAP6 SWAP5 POP POP POP POP POP JUMP JUMPDEST PUSH0 PUSH1 0x20 DUP3 DUP5 SUB SLT ISZERO PUSH2 0xB72 JUMPI PUSH0 DUP1 REVERT JUMPDEST DUP2 CALLDATALOAD PUSH1 0x1 PUSH1 0x1 PUSH1 0x40 SHL SUB DUP2 GT ISZERO PUSH2 0xB87 JUMPI PUSH0 DUP1 REVERT JUMPDEST PUSH2 0xB93 DUP5 DUP3 DUP6 ADD PUSH2 0x9BC JUMP JUMPDEST SWAP5 SWAP4 POP POP POP POP JUMP JUMPDEST PUSH1 0x20 DUP1 DUP3 MSTORE PUSH1 0x3 SWAP1 DUP3 ADD MSTORE PUSH3 0x343033 PUSH1 0xE8 SHL PUSH1 0x40 DUP3 ADD MSTORE PUSH1 0x60 ADD SWAP1 JUMP JUMPDEST PUSH1 0x1 DUP2 DUP2 SHR SWAP1 DUP3 AND DUP1 PUSH2 0xBCC JUMPI PUSH1 0x7F DUP3 AND SWAP2 POP JUMPDEST PUSH1 0x20 DUP3 LT DUP2 SUB PUSH2 0xBEA JUMPI PUSH4 0x4E487B71 PUSH1 0xE0 SHL PUSH0 MSTORE PUSH1 0x22 PUSH1 0x4 MSTORE PUSH1 0x24 PUSH0 REVERT JUMPDEST POP SWAP2 SWAP1 POP JUMP JUMPDEST PUSH1 0x1F DUP3 GT ISZERO PUSH2 0xC37 JUMPI DUP1 PUSH0 MSTORE PUSH1 0x20 PUSH0 KECCAK256 PUSH1 0x1F DUP5 ADD PUSH1 0x5 SHR DUP2 ADD PUSH1 0x20 DUP6 LT ISZERO PUSH2 0xC15 JUMPI POP DUP1 JUMPDEST PUSH1 0x1F DUP5 ADD PUSH1 0x5 SHR DUP3 ADD SWAP2 POP JUMPDEST DUP2 DUP2 LT ISZERO PUSH2 0xC34 JUMPI PUSH0 DUP2 SSTORE PUSH1 0x1 ADD PUSH2 0xC21 JUMP JUMPDEST POP POP JUMPDEST POP POP POP JUMP JUMPDEST DUP2 MLOAD PUSH1 0x1 PUSH1 0x1 PUSH1 0x40 SHL SUB DUP2 GT ISZERO PUSH2 0xC55 JUMPI PUSH2 0xC55 PUSH2 0x9A8 JUMP JUMPDEST PUSH2 0xC69 DUP2 PUSH2 0xC63 DUP5 SLOAD PUSH2 0xBB8 JUMP JUMPDEST DUP5 PUSH2 0xBF0 JUMP JUMPDEST PUSH1 0x20 PUSH1 0x1F DUP3 GT PUSH1 0x1 DUP2 EQ PUSH2 0xC9B JUMPI PUSH0 DUP4 ISZERO PUSH2 0xC84 JUMPI POP DUP5 DUP3 ADD MLOAD JUMPDEST PUSH0 NOT PUSH1 0x3 DUP6 SWAP1 SHL SHR NOT AND PUSH1 0x1 DUP5 SWAP1 SHL OR DUP5 SSTORE PUSH2 0xC34 JUMP JUMPDEST PUSH0 DUP5 DUP2 MSTORE PUSH1 0x20 DUP2 KECCAK256 PUSH1 0x1F NOT DUP6 AND SWAP2 JUMPDEST DUP3 DUP2 LT ISZERO PUSH2 0xCCA JUMPI DUP8 DUP6 ADD MLOAD DUP3 SSTORE PUSH1 0x20 SWAP5 DUP6 ADD SWAP5 PUSH1 0x1 SWAP1 SWAP3 ADD SWAP2 ADD PUSH2 0xCAA JUMP JUMPDEST POP DUP5 DUP3 LT ISZERO PUSH2 0xCE7 JUMPI DUP7 DUP5 ADD MLOAD PUSH0 NOT PUSH1 0x3 DUP8 SWAP1 SHL PUSH1 0xF8 AND SHR NOT AND DUP2 SSTORE JUMPDEST POP POP POP POP PUSH1 0x1 SWAP1 DUP2 SHL ADD SWAP1 SSTORE POP JUMP JUMPDEST PUSH1 0x20 DUP1 DUP3 MSTORE PUSH1 0x3 SWAP1 DUP3 ADD MSTORE PUSH3 0xD0C0D PUSH1 0xEA SHL PUSH1 0x40 DUP3 ADD MSTORE PUSH1 0x60 ADD SWAP1 JUMP JUMPDEST PUSH4 0x4E487B71 PUSH1 0xE0 SHL PUSH0 MSTORE PUSH1 0x32 PUSH1 0x4 MSTORE PUSH1 0x24 PUSH0 REVERT JUMPDEST PUSH4 0x4E487B71 PUSH1 0xE0 SHL PUSH0 MSTORE PUSH1 0x11 PUSH1 0x4 MSTORE PUSH1 0x24 PUSH0 REVERT JUMPDEST DUP2 DUP2 SUB DUP2 DUP2 GT ISZERO PUSH2 0x884 JUMPI PUSH2 0x884 PUSH2 0xD27 JUMP JUMPDEST DUP1 DUP3 ADD DUP1 DUP3 GT ISZERO PUSH2 0x884 JUMPI PUSH2 0x884 PUSH2 0xD27 JUMP JUMPDEST PUSH4 0x4E487B71 PUSH1 0xE0 SHL PUSH0 MSTORE PUSH1 0x31 PUSH1 0x4 MSTORE PUSH1 0x24 PUSH0 REVERT INVALID 0xE0 0xD LOG2 OR DUP9 MOD RETURN PUSH32 0x69815E9ED5ED3072EC1D55206D60916D99B469C7DAA421E4A264697066735822 SLT KECCAK256 0xD8 0xCD 0xB8 DUP5 PUSH32 0x5DEEE7C900EF1FCAF4419652B659FBA908421937FB1F4DEBD86B9064736F6C63 NUMBER STOP ADDMOD BYTE STOP CALLER PUSH1 0x80 PUSH1 0x40 MSTORE CALLVALUE DUP1 ISZERO PUSH2 0xF JUMPI PUSH0 DUP1 REVERT JUMPDEST POP PUSH1 0x40 MLOAD PUSH2 0xF1D CODESIZE SUB DUP1 PUSH2 0xF1D DUP4 CODECOPY DUP2 ADD PUSH1 0x40 DUP2 SWAP1 MSTORE PUSH2 0x2E SWAP2 PUSH2 0x17A JUMP JUMPDEST PUSH1 0x4 PUSH1 0x1 DUP2 SWAP1 SSTORE DUP6 DUP4 DUP4 PUSH0 PUSH2 0x43 DUP5 DUP3 PUSH2 0x28C JUMP JUMPDEST POP PUSH1 0x2 DUP1 SLOAD PUSH1 0x1 PUSH1 0x1 PUSH1 0xA0 SHL SUB SWAP4 DUP5 AND PUSH1 0x1 PUSH1 0x1 PUSH1 0xA0 SHL SUB NOT SWAP2 DUP3 AND OR SWAP1 SWAP2 SSTORE PUSH1 0x3 DUP1 SLOAD SWAP3 SWAP1 SWAP4 AND SWAP2 AND OR SWAP1 SSTORE POP PUSH1 0x5 SWAP1 POP PUSH2 0x7F DUP6 DUP3 PUSH2 0x28C JUMP JUMPDEST POP PUSH1 0x6 DUP4 SWAP1 SSTORE PUSH1 0x40 MLOAD CALLER DUP2 MSTORE PUSH32 0x1449ABF21E49FD025F33495E77F7B1461CAEFDD3D4BB646424A3F445C4576A5B SWAP1 PUSH1 0x20 ADD PUSH1 0x40 MLOAD DUP1 SWAP2 SUB SWAP1 LOG1 POP POP POP POP POP PUSH2 0x346 JUMP JUMPDEST PUSH4 0x4E487B71 PUSH1 0xE0 SHL PUSH0 MSTORE PUSH1 0x41 PUSH1 0x4 MSTORE PUSH1 0x24 PUSH0 REVERT JUMPDEST PUSH0 DUP3 PUSH1 0x1F DUP4 ADD SLT PUSH2 0xE5 JUMPI PUSH0 DUP1 REVERT JUMPDEST DUP2 MLOAD PUSH1 0x1 PUSH1 0x1 PUSH1 0x40 SHL SUB DUP2 GT ISZERO PUSH2 0xFE JUMPI PUSH2 0xFE PUSH2 0xC2 JUMP JUMPDEST PUSH1 0x40 MLOAD PUSH1 0x1F DUP3 ADD PUSH1 0x1F NOT SWAP1 DUP2 AND PUSH1 0x3F ADD AND DUP2 ADD PUSH1 0x1 PUSH1 0x1 PUSH1 0x40 SHL SUB DUP2 GT DUP3 DUP3 LT OR ISZERO PUSH2 0x12C JUMPI PUSH2 0x12C PUSH2 0xC2 JUMP JUMPDEST PUSH1 0x40 MSTORE DUP2 DUP2 MSTORE DUP4 DUP3 ADD PUSH1 0x20 ADD DUP6 LT ISZERO PUSH2 0x143 JUMPI PUSH0 DUP1 REVERT JUMPDEST DUP2 PUSH1 0x20 DUP6 ADD PUSH1 0x20 DUP4 ADD MCOPY PUSH0 SWAP2 DUP2 ADD PUSH1 0x20 ADD SWAP2 SWAP1 SWAP2 MSTORE SWAP4 SWAP3 POP POP POP JUMP JUMPDEST DUP1 MLOAD PUSH1 0x1 PUSH1 0x1 PUSH1 0xA0 SHL SUB DUP2 AND DUP2 EQ PUSH2 0x175 JUMPI PUSH0 DUP1 REVERT JUMPDEST SWAP2 SWAP1 POP JUMP JUMPDEST PUSH0 DUP1 PUSH0 DUP1 PUSH0 PUSH1 0xA0 DUP7 DUP9 SUB SLT ISZERO PUSH2 0x18E JUMPI PUSH0 DUP1 REVERT JUMPDEST DUP6 MLOAD PUSH1 0x1 PUSH1 0x1 PUSH1 0x40 SHL SUB DUP2 GT ISZERO PUSH2 0x1A3 JUMPI PUSH0 DUP1 REVERT JUMPDEST PUSH2 0x1AF DUP9 DUP3 DUP10 ADD PUSH2 0xD6 JUMP JUMPDEST PUSH1 0x20 DUP9 ADD MLOAD SWAP1 SWAP7 POP SWAP1 POP PUSH1 0x1 PUSH1 0x1 PUSH1 0x40 SHL SUB DUP2 GT ISZERO PUSH2 0x1CC JUMPI PUSH0 DUP1 REVERT JUMPDEST PUSH2 0x1D8 DUP9 DUP3 DUP10 ADD PUSH2 0xD6 JUMP JUMPDEST SWAP5 POP POP PUSH1 0x40 DUP7 ADD MLOAD SWAP3 POP PUSH2 0x1EE PUSH1 0x60 DUP8 ADD PUSH2 0x15F JUMP JUMPDEST SWAP2 POP PUSH2 0x1FC PUSH1 0x80 DUP8 ADD PUSH2 0x15F JUMP JUMPDEST SWAP1 POP SWAP3 SWAP6 POP SWAP3 SWAP6 SWAP1 SWAP4 POP JUMP JUMPDEST PUSH1 0x1 DUP2 DUP2 SHR SWAP1 DUP3 AND DUP1 PUSH2 0x21C JUMPI PUSH1 0x7F DUP3 AND SWAP2 POP JUMPDEST PUSH1 0x20 DUP3 LT DUP2 SUB PUSH2 0x23A JUMPI PUSH4 0x4E487B71 PUSH1 0xE0 SHL PUSH0 MSTORE PUSH1 0x22 PUSH1 0x4 MSTORE PUSH1 0x24 PUSH0 REVERT JUMPDEST POP SWAP2 SWAP1 POP JUMP JUMPDEST PUSH1 0x1F DUP3 GT ISZERO PUSH2 0x287 JUMPI DUP1 PUSH0 MSTORE PUSH1 0x20 PUSH0 KECCAK256 PUSH1 0x1F DUP5 ADD PUSH1 0x5 SHR DUP2 ADD PUSH1 0x20 DUP6 LT ISZERO PUSH2 0x265 JUMPI POP DUP1 JUMPDEST PUSH1 0x1F DUP5 ADD PUSH1 0x5 SHR DUP3 ADD SWAP2 POP JUMPDEST DUP2 DUP2 LT ISZERO PUSH2 0x284 JUMPI PUSH0 DUP2 SSTORE PUSH1 0x1 ADD PUSH2 0x271 JUMP JUMPDEST POP POP JUMPDEST POP POP POP JUMP JUMPDEST DUP2 MLOAD PUSH1 0x1 PUSH1 0x1 PUSH1 0x40 SHL SUB DUP2 GT ISZERO PUSH2 0x2A5 JUMPI PUSH2 0x2A5 PUSH2 0xC2 JUMP JUMPDEST PUSH2 0x2B9 DUP2 PUSH2 0x2B3 DUP5 SLOAD PUSH2 0x208 JUMP JUMPDEST DUP5 PUSH2 0x240 JUMP JUMPDEST PUSH1 0x20 PUSH1 0x1F DUP3 GT PUSH1 0x1 DUP2 EQ PUSH2 0x2EB JUMPI PUSH0 DUP4 ISZERO PUSH2 0x2D4 JUMPI POP DUP5 DUP3 ADD MLOAD JUMPDEST PUSH0 NOT PUSH1 0x3 DUP6 SWAP1 SHL SHR NOT AND PUSH1 0x1 DUP5 SWAP1 SHL OR DUP5 SSTORE PUSH2 0x284 JUMP JUMPDEST PUSH0 DUP5 DUP2 MSTORE PUSH1 0x20 DUP2 KECCAK256 PUSH1 0x1F NOT DUP6 AND SWAP2 JUMPDEST DUP3 DUP2 LT ISZERO PUSH2 0x31A JUMPI DUP8 DUP6 ADD MLOAD DUP3 SSTORE PUSH1 0x20 SWAP5 DUP6 ADD SWAP5 PUSH1 0x1 SWAP1 SWAP3 ADD SWAP2 ADD PUSH2 0x2FA JUMP JUMPDEST POP DUP5 DUP3 LT ISZERO PUSH2 0x337 JUMPI DUP7 DUP5 ADD MLOAD PUSH0 NOT PUSH1 0x3 DUP8 SWAP1 SHL PUSH1 0xF8 AND SHR NOT AND DUP2 SSTORE JUMPDEST POP POP POP POP PUSH1 0x1 SWAP1 DUP2 SHL ADD SWAP1 SSTORE POP JUMP JUMPDEST PUSH2 0xBCA DUP1 PUSH2 0x353 PUSH0 CODECOPY PUSH0 RETURN INVALID PUSH1 0x80 PUSH1 0x40 MSTORE CALLVALUE DUP1 ISZERO PUSH2 0xF JUMPI PUSH0 DUP1 REVERT JUMPDEST POP PUSH1 0x4 CALLDATASIZE LT PUSH2 0x8C JUMPI PUSH0 CALLDATALOAD PUSH1 0xE0 SHR DUP1 PUSH4 0x16ADA547 EQ PUSH2 0x90 JUMPI DUP1 PUSH4 0x26C7B327 EQ PUSH2 0xAC JUMPI DUP1 PUSH4 0x4BA83374 EQ PUSH2 0xB5 JUMPI DUP1 PUSH4 0x5DA6EF8D EQ PUSH2 0xCD JUMPI DUP1 PUSH4 0x80F76021 EQ PUSH2 0xE2 JUMPI DUP1 PUSH4 0xA95264D0 EQ PUSH2 0xF7 JUMPI DUP1 PUSH4 0xB9DAF3E2 EQ PUSH2 0x10C JUMPI DUP1 PUSH4 0xBA379E86 EQ PUSH2 0x114 JUMPI DUP1 PUSH4 0xC47F0027 EQ PUSH2 0x129 JUMPI DUP1 PUSH4 0xDED92DAC EQ PUSH2 0x13C JUMPI JUMPDEST PUSH0 DUP1 REVERT JUMPDEST PUSH2 0x99 PUSH1 0x6 SLOAD DUP2 JUMP JUMPDEST PUSH1 0x40 MLOAD SWAP1 DUP2 MSTORE PUSH1 0x20 ADD JUMPDEST PUSH1 0x40 MLOAD DUP1 SWAP2 SUB SWAP1 RETURN JUMPDEST PUSH2 0x99 PUSH1 0x1 SLOAD DUP2 JUMP JUMPDEST PUSH2 0xBD PUSH2 0x14F JUMP JUMPDEST PUSH1 0x40 MLOAD SWAP1 ISZERO ISZERO DUP2 MSTORE PUSH1 0x20 ADD PUSH2 0xA3 JUMP JUMPDEST PUSH2 0xE0 PUSH2 0xDB CALLDATASIZE PUSH1 0x4 PUSH2 0x835 JUMP JUMPDEST PUSH2 0x1BB JUMP JUMPDEST STOP JUMPDEST PUSH2 0xEA PUSH2 0x301 JUMP JUMPDEST PUSH1 0x40 MLOAD PUSH2 0xA3 SWAP2 SWAP1 PUSH2 0x862 JUMP JUMPDEST PUSH2 0xFF PUSH2 0x352 JUMP JUMPDEST PUSH1 0x40 MLOAD PUSH2 0xA3 SWAP2 SWAP1 PUSH2 0x876 JUMP JUMPDEST PUSH2 0xBD PUSH2 0x3F2 JUMP JUMPDEST PUSH2 0x11C PUSH2 0x41C JUMP JUMPDEST PUSH1 0x40 MLOAD PUSH2 0xA3 SWAP2 SWAP1 PUSH2 0x8C1 JUMP JUMPDEST PUSH2 0xE0 PUSH2 0x137 CALLDATASIZE PUSH1 0x4 PUSH2 0x90A JUMP JUMPDEST PUSH2 0x570 JUMP JUMPDEST PUSH2 0xE0 PUSH2 0x14A CALLDATASIZE PUSH1 0x4 PUSH2 0x835 JUMP JUMPDEST PUSH2 0x5F5 JUMP JUMPDEST PUSH0 PUSH2 0x1B2 CALLER PUSH1 0x4 DUP1 SLOAD DUP1 PUSH1 0x20 MUL PUSH1 0x20 ADD PUSH1 0x40 MLOAD SWAP1 DUP2 ADD PUSH1 0x40 MSTORE DUP1 SWAP3 SWAP2 SWAP1 DUP2 DUP2 MSTORE PUSH1 0x20 ADD DUP3 DUP1 SLOAD DUP1 ISZERO PUSH2 0x1A8 JUMPI PUSH1 0x20 MUL DUP3 ADD SWAP2 SWAP1 PUSH0 MSTORE PUSH1 0x20 PUSH0 KECCAK256 SWAP1 JUMPDEST DUP2 SLOAD PUSH1 0x1 PUSH1 0x1 PUSH1 0xA0 SHL SUB AND DUP2 MSTORE PUSH1 0x1 SWAP1 SWAP2 ADD SWAP1 PUSH1 0x20 ADD DUP1 DUP4 GT PUSH2 0x18A JUMPI JUMPDEST POP POP POP POP POP PUSH2 0x6EB JUMP JUMPDEST PUSH0 NOT EQ ISZERO SWAP1 POP SWAP1 JUMP JUMPDEST PUSH1 0x2 SLOAD PUSH1 0x1 PUSH1 0x1 PUSH1 0xA0 SHL SUB AND CALLER EQ DUP1 PUSH2 0x1DE JUMPI POP PUSH1 0x3 SLOAD PUSH1 0x1 PUSH1 0x1 PUSH1 0xA0 SHL SUB AND CALLER EQ JUMPDEST PUSH2 0x203 JUMPI PUSH1 0x40 MLOAD PUSH3 0x461BCD PUSH1 0xE5 SHL DUP2 MSTORE PUSH1 0x4 ADD PUSH2 0x1FA SWAP1 PUSH2 0x9BA JUMP JUMPDEST PUSH1 0x40 MLOAD DUP1 SWAP2 SUB SWAP1 REVERT JUMPDEST PUSH1 0x2 SLOAD PUSH1 0x1 PUSH1 0x1 PUSH1 0xA0 SHL SUB DUP3 DUP2 AND SWAP2 AND EQ DUP1 ISZERO SWAP1 PUSH2 0x229 JUMPI POP PUSH1 0x1 PUSH1 0x1 PUSH1 0xA0 SHL SUB DUP2 AND ISZERO ISZERO JUMPDEST DUP1 ISZERO PUSH2 0x294 JUMPI POP PUSH2 0x290 DUP2 PUSH1 0x4 DUP1 SLOAD DUP1 PUSH1 0x20 MUL PUSH1 0x20 ADD PUSH1 0x40 MLOAD SWAP1 DUP2 ADD PUSH1 0x40 MSTORE DUP1 SWAP3 SWAP2 SWAP1 DUP2 DUP2 MSTORE PUSH1 0x20 ADD DUP3 DUP1 SLOAD DUP1 ISZERO PUSH2 0x1A8 JUMPI PUSH1 0x20 MUL DUP3 ADD SWAP2 SWAP1 PUSH0 MSTORE PUSH1 0x20 PUSH0 KECCAK256 SWAP1 DUP2 SLOAD PUSH1 0x1 PUSH1 0x1 PUSH1 0xA0 SHL SUB AND DUP2 MSTORE PUSH1 0x1 SWAP1 SWAP2 ADD SWAP1 PUSH1 0x20 ADD DUP1 DUP4 GT PUSH2 0x18A JUMPI POP POP POP POP POP PUSH2 0x6EB JUMP JUMPDEST PUSH0 NOT EQ JUMPDEST PUSH2 0x2B0 JUMPI PUSH1 0x40 MLOAD PUSH3 0x461BCD PUSH1 0xE5 SHL DUP2 MSTORE PUSH1 0x4 ADD PUSH2 0x1FA SWAP1 PUSH2 0x9BA JUMP JUMPDEST PUSH1 0x4 DUP1 SLOAD PUSH1 0x1 DUP2 ADD DUP3 SSTORE PUSH0 SWAP2 SWAP1 SWAP2 MSTORE PUSH32 0x8A35ACFBC15FF81A39AE7D344FD709F28E8600B4AA8C65C6B64BFE7FE36BD19B ADD DUP1 SLOAD PUSH1 0x1 PUSH1 0x1 PUSH1 0xA0 SHL SUB NOT AND PUSH1 0x1 PUSH1 0x1 PUSH1 0xA0 SHL SUB SWAP3 SWAP1 SWAP3 AND SWAP2 SWAP1 SWAP2 OR SWAP1 SSTORE JUMP JUMPDEST PUSH1 0x2 SLOAD PUSH0 SWAP1 PUSH1 0x1 PUSH1 0x1 PUSH1 0xA0 SHL SUB AND CALLER EQ DUP1 PUSH2 0x326 JUMPI POP PUSH1 0x3 SLOAD PUSH1 0x1 PUSH1 0x1 PUSH1 0xA0 SHL SUB AND CALLER EQ JUMPDEST PUSH2 0x342 JUMPI PUSH1 0x40 MLOAD PUSH3 0x461BCD PUSH1 0xE5 SHL DUP2 MSTORE PUSH1 0x4 ADD PUSH2 0x1FA SWAP1 PUSH2 0x9BA JUMP JUMPDEST POP PUSH1 0x3 SLOAD PUSH1 0x1 PUSH1 0x1 PUSH1 0xA0 SHL SUB AND SWAP1 JUMP JUMPDEST PUSH1 0x2 SLOAD PUSH1 0x60 SWAP1 PUSH1 0x1 PUSH1 0x1 PUSH1 0xA0 SHL SUB AND CALLER EQ DUP1 PUSH2 0x378 JUMPI POP PUSH1 0x3 SLOAD PUSH1 0x1 PUSH1 0x1 PUSH1 0xA0 SHL SUB AND CALLER EQ JUMPDEST PUSH2 0x394 JUMPI PUSH1 0x40 MLOAD PUSH3 0x461BCD PUSH1 0xE5 SHL DUP2 MSTORE PUSH1 0x4 ADD PUSH2 0x1FA SWAP1 PUSH2 0x9BA JUMP JUMPDEST PUSH1 0x4 DUP1 SLOAD DUP1 PUSH1 0x20 MUL PUSH1 0x20 ADD PUSH1 0x40 MLOAD SWAP1 DUP2 ADD PUSH1 0x40 MSTORE DUP1 SWAP3 SWAP2 SWAP1 DUP2 DUP2 MSTORE PUSH1 0x20 ADD DUP3 DUP1 SLOAD DUP1 ISZERO PUSH2 0x3E8 JUMPI PUSH1 0x20 MUL DUP3 ADD SWAP2 SWAP1 PUSH0 MSTORE PUSH1 0x20 PUSH0 KECCAK256 SWAP1 JUMPDEST DUP2 SLOAD PUSH1 0x1 PUSH1 0x1 PUSH1 0xA0 SHL SUB AND DUP2 MSTORE PUSH1 0x1 SWAP1 SWAP2 ADD SWAP1 PUSH1 0x20 ADD DUP1 DUP4 GT PUSH2 0x3CA JUMPI JUMPDEST POP POP POP POP POP SWAP1 POP SWAP1 JUMP JUMPDEST PUSH1 0x2 SLOAD PUSH0 SWAP1 PUSH1 0x1 PUSH1 0x1 PUSH1 0xA0 SHL SUB AND CALLER EQ DUP1 PUSH2 0x417 JUMPI POP PUSH1 0x3 SLOAD PUSH1 0x1 PUSH1 0x1 PUSH1 0xA0 SHL SUB AND CALLER EQ JUMPDEST SWAP1 POP SWAP1 JUMP JUMPDEST PUSH1 0x2 SLOAD PUSH1 0x60 SWAP1 PUSH1 0x1 PUSH1 0x1 PUSH1 0xA0 SHL SUB AND CALLER EQ DUP1 PUSH2 0x498 JUMPI POP PUSH2 0x493 CALLER PUSH1 0x4 DUP1 SLOAD DUP1 PUSH1 0x20 MUL PUSH1 0x20 ADD PUSH1 0x40 MLOAD SWAP1 DUP2 ADD PUSH1 0x40 MSTORE DUP1 SWAP3 SWAP2 SWAP1 DUP2 DUP2 MSTORE PUSH1 0x20 ADD DUP3 DUP1 SLOAD DUP1 ISZERO PUSH2 0x1A8 JUMPI PUSH1 0x20 MUL DUP3 ADD SWAP2 SWAP1 PUSH0 MSTORE PUSH1 0x20 PUSH0 KECCAK256 SWAP1 DUP2 SLOAD PUSH1 0x1 PUSH1 0x1 PUSH1 0xA0 SHL SUB AND DUP2 MSTORE PUSH1 0x1 SWAP1 SWAP2 ADD SWAP1 PUSH1 0x20 ADD DUP1 DUP4 GT PUSH2 0x18A JUMPI POP POP POP POP POP PUSH2 0x6EB JUMP JUMPDEST PUSH0 NOT EQ ISZERO JUMPDEST PUSH2 0x4B4 JUMPI PUSH1 0x40 MLOAD PUSH3 0x461BCD PUSH1 0xE5 SHL DUP2 MSTORE PUSH1 0x4 ADD PUSH2 0x1FA SWAP1 PUSH2 0x9BA JUMP JUMPDEST TIMESTAMP PUSH1 0x6 SLOAD LT PUSH2 0x4EB JUMPI PUSH1 0x40 MLOAD PUSH3 0x461BCD PUSH1 0xE5 SHL DUP2 MSTORE PUSH1 0x20 PUSH1 0x4 DUP3 ADD MSTORE PUSH1 0x3 PUSH1 0x24 DUP3 ADD MSTORE PUSH3 0x343235 PUSH1 0xE8 SHL PUSH1 0x44 DUP3 ADD MSTORE PUSH1 0x64 ADD PUSH2 0x1FA JUMP JUMPDEST PUSH1 0x5 DUP1 SLOAD PUSH2 0x4F8 SWAP1 PUSH2 0x9D7 JUMP JUMPDEST DUP1 PUSH1 0x1F ADD PUSH1 0x20 DUP1 SWAP2 DIV MUL PUSH1 0x20 ADD PUSH1 0x40 MLOAD SWAP1 DUP2 ADD PUSH1 0x40 MSTORE DUP1 SWAP3 SWAP2 SWAP1 DUP2 DUP2 MSTORE PUSH1 0x20 ADD DUP3 DUP1 SLOAD PUSH2 0x524 SWAP1 PUSH2 0x9D7 JUMP JUMPDEST DUP1 ISZERO PUSH2 0x3E8 JUMPI DUP1 PUSH1 0x1F LT PUSH2 0x546 JUMPI PUSH2 0x100 DUP1 DUP4 SLOAD DIV MUL DUP4 MSTORE SWAP2 PUSH1 0x20 ADD SWAP2 PUSH2 0x3E8 JUMP JUMPDEST DUP3 ADD SWAP2 SWAP1 PUSH0 MSTORE PUSH1 0x20 PUSH0 KECCAK256 SWAP1 JUMPDEST DUP2 SLOAD DUP2 MSTORE SWAP1 PUSH1 0x1 ADD SWAP1 PUSH1 0x20 ADD DUP1 DUP4 GT PUSH2 0x552 JUMPI POP SWAP4 SWAP6 SWAP5 POP POP POP POP POP JUMP JUMPDEST PUSH1 0x2 SLOAD PUSH1 0x1 PUSH1 0x1 PUSH1 0xA0 SHL SUB AND CALLER EQ DUP1 PUSH2 0x593 JUMPI POP PUSH1 0x3 SLOAD PUSH1 0x1 PUSH1 0x1 PUSH1 0xA0 SHL SUB AND CALLER EQ JUMPDEST PUSH2 0x5AF JUMPI PUSH1 0x40 MLOAD PUSH3 0x461BCD PUSH1 0xE5 SHL DUP2 MSTORE PUSH1 0x4 ADD PUSH2 0x1FA SWAP1 PUSH2 0x9BA JUMP JUMPDEST PUSH0 PUSH2 0x5BA DUP3 DUP3 PUSH2 0xA5B JUMP JUMPDEST POP PUSH32 0xE00DA2178806F37F69815E9ED5ED3072EC1D55206D60916D99B469C7DAA421E4 CALLER PUSH1 0x40 MLOAD PUSH2 0x5EA SWAP2 SWAP1 PUSH2 0x862 JUMP JUMPDEST PUSH1 0x40 MLOAD DUP1 SWAP2 SUB SWAP1 LOG1 POP JUMP JUMPDEST PUSH1 0x1 PUSH1 0x1 PUSH1 0xA0 SHL SUB DUP2 AND ISZERO ISZERO DUP1 PUSH2 0x63D JUMPI POP PUSH1 0x3 SLOAD PUSH1 0x1 PUSH1 0x1 PUSH1 0xA0 SHL SUB AND CALLER EQ DUP1 PUSH2 0x62A JUMPI POP PUSH1 0x2 SLOAD PUSH1 0x1 PUSH1 0x1 PUSH1 0xA0 SHL SUB AND CALLER EQ JUMPDEST DUP1 PUSH2 0x63D JUMPI POP CALLER PUSH1 0x1 PUSH1 0x1 PUSH1 0xA0 SHL SUB DUP3 AND EQ JUMPDEST PUSH2 0x659 JUMPI PUSH1 0x40 MLOAD PUSH3 0x461BCD PUSH1 0xE5 SHL DUP2 MSTORE PUSH1 0x4 ADD PUSH2 0x1FA SWAP1 PUSH2 0x9BA JUMP JUMPDEST PUSH0 PUSH2 0x6BA DUP3 PUSH1 0x4 DUP1 SLOAD DUP1 PUSH1 0x20 MUL PUSH1 0x20 ADD PUSH1 0x40 MLOAD SWAP1 DUP2 ADD PUSH1 0x40 MSTORE DUP1 SWAP3 SWAP2 SWAP1 DUP2 DUP2 MSTORE PUSH1 0x20 ADD DUP3 DUP1 SLOAD DUP1 ISZERO PUSH2 0x1A8 JUMPI PUSH1 0x20 MUL DUP3 ADD SWAP2 SWAP1 PUSH0 MSTORE PUSH1 0x20 PUSH0 KECCAK256 SWAP1 DUP2 SLOAD PUSH1 0x1 PUSH1 0x1 PUSH1 0xA0 SHL SUB AND DUP2 MSTORE PUSH1 0x1 SWAP1 SWAP2 ADD SWAP1 PUSH1 0x20 ADD DUP1 DUP4 GT PUSH2 0x18A JUMPI POP POP POP POP POP PUSH2 0x6EB JUMP JUMPDEST SWAP1 POP PUSH0 NOT DUP2 SGT PUSH2 0x6DC JUMPI PUSH1 0x40 MLOAD PUSH3 0x461BCD PUSH1 0xE5 SHL DUP2 MSTORE PUSH1 0x4 ADD PUSH2 0x1FA SWAP1 PUSH2 0xB15 JUMP JUMPDEST PUSH2 0x6E7 DUP2 PUSH1 0x4 PUSH2 0x744 JUMP JUMPDEST POP POP JUMP JUMPDEST PUSH0 DUP1 JUMPDEST DUP3 MLOAD DUP2 LT ISZERO PUSH2 0x738 JUMPI DUP4 PUSH1 0x1 PUSH1 0x1 PUSH1 0xA0 SHL SUB AND DUP4 DUP3 DUP2 MLOAD DUP2 LT PUSH2 0x713 JUMPI PUSH2 0x713 PUSH2 0xB32 JUMP JUMPDEST PUSH1 0x20 MUL PUSH1 0x20 ADD ADD MLOAD PUSH1 0x1 PUSH1 0x1 PUSH1 0xA0 SHL SUB AND SUB PUSH2 0x730 JUMPI SWAP1 POP PUSH2 0x73E JUMP JUMPDEST PUSH1 0x1 ADD PUSH2 0x6EE JUMP JUMPDEST POP PUSH0 NOT SWAP1 POP JUMPDEST SWAP3 SWAP2 POP POP JUMP JUMPDEST PUSH0 DUP3 SLT ISZERO DUP1 ISZERO PUSH2 0x754 JUMPI POP DUP1 SLOAD DUP3 LT JUMPDEST PUSH2 0x770 JUMPI PUSH1 0x40 MLOAD PUSH3 0x461BCD PUSH1 0xE5 SHL DUP2 MSTORE PUSH1 0x4 ADD PUSH2 0x1FA SWAP1 PUSH2 0xB15 JUMP JUMPDEST DUP2 JUMPDEST DUP2 SLOAD PUSH2 0x780 SWAP1 PUSH1 0x1 SWAP1 PUSH2 0xB5A JUMP JUMPDEST DUP2 LT ISZERO PUSH2 0x800 JUMPI DUP2 PUSH2 0x793 DUP3 PUSH1 0x1 PUSH2 0xB6D JUMP JUMPDEST DUP2 SLOAD DUP2 LT PUSH2 0x7A3 JUMPI PUSH2 0x7A3 PUSH2 0xB32 JUMP JUMPDEST SWAP1 PUSH0 MSTORE PUSH1 0x20 PUSH0 KECCAK256 ADD PUSH0 SWAP1 SLOAD SWAP1 PUSH2 0x100 EXP SWAP1 DIV PUSH1 0x1 PUSH1 0x1 PUSH1 0xA0 SHL SUB AND DUP3 DUP3 DUP2 SLOAD DUP2 LT PUSH2 0x7D0 JUMPI PUSH2 0x7D0 PUSH2 0xB32 JUMP JUMPDEST PUSH0 SWAP2 DUP3 MSTORE PUSH1 0x20 SWAP1 SWAP2 KECCAK256 ADD DUP1 SLOAD PUSH1 0x1 PUSH1 0x1 PUSH1 0xA0 SHL SUB NOT AND PUSH1 0x1 PUSH1 0x1 PUSH1 0xA0 SHL SUB SWAP3 SWAP1 SWAP3 AND SWAP2 SWAP1 SWAP2 OR SWAP1 SSTORE PUSH1 0x1 ADD PUSH2 0x772 JUMP JUMPDEST POP DUP1 DUP1 SLOAD DUP1 PUSH2 0x811 JUMPI PUSH2 0x811 PUSH2 0xB80 JUMP JUMPDEST PUSH0 DUP3 DUP2 MSTORE PUSH1 0x20 SWAP1 KECCAK256 DUP2 ADD PUSH0 NOT SWAP1 DUP2 ADD DUP1 SLOAD PUSH1 0x1 PUSH1 0x1 PUSH1 0xA0 SHL SUB NOT AND SWAP1 SSTORE ADD SWAP1 SSTORE POP POP JUMP JUMPDEST PUSH0 PUSH1 0x20 DUP3 DUP5 SUB SLT ISZERO PUSH2 0x845 JUMPI PUSH0 DUP1 REVERT JUMPDEST DUP2 CALLDATALOAD PUSH1 0x1 PUSH1 0x1 PUSH1 0xA0 SHL SUB DUP2 AND DUP2 EQ PUSH2 0x85B JUMPI PUSH0 DUP1 REVERT JUMPDEST SWAP4 SWAP3 POP POP POP JUMP JUMPDEST PUSH1 0x1 PUSH1 0x1 PUSH1 0xA0 SHL SUB SWAP2 SWAP1 SWAP2 AND DUP2 MSTORE PUSH1 0x20 ADD SWAP1 JUMP JUMPDEST PUSH1 0x20 DUP1 DUP3 MSTORE DUP3 MLOAD DUP3 DUP3 ADD DUP2 SWAP1 MSTORE PUSH0 SWAP2 DUP5 ADD SWAP1 PUSH1 0x40 DUP5 ADD SWAP1 DUP4 JUMPDEST DUP2 DUP2 LT ISZERO PUSH2 0x8B6 JUMPI DUP4 MLOAD PUSH1 0x1 PUSH1 0x1 PUSH1 0xA0 SHL SUB AND DUP4 MSTORE PUSH1 0x20 SWAP4 DUP5 ADD SWAP4 SWAP1 SWAP3 ADD SWAP2 PUSH1 0x1 ADD PUSH2 0x88F JUMP JUMPDEST POP SWAP1 SWAP6 SWAP5 POP POP POP POP POP JUMP JUMPDEST PUSH1 0x20 DUP2 MSTORE PUSH0 DUP3 MLOAD DUP1 PUSH1 0x20 DUP5 ADD MSTORE DUP1 PUSH1 0x20 DUP6 ADD PUSH1 0x40 DUP6 ADD MCOPY PUSH0 PUSH1 0x40 DUP3 DUP6 ADD ADD MSTORE PUSH1 0x40 PUSH1 0x1F NOT PUSH1 0x1F DUP4 ADD AND DUP5 ADD ADD SWAP2 POP POP SWAP3 SWAP2 POP POP JUMP JUMPDEST PUSH4 0x4E487B71 PUSH1 0xE0 SHL PUSH0 MSTORE PUSH1 0x41 PUSH1 0x4 MSTORE PUSH1 0x24 PUSH0 REVERT JUMPDEST PUSH0 PUSH1 0x20 DUP3 DUP5 SUB SLT ISZERO PUSH2 0x91A JUMPI PUSH0 DUP1 REVERT JUMPDEST DUP2 CALLDATALOAD PUSH1 0x1 PUSH1 0x1 PUSH1 0x40 SHL SUB DUP2 GT ISZERO PUSH2 0x92F JUMPI PUSH0 DUP1 REVERT JUMPDEST DUP3 ADD PUSH1 0x1F DUP2 ADD DUP5 SGT PUSH2 0x93F JUMPI PUSH0 DUP1 REVERT JUMPDEST DUP1 CALLDATALOAD PUSH1 0x1 PUSH1 0x1 PUSH1 0x40 SHL SUB DUP2 GT ISZERO PUSH2 0x958 JUMPI PUSH2 0x958 PUSH2 0x8F6 JUMP JUMPDEST PUSH1 0x40 MLOAD PUSH1 0x1F DUP3 ADD PUSH1 0x1F NOT SWAP1 DUP2 AND PUSH1 0x3F ADD AND DUP2 ADD PUSH1 0x1 PUSH1 0x1 PUSH1 0x40 SHL SUB DUP2 GT DUP3 DUP3 LT OR ISZERO PUSH2 0x986 JUMPI PUSH2 0x986 PUSH2 0x8F6 JUMP JUMPDEST PUSH1 0x40 MSTORE DUP2 DUP2 MSTORE DUP3 DUP3 ADD PUSH1 0x20 ADD DUP7 LT ISZERO PUSH2 0x99D JUMPI PUSH0 DUP1 REVERT JUMPDEST DUP2 PUSH1 0x20 DUP5 ADD PUSH1 0x20 DUP4 ADD CALLDATACOPY PUSH0 SWAP2 DUP2 ADD PUSH1 0x20 ADD SWAP2 SWAP1 SWAP2 MSTORE SWAP5 SWAP4 POP POP POP POP JUMP JUMPDEST PUSH1 0x20 DUP1 DUP3 MSTORE PUSH1 0x3 SWAP1 DUP3 ADD MSTORE PUSH3 0x343033 PUSH1 0xE8 SHL PUSH1 0x40 DUP3 ADD MSTORE PUSH1 0x60 ADD SWAP1 JUMP JUMPDEST PUSH1 0x1 DUP2 DUP2 SHR SWAP1 DUP3 AND DUP1 PUSH2 0x9EB JUMPI PUSH1 0x7F DUP3 AND SWAP2 POP JUMPDEST PUSH1 0x20 DUP3 LT DUP2 SUB PUSH2 0xA09 JUMPI PUSH4 0x4E487B71 PUSH1 0xE0 SHL PUSH0 MSTORE PUSH1 0x22 PUSH1 0x4 MSTORE PUSH1 0x24 PUSH0 REVERT JUMPDEST POP SWAP2 SWAP1 POP JUMP JUMPDEST PUSH1 0x1F DUP3 GT ISZERO PUSH2 0xA56 JUMPI DUP1 PUSH0 MSTORE PUSH1 0x20 PUSH0 KECCAK256 PUSH1 0x1F DUP5 ADD PUSH1 0x5 SHR DUP2 ADD PUSH1 0x20 DUP6 LT ISZERO PUSH2 0xA34 JUMPI POP DUP1 JUMPDEST PUSH1 0x1F DUP5 ADD PUSH1 0x5 SHR DUP3 ADD SWAP2 POP JUMPDEST DUP2 DUP2 LT ISZERO PUSH2 0xA53 JUMPI PUSH0 DUP2 SSTORE PUSH1 0x1 ADD PUSH2 0xA40 JUMP JUMPDEST POP POP JUMPDEST POP POP POP JUMP JUMPDEST DUP2 MLOAD PUSH1 0x1 PUSH1 0x1 PUSH1 0x40 SHL SUB DUP2 GT ISZERO PUSH2 0xA74 JUMPI PUSH2 0xA74 PUSH2 0x8F6 JUMP JUMPDEST PUSH2 0xA88 DUP2 PUSH2 0xA82 DUP5 SLOAD PUSH2 0x9D7 JUMP JUMPDEST DUP5 PUSH2 0xA0F JUMP JUMPDEST PUSH1 0x20 PUSH1 0x1F DUP3 GT PUSH1 0x1 DUP2 EQ PUSH2 0xABA JUMPI PUSH0 DUP4 ISZERO PUSH2 0xAA3 JUMPI POP DUP5 DUP3 ADD MLOAD JUMPDEST PUSH0 NOT PUSH1 0x3 DUP6 SWAP1 SHL SHR NOT AND PUSH1 0x1 DUP5 SWAP1 SHL OR DUP5 SSTORE PUSH2 0xA53 JUMP JUMPDEST PUSH0 DUP5 DUP2 MSTORE PUSH1 0x20 DUP2 KECCAK256 PUSH1 0x1F NOT DUP6 AND SWAP2 JUMPDEST DUP3 DUP2 LT ISZERO PUSH2 0xAE9 JUMPI DUP8 DUP6 ADD MLOAD DUP3 SSTORE PUSH1 0x20 SWAP5 DUP6 ADD SWAP5 PUSH1 0x1 SWAP1 SWAP3 ADD SWAP2 ADD PUSH2 0xAC9 JUMP JUMPDEST POP DUP5 DUP3 LT ISZERO PUSH2 0xB06 JUMPI DUP7 DUP5 ADD MLOAD PUSH0 NOT PUSH1 0x3 DUP8 SWAP1 SHL PUSH1 0xF8 AND SHR NOT AND DUP2 SSTORE JUMPDEST POP POP POP POP PUSH1 0x1 SWAP1 DUP2 SHL ADD SWAP1 SSTORE POP JUMP JUMPDEST PUSH1 0x20 DUP1 DUP3 MSTORE PUSH1 0x3 SWAP1 DUP3 ADD MSTORE PUSH3 0xD0C0D PUSH1 0xEA SHL PUSH1 0x40 DUP3 ADD MSTORE PUSH1 0x60 ADD SWAP1 JUMP JUMPDEST PUSH4 0x4E487B71 PUSH1 0xE0 SHL PUSH0 MSTORE PUSH1 0x32 PUSH1 0x4 MSTORE PUSH1 0x24 PUSH0 REVERT JUMPDEST PUSH4 0x4E487B71 PUSH1 0xE0 SHL PUSH0 MSTORE PUSH1 0x11 PUSH1 0x4 MSTORE PUSH1 0x24 PUSH0 REVERT JUMPDEST DUP2 DUP2 SUB DUP2 DUP2 GT ISZERO PUSH2 0x73E JUMPI PUSH2 0x73E PUSH2 0xB46 JUMP JUMPDEST DUP1 DUP3 ADD DUP1 DUP3 GT ISZERO PUSH2 0x73E JUMPI PUSH2 0x73E PUSH2 0xB46 JUMP JUMPDEST PUSH4 0x4E487B71 PUSH1 0xE0 SHL PUSH0 MSTORE PUSH1 0x31 PUSH1 0x4 MSTORE PUSH1 0x24 PUSH0 REVERT INVALID LOG2 PUSH5 0x6970667358 0x22 SLT KECCAK256 PUSH32 0xCCC497E64626B21720CC73B0BB28BABAFF151213D0C89CB82C1740B00E5BF664 PUSH20 0x6F6C634300081A0033608060405234801561000F JUMPI PUSH0 DUP1 REVERT JUMPDEST POP PUSH1 0x40 MLOAD PUSH2 0x140E CODESIZE SUB DUP1 PUSH2 0x140E DUP4 CODECOPY DUP2 ADD PUSH1 0x40 DUP2 SWAP1 MSTORE PUSH2 0x2E SWAP2 PUSH2 0x190 JUMP JUMPDEST PUSH1 0x2 PUSH1 0x1 DUP2 SWAP1 SSTORE DUP7 DUP4 DUP4 PUSH0 PUSH2 0x43 DUP5 DUP3 PUSH2 0x2EE JUMP JUMPDEST POP PUSH1 0x2 DUP1 SLOAD PUSH1 0x1 PUSH1 0x1 PUSH1 0xA0 SHL SUB SWAP4 DUP5 AND PUSH1 0x1 PUSH1 0x1 PUSH1 0xA0 SHL SUB NOT SWAP2 DUP3 AND OR SWAP1 SWAP2 SSTORE PUSH1 0x3 DUP1 SLOAD SWAP3 SWAP1 SWAP4 AND SWAP2 AND OR SWAP1 SSTORE POP PUSH1 0x5 SWAP1 POP PUSH2 0x7F DUP7 DUP3 PUSH2 0x2EE JUMP JUMPDEST POP PUSH1 0x6 PUSH2 0x8C DUP6 DUP3 PUSH2 0x2EE JUMP JUMPDEST POP PUSH1 0x7 PUSH2 0x99 DUP5 DUP3 PUSH2 0x2EE JUMP JUMPDEST POP PUSH1 0x40 MLOAD CALLER DUP2 MSTORE PUSH32 0x1449ABF21E49FD025F33495E77F7B1461CAEFDD3D4BB646424A3F445C4576A5B SWAP1 PUSH1 0x20 ADD PUSH1 0x40 MLOAD DUP1 SWAP2 SUB SWAP1 LOG1 POP POP POP POP POP POP PUSH2 0x3A8 JUMP JUMPDEST PUSH4 0x4E487B71 PUSH1 0xE0 SHL PUSH0 MSTORE PUSH1 0x41 PUSH1 0x4 MSTORE PUSH1 0x24 PUSH0 REVERT JUMPDEST PUSH0 DUP3 PUSH1 0x1F DUP4 ADD SLT PUSH2 0xFB JUMPI PUSH0 DUP1 REVERT JUMPDEST DUP2 MLOAD PUSH1 0x1 PUSH1 0x1 PUSH1 0x40 SHL SUB DUP2 GT ISZERO PUSH2 0x114 JUMPI PUSH2 0x114 PUSH2 0xD8 JUMP JUMPDEST PUSH1 0x40 MLOAD PUSH1 0x1F DUP3 ADD PUSH1 0x1F NOT SWAP1 DUP2 AND PUSH1 0x3F ADD AND DUP2 ADD PUSH1 0x1 PUSH1 0x1 PUSH1 0x40 SHL SUB DUP2 GT DUP3 DUP3 LT OR ISZERO PUSH2 0x142 JUMPI PUSH2 0x142 PUSH2 0xD8 JUMP JUMPDEST PUSH1 0x40 MSTORE DUP2 DUP2 MSTORE DUP4 DUP3 ADD PUSH1 0x20 ADD DUP6 LT ISZERO PUSH2 0x159 JUMPI PUSH0 DUP1 REVERT JUMPDEST DUP2 PUSH1 0x20 DUP6 ADD PUSH1 0x20 DUP4 ADD MCOPY PUSH0 SWAP2 DUP2 ADD PUSH1 0x20 ADD SWAP2 SWAP1 SWAP2 MSTORE SWAP4 SWAP3 POP POP POP JUMP JUMPDEST DUP1 MLOAD PUSH1 0x1 PUSH1 0x1 PUSH1 0xA0 SHL SUB DUP2 AND DUP2 EQ PUSH2 0x18B JUMPI PUSH0 DUP1 REVERT JUMPDEST SWAP2 SWAP1 POP JUMP JUMPDEST PUSH0 DUP1 PUSH0 DUP1 PUSH0 DUP1 PUSH1 0xC0 DUP8 DUP10 SUB SLT ISZERO PUSH2 0x1A5 JUMPI PUSH0 DUP1 REVERT JUMPDEST DUP7 MLOAD PUSH1 0x1 PUSH1 0x1 PUSH1 0x40 SHL SUB DUP2 GT ISZERO PUSH2 0x1BA JUMPI PUSH0 DUP1 REVERT JUMPDEST PUSH2 0x1C6 DUP10 DUP3 DUP11 ADD PUSH2 0xEC JUMP JUMPDEST PUSH1 0x20 DUP10 ADD MLOAD SWAP1 SWAP8 POP SWAP1 POP PUSH1 0x1 PUSH1 0x1 PUSH1 0x40 SHL SUB DUP2 GT ISZERO PUSH2 0x1E3 JUMPI PUSH0 DUP1 REVERT JUMPDEST PUSH2 0x1EF DUP10 DUP3 DUP11 ADD PUSH2 0xEC JUMP JUMPDEST PUSH1 0x40 DUP10 ADD MLOAD SWAP1 SWAP7 POP SWAP1 POP PUSH1 0x1 PUSH1 0x1 PUSH1 0x40 SHL SUB DUP2 GT ISZERO PUSH2 0x20C JUMPI PUSH0 DUP1 REVERT JUMPDEST PUSH2 0x218 DUP10 DUP3 DUP11 ADD PUSH2 0xEC JUMP JUMPDEST PUSH1 0x60 DUP10 ADD MLOAD SWAP1 SWAP6 POP SWAP1 POP PUSH1 0x1 PUSH1 0x1 PUSH1 0x40 SHL SUB DUP2 GT ISZERO PUSH2 0x235 JUMPI PUSH0 DUP1 REVERT JUMPDEST PUSH2 0x241 DUP10 DUP3 DUP11 ADD PUSH2 0xEC JUMP JUMPDEST SWAP4 POP POP PUSH2 0x250 PUSH1 0x80 DUP9 ADD PUSH2 0x175 JUMP JUMPDEST SWAP2 POP PUSH2 0x25E PUSH1 0xA0 DUP9 ADD PUSH2 0x175 JUMP JUMPDEST SWAP1 POP SWAP3 SWAP6 POP SWAP3 SWAP6 POP SWAP3 SWAP6 JUMP JUMPDEST PUSH1 0x1 DUP2 DUP2 SHR SWAP1 DUP3 AND DUP1 PUSH2 0x27E JUMPI PUSH1 0x7F DUP3 AND SWAP2 POP JUMPDEST PUSH1 0x20 DUP3 LT DUP2 SUB PUSH2 0x29C JUMPI PUSH4 0x4E487B71 PUSH1 0xE0 SHL PUSH0 MSTORE PUSH1 0x22 PUSH1 0x4 MSTORE PUSH1 0x24 PUSH0 REVERT JUMPDEST POP SWAP2 SWAP1 POP JUMP JUMPDEST PUSH1 0x1F DUP3 GT ISZERO PUSH2 0x2E9 JUMPI DUP1 PUSH0 MSTORE PUSH1 0x20 PUSH0 KECCAK256 PUSH1 0x1F DUP5 ADD PUSH1 0x5 SHR DUP2 ADD PUSH1 0x20 DUP6 LT ISZERO PUSH2 0x2C7 JUMPI POP DUP1 JUMPDEST PUSH1 0x1F DUP5 ADD PUSH1 0x5 SHR DUP3 ADD SWAP2 POP JUMPDEST DUP2 DUP2 LT ISZERO PUSH2 0x2E6 JUMPI PUSH0 DUP2 SSTORE PUSH1 0x1 ADD PUSH2 0x2D3 JUMP JUMPDEST POP POP JUMPDEST POP POP POP JUMP JUMPDEST DUP2 MLOAD PUSH1 0x1 PUSH1 0x1 PUSH1 0x40 SHL SUB DUP2 GT ISZERO PUSH2 0x307 JUMPI PUSH2 0x307 PUSH2 0xD8 JUMP JUMPDEST PUSH2 0x31B DUP2 PUSH2 0x315 DUP5 SLOAD PUSH2 0x26A JUMP JUMPDEST DUP5 PUSH2 0x2A2 JUMP JUMPDEST PUSH1 0x20 PUSH1 0x1F DUP3 GT PUSH1 0x1 DUP2 EQ PUSH2 0x34D JUMPI PUSH0 DUP4 ISZERO PUSH2 0x336 JUMPI POP DUP5 DUP3 ADD MLOAD JUMPDEST PUSH0 NOT PUSH1 0x3 DUP6 SWAP1 SHL SHR NOT AND PUSH1 0x1 DUP5 SWAP1 SHL OR DUP5 SSTORE PUSH2 0x2E6 JUMP JUMPDEST PUSH0 DUP5 DUP2 MSTORE PUSH1 0x20 DUP2 KECCAK256 PUSH1 0x1F NOT DUP6 AND SWAP2 JUMPDEST DUP3 DUP2 LT ISZERO PUSH2 0x37C JUMPI DUP8 DUP6 ADD MLOAD DUP3 SSTORE PUSH1 0x20 SWAP5 DUP6 ADD SWAP5 PUSH1 0x1 SWAP1 SWAP3 ADD SWAP2 ADD PUSH2 0x35C JUMP JUMPDEST POP DUP5 DUP3 LT ISZERO PUSH2 0x399 JUMPI DUP7 DUP5 ADD MLOAD PUSH0 NOT PUSH1 0x3 DUP8 SWAP1 SHL PUSH1 0xF8 AND SHR NOT AND DUP2 SSTORE JUMPDEST POP POP POP POP PUSH1 0x1 SWAP1 DUP2 SHL ADD SWAP1 SSTORE POP JUMP JUMPDEST PUSH2 0x1059 DUP1 PUSH2 0x3B5 PUSH0 CODECOPY PUSH0 RETURN INVALID PUSH1 0x80 PUSH1 0x40 MSTORE CALLVALUE DUP1 ISZERO PUSH2 0xF JUMPI PUSH0 DUP1 REVERT JUMPDEST POP PUSH1 0x4 CALLDATASIZE LT PUSH2 0xAD JUMPI PUSH0 CALLDATALOAD PUSH1 0xE0 SHR DUP1 PUSH4 0x252498A2 EQ PUSH2 0xB1 JUMPI DUP1 PUSH4 0x26C7B327 EQ PUSH2 0xC6 JUMPI DUP1 PUSH4 0x290BB453 EQ PUSH2 0xE2 JUMPI DUP1 PUSH4 0x2B5914FE EQ PUSH2 0xF5 JUMPI DUP1 PUSH4 0x4BA83374 EQ PUSH2 0x108 JUMPI DUP1 PUSH4 0x5DA6EF8D EQ PUSH2 0x120 JUMPI DUP1 PUSH4 0x80F76021 EQ PUSH2 0x133 JUMPI DUP1 PUSH4 0xA95264D0 EQ PUSH2 0x148 JUMPI DUP1 PUSH4 0xAC0344E6 EQ PUSH2 0x15D JUMPI DUP1 PUSH4 0xB9DAF3E2 EQ PUSH2 0x170 JUMPI DUP1 PUSH4 0xBA379E86 EQ PUSH2 0x178 JUMPI DUP1 PUSH4 0xC47F0027 EQ PUSH2 0x190 JUMPI DUP1 PUSH4 0xDED92DAC EQ PUSH2 0x1A3 JUMPI JUMPDEST PUSH0 DUP1 REVERT JUMPDEST PUSH2 0xC4 PUSH2 0xBF CALLDATASIZE PUSH1 0x4 PUSH2 0xC2A JUMP JUMPDEST PUSH2 0x1B6 JUMP JUMPDEST STOP JUMPDEST PUSH2 0xCF PUSH1 0x1 SLOAD DUP2 JUMP JUMPDEST PUSH1 0x40 MLOAD SWAP1 DUP2 MSTORE PUSH1 0x20 ADD JUMPDEST PUSH1 0x40 MLOAD DUP1 SWAP2 SUB SWAP1 RETURN JUMPDEST PUSH2 0xC4 PUSH2 0xF0 CALLDATASIZE PUSH1 0x4 PUSH2 0xC2A JUMP JUMPDEST PUSH2 0x232 JUMP JUMPDEST PUSH2 0xC4 PUSH2 0x103 CALLDATASIZE PUSH1 0x4 PUSH2 0xC2A JUMP JUMPDEST PUSH2 0x27D JUMP JUMPDEST PUSH2 0x110 PUSH2 0x2C8 JUMP JUMPDEST PUSH1 0x40 MLOAD SWAP1 ISZERO ISZERO DUP2 MSTORE PUSH1 0x20 ADD PUSH2 0xD9 JUMP JUMPDEST PUSH2 0xC4 PUSH2 0x12E CALLDATASIZE PUSH1 0x4 PUSH2 0xC63 JUMP JUMPDEST PUSH2 0x334 JUMP JUMPDEST PUSH2 0x13B PUSH2 0x471 JUMP JUMPDEST PUSH1 0x40 MLOAD PUSH2 0xD9 SWAP2 SWAP1 PUSH2 0xC90 JUMP JUMPDEST PUSH2 0x150 PUSH2 0x4C2 JUMP JUMPDEST PUSH1 0x40 MLOAD PUSH2 0xD9 SWAP2 SWAP1 PUSH2 0xCA4 JUMP JUMPDEST PUSH2 0xC4 PUSH2 0x16B CALLDATASIZE PUSH1 0x4 PUSH2 0xCEF JUMP JUMPDEST PUSH2 0x562 JUMP JUMPDEST PUSH2 0x110 PUSH2 0x5FE JUMP JUMPDEST PUSH2 0x180 PUSH2 0x628 JUMP JUMPDEST PUSH1 0x40 MLOAD PUSH2 0xD9 SWAP5 SWAP4 SWAP3 SWAP2 SWAP1 PUSH2 0xDD2 JUMP JUMPDEST PUSH2 0xC4 PUSH2 0x19E CALLDATASIZE PUSH1 0x4 PUSH2 0xC2A JUMP JUMPDEST PUSH2 0x903 JUMP JUMPDEST PUSH2 0xC4 PUSH2 0x1B1 CALLDATASIZE PUSH1 0x4 PUSH2 0xC63 JUMP JUMPDEST PUSH2 0x94D JUMP JUMPDEST PUSH1 0x2 SLOAD PUSH1 0x1 PUSH1 0x1 PUSH1 0xA0 SHL SUB AND CALLER EQ DUP1 PUSH2 0x1D9 JUMPI POP PUSH1 0x3 SLOAD PUSH1 0x1 PUSH1 0x1 PUSH1 0xA0 SHL SUB AND CALLER EQ JUMPDEST PUSH2 0x1FE JUMPI PUSH1 0x40 MLOAD PUSH3 0x461BCD PUSH1 0xE5 SHL DUP2 MSTORE PUSH1 0x4 ADD PUSH2 0x1F5 SWAP1 PUSH2 0xE29 JUMP JUMPDEST PUSH1 0x40 MLOAD DUP1 SWAP2 SUB SWAP1 REVERT JUMPDEST PUSH1 0x5 PUSH2 0x20A DUP3 DUP3 PUSH2 0xECA JUMP JUMPDEST POP PUSH0 DUP1 MLOAD PUSH1 0x20 PUSH2 0x1004 DUP4 CODECOPY DUP2 MLOAD SWAP2 MSTORE CALLER PUSH1 0x40 MLOAD PUSH2 0x227 SWAP2 SWAP1 PUSH2 0xC90 JUMP JUMPDEST PUSH1 0x40 MLOAD DUP1 SWAP2 SUB SWAP1 LOG1 POP JUMP JUMPDEST PUSH1 0x2 SLOAD PUSH1 0x1 PUSH1 0x1 PUSH1 0xA0 SHL SUB AND CALLER EQ DUP1 PUSH2 0x255 JUMPI POP PUSH1 0x3 SLOAD PUSH1 0x1 PUSH1 0x1 PUSH1 0xA0 SHL SUB AND CALLER EQ JUMPDEST PUSH2 0x271 JUMPI PUSH1 0x40 MLOAD PUSH3 0x461BCD PUSH1 0xE5 SHL DUP2 MSTORE PUSH1 0x4 ADD PUSH2 0x1F5 SWAP1 PUSH2 0xE29 JUMP JUMPDEST PUSH1 0x7 PUSH2 0x20A DUP3 DUP3 PUSH2 0xECA JUMP JUMPDEST PUSH1 0x2 SLOAD PUSH1 0x1 PUSH1 0x1 PUSH1 0xA0 SHL SUB AND CALLER EQ DUP1 PUSH2 0x2A0 JUMPI POP PUSH1 0x3 SLOAD PUSH1 0x1 PUSH1 0x1 PUSH1 0xA0 SHL SUB AND CALLER EQ JUMPDEST PUSH2 0x2BC JUMPI PUSH1 0x40 MLOAD PUSH3 0x461BCD PUSH1 0xE5 SHL DUP2 MSTORE PUSH1 0x4 ADD PUSH2 0x1F5 SWAP1 PUSH2 0xE29 JUMP JUMPDEST PUSH1 0x6 PUSH2 0x20A DUP3 DUP3 PUSH2 0xECA JUMP JUMPDEST PUSH0 PUSH2 0x32B CALLER PUSH1 0x4 DUP1 SLOAD DUP1 PUSH1 0x20 MUL PUSH1 0x20 ADD PUSH1 0x40 MLOAD SWAP1 DUP2 ADD PUSH1 0x40 MSTORE DUP1 SWAP3 SWAP2 SWAP1 DUP2 DUP2 MSTORE PUSH1 0x20 ADD DUP3 DUP1 SLOAD DUP1 ISZERO PUSH2 0x321 JUMPI PUSH1 0x20 MUL DUP3 ADD SWAP2 SWAP1 PUSH0 MSTORE PUSH1 0x20 PUSH0 KECCAK256 SWAP1 JUMPDEST DUP2 SLOAD PUSH1 0x1 PUSH1 0x1 PUSH1 0xA0 SHL SUB AND DUP2 MSTORE PUSH1 0x1 SWAP1 SWAP2 ADD SWAP1 PUSH1 0x20 ADD DUP1 DUP4 GT PUSH2 0x303 JUMPI JUMPDEST POP POP POP POP POP PUSH2 0xA43 JUMP JUMPDEST PUSH0 NOT EQ ISZERO SWAP1 POP SWAP1 JUMP JUMPDEST PUSH1 0x2 SLOAD PUSH1 0x1 PUSH1 0x1 PUSH1 0xA0 SHL SUB AND CALLER EQ DUP1 PUSH2 0x357 JUMPI POP PUSH1 0x3 SLOAD PUSH1 0x1 PUSH1 0x1 PUSH1 0xA0 SHL SUB AND CALLER EQ JUMPDEST PUSH2 0x373 JUMPI PUSH1 0x40 MLOAD PUSH3 0x461BCD PUSH1 0xE5 SHL DUP2 MSTORE PUSH1 0x4 ADD PUSH2 0x1F5 SWAP1 PUSH2 0xE29 JUMP JUMPDEST PUSH1 0x2 SLOAD PUSH1 0x1 PUSH1 0x1 PUSH1 0xA0 SHL SUB DUP3 DUP2 AND SWAP2 AND EQ DUP1 ISZERO SWAP1 PUSH2 0x399 JUMPI POP PUSH1 0x1 PUSH1 0x1 PUSH1 0xA0 SHL SUB DUP2 AND ISZERO ISZERO JUMPDEST DUP1 ISZERO PUSH2 0x404 JUMPI POP PUSH2 0x400 DUP2 PUSH1 0x4 DUP1 SLOAD DUP1 PUSH1 0x20 MUL PUSH1 0x20 ADD PUSH1 0x40 MLOAD SWAP1 DUP2 ADD PUSH1 0x40 MSTORE DUP1 SWAP3 SWAP2 SWAP1 DUP2 DUP2 MSTORE PUSH1 0x20 ADD DUP3 DUP1 SLOAD DUP1 ISZERO PUSH2 0x321 JUMPI PUSH1 0x20 MUL DUP3 ADD SWAP2 SWAP1 PUSH0 MSTORE PUSH1 0x20 PUSH0 KECCAK256 SWAP1 DUP2 SLOAD PUSH1 0x1 PUSH1 0x1 PUSH1 0xA0 SHL SUB AND DUP2 MSTORE PUSH1 0x1 SWAP1 SWAP2 ADD SWAP1 PUSH1 0x20 ADD DUP1 DUP4 GT PUSH2 0x303 JUMPI POP POP POP POP POP PUSH2 0xA43 JUMP JUMPDEST PUSH0 NOT EQ JUMPDEST PUSH2 0x420 JUMPI PUSH1 0x40 MLOAD PUSH3 0x461BCD PUSH1 0xE5 SHL DUP2 MSTORE PUSH1 0x4 ADD PUSH2 0x1F5 SWAP1 PUSH2 0xE29 JUMP JUMPDEST PUSH1 0x4 DUP1 SLOAD PUSH1 0x1 DUP2 ADD DUP3 SSTORE PUSH0 SWAP2 SWAP1 SWAP2 MSTORE PUSH32 0x8A35ACFBC15FF81A39AE7D344FD709F28E8600B4AA8C65C6B64BFE7FE36BD19B ADD DUP1 SLOAD PUSH1 0x1 PUSH1 0x1 PUSH1 0xA0 SHL SUB NOT AND PUSH1 0x1 PUSH1 0x1 PUSH1 0xA0 SHL SUB SWAP3 SWAP1 SWAP3 AND SWAP2 SWAP1 SWAP2 OR SWAP1 SSTORE JUMP JUMPDEST PUSH1 0x2 SLOAD PUSH0 SWAP1 PUSH1 0x1 PUSH1 0x1 PUSH1 0xA0 SHL SUB AND CALLER EQ DUP1 PUSH2 0x496 JUMPI POP PUSH1 0x3 SLOAD PUSH1 0x1 PUSH1 0x1 PUSH1 0xA0 SHL SUB AND CALLER EQ JUMPDEST PUSH2 0x4B2 JUMPI PUSH1 0x40 MLOAD PUSH3 0x461BCD PUSH1 0xE5 SHL DUP2 MSTORE PUSH1 0x4 ADD PUSH2 0x1F5 SWAP1 PUSH2 0xE29 JUMP JUMPDEST POP PUSH1 0x3 SLOAD PUSH1 0x1 PUSH1 0x1 PUSH1 0xA0 SHL SUB AND SWAP1 JUMP JUMPDEST PUSH1 0x2 SLOAD PUSH1 0x60 SWAP1 PUSH1 0x1 PUSH1 0x1 PUSH1 0xA0 SHL SUB AND CALLER EQ DUP1 PUSH2 0x4E8 JUMPI POP PUSH1 0x3 SLOAD PUSH1 0x1 PUSH1 0x1 PUSH1 0xA0 SHL SUB AND CALLER EQ JUMPDEST PUSH2 0x504 JUMPI PUSH1 0x40 MLOAD PUSH3 0x461BCD PUSH1 0xE5 SHL DUP2 MSTORE PUSH1 0x4 ADD PUSH2 0x1F5 SWAP1 PUSH2 0xE29 JUMP JUMPDEST PUSH1 0x4 DUP1 SLOAD DUP1 PUSH1 0x20 MUL PUSH1 0x20 ADD PUSH1 0x40 MLOAD SWAP1 DUP2 ADD PUSH1 0x40 MSTORE DUP1 SWAP3 SWAP2 SWAP1 DUP2 DUP2 MSTORE PUSH1 0x20 ADD DUP3 DUP1 SLOAD DUP1 ISZERO PUSH2 0x558 JUMPI PUSH1 0x20 MUL DUP3 ADD SWAP2 SWAP1 PUSH0 MSTORE PUSH1 0x20 PUSH0 KECCAK256 SWAP1 JUMPDEST DUP2 SLOAD PUSH1 0x1 PUSH1 0x1 PUSH1 0xA0 SHL SUB AND DUP2 MSTORE PUSH1 0x1 SWAP1 SWAP2 ADD SWAP1 PUSH1 0x20 ADD DUP1 DUP4 GT PUSH2 0x53A JUMPI JUMPDEST POP POP POP POP POP SWAP1 POP SWAP1 JUMP JUMPDEST PUSH1 0x2 SLOAD PUSH1 0x1 PUSH1 0x1 PUSH1 0xA0 SHL SUB AND CALLER EQ DUP1 PUSH2 0x585 JUMPI POP PUSH1 0x3 SLOAD PUSH1 0x1 PUSH1 0x1 PUSH1 0xA0 SHL SUB AND CALLER EQ JUMPDEST PUSH2 0x5A1 JUMPI PUSH1 0x40 MLOAD PUSH3 0x461BCD PUSH1 0xE5 SHL DUP2 MSTORE PUSH1 0x4 ADD PUSH2 0x1F5 SWAP1 PUSH2 0xE29 JUMP JUMPDEST PUSH0 PUSH2 0x5AC DUP6 DUP3 PUSH2 0xECA JUMP JUMPDEST POP PUSH1 0x5 PUSH2 0x5B9 DUP5 DUP3 PUSH2 0xECA JUMP JUMPDEST POP PUSH1 0x6 PUSH2 0x5C6 DUP4 DUP3 PUSH2 0xECA JUMP JUMPDEST POP PUSH1 0x7 PUSH2 0x5D3 DUP3 DUP3 PUSH2 0xECA JUMP JUMPDEST POP PUSH0 DUP1 MLOAD PUSH1 0x20 PUSH2 0x1004 DUP4 CODECOPY DUP2 MLOAD SWAP2 MSTORE CALLER PUSH1 0x40 MLOAD PUSH2 0x5F0 SWAP2 SWAP1 PUSH2 0xC90 JUMP JUMPDEST PUSH1 0x40 MLOAD DUP1 SWAP2 SUB SWAP1 LOG1 POP POP POP POP JUMP JUMPDEST PUSH1 0x2 SLOAD PUSH0 SWAP1 PUSH1 0x1 PUSH1 0x1 PUSH1 0xA0 SHL SUB AND CALLER EQ DUP1 PUSH2 0x623 JUMPI POP PUSH1 0x3 SLOAD PUSH1 0x1 PUSH1 0x1 PUSH1 0xA0 SHL SUB AND CALLER EQ JUMPDEST SWAP1 POP SWAP1 JUMP JUMPDEST PUSH1 0x2 SLOAD PUSH1 0x60 SWAP1 DUP2 SWAP1 DUP2 SWAP1 DUP2 SWAP1 PUSH1 0x1 PUSH1 0x1 PUSH1 0xA0 SHL SUB AND CALLER EQ DUP1 PUSH2 0x6AA JUMPI POP PUSH2 0x6A5 CALLER PUSH1 0x4 DUP1 SLOAD DUP1 PUSH1 0x20 MUL PUSH1 0x20 ADD PUSH1 0x40 MLOAD SWAP1 DUP2 ADD PUSH1 0x40 MSTORE DUP1 SWAP3 SWAP2 SWAP1 DUP2 DUP2 MSTORE PUSH1 0x20 ADD DUP3 DUP1 SLOAD DUP1 ISZERO PUSH2 0x321 JUMPI PUSH1 0x20 MUL DUP3 ADD SWAP2 SWAP1 PUSH0 MSTORE PUSH1 0x20 PUSH0 KECCAK256 SWAP1 DUP2 SLOAD PUSH1 0x1 PUSH1 0x1 PUSH1 0xA0 SHL SUB AND DUP2 MSTORE PUSH1 0x1 SWAP1 SWAP2 ADD SWAP1 PUSH1 0x20 ADD DUP1 DUP4 GT PUSH2 0x303 JUMPI POP POP POP POP POP PUSH2 0xA43 JUMP JUMPDEST PUSH0 NOT EQ ISZERO JUMPDEST PUSH2 0x6C6 JUMPI PUSH1 0x40 MLOAD PUSH3 0x461BCD PUSH1 0xE5 SHL DUP2 MSTORE PUSH1 0x4 ADD PUSH2 0x1F5 SWAP1 PUSH2 0xE29 JUMP JUMPDEST PUSH0 PUSH1 0x5 PUSH1 0x6 PUSH1 0x7 DUP4 DUP1 SLOAD PUSH2 0x6D9 SWAP1 PUSH2 0xE46 JUMP JUMPDEST DUP1 PUSH1 0x1F ADD PUSH1 0x20 DUP1 SWAP2 DIV MUL PUSH1 0x20 ADD PUSH1 0x40 MLOAD SWAP1 DUP2 ADD PUSH1 0x40 MSTORE DUP1 SWAP3 SWAP2 SWAP1 DUP2 DUP2 MSTORE PUSH1 0x20 ADD DUP3 DUP1 SLOAD PUSH2 0x705 SWAP1 PUSH2 0xE46 JUMP JUMPDEST DUP1 ISZERO PUSH2 0x750 JUMPI DUP1 PUSH1 0x1F LT PUSH2 0x727 JUMPI PUSH2 0x100 DUP1 DUP4 SLOAD DIV MUL DUP4 MSTORE SWAP2 PUSH1 0x20 ADD SWAP2 PUSH2 0x750 JUMP JUMPDEST DUP3 ADD SWAP2 SWAP1 PUSH0 MSTORE PUSH1 0x20 PUSH0 KECCAK256 SWAP1 JUMPDEST DUP2 SLOAD DUP2 MSTORE SWAP1 PUSH1 0x1 ADD SWAP1 PUSH1 0x20 ADD DUP1 DUP4 GT PUSH2 0x733 JUMPI DUP3 SWAP1 SUB PUSH1 0x1F AND DUP3 ADD SWAP2 JUMPDEST POP POP POP POP POP SWAP4 POP DUP3 DUP1 SLOAD PUSH2 0x763 SWAP1 PUSH2 0xE46 JUMP JUMPDEST DUP1 PUSH1 0x1F ADD PUSH1 0x20 DUP1 SWAP2 DIV MUL PUSH1 0x20 ADD PUSH1 0x40 MLOAD SWAP1 DUP2 ADD PUSH1 0x40 MSTORE DUP1 SWAP3 SWAP2 SWAP1 DUP2 DUP2 MSTORE PUSH1 0x20 ADD DUP3 DUP1 SLOAD PUSH2 0x78F SWAP1 PUSH2 0xE46 JUMP JUMPDEST DUP1 ISZERO PUSH2 0x7DA JUMPI DUP1 PUSH1 0x1F LT PUSH2 0x7B1 JUMPI PUSH2 0x100 DUP1 DUP4 SLOAD DIV MUL DUP4 MSTORE SWAP2 PUSH1 0x20 ADD SWAP2 PUSH2 0x7DA JUMP JUMPDEST DUP3 ADD SWAP2 SWAP1 PUSH0 MSTORE PUSH1 0x20 PUSH0 KECCAK256 SWAP1 JUMPDEST DUP2 SLOAD DUP2 MSTORE SWAP1 PUSH1 0x1 ADD SWAP1 PUSH1 0x20 ADD DUP1 DUP4 GT PUSH2 0x7BD JUMPI DUP3 SWAP1 SUB PUSH1 0x1F AND DUP3 ADD SWAP2 JUMPDEST POP POP POP POP POP SWAP3 POP DUP2 DUP1 SLOAD PUSH2 0x7ED SWAP1 PUSH2 0xE46 JUMP JUMPDEST DUP1 PUSH1 0x1F ADD PUSH1 0x20 DUP1 SWAP2 DIV MUL PUSH1 0x20 ADD PUSH1 0x40 MLOAD SWAP1 DUP2 ADD PUSH1 0x40 MSTORE DUP1 SWAP3 SWAP2 SWAP1 DUP2 DUP2 MSTORE PUSH1 0x20 ADD DUP3 DUP1 SLOAD PUSH2 0x819 SWAP1 PUSH2 0xE46 JUMP JUMPDEST DUP1 ISZERO PUSH2 0x864 JUMPI DUP1 PUSH1 0x1F LT PUSH2 0x83B JUMPI PUSH2 0x100 DUP1 DUP4 SLOAD DIV MUL DUP4 MSTORE SWAP2 PUSH1 0x20 ADD SWAP2 PUSH2 0x864 JUMP JUMPDEST DUP3 ADD SWAP2 SWAP1 PUSH0 MSTORE PUSH1 0x20 PUSH0 KECCAK256 SWAP1 JUMPDEST DUP2 SLOAD DUP2 MSTORE SWAP1 PUSH1 0x1 ADD SWAP1 PUSH1 0x20 ADD DUP1 DUP4 GT PUSH2 0x847 JUMPI DUP3 SWAP1 SUB PUSH1 0x1F AND DUP3 ADD SWAP2 JUMPDEST POP POP POP POP POP SWAP2 POP DUP1 DUP1 SLOAD PUSH2 0x877 SWAP1 PUSH2 0xE46 JUMP JUMPDEST DUP1 PUSH1 0x1F ADD PUSH1 0x20 DUP1 SWAP2 DIV MUL PUSH1 0x20 ADD PUSH1 0x40 MLOAD SWAP1 DUP2 ADD PUSH1 0x40 MSTORE DUP1 SWAP3 SWAP2 SWAP1 DUP2 DUP2 MSTORE PUSH1 0x20 ADD DUP3 DUP1 SLOAD PUSH2 0x8A3 SWAP1 PUSH2 0xE46 JUMP JUMPDEST DUP1 ISZERO PUSH2 0x8EE JUMPI DUP1 PUSH1 0x1F LT PUSH2 0x8C5 JUMPI PUSH2 0x100 DUP1 DUP4 SLOAD DIV MUL DUP4 MSTORE SWAP2 PUSH1 0x20 ADD SWAP2 PUSH2 0x8EE JUMP JUMPDEST DUP3 ADD SWAP2 SWAP1 PUSH0 MSTORE PUSH1 0x20 PUSH0 KECCAK256 SWAP1 JUMPDEST DUP2 SLOAD DUP2 MSTORE SWAP1 PUSH1 0x1 ADD SWAP1 PUSH1 0x20 ADD DUP1 DUP4 GT PUSH2 0x8D1 JUMPI DUP3 SWAP1 SUB PUSH1 0x1F AND DUP3 ADD SWAP2 JUMPDEST POP POP POP POP POP SWAP1 POP SWAP4 POP SWAP4 POP SWAP4 POP SWAP4 POP SWAP1 SWAP2 SWAP3 SWAP4 JUMP JUMPDEST PUSH1 0x2 SLOAD PUSH1 0x1 PUSH1 0x1 PUSH1 0xA0 SHL SUB AND CALLER EQ DUP1 PUSH2 0x926 JUMPI POP PUSH1 0x3 SLOAD PUSH1 0x1 PUSH1 0x1 PUSH1 0xA0 SHL SUB AND CALLER EQ JUMPDEST PUSH2 0x942 JUMPI PUSH1 0x40 MLOAD PUSH3 0x461BCD PUSH1 0xE5 SHL DUP2 MSTORE PUSH1 0x4 ADD PUSH2 0x1F5 SWAP1 PUSH2 0xE29 JUMP JUMPDEST PUSH0 PUSH2 0x20A DUP3 DUP3 PUSH2 0xECA JUMP JUMPDEST PUSH1 0x1 PUSH1 0x1 PUSH1 0xA0 SHL SUB DUP2 AND ISZERO ISZERO DUP1 PUSH2 0x995 JUMPI POP PUSH1 0x3 SLOAD PUSH1 0x1 PUSH1 0x1 PUSH1 0xA0 SHL SUB AND CALLER EQ DUP1 PUSH2 0x982 JUMPI POP PUSH1 0x2 SLOAD PUSH1 0x1 PUSH1 0x1 PUSH1 0xA0 SHL SUB AND CALLER EQ JUMPDEST DUP1 PUSH2 0x995 JUMPI POP CALLER PUSH1 0x1 PUSH1 0x1 PUSH1 0xA0 SHL SUB DUP3 AND EQ JUMPDEST PUSH2 0x9B1 JUMPI PUSH1 0x40 MLOAD PUSH3 0x461BCD PUSH1 0xE5 SHL DUP2 MSTORE PUSH1 0x4 ADD PUSH2 0x1F5 SWAP1 PUSH2 0xE29 JUMP JUMPDEST PUSH0 PUSH2 0xA12 DUP3 PUSH1 0x4 DUP1 SLOAD DUP1 PUSH1 0x20 MUL PUSH1 0x20 ADD PUSH1 0x40 MLOAD SWAP1 DUP2 ADD PUSH1 0x40 MSTORE DUP1 SWAP3 SWAP2 SWAP1 DUP2 DUP2 MSTORE PUSH1 0x20 ADD DUP3 DUP1 SLOAD DUP1 ISZERO PUSH2 0x321 JUMPI PUSH1 0x20 MUL DUP3 ADD SWAP2 SWAP1 PUSH0 MSTORE PUSH1 0x20 PUSH0 KECCAK256 SWAP1 DUP2 SLOAD PUSH1 0x1 PUSH1 0x1 PUSH1 0xA0 SHL SUB AND DUP2 MSTORE PUSH1 0x1 SWAP1 SWAP2 ADD SWAP1 PUSH1 0x20 ADD DUP1 DUP4 GT PUSH2 0x303 JUMPI POP POP POP POP POP PUSH2 0xA43 JUMP JUMPDEST SWAP1 POP PUSH0 NOT DUP2 SGT PUSH2 0xA34 JUMPI PUSH1 0x40 MLOAD PUSH3 0x461BCD PUSH1 0xE5 SHL DUP2 MSTORE PUSH1 0x4 ADD PUSH2 0x1F5 SWAP1 PUSH2 0xF84 JUMP JUMPDEST PUSH2 0xA3F DUP2 PUSH1 0x4 PUSH2 0xA9C JUMP JUMPDEST POP POP JUMP JUMPDEST PUSH0 DUP1 JUMPDEST DUP3 MLOAD DUP2 LT ISZERO PUSH2 0xA90 JUMPI DUP4 PUSH1 0x1 PUSH1 0x1 PUSH1 0xA0 SHL SUB AND DUP4 DUP3 DUP2 MLOAD DUP2 LT PUSH2 0xA6B JUMPI PUSH2 0xA6B PUSH2 0xFA1 JUMP JUMPDEST PUSH1 0x20 MUL PUSH1 0x20 ADD ADD MLOAD PUSH1 0x1 PUSH1 0x1 PUSH1 0xA0 SHL SUB AND SUB PUSH2 0xA88 JUMPI SWAP1 POP PUSH2 0xA96 JUMP JUMPDEST PUSH1 0x1 ADD PUSH2 0xA46 JUMP JUMPDEST POP PUSH0 NOT SWAP1 POP JUMPDEST SWAP3 SWAP2 POP POP JUMP JUMPDEST PUSH0 DUP3 SLT ISZERO DUP1 ISZERO PUSH2 0xAAC JUMPI POP DUP1 SLOAD DUP3 LT JUMPDEST PUSH2 0xAC8 JUMPI PUSH1 0x40 MLOAD PUSH3 0x461BCD PUSH1 0xE5 SHL DUP2 MSTORE PUSH1 0x4 ADD PUSH2 0x1F5 SWAP1 PUSH2 0xF84 JUMP JUMPDEST DUP2 JUMPDEST DUP2 SLOAD PUSH2 0xAD8 SWAP1 PUSH1 0x1 SWAP1 PUSH2 0xFC9 JUMP JUMPDEST DUP2 LT ISZERO PUSH2 0xB58 JUMPI DUP2 PUSH2 0xAEB DUP3 PUSH1 0x1 PUSH2 0xFDC JUMP JUMPDEST DUP2 SLOAD DUP2 LT PUSH2 0xAFB JUMPI PUSH2 0xAFB PUSH2 0xFA1 JUMP JUMPDEST SWAP1 PUSH0 MSTORE PUSH1 0x20 PUSH0 KECCAK256 ADD PUSH0 SWAP1 SLOAD SWAP1 PUSH2 0x100 EXP SWAP1 DIV PUSH1 0x1 PUSH1 0x1 PUSH1 0xA0 SHL SUB AND DUP3 DUP3 DUP2 SLOAD DUP2 LT PUSH2 0xB28 JUMPI PUSH2 0xB28 PUSH2 0xFA1 JUMP JUMPDEST PUSH0 SWAP2 DUP3 MSTORE PUSH1 0x20 SWAP1 SWAP2 KECCAK256 ADD DUP1 SLOAD PUSH1 0x1 PUSH1 0x1 PUSH1 0xA0 SHL SUB NOT AND PUSH1 0x1 PUSH1 0x1 PUSH1 0xA0 SHL SUB SWAP3 SWAP1 SWAP3 AND SWAP2 SWAP1 SWAP2 OR SWAP1 SSTORE PUSH1 0x1 ADD PUSH2 0xACA JUMP JUMPDEST POP DUP1 DUP1 SLOAD DUP1 PUSH2 0xB69 JUMPI PUSH2 0xB69 PUSH2 0xFEF JUMP JUMPDEST PUSH0 DUP3 DUP2 MSTORE PUSH1 0x20 SWAP1 KECCAK256 DUP2 ADD PUSH0 NOT SWAP1 DUP2 ADD DUP1 SLOAD PUSH1 0x1 PUSH1 0x1 PUSH1 0xA0 SHL SUB NOT AND SWAP1 SSTORE ADD SWAP1 SSTORE POP POP JUMP JUMPDEST PUSH4 0x4E487B71 PUSH1 0xE0 SHL PUSH0 MSTORE PUSH1 0x41 PUSH1 0x4 MSTORE PUSH1 0x24 PUSH0 REVERT JUMPDEST PUSH0 DUP3 PUSH1 0x1F DUP4 ADD SLT PUSH2 0xBB0 JUMPI PUSH0 DUP1 REVERT JUMPDEST DUP2 CALLDATALOAD PUSH1 0x1 PUSH1 0x1 PUSH1 0x40 SHL SUB DUP2 GT ISZERO PUSH2 0xBC9 JUMPI PUSH2 0xBC9 PUSH2 0xB8D JUMP JUMPDEST PUSH1 0x40 MLOAD PUSH1 0x1F DUP3 ADD PUSH1 0x1F NOT SWAP1 DUP2 AND PUSH1 0x3F ADD AND DUP2 ADD PUSH1 0x1 PUSH1 0x1 PUSH1 0x40 SHL SUB DUP2 GT DUP3 DUP3 LT OR ISZERO PUSH2 0xBF7 JUMPI PUSH2 0xBF7 PUSH2 0xB8D JUMP JUMPDEST PUSH1 0x40 MSTORE DUP2 DUP2 MSTORE DUP4 DUP3 ADD PUSH1 0x20 ADD DUP6 LT ISZERO PUSH2 0xC0E JUMPI PUSH0 DUP1 REVERT JUMPDEST DUP2 PUSH1 0x20 DUP6 ADD PUSH1 0x20 DUP4 ADD CALLDATACOPY PUSH0 SWAP2 DUP2 ADD PUSH1 0x20 ADD SWAP2 SWAP1 SWAP2 MSTORE SWAP4 SWAP3 POP POP POP JUMP JUMPDEST PUSH0 PUSH1 0x20 DUP3 DUP5 SUB SLT ISZERO PUSH2 0xC3A JUMPI PUSH0 DUP1 REVERT JUMPDEST DUP2 CALLDATALOAD PUSH1 0x1 PUSH1 0x1 PUSH1 0x40 SHL SUB DUP2 GT ISZERO PUSH2 0xC4F JUMPI PUSH0 DUP1 REVERT JUMPDEST PUSH2 0xC5B DUP5 DUP3 DUP6 ADD PUSH2 0xBA1 JUMP JUMPDEST SWAP5 SWAP4 POP POP POP POP JUMP JUMPDEST PUSH0 PUSH1 0x20 DUP3 DUP5 SUB SLT ISZERO PUSH2 0xC73 JUMPI PUSH0 DUP1 REVERT JUMPDEST DUP2 CALLDATALOAD PUSH1 0x1 PUSH1 0x1 PUSH1 0xA0 SHL SUB DUP2 AND DUP2 EQ PUSH2 0xC89 JUMPI PUSH0 DUP1 REVERT JUMPDEST SWAP4 SWAP3 POP POP POP JUMP JUMPDEST PUSH1 0x1 PUSH1 0x1 PUSH1 0xA0 SHL SUB SWAP2 SWAP1 SWAP2 AND DUP2 MSTORE PUSH1 0x20 ADD SWAP1 JUMP JUMPDEST PUSH1 0x20 DUP1 DUP3 MSTORE DUP3 MLOAD DUP3 DUP3 ADD DUP2 SWAP1 MSTORE PUSH0 SWAP2 DUP5 ADD SWAP1 PUSH1 0x40 DUP5 ADD SWAP1 DUP4 JUMPDEST DUP2 DUP2 LT ISZERO PUSH2 0xCE4 JUMPI DUP4 MLOAD PUSH1 0x1 PUSH1 0x1 PUSH1 0xA0 SHL SUB AND DUP4 MSTORE PUSH1 0x20 SWAP4 DUP5 ADD SWAP4 SWAP1 SWAP3 ADD SWAP2 PUSH1 0x1 ADD PUSH2 0xCBD JUMP JUMPDEST POP SWAP1 SWAP6 SWAP5 POP POP POP POP POP JUMP JUMPDEST PUSH0 DUP1 PUSH0 DUP1 PUSH1 0x80 DUP6 DUP8 SUB SLT ISZERO PUSH2 0xD02 JUMPI PUSH0 DUP1 REVERT JUMPDEST DUP5 CALLDATALOAD PUSH1 0x1 PUSH1 0x1 PUSH1 0x40 SHL SUB DUP2 GT ISZERO PUSH2 0xD17 JUMPI PUSH0 DUP1 REVERT JUMPDEST PUSH2 0xD23 DUP8 DUP3 DUP9 ADD PUSH2 0xBA1 JUMP JUMPDEST SWAP5 POP POP PUSH1 0x20 DUP6 ADD CALLDATALOAD PUSH1 0x1 PUSH1 0x1 PUSH1 0x40 SHL SUB DUP2 GT ISZERO PUSH2 0xD3E JUMPI PUSH0 DUP1 REVERT JUMPDEST PUSH2 0xD4A DUP8 DUP3 DUP9 ADD PUSH2 0xBA1 JUMP JUMPDEST SWAP4 POP POP PUSH1 0x40 DUP6 ADD CALLDATALOAD PUSH1 0x1 PUSH1 0x1 PUSH1 0x40 SHL SUB DUP2 GT ISZERO PUSH2 0xD65 JUMPI PUSH0 DUP1 REVERT JUMPDEST PUSH2 0xD71 DUP8 DUP3 DUP9 ADD PUSH2 0xBA1 JUMP JUMPDEST SWAP3 POP POP PUSH1 0x60 DUP6 ADD CALLDATALOAD PUSH1 0x1 PUSH1 0x1 PUSH1 0x40 SHL SUB DUP2 GT ISZERO PUSH2 0xD8C JUMPI PUSH0 DUP1 REVERT JUMPDEST PUSH2 0xD98 DUP8 DUP3 DUP9 ADD PUSH2 0xBA1 JUMP JUMPDEST SWAP2 POP POP SWAP3 SWAP6 SWAP2 SWAP5 POP SWAP3 POP JUMP JUMPDEST PUSH0 DUP2 MLOAD DUP1 DUP5 MSTORE DUP1 PUSH1 0x20 DUP5 ADD PUSH1 0x20 DUP7 ADD MCOPY PUSH0 PUSH1 0x20 DUP3 DUP7 ADD ADD MSTORE PUSH1 0x20 PUSH1 0x1F NOT PUSH1 0x1F DUP4 ADD AND DUP6 ADD ADD SWAP2 POP POP SWAP3 SWAP2 POP POP JUMP JUMPDEST PUSH1 0x80 DUP2 MSTORE PUSH0 PUSH2 0xDE4 PUSH1 0x80 DUP4 ADD DUP8 PUSH2 0xDA4 JUMP JUMPDEST DUP3 DUP2 SUB PUSH1 0x20 DUP5 ADD MSTORE PUSH2 0xDF6 DUP2 DUP8 PUSH2 0xDA4 JUMP JUMPDEST SWAP1 POP DUP3 DUP2 SUB PUSH1 0x40 DUP5 ADD MSTORE PUSH2 0xE0A DUP2 DUP7 PUSH2 0xDA4 JUMP JUMPDEST SWAP1 POP DUP3 DUP2 SUB PUSH1 0x60 DUP5 ADD MSTORE PUSH2 0xE1E DUP2 DUP6 PUSH2 0xDA4 JUMP JUMPDEST SWAP8 SWAP7 POP POP POP POP POP POP POP JUMP JUMPDEST PUSH1 0x20 DUP1 DUP3 MSTORE PUSH1 0x3 SWAP1 DUP3 ADD MSTORE PUSH3 0x343033 PUSH1 0xE8 SHL PUSH1 0x40 DUP3 ADD MSTORE PUSH1 0x60 ADD SWAP1 JUMP JUMPDEST PUSH1 0x1 DUP2 DUP2 SHR SWAP1 DUP3 AND DUP1 PUSH2 0xE5A JUMPI PUSH1 0x7F DUP3 AND SWAP2 POP JUMPDEST PUSH1 0x20 DUP3 LT DUP2 SUB PUSH2 0xE78 JUMPI PUSH4 0x4E487B71 PUSH1 0xE0 SHL PUSH0 MSTORE PUSH1 0x22 PUSH1 0x4 MSTORE PUSH1 0x24 PUSH0 REVERT JUMPDEST POP SWAP2 SWAP1 POP JUMP JUMPDEST PUSH1 0x1F DUP3 GT ISZERO PUSH2 0xEC5 JUMPI DUP1 PUSH0 MSTORE PUSH1 0x20 PUSH0 KECCAK256 PUSH1 0x1F DUP5 ADD PUSH1 0x5 SHR DUP2 ADD PUSH1 0x20 DUP6 LT ISZERO PUSH2 0xEA3 JUMPI POP DUP1 JUMPDEST PUSH1 0x1F DUP5 ADD PUSH1 0x5 SHR DUP3 ADD SWAP2 POP JUMPDEST DUP2 DUP2 LT ISZERO PUSH2 0xEC2 JUMPI PUSH0 DUP2 SSTORE PUSH1 0x1 ADD PUSH2 0xEAF JUMP JUMPDEST POP POP JUMPDEST POP POP POP JUMP JUMPDEST DUP2 MLOAD PUSH1 0x1 PUSH1 0x1 PUSH1 0x40 SHL SUB DUP2 GT ISZERO PUSH2 0xEE3 JUMPI PUSH2 0xEE3 PUSH2 0xB8D JUMP JUMPDEST PUSH2 0xEF7 DUP2 PUSH2 0xEF1 DUP5 SLOAD PUSH2 0xE46 JUMP JUMPDEST DUP5 PUSH2 0xE7E JUMP JUMPDEST PUSH1 0x20 PUSH1 0x1F DUP3 GT PUSH1 0x1 DUP2 EQ PUSH2 0xF29 JUMPI PUSH0 DUP4 ISZERO PUSH2 0xF12 JUMPI POP DUP5 DUP3 ADD MLOAD JUMPDEST PUSH0 NOT PUSH1 0x3 DUP6 SWAP1 SHL SHR NOT AND PUSH1 0x1 DUP5 SWAP1 SHL OR DUP5 SSTORE PUSH2 0xEC2 JUMP JUMPDEST PUSH0 DUP5 DUP2 MSTORE PUSH1 0x20 DUP2 KECCAK256 PUSH1 0x1F NOT DUP6 AND SWAP2 JUMPDEST DUP3 DUP2 LT ISZERO PUSH2 0xF58 JUMPI DUP8 DUP6 ADD MLOAD DUP3 SSTORE PUSH1 0x20 SWAP5 DUP6 ADD SWAP5 PUSH1 0x1 SWAP1 SWAP3 ADD SWAP2 ADD PUSH2 0xF38 JUMP JUMPDEST POP DUP5 DUP3 LT ISZERO PUSH2 0xF75 JUMPI DUP7 DUP5 ADD MLOAD PUSH0 NOT PUSH1 0x3 DUP8 SWAP1 SHL PUSH1 0xF8 AND SHR NOT AND DUP2 SSTORE JUMPDEST POP POP POP POP PUSH1 0x1 SWAP1 DUP2 SHL ADD SWAP1 SSTORE POP JUMP JUMPDEST PUSH1 0x20 DUP1 DUP3 MSTORE PUSH1 0x3 SWAP1 DUP3 ADD MSTORE PUSH3 0xD0C0D PUSH1 0xEA SHL PUSH1 0x40 DUP3 ADD MSTORE PUSH1 0x60 ADD SWAP1 JUMP JUMPDEST PUSH4 0x4E487B71 PUSH1 0xE0 SHL PUSH0 MSTORE PUSH1 0x32 PUSH1 0x4 MSTORE PUSH1 0x24 PUSH0 REVERT JUMPDEST PUSH4 0x4E487B71 PUSH1 0xE0 SHL PUSH0 MSTORE PUSH1 0x11 PUSH1 0x4 MSTORE PUSH1 0x24 PUSH0 REVERT JUMPDEST DUP2 DUP2 SUB DUP2 DUP2 GT ISZERO PUSH2 0xA96 JUMPI PUSH2 0xA96 PUSH2 0xFB5 JUMP JUMPDEST DUP1 DUP3 ADD DUP1 DUP3 GT ISZERO PUSH2 0xA96 JUMPI PUSH2 0xA96 PUSH2 0xFB5 JUMP JUMPDEST PUSH4 0x4E487B71 PUSH1 0xE0 SHL PUSH0 MSTORE PUSH1 0x31 PUSH1 0x4 MSTORE PUSH1 0x24 PUSH0 REVERT INVALID 0xE0 0xD LOG2 OR DUP9 MOD RETURN PUSH32 0x69815E9ED5ED3072EC1D55206D60916D99B469C7DAA421E4A264697066735822 SLT KECCAK256 OR 0xD5 GT 0xC8 0xEF PUSH13 0xC80D7746F8EC70A7F8FA236CD PUSH23 0x16F1D0D0B5076B5AB8213ADD64736F6C634300081A0033 PUSH1 0x80 PUSH1 0x40 MSTORE CALLVALUE DUP1 ISZERO PUSH2 0xF JUMPI PUSH0 DUP1 REVERT JUMPDEST POP PUSH1 0x40 MLOAD PUSH2 0x1081 CODESIZE SUB DUP1 PUSH2 0x1081 DUP4 CODECOPY DUP2 ADD PUSH1 0x40 DUP2 SWAP1 MSTORE PUSH2 0x2E SWAP2 PUSH2 0xF0 JUMP JUMPDEST PUSH1 0x3 PUSH1 0x1 DUP2 SWAP1 SSTORE DUP5 DUP4 DUP4 PUSH0 PUSH2 0x43 DUP5 DUP3 PUSH2 0x255 JUMP JUMPDEST POP PUSH1 0x2 DUP1 SLOAD PUSH1 0x1 PUSH1 0x1 PUSH1 0xA0 SHL SUB NOT SWAP1 DUP2 AND PUSH1 0x1 PUSH1 0x1 PUSH1 0xA0 SHL SUB SWAP5 DUP6 AND OR SWAP1 SWAP2 SSTORE PUSH1 0x3 DUP1 SLOAD DUP3 AND SWAP3 DUP5 AND SWAP3 SWAP1 SWAP3 OR SWAP1 SWAP2 SSTORE PUSH1 0x5 DUP1 SLOAD SWAP1 SWAP2 AND SWAP2 DUP8 AND SWAP2 SWAP1 SWAP2 OR SWAP1 SSTORE POP POP PUSH1 0x40 MLOAD CALLER DUP2 MSTORE PUSH32 0x1449ABF21E49FD025F33495E77F7B1461CAEFDD3D4BB646424A3F445C4576A5B SWAP1 PUSH1 0x20 ADD PUSH1 0x40 MLOAD DUP1 SWAP2 SUB SWAP1 LOG1 POP POP POP POP PUSH2 0x30F JUMP JUMPDEST PUSH4 0x4E487B71 PUSH1 0xE0 SHL PUSH0 MSTORE PUSH1 0x41 PUSH1 0x4 MSTORE PUSH1 0x24 PUSH0 REVERT JUMPDEST DUP1 MLOAD PUSH1 0x1 PUSH1 0x1 PUSH1 0xA0 SHL SUB DUP2 AND DUP2 EQ PUSH2 0xEB JUMPI PUSH0 DUP1 REVERT JUMPDEST SWAP2 SWAP1 POP JUMP JUMPDEST PUSH0 DUP1 PUSH0 DUP1 PUSH1 0x80 DUP6 DUP8 SUB SLT ISZERO PUSH2 0x103 JUMPI PUSH0 DUP1 REVERT JUMPDEST DUP5 MLOAD PUSH1 0x1 PUSH1 0x1 PUSH1 0x40 SHL SUB DUP2 GT ISZERO PUSH2 0x118 JUMPI PUSH0 DUP1 REVERT JUMPDEST DUP6 ADD PUSH1 0x1F DUP2 ADD DUP8 SGT PUSH2 0x128 JUMPI PUSH0 DUP1 REVERT JUMPDEST DUP1 MLOAD PUSH1 0x1 PUSH1 0x1 PUSH1 0x40 SHL SUB DUP2 GT ISZERO PUSH2 0x141 JUMPI PUSH2 0x141 PUSH2 0xC1 JUMP JUMPDEST PUSH1 0x40 MLOAD PUSH1 0x1F DUP3 ADD PUSH1 0x1F NOT SWAP1 DUP2 AND PUSH1 0x3F ADD AND DUP2 ADD PUSH1 0x1 PUSH1 0x1 PUSH1 0x40 SHL SUB DUP2 GT DUP3 DUP3 LT OR ISZERO PUSH2 0x16F JUMPI PUSH2 0x16F PUSH2 0xC1 JUMP JUMPDEST PUSH1 0x40 MSTORE DUP2 DUP2 MSTORE DUP3 DUP3 ADD PUSH1 0x20 ADD DUP10 LT ISZERO PUSH2 0x186 JUMPI PUSH0 DUP1 REVERT JUMPDEST DUP2 PUSH1 0x20 DUP5 ADD PUSH1 0x20 DUP4 ADD MCOPY PUSH0 PUSH1 0x20 DUP4 DUP4 ADD ADD MSTORE DUP1 SWAP7 POP POP POP POP PUSH2 0x1AA PUSH1 0x20 DUP7 ADD PUSH2 0xD5 JUMP JUMPDEST SWAP3 POP PUSH2 0x1B8 PUSH1 0x40 DUP7 ADD PUSH2 0xD5 JUMP JUMPDEST SWAP2 POP PUSH2 0x1C6 PUSH1 0x60 DUP7 ADD PUSH2 0xD5 JUMP JUMPDEST SWAP1 POP SWAP3 SWAP6 SWAP2 SWAP5 POP SWAP3 POP JUMP JUMPDEST PUSH1 0x1 DUP2 DUP2 SHR SWAP1 DUP3 AND DUP1 PUSH2 0x1E5 JUMPI PUSH1 0x7F DUP3 AND SWAP2 POP JUMPDEST PUSH1 0x20 DUP3 LT DUP2 SUB PUSH2 0x203 JUMPI PUSH4 0x4E487B71 PUSH1 0xE0 SHL PUSH0 MSTORE PUSH1 0x22 PUSH1 0x4 MSTORE PUSH1 0x24 PUSH0 REVERT JUMPDEST POP SWAP2 SWAP1 POP JUMP JUMPDEST PUSH1 0x1F DUP3 GT ISZERO PUSH2 0x250 JUMPI DUP1 PUSH0 MSTORE PUSH1 0x20 PUSH0 KECCAK256 PUSH1 0x1F DUP5 ADD PUSH1 0x5 SHR DUP2 ADD PUSH1 0x20 DUP6 LT ISZERO PUSH2 0x22E JUMPI POP DUP1 JUMPDEST PUSH1 0x1F DUP5 ADD PUSH1 0x5 SHR DUP3 ADD SWAP2 POP JUMPDEST DUP2 DUP2 LT ISZERO PUSH2 0x24D JUMPI PUSH0 DUP2 SSTORE PUSH1 0x1 ADD PUSH2 0x23A JUMP JUMPDEST POP POP JUMPDEST POP POP POP JUMP JUMPDEST DUP2 MLOAD PUSH1 0x1 PUSH1 0x1 PUSH1 0x40 SHL SUB DUP2 GT ISZERO PUSH2 0x26E JUMPI PUSH2 0x26E PUSH2 0xC1 JUMP JUMPDEST PUSH2 0x282 DUP2 PUSH2 0x27C DUP5 SLOAD PUSH2 0x1D1 JUMP JUMPDEST DUP5 PUSH2 0x209 JUMP JUMPDEST PUSH1 0x20 PUSH1 0x1F DUP3 GT PUSH1 0x1 DUP2 EQ PUSH2 0x2B4 JUMPI PUSH0 DUP4 ISZERO PUSH2 0x29D JUMPI POP DUP5 DUP3 ADD MLOAD JUMPDEST PUSH0 NOT PUSH1 0x3 DUP6 SWAP1 SHL SHR NOT AND PUSH1 0x1 DUP5 SWAP1 SHL OR DUP5 SSTORE PUSH2 0x24D JUMP JUMPDEST PUSH0 DUP5 DUP2 MSTORE PUSH1 0x20 DUP2 KECCAK256 PUSH1 0x1F NOT DUP6 AND SWAP2 JUMPDEST DUP3 DUP2 LT ISZERO PUSH2 0x2E3 JUMPI DUP8 DUP6 ADD MLOAD DUP3 SSTORE PUSH1 0x20 SWAP5 DUP6 ADD SWAP5 PUSH1 0x1 SWAP1 SWAP3 ADD SWAP2 ADD PUSH2 0x2C3 JUMP JUMPDEST POP DUP5 DUP3 LT ISZERO PUSH2 0x300 JUMPI DUP7 DUP5 ADD MLOAD PUSH0 NOT PUSH1 0x3 DUP8 SWAP1 SHL PUSH1 0xF8 AND SHR NOT AND DUP2 SSTORE JUMPDEST POP POP POP POP PUSH1 0x1 SWAP1 DUP2 SHL ADD SWAP1 SSTORE POP JUMP JUMPDEST PUSH2 0xD65 DUP1 PUSH2 0x31C PUSH0 CODECOPY PUSH0 RETURN INVALID PUSH1 0x80 PUSH1 0x40 MSTORE CALLVALUE DUP1 ISZERO PUSH2 0xF JUMPI PUSH0 DUP1 REVERT JUMPDEST POP PUSH1 0x4 CALLDATASIZE LT PUSH2 0x8C JUMPI PUSH0 CALLDATALOAD PUSH1 0xE0 SHR DUP1 PUSH4 0x26C7B327 EQ PUSH2 0x90 JUMPI DUP1 PUSH4 0x469C8110 EQ PUSH2 0xAC JUMPI DUP1 PUSH4 0x4BA83374 EQ PUSH2 0xC1 JUMPI DUP1 PUSH4 0x5DA6EF8D EQ PUSH2 0xD9 JUMPI DUP1 PUSH4 0x5FF6CBF3 EQ PUSH2 0xEC JUMPI DUP1 PUSH4 0x80F76021 EQ PUSH2 0x101 JUMPI DUP1 PUSH4 0xA95264D0 EQ PUSH2 0x116 JUMPI DUP1 PUSH4 0xB9DAF3E2 EQ PUSH2 0x12B JUMPI DUP1 PUSH4 0xC47F0027 EQ PUSH2 0x133 JUMPI DUP1 PUSH4 0xDED92DAC EQ PUSH2 0x146 JUMPI JUMPDEST PUSH0 DUP1 REVERT JUMPDEST PUSH2 0x99 PUSH1 0x1 SLOAD DUP2 JUMP JUMPDEST PUSH1 0x40 MLOAD SWAP1 DUP2 MSTORE PUSH1 0x20 ADD JUMPDEST PUSH1 0x40 MLOAD DUP1 SWAP2 SUB SWAP1 RETURN JUMPDEST PUSH2 0xBF PUSH2 0xBA CALLDATASIZE PUSH1 0x4 PUSH2 0x96F JUMP JUMPDEST PUSH2 0x159 JUMP JUMPDEST STOP JUMPDEST PUSH2 0xC9 PUSH2 0x292 JUMP JUMPDEST PUSH1 0x40 MLOAD SWAP1 ISZERO ISZERO DUP2 MSTORE PUSH1 0x20 ADD PUSH2 0xA3 JUMP JUMPDEST PUSH2 0xBF PUSH2 0xE7 CALLDATASIZE PUSH1 0x4 PUSH2 0xA1F JUMP JUMPDEST PUSH2 0x2FE JUMP JUMPDEST PUSH2 0xF4 PUSH2 0x43B JUMP JUMPDEST PUSH1 0x40 MLOAD PUSH2 0xA3 SWAP2 SWAP1 PUSH2 0xA4C JUMP JUMPDEST PUSH2 0x109 PUSH2 0x586 JUMP JUMPDEST PUSH1 0x40 MLOAD PUSH2 0xA3 SWAP2 SWAP1 PUSH2 0xAF6 JUMP JUMPDEST PUSH2 0x11E PUSH2 0x5D7 JUMP JUMPDEST PUSH1 0x40 MLOAD PUSH2 0xA3 SWAP2 SWAP1 PUSH2 0xB0A JUMP JUMPDEST PUSH2 0xC9 PUSH2 0x677 JUMP JUMPDEST PUSH2 0xBF PUSH2 0x141 CALLDATASIZE PUSH1 0x4 PUSH2 0x96F JUMP JUMPDEST PUSH2 0x6A1 JUMP JUMPDEST PUSH2 0xBF PUSH2 0x154 CALLDATASIZE PUSH1 0x4 PUSH2 0xA1F JUMP JUMPDEST PUSH2 0x71B JUMP JUMPDEST PUSH1 0x2 SLOAD PUSH1 0x1 PUSH1 0x1 PUSH1 0xA0 SHL SUB AND CALLER EQ DUP1 PUSH2 0x17C JUMPI POP PUSH1 0x5 SLOAD PUSH1 0x1 PUSH1 0x1 PUSH1 0xA0 SHL SUB AND CALLER EQ JUMPDEST PUSH2 0x1A1 JUMPI PUSH1 0x40 MLOAD PUSH3 0x461BCD PUSH1 0xE5 SHL DUP2 MSTORE PUSH1 0x4 ADD PUSH2 0x198 SWAP1 PUSH2 0xB55 JUMP JUMPDEST PUSH1 0x40 MLOAD DUP1 SWAP2 SUB SWAP1 REVERT JUMPDEST PUSH1 0x40 DUP1 MLOAD PUSH1 0x60 DUP2 ADD DUP3 MSTORE TIMESTAMP DUP2 MSTORE PUSH1 0x20 DUP2 ADD DUP4 DUP2 MSTORE CALLER SWAP3 DUP3 ADD SWAP3 SWAP1 SWAP3 MSTORE PUSH1 0x6 DUP1 SLOAD PUSH1 0x1 DUP2 ADD DUP3 SSTORE PUSH0 SWAP2 SWAP1 SWAP2 MSTORE DUP2 MLOAD PUSH1 0x3 SWAP1 SWAP2 MUL PUSH32 0xF652222313E28459528D920B65115C16C04F3EFC82AAEDC97BE59F3F377C0D3F DUP2 ADD SWAP2 DUP3 SSTORE SWAP3 MLOAD SWAP2 SWAP3 SWAP1 SWAP2 PUSH32 0xF652222313E28459528D920B65115C16C04F3EFC82AAEDC97BE59F3F377C0D40 SWAP1 SWAP2 ADD SWAP1 PUSH2 0x22E SWAP1 DUP3 PUSH2 0xBF6 JUMP JUMPDEST POP PUSH1 0x40 SWAP2 DUP3 ADD MLOAD PUSH1 0x2 SWAP2 SWAP1 SWAP2 ADD DUP1 SLOAD PUSH1 0x1 PUSH1 0x1 PUSH1 0xA0 SHL SUB NOT AND PUSH1 0x1 PUSH1 0x1 PUSH1 0xA0 SHL SUB SWAP1 SWAP3 AND SWAP2 SWAP1 SWAP2 OR SWAP1 SSTORE DUP1 MLOAD CALLER DUP2 MSTORE TIMESTAMP PUSH1 0x20 DUP3 ADD MSTORE PUSH32 0x951E0CA7381A5C665EF8D64C982968EA7B66AAF3D6C667A004BC9926D2959B0 SWAP2 ADD JUMPDEST PUSH1 0x40 MLOAD DUP1 SWAP2 SUB SWAP1 LOG1 POP JUMP JUMPDEST PUSH0 PUSH2 0x2F5 CALLER PUSH1 0x4 DUP1 SLOAD DUP1 PUSH1 0x20 MUL PUSH1 0x20 ADD PUSH1 0x40 MLOAD SWAP1 DUP2 ADD PUSH1 0x40 MSTORE DUP1 SWAP3 SWAP2 SWAP1 DUP2 DUP2 MSTORE PUSH1 0x20 ADD DUP3 DUP1 SLOAD DUP1 ISZERO PUSH2 0x2EB JUMPI PUSH1 0x20 MUL DUP3 ADD SWAP2 SWAP1 PUSH0 MSTORE PUSH1 0x20 PUSH0 KECCAK256 SWAP1 JUMPDEST DUP2 SLOAD PUSH1 0x1 PUSH1 0x1 PUSH1 0xA0 SHL SUB AND DUP2 MSTORE PUSH1 0x1 SWAP1 SWAP2 ADD SWAP1 PUSH1 0x20 ADD DUP1 DUP4 GT PUSH2 0x2CD JUMPI JUMPDEST POP POP POP POP POP PUSH2 0x811 JUMP JUMPDEST PUSH0 NOT EQ ISZERO SWAP1 POP SWAP1 JUMP JUMPDEST PUSH1 0x2 SLOAD PUSH1 0x1 PUSH1 0x1 PUSH1 0xA0 SHL SUB AND CALLER EQ DUP1 PUSH2 0x321 JUMPI POP PUSH1 0x3 SLOAD PUSH1 0x1 PUSH1 0x1 PUSH1 0xA0 SHL SUB AND CALLER EQ JUMPDEST PUSH2 0x33D JUMPI PUSH1 0x40 MLOAD PUSH3 0x461BCD PUSH1 0xE5 SHL DUP2 MSTORE PUSH1 0x4 ADD PUSH2 0x198 SWAP1 PUSH2 0xB55 JUMP JUMPDEST PUSH1 0x2 SLOAD PUSH1 0x1 PUSH1 0x1 PUSH1 0xA0 SHL SUB DUP3 DUP2 AND SWAP2 AND EQ DUP1 ISZERO SWAP1 PUSH2 0x363 JUMPI POP PUSH1 0x1 PUSH1 0x1 PUSH1 0xA0 SHL SUB DUP2 AND ISZERO ISZERO JUMPDEST DUP1 ISZERO PUSH2 0x3CE JUMPI POP PUSH2 0x3CA DUP2 PUSH1 0x4 DUP1 SLOAD DUP1 PUSH1 0x20 MUL PUSH1 0x20 ADD PUSH1 0x40 MLOAD SWAP1 DUP2 ADD PUSH1 0x40 MSTORE DUP1 SWAP3 SWAP2 SWAP1 DUP2 DUP2 MSTORE PUSH1 0x20 ADD DUP3 DUP1 SLOAD DUP1 ISZERO PUSH2 0x2EB JUMPI PUSH1 0x20 MUL DUP3 ADD SWAP2 SWAP1 PUSH0 MSTORE PUSH1 0x20 PUSH0 KECCAK256 SWAP1 DUP2 SLOAD PUSH1 0x1 PUSH1 0x1 PUSH1 0xA0 SHL SUB AND DUP2 MSTORE PUSH1 0x1 SWAP1 SWAP2 ADD SWAP1 PUSH1 0x20 ADD DUP1 DUP4 GT PUSH2 0x2CD JUMPI POP POP POP POP POP PUSH2 0x811 JUMP JUMPDEST PUSH0 NOT EQ JUMPDEST PUSH2 0x3EA JUMPI PUSH1 0x40 MLOAD PUSH3 0x461BCD PUSH1 0xE5 SHL DUP2 MSTORE PUSH1 0x4 ADD PUSH2 0x198 SWAP1 PUSH2 0xB55 JUMP JUMPDEST PUSH1 0x4 DUP1 SLOAD PUSH1 0x1 DUP2 ADD DUP3 SSTORE PUSH0 SWAP2 SWAP1 SWAP2 MSTORE PUSH32 0x8A35ACFBC15FF81A39AE7D344FD709F28E8600B4AA8C65C6B64BFE7FE36BD19B ADD DUP1 SLOAD PUSH1 0x1 PUSH1 0x1 PUSH1 0xA0 SHL SUB NOT AND PUSH1 0x1 PUSH1 0x1 PUSH1 0xA0 SHL SUB SWAP3 SWAP1 SWAP3 AND SWAP2 SWAP1 SWAP2 OR SWAP1 SSTORE JUMP JUMPDEST PUSH1 0x2 SLOAD PUSH1 0x60 SWAP1 PUSH1 0x1 PUSH1 0x1 PUSH1 0xA0 SHL SUB AND CALLER EQ DUP1 PUSH2 0x461 JUMPI POP PUSH1 0x5 SLOAD PUSH1 0x1 PUSH1 0x1 PUSH1 0xA0 SHL SUB AND CALLER EQ JUMPDEST PUSH2 0x47D JUMPI PUSH1 0x40 MLOAD PUSH3 0x461BCD PUSH1 0xE5 SHL DUP2 MSTORE PUSH1 0x4 ADD PUSH2 0x198 SWAP1 PUSH2 0xB55 JUMP JUMPDEST PUSH1 0x6 DUP1 SLOAD DUP1 PUSH1 0x20 MUL PUSH1 0x20 ADD PUSH1 0x40 MLOAD SWAP1 DUP2 ADD PUSH1 0x40 MSTORE DUP1 SWAP3 SWAP2 SWAP1 DUP2 DUP2 MSTORE PUSH1 0x20 ADD PUSH0 SWAP1 JUMPDEST DUP3 DUP3 LT ISZERO PUSH2 0x57D JUMPI DUP4 DUP3 SWAP1 PUSH0 MSTORE PUSH1 0x20 PUSH0 KECCAK256 SWAP1 PUSH1 0x3 MUL ADD PUSH1 0x40 MLOAD DUP1 PUSH1 0x60 ADD PUSH1 0x40 MSTORE SWAP1 DUP2 PUSH0 DUP3 ADD SLOAD DUP2 MSTORE PUSH1 0x20 ADD PUSH1 0x1 DUP3 ADD DUP1 SLOAD PUSH2 0x4D8 SWAP1 PUSH2 0xB72 JUMP JUMPDEST DUP1 PUSH1 0x1F ADD PUSH1 0x20 DUP1 SWAP2 DIV MUL PUSH1 0x20 ADD PUSH1 0x40 MLOAD SWAP1 DUP2 ADD PUSH1 0x40 MSTORE DUP1 SWAP3 SWAP2 SWAP1 DUP2 DUP2 MSTORE PUSH1 0x20 ADD DUP3 DUP1 SLOAD PUSH2 0x504 SWAP1 PUSH2 0xB72 JUMP JUMPDEST DUP1 ISZERO PUSH2 0x54F JUMPI DUP1 PUSH1 0x1F LT PUSH2 0x526 JUMPI PUSH2 0x100 DUP1 DUP4 SLOAD DIV MUL DUP4 MSTORE SWAP2 PUSH1 0x20 ADD SWAP2 PUSH2 0x54F JUMP JUMPDEST DUP3 ADD SWAP2 SWAP1 PUSH0 MSTORE PUSH1 0x20 PUSH0 KECCAK256 SWAP1 JUMPDEST DUP2 SLOAD DUP2 MSTORE SWAP1 PUSH1 0x1 ADD SWAP1 PUSH1 0x20 ADD DUP1 DUP4 GT PUSH2 0x532 JUMPI DUP3 SWAP1 SUB PUSH1 0x1F AND DUP3 ADD SWAP2 JUMPDEST POP POP POP SWAP2 DUP4 MSTORE POP POP PUSH1 0x2 SWAP2 SWAP1 SWAP2 ADD SLOAD PUSH1 0x1 PUSH1 0x1 PUSH1 0xA0 SHL SUB AND PUSH1 0x20 SWAP2 DUP3 ADD MSTORE SWAP1 DUP3 MSTORE PUSH1 0x1 SWAP3 SWAP1 SWAP3 ADD SWAP2 ADD PUSH2 0x49E JUMP JUMPDEST POP POP POP POP SWAP1 POP SWAP1 JUMP JUMPDEST PUSH1 0x2 SLOAD PUSH0 SWAP1 PUSH1 0x1 PUSH1 0x1 PUSH1 0xA0 SHL SUB AND CALLER EQ DUP1 PUSH2 0x5AB JUMPI POP PUSH1 0x3 SLOAD PUSH1 0x1 PUSH1 0x1 PUSH1 0xA0 SHL SUB AND CALLER EQ JUMPDEST PUSH2 0x5C7 JUMPI PUSH1 0x40 MLOAD PUSH3 0x461BCD PUSH1 0xE5 SHL DUP2 MSTORE PUSH1 0x4 ADD PUSH2 0x198 SWAP1 PUSH2 0xB55 JUMP JUMPDEST POP PUSH1 0x3 SLOAD PUSH1 0x1 PUSH1 0x1 PUSH1 0xA0 SHL SUB AND SWAP1 JUMP JUMPDEST PUSH1 0x2 SLOAD PUSH1 0x60 SWAP1 PUSH1 0x1 PUSH1 0x1 PUSH1 0xA0 SHL SUB AND CALLER EQ DUP1 PUSH2 0x5FD JUMPI POP PUSH1 0x3 SLOAD PUSH1 0x1 PUSH1 0x1 PUSH1 0xA0 SHL SUB AND CALLER EQ JUMPDEST PUSH2 0x619 JUMPI PUSH1 0x40 MLOAD PUSH3 0x461BCD PUSH1 0xE5 SHL DUP2 MSTORE PUSH1 0x4 ADD PUSH2 0x198 SWAP1 PUSH2 0xB55 JUMP JUMPDEST PUSH1 0x4 DUP1 SLOAD DUP1 PUSH1 0x20 MUL PUSH1 0x20 ADD PUSH1 0x40 MLOAD SWAP1 DUP2 ADD PUSH1 0x40 MSTORE DUP1 SWAP3 SWAP2 SWAP1 DUP2 DUP2 MSTORE PUSH1 0x20 ADD DUP3 DUP1 SLOAD DUP1 ISZERO PUSH2 0x66D JUMPI PUSH1 0x20 MUL DUP3 ADD SWAP2 SWAP1 PUSH0 MSTORE PUSH1 0x20 PUSH0 KECCAK256 SWAP1 JUMPDEST DUP2 SLOAD PUSH1 0x1 PUSH1 0x1 PUSH1 0xA0 SHL SUB AND DUP2 MSTORE PUSH1 0x1 SWAP1 SWAP2 ADD SWAP1 PUSH1 0x20 ADD DUP1 DUP4 GT PUSH2 0x64F JUMPI JUMPDEST POP POP POP POP POP SWAP1 POP SWAP1 JUMP JUMPDEST PUSH1 0x2 SLOAD PUSH0 SWAP1 PUSH1 0x1 PUSH1 0x1 PUSH1 0xA0 SHL SUB AND CALLER EQ DUP1 PUSH2 0x69C JUMPI POP PUSH1 0x3 SLOAD PUSH1 0x1 PUSH1 0x1 PUSH1 0xA0 SHL SUB AND CALLER EQ JUMPDEST SWAP1 POP SWAP1 JUMP JUMPDEST PUSH1 0x2 SLOAD PUSH1 0x1 PUSH1 0x1 PUSH1 0xA0 SHL SUB AND CALLER EQ DUP1 PUSH2 0x6C4 JUMPI POP PUSH1 0x3 SLOAD PUSH1 0x1 PUSH1 0x1 PUSH1 0xA0 SHL SUB AND CALLER EQ JUMPDEST PUSH2 0x6E0 JUMPI PUSH1 0x40 MLOAD PUSH3 0x461BCD PUSH1 0xE5 SHL DUP2 MSTORE PUSH1 0x4 ADD PUSH2 0x198 SWAP1 PUSH2 0xB55 JUMP JUMPDEST PUSH0 PUSH2 0x6EB DUP3 DUP3 PUSH2 0xBF6 JUMP JUMPDEST POP PUSH32 0xE00DA2178806F37F69815E9ED5ED3072EC1D55206D60916D99B469C7DAA421E4 CALLER PUSH1 0x40 MLOAD PUSH2 0x287 SWAP2 SWAP1 PUSH2 0xAF6 JUMP JUMPDEST PUSH1 0x1 PUSH1 0x1 PUSH1 0xA0 SHL SUB DUP2 AND ISZERO ISZERO DUP1 PUSH2 0x763 JUMPI POP PUSH1 0x3 SLOAD PUSH1 0x1 PUSH1 0x1 PUSH1 0xA0 SHL SUB AND CALLER EQ DUP1 PUSH2 0x750 JUMPI POP PUSH1 0x2 SLOAD PUSH1 0x1 PUSH1 0x1 PUSH1 0xA0 SHL SUB AND CALLER EQ JUMPDEST DUP1 PUSH2 0x763 JUMPI POP CALLER PUSH1 0x1 PUSH1 0x1 PUSH1 0xA0 SHL SUB DUP3 AND EQ JUMPDEST PUSH2 0x77F JUMPI PUSH1 0x40 MLOAD PUSH3 0x461BCD PUSH1 0xE5 SHL DUP2 MSTORE PUSH1 0x4 ADD PUSH2 0x198 SWAP1 PUSH2 0xB55 JUMP JUMPDEST PUSH0 PUSH2 0x7E0 DUP3 PUSH1 0x4 DUP1 SLOAD DUP1 PUSH1 0x20 MUL PUSH1 0x20 ADD PUSH1 0x40 MLOAD SWAP1 DUP2 ADD PUSH1 0x40 MSTORE DUP1 SWAP3 SWAP2 SWAP1 DUP2 DUP2 MSTORE PUSH1 0x20 ADD DUP3 DUP1 SLOAD DUP1 ISZERO PUSH2 0x2EB JUMPI PUSH1 0x20 MUL DUP3 ADD SWAP2 SWAP1 PUSH0 MSTORE PUSH1 0x20 PUSH0 KECCAK256 SWAP1 DUP2 SLOAD PUSH1 0x1 PUSH1 0x1 PUSH1 0xA0 SHL SUB AND DUP2 MSTORE PUSH1 0x1 SWAP1 SWAP2 ADD SWAP1 PUSH1 0x20 ADD DUP1 DUP4 GT PUSH2 0x2CD JUMPI POP POP POP POP POP PUSH2 0x811 JUMP JUMPDEST SWAP1 POP PUSH0 NOT DUP2 SGT PUSH2 0x802 JUMPI PUSH1 0x40 MLOAD PUSH3 0x461BCD PUSH1 0xE5 SHL DUP2 MSTORE PUSH1 0x4 ADD PUSH2 0x198 SWAP1 PUSH2 0xCB0 JUMP JUMPDEST PUSH2 0x80D DUP2 PUSH1 0x4 PUSH2 0x86A JUMP JUMPDEST POP POP JUMP JUMPDEST PUSH0 DUP1 JUMPDEST DUP3 MLOAD DUP2 LT ISZERO PUSH2 0x85E JUMPI DUP4 PUSH1 0x1 PUSH1 0x1 PUSH1 0xA0 SHL SUB AND DUP4 DUP3 DUP2 MLOAD DUP2 LT PUSH2 0x839 JUMPI PUSH2 0x839 PUSH2 0xCCD JUMP JUMPDEST PUSH1 0x20 MUL PUSH1 0x20 ADD ADD MLOAD PUSH1 0x1 PUSH1 0x1 PUSH1 0xA0 SHL SUB AND SUB PUSH2 0x856 JUMPI SWAP1 POP PUSH2 0x864 JUMP JUMPDEST PUSH1 0x1 ADD PUSH2 0x814 JUMP JUMPDEST POP PUSH0 NOT SWAP1 POP JUMPDEST SWAP3 SWAP2 POP POP JUMP JUMPDEST PUSH0 DUP3 SLT ISZERO DUP1 ISZERO PUSH2 0x87A JUMPI POP DUP1 SLOAD DUP3 LT JUMPDEST PUSH2 0x896 JUMPI PUSH1 0x40 MLOAD PUSH3 0x461BCD PUSH1 0xE5 SHL DUP2 MSTORE PUSH1 0x4 ADD PUSH2 0x198 SWAP1 PUSH2 0xCB0 JUMP JUMPDEST DUP2 JUMPDEST DUP2 SLOAD PUSH2 0x8A6 SWAP1 PUSH1 0x1 SWAP1 PUSH2 0xCF5 JUMP JUMPDEST DUP2 LT ISZERO PUSH2 0x926 JUMPI DUP2 PUSH2 0x8B9 DUP3 PUSH1 0x1 PUSH2 0xD08 JUMP JUMPDEST DUP2 SLOAD DUP2 LT PUSH2 0x8C9 JUMPI PUSH2 0x8C9 PUSH2 0xCCD JUMP JUMPDEST SWAP1 PUSH0 MSTORE PUSH1 0x20 PUSH0 KECCAK256 ADD PUSH0 SWAP1 SLOAD SWAP1 PUSH2 0x100 EXP SWAP1 DIV PUSH1 0x1 PUSH1 0x1 PUSH1 0xA0 SHL SUB AND DUP3 DUP3 DUP2 SLOAD DUP2 LT PUSH2 0x8F6 JUMPI PUSH2 0x8F6 PUSH2 0xCCD JUMP JUMPDEST PUSH0 SWAP2 DUP3 MSTORE PUSH1 0x20 SWAP1 SWAP2 KECCAK256 ADD DUP1 SLOAD PUSH1 0x1 PUSH1 0x1 PUSH1 0xA0 SHL SUB NOT AND PUSH1 0x1 PUSH1 0x1 PUSH1 0xA0 SHL SUB SWAP3 SWAP1 SWAP3 AND SWAP2 SWAP1 SWAP2 OR SWAP1 SSTORE PUSH1 0x1 ADD PUSH2 0x898 JUMP JUMPDEST POP DUP1 DUP1 SLOAD DUP1 PUSH2 0x937 JUMPI PUSH2 0x937 PUSH2 0xD1B JUMP JUMPDEST PUSH0 DUP3 DUP2 MSTORE PUSH1 0x20 SWAP1 KECCAK256 DUP2 ADD PUSH0 NOT SWAP1 DUP2 ADD DUP1 SLOAD PUSH1 0x1 PUSH1 0x1 PUSH1 0xA0 SHL SUB NOT AND SWAP1 SSTORE ADD SWAP1 SSTORE POP POP JUMP JUMPDEST PUSH4 0x4E487B71 PUSH1 0xE0 SHL PUSH0 MSTORE PUSH1 0x41 PUSH1 0x4 MSTORE PUSH1 0x24 PUSH0 REVERT JUMPDEST PUSH0 PUSH1 0x20 DUP3 DUP5 SUB SLT ISZERO PUSH2 0x97F JUMPI PUSH0 DUP1 REVERT JUMPDEST DUP2 CALLDATALOAD PUSH1 0x1 PUSH1 0x1 PUSH1 0x40 SHL SUB DUP2 GT ISZERO PUSH2 0x994 JUMPI PUSH0 DUP1 REVERT JUMPDEST DUP3 ADD PUSH1 0x1F DUP2 ADD DUP5 SGT PUSH2 0x9A4 JUMPI PUSH0 DUP1 REVERT JUMPDEST DUP1 CALLDATALOAD PUSH1 0x1 PUSH1 0x1 PUSH1 0x40 SHL SUB DUP2 GT ISZERO PUSH2 0x9BD JUMPI PUSH2 0x9BD PUSH2 0x95B JUMP JUMPDEST PUSH1 0x40 MLOAD PUSH1 0x1F DUP3 ADD PUSH1 0x1F NOT SWAP1 DUP2 AND PUSH1 0x3F ADD AND DUP2 ADD PUSH1 0x1 PUSH1 0x1 PUSH1 0x40 SHL SUB DUP2 GT DUP3 DUP3 LT OR ISZERO PUSH2 0x9EB JUMPI PUSH2 0x9EB PUSH2 0x95B JUMP JUMPDEST PUSH1 0x40 MSTORE DUP2 DUP2 MSTORE DUP3 DUP3 ADD PUSH1 0x20 ADD DUP7 LT ISZERO PUSH2 0xA02 JUMPI PUSH0 DUP1 REVERT JUMPDEST DUP2 PUSH1 0x20 DUP5 ADD PUSH1 0x20 DUP4 ADD CALLDATACOPY PUSH0 SWAP2 DUP2 ADD PUSH1 0x20 ADD SWAP2 SWAP1 SWAP2 MSTORE SWAP5 SWAP4 POP POP POP POP JUMP JUMPDEST PUSH0 PUSH1 0x20 DUP3 DUP5 SUB SLT ISZERO PUSH2 0xA2F JUMPI PUSH0 DUP1 REVERT JUMPDEST DUP2 CALLDATALOAD PUSH1 0x1 PUSH1 0x1 PUSH1 0xA0 SHL SUB DUP2 AND DUP2 EQ PUSH2 0xA45 JUMPI PUSH0 DUP1 REVERT JUMPDEST SWAP4 SWAP3 POP POP POP JUMP JUMPDEST PUSH0 PUSH1 0x20 DUP3 ADD PUSH1 0x20 DUP4 MSTORE DUP1 DUP5 MLOAD DUP1 DUP4 MSTORE PUSH1 0x40 DUP6 ADD SWAP2 POP PUSH1 0x40 DUP2 PUSH1 0x5 SHL DUP7 ADD ADD SWAP3 POP PUSH1 0x20 DUP7 ADD PUSH0 JUMPDEST DUP3 DUP2 LT ISZERO PUSH2 0xAEA JUMPI PUSH1 0x3F NOT DUP8 DUP7 SUB ADD DUP5 MSTORE DUP2 MLOAD DUP1 MLOAD DUP7 MSTORE PUSH1 0x20 DUP2 ADD MLOAD PUSH1 0x60 PUSH1 0x20 DUP9 ADD MSTORE DUP1 MLOAD DUP1 PUSH1 0x60 DUP10 ADD MSTORE DUP1 PUSH1 0x20 DUP4 ADD PUSH1 0x80 DUP11 ADD MCOPY PUSH0 DUP9 DUP3 ADD PUSH1 0x80 SWAP1 DUP2 ADD SWAP2 SWAP1 SWAP2 MSTORE PUSH1 0x40 SWAP4 DUP5 ADD MLOAD PUSH1 0x1 PUSH1 0x1 PUSH1 0xA0 SHL SUB AND SWAP4 DUP10 ADD SWAP4 SWAP1 SWAP4 MSTORE PUSH1 0x1F ADD PUSH1 0x1F NOT AND SWAP1 SWAP7 ADD ADD SWAP5 POP PUSH1 0x20 SWAP4 DUP5 ADD SWAP4 SWAP2 SWAP1 SWAP2 ADD SWAP1 PUSH1 0x1 ADD PUSH2 0xA72 JUMP JUMPDEST POP SWAP3 SWAP7 SWAP6 POP POP POP POP POP POP JUMP JUMPDEST PUSH1 0x1 PUSH1 0x1 PUSH1 0xA0 SHL SUB SWAP2 SWAP1 SWAP2 AND DUP2 MSTORE PUSH1 0x20 ADD SWAP1 JUMP JUMPDEST PUSH1 0x20 DUP1 DUP3 MSTORE DUP3 MLOAD DUP3 DUP3 ADD DUP2 SWAP1 MSTORE PUSH0 SWAP2 DUP5 ADD SWAP1 PUSH1 0x40 DUP5 ADD SWAP1 DUP4 JUMPDEST DUP2 DUP2 LT ISZERO PUSH2 0xB4A JUMPI DUP4 MLOAD PUSH1 0x1 PUSH1 0x1 PUSH1 0xA0 SHL SUB AND DUP4 MSTORE PUSH1 0x20 SWAP4 DUP5 ADD SWAP4 SWAP1 SWAP3 ADD SWAP2 PUSH1 0x1 ADD PUSH2 0xB23 JUMP JUMPDEST POP SWAP1 SWAP6 SWAP5 POP POP POP POP POP JUMP JUMPDEST PUSH1 0x20 DUP1 DUP3 MSTORE PUSH1 0x3 SWAP1 DUP3 ADD MSTORE PUSH3 0x343033 PUSH1 0xE8 SHL PUSH1 0x40 DUP3 ADD MSTORE PUSH1 0x60 ADD SWAP1 JUMP JUMPDEST PUSH1 0x1 DUP2 DUP2 SHR SWAP1 DUP3 AND DUP1 PUSH2 0xB86 JUMPI PUSH1 0x7F DUP3 AND SWAP2 POP JUMPDEST PUSH1 0x20 DUP3 LT DUP2 SUB PUSH2 0xBA4 JUMPI PUSH4 0x4E487B71 PUSH1 0xE0 SHL PUSH0 MSTORE PUSH1 0x22 PUSH1 0x4 MSTORE PUSH1 0x24 PUSH0 REVERT JUMPDEST POP SWAP2 SWAP1 POP JUMP JUMPDEST PUSH1 0x1F DUP3 GT ISZERO PUSH2 0xBF1 JUMPI DUP1 PUSH0 MSTORE PUSH1 0x20 PUSH0 KECCAK256 PUSH1 0x1F DUP5 ADD PUSH1 0x5 SHR DUP2 ADD PUSH1 0x20 DUP6 LT ISZERO PUSH2 0xBCF JUMPI POP DUP1 JUMPDEST PUSH1 0x1F DUP5 ADD PUSH1 0x5 SHR DUP3 ADD SWAP2 POP JUMPDEST DUP2 DUP2 LT ISZERO PUSH2 0xBEE JUMPI PUSH0 DUP2 SSTORE PUSH1 0x1 ADD PUSH2 0xBDB JUMP JUMPDEST POP POP JUMPDEST POP POP POP JUMP JUMPDEST DUP2 MLOAD PUSH1 0x1 PUSH1 0x1 PUSH1 0x40 SHL SUB DUP2 GT ISZERO PUSH2 0xC0F JUMPI PUSH2 0xC0F PUSH2 0x95B JUMP JUMPDEST PUSH2 0xC23 DUP2 PUSH2 0xC1D DUP5 SLOAD PUSH2 0xB72 JUMP JUMPDEST DUP5 PUSH2 0xBAA JUMP JUMPDEST PUSH1 0x20 PUSH1 0x1F DUP3 GT PUSH1 0x1 DUP2 EQ PUSH2 0xC55 JUMPI PUSH0 DUP4 ISZERO PUSH2 0xC3E JUMPI POP DUP5 DUP3 ADD MLOAD JUMPDEST PUSH0 NOT PUSH1 0x3 DUP6 SWAP1 SHL SHR NOT AND PUSH1 0x1 DUP5 SWAP1 SHL OR DUP5 SSTORE PUSH2 0xBEE JUMP JUMPDEST PUSH0 DUP5 DUP2 MSTORE PUSH1 0x20 DUP2 KECCAK256 PUSH1 0x1F NOT DUP6 AND SWAP2 JUMPDEST DUP3 DUP2 LT ISZERO PUSH2 0xC84 JUMPI DUP8 DUP6 ADD MLOAD DUP3 SSTORE PUSH1 0x20 SWAP5 DUP6 ADD SWAP5 PUSH1 0x1 SWAP1 SWAP3 ADD SWAP2 ADD PUSH2 0xC64 JUMP JUMPDEST POP DUP5 DUP3 LT ISZERO PUSH2 0xCA1 JUMPI DUP7 DUP5 ADD MLOAD PUSH0 NOT PUSH1 0x3 DUP8 SWAP1 SHL PUSH1 0xF8 AND SHR NOT AND DUP2 SSTORE JUMPDEST POP POP POP POP PUSH1 0x1 SWAP1 DUP2 SHL ADD SWAP1 SSTORE POP JUMP JUMPDEST PUSH1 0x20 DUP1 DUP3 MSTORE PUSH1 0x3 SWAP1 DUP3 ADD MSTORE PUSH3 0xD0C0D PUSH1 0xEA SHL PUSH1 0x40 DUP3 ADD MSTORE PUSH1 0x60 ADD SWAP1 JUMP JUMPDEST PUSH4 0x4E487B71 PUSH1 0xE0 SHL PUSH0 MSTORE PUSH1 0x32 PUSH1 0x4 MSTORE PUSH1 0x24 PUSH0 REVERT JUMPDEST PUSH4 0x4E487B71 PUSH1 0xE0 SHL PUSH0 MSTORE PUSH1 0x11 PUSH1 0x4 MSTORE PUSH1 0x24 PUSH0 REVERT JUMPDEST DUP2 DUP2 SUB DUP2 DUP2 GT ISZERO PUSH2 0x864 JUMPI PUSH2 0x864 PUSH2 0xCE1 JUMP JUMPDEST DUP1 DUP3 ADD DUP1 DUP3 GT ISZERO PUSH2 0x864 JUMPI PUSH2 0x864 PUSH2 0xCE1 JUMP JUMPDEST PUSH4 0x4E487B71 PUSH1 0xE0 SHL PUSH0 MSTORE PUSH1 0x31 PUSH1 0x4 MSTORE PUSH1 0x24 PUSH0 REVERT INVALID LOG2 PUSH5 0x6970667358 0x22 SLT KECCAK256 OR LOG2 SHL 0xDD 0xB7 PUSH17 0x7D8BDFFE840F19C21C92FB24D0327E3289 LT SWAP4 0x4C 0xD5 0x4D 0xEB LOG1 0xD1 BYTE PUSH5 0x736F6C6343 STOP ADDMOD BYTE STOP CALLER LOG2 PUSH5 0x6970667358 0x22 SLT KECCAK256 0xE7 0xD DUP10 SWAP9 PUSH19 0x5E88346B2FAE2D3B62D291C4ED1AF5156039A9 LOG1 DUP4 PUSH0 DUP16 MULMOD 0xF 0xD9 DUP3 PUSH5 0x736F6C6343 STOP ADDMOD BYTE STOP CALLER "
		},
		"gasEstimates": {
			"creation": {
				"codeDepositCost": "5685200",
				"executionCost": "infinite",
				"totalCost": "infinite"
			},
			"external": {
				"": "358",
				"addSharedItem(uint256,address)": "infinite",
				"createChat(string,address)": "infinite",
				"createDebitCard(string,string,string,uint16,uint16)": "infinite",
				"createLoyalityCard(string,string)": "infinite",
				"createPassword(string,string,string,string)": "infinite",
				"createTimeCapsule(string,string,uint256)": "infinite",
				"deleteItem(uint256,address)": "infinite",
				"deposit()": "337",
				"getBalance()": "4542",
				"getItem(uint256)": "infinite",
				"getSharedItems(uint256)": "infinite",
				"removeShareditem(uint256,address)": "infinite",
				"sendTo(address,uint256)": "infinite",
				"withdraw(uint256)": "infinite"
			}
		},
		"methodIdentifiers": {
			"addSharedItem(uint256,address)": "d5747b32",
			"createChat(string,address)": "9f91786f",
			"createDebitCard(string,string,string,uint16,uint16)": "14deffc1",
			"createLoyalityCard(string,string)": "3046e41b",
			"createPassword(string,string,string,string)": "97d27cd5",
			"createTimeCapsule(string,string,uint256)": "7e71790e",
			"deleteItem(uint256,address)": "ca79ec2c",
			"deposit()": "d0e30db0",
			"getBalance()": "12065fe0",
			"getItem(uint256)": "3129e773",
			"getSharedItems(uint256)": "597f5611",
			"removeShareditem(uint256,address)": "bfb24897",
			"sendTo(address,uint256)": "9e1a00aa",
			"withdraw(uint256)": "2e1a7d4d"
		}
	},
	"abi": [
		{
			"inputs": [
				{
					"internalType": "address payable",
					"name": "_owner",
					"type": "address"
				},
				{
					"internalType": "address",
					"name": "_manager",
					"type": "address"
				}
			],
			"stateMutability": "nonpayable",
			"type": "constructor"
		},
		{
			"stateMutability": "payable",
			"type": "fallback"
		},
		{
			"inputs": [
				{
					"internalType": "uint256",
					"name": "_t",
					"type": "uint256"
				},
				{
					"internalType": "address",
					"name": "_a",
					"type": "address"
				}
			],
			"name": "addSharedItem",
			"outputs": [],
			"stateMutability": "nonpayable",
			"type": "function"
		},
		{
			"inputs": [
				{
					"internalType": "string",
					"name": "_n",
					"type": "string"
				},
				{
					"internalType": "address",
					"name": "_g",
					"type": "address"
				}
			],
			"name": "createChat",
			"outputs": [],
			"stateMutability": "nonpayable",
			"type": "function"
		},
		{
			"inputs": [
				{
					"internalType": "string",
					"name": "_n",
					"type": "string"
				},
				{
					"internalType": "string",
					"name": "_crd_id",
					"type": "string"
				},
				{
					"internalType": "string",
					"name": "_noc",
					"type": "string"
				},
				{
					"internalType": "uint16",
					"name": "_e_at",
					"type": "uint16"
				},
				{
					"internalType": "uint16",
					"name": "_cvv",
					"type": "uint16"
				}
			],
			"name": "createDebitCard",
			"outputs": [],
			"stateMutability": "nonpayable",
			"type": "function"
		},
		{
			"inputs": [
				{
					"internalType": "string",
					"name": "_n",
					"type": "string"
				},
				{
					"internalType": "string",
					"name": "_crd_id",
					"type": "string"
				}
			],
			"name": "createLoyalityCard",
			"outputs": [],
			"stateMutability": "nonpayable",
			"type": "function"
		},
		{
			"inputs": [
				{
					"internalType": "string",
					"name": "_n",
					"type": "string"
				},
				{
					"internalType": "string",
					"name": "_u",
					"type": "string"
				},
				{
					"internalType": "string",
					"name": "_un",
					"type": "string"
				},
				{
					"internalType": "string",
					"name": "_p",
					"type": "string"
				}
			],
			"name": "createPassword",
			"outputs": [],
			"stateMutability": "nonpayable",
			"type": "function"
		},
		{
			"inputs": [
				{
					"internalType": "string",
					"name": "_n",
					"type": "string"
				},
				{
					"internalType": "string",
					"name": "_te",
					"type": "string"
				},
				{
					"internalType": "uint256",
					"name": "_t",
					"type": "uint256"
				}
			],
			"name": "createTimeCapsule",
			"outputs": [],
			"stateMutability": "nonpayable",
			"type": "function"
		},
		{
			"inputs": [
				{
					"internalType": "uint256",
					"name": "_t",
					"type": "uint256"
				},
				{
					"internalType": "address",
					"name": "_a",
					"type": "address"
				}
			],
			"name": "deleteItem",
			"outputs": [],
			"stateMutability": "nonpayable",
			"type": "function"
		},
		{
			"inputs": [],
			"name": "deposit",
			"outputs": [],
			"stateMutability": "payable",
			"type": "function"
		},
		{
			"inputs": [],
			"name": "getBalance",
			"outputs": [
				{
					"internalType": "uint256",
					"name": "",
					"type": "uint256"
				}
			],
			"stateMutability": "view",
			"type": "function"
		},
		{
			"inputs": [
				{
					"internalType": "uint256",
					"name": "_t",
					"type": "uint256"
				}
			],
			"name": "getItem",
			"outputs": [
				{
					"internalType": "address[]",
					"name": "",
					"type": "address[]"
				}
			],
			"stateMutability": "view",
			"type": "function"
		},
		{
			"inputs": [
				{
					"internalType": "uint256",
					"name": "_t",
					"type": "uint256"
				}
			],
			"name": "getSharedItems",
			"outputs": [
				{
					"internalType": "address[]",
					"name": "",
					"type": "address[]"
				}
			],
			"stateMutability": "view",
			"type": "function"
		},
		{
			"inputs": [
				{
					"internalType": "uint256",
					"name": "_t",
					"type": "uint256"
				},
				{
					"internalType": "address",
					"name": "_a",
					"type": "address"
				}
			],
			"name": "removeShareditem",
			"outputs": [],
			"stateMutability": "nonpayable",
			"type": "function"
		},
		{
			"inputs": [
				{
					"internalType": "address payable",
					"name": "_to",
					"type": "address"
				},
				{
					"internalType": "uint256",
					"name": "_a",
					"type": "uint256"
				}
			],
			"name": "sendTo",
			"outputs": [],
			"stateMutability": "payable",
			"type": "function"
		},
		{
			"inputs": [
				{
					"internalType": "uint256",
					"name": "_a",
					"type": "uint256"
				}
			],
			"name": "withdraw",
			"outputs": [],
			"stateMutability": "payable",
			"type": "function"
		},
		{
			"stateMutability": "payable",
			"type": "receive"
		}
	]
}