{
	"data": {
		"bytecode": {
			"linkReferences": {},
			"object": "6080604052348015600e575f80fd5b506040516154a53803806154a5833981016040819052602b916070565b5f80546001600160a01b039384166001600160a01b0319918216179091556001805492909316911617905560a3565b6001600160a01b0381168114606d575f80fd5b50565b5f80604083850312156080575f80fd5b8251608981605a565b6020840151909250609881605a565b809150509250929050565b6153f5806100b05f395ff3fe6080604052600436106100a4575f3560e01c806378bd52021161006057806378bd520214610163578063835c69161461018f57806397d27cd5146101ae5780639e1a00aa146101cd578063c9afc5da146101e0578063d0e30db0146100ab57005b806312065fe0146100ad57806314deffc1146100d457806326e3bc4e146100f35780632e1a7d4d146101125780633046e41b1461012557806332d3deda1461014457005b366100ab57005b005b3480156100b8575f80fd5b506100c16101ff565b6040519081526020015b60405180910390f35b3480156100df575f80fd5b506100ab6100ee366004610e65565b61024c565b3480156100fe575f80fd5b506100ab61010d366004610f39565b61033e565b6100ab610120366004610f6e565b61038c565b348015610130575f80fd5b506100ab61013f366004610f85565b610492565b34801561014f575f80fd5b506100ab61015e366004610f39565b610574565b34801561016e575f80fd5b5061018261017d366004610fea565b6105be565b6040516100cb919061100a565b34801561019a575f80fd5b506100ab6101a9366004610f39565b610612565b3480156101b9575f80fd5b506100ab6101c8366004611055565b61065c565b6100ab6101db36600461110e565b610749565b3480156101eb575f80fd5b506101826101fa366004610fea565b61089b565b5f80546001600160a01b031633148061022257506001546001600160a01b031633145b6102475760405162461bcd60e51b815260040161023e90611138565b60405180910390fd5b504790565b5f546001600160a01b031633148061026e57506001546001600160a01b031633145b61028a5760405162461bcd60e51b815260040161023e90611138565b60015f9081526002602052546040517fe90b7bceb6e7df5418fb78d8ee546e97c83a08bbccc01a0644d599ccd2a7c2e091879187918791879187916001600160a01b039091169030906102dc90610d8e565b6102ec979695949392919061119e565b604051809103905ff080158015610305573d5f803e3d5ffd5b5081546001810183555f928352602090922090910180546001600160a01b0319166001600160a01b039092169190911790555050505050565b5f546001600160a01b031633148061036057506001546001600160a01b031633145b61037c5760405162461bcd60e51b815260040161023e90611138565b610388600283836108e7565b5050565b5f546001600160a01b03163314806103ae57506001546001600160a01b031633145b6103ca5760405162461bcd60e51b815260040161023e90611138565b804710156104095760405162461bcd60e51b815260206004820152600c60248201526b125b9cdd59999a58da595b9d60a21b604482015260640161023e565b5f80546040516001600160a01b039091169083908381818185875af1925050503d805f8114610453576040519150601f19603f3d011682016040523d82523d5f602084013e610458565b606091505b50509050806103885760405162461bcd60e51b815260206004820152600660248201526511985a5b195960d21b604482015260640161023e565b5f546001600160a01b03163314806104b457506001546001600160a01b031633145b6104d05760405162461bcd60e51b815260040161023e90611138565b5f8080526002602052546040517fac33ff75c19e70fe83507db0d683fd3465c996598dc972688b7ace676c89077b91849184916001600160a01b031690309061051890610d9b565b610525949392919061120b565b604051809103905ff08015801561053e573d5f803e3d5ffd5b5081546001810183555f928352602090922090910180546001600160a01b0319166001600160a01b039092169190911790555050565b5f546001600160a01b031633148061059657506001546001600160a01b031633145b6105b25760405162461bcd60e51b815260040161023e90611138565b61038882600383610a37565b5f546060906001600160a01b03163314806105e357506001546001600160a01b031633145b6105ff5760405162461bcd60e51b815260040161023e90611138565b61060a826002610ae2565b90505b919050565b5f546001600160a01b031633148061063457506001546001600160a01b031633145b6106505760405162461bcd60e51b815260040161023e90611138565b61038882600383610b76565b5f546001600160a01b031633148061067e57506001546001600160a01b031633145b61069a5760405162461bcd60e51b815260040161023e90611138565b60025f818152602091909152546040517f679795a0195a1b76cdebb7c51d74e058aee92919b8c3389af86ef24535e8a28c9186918691869186916001600160a01b03169030906106e990610da8565b6106f896959493929190611254565b604051809103905ff080158015610711573d5f803e3d5ffd5b5081546001810183555f928352602090922090910180546001600160a01b0319166001600160a01b0390921691909117905550505050565b5f546001600160a01b031633148061076b57506001546001600160a01b031633145b6107875760405162461bcd60e51b815260040161023e90611138565b6001600160a01b0382166107cf5760405162461bcd60e51b815260206004820152600f60248201526e496e76616c6964206164647265737360881b604482015260640161023e565b8047101561080e5760405162461bcd60e51b815260206004820152600c60248201526b125b9cdd59999a58da595b9d60a21b604482015260640161023e565b5f826001600160a01b0316826040515f6040518083038185875af1925050503d805f8114610857576040519150601f19603f3d011682016040523d82523d5f602084013e61085c565b606091505b50509050806108965760405162461bcd60e51b815260206004820152600660248201526511985a5b195960d21b604482015260640161023e565b505050565b5f546060906001600160a01b03163314806108c057506001546001600160a01b031633145b6108dc5760405162461bcd60e51b815260040161023e90611138565b61060a826003610ae2565b5f61097a82855f8660028111156109005761090061115c565b60028111156109115761091161115c565b81526020019081526020015f2080548060200260200160405190810160405280929190818152602001828054801561097057602002820191905f5260205f20905b81546001600160a01b03168152600190910190602001808311610952575b5050505050610c2d565b90505f19811380156109bf5750835f84600281111561099b5761099b61115c565b60028111156109ac576109ac61115c565b815260208101919091526040015f205481125b6109f65760405162461bcd60e51b815260206004820152600860248201526709cde40d2dcc8caf60c31b604482015260640161023e565b610a3181855f866002811115610a0e57610a0e61115c565b6002811115610a1f57610a1f61115c565b81526020019081526020015f20610c84565b50505050565b5f610a5082845f8760028111156109005761090061115c565b90505f1981138015610a955750825f856002811115610a7157610a7161115c565b6002811115610a8257610a8261115c565b815260208101919091526040015f205481125b610aca5760405162461bcd60e51b815260206004820152600660248201526509cde40d2c8f60d31b604482015260640161023e565b610a3181845f876002811115610a0e57610a0e61115c565b6060815f846002811115610af857610af861115c565b6002811115610b0957610b0961115c565b81526020019081526020015f20805480602002602001604051908101604052809291908181526020018280548015610b6857602002820191905f5260205f20905b81546001600160a01b03168152600190910190602001808311610b4a575b505050505090505b92915050565b610b8e81835f8660028111156109005761090061115c565b5f1914610bc55760405162461bcd60e51b8152602060048201526005602482015264115e1a5cdd60da1b604482015260640161023e565b815f846002811115610bd957610bd961115c565b6002811115610bea57610bea61115c565b81526020808201929092526040015f90812080546001810182559082529190200180546001600160a01b0319166001600160a01b03929092169190911790555050565b5f805b8251811015610c7a57836001600160a01b0316838281518110610c5557610c556112c7565b60200260200101516001600160a01b031603610c72579050610b70565b600101610c30565b505f199392505050565b5f8212158015610c945750805482105b610cc95760405162461bcd60e51b815260206004820152600660248201526509cde40d2c8f60d31b604482015260640161023e565b815b8154610cd9906001906112ef565b811015610d595781610cec826001611302565b81548110610cfc57610cfc6112c7565b905f5260205f20015f9054906101000a90046001600160a01b0316828281548110610d2957610d296112c7565b5f91825260209091200180546001600160a01b0319166001600160a01b0392909216919091179055600101610ccb565b5080805480610d6a57610d6a611315565b5f8281526020902081015f1990810180546001600160a01b03191690550190555050565b6116df8061132a83390190565b61135d80612a0983390190565b61165a80613d6683390190565b634e487b7160e01b5f52604160045260245ffd5b5f82601f830112610dd8575f80fd5b813567ffffffffffffffff811115610df257610df2610db5565b604051601f8201601f19908116603f0116810167ffffffffffffffff81118282101715610e2157610e21610db5565b604052818152838201602001851015610e38575f80fd5b816020850160208301375f918101602001919091529392505050565b803561ffff8116811461060d575f80fd5b5f805f805f60a08688031215610e79575f80fd5b853567ffffffffffffffff811115610e8f575f80fd5b610e9b88828901610dc9565b955050602086013567ffffffffffffffff811115610eb7575f80fd5b610ec388828901610dc9565b945050604086013567ffffffffffffffff811115610edf575f80fd5b610eeb88828901610dc9565b935050610efa60608701610e54565b9150610f0860808701610e54565b90509295509295909350565b80356003811061060d575f80fd5b6001600160a01b0381168114610f36575f80fd5b50565b5f8060408385031215610f4a575f80fd5b610f5383610f14565b91506020830135610f6381610f22565b809150509250929050565b5f60208284031215610f7e575f80fd5b5035919050565b5f8060408385031215610f96575f80fd5b823567ffffffffffffffff811115610fac575f80fd5b610fb885828601610dc9565b925050602083013567ffffffffffffffff811115610fd4575f80fd5b610fe085828601610dc9565b9150509250929050565b5f60208284031215610ffa575f80fd5b61100382610f14565b9392505050565b602080825282518282018190525f918401906040840190835b8181101561104a5783516001600160a01b0316835260209384019390920191600101611023565b509095945050505050565b5f805f8060808587031215611068575f80fd5b843567ffffffffffffffff81111561107e575f80fd5b61108a87828801610dc9565b945050602085013567ffffffffffffffff8111156110a6575f80fd5b6110b287828801610dc9565b935050604085013567ffffffffffffffff8111156110ce575f80fd5b6110da87828801610dc9565b925050606085013567ffffffffffffffff8111156110f6575f80fd5b61110287828801610dc9565b91505092959194509250565b5f806040838503121561111f575f80fd5b823561112a81610f22565b946020939093013593505050565b6020808252600a908201526927b7363c9037bbb732b960b11b604082015260600190565b634e487b7160e01b5f52602160045260245ffd5b5f81518084528060208401602086015e5f602082860101526020601f19601f83011685010191505092915050565b60e081525f6111b060e083018a611170565b82810360208401526111c2818a611170565b905082810360408401526111d68189611170565b61ffff9788166060850152959096166080830152506001600160a01b0392831660a0820152911660c090910152949350505050565b608081525f61121d6080830187611170565b828103602084015261122f8187611170565b6001600160a01b03958616604085015293909416606090920191909152509392505050565b60c081525f61126660c0830189611170565b82810360208401526112788189611170565b9050828103604084015261128c8188611170565b905082810360608401526112a08187611170565b6001600160a01b0395861660808501529390941660a0909201919091525095945050505050565b634e487b7160e01b5f52603260045260245ffd5b634e487b7160e01b5f52601160045260245ffd5b81810381811115610b7057610b706112db565b80820180821115610b7057610b706112db565b634e487b7160e01b5f52603160045260245ffdfe608060405234801561000f575f80fd5b506040516116df3803806116df83398101604081905261002e916101dc565b86600183835f61003e8582610330565b506001805484919060ff19168183600281111561005d5761005d6103ea565b021790555060018054610100600160a81b0319166101006001600160a01b0394851602179055600280546001600160a01b0319169190921617905550600490506100a78782610330565b5060056100b48682610330565b506006805461ffff858116620100000263ffffffff19909216908716171790556040513381527f1449abf21e49fd025f33495e77f7b1461caefdd3d4bb646424a3f445c4576a5b9060200160405180910390a1505050505050506103fe565b634e487b7160e01b5f52604160045260245ffd5b5f82601f830112610136575f80fd5b81516001600160401b0381111561014f5761014f610113565b604051601f8201601f19908116603f011681016001600160401b038111828210171561017d5761017d610113565b604052818152838201602001851015610194575f80fd5b8160208501602083015e5f918101602001919091529392505050565b805161ffff811681146101c1575f80fd5b919050565b80516001600160a01b03811681146101c1575f80fd5b5f805f805f805f60e0888a0312156101f2575f80fd5b87516001600160401b03811115610207575f80fd5b6102138a828b01610127565b60208a015190985090506001600160401b03811115610230575f80fd5b61023c8a828b01610127565b60408a015190975090506001600160401b03811115610259575f80fd5b6102658a828b01610127565b955050610274606089016101b0565b9350610282608089016101b0565b925061029060a089016101c6565b915061029e60c089016101c6565b905092959891949750929550565b600181811c908216806102c057607f821691505b6020821081036102de57634e487b7160e01b5f52602260045260245ffd5b50919050565b601f82111561032b57805f5260205f20601f840160051c810160208510156103095750805b601f840160051c820191505b81811015610328575f8155600101610315565b50505b505050565b81516001600160401b0381111561034957610349610113565b61035d8161035784546102ac565b846102e4565b6020601f82116001811461038f575f83156103785750848201515b5f19600385901b1c1916600184901b178455610328565b5f84815260208120601f198516915b828110156103be578785015182556020948501946001909201910161039e565b50848210156103db57868401515f19600387901b60f8161c191681555b50505050600190811b01905550565b634e487b7160e01b5f52602160045260245ffd5b6112d48061040b5f395ff3fe608060405234801561000f575f80fd5b50600436106100f0575f3560e01c806380f7602111610093578063c40da77011610063578063c40da770146101e1578063c47f0027146101f4578063ded92dac14610207578063efd8af9f1461021a575f80fd5b806380f760211461018b578063a95264d0146101ab578063b9daf3e2146101c0578063ba379e86146101c8575f80fd5b806340aa5c71116100ce57806340aa5c711461013a578063478e5cb31461014d5780634ba83374146101605780635da6ef8d14610178575f80fd5b80630dbef92c146100f45780631499c592146101095780632858d3c81461011c575b5f80fd5b610107610102366004610e7c565b61022d565b005b610107610117366004610eb6565b6102ab565b610124610327565b6040516101319190610ee3565b60405180910390f35b610107610148366004610f1f565b610377565b61010761015b366004610f38565b6103e9565b610168610499565b6040519015158152602001610131565b610107610186366004610eb6565b610505565b610193610668565b6040516001600160a01b039091168152602001610131565b6101b36106be565b6040516101319190610fe7565b610168610763565b6101d0610792565b604051610131959493929190611060565b6101076101ef366004610f1f565b610a2f565b610107610202366004610e7c565b610aa8565b610107610215366004610eb6565b610af7565b610107610228366004610e7c565b610c2a565b60015461010090046001600160a01b031633148061025557506002546001600160a01b031633145b61027a5760405162461bcd60e51b8152600401610271906110b9565b60405180910390fd5b60056102868282611161565b506040513381525f8051602061127f833981519152906020015b60405180910390a150565b60015461010090046001600160a01b03163314806102d357506002546001600160a01b031633145b6102ef5760405162461bcd60e51b8152600401610271906110b9565b600280546001600160a01b0319166001600160a01b0383161790556040513381525f8051602061127f833981519152906020016102a0565b6001545f9061010090046001600160a01b031633148061035157506002546001600160a01b031633145b61036d5760405162461bcd60e51b8152600401610271906110b9565b5060015460ff1690565b60015461010090046001600160a01b031633148061039f57506002546001600160a01b031633145b6103bb5760405162461bcd60e51b8152600401610271906110b9565b6006805461ffff191661ffff83161790556040513381525f8051602061127f833981519152906020016102a0565b60015461010090046001600160a01b031633148061041157506002546001600160a01b031633145b61042d5760405162461bcd60e51b8152600401610271906110b9565b5f6104388682611161565b5060046104458582611161565b5060056104528482611161565b506006805461ffff838116620100000263ffffffff19909216908516171790556040513381525f8051602061127f8339815191529060200160405180910390a15050505050565b5f6104fc3360038054806020026020016040519081016040528092919081815260200182805480156104f257602002820191905f5260205f20905b81546001600160a01b031681526001909101906020018083116104d4575b5050505050610c7a565b5f191415905090565b60015461010090046001600160a01b031633148061052d57506002546001600160a01b031633145b6105495760405162461bcd60e51b8152600401610271906110b9565b6001546001600160a01b03828116610100909204161480159061057457506001600160a01b03811615155b80156105df57506105db8160038054806020026020016040519081016040528092919081815260200182805480156104f257602002820191905f5260205f209081546001600160a01b031681526001909101906020018083116104d4575050505050610c7a565b5f19145b6106175760405162461bcd60e51b81526020600482015260096024820152682337b93134b23232b760b91b6044820152606401610271565b600380546001810182555f919091527fc2575a0e9e593c00f959f8c92f12db2869c3395a3b0502d05e2516446f71f85b0180546001600160a01b0319166001600160a01b0392909216919091179055565b6001545f9061010090046001600160a01b031633148061069257506002546001600160a01b031633145b6106ae5760405162461bcd60e51b8152600401610271906110b9565b506002546001600160a01b031690565b60015460609061010090046001600160a01b03163314806106e957506002546001600160a01b031633145b6107055760405162461bcd60e51b8152600401610271906110b9565b600380548060200260200160405190810160405280929190818152602001828054801561075957602002820191905f5260205f20905b81546001600160a01b0316815260019091019060200180831161073b575b5050505050905090565b6001545f9061010090046001600160a01b031633148061078d57506002546001600160a01b031633145b905090565b60608060605f8060018054906101000a90046001600160a01b03166001600160a01b0316336001600160a01b0316148061082c57506108273360038054806020026020016040519081016040528092919081815260200182805480156104f257602002820191905f5260205f209081546001600160a01b031681526001909101906020018083116104d4575050505050610c7a565b5f1914155b6108635760405162461bcd60e51b815260206004820152600860248201526714995cdd1c9a58dd60c21b6044820152606401610271565b6006545f8054909160049160059161ffff80821692620100009092041690859061088c906110dd565b80601f01602080910402602001604051908101604052809291908181526020018280546108b8906110dd565b80156109035780601f106108da57610100808354040283529160200191610903565b820191905f5260205f20905b8154815290600101906020018083116108e657829003601f168201915b50505050509450838054610916906110dd565b80601f0160208091040260200160405190810160405280929190818152602001828054610942906110dd565b801561098d5780601f106109645761010080835404028352916020019161098d565b820191905f5260205f20905b81548152906001019060200180831161097057829003601f168201915b505050505093508280546109a0906110dd565b80601f01602080910402602001604051908101604052809291908181526020018280546109cc906110dd565b8015610a175780601f106109ee57610100808354040283529160200191610a17565b820191905f5260205f20905b8154815290600101906020018083116109fa57829003601f168201915b50505050509250945094509450945094509091929394565b60015461010090046001600160a01b0316331480610a5757506002546001600160a01b031633145b610a735760405162461bcd60e51b8152600401610271906110b9565b6006805463ffff000019166201000061ffff8416021790556040513381525f8051602061127f833981519152906020016102a0565b60015461010090046001600160a01b0316331480610ad057506002546001600160a01b031633145b610aec5760405162461bcd60e51b8152600401610271906110b9565b5f6102868282611161565b6001600160a01b038116151580610b4457506002546001600160a01b0316331480610b31575060015461010090046001600160a01b031633145b80610b445750336001600160a01b038216145b610b7c5760405162461bcd60e51b81526020600482015260096024820152682337b93134b23232b760b91b6044820152606401610271565b5f610bdd8260038054806020026020016040519081016040528092919081815260200182805480156104f257602002820191905f5260205f209081546001600160a01b031681526001909101906020018083116104d4575050505050610c7a565b90505f198113610c1b5760405162461bcd60e51b8152602060048201526009602482015268139bdd08199bdd5b9960ba1b6044820152606401610271565b610c26816003610cd3565b5050565b60015461010090046001600160a01b0316331480610c5257506002546001600160a01b031633145b610c6e5760405162461bcd60e51b8152600401610271906110b9565b60046102868282611161565b5f805b8251811015610cc757836001600160a01b0316838281518110610ca257610ca261121c565b60200260200101516001600160a01b031603610cbf579050610ccd565b600101610c7d565b505f1990505b92915050565b5f8212158015610ce35750805482105b610d185760405162461bcd60e51b815260206004820152600660248201526509cde40d2c8f60d31b6044820152606401610271565b815b8154610d2890600190611244565b811015610da85781610d3b826001611257565b81548110610d4b57610d4b61121c565b905f5260205f20015f9054906101000a90046001600160a01b0316828281548110610d7857610d7861121c565b5f91825260209091200180546001600160a01b0319166001600160a01b0392909216919091179055600101610d1a565b5080805480610db957610db961126a565b5f8281526020902081015f1990810180546001600160a01b03191690550190555050565b634e487b7160e01b5f52604160045260245ffd5b5f82601f830112610e00575f80fd5b813567ffffffffffffffff811115610e1a57610e1a610ddd565b604051601f8201601f19908116603f0116810167ffffffffffffffff81118282101715610e4957610e49610ddd565b604052818152838201602001851015610e60575f80fd5b816020850160208301375f918101602001919091529392505050565b5f60208284031215610e8c575f80fd5b813567ffffffffffffffff811115610ea2575f80fd5b610eae84828501610df1565b949350505050565b5f60208284031215610ec6575f80fd5b81356001600160a01b0381168114610edc575f80fd5b9392505050565b6020810160038310610f0357634e487b7160e01b5f52602160045260245ffd5b91905290565b803561ffff81168114610f1a575f80fd5b919050565b5f60208284031215610f2f575f80fd5b610edc82610f09565b5f805f805f60a08688031215610f4c575f80fd5b853567ffffffffffffffff811115610f62575f80fd5b610f6e88828901610df1565b955050602086013567ffffffffffffffff811115610f8a575f80fd5b610f9688828901610df1565b945050604086013567ffffffffffffffff811115610fb2575f80fd5b610fbe88828901610df1565b935050610fcd60608701610f09565b9150610fdb60808701610f09565b90509295509295909350565b602080825282518282018190525f918401906040840190835b818110156110275783516001600160a01b0316835260209384019390920191600101611000565b509095945050505050565b5f81518084528060208401602086015e5f602082860101526020601f19601f83011685010191505092915050565b60a081525f61107260a0830188611032565b82810360208401526110848188611032565b905082810360408401526110988187611032565b91505061ffff8416606083015261ffff831660808301529695505050505050565b6020808252600a908201526927b7363c9037bbb732b960b11b604082015260600190565b600181811c908216806110f157607f821691505b60208210810361110f57634e487b7160e01b5f52602260045260245ffd5b50919050565b601f82111561115c57805f5260205f20601f840160051c8101602085101561113a5750805b601f840160051c820191505b81811015611159575f8155600101611146565b50505b505050565b815167ffffffffffffffff81111561117b5761117b610ddd565b61118f8161118984546110dd565b84611115565b6020601f8211600181146111c1575f83156111aa5750848201515b5f19600385901b1c1916600184901b178455611159565b5f84815260208120601f198516915b828110156111f057878501518255602094850194600190920191016111d0565b508482101561120d57868401515f19600387901b60f8161c191681555b50505050600190811b01905550565b634e487b7160e01b5f52603260045260245ffd5b634e487b7160e01b5f52601160045260245ffd5b81810381811115610ccd57610ccd611230565b80820180821115610ccd57610ccd611230565b634e487b7160e01b5f52603160045260245ffdfee00da2178806f37f69815e9ed5ed3072ec1d55206d60916d99b469c7daa421e4a2646970667358221220ca802ed3ce8364584b44af605d8966c81fcf899109de2e641b9535ecb607d51a64736f6c634300081a0033608060405234801561000f575f80fd5b5060405161135d38038061135d83398101604081905261002e916101da565b835f83838261003d85826102e3565b506001805484919060ff19168183600281111561005c5761005c61039d565b021790555060018054610100600160a81b0319166101006001600160a01b0394851602179055600280546001600160a01b0319169190921617905550600490506100a684826102e3565b5060018054610100600160a81b0319166101006001600160a01b038581169190910291909117909155600280546001600160a01b0319169183169190911790556040513381527f1449abf21e49fd025f33495e77f7b1461caefdd3d4bb646424a3f445c4576a5b9060200160405180910390a1505050506103b1565b634e487b7160e01b5f52604160045260245ffd5b5f82601f830112610145575f80fd5b81516001600160401b0381111561015e5761015e610122565b604051601f8201601f19908116603f011681016001600160401b038111828210171561018c5761018c610122565b6040528181528382016020018510156101a3575f80fd5b8160208501602083015e5f918101602001919091529392505050565b80516001600160a01b03811681146101d5575f80fd5b919050565b5f805f80608085870312156101ed575f80fd5b84516001600160401b03811115610202575f80fd5b61020e87828801610136565b602087015190955090506001600160401b0381111561022b575f80fd5b61023787828801610136565b935050610246604086016101bf565b9150610254606086016101bf565b905092959194509250565b600181811c9082168061027357607f821691505b60208210810361029157634e487b7160e01b5f52602260045260245ffd5b50919050565b601f8211156102de57805f5260205f20601f840160051c810160208510156102bc5750805b601f840160051c820191505b818110156102db575f81556001016102c8565b50505b505050565b81516001600160401b038111156102fc576102fc610122565b6103108161030a845461025f565b84610297565b6020601f821160018114610342575f831561032b5750848201515b5f19600385901b1c1916600184901b1784556102db565b5f84815260208120601f198516915b828110156103715787850151825560209485019460019092019101610351565b508482101561038e57868401515f19600387901b60f8161c191681555b50505050600190811b01905550565b634e487b7160e01b5f52602160045260245ffd5b610f9f806103be5f395ff3fe608060405234801561000f575f80fd5b50600436106100b1575f3560e01c8063a95264d01161006e578063a95264d014610146578063b9daf3e21461015b578063ba379e8614610163578063c47f002714610179578063ded92dac1461018c578063efd8af9f1461019f575f80fd5b80631499c592146100b55780632858d3c8146100ca5780634ba83374146100e85780635da6ef8d146101005780637a4c982e1461011357806380f7602114610126575b5f80fd5b6100c86100c3366004610b6d565b6101b2565b005b6100d2610251565b6040516100df9190610b9a565b60405180910390f35b6100f06102a1565b60405190151581526020016100df565b6100c861010e366004610b6d565b61030d565b6100c8610121366004610c5f565b610470565b61012e610504565b6040516001600160a01b0390911681526020016100df565b61014e61055a565b6040516100df9190610cc4565b6100f06105ff565b61016b61062e565b6040516100df929190610d3d565b6100c8610187366004610d6a565b610807565b6100c861019a366004610b6d565b610887565b6100c86101ad366004610d6a565b6109ba565b60015461010090046001600160a01b03163314806101da57506002546001600160a01b031633145b6101ff5760405162461bcd60e51b81526004016101f690610da4565b60405180910390fd5b600280546001600160a01b0319166001600160a01b0383161790556040513381527fe00da2178806f37f69815e9ed5ed3072ec1d55206d60916d99b469c7daa421e4906020015b60405180910390a150565b6001545f9061010090046001600160a01b031633148061027b57506002546001600160a01b031633145b6102975760405162461bcd60e51b81526004016101f690610da4565b5060015460ff1690565b5f6103043360038054806020026020016040519081016040528092919081815260200182805480156102fa57602002820191905f5260205f20905b81546001600160a01b031681526001909101906020018083116102dc575b5050505050610a0a565b5f191415905090565b60015461010090046001600160a01b031633148061033557506002546001600160a01b031633145b6103515760405162461bcd60e51b81526004016101f690610da4565b6001546001600160a01b03828116610100909204161480159061037c57506001600160a01b03811615155b80156103e757506103e38160038054806020026020016040519081016040528092919081815260200182805480156102fa57602002820191905f5260205f209081546001600160a01b031681526001909101906020018083116102dc575050505050610a0a565b5f19145b61041f5760405162461bcd60e51b81526020600482015260096024820152682337b93134b23232b760b91b60448201526064016101f6565b600380546001810182555f919091527fc2575a0e9e593c00f959f8c92f12db2869c3395a3b0502d05e2516446f71f85b0180546001600160a01b0319166001600160a01b0392909216919091179055565b60015461010090046001600160a01b031633148061049857506002546001600160a01b031633145b6104b45760405162461bcd60e51b81526004016101f690610da4565b5f6104bf8382610e4c565b5060046104cc8282610e4c565b506040513381527fe00da2178806f37f69815e9ed5ed3072ec1d55206d60916d99b469c7daa421e49060200160405180910390a15050565b6001545f9061010090046001600160a01b031633148061052e57506002546001600160a01b031633145b61054a5760405162461bcd60e51b81526004016101f690610da4565b506002546001600160a01b031690565b60015460609061010090046001600160a01b031633148061058557506002546001600160a01b031633145b6105a15760405162461bcd60e51b81526004016101f690610da4565b60038054806020026020016040519081016040528092919081815260200182805480156105f557602002820191905f5260205f20905b81546001600160a01b031681526001909101906020018083116105d7575b5050505050905090565b6001545f9061010090046001600160a01b031633148061062957506002546001600160a01b031633145b905090565b600154606090819061010090046001600160a01b03163314806106b157506106ac3360038054806020026020016040519081016040528092919081815260200182805480156102fa57602002820191905f5260205f209081546001600160a01b031681526001909101906020018083116102dc575050505050610a0a565b5f1914155b6106e85760405162461bcd60e51b815260206004820152600860248201526714995cdd1c9a58dd60c21b60448201526064016101f6565b5f60048180546106f790610dc8565b80601f016020809104026020016040519081016040528092919081815260200182805461072390610dc8565b801561076e5780601f106107455761010080835404028352916020019161076e565b820191905f5260205f20905b81548152906001019060200180831161075157829003601f168201915b5050505050915080805461078190610dc8565b80601f01602080910402602001604051908101604052809291908181526020018280546107ad90610dc8565b80156107f85780601f106107cf576101008083540402835291602001916107f8565b820191905f5260205f20905b8154815290600101906020018083116107db57829003601f168201915b50505050509050915091509091565b60015461010090046001600160a01b031633148061082f57506002546001600160a01b031633145b61084b5760405162461bcd60e51b81526004016101f690610da4565b5f6108568282610e4c565b506040513381527fe00da2178806f37f69815e9ed5ed3072ec1d55206d60916d99b469c7daa421e490602001610246565b6001600160a01b0381161515806108d457506002546001600160a01b03163314806108c1575060015461010090046001600160a01b031633145b806108d45750336001600160a01b038216145b61090c5760405162461bcd60e51b81526020600482015260096024820152682337b93134b23232b760b91b60448201526064016101f6565b5f61096d8260038054806020026020016040519081016040528092919081815260200182805480156102fa57602002820191905f5260205f209081546001600160a01b031681526001909101906020018083116102dc575050505050610a0a565b90505f1981136109ab5760405162461bcd60e51b8152602060048201526009602482015268139bdd08199bdd5b9960ba1b60448201526064016101f6565b6109b6816003610a63565b5050565b60015461010090046001600160a01b03163314806109e257506002546001600160a01b031633145b6109fe5760405162461bcd60e51b81526004016101f690610da4565b60046108568282610e4c565b5f805b8251811015610a5757836001600160a01b0316838281518110610a3257610a32610f07565b60200260200101516001600160a01b031603610a4f579050610a5d565b600101610a0d565b505f1990505b92915050565b5f8212158015610a735750805482105b610aa85760405162461bcd60e51b815260206004820152600660248201526509cde40d2c8f60d31b60448201526064016101f6565b815b8154610ab890600190610f2f565b811015610b385781610acb826001610f42565b81548110610adb57610adb610f07565b905f5260205f20015f9054906101000a90046001600160a01b0316828281548110610b0857610b08610f07565b5f91825260209091200180546001600160a01b0319166001600160a01b0392909216919091179055600101610aaa565b5080805480610b4957610b49610f55565b5f8281526020902081015f1990810180546001600160a01b03191690550190555050565b5f60208284031215610b7d575f80fd5b81356001600160a01b0381168114610b93575f80fd5b9392505050565b6020810160038310610bba57634e487b7160e01b5f52602160045260245ffd5b91905290565b634e487b7160e01b5f52604160045260245ffd5b5f82601f830112610be3575f80fd5b813567ffffffffffffffff811115610bfd57610bfd610bc0565b604051601f8201601f19908116603f0116810167ffffffffffffffff81118282101715610c2c57610c2c610bc0565b604052818152838201602001851015610c43575f80fd5b816020850160208301375f918101602001919091529392505050565b5f8060408385031215610c70575f80fd5b823567ffffffffffffffff811115610c86575f80fd5b610c9285828601610bd4565b925050602083013567ffffffffffffffff811115610cae575f80fd5b610cba85828601610bd4565b9150509250929050565b602080825282518282018190525f918401906040840190835b81811015610d045783516001600160a01b0316835260209384019390920191600101610cdd565b509095945050505050565b5f81518084528060208401602086015e5f602082860101526020601f19601f83011685010191505092915050565b604081525f610d4f6040830185610d0f565b8281036020840152610d618185610d0f565b95945050505050565b5f60208284031215610d7a575f80fd5b813567ffffffffffffffff811115610d90575f80fd5b610d9c84828501610bd4565b949350505050565b6020808252600a908201526927b7363c9037bbb732b960b11b604082015260600190565b600181811c90821680610ddc57607f821691505b602082108103610dfa57634e487b7160e01b5f52602260045260245ffd5b50919050565b601f821115610e4757805f5260205f20601f840160051c81016020851015610e255750805b601f840160051c820191505b81811015610e44575f8155600101610e31565b50505b505050565b815167ffffffffffffffff811115610e6657610e66610bc0565b610e7a81610e748454610dc8565b84610e00565b6020601f821160018114610eac575f8315610e955750848201515b5f19600385901b1c1916600184901b178455610e44565b5f84815260208120601f198516915b82811015610edb5787850151825560209485019460019092019101610ebb565b5084821015610ef857868401515f19600387901b60f8161c191681555b50505050600190811b01905550565b634e487b7160e01b5f52603260045260245ffd5b634e487b7160e01b5f52601160045260245ffd5b81810381811115610a5d57610a5d610f1b565b80820180821115610a5d57610a5d610f1b565b634e487b7160e01b5f52603160045260245ffdfea264697066735822122029567e150a9abca154acdf6e0f9ab4616f6a4cd21004536830c8342a6147caf664736f6c634300081a0033608060405234801561000f575f80fd5b5060405161165a38038061165a83398101604081905261002e916101b8565b85600283835f61003e8582610316565b506001805484919060ff19168183600281111561005d5761005d6103d0565b021790555060018054610100600160a81b0319166101006001600160a01b0394851602179055600280546001600160a01b0319169190921617905550600490506100a78682610316565b5060056100b48582610316565b5060066100c18482610316565b506040513381527f1449abf21e49fd025f33495e77f7b1461caefdd3d4bb646424a3f445c4576a5b9060200160405180910390a15050505050506103e4565b634e487b7160e01b5f52604160045260245ffd5b5f82601f830112610123575f80fd5b81516001600160401b0381111561013c5761013c610100565b604051601f8201601f19908116603f011681016001600160401b038111828210171561016a5761016a610100565b604052818152838201602001851015610181575f80fd5b8160208501602083015e5f918101602001919091529392505050565b80516001600160a01b03811681146101b3575f80fd5b919050565b5f805f805f8060c087890312156101cd575f80fd5b86516001600160401b038111156101e2575f80fd5b6101ee89828a01610114565b602089015190975090506001600160401b0381111561020b575f80fd5b61021789828a01610114565b604089015190965090506001600160401b03811115610234575f80fd5b61024089828a01610114565b606089015190955090506001600160401b0381111561025d575f80fd5b61026989828a01610114565b9350506102786080880161019d565b915061028660a0880161019d565b90509295509295509295565b600181811c908216806102a657607f821691505b6020821081036102c457634e487b7160e01b5f52602260045260245ffd5b50919050565b601f82111561031157805f5260205f20601f840160051c810160208510156102ef5750805b601f840160051c820191505b8181101561030e575f81556001016102fb565b50505b505050565b81516001600160401b0381111561032f5761032f610100565b6103438161033d8454610292565b846102ca565b6020601f821160018114610375575f831561035e5750848201515b5f19600385901b1c1916600184901b17845561030e565b5f84815260208120601f198516915b828110156103a45787850151825560209485019460019092019101610384565b50848210156103c157868401515f19600387901b60f8161c191681555b50505050600190811b01905550565b634e487b7160e01b5f52602160045260245ffd5b611269806103f15f395ff3fe608060405234801561000f575f80fd5b50600436106100e5575f3560e01c806380f7602111610088578063b9daf3e211610063578063b9daf3e2146101c8578063ba379e86146101d0578063c47f0027146101e8578063ded92dac146101fb575f80fd5b806380f7602114610180578063a95264d0146101a0578063ac0344e6146101b5575f80fd5b8063290bb453116100c3578063290bb4531461012f5780632b5914fe146101425780634ba83374146101555780635da6ef8d1461016d575f80fd5b80631499c592146100e9578063252498a2146100fe5780632858d3c814610111575b5f80fd5b6100fc6100f7366004610db9565b61020e565b005b6100fc61010c366004610e85565b6102ad565b61011961032e565b6040516101269190610ebf565b60405180910390f35b6100fc61013d366004610e85565b61037e565b6100fc610150366004610e85565b6103ce565b61015d61041e565b6040519015158152602001610126565b6100fc61017b366004610db9565b61048a565b6101886105ed565b6040516001600160a01b039091168152602001610126565b6101a8610643565b6040516101269190610ee5565b6100fc6101c3366004610f30565b6106e8565b61015d610798565b6101d86107c7565b6040516101269493929190611017565b6100fc6101f6366004610e85565b610ad4565b6100fc610209366004610db9565b610b23565b60015461010090046001600160a01b031633148061023657506002546001600160a01b031633145b61025b5760405162461bcd60e51b81526004016102529061106e565b60405180910390fd5b600280546001600160a01b0319166001600160a01b0383161790556040513381527fe00da2178806f37f69815e9ed5ed3072ec1d55206d60916d99b469c7daa421e4906020015b60405180910390a150565b60015461010090046001600160a01b03163314806102d557506002546001600160a01b031633145b6102f15760405162461bcd60e51b81526004016102529061106e565b60046102fd8282611116565b506040513381527fe00da2178806f37f69815e9ed5ed3072ec1d55206d60916d99b469c7daa421e4906020016102a2565b6001545f9061010090046001600160a01b031633148061035857506002546001600160a01b031633145b6103745760405162461bcd60e51b81526004016102529061106e565b5060015460ff1690565b60015461010090046001600160a01b03163314806103a657506002546001600160a01b031633145b6103c25760405162461bcd60e51b81526004016102529061106e565b60066102fd8282611116565b60015461010090046001600160a01b03163314806103f657506002546001600160a01b031633145b6104125760405162461bcd60e51b81526004016102529061106e565b60056102fd8282611116565b5f61048133600380548060200260200160405190810160405280929190818152602001828054801561047757602002820191905f5260205f20905b81546001600160a01b03168152600190910190602001808311610459575b5050505050610c56565b5f191415905090565b60015461010090046001600160a01b03163314806104b257506002546001600160a01b031633145b6104ce5760405162461bcd60e51b81526004016102529061106e565b6001546001600160a01b0382811661010090920416148015906104f957506001600160a01b03811615155b8015610564575061056081600380548060200260200160405190810160405280929190818152602001828054801561047757602002820191905f5260205f209081546001600160a01b03168152600190910190602001808311610459575050505050610c56565b5f19145b61059c5760405162461bcd60e51b81526020600482015260096024820152682337b93134b23232b760b91b6044820152606401610252565b600380546001810182555f919091527fc2575a0e9e593c00f959f8c92f12db2869c3395a3b0502d05e2516446f71f85b0180546001600160a01b0319166001600160a01b0392909216919091179055565b6001545f9061010090046001600160a01b031633148061061757506002546001600160a01b031633145b6106335760405162461bcd60e51b81526004016102529061106e565b506002546001600160a01b031690565b60015460609061010090046001600160a01b031633148061066e57506002546001600160a01b031633145b61068a5760405162461bcd60e51b81526004016102529061106e565b60038054806020026020016040519081016040528092919081815260200182805480156106de57602002820191905f5260205f20905b81546001600160a01b031681526001909101906020018083116106c0575b5050505050905090565b60015461010090046001600160a01b031633148061071057506002546001600160a01b031633145b61072c5760405162461bcd60e51b81526004016102529061106e565b5f6107378582611116565b5060046107448482611116565b5060056107518382611116565b50600661075e8282611116565b506040513381527fe00da2178806f37f69815e9ed5ed3072ec1d55206d60916d99b469c7daa421e49060200160405180910390a150505050565b6001545f9061010090046001600160a01b03163314806107c257506002546001600160a01b031633145b905090565b60608060608060018054906101000a90046001600160a01b03166001600160a01b0316336001600160a01b03161480610860575061085b33600380548060200260200160405190810160405280929190818152602001828054801561047757602002820191905f5260205f209081546001600160a01b03168152600190910190602001808311610459575050505050610c56565b5f1914155b6108975760405162461bcd60e51b815260206004820152600860248201526714995cdd1c9a58dd60c21b6044820152606401610252565b5f6004600560068380546108aa90611092565b80601f01602080910402602001604051908101604052809291908181526020018280546108d690611092565b80156109215780601f106108f857610100808354040283529160200191610921565b820191905f5260205f20905b81548152906001019060200180831161090457829003601f168201915b5050505050935082805461093490611092565b80601f016020809104026020016040519081016040528092919081815260200182805461096090611092565b80156109ab5780601f10610982576101008083540402835291602001916109ab565b820191905f5260205f20905b81548152906001019060200180831161098e57829003601f168201915b505050505092508180546109be90611092565b80601f01602080910402602001604051908101604052809291908181526020018280546109ea90611092565b8015610a355780601f10610a0c57610100808354040283529160200191610a35565b820191905f5260205f20905b815481529060010190602001808311610a1857829003601f168201915b50505050509150808054610a4890611092565b80601f0160208091040260200160405190810160405280929190818152602001828054610a7490611092565b8015610abf5780601f10610a9657610100808354040283529160200191610abf565b820191905f5260205f20905b815481529060010190602001808311610aa257829003601f168201915b50505050509050935093509350935090919293565b60015461010090046001600160a01b0316331480610afc57506002546001600160a01b031633145b610b185760405162461bcd60e51b81526004016102529061106e565b5f6102fd8282611116565b6001600160a01b038116151580610b7057506002546001600160a01b0316331480610b5d575060015461010090046001600160a01b031633145b80610b705750336001600160a01b038216145b610ba85760405162461bcd60e51b81526020600482015260096024820152682337b93134b23232b760b91b6044820152606401610252565b5f610c0982600380548060200260200160405190810160405280929190818152602001828054801561047757602002820191905f5260205f209081546001600160a01b03168152600190910190602001808311610459575050505050610c56565b90505f198113610c475760405162461bcd60e51b8152602060048201526009602482015268139bdd08199bdd5b9960ba1b6044820152606401610252565b610c52816003610caf565b5050565b5f805b8251811015610ca357836001600160a01b0316838281518110610c7e57610c7e6111d1565b60200260200101516001600160a01b031603610c9b579050610ca9565b600101610c59565b505f1990505b92915050565b5f8212158015610cbf5750805482105b610cf45760405162461bcd60e51b815260206004820152600660248201526509cde40d2c8f60d31b6044820152606401610252565b815b8154610d04906001906111f9565b811015610d845781610d1782600161120c565b81548110610d2757610d276111d1565b905f5260205f20015f9054906101000a90046001600160a01b0316828281548110610d5457610d546111d1565b5f91825260209091200180546001600160a01b0319166001600160a01b0392909216919091179055600101610cf6565b5080805480610d9557610d9561121f565b5f8281526020902081015f1990810180546001600160a01b03191690550190555050565b5f60208284031215610dc9575f80fd5b81356001600160a01b0381168114610ddf575f80fd5b9392505050565b634e487b7160e01b5f52604160045260245ffd5b5f82601f830112610e09575f80fd5b813567ffffffffffffffff811115610e2357610e23610de6565b604051601f8201601f19908116603f0116810167ffffffffffffffff81118282101715610e5257610e52610de6565b604052818152838201602001851015610e69575f80fd5b816020850160208301375f918101602001919091529392505050565b5f60208284031215610e95575f80fd5b813567ffffffffffffffff811115610eab575f80fd5b610eb784828501610dfa565b949350505050565b6020810160038310610edf57634e487b7160e01b5f52602160045260245ffd5b91905290565b602080825282518282018190525f918401906040840190835b81811015610f255783516001600160a01b0316835260209384019390920191600101610efe565b509095945050505050565b5f805f8060808587031215610f43575f80fd5b843567ffffffffffffffff811115610f59575f80fd5b610f6587828801610dfa565b945050602085013567ffffffffffffffff811115610f81575f80fd5b610f8d87828801610dfa565b935050604085013567ffffffffffffffff811115610fa9575f80fd5b610fb587828801610dfa565b925050606085013567ffffffffffffffff811115610fd1575f80fd5b610fdd87828801610dfa565b91505092959194509250565b5f81518084528060208401602086015e5f602082860101526020601f19601f83011685010191505092915050565b608081525f6110296080830187610fe9565b828103602084015261103b8187610fe9565b9050828103604084015261104f8186610fe9565b905082810360608401526110638185610fe9565b979650505050505050565b6020808252600a908201526927b7363c9037bbb732b960b11b604082015260600190565b600181811c908216806110a657607f821691505b6020821081036110c457634e487b7160e01b5f52602260045260245ffd5b50919050565b601f82111561111157805f5260205f20601f840160051c810160208510156110ef5750805b601f840160051c820191505b8181101561110e575f81556001016110fb565b50505b505050565b815167ffffffffffffffff81111561113057611130610de6565b6111448161113e8454611092565b846110ca565b6020601f821160018114611176575f831561115f5750848201515b5f19600385901b1c1916600184901b17845561110e565b5f84815260208120601f198516915b828110156111a55787850151825560209485019460019092019101611185565b50848210156111c257868401515f19600387901b60f8161c191681555b50505050600190811b01905550565b634e487b7160e01b5f52603260045260245ffd5b634e487b7160e01b5f52601160045260245ffd5b81810381811115610ca957610ca96111e5565b80820180821115610ca957610ca96111e5565b634e487b7160e01b5f52603160045260245ffdfea2646970667358221220d30aa51815f56ce45553db8f21a0dda1a74264a0afb9000748944619dcbba92c64736f6c634300081a0033a26469706673582212204fc3be5ea47dfc729c3dd1206e932e05247561c6172309bfb429c6b3eded6c6764736f6c634300081a0033",
			"opcodes": "PUSH1 0x80 PUSH1 0x40 MSTORE CALLVALUE DUP1 ISZERO PUSH1 0xE JUMPI PUSH0 DUP1 REVERT JUMPDEST POP PUSH1 0x40 MLOAD PUSH2 0x54A5 CODESIZE SUB DUP1 PUSH2 0x54A5 DUP4 CODECOPY DUP2 ADD PUSH1 0x40 DUP2 SWAP1 MSTORE PUSH1 0x2B SWAP2 PUSH1 0x70 JUMP JUMPDEST PUSH0 DUP1 SLOAD PUSH1 0x1 PUSH1 0x1 PUSH1 0xA0 SHL SUB SWAP4 DUP5 AND PUSH1 0x1 PUSH1 0x1 PUSH1 0xA0 SHL SUB NOT SWAP2 DUP3 AND OR SWAP1 SWAP2 SSTORE PUSH1 0x1 DUP1 SLOAD SWAP3 SWAP1 SWAP4 AND SWAP2 AND OR SWAP1 SSTORE PUSH1 0xA3 JUMP JUMPDEST PUSH1 0x1 PUSH1 0x1 PUSH1 0xA0 SHL SUB DUP2 AND DUP2 EQ PUSH1 0x6D JUMPI PUSH0 DUP1 REVERT JUMPDEST POP JUMP JUMPDEST PUSH0 DUP1 PUSH1 0x40 DUP4 DUP6 SUB SLT ISZERO PUSH1 0x80 JUMPI PUSH0 DUP1 REVERT JUMPDEST DUP3 MLOAD PUSH1 0x89 DUP2 PUSH1 0x5A JUMP JUMPDEST PUSH1 0x20 DUP5 ADD MLOAD SWAP1 SWAP3 POP PUSH1 0x98 DUP2 PUSH1 0x5A JUMP JUMPDEST DUP1 SWAP2 POP POP SWAP3 POP SWAP3 SWAP1 POP JUMP JUMPDEST PUSH2 0x53F5 DUP1 PUSH2 0xB0 PUSH0 CODECOPY PUSH0 RETURN INVALID PUSH1 0x80 PUSH1 0x40 MSTORE PUSH1 0x4 CALLDATASIZE LT PUSH2 0xA4 JUMPI PUSH0 CALLDATALOAD PUSH1 0xE0 SHR DUP1 PUSH4 0x78BD5202 GT PUSH2 0x60 JUMPI DUP1 PUSH4 0x78BD5202 EQ PUSH2 0x163 JUMPI DUP1 PUSH4 0x835C6916 EQ PUSH2 0x18F JUMPI DUP1 PUSH4 0x97D27CD5 EQ PUSH2 0x1AE JUMPI DUP1 PUSH4 0x9E1A00AA EQ PUSH2 0x1CD JUMPI DUP1 PUSH4 0xC9AFC5DA EQ PUSH2 0x1E0 JUMPI DUP1 PUSH4 0xD0E30DB0 EQ PUSH2 0xAB JUMPI STOP JUMPDEST DUP1 PUSH4 0x12065FE0 EQ PUSH2 0xAD JUMPI DUP1 PUSH4 0x14DEFFC1 EQ PUSH2 0xD4 JUMPI DUP1 PUSH4 0x26E3BC4E EQ PUSH2 0xF3 JUMPI DUP1 PUSH4 0x2E1A7D4D EQ PUSH2 0x112 JUMPI DUP1 PUSH4 0x3046E41B EQ PUSH2 0x125 JUMPI DUP1 PUSH4 0x32D3DEDA EQ PUSH2 0x144 JUMPI STOP JUMPDEST CALLDATASIZE PUSH2 0xAB JUMPI STOP JUMPDEST STOP JUMPDEST CALLVALUE DUP1 ISZERO PUSH2 0xB8 JUMPI PUSH0 DUP1 REVERT JUMPDEST POP PUSH2 0xC1 PUSH2 0x1FF JUMP JUMPDEST PUSH1 0x40 MLOAD SWAP1 DUP2 MSTORE PUSH1 0x20 ADD JUMPDEST PUSH1 0x40 MLOAD DUP1 SWAP2 SUB SWAP1 RETURN JUMPDEST CALLVALUE DUP1 ISZERO PUSH2 0xDF JUMPI PUSH0 DUP1 REVERT JUMPDEST POP PUSH2 0xAB PUSH2 0xEE CALLDATASIZE PUSH1 0x4 PUSH2 0xE65 JUMP JUMPDEST PUSH2 0x24C JUMP JUMPDEST CALLVALUE DUP1 ISZERO PUSH2 0xFE JUMPI PUSH0 DUP1 REVERT JUMPDEST POP PUSH2 0xAB PUSH2 0x10D CALLDATASIZE PUSH1 0x4 PUSH2 0xF39 JUMP JUMPDEST PUSH2 0x33E JUMP JUMPDEST PUSH2 0xAB PUSH2 0x120 CALLDATASIZE PUSH1 0x4 PUSH2 0xF6E JUMP JUMPDEST PUSH2 0x38C JUMP JUMPDEST CALLVALUE DUP1 ISZERO PUSH2 0x130 JUMPI PUSH0 DUP1 REVERT JUMPDEST POP PUSH2 0xAB PUSH2 0x13F CALLDATASIZE PUSH1 0x4 PUSH2 0xF85 JUMP JUMPDEST PUSH2 0x492 JUMP JUMPDEST CALLVALUE DUP1 ISZERO PUSH2 0x14F JUMPI PUSH0 DUP1 REVERT JUMPDEST POP PUSH2 0xAB PUSH2 0x15E CALLDATASIZE PUSH1 0x4 PUSH2 0xF39 JUMP JUMPDEST PUSH2 0x574 JUMP JUMPDEST CALLVALUE DUP1 ISZERO PUSH2 0x16E JUMPI PUSH0 DUP1 REVERT JUMPDEST POP PUSH2 0x182 PUSH2 0x17D CALLDATASIZE PUSH1 0x4 PUSH2 0xFEA JUMP JUMPDEST PUSH2 0x5BE JUMP JUMPDEST PUSH1 0x40 MLOAD PUSH2 0xCB SWAP2 SWAP1 PUSH2 0x100A JUMP JUMPDEST CALLVALUE DUP1 ISZERO PUSH2 0x19A JUMPI PUSH0 DUP1 REVERT JUMPDEST POP PUSH2 0xAB PUSH2 0x1A9 CALLDATASIZE PUSH1 0x4 PUSH2 0xF39 JUMP JUMPDEST PUSH2 0x612 JUMP JUMPDEST CALLVALUE DUP1 ISZERO PUSH2 0x1B9 JUMPI PUSH0 DUP1 REVERT JUMPDEST POP PUSH2 0xAB PUSH2 0x1C8 CALLDATASIZE PUSH1 0x4 PUSH2 0x1055 JUMP JUMPDEST PUSH2 0x65C JUMP JUMPDEST PUSH2 0xAB PUSH2 0x1DB CALLDATASIZE PUSH1 0x4 PUSH2 0x110E JUMP JUMPDEST PUSH2 0x749 JUMP JUMPDEST CALLVALUE DUP1 ISZERO PUSH2 0x1EB JUMPI PUSH0 DUP1 REVERT JUMPDEST POP PUSH2 0x182 PUSH2 0x1FA CALLDATASIZE PUSH1 0x4 PUSH2 0xFEA JUMP JUMPDEST PUSH2 0x89B JUMP JUMPDEST PUSH0 DUP1 SLOAD PUSH1 0x1 PUSH1 0x1 PUSH1 0xA0 SHL SUB AND CALLER EQ DUP1 PUSH2 0x222 JUMPI POP PUSH1 0x1 SLOAD PUSH1 0x1 PUSH1 0x1 PUSH1 0xA0 SHL SUB AND CALLER EQ JUMPDEST PUSH2 0x247 JUMPI PUSH1 0x40 MLOAD PUSH3 0x461BCD PUSH1 0xE5 SHL DUP2 MSTORE PUSH1 0x4 ADD PUSH2 0x23E SWAP1 PUSH2 0x1138 JUMP JUMPDEST PUSH1 0x40 MLOAD DUP1 SWAP2 SUB SWAP1 REVERT JUMPDEST POP SELFBALANCE SWAP1 JUMP JUMPDEST PUSH0 SLOAD PUSH1 0x1 PUSH1 0x1 PUSH1 0xA0 SHL SUB AND CALLER EQ DUP1 PUSH2 0x26E JUMPI POP PUSH1 0x1 SLOAD PUSH1 0x1 PUSH1 0x1 PUSH1 0xA0 SHL SUB AND CALLER EQ JUMPDEST PUSH2 0x28A JUMPI PUSH1 0x40 MLOAD PUSH3 0x461BCD PUSH1 0xE5 SHL DUP2 MSTORE PUSH1 0x4 ADD PUSH2 0x23E SWAP1 PUSH2 0x1138 JUMP JUMPDEST PUSH1 0x1 PUSH0 SWAP1 DUP2 MSTORE PUSH1 0x2 PUSH1 0x20 MSTORE SLOAD PUSH1 0x40 MLOAD PUSH32 0xE90B7BCEB6E7DF5418FB78D8EE546E97C83A08BBCCC01A0644D599CCD2A7C2E0 SWAP2 DUP8 SWAP2 DUP8 SWAP2 DUP8 SWAP2 DUP8 SWAP2 DUP8 SWAP2 PUSH1 0x1 PUSH1 0x1 PUSH1 0xA0 SHL SUB SWAP1 SWAP2 AND SWAP1 ADDRESS SWAP1 PUSH2 0x2DC SWAP1 PUSH2 0xD8E JUMP JUMPDEST PUSH2 0x2EC SWAP8 SWAP7 SWAP6 SWAP5 SWAP4 SWAP3 SWAP2 SWAP1 PUSH2 0x119E JUMP JUMPDEST PUSH1 0x40 MLOAD DUP1 SWAP2 SUB SWAP1 PUSH0 CREATE DUP1 ISZERO DUP1 ISZERO PUSH2 0x305 JUMPI RETURNDATASIZE PUSH0 DUP1 RETURNDATACOPY RETURNDATASIZE PUSH0 REVERT JUMPDEST POP DUP2 SLOAD PUSH1 0x1 DUP2 ADD DUP4 SSTORE PUSH0 SWAP3 DUP4 MSTORE PUSH1 0x20 SWAP1 SWAP3 KECCAK256 SWAP1 SWAP2 ADD DUP1 SLOAD PUSH1 0x1 PUSH1 0x1 PUSH1 0xA0 SHL SUB NOT AND PUSH1 0x1 PUSH1 0x1 PUSH1 0xA0 SHL SUB SWAP1 SWAP3 AND SWAP2 SWAP1 SWAP2 OR SWAP1 SSTORE POP POP POP POP POP JUMP JUMPDEST PUSH0 SLOAD PUSH1 0x1 PUSH1 0x1 PUSH1 0xA0 SHL SUB AND CALLER EQ DUP1 PUSH2 0x360 JUMPI POP PUSH1 0x1 SLOAD PUSH1 0x1 PUSH1 0x1 PUSH1 0xA0 SHL SUB AND CALLER EQ JUMPDEST PUSH2 0x37C JUMPI PUSH1 0x40 MLOAD PUSH3 0x461BCD PUSH1 0xE5 SHL DUP2 MSTORE PUSH1 0x4 ADD PUSH2 0x23E SWAP1 PUSH2 0x1138 JUMP JUMPDEST PUSH2 0x388 PUSH1 0x2 DUP4 DUP4 PUSH2 0x8E7 JUMP JUMPDEST POP POP JUMP JUMPDEST PUSH0 SLOAD PUSH1 0x1 PUSH1 0x1 PUSH1 0xA0 SHL SUB AND CALLER EQ DUP1 PUSH2 0x3AE JUMPI POP PUSH1 0x1 SLOAD PUSH1 0x1 PUSH1 0x1 PUSH1 0xA0 SHL SUB AND CALLER EQ JUMPDEST PUSH2 0x3CA JUMPI PUSH1 0x40 MLOAD PUSH3 0x461BCD PUSH1 0xE5 SHL DUP2 MSTORE PUSH1 0x4 ADD PUSH2 0x23E SWAP1 PUSH2 0x1138 JUMP JUMPDEST DUP1 SELFBALANCE LT ISZERO PUSH2 0x409 JUMPI PUSH1 0x40 MLOAD PUSH3 0x461BCD PUSH1 0xE5 SHL DUP2 MSTORE PUSH1 0x20 PUSH1 0x4 DUP3 ADD MSTORE PUSH1 0xC PUSH1 0x24 DUP3 ADD MSTORE PUSH12 0x125B9CDD59999A58DA595B9D PUSH1 0xA2 SHL PUSH1 0x44 DUP3 ADD MSTORE PUSH1 0x64 ADD PUSH2 0x23E JUMP JUMPDEST PUSH0 DUP1 SLOAD PUSH1 0x40 MLOAD PUSH1 0x1 PUSH1 0x1 PUSH1 0xA0 SHL SUB SWAP1 SWAP2 AND SWAP1 DUP4 SWAP1 DUP4 DUP2 DUP2 DUP2 DUP6 DUP8 GAS CALL SWAP3 POP POP POP RETURNDATASIZE DUP1 PUSH0 DUP2 EQ PUSH2 0x453 JUMPI PUSH1 0x40 MLOAD SWAP2 POP PUSH1 0x1F NOT PUSH1 0x3F RETURNDATASIZE ADD AND DUP3 ADD PUSH1 0x40 MSTORE RETURNDATASIZE DUP3 MSTORE RETURNDATASIZE PUSH0 PUSH1 0x20 DUP5 ADD RETURNDATACOPY PUSH2 0x458 JUMP JUMPDEST PUSH1 0x60 SWAP2 POP JUMPDEST POP POP SWAP1 POP DUP1 PUSH2 0x388 JUMPI PUSH1 0x40 MLOAD PUSH3 0x461BCD PUSH1 0xE5 SHL DUP2 MSTORE PUSH1 0x20 PUSH1 0x4 DUP3 ADD MSTORE PUSH1 0x6 PUSH1 0x24 DUP3 ADD MSTORE PUSH6 0x11985A5B1959 PUSH1 0xD2 SHL PUSH1 0x44 DUP3 ADD MSTORE PUSH1 0x64 ADD PUSH2 0x23E JUMP JUMPDEST PUSH0 SLOAD PUSH1 0x1 PUSH1 0x1 PUSH1 0xA0 SHL SUB AND CALLER EQ DUP1 PUSH2 0x4B4 JUMPI POP PUSH1 0x1 SLOAD PUSH1 0x1 PUSH1 0x1 PUSH1 0xA0 SHL SUB AND CALLER EQ JUMPDEST PUSH2 0x4D0 JUMPI PUSH1 0x40 MLOAD PUSH3 0x461BCD PUSH1 0xE5 SHL DUP2 MSTORE PUSH1 0x4 ADD PUSH2 0x23E SWAP1 PUSH2 0x1138 JUMP JUMPDEST PUSH0 DUP1 DUP1 MSTORE PUSH1 0x2 PUSH1 0x20 MSTORE SLOAD PUSH1 0x40 MLOAD PUSH32 0xAC33FF75C19E70FE83507DB0D683FD3465C996598DC972688B7ACE676C89077B SWAP2 DUP5 SWAP2 DUP5 SWAP2 PUSH1 0x1 PUSH1 0x1 PUSH1 0xA0 SHL SUB AND SWAP1 ADDRESS SWAP1 PUSH2 0x518 SWAP1 PUSH2 0xD9B JUMP JUMPDEST PUSH2 0x525 SWAP5 SWAP4 SWAP3 SWAP2 SWAP1 PUSH2 0x120B JUMP JUMPDEST PUSH1 0x40 MLOAD DUP1 SWAP2 SUB SWAP1 PUSH0 CREATE DUP1 ISZERO DUP1 ISZERO PUSH2 0x53E JUMPI RETURNDATASIZE PUSH0 DUP1 RETURNDATACOPY RETURNDATASIZE PUSH0 REVERT JUMPDEST POP DUP2 SLOAD PUSH1 0x1 DUP2 ADD DUP4 SSTORE PUSH0 SWAP3 DUP4 MSTORE PUSH1 0x20 SWAP1 SWAP3 KECCAK256 SWAP1 SWAP2 ADD DUP1 SLOAD PUSH1 0x1 PUSH1 0x1 PUSH1 0xA0 SHL SUB NOT AND PUSH1 0x1 PUSH1 0x1 PUSH1 0xA0 SHL SUB SWAP1 SWAP3 AND SWAP2 SWAP1 SWAP2 OR SWAP1 SSTORE POP POP JUMP JUMPDEST PUSH0 SLOAD PUSH1 0x1 PUSH1 0x1 PUSH1 0xA0 SHL SUB AND CALLER EQ DUP1 PUSH2 0x596 JUMPI POP PUSH1 0x1 SLOAD PUSH1 0x1 PUSH1 0x1 PUSH1 0xA0 SHL SUB AND CALLER EQ JUMPDEST PUSH2 0x5B2 JUMPI PUSH1 0x40 MLOAD PUSH3 0x461BCD PUSH1 0xE5 SHL DUP2 MSTORE PUSH1 0x4 ADD PUSH2 0x23E SWAP1 PUSH2 0x1138 JUMP JUMPDEST PUSH2 0x388 DUP3 PUSH1 0x3 DUP4 PUSH2 0xA37 JUMP JUMPDEST PUSH0 SLOAD PUSH1 0x60 SWAP1 PUSH1 0x1 PUSH1 0x1 PUSH1 0xA0 SHL SUB AND CALLER EQ DUP1 PUSH2 0x5E3 JUMPI POP PUSH1 0x1 SLOAD PUSH1 0x1 PUSH1 0x1 PUSH1 0xA0 SHL SUB AND CALLER EQ JUMPDEST PUSH2 0x5FF JUMPI PUSH1 0x40 MLOAD PUSH3 0x461BCD PUSH1 0xE5 SHL DUP2 MSTORE PUSH1 0x4 ADD PUSH2 0x23E SWAP1 PUSH2 0x1138 JUMP JUMPDEST PUSH2 0x60A DUP3 PUSH1 0x2 PUSH2 0xAE2 JUMP JUMPDEST SWAP1 POP JUMPDEST SWAP2 SWAP1 POP JUMP JUMPDEST PUSH0 SLOAD PUSH1 0x1 PUSH1 0x1 PUSH1 0xA0 SHL SUB AND CALLER EQ DUP1 PUSH2 0x634 JUMPI POP PUSH1 0x1 SLOAD PUSH1 0x1 PUSH1 0x1 PUSH1 0xA0 SHL SUB AND CALLER EQ JUMPDEST PUSH2 0x650 JUMPI PUSH1 0x40 MLOAD PUSH3 0x461BCD PUSH1 0xE5 SHL DUP2 MSTORE PUSH1 0x4 ADD PUSH2 0x23E SWAP1 PUSH2 0x1138 JUMP JUMPDEST PUSH2 0x388 DUP3 PUSH1 0x3 DUP4 PUSH2 0xB76 JUMP JUMPDEST PUSH0 SLOAD PUSH1 0x1 PUSH1 0x1 PUSH1 0xA0 SHL SUB AND CALLER EQ DUP1 PUSH2 0x67E JUMPI POP PUSH1 0x1 SLOAD PUSH1 0x1 PUSH1 0x1 PUSH1 0xA0 SHL SUB AND CALLER EQ JUMPDEST PUSH2 0x69A JUMPI PUSH1 0x40 MLOAD PUSH3 0x461BCD PUSH1 0xE5 SHL DUP2 MSTORE PUSH1 0x4 ADD PUSH2 0x23E SWAP1 PUSH2 0x1138 JUMP JUMPDEST PUSH1 0x2 PUSH0 DUP2 DUP2 MSTORE PUSH1 0x20 SWAP2 SWAP1 SWAP2 MSTORE SLOAD PUSH1 0x40 MLOAD PUSH32 0x679795A0195A1B76CDEBB7C51D74E058AEE92919B8C3389AF86EF24535E8A28C SWAP2 DUP7 SWAP2 DUP7 SWAP2 DUP7 SWAP2 DUP7 SWAP2 PUSH1 0x1 PUSH1 0x1 PUSH1 0xA0 SHL SUB AND SWAP1 ADDRESS SWAP1 PUSH2 0x6E9 SWAP1 PUSH2 0xDA8 JUMP JUMPDEST PUSH2 0x6F8 SWAP7 SWAP6 SWAP5 SWAP4 SWAP3 SWAP2 SWAP1 PUSH2 0x1254 JUMP JUMPDEST PUSH1 0x40 MLOAD DUP1 SWAP2 SUB SWAP1 PUSH0 CREATE DUP1 ISZERO DUP1 ISZERO PUSH2 0x711 JUMPI RETURNDATASIZE PUSH0 DUP1 RETURNDATACOPY RETURNDATASIZE PUSH0 REVERT JUMPDEST POP DUP2 SLOAD PUSH1 0x1 DUP2 ADD DUP4 SSTORE PUSH0 SWAP3 DUP4 MSTORE PUSH1 0x20 SWAP1 SWAP3 KECCAK256 SWAP1 SWAP2 ADD DUP1 SLOAD PUSH1 0x1 PUSH1 0x1 PUSH1 0xA0 SHL SUB NOT AND PUSH1 0x1 PUSH1 0x1 PUSH1 0xA0 SHL SUB SWAP1 SWAP3 AND SWAP2 SWAP1 SWAP2 OR SWAP1 SSTORE POP POP POP POP JUMP JUMPDEST PUSH0 SLOAD PUSH1 0x1 PUSH1 0x1 PUSH1 0xA0 SHL SUB AND CALLER EQ DUP1 PUSH2 0x76B JUMPI POP PUSH1 0x1 SLOAD PUSH1 0x1 PUSH1 0x1 PUSH1 0xA0 SHL SUB AND CALLER EQ JUMPDEST PUSH2 0x787 JUMPI PUSH1 0x40 MLOAD PUSH3 0x461BCD PUSH1 0xE5 SHL DUP2 MSTORE PUSH1 0x4 ADD PUSH2 0x23E SWAP1 PUSH2 0x1138 JUMP JUMPDEST PUSH1 0x1 PUSH1 0x1 PUSH1 0xA0 SHL SUB DUP3 AND PUSH2 0x7CF JUMPI PUSH1 0x40 MLOAD PUSH3 0x461BCD PUSH1 0xE5 SHL DUP2 MSTORE PUSH1 0x20 PUSH1 0x4 DUP3 ADD MSTORE PUSH1 0xF PUSH1 0x24 DUP3 ADD MSTORE PUSH15 0x496E76616C69642061646472657373 PUSH1 0x88 SHL PUSH1 0x44 DUP3 ADD MSTORE PUSH1 0x64 ADD PUSH2 0x23E JUMP JUMPDEST DUP1 SELFBALANCE LT ISZERO PUSH2 0x80E JUMPI PUSH1 0x40 MLOAD PUSH3 0x461BCD PUSH1 0xE5 SHL DUP2 MSTORE PUSH1 0x20 PUSH1 0x4 DUP3 ADD MSTORE PUSH1 0xC PUSH1 0x24 DUP3 ADD MSTORE PUSH12 0x125B9CDD59999A58DA595B9D PUSH1 0xA2 SHL PUSH1 0x44 DUP3 ADD MSTORE PUSH1 0x64 ADD PUSH2 0x23E JUMP JUMPDEST PUSH0 DUP3 PUSH1 0x1 PUSH1 0x1 PUSH1 0xA0 SHL SUB AND DUP3 PUSH1 0x40 MLOAD PUSH0 PUSH1 0x40 MLOAD DUP1 DUP4 SUB DUP2 DUP6 DUP8 GAS CALL SWAP3 POP POP POP RETURNDATASIZE DUP1 PUSH0 DUP2 EQ PUSH2 0x857 JUMPI PUSH1 0x40 MLOAD SWAP2 POP PUSH1 0x1F NOT PUSH1 0x3F RETURNDATASIZE ADD AND DUP3 ADD PUSH1 0x40 MSTORE RETURNDATASIZE DUP3 MSTORE RETURNDATASIZE PUSH0 PUSH1 0x20 DUP5 ADD RETURNDATACOPY PUSH2 0x85C JUMP JUMPDEST PUSH1 0x60 SWAP2 POP JUMPDEST POP POP SWAP1 POP DUP1 PUSH2 0x896 JUMPI PUSH1 0x40 MLOAD PUSH3 0x461BCD PUSH1 0xE5 SHL DUP2 MSTORE PUSH1 0x20 PUSH1 0x4 DUP3 ADD MSTORE PUSH1 0x6 PUSH1 0x24 DUP3 ADD MSTORE PUSH6 0x11985A5B1959 PUSH1 0xD2 SHL PUSH1 0x44 DUP3 ADD MSTORE PUSH1 0x64 ADD PUSH2 0x23E JUMP JUMPDEST POP POP POP JUMP JUMPDEST PUSH0 SLOAD PUSH1 0x60 SWAP1 PUSH1 0x1 PUSH1 0x1 PUSH1 0xA0 SHL SUB AND CALLER EQ DUP1 PUSH2 0x8C0 JUMPI POP PUSH1 0x1 SLOAD PUSH1 0x1 PUSH1 0x1 PUSH1 0xA0 SHL SUB AND CALLER EQ JUMPDEST PUSH2 0x8DC JUMPI PUSH1 0x40 MLOAD PUSH3 0x461BCD PUSH1 0xE5 SHL DUP2 MSTORE PUSH1 0x4 ADD PUSH2 0x23E SWAP1 PUSH2 0x1138 JUMP JUMPDEST PUSH2 0x60A DUP3 PUSH1 0x3 PUSH2 0xAE2 JUMP JUMPDEST PUSH0 PUSH2 0x97A DUP3 DUP6 PUSH0 DUP7 PUSH1 0x2 DUP2 GT ISZERO PUSH2 0x900 JUMPI PUSH2 0x900 PUSH2 0x115C JUMP JUMPDEST PUSH1 0x2 DUP2 GT ISZERO PUSH2 0x911 JUMPI PUSH2 0x911 PUSH2 0x115C JUMP JUMPDEST DUP2 MSTORE PUSH1 0x20 ADD SWAP1 DUP2 MSTORE PUSH1 0x20 ADD PUSH0 KECCAK256 DUP1 SLOAD DUP1 PUSH1 0x20 MUL PUSH1 0x20 ADD PUSH1 0x40 MLOAD SWAP1 DUP2 ADD PUSH1 0x40 MSTORE DUP1 SWAP3 SWAP2 SWAP1 DUP2 DUP2 MSTORE PUSH1 0x20 ADD DUP3 DUP1 SLOAD DUP1 ISZERO PUSH2 0x970 JUMPI PUSH1 0x20 MUL DUP3 ADD SWAP2 SWAP1 PUSH0 MSTORE PUSH1 0x20 PUSH0 KECCAK256 SWAP1 JUMPDEST DUP2 SLOAD PUSH1 0x1 PUSH1 0x1 PUSH1 0xA0 SHL SUB AND DUP2 MSTORE PUSH1 0x1 SWAP1 SWAP2 ADD SWAP1 PUSH1 0x20 ADD DUP1 DUP4 GT PUSH2 0x952 JUMPI JUMPDEST POP POP POP POP POP PUSH2 0xC2D JUMP JUMPDEST SWAP1 POP PUSH0 NOT DUP2 SGT DUP1 ISZERO PUSH2 0x9BF JUMPI POP DUP4 PUSH0 DUP5 PUSH1 0x2 DUP2 GT ISZERO PUSH2 0x99B JUMPI PUSH2 0x99B PUSH2 0x115C JUMP JUMPDEST PUSH1 0x2 DUP2 GT ISZERO PUSH2 0x9AC JUMPI PUSH2 0x9AC PUSH2 0x115C JUMP JUMPDEST DUP2 MSTORE PUSH1 0x20 DUP2 ADD SWAP2 SWAP1 SWAP2 MSTORE PUSH1 0x40 ADD PUSH0 KECCAK256 SLOAD DUP2 SLT JUMPDEST PUSH2 0x9F6 JUMPI PUSH1 0x40 MLOAD PUSH3 0x461BCD PUSH1 0xE5 SHL DUP2 MSTORE PUSH1 0x20 PUSH1 0x4 DUP3 ADD MSTORE PUSH1 0x8 PUSH1 0x24 DUP3 ADD MSTORE PUSH8 0x9CDE40D2DCC8CAF PUSH1 0xC3 SHL PUSH1 0x44 DUP3 ADD MSTORE PUSH1 0x64 ADD PUSH2 0x23E JUMP JUMPDEST PUSH2 0xA31 DUP2 DUP6 PUSH0 DUP7 PUSH1 0x2 DUP2 GT ISZERO PUSH2 0xA0E JUMPI PUSH2 0xA0E PUSH2 0x115C JUMP JUMPDEST PUSH1 0x2 DUP2 GT ISZERO PUSH2 0xA1F JUMPI PUSH2 0xA1F PUSH2 0x115C JUMP JUMPDEST DUP2 MSTORE PUSH1 0x20 ADD SWAP1 DUP2 MSTORE PUSH1 0x20 ADD PUSH0 KECCAK256 PUSH2 0xC84 JUMP JUMPDEST POP POP POP POP JUMP JUMPDEST PUSH0 PUSH2 0xA50 DUP3 DUP5 PUSH0 DUP8 PUSH1 0x2 DUP2 GT ISZERO PUSH2 0x900 JUMPI PUSH2 0x900 PUSH2 0x115C JUMP JUMPDEST SWAP1 POP PUSH0 NOT DUP2 SGT DUP1 ISZERO PUSH2 0xA95 JUMPI POP DUP3 PUSH0 DUP6 PUSH1 0x2 DUP2 GT ISZERO PUSH2 0xA71 JUMPI PUSH2 0xA71 PUSH2 0x115C JUMP JUMPDEST PUSH1 0x2 DUP2 GT ISZERO PUSH2 0xA82 JUMPI PUSH2 0xA82 PUSH2 0x115C JUMP JUMPDEST DUP2 MSTORE PUSH1 0x20 DUP2 ADD SWAP2 SWAP1 SWAP2 MSTORE PUSH1 0x40 ADD PUSH0 KECCAK256 SLOAD DUP2 SLT JUMPDEST PUSH2 0xACA JUMPI PUSH1 0x40 MLOAD PUSH3 0x461BCD PUSH1 0xE5 SHL DUP2 MSTORE PUSH1 0x20 PUSH1 0x4 DUP3 ADD MSTORE PUSH1 0x6 PUSH1 0x24 DUP3 ADD MSTORE PUSH6 0x9CDE40D2C8F PUSH1 0xD3 SHL PUSH1 0x44 DUP3 ADD MSTORE PUSH1 0x64 ADD PUSH2 0x23E JUMP JUMPDEST PUSH2 0xA31 DUP2 DUP5 PUSH0 DUP8 PUSH1 0x2 DUP2 GT ISZERO PUSH2 0xA0E JUMPI PUSH2 0xA0E PUSH2 0x115C JUMP JUMPDEST PUSH1 0x60 DUP2 PUSH0 DUP5 PUSH1 0x2 DUP2 GT ISZERO PUSH2 0xAF8 JUMPI PUSH2 0xAF8 PUSH2 0x115C JUMP JUMPDEST PUSH1 0x2 DUP2 GT ISZERO PUSH2 0xB09 JUMPI PUSH2 0xB09 PUSH2 0x115C JUMP JUMPDEST DUP2 MSTORE PUSH1 0x20 ADD SWAP1 DUP2 MSTORE PUSH1 0x20 ADD PUSH0 KECCAK256 DUP1 SLOAD DUP1 PUSH1 0x20 MUL PUSH1 0x20 ADD PUSH1 0x40 MLOAD SWAP1 DUP2 ADD PUSH1 0x40 MSTORE DUP1 SWAP3 SWAP2 SWAP1 DUP2 DUP2 MSTORE PUSH1 0x20 ADD DUP3 DUP1 SLOAD DUP1 ISZERO PUSH2 0xB68 JUMPI PUSH1 0x20 MUL DUP3 ADD SWAP2 SWAP1 PUSH0 MSTORE PUSH1 0x20 PUSH0 KECCAK256 SWAP1 JUMPDEST DUP2 SLOAD PUSH1 0x1 PUSH1 0x1 PUSH1 0xA0 SHL SUB AND DUP2 MSTORE PUSH1 0x1 SWAP1 SWAP2 ADD SWAP1 PUSH1 0x20 ADD DUP1 DUP4 GT PUSH2 0xB4A JUMPI JUMPDEST POP POP POP POP POP SWAP1 POP JUMPDEST SWAP3 SWAP2 POP POP JUMP JUMPDEST PUSH2 0xB8E DUP2 DUP4 PUSH0 DUP7 PUSH1 0x2 DUP2 GT ISZERO PUSH2 0x900 JUMPI PUSH2 0x900 PUSH2 0x115C JUMP JUMPDEST PUSH0 NOT EQ PUSH2 0xBC5 JUMPI PUSH1 0x40 MLOAD PUSH3 0x461BCD PUSH1 0xE5 SHL DUP2 MSTORE PUSH1 0x20 PUSH1 0x4 DUP3 ADD MSTORE PUSH1 0x5 PUSH1 0x24 DUP3 ADD MSTORE PUSH5 0x115E1A5CDD PUSH1 0xDA SHL PUSH1 0x44 DUP3 ADD MSTORE PUSH1 0x64 ADD PUSH2 0x23E JUMP JUMPDEST DUP2 PUSH0 DUP5 PUSH1 0x2 DUP2 GT ISZERO PUSH2 0xBD9 JUMPI PUSH2 0xBD9 PUSH2 0x115C JUMP JUMPDEST PUSH1 0x2 DUP2 GT ISZERO PUSH2 0xBEA JUMPI PUSH2 0xBEA PUSH2 0x115C JUMP JUMPDEST DUP2 MSTORE PUSH1 0x20 DUP1 DUP3 ADD SWAP3 SWAP1 SWAP3 MSTORE PUSH1 0x40 ADD PUSH0 SWAP1 DUP2 KECCAK256 DUP1 SLOAD PUSH1 0x1 DUP2 ADD DUP3 SSTORE SWAP1 DUP3 MSTORE SWAP2 SWAP1 KECCAK256 ADD DUP1 SLOAD PUSH1 0x1 PUSH1 0x1 PUSH1 0xA0 SHL SUB NOT AND PUSH1 0x1 PUSH1 0x1 PUSH1 0xA0 SHL SUB SWAP3 SWAP1 SWAP3 AND SWAP2 SWAP1 SWAP2 OR SWAP1 SSTORE POP POP JUMP JUMPDEST PUSH0 DUP1 JUMPDEST DUP3 MLOAD DUP2 LT ISZERO PUSH2 0xC7A JUMPI DUP4 PUSH1 0x1 PUSH1 0x1 PUSH1 0xA0 SHL SUB AND DUP4 DUP3 DUP2 MLOAD DUP2 LT PUSH2 0xC55 JUMPI PUSH2 0xC55 PUSH2 0x12C7 JUMP JUMPDEST PUSH1 0x20 MUL PUSH1 0x20 ADD ADD MLOAD PUSH1 0x1 PUSH1 0x1 PUSH1 0xA0 SHL SUB AND SUB PUSH2 0xC72 JUMPI SWAP1 POP PUSH2 0xB70 JUMP JUMPDEST PUSH1 0x1 ADD PUSH2 0xC30 JUMP JUMPDEST POP PUSH0 NOT SWAP4 SWAP3 POP POP POP JUMP JUMPDEST PUSH0 DUP3 SLT ISZERO DUP1 ISZERO PUSH2 0xC94 JUMPI POP DUP1 SLOAD DUP3 LT JUMPDEST PUSH2 0xCC9 JUMPI PUSH1 0x40 MLOAD PUSH3 0x461BCD PUSH1 0xE5 SHL DUP2 MSTORE PUSH1 0x20 PUSH1 0x4 DUP3 ADD MSTORE PUSH1 0x6 PUSH1 0x24 DUP3 ADD MSTORE PUSH6 0x9CDE40D2C8F PUSH1 0xD3 SHL PUSH1 0x44 DUP3 ADD MSTORE PUSH1 0x64 ADD PUSH2 0x23E JUMP JUMPDEST DUP2 JUMPDEST DUP2 SLOAD PUSH2 0xCD9 SWAP1 PUSH1 0x1 SWAP1 PUSH2 0x12EF JUMP JUMPDEST DUP2 LT ISZERO PUSH2 0xD59 JUMPI DUP2 PUSH2 0xCEC DUP3 PUSH1 0x1 PUSH2 0x1302 JUMP JUMPDEST DUP2 SLOAD DUP2 LT PUSH2 0xCFC JUMPI PUSH2 0xCFC PUSH2 0x12C7 JUMP JUMPDEST SWAP1 PUSH0 MSTORE PUSH1 0x20 PUSH0 KECCAK256 ADD PUSH0 SWAP1 SLOAD SWAP1 PUSH2 0x100 EXP SWAP1 DIV PUSH1 0x1 PUSH1 0x1 PUSH1 0xA0 SHL SUB AND DUP3 DUP3 DUP2 SLOAD DUP2 LT PUSH2 0xD29 JUMPI PUSH2 0xD29 PUSH2 0x12C7 JUMP JUMPDEST PUSH0 SWAP2 DUP3 MSTORE PUSH1 0x20 SWAP1 SWAP2 KECCAK256 ADD DUP1 SLOAD PUSH1 0x1 PUSH1 0x1 PUSH1 0xA0 SHL SUB NOT AND PUSH1 0x1 PUSH1 0x1 PUSH1 0xA0 SHL SUB SWAP3 SWAP1 SWAP3 AND SWAP2 SWAP1 SWAP2 OR SWAP1 SSTORE PUSH1 0x1 ADD PUSH2 0xCCB JUMP JUMPDEST POP DUP1 DUP1 SLOAD DUP1 PUSH2 0xD6A JUMPI PUSH2 0xD6A PUSH2 0x1315 JUMP JUMPDEST PUSH0 DUP3 DUP2 MSTORE PUSH1 0x20 SWAP1 KECCAK256 DUP2 ADD PUSH0 NOT SWAP1 DUP2 ADD DUP1 SLOAD PUSH1 0x1 PUSH1 0x1 PUSH1 0xA0 SHL SUB NOT AND SWAP1 SSTORE ADD SWAP1 SSTORE POP POP JUMP JUMPDEST PUSH2 0x16DF DUP1 PUSH2 0x132A DUP4 CODECOPY ADD SWAP1 JUMP JUMPDEST PUSH2 0x135D DUP1 PUSH2 0x2A09 DUP4 CODECOPY ADD SWAP1 JUMP JUMPDEST PUSH2 0x165A DUP1 PUSH2 0x3D66 DUP4 CODECOPY ADD SWAP1 JUMP JUMPDEST PUSH4 0x4E487B71 PUSH1 0xE0 SHL PUSH0 MSTORE PUSH1 0x41 PUSH1 0x4 MSTORE PUSH1 0x24 PUSH0 REVERT JUMPDEST PUSH0 DUP3 PUSH1 0x1F DUP4 ADD SLT PUSH2 0xDD8 JUMPI PUSH0 DUP1 REVERT JUMPDEST DUP2 CALLDATALOAD PUSH8 0xFFFFFFFFFFFFFFFF DUP2 GT ISZERO PUSH2 0xDF2 JUMPI PUSH2 0xDF2 PUSH2 0xDB5 JUMP JUMPDEST PUSH1 0x40 MLOAD PUSH1 0x1F DUP3 ADD PUSH1 0x1F NOT SWAP1 DUP2 AND PUSH1 0x3F ADD AND DUP2 ADD PUSH8 0xFFFFFFFFFFFFFFFF DUP2 GT DUP3 DUP3 LT OR ISZERO PUSH2 0xE21 JUMPI PUSH2 0xE21 PUSH2 0xDB5 JUMP JUMPDEST PUSH1 0x40 MSTORE DUP2 DUP2 MSTORE DUP4 DUP3 ADD PUSH1 0x20 ADD DUP6 LT ISZERO PUSH2 0xE38 JUMPI PUSH0 DUP1 REVERT JUMPDEST DUP2 PUSH1 0x20 DUP6 ADD PUSH1 0x20 DUP4 ADD CALLDATACOPY PUSH0 SWAP2 DUP2 ADD PUSH1 0x20 ADD SWAP2 SWAP1 SWAP2 MSTORE SWAP4 SWAP3 POP POP POP JUMP JUMPDEST DUP1 CALLDATALOAD PUSH2 0xFFFF DUP2 AND DUP2 EQ PUSH2 0x60D JUMPI PUSH0 DUP1 REVERT JUMPDEST PUSH0 DUP1 PUSH0 DUP1 PUSH0 PUSH1 0xA0 DUP7 DUP9 SUB SLT ISZERO PUSH2 0xE79 JUMPI PUSH0 DUP1 REVERT JUMPDEST DUP6 CALLDATALOAD PUSH8 0xFFFFFFFFFFFFFFFF DUP2 GT ISZERO PUSH2 0xE8F JUMPI PUSH0 DUP1 REVERT JUMPDEST PUSH2 0xE9B DUP9 DUP3 DUP10 ADD PUSH2 0xDC9 JUMP JUMPDEST SWAP6 POP POP PUSH1 0x20 DUP7 ADD CALLDATALOAD PUSH8 0xFFFFFFFFFFFFFFFF DUP2 GT ISZERO PUSH2 0xEB7 JUMPI PUSH0 DUP1 REVERT JUMPDEST PUSH2 0xEC3 DUP9 DUP3 DUP10 ADD PUSH2 0xDC9 JUMP JUMPDEST SWAP5 POP POP PUSH1 0x40 DUP7 ADD CALLDATALOAD PUSH8 0xFFFFFFFFFFFFFFFF DUP2 GT ISZERO PUSH2 0xEDF JUMPI PUSH0 DUP1 REVERT JUMPDEST PUSH2 0xEEB DUP9 DUP3 DUP10 ADD PUSH2 0xDC9 JUMP JUMPDEST SWAP4 POP POP PUSH2 0xEFA PUSH1 0x60 DUP8 ADD PUSH2 0xE54 JUMP JUMPDEST SWAP2 POP PUSH2 0xF08 PUSH1 0x80 DUP8 ADD PUSH2 0xE54 JUMP JUMPDEST SWAP1 POP SWAP3 SWAP6 POP SWAP3 SWAP6 SWAP1 SWAP4 POP JUMP JUMPDEST DUP1 CALLDATALOAD PUSH1 0x3 DUP2 LT PUSH2 0x60D JUMPI PUSH0 DUP1 REVERT JUMPDEST PUSH1 0x1 PUSH1 0x1 PUSH1 0xA0 SHL SUB DUP2 AND DUP2 EQ PUSH2 0xF36 JUMPI PUSH0 DUP1 REVERT JUMPDEST POP JUMP JUMPDEST PUSH0 DUP1 PUSH1 0x40 DUP4 DUP6 SUB SLT ISZERO PUSH2 0xF4A JUMPI PUSH0 DUP1 REVERT JUMPDEST PUSH2 0xF53 DUP4 PUSH2 0xF14 JUMP JUMPDEST SWAP2 POP PUSH1 0x20 DUP4 ADD CALLDATALOAD PUSH2 0xF63 DUP2 PUSH2 0xF22 JUMP JUMPDEST DUP1 SWAP2 POP POP SWAP3 POP SWAP3 SWAP1 POP JUMP JUMPDEST PUSH0 PUSH1 0x20 DUP3 DUP5 SUB SLT ISZERO PUSH2 0xF7E JUMPI PUSH0 DUP1 REVERT JUMPDEST POP CALLDATALOAD SWAP2 SWAP1 POP JUMP JUMPDEST PUSH0 DUP1 PUSH1 0x40 DUP4 DUP6 SUB SLT ISZERO PUSH2 0xF96 JUMPI PUSH0 DUP1 REVERT JUMPDEST DUP3 CALLDATALOAD PUSH8 0xFFFFFFFFFFFFFFFF DUP2 GT ISZERO PUSH2 0xFAC JUMPI PUSH0 DUP1 REVERT JUMPDEST PUSH2 0xFB8 DUP6 DUP3 DUP7 ADD PUSH2 0xDC9 JUMP JUMPDEST SWAP3 POP POP PUSH1 0x20 DUP4 ADD CALLDATALOAD PUSH8 0xFFFFFFFFFFFFFFFF DUP2 GT ISZERO PUSH2 0xFD4 JUMPI PUSH0 DUP1 REVERT JUMPDEST PUSH2 0xFE0 DUP6 DUP3 DUP7 ADD PUSH2 0xDC9 JUMP JUMPDEST SWAP2 POP POP SWAP3 POP SWAP3 SWAP1 POP JUMP JUMPDEST PUSH0 PUSH1 0x20 DUP3 DUP5 SUB SLT ISZERO PUSH2 0xFFA JUMPI PUSH0 DUP1 REVERT JUMPDEST PUSH2 0x1003 DUP3 PUSH2 0xF14 JUMP JUMPDEST SWAP4 SWAP3 POP POP POP JUMP JUMPDEST PUSH1 0x20 DUP1 DUP3 MSTORE DUP3 MLOAD DUP3 DUP3 ADD DUP2 SWAP1 MSTORE PUSH0 SWAP2 DUP5 ADD SWAP1 PUSH1 0x40 DUP5 ADD SWAP1 DUP4 JUMPDEST DUP2 DUP2 LT ISZERO PUSH2 0x104A JUMPI DUP4 MLOAD PUSH1 0x1 PUSH1 0x1 PUSH1 0xA0 SHL SUB AND DUP4 MSTORE PUSH1 0x20 SWAP4 DUP5 ADD SWAP4 SWAP1 SWAP3 ADD SWAP2 PUSH1 0x1 ADD PUSH2 0x1023 JUMP JUMPDEST POP SWAP1 SWAP6 SWAP5 POP POP POP POP POP JUMP JUMPDEST PUSH0 DUP1 PUSH0 DUP1 PUSH1 0x80 DUP6 DUP8 SUB SLT ISZERO PUSH2 0x1068 JUMPI PUSH0 DUP1 REVERT JUMPDEST DUP5 CALLDATALOAD PUSH8 0xFFFFFFFFFFFFFFFF DUP2 GT ISZERO PUSH2 0x107E JUMPI PUSH0 DUP1 REVERT JUMPDEST PUSH2 0x108A DUP8 DUP3 DUP9 ADD PUSH2 0xDC9 JUMP JUMPDEST SWAP5 POP POP PUSH1 0x20 DUP6 ADD CALLDATALOAD PUSH8 0xFFFFFFFFFFFFFFFF DUP2 GT ISZERO PUSH2 0x10A6 JUMPI PUSH0 DUP1 REVERT JUMPDEST PUSH2 0x10B2 DUP8 DUP3 DUP9 ADD PUSH2 0xDC9 JUMP JUMPDEST SWAP4 POP POP PUSH1 0x40 DUP6 ADD CALLDATALOAD PUSH8 0xFFFFFFFFFFFFFFFF DUP2 GT ISZERO PUSH2 0x10CE JUMPI PUSH0 DUP1 REVERT JUMPDEST PUSH2 0x10DA DUP8 DUP3 DUP9 ADD PUSH2 0xDC9 JUMP JUMPDEST SWAP3 POP POP PUSH1 0x60 DUP6 ADD CALLDATALOAD PUSH8 0xFFFFFFFFFFFFFFFF DUP2 GT ISZERO PUSH2 0x10F6 JUMPI PUSH0 DUP1 REVERT JUMPDEST PUSH2 0x1102 DUP8 DUP3 DUP9 ADD PUSH2 0xDC9 JUMP JUMPDEST SWAP2 POP POP SWAP3 SWAP6 SWAP2 SWAP5 POP SWAP3 POP JUMP JUMPDEST PUSH0 DUP1 PUSH1 0x40 DUP4 DUP6 SUB SLT ISZERO PUSH2 0x111F JUMPI PUSH0 DUP1 REVERT JUMPDEST DUP3 CALLDATALOAD PUSH2 0x112A DUP2 PUSH2 0xF22 JUMP JUMPDEST SWAP5 PUSH1 0x20 SWAP4 SWAP1 SWAP4 ADD CALLDATALOAD SWAP4 POP POP POP JUMP JUMPDEST PUSH1 0x20 DUP1 DUP3 MSTORE PUSH1 0xA SWAP1 DUP3 ADD MSTORE PUSH10 0x27B7363C9037BBB732B9 PUSH1 0xB1 SHL PUSH1 0x40 DUP3 ADD MSTORE PUSH1 0x60 ADD SWAP1 JUMP JUMPDEST PUSH4 0x4E487B71 PUSH1 0xE0 SHL PUSH0 MSTORE PUSH1 0x21 PUSH1 0x4 MSTORE PUSH1 0x24 PUSH0 REVERT JUMPDEST PUSH0 DUP2 MLOAD DUP1 DUP5 MSTORE DUP1 PUSH1 0x20 DUP5 ADD PUSH1 0x20 DUP7 ADD MCOPY PUSH0 PUSH1 0x20 DUP3 DUP7 ADD ADD MSTORE PUSH1 0x20 PUSH1 0x1F NOT PUSH1 0x1F DUP4 ADD AND DUP6 ADD ADD SWAP2 POP POP SWAP3 SWAP2 POP POP JUMP JUMPDEST PUSH1 0xE0 DUP2 MSTORE PUSH0 PUSH2 0x11B0 PUSH1 0xE0 DUP4 ADD DUP11 PUSH2 0x1170 JUMP JUMPDEST DUP3 DUP2 SUB PUSH1 0x20 DUP5 ADD MSTORE PUSH2 0x11C2 DUP2 DUP11 PUSH2 0x1170 JUMP JUMPDEST SWAP1 POP DUP3 DUP2 SUB PUSH1 0x40 DUP5 ADD MSTORE PUSH2 0x11D6 DUP2 DUP10 PUSH2 0x1170 JUMP JUMPDEST PUSH2 0xFFFF SWAP8 DUP9 AND PUSH1 0x60 DUP6 ADD MSTORE SWAP6 SWAP1 SWAP7 AND PUSH1 0x80 DUP4 ADD MSTORE POP PUSH1 0x1 PUSH1 0x1 PUSH1 0xA0 SHL SUB SWAP3 DUP4 AND PUSH1 0xA0 DUP3 ADD MSTORE SWAP2 AND PUSH1 0xC0 SWAP1 SWAP2 ADD MSTORE SWAP5 SWAP4 POP POP POP POP JUMP JUMPDEST PUSH1 0x80 DUP2 MSTORE PUSH0 PUSH2 0x121D PUSH1 0x80 DUP4 ADD DUP8 PUSH2 0x1170 JUMP JUMPDEST DUP3 DUP2 SUB PUSH1 0x20 DUP5 ADD MSTORE PUSH2 0x122F DUP2 DUP8 PUSH2 0x1170 JUMP JUMPDEST PUSH1 0x1 PUSH1 0x1 PUSH1 0xA0 SHL SUB SWAP6 DUP7 AND PUSH1 0x40 DUP6 ADD MSTORE SWAP4 SWAP1 SWAP5 AND PUSH1 0x60 SWAP1 SWAP3 ADD SWAP2 SWAP1 SWAP2 MSTORE POP SWAP4 SWAP3 POP POP POP JUMP JUMPDEST PUSH1 0xC0 DUP2 MSTORE PUSH0 PUSH2 0x1266 PUSH1 0xC0 DUP4 ADD DUP10 PUSH2 0x1170 JUMP JUMPDEST DUP3 DUP2 SUB PUSH1 0x20 DUP5 ADD MSTORE PUSH2 0x1278 DUP2 DUP10 PUSH2 0x1170 JUMP JUMPDEST SWAP1 POP DUP3 DUP2 SUB PUSH1 0x40 DUP5 ADD MSTORE PUSH2 0x128C DUP2 DUP9 PUSH2 0x1170 JUMP JUMPDEST SWAP1 POP DUP3 DUP2 SUB PUSH1 0x60 DUP5 ADD MSTORE PUSH2 0x12A0 DUP2 DUP8 PUSH2 0x1170 JUMP JUMPDEST PUSH1 0x1 PUSH1 0x1 PUSH1 0xA0 SHL SUB SWAP6 DUP7 AND PUSH1 0x80 DUP6 ADD MSTORE SWAP4 SWAP1 SWAP5 AND PUSH1 0xA0 SWAP1 SWAP3 ADD SWAP2 SWAP1 SWAP2 MSTORE POP SWAP6 SWAP5 POP POP POP POP POP JUMP JUMPDEST PUSH4 0x4E487B71 PUSH1 0xE0 SHL PUSH0 MSTORE PUSH1 0x32 PUSH1 0x4 MSTORE PUSH1 0x24 PUSH0 REVERT JUMPDEST PUSH4 0x4E487B71 PUSH1 0xE0 SHL PUSH0 MSTORE PUSH1 0x11 PUSH1 0x4 MSTORE PUSH1 0x24 PUSH0 REVERT JUMPDEST DUP2 DUP2 SUB DUP2 DUP2 GT ISZERO PUSH2 0xB70 JUMPI PUSH2 0xB70 PUSH2 0x12DB JUMP JUMPDEST DUP1 DUP3 ADD DUP1 DUP3 GT ISZERO PUSH2 0xB70 JUMPI PUSH2 0xB70 PUSH2 0x12DB JUMP JUMPDEST PUSH4 0x4E487B71 PUSH1 0xE0 SHL PUSH0 MSTORE PUSH1 0x31 PUSH1 0x4 MSTORE PUSH1 0x24 PUSH0 REVERT INVALID PUSH1 0x80 PUSH1 0x40 MSTORE CALLVALUE DUP1 ISZERO PUSH2 0xF JUMPI PUSH0 DUP1 REVERT JUMPDEST POP PUSH1 0x40 MLOAD PUSH2 0x16DF CODESIZE SUB DUP1 PUSH2 0x16DF DUP4 CODECOPY DUP2 ADD PUSH1 0x40 DUP2 SWAP1 MSTORE PUSH2 0x2E SWAP2 PUSH2 0x1DC JUMP JUMPDEST DUP7 PUSH1 0x1 DUP4 DUP4 PUSH0 PUSH2 0x3E DUP6 DUP3 PUSH2 0x330 JUMP JUMPDEST POP PUSH1 0x1 DUP1 SLOAD DUP5 SWAP2 SWAP1 PUSH1 0xFF NOT AND DUP2 DUP4 PUSH1 0x2 DUP2 GT ISZERO PUSH2 0x5D JUMPI PUSH2 0x5D PUSH2 0x3EA JUMP JUMPDEST MUL OR SWAP1 SSTORE POP PUSH1 0x1 DUP1 SLOAD PUSH2 0x100 PUSH1 0x1 PUSH1 0xA8 SHL SUB NOT AND PUSH2 0x100 PUSH1 0x1 PUSH1 0x1 PUSH1 0xA0 SHL SUB SWAP5 DUP6 AND MUL OR SWAP1 SSTORE PUSH1 0x2 DUP1 SLOAD PUSH1 0x1 PUSH1 0x1 PUSH1 0xA0 SHL SUB NOT AND SWAP2 SWAP1 SWAP3 AND OR SWAP1 SSTORE POP PUSH1 0x4 SWAP1 POP PUSH2 0xA7 DUP8 DUP3 PUSH2 0x330 JUMP JUMPDEST POP PUSH1 0x5 PUSH2 0xB4 DUP7 DUP3 PUSH2 0x330 JUMP JUMPDEST POP PUSH1 0x6 DUP1 SLOAD PUSH2 0xFFFF DUP6 DUP2 AND PUSH3 0x10000 MUL PUSH4 0xFFFFFFFF NOT SWAP1 SWAP3 AND SWAP1 DUP8 AND OR OR SWAP1 SSTORE PUSH1 0x40 MLOAD CALLER DUP2 MSTORE PUSH32 0x1449ABF21E49FD025F33495E77F7B1461CAEFDD3D4BB646424A3F445C4576A5B SWAP1 PUSH1 0x20 ADD PUSH1 0x40 MLOAD DUP1 SWAP2 SUB SWAP1 LOG1 POP POP POP POP POP POP POP PUSH2 0x3FE JUMP JUMPDEST PUSH4 0x4E487B71 PUSH1 0xE0 SHL PUSH0 MSTORE PUSH1 0x41 PUSH1 0x4 MSTORE PUSH1 0x24 PUSH0 REVERT JUMPDEST PUSH0 DUP3 PUSH1 0x1F DUP4 ADD SLT PUSH2 0x136 JUMPI PUSH0 DUP1 REVERT JUMPDEST DUP2 MLOAD PUSH1 0x1 PUSH1 0x1 PUSH1 0x40 SHL SUB DUP2 GT ISZERO PUSH2 0x14F JUMPI PUSH2 0x14F PUSH2 0x113 JUMP JUMPDEST PUSH1 0x40 MLOAD PUSH1 0x1F DUP3 ADD PUSH1 0x1F NOT SWAP1 DUP2 AND PUSH1 0x3F ADD AND DUP2 ADD PUSH1 0x1 PUSH1 0x1 PUSH1 0x40 SHL SUB DUP2 GT DUP3 DUP3 LT OR ISZERO PUSH2 0x17D JUMPI PUSH2 0x17D PUSH2 0x113 JUMP JUMPDEST PUSH1 0x40 MSTORE DUP2 DUP2 MSTORE DUP4 DUP3 ADD PUSH1 0x20 ADD DUP6 LT ISZERO PUSH2 0x194 JUMPI PUSH0 DUP1 REVERT JUMPDEST DUP2 PUSH1 0x20 DUP6 ADD PUSH1 0x20 DUP4 ADD MCOPY PUSH0 SWAP2 DUP2 ADD PUSH1 0x20 ADD SWAP2 SWAP1 SWAP2 MSTORE SWAP4 SWAP3 POP POP POP JUMP JUMPDEST DUP1 MLOAD PUSH2 0xFFFF DUP2 AND DUP2 EQ PUSH2 0x1C1 JUMPI PUSH0 DUP1 REVERT JUMPDEST SWAP2 SWAP1 POP JUMP JUMPDEST DUP1 MLOAD PUSH1 0x1 PUSH1 0x1 PUSH1 0xA0 SHL SUB DUP2 AND DUP2 EQ PUSH2 0x1C1 JUMPI PUSH0 DUP1 REVERT JUMPDEST PUSH0 DUP1 PUSH0 DUP1 PUSH0 DUP1 PUSH0 PUSH1 0xE0 DUP9 DUP11 SUB SLT ISZERO PUSH2 0x1F2 JUMPI PUSH0 DUP1 REVERT JUMPDEST DUP8 MLOAD PUSH1 0x1 PUSH1 0x1 PUSH1 0x40 SHL SUB DUP2 GT ISZERO PUSH2 0x207 JUMPI PUSH0 DUP1 REVERT JUMPDEST PUSH2 0x213 DUP11 DUP3 DUP12 ADD PUSH2 0x127 JUMP JUMPDEST PUSH1 0x20 DUP11 ADD MLOAD SWAP1 SWAP9 POP SWAP1 POP PUSH1 0x1 PUSH1 0x1 PUSH1 0x40 SHL SUB DUP2 GT ISZERO PUSH2 0x230 JUMPI PUSH0 DUP1 REVERT JUMPDEST PUSH2 0x23C DUP11 DUP3 DUP12 ADD PUSH2 0x127 JUMP JUMPDEST PUSH1 0x40 DUP11 ADD MLOAD SWAP1 SWAP8 POP SWAP1 POP PUSH1 0x1 PUSH1 0x1 PUSH1 0x40 SHL SUB DUP2 GT ISZERO PUSH2 0x259 JUMPI PUSH0 DUP1 REVERT JUMPDEST PUSH2 0x265 DUP11 DUP3 DUP12 ADD PUSH2 0x127 JUMP JUMPDEST SWAP6 POP POP PUSH2 0x274 PUSH1 0x60 DUP10 ADD PUSH2 0x1B0 JUMP JUMPDEST SWAP4 POP PUSH2 0x282 PUSH1 0x80 DUP10 ADD PUSH2 0x1B0 JUMP JUMPDEST SWAP3 POP PUSH2 0x290 PUSH1 0xA0 DUP10 ADD PUSH2 0x1C6 JUMP JUMPDEST SWAP2 POP PUSH2 0x29E PUSH1 0xC0 DUP10 ADD PUSH2 0x1C6 JUMP JUMPDEST SWAP1 POP SWAP3 SWAP6 SWAP9 SWAP2 SWAP5 SWAP8 POP SWAP3 SWAP6 POP JUMP JUMPDEST PUSH1 0x1 DUP2 DUP2 SHR SWAP1 DUP3 AND DUP1 PUSH2 0x2C0 JUMPI PUSH1 0x7F DUP3 AND SWAP2 POP JUMPDEST PUSH1 0x20 DUP3 LT DUP2 SUB PUSH2 0x2DE JUMPI PUSH4 0x4E487B71 PUSH1 0xE0 SHL PUSH0 MSTORE PUSH1 0x22 PUSH1 0x4 MSTORE PUSH1 0x24 PUSH0 REVERT JUMPDEST POP SWAP2 SWAP1 POP JUMP JUMPDEST PUSH1 0x1F DUP3 GT ISZERO PUSH2 0x32B JUMPI DUP1 PUSH0 MSTORE PUSH1 0x20 PUSH0 KECCAK256 PUSH1 0x1F DUP5 ADD PUSH1 0x5 SHR DUP2 ADD PUSH1 0x20 DUP6 LT ISZERO PUSH2 0x309 JUMPI POP DUP1 JUMPDEST PUSH1 0x1F DUP5 ADD PUSH1 0x5 SHR DUP3 ADD SWAP2 POP JUMPDEST DUP2 DUP2 LT ISZERO PUSH2 0x328 JUMPI PUSH0 DUP2 SSTORE PUSH1 0x1 ADD PUSH2 0x315 JUMP JUMPDEST POP POP JUMPDEST POP POP POP JUMP JUMPDEST DUP2 MLOAD PUSH1 0x1 PUSH1 0x1 PUSH1 0x40 SHL SUB DUP2 GT ISZERO PUSH2 0x349 JUMPI PUSH2 0x349 PUSH2 0x113 JUMP JUMPDEST PUSH2 0x35D DUP2 PUSH2 0x357 DUP5 SLOAD PUSH2 0x2AC JUMP JUMPDEST DUP5 PUSH2 0x2E4 JUMP JUMPDEST PUSH1 0x20 PUSH1 0x1F DUP3 GT PUSH1 0x1 DUP2 EQ PUSH2 0x38F JUMPI PUSH0 DUP4 ISZERO PUSH2 0x378 JUMPI POP DUP5 DUP3 ADD MLOAD JUMPDEST PUSH0 NOT PUSH1 0x3 DUP6 SWAP1 SHL SHR NOT AND PUSH1 0x1 DUP5 SWAP1 SHL OR DUP5 SSTORE PUSH2 0x328 JUMP JUMPDEST PUSH0 DUP5 DUP2 MSTORE PUSH1 0x20 DUP2 KECCAK256 PUSH1 0x1F NOT DUP6 AND SWAP2 JUMPDEST DUP3 DUP2 LT ISZERO PUSH2 0x3BE JUMPI DUP8 DUP6 ADD MLOAD DUP3 SSTORE PUSH1 0x20 SWAP5 DUP6 ADD SWAP5 PUSH1 0x1 SWAP1 SWAP3 ADD SWAP2 ADD PUSH2 0x39E JUMP JUMPDEST POP DUP5 DUP3 LT ISZERO PUSH2 0x3DB JUMPI DUP7 DUP5 ADD MLOAD PUSH0 NOT PUSH1 0x3 DUP8 SWAP1 SHL PUSH1 0xF8 AND SHR NOT AND DUP2 SSTORE JUMPDEST POP POP POP POP PUSH1 0x1 SWAP1 DUP2 SHL ADD SWAP1 SSTORE POP JUMP JUMPDEST PUSH4 0x4E487B71 PUSH1 0xE0 SHL PUSH0 MSTORE PUSH1 0x21 PUSH1 0x4 MSTORE PUSH1 0x24 PUSH0 REVERT JUMPDEST PUSH2 0x12D4 DUP1 PUSH2 0x40B PUSH0 CODECOPY PUSH0 RETURN INVALID PUSH1 0x80 PUSH1 0x40 MSTORE CALLVALUE DUP1 ISZERO PUSH2 0xF JUMPI PUSH0 DUP1 REVERT JUMPDEST POP PUSH1 0x4 CALLDATASIZE LT PUSH2 0xF0 JUMPI PUSH0 CALLDATALOAD PUSH1 0xE0 SHR DUP1 PUSH4 0x80F76021 GT PUSH2 0x93 JUMPI DUP1 PUSH4 0xC40DA770 GT PUSH2 0x63 JUMPI DUP1 PUSH4 0xC40DA770 EQ PUSH2 0x1E1 JUMPI DUP1 PUSH4 0xC47F0027 EQ PUSH2 0x1F4 JUMPI DUP1 PUSH4 0xDED92DAC EQ PUSH2 0x207 JUMPI DUP1 PUSH4 0xEFD8AF9F EQ PUSH2 0x21A JUMPI PUSH0 DUP1 REVERT JUMPDEST DUP1 PUSH4 0x80F76021 EQ PUSH2 0x18B JUMPI DUP1 PUSH4 0xA95264D0 EQ PUSH2 0x1AB JUMPI DUP1 PUSH4 0xB9DAF3E2 EQ PUSH2 0x1C0 JUMPI DUP1 PUSH4 0xBA379E86 EQ PUSH2 0x1C8 JUMPI PUSH0 DUP1 REVERT JUMPDEST DUP1 PUSH4 0x40AA5C71 GT PUSH2 0xCE JUMPI DUP1 PUSH4 0x40AA5C71 EQ PUSH2 0x13A JUMPI DUP1 PUSH4 0x478E5CB3 EQ PUSH2 0x14D JUMPI DUP1 PUSH4 0x4BA83374 EQ PUSH2 0x160 JUMPI DUP1 PUSH4 0x5DA6EF8D EQ PUSH2 0x178 JUMPI PUSH0 DUP1 REVERT JUMPDEST DUP1 PUSH4 0xDBEF92C EQ PUSH2 0xF4 JUMPI DUP1 PUSH4 0x1499C592 EQ PUSH2 0x109 JUMPI DUP1 PUSH4 0x2858D3C8 EQ PUSH2 0x11C JUMPI JUMPDEST PUSH0 DUP1 REVERT JUMPDEST PUSH2 0x107 PUSH2 0x102 CALLDATASIZE PUSH1 0x4 PUSH2 0xE7C JUMP JUMPDEST PUSH2 0x22D JUMP JUMPDEST STOP JUMPDEST PUSH2 0x107 PUSH2 0x117 CALLDATASIZE PUSH1 0x4 PUSH2 0xEB6 JUMP JUMPDEST PUSH2 0x2AB JUMP JUMPDEST PUSH2 0x124 PUSH2 0x327 JUMP JUMPDEST PUSH1 0x40 MLOAD PUSH2 0x131 SWAP2 SWAP1 PUSH2 0xEE3 JUMP JUMPDEST PUSH1 0x40 MLOAD DUP1 SWAP2 SUB SWAP1 RETURN JUMPDEST PUSH2 0x107 PUSH2 0x148 CALLDATASIZE PUSH1 0x4 PUSH2 0xF1F JUMP JUMPDEST PUSH2 0x377 JUMP JUMPDEST PUSH2 0x107 PUSH2 0x15B CALLDATASIZE PUSH1 0x4 PUSH2 0xF38 JUMP JUMPDEST PUSH2 0x3E9 JUMP JUMPDEST PUSH2 0x168 PUSH2 0x499 JUMP JUMPDEST PUSH1 0x40 MLOAD SWAP1 ISZERO ISZERO DUP2 MSTORE PUSH1 0x20 ADD PUSH2 0x131 JUMP JUMPDEST PUSH2 0x107 PUSH2 0x186 CALLDATASIZE PUSH1 0x4 PUSH2 0xEB6 JUMP JUMPDEST PUSH2 0x505 JUMP JUMPDEST PUSH2 0x193 PUSH2 0x668 JUMP JUMPDEST PUSH1 0x40 MLOAD PUSH1 0x1 PUSH1 0x1 PUSH1 0xA0 SHL SUB SWAP1 SWAP2 AND DUP2 MSTORE PUSH1 0x20 ADD PUSH2 0x131 JUMP JUMPDEST PUSH2 0x1B3 PUSH2 0x6BE JUMP JUMPDEST PUSH1 0x40 MLOAD PUSH2 0x131 SWAP2 SWAP1 PUSH2 0xFE7 JUMP JUMPDEST PUSH2 0x168 PUSH2 0x763 JUMP JUMPDEST PUSH2 0x1D0 PUSH2 0x792 JUMP JUMPDEST PUSH1 0x40 MLOAD PUSH2 0x131 SWAP6 SWAP5 SWAP4 SWAP3 SWAP2 SWAP1 PUSH2 0x1060 JUMP JUMPDEST PUSH2 0x107 PUSH2 0x1EF CALLDATASIZE PUSH1 0x4 PUSH2 0xF1F JUMP JUMPDEST PUSH2 0xA2F JUMP JUMPDEST PUSH2 0x107 PUSH2 0x202 CALLDATASIZE PUSH1 0x4 PUSH2 0xE7C JUMP JUMPDEST PUSH2 0xAA8 JUMP JUMPDEST PUSH2 0x107 PUSH2 0x215 CALLDATASIZE PUSH1 0x4 PUSH2 0xEB6 JUMP JUMPDEST PUSH2 0xAF7 JUMP JUMPDEST PUSH2 0x107 PUSH2 0x228 CALLDATASIZE PUSH1 0x4 PUSH2 0xE7C JUMP JUMPDEST PUSH2 0xC2A JUMP JUMPDEST PUSH1 0x1 SLOAD PUSH2 0x100 SWAP1 DIV PUSH1 0x1 PUSH1 0x1 PUSH1 0xA0 SHL SUB AND CALLER EQ DUP1 PUSH2 0x255 JUMPI POP PUSH1 0x2 SLOAD PUSH1 0x1 PUSH1 0x1 PUSH1 0xA0 SHL SUB AND CALLER EQ JUMPDEST PUSH2 0x27A JUMPI PUSH1 0x40 MLOAD PUSH3 0x461BCD PUSH1 0xE5 SHL DUP2 MSTORE PUSH1 0x4 ADD PUSH2 0x271 SWAP1 PUSH2 0x10B9 JUMP JUMPDEST PUSH1 0x40 MLOAD DUP1 SWAP2 SUB SWAP1 REVERT JUMPDEST PUSH1 0x5 PUSH2 0x286 DUP3 DUP3 PUSH2 0x1161 JUMP JUMPDEST POP PUSH1 0x40 MLOAD CALLER DUP2 MSTORE PUSH0 DUP1 MLOAD PUSH1 0x20 PUSH2 0x127F DUP4 CODECOPY DUP2 MLOAD SWAP2 MSTORE SWAP1 PUSH1 0x20 ADD JUMPDEST PUSH1 0x40 MLOAD DUP1 SWAP2 SUB SWAP1 LOG1 POP JUMP JUMPDEST PUSH1 0x1 SLOAD PUSH2 0x100 SWAP1 DIV PUSH1 0x1 PUSH1 0x1 PUSH1 0xA0 SHL SUB AND CALLER EQ DUP1 PUSH2 0x2D3 JUMPI POP PUSH1 0x2 SLOAD PUSH1 0x1 PUSH1 0x1 PUSH1 0xA0 SHL SUB AND CALLER EQ JUMPDEST PUSH2 0x2EF JUMPI PUSH1 0x40 MLOAD PUSH3 0x461BCD PUSH1 0xE5 SHL DUP2 MSTORE PUSH1 0x4 ADD PUSH2 0x271 SWAP1 PUSH2 0x10B9 JUMP JUMPDEST PUSH1 0x2 DUP1 SLOAD PUSH1 0x1 PUSH1 0x1 PUSH1 0xA0 SHL SUB NOT AND PUSH1 0x1 PUSH1 0x1 PUSH1 0xA0 SHL SUB DUP4 AND OR SWAP1 SSTORE PUSH1 0x40 MLOAD CALLER DUP2 MSTORE PUSH0 DUP1 MLOAD PUSH1 0x20 PUSH2 0x127F DUP4 CODECOPY DUP2 MLOAD SWAP2 MSTORE SWAP1 PUSH1 0x20 ADD PUSH2 0x2A0 JUMP JUMPDEST PUSH1 0x1 SLOAD PUSH0 SWAP1 PUSH2 0x100 SWAP1 DIV PUSH1 0x1 PUSH1 0x1 PUSH1 0xA0 SHL SUB AND CALLER EQ DUP1 PUSH2 0x351 JUMPI POP PUSH1 0x2 SLOAD PUSH1 0x1 PUSH1 0x1 PUSH1 0xA0 SHL SUB AND CALLER EQ JUMPDEST PUSH2 0x36D JUMPI PUSH1 0x40 MLOAD PUSH3 0x461BCD PUSH1 0xE5 SHL DUP2 MSTORE PUSH1 0x4 ADD PUSH2 0x271 SWAP1 PUSH2 0x10B9 JUMP JUMPDEST POP PUSH1 0x1 SLOAD PUSH1 0xFF AND SWAP1 JUMP JUMPDEST PUSH1 0x1 SLOAD PUSH2 0x100 SWAP1 DIV PUSH1 0x1 PUSH1 0x1 PUSH1 0xA0 SHL SUB AND CALLER EQ DUP1 PUSH2 0x39F JUMPI POP PUSH1 0x2 SLOAD PUSH1 0x1 PUSH1 0x1 PUSH1 0xA0 SHL SUB AND CALLER EQ JUMPDEST PUSH2 0x3BB JUMPI PUSH1 0x40 MLOAD PUSH3 0x461BCD PUSH1 0xE5 SHL DUP2 MSTORE PUSH1 0x4 ADD PUSH2 0x271 SWAP1 PUSH2 0x10B9 JUMP JUMPDEST PUSH1 0x6 DUP1 SLOAD PUSH2 0xFFFF NOT AND PUSH2 0xFFFF DUP4 AND OR SWAP1 SSTORE PUSH1 0x40 MLOAD CALLER DUP2 MSTORE PUSH0 DUP1 MLOAD PUSH1 0x20 PUSH2 0x127F DUP4 CODECOPY DUP2 MLOAD SWAP2 MSTORE SWAP1 PUSH1 0x20 ADD PUSH2 0x2A0 JUMP JUMPDEST PUSH1 0x1 SLOAD PUSH2 0x100 SWAP1 DIV PUSH1 0x1 PUSH1 0x1 PUSH1 0xA0 SHL SUB AND CALLER EQ DUP1 PUSH2 0x411 JUMPI POP PUSH1 0x2 SLOAD PUSH1 0x1 PUSH1 0x1 PUSH1 0xA0 SHL SUB AND CALLER EQ JUMPDEST PUSH2 0x42D JUMPI PUSH1 0x40 MLOAD PUSH3 0x461BCD PUSH1 0xE5 SHL DUP2 MSTORE PUSH1 0x4 ADD PUSH2 0x271 SWAP1 PUSH2 0x10B9 JUMP JUMPDEST PUSH0 PUSH2 0x438 DUP7 DUP3 PUSH2 0x1161 JUMP JUMPDEST POP PUSH1 0x4 PUSH2 0x445 DUP6 DUP3 PUSH2 0x1161 JUMP JUMPDEST POP PUSH1 0x5 PUSH2 0x452 DUP5 DUP3 PUSH2 0x1161 JUMP JUMPDEST POP PUSH1 0x6 DUP1 SLOAD PUSH2 0xFFFF DUP4 DUP2 AND PUSH3 0x10000 MUL PUSH4 0xFFFFFFFF NOT SWAP1 SWAP3 AND SWAP1 DUP6 AND OR OR SWAP1 SSTORE PUSH1 0x40 MLOAD CALLER DUP2 MSTORE PUSH0 DUP1 MLOAD PUSH1 0x20 PUSH2 0x127F DUP4 CODECOPY DUP2 MLOAD SWAP2 MSTORE SWAP1 PUSH1 0x20 ADD PUSH1 0x40 MLOAD DUP1 SWAP2 SUB SWAP1 LOG1 POP POP POP POP POP JUMP JUMPDEST PUSH0 PUSH2 0x4FC CALLER PUSH1 0x3 DUP1 SLOAD DUP1 PUSH1 0x20 MUL PUSH1 0x20 ADD PUSH1 0x40 MLOAD SWAP1 DUP2 ADD PUSH1 0x40 MSTORE DUP1 SWAP3 SWAP2 SWAP1 DUP2 DUP2 MSTORE PUSH1 0x20 ADD DUP3 DUP1 SLOAD DUP1 ISZERO PUSH2 0x4F2 JUMPI PUSH1 0x20 MUL DUP3 ADD SWAP2 SWAP1 PUSH0 MSTORE PUSH1 0x20 PUSH0 KECCAK256 SWAP1 JUMPDEST DUP2 SLOAD PUSH1 0x1 PUSH1 0x1 PUSH1 0xA0 SHL SUB AND DUP2 MSTORE PUSH1 0x1 SWAP1 SWAP2 ADD SWAP1 PUSH1 0x20 ADD DUP1 DUP4 GT PUSH2 0x4D4 JUMPI JUMPDEST POP POP POP POP POP PUSH2 0xC7A JUMP JUMPDEST PUSH0 NOT EQ ISZERO SWAP1 POP SWAP1 JUMP JUMPDEST PUSH1 0x1 SLOAD PUSH2 0x100 SWAP1 DIV PUSH1 0x1 PUSH1 0x1 PUSH1 0xA0 SHL SUB AND CALLER EQ DUP1 PUSH2 0x52D JUMPI POP PUSH1 0x2 SLOAD PUSH1 0x1 PUSH1 0x1 PUSH1 0xA0 SHL SUB AND CALLER EQ JUMPDEST PUSH2 0x549 JUMPI PUSH1 0x40 MLOAD PUSH3 0x461BCD PUSH1 0xE5 SHL DUP2 MSTORE PUSH1 0x4 ADD PUSH2 0x271 SWAP1 PUSH2 0x10B9 JUMP JUMPDEST PUSH1 0x1 SLOAD PUSH1 0x1 PUSH1 0x1 PUSH1 0xA0 SHL SUB DUP3 DUP2 AND PUSH2 0x100 SWAP1 SWAP3 DIV AND EQ DUP1 ISZERO SWAP1 PUSH2 0x574 JUMPI POP PUSH1 0x1 PUSH1 0x1 PUSH1 0xA0 SHL SUB DUP2 AND ISZERO ISZERO JUMPDEST DUP1 ISZERO PUSH2 0x5DF JUMPI POP PUSH2 0x5DB DUP2 PUSH1 0x3 DUP1 SLOAD DUP1 PUSH1 0x20 MUL PUSH1 0x20 ADD PUSH1 0x40 MLOAD SWAP1 DUP2 ADD PUSH1 0x40 MSTORE DUP1 SWAP3 SWAP2 SWAP1 DUP2 DUP2 MSTORE PUSH1 0x20 ADD DUP3 DUP1 SLOAD DUP1 ISZERO PUSH2 0x4F2 JUMPI PUSH1 0x20 MUL DUP3 ADD SWAP2 SWAP1 PUSH0 MSTORE PUSH1 0x20 PUSH0 KECCAK256 SWAP1 DUP2 SLOAD PUSH1 0x1 PUSH1 0x1 PUSH1 0xA0 SHL SUB AND DUP2 MSTORE PUSH1 0x1 SWAP1 SWAP2 ADD SWAP1 PUSH1 0x20 ADD DUP1 DUP4 GT PUSH2 0x4D4 JUMPI POP POP POP POP POP PUSH2 0xC7A JUMP JUMPDEST PUSH0 NOT EQ JUMPDEST PUSH2 0x617 JUMPI PUSH1 0x40 MLOAD PUSH3 0x461BCD PUSH1 0xE5 SHL DUP2 MSTORE PUSH1 0x20 PUSH1 0x4 DUP3 ADD MSTORE PUSH1 0x9 PUSH1 0x24 DUP3 ADD MSTORE PUSH9 0x2337B93134B23232B7 PUSH1 0xB9 SHL PUSH1 0x44 DUP3 ADD MSTORE PUSH1 0x64 ADD PUSH2 0x271 JUMP JUMPDEST PUSH1 0x3 DUP1 SLOAD PUSH1 0x1 DUP2 ADD DUP3 SSTORE PUSH0 SWAP2 SWAP1 SWAP2 MSTORE PUSH32 0xC2575A0E9E593C00F959F8C92F12DB2869C3395A3B0502D05E2516446F71F85B ADD DUP1 SLOAD PUSH1 0x1 PUSH1 0x1 PUSH1 0xA0 SHL SUB NOT AND PUSH1 0x1 PUSH1 0x1 PUSH1 0xA0 SHL SUB SWAP3 SWAP1 SWAP3 AND SWAP2 SWAP1 SWAP2 OR SWAP1 SSTORE JUMP JUMPDEST PUSH1 0x1 SLOAD PUSH0 SWAP1 PUSH2 0x100 SWAP1 DIV PUSH1 0x1 PUSH1 0x1 PUSH1 0xA0 SHL SUB AND CALLER EQ DUP1 PUSH2 0x692 JUMPI POP PUSH1 0x2 SLOAD PUSH1 0x1 PUSH1 0x1 PUSH1 0xA0 SHL SUB AND CALLER EQ JUMPDEST PUSH2 0x6AE JUMPI PUSH1 0x40 MLOAD PUSH3 0x461BCD PUSH1 0xE5 SHL DUP2 MSTORE PUSH1 0x4 ADD PUSH2 0x271 SWAP1 PUSH2 0x10B9 JUMP JUMPDEST POP PUSH1 0x2 SLOAD PUSH1 0x1 PUSH1 0x1 PUSH1 0xA0 SHL SUB AND SWAP1 JUMP JUMPDEST PUSH1 0x1 SLOAD PUSH1 0x60 SWAP1 PUSH2 0x100 SWAP1 DIV PUSH1 0x1 PUSH1 0x1 PUSH1 0xA0 SHL SUB AND CALLER EQ DUP1 PUSH2 0x6E9 JUMPI POP PUSH1 0x2 SLOAD PUSH1 0x1 PUSH1 0x1 PUSH1 0xA0 SHL SUB AND CALLER EQ JUMPDEST PUSH2 0x705 JUMPI PUSH1 0x40 MLOAD PUSH3 0x461BCD PUSH1 0xE5 SHL DUP2 MSTORE PUSH1 0x4 ADD PUSH2 0x271 SWAP1 PUSH2 0x10B9 JUMP JUMPDEST PUSH1 0x3 DUP1 SLOAD DUP1 PUSH1 0x20 MUL PUSH1 0x20 ADD PUSH1 0x40 MLOAD SWAP1 DUP2 ADD PUSH1 0x40 MSTORE DUP1 SWAP3 SWAP2 SWAP1 DUP2 DUP2 MSTORE PUSH1 0x20 ADD DUP3 DUP1 SLOAD DUP1 ISZERO PUSH2 0x759 JUMPI PUSH1 0x20 MUL DUP3 ADD SWAP2 SWAP1 PUSH0 MSTORE PUSH1 0x20 PUSH0 KECCAK256 SWAP1 JUMPDEST DUP2 SLOAD PUSH1 0x1 PUSH1 0x1 PUSH1 0xA0 SHL SUB AND DUP2 MSTORE PUSH1 0x1 SWAP1 SWAP2 ADD SWAP1 PUSH1 0x20 ADD DUP1 DUP4 GT PUSH2 0x73B JUMPI JUMPDEST POP POP POP POP POP SWAP1 POP SWAP1 JUMP JUMPDEST PUSH1 0x1 SLOAD PUSH0 SWAP1 PUSH2 0x100 SWAP1 DIV PUSH1 0x1 PUSH1 0x1 PUSH1 0xA0 SHL SUB AND CALLER EQ DUP1 PUSH2 0x78D JUMPI POP PUSH1 0x2 SLOAD PUSH1 0x1 PUSH1 0x1 PUSH1 0xA0 SHL SUB AND CALLER EQ JUMPDEST SWAP1 POP SWAP1 JUMP JUMPDEST PUSH1 0x60 DUP1 PUSH1 0x60 PUSH0 DUP1 PUSH1 0x1 DUP1 SLOAD SWAP1 PUSH2 0x100 EXP SWAP1 DIV PUSH1 0x1 PUSH1 0x1 PUSH1 0xA0 SHL SUB AND PUSH1 0x1 PUSH1 0x1 PUSH1 0xA0 SHL SUB AND CALLER PUSH1 0x1 PUSH1 0x1 PUSH1 0xA0 SHL SUB AND EQ DUP1 PUSH2 0x82C JUMPI POP PUSH2 0x827 CALLER PUSH1 0x3 DUP1 SLOAD DUP1 PUSH1 0x20 MUL PUSH1 0x20 ADD PUSH1 0x40 MLOAD SWAP1 DUP2 ADD PUSH1 0x40 MSTORE DUP1 SWAP3 SWAP2 SWAP1 DUP2 DUP2 MSTORE PUSH1 0x20 ADD DUP3 DUP1 SLOAD DUP1 ISZERO PUSH2 0x4F2 JUMPI PUSH1 0x20 MUL DUP3 ADD SWAP2 SWAP1 PUSH0 MSTORE PUSH1 0x20 PUSH0 KECCAK256 SWAP1 DUP2 SLOAD PUSH1 0x1 PUSH1 0x1 PUSH1 0xA0 SHL SUB AND DUP2 MSTORE PUSH1 0x1 SWAP1 SWAP2 ADD SWAP1 PUSH1 0x20 ADD DUP1 DUP4 GT PUSH2 0x4D4 JUMPI POP POP POP POP POP PUSH2 0xC7A JUMP JUMPDEST PUSH0 NOT EQ ISZERO JUMPDEST PUSH2 0x863 JUMPI PUSH1 0x40 MLOAD PUSH3 0x461BCD PUSH1 0xE5 SHL DUP2 MSTORE PUSH1 0x20 PUSH1 0x4 DUP3 ADD MSTORE PUSH1 0x8 PUSH1 0x24 DUP3 ADD MSTORE PUSH8 0x14995CDD1C9A58DD PUSH1 0xC2 SHL PUSH1 0x44 DUP3 ADD MSTORE PUSH1 0x64 ADD PUSH2 0x271 JUMP JUMPDEST PUSH1 0x6 SLOAD PUSH0 DUP1 SLOAD SWAP1 SWAP2 PUSH1 0x4 SWAP2 PUSH1 0x5 SWAP2 PUSH2 0xFFFF DUP1 DUP3 AND SWAP3 PUSH3 0x10000 SWAP1 SWAP3 DIV AND SWAP1 DUP6 SWAP1 PUSH2 0x88C SWAP1 PUSH2 0x10DD JUMP JUMPDEST DUP1 PUSH1 0x1F ADD PUSH1 0x20 DUP1 SWAP2 DIV MUL PUSH1 0x20 ADD PUSH1 0x40 MLOAD SWAP1 DUP2 ADD PUSH1 0x40 MSTORE DUP1 SWAP3 SWAP2 SWAP1 DUP2 DUP2 MSTORE PUSH1 0x20 ADD DUP3 DUP1 SLOAD PUSH2 0x8B8 SWAP1 PUSH2 0x10DD JUMP JUMPDEST DUP1 ISZERO PUSH2 0x903 JUMPI DUP1 PUSH1 0x1F LT PUSH2 0x8DA JUMPI PUSH2 0x100 DUP1 DUP4 SLOAD DIV MUL DUP4 MSTORE SWAP2 PUSH1 0x20 ADD SWAP2 PUSH2 0x903 JUMP JUMPDEST DUP3 ADD SWAP2 SWAP1 PUSH0 MSTORE PUSH1 0x20 PUSH0 KECCAK256 SWAP1 JUMPDEST DUP2 SLOAD DUP2 MSTORE SWAP1 PUSH1 0x1 ADD SWAP1 PUSH1 0x20 ADD DUP1 DUP4 GT PUSH2 0x8E6 JUMPI DUP3 SWAP1 SUB PUSH1 0x1F AND DUP3 ADD SWAP2 JUMPDEST POP POP POP POP POP SWAP5 POP DUP4 DUP1 SLOAD PUSH2 0x916 SWAP1 PUSH2 0x10DD JUMP JUMPDEST DUP1 PUSH1 0x1F ADD PUSH1 0x20 DUP1 SWAP2 DIV MUL PUSH1 0x20 ADD PUSH1 0x40 MLOAD SWAP1 DUP2 ADD PUSH1 0x40 MSTORE DUP1 SWAP3 SWAP2 SWAP1 DUP2 DUP2 MSTORE PUSH1 0x20 ADD DUP3 DUP1 SLOAD PUSH2 0x942 SWAP1 PUSH2 0x10DD JUMP JUMPDEST DUP1 ISZERO PUSH2 0x98D JUMPI DUP1 PUSH1 0x1F LT PUSH2 0x964 JUMPI PUSH2 0x100 DUP1 DUP4 SLOAD DIV MUL DUP4 MSTORE SWAP2 PUSH1 0x20 ADD SWAP2 PUSH2 0x98D JUMP JUMPDEST DUP3 ADD SWAP2 SWAP1 PUSH0 MSTORE PUSH1 0x20 PUSH0 KECCAK256 SWAP1 JUMPDEST DUP2 SLOAD DUP2 MSTORE SWAP1 PUSH1 0x1 ADD SWAP1 PUSH1 0x20 ADD DUP1 DUP4 GT PUSH2 0x970 JUMPI DUP3 SWAP1 SUB PUSH1 0x1F AND DUP3 ADD SWAP2 JUMPDEST POP POP POP POP POP SWAP4 POP DUP3 DUP1 SLOAD PUSH2 0x9A0 SWAP1 PUSH2 0x10DD JUMP JUMPDEST DUP1 PUSH1 0x1F ADD PUSH1 0x20 DUP1 SWAP2 DIV MUL PUSH1 0x20 ADD PUSH1 0x40 MLOAD SWAP1 DUP2 ADD PUSH1 0x40 MSTORE DUP1 SWAP3 SWAP2 SWAP1 DUP2 DUP2 MSTORE PUSH1 0x20 ADD DUP3 DUP1 SLOAD PUSH2 0x9CC SWAP1 PUSH2 0x10DD JUMP JUMPDEST DUP1 ISZERO PUSH2 0xA17 JUMPI DUP1 PUSH1 0x1F LT PUSH2 0x9EE JUMPI PUSH2 0x100 DUP1 DUP4 SLOAD DIV MUL DUP4 MSTORE SWAP2 PUSH1 0x20 ADD SWAP2 PUSH2 0xA17 JUMP JUMPDEST DUP3 ADD SWAP2 SWAP1 PUSH0 MSTORE PUSH1 0x20 PUSH0 KECCAK256 SWAP1 JUMPDEST DUP2 SLOAD DUP2 MSTORE SWAP1 PUSH1 0x1 ADD SWAP1 PUSH1 0x20 ADD DUP1 DUP4 GT PUSH2 0x9FA JUMPI DUP3 SWAP1 SUB PUSH1 0x1F AND DUP3 ADD SWAP2 JUMPDEST POP POP POP POP POP SWAP3 POP SWAP5 POP SWAP5 POP SWAP5 POP SWAP5 POP SWAP5 POP SWAP1 SWAP2 SWAP3 SWAP4 SWAP5 JUMP JUMPDEST PUSH1 0x1 SLOAD PUSH2 0x100 SWAP1 DIV PUSH1 0x1 PUSH1 0x1 PUSH1 0xA0 SHL SUB AND CALLER EQ DUP1 PUSH2 0xA57 JUMPI POP PUSH1 0x2 SLOAD PUSH1 0x1 PUSH1 0x1 PUSH1 0xA0 SHL SUB AND CALLER EQ JUMPDEST PUSH2 0xA73 JUMPI PUSH1 0x40 MLOAD PUSH3 0x461BCD PUSH1 0xE5 SHL DUP2 MSTORE PUSH1 0x4 ADD PUSH2 0x271 SWAP1 PUSH2 0x10B9 JUMP JUMPDEST PUSH1 0x6 DUP1 SLOAD PUSH4 0xFFFF0000 NOT AND PUSH3 0x10000 PUSH2 0xFFFF DUP5 AND MUL OR SWAP1 SSTORE PUSH1 0x40 MLOAD CALLER DUP2 MSTORE PUSH0 DUP1 MLOAD PUSH1 0x20 PUSH2 0x127F DUP4 CODECOPY DUP2 MLOAD SWAP2 MSTORE SWAP1 PUSH1 0x20 ADD PUSH2 0x2A0 JUMP JUMPDEST PUSH1 0x1 SLOAD PUSH2 0x100 SWAP1 DIV PUSH1 0x1 PUSH1 0x1 PUSH1 0xA0 SHL SUB AND CALLER EQ DUP1 PUSH2 0xAD0 JUMPI POP PUSH1 0x2 SLOAD PUSH1 0x1 PUSH1 0x1 PUSH1 0xA0 SHL SUB AND CALLER EQ JUMPDEST PUSH2 0xAEC JUMPI PUSH1 0x40 MLOAD PUSH3 0x461BCD PUSH1 0xE5 SHL DUP2 MSTORE PUSH1 0x4 ADD PUSH2 0x271 SWAP1 PUSH2 0x10B9 JUMP JUMPDEST PUSH0 PUSH2 0x286 DUP3 DUP3 PUSH2 0x1161 JUMP JUMPDEST PUSH1 0x1 PUSH1 0x1 PUSH1 0xA0 SHL SUB DUP2 AND ISZERO ISZERO DUP1 PUSH2 0xB44 JUMPI POP PUSH1 0x2 SLOAD PUSH1 0x1 PUSH1 0x1 PUSH1 0xA0 SHL SUB AND CALLER EQ DUP1 PUSH2 0xB31 JUMPI POP PUSH1 0x1 SLOAD PUSH2 0x100 SWAP1 DIV PUSH1 0x1 PUSH1 0x1 PUSH1 0xA0 SHL SUB AND CALLER EQ JUMPDEST DUP1 PUSH2 0xB44 JUMPI POP CALLER PUSH1 0x1 PUSH1 0x1 PUSH1 0xA0 SHL SUB DUP3 AND EQ JUMPDEST PUSH2 0xB7C JUMPI PUSH1 0x40 MLOAD PUSH3 0x461BCD PUSH1 0xE5 SHL DUP2 MSTORE PUSH1 0x20 PUSH1 0x4 DUP3 ADD MSTORE PUSH1 0x9 PUSH1 0x24 DUP3 ADD MSTORE PUSH9 0x2337B93134B23232B7 PUSH1 0xB9 SHL PUSH1 0x44 DUP3 ADD MSTORE PUSH1 0x64 ADD PUSH2 0x271 JUMP JUMPDEST PUSH0 PUSH2 0xBDD DUP3 PUSH1 0x3 DUP1 SLOAD DUP1 PUSH1 0x20 MUL PUSH1 0x20 ADD PUSH1 0x40 MLOAD SWAP1 DUP2 ADD PUSH1 0x40 MSTORE DUP1 SWAP3 SWAP2 SWAP1 DUP2 DUP2 MSTORE PUSH1 0x20 ADD DUP3 DUP1 SLOAD DUP1 ISZERO PUSH2 0x4F2 JUMPI PUSH1 0x20 MUL DUP3 ADD SWAP2 SWAP1 PUSH0 MSTORE PUSH1 0x20 PUSH0 KECCAK256 SWAP1 DUP2 SLOAD PUSH1 0x1 PUSH1 0x1 PUSH1 0xA0 SHL SUB AND DUP2 MSTORE PUSH1 0x1 SWAP1 SWAP2 ADD SWAP1 PUSH1 0x20 ADD DUP1 DUP4 GT PUSH2 0x4D4 JUMPI POP POP POP POP POP PUSH2 0xC7A JUMP JUMPDEST SWAP1 POP PUSH0 NOT DUP2 SGT PUSH2 0xC1B JUMPI PUSH1 0x40 MLOAD PUSH3 0x461BCD PUSH1 0xE5 SHL DUP2 MSTORE PUSH1 0x20 PUSH1 0x4 DUP3 ADD MSTORE PUSH1 0x9 PUSH1 0x24 DUP3 ADD MSTORE PUSH9 0x139BDD08199BDD5B99 PUSH1 0xBA SHL PUSH1 0x44 DUP3 ADD MSTORE PUSH1 0x64 ADD PUSH2 0x271 JUMP JUMPDEST PUSH2 0xC26 DUP2 PUSH1 0x3 PUSH2 0xCD3 JUMP JUMPDEST POP POP JUMP JUMPDEST PUSH1 0x1 SLOAD PUSH2 0x100 SWAP1 DIV PUSH1 0x1 PUSH1 0x1 PUSH1 0xA0 SHL SUB AND CALLER EQ DUP1 PUSH2 0xC52 JUMPI POP PUSH1 0x2 SLOAD PUSH1 0x1 PUSH1 0x1 PUSH1 0xA0 SHL SUB AND CALLER EQ JUMPDEST PUSH2 0xC6E JUMPI PUSH1 0x40 MLOAD PUSH3 0x461BCD PUSH1 0xE5 SHL DUP2 MSTORE PUSH1 0x4 ADD PUSH2 0x271 SWAP1 PUSH2 0x10B9 JUMP JUMPDEST PUSH1 0x4 PUSH2 0x286 DUP3 DUP3 PUSH2 0x1161 JUMP JUMPDEST PUSH0 DUP1 JUMPDEST DUP3 MLOAD DUP2 LT ISZERO PUSH2 0xCC7 JUMPI DUP4 PUSH1 0x1 PUSH1 0x1 PUSH1 0xA0 SHL SUB AND DUP4 DUP3 DUP2 MLOAD DUP2 LT PUSH2 0xCA2 JUMPI PUSH2 0xCA2 PUSH2 0x121C JUMP JUMPDEST PUSH1 0x20 MUL PUSH1 0x20 ADD ADD MLOAD PUSH1 0x1 PUSH1 0x1 PUSH1 0xA0 SHL SUB AND SUB PUSH2 0xCBF JUMPI SWAP1 POP PUSH2 0xCCD JUMP JUMPDEST PUSH1 0x1 ADD PUSH2 0xC7D JUMP JUMPDEST POP PUSH0 NOT SWAP1 POP JUMPDEST SWAP3 SWAP2 POP POP JUMP JUMPDEST PUSH0 DUP3 SLT ISZERO DUP1 ISZERO PUSH2 0xCE3 JUMPI POP DUP1 SLOAD DUP3 LT JUMPDEST PUSH2 0xD18 JUMPI PUSH1 0x40 MLOAD PUSH3 0x461BCD PUSH1 0xE5 SHL DUP2 MSTORE PUSH1 0x20 PUSH1 0x4 DUP3 ADD MSTORE PUSH1 0x6 PUSH1 0x24 DUP3 ADD MSTORE PUSH6 0x9CDE40D2C8F PUSH1 0xD3 SHL PUSH1 0x44 DUP3 ADD MSTORE PUSH1 0x64 ADD PUSH2 0x271 JUMP JUMPDEST DUP2 JUMPDEST DUP2 SLOAD PUSH2 0xD28 SWAP1 PUSH1 0x1 SWAP1 PUSH2 0x1244 JUMP JUMPDEST DUP2 LT ISZERO PUSH2 0xDA8 JUMPI DUP2 PUSH2 0xD3B DUP3 PUSH1 0x1 PUSH2 0x1257 JUMP JUMPDEST DUP2 SLOAD DUP2 LT PUSH2 0xD4B JUMPI PUSH2 0xD4B PUSH2 0x121C JUMP JUMPDEST SWAP1 PUSH0 MSTORE PUSH1 0x20 PUSH0 KECCAK256 ADD PUSH0 SWAP1 SLOAD SWAP1 PUSH2 0x100 EXP SWAP1 DIV PUSH1 0x1 PUSH1 0x1 PUSH1 0xA0 SHL SUB AND DUP3 DUP3 DUP2 SLOAD DUP2 LT PUSH2 0xD78 JUMPI PUSH2 0xD78 PUSH2 0x121C JUMP JUMPDEST PUSH0 SWAP2 DUP3 MSTORE PUSH1 0x20 SWAP1 SWAP2 KECCAK256 ADD DUP1 SLOAD PUSH1 0x1 PUSH1 0x1 PUSH1 0xA0 SHL SUB NOT AND PUSH1 0x1 PUSH1 0x1 PUSH1 0xA0 SHL SUB SWAP3 SWAP1 SWAP3 AND SWAP2 SWAP1 SWAP2 OR SWAP1 SSTORE PUSH1 0x1 ADD PUSH2 0xD1A JUMP JUMPDEST POP DUP1 DUP1 SLOAD DUP1 PUSH2 0xDB9 JUMPI PUSH2 0xDB9 PUSH2 0x126A JUMP JUMPDEST PUSH0 DUP3 DUP2 MSTORE PUSH1 0x20 SWAP1 KECCAK256 DUP2 ADD PUSH0 NOT SWAP1 DUP2 ADD DUP1 SLOAD PUSH1 0x1 PUSH1 0x1 PUSH1 0xA0 SHL SUB NOT AND SWAP1 SSTORE ADD SWAP1 SSTORE POP POP JUMP JUMPDEST PUSH4 0x4E487B71 PUSH1 0xE0 SHL PUSH0 MSTORE PUSH1 0x41 PUSH1 0x4 MSTORE PUSH1 0x24 PUSH0 REVERT JUMPDEST PUSH0 DUP3 PUSH1 0x1F DUP4 ADD SLT PUSH2 0xE00 JUMPI PUSH0 DUP1 REVERT JUMPDEST DUP2 CALLDATALOAD PUSH8 0xFFFFFFFFFFFFFFFF DUP2 GT ISZERO PUSH2 0xE1A JUMPI PUSH2 0xE1A PUSH2 0xDDD JUMP JUMPDEST PUSH1 0x40 MLOAD PUSH1 0x1F DUP3 ADD PUSH1 0x1F NOT SWAP1 DUP2 AND PUSH1 0x3F ADD AND DUP2 ADD PUSH8 0xFFFFFFFFFFFFFFFF DUP2 GT DUP3 DUP3 LT OR ISZERO PUSH2 0xE49 JUMPI PUSH2 0xE49 PUSH2 0xDDD JUMP JUMPDEST PUSH1 0x40 MSTORE DUP2 DUP2 MSTORE DUP4 DUP3 ADD PUSH1 0x20 ADD DUP6 LT ISZERO PUSH2 0xE60 JUMPI PUSH0 DUP1 REVERT JUMPDEST DUP2 PUSH1 0x20 DUP6 ADD PUSH1 0x20 DUP4 ADD CALLDATACOPY PUSH0 SWAP2 DUP2 ADD PUSH1 0x20 ADD SWAP2 SWAP1 SWAP2 MSTORE SWAP4 SWAP3 POP POP POP JUMP JUMPDEST PUSH0 PUSH1 0x20 DUP3 DUP5 SUB SLT ISZERO PUSH2 0xE8C JUMPI PUSH0 DUP1 REVERT JUMPDEST DUP2 CALLDATALOAD PUSH8 0xFFFFFFFFFFFFFFFF DUP2 GT ISZERO PUSH2 0xEA2 JUMPI PUSH0 DUP1 REVERT JUMPDEST PUSH2 0xEAE DUP5 DUP3 DUP6 ADD PUSH2 0xDF1 JUMP JUMPDEST SWAP5 SWAP4 POP POP POP POP JUMP JUMPDEST PUSH0 PUSH1 0x20 DUP3 DUP5 SUB SLT ISZERO PUSH2 0xEC6 JUMPI PUSH0 DUP1 REVERT JUMPDEST DUP2 CALLDATALOAD PUSH1 0x1 PUSH1 0x1 PUSH1 0xA0 SHL SUB DUP2 AND DUP2 EQ PUSH2 0xEDC JUMPI PUSH0 DUP1 REVERT JUMPDEST SWAP4 SWAP3 POP POP POP JUMP JUMPDEST PUSH1 0x20 DUP2 ADD PUSH1 0x3 DUP4 LT PUSH2 0xF03 JUMPI PUSH4 0x4E487B71 PUSH1 0xE0 SHL PUSH0 MSTORE PUSH1 0x21 PUSH1 0x4 MSTORE PUSH1 0x24 PUSH0 REVERT JUMPDEST SWAP2 SWAP1 MSTORE SWAP1 JUMP JUMPDEST DUP1 CALLDATALOAD PUSH2 0xFFFF DUP2 AND DUP2 EQ PUSH2 0xF1A JUMPI PUSH0 DUP1 REVERT JUMPDEST SWAP2 SWAP1 POP JUMP JUMPDEST PUSH0 PUSH1 0x20 DUP3 DUP5 SUB SLT ISZERO PUSH2 0xF2F JUMPI PUSH0 DUP1 REVERT JUMPDEST PUSH2 0xEDC DUP3 PUSH2 0xF09 JUMP JUMPDEST PUSH0 DUP1 PUSH0 DUP1 PUSH0 PUSH1 0xA0 DUP7 DUP9 SUB SLT ISZERO PUSH2 0xF4C JUMPI PUSH0 DUP1 REVERT JUMPDEST DUP6 CALLDATALOAD PUSH8 0xFFFFFFFFFFFFFFFF DUP2 GT ISZERO PUSH2 0xF62 JUMPI PUSH0 DUP1 REVERT JUMPDEST PUSH2 0xF6E DUP9 DUP3 DUP10 ADD PUSH2 0xDF1 JUMP JUMPDEST SWAP6 POP POP PUSH1 0x20 DUP7 ADD CALLDATALOAD PUSH8 0xFFFFFFFFFFFFFFFF DUP2 GT ISZERO PUSH2 0xF8A JUMPI PUSH0 DUP1 REVERT JUMPDEST PUSH2 0xF96 DUP9 DUP3 DUP10 ADD PUSH2 0xDF1 JUMP JUMPDEST SWAP5 POP POP PUSH1 0x40 DUP7 ADD CALLDATALOAD PUSH8 0xFFFFFFFFFFFFFFFF DUP2 GT ISZERO PUSH2 0xFB2 JUMPI PUSH0 DUP1 REVERT JUMPDEST PUSH2 0xFBE DUP9 DUP3 DUP10 ADD PUSH2 0xDF1 JUMP JUMPDEST SWAP4 POP POP PUSH2 0xFCD PUSH1 0x60 DUP8 ADD PUSH2 0xF09 JUMP JUMPDEST SWAP2 POP PUSH2 0xFDB PUSH1 0x80 DUP8 ADD PUSH2 0xF09 JUMP JUMPDEST SWAP1 POP SWAP3 SWAP6 POP SWAP3 SWAP6 SWAP1 SWAP4 POP JUMP JUMPDEST PUSH1 0x20 DUP1 DUP3 MSTORE DUP3 MLOAD DUP3 DUP3 ADD DUP2 SWAP1 MSTORE PUSH0 SWAP2 DUP5 ADD SWAP1 PUSH1 0x40 DUP5 ADD SWAP1 DUP4 JUMPDEST DUP2 DUP2 LT ISZERO PUSH2 0x1027 JUMPI DUP4 MLOAD PUSH1 0x1 PUSH1 0x1 PUSH1 0xA0 SHL SUB AND DUP4 MSTORE PUSH1 0x20 SWAP4 DUP5 ADD SWAP4 SWAP1 SWAP3 ADD SWAP2 PUSH1 0x1 ADD PUSH2 0x1000 JUMP JUMPDEST POP SWAP1 SWAP6 SWAP5 POP POP POP POP POP JUMP JUMPDEST PUSH0 DUP2 MLOAD DUP1 DUP5 MSTORE DUP1 PUSH1 0x20 DUP5 ADD PUSH1 0x20 DUP7 ADD MCOPY PUSH0 PUSH1 0x20 DUP3 DUP7 ADD ADD MSTORE PUSH1 0x20 PUSH1 0x1F NOT PUSH1 0x1F DUP4 ADD AND DUP6 ADD ADD SWAP2 POP POP SWAP3 SWAP2 POP POP JUMP JUMPDEST PUSH1 0xA0 DUP2 MSTORE PUSH0 PUSH2 0x1072 PUSH1 0xA0 DUP4 ADD DUP9 PUSH2 0x1032 JUMP JUMPDEST DUP3 DUP2 SUB PUSH1 0x20 DUP5 ADD MSTORE PUSH2 0x1084 DUP2 DUP9 PUSH2 0x1032 JUMP JUMPDEST SWAP1 POP DUP3 DUP2 SUB PUSH1 0x40 DUP5 ADD MSTORE PUSH2 0x1098 DUP2 DUP8 PUSH2 0x1032 JUMP JUMPDEST SWAP2 POP POP PUSH2 0xFFFF DUP5 AND PUSH1 0x60 DUP4 ADD MSTORE PUSH2 0xFFFF DUP4 AND PUSH1 0x80 DUP4 ADD MSTORE SWAP7 SWAP6 POP POP POP POP POP POP JUMP JUMPDEST PUSH1 0x20 DUP1 DUP3 MSTORE PUSH1 0xA SWAP1 DUP3 ADD MSTORE PUSH10 0x27B7363C9037BBB732B9 PUSH1 0xB1 SHL PUSH1 0x40 DUP3 ADD MSTORE PUSH1 0x60 ADD SWAP1 JUMP JUMPDEST PUSH1 0x1 DUP2 DUP2 SHR SWAP1 DUP3 AND DUP1 PUSH2 0x10F1 JUMPI PUSH1 0x7F DUP3 AND SWAP2 POP JUMPDEST PUSH1 0x20 DUP3 LT DUP2 SUB PUSH2 0x110F JUMPI PUSH4 0x4E487B71 PUSH1 0xE0 SHL PUSH0 MSTORE PUSH1 0x22 PUSH1 0x4 MSTORE PUSH1 0x24 PUSH0 REVERT JUMPDEST POP SWAP2 SWAP1 POP JUMP JUMPDEST PUSH1 0x1F DUP3 GT ISZERO PUSH2 0x115C JUMPI DUP1 PUSH0 MSTORE PUSH1 0x20 PUSH0 KECCAK256 PUSH1 0x1F DUP5 ADD PUSH1 0x5 SHR DUP2 ADD PUSH1 0x20 DUP6 LT ISZERO PUSH2 0x113A JUMPI POP DUP1 JUMPDEST PUSH1 0x1F DUP5 ADD PUSH1 0x5 SHR DUP3 ADD SWAP2 POP JUMPDEST DUP2 DUP2 LT ISZERO PUSH2 0x1159 JUMPI PUSH0 DUP2 SSTORE PUSH1 0x1 ADD PUSH2 0x1146 JUMP JUMPDEST POP POP JUMPDEST POP POP POP JUMP JUMPDEST DUP2 MLOAD PUSH8 0xFFFFFFFFFFFFFFFF DUP2 GT ISZERO PUSH2 0x117B JUMPI PUSH2 0x117B PUSH2 0xDDD JUMP JUMPDEST PUSH2 0x118F DUP2 PUSH2 0x1189 DUP5 SLOAD PUSH2 0x10DD JUMP JUMPDEST DUP5 PUSH2 0x1115 JUMP JUMPDEST PUSH1 0x20 PUSH1 0x1F DUP3 GT PUSH1 0x1 DUP2 EQ PUSH2 0x11C1 JUMPI PUSH0 DUP4 ISZERO PUSH2 0x11AA JUMPI POP DUP5 DUP3 ADD MLOAD JUMPDEST PUSH0 NOT PUSH1 0x3 DUP6 SWAP1 SHL SHR NOT AND PUSH1 0x1 DUP5 SWAP1 SHL OR DUP5 SSTORE PUSH2 0x1159 JUMP JUMPDEST PUSH0 DUP5 DUP2 MSTORE PUSH1 0x20 DUP2 KECCAK256 PUSH1 0x1F NOT DUP6 AND SWAP2 JUMPDEST DUP3 DUP2 LT ISZERO PUSH2 0x11F0 JUMPI DUP8 DUP6 ADD MLOAD DUP3 SSTORE PUSH1 0x20 SWAP5 DUP6 ADD SWAP5 PUSH1 0x1 SWAP1 SWAP3 ADD SWAP2 ADD PUSH2 0x11D0 JUMP JUMPDEST POP DUP5 DUP3 LT ISZERO PUSH2 0x120D JUMPI DUP7 DUP5 ADD MLOAD PUSH0 NOT PUSH1 0x3 DUP8 SWAP1 SHL PUSH1 0xF8 AND SHR NOT AND DUP2 SSTORE JUMPDEST POP POP POP POP PUSH1 0x1 SWAP1 DUP2 SHL ADD SWAP1 SSTORE POP JUMP JUMPDEST PUSH4 0x4E487B71 PUSH1 0xE0 SHL PUSH0 MSTORE PUSH1 0x32 PUSH1 0x4 MSTORE PUSH1 0x24 PUSH0 REVERT JUMPDEST PUSH4 0x4E487B71 PUSH1 0xE0 SHL PUSH0 MSTORE PUSH1 0x11 PUSH1 0x4 MSTORE PUSH1 0x24 PUSH0 REVERT JUMPDEST DUP2 DUP2 SUB DUP2 DUP2 GT ISZERO PUSH2 0xCCD JUMPI PUSH2 0xCCD PUSH2 0x1230 JUMP JUMPDEST DUP1 DUP3 ADD DUP1 DUP3 GT ISZERO PUSH2 0xCCD JUMPI PUSH2 0xCCD PUSH2 0x1230 JUMP JUMPDEST PUSH4 0x4E487B71 PUSH1 0xE0 SHL PUSH0 MSTORE PUSH1 0x31 PUSH1 0x4 MSTORE PUSH1 0x24 PUSH0 REVERT INVALID 0xE0 0xD LOG2 OR DUP9 MOD RETURN PUSH32 0x69815E9ED5ED3072EC1D55206D60916D99B469C7DAA421E4A264697066735822 SLT KECCAK256 0xCA DUP1 0x2E 0xD3 0xCE DUP4 PUSH5 0x584B44AF60 TSTORE DUP10 PUSH7 0xC81FCF899109DE 0x2E PUSH5 0x1B9535ECB6 SMOD 0xD5 BYTE PUSH5 0x736F6C6343 STOP ADDMOD BYTE STOP CALLER PUSH1 0x80 PUSH1 0x40 MSTORE CALLVALUE DUP1 ISZERO PUSH2 0xF JUMPI PUSH0 DUP1 REVERT JUMPDEST POP PUSH1 0x40 MLOAD PUSH2 0x135D CODESIZE SUB DUP1 PUSH2 0x135D DUP4 CODECOPY DUP2 ADD PUSH1 0x40 DUP2 SWAP1 MSTORE PUSH2 0x2E SWAP2 PUSH2 0x1DA JUMP JUMPDEST DUP4 PUSH0 DUP4 DUP4 DUP3 PUSH2 0x3D DUP6 DUP3 PUSH2 0x2E3 JUMP JUMPDEST POP PUSH1 0x1 DUP1 SLOAD DUP5 SWAP2 SWAP1 PUSH1 0xFF NOT AND DUP2 DUP4 PUSH1 0x2 DUP2 GT ISZERO PUSH2 0x5C JUMPI PUSH2 0x5C PUSH2 0x39D JUMP JUMPDEST MUL OR SWAP1 SSTORE POP PUSH1 0x1 DUP1 SLOAD PUSH2 0x100 PUSH1 0x1 PUSH1 0xA8 SHL SUB NOT AND PUSH2 0x100 PUSH1 0x1 PUSH1 0x1 PUSH1 0xA0 SHL SUB SWAP5 DUP6 AND MUL OR SWAP1 SSTORE PUSH1 0x2 DUP1 SLOAD PUSH1 0x1 PUSH1 0x1 PUSH1 0xA0 SHL SUB NOT AND SWAP2 SWAP1 SWAP3 AND OR SWAP1 SSTORE POP PUSH1 0x4 SWAP1 POP PUSH2 0xA6 DUP5 DUP3 PUSH2 0x2E3 JUMP JUMPDEST POP PUSH1 0x1 DUP1 SLOAD PUSH2 0x100 PUSH1 0x1 PUSH1 0xA8 SHL SUB NOT AND PUSH2 0x100 PUSH1 0x1 PUSH1 0x1 PUSH1 0xA0 SHL SUB DUP6 DUP2 AND SWAP2 SWAP1 SWAP2 MUL SWAP2 SWAP1 SWAP2 OR SWAP1 SWAP2 SSTORE PUSH1 0x2 DUP1 SLOAD PUSH1 0x1 PUSH1 0x1 PUSH1 0xA0 SHL SUB NOT AND SWAP2 DUP4 AND SWAP2 SWAP1 SWAP2 OR SWAP1 SSTORE PUSH1 0x40 MLOAD CALLER DUP2 MSTORE PUSH32 0x1449ABF21E49FD025F33495E77F7B1461CAEFDD3D4BB646424A3F445C4576A5B SWAP1 PUSH1 0x20 ADD PUSH1 0x40 MLOAD DUP1 SWAP2 SUB SWAP1 LOG1 POP POP POP POP PUSH2 0x3B1 JUMP JUMPDEST PUSH4 0x4E487B71 PUSH1 0xE0 SHL PUSH0 MSTORE PUSH1 0x41 PUSH1 0x4 MSTORE PUSH1 0x24 PUSH0 REVERT JUMPDEST PUSH0 DUP3 PUSH1 0x1F DUP4 ADD SLT PUSH2 0x145 JUMPI PUSH0 DUP1 REVERT JUMPDEST DUP2 MLOAD PUSH1 0x1 PUSH1 0x1 PUSH1 0x40 SHL SUB DUP2 GT ISZERO PUSH2 0x15E JUMPI PUSH2 0x15E PUSH2 0x122 JUMP JUMPDEST PUSH1 0x40 MLOAD PUSH1 0x1F DUP3 ADD PUSH1 0x1F NOT SWAP1 DUP2 AND PUSH1 0x3F ADD AND DUP2 ADD PUSH1 0x1 PUSH1 0x1 PUSH1 0x40 SHL SUB DUP2 GT DUP3 DUP3 LT OR ISZERO PUSH2 0x18C JUMPI PUSH2 0x18C PUSH2 0x122 JUMP JUMPDEST PUSH1 0x40 MSTORE DUP2 DUP2 MSTORE DUP4 DUP3 ADD PUSH1 0x20 ADD DUP6 LT ISZERO PUSH2 0x1A3 JUMPI PUSH0 DUP1 REVERT JUMPDEST DUP2 PUSH1 0x20 DUP6 ADD PUSH1 0x20 DUP4 ADD MCOPY PUSH0 SWAP2 DUP2 ADD PUSH1 0x20 ADD SWAP2 SWAP1 SWAP2 MSTORE SWAP4 SWAP3 POP POP POP JUMP JUMPDEST DUP1 MLOAD PUSH1 0x1 PUSH1 0x1 PUSH1 0xA0 SHL SUB DUP2 AND DUP2 EQ PUSH2 0x1D5 JUMPI PUSH0 DUP1 REVERT JUMPDEST SWAP2 SWAP1 POP JUMP JUMPDEST PUSH0 DUP1 PUSH0 DUP1 PUSH1 0x80 DUP6 DUP8 SUB SLT ISZERO PUSH2 0x1ED JUMPI PUSH0 DUP1 REVERT JUMPDEST DUP5 MLOAD PUSH1 0x1 PUSH1 0x1 PUSH1 0x40 SHL SUB DUP2 GT ISZERO PUSH2 0x202 JUMPI PUSH0 DUP1 REVERT JUMPDEST PUSH2 0x20E DUP8 DUP3 DUP9 ADD PUSH2 0x136 JUMP JUMPDEST PUSH1 0x20 DUP8 ADD MLOAD SWAP1 SWAP6 POP SWAP1 POP PUSH1 0x1 PUSH1 0x1 PUSH1 0x40 SHL SUB DUP2 GT ISZERO PUSH2 0x22B JUMPI PUSH0 DUP1 REVERT JUMPDEST PUSH2 0x237 DUP8 DUP3 DUP9 ADD PUSH2 0x136 JUMP JUMPDEST SWAP4 POP POP PUSH2 0x246 PUSH1 0x40 DUP7 ADD PUSH2 0x1BF JUMP JUMPDEST SWAP2 POP PUSH2 0x254 PUSH1 0x60 DUP7 ADD PUSH2 0x1BF JUMP JUMPDEST SWAP1 POP SWAP3 SWAP6 SWAP2 SWAP5 POP SWAP3 POP JUMP JUMPDEST PUSH1 0x1 DUP2 DUP2 SHR SWAP1 DUP3 AND DUP1 PUSH2 0x273 JUMPI PUSH1 0x7F DUP3 AND SWAP2 POP JUMPDEST PUSH1 0x20 DUP3 LT DUP2 SUB PUSH2 0x291 JUMPI PUSH4 0x4E487B71 PUSH1 0xE0 SHL PUSH0 MSTORE PUSH1 0x22 PUSH1 0x4 MSTORE PUSH1 0x24 PUSH0 REVERT JUMPDEST POP SWAP2 SWAP1 POP JUMP JUMPDEST PUSH1 0x1F DUP3 GT ISZERO PUSH2 0x2DE JUMPI DUP1 PUSH0 MSTORE PUSH1 0x20 PUSH0 KECCAK256 PUSH1 0x1F DUP5 ADD PUSH1 0x5 SHR DUP2 ADD PUSH1 0x20 DUP6 LT ISZERO PUSH2 0x2BC JUMPI POP DUP1 JUMPDEST PUSH1 0x1F DUP5 ADD PUSH1 0x5 SHR DUP3 ADD SWAP2 POP JUMPDEST DUP2 DUP2 LT ISZERO PUSH2 0x2DB JUMPI PUSH0 DUP2 SSTORE PUSH1 0x1 ADD PUSH2 0x2C8 JUMP JUMPDEST POP POP JUMPDEST POP POP POP JUMP JUMPDEST DUP2 MLOAD PUSH1 0x1 PUSH1 0x1 PUSH1 0x40 SHL SUB DUP2 GT ISZERO PUSH2 0x2FC JUMPI PUSH2 0x2FC PUSH2 0x122 JUMP JUMPDEST PUSH2 0x310 DUP2 PUSH2 0x30A DUP5 SLOAD PUSH2 0x25F JUMP JUMPDEST DUP5 PUSH2 0x297 JUMP JUMPDEST PUSH1 0x20 PUSH1 0x1F DUP3 GT PUSH1 0x1 DUP2 EQ PUSH2 0x342 JUMPI PUSH0 DUP4 ISZERO PUSH2 0x32B JUMPI POP DUP5 DUP3 ADD MLOAD JUMPDEST PUSH0 NOT PUSH1 0x3 DUP6 SWAP1 SHL SHR NOT AND PUSH1 0x1 DUP5 SWAP1 SHL OR DUP5 SSTORE PUSH2 0x2DB JUMP JUMPDEST PUSH0 DUP5 DUP2 MSTORE PUSH1 0x20 DUP2 KECCAK256 PUSH1 0x1F NOT DUP6 AND SWAP2 JUMPDEST DUP3 DUP2 LT ISZERO PUSH2 0x371 JUMPI DUP8 DUP6 ADD MLOAD DUP3 SSTORE PUSH1 0x20 SWAP5 DUP6 ADD SWAP5 PUSH1 0x1 SWAP1 SWAP3 ADD SWAP2 ADD PUSH2 0x351 JUMP JUMPDEST POP DUP5 DUP3 LT ISZERO PUSH2 0x38E JUMPI DUP7 DUP5 ADD MLOAD PUSH0 NOT PUSH1 0x3 DUP8 SWAP1 SHL PUSH1 0xF8 AND SHR NOT AND DUP2 SSTORE JUMPDEST POP POP POP POP PUSH1 0x1 SWAP1 DUP2 SHL ADD SWAP1 SSTORE POP JUMP JUMPDEST PUSH4 0x4E487B71 PUSH1 0xE0 SHL PUSH0 MSTORE PUSH1 0x21 PUSH1 0x4 MSTORE PUSH1 0x24 PUSH0 REVERT JUMPDEST PUSH2 0xF9F DUP1 PUSH2 0x3BE PUSH0 CODECOPY PUSH0 RETURN INVALID PUSH1 0x80 PUSH1 0x40 MSTORE CALLVALUE DUP1 ISZERO PUSH2 0xF JUMPI PUSH0 DUP1 REVERT JUMPDEST POP PUSH1 0x4 CALLDATASIZE LT PUSH2 0xB1 JUMPI PUSH0 CALLDATALOAD PUSH1 0xE0 SHR DUP1 PUSH4 0xA95264D0 GT PUSH2 0x6E JUMPI DUP1 PUSH4 0xA95264D0 EQ PUSH2 0x146 JUMPI DUP1 PUSH4 0xB9DAF3E2 EQ PUSH2 0x15B JUMPI DUP1 PUSH4 0xBA379E86 EQ PUSH2 0x163 JUMPI DUP1 PUSH4 0xC47F0027 EQ PUSH2 0x179 JUMPI DUP1 PUSH4 0xDED92DAC EQ PUSH2 0x18C JUMPI DUP1 PUSH4 0xEFD8AF9F EQ PUSH2 0x19F JUMPI PUSH0 DUP1 REVERT JUMPDEST DUP1 PUSH4 0x1499C592 EQ PUSH2 0xB5 JUMPI DUP1 PUSH4 0x2858D3C8 EQ PUSH2 0xCA JUMPI DUP1 PUSH4 0x4BA83374 EQ PUSH2 0xE8 JUMPI DUP1 PUSH4 0x5DA6EF8D EQ PUSH2 0x100 JUMPI DUP1 PUSH4 0x7A4C982E EQ PUSH2 0x113 JUMPI DUP1 PUSH4 0x80F76021 EQ PUSH2 0x126 JUMPI JUMPDEST PUSH0 DUP1 REVERT JUMPDEST PUSH2 0xC8 PUSH2 0xC3 CALLDATASIZE PUSH1 0x4 PUSH2 0xB6D JUMP JUMPDEST PUSH2 0x1B2 JUMP JUMPDEST STOP JUMPDEST PUSH2 0xD2 PUSH2 0x251 JUMP JUMPDEST PUSH1 0x40 MLOAD PUSH2 0xDF SWAP2 SWAP1 PUSH2 0xB9A JUMP JUMPDEST PUSH1 0x40 MLOAD DUP1 SWAP2 SUB SWAP1 RETURN JUMPDEST PUSH2 0xF0 PUSH2 0x2A1 JUMP JUMPDEST PUSH1 0x40 MLOAD SWAP1 ISZERO ISZERO DUP2 MSTORE PUSH1 0x20 ADD PUSH2 0xDF JUMP JUMPDEST PUSH2 0xC8 PUSH2 0x10E CALLDATASIZE PUSH1 0x4 PUSH2 0xB6D JUMP JUMPDEST PUSH2 0x30D JUMP JUMPDEST PUSH2 0xC8 PUSH2 0x121 CALLDATASIZE PUSH1 0x4 PUSH2 0xC5F JUMP JUMPDEST PUSH2 0x470 JUMP JUMPDEST PUSH2 0x12E PUSH2 0x504 JUMP JUMPDEST PUSH1 0x40 MLOAD PUSH1 0x1 PUSH1 0x1 PUSH1 0xA0 SHL SUB SWAP1 SWAP2 AND DUP2 MSTORE PUSH1 0x20 ADD PUSH2 0xDF JUMP JUMPDEST PUSH2 0x14E PUSH2 0x55A JUMP JUMPDEST PUSH1 0x40 MLOAD PUSH2 0xDF SWAP2 SWAP1 PUSH2 0xCC4 JUMP JUMPDEST PUSH2 0xF0 PUSH2 0x5FF JUMP JUMPDEST PUSH2 0x16B PUSH2 0x62E JUMP JUMPDEST PUSH1 0x40 MLOAD PUSH2 0xDF SWAP3 SWAP2 SWAP1 PUSH2 0xD3D JUMP JUMPDEST PUSH2 0xC8 PUSH2 0x187 CALLDATASIZE PUSH1 0x4 PUSH2 0xD6A JUMP JUMPDEST PUSH2 0x807 JUMP JUMPDEST PUSH2 0xC8 PUSH2 0x19A CALLDATASIZE PUSH1 0x4 PUSH2 0xB6D JUMP JUMPDEST PUSH2 0x887 JUMP JUMPDEST PUSH2 0xC8 PUSH2 0x1AD CALLDATASIZE PUSH1 0x4 PUSH2 0xD6A JUMP JUMPDEST PUSH2 0x9BA JUMP JUMPDEST PUSH1 0x1 SLOAD PUSH2 0x100 SWAP1 DIV PUSH1 0x1 PUSH1 0x1 PUSH1 0xA0 SHL SUB AND CALLER EQ DUP1 PUSH2 0x1DA JUMPI POP PUSH1 0x2 SLOAD PUSH1 0x1 PUSH1 0x1 PUSH1 0xA0 SHL SUB AND CALLER EQ JUMPDEST PUSH2 0x1FF JUMPI PUSH1 0x40 MLOAD PUSH3 0x461BCD PUSH1 0xE5 SHL DUP2 MSTORE PUSH1 0x4 ADD PUSH2 0x1F6 SWAP1 PUSH2 0xDA4 JUMP JUMPDEST PUSH1 0x40 MLOAD DUP1 SWAP2 SUB SWAP1 REVERT JUMPDEST PUSH1 0x2 DUP1 SLOAD PUSH1 0x1 PUSH1 0x1 PUSH1 0xA0 SHL SUB NOT AND PUSH1 0x1 PUSH1 0x1 PUSH1 0xA0 SHL SUB DUP4 AND OR SWAP1 SSTORE PUSH1 0x40 MLOAD CALLER DUP2 MSTORE PUSH32 0xE00DA2178806F37F69815E9ED5ED3072EC1D55206D60916D99B469C7DAA421E4 SWAP1 PUSH1 0x20 ADD JUMPDEST PUSH1 0x40 MLOAD DUP1 SWAP2 SUB SWAP1 LOG1 POP JUMP JUMPDEST PUSH1 0x1 SLOAD PUSH0 SWAP1 PUSH2 0x100 SWAP1 DIV PUSH1 0x1 PUSH1 0x1 PUSH1 0xA0 SHL SUB AND CALLER EQ DUP1 PUSH2 0x27B JUMPI POP PUSH1 0x2 SLOAD PUSH1 0x1 PUSH1 0x1 PUSH1 0xA0 SHL SUB AND CALLER EQ JUMPDEST PUSH2 0x297 JUMPI PUSH1 0x40 MLOAD PUSH3 0x461BCD PUSH1 0xE5 SHL DUP2 MSTORE PUSH1 0x4 ADD PUSH2 0x1F6 SWAP1 PUSH2 0xDA4 JUMP JUMPDEST POP PUSH1 0x1 SLOAD PUSH1 0xFF AND SWAP1 JUMP JUMPDEST PUSH0 PUSH2 0x304 CALLER PUSH1 0x3 DUP1 SLOAD DUP1 PUSH1 0x20 MUL PUSH1 0x20 ADD PUSH1 0x40 MLOAD SWAP1 DUP2 ADD PUSH1 0x40 MSTORE DUP1 SWAP3 SWAP2 SWAP1 DUP2 DUP2 MSTORE PUSH1 0x20 ADD DUP3 DUP1 SLOAD DUP1 ISZERO PUSH2 0x2FA JUMPI PUSH1 0x20 MUL DUP3 ADD SWAP2 SWAP1 PUSH0 MSTORE PUSH1 0x20 PUSH0 KECCAK256 SWAP1 JUMPDEST DUP2 SLOAD PUSH1 0x1 PUSH1 0x1 PUSH1 0xA0 SHL SUB AND DUP2 MSTORE PUSH1 0x1 SWAP1 SWAP2 ADD SWAP1 PUSH1 0x20 ADD DUP1 DUP4 GT PUSH2 0x2DC JUMPI JUMPDEST POP POP POP POP POP PUSH2 0xA0A JUMP JUMPDEST PUSH0 NOT EQ ISZERO SWAP1 POP SWAP1 JUMP JUMPDEST PUSH1 0x1 SLOAD PUSH2 0x100 SWAP1 DIV PUSH1 0x1 PUSH1 0x1 PUSH1 0xA0 SHL SUB AND CALLER EQ DUP1 PUSH2 0x335 JUMPI POP PUSH1 0x2 SLOAD PUSH1 0x1 PUSH1 0x1 PUSH1 0xA0 SHL SUB AND CALLER EQ JUMPDEST PUSH2 0x351 JUMPI PUSH1 0x40 MLOAD PUSH3 0x461BCD PUSH1 0xE5 SHL DUP2 MSTORE PUSH1 0x4 ADD PUSH2 0x1F6 SWAP1 PUSH2 0xDA4 JUMP JUMPDEST PUSH1 0x1 SLOAD PUSH1 0x1 PUSH1 0x1 PUSH1 0xA0 SHL SUB DUP3 DUP2 AND PUSH2 0x100 SWAP1 SWAP3 DIV AND EQ DUP1 ISZERO SWAP1 PUSH2 0x37C JUMPI POP PUSH1 0x1 PUSH1 0x1 PUSH1 0xA0 SHL SUB DUP2 AND ISZERO ISZERO JUMPDEST DUP1 ISZERO PUSH2 0x3E7 JUMPI POP PUSH2 0x3E3 DUP2 PUSH1 0x3 DUP1 SLOAD DUP1 PUSH1 0x20 MUL PUSH1 0x20 ADD PUSH1 0x40 MLOAD SWAP1 DUP2 ADD PUSH1 0x40 MSTORE DUP1 SWAP3 SWAP2 SWAP1 DUP2 DUP2 MSTORE PUSH1 0x20 ADD DUP3 DUP1 SLOAD DUP1 ISZERO PUSH2 0x2FA JUMPI PUSH1 0x20 MUL DUP3 ADD SWAP2 SWAP1 PUSH0 MSTORE PUSH1 0x20 PUSH0 KECCAK256 SWAP1 DUP2 SLOAD PUSH1 0x1 PUSH1 0x1 PUSH1 0xA0 SHL SUB AND DUP2 MSTORE PUSH1 0x1 SWAP1 SWAP2 ADD SWAP1 PUSH1 0x20 ADD DUP1 DUP4 GT PUSH2 0x2DC JUMPI POP POP POP POP POP PUSH2 0xA0A JUMP JUMPDEST PUSH0 NOT EQ JUMPDEST PUSH2 0x41F JUMPI PUSH1 0x40 MLOAD PUSH3 0x461BCD PUSH1 0xE5 SHL DUP2 MSTORE PUSH1 0x20 PUSH1 0x4 DUP3 ADD MSTORE PUSH1 0x9 PUSH1 0x24 DUP3 ADD MSTORE PUSH9 0x2337B93134B23232B7 PUSH1 0xB9 SHL PUSH1 0x44 DUP3 ADD MSTORE PUSH1 0x64 ADD PUSH2 0x1F6 JUMP JUMPDEST PUSH1 0x3 DUP1 SLOAD PUSH1 0x1 DUP2 ADD DUP3 SSTORE PUSH0 SWAP2 SWAP1 SWAP2 MSTORE PUSH32 0xC2575A0E9E593C00F959F8C92F12DB2869C3395A3B0502D05E2516446F71F85B ADD DUP1 SLOAD PUSH1 0x1 PUSH1 0x1 PUSH1 0xA0 SHL SUB NOT AND PUSH1 0x1 PUSH1 0x1 PUSH1 0xA0 SHL SUB SWAP3 SWAP1 SWAP3 AND SWAP2 SWAP1 SWAP2 OR SWAP1 SSTORE JUMP JUMPDEST PUSH1 0x1 SLOAD PUSH2 0x100 SWAP1 DIV PUSH1 0x1 PUSH1 0x1 PUSH1 0xA0 SHL SUB AND CALLER EQ DUP1 PUSH2 0x498 JUMPI POP PUSH1 0x2 SLOAD PUSH1 0x1 PUSH1 0x1 PUSH1 0xA0 SHL SUB AND CALLER EQ JUMPDEST PUSH2 0x4B4 JUMPI PUSH1 0x40 MLOAD PUSH3 0x461BCD PUSH1 0xE5 SHL DUP2 MSTORE PUSH1 0x4 ADD PUSH2 0x1F6 SWAP1 PUSH2 0xDA4 JUMP JUMPDEST PUSH0 PUSH2 0x4BF DUP4 DUP3 PUSH2 0xE4C JUMP JUMPDEST POP PUSH1 0x4 PUSH2 0x4CC DUP3 DUP3 PUSH2 0xE4C JUMP JUMPDEST POP PUSH1 0x40 MLOAD CALLER DUP2 MSTORE PUSH32 0xE00DA2178806F37F69815E9ED5ED3072EC1D55206D60916D99B469C7DAA421E4 SWAP1 PUSH1 0x20 ADD PUSH1 0x40 MLOAD DUP1 SWAP2 SUB SWAP1 LOG1 POP POP JUMP JUMPDEST PUSH1 0x1 SLOAD PUSH0 SWAP1 PUSH2 0x100 SWAP1 DIV PUSH1 0x1 PUSH1 0x1 PUSH1 0xA0 SHL SUB AND CALLER EQ DUP1 PUSH2 0x52E JUMPI POP PUSH1 0x2 SLOAD PUSH1 0x1 PUSH1 0x1 PUSH1 0xA0 SHL SUB AND CALLER EQ JUMPDEST PUSH2 0x54A JUMPI PUSH1 0x40 MLOAD PUSH3 0x461BCD PUSH1 0xE5 SHL DUP2 MSTORE PUSH1 0x4 ADD PUSH2 0x1F6 SWAP1 PUSH2 0xDA4 JUMP JUMPDEST POP PUSH1 0x2 SLOAD PUSH1 0x1 PUSH1 0x1 PUSH1 0xA0 SHL SUB AND SWAP1 JUMP JUMPDEST PUSH1 0x1 SLOAD PUSH1 0x60 SWAP1 PUSH2 0x100 SWAP1 DIV PUSH1 0x1 PUSH1 0x1 PUSH1 0xA0 SHL SUB AND CALLER EQ DUP1 PUSH2 0x585 JUMPI POP PUSH1 0x2 SLOAD PUSH1 0x1 PUSH1 0x1 PUSH1 0xA0 SHL SUB AND CALLER EQ JUMPDEST PUSH2 0x5A1 JUMPI PUSH1 0x40 MLOAD PUSH3 0x461BCD PUSH1 0xE5 SHL DUP2 MSTORE PUSH1 0x4 ADD PUSH2 0x1F6 SWAP1 PUSH2 0xDA4 JUMP JUMPDEST PUSH1 0x3 DUP1 SLOAD DUP1 PUSH1 0x20 MUL PUSH1 0x20 ADD PUSH1 0x40 MLOAD SWAP1 DUP2 ADD PUSH1 0x40 MSTORE DUP1 SWAP3 SWAP2 SWAP1 DUP2 DUP2 MSTORE PUSH1 0x20 ADD DUP3 DUP1 SLOAD DUP1 ISZERO PUSH2 0x5F5 JUMPI PUSH1 0x20 MUL DUP3 ADD SWAP2 SWAP1 PUSH0 MSTORE PUSH1 0x20 PUSH0 KECCAK256 SWAP1 JUMPDEST DUP2 SLOAD PUSH1 0x1 PUSH1 0x1 PUSH1 0xA0 SHL SUB AND DUP2 MSTORE PUSH1 0x1 SWAP1 SWAP2 ADD SWAP1 PUSH1 0x20 ADD DUP1 DUP4 GT PUSH2 0x5D7 JUMPI JUMPDEST POP POP POP POP POP SWAP1 POP SWAP1 JUMP JUMPDEST PUSH1 0x1 SLOAD PUSH0 SWAP1 PUSH2 0x100 SWAP1 DIV PUSH1 0x1 PUSH1 0x1 PUSH1 0xA0 SHL SUB AND CALLER EQ DUP1 PUSH2 0x629 JUMPI POP PUSH1 0x2 SLOAD PUSH1 0x1 PUSH1 0x1 PUSH1 0xA0 SHL SUB AND CALLER EQ JUMPDEST SWAP1 POP SWAP1 JUMP JUMPDEST PUSH1 0x1 SLOAD PUSH1 0x60 SWAP1 DUP2 SWAP1 PUSH2 0x100 SWAP1 DIV PUSH1 0x1 PUSH1 0x1 PUSH1 0xA0 SHL SUB AND CALLER EQ DUP1 PUSH2 0x6B1 JUMPI POP PUSH2 0x6AC CALLER PUSH1 0x3 DUP1 SLOAD DUP1 PUSH1 0x20 MUL PUSH1 0x20 ADD PUSH1 0x40 MLOAD SWAP1 DUP2 ADD PUSH1 0x40 MSTORE DUP1 SWAP3 SWAP2 SWAP1 DUP2 DUP2 MSTORE PUSH1 0x20 ADD DUP3 DUP1 SLOAD DUP1 ISZERO PUSH2 0x2FA JUMPI PUSH1 0x20 MUL DUP3 ADD SWAP2 SWAP1 PUSH0 MSTORE PUSH1 0x20 PUSH0 KECCAK256 SWAP1 DUP2 SLOAD PUSH1 0x1 PUSH1 0x1 PUSH1 0xA0 SHL SUB AND DUP2 MSTORE PUSH1 0x1 SWAP1 SWAP2 ADD SWAP1 PUSH1 0x20 ADD DUP1 DUP4 GT PUSH2 0x2DC JUMPI POP POP POP POP POP PUSH2 0xA0A JUMP JUMPDEST PUSH0 NOT EQ ISZERO JUMPDEST PUSH2 0x6E8 JUMPI PUSH1 0x40 MLOAD PUSH3 0x461BCD PUSH1 0xE5 SHL DUP2 MSTORE PUSH1 0x20 PUSH1 0x4 DUP3 ADD MSTORE PUSH1 0x8 PUSH1 0x24 DUP3 ADD MSTORE PUSH8 0x14995CDD1C9A58DD PUSH1 0xC2 SHL PUSH1 0x44 DUP3 ADD MSTORE PUSH1 0x64 ADD PUSH2 0x1F6 JUMP JUMPDEST PUSH0 PUSH1 0x4 DUP2 DUP1 SLOAD PUSH2 0x6F7 SWAP1 PUSH2 0xDC8 JUMP JUMPDEST DUP1 PUSH1 0x1F ADD PUSH1 0x20 DUP1 SWAP2 DIV MUL PUSH1 0x20 ADD PUSH1 0x40 MLOAD SWAP1 DUP2 ADD PUSH1 0x40 MSTORE DUP1 SWAP3 SWAP2 SWAP1 DUP2 DUP2 MSTORE PUSH1 0x20 ADD DUP3 DUP1 SLOAD PUSH2 0x723 SWAP1 PUSH2 0xDC8 JUMP JUMPDEST DUP1 ISZERO PUSH2 0x76E JUMPI DUP1 PUSH1 0x1F LT PUSH2 0x745 JUMPI PUSH2 0x100 DUP1 DUP4 SLOAD DIV MUL DUP4 MSTORE SWAP2 PUSH1 0x20 ADD SWAP2 PUSH2 0x76E JUMP JUMPDEST DUP3 ADD SWAP2 SWAP1 PUSH0 MSTORE PUSH1 0x20 PUSH0 KECCAK256 SWAP1 JUMPDEST DUP2 SLOAD DUP2 MSTORE SWAP1 PUSH1 0x1 ADD SWAP1 PUSH1 0x20 ADD DUP1 DUP4 GT PUSH2 0x751 JUMPI DUP3 SWAP1 SUB PUSH1 0x1F AND DUP3 ADD SWAP2 JUMPDEST POP POP POP POP POP SWAP2 POP DUP1 DUP1 SLOAD PUSH2 0x781 SWAP1 PUSH2 0xDC8 JUMP JUMPDEST DUP1 PUSH1 0x1F ADD PUSH1 0x20 DUP1 SWAP2 DIV MUL PUSH1 0x20 ADD PUSH1 0x40 MLOAD SWAP1 DUP2 ADD PUSH1 0x40 MSTORE DUP1 SWAP3 SWAP2 SWAP1 DUP2 DUP2 MSTORE PUSH1 0x20 ADD DUP3 DUP1 SLOAD PUSH2 0x7AD SWAP1 PUSH2 0xDC8 JUMP JUMPDEST DUP1 ISZERO PUSH2 0x7F8 JUMPI DUP1 PUSH1 0x1F LT PUSH2 0x7CF JUMPI PUSH2 0x100 DUP1 DUP4 SLOAD DIV MUL DUP4 MSTORE SWAP2 PUSH1 0x20 ADD SWAP2 PUSH2 0x7F8 JUMP JUMPDEST DUP3 ADD SWAP2 SWAP1 PUSH0 MSTORE PUSH1 0x20 PUSH0 KECCAK256 SWAP1 JUMPDEST DUP2 SLOAD DUP2 MSTORE SWAP1 PUSH1 0x1 ADD SWAP1 PUSH1 0x20 ADD DUP1 DUP4 GT PUSH2 0x7DB JUMPI DUP3 SWAP1 SUB PUSH1 0x1F AND DUP3 ADD SWAP2 JUMPDEST POP POP POP POP POP SWAP1 POP SWAP2 POP SWAP2 POP SWAP1 SWAP2 JUMP JUMPDEST PUSH1 0x1 SLOAD PUSH2 0x100 SWAP1 DIV PUSH1 0x1 PUSH1 0x1 PUSH1 0xA0 SHL SUB AND CALLER EQ DUP1 PUSH2 0x82F JUMPI POP PUSH1 0x2 SLOAD PUSH1 0x1 PUSH1 0x1 PUSH1 0xA0 SHL SUB AND CALLER EQ JUMPDEST PUSH2 0x84B JUMPI PUSH1 0x40 MLOAD PUSH3 0x461BCD PUSH1 0xE5 SHL DUP2 MSTORE PUSH1 0x4 ADD PUSH2 0x1F6 SWAP1 PUSH2 0xDA4 JUMP JUMPDEST PUSH0 PUSH2 0x856 DUP3 DUP3 PUSH2 0xE4C JUMP JUMPDEST POP PUSH1 0x40 MLOAD CALLER DUP2 MSTORE PUSH32 0xE00DA2178806F37F69815E9ED5ED3072EC1D55206D60916D99B469C7DAA421E4 SWAP1 PUSH1 0x20 ADD PUSH2 0x246 JUMP JUMPDEST PUSH1 0x1 PUSH1 0x1 PUSH1 0xA0 SHL SUB DUP2 AND ISZERO ISZERO DUP1 PUSH2 0x8D4 JUMPI POP PUSH1 0x2 SLOAD PUSH1 0x1 PUSH1 0x1 PUSH1 0xA0 SHL SUB AND CALLER EQ DUP1 PUSH2 0x8C1 JUMPI POP PUSH1 0x1 SLOAD PUSH2 0x100 SWAP1 DIV PUSH1 0x1 PUSH1 0x1 PUSH1 0xA0 SHL SUB AND CALLER EQ JUMPDEST DUP1 PUSH2 0x8D4 JUMPI POP CALLER PUSH1 0x1 PUSH1 0x1 PUSH1 0xA0 SHL SUB DUP3 AND EQ JUMPDEST PUSH2 0x90C JUMPI PUSH1 0x40 MLOAD PUSH3 0x461BCD PUSH1 0xE5 SHL DUP2 MSTORE PUSH1 0x20 PUSH1 0x4 DUP3 ADD MSTORE PUSH1 0x9 PUSH1 0x24 DUP3 ADD MSTORE PUSH9 0x2337B93134B23232B7 PUSH1 0xB9 SHL PUSH1 0x44 DUP3 ADD MSTORE PUSH1 0x64 ADD PUSH2 0x1F6 JUMP JUMPDEST PUSH0 PUSH2 0x96D DUP3 PUSH1 0x3 DUP1 SLOAD DUP1 PUSH1 0x20 MUL PUSH1 0x20 ADD PUSH1 0x40 MLOAD SWAP1 DUP2 ADD PUSH1 0x40 MSTORE DUP1 SWAP3 SWAP2 SWAP1 DUP2 DUP2 MSTORE PUSH1 0x20 ADD DUP3 DUP1 SLOAD DUP1 ISZERO PUSH2 0x2FA JUMPI PUSH1 0x20 MUL DUP3 ADD SWAP2 SWAP1 PUSH0 MSTORE PUSH1 0x20 PUSH0 KECCAK256 SWAP1 DUP2 SLOAD PUSH1 0x1 PUSH1 0x1 PUSH1 0xA0 SHL SUB AND DUP2 MSTORE PUSH1 0x1 SWAP1 SWAP2 ADD SWAP1 PUSH1 0x20 ADD DUP1 DUP4 GT PUSH2 0x2DC JUMPI POP POP POP POP POP PUSH2 0xA0A JUMP JUMPDEST SWAP1 POP PUSH0 NOT DUP2 SGT PUSH2 0x9AB JUMPI PUSH1 0x40 MLOAD PUSH3 0x461BCD PUSH1 0xE5 SHL DUP2 MSTORE PUSH1 0x20 PUSH1 0x4 DUP3 ADD MSTORE PUSH1 0x9 PUSH1 0x24 DUP3 ADD MSTORE PUSH9 0x139BDD08199BDD5B99 PUSH1 0xBA SHL PUSH1 0x44 DUP3 ADD MSTORE PUSH1 0x64 ADD PUSH2 0x1F6 JUMP JUMPDEST PUSH2 0x9B6 DUP2 PUSH1 0x3 PUSH2 0xA63 JUMP JUMPDEST POP POP JUMP JUMPDEST PUSH1 0x1 SLOAD PUSH2 0x100 SWAP1 DIV PUSH1 0x1 PUSH1 0x1 PUSH1 0xA0 SHL SUB AND CALLER EQ DUP1 PUSH2 0x9E2 JUMPI POP PUSH1 0x2 SLOAD PUSH1 0x1 PUSH1 0x1 PUSH1 0xA0 SHL SUB AND CALLER EQ JUMPDEST PUSH2 0x9FE JUMPI PUSH1 0x40 MLOAD PUSH3 0x461BCD PUSH1 0xE5 SHL DUP2 MSTORE PUSH1 0x4 ADD PUSH2 0x1F6 SWAP1 PUSH2 0xDA4 JUMP JUMPDEST PUSH1 0x4 PUSH2 0x856 DUP3 DUP3 PUSH2 0xE4C JUMP JUMPDEST PUSH0 DUP1 JUMPDEST DUP3 MLOAD DUP2 LT ISZERO PUSH2 0xA57 JUMPI DUP4 PUSH1 0x1 PUSH1 0x1 PUSH1 0xA0 SHL SUB AND DUP4 DUP3 DUP2 MLOAD DUP2 LT PUSH2 0xA32 JUMPI PUSH2 0xA32 PUSH2 0xF07 JUMP JUMPDEST PUSH1 0x20 MUL PUSH1 0x20 ADD ADD MLOAD PUSH1 0x1 PUSH1 0x1 PUSH1 0xA0 SHL SUB AND SUB PUSH2 0xA4F JUMPI SWAP1 POP PUSH2 0xA5D JUMP JUMPDEST PUSH1 0x1 ADD PUSH2 0xA0D JUMP JUMPDEST POP PUSH0 NOT SWAP1 POP JUMPDEST SWAP3 SWAP2 POP POP JUMP JUMPDEST PUSH0 DUP3 SLT ISZERO DUP1 ISZERO PUSH2 0xA73 JUMPI POP DUP1 SLOAD DUP3 LT JUMPDEST PUSH2 0xAA8 JUMPI PUSH1 0x40 MLOAD PUSH3 0x461BCD PUSH1 0xE5 SHL DUP2 MSTORE PUSH1 0x20 PUSH1 0x4 DUP3 ADD MSTORE PUSH1 0x6 PUSH1 0x24 DUP3 ADD MSTORE PUSH6 0x9CDE40D2C8F PUSH1 0xD3 SHL PUSH1 0x44 DUP3 ADD MSTORE PUSH1 0x64 ADD PUSH2 0x1F6 JUMP JUMPDEST DUP2 JUMPDEST DUP2 SLOAD PUSH2 0xAB8 SWAP1 PUSH1 0x1 SWAP1 PUSH2 0xF2F JUMP JUMPDEST DUP2 LT ISZERO PUSH2 0xB38 JUMPI DUP2 PUSH2 0xACB DUP3 PUSH1 0x1 PUSH2 0xF42 JUMP JUMPDEST DUP2 SLOAD DUP2 LT PUSH2 0xADB JUMPI PUSH2 0xADB PUSH2 0xF07 JUMP JUMPDEST SWAP1 PUSH0 MSTORE PUSH1 0x20 PUSH0 KECCAK256 ADD PUSH0 SWAP1 SLOAD SWAP1 PUSH2 0x100 EXP SWAP1 DIV PUSH1 0x1 PUSH1 0x1 PUSH1 0xA0 SHL SUB AND DUP3 DUP3 DUP2 SLOAD DUP2 LT PUSH2 0xB08 JUMPI PUSH2 0xB08 PUSH2 0xF07 JUMP JUMPDEST PUSH0 SWAP2 DUP3 MSTORE PUSH1 0x20 SWAP1 SWAP2 KECCAK256 ADD DUP1 SLOAD PUSH1 0x1 PUSH1 0x1 PUSH1 0xA0 SHL SUB NOT AND PUSH1 0x1 PUSH1 0x1 PUSH1 0xA0 SHL SUB SWAP3 SWAP1 SWAP3 AND SWAP2 SWAP1 SWAP2 OR SWAP1 SSTORE PUSH1 0x1 ADD PUSH2 0xAAA JUMP JUMPDEST POP DUP1 DUP1 SLOAD DUP1 PUSH2 0xB49 JUMPI PUSH2 0xB49 PUSH2 0xF55 JUMP JUMPDEST PUSH0 DUP3 DUP2 MSTORE PUSH1 0x20 SWAP1 KECCAK256 DUP2 ADD PUSH0 NOT SWAP1 DUP2 ADD DUP1 SLOAD PUSH1 0x1 PUSH1 0x1 PUSH1 0xA0 SHL SUB NOT AND SWAP1 SSTORE ADD SWAP1 SSTORE POP POP JUMP JUMPDEST PUSH0 PUSH1 0x20 DUP3 DUP5 SUB SLT ISZERO PUSH2 0xB7D JUMPI PUSH0 DUP1 REVERT JUMPDEST DUP2 CALLDATALOAD PUSH1 0x1 PUSH1 0x1 PUSH1 0xA0 SHL SUB DUP2 AND DUP2 EQ PUSH2 0xB93 JUMPI PUSH0 DUP1 REVERT JUMPDEST SWAP4 SWAP3 POP POP POP JUMP JUMPDEST PUSH1 0x20 DUP2 ADD PUSH1 0x3 DUP4 LT PUSH2 0xBBA JUMPI PUSH4 0x4E487B71 PUSH1 0xE0 SHL PUSH0 MSTORE PUSH1 0x21 PUSH1 0x4 MSTORE PUSH1 0x24 PUSH0 REVERT JUMPDEST SWAP2 SWAP1 MSTORE SWAP1 JUMP JUMPDEST PUSH4 0x4E487B71 PUSH1 0xE0 SHL PUSH0 MSTORE PUSH1 0x41 PUSH1 0x4 MSTORE PUSH1 0x24 PUSH0 REVERT JUMPDEST PUSH0 DUP3 PUSH1 0x1F DUP4 ADD SLT PUSH2 0xBE3 JUMPI PUSH0 DUP1 REVERT JUMPDEST DUP2 CALLDATALOAD PUSH8 0xFFFFFFFFFFFFFFFF DUP2 GT ISZERO PUSH2 0xBFD JUMPI PUSH2 0xBFD PUSH2 0xBC0 JUMP JUMPDEST PUSH1 0x40 MLOAD PUSH1 0x1F DUP3 ADD PUSH1 0x1F NOT SWAP1 DUP2 AND PUSH1 0x3F ADD AND DUP2 ADD PUSH8 0xFFFFFFFFFFFFFFFF DUP2 GT DUP3 DUP3 LT OR ISZERO PUSH2 0xC2C JUMPI PUSH2 0xC2C PUSH2 0xBC0 JUMP JUMPDEST PUSH1 0x40 MSTORE DUP2 DUP2 MSTORE DUP4 DUP3 ADD PUSH1 0x20 ADD DUP6 LT ISZERO PUSH2 0xC43 JUMPI PUSH0 DUP1 REVERT JUMPDEST DUP2 PUSH1 0x20 DUP6 ADD PUSH1 0x20 DUP4 ADD CALLDATACOPY PUSH0 SWAP2 DUP2 ADD PUSH1 0x20 ADD SWAP2 SWAP1 SWAP2 MSTORE SWAP4 SWAP3 POP POP POP JUMP JUMPDEST PUSH0 DUP1 PUSH1 0x40 DUP4 DUP6 SUB SLT ISZERO PUSH2 0xC70 JUMPI PUSH0 DUP1 REVERT JUMPDEST DUP3 CALLDATALOAD PUSH8 0xFFFFFFFFFFFFFFFF DUP2 GT ISZERO PUSH2 0xC86 JUMPI PUSH0 DUP1 REVERT JUMPDEST PUSH2 0xC92 DUP6 DUP3 DUP7 ADD PUSH2 0xBD4 JUMP JUMPDEST SWAP3 POP POP PUSH1 0x20 DUP4 ADD CALLDATALOAD PUSH8 0xFFFFFFFFFFFFFFFF DUP2 GT ISZERO PUSH2 0xCAE JUMPI PUSH0 DUP1 REVERT JUMPDEST PUSH2 0xCBA DUP6 DUP3 DUP7 ADD PUSH2 0xBD4 JUMP JUMPDEST SWAP2 POP POP SWAP3 POP SWAP3 SWAP1 POP JUMP JUMPDEST PUSH1 0x20 DUP1 DUP3 MSTORE DUP3 MLOAD DUP3 DUP3 ADD DUP2 SWAP1 MSTORE PUSH0 SWAP2 DUP5 ADD SWAP1 PUSH1 0x40 DUP5 ADD SWAP1 DUP4 JUMPDEST DUP2 DUP2 LT ISZERO PUSH2 0xD04 JUMPI DUP4 MLOAD PUSH1 0x1 PUSH1 0x1 PUSH1 0xA0 SHL SUB AND DUP4 MSTORE PUSH1 0x20 SWAP4 DUP5 ADD SWAP4 SWAP1 SWAP3 ADD SWAP2 PUSH1 0x1 ADD PUSH2 0xCDD JUMP JUMPDEST POP SWAP1 SWAP6 SWAP5 POP POP POP POP POP JUMP JUMPDEST PUSH0 DUP2 MLOAD DUP1 DUP5 MSTORE DUP1 PUSH1 0x20 DUP5 ADD PUSH1 0x20 DUP7 ADD MCOPY PUSH0 PUSH1 0x20 DUP3 DUP7 ADD ADD MSTORE PUSH1 0x20 PUSH1 0x1F NOT PUSH1 0x1F DUP4 ADD AND DUP6 ADD ADD SWAP2 POP POP SWAP3 SWAP2 POP POP JUMP JUMPDEST PUSH1 0x40 DUP2 MSTORE PUSH0 PUSH2 0xD4F PUSH1 0x40 DUP4 ADD DUP6 PUSH2 0xD0F JUMP JUMPDEST DUP3 DUP2 SUB PUSH1 0x20 DUP5 ADD MSTORE PUSH2 0xD61 DUP2 DUP6 PUSH2 0xD0F JUMP JUMPDEST SWAP6 SWAP5 POP POP POP POP POP JUMP JUMPDEST PUSH0 PUSH1 0x20 DUP3 DUP5 SUB SLT ISZERO PUSH2 0xD7A JUMPI PUSH0 DUP1 REVERT JUMPDEST DUP2 CALLDATALOAD PUSH8 0xFFFFFFFFFFFFFFFF DUP2 GT ISZERO PUSH2 0xD90 JUMPI PUSH0 DUP1 REVERT JUMPDEST PUSH2 0xD9C DUP5 DUP3 DUP6 ADD PUSH2 0xBD4 JUMP JUMPDEST SWAP5 SWAP4 POP POP POP POP JUMP JUMPDEST PUSH1 0x20 DUP1 DUP3 MSTORE PUSH1 0xA SWAP1 DUP3 ADD MSTORE PUSH10 0x27B7363C9037BBB732B9 PUSH1 0xB1 SHL PUSH1 0x40 DUP3 ADD MSTORE PUSH1 0x60 ADD SWAP1 JUMP JUMPDEST PUSH1 0x1 DUP2 DUP2 SHR SWAP1 DUP3 AND DUP1 PUSH2 0xDDC JUMPI PUSH1 0x7F DUP3 AND SWAP2 POP JUMPDEST PUSH1 0x20 DUP3 LT DUP2 SUB PUSH2 0xDFA JUMPI PUSH4 0x4E487B71 PUSH1 0xE0 SHL PUSH0 MSTORE PUSH1 0x22 PUSH1 0x4 MSTORE PUSH1 0x24 PUSH0 REVERT JUMPDEST POP SWAP2 SWAP1 POP JUMP JUMPDEST PUSH1 0x1F DUP3 GT ISZERO PUSH2 0xE47 JUMPI DUP1 PUSH0 MSTORE PUSH1 0x20 PUSH0 KECCAK256 PUSH1 0x1F DUP5 ADD PUSH1 0x5 SHR DUP2 ADD PUSH1 0x20 DUP6 LT ISZERO PUSH2 0xE25 JUMPI POP DUP1 JUMPDEST PUSH1 0x1F DUP5 ADD PUSH1 0x5 SHR DUP3 ADD SWAP2 POP JUMPDEST DUP2 DUP2 LT ISZERO PUSH2 0xE44 JUMPI PUSH0 DUP2 SSTORE PUSH1 0x1 ADD PUSH2 0xE31 JUMP JUMPDEST POP POP JUMPDEST POP POP POP JUMP JUMPDEST DUP2 MLOAD PUSH8 0xFFFFFFFFFFFFFFFF DUP2 GT ISZERO PUSH2 0xE66 JUMPI PUSH2 0xE66 PUSH2 0xBC0 JUMP JUMPDEST PUSH2 0xE7A DUP2 PUSH2 0xE74 DUP5 SLOAD PUSH2 0xDC8 JUMP JUMPDEST DUP5 PUSH2 0xE00 JUMP JUMPDEST PUSH1 0x20 PUSH1 0x1F DUP3 GT PUSH1 0x1 DUP2 EQ PUSH2 0xEAC JUMPI PUSH0 DUP4 ISZERO PUSH2 0xE95 JUMPI POP DUP5 DUP3 ADD MLOAD JUMPDEST PUSH0 NOT PUSH1 0x3 DUP6 SWAP1 SHL SHR NOT AND PUSH1 0x1 DUP5 SWAP1 SHL OR DUP5 SSTORE PUSH2 0xE44 JUMP JUMPDEST PUSH0 DUP5 DUP2 MSTORE PUSH1 0x20 DUP2 KECCAK256 PUSH1 0x1F NOT DUP6 AND SWAP2 JUMPDEST DUP3 DUP2 LT ISZERO PUSH2 0xEDB JUMPI DUP8 DUP6 ADD MLOAD DUP3 SSTORE PUSH1 0x20 SWAP5 DUP6 ADD SWAP5 PUSH1 0x1 SWAP1 SWAP3 ADD SWAP2 ADD PUSH2 0xEBB JUMP JUMPDEST POP DUP5 DUP3 LT ISZERO PUSH2 0xEF8 JUMPI DUP7 DUP5 ADD MLOAD PUSH0 NOT PUSH1 0x3 DUP8 SWAP1 SHL PUSH1 0xF8 AND SHR NOT AND DUP2 SSTORE JUMPDEST POP POP POP POP PUSH1 0x1 SWAP1 DUP2 SHL ADD SWAP1 SSTORE POP JUMP JUMPDEST PUSH4 0x4E487B71 PUSH1 0xE0 SHL PUSH0 MSTORE PUSH1 0x32 PUSH1 0x4 MSTORE PUSH1 0x24 PUSH0 REVERT JUMPDEST PUSH4 0x4E487B71 PUSH1 0xE0 SHL PUSH0 MSTORE PUSH1 0x11 PUSH1 0x4 MSTORE PUSH1 0x24 PUSH0 REVERT JUMPDEST DUP2 DUP2 SUB DUP2 DUP2 GT ISZERO PUSH2 0xA5D JUMPI PUSH2 0xA5D PUSH2 0xF1B JUMP JUMPDEST DUP1 DUP3 ADD DUP1 DUP3 GT ISZERO PUSH2 0xA5D JUMPI PUSH2 0xA5D PUSH2 0xF1B JUMP JUMPDEST PUSH4 0x4E487B71 PUSH1 0xE0 SHL PUSH0 MSTORE PUSH1 0x31 PUSH1 0x4 MSTORE PUSH1 0x24 PUSH0 REVERT INVALID LOG2 PUSH5 0x6970667358 0x22 SLT KECCAK256 0x29 JUMP PUSH31 0x150A9ABCA154ACDF6E0F9AB4616F6A4CD21004536830C8342A6147CAF66473 PUSH16 0x6C634300081A00336080604052348015 PUSH2 0xF JUMPI PUSH0 DUP1 REVERT JUMPDEST POP PUSH1 0x40 MLOAD PUSH2 0x165A CODESIZE SUB DUP1 PUSH2 0x165A DUP4 CODECOPY DUP2 ADD PUSH1 0x40 DUP2 SWAP1 MSTORE PUSH2 0x2E SWAP2 PUSH2 0x1B8 JUMP JUMPDEST DUP6 PUSH1 0x2 DUP4 DUP4 PUSH0 PUSH2 0x3E DUP6 DUP3 PUSH2 0x316 JUMP JUMPDEST POP PUSH1 0x1 DUP1 SLOAD DUP5 SWAP2 SWAP1 PUSH1 0xFF NOT AND DUP2 DUP4 PUSH1 0x2 DUP2 GT ISZERO PUSH2 0x5D JUMPI PUSH2 0x5D PUSH2 0x3D0 JUMP JUMPDEST MUL OR SWAP1 SSTORE POP PUSH1 0x1 DUP1 SLOAD PUSH2 0x100 PUSH1 0x1 PUSH1 0xA8 SHL SUB NOT AND PUSH2 0x100 PUSH1 0x1 PUSH1 0x1 PUSH1 0xA0 SHL SUB SWAP5 DUP6 AND MUL OR SWAP1 SSTORE PUSH1 0x2 DUP1 SLOAD PUSH1 0x1 PUSH1 0x1 PUSH1 0xA0 SHL SUB NOT AND SWAP2 SWAP1 SWAP3 AND OR SWAP1 SSTORE POP PUSH1 0x4 SWAP1 POP PUSH2 0xA7 DUP7 DUP3 PUSH2 0x316 JUMP JUMPDEST POP PUSH1 0x5 PUSH2 0xB4 DUP6 DUP3 PUSH2 0x316 JUMP JUMPDEST POP PUSH1 0x6 PUSH2 0xC1 DUP5 DUP3 PUSH2 0x316 JUMP JUMPDEST POP PUSH1 0x40 MLOAD CALLER DUP2 MSTORE PUSH32 0x1449ABF21E49FD025F33495E77F7B1461CAEFDD3D4BB646424A3F445C4576A5B SWAP1 PUSH1 0x20 ADD PUSH1 0x40 MLOAD DUP1 SWAP2 SUB SWAP1 LOG1 POP POP POP POP POP POP PUSH2 0x3E4 JUMP JUMPDEST PUSH4 0x4E487B71 PUSH1 0xE0 SHL PUSH0 MSTORE PUSH1 0x41 PUSH1 0x4 MSTORE PUSH1 0x24 PUSH0 REVERT JUMPDEST PUSH0 DUP3 PUSH1 0x1F DUP4 ADD SLT PUSH2 0x123 JUMPI PUSH0 DUP1 REVERT JUMPDEST DUP2 MLOAD PUSH1 0x1 PUSH1 0x1 PUSH1 0x40 SHL SUB DUP2 GT ISZERO PUSH2 0x13C JUMPI PUSH2 0x13C PUSH2 0x100 JUMP JUMPDEST PUSH1 0x40 MLOAD PUSH1 0x1F DUP3 ADD PUSH1 0x1F NOT SWAP1 DUP2 AND PUSH1 0x3F ADD AND DUP2 ADD PUSH1 0x1 PUSH1 0x1 PUSH1 0x40 SHL SUB DUP2 GT DUP3 DUP3 LT OR ISZERO PUSH2 0x16A JUMPI PUSH2 0x16A PUSH2 0x100 JUMP JUMPDEST PUSH1 0x40 MSTORE DUP2 DUP2 MSTORE DUP4 DUP3 ADD PUSH1 0x20 ADD DUP6 LT ISZERO PUSH2 0x181 JUMPI PUSH0 DUP1 REVERT JUMPDEST DUP2 PUSH1 0x20 DUP6 ADD PUSH1 0x20 DUP4 ADD MCOPY PUSH0 SWAP2 DUP2 ADD PUSH1 0x20 ADD SWAP2 SWAP1 SWAP2 MSTORE SWAP4 SWAP3 POP POP POP JUMP JUMPDEST DUP1 MLOAD PUSH1 0x1 PUSH1 0x1 PUSH1 0xA0 SHL SUB DUP2 AND DUP2 EQ PUSH2 0x1B3 JUMPI PUSH0 DUP1 REVERT JUMPDEST SWAP2 SWAP1 POP JUMP JUMPDEST PUSH0 DUP1 PUSH0 DUP1 PUSH0 DUP1 PUSH1 0xC0 DUP8 DUP10 SUB SLT ISZERO PUSH2 0x1CD JUMPI PUSH0 DUP1 REVERT JUMPDEST DUP7 MLOAD PUSH1 0x1 PUSH1 0x1 PUSH1 0x40 SHL SUB DUP2 GT ISZERO PUSH2 0x1E2 JUMPI PUSH0 DUP1 REVERT JUMPDEST PUSH2 0x1EE DUP10 DUP3 DUP11 ADD PUSH2 0x114 JUMP JUMPDEST PUSH1 0x20 DUP10 ADD MLOAD SWAP1 SWAP8 POP SWAP1 POP PUSH1 0x1 PUSH1 0x1 PUSH1 0x40 SHL SUB DUP2 GT ISZERO PUSH2 0x20B JUMPI PUSH0 DUP1 REVERT JUMPDEST PUSH2 0x217 DUP10 DUP3 DUP11 ADD PUSH2 0x114 JUMP JUMPDEST PUSH1 0x40 DUP10 ADD MLOAD SWAP1 SWAP7 POP SWAP1 POP PUSH1 0x1 PUSH1 0x1 PUSH1 0x40 SHL SUB DUP2 GT ISZERO PUSH2 0x234 JUMPI PUSH0 DUP1 REVERT JUMPDEST PUSH2 0x240 DUP10 DUP3 DUP11 ADD PUSH2 0x114 JUMP JUMPDEST PUSH1 0x60 DUP10 ADD MLOAD SWAP1 SWAP6 POP SWAP1 POP PUSH1 0x1 PUSH1 0x1 PUSH1 0x40 SHL SUB DUP2 GT ISZERO PUSH2 0x25D JUMPI PUSH0 DUP1 REVERT JUMPDEST PUSH2 0x269 DUP10 DUP3 DUP11 ADD PUSH2 0x114 JUMP JUMPDEST SWAP4 POP POP PUSH2 0x278 PUSH1 0x80 DUP9 ADD PUSH2 0x19D JUMP JUMPDEST SWAP2 POP PUSH2 0x286 PUSH1 0xA0 DUP9 ADD PUSH2 0x19D JUMP JUMPDEST SWAP1 POP SWAP3 SWAP6 POP SWAP3 SWAP6 POP SWAP3 SWAP6 JUMP JUMPDEST PUSH1 0x1 DUP2 DUP2 SHR SWAP1 DUP3 AND DUP1 PUSH2 0x2A6 JUMPI PUSH1 0x7F DUP3 AND SWAP2 POP JUMPDEST PUSH1 0x20 DUP3 LT DUP2 SUB PUSH2 0x2C4 JUMPI PUSH4 0x4E487B71 PUSH1 0xE0 SHL PUSH0 MSTORE PUSH1 0x22 PUSH1 0x4 MSTORE PUSH1 0x24 PUSH0 REVERT JUMPDEST POP SWAP2 SWAP1 POP JUMP JUMPDEST PUSH1 0x1F DUP3 GT ISZERO PUSH2 0x311 JUMPI DUP1 PUSH0 MSTORE PUSH1 0x20 PUSH0 KECCAK256 PUSH1 0x1F DUP5 ADD PUSH1 0x5 SHR DUP2 ADD PUSH1 0x20 DUP6 LT ISZERO PUSH2 0x2EF JUMPI POP DUP1 JUMPDEST PUSH1 0x1F DUP5 ADD PUSH1 0x5 SHR DUP3 ADD SWAP2 POP JUMPDEST DUP2 DUP2 LT ISZERO PUSH2 0x30E JUMPI PUSH0 DUP2 SSTORE PUSH1 0x1 ADD PUSH2 0x2FB JUMP JUMPDEST POP POP JUMPDEST POP POP POP JUMP JUMPDEST DUP2 MLOAD PUSH1 0x1 PUSH1 0x1 PUSH1 0x40 SHL SUB DUP2 GT ISZERO PUSH2 0x32F JUMPI PUSH2 0x32F PUSH2 0x100 JUMP JUMPDEST PUSH2 0x343 DUP2 PUSH2 0x33D DUP5 SLOAD PUSH2 0x292 JUMP JUMPDEST DUP5 PUSH2 0x2CA JUMP JUMPDEST PUSH1 0x20 PUSH1 0x1F DUP3 GT PUSH1 0x1 DUP2 EQ PUSH2 0x375 JUMPI PUSH0 DUP4 ISZERO PUSH2 0x35E JUMPI POP DUP5 DUP3 ADD MLOAD JUMPDEST PUSH0 NOT PUSH1 0x3 DUP6 SWAP1 SHL SHR NOT AND PUSH1 0x1 DUP5 SWAP1 SHL OR DUP5 SSTORE PUSH2 0x30E JUMP JUMPDEST PUSH0 DUP5 DUP2 MSTORE PUSH1 0x20 DUP2 KECCAK256 PUSH1 0x1F NOT DUP6 AND SWAP2 JUMPDEST DUP3 DUP2 LT ISZERO PUSH2 0x3A4 JUMPI DUP8 DUP6 ADD MLOAD DUP3 SSTORE PUSH1 0x20 SWAP5 DUP6 ADD SWAP5 PUSH1 0x1 SWAP1 SWAP3 ADD SWAP2 ADD PUSH2 0x384 JUMP JUMPDEST POP DUP5 DUP3 LT ISZERO PUSH2 0x3C1 JUMPI DUP7 DUP5 ADD MLOAD PUSH0 NOT PUSH1 0x3 DUP8 SWAP1 SHL PUSH1 0xF8 AND SHR NOT AND DUP2 SSTORE JUMPDEST POP POP POP POP PUSH1 0x1 SWAP1 DUP2 SHL ADD SWAP1 SSTORE POP JUMP JUMPDEST PUSH4 0x4E487B71 PUSH1 0xE0 SHL PUSH0 MSTORE PUSH1 0x21 PUSH1 0x4 MSTORE PUSH1 0x24 PUSH0 REVERT JUMPDEST PUSH2 0x1269 DUP1 PUSH2 0x3F1 PUSH0 CODECOPY PUSH0 RETURN INVALID PUSH1 0x80 PUSH1 0x40 MSTORE CALLVALUE DUP1 ISZERO PUSH2 0xF JUMPI PUSH0 DUP1 REVERT JUMPDEST POP PUSH1 0x4 CALLDATASIZE LT PUSH2 0xE5 JUMPI PUSH0 CALLDATALOAD PUSH1 0xE0 SHR DUP1 PUSH4 0x80F76021 GT PUSH2 0x88 JUMPI DUP1 PUSH4 0xB9DAF3E2 GT PUSH2 0x63 JUMPI DUP1 PUSH4 0xB9DAF3E2 EQ PUSH2 0x1C8 JUMPI DUP1 PUSH4 0xBA379E86 EQ PUSH2 0x1D0 JUMPI DUP1 PUSH4 0xC47F0027 EQ PUSH2 0x1E8 JUMPI DUP1 PUSH4 0xDED92DAC EQ PUSH2 0x1FB JUMPI PUSH0 DUP1 REVERT JUMPDEST DUP1 PUSH4 0x80F76021 EQ PUSH2 0x180 JUMPI DUP1 PUSH4 0xA95264D0 EQ PUSH2 0x1A0 JUMPI DUP1 PUSH4 0xAC0344E6 EQ PUSH2 0x1B5 JUMPI PUSH0 DUP1 REVERT JUMPDEST DUP1 PUSH4 0x290BB453 GT PUSH2 0xC3 JUMPI DUP1 PUSH4 0x290BB453 EQ PUSH2 0x12F JUMPI DUP1 PUSH4 0x2B5914FE EQ PUSH2 0x142 JUMPI DUP1 PUSH4 0x4BA83374 EQ PUSH2 0x155 JUMPI DUP1 PUSH4 0x5DA6EF8D EQ PUSH2 0x16D JUMPI PUSH0 DUP1 REVERT JUMPDEST DUP1 PUSH4 0x1499C592 EQ PUSH2 0xE9 JUMPI DUP1 PUSH4 0x252498A2 EQ PUSH2 0xFE JUMPI DUP1 PUSH4 0x2858D3C8 EQ PUSH2 0x111 JUMPI JUMPDEST PUSH0 DUP1 REVERT JUMPDEST PUSH2 0xFC PUSH2 0xF7 CALLDATASIZE PUSH1 0x4 PUSH2 0xDB9 JUMP JUMPDEST PUSH2 0x20E JUMP JUMPDEST STOP JUMPDEST PUSH2 0xFC PUSH2 0x10C CALLDATASIZE PUSH1 0x4 PUSH2 0xE85 JUMP JUMPDEST PUSH2 0x2AD JUMP JUMPDEST PUSH2 0x119 PUSH2 0x32E JUMP JUMPDEST PUSH1 0x40 MLOAD PUSH2 0x126 SWAP2 SWAP1 PUSH2 0xEBF JUMP JUMPDEST PUSH1 0x40 MLOAD DUP1 SWAP2 SUB SWAP1 RETURN JUMPDEST PUSH2 0xFC PUSH2 0x13D CALLDATASIZE PUSH1 0x4 PUSH2 0xE85 JUMP JUMPDEST PUSH2 0x37E JUMP JUMPDEST PUSH2 0xFC PUSH2 0x150 CALLDATASIZE PUSH1 0x4 PUSH2 0xE85 JUMP JUMPDEST PUSH2 0x3CE JUMP JUMPDEST PUSH2 0x15D PUSH2 0x41E JUMP JUMPDEST PUSH1 0x40 MLOAD SWAP1 ISZERO ISZERO DUP2 MSTORE PUSH1 0x20 ADD PUSH2 0x126 JUMP JUMPDEST PUSH2 0xFC PUSH2 0x17B CALLDATASIZE PUSH1 0x4 PUSH2 0xDB9 JUMP JUMPDEST PUSH2 0x48A JUMP JUMPDEST PUSH2 0x188 PUSH2 0x5ED JUMP JUMPDEST PUSH1 0x40 MLOAD PUSH1 0x1 PUSH1 0x1 PUSH1 0xA0 SHL SUB SWAP1 SWAP2 AND DUP2 MSTORE PUSH1 0x20 ADD PUSH2 0x126 JUMP JUMPDEST PUSH2 0x1A8 PUSH2 0x643 JUMP JUMPDEST PUSH1 0x40 MLOAD PUSH2 0x126 SWAP2 SWAP1 PUSH2 0xEE5 JUMP JUMPDEST PUSH2 0xFC PUSH2 0x1C3 CALLDATASIZE PUSH1 0x4 PUSH2 0xF30 JUMP JUMPDEST PUSH2 0x6E8 JUMP JUMPDEST PUSH2 0x15D PUSH2 0x798 JUMP JUMPDEST PUSH2 0x1D8 PUSH2 0x7C7 JUMP JUMPDEST PUSH1 0x40 MLOAD PUSH2 0x126 SWAP5 SWAP4 SWAP3 SWAP2 SWAP1 PUSH2 0x1017 JUMP JUMPDEST PUSH2 0xFC PUSH2 0x1F6 CALLDATASIZE PUSH1 0x4 PUSH2 0xE85 JUMP JUMPDEST PUSH2 0xAD4 JUMP JUMPDEST PUSH2 0xFC PUSH2 0x209 CALLDATASIZE PUSH1 0x4 PUSH2 0xDB9 JUMP JUMPDEST PUSH2 0xB23 JUMP JUMPDEST PUSH1 0x1 SLOAD PUSH2 0x100 SWAP1 DIV PUSH1 0x1 PUSH1 0x1 PUSH1 0xA0 SHL SUB AND CALLER EQ DUP1 PUSH2 0x236 JUMPI POP PUSH1 0x2 SLOAD PUSH1 0x1 PUSH1 0x1 PUSH1 0xA0 SHL SUB AND CALLER EQ JUMPDEST PUSH2 0x25B JUMPI PUSH1 0x40 MLOAD PUSH3 0x461BCD PUSH1 0xE5 SHL DUP2 MSTORE PUSH1 0x4 ADD PUSH2 0x252 SWAP1 PUSH2 0x106E JUMP JUMPDEST PUSH1 0x40 MLOAD DUP1 SWAP2 SUB SWAP1 REVERT JUMPDEST PUSH1 0x2 DUP1 SLOAD PUSH1 0x1 PUSH1 0x1 PUSH1 0xA0 SHL SUB NOT AND PUSH1 0x1 PUSH1 0x1 PUSH1 0xA0 SHL SUB DUP4 AND OR SWAP1 SSTORE PUSH1 0x40 MLOAD CALLER DUP2 MSTORE PUSH32 0xE00DA2178806F37F69815E9ED5ED3072EC1D55206D60916D99B469C7DAA421E4 SWAP1 PUSH1 0x20 ADD JUMPDEST PUSH1 0x40 MLOAD DUP1 SWAP2 SUB SWAP1 LOG1 POP JUMP JUMPDEST PUSH1 0x1 SLOAD PUSH2 0x100 SWAP1 DIV PUSH1 0x1 PUSH1 0x1 PUSH1 0xA0 SHL SUB AND CALLER EQ DUP1 PUSH2 0x2D5 JUMPI POP PUSH1 0x2 SLOAD PUSH1 0x1 PUSH1 0x1 PUSH1 0xA0 SHL SUB AND CALLER EQ JUMPDEST PUSH2 0x2F1 JUMPI PUSH1 0x40 MLOAD PUSH3 0x461BCD PUSH1 0xE5 SHL DUP2 MSTORE PUSH1 0x4 ADD PUSH2 0x252 SWAP1 PUSH2 0x106E JUMP JUMPDEST PUSH1 0x4 PUSH2 0x2FD DUP3 DUP3 PUSH2 0x1116 JUMP JUMPDEST POP PUSH1 0x40 MLOAD CALLER DUP2 MSTORE PUSH32 0xE00DA2178806F37F69815E9ED5ED3072EC1D55206D60916D99B469C7DAA421E4 SWAP1 PUSH1 0x20 ADD PUSH2 0x2A2 JUMP JUMPDEST PUSH1 0x1 SLOAD PUSH0 SWAP1 PUSH2 0x100 SWAP1 DIV PUSH1 0x1 PUSH1 0x1 PUSH1 0xA0 SHL SUB AND CALLER EQ DUP1 PUSH2 0x358 JUMPI POP PUSH1 0x2 SLOAD PUSH1 0x1 PUSH1 0x1 PUSH1 0xA0 SHL SUB AND CALLER EQ JUMPDEST PUSH2 0x374 JUMPI PUSH1 0x40 MLOAD PUSH3 0x461BCD PUSH1 0xE5 SHL DUP2 MSTORE PUSH1 0x4 ADD PUSH2 0x252 SWAP1 PUSH2 0x106E JUMP JUMPDEST POP PUSH1 0x1 SLOAD PUSH1 0xFF AND SWAP1 JUMP JUMPDEST PUSH1 0x1 SLOAD PUSH2 0x100 SWAP1 DIV PUSH1 0x1 PUSH1 0x1 PUSH1 0xA0 SHL SUB AND CALLER EQ DUP1 PUSH2 0x3A6 JUMPI POP PUSH1 0x2 SLOAD PUSH1 0x1 PUSH1 0x1 PUSH1 0xA0 SHL SUB AND CALLER EQ JUMPDEST PUSH2 0x3C2 JUMPI PUSH1 0x40 MLOAD PUSH3 0x461BCD PUSH1 0xE5 SHL DUP2 MSTORE PUSH1 0x4 ADD PUSH2 0x252 SWAP1 PUSH2 0x106E JUMP JUMPDEST PUSH1 0x6 PUSH2 0x2FD DUP3 DUP3 PUSH2 0x1116 JUMP JUMPDEST PUSH1 0x1 SLOAD PUSH2 0x100 SWAP1 DIV PUSH1 0x1 PUSH1 0x1 PUSH1 0xA0 SHL SUB AND CALLER EQ DUP1 PUSH2 0x3F6 JUMPI POP PUSH1 0x2 SLOAD PUSH1 0x1 PUSH1 0x1 PUSH1 0xA0 SHL SUB AND CALLER EQ JUMPDEST PUSH2 0x412 JUMPI PUSH1 0x40 MLOAD PUSH3 0x461BCD PUSH1 0xE5 SHL DUP2 MSTORE PUSH1 0x4 ADD PUSH2 0x252 SWAP1 PUSH2 0x106E JUMP JUMPDEST PUSH1 0x5 PUSH2 0x2FD DUP3 DUP3 PUSH2 0x1116 JUMP JUMPDEST PUSH0 PUSH2 0x481 CALLER PUSH1 0x3 DUP1 SLOAD DUP1 PUSH1 0x20 MUL PUSH1 0x20 ADD PUSH1 0x40 MLOAD SWAP1 DUP2 ADD PUSH1 0x40 MSTORE DUP1 SWAP3 SWAP2 SWAP1 DUP2 DUP2 MSTORE PUSH1 0x20 ADD DUP3 DUP1 SLOAD DUP1 ISZERO PUSH2 0x477 JUMPI PUSH1 0x20 MUL DUP3 ADD SWAP2 SWAP1 PUSH0 MSTORE PUSH1 0x20 PUSH0 KECCAK256 SWAP1 JUMPDEST DUP2 SLOAD PUSH1 0x1 PUSH1 0x1 PUSH1 0xA0 SHL SUB AND DUP2 MSTORE PUSH1 0x1 SWAP1 SWAP2 ADD SWAP1 PUSH1 0x20 ADD DUP1 DUP4 GT PUSH2 0x459 JUMPI JUMPDEST POP POP POP POP POP PUSH2 0xC56 JUMP JUMPDEST PUSH0 NOT EQ ISZERO SWAP1 POP SWAP1 JUMP JUMPDEST PUSH1 0x1 SLOAD PUSH2 0x100 SWAP1 DIV PUSH1 0x1 PUSH1 0x1 PUSH1 0xA0 SHL SUB AND CALLER EQ DUP1 PUSH2 0x4B2 JUMPI POP PUSH1 0x2 SLOAD PUSH1 0x1 PUSH1 0x1 PUSH1 0xA0 SHL SUB AND CALLER EQ JUMPDEST PUSH2 0x4CE JUMPI PUSH1 0x40 MLOAD PUSH3 0x461BCD PUSH1 0xE5 SHL DUP2 MSTORE PUSH1 0x4 ADD PUSH2 0x252 SWAP1 PUSH2 0x106E JUMP JUMPDEST PUSH1 0x1 SLOAD PUSH1 0x1 PUSH1 0x1 PUSH1 0xA0 SHL SUB DUP3 DUP2 AND PUSH2 0x100 SWAP1 SWAP3 DIV AND EQ DUP1 ISZERO SWAP1 PUSH2 0x4F9 JUMPI POP PUSH1 0x1 PUSH1 0x1 PUSH1 0xA0 SHL SUB DUP2 AND ISZERO ISZERO JUMPDEST DUP1 ISZERO PUSH2 0x564 JUMPI POP PUSH2 0x560 DUP2 PUSH1 0x3 DUP1 SLOAD DUP1 PUSH1 0x20 MUL PUSH1 0x20 ADD PUSH1 0x40 MLOAD SWAP1 DUP2 ADD PUSH1 0x40 MSTORE DUP1 SWAP3 SWAP2 SWAP1 DUP2 DUP2 MSTORE PUSH1 0x20 ADD DUP3 DUP1 SLOAD DUP1 ISZERO PUSH2 0x477 JUMPI PUSH1 0x20 MUL DUP3 ADD SWAP2 SWAP1 PUSH0 MSTORE PUSH1 0x20 PUSH0 KECCAK256 SWAP1 DUP2 SLOAD PUSH1 0x1 PUSH1 0x1 PUSH1 0xA0 SHL SUB AND DUP2 MSTORE PUSH1 0x1 SWAP1 SWAP2 ADD SWAP1 PUSH1 0x20 ADD DUP1 DUP4 GT PUSH2 0x459 JUMPI POP POP POP POP POP PUSH2 0xC56 JUMP JUMPDEST PUSH0 NOT EQ JUMPDEST PUSH2 0x59C JUMPI PUSH1 0x40 MLOAD PUSH3 0x461BCD PUSH1 0xE5 SHL DUP2 MSTORE PUSH1 0x20 PUSH1 0x4 DUP3 ADD MSTORE PUSH1 0x9 PUSH1 0x24 DUP3 ADD MSTORE PUSH9 0x2337B93134B23232B7 PUSH1 0xB9 SHL PUSH1 0x44 DUP3 ADD MSTORE PUSH1 0x64 ADD PUSH2 0x252 JUMP JUMPDEST PUSH1 0x3 DUP1 SLOAD PUSH1 0x1 DUP2 ADD DUP3 SSTORE PUSH0 SWAP2 SWAP1 SWAP2 MSTORE PUSH32 0xC2575A0E9E593C00F959F8C92F12DB2869C3395A3B0502D05E2516446F71F85B ADD DUP1 SLOAD PUSH1 0x1 PUSH1 0x1 PUSH1 0xA0 SHL SUB NOT AND PUSH1 0x1 PUSH1 0x1 PUSH1 0xA0 SHL SUB SWAP3 SWAP1 SWAP3 AND SWAP2 SWAP1 SWAP2 OR SWAP1 SSTORE JUMP JUMPDEST PUSH1 0x1 SLOAD PUSH0 SWAP1 PUSH2 0x100 SWAP1 DIV PUSH1 0x1 PUSH1 0x1 PUSH1 0xA0 SHL SUB AND CALLER EQ DUP1 PUSH2 0x617 JUMPI POP PUSH1 0x2 SLOAD PUSH1 0x1 PUSH1 0x1 PUSH1 0xA0 SHL SUB AND CALLER EQ JUMPDEST PUSH2 0x633 JUMPI PUSH1 0x40 MLOAD PUSH3 0x461BCD PUSH1 0xE5 SHL DUP2 MSTORE PUSH1 0x4 ADD PUSH2 0x252 SWAP1 PUSH2 0x106E JUMP JUMPDEST POP PUSH1 0x2 SLOAD PUSH1 0x1 PUSH1 0x1 PUSH1 0xA0 SHL SUB AND SWAP1 JUMP JUMPDEST PUSH1 0x1 SLOAD PUSH1 0x60 SWAP1 PUSH2 0x100 SWAP1 DIV PUSH1 0x1 PUSH1 0x1 PUSH1 0xA0 SHL SUB AND CALLER EQ DUP1 PUSH2 0x66E JUMPI POP PUSH1 0x2 SLOAD PUSH1 0x1 PUSH1 0x1 PUSH1 0xA0 SHL SUB AND CALLER EQ JUMPDEST PUSH2 0x68A JUMPI PUSH1 0x40 MLOAD PUSH3 0x461BCD PUSH1 0xE5 SHL DUP2 MSTORE PUSH1 0x4 ADD PUSH2 0x252 SWAP1 PUSH2 0x106E JUMP JUMPDEST PUSH1 0x3 DUP1 SLOAD DUP1 PUSH1 0x20 MUL PUSH1 0x20 ADD PUSH1 0x40 MLOAD SWAP1 DUP2 ADD PUSH1 0x40 MSTORE DUP1 SWAP3 SWAP2 SWAP1 DUP2 DUP2 MSTORE PUSH1 0x20 ADD DUP3 DUP1 SLOAD DUP1 ISZERO PUSH2 0x6DE JUMPI PUSH1 0x20 MUL DUP3 ADD SWAP2 SWAP1 PUSH0 MSTORE PUSH1 0x20 PUSH0 KECCAK256 SWAP1 JUMPDEST DUP2 SLOAD PUSH1 0x1 PUSH1 0x1 PUSH1 0xA0 SHL SUB AND DUP2 MSTORE PUSH1 0x1 SWAP1 SWAP2 ADD SWAP1 PUSH1 0x20 ADD DUP1 DUP4 GT PUSH2 0x6C0 JUMPI JUMPDEST POP POP POP POP POP SWAP1 POP SWAP1 JUMP JUMPDEST PUSH1 0x1 SLOAD PUSH2 0x100 SWAP1 DIV PUSH1 0x1 PUSH1 0x1 PUSH1 0xA0 SHL SUB AND CALLER EQ DUP1 PUSH2 0x710 JUMPI POP PUSH1 0x2 SLOAD PUSH1 0x1 PUSH1 0x1 PUSH1 0xA0 SHL SUB AND CALLER EQ JUMPDEST PUSH2 0x72C JUMPI PUSH1 0x40 MLOAD PUSH3 0x461BCD PUSH1 0xE5 SHL DUP2 MSTORE PUSH1 0x4 ADD PUSH2 0x252 SWAP1 PUSH2 0x106E JUMP JUMPDEST PUSH0 PUSH2 0x737 DUP6 DUP3 PUSH2 0x1116 JUMP JUMPDEST POP PUSH1 0x4 PUSH2 0x744 DUP5 DUP3 PUSH2 0x1116 JUMP JUMPDEST POP PUSH1 0x5 PUSH2 0x751 DUP4 DUP3 PUSH2 0x1116 JUMP JUMPDEST POP PUSH1 0x6 PUSH2 0x75E DUP3 DUP3 PUSH2 0x1116 JUMP JUMPDEST POP PUSH1 0x40 MLOAD CALLER DUP2 MSTORE PUSH32 0xE00DA2178806F37F69815E9ED5ED3072EC1D55206D60916D99B469C7DAA421E4 SWAP1 PUSH1 0x20 ADD PUSH1 0x40 MLOAD DUP1 SWAP2 SUB SWAP1 LOG1 POP POP POP POP JUMP JUMPDEST PUSH1 0x1 SLOAD PUSH0 SWAP1 PUSH2 0x100 SWAP1 DIV PUSH1 0x1 PUSH1 0x1 PUSH1 0xA0 SHL SUB AND CALLER EQ DUP1 PUSH2 0x7C2 JUMPI POP PUSH1 0x2 SLOAD PUSH1 0x1 PUSH1 0x1 PUSH1 0xA0 SHL SUB AND CALLER EQ JUMPDEST SWAP1 POP SWAP1 JUMP JUMPDEST PUSH1 0x60 DUP1 PUSH1 0x60 DUP1 PUSH1 0x1 DUP1 SLOAD SWAP1 PUSH2 0x100 EXP SWAP1 DIV PUSH1 0x1 PUSH1 0x1 PUSH1 0xA0 SHL SUB AND PUSH1 0x1 PUSH1 0x1 PUSH1 0xA0 SHL SUB AND CALLER PUSH1 0x1 PUSH1 0x1 PUSH1 0xA0 SHL SUB AND EQ DUP1 PUSH2 0x860 JUMPI POP PUSH2 0x85B CALLER PUSH1 0x3 DUP1 SLOAD DUP1 PUSH1 0x20 MUL PUSH1 0x20 ADD PUSH1 0x40 MLOAD SWAP1 DUP2 ADD PUSH1 0x40 MSTORE DUP1 SWAP3 SWAP2 SWAP1 DUP2 DUP2 MSTORE PUSH1 0x20 ADD DUP3 DUP1 SLOAD DUP1 ISZERO PUSH2 0x477 JUMPI PUSH1 0x20 MUL DUP3 ADD SWAP2 SWAP1 PUSH0 MSTORE PUSH1 0x20 PUSH0 KECCAK256 SWAP1 DUP2 SLOAD PUSH1 0x1 PUSH1 0x1 PUSH1 0xA0 SHL SUB AND DUP2 MSTORE PUSH1 0x1 SWAP1 SWAP2 ADD SWAP1 PUSH1 0x20 ADD DUP1 DUP4 GT PUSH2 0x459 JUMPI POP POP POP POP POP PUSH2 0xC56 JUMP JUMPDEST PUSH0 NOT EQ ISZERO JUMPDEST PUSH2 0x897 JUMPI PUSH1 0x40 MLOAD PUSH3 0x461BCD PUSH1 0xE5 SHL DUP2 MSTORE PUSH1 0x20 PUSH1 0x4 DUP3 ADD MSTORE PUSH1 0x8 PUSH1 0x24 DUP3 ADD MSTORE PUSH8 0x14995CDD1C9A58DD PUSH1 0xC2 SHL PUSH1 0x44 DUP3 ADD MSTORE PUSH1 0x64 ADD PUSH2 0x252 JUMP JUMPDEST PUSH0 PUSH1 0x4 PUSH1 0x5 PUSH1 0x6 DUP4 DUP1 SLOAD PUSH2 0x8AA SWAP1 PUSH2 0x1092 JUMP JUMPDEST DUP1 PUSH1 0x1F ADD PUSH1 0x20 DUP1 SWAP2 DIV MUL PUSH1 0x20 ADD PUSH1 0x40 MLOAD SWAP1 DUP2 ADD PUSH1 0x40 MSTORE DUP1 SWAP3 SWAP2 SWAP1 DUP2 DUP2 MSTORE PUSH1 0x20 ADD DUP3 DUP1 SLOAD PUSH2 0x8D6 SWAP1 PUSH2 0x1092 JUMP JUMPDEST DUP1 ISZERO PUSH2 0x921 JUMPI DUP1 PUSH1 0x1F LT PUSH2 0x8F8 JUMPI PUSH2 0x100 DUP1 DUP4 SLOAD DIV MUL DUP4 MSTORE SWAP2 PUSH1 0x20 ADD SWAP2 PUSH2 0x921 JUMP JUMPDEST DUP3 ADD SWAP2 SWAP1 PUSH0 MSTORE PUSH1 0x20 PUSH0 KECCAK256 SWAP1 JUMPDEST DUP2 SLOAD DUP2 MSTORE SWAP1 PUSH1 0x1 ADD SWAP1 PUSH1 0x20 ADD DUP1 DUP4 GT PUSH2 0x904 JUMPI DUP3 SWAP1 SUB PUSH1 0x1F AND DUP3 ADD SWAP2 JUMPDEST POP POP POP POP POP SWAP4 POP DUP3 DUP1 SLOAD PUSH2 0x934 SWAP1 PUSH2 0x1092 JUMP JUMPDEST DUP1 PUSH1 0x1F ADD PUSH1 0x20 DUP1 SWAP2 DIV MUL PUSH1 0x20 ADD PUSH1 0x40 MLOAD SWAP1 DUP2 ADD PUSH1 0x40 MSTORE DUP1 SWAP3 SWAP2 SWAP1 DUP2 DUP2 MSTORE PUSH1 0x20 ADD DUP3 DUP1 SLOAD PUSH2 0x960 SWAP1 PUSH2 0x1092 JUMP JUMPDEST DUP1 ISZERO PUSH2 0x9AB JUMPI DUP1 PUSH1 0x1F LT PUSH2 0x982 JUMPI PUSH2 0x100 DUP1 DUP4 SLOAD DIV MUL DUP4 MSTORE SWAP2 PUSH1 0x20 ADD SWAP2 PUSH2 0x9AB JUMP JUMPDEST DUP3 ADD SWAP2 SWAP1 PUSH0 MSTORE PUSH1 0x20 PUSH0 KECCAK256 SWAP1 JUMPDEST DUP2 SLOAD DUP2 MSTORE SWAP1 PUSH1 0x1 ADD SWAP1 PUSH1 0x20 ADD DUP1 DUP4 GT PUSH2 0x98E JUMPI DUP3 SWAP1 SUB PUSH1 0x1F AND DUP3 ADD SWAP2 JUMPDEST POP POP POP POP POP SWAP3 POP DUP2 DUP1 SLOAD PUSH2 0x9BE SWAP1 PUSH2 0x1092 JUMP JUMPDEST DUP1 PUSH1 0x1F ADD PUSH1 0x20 DUP1 SWAP2 DIV MUL PUSH1 0x20 ADD PUSH1 0x40 MLOAD SWAP1 DUP2 ADD PUSH1 0x40 MSTORE DUP1 SWAP3 SWAP2 SWAP1 DUP2 DUP2 MSTORE PUSH1 0x20 ADD DUP3 DUP1 SLOAD PUSH2 0x9EA SWAP1 PUSH2 0x1092 JUMP JUMPDEST DUP1 ISZERO PUSH2 0xA35 JUMPI DUP1 PUSH1 0x1F LT PUSH2 0xA0C JUMPI PUSH2 0x100 DUP1 DUP4 SLOAD DIV MUL DUP4 MSTORE SWAP2 PUSH1 0x20 ADD SWAP2 PUSH2 0xA35 JUMP JUMPDEST DUP3 ADD SWAP2 SWAP1 PUSH0 MSTORE PUSH1 0x20 PUSH0 KECCAK256 SWAP1 JUMPDEST DUP2 SLOAD DUP2 MSTORE SWAP1 PUSH1 0x1 ADD SWAP1 PUSH1 0x20 ADD DUP1 DUP4 GT PUSH2 0xA18 JUMPI DUP3 SWAP1 SUB PUSH1 0x1F AND DUP3 ADD SWAP2 JUMPDEST POP POP POP POP POP SWAP2 POP DUP1 DUP1 SLOAD PUSH2 0xA48 SWAP1 PUSH2 0x1092 JUMP JUMPDEST DUP1 PUSH1 0x1F ADD PUSH1 0x20 DUP1 SWAP2 DIV MUL PUSH1 0x20 ADD PUSH1 0x40 MLOAD SWAP1 DUP2 ADD PUSH1 0x40 MSTORE DUP1 SWAP3 SWAP2 SWAP1 DUP2 DUP2 MSTORE PUSH1 0x20 ADD DUP3 DUP1 SLOAD PUSH2 0xA74 SWAP1 PUSH2 0x1092 JUMP JUMPDEST DUP1 ISZERO PUSH2 0xABF JUMPI DUP1 PUSH1 0x1F LT PUSH2 0xA96 JUMPI PUSH2 0x100 DUP1 DUP4 SLOAD DIV MUL DUP4 MSTORE SWAP2 PUSH1 0x20 ADD SWAP2 PUSH2 0xABF JUMP JUMPDEST DUP3 ADD SWAP2 SWAP1 PUSH0 MSTORE PUSH1 0x20 PUSH0 KECCAK256 SWAP1 JUMPDEST DUP2 SLOAD DUP2 MSTORE SWAP1 PUSH1 0x1 ADD SWAP1 PUSH1 0x20 ADD DUP1 DUP4 GT PUSH2 0xAA2 JUMPI DUP3 SWAP1 SUB PUSH1 0x1F AND DUP3 ADD SWAP2 JUMPDEST POP POP POP POP POP SWAP1 POP SWAP4 POP SWAP4 POP SWAP4 POP SWAP4 POP SWAP1 SWAP2 SWAP3 SWAP4 JUMP JUMPDEST PUSH1 0x1 SLOAD PUSH2 0x100 SWAP1 DIV PUSH1 0x1 PUSH1 0x1 PUSH1 0xA0 SHL SUB AND CALLER EQ DUP1 PUSH2 0xAFC JUMPI POP PUSH1 0x2 SLOAD PUSH1 0x1 PUSH1 0x1 PUSH1 0xA0 SHL SUB AND CALLER EQ JUMPDEST PUSH2 0xB18 JUMPI PUSH1 0x40 MLOAD PUSH3 0x461BCD PUSH1 0xE5 SHL DUP2 MSTORE PUSH1 0x4 ADD PUSH2 0x252 SWAP1 PUSH2 0x106E JUMP JUMPDEST PUSH0 PUSH2 0x2FD DUP3 DUP3 PUSH2 0x1116 JUMP JUMPDEST PUSH1 0x1 PUSH1 0x1 PUSH1 0xA0 SHL SUB DUP2 AND ISZERO ISZERO DUP1 PUSH2 0xB70 JUMPI POP PUSH1 0x2 SLOAD PUSH1 0x1 PUSH1 0x1 PUSH1 0xA0 SHL SUB AND CALLER EQ DUP1 PUSH2 0xB5D JUMPI POP PUSH1 0x1 SLOAD PUSH2 0x100 SWAP1 DIV PUSH1 0x1 PUSH1 0x1 PUSH1 0xA0 SHL SUB AND CALLER EQ JUMPDEST DUP1 PUSH2 0xB70 JUMPI POP CALLER PUSH1 0x1 PUSH1 0x1 PUSH1 0xA0 SHL SUB DUP3 AND EQ JUMPDEST PUSH2 0xBA8 JUMPI PUSH1 0x40 MLOAD PUSH3 0x461BCD PUSH1 0xE5 SHL DUP2 MSTORE PUSH1 0x20 PUSH1 0x4 DUP3 ADD MSTORE PUSH1 0x9 PUSH1 0x24 DUP3 ADD MSTORE PUSH9 0x2337B93134B23232B7 PUSH1 0xB9 SHL PUSH1 0x44 DUP3 ADD MSTORE PUSH1 0x64 ADD PUSH2 0x252 JUMP JUMPDEST PUSH0 PUSH2 0xC09 DUP3 PUSH1 0x3 DUP1 SLOAD DUP1 PUSH1 0x20 MUL PUSH1 0x20 ADD PUSH1 0x40 MLOAD SWAP1 DUP2 ADD PUSH1 0x40 MSTORE DUP1 SWAP3 SWAP2 SWAP1 DUP2 DUP2 MSTORE PUSH1 0x20 ADD DUP3 DUP1 SLOAD DUP1 ISZERO PUSH2 0x477 JUMPI PUSH1 0x20 MUL DUP3 ADD SWAP2 SWAP1 PUSH0 MSTORE PUSH1 0x20 PUSH0 KECCAK256 SWAP1 DUP2 SLOAD PUSH1 0x1 PUSH1 0x1 PUSH1 0xA0 SHL SUB AND DUP2 MSTORE PUSH1 0x1 SWAP1 SWAP2 ADD SWAP1 PUSH1 0x20 ADD DUP1 DUP4 GT PUSH2 0x459 JUMPI POP POP POP POP POP PUSH2 0xC56 JUMP JUMPDEST SWAP1 POP PUSH0 NOT DUP2 SGT PUSH2 0xC47 JUMPI PUSH1 0x40 MLOAD PUSH3 0x461BCD PUSH1 0xE5 SHL DUP2 MSTORE PUSH1 0x20 PUSH1 0x4 DUP3 ADD MSTORE PUSH1 0x9 PUSH1 0x24 DUP3 ADD MSTORE PUSH9 0x139BDD08199BDD5B99 PUSH1 0xBA SHL PUSH1 0x44 DUP3 ADD MSTORE PUSH1 0x64 ADD PUSH2 0x252 JUMP JUMPDEST PUSH2 0xC52 DUP2 PUSH1 0x3 PUSH2 0xCAF JUMP JUMPDEST POP POP JUMP JUMPDEST PUSH0 DUP1 JUMPDEST DUP3 MLOAD DUP2 LT ISZERO PUSH2 0xCA3 JUMPI DUP4 PUSH1 0x1 PUSH1 0x1 PUSH1 0xA0 SHL SUB AND DUP4 DUP3 DUP2 MLOAD DUP2 LT PUSH2 0xC7E JUMPI PUSH2 0xC7E PUSH2 0x11D1 JUMP JUMPDEST PUSH1 0x20 MUL PUSH1 0x20 ADD ADD MLOAD PUSH1 0x1 PUSH1 0x1 PUSH1 0xA0 SHL SUB AND SUB PUSH2 0xC9B JUMPI SWAP1 POP PUSH2 0xCA9 JUMP JUMPDEST PUSH1 0x1 ADD PUSH2 0xC59 JUMP JUMPDEST POP PUSH0 NOT SWAP1 POP JUMPDEST SWAP3 SWAP2 POP POP JUMP JUMPDEST PUSH0 DUP3 SLT ISZERO DUP1 ISZERO PUSH2 0xCBF JUMPI POP DUP1 SLOAD DUP3 LT JUMPDEST PUSH2 0xCF4 JUMPI PUSH1 0x40 MLOAD PUSH3 0x461BCD PUSH1 0xE5 SHL DUP2 MSTORE PUSH1 0x20 PUSH1 0x4 DUP3 ADD MSTORE PUSH1 0x6 PUSH1 0x24 DUP3 ADD MSTORE PUSH6 0x9CDE40D2C8F PUSH1 0xD3 SHL PUSH1 0x44 DUP3 ADD MSTORE PUSH1 0x64 ADD PUSH2 0x252 JUMP JUMPDEST DUP2 JUMPDEST DUP2 SLOAD PUSH2 0xD04 SWAP1 PUSH1 0x1 SWAP1 PUSH2 0x11F9 JUMP JUMPDEST DUP2 LT ISZERO PUSH2 0xD84 JUMPI DUP2 PUSH2 0xD17 DUP3 PUSH1 0x1 PUSH2 0x120C JUMP JUMPDEST DUP2 SLOAD DUP2 LT PUSH2 0xD27 JUMPI PUSH2 0xD27 PUSH2 0x11D1 JUMP JUMPDEST SWAP1 PUSH0 MSTORE PUSH1 0x20 PUSH0 KECCAK256 ADD PUSH0 SWAP1 SLOAD SWAP1 PUSH2 0x100 EXP SWAP1 DIV PUSH1 0x1 PUSH1 0x1 PUSH1 0xA0 SHL SUB AND DUP3 DUP3 DUP2 SLOAD DUP2 LT PUSH2 0xD54 JUMPI PUSH2 0xD54 PUSH2 0x11D1 JUMP JUMPDEST PUSH0 SWAP2 DUP3 MSTORE PUSH1 0x20 SWAP1 SWAP2 KECCAK256 ADD DUP1 SLOAD PUSH1 0x1 PUSH1 0x1 PUSH1 0xA0 SHL SUB NOT AND PUSH1 0x1 PUSH1 0x1 PUSH1 0xA0 SHL SUB SWAP3 SWAP1 SWAP3 AND SWAP2 SWAP1 SWAP2 OR SWAP1 SSTORE PUSH1 0x1 ADD PUSH2 0xCF6 JUMP JUMPDEST POP DUP1 DUP1 SLOAD DUP1 PUSH2 0xD95 JUMPI PUSH2 0xD95 PUSH2 0x121F JUMP JUMPDEST PUSH0 DUP3 DUP2 MSTORE PUSH1 0x20 SWAP1 KECCAK256 DUP2 ADD PUSH0 NOT SWAP1 DUP2 ADD DUP1 SLOAD PUSH1 0x1 PUSH1 0x1 PUSH1 0xA0 SHL SUB NOT AND SWAP1 SSTORE ADD SWAP1 SSTORE POP POP JUMP JUMPDEST PUSH0 PUSH1 0x20 DUP3 DUP5 SUB SLT ISZERO PUSH2 0xDC9 JUMPI PUSH0 DUP1 REVERT JUMPDEST DUP2 CALLDATALOAD PUSH1 0x1 PUSH1 0x1 PUSH1 0xA0 SHL SUB DUP2 AND DUP2 EQ PUSH2 0xDDF JUMPI PUSH0 DUP1 REVERT JUMPDEST SWAP4 SWAP3 POP POP POP JUMP JUMPDEST PUSH4 0x4E487B71 PUSH1 0xE0 SHL PUSH0 MSTORE PUSH1 0x41 PUSH1 0x4 MSTORE PUSH1 0x24 PUSH0 REVERT JUMPDEST PUSH0 DUP3 PUSH1 0x1F DUP4 ADD SLT PUSH2 0xE09 JUMPI PUSH0 DUP1 REVERT JUMPDEST DUP2 CALLDATALOAD PUSH8 0xFFFFFFFFFFFFFFFF DUP2 GT ISZERO PUSH2 0xE23 JUMPI PUSH2 0xE23 PUSH2 0xDE6 JUMP JUMPDEST PUSH1 0x40 MLOAD PUSH1 0x1F DUP3 ADD PUSH1 0x1F NOT SWAP1 DUP2 AND PUSH1 0x3F ADD AND DUP2 ADD PUSH8 0xFFFFFFFFFFFFFFFF DUP2 GT DUP3 DUP3 LT OR ISZERO PUSH2 0xE52 JUMPI PUSH2 0xE52 PUSH2 0xDE6 JUMP JUMPDEST PUSH1 0x40 MSTORE DUP2 DUP2 MSTORE DUP4 DUP3 ADD PUSH1 0x20 ADD DUP6 LT ISZERO PUSH2 0xE69 JUMPI PUSH0 DUP1 REVERT JUMPDEST DUP2 PUSH1 0x20 DUP6 ADD PUSH1 0x20 DUP4 ADD CALLDATACOPY PUSH0 SWAP2 DUP2 ADD PUSH1 0x20 ADD SWAP2 SWAP1 SWAP2 MSTORE SWAP4 SWAP3 POP POP POP JUMP JUMPDEST PUSH0 PUSH1 0x20 DUP3 DUP5 SUB SLT ISZERO PUSH2 0xE95 JUMPI PUSH0 DUP1 REVERT JUMPDEST DUP2 CALLDATALOAD PUSH8 0xFFFFFFFFFFFFFFFF DUP2 GT ISZERO PUSH2 0xEAB JUMPI PUSH0 DUP1 REVERT JUMPDEST PUSH2 0xEB7 DUP5 DUP3 DUP6 ADD PUSH2 0xDFA JUMP JUMPDEST SWAP5 SWAP4 POP POP POP POP JUMP JUMPDEST PUSH1 0x20 DUP2 ADD PUSH1 0x3 DUP4 LT PUSH2 0xEDF JUMPI PUSH4 0x4E487B71 PUSH1 0xE0 SHL PUSH0 MSTORE PUSH1 0x21 PUSH1 0x4 MSTORE PUSH1 0x24 PUSH0 REVERT JUMPDEST SWAP2 SWAP1 MSTORE SWAP1 JUMP JUMPDEST PUSH1 0x20 DUP1 DUP3 MSTORE DUP3 MLOAD DUP3 DUP3 ADD DUP2 SWAP1 MSTORE PUSH0 SWAP2 DUP5 ADD SWAP1 PUSH1 0x40 DUP5 ADD SWAP1 DUP4 JUMPDEST DUP2 DUP2 LT ISZERO PUSH2 0xF25 JUMPI DUP4 MLOAD PUSH1 0x1 PUSH1 0x1 PUSH1 0xA0 SHL SUB AND DUP4 MSTORE PUSH1 0x20 SWAP4 DUP5 ADD SWAP4 SWAP1 SWAP3 ADD SWAP2 PUSH1 0x1 ADD PUSH2 0xEFE JUMP JUMPDEST POP SWAP1 SWAP6 SWAP5 POP POP POP POP POP JUMP JUMPDEST PUSH0 DUP1 PUSH0 DUP1 PUSH1 0x80 DUP6 DUP8 SUB SLT ISZERO PUSH2 0xF43 JUMPI PUSH0 DUP1 REVERT JUMPDEST DUP5 CALLDATALOAD PUSH8 0xFFFFFFFFFFFFFFFF DUP2 GT ISZERO PUSH2 0xF59 JUMPI PUSH0 DUP1 REVERT JUMPDEST PUSH2 0xF65 DUP8 DUP3 DUP9 ADD PUSH2 0xDFA JUMP JUMPDEST SWAP5 POP POP PUSH1 0x20 DUP6 ADD CALLDATALOAD PUSH8 0xFFFFFFFFFFFFFFFF DUP2 GT ISZERO PUSH2 0xF81 JUMPI PUSH0 DUP1 REVERT JUMPDEST PUSH2 0xF8D DUP8 DUP3 DUP9 ADD PUSH2 0xDFA JUMP JUMPDEST SWAP4 POP POP PUSH1 0x40 DUP6 ADD CALLDATALOAD PUSH8 0xFFFFFFFFFFFFFFFF DUP2 GT ISZERO PUSH2 0xFA9 JUMPI PUSH0 DUP1 REVERT JUMPDEST PUSH2 0xFB5 DUP8 DUP3 DUP9 ADD PUSH2 0xDFA JUMP JUMPDEST SWAP3 POP POP PUSH1 0x60 DUP6 ADD CALLDATALOAD PUSH8 0xFFFFFFFFFFFFFFFF DUP2 GT ISZERO PUSH2 0xFD1 JUMPI PUSH0 DUP1 REVERT JUMPDEST PUSH2 0xFDD DUP8 DUP3 DUP9 ADD PUSH2 0xDFA JUMP JUMPDEST SWAP2 POP POP SWAP3 SWAP6 SWAP2 SWAP5 POP SWAP3 POP JUMP JUMPDEST PUSH0 DUP2 MLOAD DUP1 DUP5 MSTORE DUP1 PUSH1 0x20 DUP5 ADD PUSH1 0x20 DUP7 ADD MCOPY PUSH0 PUSH1 0x20 DUP3 DUP7 ADD ADD MSTORE PUSH1 0x20 PUSH1 0x1F NOT PUSH1 0x1F DUP4 ADD AND DUP6 ADD ADD SWAP2 POP POP SWAP3 SWAP2 POP POP JUMP JUMPDEST PUSH1 0x80 DUP2 MSTORE PUSH0 PUSH2 0x1029 PUSH1 0x80 DUP4 ADD DUP8 PUSH2 0xFE9 JUMP JUMPDEST DUP3 DUP2 SUB PUSH1 0x20 DUP5 ADD MSTORE PUSH2 0x103B DUP2 DUP8 PUSH2 0xFE9 JUMP JUMPDEST SWAP1 POP DUP3 DUP2 SUB PUSH1 0x40 DUP5 ADD MSTORE PUSH2 0x104F DUP2 DUP7 PUSH2 0xFE9 JUMP JUMPDEST SWAP1 POP DUP3 DUP2 SUB PUSH1 0x60 DUP5 ADD MSTORE PUSH2 0x1063 DUP2 DUP6 PUSH2 0xFE9 JUMP JUMPDEST SWAP8 SWAP7 POP POP POP POP POP POP POP JUMP JUMPDEST PUSH1 0x20 DUP1 DUP3 MSTORE PUSH1 0xA SWAP1 DUP3 ADD MSTORE PUSH10 0x27B7363C9037BBB732B9 PUSH1 0xB1 SHL PUSH1 0x40 DUP3 ADD MSTORE PUSH1 0x60 ADD SWAP1 JUMP JUMPDEST PUSH1 0x1 DUP2 DUP2 SHR SWAP1 DUP3 AND DUP1 PUSH2 0x10A6 JUMPI PUSH1 0x7F DUP3 AND SWAP2 POP JUMPDEST PUSH1 0x20 DUP3 LT DUP2 SUB PUSH2 0x10C4 JUMPI PUSH4 0x4E487B71 PUSH1 0xE0 SHL PUSH0 MSTORE PUSH1 0x22 PUSH1 0x4 MSTORE PUSH1 0x24 PUSH0 REVERT JUMPDEST POP SWAP2 SWAP1 POP JUMP JUMPDEST PUSH1 0x1F DUP3 GT ISZERO PUSH2 0x1111 JUMPI DUP1 PUSH0 MSTORE PUSH1 0x20 PUSH0 KECCAK256 PUSH1 0x1F DUP5 ADD PUSH1 0x5 SHR DUP2 ADD PUSH1 0x20 DUP6 LT ISZERO PUSH2 0x10EF JUMPI POP DUP1 JUMPDEST PUSH1 0x1F DUP5 ADD PUSH1 0x5 SHR DUP3 ADD SWAP2 POP JUMPDEST DUP2 DUP2 LT ISZERO PUSH2 0x110E JUMPI PUSH0 DUP2 SSTORE PUSH1 0x1 ADD PUSH2 0x10FB JUMP JUMPDEST POP POP JUMPDEST POP POP POP JUMP JUMPDEST DUP2 MLOAD PUSH8 0xFFFFFFFFFFFFFFFF DUP2 GT ISZERO PUSH2 0x1130 JUMPI PUSH2 0x1130 PUSH2 0xDE6 JUMP JUMPDEST PUSH2 0x1144 DUP2 PUSH2 0x113E DUP5 SLOAD PUSH2 0x1092 JUMP JUMPDEST DUP5 PUSH2 0x10CA JUMP JUMPDEST PUSH1 0x20 PUSH1 0x1F DUP3 GT PUSH1 0x1 DUP2 EQ PUSH2 0x1176 JUMPI PUSH0 DUP4 ISZERO PUSH2 0x115F JUMPI POP DUP5 DUP3 ADD MLOAD JUMPDEST PUSH0 NOT PUSH1 0x3 DUP6 SWAP1 SHL SHR NOT AND PUSH1 0x1 DUP5 SWAP1 SHL OR DUP5 SSTORE PUSH2 0x110E JUMP JUMPDEST PUSH0 DUP5 DUP2 MSTORE PUSH1 0x20 DUP2 KECCAK256 PUSH1 0x1F NOT DUP6 AND SWAP2 JUMPDEST DUP3 DUP2 LT ISZERO PUSH2 0x11A5 JUMPI DUP8 DUP6 ADD MLOAD DUP3 SSTORE PUSH1 0x20 SWAP5 DUP6 ADD SWAP5 PUSH1 0x1 SWAP1 SWAP3 ADD SWAP2 ADD PUSH2 0x1185 JUMP JUMPDEST POP DUP5 DUP3 LT ISZERO PUSH2 0x11C2 JUMPI DUP7 DUP5 ADD MLOAD PUSH0 NOT PUSH1 0x3 DUP8 SWAP1 SHL PUSH1 0xF8 AND SHR NOT AND DUP2 SSTORE JUMPDEST POP POP POP POP PUSH1 0x1 SWAP1 DUP2 SHL ADD SWAP1 SSTORE POP JUMP JUMPDEST PUSH4 0x4E487B71 PUSH1 0xE0 SHL PUSH0 MSTORE PUSH1 0x32 PUSH1 0x4 MSTORE PUSH1 0x24 PUSH0 REVERT JUMPDEST PUSH4 0x4E487B71 PUSH1 0xE0 SHL PUSH0 MSTORE PUSH1 0x11 PUSH1 0x4 MSTORE PUSH1 0x24 PUSH0 REVERT JUMPDEST DUP2 DUP2 SUB DUP2 DUP2 GT ISZERO PUSH2 0xCA9 JUMPI PUSH2 0xCA9 PUSH2 0x11E5 JUMP JUMPDEST DUP1 DUP3 ADD DUP1 DUP3 GT ISZERO PUSH2 0xCA9 JUMPI PUSH2 0xCA9 PUSH2 0x11E5 JUMP JUMPDEST PUSH4 0x4E487B71 PUSH1 0xE0 SHL PUSH0 MSTORE PUSH1 0x31 PUSH1 0x4 MSTORE PUSH1 0x24 PUSH0 REVERT INVALID LOG2 PUSH5 0x6970667358 0x22 SLT KECCAK256 0xD3 EXP 0xA5 XOR ISZERO CREATE2 PUSH13 0xE45553DB8F21A0DDA1A74264A0 0xAF 0xB9 STOP SMOD BASEFEE SWAP5 CHAINID NOT 0xDC 0xBB 0xA9 0x2C PUSH5 0x736F6C6343 STOP ADDMOD BYTE STOP CALLER LOG2 PUSH5 0x6970667358 0x22 SLT KECCAK256 0x4F 0xC3 0xBE MCOPY LOG4 PUSH30 0xFC729C3DD1206E932E05247561C6172309BFB429C6B3EDED6C6764736F6C PUSH4 0x4300081A STOP CALLER "
		},
		"gasEstimates": {
			"creation": {
				"codeDepositCost": "4298600",
				"executionCost": "infinite",
				"totalCost": "infinite"
			},
			"external": {
				"": "205",
				"addSharedItem(uint8,address)": "infinite",
				"createDebitCard(string,string,string,uint16,uint16)": "infinite",
				"createLoyalityCard(string,string)": "infinite",
				"createPassword(string,string,string,string)": "infinite",
				"deleteItem(uint8,address)": "infinite",
				"deposit()": "205",
				"getBalance()": "4565",
				"getItem(uint8)": "infinite",
				"getSharedItems(uint8)": "infinite",
				"removeShareditem(uint8,address)": "infinite",
				"sendTo(address,uint256)": "infinite",
				"withdraw(uint256)": "infinite"
			}
		},
		"methodIdentifiers": {
			"addSharedItem(uint8,address)": "835c6916",
			"createDebitCard(string,string,string,uint16,uint16)": "14deffc1",
			"createLoyalityCard(string,string)": "3046e41b",
			"createPassword(string,string,string,string)": "97d27cd5",
			"deleteItem(uint8,address)": "26e3bc4e",
			"deposit()": "d0e30db0",
			"getBalance()": "12065fe0",
			"getItem(uint8)": "78bd5202",
			"getSharedItems(uint8)": "c9afc5da",
			"removeShareditem(uint8,address)": "32d3deda",
			"sendTo(address,uint256)": "9e1a00aa",
			"withdraw(uint256)": "2e1a7d4d"
		}
	},
	"abi": [
		{
			"inputs": [
				{
					"internalType": "address payable",
					"name": "_owner",
					"type": "address"
				},
				{
					"internalType": "address",
					"name": "_manager",
					"type": "address"
				}
			],
			"stateMutability": "nonpayable",
			"type": "constructor"
		},
		{
			"stateMutability": "payable",
			"type": "fallback"
		},
		{
			"inputs": [
				{
					"internalType": "enum Constants.ItemType",
					"name": "_t",
					"type": "uint8"
				},
				{
					"internalType": "address",
					"name": "_a",
					"type": "address"
				}
			],
			"name": "addSharedItem",
			"outputs": [],
			"stateMutability": "nonpayable",
			"type": "function"
		},
		{
			"inputs": [
				{
					"internalType": "string",
					"name": "_n",
					"type": "string"
				},
				{
					"internalType": "string",
					"name": "_crd_id",
					"type": "string"
				},
				{
					"internalType": "string",
					"name": "_noc",
					"type": "string"
				},
				{
					"internalType": "uint16",
					"name": "_e_at",
					"type": "uint16"
				},
				{
					"internalType": "uint16",
					"name": "_cvv",
					"type": "uint16"
				}
			],
			"name": "createDebitCard",
			"outputs": [],
			"stateMutability": "nonpayable",
			"type": "function"
		},
		{
			"inputs": [
				{
					"internalType": "string",
					"name": "_n",
					"type": "string"
				},
				{
					"internalType": "string",
					"name": "_crd_id",
					"type": "string"
				}
			],
			"name": "createLoyalityCard",
			"outputs": [],
			"stateMutability": "nonpayable",
			"type": "function"
		},
		{
			"inputs": [
				{
					"internalType": "string",
					"name": "_n",
					"type": "string"
				},
				{
					"internalType": "string",
					"name": "_u",
					"type": "string"
				},
				{
					"internalType": "string",
					"name": "_un",
					"type": "string"
				},
				{
					"internalType": "string",
					"name": "_p",
					"type": "string"
				}
			],
			"name": "createPassword",
			"outputs": [],
			"stateMutability": "nonpayable",
			"type": "function"
		},
		{
			"inputs": [
				{
					"internalType": "enum Constants.ItemType",
					"name": "_t",
					"type": "uint8"
				},
				{
					"internalType": "address",
					"name": "_a",
					"type": "address"
				}
			],
			"name": "deleteItem",
			"outputs": [],
			"stateMutability": "nonpayable",
			"type": "function"
		},
		{
			"inputs": [],
			"name": "deposit",
			"outputs": [],
			"stateMutability": "payable",
			"type": "function"
		},
		{
			"inputs": [],
			"name": "getBalance",
			"outputs": [
				{
					"internalType": "uint256",
					"name": "",
					"type": "uint256"
				}
			],
			"stateMutability": "view",
			"type": "function"
		},
		{
			"inputs": [
				{
					"internalType": "enum Constants.ItemType",
					"name": "_t",
					"type": "uint8"
				}
			],
			"name": "getItem",
			"outputs": [
				{
					"internalType": "address[]",
					"name": "",
					"type": "address[]"
				}
			],
			"stateMutability": "view",
			"type": "function"
		},
		{
			"inputs": [
				{
					"internalType": "enum Constants.ItemType",
					"name": "_t",
					"type": "uint8"
				}
			],
			"name": "getSharedItems",
			"outputs": [
				{
					"internalType": "address[]",
					"name": "",
					"type": "address[]"
				}
			],
			"stateMutability": "view",
			"type": "function"
		},
		{
			"inputs": [
				{
					"internalType": "enum Constants.ItemType",
					"name": "_t",
					"type": "uint8"
				},
				{
					"internalType": "address",
					"name": "_a",
					"type": "address"
				}
			],
			"name": "removeShareditem",
			"outputs": [],
			"stateMutability": "nonpayable",
			"type": "function"
		},
		{
			"inputs": [
				{
					"internalType": "address payable",
					"name": "_to",
					"type": "address"
				},
				{
					"internalType": "uint256",
					"name": "_a",
					"type": "uint256"
				}
			],
			"name": "sendTo",
			"outputs": [],
			"stateMutability": "payable",
			"type": "function"
		},
		{
			"inputs": [
				{
					"internalType": "uint256",
					"name": "_a",
					"type": "uint256"
				}
			],
			"name": "withdraw",
			"outputs": [],
			"stateMutability": "payable",
			"type": "function"
		},
		{
			"stateMutability": "payable",
			"type": "receive"
		}
	]
}